{
	"data": {
		"bytecode": {
			"linkReferences": {},
			"object": "608060405234801562000010575f80fd5b506040516200301d3803806200301d833981810160405281019062000036919062000575565b5f73ffffffffffffffffffffffffffffffffffffffff168373ffffffffffffffffffffffffffffffffffffffff16141580156200009f57505f73ffffffffffffffffffffffffffffffffffffffff168273ffffffffffffffffffffffffffffffffffffffff1614155b8015620000d857505f73ffffffffffffffffffffffffffffffffffffffff168173ffffffffffffffffffffffffffffffffffffffff1614155b6200011a576040517f08c379a000000000000000000000000000000000000000000000000000000000815260040162000111906200062c565b60405180910390fd5b6200013d5f801b620001316200031460201b60201c565b6200031b60201b60201c565b50620001817fb19546dff01e856fb3f010c267a7b1c60363cf8a4664e21cc89c26224620214e5f1b620001756200031460201b60201c565b6200031b60201b60201c565b508160015f6101000a81548173ffffffffffffffffffffffffffffffffffffffff021916908373ffffffffffffffffffffffffffffffffffffffff1602179055508260025f6101000a81548173ffffffffffffffffffffffffffffffffffffffff021916908373ffffffffffffffffffffffffffffffffffffffff1602179055508060035f6101000a81548173ffffffffffffffffffffffffffffffffffffffff021916908373ffffffffffffffffffffffffffffffffffffffff1602179055508173ffffffffffffffffffffffffffffffffffffffff167f7170bf15b246e880b2369cd7c67d057760d8a35149e8c64dde91efa22bcc76d060405160405180910390a28273ffffffffffffffffffffffffffffffffffffffff167f811d3016da8008875247af93af072ec7801e39d9f4c686fec82ab600d8e555e860405160405180910390a28073ffffffffffffffffffffffffffffffffffffffff167f2fa8b95c1db7afe99e3398f3792f008135cedc1fa26b0bb2ecd2352cd166d53c60405160405180910390a25050506200064c565b5f33905090565b5f6200032e83836200041660201b60201c565b6200040c5760015f808581526020019081526020015f205f015f8473ffffffffffffffffffffffffffffffffffffffff1673ffffffffffffffffffffffffffffffffffffffff1681526020019081526020015f205f6101000a81548160ff021916908315150217905550620003a86200031460201b60201c565b73ffffffffffffffffffffffffffffffffffffffff168273ffffffffffffffffffffffffffffffffffffffff16847f2f8788117e7eff1d82e926ec794901d17c78024a50270940304540a733656f0d60405160405180910390a46001905062000410565b5f90505b92915050565b5f805f8481526020019081526020015f205f015f8373ffffffffffffffffffffffffffffffffffffffff1673ffffffffffffffffffffffffffffffffffffffff1681526020019081526020015f205f9054906101000a900460ff16905092915050565b5f80fd5b5f73ffffffffffffffffffffffffffffffffffffffff82169050919050565b5f620004a8826200047d565b9050919050565b5f620004bb826200049c565b9050919050565b620004cd81620004af565b8114620004d8575f80fd5b50565b5f81519050620004eb81620004c2565b92915050565b5f620004fd826200049c565b9050919050565b6200050f81620004f1565b81146200051a575f80fd5b50565b5f815190506200052d8162000504565b92915050565b5f6200053f826200049c565b9050919050565b620005518162000533565b81146200055c575f80fd5b50565b5f815190506200056f8162000546565b92915050565b5f805f606084860312156200058f576200058e62000479565b5b5f6200059e86828701620004db565b9350506020620005b1868287016200051d565b9250506040620005c4868287016200055f565b9150509250925092565b5f82825260208201905092915050565b7f4552432d333634333a20496e76616c6964207a65726f206164647265737300005f82015250565b5f62000614601e83620005ce565b91506200062182620005de565b602082019050919050565b5f6020820190508181035f830152620006458162000606565b9050919050565b6129c3806200065a5f395ff3fe608060405234801561000f575f80fd5b5060043610610156575f3560e01c80636bc72c90116100c1578063b4f3fcb71161007a578063b4f3fcb7146103bc578063b9209e33146103da578063d547741f1461040a578063e58378bb14610426578063f0eb5e5414610444578063f11abfd81461047457610156565b80636bc72c90146102ea5780637e42683b146103065780638e098ca11461033657806391d1485414610352578063a217fddf14610382578063a8d29d1d146103a057610156565b80633b239a7f116101135780633b239a7f1461022c5780633b3e12f414610248578063454a03e0146102665780635dbe47e814610282578063653dc9f1146102b2578063670af6a9146102ce57610156565b806301ffc9a71461015a57806322459e181461018a578063248a9ca3146101a857806326d941ae146101d85780632f2ff15d146101f457806336568abe14610210575b5f80fd5b610174600480360381019061016f91906118be565b610492565b6040516101819190611903565b60405180910390f35b61019261050b565b60405161019f9190611934565b60405180910390f35b6101c260048036038101906101bd9190611977565b610531565b6040516101cf9190611934565b60405180910390f35b6101f260048036038101906101ed9190611a0d565b61054d565b005b61020e60048036038101906102099190611a62565b610600565b005b61022a60048036038101906102259190611a62565b610622565b005b61024660048036038101906102419190611ad7565b61069d565b005b61025061079f565b60405161025d9190611b70565b60405180910390f35b610280600480360381019061027b9190611bc4565b6107c7565b005b61029c60048036038101906102979190611c14565b610804565b6040516102a99190611903565b60405180910390f35b6102cc60048036038101906102c79190611d4a565b610850565b005b6102e860048036038101906102e39190611e35565b6109ad565b005b61030460048036038101906102ff9190611e9b565b610a60565b005b610320600480360381019061031b9190611c14565b610b13565b60405161032d9190611ed5565b60405180910390f35b610350600480360381019061034b9190611eee565b610bb4565b005b61036c60048036038101906103679190611a62565b610cd5565b6040516103799190611903565b60405180910390f35b61038a610d38565b6040516103979190611934565b60405180910390f35b6103ba60048036038101906103b59190611c14565b610d3e565b005b6103c4610e5c565b6040516103d19190611f4c565b60405180910390f35b6103f460048036038101906103ef9190611c14565b610e84565b6040516104019190611903565b60405180910390f35b610424600480360381019061041f9190611a62565b610fd8565b005b61042e610ffa565b60405161043b9190611934565b60405180910390f35b61045e60048036038101906104599190611c14565b611020565b60405161046b9190611f85565b60405180910390f35b61047c6110c1565b6040516104899190611fbe565b60405180910390f35b5f7f7965db0b000000000000000000000000000000000000000000000000000000007bffffffffffffffffffffffffffffffffffffffffffffffffffffffff1916827bffffffffffffffffffffffffffffffffffffffffffffffffffffffff191614806105045750610503826110e9565b5b9050919050565b7fcab5a0bfe0b79d2c4b1c2e02599fa044d115b7511f9659307cb42769509677095f1b81565b5f805f8381526020019081526020015f20600101549050919050565b7fb19546dff01e856fb3f010c267a7b1c60363cf8a4664e21cc89c26224620214e5f1b61057981611152565b8160035f6101000a81548173ffffffffffffffffffffffffffffffffffffffff021916908373ffffffffffffffffffffffffffffffffffffffff1602179055508173ffffffffffffffffffffffffffffffffffffffff167f2fa8b95c1db7afe99e3398f3792f008135cedc1fa26b0bb2ecd2352cd166d53c60405160405180910390a25050565b61060982610531565b61061281611152565b61061c8383611166565b50505050565b61062a61124f565b73ffffffffffffffffffffffffffffffffffffffff168173ffffffffffffffffffffffffffffffffffffffff161461068e576040517f6697b23200000000000000000000000000000000000000000000000000000000815260040160405180910390fd5b6106988282611256565b505050565b7fcab5a0bfe0b79d2c4b1c2e02599fa044d115b7511f9659307cb42769509677095f1b6106c981611152565b60035f9054906101000a900473ffffffffffffffffffffffffffffffffffffffff1673ffffffffffffffffffffffffffffffffffffffff16639f3418d584846040518363ffffffff1660e01b8152600401610725929190611fe6565b5f604051808303815f87803b15801561073c575f80fd5b505af115801561074e573d5f803e3d5ffd5b505050508161ffff168373ffffffffffffffffffffffffffffffffffffffff167f04ed3b726495c2dca1ff1215d9ca54e1a4030abb5e82b0f6ce55702416cee85360405160405180910390a3505050565b5f60015f9054906101000a900473ffffffffffffffffffffffffffffffffffffffff16905090565b7fcab5a0bfe0b79d2c4b1c2e02599fa044d115b7511f9659307cb42769509677095f1b6107f381611152565b6107fe84848461133f565b50505050565b5f8073ffffffffffffffffffffffffffffffffffffffff1661082583611020565b73ffffffffffffffffffffffffffffffffffffffff1614610847576001610849565b5f5b9050919050565b7fcab5a0bfe0b79d2c4b1c2e02599fa044d115b7511f9659307cb42769509677095f1b61087c81611152565b5f8787905090508585905081146108c8576040517f08c379a00000000000000000000000000000000000000000000000000000000081526004016108bf90612067565b60405180910390fd5b83839050811461090d576040517f08c379a000000000000000000000000000000000000000000000000000000000815260040161090490612067565b60405180910390fd5b5f5b818110156109a25761099789898381811061092d5761092c612085565b5b90506020020160208101906109429190611c14565b88888481811061095557610954612085565b5b905060200201602081019061096a91906120b2565b87878581811061097d5761097c612085565b5b905060200201602081019061099291906120dd565b61133f565b80600101905061090f565b505050505050505050565b7fb19546dff01e856fb3f010c267a7b1c60363cf8a4664e21cc89c26224620214e5f1b6109d981611152565b8160015f6101000a81548173ffffffffffffffffffffffffffffffffffffffff021916908373ffffffffffffffffffffffffffffffffffffffff1602179055508173ffffffffffffffffffffffffffffffffffffffff167f7170bf15b246e880b2369cd7c67d057760d8a35149e8c64dde91efa22bcc76d060405160405180910390a25050565b7fb19546dff01e856fb3f010c267a7b1c60363cf8a4664e21cc89c26224620214e5f1b610a8c81611152565b8160025f6101000a81548173ffffffffffffffffffffffffffffffffffffffff021916908373ffffffffffffffffffffffffffffffffffffffff1602179055508173ffffffffffffffffffffffffffffffffffffffff167f811d3016da8008875247af93af072ec7801e39d9f4c686fec82ab600d8e555e860405160405180910390a25050565b5f60035f9054906101000a900473ffffffffffffffffffffffffffffffffffffffff1673ffffffffffffffffffffffffffffffffffffffff1663727e13bc836040518263ffffffff1660e01b8152600401610b6e9190612108565b602060405180830381865afa158015610b89573d5f803e3d5ffd5b505050506040513d601f19601f82011682018060405250810190610bad9190612135565b9050919050565b7fcab5a0bfe0b79d2c4b1c2e02599fa044d115b7511f9659307cb42769509677095f1b610be081611152565b5f610bea84611429565b905060035f9054906101000a900473ffffffffffffffffffffffffffffffffffffffff1673ffffffffffffffffffffffffffffffffffffffff1663e805cf8685856040518363ffffffff1660e01b8152600401610c48929190612160565b5f604051808303815f87803b158015610c5f575f80fd5b505af1158015610c71573d5f803e3d5ffd5b505050508273ffffffffffffffffffffffffffffffffffffffff168173ffffffffffffffffffffffffffffffffffffffff167fe98082932c8056a0f514da9104e4a66bc2cbaef102ad59d90c4b24220ebf601060405160405180910390a350505050565b5f805f8481526020019081526020015f205f015f8373ffffffffffffffffffffffffffffffffffffffff1673ffffffffffffffffffffffffffffffffffffffff1681526020019081526020015f205f9054906101000a900460ff16905092915050565b5f801b81565b7fcab5a0bfe0b79d2c4b1c2e02599fa044d115b7511f9659307cb42769509677095f1b610d6a81611152565b5f610d7483611429565b905060035f9054906101000a900473ffffffffffffffffffffffffffffffffffffffff1673ffffffffffffffffffffffffffffffffffffffff1663cf191bcd846040518263ffffffff1660e01b8152600401610dd09190612108565b5f604051808303815f87803b158015610de7575f80fd5b505af1158015610df9573d5f803e3d5ffd5b505050508073ffffffffffffffffffffffffffffffffffffffff168373ffffffffffffffffffffffffffffffffffffffff167f59d6590e225b81befe259af056324092801080acbb7feab310eb34678871f32760405160405180910390a3505050565b5f60025f9054906101000a900473ffffffffffffffffffffffffffffffffffffffff16905090565b5f80610e8f83611429565b90505f73ffffffffffffffffffffffffffffffffffffffff168173ffffffffffffffffffffffffffffffffffffffff1603610ecd575f915050610fd3565b5f60015f9054906101000a900473ffffffffffffffffffffffffffffffffffffffff1673ffffffffffffffffffffffffffffffffffffffff1663df09d6046040518163ffffffff1660e01b81526004015f60405180830381865afa158015610f37573d5f803e3d5ffd5b505050506040513d5f823e3d601f19601f82011682018060405250810190610f5f9190612302565b90505f815190505f8103610f795760019350505050610fd3565b5f5b81811015610fca57610fa784848381518110610f9a57610f99612085565b5b60200260200101516114ca565b610fb7575f945050505050610fd3565b8080610fc290612376565b915050610f7b565b50600193505050505b919050565b610fe182610531565b610fea81611152565b610ff48383611256565b50505050565b7fb19546dff01e856fb3f010c267a7b1c60363cf8a4664e21cc89c26224620214e5f1b81565b5f60035f9054906101000a900473ffffffffffffffffffffffffffffffffffffffff1673ffffffffffffffffffffffffffffffffffffffff16637988d3a5836040518263ffffffff1660e01b815260040161107b9190612108565b602060405180830381865afa158015611096573d5f803e3d5ffd5b505050506040513d601f19601f820116820180604052508101906110ba91906123d1565b9050919050565b5f60035f9054906101000a900473ffffffffffffffffffffffffffffffffffffffff16905090565b5f7f01ffc9a7000000000000000000000000000000000000000000000000000000007bffffffffffffffffffffffffffffffffffffffffffffffffffffffff1916827bffffffffffffffffffffffffffffffffffffffffffffffffffffffff1916149050919050565b6111638161115e61124f565b611773565b50565b5f6111718383610cd5565b6112455760015f808581526020019081526020015f205f015f8473ffffffffffffffffffffffffffffffffffffffff1673ffffffffffffffffffffffffffffffffffffffff1681526020019081526020015f205f6101000a81548160ff0219169083151502179055506111e261124f565b73ffffffffffffffffffffffffffffffffffffffff168273ffffffffffffffffffffffffffffffffffffffff16847f2f8788117e7eff1d82e926ec794901d17c78024a50270940304540a733656f0d60405160405180910390a460019050611249565b5f90505b92915050565b5f33905090565b5f6112618383610cd5565b15611335575f805f8581526020019081526020015f205f015f8473ffffffffffffffffffffffffffffffffffffffff1673ffffffffffffffffffffffffffffffffffffffff1681526020019081526020015f205f6101000a81548160ff0219169083151502179055506112d261124f565b73ffffffffffffffffffffffffffffffffffffffff168273ffffffffffffffffffffffffffffffffffffffff16847ff6391f5c32d9c69d2a47ea670b442974b53935d1edc7fd64eb21e047a839171b60405160405180910390a460019050611339565b5f90505b92915050565b60035f9054906101000a900473ffffffffffffffffffffffffffffffffffffffff1673ffffffffffffffffffffffffffffffffffffffff1663a53410dd8484846040518463ffffffff1660e01b815260040161139d939291906123fc565b5f604051808303815f87803b1580156113b4575f80fd5b505af11580156113c6573d5f803e3d5ffd5b505050508173ffffffffffffffffffffffffffffffffffffffff168373ffffffffffffffffffffffffffffffffffffffff167f6ae73635c50d24a45af6fbd5e016ac4bed179addbc8bf24e04ff0fcc6d33af1960405160405180910390a3505050565b5f60035f9054906101000a900473ffffffffffffffffffffffffffffffffffffffff1673ffffffffffffffffffffffffffffffffffffffff16637988d3a5836040518263ffffffff1660e01b81526004016114849190612108565b602060405180830381865afa15801561149f573d5f803e3d5ffd5b505050506040513d601f19601f820116820180604052508101906114c391906123d1565b9050919050565b5f8060025f9054906101000a900473ffffffffffffffffffffffffffffffffffffffff1673ffffffffffffffffffffffffffffffffffffffff16636b2c56bd846040518263ffffffff1660e01b81526004016115269190612440565b5f60405180830381865afa158015611540573d5f803e3d5ffd5b505050506040513d5f823e3d601f19601f820116820180604052508101906115689190612554565b90505f815190505f8103611580575f9250505061176d565b5f8167ffffffffffffffff81111561159b5761159a612197565b5b6040519080825280602002602001820160405280156115c95781602001602082028036833780820191505090505b5090505f5b8281101561164b578381815181106115e9576115e8612085565b5b6020026020010151866040516020016116039291906125bb565b6040516020818303038152906040528051906020012082828151811061162c5761162b612085565b5b602002602001018181525050808061164390612376565b9150506115ce565b505f5b8151811015611765575f805f808a73ffffffffffffffffffffffffffffffffffffffff1663c9100bcb87878151811061168a57611689612085565b5b60200260200101516040518263ffffffff1660e01b81526004016116ae9190611934565b5f60405180830381865afa1580156116c8573d5f803e3d5ffd5b505050506040513d5f823e3d601f19601f820116820180604052508101906116f0919061275e565b509450945094505093508984036117295761170e8b848c85856117c4565b156117245760019850505050505050505061176d565b61174e565b60018651611737919061283b565b850361174d575f9850505050505050505061176d565b5b50505050808061175d90612376565b91505061164e565b505f93505050505b92915050565b61177d8282610cd5565b6117c05780826040517fe2517d3f0000000000000000000000000000000000000000000000000000000081526004016117b792919061286e565b60405180910390fd5b5050565b5f8473ffffffffffffffffffffffffffffffffffffffff1663c0969a6e878686866040518563ffffffff1660e01b815260040161180494939291906128e7565b602060405180830381865afa92505050801561183e57506040513d601f19601f8201168201806040525081019061183b9190612962565b60015b61184a575f905061184f565b809150505b95945050505050565b5f604051905090565b5f80fd5b5f80fd5b5f7fffffffff0000000000000000000000000000000000000000000000000000000082169050919050565b61189d81611869565b81146118a7575f80fd5b50565b5f813590506118b881611894565b92915050565b5f602082840312156118d3576118d2611861565b5b5f6118e0848285016118aa565b91505092915050565b5f8115159050919050565b6118fd816118e9565b82525050565b5f6020820190506119165f8301846118f4565b92915050565b5f819050919050565b61192e8161191c565b82525050565b5f6020820190506119475f830184611925565b92915050565b6119568161191c565b8114611960575f80fd5b50565b5f813590506119718161194d565b92915050565b5f6020828403121561198c5761198b611861565b5b5f61199984828501611963565b91505092915050565b5f73ffffffffffffffffffffffffffffffffffffffff82169050919050565b5f6119cb826119a2565b9050919050565b5f6119dc826119c1565b9050919050565b6119ec816119d2565b81146119f6575f80fd5b50565b5f81359050611a07816119e3565b92915050565b5f60208284031215611a2257611a21611861565b5b5f611a2f848285016119f9565b91505092915050565b611a41816119c1565b8114611a4b575f80fd5b50565b5f81359050611a5c81611a38565b92915050565b5f8060408385031215611a7857611a77611861565b5b5f611a8585828601611963565b9250506020611a9685828601611a4e565b9150509250929050565b5f61ffff82169050919050565b611ab681611aa0565b8114611ac0575f80fd5b50565b5f81359050611ad181611aad565b92915050565b5f8060408385031215611aed57611aec611861565b5b5f611afa85828601611a4e565b9250506020611b0b85828601611ac3565b9150509250929050565b5f819050919050565b5f611b38611b33611b2e846119a2565b611b15565b6119a2565b9050919050565b5f611b4982611b1e565b9050919050565b5f611b5a82611b3f565b9050919050565b611b6a81611b50565b82525050565b5f602082019050611b835f830184611b61565b92915050565b5f611b93826119c1565b9050919050565b611ba381611b89565b8114611bad575f80fd5b50565b5f81359050611bbe81611b9a565b92915050565b5f805f60608486031215611bdb57611bda611861565b5b5f611be886828701611a4e565b9350506020611bf986828701611bb0565b9250506040611c0a86828701611ac3565b9150509250925092565b5f60208284031215611c2957611c28611861565b5b5f611c3684828501611a4e565b91505092915050565b5f80fd5b5f80fd5b5f80fd5b5f8083601f840112611c6057611c5f611c3f565b5b8235905067ffffffffffffffff811115611c7d57611c7c611c43565b5b602083019150836020820283011115611c9957611c98611c47565b5b9250929050565b5f8083601f840112611cb557611cb4611c3f565b5b8235905067ffffffffffffffff811115611cd257611cd1611c43565b5b602083019150836020820283011115611cee57611ced611c47565b5b9250929050565b5f8083601f840112611d0a57611d09611c3f565b5b8235905067ffffffffffffffff811115611d2757611d26611c43565b5b602083019150836020820283011115611d4357611d42611c47565b5b9250929050565b5f805f805f8060608789031215611d6457611d63611861565b5b5f87013567ffffffffffffffff811115611d8157611d80611865565b5b611d8d89828a01611c4b565b9650965050602087013567ffffffffffffffff811115611db057611daf611865565b5b611dbc89828a01611ca0565b9450945050604087013567ffffffffffffffff811115611ddf57611dde611865565b5b611deb89828a01611cf5565b92509250509295509295509295565b5f611e04826119c1565b9050919050565b611e1481611dfa565b8114611e1e575f80fd5b50565b5f81359050611e2f81611e0b565b92915050565b5f60208284031215611e4a57611e49611861565b5b5f611e5784828501611e21565b91505092915050565b5f611e6a826119c1565b9050919050565b611e7a81611e60565b8114611e84575f80fd5b50565b5f81359050611e9581611e71565b92915050565b5f60208284031215611eb057611eaf611861565b5b5f611ebd84828501611e87565b91505092915050565b611ecf81611aa0565b82525050565b5f602082019050611ee85f830184611ec6565b92915050565b5f8060408385031215611f0457611f03611861565b5b5f611f1185828601611a4e565b9250506020611f2285828601611bb0565b9150509250929050565b5f611f3682611b3f565b9050919050565b611f4681611f2c565b82525050565b5f602082019050611f5f5f830184611f3d565b92915050565b5f611f6f82611b3f565b9050919050565b611f7f81611f65565b82525050565b5f602082019050611f985f830184611f76565b92915050565b5f611fa882611b3f565b9050919050565b611fb881611f9e565b82525050565b5f602082019050611fd15f830184611faf565b92915050565b611fe0816119c1565b82525050565b5f604082019050611ff95f830185611fd7565b6120066020830184611ec6565b9392505050565b5f82825260208201905092915050565b7f4552432d333634333a2041727261792073697a65206d69736d617463680000005f82015250565b5f612051601d8361200d565b915061205c8261201d565b602082019050919050565b5f6020820190508181035f83015261207e81612045565b9050919050565b7f4e487b71000000000000000000000000000000000000000000000000000000005f52603260045260245ffd5b5f602082840312156120c7576120c6611861565b5b5f6120d484828501611bb0565b91505092915050565b5f602082840312156120f2576120f1611861565b5b5f6120ff84828501611ac3565b91505092915050565b5f60208201905061211b5f830184611fd7565b92915050565b5f8151905061212f81611aad565b92915050565b5f6020828403121561214a57612149611861565b5b5f61215784828501612121565b91505092915050565b5f6040820190506121735f830185611fd7565b6121806020830184611f76565b9392505050565b5f601f19601f8301169050919050565b7f4e487b71000000000000000000000000000000000000000000000000000000005f52604160045260245ffd5b6121cd82612187565b810181811067ffffffffffffffff821117156121ec576121eb612197565b5b80604052505050565b5f6121fe611858565b905061220a82826121c4565b919050565b5f67ffffffffffffffff82111561222957612228612197565b5b602082029050602081019050919050565b5f819050919050565b61224c8161223a565b8114612256575f80fd5b50565b5f8151905061226781612243565b92915050565b5f61227f61227a8461220f565b6121f5565b905080838252602082019050602084028301858111156122a2576122a1611c47565b5b835b818110156122cb57806122b78882612259565b8452602084019350506020810190506122a4565b5050509392505050565b5f82601f8301126122e9576122e8611c3f565b5b81516122f984826020860161226d565b91505092915050565b5f6020828403121561231757612316611861565b5b5f82015167ffffffffffffffff81111561233457612333611865565b5b612340848285016122d5565b91505092915050565b7f4e487b71000000000000000000000000000000000000000000000000000000005f52601160045260245ffd5b5f6123808261223a565b91507fffffffffffffffffffffffffffffffffffffffffffffffffffffffffffffffff82036123b2576123b1612349565b5b600182019050919050565b5f815190506123cb81611b9a565b92915050565b5f602082840312156123e6576123e5611861565b5b5f6123f3848285016123bd565b91505092915050565b5f60608201905061240f5f830186611fd7565b61241c6020830185611f76565b6124296040830184611ec6565b949350505050565b61243a8161223a565b82525050565b5f6020820190506124535f830184612431565b92915050565b5f67ffffffffffffffff82111561247357612472612197565b5b602082029050602081019050919050565b5f61248e826119c1565b9050919050565b61249e81612484565b81146124a8575f80fd5b50565b5f815190506124b981612495565b92915050565b5f6124d16124cc84612459565b6121f5565b905080838252602082019050602084028301858111156124f4576124f3611c47565b5b835b8181101561251d578061250988826124ab565b8452602084019350506020810190506124f6565b5050509392505050565b5f82601f83011261253b5761253a611c3f565b5b815161254b8482602086016124bf565b91505092915050565b5f6020828403121561256957612568611861565b5b5f82015167ffffffffffffffff81111561258657612585611865565b5b61259284828501612527565b91505092915050565b5f6125a582611b3f565b9050919050565b6125b58161259b565b82525050565b5f6040820190506125ce5f8301856125ac565b6125db6020830184612431565b9392505050565b5f815190506125f081611a38565b92915050565b5f80fd5b5f67ffffffffffffffff82111561261457612613612197565b5b61261d82612187565b9050602081019050919050565b5f5b8381101561264757808201518184015260208101905061262c565b5f8484015250505050565b5f61266461265f846125fa565b6121f5565b9050828152602081018484840111156126805761267f6125f6565b5b61268b84828561262a565b509392505050565b5f82601f8301126126a7576126a6611c3f565b5b81516126b7848260208601612652565b91505092915050565b5f67ffffffffffffffff8211156126da576126d9612197565b5b6126e382612187565b9050602081019050919050565b5f6127026126fd846126c0565b6121f5565b90508281526020810184848401111561271e5761271d6125f6565b5b61272984828561262a565b509392505050565b5f82601f83011261274557612744611c3f565b5b81516127558482602086016126f0565b91505092915050565b5f805f805f8060c0878903121561277857612777611861565b5b5f61278589828a01612259565b965050602061279689828a01612259565b95505060406127a789828a016125e2565b945050606087015167ffffffffffffffff8111156127c8576127c7611865565b5b6127d489828a01612693565b935050608087015167ffffffffffffffff8111156127f5576127f4611865565b5b61280189828a01612693565b92505060a087015167ffffffffffffffff81111561282257612821611865565b5b61282e89828a01612731565b9150509295509295509295565b5f6128458261223a565b91506128508361223a565b925082820390508181111561286857612867612349565b5b92915050565b5f6040820190506128815f830185611fd7565b61288e6020830184611925565b9392505050565b5f81519050919050565b5f82825260208201905092915050565b5f6128b982612895565b6128c3818561289f565b93506128d381856020860161262a565b6128dc81612187565b840191505092915050565b5f6080820190506128fa5f830187611f76565b6129076020830186612431565b818103604083015261291981856128af565b9050818103606083015261292d81846128af565b905095945050505050565b612941816118e9565b811461294b575f80fd5b50565b5f8151905061295c81612938565b92915050565b5f6020828403121561297757612976611861565b5b5f6129848482850161294e565b9150509291505056fea264697066735822122086352aeb7febf69c7c9c5cf9f39ad7837fc1bebe36be0217b751174685ba296364736f6c63430008140033",
			"opcodes": "PUSH1 0x80 PUSH1 0x40 MSTORE CALLVALUE DUP1 ISZERO PUSH3 0x10 JUMPI PUSH0 DUP1 REVERT JUMPDEST POP PUSH1 0x40 MLOAD PUSH3 0x301D CODESIZE SUB DUP1 PUSH3 0x301D DUP4 CODECOPY DUP2 DUP2 ADD PUSH1 0x40 MSTORE DUP2 ADD SWAP1 PUSH3 0x36 SWAP2 SWAP1 PUSH3 0x575 JUMP JUMPDEST PUSH0 PUSH20 0xFFFFFFFFFFFFFFFFFFFFFFFFFFFFFFFFFFFFFFFF AND DUP4 PUSH20 0xFFFFFFFFFFFFFFFFFFFFFFFFFFFFFFFFFFFFFFFF AND EQ ISZERO DUP1 ISZERO PUSH3 0x9F JUMPI POP PUSH0 PUSH20 0xFFFFFFFFFFFFFFFFFFFFFFFFFFFFFFFFFFFFFFFF AND DUP3 PUSH20 0xFFFFFFFFFFFFFFFFFFFFFFFFFFFFFFFFFFFFFFFF AND EQ ISZERO JUMPDEST DUP1 ISZERO PUSH3 0xD8 JUMPI POP PUSH0 PUSH20 0xFFFFFFFFFFFFFFFFFFFFFFFFFFFFFFFFFFFFFFFF AND DUP2 PUSH20 0xFFFFFFFFFFFFFFFFFFFFFFFFFFFFFFFFFFFFFFFF AND EQ ISZERO JUMPDEST PUSH3 0x11A JUMPI PUSH1 0x40 MLOAD PUSH32 0x8C379A000000000000000000000000000000000000000000000000000000000 DUP2 MSTORE PUSH1 0x4 ADD PUSH3 0x111 SWAP1 PUSH3 0x62C JUMP JUMPDEST PUSH1 0x40 MLOAD DUP1 SWAP2 SUB SWAP1 REVERT JUMPDEST PUSH3 0x13D PUSH0 DUP1 SHL PUSH3 0x131 PUSH3 0x314 PUSH1 0x20 SHL PUSH1 0x20 SHR JUMP JUMPDEST PUSH3 0x31B PUSH1 0x20 SHL PUSH1 0x20 SHR JUMP JUMPDEST POP PUSH3 0x181 PUSH32 0xB19546DFF01E856FB3F010C267A7B1C60363CF8A4664E21CC89C26224620214E PUSH0 SHL PUSH3 0x175 PUSH3 0x314 PUSH1 0x20 SHL PUSH1 0x20 SHR JUMP JUMPDEST PUSH3 0x31B PUSH1 0x20 SHL PUSH1 0x20 SHR JUMP JUMPDEST POP DUP2 PUSH1 0x1 PUSH0 PUSH2 0x100 EXP DUP2 SLOAD DUP2 PUSH20 0xFFFFFFFFFFFFFFFFFFFFFFFFFFFFFFFFFFFFFFFF MUL NOT AND SWAP1 DUP4 PUSH20 0xFFFFFFFFFFFFFFFFFFFFFFFFFFFFFFFFFFFFFFFF AND MUL OR SWAP1 SSTORE POP DUP3 PUSH1 0x2 PUSH0 PUSH2 0x100 EXP DUP2 SLOAD DUP2 PUSH20 0xFFFFFFFFFFFFFFFFFFFFFFFFFFFFFFFFFFFFFFFF MUL NOT AND SWAP1 DUP4 PUSH20 0xFFFFFFFFFFFFFFFFFFFFFFFFFFFFFFFFFFFFFFFF AND MUL OR SWAP1 SSTORE POP DUP1 PUSH1 0x3 PUSH0 PUSH2 0x100 EXP DUP2 SLOAD DUP2 PUSH20 0xFFFFFFFFFFFFFFFFFFFFFFFFFFFFFFFFFFFFFFFF MUL NOT AND SWAP1 DUP4 PUSH20 0xFFFFFFFFFFFFFFFFFFFFFFFFFFFFFFFFFFFFFFFF AND MUL OR SWAP1 SSTORE POP DUP2 PUSH20 0xFFFFFFFFFFFFFFFFFFFFFFFFFFFFFFFFFFFFFFFF AND PUSH32 0x7170BF15B246E880B2369CD7C67D057760D8A35149E8C64DDE91EFA22BCC76D0 PUSH1 0x40 MLOAD PUSH1 0x40 MLOAD DUP1 SWAP2 SUB SWAP1 LOG2 DUP3 PUSH20 0xFFFFFFFFFFFFFFFFFFFFFFFFFFFFFFFFFFFFFFFF AND PUSH32 0x811D3016DA8008875247AF93AF072EC7801E39D9F4C686FEC82AB600D8E555E8 PUSH1 0x40 MLOAD PUSH1 0x40 MLOAD DUP1 SWAP2 SUB SWAP1 LOG2 DUP1 PUSH20 0xFFFFFFFFFFFFFFFFFFFFFFFFFFFFFFFFFFFFFFFF AND PUSH32 0x2FA8B95C1DB7AFE99E3398F3792F008135CEDC1FA26B0BB2ECD2352CD166D53C PUSH1 0x40 MLOAD PUSH1 0x40 MLOAD DUP1 SWAP2 SUB SWAP1 LOG2 POP POP POP PUSH3 0x64C JUMP JUMPDEST PUSH0 CALLER SWAP1 POP SWAP1 JUMP JUMPDEST PUSH0 PUSH3 0x32E DUP4 DUP4 PUSH3 0x416 PUSH1 0x20 SHL PUSH1 0x20 SHR JUMP JUMPDEST PUSH3 0x40C JUMPI PUSH1 0x1 PUSH0 DUP1 DUP6 DUP2 MSTORE PUSH1 0x20 ADD SWAP1 DUP2 MSTORE PUSH1 0x20 ADD PUSH0 KECCAK256 PUSH0 ADD PUSH0 DUP5 PUSH20 0xFFFFFFFFFFFFFFFFFFFFFFFFFFFFFFFFFFFFFFFF AND PUSH20 0xFFFFFFFFFFFFFFFFFFFFFFFFFFFFFFFFFFFFFFFF AND DUP2 MSTORE PUSH1 0x20 ADD SWAP1 DUP2 MSTORE PUSH1 0x20 ADD PUSH0 KECCAK256 PUSH0 PUSH2 0x100 EXP DUP2 SLOAD DUP2 PUSH1 0xFF MUL NOT AND SWAP1 DUP4 ISZERO ISZERO MUL OR SWAP1 SSTORE POP PUSH3 0x3A8 PUSH3 0x314 PUSH1 0x20 SHL PUSH1 0x20 SHR JUMP JUMPDEST PUSH20 0xFFFFFFFFFFFFFFFFFFFFFFFFFFFFFFFFFFFFFFFF AND DUP3 PUSH20 0xFFFFFFFFFFFFFFFFFFFFFFFFFFFFFFFFFFFFFFFF AND DUP5 PUSH32 0x2F8788117E7EFF1D82E926EC794901D17C78024A50270940304540A733656F0D PUSH1 0x40 MLOAD PUSH1 0x40 MLOAD DUP1 SWAP2 SUB SWAP1 LOG4 PUSH1 0x1 SWAP1 POP PUSH3 0x410 JUMP JUMPDEST PUSH0 SWAP1 POP JUMPDEST SWAP3 SWAP2 POP POP JUMP JUMPDEST PUSH0 DUP1 PUSH0 DUP5 DUP2 MSTORE PUSH1 0x20 ADD SWAP1 DUP2 MSTORE PUSH1 0x20 ADD PUSH0 KECCAK256 PUSH0 ADD PUSH0 DUP4 PUSH20 0xFFFFFFFFFFFFFFFFFFFFFFFFFFFFFFFFFFFFFFFF AND PUSH20 0xFFFFFFFFFFFFFFFFFFFFFFFFFFFFFFFFFFFFFFFF AND DUP2 MSTORE PUSH1 0x20 ADD SWAP1 DUP2 MSTORE PUSH1 0x20 ADD PUSH0 KECCAK256 PUSH0 SWAP1 SLOAD SWAP1 PUSH2 0x100 EXP SWAP1 DIV PUSH1 0xFF AND SWAP1 POP SWAP3 SWAP2 POP POP JUMP JUMPDEST PUSH0 DUP1 REVERT JUMPDEST PUSH0 PUSH20 0xFFFFFFFFFFFFFFFFFFFFFFFFFFFFFFFFFFFFFFFF DUP3 AND SWAP1 POP SWAP2 SWAP1 POP JUMP JUMPDEST PUSH0 PUSH3 0x4A8 DUP3 PUSH3 0x47D JUMP JUMPDEST SWAP1 POP SWAP2 SWAP1 POP JUMP JUMPDEST PUSH0 PUSH3 0x4BB DUP3 PUSH3 0x49C JUMP JUMPDEST SWAP1 POP SWAP2 SWAP1 POP JUMP JUMPDEST PUSH3 0x4CD DUP2 PUSH3 0x4AF JUMP JUMPDEST DUP2 EQ PUSH3 0x4D8 JUMPI PUSH0 DUP1 REVERT JUMPDEST POP JUMP JUMPDEST PUSH0 DUP2 MLOAD SWAP1 POP PUSH3 0x4EB DUP2 PUSH3 0x4C2 JUMP JUMPDEST SWAP3 SWAP2 POP POP JUMP JUMPDEST PUSH0 PUSH3 0x4FD DUP3 PUSH3 0x49C JUMP JUMPDEST SWAP1 POP SWAP2 SWAP1 POP JUMP JUMPDEST PUSH3 0x50F DUP2 PUSH3 0x4F1 JUMP JUMPDEST DUP2 EQ PUSH3 0x51A JUMPI PUSH0 DUP1 REVERT JUMPDEST POP JUMP JUMPDEST PUSH0 DUP2 MLOAD SWAP1 POP PUSH3 0x52D DUP2 PUSH3 0x504 JUMP JUMPDEST SWAP3 SWAP2 POP POP JUMP JUMPDEST PUSH0 PUSH3 0x53F DUP3 PUSH3 0x49C JUMP JUMPDEST SWAP1 POP SWAP2 SWAP1 POP JUMP JUMPDEST PUSH3 0x551 DUP2 PUSH3 0x533 JUMP JUMPDEST DUP2 EQ PUSH3 0x55C JUMPI PUSH0 DUP1 REVERT JUMPDEST POP JUMP JUMPDEST PUSH0 DUP2 MLOAD SWAP1 POP PUSH3 0x56F DUP2 PUSH3 0x546 JUMP JUMPDEST SWAP3 SWAP2 POP POP JUMP JUMPDEST PUSH0 DUP1 PUSH0 PUSH1 0x60 DUP5 DUP7 SUB SLT ISZERO PUSH3 0x58F JUMPI PUSH3 0x58E PUSH3 0x479 JUMP JUMPDEST JUMPDEST PUSH0 PUSH3 0x59E DUP7 DUP3 DUP8 ADD PUSH3 0x4DB JUMP JUMPDEST SWAP4 POP POP PUSH1 0x20 PUSH3 0x5B1 DUP7 DUP3 DUP8 ADD PUSH3 0x51D JUMP JUMPDEST SWAP3 POP POP PUSH1 0x40 PUSH3 0x5C4 DUP7 DUP3 DUP8 ADD PUSH3 0x55F JUMP JUMPDEST SWAP2 POP POP SWAP3 POP SWAP3 POP SWAP3 JUMP JUMPDEST PUSH0 DUP3 DUP3 MSTORE PUSH1 0x20 DUP3 ADD SWAP1 POP SWAP3 SWAP2 POP POP JUMP JUMPDEST PUSH32 0x4552432D333634333A20496E76616C6964207A65726F20616464726573730000 PUSH0 DUP3 ADD MSTORE POP JUMP JUMPDEST PUSH0 PUSH3 0x614 PUSH1 0x1E DUP4 PUSH3 0x5CE JUMP JUMPDEST SWAP2 POP PUSH3 0x621 DUP3 PUSH3 0x5DE JUMP JUMPDEST PUSH1 0x20 DUP3 ADD SWAP1 POP SWAP2 SWAP1 POP JUMP JUMPDEST PUSH0 PUSH1 0x20 DUP3 ADD SWAP1 POP DUP2 DUP2 SUB PUSH0 DUP4 ADD MSTORE PUSH3 0x645 DUP2 PUSH3 0x606 JUMP JUMPDEST SWAP1 POP SWAP2 SWAP1 POP JUMP JUMPDEST PUSH2 0x29C3 DUP1 PUSH3 0x65A PUSH0 CODECOPY PUSH0 RETURN INVALID PUSH1 0x80 PUSH1 0x40 MSTORE CALLVALUE DUP1 ISZERO PUSH2 0xF JUMPI PUSH0 DUP1 REVERT JUMPDEST POP PUSH1 0x4 CALLDATASIZE LT PUSH2 0x156 JUMPI PUSH0 CALLDATALOAD PUSH1 0xE0 SHR DUP1 PUSH4 0x6BC72C90 GT PUSH2 0xC1 JUMPI DUP1 PUSH4 0xB4F3FCB7 GT PUSH2 0x7A JUMPI DUP1 PUSH4 0xB4F3FCB7 EQ PUSH2 0x3BC JUMPI DUP1 PUSH4 0xB9209E33 EQ PUSH2 0x3DA JUMPI DUP1 PUSH4 0xD547741F EQ PUSH2 0x40A JUMPI DUP1 PUSH4 0xE58378BB EQ PUSH2 0x426 JUMPI DUP1 PUSH4 0xF0EB5E54 EQ PUSH2 0x444 JUMPI DUP1 PUSH4 0xF11ABFD8 EQ PUSH2 0x474 JUMPI PUSH2 0x156 JUMP JUMPDEST DUP1 PUSH4 0x6BC72C90 EQ PUSH2 0x2EA JUMPI DUP1 PUSH4 0x7E42683B EQ PUSH2 0x306 JUMPI DUP1 PUSH4 0x8E098CA1 EQ PUSH2 0x336 JUMPI DUP1 PUSH4 0x91D14854 EQ PUSH2 0x352 JUMPI DUP1 PUSH4 0xA217FDDF EQ PUSH2 0x382 JUMPI DUP1 PUSH4 0xA8D29D1D EQ PUSH2 0x3A0 JUMPI PUSH2 0x156 JUMP JUMPDEST DUP1 PUSH4 0x3B239A7F GT PUSH2 0x113 JUMPI DUP1 PUSH4 0x3B239A7F EQ PUSH2 0x22C JUMPI DUP1 PUSH4 0x3B3E12F4 EQ PUSH2 0x248 JUMPI DUP1 PUSH4 0x454A03E0 EQ PUSH2 0x266 JUMPI DUP1 PUSH4 0x5DBE47E8 EQ PUSH2 0x282 JUMPI DUP1 PUSH4 0x653DC9F1 EQ PUSH2 0x2B2 JUMPI DUP1 PUSH4 0x670AF6A9 EQ PUSH2 0x2CE JUMPI PUSH2 0x156 JUMP JUMPDEST DUP1 PUSH4 0x1FFC9A7 EQ PUSH2 0x15A JUMPI DUP1 PUSH4 0x22459E18 EQ PUSH2 0x18A JUMPI DUP1 PUSH4 0x248A9CA3 EQ PUSH2 0x1A8 JUMPI DUP1 PUSH4 0x26D941AE EQ PUSH2 0x1D8 JUMPI DUP1 PUSH4 0x2F2FF15D EQ PUSH2 0x1F4 JUMPI DUP1 PUSH4 0x36568ABE EQ PUSH2 0x210 JUMPI JUMPDEST PUSH0 DUP1 REVERT JUMPDEST PUSH2 0x174 PUSH1 0x4 DUP1 CALLDATASIZE SUB DUP2 ADD SWAP1 PUSH2 0x16F SWAP2 SWAP1 PUSH2 0x18BE JUMP JUMPDEST PUSH2 0x492 JUMP JUMPDEST PUSH1 0x40 MLOAD PUSH2 0x181 SWAP2 SWAP1 PUSH2 0x1903 JUMP JUMPDEST PUSH1 0x40 MLOAD DUP1 SWAP2 SUB SWAP1 RETURN JUMPDEST PUSH2 0x192 PUSH2 0x50B JUMP JUMPDEST PUSH1 0x40 MLOAD PUSH2 0x19F SWAP2 SWAP1 PUSH2 0x1934 JUMP JUMPDEST PUSH1 0x40 MLOAD DUP1 SWAP2 SUB SWAP1 RETURN JUMPDEST PUSH2 0x1C2 PUSH1 0x4 DUP1 CALLDATASIZE SUB DUP2 ADD SWAP1 PUSH2 0x1BD SWAP2 SWAP1 PUSH2 0x1977 JUMP JUMPDEST PUSH2 0x531 JUMP JUMPDEST PUSH1 0x40 MLOAD PUSH2 0x1CF SWAP2 SWAP1 PUSH2 0x1934 JUMP JUMPDEST PUSH1 0x40 MLOAD DUP1 SWAP2 SUB SWAP1 RETURN JUMPDEST PUSH2 0x1F2 PUSH1 0x4 DUP1 CALLDATASIZE SUB DUP2 ADD SWAP1 PUSH2 0x1ED SWAP2 SWAP1 PUSH2 0x1A0D JUMP JUMPDEST PUSH2 0x54D JUMP JUMPDEST STOP JUMPDEST PUSH2 0x20E PUSH1 0x4 DUP1 CALLDATASIZE SUB DUP2 ADD SWAP1 PUSH2 0x209 SWAP2 SWAP1 PUSH2 0x1A62 JUMP JUMPDEST PUSH2 0x600 JUMP JUMPDEST STOP JUMPDEST PUSH2 0x22A PUSH1 0x4 DUP1 CALLDATASIZE SUB DUP2 ADD SWAP1 PUSH2 0x225 SWAP2 SWAP1 PUSH2 0x1A62 JUMP JUMPDEST PUSH2 0x622 JUMP JUMPDEST STOP JUMPDEST PUSH2 0x246 PUSH1 0x4 DUP1 CALLDATASIZE SUB DUP2 ADD SWAP1 PUSH2 0x241 SWAP2 SWAP1 PUSH2 0x1AD7 JUMP JUMPDEST PUSH2 0x69D JUMP JUMPDEST STOP JUMPDEST PUSH2 0x250 PUSH2 0x79F JUMP JUMPDEST PUSH1 0x40 MLOAD PUSH2 0x25D SWAP2 SWAP1 PUSH2 0x1B70 JUMP JUMPDEST PUSH1 0x40 MLOAD DUP1 SWAP2 SUB SWAP1 RETURN JUMPDEST PUSH2 0x280 PUSH1 0x4 DUP1 CALLDATASIZE SUB DUP2 ADD SWAP1 PUSH2 0x27B SWAP2 SWAP1 PUSH2 0x1BC4 JUMP JUMPDEST PUSH2 0x7C7 JUMP JUMPDEST STOP JUMPDEST PUSH2 0x29C PUSH1 0x4 DUP1 CALLDATASIZE SUB DUP2 ADD SWAP1 PUSH2 0x297 SWAP2 SWAP1 PUSH2 0x1C14 JUMP JUMPDEST PUSH2 0x804 JUMP JUMPDEST PUSH1 0x40 MLOAD PUSH2 0x2A9 SWAP2 SWAP1 PUSH2 0x1903 JUMP JUMPDEST PUSH1 0x40 MLOAD DUP1 SWAP2 SUB SWAP1 RETURN JUMPDEST PUSH2 0x2CC PUSH1 0x4 DUP1 CALLDATASIZE SUB DUP2 ADD SWAP1 PUSH2 0x2C7 SWAP2 SWAP1 PUSH2 0x1D4A JUMP JUMPDEST PUSH2 0x850 JUMP JUMPDEST STOP JUMPDEST PUSH2 0x2E8 PUSH1 0x4 DUP1 CALLDATASIZE SUB DUP2 ADD SWAP1 PUSH2 0x2E3 SWAP2 SWAP1 PUSH2 0x1E35 JUMP JUMPDEST PUSH2 0x9AD JUMP JUMPDEST STOP JUMPDEST PUSH2 0x304 PUSH1 0x4 DUP1 CALLDATASIZE SUB DUP2 ADD SWAP1 PUSH2 0x2FF SWAP2 SWAP1 PUSH2 0x1E9B JUMP JUMPDEST PUSH2 0xA60 JUMP JUMPDEST STOP JUMPDEST PUSH2 0x320 PUSH1 0x4 DUP1 CALLDATASIZE SUB DUP2 ADD SWAP1 PUSH2 0x31B SWAP2 SWAP1 PUSH2 0x1C14 JUMP JUMPDEST PUSH2 0xB13 JUMP JUMPDEST PUSH1 0x40 MLOAD PUSH2 0x32D SWAP2 SWAP1 PUSH2 0x1ED5 JUMP JUMPDEST PUSH1 0x40 MLOAD DUP1 SWAP2 SUB SWAP1 RETURN JUMPDEST PUSH2 0x350 PUSH1 0x4 DUP1 CALLDATASIZE SUB DUP2 ADD SWAP1 PUSH2 0x34B SWAP2 SWAP1 PUSH2 0x1EEE JUMP JUMPDEST PUSH2 0xBB4 JUMP JUMPDEST STOP JUMPDEST PUSH2 0x36C PUSH1 0x4 DUP1 CALLDATASIZE SUB DUP2 ADD SWAP1 PUSH2 0x367 SWAP2 SWAP1 PUSH2 0x1A62 JUMP JUMPDEST PUSH2 0xCD5 JUMP JUMPDEST PUSH1 0x40 MLOAD PUSH2 0x379 SWAP2 SWAP1 PUSH2 0x1903 JUMP JUMPDEST PUSH1 0x40 MLOAD DUP1 SWAP2 SUB SWAP1 RETURN JUMPDEST PUSH2 0x38A PUSH2 0xD38 JUMP JUMPDEST PUSH1 0x40 MLOAD PUSH2 0x397 SWAP2 SWAP1 PUSH2 0x1934 JUMP JUMPDEST PUSH1 0x40 MLOAD DUP1 SWAP2 SUB SWAP1 RETURN JUMPDEST PUSH2 0x3BA PUSH1 0x4 DUP1 CALLDATASIZE SUB DUP2 ADD SWAP1 PUSH2 0x3B5 SWAP2 SWAP1 PUSH2 0x1C14 JUMP JUMPDEST PUSH2 0xD3E JUMP JUMPDEST STOP JUMPDEST PUSH2 0x3C4 PUSH2 0xE5C JUMP JUMPDEST PUSH1 0x40 MLOAD PUSH2 0x3D1 SWAP2 SWAP1 PUSH2 0x1F4C JUMP JUMPDEST PUSH1 0x40 MLOAD DUP1 SWAP2 SUB SWAP1 RETURN JUMPDEST PUSH2 0x3F4 PUSH1 0x4 DUP1 CALLDATASIZE SUB DUP2 ADD SWAP1 PUSH2 0x3EF SWAP2 SWAP1 PUSH2 0x1C14 JUMP JUMPDEST PUSH2 0xE84 JUMP JUMPDEST PUSH1 0x40 MLOAD PUSH2 0x401 SWAP2 SWAP1 PUSH2 0x1903 JUMP JUMPDEST PUSH1 0x40 MLOAD DUP1 SWAP2 SUB SWAP1 RETURN JUMPDEST PUSH2 0x424 PUSH1 0x4 DUP1 CALLDATASIZE SUB DUP2 ADD SWAP1 PUSH2 0x41F SWAP2 SWAP1 PUSH2 0x1A62 JUMP JUMPDEST PUSH2 0xFD8 JUMP JUMPDEST STOP JUMPDEST PUSH2 0x42E PUSH2 0xFFA JUMP JUMPDEST PUSH1 0x40 MLOAD PUSH2 0x43B SWAP2 SWAP1 PUSH2 0x1934 JUMP JUMPDEST PUSH1 0x40 MLOAD DUP1 SWAP2 SUB SWAP1 RETURN JUMPDEST PUSH2 0x45E PUSH1 0x4 DUP1 CALLDATASIZE SUB DUP2 ADD SWAP1 PUSH2 0x459 SWAP2 SWAP1 PUSH2 0x1C14 JUMP JUMPDEST PUSH2 0x1020 JUMP JUMPDEST PUSH1 0x40 MLOAD PUSH2 0x46B SWAP2 SWAP1 PUSH2 0x1F85 JUMP JUMPDEST PUSH1 0x40 MLOAD DUP1 SWAP2 SUB SWAP1 RETURN JUMPDEST PUSH2 0x47C PUSH2 0x10C1 JUMP JUMPDEST PUSH1 0x40 MLOAD PUSH2 0x489 SWAP2 SWAP1 PUSH2 0x1FBE JUMP JUMPDEST PUSH1 0x40 MLOAD DUP1 SWAP2 SUB SWAP1 RETURN JUMPDEST PUSH0 PUSH32 0x7965DB0B00000000000000000000000000000000000000000000000000000000 PUSH28 0xFFFFFFFFFFFFFFFFFFFFFFFFFFFFFFFFFFFFFFFFFFFFFFFFFFFFFFFF NOT AND DUP3 PUSH28 0xFFFFFFFFFFFFFFFFFFFFFFFFFFFFFFFFFFFFFFFFFFFFFFFFFFFFFFFF NOT AND EQ DUP1 PUSH2 0x504 JUMPI POP PUSH2 0x503 DUP3 PUSH2 0x10E9 JUMP JUMPDEST JUMPDEST SWAP1 POP SWAP2 SWAP1 POP JUMP JUMPDEST PUSH32 0xCAB5A0BFE0B79D2C4B1C2E02599FA044D115B7511F9659307CB4276950967709 PUSH0 SHL DUP2 JUMP JUMPDEST PUSH0 DUP1 PUSH0 DUP4 DUP2 MSTORE PUSH1 0x20 ADD SWAP1 DUP2 MSTORE PUSH1 0x20 ADD PUSH0 KECCAK256 PUSH1 0x1 ADD SLOAD SWAP1 POP SWAP2 SWAP1 POP JUMP JUMPDEST PUSH32 0xB19546DFF01E856FB3F010C267A7B1C60363CF8A4664E21CC89C26224620214E PUSH0 SHL PUSH2 0x579 DUP2 PUSH2 0x1152 JUMP JUMPDEST DUP2 PUSH1 0x3 PUSH0 PUSH2 0x100 EXP DUP2 SLOAD DUP2 PUSH20 0xFFFFFFFFFFFFFFFFFFFFFFFFFFFFFFFFFFFFFFFF MUL NOT AND SWAP1 DUP4 PUSH20 0xFFFFFFFFFFFFFFFFFFFFFFFFFFFFFFFFFFFFFFFF AND MUL OR SWAP1 SSTORE POP DUP2 PUSH20 0xFFFFFFFFFFFFFFFFFFFFFFFFFFFFFFFFFFFFFFFF AND PUSH32 0x2FA8B95C1DB7AFE99E3398F3792F008135CEDC1FA26B0BB2ECD2352CD166D53C PUSH1 0x40 MLOAD PUSH1 0x40 MLOAD DUP1 SWAP2 SUB SWAP1 LOG2 POP POP JUMP JUMPDEST PUSH2 0x609 DUP3 PUSH2 0x531 JUMP JUMPDEST PUSH2 0x612 DUP2 PUSH2 0x1152 JUMP JUMPDEST PUSH2 0x61C DUP4 DUP4 PUSH2 0x1166 JUMP JUMPDEST POP POP POP POP JUMP JUMPDEST PUSH2 0x62A PUSH2 0x124F JUMP JUMPDEST PUSH20 0xFFFFFFFFFFFFFFFFFFFFFFFFFFFFFFFFFFFFFFFF AND DUP2 PUSH20 0xFFFFFFFFFFFFFFFFFFFFFFFFFFFFFFFFFFFFFFFF AND EQ PUSH2 0x68E JUMPI PUSH1 0x40 MLOAD PUSH32 0x6697B23200000000000000000000000000000000000000000000000000000000 DUP2 MSTORE PUSH1 0x4 ADD PUSH1 0x40 MLOAD DUP1 SWAP2 SUB SWAP1 REVERT JUMPDEST PUSH2 0x698 DUP3 DUP3 PUSH2 0x1256 JUMP JUMPDEST POP POP POP JUMP JUMPDEST PUSH32 0xCAB5A0BFE0B79D2C4B1C2E02599FA044D115B7511F9659307CB4276950967709 PUSH0 SHL PUSH2 0x6C9 DUP2 PUSH2 0x1152 JUMP JUMPDEST PUSH1 0x3 PUSH0 SWAP1 SLOAD SWAP1 PUSH2 0x100 EXP SWAP1 DIV PUSH20 0xFFFFFFFFFFFFFFFFFFFFFFFFFFFFFFFFFFFFFFFF AND PUSH20 0xFFFFFFFFFFFFFFFFFFFFFFFFFFFFFFFFFFFFFFFF AND PUSH4 0x9F3418D5 DUP5 DUP5 PUSH1 0x40 MLOAD DUP4 PUSH4 0xFFFFFFFF AND PUSH1 0xE0 SHL DUP2 MSTORE PUSH1 0x4 ADD PUSH2 0x725 SWAP3 SWAP2 SWAP1 PUSH2 0x1FE6 JUMP JUMPDEST PUSH0 PUSH1 0x40 MLOAD DUP1 DUP4 SUB DUP2 PUSH0 DUP8 DUP1 EXTCODESIZE ISZERO DUP1 ISZERO PUSH2 0x73C JUMPI PUSH0 DUP1 REVERT JUMPDEST POP GAS CALL ISZERO DUP1 ISZERO PUSH2 0x74E JUMPI RETURNDATASIZE PUSH0 DUP1 RETURNDATACOPY RETURNDATASIZE PUSH0 REVERT JUMPDEST POP POP POP POP DUP2 PUSH2 0xFFFF AND DUP4 PUSH20 0xFFFFFFFFFFFFFFFFFFFFFFFFFFFFFFFFFFFFFFFF AND PUSH32 0x4ED3B726495C2DCA1FF1215D9CA54E1A4030ABB5E82B0F6CE55702416CEE853 PUSH1 0x40 MLOAD PUSH1 0x40 MLOAD DUP1 SWAP2 SUB SWAP1 LOG3 POP POP POP JUMP JUMPDEST PUSH0 PUSH1 0x1 PUSH0 SWAP1 SLOAD SWAP1 PUSH2 0x100 EXP SWAP1 DIV PUSH20 0xFFFFFFFFFFFFFFFFFFFFFFFFFFFFFFFFFFFFFFFF AND SWAP1 POP SWAP1 JUMP JUMPDEST PUSH32 0xCAB5A0BFE0B79D2C4B1C2E02599FA044D115B7511F9659307CB4276950967709 PUSH0 SHL PUSH2 0x7F3 DUP2 PUSH2 0x1152 JUMP JUMPDEST PUSH2 0x7FE DUP5 DUP5 DUP5 PUSH2 0x133F JUMP JUMPDEST POP POP POP POP JUMP JUMPDEST PUSH0 DUP1 PUSH20 0xFFFFFFFFFFFFFFFFFFFFFFFFFFFFFFFFFFFFFFFF AND PUSH2 0x825 DUP4 PUSH2 0x1020 JUMP JUMPDEST PUSH20 0xFFFFFFFFFFFFFFFFFFFFFFFFFFFFFFFFFFFFFFFF AND EQ PUSH2 0x847 JUMPI PUSH1 0x1 PUSH2 0x849 JUMP JUMPDEST PUSH0 JUMPDEST SWAP1 POP SWAP2 SWAP1 POP JUMP JUMPDEST PUSH32 0xCAB5A0BFE0B79D2C4B1C2E02599FA044D115B7511F9659307CB4276950967709 PUSH0 SHL PUSH2 0x87C DUP2 PUSH2 0x1152 JUMP JUMPDEST PUSH0 DUP8 DUP8 SWAP1 POP SWAP1 POP DUP6 DUP6 SWAP1 POP DUP2 EQ PUSH2 0x8C8 JUMPI PUSH1 0x40 MLOAD PUSH32 0x8C379A000000000000000000000000000000000000000000000000000000000 DUP2 MSTORE PUSH1 0x4 ADD PUSH2 0x8BF SWAP1 PUSH2 0x2067 JUMP JUMPDEST PUSH1 0x40 MLOAD DUP1 SWAP2 SUB SWAP1 REVERT JUMPDEST DUP4 DUP4 SWAP1 POP DUP2 EQ PUSH2 0x90D JUMPI PUSH1 0x40 MLOAD PUSH32 0x8C379A000000000000000000000000000000000000000000000000000000000 DUP2 MSTORE PUSH1 0x4 ADD PUSH2 0x904 SWAP1 PUSH2 0x2067 JUMP JUMPDEST PUSH1 0x40 MLOAD DUP1 SWAP2 SUB SWAP1 REVERT JUMPDEST PUSH0 JUMPDEST DUP2 DUP2 LT ISZERO PUSH2 0x9A2 JUMPI PUSH2 0x997 DUP10 DUP10 DUP4 DUP2 DUP2 LT PUSH2 0x92D JUMPI PUSH2 0x92C PUSH2 0x2085 JUMP JUMPDEST JUMPDEST SWAP1 POP PUSH1 0x20 MUL ADD PUSH1 0x20 DUP2 ADD SWAP1 PUSH2 0x942 SWAP2 SWAP1 PUSH2 0x1C14 JUMP JUMPDEST DUP9 DUP9 DUP5 DUP2 DUP2 LT PUSH2 0x955 JUMPI PUSH2 0x954 PUSH2 0x2085 JUMP JUMPDEST JUMPDEST SWAP1 POP PUSH1 0x20 MUL ADD PUSH1 0x20 DUP2 ADD SWAP1 PUSH2 0x96A SWAP2 SWAP1 PUSH2 0x20B2 JUMP JUMPDEST DUP8 DUP8 DUP6 DUP2 DUP2 LT PUSH2 0x97D JUMPI PUSH2 0x97C PUSH2 0x2085 JUMP JUMPDEST JUMPDEST SWAP1 POP PUSH1 0x20 MUL ADD PUSH1 0x20 DUP2 ADD SWAP1 PUSH2 0x992 SWAP2 SWAP1 PUSH2 0x20DD JUMP JUMPDEST PUSH2 0x133F JUMP JUMPDEST DUP1 PUSH1 0x1 ADD SWAP1 POP PUSH2 0x90F JUMP JUMPDEST POP POP POP POP POP POP POP POP POP JUMP JUMPDEST PUSH32 0xB19546DFF01E856FB3F010C267A7B1C60363CF8A4664E21CC89C26224620214E PUSH0 SHL PUSH2 0x9D9 DUP2 PUSH2 0x1152 JUMP JUMPDEST DUP2 PUSH1 0x1 PUSH0 PUSH2 0x100 EXP DUP2 SLOAD DUP2 PUSH20 0xFFFFFFFFFFFFFFFFFFFFFFFFFFFFFFFFFFFFFFFF MUL NOT AND SWAP1 DUP4 PUSH20 0xFFFFFFFFFFFFFFFFFFFFFFFFFFFFFFFFFFFFFFFF AND MUL OR SWAP1 SSTORE POP DUP2 PUSH20 0xFFFFFFFFFFFFFFFFFFFFFFFFFFFFFFFFFFFFFFFF AND PUSH32 0x7170BF15B246E880B2369CD7C67D057760D8A35149E8C64DDE91EFA22BCC76D0 PUSH1 0x40 MLOAD PUSH1 0x40 MLOAD DUP1 SWAP2 SUB SWAP1 LOG2 POP POP JUMP JUMPDEST PUSH32 0xB19546DFF01E856FB3F010C267A7B1C60363CF8A4664E21CC89C26224620214E PUSH0 SHL PUSH2 0xA8C DUP2 PUSH2 0x1152 JUMP JUMPDEST DUP2 PUSH1 0x2 PUSH0 PUSH2 0x100 EXP DUP2 SLOAD DUP2 PUSH20 0xFFFFFFFFFFFFFFFFFFFFFFFFFFFFFFFFFFFFFFFF MUL NOT AND SWAP1 DUP4 PUSH20 0xFFFFFFFFFFFFFFFFFFFFFFFFFFFFFFFFFFFFFFFF AND MUL OR SWAP1 SSTORE POP DUP2 PUSH20 0xFFFFFFFFFFFFFFFFFFFFFFFFFFFFFFFFFFFFFFFF AND PUSH32 0x811D3016DA8008875247AF93AF072EC7801E39D9F4C686FEC82AB600D8E555E8 PUSH1 0x40 MLOAD PUSH1 0x40 MLOAD DUP1 SWAP2 SUB SWAP1 LOG2 POP POP JUMP JUMPDEST PUSH0 PUSH1 0x3 PUSH0 SWAP1 SLOAD SWAP1 PUSH2 0x100 EXP SWAP1 DIV PUSH20 0xFFFFFFFFFFFFFFFFFFFFFFFFFFFFFFFFFFFFFFFF AND PUSH20 0xFFFFFFFFFFFFFFFFFFFFFFFFFFFFFFFFFFFFFFFF AND PUSH4 0x727E13BC DUP4 PUSH1 0x40 MLOAD DUP3 PUSH4 0xFFFFFFFF AND PUSH1 0xE0 SHL DUP2 MSTORE PUSH1 0x4 ADD PUSH2 0xB6E SWAP2 SWAP1 PUSH2 0x2108 JUMP JUMPDEST PUSH1 0x20 PUSH1 0x40 MLOAD DUP1 DUP4 SUB DUP2 DUP7 GAS STATICCALL ISZERO DUP1 ISZERO PUSH2 0xB89 JUMPI RETURNDATASIZE PUSH0 DUP1 RETURNDATACOPY RETURNDATASIZE PUSH0 REVERT JUMPDEST POP POP POP POP PUSH1 0x40 MLOAD RETURNDATASIZE PUSH1 0x1F NOT PUSH1 0x1F DUP3 ADD AND DUP3 ADD DUP1 PUSH1 0x40 MSTORE POP DUP2 ADD SWAP1 PUSH2 0xBAD SWAP2 SWAP1 PUSH2 0x2135 JUMP JUMPDEST SWAP1 POP SWAP2 SWAP1 POP JUMP JUMPDEST PUSH32 0xCAB5A0BFE0B79D2C4B1C2E02599FA044D115B7511F9659307CB4276950967709 PUSH0 SHL PUSH2 0xBE0 DUP2 PUSH2 0x1152 JUMP JUMPDEST PUSH0 PUSH2 0xBEA DUP5 PUSH2 0x1429 JUMP JUMPDEST SWAP1 POP PUSH1 0x3 PUSH0 SWAP1 SLOAD SWAP1 PUSH2 0x100 EXP SWAP1 DIV PUSH20 0xFFFFFFFFFFFFFFFFFFFFFFFFFFFFFFFFFFFFFFFF AND PUSH20 0xFFFFFFFFFFFFFFFFFFFFFFFFFFFFFFFFFFFFFFFF AND PUSH4 0xE805CF86 DUP6 DUP6 PUSH1 0x40 MLOAD DUP4 PUSH4 0xFFFFFFFF AND PUSH1 0xE0 SHL DUP2 MSTORE PUSH1 0x4 ADD PUSH2 0xC48 SWAP3 SWAP2 SWAP1 PUSH2 0x2160 JUMP JUMPDEST PUSH0 PUSH1 0x40 MLOAD DUP1 DUP4 SUB DUP2 PUSH0 DUP8 DUP1 EXTCODESIZE ISZERO DUP1 ISZERO PUSH2 0xC5F JUMPI PUSH0 DUP1 REVERT JUMPDEST POP GAS CALL ISZERO DUP1 ISZERO PUSH2 0xC71 JUMPI RETURNDATASIZE PUSH0 DUP1 RETURNDATACOPY RETURNDATASIZE PUSH0 REVERT JUMPDEST POP POP POP POP DUP3 PUSH20 0xFFFFFFFFFFFFFFFFFFFFFFFFFFFFFFFFFFFFFFFF AND DUP2 PUSH20 0xFFFFFFFFFFFFFFFFFFFFFFFFFFFFFFFFFFFFFFFF AND PUSH32 0xE98082932C8056A0F514DA9104E4A66BC2CBAEF102AD59D90C4B24220EBF6010 PUSH1 0x40 MLOAD PUSH1 0x40 MLOAD DUP1 SWAP2 SUB SWAP1 LOG3 POP POP POP POP JUMP JUMPDEST PUSH0 DUP1 PUSH0 DUP5 DUP2 MSTORE PUSH1 0x20 ADD SWAP1 DUP2 MSTORE PUSH1 0x20 ADD PUSH0 KECCAK256 PUSH0 ADD PUSH0 DUP4 PUSH20 0xFFFFFFFFFFFFFFFFFFFFFFFFFFFFFFFFFFFFFFFF AND PUSH20 0xFFFFFFFFFFFFFFFFFFFFFFFFFFFFFFFFFFFFFFFF AND DUP2 MSTORE PUSH1 0x20 ADD SWAP1 DUP2 MSTORE PUSH1 0x20 ADD PUSH0 KECCAK256 PUSH0 SWAP1 SLOAD SWAP1 PUSH2 0x100 EXP SWAP1 DIV PUSH1 0xFF AND SWAP1 POP SWAP3 SWAP2 POP POP JUMP JUMPDEST PUSH0 DUP1 SHL DUP2 JUMP JUMPDEST PUSH32 0xCAB5A0BFE0B79D2C4B1C2E02599FA044D115B7511F9659307CB4276950967709 PUSH0 SHL PUSH2 0xD6A DUP2 PUSH2 0x1152 JUMP JUMPDEST PUSH0 PUSH2 0xD74 DUP4 PUSH2 0x1429 JUMP JUMPDEST SWAP1 POP PUSH1 0x3 PUSH0 SWAP1 SLOAD SWAP1 PUSH2 0x100 EXP SWAP1 DIV PUSH20 0xFFFFFFFFFFFFFFFFFFFFFFFFFFFFFFFFFFFFFFFF AND PUSH20 0xFFFFFFFFFFFFFFFFFFFFFFFFFFFFFFFFFFFFFFFF AND PUSH4 0xCF191BCD DUP5 PUSH1 0x40 MLOAD DUP3 PUSH4 0xFFFFFFFF AND PUSH1 0xE0 SHL DUP2 MSTORE PUSH1 0x4 ADD PUSH2 0xDD0 SWAP2 SWAP1 PUSH2 0x2108 JUMP JUMPDEST PUSH0 PUSH1 0x40 MLOAD DUP1 DUP4 SUB DUP2 PUSH0 DUP8 DUP1 EXTCODESIZE ISZERO DUP1 ISZERO PUSH2 0xDE7 JUMPI PUSH0 DUP1 REVERT JUMPDEST POP GAS CALL ISZERO DUP1 ISZERO PUSH2 0xDF9 JUMPI RETURNDATASIZE PUSH0 DUP1 RETURNDATACOPY RETURNDATASIZE PUSH0 REVERT JUMPDEST POP POP POP POP DUP1 PUSH20 0xFFFFFFFFFFFFFFFFFFFFFFFFFFFFFFFFFFFFFFFF AND DUP4 PUSH20 0xFFFFFFFFFFFFFFFFFFFFFFFFFFFFFFFFFFFFFFFF AND PUSH32 0x59D6590E225B81BEFE259AF056324092801080ACBB7FEAB310EB34678871F327 PUSH1 0x40 MLOAD PUSH1 0x40 MLOAD DUP1 SWAP2 SUB SWAP1 LOG3 POP POP POP JUMP JUMPDEST PUSH0 PUSH1 0x2 PUSH0 SWAP1 SLOAD SWAP1 PUSH2 0x100 EXP SWAP1 DIV PUSH20 0xFFFFFFFFFFFFFFFFFFFFFFFFFFFFFFFFFFFFFFFF AND SWAP1 POP SWAP1 JUMP JUMPDEST PUSH0 DUP1 PUSH2 0xE8F DUP4 PUSH2 0x1429 JUMP JUMPDEST SWAP1 POP PUSH0 PUSH20 0xFFFFFFFFFFFFFFFFFFFFFFFFFFFFFFFFFFFFFFFF AND DUP2 PUSH20 0xFFFFFFFFFFFFFFFFFFFFFFFFFFFFFFFFFFFFFFFF AND SUB PUSH2 0xECD JUMPI PUSH0 SWAP2 POP POP PUSH2 0xFD3 JUMP JUMPDEST PUSH0 PUSH1 0x1 PUSH0 SWAP1 SLOAD SWAP1 PUSH2 0x100 EXP SWAP1 DIV PUSH20 0xFFFFFFFFFFFFFFFFFFFFFFFFFFFFFFFFFFFFFFFF AND PUSH20 0xFFFFFFFFFFFFFFFFFFFFFFFFFFFFFFFFFFFFFFFF AND PUSH4 0xDF09D604 PUSH1 0x40 MLOAD DUP2 PUSH4 0xFFFFFFFF AND PUSH1 0xE0 SHL DUP2 MSTORE PUSH1 0x4 ADD PUSH0 PUSH1 0x40 MLOAD DUP1 DUP4 SUB DUP2 DUP7 GAS STATICCALL ISZERO DUP1 ISZERO PUSH2 0xF37 JUMPI RETURNDATASIZE PUSH0 DUP1 RETURNDATACOPY RETURNDATASIZE PUSH0 REVERT JUMPDEST POP POP POP POP PUSH1 0x40 MLOAD RETURNDATASIZE PUSH0 DUP3 RETURNDATACOPY RETURNDATASIZE PUSH1 0x1F NOT PUSH1 0x1F DUP3 ADD AND DUP3 ADD DUP1 PUSH1 0x40 MSTORE POP DUP2 ADD SWAP1 PUSH2 0xF5F SWAP2 SWAP1 PUSH2 0x2302 JUMP JUMPDEST SWAP1 POP PUSH0 DUP2 MLOAD SWAP1 POP PUSH0 DUP2 SUB PUSH2 0xF79 JUMPI PUSH1 0x1 SWAP4 POP POP POP POP PUSH2 0xFD3 JUMP JUMPDEST PUSH0 JUMPDEST DUP2 DUP2 LT ISZERO PUSH2 0xFCA JUMPI PUSH2 0xFA7 DUP5 DUP5 DUP4 DUP2 MLOAD DUP2 LT PUSH2 0xF9A JUMPI PUSH2 0xF99 PUSH2 0x2085 JUMP JUMPDEST JUMPDEST PUSH1 0x20 MUL PUSH1 0x20 ADD ADD MLOAD PUSH2 0x14CA JUMP JUMPDEST PUSH2 0xFB7 JUMPI PUSH0 SWAP5 POP POP POP POP POP PUSH2 0xFD3 JUMP JUMPDEST DUP1 DUP1 PUSH2 0xFC2 SWAP1 PUSH2 0x2376 JUMP JUMPDEST SWAP2 POP POP PUSH2 0xF7B JUMP JUMPDEST POP PUSH1 0x1 SWAP4 POP POP POP POP JUMPDEST SWAP2 SWAP1 POP JUMP JUMPDEST PUSH2 0xFE1 DUP3 PUSH2 0x531 JUMP JUMPDEST PUSH2 0xFEA DUP2 PUSH2 0x1152 JUMP JUMPDEST PUSH2 0xFF4 DUP4 DUP4 PUSH2 0x1256 JUMP JUMPDEST POP POP POP POP JUMP JUMPDEST PUSH32 0xB19546DFF01E856FB3F010C267A7B1C60363CF8A4664E21CC89C26224620214E PUSH0 SHL DUP2 JUMP JUMPDEST PUSH0 PUSH1 0x3 PUSH0 SWAP1 SLOAD SWAP1 PUSH2 0x100 EXP SWAP1 DIV PUSH20 0xFFFFFFFFFFFFFFFFFFFFFFFFFFFFFFFFFFFFFFFF AND PUSH20 0xFFFFFFFFFFFFFFFFFFFFFFFFFFFFFFFFFFFFFFFF AND PUSH4 0x7988D3A5 DUP4 PUSH1 0x40 MLOAD DUP3 PUSH4 0xFFFFFFFF AND PUSH1 0xE0 SHL DUP2 MSTORE PUSH1 0x4 ADD PUSH2 0x107B SWAP2 SWAP1 PUSH2 0x2108 JUMP JUMPDEST PUSH1 0x20 PUSH1 0x40 MLOAD DUP1 DUP4 SUB DUP2 DUP7 GAS STATICCALL ISZERO DUP1 ISZERO PUSH2 0x1096 JUMPI RETURNDATASIZE PUSH0 DUP1 RETURNDATACOPY RETURNDATASIZE PUSH0 REVERT JUMPDEST POP POP POP POP PUSH1 0x40 MLOAD RETURNDATASIZE PUSH1 0x1F NOT PUSH1 0x1F DUP3 ADD AND DUP3 ADD DUP1 PUSH1 0x40 MSTORE POP DUP2 ADD SWAP1 PUSH2 0x10BA SWAP2 SWAP1 PUSH2 0x23D1 JUMP JUMPDEST SWAP1 POP SWAP2 SWAP1 POP JUMP JUMPDEST PUSH0 PUSH1 0x3 PUSH0 SWAP1 SLOAD SWAP1 PUSH2 0x100 EXP SWAP1 DIV PUSH20 0xFFFFFFFFFFFFFFFFFFFFFFFFFFFFFFFFFFFFFFFF AND SWAP1 POP SWAP1 JUMP JUMPDEST PUSH0 PUSH32 0x1FFC9A700000000000000000000000000000000000000000000000000000000 PUSH28 0xFFFFFFFFFFFFFFFFFFFFFFFFFFFFFFFFFFFFFFFFFFFFFFFFFFFFFFFF NOT AND DUP3 PUSH28 0xFFFFFFFFFFFFFFFFFFFFFFFFFFFFFFFFFFFFFFFFFFFFFFFFFFFFFFFF NOT AND EQ SWAP1 POP SWAP2 SWAP1 POP JUMP JUMPDEST PUSH2 0x1163 DUP2 PUSH2 0x115E PUSH2 0x124F JUMP JUMPDEST PUSH2 0x1773 JUMP JUMPDEST POP JUMP JUMPDEST PUSH0 PUSH2 0x1171 DUP4 DUP4 PUSH2 0xCD5 JUMP JUMPDEST PUSH2 0x1245 JUMPI PUSH1 0x1 PUSH0 DUP1 DUP6 DUP2 MSTORE PUSH1 0x20 ADD SWAP1 DUP2 MSTORE PUSH1 0x20 ADD PUSH0 KECCAK256 PUSH0 ADD PUSH0 DUP5 PUSH20 0xFFFFFFFFFFFFFFFFFFFFFFFFFFFFFFFFFFFFFFFF AND PUSH20 0xFFFFFFFFFFFFFFFFFFFFFFFFFFFFFFFFFFFFFFFF AND DUP2 MSTORE PUSH1 0x20 ADD SWAP1 DUP2 MSTORE PUSH1 0x20 ADD PUSH0 KECCAK256 PUSH0 PUSH2 0x100 EXP DUP2 SLOAD DUP2 PUSH1 0xFF MUL NOT AND SWAP1 DUP4 ISZERO ISZERO MUL OR SWAP1 SSTORE POP PUSH2 0x11E2 PUSH2 0x124F JUMP JUMPDEST PUSH20 0xFFFFFFFFFFFFFFFFFFFFFFFFFFFFFFFFFFFFFFFF AND DUP3 PUSH20 0xFFFFFFFFFFFFFFFFFFFFFFFFFFFFFFFFFFFFFFFF AND DUP5 PUSH32 0x2F8788117E7EFF1D82E926EC794901D17C78024A50270940304540A733656F0D PUSH1 0x40 MLOAD PUSH1 0x40 MLOAD DUP1 SWAP2 SUB SWAP1 LOG4 PUSH1 0x1 SWAP1 POP PUSH2 0x1249 JUMP JUMPDEST PUSH0 SWAP1 POP JUMPDEST SWAP3 SWAP2 POP POP JUMP JUMPDEST PUSH0 CALLER SWAP1 POP SWAP1 JUMP JUMPDEST PUSH0 PUSH2 0x1261 DUP4 DUP4 PUSH2 0xCD5 JUMP JUMPDEST ISZERO PUSH2 0x1335 JUMPI PUSH0 DUP1 PUSH0 DUP6 DUP2 MSTORE PUSH1 0x20 ADD SWAP1 DUP2 MSTORE PUSH1 0x20 ADD PUSH0 KECCAK256 PUSH0 ADD PUSH0 DUP5 PUSH20 0xFFFFFFFFFFFFFFFFFFFFFFFFFFFFFFFFFFFFFFFF AND PUSH20 0xFFFFFFFFFFFFFFFFFFFFFFFFFFFFFFFFFFFFFFFF AND DUP2 MSTORE PUSH1 0x20 ADD SWAP1 DUP2 MSTORE PUSH1 0x20 ADD PUSH0 KECCAK256 PUSH0 PUSH2 0x100 EXP DUP2 SLOAD DUP2 PUSH1 0xFF MUL NOT AND SWAP1 DUP4 ISZERO ISZERO MUL OR SWAP1 SSTORE POP PUSH2 0x12D2 PUSH2 0x124F JUMP JUMPDEST PUSH20 0xFFFFFFFFFFFFFFFFFFFFFFFFFFFFFFFFFFFFFFFF AND DUP3 PUSH20 0xFFFFFFFFFFFFFFFFFFFFFFFFFFFFFFFFFFFFFFFF AND DUP5 PUSH32 0xF6391F5C32D9C69D2A47EA670B442974B53935D1EDC7FD64EB21E047A839171B PUSH1 0x40 MLOAD PUSH1 0x40 MLOAD DUP1 SWAP2 SUB SWAP1 LOG4 PUSH1 0x1 SWAP1 POP PUSH2 0x1339 JUMP JUMPDEST PUSH0 SWAP1 POP JUMPDEST SWAP3 SWAP2 POP POP JUMP JUMPDEST PUSH1 0x3 PUSH0 SWAP1 SLOAD SWAP1 PUSH2 0x100 EXP SWAP1 DIV PUSH20 0xFFFFFFFFFFFFFFFFFFFFFFFFFFFFFFFFFFFFFFFF AND PUSH20 0xFFFFFFFFFFFFFFFFFFFFFFFFFFFFFFFFFFFFFFFF AND PUSH4 0xA53410DD DUP5 DUP5 DUP5 PUSH1 0x40 MLOAD DUP5 PUSH4 0xFFFFFFFF AND PUSH1 0xE0 SHL DUP2 MSTORE PUSH1 0x4 ADD PUSH2 0x139D SWAP4 SWAP3 SWAP2 SWAP1 PUSH2 0x23FC JUMP JUMPDEST PUSH0 PUSH1 0x40 MLOAD DUP1 DUP4 SUB DUP2 PUSH0 DUP8 DUP1 EXTCODESIZE ISZERO DUP1 ISZERO PUSH2 0x13B4 JUMPI PUSH0 DUP1 REVERT JUMPDEST POP GAS CALL ISZERO DUP1 ISZERO PUSH2 0x13C6 JUMPI RETURNDATASIZE PUSH0 DUP1 RETURNDATACOPY RETURNDATASIZE PUSH0 REVERT JUMPDEST POP POP POP POP DUP2 PUSH20 0xFFFFFFFFFFFFFFFFFFFFFFFFFFFFFFFFFFFFFFFF AND DUP4 PUSH20 0xFFFFFFFFFFFFFFFFFFFFFFFFFFFFFFFFFFFFFFFF AND PUSH32 0x6AE73635C50D24A45AF6FBD5E016AC4BED179ADDBC8BF24E04FF0FCC6D33AF19 PUSH1 0x40 MLOAD PUSH1 0x40 MLOAD DUP1 SWAP2 SUB SWAP1 LOG3 POP POP POP JUMP JUMPDEST PUSH0 PUSH1 0x3 PUSH0 SWAP1 SLOAD SWAP1 PUSH2 0x100 EXP SWAP1 DIV PUSH20 0xFFFFFFFFFFFFFFFFFFFFFFFFFFFFFFFFFFFFFFFF AND PUSH20 0xFFFFFFFFFFFFFFFFFFFFFFFFFFFFFFFFFFFFFFFF AND PUSH4 0x7988D3A5 DUP4 PUSH1 0x40 MLOAD DUP3 PUSH4 0xFFFFFFFF AND PUSH1 0xE0 SHL DUP2 MSTORE PUSH1 0x4 ADD PUSH2 0x1484 SWAP2 SWAP1 PUSH2 0x2108 JUMP JUMPDEST PUSH1 0x20 PUSH1 0x40 MLOAD DUP1 DUP4 SUB DUP2 DUP7 GAS STATICCALL ISZERO DUP1 ISZERO PUSH2 0x149F JUMPI RETURNDATASIZE PUSH0 DUP1 RETURNDATACOPY RETURNDATASIZE PUSH0 REVERT JUMPDEST POP POP POP POP PUSH1 0x40 MLOAD RETURNDATASIZE PUSH1 0x1F NOT PUSH1 0x1F DUP3 ADD AND DUP3 ADD DUP1 PUSH1 0x40 MSTORE POP DUP2 ADD SWAP1 PUSH2 0x14C3 SWAP2 SWAP1 PUSH2 0x23D1 JUMP JUMPDEST SWAP1 POP SWAP2 SWAP1 POP JUMP JUMPDEST PUSH0 DUP1 PUSH1 0x2 PUSH0 SWAP1 SLOAD SWAP1 PUSH2 0x100 EXP SWAP1 DIV PUSH20 0xFFFFFFFFFFFFFFFFFFFFFFFFFFFFFFFFFFFFFFFF AND PUSH20 0xFFFFFFFFFFFFFFFFFFFFFFFFFFFFFFFFFFFFFFFF AND PUSH4 0x6B2C56BD DUP5 PUSH1 0x40 MLOAD DUP3 PUSH4 0xFFFFFFFF AND PUSH1 0xE0 SHL DUP2 MSTORE PUSH1 0x4 ADD PUSH2 0x1526 SWAP2 SWAP1 PUSH2 0x2440 JUMP JUMPDEST PUSH0 PUSH1 0x40 MLOAD DUP1 DUP4 SUB DUP2 DUP7 GAS STATICCALL ISZERO DUP1 ISZERO PUSH2 0x1540 JUMPI RETURNDATASIZE PUSH0 DUP1 RETURNDATACOPY RETURNDATASIZE PUSH0 REVERT JUMPDEST POP POP POP POP PUSH1 0x40 MLOAD RETURNDATASIZE PUSH0 DUP3 RETURNDATACOPY RETURNDATASIZE PUSH1 0x1F NOT PUSH1 0x1F DUP3 ADD AND DUP3 ADD DUP1 PUSH1 0x40 MSTORE POP DUP2 ADD SWAP1 PUSH2 0x1568 SWAP2 SWAP1 PUSH2 0x2554 JUMP JUMPDEST SWAP1 POP PUSH0 DUP2 MLOAD SWAP1 POP PUSH0 DUP2 SUB PUSH2 0x1580 JUMPI PUSH0 SWAP3 POP POP POP PUSH2 0x176D JUMP JUMPDEST PUSH0 DUP2 PUSH8 0xFFFFFFFFFFFFFFFF DUP2 GT ISZERO PUSH2 0x159B JUMPI PUSH2 0x159A PUSH2 0x2197 JUMP JUMPDEST JUMPDEST PUSH1 0x40 MLOAD SWAP1 DUP1 DUP3 MSTORE DUP1 PUSH1 0x20 MUL PUSH1 0x20 ADD DUP3 ADD PUSH1 0x40 MSTORE DUP1 ISZERO PUSH2 0x15C9 JUMPI DUP2 PUSH1 0x20 ADD PUSH1 0x20 DUP3 MUL DUP1 CALLDATASIZE DUP4 CALLDATACOPY DUP1 DUP3 ADD SWAP2 POP POP SWAP1 POP JUMPDEST POP SWAP1 POP PUSH0 JUMPDEST DUP3 DUP2 LT ISZERO PUSH2 0x164B JUMPI DUP4 DUP2 DUP2 MLOAD DUP2 LT PUSH2 0x15E9 JUMPI PUSH2 0x15E8 PUSH2 0x2085 JUMP JUMPDEST JUMPDEST PUSH1 0x20 MUL PUSH1 0x20 ADD ADD MLOAD DUP7 PUSH1 0x40 MLOAD PUSH1 0x20 ADD PUSH2 0x1603 SWAP3 SWAP2 SWAP1 PUSH2 0x25BB JUMP JUMPDEST PUSH1 0x40 MLOAD PUSH1 0x20 DUP2 DUP4 SUB SUB DUP2 MSTORE SWAP1 PUSH1 0x40 MSTORE DUP1 MLOAD SWAP1 PUSH1 0x20 ADD KECCAK256 DUP3 DUP3 DUP2 MLOAD DUP2 LT PUSH2 0x162C JUMPI PUSH2 0x162B PUSH2 0x2085 JUMP JUMPDEST JUMPDEST PUSH1 0x20 MUL PUSH1 0x20 ADD ADD DUP2 DUP2 MSTORE POP POP DUP1 DUP1 PUSH2 0x1643 SWAP1 PUSH2 0x2376 JUMP JUMPDEST SWAP2 POP POP PUSH2 0x15CE JUMP JUMPDEST POP PUSH0 JUMPDEST DUP2 MLOAD DUP2 LT ISZERO PUSH2 0x1765 JUMPI PUSH0 DUP1 PUSH0 DUP1 DUP11 PUSH20 0xFFFFFFFFFFFFFFFFFFFFFFFFFFFFFFFFFFFFFFFF AND PUSH4 0xC9100BCB DUP8 DUP8 DUP2 MLOAD DUP2 LT PUSH2 0x168A JUMPI PUSH2 0x1689 PUSH2 0x2085 JUMP JUMPDEST JUMPDEST PUSH1 0x20 MUL PUSH1 0x20 ADD ADD MLOAD PUSH1 0x40 MLOAD DUP3 PUSH4 0xFFFFFFFF AND PUSH1 0xE0 SHL DUP2 MSTORE PUSH1 0x4 ADD PUSH2 0x16AE SWAP2 SWAP1 PUSH2 0x1934 JUMP JUMPDEST PUSH0 PUSH1 0x40 MLOAD DUP1 DUP4 SUB DUP2 DUP7 GAS STATICCALL ISZERO DUP1 ISZERO PUSH2 0x16C8 JUMPI RETURNDATASIZE PUSH0 DUP1 RETURNDATACOPY RETURNDATASIZE PUSH0 REVERT JUMPDEST POP POP POP POP PUSH1 0x40 MLOAD RETURNDATASIZE PUSH0 DUP3 RETURNDATACOPY RETURNDATASIZE PUSH1 0x1F NOT PUSH1 0x1F DUP3 ADD AND DUP3 ADD DUP1 PUSH1 0x40 MSTORE POP DUP2 ADD SWAP1 PUSH2 0x16F0 SWAP2 SWAP1 PUSH2 0x275E JUMP JUMPDEST POP SWAP5 POP SWAP5 POP SWAP5 POP POP SWAP4 POP DUP10 DUP5 SUB PUSH2 0x1729 JUMPI PUSH2 0x170E DUP12 DUP5 DUP13 DUP6 DUP6 PUSH2 0x17C4 JUMP JUMPDEST ISZERO PUSH2 0x1724 JUMPI PUSH1 0x1 SWAP9 POP POP POP POP POP POP POP POP POP PUSH2 0x176D JUMP JUMPDEST PUSH2 0x174E JUMP JUMPDEST PUSH1 0x1 DUP7 MLOAD PUSH2 0x1737 SWAP2 SWAP1 PUSH2 0x283B JUMP JUMPDEST DUP6 SUB PUSH2 0x174D JUMPI PUSH0 SWAP9 POP POP POP POP POP POP POP POP POP PUSH2 0x176D JUMP JUMPDEST JUMPDEST POP POP POP POP DUP1 DUP1 PUSH2 0x175D SWAP1 PUSH2 0x2376 JUMP JUMPDEST SWAP2 POP POP PUSH2 0x164E JUMP JUMPDEST POP PUSH0 SWAP4 POP POP POP POP JUMPDEST SWAP3 SWAP2 POP POP JUMP JUMPDEST PUSH2 0x177D DUP3 DUP3 PUSH2 0xCD5 JUMP JUMPDEST PUSH2 0x17C0 JUMPI DUP1 DUP3 PUSH1 0x40 MLOAD PUSH32 0xE2517D3F00000000000000000000000000000000000000000000000000000000 DUP2 MSTORE PUSH1 0x4 ADD PUSH2 0x17B7 SWAP3 SWAP2 SWAP1 PUSH2 0x286E JUMP JUMPDEST PUSH1 0x40 MLOAD DUP1 SWAP2 SUB SWAP1 REVERT JUMPDEST POP POP JUMP JUMPDEST PUSH0 DUP5 PUSH20 0xFFFFFFFFFFFFFFFFFFFFFFFFFFFFFFFFFFFFFFFF AND PUSH4 0xC0969A6E DUP8 DUP7 DUP7 DUP7 PUSH1 0x40 MLOAD DUP6 PUSH4 0xFFFFFFFF AND PUSH1 0xE0 SHL DUP2 MSTORE PUSH1 0x4 ADD PUSH2 0x1804 SWAP5 SWAP4 SWAP3 SWAP2 SWAP1 PUSH2 0x28E7 JUMP JUMPDEST PUSH1 0x20 PUSH1 0x40 MLOAD DUP1 DUP4 SUB DUP2 DUP7 GAS STATICCALL SWAP3 POP POP POP DUP1 ISZERO PUSH2 0x183E JUMPI POP PUSH1 0x40 MLOAD RETURNDATASIZE PUSH1 0x1F NOT PUSH1 0x1F DUP3 ADD AND DUP3 ADD DUP1 PUSH1 0x40 MSTORE POP DUP2 ADD SWAP1 PUSH2 0x183B SWAP2 SWAP1 PUSH2 0x2962 JUMP JUMPDEST PUSH1 0x1 JUMPDEST PUSH2 0x184A JUMPI PUSH0 SWAP1 POP PUSH2 0x184F JUMP JUMPDEST DUP1 SWAP2 POP POP JUMPDEST SWAP6 SWAP5 POP POP POP POP POP JUMP JUMPDEST PUSH0 PUSH1 0x40 MLOAD SWAP1 POP SWAP1 JUMP JUMPDEST PUSH0 DUP1 REVERT JUMPDEST PUSH0 DUP1 REVERT JUMPDEST PUSH0 PUSH32 0xFFFFFFFF00000000000000000000000000000000000000000000000000000000 DUP3 AND SWAP1 POP SWAP2 SWAP1 POP JUMP JUMPDEST PUSH2 0x189D DUP2 PUSH2 0x1869 JUMP JUMPDEST DUP2 EQ PUSH2 0x18A7 JUMPI PUSH0 DUP1 REVERT JUMPDEST POP JUMP JUMPDEST PUSH0 DUP2 CALLDATALOAD SWAP1 POP PUSH2 0x18B8 DUP2 PUSH2 0x1894 JUMP JUMPDEST SWAP3 SWAP2 POP POP JUMP JUMPDEST PUSH0 PUSH1 0x20 DUP3 DUP5 SUB SLT ISZERO PUSH2 0x18D3 JUMPI PUSH2 0x18D2 PUSH2 0x1861 JUMP JUMPDEST JUMPDEST PUSH0 PUSH2 0x18E0 DUP5 DUP3 DUP6 ADD PUSH2 0x18AA JUMP JUMPDEST SWAP2 POP POP SWAP3 SWAP2 POP POP JUMP JUMPDEST PUSH0 DUP2 ISZERO ISZERO SWAP1 POP SWAP2 SWAP1 POP JUMP JUMPDEST PUSH2 0x18FD DUP2 PUSH2 0x18E9 JUMP JUMPDEST DUP3 MSTORE POP POP JUMP JUMPDEST PUSH0 PUSH1 0x20 DUP3 ADD SWAP1 POP PUSH2 0x1916 PUSH0 DUP4 ADD DUP5 PUSH2 0x18F4 JUMP JUMPDEST SWAP3 SWAP2 POP POP JUMP JUMPDEST PUSH0 DUP2 SWAP1 POP SWAP2 SWAP1 POP JUMP JUMPDEST PUSH2 0x192E DUP2 PUSH2 0x191C JUMP JUMPDEST DUP3 MSTORE POP POP JUMP JUMPDEST PUSH0 PUSH1 0x20 DUP3 ADD SWAP1 POP PUSH2 0x1947 PUSH0 DUP4 ADD DUP5 PUSH2 0x1925 JUMP JUMPDEST SWAP3 SWAP2 POP POP JUMP JUMPDEST PUSH2 0x1956 DUP2 PUSH2 0x191C JUMP JUMPDEST DUP2 EQ PUSH2 0x1960 JUMPI PUSH0 DUP1 REVERT JUMPDEST POP JUMP JUMPDEST PUSH0 DUP2 CALLDATALOAD SWAP1 POP PUSH2 0x1971 DUP2 PUSH2 0x194D JUMP JUMPDEST SWAP3 SWAP2 POP POP JUMP JUMPDEST PUSH0 PUSH1 0x20 DUP3 DUP5 SUB SLT ISZERO PUSH2 0x198C JUMPI PUSH2 0x198B PUSH2 0x1861 JUMP JUMPDEST JUMPDEST PUSH0 PUSH2 0x1999 DUP5 DUP3 DUP6 ADD PUSH2 0x1963 JUMP JUMPDEST SWAP2 POP POP SWAP3 SWAP2 POP POP JUMP JUMPDEST PUSH0 PUSH20 0xFFFFFFFFFFFFFFFFFFFFFFFFFFFFFFFFFFFFFFFF DUP3 AND SWAP1 POP SWAP2 SWAP1 POP JUMP JUMPDEST PUSH0 PUSH2 0x19CB DUP3 PUSH2 0x19A2 JUMP JUMPDEST SWAP1 POP SWAP2 SWAP1 POP JUMP JUMPDEST PUSH0 PUSH2 0x19DC DUP3 PUSH2 0x19C1 JUMP JUMPDEST SWAP1 POP SWAP2 SWAP1 POP JUMP JUMPDEST PUSH2 0x19EC DUP2 PUSH2 0x19D2 JUMP JUMPDEST DUP2 EQ PUSH2 0x19F6 JUMPI PUSH0 DUP1 REVERT JUMPDEST POP JUMP JUMPDEST PUSH0 DUP2 CALLDATALOAD SWAP1 POP PUSH2 0x1A07 DUP2 PUSH2 0x19E3 JUMP JUMPDEST SWAP3 SWAP2 POP POP JUMP JUMPDEST PUSH0 PUSH1 0x20 DUP3 DUP5 SUB SLT ISZERO PUSH2 0x1A22 JUMPI PUSH2 0x1A21 PUSH2 0x1861 JUMP JUMPDEST JUMPDEST PUSH0 PUSH2 0x1A2F DUP5 DUP3 DUP6 ADD PUSH2 0x19F9 JUMP JUMPDEST SWAP2 POP POP SWAP3 SWAP2 POP POP JUMP JUMPDEST PUSH2 0x1A41 DUP2 PUSH2 0x19C1 JUMP JUMPDEST DUP2 EQ PUSH2 0x1A4B JUMPI PUSH0 DUP1 REVERT JUMPDEST POP JUMP JUMPDEST PUSH0 DUP2 CALLDATALOAD SWAP1 POP PUSH2 0x1A5C DUP2 PUSH2 0x1A38 JUMP JUMPDEST SWAP3 SWAP2 POP POP JUMP JUMPDEST PUSH0 DUP1 PUSH1 0x40 DUP4 DUP6 SUB SLT ISZERO PUSH2 0x1A78 JUMPI PUSH2 0x1A77 PUSH2 0x1861 JUMP JUMPDEST JUMPDEST PUSH0 PUSH2 0x1A85 DUP6 DUP3 DUP7 ADD PUSH2 0x1963 JUMP JUMPDEST SWAP3 POP POP PUSH1 0x20 PUSH2 0x1A96 DUP6 DUP3 DUP7 ADD PUSH2 0x1A4E JUMP JUMPDEST SWAP2 POP POP SWAP3 POP SWAP3 SWAP1 POP JUMP JUMPDEST PUSH0 PUSH2 0xFFFF DUP3 AND SWAP1 POP SWAP2 SWAP1 POP JUMP JUMPDEST PUSH2 0x1AB6 DUP2 PUSH2 0x1AA0 JUMP JUMPDEST DUP2 EQ PUSH2 0x1AC0 JUMPI PUSH0 DUP1 REVERT JUMPDEST POP JUMP JUMPDEST PUSH0 DUP2 CALLDATALOAD SWAP1 POP PUSH2 0x1AD1 DUP2 PUSH2 0x1AAD JUMP JUMPDEST SWAP3 SWAP2 POP POP JUMP JUMPDEST PUSH0 DUP1 PUSH1 0x40 DUP4 DUP6 SUB SLT ISZERO PUSH2 0x1AED JUMPI PUSH2 0x1AEC PUSH2 0x1861 JUMP JUMPDEST JUMPDEST PUSH0 PUSH2 0x1AFA DUP6 DUP3 DUP7 ADD PUSH2 0x1A4E JUMP JUMPDEST SWAP3 POP POP PUSH1 0x20 PUSH2 0x1B0B DUP6 DUP3 DUP7 ADD PUSH2 0x1AC3 JUMP JUMPDEST SWAP2 POP POP SWAP3 POP SWAP3 SWAP1 POP JUMP JUMPDEST PUSH0 DUP2 SWAP1 POP SWAP2 SWAP1 POP JUMP JUMPDEST PUSH0 PUSH2 0x1B38 PUSH2 0x1B33 PUSH2 0x1B2E DUP5 PUSH2 0x19A2 JUMP JUMPDEST PUSH2 0x1B15 JUMP JUMPDEST PUSH2 0x19A2 JUMP JUMPDEST SWAP1 POP SWAP2 SWAP1 POP JUMP JUMPDEST PUSH0 PUSH2 0x1B49 DUP3 PUSH2 0x1B1E JUMP JUMPDEST SWAP1 POP SWAP2 SWAP1 POP JUMP JUMPDEST PUSH0 PUSH2 0x1B5A DUP3 PUSH2 0x1B3F JUMP JUMPDEST SWAP1 POP SWAP2 SWAP1 POP JUMP JUMPDEST PUSH2 0x1B6A DUP2 PUSH2 0x1B50 JUMP JUMPDEST DUP3 MSTORE POP POP JUMP JUMPDEST PUSH0 PUSH1 0x20 DUP3 ADD SWAP1 POP PUSH2 0x1B83 PUSH0 DUP4 ADD DUP5 PUSH2 0x1B61 JUMP JUMPDEST SWAP3 SWAP2 POP POP JUMP JUMPDEST PUSH0 PUSH2 0x1B93 DUP3 PUSH2 0x19C1 JUMP JUMPDEST SWAP1 POP SWAP2 SWAP1 POP JUMP JUMPDEST PUSH2 0x1BA3 DUP2 PUSH2 0x1B89 JUMP JUMPDEST DUP2 EQ PUSH2 0x1BAD JUMPI PUSH0 DUP1 REVERT JUMPDEST POP JUMP JUMPDEST PUSH0 DUP2 CALLDATALOAD SWAP1 POP PUSH2 0x1BBE DUP2 PUSH2 0x1B9A JUMP JUMPDEST SWAP3 SWAP2 POP POP JUMP JUMPDEST PUSH0 DUP1 PUSH0 PUSH1 0x60 DUP5 DUP7 SUB SLT ISZERO PUSH2 0x1BDB JUMPI PUSH2 0x1BDA PUSH2 0x1861 JUMP JUMPDEST JUMPDEST PUSH0 PUSH2 0x1BE8 DUP7 DUP3 DUP8 ADD PUSH2 0x1A4E JUMP JUMPDEST SWAP4 POP POP PUSH1 0x20 PUSH2 0x1BF9 DUP7 DUP3 DUP8 ADD PUSH2 0x1BB0 JUMP JUMPDEST SWAP3 POP POP PUSH1 0x40 PUSH2 0x1C0A DUP7 DUP3 DUP8 ADD PUSH2 0x1AC3 JUMP JUMPDEST SWAP2 POP POP SWAP3 POP SWAP3 POP SWAP3 JUMP JUMPDEST PUSH0 PUSH1 0x20 DUP3 DUP5 SUB SLT ISZERO PUSH2 0x1C29 JUMPI PUSH2 0x1C28 PUSH2 0x1861 JUMP JUMPDEST JUMPDEST PUSH0 PUSH2 0x1C36 DUP5 DUP3 DUP6 ADD PUSH2 0x1A4E JUMP JUMPDEST SWAP2 POP POP SWAP3 SWAP2 POP POP JUMP JUMPDEST PUSH0 DUP1 REVERT JUMPDEST PUSH0 DUP1 REVERT JUMPDEST PUSH0 DUP1 REVERT JUMPDEST PUSH0 DUP1 DUP4 PUSH1 0x1F DUP5 ADD SLT PUSH2 0x1C60 JUMPI PUSH2 0x1C5F PUSH2 0x1C3F JUMP JUMPDEST JUMPDEST DUP3 CALLDATALOAD SWAP1 POP PUSH8 0xFFFFFFFFFFFFFFFF DUP2 GT ISZERO PUSH2 0x1C7D JUMPI PUSH2 0x1C7C PUSH2 0x1C43 JUMP JUMPDEST JUMPDEST PUSH1 0x20 DUP4 ADD SWAP2 POP DUP4 PUSH1 0x20 DUP3 MUL DUP4 ADD GT ISZERO PUSH2 0x1C99 JUMPI PUSH2 0x1C98 PUSH2 0x1C47 JUMP JUMPDEST JUMPDEST SWAP3 POP SWAP3 SWAP1 POP JUMP JUMPDEST PUSH0 DUP1 DUP4 PUSH1 0x1F DUP5 ADD SLT PUSH2 0x1CB5 JUMPI PUSH2 0x1CB4 PUSH2 0x1C3F JUMP JUMPDEST JUMPDEST DUP3 CALLDATALOAD SWAP1 POP PUSH8 0xFFFFFFFFFFFFFFFF DUP2 GT ISZERO PUSH2 0x1CD2 JUMPI PUSH2 0x1CD1 PUSH2 0x1C43 JUMP JUMPDEST JUMPDEST PUSH1 0x20 DUP4 ADD SWAP2 POP DUP4 PUSH1 0x20 DUP3 MUL DUP4 ADD GT ISZERO PUSH2 0x1CEE JUMPI PUSH2 0x1CED PUSH2 0x1C47 JUMP JUMPDEST JUMPDEST SWAP3 POP SWAP3 SWAP1 POP JUMP JUMPDEST PUSH0 DUP1 DUP4 PUSH1 0x1F DUP5 ADD SLT PUSH2 0x1D0A JUMPI PUSH2 0x1D09 PUSH2 0x1C3F JUMP JUMPDEST JUMPDEST DUP3 CALLDATALOAD SWAP1 POP PUSH8 0xFFFFFFFFFFFFFFFF DUP2 GT ISZERO PUSH2 0x1D27 JUMPI PUSH2 0x1D26 PUSH2 0x1C43 JUMP JUMPDEST JUMPDEST PUSH1 0x20 DUP4 ADD SWAP2 POP DUP4 PUSH1 0x20 DUP3 MUL DUP4 ADD GT ISZERO PUSH2 0x1D43 JUMPI PUSH2 0x1D42 PUSH2 0x1C47 JUMP JUMPDEST JUMPDEST SWAP3 POP SWAP3 SWAP1 POP JUMP JUMPDEST PUSH0 DUP1 PUSH0 DUP1 PUSH0 DUP1 PUSH1 0x60 DUP8 DUP10 SUB SLT ISZERO PUSH2 0x1D64 JUMPI PUSH2 0x1D63 PUSH2 0x1861 JUMP JUMPDEST JUMPDEST PUSH0 DUP8 ADD CALLDATALOAD PUSH8 0xFFFFFFFFFFFFFFFF DUP2 GT ISZERO PUSH2 0x1D81 JUMPI PUSH2 0x1D80 PUSH2 0x1865 JUMP JUMPDEST JUMPDEST PUSH2 0x1D8D DUP10 DUP3 DUP11 ADD PUSH2 0x1C4B JUMP JUMPDEST SWAP7 POP SWAP7 POP POP PUSH1 0x20 DUP8 ADD CALLDATALOAD PUSH8 0xFFFFFFFFFFFFFFFF DUP2 GT ISZERO PUSH2 0x1DB0 JUMPI PUSH2 0x1DAF PUSH2 0x1865 JUMP JUMPDEST JUMPDEST PUSH2 0x1DBC DUP10 DUP3 DUP11 ADD PUSH2 0x1CA0 JUMP JUMPDEST SWAP5 POP SWAP5 POP POP PUSH1 0x40 DUP8 ADD CALLDATALOAD PUSH8 0xFFFFFFFFFFFFFFFF DUP2 GT ISZERO PUSH2 0x1DDF JUMPI PUSH2 0x1DDE PUSH2 0x1865 JUMP JUMPDEST JUMPDEST PUSH2 0x1DEB DUP10 DUP3 DUP11 ADD PUSH2 0x1CF5 JUMP JUMPDEST SWAP3 POP SWAP3 POP POP SWAP3 SWAP6 POP SWAP3 SWAP6 POP SWAP3 SWAP6 JUMP JUMPDEST PUSH0 PUSH2 0x1E04 DUP3 PUSH2 0x19C1 JUMP JUMPDEST SWAP1 POP SWAP2 SWAP1 POP JUMP JUMPDEST PUSH2 0x1E14 DUP2 PUSH2 0x1DFA JUMP JUMPDEST DUP2 EQ PUSH2 0x1E1E JUMPI PUSH0 DUP1 REVERT JUMPDEST POP JUMP JUMPDEST PUSH0 DUP2 CALLDATALOAD SWAP1 POP PUSH2 0x1E2F DUP2 PUSH2 0x1E0B JUMP JUMPDEST SWAP3 SWAP2 POP POP JUMP JUMPDEST PUSH0 PUSH1 0x20 DUP3 DUP5 SUB SLT ISZERO PUSH2 0x1E4A JUMPI PUSH2 0x1E49 PUSH2 0x1861 JUMP JUMPDEST JUMPDEST PUSH0 PUSH2 0x1E57 DUP5 DUP3 DUP6 ADD PUSH2 0x1E21 JUMP JUMPDEST SWAP2 POP POP SWAP3 SWAP2 POP POP JUMP JUMPDEST PUSH0 PUSH2 0x1E6A DUP3 PUSH2 0x19C1 JUMP JUMPDEST SWAP1 POP SWAP2 SWAP1 POP JUMP JUMPDEST PUSH2 0x1E7A DUP2 PUSH2 0x1E60 JUMP JUMPDEST DUP2 EQ PUSH2 0x1E84 JUMPI PUSH0 DUP1 REVERT JUMPDEST POP JUMP JUMPDEST PUSH0 DUP2 CALLDATALOAD SWAP1 POP PUSH2 0x1E95 DUP2 PUSH2 0x1E71 JUMP JUMPDEST SWAP3 SWAP2 POP POP JUMP JUMPDEST PUSH0 PUSH1 0x20 DUP3 DUP5 SUB SLT ISZERO PUSH2 0x1EB0 JUMPI PUSH2 0x1EAF PUSH2 0x1861 JUMP JUMPDEST JUMPDEST PUSH0 PUSH2 0x1EBD DUP5 DUP3 DUP6 ADD PUSH2 0x1E87 JUMP JUMPDEST SWAP2 POP POP SWAP3 SWAP2 POP POP JUMP JUMPDEST PUSH2 0x1ECF DUP2 PUSH2 0x1AA0 JUMP JUMPDEST DUP3 MSTORE POP POP JUMP JUMPDEST PUSH0 PUSH1 0x20 DUP3 ADD SWAP1 POP PUSH2 0x1EE8 PUSH0 DUP4 ADD DUP5 PUSH2 0x1EC6 JUMP JUMPDEST SWAP3 SWAP2 POP POP JUMP JUMPDEST PUSH0 DUP1 PUSH1 0x40 DUP4 DUP6 SUB SLT ISZERO PUSH2 0x1F04 JUMPI PUSH2 0x1F03 PUSH2 0x1861 JUMP JUMPDEST JUMPDEST PUSH0 PUSH2 0x1F11 DUP6 DUP3 DUP7 ADD PUSH2 0x1A4E JUMP JUMPDEST SWAP3 POP POP PUSH1 0x20 PUSH2 0x1F22 DUP6 DUP3 DUP7 ADD PUSH2 0x1BB0 JUMP JUMPDEST SWAP2 POP POP SWAP3 POP SWAP3 SWAP1 POP JUMP JUMPDEST PUSH0 PUSH2 0x1F36 DUP3 PUSH2 0x1B3F JUMP JUMPDEST SWAP1 POP SWAP2 SWAP1 POP JUMP JUMPDEST PUSH2 0x1F46 DUP2 PUSH2 0x1F2C JUMP JUMPDEST DUP3 MSTORE POP POP JUMP JUMPDEST PUSH0 PUSH1 0x20 DUP3 ADD SWAP1 POP PUSH2 0x1F5F PUSH0 DUP4 ADD DUP5 PUSH2 0x1F3D JUMP JUMPDEST SWAP3 SWAP2 POP POP JUMP JUMPDEST PUSH0 PUSH2 0x1F6F DUP3 PUSH2 0x1B3F JUMP JUMPDEST SWAP1 POP SWAP2 SWAP1 POP JUMP JUMPDEST PUSH2 0x1F7F DUP2 PUSH2 0x1F65 JUMP JUMPDEST DUP3 MSTORE POP POP JUMP JUMPDEST PUSH0 PUSH1 0x20 DUP3 ADD SWAP1 POP PUSH2 0x1F98 PUSH0 DUP4 ADD DUP5 PUSH2 0x1F76 JUMP JUMPDEST SWAP3 SWAP2 POP POP JUMP JUMPDEST PUSH0 PUSH2 0x1FA8 DUP3 PUSH2 0x1B3F JUMP JUMPDEST SWAP1 POP SWAP2 SWAP1 POP JUMP JUMPDEST PUSH2 0x1FB8 DUP2 PUSH2 0x1F9E JUMP JUMPDEST DUP3 MSTORE POP POP JUMP JUMPDEST PUSH0 PUSH1 0x20 DUP3 ADD SWAP1 POP PUSH2 0x1FD1 PUSH0 DUP4 ADD DUP5 PUSH2 0x1FAF JUMP JUMPDEST SWAP3 SWAP2 POP POP JUMP JUMPDEST PUSH2 0x1FE0 DUP2 PUSH2 0x19C1 JUMP JUMPDEST DUP3 MSTORE POP POP JUMP JUMPDEST PUSH0 PUSH1 0x40 DUP3 ADD SWAP1 POP PUSH2 0x1FF9 PUSH0 DUP4 ADD DUP6 PUSH2 0x1FD7 JUMP JUMPDEST PUSH2 0x2006 PUSH1 0x20 DUP4 ADD DUP5 PUSH2 0x1EC6 JUMP JUMPDEST SWAP4 SWAP3 POP POP POP JUMP JUMPDEST PUSH0 DUP3 DUP3 MSTORE PUSH1 0x20 DUP3 ADD SWAP1 POP SWAP3 SWAP2 POP POP JUMP JUMPDEST PUSH32 0x4552432D333634333A2041727261792073697A65206D69736D61746368000000 PUSH0 DUP3 ADD MSTORE POP JUMP JUMPDEST PUSH0 PUSH2 0x2051 PUSH1 0x1D DUP4 PUSH2 0x200D JUMP JUMPDEST SWAP2 POP PUSH2 0x205C DUP3 PUSH2 0x201D JUMP JUMPDEST PUSH1 0x20 DUP3 ADD SWAP1 POP SWAP2 SWAP1 POP JUMP JUMPDEST PUSH0 PUSH1 0x20 DUP3 ADD SWAP1 POP DUP2 DUP2 SUB PUSH0 DUP4 ADD MSTORE PUSH2 0x207E DUP2 PUSH2 0x2045 JUMP JUMPDEST SWAP1 POP SWAP2 SWAP1 POP JUMP JUMPDEST PUSH32 0x4E487B7100000000000000000000000000000000000000000000000000000000 PUSH0 MSTORE PUSH1 0x32 PUSH1 0x4 MSTORE PUSH1 0x24 PUSH0 REVERT JUMPDEST PUSH0 PUSH1 0x20 DUP3 DUP5 SUB SLT ISZERO PUSH2 0x20C7 JUMPI PUSH2 0x20C6 PUSH2 0x1861 JUMP JUMPDEST JUMPDEST PUSH0 PUSH2 0x20D4 DUP5 DUP3 DUP6 ADD PUSH2 0x1BB0 JUMP JUMPDEST SWAP2 POP POP SWAP3 SWAP2 POP POP JUMP JUMPDEST PUSH0 PUSH1 0x20 DUP3 DUP5 SUB SLT ISZERO PUSH2 0x20F2 JUMPI PUSH2 0x20F1 PUSH2 0x1861 JUMP JUMPDEST JUMPDEST PUSH0 PUSH2 0x20FF DUP5 DUP3 DUP6 ADD PUSH2 0x1AC3 JUMP JUMPDEST SWAP2 POP POP SWAP3 SWAP2 POP POP JUMP JUMPDEST PUSH0 PUSH1 0x20 DUP3 ADD SWAP1 POP PUSH2 0x211B PUSH0 DUP4 ADD DUP5 PUSH2 0x1FD7 JUMP JUMPDEST SWAP3 SWAP2 POP POP JUMP JUMPDEST PUSH0 DUP2 MLOAD SWAP1 POP PUSH2 0x212F DUP2 PUSH2 0x1AAD JUMP JUMPDEST SWAP3 SWAP2 POP POP JUMP JUMPDEST PUSH0 PUSH1 0x20 DUP3 DUP5 SUB SLT ISZERO PUSH2 0x214A JUMPI PUSH2 0x2149 PUSH2 0x1861 JUMP JUMPDEST JUMPDEST PUSH0 PUSH2 0x2157 DUP5 DUP3 DUP6 ADD PUSH2 0x2121 JUMP JUMPDEST SWAP2 POP POP SWAP3 SWAP2 POP POP JUMP JUMPDEST PUSH0 PUSH1 0x40 DUP3 ADD SWAP1 POP PUSH2 0x2173 PUSH0 DUP4 ADD DUP6 PUSH2 0x1FD7 JUMP JUMPDEST PUSH2 0x2180 PUSH1 0x20 DUP4 ADD DUP5 PUSH2 0x1F76 JUMP JUMPDEST SWAP4 SWAP3 POP POP POP JUMP JUMPDEST PUSH0 PUSH1 0x1F NOT PUSH1 0x1F DUP4 ADD AND SWAP1 POP SWAP2 SWAP1 POP JUMP JUMPDEST PUSH32 0x4E487B7100000000000000000000000000000000000000000000000000000000 PUSH0 MSTORE PUSH1 0x41 PUSH1 0x4 MSTORE PUSH1 0x24 PUSH0 REVERT JUMPDEST PUSH2 0x21CD DUP3 PUSH2 0x2187 JUMP JUMPDEST DUP2 ADD DUP2 DUP2 LT PUSH8 0xFFFFFFFFFFFFFFFF DUP3 GT OR ISZERO PUSH2 0x21EC JUMPI PUSH2 0x21EB PUSH2 0x2197 JUMP JUMPDEST JUMPDEST DUP1 PUSH1 0x40 MSTORE POP POP POP JUMP JUMPDEST PUSH0 PUSH2 0x21FE PUSH2 0x1858 JUMP JUMPDEST SWAP1 POP PUSH2 0x220A DUP3 DUP3 PUSH2 0x21C4 JUMP JUMPDEST SWAP2 SWAP1 POP JUMP JUMPDEST PUSH0 PUSH8 0xFFFFFFFFFFFFFFFF DUP3 GT ISZERO PUSH2 0x2229 JUMPI PUSH2 0x2228 PUSH2 0x2197 JUMP JUMPDEST JUMPDEST PUSH1 0x20 DUP3 MUL SWAP1 POP PUSH1 0x20 DUP2 ADD SWAP1 POP SWAP2 SWAP1 POP JUMP JUMPDEST PUSH0 DUP2 SWAP1 POP SWAP2 SWAP1 POP JUMP JUMPDEST PUSH2 0x224C DUP2 PUSH2 0x223A JUMP JUMPDEST DUP2 EQ PUSH2 0x2256 JUMPI PUSH0 DUP1 REVERT JUMPDEST POP JUMP JUMPDEST PUSH0 DUP2 MLOAD SWAP1 POP PUSH2 0x2267 DUP2 PUSH2 0x2243 JUMP JUMPDEST SWAP3 SWAP2 POP POP JUMP JUMPDEST PUSH0 PUSH2 0x227F PUSH2 0x227A DUP5 PUSH2 0x220F JUMP JUMPDEST PUSH2 0x21F5 JUMP JUMPDEST SWAP1 POP DUP1 DUP4 DUP3 MSTORE PUSH1 0x20 DUP3 ADD SWAP1 POP PUSH1 0x20 DUP5 MUL DUP4 ADD DUP6 DUP2 GT ISZERO PUSH2 0x22A2 JUMPI PUSH2 0x22A1 PUSH2 0x1C47 JUMP JUMPDEST JUMPDEST DUP4 JUMPDEST DUP2 DUP2 LT ISZERO PUSH2 0x22CB JUMPI DUP1 PUSH2 0x22B7 DUP9 DUP3 PUSH2 0x2259 JUMP JUMPDEST DUP5 MSTORE PUSH1 0x20 DUP5 ADD SWAP4 POP POP PUSH1 0x20 DUP2 ADD SWAP1 POP PUSH2 0x22A4 JUMP JUMPDEST POP POP POP SWAP4 SWAP3 POP POP POP JUMP JUMPDEST PUSH0 DUP3 PUSH1 0x1F DUP4 ADD SLT PUSH2 0x22E9 JUMPI PUSH2 0x22E8 PUSH2 0x1C3F JUMP JUMPDEST JUMPDEST DUP2 MLOAD PUSH2 0x22F9 DUP5 DUP3 PUSH1 0x20 DUP7 ADD PUSH2 0x226D JUMP JUMPDEST SWAP2 POP POP SWAP3 SWAP2 POP POP JUMP JUMPDEST PUSH0 PUSH1 0x20 DUP3 DUP5 SUB SLT ISZERO PUSH2 0x2317 JUMPI PUSH2 0x2316 PUSH2 0x1861 JUMP JUMPDEST JUMPDEST PUSH0 DUP3 ADD MLOAD PUSH8 0xFFFFFFFFFFFFFFFF DUP2 GT ISZERO PUSH2 0x2334 JUMPI PUSH2 0x2333 PUSH2 0x1865 JUMP JUMPDEST JUMPDEST PUSH2 0x2340 DUP5 DUP3 DUP6 ADD PUSH2 0x22D5 JUMP JUMPDEST SWAP2 POP POP SWAP3 SWAP2 POP POP JUMP JUMPDEST PUSH32 0x4E487B7100000000000000000000000000000000000000000000000000000000 PUSH0 MSTORE PUSH1 0x11 PUSH1 0x4 MSTORE PUSH1 0x24 PUSH0 REVERT JUMPDEST PUSH0 PUSH2 0x2380 DUP3 PUSH2 0x223A JUMP JUMPDEST SWAP2 POP PUSH32 0xFFFFFFFFFFFFFFFFFFFFFFFFFFFFFFFFFFFFFFFFFFFFFFFFFFFFFFFFFFFFFFFF DUP3 SUB PUSH2 0x23B2 JUMPI PUSH2 0x23B1 PUSH2 0x2349 JUMP JUMPDEST JUMPDEST PUSH1 0x1 DUP3 ADD SWAP1 POP SWAP2 SWAP1 POP JUMP JUMPDEST PUSH0 DUP2 MLOAD SWAP1 POP PUSH2 0x23CB DUP2 PUSH2 0x1B9A JUMP JUMPDEST SWAP3 SWAP2 POP POP JUMP JUMPDEST PUSH0 PUSH1 0x20 DUP3 DUP5 SUB SLT ISZERO PUSH2 0x23E6 JUMPI PUSH2 0x23E5 PUSH2 0x1861 JUMP JUMPDEST JUMPDEST PUSH0 PUSH2 0x23F3 DUP5 DUP3 DUP6 ADD PUSH2 0x23BD JUMP JUMPDEST SWAP2 POP POP SWAP3 SWAP2 POP POP JUMP JUMPDEST PUSH0 PUSH1 0x60 DUP3 ADD SWAP1 POP PUSH2 0x240F PUSH0 DUP4 ADD DUP7 PUSH2 0x1FD7 JUMP JUMPDEST PUSH2 0x241C PUSH1 0x20 DUP4 ADD DUP6 PUSH2 0x1F76 JUMP JUMPDEST PUSH2 0x2429 PUSH1 0x40 DUP4 ADD DUP5 PUSH2 0x1EC6 JUMP JUMPDEST SWAP5 SWAP4 POP POP POP POP JUMP JUMPDEST PUSH2 0x243A DUP2 PUSH2 0x223A JUMP JUMPDEST DUP3 MSTORE POP POP JUMP JUMPDEST PUSH0 PUSH1 0x20 DUP3 ADD SWAP1 POP PUSH2 0x2453 PUSH0 DUP4 ADD DUP5 PUSH2 0x2431 JUMP JUMPDEST SWAP3 SWAP2 POP POP JUMP JUMPDEST PUSH0 PUSH8 0xFFFFFFFFFFFFFFFF DUP3 GT ISZERO PUSH2 0x2473 JUMPI PUSH2 0x2472 PUSH2 0x2197 JUMP JUMPDEST JUMPDEST PUSH1 0x20 DUP3 MUL SWAP1 POP PUSH1 0x20 DUP2 ADD SWAP1 POP SWAP2 SWAP1 POP JUMP JUMPDEST PUSH0 PUSH2 0x248E DUP3 PUSH2 0x19C1 JUMP JUMPDEST SWAP1 POP SWAP2 SWAP1 POP JUMP JUMPDEST PUSH2 0x249E DUP2 PUSH2 0x2484 JUMP JUMPDEST DUP2 EQ PUSH2 0x24A8 JUMPI PUSH0 DUP1 REVERT JUMPDEST POP JUMP JUMPDEST PUSH0 DUP2 MLOAD SWAP1 POP PUSH2 0x24B9 DUP2 PUSH2 0x2495 JUMP JUMPDEST SWAP3 SWAP2 POP POP JUMP JUMPDEST PUSH0 PUSH2 0x24D1 PUSH2 0x24CC DUP5 PUSH2 0x2459 JUMP JUMPDEST PUSH2 0x21F5 JUMP JUMPDEST SWAP1 POP DUP1 DUP4 DUP3 MSTORE PUSH1 0x20 DUP3 ADD SWAP1 POP PUSH1 0x20 DUP5 MUL DUP4 ADD DUP6 DUP2 GT ISZERO PUSH2 0x24F4 JUMPI PUSH2 0x24F3 PUSH2 0x1C47 JUMP JUMPDEST JUMPDEST DUP4 JUMPDEST DUP2 DUP2 LT ISZERO PUSH2 0x251D JUMPI DUP1 PUSH2 0x2509 DUP9 DUP3 PUSH2 0x24AB JUMP JUMPDEST DUP5 MSTORE PUSH1 0x20 DUP5 ADD SWAP4 POP POP PUSH1 0x20 DUP2 ADD SWAP1 POP PUSH2 0x24F6 JUMP JUMPDEST POP POP POP SWAP4 SWAP3 POP POP POP JUMP JUMPDEST PUSH0 DUP3 PUSH1 0x1F DUP4 ADD SLT PUSH2 0x253B JUMPI PUSH2 0x253A PUSH2 0x1C3F JUMP JUMPDEST JUMPDEST DUP2 MLOAD PUSH2 0x254B DUP5 DUP3 PUSH1 0x20 DUP7 ADD PUSH2 0x24BF JUMP JUMPDEST SWAP2 POP POP SWAP3 SWAP2 POP POP JUMP JUMPDEST PUSH0 PUSH1 0x20 DUP3 DUP5 SUB SLT ISZERO PUSH2 0x2569 JUMPI PUSH2 0x2568 PUSH2 0x1861 JUMP JUMPDEST JUMPDEST PUSH0 DUP3 ADD MLOAD PUSH8 0xFFFFFFFFFFFFFFFF DUP2 GT ISZERO PUSH2 0x2586 JUMPI PUSH2 0x2585 PUSH2 0x1865 JUMP JUMPDEST JUMPDEST PUSH2 0x2592 DUP5 DUP3 DUP6 ADD PUSH2 0x2527 JUMP JUMPDEST SWAP2 POP POP SWAP3 SWAP2 POP POP JUMP JUMPDEST PUSH0 PUSH2 0x25A5 DUP3 PUSH2 0x1B3F JUMP JUMPDEST SWAP1 POP SWAP2 SWAP1 POP JUMP JUMPDEST PUSH2 0x25B5 DUP2 PUSH2 0x259B JUMP JUMPDEST DUP3 MSTORE POP POP JUMP JUMPDEST PUSH0 PUSH1 0x40 DUP3 ADD SWAP1 POP PUSH2 0x25CE PUSH0 DUP4 ADD DUP6 PUSH2 0x25AC JUMP JUMPDEST PUSH2 0x25DB PUSH1 0x20 DUP4 ADD DUP5 PUSH2 0x2431 JUMP JUMPDEST SWAP4 SWAP3 POP POP POP JUMP JUMPDEST PUSH0 DUP2 MLOAD SWAP1 POP PUSH2 0x25F0 DUP2 PUSH2 0x1A38 JUMP JUMPDEST SWAP3 SWAP2 POP POP JUMP JUMPDEST PUSH0 DUP1 REVERT JUMPDEST PUSH0 PUSH8 0xFFFFFFFFFFFFFFFF DUP3 GT ISZERO PUSH2 0x2614 JUMPI PUSH2 0x2613 PUSH2 0x2197 JUMP JUMPDEST JUMPDEST PUSH2 0x261D DUP3 PUSH2 0x2187 JUMP JUMPDEST SWAP1 POP PUSH1 0x20 DUP2 ADD SWAP1 POP SWAP2 SWAP1 POP JUMP JUMPDEST PUSH0 JUMPDEST DUP4 DUP2 LT ISZERO PUSH2 0x2647 JUMPI DUP1 DUP3 ADD MLOAD DUP2 DUP5 ADD MSTORE PUSH1 0x20 DUP2 ADD SWAP1 POP PUSH2 0x262C JUMP JUMPDEST PUSH0 DUP5 DUP5 ADD MSTORE POP POP POP POP JUMP JUMPDEST PUSH0 PUSH2 0x2664 PUSH2 0x265F DUP5 PUSH2 0x25FA JUMP JUMPDEST PUSH2 0x21F5 JUMP JUMPDEST SWAP1 POP DUP3 DUP2 MSTORE PUSH1 0x20 DUP2 ADD DUP5 DUP5 DUP5 ADD GT ISZERO PUSH2 0x2680 JUMPI PUSH2 0x267F PUSH2 0x25F6 JUMP JUMPDEST JUMPDEST PUSH2 0x268B DUP5 DUP3 DUP6 PUSH2 0x262A JUMP JUMPDEST POP SWAP4 SWAP3 POP POP POP JUMP JUMPDEST PUSH0 DUP3 PUSH1 0x1F DUP4 ADD SLT PUSH2 0x26A7 JUMPI PUSH2 0x26A6 PUSH2 0x1C3F JUMP JUMPDEST JUMPDEST DUP2 MLOAD PUSH2 0x26B7 DUP5 DUP3 PUSH1 0x20 DUP7 ADD PUSH2 0x2652 JUMP JUMPDEST SWAP2 POP POP SWAP3 SWAP2 POP POP JUMP JUMPDEST PUSH0 PUSH8 0xFFFFFFFFFFFFFFFF DUP3 GT ISZERO PUSH2 0x26DA JUMPI PUSH2 0x26D9 PUSH2 0x2197 JUMP JUMPDEST JUMPDEST PUSH2 0x26E3 DUP3 PUSH2 0x2187 JUMP JUMPDEST SWAP1 POP PUSH1 0x20 DUP2 ADD SWAP1 POP SWAP2 SWAP1 POP JUMP JUMPDEST PUSH0 PUSH2 0x2702 PUSH2 0x26FD DUP5 PUSH2 0x26C0 JUMP JUMPDEST PUSH2 0x21F5 JUMP JUMPDEST SWAP1 POP DUP3 DUP2 MSTORE PUSH1 0x20 DUP2 ADD DUP5 DUP5 DUP5 ADD GT ISZERO PUSH2 0x271E JUMPI PUSH2 0x271D PUSH2 0x25F6 JUMP JUMPDEST JUMPDEST PUSH2 0x2729 DUP5 DUP3 DUP6 PUSH2 0x262A JUMP JUMPDEST POP SWAP4 SWAP3 POP POP POP JUMP JUMPDEST PUSH0 DUP3 PUSH1 0x1F DUP4 ADD SLT PUSH2 0x2745 JUMPI PUSH2 0x2744 PUSH2 0x1C3F JUMP JUMPDEST JUMPDEST DUP2 MLOAD PUSH2 0x2755 DUP5 DUP3 PUSH1 0x20 DUP7 ADD PUSH2 0x26F0 JUMP JUMPDEST SWAP2 POP POP SWAP3 SWAP2 POP POP JUMP JUMPDEST PUSH0 DUP1 PUSH0 DUP1 PUSH0 DUP1 PUSH1 0xC0 DUP8 DUP10 SUB SLT ISZERO PUSH2 0x2778 JUMPI PUSH2 0x2777 PUSH2 0x1861 JUMP JUMPDEST JUMPDEST PUSH0 PUSH2 0x2785 DUP10 DUP3 DUP11 ADD PUSH2 0x2259 JUMP JUMPDEST SWAP7 POP POP PUSH1 0x20 PUSH2 0x2796 DUP10 DUP3 DUP11 ADD PUSH2 0x2259 JUMP JUMPDEST SWAP6 POP POP PUSH1 0x40 PUSH2 0x27A7 DUP10 DUP3 DUP11 ADD PUSH2 0x25E2 JUMP JUMPDEST SWAP5 POP POP PUSH1 0x60 DUP8 ADD MLOAD PUSH8 0xFFFFFFFFFFFFFFFF DUP2 GT ISZERO PUSH2 0x27C8 JUMPI PUSH2 0x27C7 PUSH2 0x1865 JUMP JUMPDEST JUMPDEST PUSH2 0x27D4 DUP10 DUP3 DUP11 ADD PUSH2 0x2693 JUMP JUMPDEST SWAP4 POP POP PUSH1 0x80 DUP8 ADD MLOAD PUSH8 0xFFFFFFFFFFFFFFFF DUP2 GT ISZERO PUSH2 0x27F5 JUMPI PUSH2 0x27F4 PUSH2 0x1865 JUMP JUMPDEST JUMPDEST PUSH2 0x2801 DUP10 DUP3 DUP11 ADD PUSH2 0x2693 JUMP JUMPDEST SWAP3 POP POP PUSH1 0xA0 DUP8 ADD MLOAD PUSH8 0xFFFFFFFFFFFFFFFF DUP2 GT ISZERO PUSH2 0x2822 JUMPI PUSH2 0x2821 PUSH2 0x1865 JUMP JUMPDEST JUMPDEST PUSH2 0x282E DUP10 DUP3 DUP11 ADD PUSH2 0x2731 JUMP JUMPDEST SWAP2 POP POP SWAP3 SWAP6 POP SWAP3 SWAP6 POP SWAP3 SWAP6 JUMP JUMPDEST PUSH0 PUSH2 0x2845 DUP3 PUSH2 0x223A JUMP JUMPDEST SWAP2 POP PUSH2 0x2850 DUP4 PUSH2 0x223A JUMP JUMPDEST SWAP3 POP DUP3 DUP3 SUB SWAP1 POP DUP2 DUP2 GT ISZERO PUSH2 0x2868 JUMPI PUSH2 0x2867 PUSH2 0x2349 JUMP JUMPDEST JUMPDEST SWAP3 SWAP2 POP POP JUMP JUMPDEST PUSH0 PUSH1 0x40 DUP3 ADD SWAP1 POP PUSH2 0x2881 PUSH0 DUP4 ADD DUP6 PUSH2 0x1FD7 JUMP JUMPDEST PUSH2 0x288E PUSH1 0x20 DUP4 ADD DUP5 PUSH2 0x1925 JUMP JUMPDEST SWAP4 SWAP3 POP POP POP JUMP JUMPDEST PUSH0 DUP2 MLOAD SWAP1 POP SWAP2 SWAP1 POP JUMP JUMPDEST PUSH0 DUP3 DUP3 MSTORE PUSH1 0x20 DUP3 ADD SWAP1 POP SWAP3 SWAP2 POP POP JUMP JUMPDEST PUSH0 PUSH2 0x28B9 DUP3 PUSH2 0x2895 JUMP JUMPDEST PUSH2 0x28C3 DUP2 DUP6 PUSH2 0x289F JUMP JUMPDEST SWAP4 POP PUSH2 0x28D3 DUP2 DUP6 PUSH1 0x20 DUP7 ADD PUSH2 0x262A JUMP JUMPDEST PUSH2 0x28DC DUP2 PUSH2 0x2187 JUMP JUMPDEST DUP5 ADD SWAP2 POP POP SWAP3 SWAP2 POP POP JUMP JUMPDEST PUSH0 PUSH1 0x80 DUP3 ADD SWAP1 POP PUSH2 0x28FA PUSH0 DUP4 ADD DUP8 PUSH2 0x1F76 JUMP JUMPDEST PUSH2 0x2907 PUSH1 0x20 DUP4 ADD DUP7 PUSH2 0x2431 JUMP JUMPDEST DUP2 DUP2 SUB PUSH1 0x40 DUP4 ADD MSTORE PUSH2 0x2919 DUP2 DUP6 PUSH2 0x28AF JUMP JUMPDEST SWAP1 POP DUP2 DUP2 SUB PUSH1 0x60 DUP4 ADD MSTORE PUSH2 0x292D DUP2 DUP5 PUSH2 0x28AF JUMP JUMPDEST SWAP1 POP SWAP6 SWAP5 POP POP POP POP POP JUMP JUMPDEST PUSH2 0x2941 DUP2 PUSH2 0x18E9 JUMP JUMPDEST DUP2 EQ PUSH2 0x294B JUMPI PUSH0 DUP1 REVERT JUMPDEST POP JUMP JUMPDEST PUSH0 DUP2 MLOAD SWAP1 POP PUSH2 0x295C DUP2 PUSH2 0x2938 JUMP JUMPDEST SWAP3 SWAP2 POP POP JUMP JUMPDEST PUSH0 PUSH1 0x20 DUP3 DUP5 SUB SLT ISZERO PUSH2 0x2977 JUMPI PUSH2 0x2976 PUSH2 0x1861 JUMP JUMPDEST JUMPDEST PUSH0 PUSH2 0x2984 DUP5 DUP3 DUP6 ADD PUSH2 0x294E JUMP JUMPDEST SWAP2 POP POP SWAP3 SWAP2 POP POP JUMP INVALID LOG2 PUSH5 0x6970667358 0x22 SLT KECCAK256 DUP7 CALLDATALOAD 0x2A 0xEB PUSH32 0xEBF69C7C9C5CF9F39AD7837FC1BEBE36BE0217B751174685BA296364736F6C63 NUMBER STOP ADDMOD EQ STOP CALLER "
		},
		"gasEstimates": {
			"creation": {
				"codeDepositCost": "2138200",
				"executionCost": "infinite",
				"totalCost": "infinite"
			},
			"external": {
				"AGENT_ROLE()": "376",
				"DEFAULT_ADMIN_ROLE()": "441",
				"OWNER_ROLE()": "418",
				"batchRegisterIdentity(address[],address[],uint16[])": "infinite",
				"contains(address)": "infinite",
				"deleteIdentity(address)": "infinite",
				"getRoleAdmin(bytes32)": "infinite",
				"grantRole(bytes32,address)": "infinite",
				"hasRole(bytes32,address)": "3211",
				"identity(address)": "infinite",
				"identityStorage()": "infinite",
				"investorCountry(address)": "infinite",
				"isVerified(address)": "infinite",
				"issuersRegistry()": "infinite",
				"registerIdentity(address,address,uint16)": "infinite",
				"renounceRole(bytes32,address)": "infinite",
				"revokeRole(bytes32,address)": "infinite",
				"setClaimIssuersRegistry(address)": "infinite",
				"setClaimTopicsRegistry(address)": "infinite",
				"setIdentityRegistryStorage(address)": "infinite",
				"supportsInterface(bytes4)": "741",
				"topicsRegistry()": "infinite",
				"updateCountry(address,uint16)": "infinite",
				"updateIdentity(address,address)": "infinite"
			},
			"internal": {
				"_getIdentity(address)": "infinite",
				"_isClaimValid(contract IIdentity,uint256)": "infinite",
				"_isIssuerClaimValid(contract IIdentity,address,uint256,bytes memory,bytes memory)": "infinite",
				"_registerIdentity(address,contract IIdentity,uint16)": "infinite"
			}
		},
		"methodIdentifiers": {
			"AGENT_ROLE()": "22459e18",
			"DEFAULT_ADMIN_ROLE()": "a217fddf",
			"OWNER_ROLE()": "e58378bb",
			"batchRegisterIdentity(address[],address[],uint16[])": "653dc9f1",
			"contains(address)": "5dbe47e8",
			"deleteIdentity(address)": "a8d29d1d",
			"getRoleAdmin(bytes32)": "248a9ca3",
			"grantRole(bytes32,address)": "2f2ff15d",
			"hasRole(bytes32,address)": "91d14854",
			"identity(address)": "f0eb5e54",
			"identityStorage()": "f11abfd8",
			"investorCountry(address)": "7e42683b",
			"isVerified(address)": "b9209e33",
			"issuersRegistry()": "b4f3fcb7",
			"registerIdentity(address,address,uint16)": "454a03e0",
			"renounceRole(bytes32,address)": "36568abe",
			"revokeRole(bytes32,address)": "d547741f",
			"setClaimIssuersRegistry(address)": "6bc72c90",
			"setClaimTopicsRegistry(address)": "670af6a9",
			"setIdentityRegistryStorage(address)": "26d941ae",
			"supportsInterface(bytes4)": "01ffc9a7",
			"topicsRegistry()": "3b3e12f4",
			"updateCountry(address,uint16)": "3b239a7f",
			"updateIdentity(address,address)": "8e098ca1"
		}
	},
	"abi": [
		{
			"inputs": [
				{
					"internalType": "contract IClaimIssuersRegistry",
					"name": "_claimIssuersRegistry",
					"type": "address"
				},
				{
					"internalType": "contract IClaimTopicsRegistry",
					"name": "_claimTopicsRegistry",
					"type": "address"
				},
				{
					"internalType": "contract IIdentityRegistryStorage",
					"name": "_identityStorage",
					"type": "address"
				}
			],
			"stateMutability": "nonpayable",
			"type": "constructor"
		},
		{
			"inputs": [],
			"name": "AccessControlBadConfirmation",
			"type": "error"
		},
		{
			"inputs": [
				{
					"internalType": "address",
					"name": "account",
					"type": "address"
				},
				{
					"internalType": "bytes32",
					"name": "neededRole",
					"type": "bytes32"
				}
			],
			"name": "AccessControlUnauthorizedAccount",
			"type": "error"
		},
		{
			"anonymous": false,
			"inputs": [
				{
					"indexed": true,
					"internalType": "contract IClaimIssuersRegistry",
					"name": "claimIssuersRegistry",
					"type": "address"
				}
			],
			"name": "ClaimIssuersRegistrySet",
			"type": "event"
		},
		{
			"anonymous": false,
			"inputs": [
				{
					"indexed": true,
					"internalType": "contract IClaimTopicsRegistry",
					"name": "claimTopicsRegistry",
					"type": "address"
				}
			],
			"name": "ClaimTopicsRegistrySet",
			"type": "event"
		},
		{
			"anonymous": false,
			"inputs": [
				{
					"indexed": true,
					"internalType": "address",
					"name": "investorAddress",
					"type": "address"
				},
				{
					"indexed": true,
					"internalType": "uint16",
					"name": "country",
					"type": "uint16"
				}
			],
			"name": "CountryUpdated",
			"type": "event"
		},
		{
			"anonymous": false,
			"inputs": [
				{
					"indexed": true,
					"internalType": "address",
					"name": "investorAddress",
					"type": "address"
				},
				{
					"indexed": true,
					"internalType": "contract IIdentity",
					"name": "identity",
					"type": "address"
				}
			],
			"name": "IdentityRegistered",
			"type": "event"
		},
		{
			"anonymous": false,
			"inputs": [
				{
					"indexed": true,
					"internalType": "address",
					"name": "investorAddress",
					"type": "address"
				},
				{
					"indexed": true,
					"internalType": "contract IIdentity",
					"name": "identity",
					"type": "address"
				}
			],
			"name": "IdentityRemoved",
			"type": "event"
		},
		{
			"anonymous": false,
			"inputs": [
				{
					"indexed": true,
					"internalType": "contract IIdentityRegistryStorage",
					"name": "identityStorage",
					"type": "address"
				}
			],
			"name": "IdentityStorageSet",
			"type": "event"
		},
		{
			"anonymous": false,
			"inputs": [
				{
					"indexed": true,
					"internalType": "contract IIdentity",
					"name": "oldIdentity",
					"type": "address"
				},
				{
					"indexed": true,
					"internalType": "contract IIdentity",
					"name": "newIdentity",
					"type": "address"
				}
			],
			"name": "IdentityUpdated",
			"type": "event"
		},
		{
			"anonymous": false,
			"inputs": [
				{
					"indexed": true,
					"internalType": "bytes32",
					"name": "role",
					"type": "bytes32"
				},
				{
					"indexed": true,
					"internalType": "bytes32",
					"name": "previousAdminRole",
					"type": "bytes32"
				},
				{
					"indexed": true,
					"internalType": "bytes32",
					"name": "newAdminRole",
					"type": "bytes32"
				}
			],
			"name": "RoleAdminChanged",
			"type": "event"
		},
		{
			"anonymous": false,
			"inputs": [
				{
					"indexed": true,
					"internalType": "bytes32",
					"name": "role",
					"type": "bytes32"
				},
				{
					"indexed": true,
					"internalType": "address",
					"name": "account",
					"type": "address"
				},
				{
					"indexed": true,
					"internalType": "address",
					"name": "sender",
					"type": "address"
				}
			],
			"name": "RoleGranted",
			"type": "event"
		},
		{
			"anonymous": false,
			"inputs": [
				{
					"indexed": true,
					"internalType": "bytes32",
					"name": "role",
					"type": "bytes32"
				},
				{
					"indexed": true,
					"internalType": "address",
					"name": "account",
					"type": "address"
				},
				{
					"indexed": true,
					"internalType": "address",
					"name": "sender",
					"type": "address"
				}
			],
			"name": "RoleRevoked",
			"type": "event"
		},
		{
			"inputs": [],
			"name": "AGENT_ROLE",
			"outputs": [
				{
					"internalType": "bytes32",
					"name": "",
					"type": "bytes32"
				}
			],
			"stateMutability": "view",
			"type": "function"
		},
		{
			"inputs": [],
			"name": "DEFAULT_ADMIN_ROLE",
			"outputs": [
				{
					"internalType": "bytes32",
					"name": "",
					"type": "bytes32"
				}
			],
			"stateMutability": "view",
			"type": "function"
		},
		{
			"inputs": [],
			"name": "OWNER_ROLE",
			"outputs": [
				{
					"internalType": "bytes32",
					"name": "",
					"type": "bytes32"
				}
			],
			"stateMutability": "view",
			"type": "function"
		},
		{
			"inputs": [
				{
					"internalType": "address[]",
					"name": "_userAddresses",
					"type": "address[]"
				},
				{
					"internalType": "contract IIdentity[]",
					"name": "_identities",
					"type": "address[]"
				},
				{
					"internalType": "uint16[]",
					"name": "_countries",
					"type": "uint16[]"
				}
			],
			"name": "batchRegisterIdentity",
			"outputs": [],
			"stateMutability": "nonpayable",
			"type": "function"
		},
		{
			"inputs": [
				{
					"internalType": "address",
					"name": "_userAddress",
					"type": "address"
				}
			],
			"name": "contains",
			"outputs": [
				{
					"internalType": "bool",
					"name": "",
					"type": "bool"
				}
			],
			"stateMutability": "view",
			"type": "function"
		},
		{
			"inputs": [
				{
					"internalType": "address",
					"name": "_userAddress",
					"type": "address"
				}
			],
			"name": "deleteIdentity",
			"outputs": [],
			"stateMutability": "nonpayable",
			"type": "function"
		},
		{
			"inputs": [
				{
					"internalType": "bytes32",
					"name": "role",
					"type": "bytes32"
				}
			],
			"name": "getRoleAdmin",
			"outputs": [
				{
					"internalType": "bytes32",
					"name": "",
					"type": "bytes32"
				}
			],
			"stateMutability": "view",
			"type": "function"
		},
		{
			"inputs": [
				{
					"internalType": "bytes32",
					"name": "role",
					"type": "bytes32"
				},
				{
					"internalType": "address",
					"name": "account",
					"type": "address"
				}
			],
			"name": "grantRole",
			"outputs": [],
			"stateMutability": "nonpayable",
			"type": "function"
		},
		{
			"inputs": [
				{
					"internalType": "bytes32",
					"name": "role",
					"type": "bytes32"
				},
				{
					"internalType": "address",
					"name": "account",
					"type": "address"
				}
			],
			"name": "hasRole",
			"outputs": [
				{
					"internalType": "bool",
					"name": "",
					"type": "bool"
				}
			],
			"stateMutability": "view",
			"type": "function"
		},
		{
			"inputs": [
				{
					"internalType": "address",
					"name": "_userAddress",
					"type": "address"
				}
			],
			"name": "identity",
			"outputs": [
				{
					"internalType": "contract IIdentity",
					"name": "",
					"type": "address"
				}
			],
			"stateMutability": "view",
			"type": "function"
		},
		{
			"inputs": [],
			"name": "identityStorage",
			"outputs": [
				{
					"internalType": "contract IIdentityRegistryStorage",
					"name": "",
					"type": "address"
				}
			],
			"stateMutability": "view",
			"type": "function"
		},
		{
			"inputs": [
				{
					"internalType": "address",
					"name": "_userAddress",
					"type": "address"
				}
			],
			"name": "investorCountry",
			"outputs": [
				{
					"internalType": "uint16",
					"name": "",
					"type": "uint16"
				}
			],
			"stateMutability": "view",
			"type": "function"
		},
		{
			"inputs": [
				{
					"internalType": "address",
					"name": "_userAddress",
					"type": "address"
				}
			],
			"name": "isVerified",
			"outputs": [
				{
					"internalType": "bool",
					"name": "",
					"type": "bool"
				}
			],
			"stateMutability": "view",
			"type": "function"
		},
		{
			"inputs": [],
			"name": "issuersRegistry",
			"outputs": [
				{
					"internalType": "contract IClaimIssuersRegistry",
					"name": "",
					"type": "address"
				}
			],
			"stateMutability": "view",
			"type": "function"
		},
		{
			"inputs": [
				{
					"internalType": "address",
					"name": "_userAddress",
					"type": "address"
				},
				{
					"internalType": "contract IIdentity",
					"name": "_identity",
					"type": "address"
				},
				{
					"internalType": "uint16",
					"name": "_country",
					"type": "uint16"
				}
			],
			"name": "registerIdentity",
			"outputs": [],
			"stateMutability": "nonpayable",
			"type": "function"
		},
		{
			"inputs": [
				{
					"internalType": "bytes32",
					"name": "role",
					"type": "bytes32"
				},
				{
					"internalType": "address",
					"name": "callerConfirmation",
					"type": "address"
				}
			],
			"name": "renounceRole",
			"outputs": [],
			"stateMutability": "nonpayable",
			"type": "function"
		},
		{
			"inputs": [
				{
					"internalType": "bytes32",
					"name": "role",
					"type": "bytes32"
				},
				{
					"internalType": "address",
					"name": "account",
					"type": "address"
				}
			],
			"name": "revokeRole",
			"outputs": [],
			"stateMutability": "nonpayable",
			"type": "function"
		},
		{
			"inputs": [
				{
					"internalType": "contract IClaimIssuersRegistry",
					"name": "_claimIssuersRegistry",
					"type": "address"
				}
			],
			"name": "setClaimIssuersRegistry",
			"outputs": [],
			"stateMutability": "nonpayable",
			"type": "function"
		},
		{
			"inputs": [
				{
					"internalType": "contract IClaimTopicsRegistry",
					"name": "_claimTopicsRegistry",
					"type": "address"
				}
			],
			"name": "setClaimTopicsRegistry",
			"outputs": [],
			"stateMutability": "nonpayable",
			"type": "function"
		},
		{
			"inputs": [
				{
					"internalType": "contract IIdentityRegistryStorage",
					"name": "_identityRegistryStorage",
					"type": "address"
				}
			],
			"name": "setIdentityRegistryStorage",
			"outputs": [],
			"stateMutability": "nonpayable",
			"type": "function"
		},
		{
			"inputs": [
				{
					"internalType": "bytes4",
					"name": "interfaceId",
					"type": "bytes4"
				}
			],
			"name": "supportsInterface",
			"outputs": [
				{
					"internalType": "bool",
					"name": "",
					"type": "bool"
				}
			],
			"stateMutability": "view",
			"type": "function"
		},
		{
			"inputs": [],
			"name": "topicsRegistry",
			"outputs": [
				{
					"internalType": "contract IClaimTopicsRegistry",
					"name": "",
					"type": "address"
				}
			],
			"stateMutability": "view",
			"type": "function"
		},
		{
			"inputs": [
				{
					"internalType": "address",
					"name": "_userAddress",
					"type": "address"
				},
				{
					"internalType": "uint16",
					"name": "_country",
					"type": "uint16"
				}
			],
			"name": "updateCountry",
			"outputs": [],
			"stateMutability": "nonpayable",
			"type": "function"
		},
		{
			"inputs": [
				{
					"internalType": "address",
					"name": "_userAddress",
					"type": "address"
				},
				{
					"internalType": "contract IIdentity",
					"name": "_identity",
					"type": "address"
				}
			],
			"name": "updateIdentity",
			"outputs": [],
			"stateMutability": "nonpayable",
			"type": "function"
		}
	]
}