{
	"solidity-main/contracts/factory/IdFactory.sol": {
		"IdFactory": {
			"abi": [
				{
					"inputs": [
						{
							"internalType": "address",
							"name": "ImplementationAuthority",
							"type": "address"
						}
					],
					"stateMutability": "nonpayable",
					"type": "constructor"
				},
				{
					"inputs": [
						{
							"internalType": "address",
							"name": "owner",
							"type": "address"
						}
					],
					"name": "OwnableInvalidOwner",
					"type": "error"
				},
				{
					"inputs": [
						{
							"internalType": "address",
							"name": "account",
							"type": "address"
						}
					],
					"name": "OwnableUnauthorizedAccount",
					"type": "error"
				},
				{
					"anonymous": false,
					"inputs": [
						{
							"indexed": true,
							"internalType": "address",
							"name": "_addr",
							"type": "address"
						}
					],
					"name": "Deployed",
					"type": "event"
				},
				{
					"anonymous": false,
					"inputs": [
						{
							"indexed": true,
							"internalType": "address",
							"name": "previousOwner",
							"type": "address"
						},
						{
							"indexed": true,
							"internalType": "address",
							"name": "newOwner",
							"type": "address"
						}
					],
					"name": "OwnershipTransferred",
					"type": "event"
				},
				{
					"anonymous": false,
					"inputs": [
						{
							"indexed": true,
							"internalType": "address",
							"name": "factory",
							"type": "address"
						}
					],
					"name": "TokenFactoryAdded",
					"type": "event"
				},
				{
					"anonymous": false,
					"inputs": [
						{
							"indexed": true,
							"internalType": "address",
							"name": "factory",
							"type": "address"
						}
					],
					"name": "TokenFactoryRemoved",
					"type": "event"
				},
				{
					"anonymous": false,
					"inputs": [
						{
							"indexed": true,
							"internalType": "address",
							"name": "token",
							"type": "address"
						},
						{
							"indexed": true,
							"internalType": "address",
							"name": "identity",
							"type": "address"
						}
					],
					"name": "TokenLinked",
					"type": "event"
				},
				{
					"anonymous": false,
					"inputs": [
						{
							"indexed": true,
							"internalType": "address",
							"name": "wallet",
							"type": "address"
						},
						{
							"indexed": true,
							"internalType": "address",
							"name": "identity",
							"type": "address"
						}
					],
					"name": "WalletLinked",
					"type": "event"
				},
				{
					"anonymous": false,
					"inputs": [
						{
							"indexed": true,
							"internalType": "address",
							"name": "wallet",
							"type": "address"
						},
						{
							"indexed": true,
							"internalType": "address",
							"name": "identity",
							"type": "address"
						}
					],
					"name": "WalletUnlinked",
					"type": "event"
				},
				{
					"inputs": [
						{
							"internalType": "address",
							"name": "_factory",
							"type": "address"
						}
					],
					"name": "addTokenFactory",
					"outputs": [],
					"stateMutability": "nonpayable",
					"type": "function"
				},
				{
					"inputs": [
						{
							"internalType": "address",
							"name": "_wallet",
							"type": "address"
						},
						{
							"internalType": "string",
							"name": "_salt",
							"type": "string"
						}
					],
					"name": "createIdentity",
					"outputs": [
						{
							"internalType": "address",
							"name": "",
							"type": "address"
						}
					],
					"stateMutability": "nonpayable",
					"type": "function"
				},
				{
					"inputs": [
						{
							"internalType": "address",
							"name": "_wallet",
							"type": "address"
						},
						{
							"internalType": "string",
							"name": "_salt",
							"type": "string"
						},
						{
							"internalType": "bytes32[]",
							"name": "_managementKeys",
							"type": "bytes32[]"
						}
					],
					"name": "createIdentityWithManagementKeys",
					"outputs": [
						{
							"internalType": "address",
							"name": "",
							"type": "address"
						}
					],
					"stateMutability": "nonpayable",
					"type": "function"
				},
				{
					"inputs": [
						{
							"internalType": "address",
							"name": "_token",
							"type": "address"
						},
						{
							"internalType": "address",
							"name": "_tokenOwner",
							"type": "address"
						},
						{
							"internalType": "string",
							"name": "_salt",
							"type": "string"
						}
					],
					"name": "createTokenIdentity",
					"outputs": [
						{
							"internalType": "address",
							"name": "",
							"type": "address"
						}
					],
					"stateMutability": "nonpayable",
					"type": "function"
				},
				{
					"inputs": [
						{
							"internalType": "address",
							"name": "_wallet",
							"type": "address"
						}
					],
					"name": "getIdentity",
					"outputs": [
						{
							"internalType": "address",
							"name": "",
							"type": "address"
						}
					],
					"stateMutability": "view",
					"type": "function"
				},
				{
					"inputs": [
						{
							"internalType": "address",
							"name": "_identity",
							"type": "address"
						}
					],
					"name": "getToken",
					"outputs": [
						{
							"internalType": "address",
							"name": "",
							"type": "address"
						}
					],
					"stateMutability": "view",
					"type": "function"
				},
				{
					"inputs": [
						{
							"internalType": "address",
							"name": "_identity",
							"type": "address"
						}
					],
					"name": "getWallets",
					"outputs": [
						{
							"internalType": "address[]",
							"name": "",
							"type": "address[]"
						}
					],
					"stateMutability": "view",
					"type": "function"
				},
				{
					"inputs": [],
					"name": "implementationAuthority",
					"outputs": [
						{
							"internalType": "address",
							"name": "",
							"type": "address"
						}
					],
					"stateMutability": "view",
					"type": "function"
				},
				{
					"inputs": [
						{
							"internalType": "string",
							"name": "_salt",
							"type": "string"
						}
					],
					"name": "isSaltTaken",
					"outputs": [
						{
							"internalType": "bool",
							"name": "",
							"type": "bool"
						}
					],
					"stateMutability": "view",
					"type": "function"
				},
				{
					"inputs": [
						{
							"internalType": "address",
							"name": "_factory",
							"type": "address"
						}
					],
					"name": "isTokenFactory",
					"outputs": [
						{
							"internalType": "bool",
							"name": "",
							"type": "bool"
						}
					],
					"stateMutability": "view",
					"type": "function"
				},
				{
					"inputs": [
						{
							"internalType": "address",
							"name": "_newWallet",
							"type": "address"
						}
					],
					"name": "linkWallet",
					"outputs": [],
					"stateMutability": "nonpayable",
					"type": "function"
				},
				{
					"inputs": [],
					"name": "owner",
					"outputs": [
						{
							"internalType": "address",
							"name": "",
							"type": "address"
						}
					],
					"stateMutability": "view",
					"type": "function"
				},
				{
					"inputs": [
						{
							"internalType": "address",
							"name": "_factory",
							"type": "address"
						}
					],
					"name": "removeTokenFactory",
					"outputs": [],
					"stateMutability": "nonpayable",
					"type": "function"
				},
				{
					"inputs": [],
					"name": "renounceOwnership",
					"outputs": [],
					"stateMutability": "nonpayable",
					"type": "function"
				},
				{
					"inputs": [
						{
							"internalType": "address",
							"name": "newOwner",
							"type": "address"
						}
					],
					"name": "transferOwnership",
					"outputs": [],
					"stateMutability": "nonpayable",
					"type": "function"
				},
				{
					"inputs": [
						{
							"internalType": "address",
							"name": "_oldWallet",
							"type": "address"
						}
					],
					"name": "unlinkWallet",
					"outputs": [],
					"stateMutability": "nonpayable",
					"type": "function"
				}
			],
			"devdoc": {
				"errors": {
					"OwnableInvalidOwner(address)": [
						{
							"details": "The owner is not a valid owner account. (eg. `address(0)`)"
						}
					],
					"OwnableUnauthorizedAccount(address)": [
						{
							"details": "The caller account is not authorized to perform an operation."
						}
					]
				},
				"kind": "dev",
				"methods": {
					"addTokenFactory(address)": {
						"details": "See {IdFactory-addTokenFactory}."
					},
					"createIdentity(address,string)": {
						"details": "See {IdFactory-createIdentity}."
					},
					"createIdentityWithManagementKeys(address,string,bytes32[])": {
						"details": "See {IdFactory-createIdentityWithManagementKeys}."
					},
					"createTokenIdentity(address,address,string)": {
						"details": "See {IdFactory-createTokenIdentity}."
					},
					"getIdentity(address)": {
						"details": "See {IdFactory-getIdentity}."
					},
					"getToken(address)": {
						"details": "See {IdFactory-getToken}."
					},
					"getWallets(address)": {
						"details": "See {IdFactory-getWallets}."
					},
					"implementationAuthority()": {
						"details": "See {IdFactory-implementationAuthority}."
					},
					"isSaltTaken(string)": {
						"details": "See {IdFactory-isSaltTaken}."
					},
					"isTokenFactory(address)": {
						"details": "See {IdFactory-isTokenFactory}."
					},
					"linkWallet(address)": {
						"details": "See {IdFactory-linkWallet}."
					},
					"owner()": {
						"details": "Returns the address of the current owner."
					},
					"removeTokenFactory(address)": {
						"details": "See {IdFactory-removeTokenFactory}."
					},
					"renounceOwnership()": {
						"details": "Leaves the contract without owner. It will not be possible to call `onlyOwner` functions. Can only be called by the current owner. NOTE: Renouncing ownership will leave the contract without an owner, thereby disabling any functionality that is only available to the owner."
					},
					"transferOwnership(address)": {
						"details": "Transfers ownership of the contract to a new account (`newOwner`). Can only be called by the current owner."
					},
					"unlinkWallet(address)": {
						"details": "See {IdFactory-unlinkWallet}."
					}
				},
				"version": 1
			},
			"evm": {
				"assembly": "    /* \"solidity-main/contracts/factory/IdFactory.sol\":214:9741  contract IdFactory is IIdFactory, Ownable {... */\n  mstore(0x40, 0xa0)\n    /* \"solidity-main/contracts/factory/IdFactory.sol\":1066:1290  constructor (address ImplementationAuthority) Ownable(msg.sender) {... */\n  callvalue\n  dup1\n  iszero\n  tag_1\n  jumpi\n  0x00\n  dup1\n  revert\ntag_1:\n  pop\n  mload(0x40)\n  sub(codesize, bytecodeSize)\n  dup1\n  bytecodeSize\n  dup4\n  codecopy\n  dup2\n  dup2\n  add\n  0x40\n  mstore\n  dup2\n  add\n  swap1\n  tag_2\n  swap2\n  swap1\n  tag_3\n  jump\t// in\ntag_2:\n    /* \"solidity-main/contracts/factory/IdFactory.sol\":1120:1130  msg.sender */\n  caller\n    /* \"@openzeppelin/contracts/access/Ownable.sol\":1297:1298  0 */\n  0x00\n    /* \"@openzeppelin/contracts/access/Ownable.sol\":1273:1299  initialOwner == address(0) */\n  0xffffffffffffffffffffffffffffffffffffffff\n  and\n    /* \"@openzeppelin/contracts/access/Ownable.sol\":1273:1285  initialOwner */\n  dup2\n    /* \"@openzeppelin/contracts/access/Ownable.sol\":1273:1299  initialOwner == address(0) */\n  0xffffffffffffffffffffffffffffffffffffffff\n  and\n  sub\n    /* \"@openzeppelin/contracts/access/Ownable.sol\":1269:1364  if (initialOwner == address(0)) {... */\n  tag_7\n  jumpi\n    /* \"@openzeppelin/contracts/access/Ownable.sol\":1350:1351  0 */\n  0x00\n    /* \"@openzeppelin/contracts/access/Ownable.sol\":1322:1353  OwnableInvalidOwner(address(0)) */\n  mload(0x40)\n  0x1e4fbdf700000000000000000000000000000000000000000000000000000000\n  dup2\n  mstore\n  0x04\n  add\n  tag_8\n  swap2\n  swap1\n  tag_9\n  jump\t// in\ntag_8:\n  mload(0x40)\n  dup1\n  swap2\n  sub\n  swap1\n  revert\n    /* \"@openzeppelin/contracts/access/Ownable.sol\":1269:1364  if (initialOwner == address(0)) {... */\ntag_7:\n    /* \"@openzeppelin/contracts/access/Ownable.sol\":1373:1405  _transferOwnership(initialOwner) */\n  tag_10\n    /* \"@openzeppelin/contracts/access/Ownable.sol\":1392:1404  initialOwner */\n  dup2\n    /* \"@openzeppelin/contracts/access/Ownable.sol\":1373:1391  _transferOwnership */\n  shl(0x20, tag_11)\n    /* \"@openzeppelin/contracts/access/Ownable.sol\":1373:1405  _transferOwnership(initialOwner) */\n  0x20\n  shr\n  jump\t// in\ntag_10:\n    /* \"@openzeppelin/contracts/access/Ownable.sol\":1225:1412  constructor(address initialOwner) {... */\n  pop\n    /* \"solidity-main/contracts/factory/IdFactory.sol\":1185:1186  0 */\n  0x00\n    /* \"solidity-main/contracts/factory/IdFactory.sol\":1150:1187  ImplementationAuthority != address(0) */\n  0xffffffffffffffffffffffffffffffffffffffff\n  and\n    /* \"solidity-main/contracts/factory/IdFactory.sol\":1150:1173  ImplementationAuthority */\n  dup2\n    /* \"solidity-main/contracts/factory/IdFactory.sol\":1150:1187  ImplementationAuthority != address(0) */\n  0xffffffffffffffffffffffffffffffffffffffff\n  and\n  sub\n    /* \"solidity-main/contracts/factory/IdFactory.sol\":1142:1223  require(ImplementationAuthority != address(0), \"invalid argument - zero address\") */\n  tag_13\n  jumpi\n  mload(0x40)\n  0x08c379a000000000000000000000000000000000000000000000000000000000\n  dup2\n  mstore\n  0x04\n  add\n  tag_14\n  swap1\n  tag_15\n  jump\t// in\ntag_14:\n  mload(0x40)\n  dup1\n  swap2\n  sub\n  swap1\n  revert\ntag_13:\n    /* \"solidity-main/contracts/factory/IdFactory.sol\":1260:1283  ImplementationAuthority */\n  dup1\n    /* \"solidity-main/contracts/factory/IdFactory.sol\":1233:1283  _implementationAuthority = ImplementationAuthority */\n  0xffffffffffffffffffffffffffffffffffffffff\n  and\n  0x80\n  dup2\n  0xffffffffffffffffffffffffffffffffffffffff\n  and\n  dup2\n  mstore\n  pop\n  pop\n    /* \"solidity-main/contracts/factory/IdFactory.sol\":1066:1290  constructor (address ImplementationAuthority) Ownable(msg.sender) {... */\n  pop\n    /* \"solidity-main/contracts/factory/IdFactory.sol\":214:9741  contract IdFactory is IIdFactory, Ownable {... */\n  jump(tag_16)\n    /* \"@openzeppelin/contracts/access/Ownable.sol\":2912:3099  function _transferOwnership(address newOwner) internal virtual {... */\ntag_11:\n    /* \"@openzeppelin/contracts/access/Ownable.sol\":2985:3001  address oldOwner */\n  0x00\n    /* \"@openzeppelin/contracts/access/Ownable.sol\":3004:3010  _owner */\n  dup1\n  0x00\n  swap1\n  sload\n  swap1\n  0x0100\n  exp\n  swap1\n  div\n  0xffffffffffffffffffffffffffffffffffffffff\n  and\n    /* \"@openzeppelin/contracts/access/Ownable.sol\":2985:3010  address oldOwner = _owner */\n  swap1\n  pop\n    /* \"@openzeppelin/contracts/access/Ownable.sol\":3029:3037  newOwner */\n  dup2\n    /* \"@openzeppelin/contracts/access/Ownable.sol\":3020:3026  _owner */\n  0x00\n  dup1\n    /* \"@openzeppelin/contracts/access/Ownable.sol\":3020:3037  _owner = newOwner */\n  0x0100\n  exp\n  dup2\n  sload\n  dup2\n  0xffffffffffffffffffffffffffffffffffffffff\n  mul\n  not\n  and\n  swap1\n  dup4\n  0xffffffffffffffffffffffffffffffffffffffff\n  and\n  mul\n  or\n  swap1\n  sstore\n  pop\n    /* \"@openzeppelin/contracts/access/Ownable.sol\":3083:3091  newOwner */\n  dup2\n    /* \"@openzeppelin/contracts/access/Ownable.sol\":3052:3092  OwnershipTransferred(oldOwner, newOwner) */\n  0xffffffffffffffffffffffffffffffffffffffff\n  and\n    /* \"@openzeppelin/contracts/access/Ownable.sol\":3073:3081  oldOwner */\n  dup2\n    /* \"@openzeppelin/contracts/access/Ownable.sol\":3052:3092  OwnershipTransferred(oldOwner, newOwner) */\n  0xffffffffffffffffffffffffffffffffffffffff\n  and\n  0x8be0079c531659141344cd1fd0a4f28419497f9722a3daafe3b4186f6b6457e0\n  mload(0x40)\n  mload(0x40)\n  dup1\n  swap2\n  sub\n  swap1\n  log3\n    /* \"@openzeppelin/contracts/access/Ownable.sol\":2975:3099  {... */\n  pop\n    /* \"@openzeppelin/contracts/access/Ownable.sol\":2912:3099  function _transferOwnership(address newOwner) internal virtual {... */\n  pop\n  jump\t// out\n    /* \"#utility.yul\":88:205   */\ntag_19:\n    /* \"#utility.yul\":197:198   */\n  0x00\n    /* \"#utility.yul\":194:195   */\n  dup1\n    /* \"#utility.yul\":187:199   */\n  revert\n    /* \"#utility.yul\":334:460   */\ntag_21:\n    /* \"#utility.yul\":371:378   */\n  0x00\n    /* \"#utility.yul\":411:453   */\n  0xffffffffffffffffffffffffffffffffffffffff\n    /* \"#utility.yul\":404:409   */\n  dup3\n    /* \"#utility.yul\":400:454   */\n  and\n    /* \"#utility.yul\":389:454   */\n  swap1\n  pop\n    /* \"#utility.yul\":334:460   */\n  swap2\n  swap1\n  pop\n  jump\t// out\n    /* \"#utility.yul\":466:562   */\ntag_22:\n    /* \"#utility.yul\":503:510   */\n  0x00\n    /* \"#utility.yul\":532:556   */\n  tag_35\n    /* \"#utility.yul\":550:555   */\n  dup3\n    /* \"#utility.yul\":532:556   */\n  tag_21\n  jump\t// in\ntag_35:\n    /* \"#utility.yul\":521:556   */\n  swap1\n  pop\n    /* \"#utility.yul\":466:562   */\n  swap2\n  swap1\n  pop\n  jump\t// out\n    /* \"#utility.yul\":568:690   */\ntag_23:\n    /* \"#utility.yul\":641:665   */\n  tag_37\n    /* \"#utility.yul\":659:664   */\n  dup2\n    /* \"#utility.yul\":641:665   */\n  tag_22\n  jump\t// in\ntag_37:\n    /* \"#utility.yul\":634:639   */\n  dup2\n    /* \"#utility.yul\":631:666   */\n  eq\n    /* \"#utility.yul\":621:684   */\n  tag_38\n  jumpi\n    /* \"#utility.yul\":680:681   */\n  0x00\n    /* \"#utility.yul\":677:678   */\n  dup1\n    /* \"#utility.yul\":670:682   */\n  revert\n    /* \"#utility.yul\":621:684   */\ntag_38:\n    /* \"#utility.yul\":568:690   */\n  pop\n  jump\t// out\n    /* \"#utility.yul\":696:839   */\ntag_24:\n    /* \"#utility.yul\":753:758   */\n  0x00\n    /* \"#utility.yul\":784:790   */\n  dup2\n    /* \"#utility.yul\":778:791   */\n  mload\n    /* \"#utility.yul\":769:791   */\n  swap1\n  pop\n    /* \"#utility.yul\":800:833   */\n  tag_40\n    /* \"#utility.yul\":827:832   */\n  dup2\n    /* \"#utility.yul\":800:833   */\n  tag_23\n  jump\t// in\ntag_40:\n    /* \"#utility.yul\":696:839   */\n  swap3\n  swap2\n  pop\n  pop\n  jump\t// out\n    /* \"#utility.yul\":845:1196   */\ntag_3:\n    /* \"#utility.yul\":915:921   */\n  0x00\n    /* \"#utility.yul\":964:966   */\n  0x20\n    /* \"#utility.yul\":952:961   */\n  dup3\n    /* \"#utility.yul\":943:950   */\n  dup5\n    /* \"#utility.yul\":939:962   */\n  sub\n    /* \"#utility.yul\":935:967   */\n  slt\n    /* \"#utility.yul\":932:1051   */\n  iszero\n  tag_42\n  jumpi\n    /* \"#utility.yul\":970:1049   */\n  tag_43\n  tag_19\n  jump\t// in\ntag_43:\n    /* \"#utility.yul\":932:1051   */\ntag_42:\n    /* \"#utility.yul\":1090:1091   */\n  0x00\n    /* \"#utility.yul\":1115:1179   */\n  tag_44\n    /* \"#utility.yul\":1171:1178   */\n  dup5\n    /* \"#utility.yul\":1162:1168   */\n  dup3\n    /* \"#utility.yul\":1151:1160   */\n  dup6\n    /* \"#utility.yul\":1147:1169   */\n  add\n    /* \"#utility.yul\":1115:1179   */\n  tag_24\n  jump\t// in\ntag_44:\n    /* \"#utility.yul\":1105:1179   */\n  swap2\n  pop\n    /* \"#utility.yul\":1061:1189   */\n  pop\n    /* \"#utility.yul\":845:1196   */\n  swap3\n  swap2\n  pop\n  pop\n  jump\t// out\n    /* \"#utility.yul\":1202:1320   */\ntag_25:\n    /* \"#utility.yul\":1289:1313   */\n  tag_46\n    /* \"#utility.yul\":1307:1312   */\n  dup2\n    /* \"#utility.yul\":1289:1313   */\n  tag_22\n  jump\t// in\ntag_46:\n    /* \"#utility.yul\":1284:1287   */\n  dup3\n    /* \"#utility.yul\":1277:1314   */\n  mstore\n    /* \"#utility.yul\":1202:1320   */\n  pop\n  pop\n  jump\t// out\n    /* \"#utility.yul\":1326:1548   */\ntag_9:\n    /* \"#utility.yul\":1419:1423   */\n  0x00\n    /* \"#utility.yul\":1457:1459   */\n  0x20\n    /* \"#utility.yul\":1446:1455   */\n  dup3\n    /* \"#utility.yul\":1442:1460   */\n  add\n    /* \"#utility.yul\":1434:1460   */\n  swap1\n  pop\n    /* \"#utility.yul\":1470:1541   */\n  tag_48\n    /* \"#utility.yul\":1538:1539   */\n  0x00\n    /* \"#utility.yul\":1527:1536   */\n  dup4\n    /* \"#utility.yul\":1523:1540   */\n  add\n    /* \"#utility.yul\":1514:1520   */\n  dup5\n    /* \"#utility.yul\":1470:1541   */\n  tag_25\n  jump\t// in\ntag_48:\n    /* \"#utility.yul\":1326:1548   */\n  swap3\n  swap2\n  pop\n  pop\n  jump\t// out\n    /* \"#utility.yul\":1554:1723   */\ntag_26:\n    /* \"#utility.yul\":1638:1649   */\n  0x00\n    /* \"#utility.yul\":1672:1678   */\n  dup3\n    /* \"#utility.yul\":1667:1670   */\n  dup3\n    /* \"#utility.yul\":1660:1679   */\n  mstore\n    /* \"#utility.yul\":1712:1716   */\n  0x20\n    /* \"#utility.yul\":1707:1710   */\n  dup3\n    /* \"#utility.yul\":1703:1717   */\n  add\n    /* \"#utility.yul\":1688:1717   */\n  swap1\n  pop\n    /* \"#utility.yul\":1554:1723   */\n  swap3\n  swap2\n  pop\n  pop\n  jump\t// out\n    /* \"#utility.yul\":1729:1910   */\ntag_27:\n    /* \"#utility.yul\":1869:1902   */\n  0x696e76616c696420617267756d656e74202d207a65726f206164647265737300\n    /* \"#utility.yul\":1865:1866   */\n  0x00\n    /* \"#utility.yul\":1857:1863   */\n  dup3\n    /* \"#utility.yul\":1853:1867   */\n  add\n    /* \"#utility.yul\":1846:1903   */\n  mstore\n    /* \"#utility.yul\":1729:1910   */\n  pop\n  jump\t// out\n    /* \"#utility.yul\":1916:2282   */\ntag_28:\n    /* \"#utility.yul\":2058:2061   */\n  0x00\n    /* \"#utility.yul\":2079:2146   */\n  tag_52\n    /* \"#utility.yul\":2143:2145   */\n  0x1f\n    /* \"#utility.yul\":2138:2141   */\n  dup4\n    /* \"#utility.yul\":2079:2146   */\n  tag_26\n  jump\t// in\ntag_52:\n    /* \"#utility.yul\":2072:2146   */\n  swap2\n  pop\n    /* \"#utility.yul\":2155:2248   */\n  tag_53\n    /* \"#utility.yul\":2244:2247   */\n  dup3\n    /* \"#utility.yul\":2155:2248   */\n  tag_27\n  jump\t// in\ntag_53:\n    /* \"#utility.yul\":2273:2275   */\n  0x20\n    /* \"#utility.yul\":2268:2271   */\n  dup3\n    /* \"#utility.yul\":2264:2276   */\n  add\n    /* \"#utility.yul\":2257:2276   */\n  swap1\n  pop\n    /* \"#utility.yul\":1916:2282   */\n  swap2\n  swap1\n  pop\n  jump\t// out\n    /* \"#utility.yul\":2288:2707   */\ntag_15:\n    /* \"#utility.yul\":2454:2458   */\n  0x00\n    /* \"#utility.yul\":2492:2494   */\n  0x20\n    /* \"#utility.yul\":2481:2490   */\n  dup3\n    /* \"#utility.yul\":2477:2495   */\n  add\n    /* \"#utility.yul\":2469:2495   */\n  swap1\n  pop\n    /* \"#utility.yul\":2541:2550   */\n  dup2\n    /* \"#utility.yul\":2535:2539   */\n  dup2\n    /* \"#utility.yul\":2531:2551   */\n  sub\n    /* \"#utility.yul\":2527:2528   */\n  0x00\n    /* \"#utility.yul\":2516:2525   */\n  dup4\n    /* \"#utility.yul\":2512:2529   */\n  add\n    /* \"#utility.yul\":2505:2552   */\n  mstore\n    /* \"#utility.yul\":2569:2700   */\n  tag_55\n    /* \"#utility.yul\":2695:2699   */\n  dup2\n    /* \"#utility.yul\":2569:2700   */\n  tag_28\n  jump\t// in\ntag_55:\n    /* \"#utility.yul\":2561:2700   */\n  swap1\n  pop\n    /* \"#utility.yul\":2288:2707   */\n  swap2\n  swap1\n  pop\n  jump\t// out\n    /* \"solidity-main/contracts/factory/IdFactory.sol\":214:9741  contract IdFactory is IIdFactory, Ownable {... */\ntag_16:\n  mload(0x80)\n  codecopy(0x00, dataOffset(sub_0), dataSize(sub_0))\n  0x00\n  assignImmutable(\"0xb8af24a884ce251f7b69c435d70b26b4d69041695ff24aab1b55d194a3fdd883\")\n  return(0x00, dataSize(sub_0))\nstop\n\nsub_0: assembly {\n        /* \"solidity-main/contracts/factory/IdFactory.sol\":214:9741  contract IdFactory is IIdFactory, Ownable {... */\n      mstore(0x40, 0x80)\n      callvalue\n      dup1\n      iszero\n      tag_1\n      jumpi\n      0x00\n      dup1\n      revert\n    tag_1:\n      pop\n      jumpi(tag_2, lt(calldatasize, 0x04))\n      shr(0xe0, calldataload(0x00))\n      dup1\n      0x715018a6\n      gt\n      tag_19\n      jumpi\n      dup1\n      0x9ce19365\n      gt\n      tag_20\n      jumpi\n      dup1\n      0x9ce19365\n      eq\n      tag_15\n      jumpi\n      dup1\n      0xb8bb8126\n      eq\n      tag_16\n      jumpi\n      dup1\n      0xf2fde38b\n      eq\n      tag_17\n      jumpi\n      dup1\n      0xfe5cd59a\n      eq\n      tag_18\n      jumpi\n      jump(tag_2)\n    tag_20:\n      dup1\n      0x715018a6\n      eq\n      tag_11\n      jumpi\n      dup1\n      0x8da5cb5b\n      eq\n      tag_12\n      jumpi\n      dup1\n      0x8e952bfe\n      eq\n      tag_13\n      jumpi\n      dup1\n      0x937529ef\n      eq\n      tag_14\n      jumpi\n      jump(tag_2)\n    tag_19:\n      dup1\n      0x3e3bc3d7\n      gt\n      tag_21\n      jumpi\n      dup1\n      0x3e3bc3d7\n      eq\n      tag_7\n      jumpi\n      dup1\n      0x422c29a4\n      eq\n      tag_8\n      jumpi\n      dup1\n      0x5027dbe2\n      eq\n      tag_9\n      jumpi\n      dup1\n      0x59770438\n      eq\n      tag_10\n      jumpi\n      jump(tag_2)\n    tag_21:\n      dup1\n      0x2307f882\n      eq\n      tag_3\n      jumpi\n      dup1\n      0x2fea7b81\n      eq\n      tag_4\n      jumpi\n      dup1\n      0x3a500451\n      eq\n      tag_5\n      jumpi\n      dup1\n      0x3d56ff66\n      eq\n      tag_6\n      jumpi\n    tag_2:\n      0x00\n      dup1\n      revert\n        /* \"solidity-main/contracts/factory/IdFactory.sol\":8386:8508  function implementationAuthority() public override view returns (address) {... */\n    tag_3:\n      tag_22\n      tag_23\n      jump\t// in\n    tag_22:\n      mload(0x40)\n      tag_24\n      swap2\n      swap1\n      tag_25\n      jump\t// in\n    tag_24:\n      mload(0x40)\n      dup1\n      swap2\n      sub\n      swap1\n      return\n        /* \"solidity-main/contracts/factory/IdFactory.sol\":7288:7548  function getIdentity(address _wallet) external override view returns (address) {... */\n    tag_4:\n      tag_26\n      0x04\n      dup1\n      calldatasize\n      sub\n      dup2\n      add\n      swap1\n      tag_27\n      swap2\n      swap1\n      tag_28\n      jump\t// in\n    tag_27:\n      tag_29\n      jump\t// in\n    tag_26:\n      mload(0x40)\n      tag_30\n      swap2\n      swap1\n      tag_25\n      jump\t// in\n    tag_30:\n      mload(0x40)\n      dup1\n      swap2\n      sub\n      swap1\n      return\n        /* \"solidity-main/contracts/factory/IdFactory.sol\":7612:7735  function isSaltTaken(string calldata _salt) external override view returns (bool) {... */\n    tag_5:\n      tag_31\n      0x04\n      dup1\n      calldatasize\n      sub\n      dup2\n      add\n      swap1\n      tag_32\n      swap2\n      swap1\n      tag_33\n      jump\t// in\n    tag_32:\n      tag_34\n      jump\t// in\n    tag_31:\n      mload(0x40)\n      tag_35\n      swap2\n      swap1\n      tag_36\n      jump\t// in\n    tag_35:\n      mload(0x40)\n      dup1\n      swap2\n      sub\n      swap1\n      return\n        /* \"solidity-main/contracts/factory/IdFactory.sol\":4538:5580  function createTokenIdentity(... */\n    tag_6:\n      tag_37\n      0x04\n      dup1\n      calldatasize\n      sub\n      dup2\n      add\n      swap1\n      tag_38\n      swap2\n      swap1\n      tag_39\n      jump\t// in\n    tag_38:\n      tag_40\n      jump\t// in\n    tag_37:\n      mload(0x40)\n      tag_41\n      swap2\n      swap1\n      tag_25\n      jump\t// in\n    tag_41:\n      mload(0x40)\n      dup1\n      swap2\n      sub\n      swap1\n      return\n        /* \"solidity-main/contracts/factory/IdFactory.sol\":8184:8310  function isTokenFactory(address _factory) public override view returns(bool) {... */\n    tag_7:\n      tag_42\n      0x04\n      dup1\n      calldatasize\n      sub\n      dup2\n      add\n      swap1\n      tag_43\n      swap2\n      swap1\n      tag_28\n      jump\t// in\n    tag_43:\n      tag_44\n      jump\t// in\n    tag_42:\n      mload(0x40)\n      tag_45\n      swap2\n      swap1\n      tag_36\n      jump\t// in\n    tag_45:\n      mload(0x40)\n      dup1\n      swap2\n      sub\n      swap1\n      return\n        /* \"solidity-main/contracts/factory/IdFactory.sol\":7798:7930  function getWallets(address _identity) external override view returns (address[] memory) {... */\n    tag_8:\n      tag_46\n      0x04\n      dup1\n      calldatasize\n      sub\n      dup2\n      add\n      swap1\n      tag_47\n      swap2\n      swap1\n      tag_28\n      jump\t// in\n    tag_47:\n      tag_48\n      jump\t// in\n    tag_46:\n      mload(0x40)\n      tag_49\n      swap2\n      swap1\n      tag_50\n      jump\t// in\n    tag_49:\n      mload(0x40)\n      dup1\n      swap2\n      sub\n      swap1\n      return\n        /* \"solidity-main/contracts/factory/IdFactory.sol\":6421:7224  function unlinkWallet(address _oldWallet) external override {... */\n    tag_9:\n      tag_51\n      0x04\n      dup1\n      calldatasize\n      sub\n      dup2\n      add\n      swap1\n      tag_52\n      swap2\n      swap1\n      tag_28\n      jump\t// in\n    tag_52:\n      tag_53\n      jump\t// in\n    tag_51:\n      stop\n        /* \"solidity-main/contracts/factory/IdFactory.sol\":7991:8117  function getToken(address _identity) external override view returns (address) {... */\n    tag_10:\n      tag_54\n      0x04\n      dup1\n      calldatasize\n      sub\n      dup2\n      add\n      swap1\n      tag_55\n      swap2\n      swap1\n      tag_28\n      jump\t// in\n    tag_55:\n      tag_56\n      jump\t// in\n    tag_54:\n      mload(0x40)\n      tag_57\n      swap2\n      swap1\n      tag_25\n      jump\t// in\n    tag_57:\n      mload(0x40)\n      dup1\n      swap2\n      sub\n      swap1\n      return\n        /* \"@openzeppelin/contracts/access/Ownable.sol\":2293:2394  function renounceOwnership() public virtual onlyOwner {... */\n    tag_11:\n      tag_58\n      tag_59\n      jump\t// in\n    tag_58:\n      stop\n        /* \"@openzeppelin/contracts/access/Ownable.sol\":1638:1723  function owner() public view virtual returns (address) {... */\n    tag_12:\n      tag_60\n      tag_61\n      jump\t// in\n    tag_60:\n      mload(0x40)\n      tag_62\n      swap2\n      swap1\n      tag_25\n      jump\t// in\n    tag_62:\n      mload(0x40)\n      dup1\n      swap2\n      sub\n      swap1\n      return\n        /* \"solidity-main/contracts/factory/IdFactory.sol\":2103:2923  function createIdentity(... */\n    tag_13:\n      tag_63\n      0x04\n      dup1\n      calldatasize\n      sub\n      dup2\n      add\n      swap1\n      tag_64\n      swap2\n      swap1\n      tag_65\n      jump\t// in\n    tag_64:\n      tag_66\n      jump\t// in\n    tag_63:\n      mload(0x40)\n      tag_67\n      swap2\n      swap1\n      tag_25\n      jump\t// in\n    tag_67:\n      mload(0x40)\n      dup1\n      swap2\n      sub\n      swap1\n      return\n        /* \"solidity-main/contracts/factory/IdFactory.sol\":1732:2036  function removeTokenFactory(address _factory) external override onlyOwner {... */\n    tag_14:\n      tag_68\n      0x04\n      dup1\n      calldatasize\n      sub\n      dup2\n      add\n      swap1\n      tag_69\n      swap2\n      swap1\n      tag_28\n      jump\t// in\n    tag_69:\n      tag_70\n      jump\t// in\n    tag_68:\n      stop\n        /* \"solidity-main/contracts/factory/IdFactory.sol\":1358:1661  function addTokenFactory(address _factory) external override onlyOwner {... */\n    tag_15:\n      tag_71\n      0x04\n      dup1\n      calldatasize\n      sub\n      dup2\n      add\n      swap1\n      tag_72\n      swap2\n      swap1\n      tag_28\n      jump\t// in\n    tag_72:\n      tag_73\n      jump\t// in\n    tag_71:\n      stop\n        /* \"solidity-main/contracts/factory/IdFactory.sol\":5643:6356  function linkWallet(address _newWallet) external override {... */\n    tag_16:\n      tag_74\n      0x04\n      dup1\n      calldatasize\n      sub\n      dup2\n      add\n      swap1\n      tag_75\n      swap2\n      swap1\n      tag_28\n      jump\t// in\n    tag_75:\n      tag_76\n      jump\t// in\n    tag_74:\n      stop\n        /* \"@openzeppelin/contracts/access/Ownable.sol\":2543:2758  function transferOwnership(address newOwner) public virtual onlyOwner {... */\n    tag_17:\n      tag_77\n      0x04\n      dup1\n      calldatasize\n      sub\n      dup2\n      add\n      swap1\n      tag_78\n      swap2\n      swap1\n      tag_28\n      jump\t// in\n    tag_78:\n      tag_79\n      jump\t// in\n    tag_77:\n      stop\n        /* \"solidity-main/contracts/factory/IdFactory.sol\":3008:4466  function createIdentityWithManagementKeys(... */\n    tag_18:\n      tag_80\n      0x04\n      dup1\n      calldatasize\n      sub\n      dup2\n      add\n      swap1\n      tag_81\n      swap2\n      swap1\n      tag_82\n      jump\t// in\n    tag_81:\n      tag_83\n      jump\t// in\n    tag_80:\n      mload(0x40)\n      tag_84\n      swap2\n      swap1\n      tag_25\n      jump\t// in\n    tag_84:\n      mload(0x40)\n      dup1\n      swap2\n      sub\n      swap1\n      return\n        /* \"solidity-main/contracts/factory/IdFactory.sol\":8386:8508  function implementationAuthority() public override view returns (address) {... */\n    tag_23:\n        /* \"solidity-main/contracts/factory/IdFactory.sol\":8451:8458  address */\n      0x00\n        /* \"solidity-main/contracts/factory/IdFactory.sol\":8477:8501  _implementationAuthority */\n      immutable(\"0xb8af24a884ce251f7b69c435d70b26b4d69041695ff24aab1b55d194a3fdd883\")\n        /* \"solidity-main/contracts/factory/IdFactory.sol\":8470:8501  return _implementationAuthority */\n      swap1\n      pop\n        /* \"solidity-main/contracts/factory/IdFactory.sol\":8386:8508  function implementationAuthority() public override view returns (address) {... */\n      swap1\n      jump\t// out\n        /* \"solidity-main/contracts/factory/IdFactory.sol\":7288:7548  function getIdentity(address _wallet) external override view returns (address) {... */\n    tag_29:\n        /* \"solidity-main/contracts/factory/IdFactory.sol\":7358:7365  address */\n      0x00\n        /* \"solidity-main/contracts/factory/IdFactory.sol\":7415:7416  0 */\n      dup1\n        /* \"solidity-main/contracts/factory/IdFactory.sol\":7380:7417  _tokenIdentity[_wallet] != address(0) */\n      0xffffffffffffffffffffffffffffffffffffffff\n      and\n        /* \"solidity-main/contracts/factory/IdFactory.sol\":7380:7394  _tokenIdentity */\n      0x05\n        /* \"solidity-main/contracts/factory/IdFactory.sol\":7380:7403  _tokenIdentity[_wallet] */\n      0x00\n        /* \"solidity-main/contracts/factory/IdFactory.sol\":7395:7402  _wallet */\n      dup5\n        /* \"solidity-main/contracts/factory/IdFactory.sol\":7380:7403  _tokenIdentity[_wallet] */\n      0xffffffffffffffffffffffffffffffffffffffff\n      and\n      0xffffffffffffffffffffffffffffffffffffffff\n      and\n      dup2\n      mstore\n      0x20\n      add\n      swap1\n      dup2\n      mstore\n      0x20\n      add\n      0x00\n      keccak256\n      0x00\n      swap1\n      sload\n      swap1\n      0x0100\n      exp\n      swap1\n      div\n      0xffffffffffffffffffffffffffffffffffffffff\n      and\n        /* \"solidity-main/contracts/factory/IdFactory.sol\":7380:7417  _tokenIdentity[_wallet] != address(0) */\n      0xffffffffffffffffffffffffffffffffffffffff\n      and\n      eq\n        /* \"solidity-main/contracts/factory/IdFactory.sol\":7377:7542  if(_tokenIdentity[_wallet] != address(0)) {... */\n      tag_87\n      jumpi\n        /* \"solidity-main/contracts/factory/IdFactory.sol\":7440:7454  _tokenIdentity */\n      0x05\n        /* \"solidity-main/contracts/factory/IdFactory.sol\":7440:7463  _tokenIdentity[_wallet] */\n      0x00\n        /* \"solidity-main/contracts/factory/IdFactory.sol\":7455:7462  _wallet */\n      dup4\n        /* \"solidity-main/contracts/factory/IdFactory.sol\":7440:7463  _tokenIdentity[_wallet] */\n      0xffffffffffffffffffffffffffffffffffffffff\n      and\n      0xffffffffffffffffffffffffffffffffffffffff\n      and\n      dup2\n      mstore\n      0x20\n      add\n      swap1\n      dup2\n      mstore\n      0x20\n      add\n      0x00\n      keccak256\n      0x00\n      swap1\n      sload\n      swap1\n      0x0100\n      exp\n      swap1\n      div\n      0xffffffffffffffffffffffffffffffffffffffff\n      and\n        /* \"solidity-main/contracts/factory/IdFactory.sol\":7433:7463  return _tokenIdentity[_wallet] */\n      swap1\n      pop\n      jump(tag_86)\n        /* \"solidity-main/contracts/factory/IdFactory.sol\":7377:7542  if(_tokenIdentity[_wallet] != address(0)) {... */\n    tag_87:\n        /* \"solidity-main/contracts/factory/IdFactory.sol\":7509:7522  _userIdentity */\n      0x03\n        /* \"solidity-main/contracts/factory/IdFactory.sol\":7509:7531  _userIdentity[_wallet] */\n      0x00\n        /* \"solidity-main/contracts/factory/IdFactory.sol\":7523:7530  _wallet */\n      dup4\n        /* \"solidity-main/contracts/factory/IdFactory.sol\":7509:7531  _userIdentity[_wallet] */\n      0xffffffffffffffffffffffffffffffffffffffff\n      and\n      0xffffffffffffffffffffffffffffffffffffffff\n      and\n      dup2\n      mstore\n      0x20\n      add\n      swap1\n      dup2\n      mstore\n      0x20\n      add\n      0x00\n      keccak256\n      0x00\n      swap1\n      sload\n      swap1\n      0x0100\n      exp\n      swap1\n      div\n      0xffffffffffffffffffffffffffffffffffffffff\n      and\n        /* \"solidity-main/contracts/factory/IdFactory.sol\":7502:7531  return _userIdentity[_wallet] */\n      swap1\n      pop\n        /* \"solidity-main/contracts/factory/IdFactory.sol\":7288:7548  function getIdentity(address _wallet) external override view returns (address) {... */\n    tag_86:\n      swap2\n      swap1\n      pop\n      jump\t// out\n        /* \"solidity-main/contracts/factory/IdFactory.sol\":7612:7735  function isSaltTaken(string calldata _salt) external override view returns (bool) {... */\n    tag_34:\n        /* \"solidity-main/contracts/factory/IdFactory.sol\":7688:7692  bool */\n      0x00\n        /* \"solidity-main/contracts/factory/IdFactory.sol\":7711:7721  _saltTaken */\n      0x02\n        /* \"solidity-main/contracts/factory/IdFactory.sol\":7722:7727  _salt */\n      dup4\n      dup4\n        /* \"solidity-main/contracts/factory/IdFactory.sol\":7711:7728  _saltTaken[_salt] */\n      mload(0x40)\n      tag_90\n      swap3\n      swap2\n      swap1\n      tag_91\n      jump\t// in\n    tag_90:\n      swap1\n      dup2\n      mstore\n      0x20\n      add\n      mload(0x40)\n      dup1\n      swap2\n      sub\n      swap1\n      keccak256\n      0x00\n      swap1\n      sload\n      swap1\n      0x0100\n      exp\n      swap1\n      div\n      0xff\n      and\n        /* \"solidity-main/contracts/factory/IdFactory.sol\":7704:7728  return _saltTaken[_salt] */\n      swap1\n      pop\n        /* \"solidity-main/contracts/factory/IdFactory.sol\":7612:7735  function isSaltTaken(string calldata _salt) external override view returns (bool) {... */\n      swap3\n      swap2\n      pop\n      pop\n      jump\t// out\n        /* \"solidity-main/contracts/factory/IdFactory.sol\":4538:5580  function createTokenIdentity(... */\n    tag_40:\n        /* \"solidity-main/contracts/factory/IdFactory.sol\":4681:4688  address */\n      0x00\n        /* \"solidity-main/contracts/factory/IdFactory.sol\":4708:4734  isTokenFactory(msg.sender) */\n      tag_93\n        /* \"solidity-main/contracts/factory/IdFactory.sol\":4723:4733  msg.sender */\n      caller\n        /* \"solidity-main/contracts/factory/IdFactory.sol\":4708:4722  isTokenFactory */\n      tag_44\n        /* \"solidity-main/contracts/factory/IdFactory.sol\":4708:4734  isTokenFactory(msg.sender) */\n      jump\t// in\n    tag_93:\n        /* \"solidity-main/contracts/factory/IdFactory.sol\":4708:4759  isTokenFactory(msg.sender) || msg.sender == owner() */\n      dup1\n      tag_94\n      jumpi\n      pop\n        /* \"solidity-main/contracts/factory/IdFactory.sol\":4752:4759  owner() */\n      tag_95\n        /* \"solidity-main/contracts/factory/IdFactory.sol\":4752:4757  owner */\n      tag_61\n        /* \"solidity-main/contracts/factory/IdFactory.sol\":4752:4759  owner() */\n      jump\t// in\n    tag_95:\n        /* \"solidity-main/contracts/factory/IdFactory.sol\":4738:4759  msg.sender == owner() */\n      0xffffffffffffffffffffffffffffffffffffffff\n      and\n        /* \"solidity-main/contracts/factory/IdFactory.sol\":4738:4748  msg.sender */\n      caller\n        /* \"solidity-main/contracts/factory/IdFactory.sol\":4738:4759  msg.sender == owner() */\n      0xffffffffffffffffffffffffffffffffffffffff\n      and\n      eq\n        /* \"solidity-main/contracts/factory/IdFactory.sol\":4708:4759  isTokenFactory(msg.sender) || msg.sender == owner() */\n    tag_94:\n        /* \"solidity-main/contracts/factory/IdFactory.sol\":4700:4794  require(isTokenFactory(msg.sender) || msg.sender == owner(), \"only Factory or owner can call\") */\n      tag_96\n      jumpi\n      mload(0x40)\n      0x08c379a000000000000000000000000000000000000000000000000000000000\n      dup2\n      mstore\n      0x04\n      add\n      tag_97\n      swap1\n      tag_98\n      jump\t// in\n    tag_97:\n      mload(0x40)\n      dup1\n      swap2\n      sub\n      swap1\n      revert\n    tag_96:\n        /* \"solidity-main/contracts/factory/IdFactory.sol\":4830:4831  0 */\n      0x00\n        /* \"solidity-main/contracts/factory/IdFactory.sol\":4812:4832  _token != address(0) */\n      0xffffffffffffffffffffffffffffffffffffffff\n      and\n        /* \"solidity-main/contracts/factory/IdFactory.sol\":4812:4818  _token */\n      dup5\n        /* \"solidity-main/contracts/factory/IdFactory.sol\":4812:4832  _token != address(0) */\n      0xffffffffffffffffffffffffffffffffffffffff\n      and\n      sub\n        /* \"solidity-main/contracts/factory/IdFactory.sol\":4804:4868  require(_token != address(0), \"invalid argument - zero address\") */\n      tag_99\n      jumpi\n      mload(0x40)\n      0x08c379a000000000000000000000000000000000000000000000000000000000\n      dup2\n      mstore\n      0x04\n      add\n      tag_100\n      swap1\n      tag_101\n      jump\t// in\n    tag_100:\n      mload(0x40)\n      dup1\n      swap2\n      sub\n      swap1\n      revert\n    tag_99:\n        /* \"solidity-main/contracts/factory/IdFactory.sol\":4909:4910  0 */\n      0x00\n        /* \"solidity-main/contracts/factory/IdFactory.sol\":4886:4911  _tokenOwner != address(0) */\n      0xffffffffffffffffffffffffffffffffffffffff\n      and\n        /* \"solidity-main/contracts/factory/IdFactory.sol\":4886:4897  _tokenOwner */\n      dup4\n        /* \"solidity-main/contracts/factory/IdFactory.sol\":4886:4911  _tokenOwner != address(0) */\n      0xffffffffffffffffffffffffffffffffffffffff\n      and\n      sub\n        /* \"solidity-main/contracts/factory/IdFactory.sol\":4878:4947  require(_tokenOwner != address(0), \"invalid argument - zero address\") */\n      tag_102\n      jumpi\n      mload(0x40)\n      0x08c379a000000000000000000000000000000000000000000000000000000000\n      dup2\n      mstore\n      0x04\n      add\n      tag_103\n      swap1\n      tag_101\n      jump\t// in\n    tag_103:\n      mload(0x40)\n      dup1\n      swap2\n      sub\n      swap1\n      revert\n    tag_102:\n        /* \"solidity-main/contracts/factory/IdFactory.sol\":5007:5021  abi.encode(\"\") */\n      add(0x20, mload(0x40))\n      tag_104\n      swap1\n      tag_105\n      jump\t// in\n    tag_104:\n      mload(0x40)\n      0x20\n      dup2\n      dup4\n      sub\n      sub\n      dup2\n      mstore\n      swap1\n      0x40\n      mstore\n        /* \"solidity-main/contracts/factory/IdFactory.sol\":4997:5022  keccak256(abi.encode(\"\")) */\n      dup1\n      mload\n      swap1\n      0x20\n      add\n      keccak256\n        /* \"solidity-main/contracts/factory/IdFactory.sol\":4986:4991  _salt */\n      dup3\n        /* \"solidity-main/contracts/factory/IdFactory.sol\":4975:4992  abi.encode(_salt) */\n      add(0x20, mload(0x40))\n      tag_106\n      swap2\n      swap1\n      tag_107\n      jump\t// in\n    tag_106:\n      mload(0x40)\n      0x20\n      dup2\n      dup4\n      sub\n      sub\n      dup2\n      mstore\n      swap1\n      0x40\n      mstore\n        /* \"solidity-main/contracts/factory/IdFactory.sol\":4965:4993  keccak256(abi.encode(_salt)) */\n      dup1\n      mload\n      swap1\n      0x20\n      add\n      keccak256\n        /* \"solidity-main/contracts/factory/IdFactory.sol\":4965:5022  keccak256(abi.encode(_salt)) != keccak256(abi.encode(\"\")) */\n      sub\n        /* \"solidity-main/contracts/factory/IdFactory.sol\":4957:5058  require(keccak256(abi.encode(_salt)) != keccak256(abi.encode(\"\")), \"invalid argument - empty string\") */\n      tag_108\n      jumpi\n      mload(0x40)\n      0x08c379a000000000000000000000000000000000000000000000000000000000\n      dup2\n      mstore\n      0x04\n      add\n      tag_109\n      swap1\n      tag_110\n      jump\t// in\n    tag_109:\n      mload(0x40)\n      dup1\n      swap2\n      sub\n      swap1\n      revert\n    tag_108:\n        /* \"solidity-main/contracts/factory/IdFactory.sol\":5068:5093  string memory tokenIdSalt */\n      0x00\n        /* \"solidity-main/contracts/factory/IdFactory.sol\":5118:5123  _salt */\n      dup3\n        /* \"solidity-main/contracts/factory/IdFactory.sol\":5096:5124  string.concat(\"Token\",_salt) */\n      add(0x20, mload(0x40))\n      tag_111\n      swap2\n      swap1\n      tag_112\n      jump\t// in\n    tag_111:\n      mload(0x40)\n      0x20\n      dup2\n      dup4\n      sub\n      sub\n      dup2\n      mstore\n      swap1\n      0x40\n      mstore\n        /* \"solidity-main/contracts/factory/IdFactory.sol\":5068:5124  string memory tokenIdSalt = string.concat(\"Token\",_salt) */\n      swap1\n      pop\n        /* \"solidity-main/contracts/factory/IdFactory.sol\":5143:5153  _saltTaken */\n      0x02\n        /* \"solidity-main/contracts/factory/IdFactory.sol\":5154:5165  tokenIdSalt */\n      dup2\n        /* \"solidity-main/contracts/factory/IdFactory.sol\":5143:5166  _saltTaken[tokenIdSalt] */\n      mload(0x40)\n      tag_113\n      swap2\n      swap1\n      tag_114\n      jump\t// in\n    tag_113:\n      swap1\n      dup2\n      mstore\n      0x20\n      add\n      mload(0x40)\n      dup1\n      swap2\n      sub\n      swap1\n      keccak256\n      0x00\n      swap1\n      sload\n      swap1\n      0x0100\n      exp\n      swap1\n      div\n      0xff\n      and\n        /* \"solidity-main/contracts/factory/IdFactory.sol\":5142:5166  !_saltTaken[tokenIdSalt] */\n      iszero\n        /* \"solidity-main/contracts/factory/IdFactory.sol\":5134:5189  require(!_saltTaken[tokenIdSalt], \"salt already taken\") */\n      tag_115\n      jumpi\n      mload(0x40)\n      0x08c379a000000000000000000000000000000000000000000000000000000000\n      dup2\n      mstore\n      0x04\n      add\n      tag_116\n      swap1\n      tag_117\n      jump\t// in\n    tag_116:\n      mload(0x40)\n      dup1\n      swap2\n      sub\n      swap1\n      revert\n    tag_115:\n        /* \"solidity-main/contracts/factory/IdFactory.sol\":5241:5242  0 */\n      0x00\n        /* \"solidity-main/contracts/factory/IdFactory.sol\":5207:5243  _tokenIdentity[_token] == address(0) */\n      0xffffffffffffffffffffffffffffffffffffffff\n      and\n        /* \"solidity-main/contracts/factory/IdFactory.sol\":5207:5221  _tokenIdentity */\n      0x05\n        /* \"solidity-main/contracts/factory/IdFactory.sol\":5207:5229  _tokenIdentity[_token] */\n      0x00\n        /* \"solidity-main/contracts/factory/IdFactory.sol\":5222:5228  _token */\n      dup8\n        /* \"solidity-main/contracts/factory/IdFactory.sol\":5207:5229  _tokenIdentity[_token] */\n      0xffffffffffffffffffffffffffffffffffffffff\n      and\n      0xffffffffffffffffffffffffffffffffffffffff\n      and\n      dup2\n      mstore\n      0x20\n      add\n      swap1\n      dup2\n      mstore\n      0x20\n      add\n      0x00\n      keccak256\n      0x00\n      swap1\n      sload\n      swap1\n      0x0100\n      exp\n      swap1\n      div\n      0xffffffffffffffffffffffffffffffffffffffff\n      and\n        /* \"solidity-main/contracts/factory/IdFactory.sol\":5207:5243  _tokenIdentity[_token] == address(0) */\n      0xffffffffffffffffffffffffffffffffffffffff\n      and\n      eq\n        /* \"solidity-main/contracts/factory/IdFactory.sol\":5199:5283  require(_tokenIdentity[_token] == address(0), \"token already linked to an identity\") */\n      tag_118\n      jumpi\n      mload(0x40)\n      0x08c379a000000000000000000000000000000000000000000000000000000000\n      dup2\n      mstore\n      0x04\n      add\n      tag_119\n      swap1\n      tag_120\n      jump\t// in\n    tag_119:\n      mload(0x40)\n      dup1\n      swap2\n      sub\n      swap1\n      revert\n    tag_118:\n        /* \"solidity-main/contracts/factory/IdFactory.sol\":5293:5309  address identity */\n      0x00\n        /* \"solidity-main/contracts/factory/IdFactory.sol\":5312:5379  _deployIdentity(tokenIdSalt, _implementationAuthority, _tokenOwner) */\n      tag_121\n        /* \"solidity-main/contracts/factory/IdFactory.sol\":5328:5339  tokenIdSalt */\n      dup3\n        /* \"solidity-main/contracts/factory/IdFactory.sol\":5341:5365  _implementationAuthority */\n      immutable(\"0xb8af24a884ce251f7b69c435d70b26b4d69041695ff24aab1b55d194a3fdd883\")\n        /* \"solidity-main/contracts/factory/IdFactory.sol\":5367:5378  _tokenOwner */\n      dup8\n        /* \"solidity-main/contracts/factory/IdFactory.sol\":5312:5327  _deployIdentity */\n      tag_122\n        /* \"solidity-main/contracts/factory/IdFactory.sol\":5312:5379  _deployIdentity(tokenIdSalt, _implementationAuthority, _tokenOwner) */\n      jump\t// in\n    tag_121:\n        /* \"solidity-main/contracts/factory/IdFactory.sol\":5293:5379  address identity = _deployIdentity(tokenIdSalt, _implementationAuthority, _tokenOwner) */\n      swap1\n      pop\n        /* \"solidity-main/contracts/factory/IdFactory.sol\":5415:5419  true */\n      0x01\n        /* \"solidity-main/contracts/factory/IdFactory.sol\":5389:5399  _saltTaken */\n      0x02\n        /* \"solidity-main/contracts/factory/IdFactory.sol\":5400:5411  tokenIdSalt */\n      dup4\n        /* \"solidity-main/contracts/factory/IdFactory.sol\":5389:5412  _saltTaken[tokenIdSalt] */\n      mload(0x40)\n      tag_123\n      swap2\n      swap1\n      tag_114\n      jump\t// in\n    tag_123:\n      swap1\n      dup2\n      mstore\n      0x20\n      add\n      mload(0x40)\n      dup1\n      swap2\n      sub\n      swap1\n      keccak256\n      0x00\n        /* \"solidity-main/contracts/factory/IdFactory.sol\":5389:5419  _saltTaken[tokenIdSalt] = true */\n      0x0100\n      exp\n      dup2\n      sload\n      dup2\n      0xff\n      mul\n      not\n      and\n      swap1\n      dup4\n      iszero\n      iszero\n      mul\n      or\n      swap1\n      sstore\n      pop\n        /* \"solidity-main/contracts/factory/IdFactory.sol\":5454:5462  identity */\n      dup1\n        /* \"solidity-main/contracts/factory/IdFactory.sol\":5429:5443  _tokenIdentity */\n      0x05\n        /* \"solidity-main/contracts/factory/IdFactory.sol\":5429:5451  _tokenIdentity[_token] */\n      0x00\n        /* \"solidity-main/contracts/factory/IdFactory.sol\":5444:5450  _token */\n      dup9\n        /* \"solidity-main/contracts/factory/IdFactory.sol\":5429:5451  _tokenIdentity[_token] */\n      0xffffffffffffffffffffffffffffffffffffffff\n      and\n      0xffffffffffffffffffffffffffffffffffffffff\n      and\n      dup2\n      mstore\n      0x20\n      add\n      swap1\n      dup2\n      mstore\n      0x20\n      add\n      0x00\n      keccak256\n      0x00\n        /* \"solidity-main/contracts/factory/IdFactory.sol\":5429:5462  _tokenIdentity[_token] = identity */\n      0x0100\n      exp\n      dup2\n      sload\n      dup2\n      0xffffffffffffffffffffffffffffffffffffffff\n      mul\n      not\n      and\n      swap1\n      dup4\n      0xffffffffffffffffffffffffffffffffffffffff\n      and\n      mul\n      or\n      swap1\n      sstore\n      pop\n        /* \"solidity-main/contracts/factory/IdFactory.sol\":5498:5504  _token */\n      dup6\n        /* \"solidity-main/contracts/factory/IdFactory.sol\":5472:5485  _tokenAddress */\n      0x06\n        /* \"solidity-main/contracts/factory/IdFactory.sol\":5472:5495  _tokenAddress[identity] */\n      0x00\n        /* \"solidity-main/contracts/factory/IdFactory.sol\":5486:5494  identity */\n      dup4\n        /* \"solidity-main/contracts/factory/IdFactory.sol\":5472:5495  _tokenAddress[identity] */\n      0xffffffffffffffffffffffffffffffffffffffff\n      and\n      0xffffffffffffffffffffffffffffffffffffffff\n      and\n      dup2\n      mstore\n      0x20\n      add\n      swap1\n      dup2\n      mstore\n      0x20\n      add\n      0x00\n      keccak256\n      0x00\n        /* \"solidity-main/contracts/factory/IdFactory.sol\":5472:5504  _tokenAddress[identity] = _token */\n      0x0100\n      exp\n      dup2\n      sload\n      dup2\n      0xffffffffffffffffffffffffffffffffffffffff\n      mul\n      not\n      and\n      swap1\n      dup4\n      0xffffffffffffffffffffffffffffffffffffffff\n      and\n      mul\n      or\n      swap1\n      sstore\n      pop\n        /* \"solidity-main/contracts/factory/IdFactory.sol\":5539:5547  identity */\n      dup1\n        /* \"solidity-main/contracts/factory/IdFactory.sol\":5519:5548  TokenLinked(_token, identity) */\n      0xffffffffffffffffffffffffffffffffffffffff\n      and\n        /* \"solidity-main/contracts/factory/IdFactory.sol\":5531:5537  _token */\n      dup7\n        /* \"solidity-main/contracts/factory/IdFactory.sol\":5519:5548  TokenLinked(_token, identity) */\n      0xffffffffffffffffffffffffffffffffffffffff\n      and\n      0xa8261d398ddc63db24cc53cd0c63c9464cabad1bc478ede2107b32c1c4010b7a\n      mload(0x40)\n      mload(0x40)\n      dup1\n      swap2\n      sub\n      swap1\n      log3\n        /* \"solidity-main/contracts/factory/IdFactory.sol\":5565:5573  identity */\n      dup1\n        /* \"solidity-main/contracts/factory/IdFactory.sol\":5558:5573  return identity */\n      swap3\n      pop\n      pop\n      pop\n        /* \"solidity-main/contracts/factory/IdFactory.sol\":4538:5580  function createTokenIdentity(... */\n      swap4\n      swap3\n      pop\n      pop\n      pop\n      jump\t// out\n        /* \"solidity-main/contracts/factory/IdFactory.sol\":8184:8310  function isTokenFactory(address _factory) public override view returns(bool) {... */\n    tag_44:\n        /* \"solidity-main/contracts/factory/IdFactory.sol\":8255:8259  bool */\n      0x00\n        /* \"solidity-main/contracts/factory/IdFactory.sol\":8278:8293  _tokenFactories */\n      0x01\n        /* \"solidity-main/contracts/factory/IdFactory.sol\":8278:8303  _tokenFactories[_factory] */\n      0x00\n        /* \"solidity-main/contracts/factory/IdFactory.sol\":8294:8302  _factory */\n      dup4\n        /* \"solidity-main/contracts/factory/IdFactory.sol\":8278:8303  _tokenFactories[_factory] */\n      0xffffffffffffffffffffffffffffffffffffffff\n      and\n      0xffffffffffffffffffffffffffffffffffffffff\n      and\n      dup2\n      mstore\n      0x20\n      add\n      swap1\n      dup2\n      mstore\n      0x20\n      add\n      0x00\n      keccak256\n      0x00\n      swap1\n      sload\n      swap1\n      0x0100\n      exp\n      swap1\n      div\n      0xff\n      and\n        /* \"solidity-main/contracts/factory/IdFactory.sol\":8271:8303  return _tokenFactories[_factory] */\n      swap1\n      pop\n        /* \"solidity-main/contracts/factory/IdFactory.sol\":8184:8310  function isTokenFactory(address _factory) public override view returns(bool) {... */\n      swap2\n      swap1\n      pop\n      jump\t// out\n        /* \"solidity-main/contracts/factory/IdFactory.sol\":7798:7930  function getWallets(address _identity) external override view returns (address[] memory) {... */\n    tag_48:\n        /* \"solidity-main/contracts/factory/IdFactory.sol\":7869:7885  address[] memory */\n      0x60\n        /* \"solidity-main/contracts/factory/IdFactory.sol\":7904:7912  _wallets */\n      0x04\n        /* \"solidity-main/contracts/factory/IdFactory.sol\":7904:7923  _wallets[_identity] */\n      0x00\n        /* \"solidity-main/contracts/factory/IdFactory.sol\":7913:7922  _identity */\n      dup4\n        /* \"solidity-main/contracts/factory/IdFactory.sol\":7904:7923  _wallets[_identity] */\n      0xffffffffffffffffffffffffffffffffffffffff\n      and\n      0xffffffffffffffffffffffffffffffffffffffff\n      and\n      dup2\n      mstore\n      0x20\n      add\n      swap1\n      dup2\n      mstore\n      0x20\n      add\n      0x00\n      keccak256\n        /* \"solidity-main/contracts/factory/IdFactory.sol\":7897:7923  return _wallets[_identity] */\n      dup1\n      sload\n      dup1\n      0x20\n      mul\n      0x20\n      add\n      mload(0x40)\n      swap1\n      dup2\n      add\n      0x40\n      mstore\n      dup1\n      swap3\n      swap2\n      swap1\n      dup2\n      dup2\n      mstore\n      0x20\n      add\n      dup3\n      dup1\n      sload\n      dup1\n      iszero\n      tag_126\n      jumpi\n      0x20\n      mul\n      dup3\n      add\n      swap2\n      swap1\n      0x00\n      mstore\n      keccak256(0x00, 0x20)\n      swap1\n    tag_127:\n      dup2\n      0x00\n      swap1\n      sload\n      swap1\n      0x0100\n      exp\n      swap1\n      div\n      0xffffffffffffffffffffffffffffffffffffffff\n      and\n      0xffffffffffffffffffffffffffffffffffffffff\n      and\n      dup2\n      mstore\n      0x20\n      add\n      swap1\n      0x01\n      add\n      swap1\n      dup1\n      dup4\n      gt\n      tag_127\n      jumpi\n    tag_126:\n      pop\n      pop\n      pop\n      pop\n      pop\n      swap1\n      pop\n        /* \"solidity-main/contracts/factory/IdFactory.sol\":7798:7930  function getWallets(address _identity) external override view returns (address[] memory) {... */\n      swap2\n      swap1\n      pop\n      jump\t// out\n        /* \"solidity-main/contracts/factory/IdFactory.sol\":6421:7224  function unlinkWallet(address _oldWallet) external override {... */\n    tag_53:\n        /* \"solidity-main/contracts/factory/IdFactory.sol\":6521:6522  0 */\n      0x00\n        /* \"solidity-main/contracts/factory/IdFactory.sol\":6499:6523  _oldWallet != address(0) */\n      0xffffffffffffffffffffffffffffffffffffffff\n      and\n        /* \"solidity-main/contracts/factory/IdFactory.sol\":6499:6509  _oldWallet */\n      dup2\n        /* \"solidity-main/contracts/factory/IdFactory.sol\":6499:6523  _oldWallet != address(0) */\n      0xffffffffffffffffffffffffffffffffffffffff\n      and\n      sub\n        /* \"solidity-main/contracts/factory/IdFactory.sol\":6491:6559  require(_oldWallet != address(0), \"invalid argument - zero address\") */\n      tag_129\n      jumpi\n      mload(0x40)\n      0x08c379a000000000000000000000000000000000000000000000000000000000\n      dup2\n      mstore\n      0x04\n      add\n      tag_130\n      swap1\n      tag_101\n      jump\t// in\n    tag_130:\n      mload(0x40)\n      dup1\n      swap2\n      sub\n      swap1\n      revert\n    tag_129:\n        /* \"solidity-main/contracts/factory/IdFactory.sol\":6591:6601  msg.sender */\n      caller\n        /* \"solidity-main/contracts/factory/IdFactory.sol\":6577:6601  _oldWallet != msg.sender */\n      0xffffffffffffffffffffffffffffffffffffffff\n      and\n        /* \"solidity-main/contracts/factory/IdFactory.sol\":6577:6587  _oldWallet */\n      dup2\n        /* \"solidity-main/contracts/factory/IdFactory.sol\":6577:6601  _oldWallet != msg.sender */\n      0xffffffffffffffffffffffffffffffffffffffff\n      and\n      sub\n        /* \"solidity-main/contracts/factory/IdFactory.sol\":6569:6640  require(_oldWallet != msg.sender, \"cannot be called on sender address\") */\n      tag_131\n      jumpi\n      mload(0x40)\n      0x08c379a000000000000000000000000000000000000000000000000000000000\n      dup2\n      mstore\n      0x04\n      add\n      tag_132\n      swap1\n      tag_133\n      jump\t// in\n    tag_132:\n      mload(0x40)\n      dup1\n      swap2\n      sub\n      swap1\n      revert\n    tag_131:\n        /* \"solidity-main/contracts/factory/IdFactory.sol\":6687:6700  _userIdentity */\n      0x03\n        /* \"solidity-main/contracts/factory/IdFactory.sol\":6687:6712  _userIdentity[_oldWallet] */\n      0x00\n        /* \"solidity-main/contracts/factory/IdFactory.sol\":6701:6711  _oldWallet */\n      dup3\n        /* \"solidity-main/contracts/factory/IdFactory.sol\":6687:6712  _userIdentity[_oldWallet] */\n      0xffffffffffffffffffffffffffffffffffffffff\n      and\n      0xffffffffffffffffffffffffffffffffffffffff\n      and\n      dup2\n      mstore\n      0x20\n      add\n      swap1\n      dup2\n      mstore\n      0x20\n      add\n      0x00\n      keccak256\n      0x00\n      swap1\n      sload\n      swap1\n      0x0100\n      exp\n      swap1\n      div\n      0xffffffffffffffffffffffffffffffffffffffff\n      and\n        /* \"solidity-main/contracts/factory/IdFactory.sol\":6658:6712  _userIdentity[msg.sender] == _userIdentity[_oldWallet] */\n      0xffffffffffffffffffffffffffffffffffffffff\n      and\n        /* \"solidity-main/contracts/factory/IdFactory.sol\":6658:6671  _userIdentity */\n      0x03\n        /* \"solidity-main/contracts/factory/IdFactory.sol\":6658:6683  _userIdentity[msg.sender] */\n      0x00\n        /* \"solidity-main/contracts/factory/IdFactory.sol\":6672:6682  msg.sender */\n      caller\n        /* \"solidity-main/contracts/factory/IdFactory.sol\":6658:6683  _userIdentity[msg.sender] */\n      0xffffffffffffffffffffffffffffffffffffffff\n      and\n      0xffffffffffffffffffffffffffffffffffffffff\n      and\n      dup2\n      mstore\n      0x20\n      add\n      swap1\n      dup2\n      mstore\n      0x20\n      add\n      0x00\n      keccak256\n      0x00\n      swap1\n      sload\n      swap1\n      0x0100\n      exp\n      swap1\n      div\n      0xffffffffffffffffffffffffffffffffffffffff\n      and\n        /* \"solidity-main/contracts/factory/IdFactory.sol\":6658:6712  _userIdentity[msg.sender] == _userIdentity[_oldWallet] */\n      0xffffffffffffffffffffffffffffffffffffffff\n      and\n      eq\n        /* \"solidity-main/contracts/factory/IdFactory.sol\":6650:6748  require(_userIdentity[msg.sender] == _userIdentity[_oldWallet], \"only a linked wallet can unlink\") */\n      tag_134\n      jumpi\n      mload(0x40)\n      0x08c379a000000000000000000000000000000000000000000000000000000000\n      dup2\n      mstore\n      0x04\n      add\n      tag_135\n      swap1\n      tag_136\n      jump\t// in\n    tag_135:\n      mload(0x40)\n      dup1\n      swap2\n      sub\n      swap1\n      revert\n    tag_134:\n        /* \"solidity-main/contracts/factory/IdFactory.sol\":6758:6775  address _identity */\n      0x00\n        /* \"solidity-main/contracts/factory/IdFactory.sol\":6778:6791  _userIdentity */\n      0x03\n        /* \"solidity-main/contracts/factory/IdFactory.sol\":6778:6803  _userIdentity[_oldWallet] */\n      0x00\n        /* \"solidity-main/contracts/factory/IdFactory.sol\":6792:6802  _oldWallet */\n      dup4\n        /* \"solidity-main/contracts/factory/IdFactory.sol\":6778:6803  _userIdentity[_oldWallet] */\n      0xffffffffffffffffffffffffffffffffffffffff\n      and\n      0xffffffffffffffffffffffffffffffffffffffff\n      and\n      dup2\n      mstore\n      0x20\n      add\n      swap1\n      dup2\n      mstore\n      0x20\n      add\n      0x00\n      keccak256\n      0x00\n      swap1\n      sload\n      swap1\n      0x0100\n      exp\n      swap1\n      div\n      0xffffffffffffffffffffffffffffffffffffffff\n      and\n        /* \"solidity-main/contracts/factory/IdFactory.sol\":6758:6803  address _identity = _userIdentity[_oldWallet] */\n      swap1\n      pop\n        /* \"solidity-main/contracts/factory/IdFactory.sol\":6820:6833  _userIdentity */\n      0x03\n        /* \"solidity-main/contracts/factory/IdFactory.sol\":6820:6845  _userIdentity[_oldWallet] */\n      0x00\n        /* \"solidity-main/contracts/factory/IdFactory.sol\":6834:6844  _oldWallet */\n      dup4\n        /* \"solidity-main/contracts/factory/IdFactory.sol\":6820:6845  _userIdentity[_oldWallet] */\n      0xffffffffffffffffffffffffffffffffffffffff\n      and\n      0xffffffffffffffffffffffffffffffffffffffff\n      and\n      dup2\n      mstore\n      0x20\n      add\n      swap1\n      dup2\n      mstore\n      0x20\n      add\n      0x00\n      keccak256\n      0x00\n        /* \"solidity-main/contracts/factory/IdFactory.sol\":6813:6845  delete _userIdentity[_oldWallet] */\n      0x0100\n      exp\n      dup2\n      sload\n      swap1\n      0xffffffffffffffffffffffffffffffffffffffff\n      mul\n      not\n      and\n      swap1\n      sstore\n        /* \"solidity-main/contracts/factory/IdFactory.sol\":6855:6869  uint256 length */\n      0x00\n        /* \"solidity-main/contracts/factory/IdFactory.sol\":6872:6880  _wallets */\n      0x04\n        /* \"solidity-main/contracts/factory/IdFactory.sol\":6872:6891  _wallets[_identity] */\n      0x00\n        /* \"solidity-main/contracts/factory/IdFactory.sol\":6881:6890  _identity */\n      dup4\n        /* \"solidity-main/contracts/factory/IdFactory.sol\":6872:6891  _wallets[_identity] */\n      0xffffffffffffffffffffffffffffffffffffffff\n      and\n      0xffffffffffffffffffffffffffffffffffffffff\n      and\n      dup2\n      mstore\n      0x20\n      add\n      swap1\n      dup2\n      mstore\n      0x20\n      add\n      0x00\n      keccak256\n        /* \"solidity-main/contracts/factory/IdFactory.sol\":6872:6898  _wallets[_identity].length */\n      dup1\n      sload\n      swap1\n      pop\n        /* \"solidity-main/contracts/factory/IdFactory.sol\":6855:6898  uint256 length = _wallets[_identity].length */\n      swap1\n      pop\n        /* \"solidity-main/contracts/factory/IdFactory.sol\":6913:6922  uint256 i */\n      0x00\n        /* \"solidity-main/contracts/factory/IdFactory.sol\":6908:7166  for (uint256 i = 0; i < length; i++) {... */\n    tag_137:\n        /* \"solidity-main/contracts/factory/IdFactory.sol\":6932:6938  length */\n      dup2\n        /* \"solidity-main/contracts/factory/IdFactory.sol\":6928:6929  i */\n      dup2\n        /* \"solidity-main/contracts/factory/IdFactory.sol\":6928:6938  i < length */\n      lt\n        /* \"solidity-main/contracts/factory/IdFactory.sol\":6908:7166  for (uint256 i = 0; i < length; i++) {... */\n      iszero\n      tag_138\n      jumpi\n        /* \"solidity-main/contracts/factory/IdFactory.sol\":6989:6999  _oldWallet */\n      dup4\n        /* \"solidity-main/contracts/factory/IdFactory.sol\":6963:6999  _wallets[_identity][i] == _oldWallet */\n      0xffffffffffffffffffffffffffffffffffffffff\n      and\n        /* \"solidity-main/contracts/factory/IdFactory.sol\":6963:6971  _wallets */\n      0x04\n        /* \"solidity-main/contracts/factory/IdFactory.sol\":6963:6982  _wallets[_identity] */\n      0x00\n        /* \"solidity-main/contracts/factory/IdFactory.sol\":6972:6981  _identity */\n      dup6\n        /* \"solidity-main/contracts/factory/IdFactory.sol\":6963:6982  _wallets[_identity] */\n      0xffffffffffffffffffffffffffffffffffffffff\n      and\n      0xffffffffffffffffffffffffffffffffffffffff\n      and\n      dup2\n      mstore\n      0x20\n      add\n      swap1\n      dup2\n      mstore\n      0x20\n      add\n      0x00\n      keccak256\n        /* \"solidity-main/contracts/factory/IdFactory.sol\":6983:6984  i */\n      dup3\n        /* \"solidity-main/contracts/factory/IdFactory.sol\":6963:6985  _wallets[_identity][i] */\n      dup2\n      sload\n      dup2\n      lt\n      tag_140\n      jumpi\n      tag_141\n      tag_142\n      jump\t// in\n    tag_141:\n    tag_140:\n      swap1\n      0x00\n      mstore\n      keccak256(0x00, 0x20)\n      add\n      0x00\n      swap1\n      sload\n      swap1\n      0x0100\n      exp\n      swap1\n      div\n      0xffffffffffffffffffffffffffffffffffffffff\n      and\n        /* \"solidity-main/contracts/factory/IdFactory.sol\":6963:6999  _wallets[_identity][i] == _oldWallet */\n      0xffffffffffffffffffffffffffffffffffffffff\n      and\n      sub\n        /* \"solidity-main/contracts/factory/IdFactory.sol\":6959:7156  if (_wallets[_identity][i] == _oldWallet) {... */\n      tag_144\n      jumpi\n        /* \"solidity-main/contracts/factory/IdFactory.sol\":7044:7052  _wallets */\n      0x04\n        /* \"solidity-main/contracts/factory/IdFactory.sol\":7044:7063  _wallets[_identity] */\n      0x00\n        /* \"solidity-main/contracts/factory/IdFactory.sol\":7053:7062  _identity */\n      dup5\n        /* \"solidity-main/contracts/factory/IdFactory.sol\":7044:7063  _wallets[_identity] */\n      0xffffffffffffffffffffffffffffffffffffffff\n      and\n      0xffffffffffffffffffffffffffffffffffffffff\n      and\n      dup2\n      mstore\n      0x20\n      add\n      swap1\n      dup2\n      mstore\n      0x20\n      add\n      0x00\n      keccak256\n        /* \"solidity-main/contracts/factory/IdFactory.sol\":7073:7074  1 */\n      0x01\n        /* \"solidity-main/contracts/factory/IdFactory.sol\":7064:7070  length */\n      dup4\n        /* \"solidity-main/contracts/factory/IdFactory.sol\":7064:7074  length - 1 */\n      tag_145\n      swap2\n      swap1\n      tag_146\n      jump\t// in\n    tag_145:\n        /* \"solidity-main/contracts/factory/IdFactory.sol\":7044:7075  _wallets[_identity][length - 1] */\n      dup2\n      sload\n      dup2\n      lt\n      tag_147\n      jumpi\n      tag_148\n      tag_142\n      jump\t// in\n    tag_148:\n    tag_147:\n      swap1\n      0x00\n      mstore\n      keccak256(0x00, 0x20)\n      add\n      0x00\n      swap1\n      sload\n      swap1\n      0x0100\n      exp\n      swap1\n      div\n      0xffffffffffffffffffffffffffffffffffffffff\n      and\n        /* \"solidity-main/contracts/factory/IdFactory.sol\":7019:7027  _wallets */\n      0x04\n        /* \"solidity-main/contracts/factory/IdFactory.sol\":7019:7038  _wallets[_identity] */\n      0x00\n        /* \"solidity-main/contracts/factory/IdFactory.sol\":7028:7037  _identity */\n      dup6\n        /* \"solidity-main/contracts/factory/IdFactory.sol\":7019:7038  _wallets[_identity] */\n      0xffffffffffffffffffffffffffffffffffffffff\n      and\n      0xffffffffffffffffffffffffffffffffffffffff\n      and\n      dup2\n      mstore\n      0x20\n      add\n      swap1\n      dup2\n      mstore\n      0x20\n      add\n      0x00\n      keccak256\n        /* \"solidity-main/contracts/factory/IdFactory.sol\":7039:7040  i */\n      dup3\n        /* \"solidity-main/contracts/factory/IdFactory.sol\":7019:7041  _wallets[_identity][i] */\n      dup2\n      sload\n      dup2\n      lt\n      tag_150\n      jumpi\n      tag_151\n      tag_142\n      jump\t// in\n    tag_151:\n    tag_150:\n      swap1\n      0x00\n      mstore\n      keccak256(0x00, 0x20)\n      add\n      0x00\n        /* \"solidity-main/contracts/factory/IdFactory.sol\":7019:7075  _wallets[_identity][i] = _wallets[_identity][length - 1] */\n      0x0100\n      exp\n      dup2\n      sload\n      dup2\n      0xffffffffffffffffffffffffffffffffffffffff\n      mul\n      not\n      and\n      swap1\n      dup4\n      0xffffffffffffffffffffffffffffffffffffffff\n      and\n      mul\n      or\n      swap1\n      sstore\n      pop\n        /* \"solidity-main/contracts/factory/IdFactory.sol\":7093:7101  _wallets */\n      0x04\n        /* \"solidity-main/contracts/factory/IdFactory.sol\":7093:7112  _wallets[_identity] */\n      0x00\n        /* \"solidity-main/contracts/factory/IdFactory.sol\":7102:7111  _identity */\n      dup5\n        /* \"solidity-main/contracts/factory/IdFactory.sol\":7093:7112  _wallets[_identity] */\n      0xffffffffffffffffffffffffffffffffffffffff\n      and\n      0xffffffffffffffffffffffffffffffffffffffff\n      and\n      dup2\n      mstore\n      0x20\n      add\n      swap1\n      dup2\n      mstore\n      0x20\n      add\n      0x00\n      keccak256\n        /* \"solidity-main/contracts/factory/IdFactory.sol\":7093:7118  _wallets[_identity].pop() */\n      dup1\n      sload\n      dup1\n      tag_153\n      jumpi\n      tag_154\n      tag_155\n      jump\t// in\n    tag_154:\n    tag_153:\n      0x01\n      swap1\n      sub\n      dup2\n      dup2\n      swap1\n      0x00\n      mstore\n      keccak256(0x00, 0x20)\n      add\n      exp(0x0100, 0x00)\n      dup2\n      sload\n      swap1\n      0xffffffffffffffffffffffffffffffffffffffff\n      mul\n      not\n      and\n      swap1\n      sstore\n      swap1\n      sstore\n        /* \"solidity-main/contracts/factory/IdFactory.sol\":7136:7141  break */\n      jump(tag_138)\n        /* \"solidity-main/contracts/factory/IdFactory.sol\":6959:7156  if (_wallets[_identity][i] == _oldWallet) {... */\n    tag_144:\n        /* \"solidity-main/contracts/factory/IdFactory.sol\":6940:6943  i++ */\n      dup1\n      dup1\n      tag_157\n      swap1\n      tag_158\n      jump\t// in\n    tag_157:\n      swap2\n      pop\n      pop\n        /* \"solidity-main/contracts/factory/IdFactory.sol\":6908:7166  for (uint256 i = 0; i < length; i++) {... */\n      jump(tag_137)\n    tag_138:\n      pop\n        /* \"solidity-main/contracts/factory/IdFactory.sol\":7207:7216  _identity */\n      dup2\n        /* \"solidity-main/contracts/factory/IdFactory.sol\":7180:7217  WalletUnlinked(_oldWallet, _identity) */\n      0xffffffffffffffffffffffffffffffffffffffff\n      and\n        /* \"solidity-main/contracts/factory/IdFactory.sol\":7195:7205  _oldWallet */\n      dup4\n        /* \"solidity-main/contracts/factory/IdFactory.sol\":7180:7217  WalletUnlinked(_oldWallet, _identity) */\n      0xffffffffffffffffffffffffffffffffffffffff\n      and\n      0x35e6fc363a4bf723d53b26c1a751674aca9c3ead425f0591f84f5540ede86f12\n      mload(0x40)\n      mload(0x40)\n      dup1\n      swap2\n      sub\n      swap1\n      log3\n        /* \"solidity-main/contracts/factory/IdFactory.sol\":6481:7224  {... */\n      pop\n      pop\n        /* \"solidity-main/contracts/factory/IdFactory.sol\":6421:7224  function unlinkWallet(address _oldWallet) external override {... */\n      pop\n      jump\t// out\n        /* \"solidity-main/contracts/factory/IdFactory.sol\":7991:8117  function getToken(address _identity) external override view returns (address) {... */\n    tag_56:\n        /* \"solidity-main/contracts/factory/IdFactory.sol\":8060:8067  address */\n      0x00\n        /* \"solidity-main/contracts/factory/IdFactory.sol\":8086:8099  _tokenAddress */\n      0x06\n        /* \"solidity-main/contracts/factory/IdFactory.sol\":8086:8110  _tokenAddress[_identity] */\n      0x00\n        /* \"solidity-main/contracts/factory/IdFactory.sol\":8100:8109  _identity */\n      dup4\n        /* \"solidity-main/contracts/factory/IdFactory.sol\":8086:8110  _tokenAddress[_identity] */\n      0xffffffffffffffffffffffffffffffffffffffff\n      and\n      0xffffffffffffffffffffffffffffffffffffffff\n      and\n      dup2\n      mstore\n      0x20\n      add\n      swap1\n      dup2\n      mstore\n      0x20\n      add\n      0x00\n      keccak256\n      0x00\n      swap1\n      sload\n      swap1\n      0x0100\n      exp\n      swap1\n      div\n      0xffffffffffffffffffffffffffffffffffffffff\n      and\n        /* \"solidity-main/contracts/factory/IdFactory.sol\":8079:8110  return _tokenAddress[_identity] */\n      swap1\n      pop\n        /* \"solidity-main/contracts/factory/IdFactory.sol\":7991:8117  function getToken(address _identity) external override view returns (address) {... */\n      swap2\n      swap1\n      pop\n      jump\t// out\n        /* \"@openzeppelin/contracts/access/Ownable.sol\":2293:2394  function renounceOwnership() public virtual onlyOwner {... */\n    tag_59:\n        /* \"@openzeppelin/contracts/access/Ownable.sol\":1531:1544  _checkOwner() */\n      tag_161\n        /* \"@openzeppelin/contracts/access/Ownable.sol\":1531:1542  _checkOwner */\n      tag_162\n        /* \"@openzeppelin/contracts/access/Ownable.sol\":1531:1544  _checkOwner() */\n      jump\t// in\n    tag_161:\n        /* \"@openzeppelin/contracts/access/Ownable.sol\":2357:2387  _transferOwnership(address(0)) */\n      tag_164\n        /* \"@openzeppelin/contracts/access/Ownable.sol\":2384:2385  0 */\n      0x00\n        /* \"@openzeppelin/contracts/access/Ownable.sol\":2357:2375  _transferOwnership */\n      tag_165\n        /* \"@openzeppelin/contracts/access/Ownable.sol\":2357:2387  _transferOwnership(address(0)) */\n      jump\t// in\n    tag_164:\n        /* \"@openzeppelin/contracts/access/Ownable.sol\":2293:2394  function renounceOwnership() public virtual onlyOwner {... */\n      jump\t// out\n        /* \"@openzeppelin/contracts/access/Ownable.sol\":1638:1723  function owner() public view virtual returns (address) {... */\n    tag_61:\n        /* \"@openzeppelin/contracts/access/Ownable.sol\":1684:1691  address */\n      0x00\n        /* \"@openzeppelin/contracts/access/Ownable.sol\":1710:1716  _owner */\n      dup1\n      0x00\n      swap1\n      sload\n      swap1\n      0x0100\n      exp\n      swap1\n      div\n      0xffffffffffffffffffffffffffffffffffffffff\n      and\n        /* \"@openzeppelin/contracts/access/Ownable.sol\":1703:1716  return _owner */\n      swap1\n      pop\n        /* \"@openzeppelin/contracts/access/Ownable.sol\":1638:1723  function owner() public view virtual returns (address) {... */\n      swap1\n      jump\t// out\n        /* \"solidity-main/contracts/factory/IdFactory.sol\":2103:2923  function createIdentity(... */\n    tag_66:\n        /* \"solidity-main/contracts/factory/IdFactory.sol\":2223:2230  address */\n      0x00\n        /* \"@openzeppelin/contracts/access/Ownable.sol\":1531:1544  _checkOwner() */\n      tag_168\n        /* \"@openzeppelin/contracts/access/Ownable.sol\":1531:1542  _checkOwner */\n      tag_162\n        /* \"@openzeppelin/contracts/access/Ownable.sol\":1531:1544  _checkOwner() */\n      jump\t// in\n    tag_168:\n        /* \"solidity-main/contracts/factory/IdFactory.sol\":2269:2270  0 */\n      0x00\n        /* \"solidity-main/contracts/factory/IdFactory.sol\":2250:2271  _wallet != address(0) */\n      0xffffffffffffffffffffffffffffffffffffffff\n      and\n        /* \"solidity-main/contracts/factory/IdFactory.sol\":2250:2257  _wallet */\n      dup4\n        /* \"solidity-main/contracts/factory/IdFactory.sol\":2250:2271  _wallet != address(0) */\n      0xffffffffffffffffffffffffffffffffffffffff\n      and\n      sub\n        /* \"solidity-main/contracts/factory/IdFactory.sol\":2242:2307  require(_wallet != address(0), \"invalid argument - zero address\") */\n      tag_170\n      jumpi\n      mload(0x40)\n      0x08c379a000000000000000000000000000000000000000000000000000000000\n      dup2\n      mstore\n      0x04\n      add\n      tag_171\n      swap1\n      tag_101\n      jump\t// in\n    tag_171:\n      mload(0x40)\n      dup1\n      swap2\n      sub\n      swap1\n      revert\n    tag_170:\n        /* \"solidity-main/contracts/factory/IdFactory.sol\":2367:2381  abi.encode(\"\") */\n      add(0x20, mload(0x40))\n      tag_172\n      swap1\n      tag_105\n      jump\t// in\n    tag_172:\n      mload(0x40)\n      0x20\n      dup2\n      dup4\n      sub\n      sub\n      dup2\n      mstore\n      swap1\n      0x40\n      mstore\n        /* \"solidity-main/contracts/factory/IdFactory.sol\":2357:2382  keccak256(abi.encode(\"\")) */\n      dup1\n      mload\n      swap1\n      0x20\n      add\n      keccak256\n        /* \"solidity-main/contracts/factory/IdFactory.sol\":2346:2351  _salt */\n      dup3\n        /* \"solidity-main/contracts/factory/IdFactory.sol\":2335:2352  abi.encode(_salt) */\n      add(0x20, mload(0x40))\n      tag_173\n      swap2\n      swap1\n      tag_107\n      jump\t// in\n    tag_173:\n      mload(0x40)\n      0x20\n      dup2\n      dup4\n      sub\n      sub\n      dup2\n      mstore\n      swap1\n      0x40\n      mstore\n        /* \"solidity-main/contracts/factory/IdFactory.sol\":2325:2353  keccak256(abi.encode(_salt)) */\n      dup1\n      mload\n      swap1\n      0x20\n      add\n      keccak256\n        /* \"solidity-main/contracts/factory/IdFactory.sol\":2325:2382  keccak256(abi.encode(_salt)) != keccak256(abi.encode(\"\")) */\n      sub\n        /* \"solidity-main/contracts/factory/IdFactory.sol\":2317:2418  require(keccak256(abi.encode(_salt)) != keccak256(abi.encode(\"\")), \"invalid argument - empty string\") */\n      tag_174\n      jumpi\n      mload(0x40)\n      0x08c379a000000000000000000000000000000000000000000000000000000000\n      dup2\n      mstore\n      0x04\n      add\n      tag_175\n      swap1\n      tag_110\n      jump\t// in\n    tag_175:\n      mload(0x40)\n      dup1\n      swap2\n      sub\n      swap1\n      revert\n    tag_174:\n        /* \"solidity-main/contracts/factory/IdFactory.sol\":2428:2449  string memory oidSalt */\n      0x00\n        /* \"solidity-main/contracts/factory/IdFactory.sol\":2472:2477  _salt */\n      dup3\n        /* \"solidity-main/contracts/factory/IdFactory.sol\":2452:2478  string.concat(\"OID\",_salt) */\n      add(0x20, mload(0x40))\n      tag_176\n      swap2\n      swap1\n      tag_177\n      jump\t// in\n    tag_176:\n      mload(0x40)\n      0x20\n      dup2\n      dup4\n      sub\n      sub\n      dup2\n      mstore\n      swap1\n      0x40\n      mstore\n        /* \"solidity-main/contracts/factory/IdFactory.sol\":2428:2478  string memory oidSalt = string.concat(\"OID\",_salt) */\n      swap1\n      pop\n        /* \"solidity-main/contracts/factory/IdFactory.sol\":2498:2508  _saltTaken */\n      0x02\n        /* \"solidity-main/contracts/factory/IdFactory.sol\":2509:2516  oidSalt */\n      dup2\n        /* \"solidity-main/contracts/factory/IdFactory.sol\":2498:2517  _saltTaken[oidSalt] */\n      mload(0x40)\n      tag_178\n      swap2\n      swap1\n      tag_114\n      jump\t// in\n    tag_178:\n      swap1\n      dup2\n      mstore\n      0x20\n      add\n      mload(0x40)\n      dup1\n      swap2\n      sub\n      swap1\n      keccak256\n      0x00\n      swap1\n      sload\n      swap1\n      0x0100\n      exp\n      swap1\n      div\n      0xff\n      and\n        /* \"solidity-main/contracts/factory/IdFactory.sol\":2497:2517  !_saltTaken[oidSalt] */\n      iszero\n        /* \"solidity-main/contracts/factory/IdFactory.sol\":2488:2540  require (!_saltTaken[oidSalt], \"salt already taken\") */\n      tag_179\n      jumpi\n      mload(0x40)\n      0x08c379a000000000000000000000000000000000000000000000000000000000\n      dup2\n      mstore\n      0x04\n      add\n      tag_180\n      swap1\n      tag_117\n      jump\t// in\n    tag_180:\n      mload(0x40)\n      dup1\n      swap2\n      sub\n      swap1\n      revert\n    tag_179:\n        /* \"solidity-main/contracts/factory/IdFactory.sol\":2593:2594  0 */\n      0x00\n        /* \"solidity-main/contracts/factory/IdFactory.sol\":2559:2595  _userIdentity[_wallet] == address(0) */\n      0xffffffffffffffffffffffffffffffffffffffff\n      and\n        /* \"solidity-main/contracts/factory/IdFactory.sol\":2559:2572  _userIdentity */\n      0x03\n        /* \"solidity-main/contracts/factory/IdFactory.sol\":2559:2581  _userIdentity[_wallet] */\n      0x00\n        /* \"solidity-main/contracts/factory/IdFactory.sol\":2573:2580  _wallet */\n      dup7\n        /* \"solidity-main/contracts/factory/IdFactory.sol\":2559:2581  _userIdentity[_wallet] */\n      0xffffffffffffffffffffffffffffffffffffffff\n      and\n      0xffffffffffffffffffffffffffffffffffffffff\n      and\n      dup2\n      mstore\n      0x20\n      add\n      swap1\n      dup2\n      mstore\n      0x20\n      add\n      0x00\n      keccak256\n      0x00\n      swap1\n      sload\n      swap1\n      0x0100\n      exp\n      swap1\n      div\n      0xffffffffffffffffffffffffffffffffffffffff\n      and\n        /* \"solidity-main/contracts/factory/IdFactory.sol\":2559:2595  _userIdentity[_wallet] == address(0) */\n      0xffffffffffffffffffffffffffffffffffffffff\n      and\n      eq\n        /* \"solidity-main/contracts/factory/IdFactory.sol\":2550:2636  require (_userIdentity[_wallet] == address(0), \"wallet already linked to an identity\") */\n      tag_181\n      jumpi\n      mload(0x40)\n      0x08c379a000000000000000000000000000000000000000000000000000000000\n      dup2\n      mstore\n      0x04\n      add\n      tag_182\n      swap1\n      tag_183\n      jump\t// in\n    tag_182:\n      mload(0x40)\n      dup1\n      swap2\n      sub\n      swap1\n      revert\n    tag_181:\n        /* \"solidity-main/contracts/factory/IdFactory.sol\":2646:2662  address identity */\n      0x00\n        /* \"solidity-main/contracts/factory/IdFactory.sol\":2665:2724  _deployIdentity(oidSalt, _implementationAuthority, _wallet) */\n      tag_184\n        /* \"solidity-main/contracts/factory/IdFactory.sol\":2681:2688  oidSalt */\n      dup3\n        /* \"solidity-main/contracts/factory/IdFactory.sol\":2690:2714  _implementationAuthority */\n      immutable(\"0xb8af24a884ce251f7b69c435d70b26b4d69041695ff24aab1b55d194a3fdd883\")\n        /* \"solidity-main/contracts/factory/IdFactory.sol\":2716:2723  _wallet */\n      dup8\n        /* \"solidity-main/contracts/factory/IdFactory.sol\":2665:2680  _deployIdentity */\n      tag_122\n        /* \"solidity-main/contracts/factory/IdFactory.sol\":2665:2724  _deployIdentity(oidSalt, _implementationAuthority, _wallet) */\n      jump\t// in\n    tag_184:\n        /* \"solidity-main/contracts/factory/IdFactory.sol\":2646:2724  address identity = _deployIdentity(oidSalt, _implementationAuthority, _wallet) */\n      swap1\n      pop\n        /* \"solidity-main/contracts/factory/IdFactory.sol\":2756:2760  true */\n      0x01\n        /* \"solidity-main/contracts/factory/IdFactory.sol\":2734:2744  _saltTaken */\n      0x02\n        /* \"solidity-main/contracts/factory/IdFactory.sol\":2745:2752  oidSalt */\n      dup4\n        /* \"solidity-main/contracts/factory/IdFactory.sol\":2734:2753  _saltTaken[oidSalt] */\n      mload(0x40)\n      tag_185\n      swap2\n      swap1\n      tag_114\n      jump\t// in\n    tag_185:\n      swap1\n      dup2\n      mstore\n      0x20\n      add\n      mload(0x40)\n      dup1\n      swap2\n      sub\n      swap1\n      keccak256\n      0x00\n        /* \"solidity-main/contracts/factory/IdFactory.sol\":2734:2760  _saltTaken[oidSalt] = true */\n      0x0100\n      exp\n      dup2\n      sload\n      dup2\n      0xff\n      mul\n      not\n      and\n      swap1\n      dup4\n      iszero\n      iszero\n      mul\n      or\n      swap1\n      sstore\n      pop\n        /* \"solidity-main/contracts/factory/IdFactory.sol\":2795:2803  identity */\n      dup1\n        /* \"solidity-main/contracts/factory/IdFactory.sol\":2770:2783  _userIdentity */\n      0x03\n        /* \"solidity-main/contracts/factory/IdFactory.sol\":2770:2792  _userIdentity[_wallet] */\n      0x00\n        /* \"solidity-main/contracts/factory/IdFactory.sol\":2784:2791  _wallet */\n      dup8\n        /* \"solidity-main/contracts/factory/IdFactory.sol\":2770:2792  _userIdentity[_wallet] */\n      0xffffffffffffffffffffffffffffffffffffffff\n      and\n      0xffffffffffffffffffffffffffffffffffffffff\n      and\n      dup2\n      mstore\n      0x20\n      add\n      swap1\n      dup2\n      mstore\n      0x20\n      add\n      0x00\n      keccak256\n      0x00\n        /* \"solidity-main/contracts/factory/IdFactory.sol\":2770:2803  _userIdentity[_wallet] = identity */\n      0x0100\n      exp\n      dup2\n      sload\n      dup2\n      0xffffffffffffffffffffffffffffffffffffffff\n      mul\n      not\n      and\n      swap1\n      dup4\n      0xffffffffffffffffffffffffffffffffffffffff\n      and\n      mul\n      or\n      swap1\n      sstore\n      pop\n        /* \"solidity-main/contracts/factory/IdFactory.sol\":2813:2821  _wallets */\n      0x04\n        /* \"solidity-main/contracts/factory/IdFactory.sol\":2813:2831  _wallets[identity] */\n      0x00\n        /* \"solidity-main/contracts/factory/IdFactory.sol\":2822:2830  identity */\n      dup3\n        /* \"solidity-main/contracts/factory/IdFactory.sol\":2813:2831  _wallets[identity] */\n      0xffffffffffffffffffffffffffffffffffffffff\n      and\n      0xffffffffffffffffffffffffffffffffffffffff\n      and\n      dup2\n      mstore\n      0x20\n      add\n      swap1\n      dup2\n      mstore\n      0x20\n      add\n      0x00\n      keccak256\n        /* \"solidity-main/contracts/factory/IdFactory.sol\":2837:2844  _wallet */\n      dup6\n        /* \"solidity-main/contracts/factory/IdFactory.sol\":2813:2845  _wallets[identity].push(_wallet) */\n      swap1\n      dup1\n      0x01\n      dup2\n      sload\n      add\n      dup1\n      dup3\n      sstore\n      dup1\n      swap2\n      pop\n      pop\n      0x01\n      swap1\n      sub\n      swap1\n      0x00\n      mstore\n      keccak256(0x00, 0x20)\n      add\n      0x00\n      swap1\n      swap2\n      swap1\n      swap2\n      swap1\n      swap2\n      0x0100\n      exp\n      dup2\n      sload\n      dup2\n      0xffffffffffffffffffffffffffffffffffffffff\n      mul\n      not\n      and\n      swap1\n      dup4\n      0xffffffffffffffffffffffffffffffffffffffff\n      and\n      mul\n      or\n      swap1\n      sstore\n      pop\n        /* \"solidity-main/contracts/factory/IdFactory.sol\":2882:2890  identity */\n      dup1\n        /* \"solidity-main/contracts/factory/IdFactory.sol\":2860:2891  WalletLinked(_wallet, identity) */\n      0xffffffffffffffffffffffffffffffffffffffff\n      and\n        /* \"solidity-main/contracts/factory/IdFactory.sol\":2873:2880  _wallet */\n      dup6\n        /* \"solidity-main/contracts/factory/IdFactory.sol\":2860:2891  WalletLinked(_wallet, identity) */\n      0xffffffffffffffffffffffffffffffffffffffff\n      and\n      0x8e0c709111388f5480579514d86663489ab1f206fe6da1a0c4d03ac8c318b3c6\n      mload(0x40)\n      mload(0x40)\n      dup1\n      swap2\n      sub\n      swap1\n      log3\n        /* \"solidity-main/contracts/factory/IdFactory.sol\":2908:2916  identity */\n      dup1\n        /* \"solidity-main/contracts/factory/IdFactory.sol\":2901:2916  return identity */\n      swap3\n      pop\n      pop\n      pop\n        /* \"solidity-main/contracts/factory/IdFactory.sol\":2103:2923  function createIdentity(... */\n      swap3\n      swap2\n      pop\n      pop\n      jump\t// out\n        /* \"solidity-main/contracts/factory/IdFactory.sol\":1732:2036  function removeTokenFactory(address _factory) external override onlyOwner {... */\n    tag_70:\n        /* \"@openzeppelin/contracts/access/Ownable.sol\":1531:1544  _checkOwner() */\n      tag_188\n        /* \"@openzeppelin/contracts/access/Ownable.sol\":1531:1542  _checkOwner */\n      tag_162\n        /* \"@openzeppelin/contracts/access/Ownable.sol\":1531:1544  _checkOwner() */\n      jump\t// in\n    tag_188:\n        /* \"solidity-main/contracts/factory/IdFactory.sol\":1844:1845  0 */\n      0x00\n        /* \"solidity-main/contracts/factory/IdFactory.sol\":1824:1846  _factory != address(0) */\n      0xffffffffffffffffffffffffffffffffffffffff\n      and\n        /* \"solidity-main/contracts/factory/IdFactory.sol\":1824:1832  _factory */\n      dup2\n        /* \"solidity-main/contracts/factory/IdFactory.sol\":1824:1846  _factory != address(0) */\n      0xffffffffffffffffffffffffffffffffffffffff\n      and\n      sub\n        /* \"solidity-main/contracts/factory/IdFactory.sol\":1816:1882  require(_factory != address(0), \"invalid argument - zero address\") */\n      tag_190\n      jumpi\n      mload(0x40)\n      0x08c379a000000000000000000000000000000000000000000000000000000000\n      dup2\n      mstore\n      0x04\n      add\n      tag_191\n      swap1\n      tag_101\n      jump\t// in\n    tag_191:\n      mload(0x40)\n      dup1\n      swap2\n      sub\n      swap1\n      revert\n    tag_190:\n        /* \"solidity-main/contracts/factory/IdFactory.sol\":1900:1924  isTokenFactory(_factory) */\n      tag_192\n        /* \"solidity-main/contracts/factory/IdFactory.sol\":1915:1923  _factory */\n      dup2\n        /* \"solidity-main/contracts/factory/IdFactory.sol\":1900:1914  isTokenFactory */\n      tag_44\n        /* \"solidity-main/contracts/factory/IdFactory.sol\":1900:1924  isTokenFactory(_factory) */\n      jump\t// in\n    tag_192:\n        /* \"solidity-main/contracts/factory/IdFactory.sol\":1892:1942  require(isTokenFactory(_factory), \"not a factory\") */\n      tag_193\n      jumpi\n      mload(0x40)\n      0x08c379a000000000000000000000000000000000000000000000000000000000\n      dup2\n      mstore\n      0x04\n      add\n      tag_194\n      swap1\n      tag_195\n      jump\t// in\n    tag_194:\n      mload(0x40)\n      dup1\n      swap2\n      sub\n      swap1\n      revert\n    tag_193:\n        /* \"solidity-main/contracts/factory/IdFactory.sol\":1980:1985  false */\n      0x00\n        /* \"solidity-main/contracts/factory/IdFactory.sol\":1952:1967  _tokenFactories */\n      0x01\n        /* \"solidity-main/contracts/factory/IdFactory.sol\":1952:1977  _tokenFactories[_factory] */\n      0x00\n        /* \"solidity-main/contracts/factory/IdFactory.sol\":1968:1976  _factory */\n      dup4\n        /* \"solidity-main/contracts/factory/IdFactory.sol\":1952:1977  _tokenFactories[_factory] */\n      0xffffffffffffffffffffffffffffffffffffffff\n      and\n      0xffffffffffffffffffffffffffffffffffffffff\n      and\n      dup2\n      mstore\n      0x20\n      add\n      swap1\n      dup2\n      mstore\n      0x20\n      add\n      0x00\n      keccak256\n      0x00\n        /* \"solidity-main/contracts/factory/IdFactory.sol\":1952:1985  _tokenFactories[_factory] = false */\n      0x0100\n      exp\n      dup2\n      sload\n      dup2\n      0xff\n      mul\n      not\n      and\n      swap1\n      dup4\n      iszero\n      iszero\n      mul\n      or\n      swap1\n      sstore\n      pop\n        /* \"solidity-main/contracts/factory/IdFactory.sol\":2020:2028  _factory */\n      dup1\n        /* \"solidity-main/contracts/factory/IdFactory.sol\":2000:2029  TokenFactoryRemoved(_factory) */\n      0xffffffffffffffffffffffffffffffffffffffff\n      and\n      0xd1fd5274f793d20291c0abfe42e1ef63213a11b34996d485f7afb8fe01424851\n      mload(0x40)\n      mload(0x40)\n      dup1\n      swap2\n      sub\n      swap1\n      log2\n        /* \"solidity-main/contracts/factory/IdFactory.sol\":1732:2036  function removeTokenFactory(address _factory) external override onlyOwner {... */\n      pop\n      jump\t// out\n        /* \"solidity-main/contracts/factory/IdFactory.sol\":1358:1661  function addTokenFactory(address _factory) external override onlyOwner {... */\n    tag_73:\n        /* \"@openzeppelin/contracts/access/Ownable.sol\":1531:1544  _checkOwner() */\n      tag_197\n        /* \"@openzeppelin/contracts/access/Ownable.sol\":1531:1542  _checkOwner */\n      tag_162\n        /* \"@openzeppelin/contracts/access/Ownable.sol\":1531:1544  _checkOwner() */\n      jump\t// in\n    tag_197:\n        /* \"solidity-main/contracts/factory/IdFactory.sol\":1467:1468  0 */\n      0x00\n        /* \"solidity-main/contracts/factory/IdFactory.sol\":1447:1469  _factory != address(0) */\n      0xffffffffffffffffffffffffffffffffffffffff\n      and\n        /* \"solidity-main/contracts/factory/IdFactory.sol\":1447:1455  _factory */\n      dup2\n        /* \"solidity-main/contracts/factory/IdFactory.sol\":1447:1469  _factory != address(0) */\n      0xffffffffffffffffffffffffffffffffffffffff\n      and\n      sub\n        /* \"solidity-main/contracts/factory/IdFactory.sol\":1439:1505  require(_factory != address(0), \"invalid argument - zero address\") */\n      tag_199\n      jumpi\n      mload(0x40)\n      0x08c379a000000000000000000000000000000000000000000000000000000000\n      dup2\n      mstore\n      0x04\n      add\n      tag_200\n      swap1\n      tag_101\n      jump\t// in\n    tag_200:\n      mload(0x40)\n      dup1\n      swap2\n      sub\n      swap1\n      revert\n    tag_199:\n        /* \"solidity-main/contracts/factory/IdFactory.sol\":1524:1548  isTokenFactory(_factory) */\n      tag_201\n        /* \"solidity-main/contracts/factory/IdFactory.sol\":1539:1547  _factory */\n      dup2\n        /* \"solidity-main/contracts/factory/IdFactory.sol\":1524:1538  isTokenFactory */\n      tag_44\n        /* \"solidity-main/contracts/factory/IdFactory.sol\":1524:1548  isTokenFactory(_factory) */\n      jump\t// in\n    tag_201:\n        /* \"solidity-main/contracts/factory/IdFactory.sol\":1523:1548  !isTokenFactory(_factory) */\n      iszero\n        /* \"solidity-main/contracts/factory/IdFactory.sol\":1515:1570  require(!isTokenFactory(_factory), \"already a factory\") */\n      tag_202\n      jumpi\n      mload(0x40)\n      0x08c379a000000000000000000000000000000000000000000000000000000000\n      dup2\n      mstore\n      0x04\n      add\n      tag_203\n      swap1\n      tag_204\n      jump\t// in\n    tag_203:\n      mload(0x40)\n      dup1\n      swap2\n      sub\n      swap1\n      revert\n    tag_202:\n        /* \"solidity-main/contracts/factory/IdFactory.sol\":1608:1612  true */\n      0x01\n        /* \"solidity-main/contracts/factory/IdFactory.sol\":1580:1595  _tokenFactories */\n      dup1\n        /* \"solidity-main/contracts/factory/IdFactory.sol\":1580:1605  _tokenFactories[_factory] */\n      0x00\n        /* \"solidity-main/contracts/factory/IdFactory.sol\":1596:1604  _factory */\n      dup4\n        /* \"solidity-main/contracts/factory/IdFactory.sol\":1580:1605  _tokenFactories[_factory] */\n      0xffffffffffffffffffffffffffffffffffffffff\n      and\n      0xffffffffffffffffffffffffffffffffffffffff\n      and\n      dup2\n      mstore\n      0x20\n      add\n      swap1\n      dup2\n      mstore\n      0x20\n      add\n      0x00\n      keccak256\n      0x00\n        /* \"solidity-main/contracts/factory/IdFactory.sol\":1580:1612  _tokenFactories[_factory] = true */\n      0x0100\n      exp\n      dup2\n      sload\n      dup2\n      0xff\n      mul\n      not\n      and\n      swap1\n      dup4\n      iszero\n      iszero\n      mul\n      or\n      swap1\n      sstore\n      pop\n        /* \"solidity-main/contracts/factory/IdFactory.sol\":1645:1653  _factory */\n      dup1\n        /* \"solidity-main/contracts/factory/IdFactory.sol\":1627:1654  TokenFactoryAdded(_factory) */\n      0xffffffffffffffffffffffffffffffffffffffff\n      and\n      0x45eb8ac5344d2d3f306550fe6e969ca4190526313c512afed851d052bf2ab2fd\n      mload(0x40)\n      mload(0x40)\n      dup1\n      swap2\n      sub\n      swap1\n      log2\n        /* \"solidity-main/contracts/factory/IdFactory.sol\":1358:1661  function addTokenFactory(address _factory) external override onlyOwner {... */\n      pop\n      jump\t// out\n        /* \"solidity-main/contracts/factory/IdFactory.sol\":5643:6356  function linkWallet(address _newWallet) external override {... */\n    tag_76:\n        /* \"solidity-main/contracts/factory/IdFactory.sol\":5741:5742  0 */\n      0x00\n        /* \"solidity-main/contracts/factory/IdFactory.sol\":5719:5743  _newWallet != address(0) */\n      0xffffffffffffffffffffffffffffffffffffffff\n      and\n        /* \"solidity-main/contracts/factory/IdFactory.sol\":5719:5729  _newWallet */\n      dup2\n        /* \"solidity-main/contracts/factory/IdFactory.sol\":5719:5743  _newWallet != address(0) */\n      0xffffffffffffffffffffffffffffffffffffffff\n      and\n      sub\n        /* \"solidity-main/contracts/factory/IdFactory.sol\":5711:5779  require(_newWallet != address(0), \"invalid argument - zero address\") */\n      tag_206\n      jumpi\n      mload(0x40)\n      0x08c379a000000000000000000000000000000000000000000000000000000000\n      dup2\n      mstore\n      0x04\n      add\n      tag_207\n      swap1\n      tag_101\n      jump\t// in\n    tag_207:\n      mload(0x40)\n      dup1\n      swap2\n      sub\n      swap1\n      revert\n    tag_206:\n        /* \"solidity-main/contracts/factory/IdFactory.sol\":5834:5835  0 */\n      0x00\n        /* \"solidity-main/contracts/factory/IdFactory.sol\":5797:5836  _userIdentity[msg.sender] != address(0) */\n      0xffffffffffffffffffffffffffffffffffffffff\n      and\n        /* \"solidity-main/contracts/factory/IdFactory.sol\":5797:5810  _userIdentity */\n      0x03\n        /* \"solidity-main/contracts/factory/IdFactory.sol\":5797:5822  _userIdentity[msg.sender] */\n      0x00\n        /* \"solidity-main/contracts/factory/IdFactory.sol\":5811:5821  msg.sender */\n      caller\n        /* \"solidity-main/contracts/factory/IdFactory.sol\":5797:5822  _userIdentity[msg.sender] */\n      0xffffffffffffffffffffffffffffffffffffffff\n      and\n      0xffffffffffffffffffffffffffffffffffffffff\n      and\n      dup2\n      mstore\n      0x20\n      add\n      swap1\n      dup2\n      mstore\n      0x20\n      add\n      0x00\n      keccak256\n      0x00\n      swap1\n      sload\n      swap1\n      0x0100\n      exp\n      swap1\n      div\n      0xffffffffffffffffffffffffffffffffffffffff\n      and\n        /* \"solidity-main/contracts/factory/IdFactory.sol\":5797:5836  _userIdentity[msg.sender] != address(0) */\n      0xffffffffffffffffffffffffffffffffffffffff\n      and\n      sub\n        /* \"solidity-main/contracts/factory/IdFactory.sol\":5789:5882  require(_userIdentity[msg.sender] != address(0), \"wallet not linked to an identity contract\") */\n      tag_208\n      jumpi\n      mload(0x40)\n      0x08c379a000000000000000000000000000000000000000000000000000000000\n      dup2\n      mstore\n      0x04\n      add\n      tag_209\n      swap1\n      tag_210\n      jump\t// in\n    tag_209:\n      mload(0x40)\n      dup1\n      swap2\n      sub\n      swap1\n      revert\n    tag_208:\n        /* \"solidity-main/contracts/factory/IdFactory.sol\":5937:5938  0 */\n      0x00\n        /* \"solidity-main/contracts/factory/IdFactory.sol\":5900:5939  _userIdentity[_newWallet] == address(0) */\n      0xffffffffffffffffffffffffffffffffffffffff\n      and\n        /* \"solidity-main/contracts/factory/IdFactory.sol\":5900:5913  _userIdentity */\n      0x03\n        /* \"solidity-main/contracts/factory/IdFactory.sol\":5900:5925  _userIdentity[_newWallet] */\n      0x00\n        /* \"solidity-main/contracts/factory/IdFactory.sol\":5914:5924  _newWallet */\n      dup4\n        /* \"solidity-main/contracts/factory/IdFactory.sol\":5900:5925  _userIdentity[_newWallet] */\n      0xffffffffffffffffffffffffffffffffffffffff\n      and\n      0xffffffffffffffffffffffffffffffffffffffff\n      and\n      dup2\n      mstore\n      0x20\n      add\n      swap1\n      dup2\n      mstore\n      0x20\n      add\n      0x00\n      keccak256\n      0x00\n      swap1\n      sload\n      swap1\n      0x0100\n      exp\n      swap1\n      div\n      0xffffffffffffffffffffffffffffffffffffffff\n      and\n        /* \"solidity-main/contracts/factory/IdFactory.sol\":5900:5939  _userIdentity[_newWallet] == address(0) */\n      0xffffffffffffffffffffffffffffffffffffffff\n      and\n      eq\n        /* \"solidity-main/contracts/factory/IdFactory.sol\":5892:5969  require(_userIdentity[_newWallet] == address(0), \"new wallet already linked\") */\n      tag_211\n      jumpi\n      mload(0x40)\n      0x08c379a000000000000000000000000000000000000000000000000000000000\n      dup2\n      mstore\n      0x04\n      add\n      tag_212\n      swap1\n      tag_213\n      jump\t// in\n    tag_212:\n      mload(0x40)\n      dup1\n      swap2\n      sub\n      swap1\n      revert\n    tag_211:\n        /* \"solidity-main/contracts/factory/IdFactory.sol\":6025:6026  0 */\n      0x00\n        /* \"solidity-main/contracts/factory/IdFactory.sol\":5987:6027  _tokenIdentity[_newWallet] == address(0) */\n      0xffffffffffffffffffffffffffffffffffffffff\n      and\n        /* \"solidity-main/contracts/factory/IdFactory.sol\":5987:6001  _tokenIdentity */\n      0x05\n        /* \"solidity-main/contracts/factory/IdFactory.sol\":5987:6013  _tokenIdentity[_newWallet] */\n      0x00\n        /* \"solidity-main/contracts/factory/IdFactory.sol\":6002:6012  _newWallet */\n      dup4\n        /* \"solidity-main/contracts/factory/IdFactory.sol\":5987:6013  _tokenIdentity[_newWallet] */\n      0xffffffffffffffffffffffffffffffffffffffff\n      and\n      0xffffffffffffffffffffffffffffffffffffffff\n      and\n      dup2\n      mstore\n      0x20\n      add\n      swap1\n      dup2\n      mstore\n      0x20\n      add\n      0x00\n      keccak256\n      0x00\n      swap1\n      sload\n      swap1\n      0x0100\n      exp\n      swap1\n      div\n      0xffffffffffffffffffffffffffffffffffffffff\n      and\n        /* \"solidity-main/contracts/factory/IdFactory.sol\":5987:6027  _tokenIdentity[_newWallet] == address(0) */\n      0xffffffffffffffffffffffffffffffffffffffff\n      and\n      eq\n        /* \"solidity-main/contracts/factory/IdFactory.sol\":5979:6064  require(_tokenIdentity[_newWallet] == address(0), \"invalid argument - token address\") */\n      tag_214\n      jumpi\n      mload(0x40)\n      0x08c379a000000000000000000000000000000000000000000000000000000000\n      dup2\n      mstore\n      0x04\n      add\n      tag_215\n      swap1\n      tag_216\n      jump\t// in\n    tag_215:\n      mload(0x40)\n      dup1\n      swap2\n      sub\n      swap1\n      revert\n    tag_214:\n        /* \"solidity-main/contracts/factory/IdFactory.sol\":6074:6090  address identity */\n      0x00\n        /* \"solidity-main/contracts/factory/IdFactory.sol\":6093:6106  _userIdentity */\n      0x03\n        /* \"solidity-main/contracts/factory/IdFactory.sol\":6093:6118  _userIdentity[msg.sender] */\n      0x00\n        /* \"solidity-main/contracts/factory/IdFactory.sol\":6107:6117  msg.sender */\n      caller\n        /* \"solidity-main/contracts/factory/IdFactory.sol\":6093:6118  _userIdentity[msg.sender] */\n      0xffffffffffffffffffffffffffffffffffffffff\n      and\n      0xffffffffffffffffffffffffffffffffffffffff\n      and\n      dup2\n      mstore\n      0x20\n      add\n      swap1\n      dup2\n      mstore\n      0x20\n      add\n      0x00\n      keccak256\n      0x00\n      swap1\n      sload\n      swap1\n      0x0100\n      exp\n      swap1\n      div\n      0xffffffffffffffffffffffffffffffffffffffff\n      and\n        /* \"solidity-main/contracts/factory/IdFactory.sol\":6074:6118  address identity = _userIdentity[msg.sender] */\n      swap1\n      pop\n        /* \"solidity-main/contracts/factory/IdFactory.sol\":6164:6167  101 */\n      0x65\n        /* \"solidity-main/contracts/factory/IdFactory.sol\":6136:6144  _wallets */\n      0x04\n        /* \"solidity-main/contracts/factory/IdFactory.sol\":6136:6154  _wallets[identity] */\n      0x00\n        /* \"solidity-main/contracts/factory/IdFactory.sol\":6145:6153  identity */\n      dup4\n        /* \"solidity-main/contracts/factory/IdFactory.sol\":6136:6154  _wallets[identity] */\n      0xffffffffffffffffffffffffffffffffffffffff\n      and\n      0xffffffffffffffffffffffffffffffffffffffff\n      and\n      dup2\n      mstore\n      0x20\n      add\n      swap1\n      dup2\n      mstore\n      0x20\n      add\n      0x00\n      keccak256\n        /* \"solidity-main/contracts/factory/IdFactory.sol\":6136:6161  _wallets[identity].length */\n      dup1\n      sload\n      swap1\n      pop\n        /* \"solidity-main/contracts/factory/IdFactory.sol\":6136:6167  _wallets[identity].length < 101 */\n      lt\n        /* \"solidity-main/contracts/factory/IdFactory.sol\":6128:6209  require(_wallets[identity].length < 101, \"max amount of wallets per ID exceeded\") */\n      tag_217\n      jumpi\n      mload(0x40)\n      0x08c379a000000000000000000000000000000000000000000000000000000000\n      dup2\n      mstore\n      0x04\n      add\n      tag_218\n      swap1\n      tag_219\n      jump\t// in\n    tag_218:\n      mload(0x40)\n      dup1\n      swap2\n      sub\n      swap1\n      revert\n    tag_217:\n        /* \"solidity-main/contracts/factory/IdFactory.sol\":6247:6255  identity */\n      dup1\n        /* \"solidity-main/contracts/factory/IdFactory.sol\":6219:6232  _userIdentity */\n      0x03\n        /* \"solidity-main/contracts/factory/IdFactory.sol\":6219:6244  _userIdentity[_newWallet] */\n      0x00\n        /* \"solidity-main/contracts/factory/IdFactory.sol\":6233:6243  _newWallet */\n      dup5\n        /* \"solidity-main/contracts/factory/IdFactory.sol\":6219:6244  _userIdentity[_newWallet] */\n      0xffffffffffffffffffffffffffffffffffffffff\n      and\n      0xffffffffffffffffffffffffffffffffffffffff\n      and\n      dup2\n      mstore\n      0x20\n      add\n      swap1\n      dup2\n      mstore\n      0x20\n      add\n      0x00\n      keccak256\n      0x00\n        /* \"solidity-main/contracts/factory/IdFactory.sol\":6219:6255  _userIdentity[_newWallet] = identity */\n      0x0100\n      exp\n      dup2\n      sload\n      dup2\n      0xffffffffffffffffffffffffffffffffffffffff\n      mul\n      not\n      and\n      swap1\n      dup4\n      0xffffffffffffffffffffffffffffffffffffffff\n      and\n      mul\n      or\n      swap1\n      sstore\n      pop\n        /* \"solidity-main/contracts/factory/IdFactory.sol\":6265:6273  _wallets */\n      0x04\n        /* \"solidity-main/contracts/factory/IdFactory.sol\":6265:6283  _wallets[identity] */\n      0x00\n        /* \"solidity-main/contracts/factory/IdFactory.sol\":6274:6282  identity */\n      dup3\n        /* \"solidity-main/contracts/factory/IdFactory.sol\":6265:6283  _wallets[identity] */\n      0xffffffffffffffffffffffffffffffffffffffff\n      and\n      0xffffffffffffffffffffffffffffffffffffffff\n      and\n      dup2\n      mstore\n      0x20\n      add\n      swap1\n      dup2\n      mstore\n      0x20\n      add\n      0x00\n      keccak256\n        /* \"solidity-main/contracts/factory/IdFactory.sol\":6289:6299  _newWallet */\n      dup3\n        /* \"solidity-main/contracts/factory/IdFactory.sol\":6265:6300  _wallets[identity].push(_newWallet) */\n      swap1\n      dup1\n      0x01\n      dup2\n      sload\n      add\n      dup1\n      dup3\n      sstore\n      dup1\n      swap2\n      pop\n      pop\n      0x01\n      swap1\n      sub\n      swap1\n      0x00\n      mstore\n      keccak256(0x00, 0x20)\n      add\n      0x00\n      swap1\n      swap2\n      swap1\n      swap2\n      swap1\n      swap2\n      0x0100\n      exp\n      dup2\n      sload\n      dup2\n      0xffffffffffffffffffffffffffffffffffffffff\n      mul\n      not\n      and\n      swap1\n      dup4\n      0xffffffffffffffffffffffffffffffffffffffff\n      and\n      mul\n      or\n      swap1\n      sstore\n      pop\n        /* \"solidity-main/contracts/factory/IdFactory.sol\":6340:6348  identity */\n      dup1\n        /* \"solidity-main/contracts/factory/IdFactory.sol\":6315:6349  WalletLinked(_newWallet, identity) */\n      0xffffffffffffffffffffffffffffffffffffffff\n      and\n        /* \"solidity-main/contracts/factory/IdFactory.sol\":6328:6338  _newWallet */\n      dup3\n        /* \"solidity-main/contracts/factory/IdFactory.sol\":6315:6349  WalletLinked(_newWallet, identity) */\n      0xffffffffffffffffffffffffffffffffffffffff\n      and\n      0x8e0c709111388f5480579514d86663489ab1f206fe6da1a0c4d03ac8c318b3c6\n      mload(0x40)\n      mload(0x40)\n      dup1\n      swap2\n      sub\n      swap1\n      log3\n        /* \"solidity-main/contracts/factory/IdFactory.sol\":5701:6356  {... */\n      pop\n        /* \"solidity-main/contracts/factory/IdFactory.sol\":5643:6356  function linkWallet(address _newWallet) external override {... */\n      pop\n      jump\t// out\n        /* \"@openzeppelin/contracts/access/Ownable.sol\":2543:2758  function transferOwnership(address newOwner) public virtual onlyOwner {... */\n    tag_79:\n        /* \"@openzeppelin/contracts/access/Ownable.sol\":1531:1544  _checkOwner() */\n      tag_222\n        /* \"@openzeppelin/contracts/access/Ownable.sol\":1531:1542  _checkOwner */\n      tag_162\n        /* \"@openzeppelin/contracts/access/Ownable.sol\":1531:1544  _checkOwner() */\n      jump\t// in\n    tag_222:\n        /* \"@openzeppelin/contracts/access/Ownable.sol\":2647:2648  0 */\n      0x00\n        /* \"@openzeppelin/contracts/access/Ownable.sol\":2627:2649  newOwner == address(0) */\n      0xffffffffffffffffffffffffffffffffffffffff\n      and\n        /* \"@openzeppelin/contracts/access/Ownable.sol\":2627:2635  newOwner */\n      dup2\n        /* \"@openzeppelin/contracts/access/Ownable.sol\":2627:2649  newOwner == address(0) */\n      0xffffffffffffffffffffffffffffffffffffffff\n      and\n      sub\n        /* \"@openzeppelin/contracts/access/Ownable.sol\":2623:2714  if (newOwner == address(0)) {... */\n      tag_224\n      jumpi\n        /* \"@openzeppelin/contracts/access/Ownable.sol\":2700:2701  0 */\n      0x00\n        /* \"@openzeppelin/contracts/access/Ownable.sol\":2672:2703  OwnableInvalidOwner(address(0)) */\n      mload(0x40)\n      0x1e4fbdf700000000000000000000000000000000000000000000000000000000\n      dup2\n      mstore\n      0x04\n      add\n      tag_225\n      swap2\n      swap1\n      tag_25\n      jump\t// in\n    tag_225:\n      mload(0x40)\n      dup1\n      swap2\n      sub\n      swap1\n      revert\n        /* \"@openzeppelin/contracts/access/Ownable.sol\":2623:2714  if (newOwner == address(0)) {... */\n    tag_224:\n        /* \"@openzeppelin/contracts/access/Ownable.sol\":2723:2751  _transferOwnership(newOwner) */\n      tag_226\n        /* \"@openzeppelin/contracts/access/Ownable.sol\":2742:2750  newOwner */\n      dup2\n        /* \"@openzeppelin/contracts/access/Ownable.sol\":2723:2741  _transferOwnership */\n      tag_165\n        /* \"@openzeppelin/contracts/access/Ownable.sol\":2723:2751  _transferOwnership(newOwner) */\n      jump\t// in\n    tag_226:\n        /* \"@openzeppelin/contracts/access/Ownable.sol\":2543:2758  function transferOwnership(address newOwner) public virtual onlyOwner {... */\n      pop\n      jump\t// out\n        /* \"solidity-main/contracts/factory/IdFactory.sol\":3008:4466  function createIdentityWithManagementKeys(... */\n    tag_83:\n        /* \"solidity-main/contracts/factory/IdFactory.sol\":3189:3196  address */\n      0x00\n        /* \"@openzeppelin/contracts/access/Ownable.sol\":1531:1544  _checkOwner() */\n      tag_228\n        /* \"@openzeppelin/contracts/access/Ownable.sol\":1531:1542  _checkOwner */\n      tag_162\n        /* \"@openzeppelin/contracts/access/Ownable.sol\":1531:1544  _checkOwner() */\n      jump\t// in\n    tag_228:\n        /* \"solidity-main/contracts/factory/IdFactory.sol\":3235:3236  0 */\n      0x00\n        /* \"solidity-main/contracts/factory/IdFactory.sol\":3216:3237  _wallet != address(0) */\n      0xffffffffffffffffffffffffffffffffffffffff\n      and\n        /* \"solidity-main/contracts/factory/IdFactory.sol\":3216:3223  _wallet */\n      dup5\n        /* \"solidity-main/contracts/factory/IdFactory.sol\":3216:3237  _wallet != address(0) */\n      0xffffffffffffffffffffffffffffffffffffffff\n      and\n      sub\n        /* \"solidity-main/contracts/factory/IdFactory.sol\":3208:3273  require(_wallet != address(0), \"invalid argument - zero address\") */\n      tag_230\n      jumpi\n      mload(0x40)\n      0x08c379a000000000000000000000000000000000000000000000000000000000\n      dup2\n      mstore\n      0x04\n      add\n      tag_231\n      swap1\n      tag_101\n      jump\t// in\n    tag_231:\n      mload(0x40)\n      dup1\n      swap2\n      sub\n      swap1\n      revert\n    tag_230:\n        /* \"solidity-main/contracts/factory/IdFactory.sol\":3333:3347  abi.encode(\"\") */\n      add(0x20, mload(0x40))\n      tag_232\n      swap1\n      tag_105\n      jump\t// in\n    tag_232:\n      mload(0x40)\n      0x20\n      dup2\n      dup4\n      sub\n      sub\n      dup2\n      mstore\n      swap1\n      0x40\n      mstore\n        /* \"solidity-main/contracts/factory/IdFactory.sol\":3323:3348  keccak256(abi.encode(\"\")) */\n      dup1\n      mload\n      swap1\n      0x20\n      add\n      keccak256\n        /* \"solidity-main/contracts/factory/IdFactory.sol\":3312:3317  _salt */\n      dup4\n        /* \"solidity-main/contracts/factory/IdFactory.sol\":3301:3318  abi.encode(_salt) */\n      add(0x20, mload(0x40))\n      tag_233\n      swap2\n      swap1\n      tag_107\n      jump\t// in\n    tag_233:\n      mload(0x40)\n      0x20\n      dup2\n      dup4\n      sub\n      sub\n      dup2\n      mstore\n      swap1\n      0x40\n      mstore\n        /* \"solidity-main/contracts/factory/IdFactory.sol\":3291:3319  keccak256(abi.encode(_salt)) */\n      dup1\n      mload\n      swap1\n      0x20\n      add\n      keccak256\n        /* \"solidity-main/contracts/factory/IdFactory.sol\":3291:3348  keccak256(abi.encode(_salt)) != keccak256(abi.encode(\"\")) */\n      sub\n        /* \"solidity-main/contracts/factory/IdFactory.sol\":3283:3384  require(keccak256(abi.encode(_salt)) != keccak256(abi.encode(\"\")), \"invalid argument - empty string\") */\n      tag_234\n      jumpi\n      mload(0x40)\n      0x08c379a000000000000000000000000000000000000000000000000000000000\n      dup2\n      mstore\n      0x04\n      add\n      tag_235\n      swap1\n      tag_110\n      jump\t// in\n    tag_235:\n      mload(0x40)\n      dup1\n      swap2\n      sub\n      swap1\n      revert\n    tag_234:\n        /* \"solidity-main/contracts/factory/IdFactory.sol\":3394:3415  string memory oidSalt */\n      0x00\n        /* \"solidity-main/contracts/factory/IdFactory.sol\":3438:3443  _salt */\n      dup4\n        /* \"solidity-main/contracts/factory/IdFactory.sol\":3418:3444  string.concat(\"OID\",_salt) */\n      add(0x20, mload(0x40))\n      tag_236\n      swap2\n      swap1\n      tag_177\n      jump\t// in\n    tag_236:\n      mload(0x40)\n      0x20\n      dup2\n      dup4\n      sub\n      sub\n      dup2\n      mstore\n      swap1\n      0x40\n      mstore\n        /* \"solidity-main/contracts/factory/IdFactory.sol\":3394:3444  string memory oidSalt = string.concat(\"OID\",_salt) */\n      swap1\n      pop\n        /* \"solidity-main/contracts/factory/IdFactory.sol\":3464:3474  _saltTaken */\n      0x02\n        /* \"solidity-main/contracts/factory/IdFactory.sol\":3475:3482  oidSalt */\n      dup2\n        /* \"solidity-main/contracts/factory/IdFactory.sol\":3464:3483  _saltTaken[oidSalt] */\n      mload(0x40)\n      tag_237\n      swap2\n      swap1\n      tag_114\n      jump\t// in\n    tag_237:\n      swap1\n      dup2\n      mstore\n      0x20\n      add\n      mload(0x40)\n      dup1\n      swap2\n      sub\n      swap1\n      keccak256\n      0x00\n      swap1\n      sload\n      swap1\n      0x0100\n      exp\n      swap1\n      div\n      0xff\n      and\n        /* \"solidity-main/contracts/factory/IdFactory.sol\":3463:3483  !_saltTaken[oidSalt] */\n      iszero\n        /* \"solidity-main/contracts/factory/IdFactory.sol\":3454:3506  require (!_saltTaken[oidSalt], \"salt already taken\") */\n      tag_238\n      jumpi\n      mload(0x40)\n      0x08c379a000000000000000000000000000000000000000000000000000000000\n      dup2\n      mstore\n      0x04\n      add\n      tag_239\n      swap1\n      tag_117\n      jump\t// in\n    tag_239:\n      mload(0x40)\n      dup1\n      swap2\n      sub\n      swap1\n      revert\n    tag_238:\n        /* \"solidity-main/contracts/factory/IdFactory.sol\":3559:3560  0 */\n      0x00\n        /* \"solidity-main/contracts/factory/IdFactory.sol\":3525:3561  _userIdentity[_wallet] == address(0) */\n      0xffffffffffffffffffffffffffffffffffffffff\n      and\n        /* \"solidity-main/contracts/factory/IdFactory.sol\":3525:3538  _userIdentity */\n      0x03\n        /* \"solidity-main/contracts/factory/IdFactory.sol\":3525:3547  _userIdentity[_wallet] */\n      0x00\n        /* \"solidity-main/contracts/factory/IdFactory.sol\":3539:3546  _wallet */\n      dup8\n        /* \"solidity-main/contracts/factory/IdFactory.sol\":3525:3547  _userIdentity[_wallet] */\n      0xffffffffffffffffffffffffffffffffffffffff\n      and\n      0xffffffffffffffffffffffffffffffffffffffff\n      and\n      dup2\n      mstore\n      0x20\n      add\n      swap1\n      dup2\n      mstore\n      0x20\n      add\n      0x00\n      keccak256\n      0x00\n      swap1\n      sload\n      swap1\n      0x0100\n      exp\n      swap1\n      div\n      0xffffffffffffffffffffffffffffffffffffffff\n      and\n        /* \"solidity-main/contracts/factory/IdFactory.sol\":3525:3561  _userIdentity[_wallet] == address(0) */\n      0xffffffffffffffffffffffffffffffffffffffff\n      and\n      eq\n        /* \"solidity-main/contracts/factory/IdFactory.sol\":3516:3602  require (_userIdentity[_wallet] == address(0), \"wallet already linked to an identity\") */\n      tag_240\n      jumpi\n      mload(0x40)\n      0x08c379a000000000000000000000000000000000000000000000000000000000\n      dup2\n      mstore\n      0x04\n      add\n      tag_241\n      swap1\n      tag_183\n      jump\t// in\n    tag_241:\n      mload(0x40)\n      dup1\n      swap2\n      sub\n      swap1\n      revert\n    tag_240:\n        /* \"solidity-main/contracts/factory/IdFactory.sol\":3645:3646  0 */\n      0x00\n        /* \"solidity-main/contracts/factory/IdFactory.sol\":3620:3635  _managementKeys */\n      dup4\n        /* \"solidity-main/contracts/factory/IdFactory.sol\":3620:3642  _managementKeys.length */\n      mload\n        /* \"solidity-main/contracts/factory/IdFactory.sol\":3620:3646  _managementKeys.length > 0 */\n      gt\n        /* \"solidity-main/contracts/factory/IdFactory.sol\":3612:3688  require(_managementKeys.length > 0, \"invalid argument - empty list of keys\") */\n      tag_242\n      jumpi\n      mload(0x40)\n      0x08c379a000000000000000000000000000000000000000000000000000000000\n      dup2\n      mstore\n      0x04\n      add\n      tag_243\n      swap1\n      tag_244\n      jump\t// in\n    tag_243:\n      mload(0x40)\n      dup1\n      swap2\n      sub\n      swap1\n      revert\n    tag_242:\n        /* \"solidity-main/contracts/factory/IdFactory.sol\":3699:3715  address identity */\n      0x00\n        /* \"solidity-main/contracts/factory/IdFactory.sol\":3718:3783  _deployIdentity(oidSalt, _implementationAuthority, address(this)) */\n      tag_245\n        /* \"solidity-main/contracts/factory/IdFactory.sol\":3734:3741  oidSalt */\n      dup3\n        /* \"solidity-main/contracts/factory/IdFactory.sol\":3743:3767  _implementationAuthority */\n      immutable(\"0xb8af24a884ce251f7b69c435d70b26b4d69041695ff24aab1b55d194a3fdd883\")\n        /* \"solidity-main/contracts/factory/IdFactory.sol\":3777:3781  this */\n      address\n        /* \"solidity-main/contracts/factory/IdFactory.sol\":3718:3733  _deployIdentity */\n      tag_122\n        /* \"solidity-main/contracts/factory/IdFactory.sol\":3718:3783  _deployIdentity(oidSalt, _implementationAuthority, address(this)) */\n      jump\t// in\n    tag_245:\n        /* \"solidity-main/contracts/factory/IdFactory.sol\":3699:3783  address identity = _deployIdentity(oidSalt, _implementationAuthority, address(this)) */\n      swap1\n      pop\n        /* \"solidity-main/contracts/factory/IdFactory.sol\":3799:3805  uint i */\n      0x00\n        /* \"solidity-main/contracts/factory/IdFactory.sol\":3794:4153  for (uint i = 0; i < _managementKeys.length; i++) {... */\n    tag_246:\n        /* \"solidity-main/contracts/factory/IdFactory.sol\":3815:3830  _managementKeys */\n      dup5\n        /* \"solidity-main/contracts/factory/IdFactory.sol\":3815:3837  _managementKeys.length */\n      mload\n        /* \"solidity-main/contracts/factory/IdFactory.sol\":3811:3812  i */\n      dup2\n        /* \"solidity-main/contracts/factory/IdFactory.sol\":3811:3837  i < _managementKeys.length */\n      lt\n        /* \"solidity-main/contracts/factory/IdFactory.sol\":3794:4153  for (uint i = 0; i < _managementKeys.length; i++) {... */\n      iszero\n      tag_247\n      jumpi\n        /* \"solidity-main/contracts/factory/IdFactory.sol\":3926:3933  _wallet */\n      dup7\n        /* \"solidity-main/contracts/factory/IdFactory.sol\":3915:3934  abi.encode(_wallet) */\n      add(0x20, mload(0x40))\n      tag_249\n      swap2\n      swap1\n      tag_25\n      jump\t// in\n    tag_249:\n      mload(0x40)\n      0x20\n      dup2\n      dup4\n      sub\n      sub\n      dup2\n      mstore\n      swap1\n      0x40\n      mstore\n        /* \"solidity-main/contracts/factory/IdFactory.sol\":3905:3935  keccak256(abi.encode(_wallet)) */\n      dup1\n      mload\n      swap1\n      0x20\n      add\n      keccak256\n        /* \"solidity-main/contracts/factory/IdFactory.sol\":3883:3898  _managementKeys */\n      dup6\n        /* \"solidity-main/contracts/factory/IdFactory.sol\":3899:3900  i */\n      dup3\n        /* \"solidity-main/contracts/factory/IdFactory.sol\":3883:3901  _managementKeys[i] */\n      dup2\n      mload\n      dup2\n      lt\n      tag_250\n      jumpi\n      tag_251\n      tag_142\n      jump\t// in\n    tag_251:\n    tag_250:\n      0x20\n      mul\n      0x20\n      add\n      add\n      mload\n        /* \"solidity-main/contracts/factory/IdFactory.sol\":3883:3935  _managementKeys[i] != keccak256(abi.encode(_wallet)) */\n      sub\n        /* \"solidity-main/contracts/factory/IdFactory.sol\":3858:4016  require(... */\n      tag_252\n      jumpi\n      mload(0x40)\n      0x08c379a000000000000000000000000000000000000000000000000000000000\n      dup2\n      mstore\n      0x04\n      add\n      tag_253\n      swap1\n      tag_254\n      jump\t// in\n    tag_253:\n      mload(0x40)\n      dup1\n      swap2\n      sub\n      swap1\n      revert\n    tag_252:\n        /* \"solidity-main/contracts/factory/IdFactory.sol\":4038:4046  identity */\n      dup2\n        /* \"solidity-main/contracts/factory/IdFactory.sol\":4030:4054  IERC734(identity).addKey */\n      0xffffffffffffffffffffffffffffffffffffffff\n      and\n      0x1d381240\n        /* \"solidity-main/contracts/factory/IdFactory.sol\":4072:4087  _managementKeys */\n      dup7\n        /* \"solidity-main/contracts/factory/IdFactory.sol\":4088:4089  i */\n      dup4\n        /* \"solidity-main/contracts/factory/IdFactory.sol\":4072:4090  _managementKeys[i] */\n      dup2\n      mload\n      dup2\n      lt\n      tag_255\n      jumpi\n      tag_256\n      tag_142\n      jump\t// in\n    tag_256:\n    tag_255:\n      0x20\n      mul\n      0x20\n      add\n      add\n      mload\n        /* \"solidity-main/contracts/factory/IdFactory.sol\":4108:4109  1 */\n      0x01\n        /* \"solidity-main/contracts/factory/IdFactory.sol\":4127:4128  1 */\n      dup1\n        /* \"solidity-main/contracts/factory/IdFactory.sol\":4030:4142  IERC734(identity).addKey(... */\n      mload(0x40)\n      dup5\n      0xffffffff\n      and\n      0xe0\n      shl\n      dup2\n      mstore\n      0x04\n      add\n      tag_257\n      swap4\n      swap3\n      swap2\n      swap1\n      tag_258\n      jump\t// in\n    tag_257:\n      0x20\n      mload(0x40)\n      dup1\n      dup4\n      sub\n      dup2\n      0x00\n      dup8\n      gas\n      call\n      iszero\n      dup1\n      iszero\n      tag_260\n      jumpi\n      returndatasize\n      0x00\n      dup1\n      returndatacopy\n      revert(0x00, returndatasize)\n    tag_260:\n      pop\n      pop\n      pop\n      pop\n      mload(0x40)\n      returndatasize\n      not(0x1f)\n      0x1f\n      dup3\n      add\n      and\n      dup3\n      add\n      dup1\n      0x40\n      mstore\n      pop\n      dup2\n      add\n      swap1\n      tag_261\n      swap2\n      swap1\n      tag_262\n      jump\t// in\n    tag_261:\n      pop\n        /* \"solidity-main/contracts/factory/IdFactory.sol\":3839:3842  i++ */\n      dup1\n      dup1\n      tag_263\n      swap1\n      tag_158\n      jump\t// in\n    tag_263:\n      swap2\n      pop\n      pop\n        /* \"solidity-main/contracts/factory/IdFactory.sol\":3794:4153  for (uint i = 0; i < _managementKeys.length; i++) {... */\n      jump(tag_246)\n    tag_247:\n      pop\n        /* \"solidity-main/contracts/factory/IdFactory.sol\":4171:4179  identity */\n      dup1\n        /* \"solidity-main/contracts/factory/IdFactory.sol\":4163:4190  IERC734(identity).removeKey */\n      0xffffffffffffffffffffffffffffffffffffffff\n      and\n      0x53d413c5\n        /* \"solidity-main/contracts/factory/IdFactory.sol\":4233:4237  this */\n      address\n        /* \"solidity-main/contracts/factory/IdFactory.sol\":4214:4239  abi.encode(address(this)) */\n      add(0x20, mload(0x40))\n      tag_264\n      swap2\n      swap1\n      tag_25\n      jump\t// in\n    tag_264:\n      mload(0x40)\n      0x20\n      dup2\n      dup4\n      sub\n      sub\n      dup2\n      mstore\n      swap1\n      0x40\n      mstore\n        /* \"solidity-main/contracts/factory/IdFactory.sol\":4204:4240  keccak256(abi.encode(address(this))) */\n      dup1\n      mload\n      swap1\n      0x20\n      add\n      keccak256\n        /* \"solidity-main/contracts/factory/IdFactory.sol\":4254:4255  1 */\n      0x01\n        /* \"solidity-main/contracts/factory/IdFactory.sol\":4163:4265  IERC734(identity).removeKey(... */\n      mload(0x40)\n      dup4\n      0xffffffff\n      and\n      0xe0\n      shl\n      dup2\n      mstore\n      0x04\n      add\n      tag_265\n      swap3\n      swap2\n      swap1\n      tag_266\n      jump\t// in\n    tag_265:\n      0x20\n      mload(0x40)\n      dup1\n      dup4\n      sub\n      dup2\n      0x00\n      dup8\n      gas\n      call\n      iszero\n      dup1\n      iszero\n      tag_268\n      jumpi\n      returndatasize\n      0x00\n      dup1\n      returndatacopy\n      revert(0x00, returndatasize)\n    tag_268:\n      pop\n      pop\n      pop\n      pop\n      mload(0x40)\n      returndatasize\n      not(0x1f)\n      0x1f\n      dup3\n      add\n      and\n      dup3\n      add\n      dup1\n      0x40\n      mstore\n      pop\n      dup2\n      add\n      swap1\n      tag_269\n      swap2\n      swap1\n      tag_262\n      jump\t// in\n    tag_269:\n      pop\n        /* \"solidity-main/contracts/factory/IdFactory.sol\":4298:4302  true */\n      0x01\n        /* \"solidity-main/contracts/factory/IdFactory.sol\":4276:4286  _saltTaken */\n      0x02\n        /* \"solidity-main/contracts/factory/IdFactory.sol\":4287:4294  oidSalt */\n      dup4\n        /* \"solidity-main/contracts/factory/IdFactory.sol\":4276:4295  _saltTaken[oidSalt] */\n      mload(0x40)\n      tag_270\n      swap2\n      swap1\n      tag_114\n      jump\t// in\n    tag_270:\n      swap1\n      dup2\n      mstore\n      0x20\n      add\n      mload(0x40)\n      dup1\n      swap2\n      sub\n      swap1\n      keccak256\n      0x00\n        /* \"solidity-main/contracts/factory/IdFactory.sol\":4276:4302  _saltTaken[oidSalt] = true */\n      0x0100\n      exp\n      dup2\n      sload\n      dup2\n      0xff\n      mul\n      not\n      and\n      swap1\n      dup4\n      iszero\n      iszero\n      mul\n      or\n      swap1\n      sstore\n      pop\n        /* \"solidity-main/contracts/factory/IdFactory.sol\":4337:4345  identity */\n      dup1\n        /* \"solidity-main/contracts/factory/IdFactory.sol\":4312:4325  _userIdentity */\n      0x03\n        /* \"solidity-main/contracts/factory/IdFactory.sol\":4312:4334  _userIdentity[_wallet] */\n      0x00\n        /* \"solidity-main/contracts/factory/IdFactory.sol\":4326:4333  _wallet */\n      dup9\n        /* \"solidity-main/contracts/factory/IdFactory.sol\":4312:4334  _userIdentity[_wallet] */\n      0xffffffffffffffffffffffffffffffffffffffff\n      and\n      0xffffffffffffffffffffffffffffffffffffffff\n      and\n      dup2\n      mstore\n      0x20\n      add\n      swap1\n      dup2\n      mstore\n      0x20\n      add\n      0x00\n      keccak256\n      0x00\n        /* \"solidity-main/contracts/factory/IdFactory.sol\":4312:4345  _userIdentity[_wallet] = identity */\n      0x0100\n      exp\n      dup2\n      sload\n      dup2\n      0xffffffffffffffffffffffffffffffffffffffff\n      mul\n      not\n      and\n      swap1\n      dup4\n      0xffffffffffffffffffffffffffffffffffffffff\n      and\n      mul\n      or\n      swap1\n      sstore\n      pop\n        /* \"solidity-main/contracts/factory/IdFactory.sol\":4355:4363  _wallets */\n      0x04\n        /* \"solidity-main/contracts/factory/IdFactory.sol\":4355:4373  _wallets[identity] */\n      0x00\n        /* \"solidity-main/contracts/factory/IdFactory.sol\":4364:4372  identity */\n      dup3\n        /* \"solidity-main/contracts/factory/IdFactory.sol\":4355:4373  _wallets[identity] */\n      0xffffffffffffffffffffffffffffffffffffffff\n      and\n      0xffffffffffffffffffffffffffffffffffffffff\n      and\n      dup2\n      mstore\n      0x20\n      add\n      swap1\n      dup2\n      mstore\n      0x20\n      add\n      0x00\n      keccak256\n        /* \"solidity-main/contracts/factory/IdFactory.sol\":4379:4386  _wallet */\n      dup7\n        /* \"solidity-main/contracts/factory/IdFactory.sol\":4355:4387  _wallets[identity].push(_wallet) */\n      swap1\n      dup1\n      0x01\n      dup2\n      sload\n      add\n      dup1\n      dup3\n      sstore\n      dup1\n      swap2\n      pop\n      pop\n      0x01\n      swap1\n      sub\n      swap1\n      0x00\n      mstore\n      keccak256(0x00, 0x20)\n      add\n      0x00\n      swap1\n      swap2\n      swap1\n      swap2\n      swap1\n      swap2\n      0x0100\n      exp\n      dup2\n      sload\n      dup2\n      0xffffffffffffffffffffffffffffffffffffffff\n      mul\n      not\n      and\n      swap1\n      dup4\n      0xffffffffffffffffffffffffffffffffffffffff\n      and\n      mul\n      or\n      swap1\n      sstore\n      pop\n        /* \"solidity-main/contracts/factory/IdFactory.sol\":4424:4432  identity */\n      dup1\n        /* \"solidity-main/contracts/factory/IdFactory.sol\":4402:4433  WalletLinked(_wallet, identity) */\n      0xffffffffffffffffffffffffffffffffffffffff\n      and\n        /* \"solidity-main/contracts/factory/IdFactory.sol\":4415:4422  _wallet */\n      dup7\n        /* \"solidity-main/contracts/factory/IdFactory.sol\":4402:4433  WalletLinked(_wallet, identity) */\n      0xffffffffffffffffffffffffffffffffffffffff\n      and\n      0x8e0c709111388f5480579514d86663489ab1f206fe6da1a0c4d03ac8c318b3c6\n      mload(0x40)\n      mload(0x40)\n      dup1\n      swap2\n      sub\n      swap1\n      log3\n        /* \"solidity-main/contracts/factory/IdFactory.sol\":4451:4459  identity */\n      dup1\n        /* \"solidity-main/contracts/factory/IdFactory.sol\":4444:4459  return identity */\n      swap3\n      pop\n      pop\n      pop\n        /* \"solidity-main/contracts/factory/IdFactory.sol\":3008:4466  function createIdentityWithManagementKeys(... */\n      swap4\n      swap3\n      pop\n      pop\n      pop\n      jump\t// out\n        /* \"solidity-main/contracts/factory/IdFactory.sol\":9315:9739  function _deployIdentity... */\n    tag_122:\n        /* \"solidity-main/contracts/factory/IdFactory.sol\":9463:9470  address */\n      0x00\n        /* \"solidity-main/contracts/factory/IdFactory.sol\":9481:9499  bytes memory _code */\n      dup1\n        /* \"solidity-main/contracts/factory/IdFactory.sol\":9502:9534  type(IdentityProxy).creationCode */\n      mload(0x40)\n      dup1\n      0x20\n      add\n      tag_273\n      swap1\n      tag_274\n      jump\t// in\n    tag_273:\n      0x20\n      dup3\n      add\n      dup2\n      sub\n      dup3\n      mstore\n      not(0x1f)\n      0x1f\n      dup3\n      add\n      and\n      0x40\n      mstore\n      pop\n        /* \"solidity-main/contracts/factory/IdFactory.sol\":9481:9534  bytes memory _code = type(IdentityProxy).creationCode */\n      swap1\n      pop\n        /* \"solidity-main/contracts/factory/IdFactory.sol\":9544:9571  bytes memory _constructData */\n      0x00\n        /* \"solidity-main/contracts/factory/IdFactory.sol\":9585:9608  ImplementationAuthority */\n      dup5\n        /* \"solidity-main/contracts/factory/IdFactory.sol\":9610:9617  _wallet */\n      dup5\n        /* \"solidity-main/contracts/factory/IdFactory.sol\":9574:9618  abi.encode(ImplementationAuthority, _wallet) */\n      add(0x20, mload(0x40))\n      tag_275\n      swap3\n      swap2\n      swap1\n      tag_276\n      jump\t// in\n    tag_275:\n      mload(0x40)\n      0x20\n      dup2\n      dup4\n      sub\n      sub\n      dup2\n      mstore\n      swap1\n      0x40\n      mstore\n        /* \"solidity-main/contracts/factory/IdFactory.sol\":9544:9618  bytes memory _constructData = abi.encode(ImplementationAuthority, _wallet) */\n      swap1\n      pop\n        /* \"solidity-main/contracts/factory/IdFactory.sol\":9628:9649  bytes memory bytecode */\n      0x00\n        /* \"solidity-main/contracts/factory/IdFactory.sol\":9669:9674  _code */\n      dup3\n        /* \"solidity-main/contracts/factory/IdFactory.sol\":9676:9690  _constructData */\n      dup3\n        /* \"solidity-main/contracts/factory/IdFactory.sol\":9652:9691  abi.encodePacked(_code, _constructData) */\n      add(0x20, mload(0x40))\n      tag_277\n      swap3\n      swap2\n      swap1\n      tag_278\n      jump\t// in\n    tag_277:\n      mload(0x40)\n      0x20\n      dup2\n      dup4\n      sub\n      sub\n      dup2\n      mstore\n      swap1\n      0x40\n      mstore\n        /* \"solidity-main/contracts/factory/IdFactory.sol\":9628:9691  bytes memory bytecode = abi.encodePacked(_code, _constructData) */\n      swap1\n      pop\n        /* \"solidity-main/contracts/factory/IdFactory.sol\":9708:9732  _deploy(_salt, bytecode) */\n      tag_279\n        /* \"solidity-main/contracts/factory/IdFactory.sol\":9716:9721  _salt */\n      dup8\n        /* \"solidity-main/contracts/factory/IdFactory.sol\":9723:9731  bytecode */\n      dup3\n        /* \"solidity-main/contracts/factory/IdFactory.sol\":9708:9715  _deploy */\n      tag_280\n        /* \"solidity-main/contracts/factory/IdFactory.sol\":9708:9732  _deploy(_salt, bytecode) */\n      jump\t// in\n    tag_279:\n        /* \"solidity-main/contracts/factory/IdFactory.sol\":9701:9732  return _deploy(_salt, bytecode) */\n      swap4\n      pop\n      pop\n      pop\n      pop\n        /* \"solidity-main/contracts/factory/IdFactory.sol\":9315:9739  function _deployIdentity... */\n      swap4\n      swap3\n      pop\n      pop\n      pop\n      jump\t// out\n        /* \"@openzeppelin/contracts/access/Ownable.sol\":1796:1958  function _checkOwner() internal view virtual {... */\n    tag_162:\n        /* \"@openzeppelin/contracts/access/Ownable.sol\":1866:1878  _msgSender() */\n      tag_282\n        /* \"@openzeppelin/contracts/access/Ownable.sol\":1866:1876  _msgSender */\n      tag_283\n        /* \"@openzeppelin/contracts/access/Ownable.sol\":1866:1878  _msgSender() */\n      jump\t// in\n    tag_282:\n        /* \"@openzeppelin/contracts/access/Ownable.sol\":1855:1878  owner() != _msgSender() */\n      0xffffffffffffffffffffffffffffffffffffffff\n      and\n        /* \"@openzeppelin/contracts/access/Ownable.sol\":1855:1862  owner() */\n      tag_284\n        /* \"@openzeppelin/contracts/access/Ownable.sol\":1855:1860  owner */\n      tag_61\n        /* \"@openzeppelin/contracts/access/Ownable.sol\":1855:1862  owner() */\n      jump\t// in\n    tag_284:\n        /* \"@openzeppelin/contracts/access/Ownable.sol\":1855:1878  owner() != _msgSender() */\n      0xffffffffffffffffffffffffffffffffffffffff\n      and\n      eq\n        /* \"@openzeppelin/contracts/access/Ownable.sol\":1851:1952  if (owner() != _msgSender()) {... */\n      tag_285\n      jumpi\n        /* \"@openzeppelin/contracts/access/Ownable.sol\":1928:1940  _msgSender() */\n      tag_286\n        /* \"@openzeppelin/contracts/access/Ownable.sol\":1928:1938  _msgSender */\n      tag_283\n        /* \"@openzeppelin/contracts/access/Ownable.sol\":1928:1940  _msgSender() */\n      jump\t// in\n    tag_286:\n        /* \"@openzeppelin/contracts/access/Ownable.sol\":1901:1941  OwnableUnauthorizedAccount(_msgSender()) */\n      mload(0x40)\n      0x118cdaa700000000000000000000000000000000000000000000000000000000\n      dup2\n      mstore\n      0x04\n      add\n      tag_287\n      swap2\n      swap1\n      tag_25\n      jump\t// in\n    tag_287:\n      mload(0x40)\n      dup1\n      swap2\n      sub\n      swap1\n      revert\n        /* \"@openzeppelin/contracts/access/Ownable.sol\":1851:1952  if (owner() != _msgSender()) {... */\n    tag_285:\n        /* \"@openzeppelin/contracts/access/Ownable.sol\":1796:1958  function _checkOwner() internal view virtual {... */\n      jump\t// out\n        /* \"@openzeppelin/contracts/access/Ownable.sol\":2912:3099  function _transferOwnership(address newOwner) internal virtual {... */\n    tag_165:\n        /* \"@openzeppelin/contracts/access/Ownable.sol\":2985:3001  address oldOwner */\n      0x00\n        /* \"@openzeppelin/contracts/access/Ownable.sol\":3004:3010  _owner */\n      dup1\n      0x00\n      swap1\n      sload\n      swap1\n      0x0100\n      exp\n      swap1\n      div\n      0xffffffffffffffffffffffffffffffffffffffff\n      and\n        /* \"@openzeppelin/contracts/access/Ownable.sol\":2985:3010  address oldOwner = _owner */\n      swap1\n      pop\n        /* \"@openzeppelin/contracts/access/Ownable.sol\":3029:3037  newOwner */\n      dup2\n        /* \"@openzeppelin/contracts/access/Ownable.sol\":3020:3026  _owner */\n      0x00\n      dup1\n        /* \"@openzeppelin/contracts/access/Ownable.sol\":3020:3037  _owner = newOwner */\n      0x0100\n      exp\n      dup2\n      sload\n      dup2\n      0xffffffffffffffffffffffffffffffffffffffff\n      mul\n      not\n      and\n      swap1\n      dup4\n      0xffffffffffffffffffffffffffffffffffffffff\n      and\n      mul\n      or\n      swap1\n      sstore\n      pop\n        /* \"@openzeppelin/contracts/access/Ownable.sol\":3083:3091  newOwner */\n      dup2\n        /* \"@openzeppelin/contracts/access/Ownable.sol\":3052:3092  OwnershipTransferred(oldOwner, newOwner) */\n      0xffffffffffffffffffffffffffffffffffffffff\n      and\n        /* \"@openzeppelin/contracts/access/Ownable.sol\":3073:3081  oldOwner */\n      dup2\n        /* \"@openzeppelin/contracts/access/Ownable.sol\":3052:3092  OwnershipTransferred(oldOwner, newOwner) */\n      0xffffffffffffffffffffffffffffffffffffffff\n      and\n      0x8be0079c531659141344cd1fd0a4f28419497f9722a3daafe3b4186f6b6457e0\n      mload(0x40)\n      mload(0x40)\n      dup1\n      swap2\n      sub\n      swap1\n      log3\n        /* \"@openzeppelin/contracts/access/Ownable.sol\":2975:3099  {... */\n      pop\n        /* \"@openzeppelin/contracts/access/Ownable.sol\":2912:3099  function _transferOwnership(address newOwner) internal virtual {... */\n      pop\n      jump\t// out\n        /* \"solidity-main/contracts/factory/IdFactory.sol\":8613:9252  function _deploy(string memory salt, bytes memory bytecode) private returns (address) {... */\n    tag_280:\n        /* \"solidity-main/contracts/factory/IdFactory.sol\":8690:8697  address */\n      0x00\n        /* \"solidity-main/contracts/factory/IdFactory.sol\":8709:8726  bytes32 saltBytes */\n      dup1\n        /* \"solidity-main/contracts/factory/IdFactory.sol\":8764:8768  salt */\n      dup4\n        /* \"solidity-main/contracts/factory/IdFactory.sol\":8747:8769  abi.encodePacked(salt) */\n      add(0x20, mload(0x40))\n      tag_290\n      swap2\n      swap1\n      tag_114\n      jump\t// in\n    tag_290:\n      mload(0x40)\n      0x20\n      dup2\n      dup4\n      sub\n      sub\n      dup2\n      mstore\n      swap1\n      0x40\n      mstore\n        /* \"solidity-main/contracts/factory/IdFactory.sol\":8737:8770  keccak256(abi.encodePacked(salt)) */\n      dup1\n      mload\n      swap1\n      0x20\n      add\n      keccak256\n        /* \"solidity-main/contracts/factory/IdFactory.sol\":8709:8771  bytes32 saltBytes = bytes32(keccak256(abi.encodePacked(salt))) */\n      swap1\n      pop\n        /* \"solidity-main/contracts/factory/IdFactory.sol\":8781:8793  address addr */\n      0x00\n        /* \"solidity-main/contracts/factory/IdFactory.sol\":8912:8920  bytecode */\n      dup4\n        /* \"solidity-main/contracts/factory/IdFactory.sol\":8906:8910  0x20 */\n      0x20\n        /* \"solidity-main/contracts/factory/IdFactory.sol\":8902:8921  add(0x20, bytecode) */\n      add\n        /* \"solidity-main/contracts/factory/IdFactory.sol\":8989:8997  bytecode */\n      dup5\n        /* \"solidity-main/contracts/factory/IdFactory.sol\":8983:8998  mload(bytecode) */\n      mload\n        /* \"solidity-main/contracts/factory/IdFactory.sol\":9090:9099  saltBytes */\n      dup4\n        /* \"solidity-main/contracts/factory/IdFactory.sol\":9076:9088  encoded_size */\n      dup2\n        /* \"solidity-main/contracts/factory/IdFactory.sol\":9062:9074  encoded_data */\n      dup4\n        /* \"solidity-main/contracts/factory/IdFactory.sol\":9059:9060  0 */\n      0x00\n        /* \"solidity-main/contracts/factory/IdFactory.sol\":9051:9100  create2(0, encoded_data, encoded_size, saltBytes) */\n      create2\n        /* \"solidity-main/contracts/factory/IdFactory.sol\":9043:9100  addr := create2(0, encoded_data, encoded_size, saltBytes) */\n      swap3\n      pop\n        /* \"solidity-main/contracts/factory/IdFactory.sol\":9135:9139  addr */\n      dup3\n        /* \"solidity-main/contracts/factory/IdFactory.sol\":9123:9140  extcodesize(addr) */\n      extcodesize\n        /* \"solidity-main/contracts/factory/IdFactory.sol\":9113:9186  if iszero(extcodesize(addr)) {... */\n      tag_291\n      jumpi\n        /* \"solidity-main/contracts/factory/IdFactory.sol\":9170:9171  0 */\n      0x00\n        /* \"solidity-main/contracts/factory/IdFactory.sol\":9167:9168  0 */\n      dup1\n        /* \"solidity-main/contracts/factory/IdFactory.sol\":9160:9172  revert(0, 0) */\n      revert\n        /* \"solidity-main/contracts/factory/IdFactory.sol\":9113:9186  if iszero(extcodesize(addr)) {... */\n    tag_291:\n        /* \"solidity-main/contracts/factory/IdFactory.sol\":8868:9196  {... */\n      pop\n      pop\n        /* \"solidity-main/contracts/factory/IdFactory.sol\":9219:9223  addr */\n      dup1\n        /* \"solidity-main/contracts/factory/IdFactory.sol\":9210:9224  Deployed(addr) */\n      0xffffffffffffffffffffffffffffffffffffffff\n      and\n      0xf40fcec21964ffb566044d083b4073f29f7f7929110ea19e1b3ebe375d89055e\n      mload(0x40)\n      mload(0x40)\n      dup1\n      swap2\n      sub\n      swap1\n      log2\n        /* \"solidity-main/contracts/factory/IdFactory.sol\":9241:9245  addr */\n      dup1\n        /* \"solidity-main/contracts/factory/IdFactory.sol\":9234:9245  return addr */\n      swap3\n      pop\n      pop\n      pop\n        /* \"solidity-main/contracts/factory/IdFactory.sol\":8613:9252  function _deploy(string memory salt, bytes memory bytecode) private returns (address) {... */\n      swap3\n      swap2\n      pop\n      pop\n      jump\t// out\n        /* \"@openzeppelin/contracts/utils/Context.sol\":656:752  function _msgSender() internal view virtual returns (address) {... */\n    tag_283:\n        /* \"@openzeppelin/contracts/utils/Context.sol\":709:716  address */\n      0x00\n        /* \"@openzeppelin/contracts/utils/Context.sol\":735:745  msg.sender */\n      caller\n        /* \"@openzeppelin/contracts/utils/Context.sol\":728:745  return msg.sender */\n      swap1\n      pop\n        /* \"@openzeppelin/contracts/utils/Context.sol\":656:752  function _msgSender() internal view virtual returns (address) {... */\n      swap1\n      jump\t// out\n    tag_274:\n      dataSize(sub_0)\n      dup1\n      dataOffset(sub_0)\n      dup4\n      codecopy\n      add\n      swap1\n      jump\t// out\n        /* \"#utility.yul\":7:133   */\n    tag_293:\n        /* \"#utility.yul\":44:51   */\n      0x00\n        /* \"#utility.yul\":84:126   */\n      0xffffffffffffffffffffffffffffffffffffffff\n        /* \"#utility.yul\":77:82   */\n      dup3\n        /* \"#utility.yul\":73:127   */\n      and\n        /* \"#utility.yul\":62:127   */\n      swap1\n      pop\n        /* \"#utility.yul\":7:133   */\n      swap2\n      swap1\n      pop\n      jump\t// out\n        /* \"#utility.yul\":139:235   */\n    tag_294:\n        /* \"#utility.yul\":176:183   */\n      0x00\n        /* \"#utility.yul\":205:229   */\n      tag_387\n        /* \"#utility.yul\":223:228   */\n      dup3\n        /* \"#utility.yul\":205:229   */\n      tag_293\n      jump\t// in\n    tag_387:\n        /* \"#utility.yul\":194:229   */\n      swap1\n      pop\n        /* \"#utility.yul\":139:235   */\n      swap2\n      swap1\n      pop\n      jump\t// out\n        /* \"#utility.yul\":241:359   */\n    tag_295:\n        /* \"#utility.yul\":328:352   */\n      tag_389\n        /* \"#utility.yul\":346:351   */\n      dup2\n        /* \"#utility.yul\":328:352   */\n      tag_294\n      jump\t// in\n    tag_389:\n        /* \"#utility.yul\":323:326   */\n      dup3\n        /* \"#utility.yul\":316:353   */\n      mstore\n        /* \"#utility.yul\":241:359   */\n      pop\n      pop\n      jump\t// out\n        /* \"#utility.yul\":365:587   */\n    tag_25:\n        /* \"#utility.yul\":458:462   */\n      0x00\n        /* \"#utility.yul\":496:498   */\n      0x20\n        /* \"#utility.yul\":485:494   */\n      dup3\n        /* \"#utility.yul\":481:499   */\n      add\n        /* \"#utility.yul\":473:499   */\n      swap1\n      pop\n        /* \"#utility.yul\":509:580   */\n      tag_391\n        /* \"#utility.yul\":577:578   */\n      0x00\n        /* \"#utility.yul\":566:575   */\n      dup4\n        /* \"#utility.yul\":562:579   */\n      add\n        /* \"#utility.yul\":553:559   */\n      dup5\n        /* \"#utility.yul\":509:580   */\n      tag_295\n      jump\t// in\n    tag_391:\n        /* \"#utility.yul\":365:587   */\n      swap3\n      swap2\n      pop\n      pop\n      jump\t// out\n        /* \"#utility.yul\":593:668   */\n    tag_296:\n        /* \"#utility.yul\":626:632   */\n      0x00\n        /* \"#utility.yul\":659:661   */\n      0x40\n        /* \"#utility.yul\":653:662   */\n      mload\n        /* \"#utility.yul\":643:662   */\n      swap1\n      pop\n        /* \"#utility.yul\":593:668   */\n      swap1\n      jump\t// out\n        /* \"#utility.yul\":674:791   */\n    tag_297:\n        /* \"#utility.yul\":783:784   */\n      0x00\n        /* \"#utility.yul\":780:781   */\n      dup1\n        /* \"#utility.yul\":773:785   */\n      revert\n        /* \"#utility.yul\":797:914   */\n    tag_298:\n        /* \"#utility.yul\":906:907   */\n      0x00\n        /* \"#utility.yul\":903:904   */\n      dup1\n        /* \"#utility.yul\":896:908   */\n      revert\n        /* \"#utility.yul\":920:1042   */\n    tag_299:\n        /* \"#utility.yul\":993:1017   */\n      tag_396\n        /* \"#utility.yul\":1011:1016   */\n      dup2\n        /* \"#utility.yul\":993:1017   */\n      tag_294\n      jump\t// in\n    tag_396:\n        /* \"#utility.yul\":986:991   */\n      dup2\n        /* \"#utility.yul\":983:1018   */\n      eq\n        /* \"#utility.yul\":973:1036   */\n      tag_397\n      jumpi\n        /* \"#utility.yul\":1032:1033   */\n      0x00\n        /* \"#utility.yul\":1029:1030   */\n      dup1\n        /* \"#utility.yul\":1022:1034   */\n      revert\n        /* \"#utility.yul\":973:1036   */\n    tag_397:\n        /* \"#utility.yul\":920:1042   */\n      pop\n      jump\t// out\n        /* \"#utility.yul\":1048:1187   */\n    tag_300:\n        /* \"#utility.yul\":1094:1099   */\n      0x00\n        /* \"#utility.yul\":1132:1138   */\n      dup2\n        /* \"#utility.yul\":1119:1139   */\n      calldataload\n        /* \"#utility.yul\":1110:1139   */\n      swap1\n      pop\n        /* \"#utility.yul\":1148:1181   */\n      tag_399\n        /* \"#utility.yul\":1175:1180   */\n      dup2\n        /* \"#utility.yul\":1148:1181   */\n      tag_299\n      jump\t// in\n    tag_399:\n        /* \"#utility.yul\":1048:1187   */\n      swap3\n      swap2\n      pop\n      pop\n      jump\t// out\n        /* \"#utility.yul\":1193:1522   */\n    tag_28:\n        /* \"#utility.yul\":1252:1258   */\n      0x00\n        /* \"#utility.yul\":1301:1303   */\n      0x20\n        /* \"#utility.yul\":1289:1298   */\n      dup3\n        /* \"#utility.yul\":1280:1287   */\n      dup5\n        /* \"#utility.yul\":1276:1299   */\n      sub\n        /* \"#utility.yul\":1272:1304   */\n      slt\n        /* \"#utility.yul\":1269:1388   */\n      iszero\n      tag_401\n      jumpi\n        /* \"#utility.yul\":1307:1386   */\n      tag_402\n      tag_297\n      jump\t// in\n    tag_402:\n        /* \"#utility.yul\":1269:1388   */\n    tag_401:\n        /* \"#utility.yul\":1427:1428   */\n      0x00\n        /* \"#utility.yul\":1452:1505   */\n      tag_403\n        /* \"#utility.yul\":1497:1504   */\n      dup5\n        /* \"#utility.yul\":1488:1494   */\n      dup3\n        /* \"#utility.yul\":1477:1486   */\n      dup6\n        /* \"#utility.yul\":1473:1495   */\n      add\n        /* \"#utility.yul\":1452:1505   */\n      tag_300\n      jump\t// in\n    tag_403:\n        /* \"#utility.yul\":1442:1505   */\n      swap2\n      pop\n        /* \"#utility.yul\":1398:1515   */\n      pop\n        /* \"#utility.yul\":1193:1522   */\n      swap3\n      swap2\n      pop\n      pop\n      jump\t// out\n        /* \"#utility.yul\":1528:1645   */\n    tag_301:\n        /* \"#utility.yul\":1637:1638   */\n      0x00\n        /* \"#utility.yul\":1634:1635   */\n      dup1\n        /* \"#utility.yul\":1627:1639   */\n      revert\n        /* \"#utility.yul\":1651:1768   */\n    tag_302:\n        /* \"#utility.yul\":1760:1761   */\n      0x00\n        /* \"#utility.yul\":1757:1758   */\n      dup1\n        /* \"#utility.yul\":1750:1762   */\n      revert\n        /* \"#utility.yul\":1774:1891   */\n    tag_303:\n        /* \"#utility.yul\":1883:1884   */\n      0x00\n        /* \"#utility.yul\":1880:1881   */\n      dup1\n        /* \"#utility.yul\":1873:1885   */\n      revert\n        /* \"#utility.yul\":1911:2464   */\n    tag_304:\n        /* \"#utility.yul\":1969:1977   */\n      0x00\n        /* \"#utility.yul\":1979:1985   */\n      dup1\n        /* \"#utility.yul\":2029:2032   */\n      dup4\n        /* \"#utility.yul\":2022:2026   */\n      0x1f\n        /* \"#utility.yul\":2014:2020   */\n      dup5\n        /* \"#utility.yul\":2010:2027   */\n      add\n        /* \"#utility.yul\":2006:2033   */\n      slt\n        /* \"#utility.yul\":1996:2118   */\n      tag_408\n      jumpi\n        /* \"#utility.yul\":2037:2116   */\n      tag_409\n      tag_301\n      jump\t// in\n    tag_409:\n        /* \"#utility.yul\":1996:2118   */\n    tag_408:\n        /* \"#utility.yul\":2150:2156   */\n      dup3\n        /* \"#utility.yul\":2137:2157   */\n      calldataload\n        /* \"#utility.yul\":2127:2157   */\n      swap1\n      pop\n        /* \"#utility.yul\":2180:2198   */\n      0xffffffffffffffff\n        /* \"#utility.yul\":2172:2178   */\n      dup2\n        /* \"#utility.yul\":2169:2199   */\n      gt\n        /* \"#utility.yul\":2166:2283   */\n      iszero\n      tag_410\n      jumpi\n        /* \"#utility.yul\":2202:2281   */\n      tag_411\n      tag_302\n      jump\t// in\n    tag_411:\n        /* \"#utility.yul\":2166:2283   */\n    tag_410:\n        /* \"#utility.yul\":2316:2320   */\n      0x20\n        /* \"#utility.yul\":2308:2314   */\n      dup4\n        /* \"#utility.yul\":2304:2321   */\n      add\n        /* \"#utility.yul\":2292:2321   */\n      swap2\n      pop\n        /* \"#utility.yul\":2370:2373   */\n      dup4\n        /* \"#utility.yul\":2362:2366   */\n      0x01\n        /* \"#utility.yul\":2354:2360   */\n      dup3\n        /* \"#utility.yul\":2350:2367   */\n      mul\n        /* \"#utility.yul\":2340:2348   */\n      dup4\n        /* \"#utility.yul\":2336:2368   */\n      add\n        /* \"#utility.yul\":2333:2374   */\n      gt\n        /* \"#utility.yul\":2330:2458   */\n      iszero\n      tag_412\n      jumpi\n        /* \"#utility.yul\":2377:2456   */\n      tag_413\n      tag_303\n      jump\t// in\n    tag_413:\n        /* \"#utility.yul\":2330:2458   */\n    tag_412:\n        /* \"#utility.yul\":1911:2464   */\n      swap3\n      pop\n      swap3\n      swap1\n      pop\n      jump\t// out\n        /* \"#utility.yul\":2470:2999   */\n    tag_33:\n        /* \"#utility.yul\":2541:2547   */\n      0x00\n        /* \"#utility.yul\":2549:2555   */\n      dup1\n        /* \"#utility.yul\":2598:2600   */\n      0x20\n        /* \"#utility.yul\":2586:2595   */\n      dup4\n        /* \"#utility.yul\":2577:2584   */\n      dup6\n        /* \"#utility.yul\":2573:2596   */\n      sub\n        /* \"#utility.yul\":2569:2601   */\n      slt\n        /* \"#utility.yul\":2566:2685   */\n      iszero\n      tag_415\n      jumpi\n        /* \"#utility.yul\":2604:2683   */\n      tag_416\n      tag_297\n      jump\t// in\n    tag_416:\n        /* \"#utility.yul\":2566:2685   */\n    tag_415:\n        /* \"#utility.yul\":2752:2753   */\n      0x00\n        /* \"#utility.yul\":2741:2750   */\n      dup4\n        /* \"#utility.yul\":2737:2754   */\n      add\n        /* \"#utility.yul\":2724:2755   */\n      calldataload\n        /* \"#utility.yul\":2782:2800   */\n      0xffffffffffffffff\n        /* \"#utility.yul\":2774:2780   */\n      dup2\n        /* \"#utility.yul\":2771:2801   */\n      gt\n        /* \"#utility.yul\":2768:2885   */\n      iszero\n      tag_417\n      jumpi\n        /* \"#utility.yul\":2804:2883   */\n      tag_418\n      tag_298\n      jump\t// in\n    tag_418:\n        /* \"#utility.yul\":2768:2885   */\n    tag_417:\n        /* \"#utility.yul\":2917:2982   */\n      tag_419\n        /* \"#utility.yul\":2974:2981   */\n      dup6\n        /* \"#utility.yul\":2965:2971   */\n      dup3\n        /* \"#utility.yul\":2954:2963   */\n      dup7\n        /* \"#utility.yul\":2950:2972   */\n      add\n        /* \"#utility.yul\":2917:2982   */\n      tag_304\n      jump\t// in\n    tag_419:\n        /* \"#utility.yul\":2899:2982   */\n      swap3\n      pop\n      swap3\n      pop\n        /* \"#utility.yul\":2695:2992   */\n      pop\n        /* \"#utility.yul\":2470:2999   */\n      swap3\n      pop\n      swap3\n      swap1\n      pop\n      jump\t// out\n        /* \"#utility.yul\":3005:3095   */\n    tag_305:\n        /* \"#utility.yul\":3039:3046   */\n      0x00\n        /* \"#utility.yul\":3082:3087   */\n      dup2\n        /* \"#utility.yul\":3075:3088   */\n      iszero\n        /* \"#utility.yul\":3068:3089   */\n      iszero\n        /* \"#utility.yul\":3057:3089   */\n      swap1\n      pop\n        /* \"#utility.yul\":3005:3095   */\n      swap2\n      swap1\n      pop\n      jump\t// out\n        /* \"#utility.yul\":3101:3210   */\n    tag_306:\n        /* \"#utility.yul\":3182:3203   */\n      tag_422\n        /* \"#utility.yul\":3197:3202   */\n      dup2\n        /* \"#utility.yul\":3182:3203   */\n      tag_305\n      jump\t// in\n    tag_422:\n        /* \"#utility.yul\":3177:3180   */\n      dup3\n        /* \"#utility.yul\":3170:3204   */\n      mstore\n        /* \"#utility.yul\":3101:3210   */\n      pop\n      pop\n      jump\t// out\n        /* \"#utility.yul\":3216:3426   */\n    tag_36:\n        /* \"#utility.yul\":3303:3307   */\n      0x00\n        /* \"#utility.yul\":3341:3343   */\n      0x20\n        /* \"#utility.yul\":3330:3339   */\n      dup3\n        /* \"#utility.yul\":3326:3344   */\n      add\n        /* \"#utility.yul\":3318:3344   */\n      swap1\n      pop\n        /* \"#utility.yul\":3354:3419   */\n      tag_424\n        /* \"#utility.yul\":3416:3417   */\n      0x00\n        /* \"#utility.yul\":3405:3414   */\n      dup4\n        /* \"#utility.yul\":3401:3418   */\n      add\n        /* \"#utility.yul\":3392:3398   */\n      dup5\n        /* \"#utility.yul\":3354:3419   */\n      tag_306\n      jump\t// in\n    tag_424:\n        /* \"#utility.yul\":3216:3426   */\n      swap3\n      swap2\n      pop\n      pop\n      jump\t// out\n        /* \"#utility.yul\":3432:3549   */\n    tag_307:\n        /* \"#utility.yul\":3541:3542   */\n      0x00\n        /* \"#utility.yul\":3538:3539   */\n      dup1\n        /* \"#utility.yul\":3531:3543   */\n      revert\n        /* \"#utility.yul\":3555:3657   */\n    tag_308:\n        /* \"#utility.yul\":3596:3602   */\n      0x00\n        /* \"#utility.yul\":3647:3649   */\n      0x1f\n        /* \"#utility.yul\":3643:3650   */\n      not\n        /* \"#utility.yul\":3638:3640   */\n      0x1f\n        /* \"#utility.yul\":3631:3636   */\n      dup4\n        /* \"#utility.yul\":3627:3641   */\n      add\n        /* \"#utility.yul\":3623:3651   */\n      and\n        /* \"#utility.yul\":3613:3651   */\n      swap1\n      pop\n        /* \"#utility.yul\":3555:3657   */\n      swap2\n      swap1\n      pop\n      jump\t// out\n        /* \"#utility.yul\":3663:3843   */\n    tag_309:\n        /* \"#utility.yul\":3711:3788   */\n      0x4e487b7100000000000000000000000000000000000000000000000000000000\n        /* \"#utility.yul\":3708:3709   */\n      0x00\n        /* \"#utility.yul\":3701:3789   */\n      mstore\n        /* \"#utility.yul\":3808:3812   */\n      0x41\n        /* \"#utility.yul\":3805:3806   */\n      0x04\n        /* \"#utility.yul\":3798:3813   */\n      mstore\n        /* \"#utility.yul\":3832:3836   */\n      0x24\n        /* \"#utility.yul\":3829:3830   */\n      0x00\n        /* \"#utility.yul\":3822:3837   */\n      revert\n        /* \"#utility.yul\":3849:4130   */\n    tag_310:\n        /* \"#utility.yul\":3932:3959   */\n      tag_429\n        /* \"#utility.yul\":3954:3958   */\n      dup3\n        /* \"#utility.yul\":3932:3959   */\n      tag_308\n      jump\t// in\n    tag_429:\n        /* \"#utility.yul\":3924:3930   */\n      dup2\n        /* \"#utility.yul\":3920:3960   */\n      add\n        /* \"#utility.yul\":4062:4068   */\n      dup2\n        /* \"#utility.yul\":4050:4060   */\n      dup2\n        /* \"#utility.yul\":4047:4069   */\n      lt\n        /* \"#utility.yul\":4026:4044   */\n      0xffffffffffffffff\n        /* \"#utility.yul\":4014:4024   */\n      dup3\n        /* \"#utility.yul\":4011:4045   */\n      gt\n        /* \"#utility.yul\":4008:4070   */\n      or\n        /* \"#utility.yul\":4005:4093   */\n      iszero\n      tag_430\n      jumpi\n        /* \"#utility.yul\":4073:4091   */\n      tag_431\n      tag_309\n      jump\t// in\n    tag_431:\n        /* \"#utility.yul\":4005:4093   */\n    tag_430:\n        /* \"#utility.yul\":4113:4123   */\n      dup1\n        /* \"#utility.yul\":4109:4111   */\n      0x40\n        /* \"#utility.yul\":4102:4124   */\n      mstore\n        /* \"#utility.yul\":3892:4130   */\n      pop\n        /* \"#utility.yul\":3849:4130   */\n      pop\n      pop\n      jump\t// out\n        /* \"#utility.yul\":4136:4265   */\n    tag_311:\n        /* \"#utility.yul\":4170:4176   */\n      0x00\n        /* \"#utility.yul\":4197:4217   */\n      tag_433\n      tag_296\n      jump\t// in\n    tag_433:\n        /* \"#utility.yul\":4187:4217   */\n      swap1\n      pop\n        /* \"#utility.yul\":4226:4259   */\n      tag_434\n        /* \"#utility.yul\":4254:4258   */\n      dup3\n        /* \"#utility.yul\":4246:4252   */\n      dup3\n        /* \"#utility.yul\":4226:4259   */\n      tag_310\n      jump\t// in\n    tag_434:\n        /* \"#utility.yul\":4136:4265   */\n      swap2\n      swap1\n      pop\n      jump\t// out\n        /* \"#utility.yul\":4271:4579   */\n    tag_312:\n        /* \"#utility.yul\":4333:4337   */\n      0x00\n        /* \"#utility.yul\":4423:4441   */\n      0xffffffffffffffff\n        /* \"#utility.yul\":4415:4421   */\n      dup3\n        /* \"#utility.yul\":4412:4442   */\n      gt\n        /* \"#utility.yul\":4409:4465   */\n      iszero\n      tag_436\n      jumpi\n        /* \"#utility.yul\":4445:4463   */\n      tag_437\n      tag_309\n      jump\t// in\n    tag_437:\n        /* \"#utility.yul\":4409:4465   */\n    tag_436:\n        /* \"#utility.yul\":4483:4512   */\n      tag_438\n        /* \"#utility.yul\":4505:4511   */\n      dup3\n        /* \"#utility.yul\":4483:4512   */\n      tag_308\n      jump\t// in\n    tag_438:\n        /* \"#utility.yul\":4475:4512   */\n      swap1\n      pop\n        /* \"#utility.yul\":4567:4571   */\n      0x20\n        /* \"#utility.yul\":4561:4565   */\n      dup2\n        /* \"#utility.yul\":4557:4572   */\n      add\n        /* \"#utility.yul\":4549:4572   */\n      swap1\n      pop\n        /* \"#utility.yul\":4271:4579   */\n      swap2\n      swap1\n      pop\n      jump\t// out\n        /* \"#utility.yul\":4585:4731   */\n    tag_313:\n        /* \"#utility.yul\":4682:4688   */\n      dup3\n        /* \"#utility.yul\":4677:4680   */\n      dup2\n        /* \"#utility.yul\":4672:4675   */\n      dup4\n        /* \"#utility.yul\":4659:4689   */\n      calldatacopy\n        /* \"#utility.yul\":4723:4724   */\n      0x00\n        /* \"#utility.yul\":4714:4720   */\n      dup4\n        /* \"#utility.yul\":4709:4712   */\n      dup4\n        /* \"#utility.yul\":4705:4721   */\n      add\n        /* \"#utility.yul\":4698:4725   */\n      mstore\n        /* \"#utility.yul\":4585:4731   */\n      pop\n      pop\n      pop\n      jump\t// out\n        /* \"#utility.yul\":4737:5162   */\n    tag_314:\n        /* \"#utility.yul\":4815:4820   */\n      0x00\n        /* \"#utility.yul\":4840:4906   */\n      tag_441\n        /* \"#utility.yul\":4856:4905   */\n      tag_442\n        /* \"#utility.yul\":4898:4904   */\n      dup5\n        /* \"#utility.yul\":4856:4905   */\n      tag_312\n      jump\t// in\n    tag_442:\n        /* \"#utility.yul\":4840:4906   */\n      tag_311\n      jump\t// in\n    tag_441:\n        /* \"#utility.yul\":4831:4906   */\n      swap1\n      pop\n        /* \"#utility.yul\":4929:4935   */\n      dup3\n        /* \"#utility.yul\":4922:4927   */\n      dup2\n        /* \"#utility.yul\":4915:4936   */\n      mstore\n        /* \"#utility.yul\":4967:4971   */\n      0x20\n        /* \"#utility.yul\":4960:4965   */\n      dup2\n        /* \"#utility.yul\":4956:4972   */\n      add\n        /* \"#utility.yul\":5005:5008   */\n      dup5\n        /* \"#utility.yul\":4996:5002   */\n      dup5\n        /* \"#utility.yul\":4991:4994   */\n      dup5\n        /* \"#utility.yul\":4987:5003   */\n      add\n        /* \"#utility.yul\":4984:5009   */\n      gt\n        /* \"#utility.yul\":4981:5093   */\n      iszero\n      tag_443\n      jumpi\n        /* \"#utility.yul\":5012:5091   */\n      tag_444\n      tag_307\n      jump\t// in\n    tag_444:\n        /* \"#utility.yul\":4981:5093   */\n    tag_443:\n        /* \"#utility.yul\":5102:5156   */\n      tag_445\n        /* \"#utility.yul\":5149:5155   */\n      dup5\n        /* \"#utility.yul\":5144:5147   */\n      dup3\n        /* \"#utility.yul\":5139:5142   */\n      dup6\n        /* \"#utility.yul\":5102:5156   */\n      tag_313\n      jump\t// in\n    tag_445:\n        /* \"#utility.yul\":4821:5162   */\n      pop\n        /* \"#utility.yul\":4737:5162   */\n      swap4\n      swap3\n      pop\n      pop\n      pop\n      jump\t// out\n        /* \"#utility.yul\":5182:5522   */\n    tag_315:\n        /* \"#utility.yul\":5238:5243   */\n      0x00\n        /* \"#utility.yul\":5287:5290   */\n      dup3\n        /* \"#utility.yul\":5280:5284   */\n      0x1f\n        /* \"#utility.yul\":5272:5278   */\n      dup4\n        /* \"#utility.yul\":5268:5285   */\n      add\n        /* \"#utility.yul\":5264:5291   */\n      slt\n        /* \"#utility.yul\":5254:5376   */\n      tag_447\n      jumpi\n        /* \"#utility.yul\":5295:5374   */\n      tag_448\n      tag_301\n      jump\t// in\n    tag_448:\n        /* \"#utility.yul\":5254:5376   */\n    tag_447:\n        /* \"#utility.yul\":5412:5418   */\n      dup2\n        /* \"#utility.yul\":5399:5419   */\n      calldataload\n        /* \"#utility.yul\":5437:5516   */\n      tag_449\n        /* \"#utility.yul\":5512:5515   */\n      dup5\n        /* \"#utility.yul\":5504:5510   */\n      dup3\n        /* \"#utility.yul\":5497:5501   */\n      0x20\n        /* \"#utility.yul\":5489:5495   */\n      dup7\n        /* \"#utility.yul\":5485:5502   */\n      add\n        /* \"#utility.yul\":5437:5516   */\n      tag_314\n      jump\t// in\n    tag_449:\n        /* \"#utility.yul\":5428:5516   */\n      swap2\n      pop\n        /* \"#utility.yul\":5244:5522   */\n      pop\n        /* \"#utility.yul\":5182:5522   */\n      swap3\n      swap2\n      pop\n      pop\n      jump\t// out\n        /* \"#utility.yul\":5528:6327   */\n    tag_39:\n        /* \"#utility.yul\":5615:5621   */\n      0x00\n        /* \"#utility.yul\":5623:5629   */\n      dup1\n        /* \"#utility.yul\":5631:5637   */\n      0x00\n        /* \"#utility.yul\":5680:5682   */\n      0x60\n        /* \"#utility.yul\":5668:5677   */\n      dup5\n        /* \"#utility.yul\":5659:5666   */\n      dup7\n        /* \"#utility.yul\":5655:5678   */\n      sub\n        /* \"#utility.yul\":5651:5683   */\n      slt\n        /* \"#utility.yul\":5648:5767   */\n      iszero\n      tag_451\n      jumpi\n        /* \"#utility.yul\":5686:5765   */\n      tag_452\n      tag_297\n      jump\t// in\n    tag_452:\n        /* \"#utility.yul\":5648:5767   */\n    tag_451:\n        /* \"#utility.yul\":5806:5807   */\n      0x00\n        /* \"#utility.yul\":5831:5884   */\n      tag_453\n        /* \"#utility.yul\":5876:5883   */\n      dup7\n        /* \"#utility.yul\":5867:5873   */\n      dup3\n        /* \"#utility.yul\":5856:5865   */\n      dup8\n        /* \"#utility.yul\":5852:5874   */\n      add\n        /* \"#utility.yul\":5831:5884   */\n      tag_300\n      jump\t// in\n    tag_453:\n        /* \"#utility.yul\":5821:5884   */\n      swap4\n      pop\n        /* \"#utility.yul\":5777:5894   */\n      pop\n        /* \"#utility.yul\":5933:5935   */\n      0x20\n        /* \"#utility.yul\":5959:6012   */\n      tag_454\n        /* \"#utility.yul\":6004:6011   */\n      dup7\n        /* \"#utility.yul\":5995:6001   */\n      dup3\n        /* \"#utility.yul\":5984:5993   */\n      dup8\n        /* \"#utility.yul\":5980:6002   */\n      add\n        /* \"#utility.yul\":5959:6012   */\n      tag_300\n      jump\t// in\n    tag_454:\n        /* \"#utility.yul\":5949:6012   */\n      swap3\n      pop\n        /* \"#utility.yul\":5904:6022   */\n      pop\n        /* \"#utility.yul\":6089:6091   */\n      0x40\n        /* \"#utility.yul\":6078:6087   */\n      dup5\n        /* \"#utility.yul\":6074:6092   */\n      add\n        /* \"#utility.yul\":6061:6093   */\n      calldataload\n        /* \"#utility.yul\":6120:6138   */\n      0xffffffffffffffff\n        /* \"#utility.yul\":6112:6118   */\n      dup2\n        /* \"#utility.yul\":6109:6139   */\n      gt\n        /* \"#utility.yul\":6106:6223   */\n      iszero\n      tag_455\n      jumpi\n        /* \"#utility.yul\":6142:6221   */\n      tag_456\n      tag_298\n      jump\t// in\n    tag_456:\n        /* \"#utility.yul\":6106:6223   */\n    tag_455:\n        /* \"#utility.yul\":6247:6310   */\n      tag_457\n        /* \"#utility.yul\":6302:6309   */\n      dup7\n        /* \"#utility.yul\":6293:6299   */\n      dup3\n        /* \"#utility.yul\":6282:6291   */\n      dup8\n        /* \"#utility.yul\":6278:6300   */\n      add\n        /* \"#utility.yul\":6247:6310   */\n      tag_315\n      jump\t// in\n    tag_457:\n        /* \"#utility.yul\":6237:6310   */\n      swap2\n      pop\n        /* \"#utility.yul\":6032:6320   */\n      pop\n        /* \"#utility.yul\":5528:6327   */\n      swap3\n      pop\n      swap3\n      pop\n      swap3\n      jump\t// out\n        /* \"#utility.yul\":6333:6447   */\n    tag_316:\n        /* \"#utility.yul\":6400:6406   */\n      0x00\n        /* \"#utility.yul\":6434:6439   */\n      dup2\n        /* \"#utility.yul\":6428:6440   */\n      mload\n        /* \"#utility.yul\":6418:6440   */\n      swap1\n      pop\n        /* \"#utility.yul\":6333:6447   */\n      swap2\n      swap1\n      pop\n      jump\t// out\n        /* \"#utility.yul\":6453:6637   */\n    tag_317:\n        /* \"#utility.yul\":6552:6563   */\n      0x00\n        /* \"#utility.yul\":6586:6592   */\n      dup3\n        /* \"#utility.yul\":6581:6584   */\n      dup3\n        /* \"#utility.yul\":6574:6593   */\n      mstore\n        /* \"#utility.yul\":6626:6630   */\n      0x20\n        /* \"#utility.yul\":6621:6624   */\n      dup3\n        /* \"#utility.yul\":6617:6631   */\n      add\n        /* \"#utility.yul\":6602:6631   */\n      swap1\n      pop\n        /* \"#utility.yul\":6453:6637   */\n      swap3\n      swap2\n      pop\n      pop\n      jump\t// out\n        /* \"#utility.yul\":6643:6775   */\n    tag_318:\n        /* \"#utility.yul\":6710:6714   */\n      0x00\n        /* \"#utility.yul\":6733:6736   */\n      dup2\n        /* \"#utility.yul\":6725:6736   */\n      swap1\n      pop\n        /* \"#utility.yul\":6763:6767   */\n      0x20\n        /* \"#utility.yul\":6758:6761   */\n      dup3\n        /* \"#utility.yul\":6754:6768   */\n      add\n        /* \"#utility.yul\":6746:6768   */\n      swap1\n      pop\n        /* \"#utility.yul\":6643:6775   */\n      swap2\n      swap1\n      pop\n      jump\t// out\n        /* \"#utility.yul\":6781:6889   */\n    tag_319:\n        /* \"#utility.yul\":6858:6882   */\n      tag_462\n        /* \"#utility.yul\":6876:6881   */\n      dup2\n        /* \"#utility.yul\":6858:6882   */\n      tag_294\n      jump\t// in\n    tag_462:\n        /* \"#utility.yul\":6853:6856   */\n      dup3\n        /* \"#utility.yul\":6846:6883   */\n      mstore\n        /* \"#utility.yul\":6781:6889   */\n      pop\n      pop\n      jump\t// out\n        /* \"#utility.yul\":6895:7074   */\n    tag_320:\n        /* \"#utility.yul\":6964:6974   */\n      0x00\n        /* \"#utility.yul\":6985:7031   */\n      tag_464\n        /* \"#utility.yul\":7027:7030   */\n      dup4\n        /* \"#utility.yul\":7019:7025   */\n      dup4\n        /* \"#utility.yul\":6985:7031   */\n      tag_319\n      jump\t// in\n    tag_464:\n        /* \"#utility.yul\":7063:7067   */\n      0x20\n        /* \"#utility.yul\":7058:7061   */\n      dup4\n        /* \"#utility.yul\":7054:7068   */\n      add\n        /* \"#utility.yul\":7040:7068   */\n      swap1\n      pop\n        /* \"#utility.yul\":6895:7074   */\n      swap3\n      swap2\n      pop\n      pop\n      jump\t// out\n        /* \"#utility.yul\":7080:7193   */\n    tag_321:\n        /* \"#utility.yul\":7150:7154   */\n      0x00\n        /* \"#utility.yul\":7182:7186   */\n      0x20\n        /* \"#utility.yul\":7177:7180   */\n      dup3\n        /* \"#utility.yul\":7173:7187   */\n      add\n        /* \"#utility.yul\":7165:7187   */\n      swap1\n      pop\n        /* \"#utility.yul\":7080:7193   */\n      swap2\n      swap1\n      pop\n      jump\t// out\n        /* \"#utility.yul\":7229:7961   */\n    tag_322:\n        /* \"#utility.yul\":7348:7351   */\n      0x00\n        /* \"#utility.yul\":7377:7431   */\n      tag_467\n        /* \"#utility.yul\":7425:7430   */\n      dup3\n        /* \"#utility.yul\":7377:7431   */\n      tag_316\n      jump\t// in\n    tag_467:\n        /* \"#utility.yul\":7447:7533   */\n      tag_468\n        /* \"#utility.yul\":7526:7532   */\n      dup2\n        /* \"#utility.yul\":7521:7524   */\n      dup6\n        /* \"#utility.yul\":7447:7533   */\n      tag_317\n      jump\t// in\n    tag_468:\n        /* \"#utility.yul\":7440:7533   */\n      swap4\n      pop\n        /* \"#utility.yul\":7557:7613   */\n      tag_469\n        /* \"#utility.yul\":7607:7612   */\n      dup4\n        /* \"#utility.yul\":7557:7613   */\n      tag_318\n      jump\t// in\n    tag_469:\n        /* \"#utility.yul\":7636:7643   */\n      dup1\n        /* \"#utility.yul\":7667:7668   */\n      0x00\n        /* \"#utility.yul\":7652:7936   */\n    tag_470:\n        /* \"#utility.yul\":7677:7683   */\n      dup4\n        /* \"#utility.yul\":7674:7675   */\n      dup2\n        /* \"#utility.yul\":7671:7684   */\n      lt\n        /* \"#utility.yul\":7652:7936   */\n      iszero\n      tag_472\n      jumpi\n        /* \"#utility.yul\":7753:7759   */\n      dup2\n        /* \"#utility.yul\":7747:7760   */\n      mload\n        /* \"#utility.yul\":7780:7843   */\n      tag_473\n        /* \"#utility.yul\":7839:7842   */\n      dup9\n        /* \"#utility.yul\":7824:7837   */\n      dup3\n        /* \"#utility.yul\":7780:7843   */\n      tag_320\n      jump\t// in\n    tag_473:\n        /* \"#utility.yul\":7773:7843   */\n      swap8\n      pop\n        /* \"#utility.yul\":7866:7926   */\n      tag_474\n        /* \"#utility.yul\":7919:7925   */\n      dup4\n        /* \"#utility.yul\":7866:7926   */\n      tag_321\n      jump\t// in\n    tag_474:\n        /* \"#utility.yul\":7856:7926   */\n      swap3\n      pop\n        /* \"#utility.yul\":7712:7936   */\n      pop\n        /* \"#utility.yul\":7699:7700   */\n      0x01\n        /* \"#utility.yul\":7696:7697   */\n      dup2\n        /* \"#utility.yul\":7692:7701   */\n      add\n        /* \"#utility.yul\":7687:7701   */\n      swap1\n      pop\n        /* \"#utility.yul\":7652:7936   */\n      jump(tag_470)\n    tag_472:\n        /* \"#utility.yul\":7656:7670   */\n      pop\n        /* \"#utility.yul\":7952:7955   */\n      dup6\n        /* \"#utility.yul\":7945:7955   */\n      swap4\n      pop\n        /* \"#utility.yul\":7353:7961   */\n      pop\n      pop\n      pop\n        /* \"#utility.yul\":7229:7961   */\n      swap3\n      swap2\n      pop\n      pop\n      jump\t// out\n        /* \"#utility.yul\":7967:8340   */\n    tag_50:\n        /* \"#utility.yul\":8110:8114   */\n      0x00\n        /* \"#utility.yul\":8148:8150   */\n      0x20\n        /* \"#utility.yul\":8137:8146   */\n      dup3\n        /* \"#utility.yul\":8133:8151   */\n      add\n        /* \"#utility.yul\":8125:8151   */\n      swap1\n      pop\n        /* \"#utility.yul\":8197:8206   */\n      dup2\n        /* \"#utility.yul\":8191:8195   */\n      dup2\n        /* \"#utility.yul\":8187:8207   */\n      sub\n        /* \"#utility.yul\":8183:8184   */\n      0x00\n        /* \"#utility.yul\":8172:8181   */\n      dup4\n        /* \"#utility.yul\":8168:8185   */\n      add\n        /* \"#utility.yul\":8161:8208   */\n      mstore\n        /* \"#utility.yul\":8225:8333   */\n      tag_476\n        /* \"#utility.yul\":8328:8332   */\n      dup2\n        /* \"#utility.yul\":8319:8325   */\n      dup5\n        /* \"#utility.yul\":8225:8333   */\n      tag_322\n      jump\t// in\n    tag_476:\n        /* \"#utility.yul\":8217:8333   */\n      swap1\n      pop\n        /* \"#utility.yul\":7967:8340   */\n      swap3\n      swap2\n      pop\n      pop\n      jump\t// out\n        /* \"#utility.yul\":8346:9000   */\n    tag_65:\n        /* \"#utility.yul\":8424:8430   */\n      0x00\n        /* \"#utility.yul\":8432:8438   */\n      dup1\n        /* \"#utility.yul\":8481:8483   */\n      0x40\n        /* \"#utility.yul\":8469:8478   */\n      dup4\n        /* \"#utility.yul\":8460:8467   */\n      dup6\n        /* \"#utility.yul\":8456:8479   */\n      sub\n        /* \"#utility.yul\":8452:8484   */\n      slt\n        /* \"#utility.yul\":8449:8568   */\n      iszero\n      tag_478\n      jumpi\n        /* \"#utility.yul\":8487:8566   */\n      tag_479\n      tag_297\n      jump\t// in\n    tag_479:\n        /* \"#utility.yul\":8449:8568   */\n    tag_478:\n        /* \"#utility.yul\":8607:8608   */\n      0x00\n        /* \"#utility.yul\":8632:8685   */\n      tag_480\n        /* \"#utility.yul\":8677:8684   */\n      dup6\n        /* \"#utility.yul\":8668:8674   */\n      dup3\n        /* \"#utility.yul\":8657:8666   */\n      dup7\n        /* \"#utility.yul\":8653:8675   */\n      add\n        /* \"#utility.yul\":8632:8685   */\n      tag_300\n      jump\t// in\n    tag_480:\n        /* \"#utility.yul\":8622:8685   */\n      swap3\n      pop\n        /* \"#utility.yul\":8578:8695   */\n      pop\n        /* \"#utility.yul\":8762:8764   */\n      0x20\n        /* \"#utility.yul\":8751:8760   */\n      dup4\n        /* \"#utility.yul\":8747:8765   */\n      add\n        /* \"#utility.yul\":8734:8766   */\n      calldataload\n        /* \"#utility.yul\":8793:8811   */\n      0xffffffffffffffff\n        /* \"#utility.yul\":8785:8791   */\n      dup2\n        /* \"#utility.yul\":8782:8812   */\n      gt\n        /* \"#utility.yul\":8779:8896   */\n      iszero\n      tag_481\n      jumpi\n        /* \"#utility.yul\":8815:8894   */\n      tag_482\n      tag_298\n      jump\t// in\n    tag_482:\n        /* \"#utility.yul\":8779:8896   */\n    tag_481:\n        /* \"#utility.yul\":8920:8983   */\n      tag_483\n        /* \"#utility.yul\":8975:8982   */\n      dup6\n        /* \"#utility.yul\":8966:8972   */\n      dup3\n        /* \"#utility.yul\":8955:8964   */\n      dup7\n        /* \"#utility.yul\":8951:8973   */\n      add\n        /* \"#utility.yul\":8920:8983   */\n      tag_315\n      jump\t// in\n    tag_483:\n        /* \"#utility.yul\":8910:8983   */\n      swap2\n      pop\n        /* \"#utility.yul\":8705:8993   */\n      pop\n        /* \"#utility.yul\":8346:9000   */\n      swap3\n      pop\n      swap3\n      swap1\n      pop\n      jump\t// out\n        /* \"#utility.yul\":9006:9317   */\n    tag_323:\n        /* \"#utility.yul\":9083:9087   */\n      0x00\n        /* \"#utility.yul\":9173:9191   */\n      0xffffffffffffffff\n        /* \"#utility.yul\":9165:9171   */\n      dup3\n        /* \"#utility.yul\":9162:9192   */\n      gt\n        /* \"#utility.yul\":9159:9215   */\n      iszero\n      tag_485\n      jumpi\n        /* \"#utility.yul\":9195:9213   */\n      tag_486\n      tag_309\n      jump\t// in\n    tag_486:\n        /* \"#utility.yul\":9159:9215   */\n    tag_485:\n        /* \"#utility.yul\":9245:9249   */\n      0x20\n        /* \"#utility.yul\":9237:9243   */\n      dup3\n        /* \"#utility.yul\":9233:9250   */\n      mul\n        /* \"#utility.yul\":9225:9250   */\n      swap1\n      pop\n        /* \"#utility.yul\":9305:9309   */\n      0x20\n        /* \"#utility.yul\":9299:9303   */\n      dup2\n        /* \"#utility.yul\":9295:9310   */\n      add\n        /* \"#utility.yul\":9287:9310   */\n      swap1\n      pop\n        /* \"#utility.yul\":9006:9317   */\n      swap2\n      swap1\n      pop\n      jump\t// out\n        /* \"#utility.yul\":9323:9400   */\n    tag_324:\n        /* \"#utility.yul\":9360:9367   */\n      0x00\n        /* \"#utility.yul\":9389:9394   */\n      dup2\n        /* \"#utility.yul\":9378:9394   */\n      swap1\n      pop\n        /* \"#utility.yul\":9323:9400   */\n      swap2\n      swap1\n      pop\n      jump\t// out\n        /* \"#utility.yul\":9406:9528   */\n    tag_325:\n        /* \"#utility.yul\":9479:9503   */\n      tag_489\n        /* \"#utility.yul\":9497:9502   */\n      dup2\n        /* \"#utility.yul\":9479:9503   */\n      tag_324\n      jump\t// in\n    tag_489:\n        /* \"#utility.yul\":9472:9477   */\n      dup2\n        /* \"#utility.yul\":9469:9504   */\n      eq\n        /* \"#utility.yul\":9459:9522   */\n      tag_490\n      jumpi\n        /* \"#utility.yul\":9518:9519   */\n      0x00\n        /* \"#utility.yul\":9515:9516   */\n      dup1\n        /* \"#utility.yul\":9508:9520   */\n      revert\n        /* \"#utility.yul\":9459:9522   */\n    tag_490:\n        /* \"#utility.yul\":9406:9528   */\n      pop\n      jump\t// out\n        /* \"#utility.yul\":9534:9673   */\n    tag_326:\n        /* \"#utility.yul\":9580:9585   */\n      0x00\n        /* \"#utility.yul\":9618:9624   */\n      dup2\n        /* \"#utility.yul\":9605:9625   */\n      calldataload\n        /* \"#utility.yul\":9596:9625   */\n      swap1\n      pop\n        /* \"#utility.yul\":9634:9667   */\n      tag_492\n        /* \"#utility.yul\":9661:9666   */\n      dup2\n        /* \"#utility.yul\":9634:9667   */\n      tag_325\n      jump\t// in\n    tag_492:\n        /* \"#utility.yul\":9534:9673   */\n      swap3\n      swap2\n      pop\n      pop\n      jump\t// out\n        /* \"#utility.yul\":9696:10406   */\n    tag_327:\n        /* \"#utility.yul\":9792:9797   */\n      0x00\n        /* \"#utility.yul\":9817:9898   */\n      tag_494\n        /* \"#utility.yul\":9833:9897   */\n      tag_495\n        /* \"#utility.yul\":9890:9896   */\n      dup5\n        /* \"#utility.yul\":9833:9897   */\n      tag_323\n      jump\t// in\n    tag_495:\n        /* \"#utility.yul\":9817:9898   */\n      tag_311\n      jump\t// in\n    tag_494:\n        /* \"#utility.yul\":9808:9898   */\n      swap1\n      pop\n        /* \"#utility.yul\":9918:9923   */\n      dup1\n        /* \"#utility.yul\":9947:9953   */\n      dup4\n        /* \"#utility.yul\":9940:9945   */\n      dup3\n        /* \"#utility.yul\":9933:9954   */\n      mstore\n        /* \"#utility.yul\":9981:9985   */\n      0x20\n        /* \"#utility.yul\":9974:9979   */\n      dup3\n        /* \"#utility.yul\":9970:9986   */\n      add\n        /* \"#utility.yul\":9963:9986   */\n      swap1\n      pop\n        /* \"#utility.yul\":10034:10038   */\n      0x20\n        /* \"#utility.yul\":10026:10032   */\n      dup5\n        /* \"#utility.yul\":10022:10039   */\n      mul\n        /* \"#utility.yul\":10014:10020   */\n      dup4\n        /* \"#utility.yul\":10010:10040   */\n      add\n        /* \"#utility.yul\":10063:10066   */\n      dup6\n        /* \"#utility.yul\":10055:10061   */\n      dup2\n        /* \"#utility.yul\":10052:10067   */\n      gt\n        /* \"#utility.yul\":10049:10171   */\n      iszero\n      tag_496\n      jumpi\n        /* \"#utility.yul\":10082:10161   */\n      tag_497\n      tag_303\n      jump\t// in\n    tag_497:\n        /* \"#utility.yul\":10049:10171   */\n    tag_496:\n        /* \"#utility.yul\":10197:10203   */\n      dup4\n        /* \"#utility.yul\":10180:10400   */\n    tag_498:\n        /* \"#utility.yul\":10214:10220   */\n      dup2\n        /* \"#utility.yul\":10209:10212   */\n      dup2\n        /* \"#utility.yul\":10206:10221   */\n      lt\n        /* \"#utility.yul\":10180:10400   */\n      iszero\n      tag_500\n      jumpi\n        /* \"#utility.yul\":10289:10292   */\n      dup1\n        /* \"#utility.yul\":10318:10355   */\n      tag_501\n        /* \"#utility.yul\":10351:10354   */\n      dup9\n        /* \"#utility.yul\":10339:10349   */\n      dup3\n        /* \"#utility.yul\":10318:10355   */\n      tag_326\n      jump\t// in\n    tag_501:\n        /* \"#utility.yul\":10313:10316   */\n      dup5\n        /* \"#utility.yul\":10306:10356   */\n      mstore\n        /* \"#utility.yul\":10385:10389   */\n      0x20\n        /* \"#utility.yul\":10380:10383   */\n      dup5\n        /* \"#utility.yul\":10376:10390   */\n      add\n        /* \"#utility.yul\":10369:10390   */\n      swap4\n      pop\n        /* \"#utility.yul\":10256:10400   */\n      pop\n        /* \"#utility.yul\":10240:10244   */\n      0x20\n        /* \"#utility.yul\":10235:10238   */\n      dup2\n        /* \"#utility.yul\":10231:10245   */\n      add\n        /* \"#utility.yul\":10224:10245   */\n      swap1\n      pop\n        /* \"#utility.yul\":10180:10400   */\n      jump(tag_498)\n    tag_500:\n        /* \"#utility.yul\":10184:10205   */\n      pop\n        /* \"#utility.yul\":9798:10406   */\n      pop\n      pop\n        /* \"#utility.yul\":9696:10406   */\n      swap4\n      swap3\n      pop\n      pop\n      pop\n      jump\t// out\n        /* \"#utility.yul\":10429:10799   */\n    tag_328:\n        /* \"#utility.yul\":10500:10505   */\n      0x00\n        /* \"#utility.yul\":10549:10552   */\n      dup3\n        /* \"#utility.yul\":10542:10546   */\n      0x1f\n        /* \"#utility.yul\":10534:10540   */\n      dup4\n        /* \"#utility.yul\":10530:10547   */\n      add\n        /* \"#utility.yul\":10526:10553   */\n      slt\n        /* \"#utility.yul\":10516:10638   */\n      tag_503\n      jumpi\n        /* \"#utility.yul\":10557:10636   */\n      tag_504\n      tag_301\n      jump\t// in\n    tag_504:\n        /* \"#utility.yul\":10516:10638   */\n    tag_503:\n        /* \"#utility.yul\":10674:10680   */\n      dup2\n        /* \"#utility.yul\":10661:10681   */\n      calldataload\n        /* \"#utility.yul\":10699:10793   */\n      tag_505\n        /* \"#utility.yul\":10789:10792   */\n      dup5\n        /* \"#utility.yul\":10781:10787   */\n      dup3\n        /* \"#utility.yul\":10774:10778   */\n      0x20\n        /* \"#utility.yul\":10766:10772   */\n      dup7\n        /* \"#utility.yul\":10762:10779   */\n      add\n        /* \"#utility.yul\":10699:10793   */\n      tag_327\n      jump\t// in\n    tag_505:\n        /* \"#utility.yul\":10690:10793   */\n      swap2\n      pop\n        /* \"#utility.yul\":10506:10799   */\n      pop\n        /* \"#utility.yul\":10429:10799   */\n      swap3\n      swap2\n      pop\n      pop\n      jump\t// out\n        /* \"#utility.yul\":10805:11814   */\n    tag_82:\n        /* \"#utility.yul\":10917:10923   */\n      0x00\n        /* \"#utility.yul\":10925:10931   */\n      dup1\n        /* \"#utility.yul\":10933:10939   */\n      0x00\n        /* \"#utility.yul\":10982:10984   */\n      0x60\n        /* \"#utility.yul\":10970:10979   */\n      dup5\n        /* \"#utility.yul\":10961:10968   */\n      dup7\n        /* \"#utility.yul\":10957:10980   */\n      sub\n        /* \"#utility.yul\":10953:10985   */\n      slt\n        /* \"#utility.yul\":10950:11069   */\n      iszero\n      tag_507\n      jumpi\n        /* \"#utility.yul\":10988:11067   */\n      tag_508\n      tag_297\n      jump\t// in\n    tag_508:\n        /* \"#utility.yul\":10950:11069   */\n    tag_507:\n        /* \"#utility.yul\":11108:11109   */\n      0x00\n        /* \"#utility.yul\":11133:11186   */\n      tag_509\n        /* \"#utility.yul\":11178:11185   */\n      dup7\n        /* \"#utility.yul\":11169:11175   */\n      dup3\n        /* \"#utility.yul\":11158:11167   */\n      dup8\n        /* \"#utility.yul\":11154:11176   */\n      add\n        /* \"#utility.yul\":11133:11186   */\n      tag_300\n      jump\t// in\n    tag_509:\n        /* \"#utility.yul\":11123:11186   */\n      swap4\n      pop\n        /* \"#utility.yul\":11079:11196   */\n      pop\n        /* \"#utility.yul\":11263:11265   */\n      0x20\n        /* \"#utility.yul\":11252:11261   */\n      dup5\n        /* \"#utility.yul\":11248:11266   */\n      add\n        /* \"#utility.yul\":11235:11267   */\n      calldataload\n        /* \"#utility.yul\":11294:11312   */\n      0xffffffffffffffff\n        /* \"#utility.yul\":11286:11292   */\n      dup2\n        /* \"#utility.yul\":11283:11313   */\n      gt\n        /* \"#utility.yul\":11280:11397   */\n      iszero\n      tag_510\n      jumpi\n        /* \"#utility.yul\":11316:11395   */\n      tag_511\n      tag_298\n      jump\t// in\n    tag_511:\n        /* \"#utility.yul\":11280:11397   */\n    tag_510:\n        /* \"#utility.yul\":11421:11484   */\n      tag_512\n        /* \"#utility.yul\":11476:11483   */\n      dup7\n        /* \"#utility.yul\":11467:11473   */\n      dup3\n        /* \"#utility.yul\":11456:11465   */\n      dup8\n        /* \"#utility.yul\":11452:11474   */\n      add\n        /* \"#utility.yul\":11421:11484   */\n      tag_315\n      jump\t// in\n    tag_512:\n        /* \"#utility.yul\":11411:11484   */\n      swap3\n      pop\n        /* \"#utility.yul\":11206:11494   */\n      pop\n        /* \"#utility.yul\":11561:11563   */\n      0x40\n        /* \"#utility.yul\":11550:11559   */\n      dup5\n        /* \"#utility.yul\":11546:11564   */\n      add\n        /* \"#utility.yul\":11533:11565   */\n      calldataload\n        /* \"#utility.yul\":11592:11610   */\n      0xffffffffffffffff\n        /* \"#utility.yul\":11584:11590   */\n      dup2\n        /* \"#utility.yul\":11581:11611   */\n      gt\n        /* \"#utility.yul\":11578:11695   */\n      iszero\n      tag_513\n      jumpi\n        /* \"#utility.yul\":11614:11693   */\n      tag_514\n      tag_298\n      jump\t// in\n    tag_514:\n        /* \"#utility.yul\":11578:11695   */\n    tag_513:\n        /* \"#utility.yul\":11719:11797   */\n      tag_515\n        /* \"#utility.yul\":11789:11796   */\n      dup7\n        /* \"#utility.yul\":11780:11786   */\n      dup3\n        /* \"#utility.yul\":11769:11778   */\n      dup8\n        /* \"#utility.yul\":11765:11787   */\n      add\n        /* \"#utility.yul\":11719:11797   */\n      tag_328\n      jump\t// in\n    tag_515:\n        /* \"#utility.yul\":11709:11797   */\n      swap2\n      pop\n        /* \"#utility.yul\":11504:11807   */\n      pop\n        /* \"#utility.yul\":10805:11814   */\n      swap3\n      pop\n      swap3\n      pop\n      swap3\n      jump\t// out\n        /* \"#utility.yul\":11820:11968   */\n    tag_329:\n        /* \"#utility.yul\":11922:11933   */\n      0x00\n        /* \"#utility.yul\":11959:11962   */\n      dup2\n        /* \"#utility.yul\":11944:11962   */\n      swap1\n      pop\n        /* \"#utility.yul\":11820:11968   */\n      swap3\n      swap2\n      pop\n      pop\n      jump\t// out\n        /* \"#utility.yul\":11998:12328   */\n    tag_330:\n        /* \"#utility.yul\":12114:12117   */\n      0x00\n        /* \"#utility.yul\":12135:12224   */\n      tag_518\n        /* \"#utility.yul\":12217:12223   */\n      dup4\n        /* \"#utility.yul\":12212:12215   */\n      dup6\n        /* \"#utility.yul\":12135:12224   */\n      tag_329\n      jump\t// in\n    tag_518:\n        /* \"#utility.yul\":12128:12224   */\n      swap4\n      pop\n        /* \"#utility.yul\":12234:12290   */\n      tag_519\n        /* \"#utility.yul\":12283:12289   */\n      dup4\n        /* \"#utility.yul\":12278:12281   */\n      dup6\n        /* \"#utility.yul\":12271:12276   */\n      dup5\n        /* \"#utility.yul\":12234:12290   */\n      tag_313\n      jump\t// in\n    tag_519:\n        /* \"#utility.yul\":12315:12321   */\n      dup3\n        /* \"#utility.yul\":12310:12313   */\n      dup5\n        /* \"#utility.yul\":12306:12322   */\n      add\n        /* \"#utility.yul\":12299:12322   */\n      swap1\n      pop\n        /* \"#utility.yul\":11998:12328   */\n      swap4\n      swap3\n      pop\n      pop\n      pop\n      jump\t// out\n        /* \"#utility.yul\":12334:12629   */\n    tag_91:\n        /* \"#utility.yul\":12476:12479   */\n      0x00\n        /* \"#utility.yul\":12498:12603   */\n      tag_521\n        /* \"#utility.yul\":12599:12602   */\n      dup3\n        /* \"#utility.yul\":12590:12596   */\n      dup5\n        /* \"#utility.yul\":12582:12588   */\n      dup7\n        /* \"#utility.yul\":12498:12603   */\n      tag_330\n      jump\t// in\n    tag_521:\n        /* \"#utility.yul\":12491:12603   */\n      swap2\n      pop\n        /* \"#utility.yul\":12620:12623   */\n      dup2\n        /* \"#utility.yul\":12613:12623   */\n      swap1\n      pop\n        /* \"#utility.yul\":12334:12629   */\n      swap4\n      swap3\n      pop\n      pop\n      pop\n      jump\t// out\n        /* \"#utility.yul\":12635:12804   */\n    tag_331:\n        /* \"#utility.yul\":12719:12730   */\n      0x00\n        /* \"#utility.yul\":12753:12759   */\n      dup3\n        /* \"#utility.yul\":12748:12751   */\n      dup3\n        /* \"#utility.yul\":12741:12760   */\n      mstore\n        /* \"#utility.yul\":12793:12797   */\n      0x20\n        /* \"#utility.yul\":12788:12791   */\n      dup3\n        /* \"#utility.yul\":12784:12798   */\n      add\n        /* \"#utility.yul\":12769:12798   */\n      swap1\n      pop\n        /* \"#utility.yul\":12635:12804   */\n      swap3\n      swap2\n      pop\n      pop\n      jump\t// out\n        /* \"#utility.yul\":12810:12990   */\n    tag_332:\n        /* \"#utility.yul\":12950:12982   */\n      0x6f6e6c7920466163746f7279206f72206f776e65722063616e2063616c6c0000\n        /* \"#utility.yul\":12946:12947   */\n      0x00\n        /* \"#utility.yul\":12938:12944   */\n      dup3\n        /* \"#utility.yul\":12934:12948   */\n      add\n        /* \"#utility.yul\":12927:12983   */\n      mstore\n        /* \"#utility.yul\":12810:12990   */\n      pop\n      jump\t// out\n        /* \"#utility.yul\":12996:13362   */\n    tag_333:\n        /* \"#utility.yul\":13138:13141   */\n      0x00\n        /* \"#utility.yul\":13159:13226   */\n      tag_525\n        /* \"#utility.yul\":13223:13225   */\n      0x1e\n        /* \"#utility.yul\":13218:13221   */\n      dup4\n        /* \"#utility.yul\":13159:13226   */\n      tag_331\n      jump\t// in\n    tag_525:\n        /* \"#utility.yul\":13152:13226   */\n      swap2\n      pop\n        /* \"#utility.yul\":13235:13328   */\n      tag_526\n        /* \"#utility.yul\":13324:13327   */\n      dup3\n        /* \"#utility.yul\":13235:13328   */\n      tag_332\n      jump\t// in\n    tag_526:\n        /* \"#utility.yul\":13353:13355   */\n      0x20\n        /* \"#utility.yul\":13348:13351   */\n      dup3\n        /* \"#utility.yul\":13344:13356   */\n      add\n        /* \"#utility.yul\":13337:13356   */\n      swap1\n      pop\n        /* \"#utility.yul\":12996:13362   */\n      swap2\n      swap1\n      pop\n      jump\t// out\n        /* \"#utility.yul\":13368:13787   */\n    tag_98:\n        /* \"#utility.yul\":13534:13538   */\n      0x00\n        /* \"#utility.yul\":13572:13574   */\n      0x20\n        /* \"#utility.yul\":13561:13570   */\n      dup3\n        /* \"#utility.yul\":13557:13575   */\n      add\n        /* \"#utility.yul\":13549:13575   */\n      swap1\n      pop\n        /* \"#utility.yul\":13621:13630   */\n      dup2\n        /* \"#utility.yul\":13615:13619   */\n      dup2\n        /* \"#utility.yul\":13611:13631   */\n      sub\n        /* \"#utility.yul\":13607:13608   */\n      0x00\n        /* \"#utility.yul\":13596:13605   */\n      dup4\n        /* \"#utility.yul\":13592:13609   */\n      add\n        /* \"#utility.yul\":13585:13632   */\n      mstore\n        /* \"#utility.yul\":13649:13780   */\n      tag_528\n        /* \"#utility.yul\":13775:13779   */\n      dup2\n        /* \"#utility.yul\":13649:13780   */\n      tag_333\n      jump\t// in\n    tag_528:\n        /* \"#utility.yul\":13641:13780   */\n      swap1\n      pop\n        /* \"#utility.yul\":13368:13787   */\n      swap2\n      swap1\n      pop\n      jump\t// out\n        /* \"#utility.yul\":13793:13974   */\n    tag_334:\n        /* \"#utility.yul\":13933:13966   */\n      0x696e76616c696420617267756d656e74202d207a65726f206164647265737300\n        /* \"#utility.yul\":13929:13930   */\n      0x00\n        /* \"#utility.yul\":13921:13927   */\n      dup3\n        /* \"#utility.yul\":13917:13931   */\n      add\n        /* \"#utility.yul\":13910:13967   */\n      mstore\n        /* \"#utility.yul\":13793:13974   */\n      pop\n      jump\t// out\n        /* \"#utility.yul\":13980:14346   */\n    tag_335:\n        /* \"#utility.yul\":14122:14125   */\n      0x00\n        /* \"#utility.yul\":14143:14210   */\n      tag_531\n        /* \"#utility.yul\":14207:14209   */\n      0x1f\n        /* \"#utility.yul\":14202:14205   */\n      dup4\n        /* \"#utility.yul\":14143:14210   */\n      tag_331\n      jump\t// in\n    tag_531:\n        /* \"#utility.yul\":14136:14210   */\n      swap2\n      pop\n        /* \"#utility.yul\":14219:14312   */\n      tag_532\n        /* \"#utility.yul\":14308:14311   */\n      dup3\n        /* \"#utility.yul\":14219:14312   */\n      tag_334\n      jump\t// in\n    tag_532:\n        /* \"#utility.yul\":14337:14339   */\n      0x20\n        /* \"#utility.yul\":14332:14335   */\n      dup3\n        /* \"#utility.yul\":14328:14340   */\n      add\n        /* \"#utility.yul\":14321:14340   */\n      swap1\n      pop\n        /* \"#utility.yul\":13980:14346   */\n      swap2\n      swap1\n      pop\n      jump\t// out\n        /* \"#utility.yul\":14352:14771   */\n    tag_101:\n        /* \"#utility.yul\":14518:14522   */\n      0x00\n        /* \"#utility.yul\":14556:14558   */\n      0x20\n        /* \"#utility.yul\":14545:14554   */\n      dup3\n        /* \"#utility.yul\":14541:14559   */\n      add\n        /* \"#utility.yul\":14533:14559   */\n      swap1\n      pop\n        /* \"#utility.yul\":14605:14614   */\n      dup2\n        /* \"#utility.yul\":14599:14603   */\n      dup2\n        /* \"#utility.yul\":14595:14615   */\n      sub\n        /* \"#utility.yul\":14591:14592   */\n      0x00\n        /* \"#utility.yul\":14580:14589   */\n      dup4\n        /* \"#utility.yul\":14576:14593   */\n      add\n        /* \"#utility.yul\":14569:14616   */\n      mstore\n        /* \"#utility.yul\":14633:14764   */\n      tag_534\n        /* \"#utility.yul\":14759:14763   */\n      dup2\n        /* \"#utility.yul\":14633:14764   */\n      tag_335\n      jump\t// in\n    tag_534:\n        /* \"#utility.yul\":14625:14764   */\n      swap1\n      pop\n        /* \"#utility.yul\":14352:14771   */\n      swap2\n      swap1\n      pop\n      jump\t// out\n        /* \"#utility.yul\":14777:14891   */\n    tag_336:\n      pop\n      jump\t// out\n        /* \"#utility.yul\":14897:15261   */\n    tag_337:\n        /* \"#utility.yul\":15039:15042   */\n      0x00\n        /* \"#utility.yul\":15060:15126   */\n      tag_537\n        /* \"#utility.yul\":15124:15125   */\n      0x00\n        /* \"#utility.yul\":15119:15122   */\n      dup4\n        /* \"#utility.yul\":15060:15126   */\n      tag_331\n      jump\t// in\n    tag_537:\n        /* \"#utility.yul\":15053:15126   */\n      swap2\n      pop\n        /* \"#utility.yul\":15135:15228   */\n      tag_538\n        /* \"#utility.yul\":15224:15227   */\n      dup3\n        /* \"#utility.yul\":15135:15228   */\n      tag_336\n      jump\t// in\n    tag_538:\n        /* \"#utility.yul\":15253:15254   */\n      0x00\n        /* \"#utility.yul\":15248:15251   */\n      dup3\n        /* \"#utility.yul\":15244:15255   */\n      add\n        /* \"#utility.yul\":15237:15255   */\n      swap1\n      pop\n        /* \"#utility.yul\":14897:15261   */\n      swap2\n      swap1\n      pop\n      jump\t// out\n        /* \"#utility.yul\":15267:15686   */\n    tag_105:\n        /* \"#utility.yul\":15433:15437   */\n      0x00\n        /* \"#utility.yul\":15471:15473   */\n      0x20\n        /* \"#utility.yul\":15460:15469   */\n      dup3\n        /* \"#utility.yul\":15456:15474   */\n      add\n        /* \"#utility.yul\":15448:15474   */\n      swap1\n      pop\n        /* \"#utility.yul\":15520:15529   */\n      dup2\n        /* \"#utility.yul\":15514:15518   */\n      dup2\n        /* \"#utility.yul\":15510:15530   */\n      sub\n        /* \"#utility.yul\":15506:15507   */\n      0x00\n        /* \"#utility.yul\":15495:15504   */\n      dup4\n        /* \"#utility.yul\":15491:15508   */\n      add\n        /* \"#utility.yul\":15484:15531   */\n      mstore\n        /* \"#utility.yul\":15548:15679   */\n      tag_540\n        /* \"#utility.yul\":15674:15678   */\n      dup2\n        /* \"#utility.yul\":15548:15679   */\n      tag_337\n      jump\t// in\n    tag_540:\n        /* \"#utility.yul\":15540:15679   */\n      swap1\n      pop\n        /* \"#utility.yul\":15267:15686   */\n      swap2\n      swap1\n      pop\n      jump\t// out\n        /* \"#utility.yul\":15692:15791   */\n    tag_338:\n        /* \"#utility.yul\":15744:15750   */\n      0x00\n        /* \"#utility.yul\":15778:15783   */\n      dup2\n        /* \"#utility.yul\":15772:15784   */\n      mload\n        /* \"#utility.yul\":15762:15784   */\n      swap1\n      pop\n        /* \"#utility.yul\":15692:15791   */\n      swap2\n      swap1\n      pop\n      jump\t// out\n        /* \"#utility.yul\":15797:16043   */\n    tag_339:\n        /* \"#utility.yul\":15878:15879   */\n      0x00\n        /* \"#utility.yul\":15888:16001   */\n    tag_543:\n        /* \"#utility.yul\":15902:15908   */\n      dup4\n        /* \"#utility.yul\":15899:15900   */\n      dup2\n        /* \"#utility.yul\":15896:15909   */\n      lt\n        /* \"#utility.yul\":15888:16001   */\n      iszero\n      tag_545\n      jumpi\n        /* \"#utility.yul\":15987:15988   */\n      dup1\n        /* \"#utility.yul\":15982:15985   */\n      dup3\n        /* \"#utility.yul\":15978:15989   */\n      add\n        /* \"#utility.yul\":15972:15990   */\n      mload\n        /* \"#utility.yul\":15968:15969   */\n      dup2\n        /* \"#utility.yul\":15963:15966   */\n      dup5\n        /* \"#utility.yul\":15959:15970   */\n      add\n        /* \"#utility.yul\":15952:15991   */\n      mstore\n        /* \"#utility.yul\":15924:15926   */\n      0x20\n        /* \"#utility.yul\":15921:15922   */\n      dup2\n        /* \"#utility.yul\":15917:15927   */\n      add\n        /* \"#utility.yul\":15912:15927   */\n      swap1\n      pop\n        /* \"#utility.yul\":15888:16001   */\n      jump(tag_543)\n    tag_545:\n        /* \"#utility.yul\":16035:16036   */\n      0x00\n        /* \"#utility.yul\":16026:16032   */\n      dup5\n        /* \"#utility.yul\":16021:16024   */\n      dup5\n        /* \"#utility.yul\":16017:16033   */\n      add\n        /* \"#utility.yul\":16010:16037   */\n      mstore\n        /* \"#utility.yul\":15859:16043   */\n      pop\n        /* \"#utility.yul\":15797:16043   */\n      pop\n      pop\n      pop\n      jump\t// out\n        /* \"#utility.yul\":16049:16426   */\n    tag_340:\n        /* \"#utility.yul\":16137:16140   */\n      0x00\n        /* \"#utility.yul\":16165:16204   */\n      tag_547\n        /* \"#utility.yul\":16198:16203   */\n      dup3\n        /* \"#utility.yul\":16165:16204   */\n      tag_338\n      jump\t// in\n    tag_547:\n        /* \"#utility.yul\":16220:16291   */\n      tag_548\n        /* \"#utility.yul\":16284:16290   */\n      dup2\n        /* \"#utility.yul\":16279:16282   */\n      dup6\n        /* \"#utility.yul\":16220:16291   */\n      tag_331\n      jump\t// in\n    tag_548:\n        /* \"#utility.yul\":16213:16291   */\n      swap4\n      pop\n        /* \"#utility.yul\":16300:16365   */\n      tag_549\n        /* \"#utility.yul\":16358:16364   */\n      dup2\n        /* \"#utility.yul\":16353:16356   */\n      dup6\n        /* \"#utility.yul\":16346:16350   */\n      0x20\n        /* \"#utility.yul\":16339:16344   */\n      dup7\n        /* \"#utility.yul\":16335:16351   */\n      add\n        /* \"#utility.yul\":16300:16365   */\n      tag_339\n      jump\t// in\n    tag_549:\n        /* \"#utility.yul\":16390:16419   */\n      tag_550\n        /* \"#utility.yul\":16412:16418   */\n      dup2\n        /* \"#utility.yul\":16390:16419   */\n      tag_308\n      jump\t// in\n    tag_550:\n        /* \"#utility.yul\":16385:16388   */\n      dup5\n        /* \"#utility.yul\":16381:16420   */\n      add\n        /* \"#utility.yul\":16374:16420   */\n      swap2\n      pop\n        /* \"#utility.yul\":16141:16426   */\n      pop\n        /* \"#utility.yul\":16049:16426   */\n      swap3\n      swap2\n      pop\n      pop\n      jump\t// out\n        /* \"#utility.yul\":16432:16745   */\n    tag_107:\n        /* \"#utility.yul\":16545:16549   */\n      0x00\n        /* \"#utility.yul\":16583:16585   */\n      0x20\n        /* \"#utility.yul\":16572:16581   */\n      dup3\n        /* \"#utility.yul\":16568:16586   */\n      add\n        /* \"#utility.yul\":16560:16586   */\n      swap1\n      pop\n        /* \"#utility.yul\":16632:16641   */\n      dup2\n        /* \"#utility.yul\":16626:16630   */\n      dup2\n        /* \"#utility.yul\":16622:16642   */\n      sub\n        /* \"#utility.yul\":16618:16619   */\n      0x00\n        /* \"#utility.yul\":16607:16616   */\n      dup4\n        /* \"#utility.yul\":16603:16620   */\n      add\n        /* \"#utility.yul\":16596:16643   */\n      mstore\n        /* \"#utility.yul\":16660:16738   */\n      tag_552\n        /* \"#utility.yul\":16733:16737   */\n      dup2\n        /* \"#utility.yul\":16724:16730   */\n      dup5\n        /* \"#utility.yul\":16660:16738   */\n      tag_340\n      jump\t// in\n    tag_552:\n        /* \"#utility.yul\":16652:16738   */\n      swap1\n      pop\n        /* \"#utility.yul\":16432:16745   */\n      swap3\n      swap2\n      pop\n      pop\n      jump\t// out\n        /* \"#utility.yul\":16751:16932   */\n    tag_341:\n        /* \"#utility.yul\":16891:16924   */\n      0x696e76616c696420617267756d656e74202d20656d70747920737472696e6700\n        /* \"#utility.yul\":16887:16888   */\n      0x00\n        /* \"#utility.yul\":16879:16885   */\n      dup3\n        /* \"#utility.yul\":16875:16889   */\n      add\n        /* \"#utility.yul\":16868:16925   */\n      mstore\n        /* \"#utility.yul\":16751:16932   */\n      pop\n      jump\t// out\n        /* \"#utility.yul\":16938:17304   */\n    tag_342:\n        /* \"#utility.yul\":17080:17083   */\n      0x00\n        /* \"#utility.yul\":17101:17168   */\n      tag_555\n        /* \"#utility.yul\":17165:17167   */\n      0x1f\n        /* \"#utility.yul\":17160:17163   */\n      dup4\n        /* \"#utility.yul\":17101:17168   */\n      tag_331\n      jump\t// in\n    tag_555:\n        /* \"#utility.yul\":17094:17168   */\n      swap2\n      pop\n        /* \"#utility.yul\":17177:17270   */\n      tag_556\n        /* \"#utility.yul\":17266:17269   */\n      dup3\n        /* \"#utility.yul\":17177:17270   */\n      tag_341\n      jump\t// in\n    tag_556:\n        /* \"#utility.yul\":17295:17297   */\n      0x20\n        /* \"#utility.yul\":17290:17293   */\n      dup3\n        /* \"#utility.yul\":17286:17298   */\n      add\n        /* \"#utility.yul\":17279:17298   */\n      swap1\n      pop\n        /* \"#utility.yul\":16938:17304   */\n      swap2\n      swap1\n      pop\n      jump\t// out\n        /* \"#utility.yul\":17310:17729   */\n    tag_110:\n        /* \"#utility.yul\":17476:17480   */\n      0x00\n        /* \"#utility.yul\":17514:17516   */\n      0x20\n        /* \"#utility.yul\":17503:17512   */\n      dup3\n        /* \"#utility.yul\":17499:17517   */\n      add\n        /* \"#utility.yul\":17491:17517   */\n      swap1\n      pop\n        /* \"#utility.yul\":17563:17572   */\n      dup2\n        /* \"#utility.yul\":17557:17561   */\n      dup2\n        /* \"#utility.yul\":17553:17573   */\n      sub\n        /* \"#utility.yul\":17549:17550   */\n      0x00\n        /* \"#utility.yul\":17538:17547   */\n      dup4\n        /* \"#utility.yul\":17534:17551   */\n      add\n        /* \"#utility.yul\":17527:17574   */\n      mstore\n        /* \"#utility.yul\":17591:17722   */\n      tag_558\n        /* \"#utility.yul\":17717:17721   */\n      dup2\n        /* \"#utility.yul\":17591:17722   */\n      tag_342\n      jump\t// in\n    tag_558:\n        /* \"#utility.yul\":17583:17722   */\n      swap1\n      pop\n        /* \"#utility.yul\":17310:17729   */\n      swap2\n      swap1\n      pop\n      jump\t// out\n        /* \"#utility.yul\":17735:17917   */\n    tag_343:\n        /* \"#utility.yul\":17903:17910   */\n      0x546f6b656e000000000000000000000000000000000000000000000000000000\n        /* \"#utility.yul\":17898:17901   */\n      dup2\n        /* \"#utility.yul\":17891:17911   */\n      mstore\n        /* \"#utility.yul\":17735:17917   */\n      pop\n      jump\t// out\n        /* \"#utility.yul\":17923:18313   */\n    tag_344:\n        /* \"#utility.yul\":18029:18032   */\n      0x00\n        /* \"#utility.yul\":18057:18096   */\n      tag_561\n        /* \"#utility.yul\":18090:18095   */\n      dup3\n        /* \"#utility.yul\":18057:18096   */\n      tag_338\n      jump\t// in\n    tag_561:\n        /* \"#utility.yul\":18112:18201   */\n      tag_562\n        /* \"#utility.yul\":18194:18200   */\n      dup2\n        /* \"#utility.yul\":18189:18192   */\n      dup6\n        /* \"#utility.yul\":18112:18201   */\n      tag_329\n      jump\t// in\n    tag_562:\n        /* \"#utility.yul\":18105:18201   */\n      swap4\n      pop\n        /* \"#utility.yul\":18210:18275   */\n      tag_563\n        /* \"#utility.yul\":18268:18274   */\n      dup2\n        /* \"#utility.yul\":18263:18266   */\n      dup6\n        /* \"#utility.yul\":18256:18260   */\n      0x20\n        /* \"#utility.yul\":18249:18254   */\n      dup7\n        /* \"#utility.yul\":18245:18261   */\n      add\n        /* \"#utility.yul\":18210:18275   */\n      tag_339\n      jump\t// in\n    tag_563:\n        /* \"#utility.yul\":18300:18306   */\n      dup1\n        /* \"#utility.yul\":18295:18298   */\n      dup5\n        /* \"#utility.yul\":18291:18307   */\n      add\n        /* \"#utility.yul\":18284:18307   */\n      swap2\n      pop\n        /* \"#utility.yul\":18033:18313   */\n      pop\n        /* \"#utility.yul\":17923:18313   */\n      swap3\n      swap2\n      pop\n      pop\n      jump\t// out\n        /* \"#utility.yul\":18319:18858   */\n    tag_112:\n        /* \"#utility.yul\":18541:18544   */\n      0x00\n        /* \"#utility.yul\":18556:18693   */\n      tag_565\n        /* \"#utility.yul\":18689:18692   */\n      dup3\n        /* \"#utility.yul\":18556:18693   */\n      tag_343\n      jump\t// in\n    tag_565:\n        /* \"#utility.yul\":18718:18719   */\n      0x05\n        /* \"#utility.yul\":18713:18716   */\n      dup3\n        /* \"#utility.yul\":18709:18720   */\n      add\n        /* \"#utility.yul\":18702:18720   */\n      swap2\n      pop\n        /* \"#utility.yul\":18737:18832   */\n      tag_566\n        /* \"#utility.yul\":18828:18831   */\n      dup3\n        /* \"#utility.yul\":18819:18825   */\n      dup5\n        /* \"#utility.yul\":18737:18832   */\n      tag_344\n      jump\t// in\n    tag_566:\n        /* \"#utility.yul\":18730:18832   */\n      swap2\n      pop\n        /* \"#utility.yul\":18849:18852   */\n      dup2\n        /* \"#utility.yul\":18842:18852   */\n      swap1\n      pop\n        /* \"#utility.yul\":18319:18858   */\n      swap3\n      swap2\n      pop\n      pop\n      jump\t// out\n        /* \"#utility.yul\":18864:19139   */\n    tag_114:\n        /* \"#utility.yul\":18996:18999   */\n      0x00\n        /* \"#utility.yul\":19018:19113   */\n      tag_568\n        /* \"#utility.yul\":19109:19112   */\n      dup3\n        /* \"#utility.yul\":19100:19106   */\n      dup5\n        /* \"#utility.yul\":19018:19113   */\n      tag_344\n      jump\t// in\n    tag_568:\n        /* \"#utility.yul\":19011:19113   */\n      swap2\n      pop\n        /* \"#utility.yul\":19130:19133   */\n      dup2\n        /* \"#utility.yul\":19123:19133   */\n      swap1\n      pop\n        /* \"#utility.yul\":18864:19139   */\n      swap3\n      swap2\n      pop\n      pop\n      jump\t// out\n        /* \"#utility.yul\":19145:19313   */\n    tag_345:\n        /* \"#utility.yul\":19285:19305   */\n      0x73616c7420616c72656164792074616b656e0000000000000000000000000000\n        /* \"#utility.yul\":19281:19282   */\n      0x00\n        /* \"#utility.yul\":19273:19279   */\n      dup3\n        /* \"#utility.yul\":19269:19283   */\n      add\n        /* \"#utility.yul\":19262:19306   */\n      mstore\n        /* \"#utility.yul\":19145:19313   */\n      pop\n      jump\t// out\n        /* \"#utility.yul\":19319:19685   */\n    tag_346:\n        /* \"#utility.yul\":19461:19464   */\n      0x00\n        /* \"#utility.yul\":19482:19549   */\n      tag_571\n        /* \"#utility.yul\":19546:19548   */\n      0x12\n        /* \"#utility.yul\":19541:19544   */\n      dup4\n        /* \"#utility.yul\":19482:19549   */\n      tag_331\n      jump\t// in\n    tag_571:\n        /* \"#utility.yul\":19475:19549   */\n      swap2\n      pop\n        /* \"#utility.yul\":19558:19651   */\n      tag_572\n        /* \"#utility.yul\":19647:19650   */\n      dup3\n        /* \"#utility.yul\":19558:19651   */\n      tag_345\n      jump\t// in\n    tag_572:\n        /* \"#utility.yul\":19676:19678   */\n      0x20\n        /* \"#utility.yul\":19671:19674   */\n      dup3\n        /* \"#utility.yul\":19667:19679   */\n      add\n        /* \"#utility.yul\":19660:19679   */\n      swap1\n      pop\n        /* \"#utility.yul\":19319:19685   */\n      swap2\n      swap1\n      pop\n      jump\t// out\n        /* \"#utility.yul\":19691:20110   */\n    tag_117:\n        /* \"#utility.yul\":19857:19861   */\n      0x00\n        /* \"#utility.yul\":19895:19897   */\n      0x20\n        /* \"#utility.yul\":19884:19893   */\n      dup3\n        /* \"#utility.yul\":19880:19898   */\n      add\n        /* \"#utility.yul\":19872:19898   */\n      swap1\n      pop\n        /* \"#utility.yul\":19944:19953   */\n      dup2\n        /* \"#utility.yul\":19938:19942   */\n      dup2\n        /* \"#utility.yul\":19934:19954   */\n      sub\n        /* \"#utility.yul\":19930:19931   */\n      0x00\n        /* \"#utility.yul\":19919:19928   */\n      dup4\n        /* \"#utility.yul\":19915:19932   */\n      add\n        /* \"#utility.yul\":19908:19955   */\n      mstore\n        /* \"#utility.yul\":19972:20103   */\n      tag_574\n        /* \"#utility.yul\":20098:20102   */\n      dup2\n        /* \"#utility.yul\":19972:20103   */\n      tag_346\n      jump\t// in\n    tag_574:\n        /* \"#utility.yul\":19964:20103   */\n      swap1\n      pop\n        /* \"#utility.yul\":19691:20110   */\n      swap2\n      swap1\n      pop\n      jump\t// out\n        /* \"#utility.yul\":20116:20338   */\n    tag_347:\n        /* \"#utility.yul\":20256:20290   */\n      0x746f6b656e20616c7265616479206c696e6b656420746f20616e206964656e74\n        /* \"#utility.yul\":20252:20253   */\n      0x00\n        /* \"#utility.yul\":20244:20250   */\n      dup3\n        /* \"#utility.yul\":20240:20254   */\n      add\n        /* \"#utility.yul\":20233:20291   */\n      mstore\n        /* \"#utility.yul\":20325:20330   */\n      0x6974790000000000000000000000000000000000000000000000000000000000\n        /* \"#utility.yul\":20320:20322   */\n      0x20\n        /* \"#utility.yul\":20312:20318   */\n      dup3\n        /* \"#utility.yul\":20308:20323   */\n      add\n        /* \"#utility.yul\":20301:20331   */\n      mstore\n        /* \"#utility.yul\":20116:20338   */\n      pop\n      jump\t// out\n        /* \"#utility.yul\":20344:20710   */\n    tag_348:\n        /* \"#utility.yul\":20486:20489   */\n      0x00\n        /* \"#utility.yul\":20507:20574   */\n      tag_577\n        /* \"#utility.yul\":20571:20573   */\n      0x23\n        /* \"#utility.yul\":20566:20569   */\n      dup4\n        /* \"#utility.yul\":20507:20574   */\n      tag_331\n      jump\t// in\n    tag_577:\n        /* \"#utility.yul\":20500:20574   */\n      swap2\n      pop\n        /* \"#utility.yul\":20583:20676   */\n      tag_578\n        /* \"#utility.yul\":20672:20675   */\n      dup3\n        /* \"#utility.yul\":20583:20676   */\n      tag_347\n      jump\t// in\n    tag_578:\n        /* \"#utility.yul\":20701:20703   */\n      0x40\n        /* \"#utility.yul\":20696:20699   */\n      dup3\n        /* \"#utility.yul\":20692:20704   */\n      add\n        /* \"#utility.yul\":20685:20704   */\n      swap1\n      pop\n        /* \"#utility.yul\":20344:20710   */\n      swap2\n      swap1\n      pop\n      jump\t// out\n        /* \"#utility.yul\":20716:21135   */\n    tag_120:\n        /* \"#utility.yul\":20882:20886   */\n      0x00\n        /* \"#utility.yul\":20920:20922   */\n      0x20\n        /* \"#utility.yul\":20909:20918   */\n      dup3\n        /* \"#utility.yul\":20905:20923   */\n      add\n        /* \"#utility.yul\":20897:20923   */\n      swap1\n      pop\n        /* \"#utility.yul\":20969:20978   */\n      dup2\n        /* \"#utility.yul\":20963:20967   */\n      dup2\n        /* \"#utility.yul\":20959:20979   */\n      sub\n        /* \"#utility.yul\":20955:20956   */\n      0x00\n        /* \"#utility.yul\":20944:20953   */\n      dup4\n        /* \"#utility.yul\":20940:20957   */\n      add\n        /* \"#utility.yul\":20933:20980   */\n      mstore\n        /* \"#utility.yul\":20997:21128   */\n      tag_580\n        /* \"#utility.yul\":21123:21127   */\n      dup2\n        /* \"#utility.yul\":20997:21128   */\n      tag_348\n      jump\t// in\n    tag_580:\n        /* \"#utility.yul\":20989:21128   */\n      swap1\n      pop\n        /* \"#utility.yul\":20716:21135   */\n      swap2\n      swap1\n      pop\n      jump\t// out\n        /* \"#utility.yul\":21141:21362   */\n    tag_349:\n        /* \"#utility.yul\":21281:21315   */\n      0x63616e6e6f742062652063616c6c6564206f6e2073656e646572206164647265\n        /* \"#utility.yul\":21277:21278   */\n      0x00\n        /* \"#utility.yul\":21269:21275   */\n      dup3\n        /* \"#utility.yul\":21265:21279   */\n      add\n        /* \"#utility.yul\":21258:21316   */\n      mstore\n        /* \"#utility.yul\":21350:21354   */\n      0x7373000000000000000000000000000000000000000000000000000000000000\n        /* \"#utility.yul\":21345:21347   */\n      0x20\n        /* \"#utility.yul\":21337:21343   */\n      dup3\n        /* \"#utility.yul\":21333:21348   */\n      add\n        /* \"#utility.yul\":21326:21355   */\n      mstore\n        /* \"#utility.yul\":21141:21362   */\n      pop\n      jump\t// out\n        /* \"#utility.yul\":21368:21734   */\n    tag_350:\n        /* \"#utility.yul\":21510:21513   */\n      0x00\n        /* \"#utility.yul\":21531:21598   */\n      tag_583\n        /* \"#utility.yul\":21595:21597   */\n      0x22\n        /* \"#utility.yul\":21590:21593   */\n      dup4\n        /* \"#utility.yul\":21531:21598   */\n      tag_331\n      jump\t// in\n    tag_583:\n        /* \"#utility.yul\":21524:21598   */\n      swap2\n      pop\n        /* \"#utility.yul\":21607:21700   */\n      tag_584\n        /* \"#utility.yul\":21696:21699   */\n      dup3\n        /* \"#utility.yul\":21607:21700   */\n      tag_349\n      jump\t// in\n    tag_584:\n        /* \"#utility.yul\":21725:21727   */\n      0x40\n        /* \"#utility.yul\":21720:21723   */\n      dup3\n        /* \"#utility.yul\":21716:21728   */\n      add\n        /* \"#utility.yul\":21709:21728   */\n      swap1\n      pop\n        /* \"#utility.yul\":21368:21734   */\n      swap2\n      swap1\n      pop\n      jump\t// out\n        /* \"#utility.yul\":21740:22159   */\n    tag_133:\n        /* \"#utility.yul\":21906:21910   */\n      0x00\n        /* \"#utility.yul\":21944:21946   */\n      0x20\n        /* \"#utility.yul\":21933:21942   */\n      dup3\n        /* \"#utility.yul\":21929:21947   */\n      add\n        /* \"#utility.yul\":21921:21947   */\n      swap1\n      pop\n        /* \"#utility.yul\":21993:22002   */\n      dup2\n        /* \"#utility.yul\":21987:21991   */\n      dup2\n        /* \"#utility.yul\":21983:22003   */\n      sub\n        /* \"#utility.yul\":21979:21980   */\n      0x00\n        /* \"#utility.yul\":21968:21977   */\n      dup4\n        /* \"#utility.yul\":21964:21981   */\n      add\n        /* \"#utility.yul\":21957:22004   */\n      mstore\n        /* \"#utility.yul\":22021:22152   */\n      tag_586\n        /* \"#utility.yul\":22147:22151   */\n      dup2\n        /* \"#utility.yul\":22021:22152   */\n      tag_350\n      jump\t// in\n    tag_586:\n        /* \"#utility.yul\":22013:22152   */\n      swap1\n      pop\n        /* \"#utility.yul\":21740:22159   */\n      swap2\n      swap1\n      pop\n      jump\t// out\n        /* \"#utility.yul\":22165:22346   */\n    tag_351:\n        /* \"#utility.yul\":22305:22338   */\n      0x6f6e6c792061206c696e6b65642077616c6c65742063616e20756e6c696e6b00\n        /* \"#utility.yul\":22301:22302   */\n      0x00\n        /* \"#utility.yul\":22293:22299   */\n      dup3\n        /* \"#utility.yul\":22289:22303   */\n      add\n        /* \"#utility.yul\":22282:22339   */\n      mstore\n        /* \"#utility.yul\":22165:22346   */\n      pop\n      jump\t// out\n        /* \"#utility.yul\":22352:22718   */\n    tag_352:\n        /* \"#utility.yul\":22494:22497   */\n      0x00\n        /* \"#utility.yul\":22515:22582   */\n      tag_589\n        /* \"#utility.yul\":22579:22581   */\n      0x1f\n        /* \"#utility.yul\":22574:22577   */\n      dup4\n        /* \"#utility.yul\":22515:22582   */\n      tag_331\n      jump\t// in\n    tag_589:\n        /* \"#utility.yul\":22508:22582   */\n      swap2\n      pop\n        /* \"#utility.yul\":22591:22684   */\n      tag_590\n        /* \"#utility.yul\":22680:22683   */\n      dup3\n        /* \"#utility.yul\":22591:22684   */\n      tag_351\n      jump\t// in\n    tag_590:\n        /* \"#utility.yul\":22709:22711   */\n      0x20\n        /* \"#utility.yul\":22704:22707   */\n      dup3\n        /* \"#utility.yul\":22700:22712   */\n      add\n        /* \"#utility.yul\":22693:22712   */\n      swap1\n      pop\n        /* \"#utility.yul\":22352:22718   */\n      swap2\n      swap1\n      pop\n      jump\t// out\n        /* \"#utility.yul\":22724:23143   */\n    tag_136:\n        /* \"#utility.yul\":22890:22894   */\n      0x00\n        /* \"#utility.yul\":22928:22930   */\n      0x20\n        /* \"#utility.yul\":22917:22926   */\n      dup3\n        /* \"#utility.yul\":22913:22931   */\n      add\n        /* \"#utility.yul\":22905:22931   */\n      swap1\n      pop\n        /* \"#utility.yul\":22977:22986   */\n      dup2\n        /* \"#utility.yul\":22971:22975   */\n      dup2\n        /* \"#utility.yul\":22967:22987   */\n      sub\n        /* \"#utility.yul\":22963:22964   */\n      0x00\n        /* \"#utility.yul\":22952:22961   */\n      dup4\n        /* \"#utility.yul\":22948:22965   */\n      add\n        /* \"#utility.yul\":22941:22988   */\n      mstore\n        /* \"#utility.yul\":23005:23136   */\n      tag_592\n        /* \"#utility.yul\":23131:23135   */\n      dup2\n        /* \"#utility.yul\":23005:23136   */\n      tag_352\n      jump\t// in\n    tag_592:\n        /* \"#utility.yul\":22997:23136   */\n      swap1\n      pop\n        /* \"#utility.yul\":22724:23143   */\n      swap2\n      swap1\n      pop\n      jump\t// out\n        /* \"#utility.yul\":23149:23329   */\n    tag_142:\n        /* \"#utility.yul\":23197:23274   */\n      0x4e487b7100000000000000000000000000000000000000000000000000000000\n        /* \"#utility.yul\":23194:23195   */\n      0x00\n        /* \"#utility.yul\":23187:23275   */\n      mstore\n        /* \"#utility.yul\":23294:23298   */\n      0x32\n        /* \"#utility.yul\":23291:23292   */\n      0x04\n        /* \"#utility.yul\":23284:23299   */\n      mstore\n        /* \"#utility.yul\":23318:23322   */\n      0x24\n        /* \"#utility.yul\":23315:23316   */\n      0x00\n        /* \"#utility.yul\":23308:23323   */\n      revert\n        /* \"#utility.yul\":23335:23412   */\n    tag_353:\n        /* \"#utility.yul\":23372:23379   */\n      0x00\n        /* \"#utility.yul\":23401:23406   */\n      dup2\n        /* \"#utility.yul\":23390:23406   */\n      swap1\n      pop\n        /* \"#utility.yul\":23335:23412   */\n      swap2\n      swap1\n      pop\n      jump\t// out\n        /* \"#utility.yul\":23418:23598   */\n    tag_354:\n        /* \"#utility.yul\":23466:23543   */\n      0x4e487b7100000000000000000000000000000000000000000000000000000000\n        /* \"#utility.yul\":23463:23464   */\n      0x00\n        /* \"#utility.yul\":23456:23544   */\n      mstore\n        /* \"#utility.yul\":23563:23567   */\n      0x11\n        /* \"#utility.yul\":23560:23561   */\n      0x04\n        /* \"#utility.yul\":23553:23568   */\n      mstore\n        /* \"#utility.yul\":23587:23591   */\n      0x24\n        /* \"#utility.yul\":23584:23585   */\n      0x00\n        /* \"#utility.yul\":23577:23592   */\n      revert\n        /* \"#utility.yul\":23604:23798   */\n    tag_146:\n        /* \"#utility.yul\":23644:23648   */\n      0x00\n        /* \"#utility.yul\":23664:23684   */\n      tag_597\n        /* \"#utility.yul\":23682:23683   */\n      dup3\n        /* \"#utility.yul\":23664:23684   */\n      tag_353\n      jump\t// in\n    tag_597:\n        /* \"#utility.yul\":23659:23684   */\n      swap2\n      pop\n        /* \"#utility.yul\":23698:23718   */\n      tag_598\n        /* \"#utility.yul\":23716:23717   */\n      dup4\n        /* \"#utility.yul\":23698:23718   */\n      tag_353\n      jump\t// in\n    tag_598:\n        /* \"#utility.yul\":23693:23718   */\n      swap3\n      pop\n        /* \"#utility.yul\":23742:23743   */\n      dup3\n        /* \"#utility.yul\":23739:23740   */\n      dup3\n        /* \"#utility.yul\":23735:23744   */\n      sub\n        /* \"#utility.yul\":23727:23744   */\n      swap1\n      pop\n        /* \"#utility.yul\":23766:23767   */\n      dup2\n        /* \"#utility.yul\":23760:23764   */\n      dup2\n        /* \"#utility.yul\":23757:23768   */\n      gt\n        /* \"#utility.yul\":23754:23791   */\n      iszero\n      tag_599\n      jumpi\n        /* \"#utility.yul\":23771:23789   */\n      tag_600\n      tag_354\n      jump\t// in\n    tag_600:\n        /* \"#utility.yul\":23754:23791   */\n    tag_599:\n        /* \"#utility.yul\":23604:23798   */\n      swap3\n      swap2\n      pop\n      pop\n      jump\t// out\n        /* \"#utility.yul\":23804:23984   */\n    tag_155:\n        /* \"#utility.yul\":23852:23929   */\n      0x4e487b7100000000000000000000000000000000000000000000000000000000\n        /* \"#utility.yul\":23849:23850   */\n      0x00\n        /* \"#utility.yul\":23842:23930   */\n      mstore\n        /* \"#utility.yul\":23949:23953   */\n      0x31\n        /* \"#utility.yul\":23946:23947   */\n      0x04\n        /* \"#utility.yul\":23939:23954   */\n      mstore\n        /* \"#utility.yul\":23973:23977   */\n      0x24\n        /* \"#utility.yul\":23970:23971   */\n      0x00\n        /* \"#utility.yul\":23963:23978   */\n      revert\n        /* \"#utility.yul\":23990:24223   */\n    tag_158:\n        /* \"#utility.yul\":24029:24032   */\n      0x00\n        /* \"#utility.yul\":24052:24076   */\n      tag_603\n        /* \"#utility.yul\":24070:24075   */\n      dup3\n        /* \"#utility.yul\":24052:24076   */\n      tag_353\n      jump\t// in\n    tag_603:\n        /* \"#utility.yul\":24043:24076   */\n      swap2\n      pop\n        /* \"#utility.yul\":24098:24164   */\n      0xffffffffffffffffffffffffffffffffffffffffffffffffffffffffffffffff\n        /* \"#utility.yul\":24091:24096   */\n      dup3\n        /* \"#utility.yul\":24088:24165   */\n      sub\n        /* \"#utility.yul\":24085:24188   */\n      tag_604\n      jumpi\n        /* \"#utility.yul\":24168:24186   */\n      tag_605\n      tag_354\n      jump\t// in\n    tag_605:\n        /* \"#utility.yul\":24085:24188   */\n    tag_604:\n        /* \"#utility.yul\":24215:24216   */\n      0x01\n        /* \"#utility.yul\":24208:24213   */\n      dup3\n        /* \"#utility.yul\":24204:24217   */\n      add\n        /* \"#utility.yul\":24197:24217   */\n      swap1\n      pop\n        /* \"#utility.yul\":23990:24223   */\n      swap2\n      swap1\n      pop\n      jump\t// out\n        /* \"#utility.yul\":24229:24409   */\n    tag_355:\n        /* \"#utility.yul\":24397:24402   */\n      0x4f49440000000000000000000000000000000000000000000000000000000000\n        /* \"#utility.yul\":24392:24395   */\n      dup2\n        /* \"#utility.yul\":24385:24403   */\n      mstore\n        /* \"#utility.yul\":24229:24409   */\n      pop\n      jump\t// out\n        /* \"#utility.yul\":24415:24954   */\n    tag_177:\n        /* \"#utility.yul\":24637:24640   */\n      0x00\n        /* \"#utility.yul\":24652:24789   */\n      tag_608\n        /* \"#utility.yul\":24785:24788   */\n      dup3\n        /* \"#utility.yul\":24652:24789   */\n      tag_355\n      jump\t// in\n    tag_608:\n        /* \"#utility.yul\":24814:24815   */\n      0x03\n        /* \"#utility.yul\":24809:24812   */\n      dup3\n        /* \"#utility.yul\":24805:24816   */\n      add\n        /* \"#utility.yul\":24798:24816   */\n      swap2\n      pop\n        /* \"#utility.yul\":24833:24928   */\n      tag_609\n        /* \"#utility.yul\":24924:24927   */\n      dup3\n        /* \"#utility.yul\":24915:24921   */\n      dup5\n        /* \"#utility.yul\":24833:24928   */\n      tag_344\n      jump\t// in\n    tag_609:\n        /* \"#utility.yul\":24826:24928   */\n      swap2\n      pop\n        /* \"#utility.yul\":24945:24948   */\n      dup2\n        /* \"#utility.yul\":24938:24948   */\n      swap1\n      pop\n        /* \"#utility.yul\":24415:24954   */\n      swap3\n      swap2\n      pop\n      pop\n      jump\t// out\n        /* \"#utility.yul\":24960:25183   */\n    tag_356:\n        /* \"#utility.yul\":25100:25134   */\n      0x77616c6c657420616c7265616479206c696e6b656420746f20616e206964656e\n        /* \"#utility.yul\":25096:25097   */\n      0x00\n        /* \"#utility.yul\":25088:25094   */\n      dup3\n        /* \"#utility.yul\":25084:25098   */\n      add\n        /* \"#utility.yul\":25077:25135   */\n      mstore\n        /* \"#utility.yul\":25169:25175   */\n      0x7469747900000000000000000000000000000000000000000000000000000000\n        /* \"#utility.yul\":25164:25166   */\n      0x20\n        /* \"#utility.yul\":25156:25162   */\n      dup3\n        /* \"#utility.yul\":25152:25167   */\n      add\n        /* \"#utility.yul\":25145:25176   */\n      mstore\n        /* \"#utility.yul\":24960:25183   */\n      pop\n      jump\t// out\n        /* \"#utility.yul\":25189:25555   */\n    tag_357:\n        /* \"#utility.yul\":25331:25334   */\n      0x00\n        /* \"#utility.yul\":25352:25419   */\n      tag_612\n        /* \"#utility.yul\":25416:25418   */\n      0x24\n        /* \"#utility.yul\":25411:25414   */\n      dup4\n        /* \"#utility.yul\":25352:25419   */\n      tag_331\n      jump\t// in\n    tag_612:\n        /* \"#utility.yul\":25345:25419   */\n      swap2\n      pop\n        /* \"#utility.yul\":25428:25521   */\n      tag_613\n        /* \"#utility.yul\":25517:25520   */\n      dup3\n        /* \"#utility.yul\":25428:25521   */\n      tag_356\n      jump\t// in\n    tag_613:\n        /* \"#utility.yul\":25546:25548   */\n      0x40\n        /* \"#utility.yul\":25541:25544   */\n      dup3\n        /* \"#utility.yul\":25537:25549   */\n      add\n        /* \"#utility.yul\":25530:25549   */\n      swap1\n      pop\n        /* \"#utility.yul\":25189:25555   */\n      swap2\n      swap1\n      pop\n      jump\t// out\n        /* \"#utility.yul\":25561:25980   */\n    tag_183:\n        /* \"#utility.yul\":25727:25731   */\n      0x00\n        /* \"#utility.yul\":25765:25767   */\n      0x20\n        /* \"#utility.yul\":25754:25763   */\n      dup3\n        /* \"#utility.yul\":25750:25768   */\n      add\n        /* \"#utility.yul\":25742:25768   */\n      swap1\n      pop\n        /* \"#utility.yul\":25814:25823   */\n      dup2\n        /* \"#utility.yul\":25808:25812   */\n      dup2\n        /* \"#utility.yul\":25804:25824   */\n      sub\n        /* \"#utility.yul\":25800:25801   */\n      0x00\n        /* \"#utility.yul\":25789:25798   */\n      dup4\n        /* \"#utility.yul\":25785:25802   */\n      add\n        /* \"#utility.yul\":25778:25825   */\n      mstore\n        /* \"#utility.yul\":25842:25973   */\n      tag_615\n        /* \"#utility.yul\":25968:25972   */\n      dup2\n        /* \"#utility.yul\":25842:25973   */\n      tag_357\n      jump\t// in\n    tag_615:\n        /* \"#utility.yul\":25834:25973   */\n      swap1\n      pop\n        /* \"#utility.yul\":25561:25980   */\n      swap2\n      swap1\n      pop\n      jump\t// out\n        /* \"#utility.yul\":25986:26149   */\n    tag_358:\n        /* \"#utility.yul\":26126:26141   */\n      0x6e6f74206120666163746f727900000000000000000000000000000000000000\n        /* \"#utility.yul\":26122:26123   */\n      0x00\n        /* \"#utility.yul\":26114:26120   */\n      dup3\n        /* \"#utility.yul\":26110:26124   */\n      add\n        /* \"#utility.yul\":26103:26142   */\n      mstore\n        /* \"#utility.yul\":25986:26149   */\n      pop\n      jump\t// out\n        /* \"#utility.yul\":26155:26521   */\n    tag_359:\n        /* \"#utility.yul\":26297:26300   */\n      0x00\n        /* \"#utility.yul\":26318:26385   */\n      tag_618\n        /* \"#utility.yul\":26382:26384   */\n      0x0d\n        /* \"#utility.yul\":26377:26380   */\n      dup4\n        /* \"#utility.yul\":26318:26385   */\n      tag_331\n      jump\t// in\n    tag_618:\n        /* \"#utility.yul\":26311:26385   */\n      swap2\n      pop\n        /* \"#utility.yul\":26394:26487   */\n      tag_619\n        /* \"#utility.yul\":26483:26486   */\n      dup3\n        /* \"#utility.yul\":26394:26487   */\n      tag_358\n      jump\t// in\n    tag_619:\n        /* \"#utility.yul\":26512:26514   */\n      0x20\n        /* \"#utility.yul\":26507:26510   */\n      dup3\n        /* \"#utility.yul\":26503:26515   */\n      add\n        /* \"#utility.yul\":26496:26515   */\n      swap1\n      pop\n        /* \"#utility.yul\":26155:26521   */\n      swap2\n      swap1\n      pop\n      jump\t// out\n        /* \"#utility.yul\":26527:26946   */\n    tag_195:\n        /* \"#utility.yul\":26693:26697   */\n      0x00\n        /* \"#utility.yul\":26731:26733   */\n      0x20\n        /* \"#utility.yul\":26720:26729   */\n      dup3\n        /* \"#utility.yul\":26716:26734   */\n      add\n        /* \"#utility.yul\":26708:26734   */\n      swap1\n      pop\n        /* \"#utility.yul\":26780:26789   */\n      dup2\n        /* \"#utility.yul\":26774:26778   */\n      dup2\n        /* \"#utility.yul\":26770:26790   */\n      sub\n        /* \"#utility.yul\":26766:26767   */\n      0x00\n        /* \"#utility.yul\":26755:26764   */\n      dup4\n        /* \"#utility.yul\":26751:26768   */\n      add\n        /* \"#utility.yul\":26744:26791   */\n      mstore\n        /* \"#utility.yul\":26808:26939   */\n      tag_621\n        /* \"#utility.yul\":26934:26938   */\n      dup2\n        /* \"#utility.yul\":26808:26939   */\n      tag_359\n      jump\t// in\n    tag_621:\n        /* \"#utility.yul\":26800:26939   */\n      swap1\n      pop\n        /* \"#utility.yul\":26527:26946   */\n      swap2\n      swap1\n      pop\n      jump\t// out\n        /* \"#utility.yul\":26952:27119   */\n    tag_360:\n        /* \"#utility.yul\":27092:27111   */\n      0x616c7265616479206120666163746f7279000000000000000000000000000000\n        /* \"#utility.yul\":27088:27089   */\n      0x00\n        /* \"#utility.yul\":27080:27086   */\n      dup3\n        /* \"#utility.yul\":27076:27090   */\n      add\n        /* \"#utility.yul\":27069:27112   */\n      mstore\n        /* \"#utility.yul\":26952:27119   */\n      pop\n      jump\t// out\n        /* \"#utility.yul\":27125:27491   */\n    tag_361:\n        /* \"#utility.yul\":27267:27270   */\n      0x00\n        /* \"#utility.yul\":27288:27355   */\n      tag_624\n        /* \"#utility.yul\":27352:27354   */\n      0x11\n        /* \"#utility.yul\":27347:27350   */\n      dup4\n        /* \"#utility.yul\":27288:27355   */\n      tag_331\n      jump\t// in\n    tag_624:\n        /* \"#utility.yul\":27281:27355   */\n      swap2\n      pop\n        /* \"#utility.yul\":27364:27457   */\n      tag_625\n        /* \"#utility.yul\":27453:27456   */\n      dup3\n        /* \"#utility.yul\":27364:27457   */\n      tag_360\n      jump\t// in\n    tag_625:\n        /* \"#utility.yul\":27482:27484   */\n      0x20\n        /* \"#utility.yul\":27477:27480   */\n      dup3\n        /* \"#utility.yul\":27473:27485   */\n      add\n        /* \"#utility.yul\":27466:27485   */\n      swap1\n      pop\n        /* \"#utility.yul\":27125:27491   */\n      swap2\n      swap1\n      pop\n      jump\t// out\n        /* \"#utility.yul\":27497:27916   */\n    tag_204:\n        /* \"#utility.yul\":27663:27667   */\n      0x00\n        /* \"#utility.yul\":27701:27703   */\n      0x20\n        /* \"#utility.yul\":27690:27699   */\n      dup3\n        /* \"#utility.yul\":27686:27704   */\n      add\n        /* \"#utility.yul\":27678:27704   */\n      swap1\n      pop\n        /* \"#utility.yul\":27750:27759   */\n      dup2\n        /* \"#utility.yul\":27744:27748   */\n      dup2\n        /* \"#utility.yul\":27740:27760   */\n      sub\n        /* \"#utility.yul\":27736:27737   */\n      0x00\n        /* \"#utility.yul\":27725:27734   */\n      dup4\n        /* \"#utility.yul\":27721:27738   */\n      add\n        /* \"#utility.yul\":27714:27761   */\n      mstore\n        /* \"#utility.yul\":27778:27909   */\n      tag_627\n        /* \"#utility.yul\":27904:27908   */\n      dup2\n        /* \"#utility.yul\":27778:27909   */\n      tag_361\n      jump\t// in\n    tag_627:\n        /* \"#utility.yul\":27770:27909   */\n      swap1\n      pop\n        /* \"#utility.yul\":27497:27916   */\n      swap2\n      swap1\n      pop\n      jump\t// out\n        /* \"#utility.yul\":27922:28150   */\n    tag_362:\n        /* \"#utility.yul\":28062:28096   */\n      0x77616c6c6574206e6f74206c696e6b656420746f20616e206964656e74697479\n        /* \"#utility.yul\":28058:28059   */\n      0x00\n        /* \"#utility.yul\":28050:28056   */\n      dup3\n        /* \"#utility.yul\":28046:28060   */\n      add\n        /* \"#utility.yul\":28039:28097   */\n      mstore\n        /* \"#utility.yul\":28131:28142   */\n      0x20636f6e74726163740000000000000000000000000000000000000000000000\n        /* \"#utility.yul\":28126:28128   */\n      0x20\n        /* \"#utility.yul\":28118:28124   */\n      dup3\n        /* \"#utility.yul\":28114:28129   */\n      add\n        /* \"#utility.yul\":28107:28143   */\n      mstore\n        /* \"#utility.yul\":27922:28150   */\n      pop\n      jump\t// out\n        /* \"#utility.yul\":28156:28522   */\n    tag_363:\n        /* \"#utility.yul\":28298:28301   */\n      0x00\n        /* \"#utility.yul\":28319:28386   */\n      tag_630\n        /* \"#utility.yul\":28383:28385   */\n      0x29\n        /* \"#utility.yul\":28378:28381   */\n      dup4\n        /* \"#utility.yul\":28319:28386   */\n      tag_331\n      jump\t// in\n    tag_630:\n        /* \"#utility.yul\":28312:28386   */\n      swap2\n      pop\n        /* \"#utility.yul\":28395:28488   */\n      tag_631\n        /* \"#utility.yul\":28484:28487   */\n      dup3\n        /* \"#utility.yul\":28395:28488   */\n      tag_362\n      jump\t// in\n    tag_631:\n        /* \"#utility.yul\":28513:28515   */\n      0x40\n        /* \"#utility.yul\":28508:28511   */\n      dup3\n        /* \"#utility.yul\":28504:28516   */\n      add\n        /* \"#utility.yul\":28497:28516   */\n      swap1\n      pop\n        /* \"#utility.yul\":28156:28522   */\n      swap2\n      swap1\n      pop\n      jump\t// out\n        /* \"#utility.yul\":28528:28947   */\n    tag_210:\n        /* \"#utility.yul\":28694:28698   */\n      0x00\n        /* \"#utility.yul\":28732:28734   */\n      0x20\n        /* \"#utility.yul\":28721:28730   */\n      dup3\n        /* \"#utility.yul\":28717:28735   */\n      add\n        /* \"#utility.yul\":28709:28735   */\n      swap1\n      pop\n        /* \"#utility.yul\":28781:28790   */\n      dup2\n        /* \"#utility.yul\":28775:28779   */\n      dup2\n        /* \"#utility.yul\":28771:28791   */\n      sub\n        /* \"#utility.yul\":28767:28768   */\n      0x00\n        /* \"#utility.yul\":28756:28765   */\n      dup4\n        /* \"#utility.yul\":28752:28769   */\n      add\n        /* \"#utility.yul\":28745:28792   */\n      mstore\n        /* \"#utility.yul\":28809:28940   */\n      tag_633\n        /* \"#utility.yul\":28935:28939   */\n      dup2\n        /* \"#utility.yul\":28809:28940   */\n      tag_363\n      jump\t// in\n    tag_633:\n        /* \"#utility.yul\":28801:28940   */\n      swap1\n      pop\n        /* \"#utility.yul\":28528:28947   */\n      swap2\n      swap1\n      pop\n      jump\t// out\n        /* \"#utility.yul\":28953:29128   */\n    tag_364:\n        /* \"#utility.yul\":29093:29120   */\n      0x6e65772077616c6c657420616c7265616479206c696e6b656400000000000000\n        /* \"#utility.yul\":29089:29090   */\n      0x00\n        /* \"#utility.yul\":29081:29087   */\n      dup3\n        /* \"#utility.yul\":29077:29091   */\n      add\n        /* \"#utility.yul\":29070:29121   */\n      mstore\n        /* \"#utility.yul\":28953:29128   */\n      pop\n      jump\t// out\n        /* \"#utility.yul\":29134:29500   */\n    tag_365:\n        /* \"#utility.yul\":29276:29279   */\n      0x00\n        /* \"#utility.yul\":29297:29364   */\n      tag_636\n        /* \"#utility.yul\":29361:29363   */\n      0x19\n        /* \"#utility.yul\":29356:29359   */\n      dup4\n        /* \"#utility.yul\":29297:29364   */\n      tag_331\n      jump\t// in\n    tag_636:\n        /* \"#utility.yul\":29290:29364   */\n      swap2\n      pop\n        /* \"#utility.yul\":29373:29466   */\n      tag_637\n        /* \"#utility.yul\":29462:29465   */\n      dup3\n        /* \"#utility.yul\":29373:29466   */\n      tag_364\n      jump\t// in\n    tag_637:\n        /* \"#utility.yul\":29491:29493   */\n      0x20\n        /* \"#utility.yul\":29486:29489   */\n      dup3\n        /* \"#utility.yul\":29482:29494   */\n      add\n        /* \"#utility.yul\":29475:29494   */\n      swap1\n      pop\n        /* \"#utility.yul\":29134:29500   */\n      swap2\n      swap1\n      pop\n      jump\t// out\n        /* \"#utility.yul\":29506:29925   */\n    tag_213:\n        /* \"#utility.yul\":29672:29676   */\n      0x00\n        /* \"#utility.yul\":29710:29712   */\n      0x20\n        /* \"#utility.yul\":29699:29708   */\n      dup3\n        /* \"#utility.yul\":29695:29713   */\n      add\n        /* \"#utility.yul\":29687:29713   */\n      swap1\n      pop\n        /* \"#utility.yul\":29759:29768   */\n      dup2\n        /* \"#utility.yul\":29753:29757   */\n      dup2\n        /* \"#utility.yul\":29749:29769   */\n      sub\n        /* \"#utility.yul\":29745:29746   */\n      0x00\n        /* \"#utility.yul\":29734:29743   */\n      dup4\n        /* \"#utility.yul\":29730:29747   */\n      add\n        /* \"#utility.yul\":29723:29770   */\n      mstore\n        /* \"#utility.yul\":29787:29918   */\n      tag_639\n        /* \"#utility.yul\":29913:29917   */\n      dup2\n        /* \"#utility.yul\":29787:29918   */\n      tag_365\n      jump\t// in\n    tag_639:\n        /* \"#utility.yul\":29779:29918   */\n      swap1\n      pop\n        /* \"#utility.yul\":29506:29925   */\n      swap2\n      swap1\n      pop\n      jump\t// out\n        /* \"#utility.yul\":29931:30113   */\n    tag_366:\n        /* \"#utility.yul\":30071:30105   */\n      0x696e76616c696420617267756d656e74202d20746f6b656e2061646472657373\n        /* \"#utility.yul\":30067:30068   */\n      0x00\n        /* \"#utility.yul\":30059:30065   */\n      dup3\n        /* \"#utility.yul\":30055:30069   */\n      add\n        /* \"#utility.yul\":30048:30106   */\n      mstore\n        /* \"#utility.yul\":29931:30113   */\n      pop\n      jump\t// out\n        /* \"#utility.yul\":30119:30485   */\n    tag_367:\n        /* \"#utility.yul\":30261:30264   */\n      0x00\n        /* \"#utility.yul\":30282:30349   */\n      tag_642\n        /* \"#utility.yul\":30346:30348   */\n      0x20\n        /* \"#utility.yul\":30341:30344   */\n      dup4\n        /* \"#utility.yul\":30282:30349   */\n      tag_331\n      jump\t// in\n    tag_642:\n        /* \"#utility.yul\":30275:30349   */\n      swap2\n      pop\n        /* \"#utility.yul\":30358:30451   */\n      tag_643\n        /* \"#utility.yul\":30447:30450   */\n      dup3\n        /* \"#utility.yul\":30358:30451   */\n      tag_366\n      jump\t// in\n    tag_643:\n        /* \"#utility.yul\":30476:30478   */\n      0x20\n        /* \"#utility.yul\":30471:30474   */\n      dup3\n        /* \"#utility.yul\":30467:30479   */\n      add\n        /* \"#utility.yul\":30460:30479   */\n      swap1\n      pop\n        /* \"#utility.yul\":30119:30485   */\n      swap2\n      swap1\n      pop\n      jump\t// out\n        /* \"#utility.yul\":30491:30910   */\n    tag_216:\n        /* \"#utility.yul\":30657:30661   */\n      0x00\n        /* \"#utility.yul\":30695:30697   */\n      0x20\n        /* \"#utility.yul\":30684:30693   */\n      dup3\n        /* \"#utility.yul\":30680:30698   */\n      add\n        /* \"#utility.yul\":30672:30698   */\n      swap1\n      pop\n        /* \"#utility.yul\":30744:30753   */\n      dup2\n        /* \"#utility.yul\":30738:30742   */\n      dup2\n        /* \"#utility.yul\":30734:30754   */\n      sub\n        /* \"#utility.yul\":30730:30731   */\n      0x00\n        /* \"#utility.yul\":30719:30728   */\n      dup4\n        /* \"#utility.yul\":30715:30732   */\n      add\n        /* \"#utility.yul\":30708:30755   */\n      mstore\n        /* \"#utility.yul\":30772:30903   */\n      tag_645\n        /* \"#utility.yul\":30898:30902   */\n      dup2\n        /* \"#utility.yul\":30772:30903   */\n      tag_367\n      jump\t// in\n    tag_645:\n        /* \"#utility.yul\":30764:30903   */\n      swap1\n      pop\n        /* \"#utility.yul\":30491:30910   */\n      swap2\n      swap1\n      pop\n      jump\t// out\n        /* \"#utility.yul\":30916:31140   */\n    tag_368:\n        /* \"#utility.yul\":31056:31090   */\n      0x6d617820616d6f756e74206f662077616c6c6574732070657220494420657863\n        /* \"#utility.yul\":31052:31053   */\n      0x00\n        /* \"#utility.yul\":31044:31050   */\n      dup3\n        /* \"#utility.yul\":31040:31054   */\n      add\n        /* \"#utility.yul\":31033:31091   */\n      mstore\n        /* \"#utility.yul\":31125:31132   */\n      0x6565646564000000000000000000000000000000000000000000000000000000\n        /* \"#utility.yul\":31120:31122   */\n      0x20\n        /* \"#utility.yul\":31112:31118   */\n      dup3\n        /* \"#utility.yul\":31108:31123   */\n      add\n        /* \"#utility.yul\":31101:31133   */\n      mstore\n        /* \"#utility.yul\":30916:31140   */\n      pop\n      jump\t// out\n        /* \"#utility.yul\":31146:31512   */\n    tag_369:\n        /* \"#utility.yul\":31288:31291   */\n      0x00\n        /* \"#utility.yul\":31309:31376   */\n      tag_648\n        /* \"#utility.yul\":31373:31375   */\n      0x25\n        /* \"#utility.yul\":31368:31371   */\n      dup4\n        /* \"#utility.yul\":31309:31376   */\n      tag_331\n      jump\t// in\n    tag_648:\n        /* \"#utility.yul\":31302:31376   */\n      swap2\n      pop\n        /* \"#utility.yul\":31385:31478   */\n      tag_649\n        /* \"#utility.yul\":31474:31477   */\n      dup3\n        /* \"#utility.yul\":31385:31478   */\n      tag_368\n      jump\t// in\n    tag_649:\n        /* \"#utility.yul\":31503:31505   */\n      0x40\n        /* \"#utility.yul\":31498:31501   */\n      dup3\n        /* \"#utility.yul\":31494:31506   */\n      add\n        /* \"#utility.yul\":31487:31506   */\n      swap1\n      pop\n        /* \"#utility.yul\":31146:31512   */\n      swap2\n      swap1\n      pop\n      jump\t// out\n        /* \"#utility.yul\":31518:31937   */\n    tag_219:\n        /* \"#utility.yul\":31684:31688   */\n      0x00\n        /* \"#utility.yul\":31722:31724   */\n      0x20\n        /* \"#utility.yul\":31711:31720   */\n      dup3\n        /* \"#utility.yul\":31707:31725   */\n      add\n        /* \"#utility.yul\":31699:31725   */\n      swap1\n      pop\n        /* \"#utility.yul\":31771:31780   */\n      dup2\n        /* \"#utility.yul\":31765:31769   */\n      dup2\n        /* \"#utility.yul\":31761:31781   */\n      sub\n        /* \"#utility.yul\":31757:31758   */\n      0x00\n        /* \"#utility.yul\":31746:31755   */\n      dup4\n        /* \"#utility.yul\":31742:31759   */\n      add\n        /* \"#utility.yul\":31735:31782   */\n      mstore\n        /* \"#utility.yul\":31799:31930   */\n      tag_651\n        /* \"#utility.yul\":31925:31929   */\n      dup2\n        /* \"#utility.yul\":31799:31930   */\n      tag_369\n      jump\t// in\n    tag_651:\n        /* \"#utility.yul\":31791:31930   */\n      swap1\n      pop\n        /* \"#utility.yul\":31518:31937   */\n      swap2\n      swap1\n      pop\n      jump\t// out\n        /* \"#utility.yul\":31943:32167   */\n    tag_370:\n        /* \"#utility.yul\":32083:32117   */\n      0x696e76616c696420617267756d656e74202d20656d707479206c697374206f66\n        /* \"#utility.yul\":32079:32080   */\n      0x00\n        /* \"#utility.yul\":32071:32077   */\n      dup3\n        /* \"#utility.yul\":32067:32081   */\n      add\n        /* \"#utility.yul\":32060:32118   */\n      mstore\n        /* \"#utility.yul\":32152:32159   */\n      0x206b657973000000000000000000000000000000000000000000000000000000\n        /* \"#utility.yul\":32147:32149   */\n      0x20\n        /* \"#utility.yul\":32139:32145   */\n      dup3\n        /* \"#utility.yul\":32135:32150   */\n      add\n        /* \"#utility.yul\":32128:32160   */\n      mstore\n        /* \"#utility.yul\":31943:32167   */\n      pop\n      jump\t// out\n        /* \"#utility.yul\":32173:32539   */\n    tag_371:\n        /* \"#utility.yul\":32315:32318   */\n      0x00\n        /* \"#utility.yul\":32336:32403   */\n      tag_654\n        /* \"#utility.yul\":32400:32402   */\n      0x25\n        /* \"#utility.yul\":32395:32398   */\n      dup4\n        /* \"#utility.yul\":32336:32403   */\n      tag_331\n      jump\t// in\n    tag_654:\n        /* \"#utility.yul\":32329:32403   */\n      swap2\n      pop\n        /* \"#utility.yul\":32412:32505   */\n      tag_655\n        /* \"#utility.yul\":32501:32504   */\n      dup3\n        /* \"#utility.yul\":32412:32505   */\n      tag_370\n      jump\t// in\n    tag_655:\n        /* \"#utility.yul\":32530:32532   */\n      0x40\n        /* \"#utility.yul\":32525:32528   */\n      dup3\n        /* \"#utility.yul\":32521:32533   */\n      add\n        /* \"#utility.yul\":32514:32533   */\n      swap1\n      pop\n        /* \"#utility.yul\":32173:32539   */\n      swap2\n      swap1\n      pop\n      jump\t// out\n        /* \"#utility.yul\":32545:32964   */\n    tag_244:\n        /* \"#utility.yul\":32711:32715   */\n      0x00\n        /* \"#utility.yul\":32749:32751   */\n      0x20\n        /* \"#utility.yul\":32738:32747   */\n      dup3\n        /* \"#utility.yul\":32734:32752   */\n      add\n        /* \"#utility.yul\":32726:32752   */\n      swap1\n      pop\n        /* \"#utility.yul\":32798:32807   */\n      dup2\n        /* \"#utility.yul\":32792:32796   */\n      dup2\n        /* \"#utility.yul\":32788:32808   */\n      sub\n        /* \"#utility.yul\":32784:32785   */\n      0x00\n        /* \"#utility.yul\":32773:32782   */\n      dup4\n        /* \"#utility.yul\":32769:32786   */\n      add\n        /* \"#utility.yul\":32762:32809   */\n      mstore\n        /* \"#utility.yul\":32826:32957   */\n      tag_657\n        /* \"#utility.yul\":32952:32956   */\n      dup2\n        /* \"#utility.yul\":32826:32957   */\n      tag_371\n      jump\t// in\n    tag_657:\n        /* \"#utility.yul\":32818:32957   */\n      swap1\n      pop\n        /* \"#utility.yul\":32545:32964   */\n      swap2\n      swap1\n      pop\n      jump\t// out\n        /* \"#utility.yul\":32970:33216   */\n    tag_372:\n        /* \"#utility.yul\":33110:33144   */\n      0x696e76616c696420617267756d656e74202d2077616c6c657420697320616c73\n        /* \"#utility.yul\":33106:33107   */\n      0x00\n        /* \"#utility.yul\":33098:33104   */\n      dup3\n        /* \"#utility.yul\":33094:33108   */\n      add\n        /* \"#utility.yul\":33087:33145   */\n      mstore\n        /* \"#utility.yul\":33179:33208   */\n      0x6f206c697374656420696e206d616e6167656d656e74206b6579730000000000\n        /* \"#utility.yul\":33174:33176   */\n      0x20\n        /* \"#utility.yul\":33166:33172   */\n      dup3\n        /* \"#utility.yul\":33162:33177   */\n      add\n        /* \"#utility.yul\":33155:33209   */\n      mstore\n        /* \"#utility.yul\":32970:33216   */\n      pop\n      jump\t// out\n        /* \"#utility.yul\":33222:33588   */\n    tag_373:\n        /* \"#utility.yul\":33364:33367   */\n      0x00\n        /* \"#utility.yul\":33385:33452   */\n      tag_660\n        /* \"#utility.yul\":33449:33451   */\n      0x3b\n        /* \"#utility.yul\":33444:33447   */\n      dup4\n        /* \"#utility.yul\":33385:33452   */\n      tag_331\n      jump\t// in\n    tag_660:\n        /* \"#utility.yul\":33378:33452   */\n      swap2\n      pop\n        /* \"#utility.yul\":33461:33554   */\n      tag_661\n        /* \"#utility.yul\":33550:33553   */\n      dup3\n        /* \"#utility.yul\":33461:33554   */\n      tag_372\n      jump\t// in\n    tag_661:\n        /* \"#utility.yul\":33579:33581   */\n      0x40\n        /* \"#utility.yul\":33574:33577   */\n      dup3\n        /* \"#utility.yul\":33570:33582   */\n      add\n        /* \"#utility.yul\":33563:33582   */\n      swap1\n      pop\n        /* \"#utility.yul\":33222:33588   */\n      swap2\n      swap1\n      pop\n      jump\t// out\n        /* \"#utility.yul\":33594:34013   */\n    tag_254:\n        /* \"#utility.yul\":33760:33764   */\n      0x00\n        /* \"#utility.yul\":33798:33800   */\n      0x20\n        /* \"#utility.yul\":33787:33796   */\n      dup3\n        /* \"#utility.yul\":33783:33801   */\n      add\n        /* \"#utility.yul\":33775:33801   */\n      swap1\n      pop\n        /* \"#utility.yul\":33847:33856   */\n      dup2\n        /* \"#utility.yul\":33841:33845   */\n      dup2\n        /* \"#utility.yul\":33837:33857   */\n      sub\n        /* \"#utility.yul\":33833:33834   */\n      0x00\n        /* \"#utility.yul\":33822:33831   */\n      dup4\n        /* \"#utility.yul\":33818:33835   */\n      add\n        /* \"#utility.yul\":33811:33858   */\n      mstore\n        /* \"#utility.yul\":33875:34006   */\n      tag_663\n        /* \"#utility.yul\":34001:34005   */\n      dup2\n        /* \"#utility.yul\":33875:34006   */\n      tag_373\n      jump\t// in\n    tag_663:\n        /* \"#utility.yul\":33867:34006   */\n      swap1\n      pop\n        /* \"#utility.yul\":33594:34013   */\n      swap2\n      swap1\n      pop\n      jump\t// out\n        /* \"#utility.yul\":34019:34137   */\n    tag_374:\n        /* \"#utility.yul\":34106:34130   */\n      tag_665\n        /* \"#utility.yul\":34124:34129   */\n      dup2\n        /* \"#utility.yul\":34106:34130   */\n      tag_324\n      jump\t// in\n    tag_665:\n        /* \"#utility.yul\":34101:34104   */\n      dup3\n        /* \"#utility.yul\":34094:34131   */\n      mstore\n        /* \"#utility.yul\":34019:34137   */\n      pop\n      pop\n      jump\t// out\n        /* \"#utility.yul\":34143:34228   */\n    tag_375:\n        /* \"#utility.yul\":34188:34195   */\n      0x00\n        /* \"#utility.yul\":34217:34222   */\n      dup2\n        /* \"#utility.yul\":34206:34222   */\n      swap1\n      pop\n        /* \"#utility.yul\":34143:34228   */\n      swap2\n      swap1\n      pop\n      jump\t// out\n        /* \"#utility.yul\":34234:34294   */\n    tag_376:\n        /* \"#utility.yul\":34262:34265   */\n      0x00\n        /* \"#utility.yul\":34283:34288   */\n      dup2\n        /* \"#utility.yul\":34276:34288   */\n      swap1\n      pop\n        /* \"#utility.yul\":34234:34294   */\n      swap2\n      swap1\n      pop\n      jump\t// out\n        /* \"#utility.yul\":34300:34458   */\n    tag_377:\n        /* \"#utility.yul\":34358:34367   */\n      0x00\n        /* \"#utility.yul\":34391:34452   */\n      tag_669\n        /* \"#utility.yul\":34409:34451   */\n      tag_670\n        /* \"#utility.yul\":34418:34450   */\n      tag_671\n        /* \"#utility.yul\":34444:34449   */\n      dup5\n        /* \"#utility.yul\":34418:34450   */\n      tag_375\n      jump\t// in\n    tag_671:\n        /* \"#utility.yul\":34409:34451   */\n      tag_376\n      jump\t// in\n    tag_670:\n        /* \"#utility.yul\":34391:34452   */\n      tag_353\n      jump\t// in\n    tag_669:\n        /* \"#utility.yul\":34378:34452   */\n      swap1\n      pop\n        /* \"#utility.yul\":34300:34458   */\n      swap2\n      swap1\n      pop\n      jump\t// out\n        /* \"#utility.yul\":34464:34611   */\n    tag_378:\n        /* \"#utility.yul\":34559:34604   */\n      tag_673\n        /* \"#utility.yul\":34598:34603   */\n      dup2\n        /* \"#utility.yul\":34559:34604   */\n      tag_377\n      jump\t// in\n    tag_673:\n        /* \"#utility.yul\":34554:34557   */\n      dup3\n        /* \"#utility.yul\":34547:34605   */\n      mstore\n        /* \"#utility.yul\":34464:34611   */\n      pop\n      pop\n      jump\t// out\n        /* \"#utility.yul\":34617:35091   */\n    tag_258:\n        /* \"#utility.yul\":34782:34786   */\n      0x00\n        /* \"#utility.yul\":34820:34822   */\n      0x60\n        /* \"#utility.yul\":34809:34818   */\n      dup3\n        /* \"#utility.yul\":34805:34823   */\n      add\n        /* \"#utility.yul\":34797:34823   */\n      swap1\n      pop\n        /* \"#utility.yul\":34833:34904   */\n      tag_675\n        /* \"#utility.yul\":34901:34902   */\n      0x00\n        /* \"#utility.yul\":34890:34899   */\n      dup4\n        /* \"#utility.yul\":34886:34903   */\n      add\n        /* \"#utility.yul\":34877:34883   */\n      dup7\n        /* \"#utility.yul\":34833:34904   */\n      tag_374\n      jump\t// in\n    tag_675:\n        /* \"#utility.yul\":34914:34994   */\n      tag_676\n        /* \"#utility.yul\":34990:34992   */\n      0x20\n        /* \"#utility.yul\":34979:34988   */\n      dup4\n        /* \"#utility.yul\":34975:34993   */\n      add\n        /* \"#utility.yul\":34966:34972   */\n      dup6\n        /* \"#utility.yul\":34914:34994   */\n      tag_378\n      jump\t// in\n    tag_676:\n        /* \"#utility.yul\":35004:35084   */\n      tag_677\n        /* \"#utility.yul\":35080:35082   */\n      0x40\n        /* \"#utility.yul\":35069:35078   */\n      dup4\n        /* \"#utility.yul\":35065:35083   */\n      add\n        /* \"#utility.yul\":35056:35062   */\n      dup5\n        /* \"#utility.yul\":35004:35084   */\n      tag_378\n      jump\t// in\n    tag_677:\n        /* \"#utility.yul\":34617:35091   */\n      swap5\n      swap4\n      pop\n      pop\n      pop\n      pop\n      jump\t// out\n        /* \"#utility.yul\":35097:35213   */\n    tag_379:\n        /* \"#utility.yul\":35167:35188   */\n      tag_679\n        /* \"#utility.yul\":35182:35187   */\n      dup2\n        /* \"#utility.yul\":35167:35188   */\n      tag_305\n      jump\t// in\n    tag_679:\n        /* \"#utility.yul\":35160:35165   */\n      dup2\n        /* \"#utility.yul\":35157:35189   */\n      eq\n        /* \"#utility.yul\":35147:35207   */\n      tag_680\n      jumpi\n        /* \"#utility.yul\":35203:35204   */\n      0x00\n        /* \"#utility.yul\":35200:35201   */\n      dup1\n        /* \"#utility.yul\":35193:35205   */\n      revert\n        /* \"#utility.yul\":35147:35207   */\n    tag_680:\n        /* \"#utility.yul\":35097:35213   */\n      pop\n      jump\t// out\n        /* \"#utility.yul\":35219:35356   */\n    tag_380:\n        /* \"#utility.yul\":35273:35278   */\n      0x00\n        /* \"#utility.yul\":35304:35310   */\n      dup2\n        /* \"#utility.yul\":35298:35311   */\n      mload\n        /* \"#utility.yul\":35289:35311   */\n      swap1\n      pop\n        /* \"#utility.yul\":35320:35350   */\n      tag_682\n        /* \"#utility.yul\":35344:35349   */\n      dup2\n        /* \"#utility.yul\":35320:35350   */\n      tag_379\n      jump\t// in\n    tag_682:\n        /* \"#utility.yul\":35219:35356   */\n      swap3\n      swap2\n      pop\n      pop\n      jump\t// out\n        /* \"#utility.yul\":35362:35707   */\n    tag_262:\n        /* \"#utility.yul\":35429:35435   */\n      0x00\n        /* \"#utility.yul\":35478:35480   */\n      0x20\n        /* \"#utility.yul\":35466:35475   */\n      dup3\n        /* \"#utility.yul\":35457:35464   */\n      dup5\n        /* \"#utility.yul\":35453:35476   */\n      sub\n        /* \"#utility.yul\":35449:35481   */\n      slt\n        /* \"#utility.yul\":35446:35565   */\n      iszero\n      tag_684\n      jumpi\n        /* \"#utility.yul\":35484:35563   */\n      tag_685\n      tag_297\n      jump\t// in\n    tag_685:\n        /* \"#utility.yul\":35446:35565   */\n    tag_684:\n        /* \"#utility.yul\":35604:35605   */\n      0x00\n        /* \"#utility.yul\":35629:35690   */\n      tag_686\n        /* \"#utility.yul\":35682:35689   */\n      dup5\n        /* \"#utility.yul\":35673:35679   */\n      dup3\n        /* \"#utility.yul\":35662:35671   */\n      dup6\n        /* \"#utility.yul\":35658:35680   */\n      add\n        /* \"#utility.yul\":35629:35690   */\n      tag_380\n      jump\t// in\n    tag_686:\n        /* \"#utility.yul\":35619:35690   */\n      swap2\n      pop\n        /* \"#utility.yul\":35575:35700   */\n      pop\n        /* \"#utility.yul\":35362:35707   */\n      swap3\n      swap2\n      pop\n      pop\n      jump\t// out\n        /* \"#utility.yul\":35713:36061   */\n    tag_266:\n        /* \"#utility.yul\":35842:35846   */\n      0x00\n        /* \"#utility.yul\":35880:35882   */\n      0x40\n        /* \"#utility.yul\":35869:35878   */\n      dup3\n        /* \"#utility.yul\":35865:35883   */\n      add\n        /* \"#utility.yul\":35857:35883   */\n      swap1\n      pop\n        /* \"#utility.yul\":35893:35964   */\n      tag_688\n        /* \"#utility.yul\":35961:35962   */\n      0x00\n        /* \"#utility.yul\":35950:35959   */\n      dup4\n        /* \"#utility.yul\":35946:35963   */\n      add\n        /* \"#utility.yul\":35937:35943   */\n      dup6\n        /* \"#utility.yul\":35893:35964   */\n      tag_374\n      jump\t// in\n    tag_688:\n        /* \"#utility.yul\":35974:36054   */\n      tag_689\n        /* \"#utility.yul\":36050:36052   */\n      0x20\n        /* \"#utility.yul\":36039:36048   */\n      dup4\n        /* \"#utility.yul\":36035:36053   */\n      add\n        /* \"#utility.yul\":36026:36032   */\n      dup5\n        /* \"#utility.yul\":35974:36054   */\n      tag_378\n      jump\t// in\n    tag_689:\n        /* \"#utility.yul\":35713:36061   */\n      swap4\n      swap3\n      pop\n      pop\n      pop\n      jump\t// out\n        /* \"#utility.yul\":36067:36399   */\n    tag_276:\n        /* \"#utility.yul\":36188:36192   */\n      0x00\n        /* \"#utility.yul\":36226:36228   */\n      0x40\n        /* \"#utility.yul\":36215:36224   */\n      dup3\n        /* \"#utility.yul\":36211:36229   */\n      add\n        /* \"#utility.yul\":36203:36229   */\n      swap1\n      pop\n        /* \"#utility.yul\":36239:36310   */\n      tag_691\n        /* \"#utility.yul\":36307:36308   */\n      0x00\n        /* \"#utility.yul\":36296:36305   */\n      dup4\n        /* \"#utility.yul\":36292:36309   */\n      add\n        /* \"#utility.yul\":36283:36289   */\n      dup6\n        /* \"#utility.yul\":36239:36310   */\n      tag_295\n      jump\t// in\n    tag_691:\n        /* \"#utility.yul\":36320:36392   */\n      tag_692\n        /* \"#utility.yul\":36388:36390   */\n      0x20\n        /* \"#utility.yul\":36377:36386   */\n      dup4\n        /* \"#utility.yul\":36373:36391   */\n      add\n        /* \"#utility.yul\":36364:36370   */\n      dup5\n        /* \"#utility.yul\":36320:36392   */\n      tag_295\n      jump\t// in\n    tag_692:\n        /* \"#utility.yul\":36067:36399   */\n      swap4\n      swap3\n      pop\n      pop\n      pop\n      jump\t// out\n        /* \"#utility.yul\":36405:36503   */\n    tag_381:\n        /* \"#utility.yul\":36456:36462   */\n      0x00\n        /* \"#utility.yul\":36490:36495   */\n      dup2\n        /* \"#utility.yul\":36484:36496   */\n      mload\n        /* \"#utility.yul\":36474:36496   */\n      swap1\n      pop\n        /* \"#utility.yul\":36405:36503   */\n      swap2\n      swap1\n      pop\n      jump\t// out\n        /* \"#utility.yul\":36509:36656   */\n    tag_382:\n        /* \"#utility.yul\":36610:36621   */\n      0x00\n        /* \"#utility.yul\":36647:36650   */\n      dup2\n        /* \"#utility.yul\":36632:36650   */\n      swap1\n      pop\n        /* \"#utility.yul\":36509:36656   */\n      swap3\n      swap2\n      pop\n      pop\n      jump\t// out\n        /* \"#utility.yul\":36662:37048   */\n    tag_383:\n        /* \"#utility.yul\":36766:36769   */\n      0x00\n        /* \"#utility.yul\":36794:36832   */\n      tag_696\n        /* \"#utility.yul\":36826:36831   */\n      dup3\n        /* \"#utility.yul\":36794:36832   */\n      tag_381\n      jump\t// in\n    tag_696:\n        /* \"#utility.yul\":36848:36936   */\n      tag_697\n        /* \"#utility.yul\":36929:36935   */\n      dup2\n        /* \"#utility.yul\":36924:36927   */\n      dup6\n        /* \"#utility.yul\":36848:36936   */\n      tag_382\n      jump\t// in\n    tag_697:\n        /* \"#utility.yul\":36841:36936   */\n      swap4\n      pop\n        /* \"#utility.yul\":36945:37010   */\n      tag_698\n        /* \"#utility.yul\":37003:37009   */\n      dup2\n        /* \"#utility.yul\":36998:37001   */\n      dup6\n        /* \"#utility.yul\":36991:36995   */\n      0x20\n        /* \"#utility.yul\":36984:36989   */\n      dup7\n        /* \"#utility.yul\":36980:36996   */\n      add\n        /* \"#utility.yul\":36945:37010   */\n      tag_339\n      jump\t// in\n    tag_698:\n        /* \"#utility.yul\":37035:37041   */\n      dup1\n        /* \"#utility.yul\":37030:37033   */\n      dup5\n        /* \"#utility.yul\":37026:37042   */\n      add\n        /* \"#utility.yul\":37019:37042   */\n      swap2\n      pop\n        /* \"#utility.yul\":36770:37048   */\n      pop\n        /* \"#utility.yul\":36662:37048   */\n      swap3\n      swap2\n      pop\n      pop\n      jump\t// out\n        /* \"#utility.yul\":37054:37481   */\n    tag_278:\n        /* \"#utility.yul\":37230:37233   */\n      0x00\n        /* \"#utility.yul\":37252:37345   */\n      tag_700\n        /* \"#utility.yul\":37341:37344   */\n      dup3\n        /* \"#utility.yul\":37332:37338   */\n      dup6\n        /* \"#utility.yul\":37252:37345   */\n      tag_383\n      jump\t// in\n    tag_700:\n        /* \"#utility.yul\":37245:37345   */\n      swap2\n      pop\n        /* \"#utility.yul\":37362:37455   */\n      tag_701\n        /* \"#utility.yul\":37451:37454   */\n      dup3\n        /* \"#utility.yul\":37442:37448   */\n      dup5\n        /* \"#utility.yul\":37362:37455   */\n      tag_383\n      jump\t// in\n    tag_701:\n        /* \"#utility.yul\":37355:37455   */\n      swap2\n      pop\n        /* \"#utility.yul\":37472:37475   */\n      dup2\n        /* \"#utility.yul\":37465:37475   */\n      swap1\n      pop\n        /* \"#utility.yul\":37054:37481   */\n      swap4\n      swap3\n      pop\n      pop\n      pop\n      jump\t// out\n    stop\n\n    sub_0: assembly {\n            /* \"solidity-main/contracts/proxy/IdentityProxy.sol\":115:2687  contract IdentityProxy {... */\n          mstore(0x40, 0x80)\n            /* \"solidity-main/contracts/proxy/IdentityProxy.sol\":534:1321  constructor(address _implementationAuthority, address initialManagementKey) {... */\n          callvalue\n          dup1\n          iszero\n          tag_1\n          jumpi\n          0x00\n          dup1\n          revert\n        tag_1:\n          pop\n          mload(0x40)\n          sub(codesize, bytecodeSize)\n          dup1\n          bytecodeSize\n          dup4\n          codecopy\n          dup2\n          dup2\n          add\n          0x40\n          mstore\n          dup2\n          add\n          swap1\n          tag_2\n          swap2\n          swap1\n          tag_3\n          jump\t// in\n        tag_2:\n            /* \"solidity-main/contracts/proxy/IdentityProxy.sol\":664:665  0 */\n          0x00\n            /* \"solidity-main/contracts/proxy/IdentityProxy.sol\":628:666  _implementationAuthority != address(0) */\n          0xffffffffffffffffffffffffffffffffffffffff\n          and\n            /* \"solidity-main/contracts/proxy/IdentityProxy.sol\":628:652  _implementationAuthority */\n          dup3\n            /* \"solidity-main/contracts/proxy/IdentityProxy.sol\":628:666  _implementationAuthority != address(0) */\n          0xffffffffffffffffffffffffffffffffffffffff\n          and\n          sub\n            /* \"solidity-main/contracts/proxy/IdentityProxy.sol\":620:702  require(_implementationAuthority != address(0), \"invalid argument - zero address\") */\n          tag_6\n          jumpi\n          mload(0x40)\n          0x08c379a000000000000000000000000000000000000000000000000000000000\n          dup2\n          mstore\n          0x04\n          add\n          tag_7\n          swap1\n          tag_8\n          jump\t// in\n        tag_7:\n          mload(0x40)\n          dup1\n          swap2\n          sub\n          swap1\n          revert\n        tag_6:\n            /* \"solidity-main/contracts/proxy/IdentityProxy.sol\":752:753  0 */\n          0x00\n            /* \"solidity-main/contracts/proxy/IdentityProxy.sol\":720:754  initialManagementKey != address(0) */\n          0xffffffffffffffffffffffffffffffffffffffff\n          and\n            /* \"solidity-main/contracts/proxy/IdentityProxy.sol\":720:740  initialManagementKey */\n          dup2\n            /* \"solidity-main/contracts/proxy/IdentityProxy.sol\":720:754  initialManagementKey != address(0) */\n          0xffffffffffffffffffffffffffffffffffffffff\n          and\n          sub\n            /* \"solidity-main/contracts/proxy/IdentityProxy.sol\":712:790  require(initialManagementKey != address(0), \"invalid argument - zero address\") */\n          tag_9\n          jumpi\n          mload(0x40)\n          0x08c379a000000000000000000000000000000000000000000000000000000000\n          dup2\n          mstore\n          0x04\n          add\n          tag_10\n          swap1\n          tag_8\n          jump\t// in\n        tag_10:\n          mload(0x40)\n          dup1\n          swap2\n          sub\n          swap1\n          revert\n        tag_9:\n            /* \"solidity-main/contracts/proxy/IdentityProxy.sol\":955:979  _implementationAuthority */\n          dup2\n            /* \"solidity-main/contracts/proxy/IdentityProxy.sol\":887:953  0xc5f16f0fcc639fa48a6947836d9850f504798523bf8c9a3a87d5876cf622bcf7 */\n          0xc5f16f0fcc639fa48a6947836d9850f504798523bf8c9a3a87d5876cf622bcf7\n            /* \"solidity-main/contracts/proxy/IdentityProxy.sol\":880:980  sstore(0xc5f16f0fcc639fa48a6947836d9850f504798523bf8c9a3a87d5876cf622bcf7, _implementationAuthority) */\n          sstore\n            /* \"solidity-main/contracts/proxy/IdentityProxy.sol\":1000:1013  address logic */\n          0x00\n            /* \"solidity-main/contracts/proxy/IdentityProxy.sol\":1041:1065  _implementationAuthority */\n          dup3\n            /* \"solidity-main/contracts/proxy/IdentityProxy.sol\":1016:1084  IImplementationAuthority(_implementationAuthority).getImplementation */\n          0xffffffffffffffffffffffffffffffffffffffff\n          and\n          0xaaf10f42\n            /* \"solidity-main/contracts/proxy/IdentityProxy.sol\":1016:1086  IImplementationAuthority(_implementationAuthority).getImplementation() */\n          mload(0x40)\n          dup2\n          0xffffffff\n          and\n          0xe0\n          shl\n          dup2\n          mstore\n          0x04\n          add\n          0x20\n          mload(0x40)\n          dup1\n          dup4\n          sub\n          dup2\n          dup7\n          gas\n          staticcall\n          iszero\n          dup1\n          iszero\n          tag_12\n          jumpi\n          returndatasize\n          0x00\n          dup1\n          returndatacopy\n          revert(0x00, returndatasize)\n        tag_12:\n          pop\n          pop\n          pop\n          pop\n          mload(0x40)\n          returndatasize\n          not(0x1f)\n          0x1f\n          dup3\n          add\n          and\n          dup3\n          add\n          dup1\n          0x40\n          mstore\n          pop\n          dup2\n          add\n          swap1\n          tag_13\n          swap2\n          swap1\n          tag_14\n          jump\t// in\n        tag_13:\n            /* \"solidity-main/contracts/proxy/IdentityProxy.sol\":1000:1086  address logic = IImplementationAuthority(_implementationAuthority).getImplementation() */\n          swap1\n          pop\n            /* \"solidity-main/contracts/proxy/IdentityProxy.sol\":1157:1169  bool success */\n          0x00\n            /* \"solidity-main/contracts/proxy/IdentityProxy.sol\":1174:1179  logic */\n          dup2\n            /* \"solidity-main/contracts/proxy/IdentityProxy.sol\":1174:1192  logic.delegatecall */\n          0xffffffffffffffffffffffffffffffffffffffff\n          and\n            /* \"solidity-main/contracts/proxy/IdentityProxy.sol\":1240:1260  initialManagementKey */\n          dup4\n            /* \"solidity-main/contracts/proxy/IdentityProxy.sol\":1193:1261  abi.encodeWithSignature(\"initialize(address)\", initialManagementKey) */\n          add(0x24, mload(0x40))\n          tag_15\n          swap2\n          swap1\n          tag_16\n          jump\t// in\n        tag_15:\n          mload(0x40)\n          0x20\n          dup2\n          dup4\n          sub\n          sub\n          dup2\n          mstore\n          swap1\n          0x40\n          mstore\n          and(not(0xffffffffffffffffffffffffffffffffffffffffffffffffffffffff), 0xc4d66de800000000000000000000000000000000000000000000000000000000)\n          0x20\n          dup3\n          add\n          dup1\n          mload\n          0xffffffffffffffffffffffffffffffffffffffffffffffffffffffff\n          dup4\n          dup2\n          dup4\n          and\n          or\n          dup4\n          mstore\n          pop\n          pop\n          pop\n          pop\n            /* \"solidity-main/contracts/proxy/IdentityProxy.sol\":1174:1262  logic.delegatecall(abi.encodeWithSignature(\"initialize(address)\", initialManagementKey)) */\n          mload(0x40)\n          tag_17\n          swap2\n          swap1\n          tag_18\n          jump\t// in\n        tag_17:\n          0x00\n          mload(0x40)\n          dup1\n          dup4\n          sub\n          dup2\n          dup6\n          gas\n          delegatecall\n          swap2\n          pop\n          pop\n          returndatasize\n          dup1\n          0x00\n          dup2\n          eq\n          tag_21\n          jumpi\n          mload(0x40)\n          swap2\n          pop\n          and(add(returndatasize, 0x3f), not(0x1f))\n          dup3\n          add\n          0x40\n          mstore\n          returndatasize\n          dup3\n          mstore\n          returndatasize\n          0x00\n          0x20\n          dup5\n          add\n          returndatacopy\n          jump(tag_20)\n        tag_21:\n          0x60\n          swap2\n          pop\n        tag_20:\n          pop\n            /* \"solidity-main/contracts/proxy/IdentityProxy.sol\":1156:1262  (bool success,) = logic.delegatecall(abi.encodeWithSignature(\"initialize(address)\", initialManagementKey)) */\n          pop\n          swap1\n          pop\n            /* \"solidity-main/contracts/proxy/IdentityProxy.sol\":1280:1287  success */\n          dup1\n            /* \"solidity-main/contracts/proxy/IdentityProxy.sol\":1272:1314  require(success, \"Initialization failed.\") */\n          tag_22\n          jumpi\n          mload(0x40)\n          0x08c379a000000000000000000000000000000000000000000000000000000000\n          dup2\n          mstore\n          0x04\n          add\n          tag_23\n          swap1\n          tag_24\n          jump\t// in\n        tag_23:\n          mload(0x40)\n          dup1\n          swap2\n          sub\n          swap1\n          revert\n        tag_22:\n            /* \"solidity-main/contracts/proxy/IdentityProxy.sol\":610:1321  {... */\n          pop\n          pop\n            /* \"solidity-main/contracts/proxy/IdentityProxy.sol\":534:1321  constructor(address _implementationAuthority, address initialManagementKey) {... */\n          pop\n          pop\n            /* \"solidity-main/contracts/proxy/IdentityProxy.sol\":115:2687  contract IdentityProxy {... */\n          jump(tag_25)\n            /* \"#utility.yul\":88:205   */\n        tag_27:\n            /* \"#utility.yul\":197:198   */\n          0x00\n            /* \"#utility.yul\":194:195   */\n          dup1\n            /* \"#utility.yul\":187:199   */\n          revert\n            /* \"#utility.yul\":334:460   */\n        tag_29:\n            /* \"#utility.yul\":371:378   */\n          0x00\n            /* \"#utility.yul\":411:453   */\n          0xffffffffffffffffffffffffffffffffffffffff\n            /* \"#utility.yul\":404:409   */\n          dup3\n            /* \"#utility.yul\":400:454   */\n          and\n            /* \"#utility.yul\":389:454   */\n          swap1\n          pop\n            /* \"#utility.yul\":334:460   */\n          swap2\n          swap1\n          pop\n          jump\t// out\n            /* \"#utility.yul\":466:562   */\n        tag_30:\n            /* \"#utility.yul\":503:510   */\n          0x00\n            /* \"#utility.yul\":532:556   */\n          tag_49\n            /* \"#utility.yul\":550:555   */\n          dup3\n            /* \"#utility.yul\":532:556   */\n          tag_29\n          jump\t// in\n        tag_49:\n            /* \"#utility.yul\":521:556   */\n          swap1\n          pop\n            /* \"#utility.yul\":466:562   */\n          swap2\n          swap1\n          pop\n          jump\t// out\n            /* \"#utility.yul\":568:690   */\n        tag_31:\n            /* \"#utility.yul\":641:665   */\n          tag_51\n            /* \"#utility.yul\":659:664   */\n          dup2\n            /* \"#utility.yul\":641:665   */\n          tag_30\n          jump\t// in\n        tag_51:\n            /* \"#utility.yul\":634:639   */\n          dup2\n            /* \"#utility.yul\":631:666   */\n          eq\n            /* \"#utility.yul\":621:684   */\n          tag_52\n          jumpi\n            /* \"#utility.yul\":680:681   */\n          0x00\n            /* \"#utility.yul\":677:678   */\n          dup1\n            /* \"#utility.yul\":670:682   */\n          revert\n            /* \"#utility.yul\":621:684   */\n        tag_52:\n            /* \"#utility.yul\":568:690   */\n          pop\n          jump\t// out\n            /* \"#utility.yul\":696:839   */\n        tag_32:\n            /* \"#utility.yul\":753:758   */\n          0x00\n            /* \"#utility.yul\":784:790   */\n          dup2\n            /* \"#utility.yul\":778:791   */\n          mload\n            /* \"#utility.yul\":769:791   */\n          swap1\n          pop\n            /* \"#utility.yul\":800:833   */\n          tag_54\n            /* \"#utility.yul\":827:832   */\n          dup2\n            /* \"#utility.yul\":800:833   */\n          tag_31\n          jump\t// in\n        tag_54:\n            /* \"#utility.yul\":696:839   */\n          swap3\n          swap2\n          pop\n          pop\n          jump\t// out\n            /* \"#utility.yul\":845:1352   */\n        tag_3:\n            /* \"#utility.yul\":924:930   */\n          0x00\n            /* \"#utility.yul\":932:938   */\n          dup1\n            /* \"#utility.yul\":981:983   */\n          0x40\n            /* \"#utility.yul\":969:978   */\n          dup4\n            /* \"#utility.yul\":960:967   */\n          dup6\n            /* \"#utility.yul\":956:979   */\n          sub\n            /* \"#utility.yul\":952:984   */\n          slt\n            /* \"#utility.yul\":949:1068   */\n          iszero\n          tag_56\n          jumpi\n            /* \"#utility.yul\":987:1066   */\n          tag_57\n          tag_27\n          jump\t// in\n        tag_57:\n            /* \"#utility.yul\":949:1068   */\n        tag_56:\n            /* \"#utility.yul\":1107:1108   */\n          0x00\n            /* \"#utility.yul\":1132:1196   */\n          tag_58\n            /* \"#utility.yul\":1188:1195   */\n          dup6\n            /* \"#utility.yul\":1179:1185   */\n          dup3\n            /* \"#utility.yul\":1168:1177   */\n          dup7\n            /* \"#utility.yul\":1164:1186   */\n          add\n            /* \"#utility.yul\":1132:1196   */\n          tag_32\n          jump\t// in\n        tag_58:\n            /* \"#utility.yul\":1122:1196   */\n          swap3\n          pop\n            /* \"#utility.yul\":1078:1206   */\n          pop\n            /* \"#utility.yul\":1245:1247   */\n          0x20\n            /* \"#utility.yul\":1271:1335   */\n          tag_59\n            /* \"#utility.yul\":1327:1334   */\n          dup6\n            /* \"#utility.yul\":1318:1324   */\n          dup3\n            /* \"#utility.yul\":1307:1316   */\n          dup7\n            /* \"#utility.yul\":1303:1325   */\n          add\n            /* \"#utility.yul\":1271:1335   */\n          tag_32\n          jump\t// in\n        tag_59:\n            /* \"#utility.yul\":1261:1335   */\n          swap2\n          pop\n            /* \"#utility.yul\":1216:1345   */\n          pop\n            /* \"#utility.yul\":845:1352   */\n          swap3\n          pop\n          swap3\n          swap1\n          pop\n          jump\t// out\n            /* \"#utility.yul\":1358:1527   */\n        tag_33:\n            /* \"#utility.yul\":1442:1453   */\n          0x00\n            /* \"#utility.yul\":1476:1482   */\n          dup3\n            /* \"#utility.yul\":1471:1474   */\n          dup3\n            /* \"#utility.yul\":1464:1483   */\n          mstore\n            /* \"#utility.yul\":1516:1520   */\n          0x20\n            /* \"#utility.yul\":1511:1514   */\n          dup3\n            /* \"#utility.yul\":1507:1521   */\n          add\n            /* \"#utility.yul\":1492:1521   */\n          swap1\n          pop\n            /* \"#utility.yul\":1358:1527   */\n          swap3\n          swap2\n          pop\n          pop\n          jump\t// out\n            /* \"#utility.yul\":1533:1714   */\n        tag_34:\n            /* \"#utility.yul\":1673:1706   */\n          0x696e76616c696420617267756d656e74202d207a65726f206164647265737300\n            /* \"#utility.yul\":1669:1670   */\n          0x00\n            /* \"#utility.yul\":1661:1667   */\n          dup3\n            /* \"#utility.yul\":1657:1671   */\n          add\n            /* \"#utility.yul\":1650:1707   */\n          mstore\n            /* \"#utility.yul\":1533:1714   */\n          pop\n          jump\t// out\n            /* \"#utility.yul\":1720:2086   */\n        tag_35:\n            /* \"#utility.yul\":1862:1865   */\n          0x00\n            /* \"#utility.yul\":1883:1950   */\n          tag_63\n            /* \"#utility.yul\":1947:1949   */\n          0x1f\n            /* \"#utility.yul\":1942:1945   */\n          dup4\n            /* \"#utility.yul\":1883:1950   */\n          tag_33\n          jump\t// in\n        tag_63:\n            /* \"#utility.yul\":1876:1950   */\n          swap2\n          pop\n            /* \"#utility.yul\":1959:2052   */\n          tag_64\n            /* \"#utility.yul\":2048:2051   */\n          dup3\n            /* \"#utility.yul\":1959:2052   */\n          tag_34\n          jump\t// in\n        tag_64:\n            /* \"#utility.yul\":2077:2079   */\n          0x20\n            /* \"#utility.yul\":2072:2075   */\n          dup3\n            /* \"#utility.yul\":2068:2080   */\n          add\n            /* \"#utility.yul\":2061:2080   */\n          swap1\n          pop\n            /* \"#utility.yul\":1720:2086   */\n          swap2\n          swap1\n          pop\n          jump\t// out\n            /* \"#utility.yul\":2092:2511   */\n        tag_8:\n            /* \"#utility.yul\":2258:2262   */\n          0x00\n            /* \"#utility.yul\":2296:2298   */\n          0x20\n            /* \"#utility.yul\":2285:2294   */\n          dup3\n            /* \"#utility.yul\":2281:2299   */\n          add\n            /* \"#utility.yul\":2273:2299   */\n          swap1\n          pop\n            /* \"#utility.yul\":2345:2354   */\n          dup2\n            /* \"#utility.yul\":2339:2343   */\n          dup2\n            /* \"#utility.yul\":2335:2355   */\n          sub\n            /* \"#utility.yul\":2331:2332   */\n          0x00\n            /* \"#utility.yul\":2320:2329   */\n          dup4\n            /* \"#utility.yul\":2316:2333   */\n          add\n            /* \"#utility.yul\":2309:2356   */\n          mstore\n            /* \"#utility.yul\":2373:2504   */\n          tag_66\n            /* \"#utility.yul\":2499:2503   */\n          dup2\n            /* \"#utility.yul\":2373:2504   */\n          tag_35\n          jump\t// in\n        tag_66:\n            /* \"#utility.yul\":2365:2504   */\n          swap1\n          pop\n            /* \"#utility.yul\":2092:2511   */\n          swap2\n          swap1\n          pop\n          jump\t// out\n            /* \"#utility.yul\":2517:2868   */\n        tag_14:\n            /* \"#utility.yul\":2587:2593   */\n          0x00\n            /* \"#utility.yul\":2636:2638   */\n          0x20\n            /* \"#utility.yul\":2624:2633   */\n          dup3\n            /* \"#utility.yul\":2615:2622   */\n          dup5\n            /* \"#utility.yul\":2611:2634   */\n          sub\n            /* \"#utility.yul\":2607:2639   */\n          slt\n            /* \"#utility.yul\":2604:2723   */\n          iszero\n          tag_68\n          jumpi\n            /* \"#utility.yul\":2642:2721   */\n          tag_69\n          tag_27\n          jump\t// in\n        tag_69:\n            /* \"#utility.yul\":2604:2723   */\n        tag_68:\n            /* \"#utility.yul\":2762:2763   */\n          0x00\n            /* \"#utility.yul\":2787:2851   */\n          tag_70\n            /* \"#utility.yul\":2843:2850   */\n          dup5\n            /* \"#utility.yul\":2834:2840   */\n          dup3\n            /* \"#utility.yul\":2823:2832   */\n          dup6\n            /* \"#utility.yul\":2819:2841   */\n          add\n            /* \"#utility.yul\":2787:2851   */\n          tag_32\n          jump\t// in\n        tag_70:\n            /* \"#utility.yul\":2777:2851   */\n          swap2\n          pop\n            /* \"#utility.yul\":2733:2861   */\n          pop\n            /* \"#utility.yul\":2517:2868   */\n          swap3\n          swap2\n          pop\n          pop\n          jump\t// out\n            /* \"#utility.yul\":2874:2992   */\n        tag_36:\n            /* \"#utility.yul\":2961:2985   */\n          tag_72\n            /* \"#utility.yul\":2979:2984   */\n          dup2\n            /* \"#utility.yul\":2961:2985   */\n          tag_30\n          jump\t// in\n        tag_72:\n            /* \"#utility.yul\":2956:2959   */\n          dup3\n            /* \"#utility.yul\":2949:2986   */\n          mstore\n            /* \"#utility.yul\":2874:2992   */\n          pop\n          pop\n          jump\t// out\n            /* \"#utility.yul\":2998:3220   */\n        tag_16:\n            /* \"#utility.yul\":3091:3095   */\n          0x00\n            /* \"#utility.yul\":3129:3131   */\n          0x20\n            /* \"#utility.yul\":3118:3127   */\n          dup3\n            /* \"#utility.yul\":3114:3132   */\n          add\n            /* \"#utility.yul\":3106:3132   */\n          swap1\n          pop\n            /* \"#utility.yul\":3142:3213   */\n          tag_74\n            /* \"#utility.yul\":3210:3211   */\n          0x00\n            /* \"#utility.yul\":3199:3208   */\n          dup4\n            /* \"#utility.yul\":3195:3212   */\n          add\n            /* \"#utility.yul\":3186:3192   */\n          dup5\n            /* \"#utility.yul\":3142:3213   */\n          tag_36\n          jump\t// in\n        tag_74:\n            /* \"#utility.yul\":2998:3220   */\n          swap3\n          swap2\n          pop\n          pop\n          jump\t// out\n            /* \"#utility.yul\":3226:3324   */\n        tag_37:\n            /* \"#utility.yul\":3277:3283   */\n          0x00\n            /* \"#utility.yul\":3311:3316   */\n          dup2\n            /* \"#utility.yul\":3305:3317   */\n          mload\n            /* \"#utility.yul\":3295:3317   */\n          swap1\n          pop\n            /* \"#utility.yul\":3226:3324   */\n          swap2\n          swap1\n          pop\n          jump\t// out\n            /* \"#utility.yul\":3330:3477   */\n        tag_38:\n            /* \"#utility.yul\":3431:3442   */\n          0x00\n            /* \"#utility.yul\":3468:3471   */\n          dup2\n            /* \"#utility.yul\":3453:3471   */\n          swap1\n          pop\n            /* \"#utility.yul\":3330:3477   */\n          swap3\n          swap2\n          pop\n          pop\n          jump\t// out\n            /* \"#utility.yul\":3483:3729   */\n        tag_39:\n            /* \"#utility.yul\":3564:3565   */\n          0x00\n            /* \"#utility.yul\":3574:3687   */\n        tag_78:\n            /* \"#utility.yul\":3588:3594   */\n          dup4\n            /* \"#utility.yul\":3585:3586   */\n          dup2\n            /* \"#utility.yul\":3582:3595   */\n          lt\n            /* \"#utility.yul\":3574:3687   */\n          iszero\n          tag_80\n          jumpi\n            /* \"#utility.yul\":3673:3674   */\n          dup1\n            /* \"#utility.yul\":3668:3671   */\n          dup3\n            /* \"#utility.yul\":3664:3675   */\n          add\n            /* \"#utility.yul\":3658:3676   */\n          mload\n            /* \"#utility.yul\":3654:3655   */\n          dup2\n            /* \"#utility.yul\":3649:3652   */\n          dup5\n            /* \"#utility.yul\":3645:3656   */\n          add\n            /* \"#utility.yul\":3638:3677   */\n          mstore\n            /* \"#utility.yul\":3610:3612   */\n          0x20\n            /* \"#utility.yul\":3607:3608   */\n          dup2\n            /* \"#utility.yul\":3603:3613   */\n          add\n            /* \"#utility.yul\":3598:3613   */\n          swap1\n          pop\n            /* \"#utility.yul\":3574:3687   */\n          jump(tag_78)\n        tag_80:\n            /* \"#utility.yul\":3721:3722   */\n          0x00\n            /* \"#utility.yul\":3712:3718   */\n          dup5\n            /* \"#utility.yul\":3707:3710   */\n          dup5\n            /* \"#utility.yul\":3703:3719   */\n          add\n            /* \"#utility.yul\":3696:3723   */\n          mstore\n            /* \"#utility.yul\":3545:3729   */\n          pop\n            /* \"#utility.yul\":3483:3729   */\n          pop\n          pop\n          pop\n          jump\t// out\n            /* \"#utility.yul\":3735:4121   */\n        tag_40:\n            /* \"#utility.yul\":3839:3842   */\n          0x00\n            /* \"#utility.yul\":3867:3905   */\n          tag_82\n            /* \"#utility.yul\":3899:3904   */\n          dup3\n            /* \"#utility.yul\":3867:3905   */\n          tag_37\n          jump\t// in\n        tag_82:\n            /* \"#utility.yul\":3921:4009   */\n          tag_83\n            /* \"#utility.yul\":4002:4008   */\n          dup2\n            /* \"#utility.yul\":3997:4000   */\n          dup6\n            /* \"#utility.yul\":3921:4009   */\n          tag_38\n          jump\t// in\n        tag_83:\n            /* \"#utility.yul\":3914:4009   */\n          swap4\n          pop\n            /* \"#utility.yul\":4018:4083   */\n          tag_84\n            /* \"#utility.yul\":4076:4082   */\n          dup2\n            /* \"#utility.yul\":4071:4074   */\n          dup6\n            /* \"#utility.yul\":4064:4068   */\n          0x20\n            /* \"#utility.yul\":4057:4062   */\n          dup7\n            /* \"#utility.yul\":4053:4069   */\n          add\n            /* \"#utility.yul\":4018:4083   */\n          tag_39\n          jump\t// in\n        tag_84:\n            /* \"#utility.yul\":4108:4114   */\n          dup1\n            /* \"#utility.yul\":4103:4106   */\n          dup5\n            /* \"#utility.yul\":4099:4115   */\n          add\n            /* \"#utility.yul\":4092:4115   */\n          swap2\n          pop\n            /* \"#utility.yul\":3843:4121   */\n          pop\n            /* \"#utility.yul\":3735:4121   */\n          swap3\n          swap2\n          pop\n          pop\n          jump\t// out\n            /* \"#utility.yul\":4127:4398   */\n        tag_18:\n            /* \"#utility.yul\":4257:4260   */\n          0x00\n            /* \"#utility.yul\":4279:4372   */\n          tag_86\n            /* \"#utility.yul\":4368:4371   */\n          dup3\n            /* \"#utility.yul\":4359:4365   */\n          dup5\n            /* \"#utility.yul\":4279:4372   */\n          tag_40\n          jump\t// in\n        tag_86:\n            /* \"#utility.yul\":4272:4372   */\n          swap2\n          pop\n            /* \"#utility.yul\":4389:4392   */\n          dup2\n            /* \"#utility.yul\":4382:4392   */\n          swap1\n          pop\n            /* \"#utility.yul\":4127:4398   */\n          swap3\n          swap2\n          pop\n          pop\n          jump\t// out\n            /* \"#utility.yul\":4404:4576   */\n        tag_41:\n            /* \"#utility.yul\":4544:4568   */\n          0x496e697469616c697a6174696f6e206661696c65642e00000000000000000000\n            /* \"#utility.yul\":4540:4541   */\n          0x00\n            /* \"#utility.yul\":4532:4538   */\n          dup3\n            /* \"#utility.yul\":4528:4542   */\n          add\n            /* \"#utility.yul\":4521:4569   */\n          mstore\n            /* \"#utility.yul\":4404:4576   */\n          pop\n          jump\t// out\n            /* \"#utility.yul\":4582:4948   */\n        tag_42:\n            /* \"#utility.yul\":4724:4727   */\n          0x00\n            /* \"#utility.yul\":4745:4812   */\n          tag_89\n            /* \"#utility.yul\":4809:4811   */\n          0x16\n            /* \"#utility.yul\":4804:4807   */\n          dup4\n            /* \"#utility.yul\":4745:4812   */\n          tag_33\n          jump\t// in\n        tag_89:\n            /* \"#utility.yul\":4738:4812   */\n          swap2\n          pop\n            /* \"#utility.yul\":4821:4914   */\n          tag_90\n            /* \"#utility.yul\":4910:4913   */\n          dup3\n            /* \"#utility.yul\":4821:4914   */\n          tag_41\n          jump\t// in\n        tag_90:\n            /* \"#utility.yul\":4939:4941   */\n          0x20\n            /* \"#utility.yul\":4934:4937   */\n          dup3\n            /* \"#utility.yul\":4930:4942   */\n          add\n            /* \"#utility.yul\":4923:4942   */\n          swap1\n          pop\n            /* \"#utility.yul\":4582:4948   */\n          swap2\n          swap1\n          pop\n          jump\t// out\n            /* \"#utility.yul\":4954:5373   */\n        tag_24:\n            /* \"#utility.yul\":5120:5124   */\n          0x00\n            /* \"#utility.yul\":5158:5160   */\n          0x20\n            /* \"#utility.yul\":5147:5156   */\n          dup3\n            /* \"#utility.yul\":5143:5161   */\n          add\n            /* \"#utility.yul\":5135:5161   */\n          swap1\n          pop\n            /* \"#utility.yul\":5207:5216   */\n          dup2\n            /* \"#utility.yul\":5201:5205   */\n          dup2\n            /* \"#utility.yul\":5197:5217   */\n          sub\n            /* \"#utility.yul\":5193:5194   */\n          0x00\n            /* \"#utility.yul\":5182:5191   */\n          dup4\n            /* \"#utility.yul\":5178:5195   */\n          add\n            /* \"#utility.yul\":5171:5218   */\n          mstore\n            /* \"#utility.yul\":5235:5366   */\n          tag_92\n            /* \"#utility.yul\":5361:5365   */\n          dup2\n            /* \"#utility.yul\":5235:5366   */\n          tag_42\n          jump\t// in\n        tag_92:\n            /* \"#utility.yul\":5227:5366   */\n          swap1\n          pop\n            /* \"#utility.yul\":4954:5373   */\n          swap2\n          swap1\n          pop\n          jump\t// out\n            /* \"solidity-main/contracts/proxy/IdentityProxy.sol\":115:2687  contract IdentityProxy {... */\n        tag_25:\n          dataSize(sub_0)\n          dup1\n          dataOffset(sub_0)\n          0x00\n          codecopy\n          0x00\n          return\n        stop\n\n        sub_0: assembly {\n                /* \"solidity-main/contracts/proxy/IdentityProxy.sol\":115:2687  contract IdentityProxy {... */\n              mstore(0x40, 0x80)\n              jumpi(tag_1, lt(calldatasize, 0x04))\n              shr(0xe0, calldataload(0x00))\n              dup1\n              0x2307f882\n              eq\n              tag_3\n              jumpi\n              jump(tag_2)\n            tag_1:\n              jumpi(tag_2, calldatasize)\n              stop\n            tag_2:\n                /* \"solidity-main/contracts/proxy/IdentityProxy.sol\":1749:1762  address logic */\n              0x00\n                /* \"solidity-main/contracts/proxy/IdentityProxy.sol\":1790:1815  implementationAuthority() */\n              tag_8\n                /* \"solidity-main/contracts/proxy/IdentityProxy.sol\":1790:1813  implementationAuthority */\n              tag_9\n                /* \"solidity-main/contracts/proxy/IdentityProxy.sol\":1790:1815  implementationAuthority() */\n              jump\t// in\n            tag_8:\n                /* \"solidity-main/contracts/proxy/IdentityProxy.sol\":1765:1834  IImplementationAuthority(implementationAuthority()).getImplementation */\n              0xffffffffffffffffffffffffffffffffffffffff\n              and\n              0xaaf10f42\n                /* \"solidity-main/contracts/proxy/IdentityProxy.sol\":1765:1836  IImplementationAuthority(implementationAuthority()).getImplementation() */\n              mload(0x40)\n              dup2\n              0xffffffff\n              and\n              0xe0\n              shl\n              dup2\n              mstore\n              0x04\n              add\n              0x20\n              mload(0x40)\n              dup1\n              dup4\n              sub\n              dup2\n              dup7\n              gas\n              staticcall\n              iszero\n              dup1\n              iszero\n              tag_11\n              jumpi\n              returndatasize\n              0x00\n              dup1\n              returndatacopy\n              revert(0x00, returndatasize)\n            tag_11:\n              pop\n              pop\n              pop\n              pop\n              mload(0x40)\n              returndatasize\n              not(0x1f)\n              0x1f\n              dup3\n              add\n              and\n              dup3\n              add\n              dup1\n              0x40\n              mstore\n              pop\n              dup2\n              add\n              swap1\n              tag_12\n              swap2\n              swap1\n              tag_13\n              jump\t// in\n            tag_12:\n                /* \"solidity-main/contracts/proxy/IdentityProxy.sol\":1749:1836  address logic = IImplementationAuthority(implementationAuthority()).getImplementation() */\n              swap1\n              pop\n                /* \"solidity-main/contracts/proxy/IdentityProxy.sol\":1945:1959  calldatasize() */\n              calldatasize\n                /* \"solidity-main/contracts/proxy/IdentityProxy.sol\":1940:1943  0x0 */\n              0x00\n                /* \"solidity-main/contracts/proxy/IdentityProxy.sol\":1935:1938  0x0 */\n              dup1\n                /* \"solidity-main/contracts/proxy/IdentityProxy.sol\":1922:1960  calldatacopy(0x0, 0x0, calldatasize()) */\n              calldatacopy\n                /* \"solidity-main/contracts/proxy/IdentityProxy.sol\":2047:2048  0 */\n              0x00\n                /* \"solidity-main/contracts/proxy/IdentityProxy.sol\":2044:2045  0 */\n              dup1\n                /* \"solidity-main/contracts/proxy/IdentityProxy.sol\":2028:2042  calldatasize() */\n              calldatasize\n                /* \"solidity-main/contracts/proxy/IdentityProxy.sol\":2023:2026  0x0 */\n              0x00\n                /* \"solidity-main/contracts/proxy/IdentityProxy.sol\":2016:2021  logic */\n              dup5\n                /* \"solidity-main/contracts/proxy/IdentityProxy.sol\":2008:2013  10000 */\n              0x2710\n                /* \"solidity-main/contracts/proxy/IdentityProxy.sol\":2001:2006  gas() */\n              gas\n                /* \"solidity-main/contracts/proxy/IdentityProxy.sol\":1997:2014  sub(gas(), 10000) */\n              sub\n                /* \"solidity-main/contracts/proxy/IdentityProxy.sol\":1984:2049  delegatecall(sub(gas(), 10000), logic, 0x0, calldatasize(), 0, 0) */\n              delegatecall\n                /* \"solidity-main/contracts/proxy/IdentityProxy.sol\":2071:2087  returndatasize() */\n              returndatasize\n                /* \"solidity-main/contracts/proxy/IdentityProxy.sol\":2117:2122  retSz */\n              dup1\n                /* \"solidity-main/contracts/proxy/IdentityProxy.sol\":2114:2115  0 */\n              0x00\n                /* \"solidity-main/contracts/proxy/IdentityProxy.sol\":2111:2112  0 */\n              dup1\n                /* \"solidity-main/contracts/proxy/IdentityProxy.sol\":2096:2123  returndatacopy(0, 0, retSz) */\n              returndatacopy\n                /* \"solidity-main/contracts/proxy/IdentityProxy.sol\":2139:2146  success */\n              dup2\n                /* \"solidity-main/contracts/proxy/IdentityProxy.sol\":2164:2165  0 */\n              0x00\n                /* \"solidity-main/contracts/proxy/IdentityProxy.sol\":2159:2214  case 0 {... */\n              dup2\n              eq\n              tag_15\n              jumpi\n                /* \"solidity-main/contracts/proxy/IdentityProxy.sol\":2263:2268  retSz */\n              dup2\n                /* \"solidity-main/contracts/proxy/IdentityProxy.sol\":2260:2261  0 */\n              0x00\n                /* \"solidity-main/contracts/proxy/IdentityProxy.sol\":2253:2269  return(0, retSz) */\n              return\n                /* \"solidity-main/contracts/proxy/IdentityProxy.sol\":2159:2214  case 0 {... */\n            tag_15:\n                /* \"solidity-main/contracts/proxy/IdentityProxy.sol\":2194:2199  retSz */\n              dup2\n                /* \"solidity-main/contracts/proxy/IdentityProxy.sol\":2191:2192  0 */\n              0x00\n                /* \"solidity-main/contracts/proxy/IdentityProxy.sol\":2184:2200  revert(0, retSz) */\n              revert\n                /* \"solidity-main/contracts/proxy/IdentityProxy.sol\":2305:2616  function implementationAuthority() public view returns(address) {... */\n            tag_3:\n              callvalue\n              dup1\n              iszero\n              tag_16\n              jumpi\n              0x00\n              dup1\n              revert\n            tag_16:\n              pop\n              tag_17\n              tag_9\n              jump\t// in\n            tag_17:\n              mload(0x40)\n              tag_18\n              swap2\n              swap1\n              tag_19\n              jump\t// in\n            tag_18:\n              mload(0x40)\n              dup1\n              swap2\n              sub\n              swap1\n              return\n            tag_9:\n                /* \"solidity-main/contracts/proxy/IdentityProxy.sol\":2360:2367  address */\n              0x00\n                /* \"solidity-main/contracts/proxy/IdentityProxy.sol\":2379:2397  address implemAuth */\n              dup1\n                /* \"solidity-main/contracts/proxy/IdentityProxy.sol\":2506:2572  0xc5f16f0fcc639fa48a6947836d9850f504798523bf8c9a3a87d5876cf622bcf7 */\n              0xc5f16f0fcc639fa48a6947836d9850f504798523bf8c9a3a87d5876cf622bcf7\n                /* \"solidity-main/contracts/proxy/IdentityProxy.sol\":2500:2573  sload(0xc5f16f0fcc639fa48a6947836d9850f504798523bf8c9a3a87d5876cf622bcf7) */\n              sload\n                /* \"solidity-main/contracts/proxy/IdentityProxy.sol\":2486:2573  implemAuth := sload(0xc5f16f0fcc639fa48a6947836d9850f504798523bf8c9a3a87d5876cf622bcf7) */\n              swap1\n              pop\n                /* \"solidity-main/contracts/proxy/IdentityProxy.sol\":2599:2609  implemAuth */\n              dup1\n                /* \"solidity-main/contracts/proxy/IdentityProxy.sol\":2592:2609  return implemAuth */\n              swap2\n              pop\n              pop\n                /* \"solidity-main/contracts/proxy/IdentityProxy.sol\":2305:2616  function implementationAuthority() public view returns(address) {... */\n              swap1\n              jump\t// out\n                /* \"#utility.yul\":88:205   */\n            tag_22:\n                /* \"#utility.yul\":197:198   */\n              0x00\n                /* \"#utility.yul\":194:195   */\n              dup1\n                /* \"#utility.yul\":187:199   */\n              revert\n                /* \"#utility.yul\":334:460   */\n            tag_24:\n                /* \"#utility.yul\":371:378   */\n              0x00\n                /* \"#utility.yul\":411:453   */\n              0xffffffffffffffffffffffffffffffffffffffff\n                /* \"#utility.yul\":404:409   */\n              dup3\n                /* \"#utility.yul\":400:454   */\n              and\n                /* \"#utility.yul\":389:454   */\n              swap1\n              pop\n                /* \"#utility.yul\":334:460   */\n              swap2\n              swap1\n              pop\n              jump\t// out\n                /* \"#utility.yul\":466:562   */\n            tag_25:\n                /* \"#utility.yul\":503:510   */\n              0x00\n                /* \"#utility.yul\":532:556   */\n              tag_35\n                /* \"#utility.yul\":550:555   */\n              dup3\n                /* \"#utility.yul\":532:556   */\n              tag_24\n              jump\t// in\n            tag_35:\n                /* \"#utility.yul\":521:556   */\n              swap1\n              pop\n                /* \"#utility.yul\":466:562   */\n              swap2\n              swap1\n              pop\n              jump\t// out\n                /* \"#utility.yul\":568:690   */\n            tag_26:\n                /* \"#utility.yul\":641:665   */\n              tag_37\n                /* \"#utility.yul\":659:664   */\n              dup2\n                /* \"#utility.yul\":641:665   */\n              tag_25\n              jump\t// in\n            tag_37:\n                /* \"#utility.yul\":634:639   */\n              dup2\n                /* \"#utility.yul\":631:666   */\n              eq\n                /* \"#utility.yul\":621:684   */\n              tag_38\n              jumpi\n                /* \"#utility.yul\":680:681   */\n              0x00\n                /* \"#utility.yul\":677:678   */\n              dup1\n                /* \"#utility.yul\":670:682   */\n              revert\n                /* \"#utility.yul\":621:684   */\n            tag_38:\n                /* \"#utility.yul\":568:690   */\n              pop\n              jump\t// out\n                /* \"#utility.yul\":696:839   */\n            tag_27:\n                /* \"#utility.yul\":753:758   */\n              0x00\n                /* \"#utility.yul\":784:790   */\n              dup2\n                /* \"#utility.yul\":778:791   */\n              mload\n                /* \"#utility.yul\":769:791   */\n              swap1\n              pop\n                /* \"#utility.yul\":800:833   */\n              tag_40\n                /* \"#utility.yul\":827:832   */\n              dup2\n                /* \"#utility.yul\":800:833   */\n              tag_26\n              jump\t// in\n            tag_40:\n                /* \"#utility.yul\":696:839   */\n              swap3\n              swap2\n              pop\n              pop\n              jump\t// out\n                /* \"#utility.yul\":845:1196   */\n            tag_13:\n                /* \"#utility.yul\":915:921   */\n              0x00\n                /* \"#utility.yul\":964:966   */\n              0x20\n                /* \"#utility.yul\":952:961   */\n              dup3\n                /* \"#utility.yul\":943:950   */\n              dup5\n                /* \"#utility.yul\":939:962   */\n              sub\n                /* \"#utility.yul\":935:967   */\n              slt\n                /* \"#utility.yul\":932:1051   */\n              iszero\n              tag_42\n              jumpi\n                /* \"#utility.yul\":970:1049   */\n              tag_43\n              tag_22\n              jump\t// in\n            tag_43:\n                /* \"#utility.yul\":932:1051   */\n            tag_42:\n                /* \"#utility.yul\":1090:1091   */\n              0x00\n                /* \"#utility.yul\":1115:1179   */\n              tag_44\n                /* \"#utility.yul\":1171:1178   */\n              dup5\n                /* \"#utility.yul\":1162:1168   */\n              dup3\n                /* \"#utility.yul\":1151:1160   */\n              dup6\n                /* \"#utility.yul\":1147:1169   */\n              add\n                /* \"#utility.yul\":1115:1179   */\n              tag_27\n              jump\t// in\n            tag_44:\n                /* \"#utility.yul\":1105:1179   */\n              swap2\n              pop\n                /* \"#utility.yul\":1061:1189   */\n              pop\n                /* \"#utility.yul\":845:1196   */\n              swap3\n              swap2\n              pop\n              pop\n              jump\t// out\n                /* \"#utility.yul\":1202:1320   */\n            tag_28:\n                /* \"#utility.yul\":1289:1313   */\n              tag_46\n                /* \"#utility.yul\":1307:1312   */\n              dup2\n                /* \"#utility.yul\":1289:1313   */\n              tag_25\n              jump\t// in\n            tag_46:\n                /* \"#utility.yul\":1284:1287   */\n              dup3\n                /* \"#utility.yul\":1277:1314   */\n              mstore\n                /* \"#utility.yul\":1202:1320   */\n              pop\n              pop\n              jump\t// out\n                /* \"#utility.yul\":1326:1548   */\n            tag_19:\n                /* \"#utility.yul\":1419:1423   */\n              0x00\n                /* \"#utility.yul\":1457:1459   */\n              0x20\n                /* \"#utility.yul\":1446:1455   */\n              dup3\n                /* \"#utility.yul\":1442:1460   */\n              add\n                /* \"#utility.yul\":1434:1460   */\n              swap1\n              pop\n                /* \"#utility.yul\":1470:1541   */\n              tag_48\n                /* \"#utility.yul\":1538:1539   */\n              0x00\n                /* \"#utility.yul\":1527:1536   */\n              dup4\n                /* \"#utility.yul\":1523:1540   */\n              add\n                /* \"#utility.yul\":1514:1520   */\n              dup5\n                /* \"#utility.yul\":1470:1541   */\n              tag_28\n              jump\t// in\n            tag_48:\n                /* \"#utility.yul\":1326:1548   */\n              swap3\n              swap2\n              pop\n              pop\n              jump\t// out\n\n            auxdata: 0xa2646970667358221220cbb7259bc916873623d594a2cd624557508000db68a7451f56febd65447c2eba64736f6c63430008140033\n        }\n    }\n\n    auxdata: 0xa26469706673582212202a7a6f4245686a0f60cd2a1f1caf15213e72e11e0f534fa574e462a4d4ae15d064736f6c63430008140033\n}\n",
				"bytecode": {
					"linkReferences": {},
					"object": "60a060405234801562000010575f80fd5b506040516200469a3803806200469a83398181016040528101906200003691906200028e565b335f73ffffffffffffffffffffffffffffffffffffffff168173ffffffffffffffffffffffffffffffffffffffff1603620000aa575f6040517f1e4fbdf7000000000000000000000000000000000000000000000000000000008152600401620000a19190620002cf565b60405180910390fd5b620000bb816200016860201b60201c565b505f73ffffffffffffffffffffffffffffffffffffffff168173ffffffffffffffffffffffffffffffffffffffff16036200012d576040517f08c379a0000000000000000000000000000000000000000000000000000000008152600401620001249062000348565b60405180910390fd5b8073ffffffffffffffffffffffffffffffffffffffff1660808173ffffffffffffffffffffffffffffffffffffffff16815250505062000368565b5f805f9054906101000a900473ffffffffffffffffffffffffffffffffffffffff169050815f806101000a81548173ffffffffffffffffffffffffffffffffffffffff021916908373ffffffffffffffffffffffffffffffffffffffff1602179055508173ffffffffffffffffffffffffffffffffffffffff168173ffffffffffffffffffffffffffffffffffffffff167f8be0079c531659141344cd1fd0a4f28419497f9722a3daafe3b4186f6b6457e060405160405180910390a35050565b5f80fd5b5f73ffffffffffffffffffffffffffffffffffffffff82169050919050565b5f62000258826200022d565b9050919050565b6200026a816200024c565b811462000275575f80fd5b50565b5f8151905062000288816200025f565b92915050565b5f60208284031215620002a657620002a562000229565b5b5f620002b58482850162000278565b91505092915050565b620002c9816200024c565b82525050565b5f602082019050620002e45f830184620002be565b92915050565b5f82825260208201905092915050565b7f696e76616c696420617267756d656e74202d207a65726f2061646472657373005f82015250565b5f62000330601f83620002ea565b91506200033d82620002fa565b602082019050919050565b5f6020820190508181035f830152620003618162000322565b9050919050565b608051614304620003965f395f81816103bd015281816108e1015281816114b801526121d401526143045ff3fe608060405234801562000010575f80fd5b506004361062000116575f3560e01c8063715018a611620000a35780639ce19365116200006d5780639ce193651462000324578063b8bb81261462000344578063f2fde38b1462000364578063fe5cd59a14620003845762000116565b8063715018a614620002a05780638da5cb5b14620002ac5780638e952bfe14620002ce578063937529ef14620003045762000116565b80633e3bc3d711620000e55780633e3bc3d714620001de578063422c29a414620002145780635027dbe2146200024a57806359770438146200026a5762000116565b80632307f882146200011a5780632fea7b81146200013c5780633a50045114620001725780633d56ff6614620001a8575b5f80fd5b62000124620003ba565b60405162000133919062002877565b60405180910390f35b6200015a6004803603810190620001549190620028d2565b620003e1565b60405162000169919062002877565b60405180910390f35b6200019060048036038101906200018a91906200296c565b6200053c565b6040516200019f9190620029db565b60405180910390f35b620001c66004803603810190620001c0919062002b4a565b62000574565b604051620001d5919062002877565b60405180910390f35b620001fc6004803603810190620001f69190620028d2565b62000a9d565b6040516200020b9190620029db565b60405180910390f35b6200023260048036038101906200022c9190620028d2565b62000aef565b60405162000241919062002c89565b60405180910390f35b620002686004803603810190620002629190620028d2565b62000bb9565b005b620002886004803603810190620002829190620028d2565b6200119c565b60405162000297919062002877565b60405180910390f35b620002aa62001201565b005b620002b662001218565b604051620002c5919062002877565b60405180910390f35b620002ec6004803603810190620002e6919062002cab565b6200123f565b604051620002fb919062002877565b60405180910390f35b6200032260048036038101906200031c9190620028d2565b62001693565b005b6200034260048036038101906200033c9190620028d2565b620017f5565b005b6200036260048036038101906200035c9190620028d2565b62001958565b005b6200038260048036038101906200037c9190620028d2565b62001e8a565b005b620003a260048036038101906200039c919062002e1a565b62001f15565b604051620003b1919062002877565b60405180910390f35b5f7f0000000000000000000000000000000000000000000000000000000000000000905090565b5f8073ffffffffffffffffffffffffffffffffffffffff1660055f8473ffffffffffffffffffffffffffffffffffffffff1673ffffffffffffffffffffffffffffffffffffffff1681526020019081526020015f205f9054906101000a900473ffffffffffffffffffffffffffffffffffffffff1673ffffffffffffffffffffffffffffffffffffffff1614620004d75760055f8373ffffffffffffffffffffffffffffffffffffffff1673ffffffffffffffffffffffffffffffffffffffff1681526020019081526020015f205f9054906101000a900473ffffffffffffffffffffffffffffffffffffffff16905062000537565b60035f8373ffffffffffffffffffffffffffffffffffffffff1673ffffffffffffffffffffffffffffffffffffffff1681526020019081526020015f205f9054906101000a900473ffffffffffffffffffffffffffffffffffffffff1690505b919050565b5f600283836040516200055192919062002ee3565b90815260200160405180910390205f9054906101000a900460ff16905092915050565b5f620005803362000a9d565b80620005c057506200059162001218565b73ffffffffffffffffffffffffffffffffffffffff163373ffffffffffffffffffffffffffffffffffffffff16145b62000602576040517f08c379a0000000000000000000000000000000000000000000000000000000008152600401620005f99062002f5b565b60405180910390fd5b5f73ffffffffffffffffffffffffffffffffffffffff168473ffffffffffffffffffffffffffffffffffffffff160362000673576040517f08c379a00000000000000000000000000000000000000000000000000000000081526004016200066a9062002fc9565b60405180910390fd5b5f73ffffffffffffffffffffffffffffffffffffffff168373ffffffffffffffffffffffffffffffffffffffff1603620006e4576040517f08c379a0000000000000000000000000000000000000000000000000000000008152600401620006db9062002fc9565b60405180910390fd5b604051602001620006f59062003010565b60405160208183030381529060405280519060200120826040516020016200071e9190620030a4565b604051602081830303815290604052805190602001200362000777576040517f08c379a00000000000000000000000000000000000000000000000000000000081526004016200076e9062003114565b60405180910390fd5b5f826040516020016200078b919062003190565b6040516020818303038152906040529050600281604051620007ae9190620031b9565b90815260200160405180910390205f9054906101000a900460ff16156200080c576040517f08c379a000000000000000000000000000000000000000000000000000000000815260040162000803906200321f565b60405180910390fd5b5f73ffffffffffffffffffffffffffffffffffffffff1660055f8773ffffffffffffffffffffffffffffffffffffffff1673ffffffffffffffffffffffffffffffffffffffff1681526020019081526020015f205f9054906101000a900473ffffffffffffffffffffffffffffffffffffffff1673ffffffffffffffffffffffffffffffffffffffff1614620008d9576040517f08c379a0000000000000000000000000000000000000000000000000000000008152600401620008d090620032b3565b60405180910390fd5b5f62000907827f000000000000000000000000000000000000000000000000000000000000000087620025a8565b905060016002836040516200091d9190620031b9565b90815260200160405180910390205f6101000a81548160ff0219169083151502179055508060055f8873ffffffffffffffffffffffffffffffffffffffff1673ffffffffffffffffffffffffffffffffffffffff1681526020019081526020015f205f6101000a81548173ffffffffffffffffffffffffffffffffffffffff021916908373ffffffffffffffffffffffffffffffffffffffff1602179055508560065f8373ffffffffffffffffffffffffffffffffffffffff1673ffffffffffffffffffffffffffffffffffffffff1681526020019081526020015f205f6101000a81548173ffffffffffffffffffffffffffffffffffffffff021916908373ffffffffffffffffffffffffffffffffffffffff1602179055508073ffffffffffffffffffffffffffffffffffffffff168673ffffffffffffffffffffffffffffffffffffffff167fa8261d398ddc63db24cc53cd0c63c9464cabad1bc478ede2107b32c1c4010b7a60405160405180910390a380925050509392505050565b5f60015f8373ffffffffffffffffffffffffffffffffffffffff1673ffffffffffffffffffffffffffffffffffffffff1681526020019081526020015f205f9054906101000a900460ff169050919050565b606060045f8373ffffffffffffffffffffffffffffffffffffffff1673ffffffffffffffffffffffffffffffffffffffff1681526020019081526020015f2080548060200260200160405190810160405280929190818152602001828054801562000bad57602002820191905f5260205f20905b815f9054906101000a900473ffffffffffffffffffffffffffffffffffffffff1673ffffffffffffffffffffffffffffffffffffffff168152602001906001019080831162000b63575b50505050509050919050565b5f73ffffffffffffffffffffffffffffffffffffffff168173ffffffffffffffffffffffffffffffffffffffff160362000c2a576040517f08c379a000000000000000000000000000000000000000000000000000000000815260040162000c219062002fc9565b60405180910390fd5b3373ffffffffffffffffffffffffffffffffffffffff168173ffffffffffffffffffffffffffffffffffffffff160362000c9b576040517f08c379a000000000000000000000000000000000000000000000000000000000815260040162000c929062003347565b60405180910390fd5b60035f8273ffffffffffffffffffffffffffffffffffffffff1673ffffffffffffffffffffffffffffffffffffffff1681526020019081526020015f205f9054906101000a900473ffffffffffffffffffffffffffffffffffffffff1673ffffffffffffffffffffffffffffffffffffffff1660035f3373ffffffffffffffffffffffffffffffffffffffff1673ffffffffffffffffffffffffffffffffffffffff1681526020019081526020015f205f9054906101000a900473ffffffffffffffffffffffffffffffffffffffff1673ffffffffffffffffffffffffffffffffffffffff161462000dc4576040517f08c379a000000000000000000000000000000000000000000000000000000000815260040162000dbb90620033b5565b60405180910390fd5b5f60035f8373ffffffffffffffffffffffffffffffffffffffff1673ffffffffffffffffffffffffffffffffffffffff1681526020019081526020015f205f9054906101000a900473ffffffffffffffffffffffffffffffffffffffff16905060035f8373ffffffffffffffffffffffffffffffffffffffff1673ffffffffffffffffffffffffffffffffffffffff1681526020019081526020015f205f6101000a81549073ffffffffffffffffffffffffffffffffffffffff02191690555f60045f8373ffffffffffffffffffffffffffffffffffffffff1673ffffffffffffffffffffffffffffffffffffffff1681526020019081526020015f208054905090505f5b818110156200113c578373ffffffffffffffffffffffffffffffffffffffff1660045f8573ffffffffffffffffffffffffffffffffffffffff1673ffffffffffffffffffffffffffffffffffffffff1681526020019081526020015f20828154811062000f3b5762000f3a620033d5565b5b905f5260205f20015f9054906101000a900473ffffffffffffffffffffffffffffffffffffffff1673ffffffffffffffffffffffffffffffffffffffff1603620011265760045f8473ffffffffffffffffffffffffffffffffffffffff1673ffffffffffffffffffffffffffffffffffffffff1681526020019081526020015f2060018362000fcb919062003438565b8154811062000fdf5762000fde620033d5565b5b905f5260205f20015f9054906101000a900473ffffffffffffffffffffffffffffffffffffffff1660045f8573ffffffffffffffffffffffffffffffffffffffff1673ffffffffffffffffffffffffffffffffffffffff1681526020019081526020015f208281548110620010595762001058620033d5565b5b905f5260205f20015f6101000a81548173ffffffffffffffffffffffffffffffffffffffff021916908373ffffffffffffffffffffffffffffffffffffffff16021790555060045f8473ffffffffffffffffffffffffffffffffffffffff1673ffffffffffffffffffffffffffffffffffffffff1681526020019081526020015f20805480620010ee57620010ed62003472565b5b600190038181905f5260205f20015f6101000a81549073ffffffffffffffffffffffffffffffffffffffff021916905590556200113c565b808062001133906200349f565b91505062000ec9565b508173ffffffffffffffffffffffffffffffffffffffff168373ffffffffffffffffffffffffffffffffffffffff167f35e6fc363a4bf723d53b26c1a751674aca9c3ead425f0591f84f5540ede86f1260405160405180910390a3505050565b5f60065f8373ffffffffffffffffffffffffffffffffffffffff1673ffffffffffffffffffffffffffffffffffffffff1681526020019081526020015f205f9054906101000a900473ffffffffffffffffffffffffffffffffffffffff169050919050565b6200120b62002638565b620012165f620026c8565b565b5f805f9054906101000a900473ffffffffffffffffffffffffffffffffffffffff16905090565b5f6200124a62002638565b5f73ffffffffffffffffffffffffffffffffffffffff168373ffffffffffffffffffffffffffffffffffffffff1603620012bb576040517f08c379a0000000000000000000000000000000000000000000000000000000008152600401620012b29062002fc9565b60405180910390fd5b604051602001620012cc9062003010565b6040516020818303038152906040528051906020012082604051602001620012f59190620030a4565b60405160208183030381529060405280519060200120036200134e576040517f08c379a0000000000000000000000000000000000000000000000000000000008152600401620013459062003114565b60405180910390fd5b5f8260405160200162001362919062003511565b6040516020818303038152906040529050600281604051620013859190620031b9565b90815260200160405180910390205f9054906101000a900460ff1615620013e3576040517f08c379a0000000000000000000000000000000000000000000000000000000008152600401620013da906200321f565b60405180910390fd5b5f73ffffffffffffffffffffffffffffffffffffffff1660035f8673ffffffffffffffffffffffffffffffffffffffff1673ffffffffffffffffffffffffffffffffffffffff1681526020019081526020015f205f9054906101000a900473ffffffffffffffffffffffffffffffffffffffff1673ffffffffffffffffffffffffffffffffffffffff1614620014b0576040517f08c379a0000000000000000000000000000000000000000000000000000000008152600401620014a790620035ae565b60405180910390fd5b5f620014de827f000000000000000000000000000000000000000000000000000000000000000087620025a8565b90506001600283604051620014f49190620031b9565b90815260200160405180910390205f6101000a81548160ff0219169083151502179055508060035f8773ffffffffffffffffffffffffffffffffffffffff1673ffffffffffffffffffffffffffffffffffffffff1681526020019081526020015f205f6101000a81548173ffffffffffffffffffffffffffffffffffffffff021916908373ffffffffffffffffffffffffffffffffffffffff16021790555060045f8273ffffffffffffffffffffffffffffffffffffffff1673ffffffffffffffffffffffffffffffffffffffff1681526020019081526020015f2085908060018154018082558091505060019003905f5260205f20015f9091909190916101000a81548173ffffffffffffffffffffffffffffffffffffffff021916908373ffffffffffffffffffffffffffffffffffffffff1602179055508073ffffffffffffffffffffffffffffffffffffffff168573ffffffffffffffffffffffffffffffffffffffff167f8e0c709111388f5480579514d86663489ab1f206fe6da1a0c4d03ac8c318b3c660405160405180910390a3809250505092915050565b6200169d62002638565b5f73ffffffffffffffffffffffffffffffffffffffff168173ffffffffffffffffffffffffffffffffffffffff16036200170e576040517f08c379a0000000000000000000000000000000000000000000000000000000008152600401620017059062002fc9565b60405180910390fd5b620017198162000a9d565b6200175b576040517f08c379a000000000000000000000000000000000000000000000000000000000815260040162001752906200361c565b60405180910390fd5b5f60015f8373ffffffffffffffffffffffffffffffffffffffff1673ffffffffffffffffffffffffffffffffffffffff1681526020019081526020015f205f6101000a81548160ff0219169083151502179055508073ffffffffffffffffffffffffffffffffffffffff167fd1fd5274f793d20291c0abfe42e1ef63213a11b34996d485f7afb8fe0142485160405160405180910390a250565b620017ff62002638565b5f73ffffffffffffffffffffffffffffffffffffffff168173ffffffffffffffffffffffffffffffffffffffff160362001870576040517f08c379a0000000000000000000000000000000000000000000000000000000008152600401620018679062002fc9565b60405180910390fd5b6200187b8162000a9d565b15620018be576040517f08c379a0000000000000000000000000000000000000000000000000000000008152600401620018b5906200368a565b60405180910390fd5b6001805f8373ffffffffffffffffffffffffffffffffffffffff1673ffffffffffffffffffffffffffffffffffffffff1681526020019081526020015f205f6101000a81548160ff0219169083151502179055508073ffffffffffffffffffffffffffffffffffffffff167f45eb8ac5344d2d3f306550fe6e969ca4190526313c512afed851d052bf2ab2fd60405160405180910390a250565b5f73ffffffffffffffffffffffffffffffffffffffff168173ffffffffffffffffffffffffffffffffffffffff1603620019c9576040517f08c379a0000000000000000000000000000000000000000000000000000000008152600401620019c09062002fc9565b60405180910390fd5b5f73ffffffffffffffffffffffffffffffffffffffff1660035f3373ffffffffffffffffffffffffffffffffffffffff1673ffffffffffffffffffffffffffffffffffffffff1681526020019081526020015f205f9054906101000a900473ffffffffffffffffffffffffffffffffffffffff1673ffffffffffffffffffffffffffffffffffffffff160362001a96576040517f08c379a000000000000000000000000000000000000000000000000000000000815260040162001a8d906200371e565b60405180910390fd5b5f73ffffffffffffffffffffffffffffffffffffffff1660035f8373ffffffffffffffffffffffffffffffffffffffff1673ffffffffffffffffffffffffffffffffffffffff1681526020019081526020015f205f9054906101000a900473ffffffffffffffffffffffffffffffffffffffff1673ffffffffffffffffffffffffffffffffffffffff161462001b63576040517f08c379a000000000000000000000000000000000000000000000000000000000815260040162001b5a906200378c565b60405180910390fd5b5f73ffffffffffffffffffffffffffffffffffffffff1660055f8373ffffffffffffffffffffffffffffffffffffffff1673ffffffffffffffffffffffffffffffffffffffff1681526020019081526020015f205f9054906101000a900473ffffffffffffffffffffffffffffffffffffffff1673ffffffffffffffffffffffffffffffffffffffff161462001c30576040517f08c379a000000000000000000000000000000000000000000000000000000000815260040162001c2790620037fa565b60405180910390fd5b5f60035f3373ffffffffffffffffffffffffffffffffffffffff1673ffffffffffffffffffffffffffffffffffffffff1681526020019081526020015f205f9054906101000a900473ffffffffffffffffffffffffffffffffffffffff169050606560045f8373ffffffffffffffffffffffffffffffffffffffff1673ffffffffffffffffffffffffffffffffffffffff1681526020019081526020015f20805490501062001d16576040517f08c379a000000000000000000000000000000000000000000000000000000000815260040162001d0d906200388e565b60405180910390fd5b8060035f8473ffffffffffffffffffffffffffffffffffffffff1673ffffffffffffffffffffffffffffffffffffffff1681526020019081526020015f205f6101000a81548173ffffffffffffffffffffffffffffffffffffffff021916908373ffffffffffffffffffffffffffffffffffffffff16021790555060045f8273ffffffffffffffffffffffffffffffffffffffff1673ffffffffffffffffffffffffffffffffffffffff1681526020019081526020015f2082908060018154018082558091505060019003905f5260205f20015f9091909190916101000a81548173ffffffffffffffffffffffffffffffffffffffff021916908373ffffffffffffffffffffffffffffffffffffffff1602179055508073ffffffffffffffffffffffffffffffffffffffff168273ffffffffffffffffffffffffffffffffffffffff167f8e0c709111388f5480579514d86663489ab1f206fe6da1a0c4d03ac8c318b3c660405160405180910390a35050565b62001e9462002638565b5f73ffffffffffffffffffffffffffffffffffffffff168173ffffffffffffffffffffffffffffffffffffffff160362001f07575f6040517f1e4fbdf700000000000000000000000000000000000000000000000000000000815260040162001efe919062002877565b60405180910390fd5b62001f1281620026c8565b50565b5f62001f2062002638565b5f73ffffffffffffffffffffffffffffffffffffffff168473ffffffffffffffffffffffffffffffffffffffff160362001f91576040517f08c379a000000000000000000000000000000000000000000000000000000000815260040162001f889062002fc9565b60405180910390fd5b60405160200162001fa29062003010565b604051602081830303815290604052805190602001208360405160200162001fcb9190620030a4565b604051602081830303815290604052805190602001200362002024576040517f08c379a00000000000000000000000000000000000000000000000000000000081526004016200201b9062003114565b60405180910390fd5b5f8360405160200162002038919062003511565b60405160208183030381529060405290506002816040516200205b9190620031b9565b90815260200160405180910390205f9054906101000a900460ff1615620020b9576040517f08c379a0000000000000000000000000000000000000000000000000000000008152600401620020b0906200321f565b60405180910390fd5b5f73ffffffffffffffffffffffffffffffffffffffff1660035f8773ffffffffffffffffffffffffffffffffffffffff1673ffffffffffffffffffffffffffffffffffffffff1681526020019081526020015f205f9054906101000a900473ffffffffffffffffffffffffffffffffffffffff1673ffffffffffffffffffffffffffffffffffffffff161462002186576040517f08c379a00000000000000000000000000000000000000000000000000000000081526004016200217d90620035ae565b60405180910390fd5b5f835111620021cc576040517f08c379a0000000000000000000000000000000000000000000000000000000008152600401620021c39062003922565b60405180910390fd5b5f620021fa827f000000000000000000000000000000000000000000000000000000000000000030620025a8565b90505f5b84518110156200234957866040516020016200221b919062002877565b60405160208183030381529060405280519060200120858281518110620022475762002246620033d5565b5b60200260200101510362002292576040517f08c379a00000000000000000000000000000000000000000000000000000000081526004016200228990620039b6565b60405180910390fd5b8173ffffffffffffffffffffffffffffffffffffffff16631d381240868381518110620022c457620022c3620033d5565b5b60200260200101516001806040518463ffffffff1660e01b8152600401620022ef9392919062003a31565b6020604051808303815f875af11580156200230c573d5f803e3d5ffd5b505050506040513d601f19601f8201168201806040525081019062002332919062003a9b565b50808062002340906200349f565b915050620021fe565b508073ffffffffffffffffffffffffffffffffffffffff166353d413c53060405160200162002379919062002877565b6040516020818303038152906040528051906020012060016040518363ffffffff1660e01b8152600401620023b092919062003acb565b6020604051808303815f875af1158015620023cd573d5f803e3d5ffd5b505050506040513d601f19601f82011682018060405250810190620023f3919062003a9b565b506001600283604051620024089190620031b9565b90815260200160405180910390205f6101000a81548160ff0219169083151502179055508060035f8873ffffffffffffffffffffffffffffffffffffffff1673ffffffffffffffffffffffffffffffffffffffff1681526020019081526020015f205f6101000a81548173ffffffffffffffffffffffffffffffffffffffff021916908373ffffffffffffffffffffffffffffffffffffffff16021790555060045f8273ffffffffffffffffffffffffffffffffffffffff1673ffffffffffffffffffffffffffffffffffffffff1681526020019081526020015f2086908060018154018082558091505060019003905f5260205f20015f9091909190916101000a81548173ffffffffffffffffffffffffffffffffffffffff021916908373ffffffffffffffffffffffffffffffffffffffff1602179055508073ffffffffffffffffffffffffffffffffffffffff168673ffffffffffffffffffffffffffffffffffffffff167f8e0c709111388f5480579514d86663489ab1f206fe6da1a0c4d03ac8c318b3c660405160405180910390a380925050509392505050565b5f8060405180602001620025bc9062002826565b6020820181038252601f19601f8201166040525090505f8484604051602001620025e892919062003af6565b60405160208183030381529060405290505f82826040516020016200260f92919062003b6b565b60405160208183030381529060405290506200262c878262002789565b93505050509392505050565b620026426200281f565b73ffffffffffffffffffffffffffffffffffffffff166200266262001218565b73ffffffffffffffffffffffffffffffffffffffff1614620026c657620026886200281f565b6040517f118cdaa7000000000000000000000000000000000000000000000000000000008152600401620026bd919062002877565b60405180910390fd5b565b5f805f9054906101000a900473ffffffffffffffffffffffffffffffffffffffff169050815f806101000a81548173ffffffffffffffffffffffffffffffffffffffff021916908373ffffffffffffffffffffffffffffffffffffffff1602179055508173ffffffffffffffffffffffffffffffffffffffff168173ffffffffffffffffffffffffffffffffffffffff167f8be0079c531659141344cd1fd0a4f28419497f9722a3daafe3b4186f6b6457e060405160405180910390a35050565b5f80836040516020016200279e9190620031b9565b6040516020818303038152906040528051906020012090505f8360200184518381835ff59250823b620027cf575f80fd5b50508073ffffffffffffffffffffffffffffffffffffffff167ff40fcec21964ffb566044d083b4073f29f7f7929110ea19e1b3ebe375d89055e60405160405180910390a2809250505092915050565b5f33905090565b61073c8062003b9383390190565b5f73ffffffffffffffffffffffffffffffffffffffff82169050919050565b5f6200285f8262002834565b9050919050565b620028718162002853565b82525050565b5f6020820190506200288c5f83018462002866565b92915050565b5f604051905090565b5f80fd5b5f80fd5b620028ae8162002853565b8114620028b9575f80fd5b50565b5f81359050620028cc81620028a3565b92915050565b5f60208284031215620028ea57620028e96200289b565b5b5f620028f984828501620028bc565b91505092915050565b5f80fd5b5f80fd5b5f80fd5b5f8083601f84011262002926576200292562002902565b5b8235905067ffffffffffffffff81111562002946576200294562002906565b5b6020830191508360018202830111156200296557620029646200290a565b5b9250929050565b5f80602083850312156200298557620029846200289b565b5b5f83013567ffffffffffffffff811115620029a557620029a46200289f565b5b620029b3858286016200290e565b92509250509250929050565b5f8115159050919050565b620029d581620029bf565b82525050565b5f602082019050620029f05f830184620029ca565b92915050565b5f80fd5b5f601f19601f8301169050919050565b7f4e487b71000000000000000000000000000000000000000000000000000000005f52604160045260245ffd5b62002a4282620029fa565b810181811067ffffffffffffffff8211171562002a645762002a6362002a0a565b5b80604052505050565b5f62002a7862002892565b905062002a86828262002a37565b919050565b5f67ffffffffffffffff82111562002aa85762002aa762002a0a565b5b62002ab382620029fa565b9050602081019050919050565b828183375f83830152505050565b5f62002ae462002ade8462002a8b565b62002a6d565b90508281526020810184848401111562002b035762002b02620029f6565b5b62002b1084828562002ac0565b509392505050565b5f82601f83011262002b2f5762002b2e62002902565b5b813562002b4184826020860162002ace565b91505092915050565b5f805f6060848603121562002b645762002b636200289b565b5b5f62002b7386828701620028bc565b935050602062002b8686828701620028bc565b925050604084013567ffffffffffffffff81111562002baa5762002ba96200289f565b5b62002bb88682870162002b18565b9150509250925092565b5f81519050919050565b5f82825260208201905092915050565b5f819050602082019050919050565b62002bf68162002853565b82525050565b5f62002c09838362002beb565b60208301905092915050565b5f602082019050919050565b5f62002c2d8262002bc2565b62002c39818562002bcc565b935062002c468362002bdc565b805f5b8381101562002c7c57815162002c60888262002bfc565b975062002c6d8362002c15565b92505060018101905062002c49565b5085935050505092915050565b5f6020820190508181035f83015262002ca3818462002c21565b905092915050565b5f806040838503121562002cc45762002cc36200289b565b5b5f62002cd385828601620028bc565b925050602083013567ffffffffffffffff81111562002cf75762002cf66200289f565b5b62002d058582860162002b18565b9150509250929050565b5f67ffffffffffffffff82111562002d2c5762002d2b62002a0a565b5b602082029050602081019050919050565b5f819050919050565b62002d518162002d3d565b811462002d5c575f80fd5b50565b5f8135905062002d6f8162002d46565b92915050565b5f62002d8b62002d858462002d0f565b62002a6d565b9050808382526020820190506020840283018581111562002db15762002db06200290a565b5b835b8181101562002dde578062002dc9888262002d5f565b84526020840193505060208101905062002db3565b5050509392505050565b5f82601f83011262002dff5762002dfe62002902565b5b813562002e1184826020860162002d75565b91505092915050565b5f805f6060848603121562002e345762002e336200289b565b5b5f62002e4386828701620028bc565b935050602084013567ffffffffffffffff81111562002e675762002e666200289f565b5b62002e758682870162002b18565b925050604084013567ffffffffffffffff81111562002e995762002e986200289f565b5b62002ea78682870162002de8565b9150509250925092565b5f81905092915050565b5f62002ec8838562002eb1565b935062002ed783858462002ac0565b82840190509392505050565b5f62002ef182848662002ebb565b91508190509392505050565b5f82825260208201905092915050565b7f6f6e6c7920466163746f7279206f72206f776e65722063616e2063616c6c00005f82015250565b5f62002f43601e8362002efd565b915062002f508262002f0d565b602082019050919050565b5f6020820190508181035f83015262002f748162002f35565b9050919050565b7f696e76616c696420617267756d656e74202d207a65726f2061646472657373005f82015250565b5f62002fb1601f8362002efd565b915062002fbe8262002f7b565b602082019050919050565b5f6020820190508181035f83015262002fe28162002fa3565b9050919050565b50565b5f62002ff95f8362002efd565b9150620030068262002fe9565b5f82019050919050565b5f6020820190508181035f830152620030298162002fec565b9050919050565b5f81519050919050565b5f5b83811015620030595780820151818401526020810190506200303c565b5f8484015250505050565b5f620030708262003030565b6200307c818562002efd565b93506200308e8185602086016200303a565b6200309981620029fa565b840191505092915050565b5f6020820190508181035f830152620030be818462003064565b905092915050565b7f696e76616c696420617267756d656e74202d20656d70747920737472696e67005f82015250565b5f620030fc601f8362002efd565b91506200310982620030c6565b602082019050919050565b5f6020820190508181035f8301526200312d81620030ee565b9050919050565b7f546f6b656e000000000000000000000000000000000000000000000000000000815250565b5f620031668262003030565b62003172818562002eb1565b9350620031848185602086016200303a565b80840191505092915050565b5f6200319c8262003134565b600582019150620031ae82846200315a565b915081905092915050565b5f620031c682846200315a565b915081905092915050565b7f73616c7420616c72656164792074616b656e00000000000000000000000000005f82015250565b5f6200320760128362002efd565b91506200321482620031d1565b602082019050919050565b5f6020820190508181035f8301526200323881620031f9565b9050919050565b7f746f6b656e20616c7265616479206c696e6b656420746f20616e206964656e745f8201527f6974790000000000000000000000000000000000000000000000000000000000602082015250565b5f6200329b60238362002efd565b9150620032a8826200323f565b604082019050919050565b5f6020820190508181035f830152620032cc816200328d565b9050919050565b7f63616e6e6f742062652063616c6c6564206f6e2073656e6465722061646472655f8201527f7373000000000000000000000000000000000000000000000000000000000000602082015250565b5f6200332f60228362002efd565b91506200333c82620032d3565b604082019050919050565b5f6020820190508181035f830152620033608162003321565b9050919050565b7f6f6e6c792061206c696e6b65642077616c6c65742063616e20756e6c696e6b005f82015250565b5f6200339d601f8362002efd565b9150620033aa8262003367565b602082019050919050565b5f6020820190508181035f830152620033ce816200338f565b9050919050565b7f4e487b71000000000000000000000000000000000000000000000000000000005f52603260045260245ffd5b5f819050919050565b7f4e487b71000000000000000000000000000000000000000000000000000000005f52601160045260245ffd5b5f620034448262003402565b9150620034518362003402565b92508282039050818111156200346c576200346b6200340b565b5b92915050565b7f4e487b71000000000000000000000000000000000000000000000000000000005f52603160045260245ffd5b5f620034ab8262003402565b91507fffffffffffffffffffffffffffffffffffffffffffffffffffffffffffffffff8203620034e057620034df6200340b565b5b600182019050919050565b7f4f49440000000000000000000000000000000000000000000000000000000000815250565b5f6200351d82620034eb565b6003820191506200352f82846200315a565b915081905092915050565b7f77616c6c657420616c7265616479206c696e6b656420746f20616e206964656e5f8201527f7469747900000000000000000000000000000000000000000000000000000000602082015250565b5f6200359660248362002efd565b9150620035a3826200353a565b604082019050919050565b5f6020820190508181035f830152620035c78162003588565b9050919050565b7f6e6f74206120666163746f7279000000000000000000000000000000000000005f82015250565b5f62003604600d8362002efd565b91506200361182620035ce565b602082019050919050565b5f6020820190508181035f8301526200363581620035f6565b9050919050565b7f616c7265616479206120666163746f72790000000000000000000000000000005f82015250565b5f6200367260118362002efd565b91506200367f826200363c565b602082019050919050565b5f6020820190508181035f830152620036a38162003664565b9050919050565b7f77616c6c6574206e6f74206c696e6b656420746f20616e206964656e746974795f8201527f20636f6e74726163740000000000000000000000000000000000000000000000602082015250565b5f6200370660298362002efd565b91506200371382620036aa565b604082019050919050565b5f6020820190508181035f8301526200373781620036f8565b9050919050565b7f6e65772077616c6c657420616c7265616479206c696e6b6564000000000000005f82015250565b5f6200377460198362002efd565b915062003781826200373e565b602082019050919050565b5f6020820190508181035f830152620037a58162003766565b9050919050565b7f696e76616c696420617267756d656e74202d20746f6b656e20616464726573735f82015250565b5f620037e260208362002efd565b9150620037ef82620037ac565b602082019050919050565b5f6020820190508181035f8301526200381381620037d4565b9050919050565b7f6d617820616d6f756e74206f662077616c6c65747320706572204944206578635f8201527f6565646564000000000000000000000000000000000000000000000000000000602082015250565b5f6200387660258362002efd565b915062003883826200381a565b604082019050919050565b5f6020820190508181035f830152620038a78162003868565b9050919050565b7f696e76616c696420617267756d656e74202d20656d707479206c697374206f665f8201527f206b657973000000000000000000000000000000000000000000000000000000602082015250565b5f6200390a60258362002efd565b91506200391782620038ae565b604082019050919050565b5f6020820190508181035f8301526200393b81620038fc565b9050919050565b7f696e76616c696420617267756d656e74202d2077616c6c657420697320616c735f8201527f6f206c697374656420696e206d616e6167656d656e74206b6579730000000000602082015250565b5f6200399e603b8362002efd565b9150620039ab8262003942565b604082019050919050565b5f6020820190508181035f830152620039cf8162003990565b9050919050565b620039e18162002d3d565b82525050565b5f819050919050565b5f819050919050565b5f62003a1962003a1362003a0d84620039e7565b620039f0565b62003402565b9050919050565b62003a2b81620039f9565b82525050565b5f60608201905062003a465f830186620039d6565b62003a55602083018562003a20565b62003a64604083018462003a20565b949350505050565b62003a7781620029bf565b811462003a82575f80fd5b50565b5f8151905062003a958162003a6c565b92915050565b5f6020828403121562003ab35762003ab26200289b565b5b5f62003ac28482850162003a85565b91505092915050565b5f60408201905062003ae05f830185620039d6565b62003aef602083018462003a20565b9392505050565b5f60408201905062003b0b5f83018562002866565b62003b1a602083018462002866565b9392505050565b5f81519050919050565b5f81905092915050565b5f62003b418262003b21565b62003b4d818562003b2b565b935062003b5f8185602086016200303a565b80840191505092915050565b5f62003b78828562003b35565b915062003b86828462003b35565b9150819050939250505056fe608060405234801561000f575f80fd5b5060405161073c38038061073c8339818101604052810190610031919061033b565b5f73ffffffffffffffffffffffffffffffffffffffff168273ffffffffffffffffffffffffffffffffffffffff160361009f576040517f08c379a0000000000000000000000000000000000000000000000000000000008152600401610096906103d3565b60405180910390fd5b5f73ffffffffffffffffffffffffffffffffffffffff168173ffffffffffffffffffffffffffffffffffffffff160361010d576040517f08c379a0000000000000000000000000000000000000000000000000000000008152600401610104906103d3565b60405180910390fd5b817fc5f16f0fcc639fa48a6947836d9850f504798523bf8c9a3a87d5876cf622bcf7555f8273ffffffffffffffffffffffffffffffffffffffff1663aaf10f426040518163ffffffff1660e01b8152600401602060405180830381865afa15801561017a573d5f803e3d5ffd5b505050506040513d601f19601f8201168201806040525081019061019e91906103f1565b90505f8173ffffffffffffffffffffffffffffffffffffffff16836040516024016101c9919061042b565b6040516020818303038152906040527fc4d66de8000000000000000000000000000000000000000000000000000000007bffffffffffffffffffffffffffffffffffffffffffffffffffffffff19166020820180517bffffffffffffffffffffffffffffffffffffffffffffffffffffffff838183161783525050505060405161025391906104b0565b5f60405180830381855af49150503d805f811461028b576040519150601f19603f3d011682016040523d82523d5f602084013e610290565b606091505b50509050806102d4576040517f08c379a00000000000000000000000000000000000000000000000000000000081526004016102cb90610510565b60405180910390fd5b5050505061052e565b5f80fd5b5f73ffffffffffffffffffffffffffffffffffffffff82169050919050565b5f61030a826102e1565b9050919050565b61031a81610300565b8114610324575f80fd5b50565b5f8151905061033581610311565b92915050565b5f8060408385031215610351576103506102dd565b5b5f61035e85828601610327565b925050602061036f85828601610327565b9150509250929050565b5f82825260208201905092915050565b7f696e76616c696420617267756d656e74202d207a65726f2061646472657373005f82015250565b5f6103bd601f83610379565b91506103c882610389565b602082019050919050565b5f6020820190508181035f8301526103ea816103b1565b9050919050565b5f60208284031215610406576104056102dd565b5b5f61041384828501610327565b91505092915050565b61042581610300565b82525050565b5f60208201905061043e5f83018461041c565b92915050565b5f81519050919050565b5f81905092915050565b5f5b8381101561047557808201518184015260208101905061045a565b5f8484015250505050565b5f61048a82610444565b610494818561044e565b93506104a4818560208601610458565b80840191505092915050565b5f6104bb8284610480565b915081905092915050565b7f496e697469616c697a6174696f6e206661696c65642e000000000000000000005f82015250565b5f6104fa601683610379565b9150610505826104c6565b602082019050919050565b5f6020820190508181035f830152610527816104ee565b9050919050565b6102018061053b5f395ff3fe608060405260043610610021575f3560e01c80632307f882146100c357610028565b3661002857005b5f6100316100ed565b73ffffffffffffffffffffffffffffffffffffffff1663aaf10f426040518163ffffffff1660e01b8152600401602060405180830381865afa158015610079573d5f803e3d5ffd5b505050506040513d601f19601f8201168201806040525081019061009d9190610178565b9050365f80375f80365f846127105a03f43d805f803e815f81146100bf57815ff35b815ffd5b3480156100ce575f80fd5b506100d76100ed565b6040516100e491906101b2565b60405180910390f35b5f807fc5f16f0fcc639fa48a6947836d9850f504798523bf8c9a3a87d5876cf622bcf75490508091505090565b5f80fd5b5f73ffffffffffffffffffffffffffffffffffffffff82169050919050565b5f6101478261011e565b9050919050565b6101578161013d565b8114610161575f80fd5b50565b5f815190506101728161014e565b92915050565b5f6020828403121561018d5761018c61011a565b5b5f61019a84828501610164565b91505092915050565b6101ac8161013d565b82525050565b5f6020820190506101c55f8301846101a3565b9291505056fea2646970667358221220cbb7259bc916873623d594a2cd624557508000db68a7451f56febd65447c2eba64736f6c63430008140033a26469706673582212202a7a6f4245686a0f60cd2a1f1caf15213e72e11e0f534fa574e462a4d4ae15d064736f6c63430008140033",
					"opcodes": "PUSH1 0xA0 PUSH1 0x40 MSTORE CALLVALUE DUP1 ISZERO PUSH3 0x10 JUMPI PUSH0 DUP1 REVERT JUMPDEST POP PUSH1 0x40 MLOAD PUSH3 0x469A CODESIZE SUB DUP1 PUSH3 0x469A DUP4 CODECOPY DUP2 DUP2 ADD PUSH1 0x40 MSTORE DUP2 ADD SWAP1 PUSH3 0x36 SWAP2 SWAP1 PUSH3 0x28E JUMP JUMPDEST CALLER PUSH0 PUSH20 0xFFFFFFFFFFFFFFFFFFFFFFFFFFFFFFFFFFFFFFFF AND DUP2 PUSH20 0xFFFFFFFFFFFFFFFFFFFFFFFFFFFFFFFFFFFFFFFF AND SUB PUSH3 0xAA JUMPI PUSH0 PUSH1 0x40 MLOAD PUSH32 0x1E4FBDF700000000000000000000000000000000000000000000000000000000 DUP2 MSTORE PUSH1 0x4 ADD PUSH3 0xA1 SWAP2 SWAP1 PUSH3 0x2CF JUMP JUMPDEST PUSH1 0x40 MLOAD DUP1 SWAP2 SUB SWAP1 REVERT JUMPDEST PUSH3 0xBB DUP2 PUSH3 0x168 PUSH1 0x20 SHL PUSH1 0x20 SHR JUMP JUMPDEST POP PUSH0 PUSH20 0xFFFFFFFFFFFFFFFFFFFFFFFFFFFFFFFFFFFFFFFF AND DUP2 PUSH20 0xFFFFFFFFFFFFFFFFFFFFFFFFFFFFFFFFFFFFFFFF AND SUB PUSH3 0x12D JUMPI PUSH1 0x40 MLOAD PUSH32 0x8C379A000000000000000000000000000000000000000000000000000000000 DUP2 MSTORE PUSH1 0x4 ADD PUSH3 0x124 SWAP1 PUSH3 0x348 JUMP JUMPDEST PUSH1 0x40 MLOAD DUP1 SWAP2 SUB SWAP1 REVERT JUMPDEST DUP1 PUSH20 0xFFFFFFFFFFFFFFFFFFFFFFFFFFFFFFFFFFFFFFFF AND PUSH1 0x80 DUP2 PUSH20 0xFFFFFFFFFFFFFFFFFFFFFFFFFFFFFFFFFFFFFFFF AND DUP2 MSTORE POP POP POP PUSH3 0x368 JUMP JUMPDEST PUSH0 DUP1 PUSH0 SWAP1 SLOAD SWAP1 PUSH2 0x100 EXP SWAP1 DIV PUSH20 0xFFFFFFFFFFFFFFFFFFFFFFFFFFFFFFFFFFFFFFFF AND SWAP1 POP DUP2 PUSH0 DUP1 PUSH2 0x100 EXP DUP2 SLOAD DUP2 PUSH20 0xFFFFFFFFFFFFFFFFFFFFFFFFFFFFFFFFFFFFFFFF MUL NOT AND SWAP1 DUP4 PUSH20 0xFFFFFFFFFFFFFFFFFFFFFFFFFFFFFFFFFFFFFFFF AND MUL OR SWAP1 SSTORE POP DUP2 PUSH20 0xFFFFFFFFFFFFFFFFFFFFFFFFFFFFFFFFFFFFFFFF AND DUP2 PUSH20 0xFFFFFFFFFFFFFFFFFFFFFFFFFFFFFFFFFFFFFFFF AND PUSH32 0x8BE0079C531659141344CD1FD0A4F28419497F9722A3DAAFE3B4186F6B6457E0 PUSH1 0x40 MLOAD PUSH1 0x40 MLOAD DUP1 SWAP2 SUB SWAP1 LOG3 POP POP JUMP JUMPDEST PUSH0 DUP1 REVERT JUMPDEST PUSH0 PUSH20 0xFFFFFFFFFFFFFFFFFFFFFFFFFFFFFFFFFFFFFFFF DUP3 AND SWAP1 POP SWAP2 SWAP1 POP JUMP JUMPDEST PUSH0 PUSH3 0x258 DUP3 PUSH3 0x22D JUMP JUMPDEST SWAP1 POP SWAP2 SWAP1 POP JUMP JUMPDEST PUSH3 0x26A DUP2 PUSH3 0x24C JUMP JUMPDEST DUP2 EQ PUSH3 0x275 JUMPI PUSH0 DUP1 REVERT JUMPDEST POP JUMP JUMPDEST PUSH0 DUP2 MLOAD SWAP1 POP PUSH3 0x288 DUP2 PUSH3 0x25F JUMP JUMPDEST SWAP3 SWAP2 POP POP JUMP JUMPDEST PUSH0 PUSH1 0x20 DUP3 DUP5 SUB SLT ISZERO PUSH3 0x2A6 JUMPI PUSH3 0x2A5 PUSH3 0x229 JUMP JUMPDEST JUMPDEST PUSH0 PUSH3 0x2B5 DUP5 DUP3 DUP6 ADD PUSH3 0x278 JUMP JUMPDEST SWAP2 POP POP SWAP3 SWAP2 POP POP JUMP JUMPDEST PUSH3 0x2C9 DUP2 PUSH3 0x24C JUMP JUMPDEST DUP3 MSTORE POP POP JUMP JUMPDEST PUSH0 PUSH1 0x20 DUP3 ADD SWAP1 POP PUSH3 0x2E4 PUSH0 DUP4 ADD DUP5 PUSH3 0x2BE JUMP JUMPDEST SWAP3 SWAP2 POP POP JUMP JUMPDEST PUSH0 DUP3 DUP3 MSTORE PUSH1 0x20 DUP3 ADD SWAP1 POP SWAP3 SWAP2 POP POP JUMP JUMPDEST PUSH32 0x696E76616C696420617267756D656E74202D207A65726F206164647265737300 PUSH0 DUP3 ADD MSTORE POP JUMP JUMPDEST PUSH0 PUSH3 0x330 PUSH1 0x1F DUP4 PUSH3 0x2EA JUMP JUMPDEST SWAP2 POP PUSH3 0x33D DUP3 PUSH3 0x2FA JUMP JUMPDEST PUSH1 0x20 DUP3 ADD SWAP1 POP SWAP2 SWAP1 POP JUMP JUMPDEST PUSH0 PUSH1 0x20 DUP3 ADD SWAP1 POP DUP2 DUP2 SUB PUSH0 DUP4 ADD MSTORE PUSH3 0x361 DUP2 PUSH3 0x322 JUMP JUMPDEST SWAP1 POP SWAP2 SWAP1 POP JUMP JUMPDEST PUSH1 0x80 MLOAD PUSH2 0x4304 PUSH3 0x396 PUSH0 CODECOPY PUSH0 DUP2 DUP2 PUSH2 0x3BD ADD MSTORE DUP2 DUP2 PUSH2 0x8E1 ADD MSTORE DUP2 DUP2 PUSH2 0x14B8 ADD MSTORE PUSH2 0x21D4 ADD MSTORE PUSH2 0x4304 PUSH0 RETURN INVALID PUSH1 0x80 PUSH1 0x40 MSTORE CALLVALUE DUP1 ISZERO PUSH3 0x10 JUMPI PUSH0 DUP1 REVERT JUMPDEST POP PUSH1 0x4 CALLDATASIZE LT PUSH3 0x116 JUMPI PUSH0 CALLDATALOAD PUSH1 0xE0 SHR DUP1 PUSH4 0x715018A6 GT PUSH3 0xA3 JUMPI DUP1 PUSH4 0x9CE19365 GT PUSH3 0x6D JUMPI DUP1 PUSH4 0x9CE19365 EQ PUSH3 0x324 JUMPI DUP1 PUSH4 0xB8BB8126 EQ PUSH3 0x344 JUMPI DUP1 PUSH4 0xF2FDE38B EQ PUSH3 0x364 JUMPI DUP1 PUSH4 0xFE5CD59A EQ PUSH3 0x384 JUMPI PUSH3 0x116 JUMP JUMPDEST DUP1 PUSH4 0x715018A6 EQ PUSH3 0x2A0 JUMPI DUP1 PUSH4 0x8DA5CB5B EQ PUSH3 0x2AC JUMPI DUP1 PUSH4 0x8E952BFE EQ PUSH3 0x2CE JUMPI DUP1 PUSH4 0x937529EF EQ PUSH3 0x304 JUMPI PUSH3 0x116 JUMP JUMPDEST DUP1 PUSH4 0x3E3BC3D7 GT PUSH3 0xE5 JUMPI DUP1 PUSH4 0x3E3BC3D7 EQ PUSH3 0x1DE JUMPI DUP1 PUSH4 0x422C29A4 EQ PUSH3 0x214 JUMPI DUP1 PUSH4 0x5027DBE2 EQ PUSH3 0x24A JUMPI DUP1 PUSH4 0x59770438 EQ PUSH3 0x26A JUMPI PUSH3 0x116 JUMP JUMPDEST DUP1 PUSH4 0x2307F882 EQ PUSH3 0x11A JUMPI DUP1 PUSH4 0x2FEA7B81 EQ PUSH3 0x13C JUMPI DUP1 PUSH4 0x3A500451 EQ PUSH3 0x172 JUMPI DUP1 PUSH4 0x3D56FF66 EQ PUSH3 0x1A8 JUMPI JUMPDEST PUSH0 DUP1 REVERT JUMPDEST PUSH3 0x124 PUSH3 0x3BA JUMP JUMPDEST PUSH1 0x40 MLOAD PUSH3 0x133 SWAP2 SWAP1 PUSH3 0x2877 JUMP JUMPDEST PUSH1 0x40 MLOAD DUP1 SWAP2 SUB SWAP1 RETURN JUMPDEST PUSH3 0x15A PUSH1 0x4 DUP1 CALLDATASIZE SUB DUP2 ADD SWAP1 PUSH3 0x154 SWAP2 SWAP1 PUSH3 0x28D2 JUMP JUMPDEST PUSH3 0x3E1 JUMP JUMPDEST PUSH1 0x40 MLOAD PUSH3 0x169 SWAP2 SWAP1 PUSH3 0x2877 JUMP JUMPDEST PUSH1 0x40 MLOAD DUP1 SWAP2 SUB SWAP1 RETURN JUMPDEST PUSH3 0x190 PUSH1 0x4 DUP1 CALLDATASIZE SUB DUP2 ADD SWAP1 PUSH3 0x18A SWAP2 SWAP1 PUSH3 0x296C JUMP JUMPDEST PUSH3 0x53C JUMP JUMPDEST PUSH1 0x40 MLOAD PUSH3 0x19F SWAP2 SWAP1 PUSH3 0x29DB JUMP JUMPDEST PUSH1 0x40 MLOAD DUP1 SWAP2 SUB SWAP1 RETURN JUMPDEST PUSH3 0x1C6 PUSH1 0x4 DUP1 CALLDATASIZE SUB DUP2 ADD SWAP1 PUSH3 0x1C0 SWAP2 SWAP1 PUSH3 0x2B4A JUMP JUMPDEST PUSH3 0x574 JUMP JUMPDEST PUSH1 0x40 MLOAD PUSH3 0x1D5 SWAP2 SWAP1 PUSH3 0x2877 JUMP JUMPDEST PUSH1 0x40 MLOAD DUP1 SWAP2 SUB SWAP1 RETURN JUMPDEST PUSH3 0x1FC PUSH1 0x4 DUP1 CALLDATASIZE SUB DUP2 ADD SWAP1 PUSH3 0x1F6 SWAP2 SWAP1 PUSH3 0x28D2 JUMP JUMPDEST PUSH3 0xA9D JUMP JUMPDEST PUSH1 0x40 MLOAD PUSH3 0x20B SWAP2 SWAP1 PUSH3 0x29DB JUMP JUMPDEST PUSH1 0x40 MLOAD DUP1 SWAP2 SUB SWAP1 RETURN JUMPDEST PUSH3 0x232 PUSH1 0x4 DUP1 CALLDATASIZE SUB DUP2 ADD SWAP1 PUSH3 0x22C SWAP2 SWAP1 PUSH3 0x28D2 JUMP JUMPDEST PUSH3 0xAEF JUMP JUMPDEST PUSH1 0x40 MLOAD PUSH3 0x241 SWAP2 SWAP1 PUSH3 0x2C89 JUMP JUMPDEST PUSH1 0x40 MLOAD DUP1 SWAP2 SUB SWAP1 RETURN JUMPDEST PUSH3 0x268 PUSH1 0x4 DUP1 CALLDATASIZE SUB DUP2 ADD SWAP1 PUSH3 0x262 SWAP2 SWAP1 PUSH3 0x28D2 JUMP JUMPDEST PUSH3 0xBB9 JUMP JUMPDEST STOP JUMPDEST PUSH3 0x288 PUSH1 0x4 DUP1 CALLDATASIZE SUB DUP2 ADD SWAP1 PUSH3 0x282 SWAP2 SWAP1 PUSH3 0x28D2 JUMP JUMPDEST PUSH3 0x119C JUMP JUMPDEST PUSH1 0x40 MLOAD PUSH3 0x297 SWAP2 SWAP1 PUSH3 0x2877 JUMP JUMPDEST PUSH1 0x40 MLOAD DUP1 SWAP2 SUB SWAP1 RETURN JUMPDEST PUSH3 0x2AA PUSH3 0x1201 JUMP JUMPDEST STOP JUMPDEST PUSH3 0x2B6 PUSH3 0x1218 JUMP JUMPDEST PUSH1 0x40 MLOAD PUSH3 0x2C5 SWAP2 SWAP1 PUSH3 0x2877 JUMP JUMPDEST PUSH1 0x40 MLOAD DUP1 SWAP2 SUB SWAP1 RETURN JUMPDEST PUSH3 0x2EC PUSH1 0x4 DUP1 CALLDATASIZE SUB DUP2 ADD SWAP1 PUSH3 0x2E6 SWAP2 SWAP1 PUSH3 0x2CAB JUMP JUMPDEST PUSH3 0x123F JUMP JUMPDEST PUSH1 0x40 MLOAD PUSH3 0x2FB SWAP2 SWAP1 PUSH3 0x2877 JUMP JUMPDEST PUSH1 0x40 MLOAD DUP1 SWAP2 SUB SWAP1 RETURN JUMPDEST PUSH3 0x322 PUSH1 0x4 DUP1 CALLDATASIZE SUB DUP2 ADD SWAP1 PUSH3 0x31C SWAP2 SWAP1 PUSH3 0x28D2 JUMP JUMPDEST PUSH3 0x1693 JUMP JUMPDEST STOP JUMPDEST PUSH3 0x342 PUSH1 0x4 DUP1 CALLDATASIZE SUB DUP2 ADD SWAP1 PUSH3 0x33C SWAP2 SWAP1 PUSH3 0x28D2 JUMP JUMPDEST PUSH3 0x17F5 JUMP JUMPDEST STOP JUMPDEST PUSH3 0x362 PUSH1 0x4 DUP1 CALLDATASIZE SUB DUP2 ADD SWAP1 PUSH3 0x35C SWAP2 SWAP1 PUSH3 0x28D2 JUMP JUMPDEST PUSH3 0x1958 JUMP JUMPDEST STOP JUMPDEST PUSH3 0x382 PUSH1 0x4 DUP1 CALLDATASIZE SUB DUP2 ADD SWAP1 PUSH3 0x37C SWAP2 SWAP1 PUSH3 0x28D2 JUMP JUMPDEST PUSH3 0x1E8A JUMP JUMPDEST STOP JUMPDEST PUSH3 0x3A2 PUSH1 0x4 DUP1 CALLDATASIZE SUB DUP2 ADD SWAP1 PUSH3 0x39C SWAP2 SWAP1 PUSH3 0x2E1A JUMP JUMPDEST PUSH3 0x1F15 JUMP JUMPDEST PUSH1 0x40 MLOAD PUSH3 0x3B1 SWAP2 SWAP1 PUSH3 0x2877 JUMP JUMPDEST PUSH1 0x40 MLOAD DUP1 SWAP2 SUB SWAP1 RETURN JUMPDEST PUSH0 PUSH32 0x0 SWAP1 POP SWAP1 JUMP JUMPDEST PUSH0 DUP1 PUSH20 0xFFFFFFFFFFFFFFFFFFFFFFFFFFFFFFFFFFFFFFFF AND PUSH1 0x5 PUSH0 DUP5 PUSH20 0xFFFFFFFFFFFFFFFFFFFFFFFFFFFFFFFFFFFFFFFF AND PUSH20 0xFFFFFFFFFFFFFFFFFFFFFFFFFFFFFFFFFFFFFFFF AND DUP2 MSTORE PUSH1 0x20 ADD SWAP1 DUP2 MSTORE PUSH1 0x20 ADD PUSH0 KECCAK256 PUSH0 SWAP1 SLOAD SWAP1 PUSH2 0x100 EXP SWAP1 DIV PUSH20 0xFFFFFFFFFFFFFFFFFFFFFFFFFFFFFFFFFFFFFFFF AND PUSH20 0xFFFFFFFFFFFFFFFFFFFFFFFFFFFFFFFFFFFFFFFF AND EQ PUSH3 0x4D7 JUMPI PUSH1 0x5 PUSH0 DUP4 PUSH20 0xFFFFFFFFFFFFFFFFFFFFFFFFFFFFFFFFFFFFFFFF AND PUSH20 0xFFFFFFFFFFFFFFFFFFFFFFFFFFFFFFFFFFFFFFFF AND DUP2 MSTORE PUSH1 0x20 ADD SWAP1 DUP2 MSTORE PUSH1 0x20 ADD PUSH0 KECCAK256 PUSH0 SWAP1 SLOAD SWAP1 PUSH2 0x100 EXP SWAP1 DIV PUSH20 0xFFFFFFFFFFFFFFFFFFFFFFFFFFFFFFFFFFFFFFFF AND SWAP1 POP PUSH3 0x537 JUMP JUMPDEST PUSH1 0x3 PUSH0 DUP4 PUSH20 0xFFFFFFFFFFFFFFFFFFFFFFFFFFFFFFFFFFFFFFFF AND PUSH20 0xFFFFFFFFFFFFFFFFFFFFFFFFFFFFFFFFFFFFFFFF AND DUP2 MSTORE PUSH1 0x20 ADD SWAP1 DUP2 MSTORE PUSH1 0x20 ADD PUSH0 KECCAK256 PUSH0 SWAP1 SLOAD SWAP1 PUSH2 0x100 EXP SWAP1 DIV PUSH20 0xFFFFFFFFFFFFFFFFFFFFFFFFFFFFFFFFFFFFFFFF AND SWAP1 POP JUMPDEST SWAP2 SWAP1 POP JUMP JUMPDEST PUSH0 PUSH1 0x2 DUP4 DUP4 PUSH1 0x40 MLOAD PUSH3 0x551 SWAP3 SWAP2 SWAP1 PUSH3 0x2EE3 JUMP JUMPDEST SWAP1 DUP2 MSTORE PUSH1 0x20 ADD PUSH1 0x40 MLOAD DUP1 SWAP2 SUB SWAP1 KECCAK256 PUSH0 SWAP1 SLOAD SWAP1 PUSH2 0x100 EXP SWAP1 DIV PUSH1 0xFF AND SWAP1 POP SWAP3 SWAP2 POP POP JUMP JUMPDEST PUSH0 PUSH3 0x580 CALLER PUSH3 0xA9D JUMP JUMPDEST DUP1 PUSH3 0x5C0 JUMPI POP PUSH3 0x591 PUSH3 0x1218 JUMP JUMPDEST PUSH20 0xFFFFFFFFFFFFFFFFFFFFFFFFFFFFFFFFFFFFFFFF AND CALLER PUSH20 0xFFFFFFFFFFFFFFFFFFFFFFFFFFFFFFFFFFFFFFFF AND EQ JUMPDEST PUSH3 0x602 JUMPI PUSH1 0x40 MLOAD PUSH32 0x8C379A000000000000000000000000000000000000000000000000000000000 DUP2 MSTORE PUSH1 0x4 ADD PUSH3 0x5F9 SWAP1 PUSH3 0x2F5B JUMP JUMPDEST PUSH1 0x40 MLOAD DUP1 SWAP2 SUB SWAP1 REVERT JUMPDEST PUSH0 PUSH20 0xFFFFFFFFFFFFFFFFFFFFFFFFFFFFFFFFFFFFFFFF AND DUP5 PUSH20 0xFFFFFFFFFFFFFFFFFFFFFFFFFFFFFFFFFFFFFFFF AND SUB PUSH3 0x673 JUMPI PUSH1 0x40 MLOAD PUSH32 0x8C379A000000000000000000000000000000000000000000000000000000000 DUP2 MSTORE PUSH1 0x4 ADD PUSH3 0x66A SWAP1 PUSH3 0x2FC9 JUMP JUMPDEST PUSH1 0x40 MLOAD DUP1 SWAP2 SUB SWAP1 REVERT JUMPDEST PUSH0 PUSH20 0xFFFFFFFFFFFFFFFFFFFFFFFFFFFFFFFFFFFFFFFF AND DUP4 PUSH20 0xFFFFFFFFFFFFFFFFFFFFFFFFFFFFFFFFFFFFFFFF AND SUB PUSH3 0x6E4 JUMPI PUSH1 0x40 MLOAD PUSH32 0x8C379A000000000000000000000000000000000000000000000000000000000 DUP2 MSTORE PUSH1 0x4 ADD PUSH3 0x6DB SWAP1 PUSH3 0x2FC9 JUMP JUMPDEST PUSH1 0x40 MLOAD DUP1 SWAP2 SUB SWAP1 REVERT JUMPDEST PUSH1 0x40 MLOAD PUSH1 0x20 ADD PUSH3 0x6F5 SWAP1 PUSH3 0x3010 JUMP JUMPDEST PUSH1 0x40 MLOAD PUSH1 0x20 DUP2 DUP4 SUB SUB DUP2 MSTORE SWAP1 PUSH1 0x40 MSTORE DUP1 MLOAD SWAP1 PUSH1 0x20 ADD KECCAK256 DUP3 PUSH1 0x40 MLOAD PUSH1 0x20 ADD PUSH3 0x71E SWAP2 SWAP1 PUSH3 0x30A4 JUMP JUMPDEST PUSH1 0x40 MLOAD PUSH1 0x20 DUP2 DUP4 SUB SUB DUP2 MSTORE SWAP1 PUSH1 0x40 MSTORE DUP1 MLOAD SWAP1 PUSH1 0x20 ADD KECCAK256 SUB PUSH3 0x777 JUMPI PUSH1 0x40 MLOAD PUSH32 0x8C379A000000000000000000000000000000000000000000000000000000000 DUP2 MSTORE PUSH1 0x4 ADD PUSH3 0x76E SWAP1 PUSH3 0x3114 JUMP JUMPDEST PUSH1 0x40 MLOAD DUP1 SWAP2 SUB SWAP1 REVERT JUMPDEST PUSH0 DUP3 PUSH1 0x40 MLOAD PUSH1 0x20 ADD PUSH3 0x78B SWAP2 SWAP1 PUSH3 0x3190 JUMP JUMPDEST PUSH1 0x40 MLOAD PUSH1 0x20 DUP2 DUP4 SUB SUB DUP2 MSTORE SWAP1 PUSH1 0x40 MSTORE SWAP1 POP PUSH1 0x2 DUP2 PUSH1 0x40 MLOAD PUSH3 0x7AE SWAP2 SWAP1 PUSH3 0x31B9 JUMP JUMPDEST SWAP1 DUP2 MSTORE PUSH1 0x20 ADD PUSH1 0x40 MLOAD DUP1 SWAP2 SUB SWAP1 KECCAK256 PUSH0 SWAP1 SLOAD SWAP1 PUSH2 0x100 EXP SWAP1 DIV PUSH1 0xFF AND ISZERO PUSH3 0x80C JUMPI PUSH1 0x40 MLOAD PUSH32 0x8C379A000000000000000000000000000000000000000000000000000000000 DUP2 MSTORE PUSH1 0x4 ADD PUSH3 0x803 SWAP1 PUSH3 0x321F JUMP JUMPDEST PUSH1 0x40 MLOAD DUP1 SWAP2 SUB SWAP1 REVERT JUMPDEST PUSH0 PUSH20 0xFFFFFFFFFFFFFFFFFFFFFFFFFFFFFFFFFFFFFFFF AND PUSH1 0x5 PUSH0 DUP8 PUSH20 0xFFFFFFFFFFFFFFFFFFFFFFFFFFFFFFFFFFFFFFFF AND PUSH20 0xFFFFFFFFFFFFFFFFFFFFFFFFFFFFFFFFFFFFFFFF AND DUP2 MSTORE PUSH1 0x20 ADD SWAP1 DUP2 MSTORE PUSH1 0x20 ADD PUSH0 KECCAK256 PUSH0 SWAP1 SLOAD SWAP1 PUSH2 0x100 EXP SWAP1 DIV PUSH20 0xFFFFFFFFFFFFFFFFFFFFFFFFFFFFFFFFFFFFFFFF AND PUSH20 0xFFFFFFFFFFFFFFFFFFFFFFFFFFFFFFFFFFFFFFFF AND EQ PUSH3 0x8D9 JUMPI PUSH1 0x40 MLOAD PUSH32 0x8C379A000000000000000000000000000000000000000000000000000000000 DUP2 MSTORE PUSH1 0x4 ADD PUSH3 0x8D0 SWAP1 PUSH3 0x32B3 JUMP JUMPDEST PUSH1 0x40 MLOAD DUP1 SWAP2 SUB SWAP1 REVERT JUMPDEST PUSH0 PUSH3 0x907 DUP3 PUSH32 0x0 DUP8 PUSH3 0x25A8 JUMP JUMPDEST SWAP1 POP PUSH1 0x1 PUSH1 0x2 DUP4 PUSH1 0x40 MLOAD PUSH3 0x91D SWAP2 SWAP1 PUSH3 0x31B9 JUMP JUMPDEST SWAP1 DUP2 MSTORE PUSH1 0x20 ADD PUSH1 0x40 MLOAD DUP1 SWAP2 SUB SWAP1 KECCAK256 PUSH0 PUSH2 0x100 EXP DUP2 SLOAD DUP2 PUSH1 0xFF MUL NOT AND SWAP1 DUP4 ISZERO ISZERO MUL OR SWAP1 SSTORE POP DUP1 PUSH1 0x5 PUSH0 DUP9 PUSH20 0xFFFFFFFFFFFFFFFFFFFFFFFFFFFFFFFFFFFFFFFF AND PUSH20 0xFFFFFFFFFFFFFFFFFFFFFFFFFFFFFFFFFFFFFFFF AND DUP2 MSTORE PUSH1 0x20 ADD SWAP1 DUP2 MSTORE PUSH1 0x20 ADD PUSH0 KECCAK256 PUSH0 PUSH2 0x100 EXP DUP2 SLOAD DUP2 PUSH20 0xFFFFFFFFFFFFFFFFFFFFFFFFFFFFFFFFFFFFFFFF MUL NOT AND SWAP1 DUP4 PUSH20 0xFFFFFFFFFFFFFFFFFFFFFFFFFFFFFFFFFFFFFFFF AND MUL OR SWAP1 SSTORE POP DUP6 PUSH1 0x6 PUSH0 DUP4 PUSH20 0xFFFFFFFFFFFFFFFFFFFFFFFFFFFFFFFFFFFFFFFF AND PUSH20 0xFFFFFFFFFFFFFFFFFFFFFFFFFFFFFFFFFFFFFFFF AND DUP2 MSTORE PUSH1 0x20 ADD SWAP1 DUP2 MSTORE PUSH1 0x20 ADD PUSH0 KECCAK256 PUSH0 PUSH2 0x100 EXP DUP2 SLOAD DUP2 PUSH20 0xFFFFFFFFFFFFFFFFFFFFFFFFFFFFFFFFFFFFFFFF MUL NOT AND SWAP1 DUP4 PUSH20 0xFFFFFFFFFFFFFFFFFFFFFFFFFFFFFFFFFFFFFFFF AND MUL OR SWAP1 SSTORE POP DUP1 PUSH20 0xFFFFFFFFFFFFFFFFFFFFFFFFFFFFFFFFFFFFFFFF AND DUP7 PUSH20 0xFFFFFFFFFFFFFFFFFFFFFFFFFFFFFFFFFFFFFFFF AND PUSH32 0xA8261D398DDC63DB24CC53CD0C63C9464CABAD1BC478EDE2107B32C1C4010B7A PUSH1 0x40 MLOAD PUSH1 0x40 MLOAD DUP1 SWAP2 SUB SWAP1 LOG3 DUP1 SWAP3 POP POP POP SWAP4 SWAP3 POP POP POP JUMP JUMPDEST PUSH0 PUSH1 0x1 PUSH0 DUP4 PUSH20 0xFFFFFFFFFFFFFFFFFFFFFFFFFFFFFFFFFFFFFFFF AND PUSH20 0xFFFFFFFFFFFFFFFFFFFFFFFFFFFFFFFFFFFFFFFF AND DUP2 MSTORE PUSH1 0x20 ADD SWAP1 DUP2 MSTORE PUSH1 0x20 ADD PUSH0 KECCAK256 PUSH0 SWAP1 SLOAD SWAP1 PUSH2 0x100 EXP SWAP1 DIV PUSH1 0xFF AND SWAP1 POP SWAP2 SWAP1 POP JUMP JUMPDEST PUSH1 0x60 PUSH1 0x4 PUSH0 DUP4 PUSH20 0xFFFFFFFFFFFFFFFFFFFFFFFFFFFFFFFFFFFFFFFF AND PUSH20 0xFFFFFFFFFFFFFFFFFFFFFFFFFFFFFFFFFFFFFFFF AND DUP2 MSTORE PUSH1 0x20 ADD SWAP1 DUP2 MSTORE PUSH1 0x20 ADD PUSH0 KECCAK256 DUP1 SLOAD DUP1 PUSH1 0x20 MUL PUSH1 0x20 ADD PUSH1 0x40 MLOAD SWAP1 DUP2 ADD PUSH1 0x40 MSTORE DUP1 SWAP3 SWAP2 SWAP1 DUP2 DUP2 MSTORE PUSH1 0x20 ADD DUP3 DUP1 SLOAD DUP1 ISZERO PUSH3 0xBAD JUMPI PUSH1 0x20 MUL DUP3 ADD SWAP2 SWAP1 PUSH0 MSTORE PUSH1 0x20 PUSH0 KECCAK256 SWAP1 JUMPDEST DUP2 PUSH0 SWAP1 SLOAD SWAP1 PUSH2 0x100 EXP SWAP1 DIV PUSH20 0xFFFFFFFFFFFFFFFFFFFFFFFFFFFFFFFFFFFFFFFF AND PUSH20 0xFFFFFFFFFFFFFFFFFFFFFFFFFFFFFFFFFFFFFFFF AND DUP2 MSTORE PUSH1 0x20 ADD SWAP1 PUSH1 0x1 ADD SWAP1 DUP1 DUP4 GT PUSH3 0xB63 JUMPI JUMPDEST POP POP POP POP POP SWAP1 POP SWAP2 SWAP1 POP JUMP JUMPDEST PUSH0 PUSH20 0xFFFFFFFFFFFFFFFFFFFFFFFFFFFFFFFFFFFFFFFF AND DUP2 PUSH20 0xFFFFFFFFFFFFFFFFFFFFFFFFFFFFFFFFFFFFFFFF AND SUB PUSH3 0xC2A JUMPI PUSH1 0x40 MLOAD PUSH32 0x8C379A000000000000000000000000000000000000000000000000000000000 DUP2 MSTORE PUSH1 0x4 ADD PUSH3 0xC21 SWAP1 PUSH3 0x2FC9 JUMP JUMPDEST PUSH1 0x40 MLOAD DUP1 SWAP2 SUB SWAP1 REVERT JUMPDEST CALLER PUSH20 0xFFFFFFFFFFFFFFFFFFFFFFFFFFFFFFFFFFFFFFFF AND DUP2 PUSH20 0xFFFFFFFFFFFFFFFFFFFFFFFFFFFFFFFFFFFFFFFF AND SUB PUSH3 0xC9B JUMPI PUSH1 0x40 MLOAD PUSH32 0x8C379A000000000000000000000000000000000000000000000000000000000 DUP2 MSTORE PUSH1 0x4 ADD PUSH3 0xC92 SWAP1 PUSH3 0x3347 JUMP JUMPDEST PUSH1 0x40 MLOAD DUP1 SWAP2 SUB SWAP1 REVERT JUMPDEST PUSH1 0x3 PUSH0 DUP3 PUSH20 0xFFFFFFFFFFFFFFFFFFFFFFFFFFFFFFFFFFFFFFFF AND PUSH20 0xFFFFFFFFFFFFFFFFFFFFFFFFFFFFFFFFFFFFFFFF AND DUP2 MSTORE PUSH1 0x20 ADD SWAP1 DUP2 MSTORE PUSH1 0x20 ADD PUSH0 KECCAK256 PUSH0 SWAP1 SLOAD SWAP1 PUSH2 0x100 EXP SWAP1 DIV PUSH20 0xFFFFFFFFFFFFFFFFFFFFFFFFFFFFFFFFFFFFFFFF AND PUSH20 0xFFFFFFFFFFFFFFFFFFFFFFFFFFFFFFFFFFFFFFFF AND PUSH1 0x3 PUSH0 CALLER PUSH20 0xFFFFFFFFFFFFFFFFFFFFFFFFFFFFFFFFFFFFFFFF AND PUSH20 0xFFFFFFFFFFFFFFFFFFFFFFFFFFFFFFFFFFFFFFFF AND DUP2 MSTORE PUSH1 0x20 ADD SWAP1 DUP2 MSTORE PUSH1 0x20 ADD PUSH0 KECCAK256 PUSH0 SWAP1 SLOAD SWAP1 PUSH2 0x100 EXP SWAP1 DIV PUSH20 0xFFFFFFFFFFFFFFFFFFFFFFFFFFFFFFFFFFFFFFFF AND PUSH20 0xFFFFFFFFFFFFFFFFFFFFFFFFFFFFFFFFFFFFFFFF AND EQ PUSH3 0xDC4 JUMPI PUSH1 0x40 MLOAD PUSH32 0x8C379A000000000000000000000000000000000000000000000000000000000 DUP2 MSTORE PUSH1 0x4 ADD PUSH3 0xDBB SWAP1 PUSH3 0x33B5 JUMP JUMPDEST PUSH1 0x40 MLOAD DUP1 SWAP2 SUB SWAP1 REVERT JUMPDEST PUSH0 PUSH1 0x3 PUSH0 DUP4 PUSH20 0xFFFFFFFFFFFFFFFFFFFFFFFFFFFFFFFFFFFFFFFF AND PUSH20 0xFFFFFFFFFFFFFFFFFFFFFFFFFFFFFFFFFFFFFFFF AND DUP2 MSTORE PUSH1 0x20 ADD SWAP1 DUP2 MSTORE PUSH1 0x20 ADD PUSH0 KECCAK256 PUSH0 SWAP1 SLOAD SWAP1 PUSH2 0x100 EXP SWAP1 DIV PUSH20 0xFFFFFFFFFFFFFFFFFFFFFFFFFFFFFFFFFFFFFFFF AND SWAP1 POP PUSH1 0x3 PUSH0 DUP4 PUSH20 0xFFFFFFFFFFFFFFFFFFFFFFFFFFFFFFFFFFFFFFFF AND PUSH20 0xFFFFFFFFFFFFFFFFFFFFFFFFFFFFFFFFFFFFFFFF AND DUP2 MSTORE PUSH1 0x20 ADD SWAP1 DUP2 MSTORE PUSH1 0x20 ADD PUSH0 KECCAK256 PUSH0 PUSH2 0x100 EXP DUP2 SLOAD SWAP1 PUSH20 0xFFFFFFFFFFFFFFFFFFFFFFFFFFFFFFFFFFFFFFFF MUL NOT AND SWAP1 SSTORE PUSH0 PUSH1 0x4 PUSH0 DUP4 PUSH20 0xFFFFFFFFFFFFFFFFFFFFFFFFFFFFFFFFFFFFFFFF AND PUSH20 0xFFFFFFFFFFFFFFFFFFFFFFFFFFFFFFFFFFFFFFFF AND DUP2 MSTORE PUSH1 0x20 ADD SWAP1 DUP2 MSTORE PUSH1 0x20 ADD PUSH0 KECCAK256 DUP1 SLOAD SWAP1 POP SWAP1 POP PUSH0 JUMPDEST DUP2 DUP2 LT ISZERO PUSH3 0x113C JUMPI DUP4 PUSH20 0xFFFFFFFFFFFFFFFFFFFFFFFFFFFFFFFFFFFFFFFF AND PUSH1 0x4 PUSH0 DUP6 PUSH20 0xFFFFFFFFFFFFFFFFFFFFFFFFFFFFFFFFFFFFFFFF AND PUSH20 0xFFFFFFFFFFFFFFFFFFFFFFFFFFFFFFFFFFFFFFFF AND DUP2 MSTORE PUSH1 0x20 ADD SWAP1 DUP2 MSTORE PUSH1 0x20 ADD PUSH0 KECCAK256 DUP3 DUP2 SLOAD DUP2 LT PUSH3 0xF3B JUMPI PUSH3 0xF3A PUSH3 0x33D5 JUMP JUMPDEST JUMPDEST SWAP1 PUSH0 MSTORE PUSH1 0x20 PUSH0 KECCAK256 ADD PUSH0 SWAP1 SLOAD SWAP1 PUSH2 0x100 EXP SWAP1 DIV PUSH20 0xFFFFFFFFFFFFFFFFFFFFFFFFFFFFFFFFFFFFFFFF AND PUSH20 0xFFFFFFFFFFFFFFFFFFFFFFFFFFFFFFFFFFFFFFFF AND SUB PUSH3 0x1126 JUMPI PUSH1 0x4 PUSH0 DUP5 PUSH20 0xFFFFFFFFFFFFFFFFFFFFFFFFFFFFFFFFFFFFFFFF AND PUSH20 0xFFFFFFFFFFFFFFFFFFFFFFFFFFFFFFFFFFFFFFFF AND DUP2 MSTORE PUSH1 0x20 ADD SWAP1 DUP2 MSTORE PUSH1 0x20 ADD PUSH0 KECCAK256 PUSH1 0x1 DUP4 PUSH3 0xFCB SWAP2 SWAP1 PUSH3 0x3438 JUMP JUMPDEST DUP2 SLOAD DUP2 LT PUSH3 0xFDF JUMPI PUSH3 0xFDE PUSH3 0x33D5 JUMP JUMPDEST JUMPDEST SWAP1 PUSH0 MSTORE PUSH1 0x20 PUSH0 KECCAK256 ADD PUSH0 SWAP1 SLOAD SWAP1 PUSH2 0x100 EXP SWAP1 DIV PUSH20 0xFFFFFFFFFFFFFFFFFFFFFFFFFFFFFFFFFFFFFFFF AND PUSH1 0x4 PUSH0 DUP6 PUSH20 0xFFFFFFFFFFFFFFFFFFFFFFFFFFFFFFFFFFFFFFFF AND PUSH20 0xFFFFFFFFFFFFFFFFFFFFFFFFFFFFFFFFFFFFFFFF AND DUP2 MSTORE PUSH1 0x20 ADD SWAP1 DUP2 MSTORE PUSH1 0x20 ADD PUSH0 KECCAK256 DUP3 DUP2 SLOAD DUP2 LT PUSH3 0x1059 JUMPI PUSH3 0x1058 PUSH3 0x33D5 JUMP JUMPDEST JUMPDEST SWAP1 PUSH0 MSTORE PUSH1 0x20 PUSH0 KECCAK256 ADD PUSH0 PUSH2 0x100 EXP DUP2 SLOAD DUP2 PUSH20 0xFFFFFFFFFFFFFFFFFFFFFFFFFFFFFFFFFFFFFFFF MUL NOT AND SWAP1 DUP4 PUSH20 0xFFFFFFFFFFFFFFFFFFFFFFFFFFFFFFFFFFFFFFFF AND MUL OR SWAP1 SSTORE POP PUSH1 0x4 PUSH0 DUP5 PUSH20 0xFFFFFFFFFFFFFFFFFFFFFFFFFFFFFFFFFFFFFFFF AND PUSH20 0xFFFFFFFFFFFFFFFFFFFFFFFFFFFFFFFFFFFFFFFF AND DUP2 MSTORE PUSH1 0x20 ADD SWAP1 DUP2 MSTORE PUSH1 0x20 ADD PUSH0 KECCAK256 DUP1 SLOAD DUP1 PUSH3 0x10EE JUMPI PUSH3 0x10ED PUSH3 0x3472 JUMP JUMPDEST JUMPDEST PUSH1 0x1 SWAP1 SUB DUP2 DUP2 SWAP1 PUSH0 MSTORE PUSH1 0x20 PUSH0 KECCAK256 ADD PUSH0 PUSH2 0x100 EXP DUP2 SLOAD SWAP1 PUSH20 0xFFFFFFFFFFFFFFFFFFFFFFFFFFFFFFFFFFFFFFFF MUL NOT AND SWAP1 SSTORE SWAP1 SSTORE PUSH3 0x113C JUMP JUMPDEST DUP1 DUP1 PUSH3 0x1133 SWAP1 PUSH3 0x349F JUMP JUMPDEST SWAP2 POP POP PUSH3 0xEC9 JUMP JUMPDEST POP DUP2 PUSH20 0xFFFFFFFFFFFFFFFFFFFFFFFFFFFFFFFFFFFFFFFF AND DUP4 PUSH20 0xFFFFFFFFFFFFFFFFFFFFFFFFFFFFFFFFFFFFFFFF AND PUSH32 0x35E6FC363A4BF723D53B26C1A751674ACA9C3EAD425F0591F84F5540EDE86F12 PUSH1 0x40 MLOAD PUSH1 0x40 MLOAD DUP1 SWAP2 SUB SWAP1 LOG3 POP POP POP JUMP JUMPDEST PUSH0 PUSH1 0x6 PUSH0 DUP4 PUSH20 0xFFFFFFFFFFFFFFFFFFFFFFFFFFFFFFFFFFFFFFFF AND PUSH20 0xFFFFFFFFFFFFFFFFFFFFFFFFFFFFFFFFFFFFFFFF AND DUP2 MSTORE PUSH1 0x20 ADD SWAP1 DUP2 MSTORE PUSH1 0x20 ADD PUSH0 KECCAK256 PUSH0 SWAP1 SLOAD SWAP1 PUSH2 0x100 EXP SWAP1 DIV PUSH20 0xFFFFFFFFFFFFFFFFFFFFFFFFFFFFFFFFFFFFFFFF AND SWAP1 POP SWAP2 SWAP1 POP JUMP JUMPDEST PUSH3 0x120B PUSH3 0x2638 JUMP JUMPDEST PUSH3 0x1216 PUSH0 PUSH3 0x26C8 JUMP JUMPDEST JUMP JUMPDEST PUSH0 DUP1 PUSH0 SWAP1 SLOAD SWAP1 PUSH2 0x100 EXP SWAP1 DIV PUSH20 0xFFFFFFFFFFFFFFFFFFFFFFFFFFFFFFFFFFFFFFFF AND SWAP1 POP SWAP1 JUMP JUMPDEST PUSH0 PUSH3 0x124A PUSH3 0x2638 JUMP JUMPDEST PUSH0 PUSH20 0xFFFFFFFFFFFFFFFFFFFFFFFFFFFFFFFFFFFFFFFF AND DUP4 PUSH20 0xFFFFFFFFFFFFFFFFFFFFFFFFFFFFFFFFFFFFFFFF AND SUB PUSH3 0x12BB JUMPI PUSH1 0x40 MLOAD PUSH32 0x8C379A000000000000000000000000000000000000000000000000000000000 DUP2 MSTORE PUSH1 0x4 ADD PUSH3 0x12B2 SWAP1 PUSH3 0x2FC9 JUMP JUMPDEST PUSH1 0x40 MLOAD DUP1 SWAP2 SUB SWAP1 REVERT JUMPDEST PUSH1 0x40 MLOAD PUSH1 0x20 ADD PUSH3 0x12CC SWAP1 PUSH3 0x3010 JUMP JUMPDEST PUSH1 0x40 MLOAD PUSH1 0x20 DUP2 DUP4 SUB SUB DUP2 MSTORE SWAP1 PUSH1 0x40 MSTORE DUP1 MLOAD SWAP1 PUSH1 0x20 ADD KECCAK256 DUP3 PUSH1 0x40 MLOAD PUSH1 0x20 ADD PUSH3 0x12F5 SWAP2 SWAP1 PUSH3 0x30A4 JUMP JUMPDEST PUSH1 0x40 MLOAD PUSH1 0x20 DUP2 DUP4 SUB SUB DUP2 MSTORE SWAP1 PUSH1 0x40 MSTORE DUP1 MLOAD SWAP1 PUSH1 0x20 ADD KECCAK256 SUB PUSH3 0x134E JUMPI PUSH1 0x40 MLOAD PUSH32 0x8C379A000000000000000000000000000000000000000000000000000000000 DUP2 MSTORE PUSH1 0x4 ADD PUSH3 0x1345 SWAP1 PUSH3 0x3114 JUMP JUMPDEST PUSH1 0x40 MLOAD DUP1 SWAP2 SUB SWAP1 REVERT JUMPDEST PUSH0 DUP3 PUSH1 0x40 MLOAD PUSH1 0x20 ADD PUSH3 0x1362 SWAP2 SWAP1 PUSH3 0x3511 JUMP JUMPDEST PUSH1 0x40 MLOAD PUSH1 0x20 DUP2 DUP4 SUB SUB DUP2 MSTORE SWAP1 PUSH1 0x40 MSTORE SWAP1 POP PUSH1 0x2 DUP2 PUSH1 0x40 MLOAD PUSH3 0x1385 SWAP2 SWAP1 PUSH3 0x31B9 JUMP JUMPDEST SWAP1 DUP2 MSTORE PUSH1 0x20 ADD PUSH1 0x40 MLOAD DUP1 SWAP2 SUB SWAP1 KECCAK256 PUSH0 SWAP1 SLOAD SWAP1 PUSH2 0x100 EXP SWAP1 DIV PUSH1 0xFF AND ISZERO PUSH3 0x13E3 JUMPI PUSH1 0x40 MLOAD PUSH32 0x8C379A000000000000000000000000000000000000000000000000000000000 DUP2 MSTORE PUSH1 0x4 ADD PUSH3 0x13DA SWAP1 PUSH3 0x321F JUMP JUMPDEST PUSH1 0x40 MLOAD DUP1 SWAP2 SUB SWAP1 REVERT JUMPDEST PUSH0 PUSH20 0xFFFFFFFFFFFFFFFFFFFFFFFFFFFFFFFFFFFFFFFF AND PUSH1 0x3 PUSH0 DUP7 PUSH20 0xFFFFFFFFFFFFFFFFFFFFFFFFFFFFFFFFFFFFFFFF AND PUSH20 0xFFFFFFFFFFFFFFFFFFFFFFFFFFFFFFFFFFFFFFFF AND DUP2 MSTORE PUSH1 0x20 ADD SWAP1 DUP2 MSTORE PUSH1 0x20 ADD PUSH0 KECCAK256 PUSH0 SWAP1 SLOAD SWAP1 PUSH2 0x100 EXP SWAP1 DIV PUSH20 0xFFFFFFFFFFFFFFFFFFFFFFFFFFFFFFFFFFFFFFFF AND PUSH20 0xFFFFFFFFFFFFFFFFFFFFFFFFFFFFFFFFFFFFFFFF AND EQ PUSH3 0x14B0 JUMPI PUSH1 0x40 MLOAD PUSH32 0x8C379A000000000000000000000000000000000000000000000000000000000 DUP2 MSTORE PUSH1 0x4 ADD PUSH3 0x14A7 SWAP1 PUSH3 0x35AE JUMP JUMPDEST PUSH1 0x40 MLOAD DUP1 SWAP2 SUB SWAP1 REVERT JUMPDEST PUSH0 PUSH3 0x14DE DUP3 PUSH32 0x0 DUP8 PUSH3 0x25A8 JUMP JUMPDEST SWAP1 POP PUSH1 0x1 PUSH1 0x2 DUP4 PUSH1 0x40 MLOAD PUSH3 0x14F4 SWAP2 SWAP1 PUSH3 0x31B9 JUMP JUMPDEST SWAP1 DUP2 MSTORE PUSH1 0x20 ADD PUSH1 0x40 MLOAD DUP1 SWAP2 SUB SWAP1 KECCAK256 PUSH0 PUSH2 0x100 EXP DUP2 SLOAD DUP2 PUSH1 0xFF MUL NOT AND SWAP1 DUP4 ISZERO ISZERO MUL OR SWAP1 SSTORE POP DUP1 PUSH1 0x3 PUSH0 DUP8 PUSH20 0xFFFFFFFFFFFFFFFFFFFFFFFFFFFFFFFFFFFFFFFF AND PUSH20 0xFFFFFFFFFFFFFFFFFFFFFFFFFFFFFFFFFFFFFFFF AND DUP2 MSTORE PUSH1 0x20 ADD SWAP1 DUP2 MSTORE PUSH1 0x20 ADD PUSH0 KECCAK256 PUSH0 PUSH2 0x100 EXP DUP2 SLOAD DUP2 PUSH20 0xFFFFFFFFFFFFFFFFFFFFFFFFFFFFFFFFFFFFFFFF MUL NOT AND SWAP1 DUP4 PUSH20 0xFFFFFFFFFFFFFFFFFFFFFFFFFFFFFFFFFFFFFFFF AND MUL OR SWAP1 SSTORE POP PUSH1 0x4 PUSH0 DUP3 PUSH20 0xFFFFFFFFFFFFFFFFFFFFFFFFFFFFFFFFFFFFFFFF AND PUSH20 0xFFFFFFFFFFFFFFFFFFFFFFFFFFFFFFFFFFFFFFFF AND DUP2 MSTORE PUSH1 0x20 ADD SWAP1 DUP2 MSTORE PUSH1 0x20 ADD PUSH0 KECCAK256 DUP6 SWAP1 DUP1 PUSH1 0x1 DUP2 SLOAD ADD DUP1 DUP3 SSTORE DUP1 SWAP2 POP POP PUSH1 0x1 SWAP1 SUB SWAP1 PUSH0 MSTORE PUSH1 0x20 PUSH0 KECCAK256 ADD PUSH0 SWAP1 SWAP2 SWAP1 SWAP2 SWAP1 SWAP2 PUSH2 0x100 EXP DUP2 SLOAD DUP2 PUSH20 0xFFFFFFFFFFFFFFFFFFFFFFFFFFFFFFFFFFFFFFFF MUL NOT AND SWAP1 DUP4 PUSH20 0xFFFFFFFFFFFFFFFFFFFFFFFFFFFFFFFFFFFFFFFF AND MUL OR SWAP1 SSTORE POP DUP1 PUSH20 0xFFFFFFFFFFFFFFFFFFFFFFFFFFFFFFFFFFFFFFFF AND DUP6 PUSH20 0xFFFFFFFFFFFFFFFFFFFFFFFFFFFFFFFFFFFFFFFF AND PUSH32 0x8E0C709111388F5480579514D86663489AB1F206FE6DA1A0C4D03AC8C318B3C6 PUSH1 0x40 MLOAD PUSH1 0x40 MLOAD DUP1 SWAP2 SUB SWAP1 LOG3 DUP1 SWAP3 POP POP POP SWAP3 SWAP2 POP POP JUMP JUMPDEST PUSH3 0x169D PUSH3 0x2638 JUMP JUMPDEST PUSH0 PUSH20 0xFFFFFFFFFFFFFFFFFFFFFFFFFFFFFFFFFFFFFFFF AND DUP2 PUSH20 0xFFFFFFFFFFFFFFFFFFFFFFFFFFFFFFFFFFFFFFFF AND SUB PUSH3 0x170E JUMPI PUSH1 0x40 MLOAD PUSH32 0x8C379A000000000000000000000000000000000000000000000000000000000 DUP2 MSTORE PUSH1 0x4 ADD PUSH3 0x1705 SWAP1 PUSH3 0x2FC9 JUMP JUMPDEST PUSH1 0x40 MLOAD DUP1 SWAP2 SUB SWAP1 REVERT JUMPDEST PUSH3 0x1719 DUP2 PUSH3 0xA9D JUMP JUMPDEST PUSH3 0x175B JUMPI PUSH1 0x40 MLOAD PUSH32 0x8C379A000000000000000000000000000000000000000000000000000000000 DUP2 MSTORE PUSH1 0x4 ADD PUSH3 0x1752 SWAP1 PUSH3 0x361C JUMP JUMPDEST PUSH1 0x40 MLOAD DUP1 SWAP2 SUB SWAP1 REVERT JUMPDEST PUSH0 PUSH1 0x1 PUSH0 DUP4 PUSH20 0xFFFFFFFFFFFFFFFFFFFFFFFFFFFFFFFFFFFFFFFF AND PUSH20 0xFFFFFFFFFFFFFFFFFFFFFFFFFFFFFFFFFFFFFFFF AND DUP2 MSTORE PUSH1 0x20 ADD SWAP1 DUP2 MSTORE PUSH1 0x20 ADD PUSH0 KECCAK256 PUSH0 PUSH2 0x100 EXP DUP2 SLOAD DUP2 PUSH1 0xFF MUL NOT AND SWAP1 DUP4 ISZERO ISZERO MUL OR SWAP1 SSTORE POP DUP1 PUSH20 0xFFFFFFFFFFFFFFFFFFFFFFFFFFFFFFFFFFFFFFFF AND PUSH32 0xD1FD5274F793D20291C0ABFE42E1EF63213A11B34996D485F7AFB8FE01424851 PUSH1 0x40 MLOAD PUSH1 0x40 MLOAD DUP1 SWAP2 SUB SWAP1 LOG2 POP JUMP JUMPDEST PUSH3 0x17FF PUSH3 0x2638 JUMP JUMPDEST PUSH0 PUSH20 0xFFFFFFFFFFFFFFFFFFFFFFFFFFFFFFFFFFFFFFFF AND DUP2 PUSH20 0xFFFFFFFFFFFFFFFFFFFFFFFFFFFFFFFFFFFFFFFF AND SUB PUSH3 0x1870 JUMPI PUSH1 0x40 MLOAD PUSH32 0x8C379A000000000000000000000000000000000000000000000000000000000 DUP2 MSTORE PUSH1 0x4 ADD PUSH3 0x1867 SWAP1 PUSH3 0x2FC9 JUMP JUMPDEST PUSH1 0x40 MLOAD DUP1 SWAP2 SUB SWAP1 REVERT JUMPDEST PUSH3 0x187B DUP2 PUSH3 0xA9D JUMP JUMPDEST ISZERO PUSH3 0x18BE JUMPI PUSH1 0x40 MLOAD PUSH32 0x8C379A000000000000000000000000000000000000000000000000000000000 DUP2 MSTORE PUSH1 0x4 ADD PUSH3 0x18B5 SWAP1 PUSH3 0x368A JUMP JUMPDEST PUSH1 0x40 MLOAD DUP1 SWAP2 SUB SWAP1 REVERT JUMPDEST PUSH1 0x1 DUP1 PUSH0 DUP4 PUSH20 0xFFFFFFFFFFFFFFFFFFFFFFFFFFFFFFFFFFFFFFFF AND PUSH20 0xFFFFFFFFFFFFFFFFFFFFFFFFFFFFFFFFFFFFFFFF AND DUP2 MSTORE PUSH1 0x20 ADD SWAP1 DUP2 MSTORE PUSH1 0x20 ADD PUSH0 KECCAK256 PUSH0 PUSH2 0x100 EXP DUP2 SLOAD DUP2 PUSH1 0xFF MUL NOT AND SWAP1 DUP4 ISZERO ISZERO MUL OR SWAP1 SSTORE POP DUP1 PUSH20 0xFFFFFFFFFFFFFFFFFFFFFFFFFFFFFFFFFFFFFFFF AND PUSH32 0x45EB8AC5344D2D3F306550FE6E969CA4190526313C512AFED851D052BF2AB2FD PUSH1 0x40 MLOAD PUSH1 0x40 MLOAD DUP1 SWAP2 SUB SWAP1 LOG2 POP JUMP JUMPDEST PUSH0 PUSH20 0xFFFFFFFFFFFFFFFFFFFFFFFFFFFFFFFFFFFFFFFF AND DUP2 PUSH20 0xFFFFFFFFFFFFFFFFFFFFFFFFFFFFFFFFFFFFFFFF AND SUB PUSH3 0x19C9 JUMPI PUSH1 0x40 MLOAD PUSH32 0x8C379A000000000000000000000000000000000000000000000000000000000 DUP2 MSTORE PUSH1 0x4 ADD PUSH3 0x19C0 SWAP1 PUSH3 0x2FC9 JUMP JUMPDEST PUSH1 0x40 MLOAD DUP1 SWAP2 SUB SWAP1 REVERT JUMPDEST PUSH0 PUSH20 0xFFFFFFFFFFFFFFFFFFFFFFFFFFFFFFFFFFFFFFFF AND PUSH1 0x3 PUSH0 CALLER PUSH20 0xFFFFFFFFFFFFFFFFFFFFFFFFFFFFFFFFFFFFFFFF AND PUSH20 0xFFFFFFFFFFFFFFFFFFFFFFFFFFFFFFFFFFFFFFFF AND DUP2 MSTORE PUSH1 0x20 ADD SWAP1 DUP2 MSTORE PUSH1 0x20 ADD PUSH0 KECCAK256 PUSH0 SWAP1 SLOAD SWAP1 PUSH2 0x100 EXP SWAP1 DIV PUSH20 0xFFFFFFFFFFFFFFFFFFFFFFFFFFFFFFFFFFFFFFFF AND PUSH20 0xFFFFFFFFFFFFFFFFFFFFFFFFFFFFFFFFFFFFFFFF AND SUB PUSH3 0x1A96 JUMPI PUSH1 0x40 MLOAD PUSH32 0x8C379A000000000000000000000000000000000000000000000000000000000 DUP2 MSTORE PUSH1 0x4 ADD PUSH3 0x1A8D SWAP1 PUSH3 0x371E JUMP JUMPDEST PUSH1 0x40 MLOAD DUP1 SWAP2 SUB SWAP1 REVERT JUMPDEST PUSH0 PUSH20 0xFFFFFFFFFFFFFFFFFFFFFFFFFFFFFFFFFFFFFFFF AND PUSH1 0x3 PUSH0 DUP4 PUSH20 0xFFFFFFFFFFFFFFFFFFFFFFFFFFFFFFFFFFFFFFFF AND PUSH20 0xFFFFFFFFFFFFFFFFFFFFFFFFFFFFFFFFFFFFFFFF AND DUP2 MSTORE PUSH1 0x20 ADD SWAP1 DUP2 MSTORE PUSH1 0x20 ADD PUSH0 KECCAK256 PUSH0 SWAP1 SLOAD SWAP1 PUSH2 0x100 EXP SWAP1 DIV PUSH20 0xFFFFFFFFFFFFFFFFFFFFFFFFFFFFFFFFFFFFFFFF AND PUSH20 0xFFFFFFFFFFFFFFFFFFFFFFFFFFFFFFFFFFFFFFFF AND EQ PUSH3 0x1B63 JUMPI PUSH1 0x40 MLOAD PUSH32 0x8C379A000000000000000000000000000000000000000000000000000000000 DUP2 MSTORE PUSH1 0x4 ADD PUSH3 0x1B5A SWAP1 PUSH3 0x378C JUMP JUMPDEST PUSH1 0x40 MLOAD DUP1 SWAP2 SUB SWAP1 REVERT JUMPDEST PUSH0 PUSH20 0xFFFFFFFFFFFFFFFFFFFFFFFFFFFFFFFFFFFFFFFF AND PUSH1 0x5 PUSH0 DUP4 PUSH20 0xFFFFFFFFFFFFFFFFFFFFFFFFFFFFFFFFFFFFFFFF AND PUSH20 0xFFFFFFFFFFFFFFFFFFFFFFFFFFFFFFFFFFFFFFFF AND DUP2 MSTORE PUSH1 0x20 ADD SWAP1 DUP2 MSTORE PUSH1 0x20 ADD PUSH0 KECCAK256 PUSH0 SWAP1 SLOAD SWAP1 PUSH2 0x100 EXP SWAP1 DIV PUSH20 0xFFFFFFFFFFFFFFFFFFFFFFFFFFFFFFFFFFFFFFFF AND PUSH20 0xFFFFFFFFFFFFFFFFFFFFFFFFFFFFFFFFFFFFFFFF AND EQ PUSH3 0x1C30 JUMPI PUSH1 0x40 MLOAD PUSH32 0x8C379A000000000000000000000000000000000000000000000000000000000 DUP2 MSTORE PUSH1 0x4 ADD PUSH3 0x1C27 SWAP1 PUSH3 0x37FA JUMP JUMPDEST PUSH1 0x40 MLOAD DUP1 SWAP2 SUB SWAP1 REVERT JUMPDEST PUSH0 PUSH1 0x3 PUSH0 CALLER PUSH20 0xFFFFFFFFFFFFFFFFFFFFFFFFFFFFFFFFFFFFFFFF AND PUSH20 0xFFFFFFFFFFFFFFFFFFFFFFFFFFFFFFFFFFFFFFFF AND DUP2 MSTORE PUSH1 0x20 ADD SWAP1 DUP2 MSTORE PUSH1 0x20 ADD PUSH0 KECCAK256 PUSH0 SWAP1 SLOAD SWAP1 PUSH2 0x100 EXP SWAP1 DIV PUSH20 0xFFFFFFFFFFFFFFFFFFFFFFFFFFFFFFFFFFFFFFFF AND SWAP1 POP PUSH1 0x65 PUSH1 0x4 PUSH0 DUP4 PUSH20 0xFFFFFFFFFFFFFFFFFFFFFFFFFFFFFFFFFFFFFFFF AND PUSH20 0xFFFFFFFFFFFFFFFFFFFFFFFFFFFFFFFFFFFFFFFF AND DUP2 MSTORE PUSH1 0x20 ADD SWAP1 DUP2 MSTORE PUSH1 0x20 ADD PUSH0 KECCAK256 DUP1 SLOAD SWAP1 POP LT PUSH3 0x1D16 JUMPI PUSH1 0x40 MLOAD PUSH32 0x8C379A000000000000000000000000000000000000000000000000000000000 DUP2 MSTORE PUSH1 0x4 ADD PUSH3 0x1D0D SWAP1 PUSH3 0x388E JUMP JUMPDEST PUSH1 0x40 MLOAD DUP1 SWAP2 SUB SWAP1 REVERT JUMPDEST DUP1 PUSH1 0x3 PUSH0 DUP5 PUSH20 0xFFFFFFFFFFFFFFFFFFFFFFFFFFFFFFFFFFFFFFFF AND PUSH20 0xFFFFFFFFFFFFFFFFFFFFFFFFFFFFFFFFFFFFFFFF AND DUP2 MSTORE PUSH1 0x20 ADD SWAP1 DUP2 MSTORE PUSH1 0x20 ADD PUSH0 KECCAK256 PUSH0 PUSH2 0x100 EXP DUP2 SLOAD DUP2 PUSH20 0xFFFFFFFFFFFFFFFFFFFFFFFFFFFFFFFFFFFFFFFF MUL NOT AND SWAP1 DUP4 PUSH20 0xFFFFFFFFFFFFFFFFFFFFFFFFFFFFFFFFFFFFFFFF AND MUL OR SWAP1 SSTORE POP PUSH1 0x4 PUSH0 DUP3 PUSH20 0xFFFFFFFFFFFFFFFFFFFFFFFFFFFFFFFFFFFFFFFF AND PUSH20 0xFFFFFFFFFFFFFFFFFFFFFFFFFFFFFFFFFFFFFFFF AND DUP2 MSTORE PUSH1 0x20 ADD SWAP1 DUP2 MSTORE PUSH1 0x20 ADD PUSH0 KECCAK256 DUP3 SWAP1 DUP1 PUSH1 0x1 DUP2 SLOAD ADD DUP1 DUP3 SSTORE DUP1 SWAP2 POP POP PUSH1 0x1 SWAP1 SUB SWAP1 PUSH0 MSTORE PUSH1 0x20 PUSH0 KECCAK256 ADD PUSH0 SWAP1 SWAP2 SWAP1 SWAP2 SWAP1 SWAP2 PUSH2 0x100 EXP DUP2 SLOAD DUP2 PUSH20 0xFFFFFFFFFFFFFFFFFFFFFFFFFFFFFFFFFFFFFFFF MUL NOT AND SWAP1 DUP4 PUSH20 0xFFFFFFFFFFFFFFFFFFFFFFFFFFFFFFFFFFFFFFFF AND MUL OR SWAP1 SSTORE POP DUP1 PUSH20 0xFFFFFFFFFFFFFFFFFFFFFFFFFFFFFFFFFFFFFFFF AND DUP3 PUSH20 0xFFFFFFFFFFFFFFFFFFFFFFFFFFFFFFFFFFFFFFFF AND PUSH32 0x8E0C709111388F5480579514D86663489AB1F206FE6DA1A0C4D03AC8C318B3C6 PUSH1 0x40 MLOAD PUSH1 0x40 MLOAD DUP1 SWAP2 SUB SWAP1 LOG3 POP POP JUMP JUMPDEST PUSH3 0x1E94 PUSH3 0x2638 JUMP JUMPDEST PUSH0 PUSH20 0xFFFFFFFFFFFFFFFFFFFFFFFFFFFFFFFFFFFFFFFF AND DUP2 PUSH20 0xFFFFFFFFFFFFFFFFFFFFFFFFFFFFFFFFFFFFFFFF AND SUB PUSH3 0x1F07 JUMPI PUSH0 PUSH1 0x40 MLOAD PUSH32 0x1E4FBDF700000000000000000000000000000000000000000000000000000000 DUP2 MSTORE PUSH1 0x4 ADD PUSH3 0x1EFE SWAP2 SWAP1 PUSH3 0x2877 JUMP JUMPDEST PUSH1 0x40 MLOAD DUP1 SWAP2 SUB SWAP1 REVERT JUMPDEST PUSH3 0x1F12 DUP2 PUSH3 0x26C8 JUMP JUMPDEST POP JUMP JUMPDEST PUSH0 PUSH3 0x1F20 PUSH3 0x2638 JUMP JUMPDEST PUSH0 PUSH20 0xFFFFFFFFFFFFFFFFFFFFFFFFFFFFFFFFFFFFFFFF AND DUP5 PUSH20 0xFFFFFFFFFFFFFFFFFFFFFFFFFFFFFFFFFFFFFFFF AND SUB PUSH3 0x1F91 JUMPI PUSH1 0x40 MLOAD PUSH32 0x8C379A000000000000000000000000000000000000000000000000000000000 DUP2 MSTORE PUSH1 0x4 ADD PUSH3 0x1F88 SWAP1 PUSH3 0x2FC9 JUMP JUMPDEST PUSH1 0x40 MLOAD DUP1 SWAP2 SUB SWAP1 REVERT JUMPDEST PUSH1 0x40 MLOAD PUSH1 0x20 ADD PUSH3 0x1FA2 SWAP1 PUSH3 0x3010 JUMP JUMPDEST PUSH1 0x40 MLOAD PUSH1 0x20 DUP2 DUP4 SUB SUB DUP2 MSTORE SWAP1 PUSH1 0x40 MSTORE DUP1 MLOAD SWAP1 PUSH1 0x20 ADD KECCAK256 DUP4 PUSH1 0x40 MLOAD PUSH1 0x20 ADD PUSH3 0x1FCB SWAP2 SWAP1 PUSH3 0x30A4 JUMP JUMPDEST PUSH1 0x40 MLOAD PUSH1 0x20 DUP2 DUP4 SUB SUB DUP2 MSTORE SWAP1 PUSH1 0x40 MSTORE DUP1 MLOAD SWAP1 PUSH1 0x20 ADD KECCAK256 SUB PUSH3 0x2024 JUMPI PUSH1 0x40 MLOAD PUSH32 0x8C379A000000000000000000000000000000000000000000000000000000000 DUP2 MSTORE PUSH1 0x4 ADD PUSH3 0x201B SWAP1 PUSH3 0x3114 JUMP JUMPDEST PUSH1 0x40 MLOAD DUP1 SWAP2 SUB SWAP1 REVERT JUMPDEST PUSH0 DUP4 PUSH1 0x40 MLOAD PUSH1 0x20 ADD PUSH3 0x2038 SWAP2 SWAP1 PUSH3 0x3511 JUMP JUMPDEST PUSH1 0x40 MLOAD PUSH1 0x20 DUP2 DUP4 SUB SUB DUP2 MSTORE SWAP1 PUSH1 0x40 MSTORE SWAP1 POP PUSH1 0x2 DUP2 PUSH1 0x40 MLOAD PUSH3 0x205B SWAP2 SWAP1 PUSH3 0x31B9 JUMP JUMPDEST SWAP1 DUP2 MSTORE PUSH1 0x20 ADD PUSH1 0x40 MLOAD DUP1 SWAP2 SUB SWAP1 KECCAK256 PUSH0 SWAP1 SLOAD SWAP1 PUSH2 0x100 EXP SWAP1 DIV PUSH1 0xFF AND ISZERO PUSH3 0x20B9 JUMPI PUSH1 0x40 MLOAD PUSH32 0x8C379A000000000000000000000000000000000000000000000000000000000 DUP2 MSTORE PUSH1 0x4 ADD PUSH3 0x20B0 SWAP1 PUSH3 0x321F JUMP JUMPDEST PUSH1 0x40 MLOAD DUP1 SWAP2 SUB SWAP1 REVERT JUMPDEST PUSH0 PUSH20 0xFFFFFFFFFFFFFFFFFFFFFFFFFFFFFFFFFFFFFFFF AND PUSH1 0x3 PUSH0 DUP8 PUSH20 0xFFFFFFFFFFFFFFFFFFFFFFFFFFFFFFFFFFFFFFFF AND PUSH20 0xFFFFFFFFFFFFFFFFFFFFFFFFFFFFFFFFFFFFFFFF AND DUP2 MSTORE PUSH1 0x20 ADD SWAP1 DUP2 MSTORE PUSH1 0x20 ADD PUSH0 KECCAK256 PUSH0 SWAP1 SLOAD SWAP1 PUSH2 0x100 EXP SWAP1 DIV PUSH20 0xFFFFFFFFFFFFFFFFFFFFFFFFFFFFFFFFFFFFFFFF AND PUSH20 0xFFFFFFFFFFFFFFFFFFFFFFFFFFFFFFFFFFFFFFFF AND EQ PUSH3 0x2186 JUMPI PUSH1 0x40 MLOAD PUSH32 0x8C379A000000000000000000000000000000000000000000000000000000000 DUP2 MSTORE PUSH1 0x4 ADD PUSH3 0x217D SWAP1 PUSH3 0x35AE JUMP JUMPDEST PUSH1 0x40 MLOAD DUP1 SWAP2 SUB SWAP1 REVERT JUMPDEST PUSH0 DUP4 MLOAD GT PUSH3 0x21CC JUMPI PUSH1 0x40 MLOAD PUSH32 0x8C379A000000000000000000000000000000000000000000000000000000000 DUP2 MSTORE PUSH1 0x4 ADD PUSH3 0x21C3 SWAP1 PUSH3 0x3922 JUMP JUMPDEST PUSH1 0x40 MLOAD DUP1 SWAP2 SUB SWAP1 REVERT JUMPDEST PUSH0 PUSH3 0x21FA DUP3 PUSH32 0x0 ADDRESS PUSH3 0x25A8 JUMP JUMPDEST SWAP1 POP PUSH0 JUMPDEST DUP5 MLOAD DUP2 LT ISZERO PUSH3 0x2349 JUMPI DUP7 PUSH1 0x40 MLOAD PUSH1 0x20 ADD PUSH3 0x221B SWAP2 SWAP1 PUSH3 0x2877 JUMP JUMPDEST PUSH1 0x40 MLOAD PUSH1 0x20 DUP2 DUP4 SUB SUB DUP2 MSTORE SWAP1 PUSH1 0x40 MSTORE DUP1 MLOAD SWAP1 PUSH1 0x20 ADD KECCAK256 DUP6 DUP3 DUP2 MLOAD DUP2 LT PUSH3 0x2247 JUMPI PUSH3 0x2246 PUSH3 0x33D5 JUMP JUMPDEST JUMPDEST PUSH1 0x20 MUL PUSH1 0x20 ADD ADD MLOAD SUB PUSH3 0x2292 JUMPI PUSH1 0x40 MLOAD PUSH32 0x8C379A000000000000000000000000000000000000000000000000000000000 DUP2 MSTORE PUSH1 0x4 ADD PUSH3 0x2289 SWAP1 PUSH3 0x39B6 JUMP JUMPDEST PUSH1 0x40 MLOAD DUP1 SWAP2 SUB SWAP1 REVERT JUMPDEST DUP2 PUSH20 0xFFFFFFFFFFFFFFFFFFFFFFFFFFFFFFFFFFFFFFFF AND PUSH4 0x1D381240 DUP7 DUP4 DUP2 MLOAD DUP2 LT PUSH3 0x22C4 JUMPI PUSH3 0x22C3 PUSH3 0x33D5 JUMP JUMPDEST JUMPDEST PUSH1 0x20 MUL PUSH1 0x20 ADD ADD MLOAD PUSH1 0x1 DUP1 PUSH1 0x40 MLOAD DUP5 PUSH4 0xFFFFFFFF AND PUSH1 0xE0 SHL DUP2 MSTORE PUSH1 0x4 ADD PUSH3 0x22EF SWAP4 SWAP3 SWAP2 SWAP1 PUSH3 0x3A31 JUMP JUMPDEST PUSH1 0x20 PUSH1 0x40 MLOAD DUP1 DUP4 SUB DUP2 PUSH0 DUP8 GAS CALL ISZERO DUP1 ISZERO PUSH3 0x230C JUMPI RETURNDATASIZE PUSH0 DUP1 RETURNDATACOPY RETURNDATASIZE PUSH0 REVERT JUMPDEST POP POP POP POP PUSH1 0x40 MLOAD RETURNDATASIZE PUSH1 0x1F NOT PUSH1 0x1F DUP3 ADD AND DUP3 ADD DUP1 PUSH1 0x40 MSTORE POP DUP2 ADD SWAP1 PUSH3 0x2332 SWAP2 SWAP1 PUSH3 0x3A9B JUMP JUMPDEST POP DUP1 DUP1 PUSH3 0x2340 SWAP1 PUSH3 0x349F JUMP JUMPDEST SWAP2 POP POP PUSH3 0x21FE JUMP JUMPDEST POP DUP1 PUSH20 0xFFFFFFFFFFFFFFFFFFFFFFFFFFFFFFFFFFFFFFFF AND PUSH4 0x53D413C5 ADDRESS PUSH1 0x40 MLOAD PUSH1 0x20 ADD PUSH3 0x2379 SWAP2 SWAP1 PUSH3 0x2877 JUMP JUMPDEST PUSH1 0x40 MLOAD PUSH1 0x20 DUP2 DUP4 SUB SUB DUP2 MSTORE SWAP1 PUSH1 0x40 MSTORE DUP1 MLOAD SWAP1 PUSH1 0x20 ADD KECCAK256 PUSH1 0x1 PUSH1 0x40 MLOAD DUP4 PUSH4 0xFFFFFFFF AND PUSH1 0xE0 SHL DUP2 MSTORE PUSH1 0x4 ADD PUSH3 0x23B0 SWAP3 SWAP2 SWAP1 PUSH3 0x3ACB JUMP JUMPDEST PUSH1 0x20 PUSH1 0x40 MLOAD DUP1 DUP4 SUB DUP2 PUSH0 DUP8 GAS CALL ISZERO DUP1 ISZERO PUSH3 0x23CD JUMPI RETURNDATASIZE PUSH0 DUP1 RETURNDATACOPY RETURNDATASIZE PUSH0 REVERT JUMPDEST POP POP POP POP PUSH1 0x40 MLOAD RETURNDATASIZE PUSH1 0x1F NOT PUSH1 0x1F DUP3 ADD AND DUP3 ADD DUP1 PUSH1 0x40 MSTORE POP DUP2 ADD SWAP1 PUSH3 0x23F3 SWAP2 SWAP1 PUSH3 0x3A9B JUMP JUMPDEST POP PUSH1 0x1 PUSH1 0x2 DUP4 PUSH1 0x40 MLOAD PUSH3 0x2408 SWAP2 SWAP1 PUSH3 0x31B9 JUMP JUMPDEST SWAP1 DUP2 MSTORE PUSH1 0x20 ADD PUSH1 0x40 MLOAD DUP1 SWAP2 SUB SWAP1 KECCAK256 PUSH0 PUSH2 0x100 EXP DUP2 SLOAD DUP2 PUSH1 0xFF MUL NOT AND SWAP1 DUP4 ISZERO ISZERO MUL OR SWAP1 SSTORE POP DUP1 PUSH1 0x3 PUSH0 DUP9 PUSH20 0xFFFFFFFFFFFFFFFFFFFFFFFFFFFFFFFFFFFFFFFF AND PUSH20 0xFFFFFFFFFFFFFFFFFFFFFFFFFFFFFFFFFFFFFFFF AND DUP2 MSTORE PUSH1 0x20 ADD SWAP1 DUP2 MSTORE PUSH1 0x20 ADD PUSH0 KECCAK256 PUSH0 PUSH2 0x100 EXP DUP2 SLOAD DUP2 PUSH20 0xFFFFFFFFFFFFFFFFFFFFFFFFFFFFFFFFFFFFFFFF MUL NOT AND SWAP1 DUP4 PUSH20 0xFFFFFFFFFFFFFFFFFFFFFFFFFFFFFFFFFFFFFFFF AND MUL OR SWAP1 SSTORE POP PUSH1 0x4 PUSH0 DUP3 PUSH20 0xFFFFFFFFFFFFFFFFFFFFFFFFFFFFFFFFFFFFFFFF AND PUSH20 0xFFFFFFFFFFFFFFFFFFFFFFFFFFFFFFFFFFFFFFFF AND DUP2 MSTORE PUSH1 0x20 ADD SWAP1 DUP2 MSTORE PUSH1 0x20 ADD PUSH0 KECCAK256 DUP7 SWAP1 DUP1 PUSH1 0x1 DUP2 SLOAD ADD DUP1 DUP3 SSTORE DUP1 SWAP2 POP POP PUSH1 0x1 SWAP1 SUB SWAP1 PUSH0 MSTORE PUSH1 0x20 PUSH0 KECCAK256 ADD PUSH0 SWAP1 SWAP2 SWAP1 SWAP2 SWAP1 SWAP2 PUSH2 0x100 EXP DUP2 SLOAD DUP2 PUSH20 0xFFFFFFFFFFFFFFFFFFFFFFFFFFFFFFFFFFFFFFFF MUL NOT AND SWAP1 DUP4 PUSH20 0xFFFFFFFFFFFFFFFFFFFFFFFFFFFFFFFFFFFFFFFF AND MUL OR SWAP1 SSTORE POP DUP1 PUSH20 0xFFFFFFFFFFFFFFFFFFFFFFFFFFFFFFFFFFFFFFFF AND DUP7 PUSH20 0xFFFFFFFFFFFFFFFFFFFFFFFFFFFFFFFFFFFFFFFF AND PUSH32 0x8E0C709111388F5480579514D86663489AB1F206FE6DA1A0C4D03AC8C318B3C6 PUSH1 0x40 MLOAD PUSH1 0x40 MLOAD DUP1 SWAP2 SUB SWAP1 LOG3 DUP1 SWAP3 POP POP POP SWAP4 SWAP3 POP POP POP JUMP JUMPDEST PUSH0 DUP1 PUSH1 0x40 MLOAD DUP1 PUSH1 0x20 ADD PUSH3 0x25BC SWAP1 PUSH3 0x2826 JUMP JUMPDEST PUSH1 0x20 DUP3 ADD DUP2 SUB DUP3 MSTORE PUSH1 0x1F NOT PUSH1 0x1F DUP3 ADD AND PUSH1 0x40 MSTORE POP SWAP1 POP PUSH0 DUP5 DUP5 PUSH1 0x40 MLOAD PUSH1 0x20 ADD PUSH3 0x25E8 SWAP3 SWAP2 SWAP1 PUSH3 0x3AF6 JUMP JUMPDEST PUSH1 0x40 MLOAD PUSH1 0x20 DUP2 DUP4 SUB SUB DUP2 MSTORE SWAP1 PUSH1 0x40 MSTORE SWAP1 POP PUSH0 DUP3 DUP3 PUSH1 0x40 MLOAD PUSH1 0x20 ADD PUSH3 0x260F SWAP3 SWAP2 SWAP1 PUSH3 0x3B6B JUMP JUMPDEST PUSH1 0x40 MLOAD PUSH1 0x20 DUP2 DUP4 SUB SUB DUP2 MSTORE SWAP1 PUSH1 0x40 MSTORE SWAP1 POP PUSH3 0x262C DUP8 DUP3 PUSH3 0x2789 JUMP JUMPDEST SWAP4 POP POP POP POP SWAP4 SWAP3 POP POP POP JUMP JUMPDEST PUSH3 0x2642 PUSH3 0x281F JUMP JUMPDEST PUSH20 0xFFFFFFFFFFFFFFFFFFFFFFFFFFFFFFFFFFFFFFFF AND PUSH3 0x2662 PUSH3 0x1218 JUMP JUMPDEST PUSH20 0xFFFFFFFFFFFFFFFFFFFFFFFFFFFFFFFFFFFFFFFF AND EQ PUSH3 0x26C6 JUMPI PUSH3 0x2688 PUSH3 0x281F JUMP JUMPDEST PUSH1 0x40 MLOAD PUSH32 0x118CDAA700000000000000000000000000000000000000000000000000000000 DUP2 MSTORE PUSH1 0x4 ADD PUSH3 0x26BD SWAP2 SWAP1 PUSH3 0x2877 JUMP JUMPDEST PUSH1 0x40 MLOAD DUP1 SWAP2 SUB SWAP1 REVERT JUMPDEST JUMP JUMPDEST PUSH0 DUP1 PUSH0 SWAP1 SLOAD SWAP1 PUSH2 0x100 EXP SWAP1 DIV PUSH20 0xFFFFFFFFFFFFFFFFFFFFFFFFFFFFFFFFFFFFFFFF AND SWAP1 POP DUP2 PUSH0 DUP1 PUSH2 0x100 EXP DUP2 SLOAD DUP2 PUSH20 0xFFFFFFFFFFFFFFFFFFFFFFFFFFFFFFFFFFFFFFFF MUL NOT AND SWAP1 DUP4 PUSH20 0xFFFFFFFFFFFFFFFFFFFFFFFFFFFFFFFFFFFFFFFF AND MUL OR SWAP1 SSTORE POP DUP2 PUSH20 0xFFFFFFFFFFFFFFFFFFFFFFFFFFFFFFFFFFFFFFFF AND DUP2 PUSH20 0xFFFFFFFFFFFFFFFFFFFFFFFFFFFFFFFFFFFFFFFF AND PUSH32 0x8BE0079C531659141344CD1FD0A4F28419497F9722A3DAAFE3B4186F6B6457E0 PUSH1 0x40 MLOAD PUSH1 0x40 MLOAD DUP1 SWAP2 SUB SWAP1 LOG3 POP POP JUMP JUMPDEST PUSH0 DUP1 DUP4 PUSH1 0x40 MLOAD PUSH1 0x20 ADD PUSH3 0x279E SWAP2 SWAP1 PUSH3 0x31B9 JUMP JUMPDEST PUSH1 0x40 MLOAD PUSH1 0x20 DUP2 DUP4 SUB SUB DUP2 MSTORE SWAP1 PUSH1 0x40 MSTORE DUP1 MLOAD SWAP1 PUSH1 0x20 ADD KECCAK256 SWAP1 POP PUSH0 DUP4 PUSH1 0x20 ADD DUP5 MLOAD DUP4 DUP2 DUP4 PUSH0 CREATE2 SWAP3 POP DUP3 EXTCODESIZE PUSH3 0x27CF JUMPI PUSH0 DUP1 REVERT JUMPDEST POP POP DUP1 PUSH20 0xFFFFFFFFFFFFFFFFFFFFFFFFFFFFFFFFFFFFFFFF AND PUSH32 0xF40FCEC21964FFB566044D083B4073F29F7F7929110EA19E1B3EBE375D89055E PUSH1 0x40 MLOAD PUSH1 0x40 MLOAD DUP1 SWAP2 SUB SWAP1 LOG2 DUP1 SWAP3 POP POP POP SWAP3 SWAP2 POP POP JUMP JUMPDEST PUSH0 CALLER SWAP1 POP SWAP1 JUMP JUMPDEST PUSH2 0x73C DUP1 PUSH3 0x3B93 DUP4 CODECOPY ADD SWAP1 JUMP JUMPDEST PUSH0 PUSH20 0xFFFFFFFFFFFFFFFFFFFFFFFFFFFFFFFFFFFFFFFF DUP3 AND SWAP1 POP SWAP2 SWAP1 POP JUMP JUMPDEST PUSH0 PUSH3 0x285F DUP3 PUSH3 0x2834 JUMP JUMPDEST SWAP1 POP SWAP2 SWAP1 POP JUMP JUMPDEST PUSH3 0x2871 DUP2 PUSH3 0x2853 JUMP JUMPDEST DUP3 MSTORE POP POP JUMP JUMPDEST PUSH0 PUSH1 0x20 DUP3 ADD SWAP1 POP PUSH3 0x288C PUSH0 DUP4 ADD DUP5 PUSH3 0x2866 JUMP JUMPDEST SWAP3 SWAP2 POP POP JUMP JUMPDEST PUSH0 PUSH1 0x40 MLOAD SWAP1 POP SWAP1 JUMP JUMPDEST PUSH0 DUP1 REVERT JUMPDEST PUSH0 DUP1 REVERT JUMPDEST PUSH3 0x28AE DUP2 PUSH3 0x2853 JUMP JUMPDEST DUP2 EQ PUSH3 0x28B9 JUMPI PUSH0 DUP1 REVERT JUMPDEST POP JUMP JUMPDEST PUSH0 DUP2 CALLDATALOAD SWAP1 POP PUSH3 0x28CC DUP2 PUSH3 0x28A3 JUMP JUMPDEST SWAP3 SWAP2 POP POP JUMP JUMPDEST PUSH0 PUSH1 0x20 DUP3 DUP5 SUB SLT ISZERO PUSH3 0x28EA JUMPI PUSH3 0x28E9 PUSH3 0x289B JUMP JUMPDEST JUMPDEST PUSH0 PUSH3 0x28F9 DUP5 DUP3 DUP6 ADD PUSH3 0x28BC JUMP JUMPDEST SWAP2 POP POP SWAP3 SWAP2 POP POP JUMP JUMPDEST PUSH0 DUP1 REVERT JUMPDEST PUSH0 DUP1 REVERT JUMPDEST PUSH0 DUP1 REVERT JUMPDEST PUSH0 DUP1 DUP4 PUSH1 0x1F DUP5 ADD SLT PUSH3 0x2926 JUMPI PUSH3 0x2925 PUSH3 0x2902 JUMP JUMPDEST JUMPDEST DUP3 CALLDATALOAD SWAP1 POP PUSH8 0xFFFFFFFFFFFFFFFF DUP2 GT ISZERO PUSH3 0x2946 JUMPI PUSH3 0x2945 PUSH3 0x2906 JUMP JUMPDEST JUMPDEST PUSH1 0x20 DUP4 ADD SWAP2 POP DUP4 PUSH1 0x1 DUP3 MUL DUP4 ADD GT ISZERO PUSH3 0x2965 JUMPI PUSH3 0x2964 PUSH3 0x290A JUMP JUMPDEST JUMPDEST SWAP3 POP SWAP3 SWAP1 POP JUMP JUMPDEST PUSH0 DUP1 PUSH1 0x20 DUP4 DUP6 SUB SLT ISZERO PUSH3 0x2985 JUMPI PUSH3 0x2984 PUSH3 0x289B JUMP JUMPDEST JUMPDEST PUSH0 DUP4 ADD CALLDATALOAD PUSH8 0xFFFFFFFFFFFFFFFF DUP2 GT ISZERO PUSH3 0x29A5 JUMPI PUSH3 0x29A4 PUSH3 0x289F JUMP JUMPDEST JUMPDEST PUSH3 0x29B3 DUP6 DUP3 DUP7 ADD PUSH3 0x290E JUMP JUMPDEST SWAP3 POP SWAP3 POP POP SWAP3 POP SWAP3 SWAP1 POP JUMP JUMPDEST PUSH0 DUP2 ISZERO ISZERO SWAP1 POP SWAP2 SWAP1 POP JUMP JUMPDEST PUSH3 0x29D5 DUP2 PUSH3 0x29BF JUMP JUMPDEST DUP3 MSTORE POP POP JUMP JUMPDEST PUSH0 PUSH1 0x20 DUP3 ADD SWAP1 POP PUSH3 0x29F0 PUSH0 DUP4 ADD DUP5 PUSH3 0x29CA JUMP JUMPDEST SWAP3 SWAP2 POP POP JUMP JUMPDEST PUSH0 DUP1 REVERT JUMPDEST PUSH0 PUSH1 0x1F NOT PUSH1 0x1F DUP4 ADD AND SWAP1 POP SWAP2 SWAP1 POP JUMP JUMPDEST PUSH32 0x4E487B7100000000000000000000000000000000000000000000000000000000 PUSH0 MSTORE PUSH1 0x41 PUSH1 0x4 MSTORE PUSH1 0x24 PUSH0 REVERT JUMPDEST PUSH3 0x2A42 DUP3 PUSH3 0x29FA JUMP JUMPDEST DUP2 ADD DUP2 DUP2 LT PUSH8 0xFFFFFFFFFFFFFFFF DUP3 GT OR ISZERO PUSH3 0x2A64 JUMPI PUSH3 0x2A63 PUSH3 0x2A0A JUMP JUMPDEST JUMPDEST DUP1 PUSH1 0x40 MSTORE POP POP POP JUMP JUMPDEST PUSH0 PUSH3 0x2A78 PUSH3 0x2892 JUMP JUMPDEST SWAP1 POP PUSH3 0x2A86 DUP3 DUP3 PUSH3 0x2A37 JUMP JUMPDEST SWAP2 SWAP1 POP JUMP JUMPDEST PUSH0 PUSH8 0xFFFFFFFFFFFFFFFF DUP3 GT ISZERO PUSH3 0x2AA8 JUMPI PUSH3 0x2AA7 PUSH3 0x2A0A JUMP JUMPDEST JUMPDEST PUSH3 0x2AB3 DUP3 PUSH3 0x29FA JUMP JUMPDEST SWAP1 POP PUSH1 0x20 DUP2 ADD SWAP1 POP SWAP2 SWAP1 POP JUMP JUMPDEST DUP3 DUP2 DUP4 CALLDATACOPY PUSH0 DUP4 DUP4 ADD MSTORE POP POP POP JUMP JUMPDEST PUSH0 PUSH3 0x2AE4 PUSH3 0x2ADE DUP5 PUSH3 0x2A8B JUMP JUMPDEST PUSH3 0x2A6D JUMP JUMPDEST SWAP1 POP DUP3 DUP2 MSTORE PUSH1 0x20 DUP2 ADD DUP5 DUP5 DUP5 ADD GT ISZERO PUSH3 0x2B03 JUMPI PUSH3 0x2B02 PUSH3 0x29F6 JUMP JUMPDEST JUMPDEST PUSH3 0x2B10 DUP5 DUP3 DUP6 PUSH3 0x2AC0 JUMP JUMPDEST POP SWAP4 SWAP3 POP POP POP JUMP JUMPDEST PUSH0 DUP3 PUSH1 0x1F DUP4 ADD SLT PUSH3 0x2B2F JUMPI PUSH3 0x2B2E PUSH3 0x2902 JUMP JUMPDEST JUMPDEST DUP2 CALLDATALOAD PUSH3 0x2B41 DUP5 DUP3 PUSH1 0x20 DUP7 ADD PUSH3 0x2ACE JUMP JUMPDEST SWAP2 POP POP SWAP3 SWAP2 POP POP JUMP JUMPDEST PUSH0 DUP1 PUSH0 PUSH1 0x60 DUP5 DUP7 SUB SLT ISZERO PUSH3 0x2B64 JUMPI PUSH3 0x2B63 PUSH3 0x289B JUMP JUMPDEST JUMPDEST PUSH0 PUSH3 0x2B73 DUP7 DUP3 DUP8 ADD PUSH3 0x28BC JUMP JUMPDEST SWAP4 POP POP PUSH1 0x20 PUSH3 0x2B86 DUP7 DUP3 DUP8 ADD PUSH3 0x28BC JUMP JUMPDEST SWAP3 POP POP PUSH1 0x40 DUP5 ADD CALLDATALOAD PUSH8 0xFFFFFFFFFFFFFFFF DUP2 GT ISZERO PUSH3 0x2BAA JUMPI PUSH3 0x2BA9 PUSH3 0x289F JUMP JUMPDEST JUMPDEST PUSH3 0x2BB8 DUP7 DUP3 DUP8 ADD PUSH3 0x2B18 JUMP JUMPDEST SWAP2 POP POP SWAP3 POP SWAP3 POP SWAP3 JUMP JUMPDEST PUSH0 DUP2 MLOAD SWAP1 POP SWAP2 SWAP1 POP JUMP JUMPDEST PUSH0 DUP3 DUP3 MSTORE PUSH1 0x20 DUP3 ADD SWAP1 POP SWAP3 SWAP2 POP POP JUMP JUMPDEST PUSH0 DUP2 SWAP1 POP PUSH1 0x20 DUP3 ADD SWAP1 POP SWAP2 SWAP1 POP JUMP JUMPDEST PUSH3 0x2BF6 DUP2 PUSH3 0x2853 JUMP JUMPDEST DUP3 MSTORE POP POP JUMP JUMPDEST PUSH0 PUSH3 0x2C09 DUP4 DUP4 PUSH3 0x2BEB JUMP JUMPDEST PUSH1 0x20 DUP4 ADD SWAP1 POP SWAP3 SWAP2 POP POP JUMP JUMPDEST PUSH0 PUSH1 0x20 DUP3 ADD SWAP1 POP SWAP2 SWAP1 POP JUMP JUMPDEST PUSH0 PUSH3 0x2C2D DUP3 PUSH3 0x2BC2 JUMP JUMPDEST PUSH3 0x2C39 DUP2 DUP6 PUSH3 0x2BCC JUMP JUMPDEST SWAP4 POP PUSH3 0x2C46 DUP4 PUSH3 0x2BDC JUMP JUMPDEST DUP1 PUSH0 JUMPDEST DUP4 DUP2 LT ISZERO PUSH3 0x2C7C JUMPI DUP2 MLOAD PUSH3 0x2C60 DUP9 DUP3 PUSH3 0x2BFC JUMP JUMPDEST SWAP8 POP PUSH3 0x2C6D DUP4 PUSH3 0x2C15 JUMP JUMPDEST SWAP3 POP POP PUSH1 0x1 DUP2 ADD SWAP1 POP PUSH3 0x2C49 JUMP JUMPDEST POP DUP6 SWAP4 POP POP POP POP SWAP3 SWAP2 POP POP JUMP JUMPDEST PUSH0 PUSH1 0x20 DUP3 ADD SWAP1 POP DUP2 DUP2 SUB PUSH0 DUP4 ADD MSTORE PUSH3 0x2CA3 DUP2 DUP5 PUSH3 0x2C21 JUMP JUMPDEST SWAP1 POP SWAP3 SWAP2 POP POP JUMP JUMPDEST PUSH0 DUP1 PUSH1 0x40 DUP4 DUP6 SUB SLT ISZERO PUSH3 0x2CC4 JUMPI PUSH3 0x2CC3 PUSH3 0x289B JUMP JUMPDEST JUMPDEST PUSH0 PUSH3 0x2CD3 DUP6 DUP3 DUP7 ADD PUSH3 0x28BC JUMP JUMPDEST SWAP3 POP POP PUSH1 0x20 DUP4 ADD CALLDATALOAD PUSH8 0xFFFFFFFFFFFFFFFF DUP2 GT ISZERO PUSH3 0x2CF7 JUMPI PUSH3 0x2CF6 PUSH3 0x289F JUMP JUMPDEST JUMPDEST PUSH3 0x2D05 DUP6 DUP3 DUP7 ADD PUSH3 0x2B18 JUMP JUMPDEST SWAP2 POP POP SWAP3 POP SWAP3 SWAP1 POP JUMP JUMPDEST PUSH0 PUSH8 0xFFFFFFFFFFFFFFFF DUP3 GT ISZERO PUSH3 0x2D2C JUMPI PUSH3 0x2D2B PUSH3 0x2A0A JUMP JUMPDEST JUMPDEST PUSH1 0x20 DUP3 MUL SWAP1 POP PUSH1 0x20 DUP2 ADD SWAP1 POP SWAP2 SWAP1 POP JUMP JUMPDEST PUSH0 DUP2 SWAP1 POP SWAP2 SWAP1 POP JUMP JUMPDEST PUSH3 0x2D51 DUP2 PUSH3 0x2D3D JUMP JUMPDEST DUP2 EQ PUSH3 0x2D5C JUMPI PUSH0 DUP1 REVERT JUMPDEST POP JUMP JUMPDEST PUSH0 DUP2 CALLDATALOAD SWAP1 POP PUSH3 0x2D6F DUP2 PUSH3 0x2D46 JUMP JUMPDEST SWAP3 SWAP2 POP POP JUMP JUMPDEST PUSH0 PUSH3 0x2D8B PUSH3 0x2D85 DUP5 PUSH3 0x2D0F JUMP JUMPDEST PUSH3 0x2A6D JUMP JUMPDEST SWAP1 POP DUP1 DUP4 DUP3 MSTORE PUSH1 0x20 DUP3 ADD SWAP1 POP PUSH1 0x20 DUP5 MUL DUP4 ADD DUP6 DUP2 GT ISZERO PUSH3 0x2DB1 JUMPI PUSH3 0x2DB0 PUSH3 0x290A JUMP JUMPDEST JUMPDEST DUP4 JUMPDEST DUP2 DUP2 LT ISZERO PUSH3 0x2DDE JUMPI DUP1 PUSH3 0x2DC9 DUP9 DUP3 PUSH3 0x2D5F JUMP JUMPDEST DUP5 MSTORE PUSH1 0x20 DUP5 ADD SWAP4 POP POP PUSH1 0x20 DUP2 ADD SWAP1 POP PUSH3 0x2DB3 JUMP JUMPDEST POP POP POP SWAP4 SWAP3 POP POP POP JUMP JUMPDEST PUSH0 DUP3 PUSH1 0x1F DUP4 ADD SLT PUSH3 0x2DFF JUMPI PUSH3 0x2DFE PUSH3 0x2902 JUMP JUMPDEST JUMPDEST DUP2 CALLDATALOAD PUSH3 0x2E11 DUP5 DUP3 PUSH1 0x20 DUP7 ADD PUSH3 0x2D75 JUMP JUMPDEST SWAP2 POP POP SWAP3 SWAP2 POP POP JUMP JUMPDEST PUSH0 DUP1 PUSH0 PUSH1 0x60 DUP5 DUP7 SUB SLT ISZERO PUSH3 0x2E34 JUMPI PUSH3 0x2E33 PUSH3 0x289B JUMP JUMPDEST JUMPDEST PUSH0 PUSH3 0x2E43 DUP7 DUP3 DUP8 ADD PUSH3 0x28BC JUMP JUMPDEST SWAP4 POP POP PUSH1 0x20 DUP5 ADD CALLDATALOAD PUSH8 0xFFFFFFFFFFFFFFFF DUP2 GT ISZERO PUSH3 0x2E67 JUMPI PUSH3 0x2E66 PUSH3 0x289F JUMP JUMPDEST JUMPDEST PUSH3 0x2E75 DUP7 DUP3 DUP8 ADD PUSH3 0x2B18 JUMP JUMPDEST SWAP3 POP POP PUSH1 0x40 DUP5 ADD CALLDATALOAD PUSH8 0xFFFFFFFFFFFFFFFF DUP2 GT ISZERO PUSH3 0x2E99 JUMPI PUSH3 0x2E98 PUSH3 0x289F JUMP JUMPDEST JUMPDEST PUSH3 0x2EA7 DUP7 DUP3 DUP8 ADD PUSH3 0x2DE8 JUMP JUMPDEST SWAP2 POP POP SWAP3 POP SWAP3 POP SWAP3 JUMP JUMPDEST PUSH0 DUP2 SWAP1 POP SWAP3 SWAP2 POP POP JUMP JUMPDEST PUSH0 PUSH3 0x2EC8 DUP4 DUP6 PUSH3 0x2EB1 JUMP JUMPDEST SWAP4 POP PUSH3 0x2ED7 DUP4 DUP6 DUP5 PUSH3 0x2AC0 JUMP JUMPDEST DUP3 DUP5 ADD SWAP1 POP SWAP4 SWAP3 POP POP POP JUMP JUMPDEST PUSH0 PUSH3 0x2EF1 DUP3 DUP5 DUP7 PUSH3 0x2EBB JUMP JUMPDEST SWAP2 POP DUP2 SWAP1 POP SWAP4 SWAP3 POP POP POP JUMP JUMPDEST PUSH0 DUP3 DUP3 MSTORE PUSH1 0x20 DUP3 ADD SWAP1 POP SWAP3 SWAP2 POP POP JUMP JUMPDEST PUSH32 0x6F6E6C7920466163746F7279206F72206F776E65722063616E2063616C6C0000 PUSH0 DUP3 ADD MSTORE POP JUMP JUMPDEST PUSH0 PUSH3 0x2F43 PUSH1 0x1E DUP4 PUSH3 0x2EFD JUMP JUMPDEST SWAP2 POP PUSH3 0x2F50 DUP3 PUSH3 0x2F0D JUMP JUMPDEST PUSH1 0x20 DUP3 ADD SWAP1 POP SWAP2 SWAP1 POP JUMP JUMPDEST PUSH0 PUSH1 0x20 DUP3 ADD SWAP1 POP DUP2 DUP2 SUB PUSH0 DUP4 ADD MSTORE PUSH3 0x2F74 DUP2 PUSH3 0x2F35 JUMP JUMPDEST SWAP1 POP SWAP2 SWAP1 POP JUMP JUMPDEST PUSH32 0x696E76616C696420617267756D656E74202D207A65726F206164647265737300 PUSH0 DUP3 ADD MSTORE POP JUMP JUMPDEST PUSH0 PUSH3 0x2FB1 PUSH1 0x1F DUP4 PUSH3 0x2EFD JUMP JUMPDEST SWAP2 POP PUSH3 0x2FBE DUP3 PUSH3 0x2F7B JUMP JUMPDEST PUSH1 0x20 DUP3 ADD SWAP1 POP SWAP2 SWAP1 POP JUMP JUMPDEST PUSH0 PUSH1 0x20 DUP3 ADD SWAP1 POP DUP2 DUP2 SUB PUSH0 DUP4 ADD MSTORE PUSH3 0x2FE2 DUP2 PUSH3 0x2FA3 JUMP JUMPDEST SWAP1 POP SWAP2 SWAP1 POP JUMP JUMPDEST POP JUMP JUMPDEST PUSH0 PUSH3 0x2FF9 PUSH0 DUP4 PUSH3 0x2EFD JUMP JUMPDEST SWAP2 POP PUSH3 0x3006 DUP3 PUSH3 0x2FE9 JUMP JUMPDEST PUSH0 DUP3 ADD SWAP1 POP SWAP2 SWAP1 POP JUMP JUMPDEST PUSH0 PUSH1 0x20 DUP3 ADD SWAP1 POP DUP2 DUP2 SUB PUSH0 DUP4 ADD MSTORE PUSH3 0x3029 DUP2 PUSH3 0x2FEC JUMP JUMPDEST SWAP1 POP SWAP2 SWAP1 POP JUMP JUMPDEST PUSH0 DUP2 MLOAD SWAP1 POP SWAP2 SWAP1 POP JUMP JUMPDEST PUSH0 JUMPDEST DUP4 DUP2 LT ISZERO PUSH3 0x3059 JUMPI DUP1 DUP3 ADD MLOAD DUP2 DUP5 ADD MSTORE PUSH1 0x20 DUP2 ADD SWAP1 POP PUSH3 0x303C JUMP JUMPDEST PUSH0 DUP5 DUP5 ADD MSTORE POP POP POP POP JUMP JUMPDEST PUSH0 PUSH3 0x3070 DUP3 PUSH3 0x3030 JUMP JUMPDEST PUSH3 0x307C DUP2 DUP6 PUSH3 0x2EFD JUMP JUMPDEST SWAP4 POP PUSH3 0x308E DUP2 DUP6 PUSH1 0x20 DUP7 ADD PUSH3 0x303A JUMP JUMPDEST PUSH3 0x3099 DUP2 PUSH3 0x29FA JUMP JUMPDEST DUP5 ADD SWAP2 POP POP SWAP3 SWAP2 POP POP JUMP JUMPDEST PUSH0 PUSH1 0x20 DUP3 ADD SWAP1 POP DUP2 DUP2 SUB PUSH0 DUP4 ADD MSTORE PUSH3 0x30BE DUP2 DUP5 PUSH3 0x3064 JUMP JUMPDEST SWAP1 POP SWAP3 SWAP2 POP POP JUMP JUMPDEST PUSH32 0x696E76616C696420617267756D656E74202D20656D70747920737472696E6700 PUSH0 DUP3 ADD MSTORE POP JUMP JUMPDEST PUSH0 PUSH3 0x30FC PUSH1 0x1F DUP4 PUSH3 0x2EFD JUMP JUMPDEST SWAP2 POP PUSH3 0x3109 DUP3 PUSH3 0x30C6 JUMP JUMPDEST PUSH1 0x20 DUP3 ADD SWAP1 POP SWAP2 SWAP1 POP JUMP JUMPDEST PUSH0 PUSH1 0x20 DUP3 ADD SWAP1 POP DUP2 DUP2 SUB PUSH0 DUP4 ADD MSTORE PUSH3 0x312D DUP2 PUSH3 0x30EE JUMP JUMPDEST SWAP1 POP SWAP2 SWAP1 POP JUMP JUMPDEST PUSH32 0x546F6B656E000000000000000000000000000000000000000000000000000000 DUP2 MSTORE POP JUMP JUMPDEST PUSH0 PUSH3 0x3166 DUP3 PUSH3 0x3030 JUMP JUMPDEST PUSH3 0x3172 DUP2 DUP6 PUSH3 0x2EB1 JUMP JUMPDEST SWAP4 POP PUSH3 0x3184 DUP2 DUP6 PUSH1 0x20 DUP7 ADD PUSH3 0x303A JUMP JUMPDEST DUP1 DUP5 ADD SWAP2 POP POP SWAP3 SWAP2 POP POP JUMP JUMPDEST PUSH0 PUSH3 0x319C DUP3 PUSH3 0x3134 JUMP JUMPDEST PUSH1 0x5 DUP3 ADD SWAP2 POP PUSH3 0x31AE DUP3 DUP5 PUSH3 0x315A JUMP JUMPDEST SWAP2 POP DUP2 SWAP1 POP SWAP3 SWAP2 POP POP JUMP JUMPDEST PUSH0 PUSH3 0x31C6 DUP3 DUP5 PUSH3 0x315A JUMP JUMPDEST SWAP2 POP DUP2 SWAP1 POP SWAP3 SWAP2 POP POP JUMP JUMPDEST PUSH32 0x73616C7420616C72656164792074616B656E0000000000000000000000000000 PUSH0 DUP3 ADD MSTORE POP JUMP JUMPDEST PUSH0 PUSH3 0x3207 PUSH1 0x12 DUP4 PUSH3 0x2EFD JUMP JUMPDEST SWAP2 POP PUSH3 0x3214 DUP3 PUSH3 0x31D1 JUMP JUMPDEST PUSH1 0x20 DUP3 ADD SWAP1 POP SWAP2 SWAP1 POP JUMP JUMPDEST PUSH0 PUSH1 0x20 DUP3 ADD SWAP1 POP DUP2 DUP2 SUB PUSH0 DUP4 ADD MSTORE PUSH3 0x3238 DUP2 PUSH3 0x31F9 JUMP JUMPDEST SWAP1 POP SWAP2 SWAP1 POP JUMP JUMPDEST PUSH32 0x746F6B656E20616C7265616479206C696E6B656420746F20616E206964656E74 PUSH0 DUP3 ADD MSTORE PUSH32 0x6974790000000000000000000000000000000000000000000000000000000000 PUSH1 0x20 DUP3 ADD MSTORE POP JUMP JUMPDEST PUSH0 PUSH3 0x329B PUSH1 0x23 DUP4 PUSH3 0x2EFD JUMP JUMPDEST SWAP2 POP PUSH3 0x32A8 DUP3 PUSH3 0x323F JUMP JUMPDEST PUSH1 0x40 DUP3 ADD SWAP1 POP SWAP2 SWAP1 POP JUMP JUMPDEST PUSH0 PUSH1 0x20 DUP3 ADD SWAP1 POP DUP2 DUP2 SUB PUSH0 DUP4 ADD MSTORE PUSH3 0x32CC DUP2 PUSH3 0x328D JUMP JUMPDEST SWAP1 POP SWAP2 SWAP1 POP JUMP JUMPDEST PUSH32 0x63616E6E6F742062652063616C6C6564206F6E2073656E646572206164647265 PUSH0 DUP3 ADD MSTORE PUSH32 0x7373000000000000000000000000000000000000000000000000000000000000 PUSH1 0x20 DUP3 ADD MSTORE POP JUMP JUMPDEST PUSH0 PUSH3 0x332F PUSH1 0x22 DUP4 PUSH3 0x2EFD JUMP JUMPDEST SWAP2 POP PUSH3 0x333C DUP3 PUSH3 0x32D3 JUMP JUMPDEST PUSH1 0x40 DUP3 ADD SWAP1 POP SWAP2 SWAP1 POP JUMP JUMPDEST PUSH0 PUSH1 0x20 DUP3 ADD SWAP1 POP DUP2 DUP2 SUB PUSH0 DUP4 ADD MSTORE PUSH3 0x3360 DUP2 PUSH3 0x3321 JUMP JUMPDEST SWAP1 POP SWAP2 SWAP1 POP JUMP JUMPDEST PUSH32 0x6F6E6C792061206C696E6B65642077616C6C65742063616E20756E6C696E6B00 PUSH0 DUP3 ADD MSTORE POP JUMP JUMPDEST PUSH0 PUSH3 0x339D PUSH1 0x1F DUP4 PUSH3 0x2EFD JUMP JUMPDEST SWAP2 POP PUSH3 0x33AA DUP3 PUSH3 0x3367 JUMP JUMPDEST PUSH1 0x20 DUP3 ADD SWAP1 POP SWAP2 SWAP1 POP JUMP JUMPDEST PUSH0 PUSH1 0x20 DUP3 ADD SWAP1 POP DUP2 DUP2 SUB PUSH0 DUP4 ADD MSTORE PUSH3 0x33CE DUP2 PUSH3 0x338F JUMP JUMPDEST SWAP1 POP SWAP2 SWAP1 POP JUMP JUMPDEST PUSH32 0x4E487B7100000000000000000000000000000000000000000000000000000000 PUSH0 MSTORE PUSH1 0x32 PUSH1 0x4 MSTORE PUSH1 0x24 PUSH0 REVERT JUMPDEST PUSH0 DUP2 SWAP1 POP SWAP2 SWAP1 POP JUMP JUMPDEST PUSH32 0x4E487B7100000000000000000000000000000000000000000000000000000000 PUSH0 MSTORE PUSH1 0x11 PUSH1 0x4 MSTORE PUSH1 0x24 PUSH0 REVERT JUMPDEST PUSH0 PUSH3 0x3444 DUP3 PUSH3 0x3402 JUMP JUMPDEST SWAP2 POP PUSH3 0x3451 DUP4 PUSH3 0x3402 JUMP JUMPDEST SWAP3 POP DUP3 DUP3 SUB SWAP1 POP DUP2 DUP2 GT ISZERO PUSH3 0x346C JUMPI PUSH3 0x346B PUSH3 0x340B JUMP JUMPDEST JUMPDEST SWAP3 SWAP2 POP POP JUMP JUMPDEST PUSH32 0x4E487B7100000000000000000000000000000000000000000000000000000000 PUSH0 MSTORE PUSH1 0x31 PUSH1 0x4 MSTORE PUSH1 0x24 PUSH0 REVERT JUMPDEST PUSH0 PUSH3 0x34AB DUP3 PUSH3 0x3402 JUMP JUMPDEST SWAP2 POP PUSH32 0xFFFFFFFFFFFFFFFFFFFFFFFFFFFFFFFFFFFFFFFFFFFFFFFFFFFFFFFFFFFFFFFF DUP3 SUB PUSH3 0x34E0 JUMPI PUSH3 0x34DF PUSH3 0x340B JUMP JUMPDEST JUMPDEST PUSH1 0x1 DUP3 ADD SWAP1 POP SWAP2 SWAP1 POP JUMP JUMPDEST PUSH32 0x4F49440000000000000000000000000000000000000000000000000000000000 DUP2 MSTORE POP JUMP JUMPDEST PUSH0 PUSH3 0x351D DUP3 PUSH3 0x34EB JUMP JUMPDEST PUSH1 0x3 DUP3 ADD SWAP2 POP PUSH3 0x352F DUP3 DUP5 PUSH3 0x315A JUMP JUMPDEST SWAP2 POP DUP2 SWAP1 POP SWAP3 SWAP2 POP POP JUMP JUMPDEST PUSH32 0x77616C6C657420616C7265616479206C696E6B656420746F20616E206964656E PUSH0 DUP3 ADD MSTORE PUSH32 0x7469747900000000000000000000000000000000000000000000000000000000 PUSH1 0x20 DUP3 ADD MSTORE POP JUMP JUMPDEST PUSH0 PUSH3 0x3596 PUSH1 0x24 DUP4 PUSH3 0x2EFD JUMP JUMPDEST SWAP2 POP PUSH3 0x35A3 DUP3 PUSH3 0x353A JUMP JUMPDEST PUSH1 0x40 DUP3 ADD SWAP1 POP SWAP2 SWAP1 POP JUMP JUMPDEST PUSH0 PUSH1 0x20 DUP3 ADD SWAP1 POP DUP2 DUP2 SUB PUSH0 DUP4 ADD MSTORE PUSH3 0x35C7 DUP2 PUSH3 0x3588 JUMP JUMPDEST SWAP1 POP SWAP2 SWAP1 POP JUMP JUMPDEST PUSH32 0x6E6F74206120666163746F727900000000000000000000000000000000000000 PUSH0 DUP3 ADD MSTORE POP JUMP JUMPDEST PUSH0 PUSH3 0x3604 PUSH1 0xD DUP4 PUSH3 0x2EFD JUMP JUMPDEST SWAP2 POP PUSH3 0x3611 DUP3 PUSH3 0x35CE JUMP JUMPDEST PUSH1 0x20 DUP3 ADD SWAP1 POP SWAP2 SWAP1 POP JUMP JUMPDEST PUSH0 PUSH1 0x20 DUP3 ADD SWAP1 POP DUP2 DUP2 SUB PUSH0 DUP4 ADD MSTORE PUSH3 0x3635 DUP2 PUSH3 0x35F6 JUMP JUMPDEST SWAP1 POP SWAP2 SWAP1 POP JUMP JUMPDEST PUSH32 0x616C7265616479206120666163746F7279000000000000000000000000000000 PUSH0 DUP3 ADD MSTORE POP JUMP JUMPDEST PUSH0 PUSH3 0x3672 PUSH1 0x11 DUP4 PUSH3 0x2EFD JUMP JUMPDEST SWAP2 POP PUSH3 0x367F DUP3 PUSH3 0x363C JUMP JUMPDEST PUSH1 0x20 DUP3 ADD SWAP1 POP SWAP2 SWAP1 POP JUMP JUMPDEST PUSH0 PUSH1 0x20 DUP3 ADD SWAP1 POP DUP2 DUP2 SUB PUSH0 DUP4 ADD MSTORE PUSH3 0x36A3 DUP2 PUSH3 0x3664 JUMP JUMPDEST SWAP1 POP SWAP2 SWAP1 POP JUMP JUMPDEST PUSH32 0x77616C6C6574206E6F74206C696E6B656420746F20616E206964656E74697479 PUSH0 DUP3 ADD MSTORE PUSH32 0x20636F6E74726163740000000000000000000000000000000000000000000000 PUSH1 0x20 DUP3 ADD MSTORE POP JUMP JUMPDEST PUSH0 PUSH3 0x3706 PUSH1 0x29 DUP4 PUSH3 0x2EFD JUMP JUMPDEST SWAP2 POP PUSH3 0x3713 DUP3 PUSH3 0x36AA JUMP JUMPDEST PUSH1 0x40 DUP3 ADD SWAP1 POP SWAP2 SWAP1 POP JUMP JUMPDEST PUSH0 PUSH1 0x20 DUP3 ADD SWAP1 POP DUP2 DUP2 SUB PUSH0 DUP4 ADD MSTORE PUSH3 0x3737 DUP2 PUSH3 0x36F8 JUMP JUMPDEST SWAP1 POP SWAP2 SWAP1 POP JUMP JUMPDEST PUSH32 0x6E65772077616C6C657420616C7265616479206C696E6B656400000000000000 PUSH0 DUP3 ADD MSTORE POP JUMP JUMPDEST PUSH0 PUSH3 0x3774 PUSH1 0x19 DUP4 PUSH3 0x2EFD JUMP JUMPDEST SWAP2 POP PUSH3 0x3781 DUP3 PUSH3 0x373E JUMP JUMPDEST PUSH1 0x20 DUP3 ADD SWAP1 POP SWAP2 SWAP1 POP JUMP JUMPDEST PUSH0 PUSH1 0x20 DUP3 ADD SWAP1 POP DUP2 DUP2 SUB PUSH0 DUP4 ADD MSTORE PUSH3 0x37A5 DUP2 PUSH3 0x3766 JUMP JUMPDEST SWAP1 POP SWAP2 SWAP1 POP JUMP JUMPDEST PUSH32 0x696E76616C696420617267756D656E74202D20746F6B656E2061646472657373 PUSH0 DUP3 ADD MSTORE POP JUMP JUMPDEST PUSH0 PUSH3 0x37E2 PUSH1 0x20 DUP4 PUSH3 0x2EFD JUMP JUMPDEST SWAP2 POP PUSH3 0x37EF DUP3 PUSH3 0x37AC JUMP JUMPDEST PUSH1 0x20 DUP3 ADD SWAP1 POP SWAP2 SWAP1 POP JUMP JUMPDEST PUSH0 PUSH1 0x20 DUP3 ADD SWAP1 POP DUP2 DUP2 SUB PUSH0 DUP4 ADD MSTORE PUSH3 0x3813 DUP2 PUSH3 0x37D4 JUMP JUMPDEST SWAP1 POP SWAP2 SWAP1 POP JUMP JUMPDEST PUSH32 0x6D617820616D6F756E74206F662077616C6C6574732070657220494420657863 PUSH0 DUP3 ADD MSTORE PUSH32 0x6565646564000000000000000000000000000000000000000000000000000000 PUSH1 0x20 DUP3 ADD MSTORE POP JUMP JUMPDEST PUSH0 PUSH3 0x3876 PUSH1 0x25 DUP4 PUSH3 0x2EFD JUMP JUMPDEST SWAP2 POP PUSH3 0x3883 DUP3 PUSH3 0x381A JUMP JUMPDEST PUSH1 0x40 DUP3 ADD SWAP1 POP SWAP2 SWAP1 POP JUMP JUMPDEST PUSH0 PUSH1 0x20 DUP3 ADD SWAP1 POP DUP2 DUP2 SUB PUSH0 DUP4 ADD MSTORE PUSH3 0x38A7 DUP2 PUSH3 0x3868 JUMP JUMPDEST SWAP1 POP SWAP2 SWAP1 POP JUMP JUMPDEST PUSH32 0x696E76616C696420617267756D656E74202D20656D707479206C697374206F66 PUSH0 DUP3 ADD MSTORE PUSH32 0x206B657973000000000000000000000000000000000000000000000000000000 PUSH1 0x20 DUP3 ADD MSTORE POP JUMP JUMPDEST PUSH0 PUSH3 0x390A PUSH1 0x25 DUP4 PUSH3 0x2EFD JUMP JUMPDEST SWAP2 POP PUSH3 0x3917 DUP3 PUSH3 0x38AE JUMP JUMPDEST PUSH1 0x40 DUP3 ADD SWAP1 POP SWAP2 SWAP1 POP JUMP JUMPDEST PUSH0 PUSH1 0x20 DUP3 ADD SWAP1 POP DUP2 DUP2 SUB PUSH0 DUP4 ADD MSTORE PUSH3 0x393B DUP2 PUSH3 0x38FC JUMP JUMPDEST SWAP1 POP SWAP2 SWAP1 POP JUMP JUMPDEST PUSH32 0x696E76616C696420617267756D656E74202D2077616C6C657420697320616C73 PUSH0 DUP3 ADD MSTORE PUSH32 0x6F206C697374656420696E206D616E6167656D656E74206B6579730000000000 PUSH1 0x20 DUP3 ADD MSTORE POP JUMP JUMPDEST PUSH0 PUSH3 0x399E PUSH1 0x3B DUP4 PUSH3 0x2EFD JUMP JUMPDEST SWAP2 POP PUSH3 0x39AB DUP3 PUSH3 0x3942 JUMP JUMPDEST PUSH1 0x40 DUP3 ADD SWAP1 POP SWAP2 SWAP1 POP JUMP JUMPDEST PUSH0 PUSH1 0x20 DUP3 ADD SWAP1 POP DUP2 DUP2 SUB PUSH0 DUP4 ADD MSTORE PUSH3 0x39CF DUP2 PUSH3 0x3990 JUMP JUMPDEST SWAP1 POP SWAP2 SWAP1 POP JUMP JUMPDEST PUSH3 0x39E1 DUP2 PUSH3 0x2D3D JUMP JUMPDEST DUP3 MSTORE POP POP JUMP JUMPDEST PUSH0 DUP2 SWAP1 POP SWAP2 SWAP1 POP JUMP JUMPDEST PUSH0 DUP2 SWAP1 POP SWAP2 SWAP1 POP JUMP JUMPDEST PUSH0 PUSH3 0x3A19 PUSH3 0x3A13 PUSH3 0x3A0D DUP5 PUSH3 0x39E7 JUMP JUMPDEST PUSH3 0x39F0 JUMP JUMPDEST PUSH3 0x3402 JUMP JUMPDEST SWAP1 POP SWAP2 SWAP1 POP JUMP JUMPDEST PUSH3 0x3A2B DUP2 PUSH3 0x39F9 JUMP JUMPDEST DUP3 MSTORE POP POP JUMP JUMPDEST PUSH0 PUSH1 0x60 DUP3 ADD SWAP1 POP PUSH3 0x3A46 PUSH0 DUP4 ADD DUP7 PUSH3 0x39D6 JUMP JUMPDEST PUSH3 0x3A55 PUSH1 0x20 DUP4 ADD DUP6 PUSH3 0x3A20 JUMP JUMPDEST PUSH3 0x3A64 PUSH1 0x40 DUP4 ADD DUP5 PUSH3 0x3A20 JUMP JUMPDEST SWAP5 SWAP4 POP POP POP POP JUMP JUMPDEST PUSH3 0x3A77 DUP2 PUSH3 0x29BF JUMP JUMPDEST DUP2 EQ PUSH3 0x3A82 JUMPI PUSH0 DUP1 REVERT JUMPDEST POP JUMP JUMPDEST PUSH0 DUP2 MLOAD SWAP1 POP PUSH3 0x3A95 DUP2 PUSH3 0x3A6C JUMP JUMPDEST SWAP3 SWAP2 POP POP JUMP JUMPDEST PUSH0 PUSH1 0x20 DUP3 DUP5 SUB SLT ISZERO PUSH3 0x3AB3 JUMPI PUSH3 0x3AB2 PUSH3 0x289B JUMP JUMPDEST JUMPDEST PUSH0 PUSH3 0x3AC2 DUP5 DUP3 DUP6 ADD PUSH3 0x3A85 JUMP JUMPDEST SWAP2 POP POP SWAP3 SWAP2 POP POP JUMP JUMPDEST PUSH0 PUSH1 0x40 DUP3 ADD SWAP1 POP PUSH3 0x3AE0 PUSH0 DUP4 ADD DUP6 PUSH3 0x39D6 JUMP JUMPDEST PUSH3 0x3AEF PUSH1 0x20 DUP4 ADD DUP5 PUSH3 0x3A20 JUMP JUMPDEST SWAP4 SWAP3 POP POP POP JUMP JUMPDEST PUSH0 PUSH1 0x40 DUP3 ADD SWAP1 POP PUSH3 0x3B0B PUSH0 DUP4 ADD DUP6 PUSH3 0x2866 JUMP JUMPDEST PUSH3 0x3B1A PUSH1 0x20 DUP4 ADD DUP5 PUSH3 0x2866 JUMP JUMPDEST SWAP4 SWAP3 POP POP POP JUMP JUMPDEST PUSH0 DUP2 MLOAD SWAP1 POP SWAP2 SWAP1 POP JUMP JUMPDEST PUSH0 DUP2 SWAP1 POP SWAP3 SWAP2 POP POP JUMP JUMPDEST PUSH0 PUSH3 0x3B41 DUP3 PUSH3 0x3B21 JUMP JUMPDEST PUSH3 0x3B4D DUP2 DUP6 PUSH3 0x3B2B JUMP JUMPDEST SWAP4 POP PUSH3 0x3B5F DUP2 DUP6 PUSH1 0x20 DUP7 ADD PUSH3 0x303A JUMP JUMPDEST DUP1 DUP5 ADD SWAP2 POP POP SWAP3 SWAP2 POP POP JUMP JUMPDEST PUSH0 PUSH3 0x3B78 DUP3 DUP6 PUSH3 0x3B35 JUMP JUMPDEST SWAP2 POP PUSH3 0x3B86 DUP3 DUP5 PUSH3 0x3B35 JUMP JUMPDEST SWAP2 POP DUP2 SWAP1 POP SWAP4 SWAP3 POP POP POP JUMP INVALID PUSH1 0x80 PUSH1 0x40 MSTORE CALLVALUE DUP1 ISZERO PUSH2 0xF JUMPI PUSH0 DUP1 REVERT JUMPDEST POP PUSH1 0x40 MLOAD PUSH2 0x73C CODESIZE SUB DUP1 PUSH2 0x73C DUP4 CODECOPY DUP2 DUP2 ADD PUSH1 0x40 MSTORE DUP2 ADD SWAP1 PUSH2 0x31 SWAP2 SWAP1 PUSH2 0x33B JUMP JUMPDEST PUSH0 PUSH20 0xFFFFFFFFFFFFFFFFFFFFFFFFFFFFFFFFFFFFFFFF AND DUP3 PUSH20 0xFFFFFFFFFFFFFFFFFFFFFFFFFFFFFFFFFFFFFFFF AND SUB PUSH2 0x9F JUMPI PUSH1 0x40 MLOAD PUSH32 0x8C379A000000000000000000000000000000000000000000000000000000000 DUP2 MSTORE PUSH1 0x4 ADD PUSH2 0x96 SWAP1 PUSH2 0x3D3 JUMP JUMPDEST PUSH1 0x40 MLOAD DUP1 SWAP2 SUB SWAP1 REVERT JUMPDEST PUSH0 PUSH20 0xFFFFFFFFFFFFFFFFFFFFFFFFFFFFFFFFFFFFFFFF AND DUP2 PUSH20 0xFFFFFFFFFFFFFFFFFFFFFFFFFFFFFFFFFFFFFFFF AND SUB PUSH2 0x10D JUMPI PUSH1 0x40 MLOAD PUSH32 0x8C379A000000000000000000000000000000000000000000000000000000000 DUP2 MSTORE PUSH1 0x4 ADD PUSH2 0x104 SWAP1 PUSH2 0x3D3 JUMP JUMPDEST PUSH1 0x40 MLOAD DUP1 SWAP2 SUB SWAP1 REVERT JUMPDEST DUP2 PUSH32 0xC5F16F0FCC639FA48A6947836D9850F504798523BF8C9A3A87D5876CF622BCF7 SSTORE PUSH0 DUP3 PUSH20 0xFFFFFFFFFFFFFFFFFFFFFFFFFFFFFFFFFFFFFFFF AND PUSH4 0xAAF10F42 PUSH1 0x40 MLOAD DUP2 PUSH4 0xFFFFFFFF AND PUSH1 0xE0 SHL DUP2 MSTORE PUSH1 0x4 ADD PUSH1 0x20 PUSH1 0x40 MLOAD DUP1 DUP4 SUB DUP2 DUP7 GAS STATICCALL ISZERO DUP1 ISZERO PUSH2 0x17A JUMPI RETURNDATASIZE PUSH0 DUP1 RETURNDATACOPY RETURNDATASIZE PUSH0 REVERT JUMPDEST POP POP POP POP PUSH1 0x40 MLOAD RETURNDATASIZE PUSH1 0x1F NOT PUSH1 0x1F DUP3 ADD AND DUP3 ADD DUP1 PUSH1 0x40 MSTORE POP DUP2 ADD SWAP1 PUSH2 0x19E SWAP2 SWAP1 PUSH2 0x3F1 JUMP JUMPDEST SWAP1 POP PUSH0 DUP2 PUSH20 0xFFFFFFFFFFFFFFFFFFFFFFFFFFFFFFFFFFFFFFFF AND DUP4 PUSH1 0x40 MLOAD PUSH1 0x24 ADD PUSH2 0x1C9 SWAP2 SWAP1 PUSH2 0x42B JUMP JUMPDEST PUSH1 0x40 MLOAD PUSH1 0x20 DUP2 DUP4 SUB SUB DUP2 MSTORE SWAP1 PUSH1 0x40 MSTORE PUSH32 0xC4D66DE800000000000000000000000000000000000000000000000000000000 PUSH28 0xFFFFFFFFFFFFFFFFFFFFFFFFFFFFFFFFFFFFFFFFFFFFFFFFFFFFFFFF NOT AND PUSH1 0x20 DUP3 ADD DUP1 MLOAD PUSH28 0xFFFFFFFFFFFFFFFFFFFFFFFFFFFFFFFFFFFFFFFFFFFFFFFFFFFFFFFF DUP4 DUP2 DUP4 AND OR DUP4 MSTORE POP POP POP POP PUSH1 0x40 MLOAD PUSH2 0x253 SWAP2 SWAP1 PUSH2 0x4B0 JUMP JUMPDEST PUSH0 PUSH1 0x40 MLOAD DUP1 DUP4 SUB DUP2 DUP6 GAS DELEGATECALL SWAP2 POP POP RETURNDATASIZE DUP1 PUSH0 DUP2 EQ PUSH2 0x28B JUMPI PUSH1 0x40 MLOAD SWAP2 POP PUSH1 0x1F NOT PUSH1 0x3F RETURNDATASIZE ADD AND DUP3 ADD PUSH1 0x40 MSTORE RETURNDATASIZE DUP3 MSTORE RETURNDATASIZE PUSH0 PUSH1 0x20 DUP5 ADD RETURNDATACOPY PUSH2 0x290 JUMP JUMPDEST PUSH1 0x60 SWAP2 POP JUMPDEST POP POP SWAP1 POP DUP1 PUSH2 0x2D4 JUMPI PUSH1 0x40 MLOAD PUSH32 0x8C379A000000000000000000000000000000000000000000000000000000000 DUP2 MSTORE PUSH1 0x4 ADD PUSH2 0x2CB SWAP1 PUSH2 0x510 JUMP JUMPDEST PUSH1 0x40 MLOAD DUP1 SWAP2 SUB SWAP1 REVERT JUMPDEST POP POP POP POP PUSH2 0x52E JUMP JUMPDEST PUSH0 DUP1 REVERT JUMPDEST PUSH0 PUSH20 0xFFFFFFFFFFFFFFFFFFFFFFFFFFFFFFFFFFFFFFFF DUP3 AND SWAP1 POP SWAP2 SWAP1 POP JUMP JUMPDEST PUSH0 PUSH2 0x30A DUP3 PUSH2 0x2E1 JUMP JUMPDEST SWAP1 POP SWAP2 SWAP1 POP JUMP JUMPDEST PUSH2 0x31A DUP2 PUSH2 0x300 JUMP JUMPDEST DUP2 EQ PUSH2 0x324 JUMPI PUSH0 DUP1 REVERT JUMPDEST POP JUMP JUMPDEST PUSH0 DUP2 MLOAD SWAP1 POP PUSH2 0x335 DUP2 PUSH2 0x311 JUMP JUMPDEST SWAP3 SWAP2 POP POP JUMP JUMPDEST PUSH0 DUP1 PUSH1 0x40 DUP4 DUP6 SUB SLT ISZERO PUSH2 0x351 JUMPI PUSH2 0x350 PUSH2 0x2DD JUMP JUMPDEST JUMPDEST PUSH0 PUSH2 0x35E DUP6 DUP3 DUP7 ADD PUSH2 0x327 JUMP JUMPDEST SWAP3 POP POP PUSH1 0x20 PUSH2 0x36F DUP6 DUP3 DUP7 ADD PUSH2 0x327 JUMP JUMPDEST SWAP2 POP POP SWAP3 POP SWAP3 SWAP1 POP JUMP JUMPDEST PUSH0 DUP3 DUP3 MSTORE PUSH1 0x20 DUP3 ADD SWAP1 POP SWAP3 SWAP2 POP POP JUMP JUMPDEST PUSH32 0x696E76616C696420617267756D656E74202D207A65726F206164647265737300 PUSH0 DUP3 ADD MSTORE POP JUMP JUMPDEST PUSH0 PUSH2 0x3BD PUSH1 0x1F DUP4 PUSH2 0x379 JUMP JUMPDEST SWAP2 POP PUSH2 0x3C8 DUP3 PUSH2 0x389 JUMP JUMPDEST PUSH1 0x20 DUP3 ADD SWAP1 POP SWAP2 SWAP1 POP JUMP JUMPDEST PUSH0 PUSH1 0x20 DUP3 ADD SWAP1 POP DUP2 DUP2 SUB PUSH0 DUP4 ADD MSTORE PUSH2 0x3EA DUP2 PUSH2 0x3B1 JUMP JUMPDEST SWAP1 POP SWAP2 SWAP1 POP JUMP JUMPDEST PUSH0 PUSH1 0x20 DUP3 DUP5 SUB SLT ISZERO PUSH2 0x406 JUMPI PUSH2 0x405 PUSH2 0x2DD JUMP JUMPDEST JUMPDEST PUSH0 PUSH2 0x413 DUP5 DUP3 DUP6 ADD PUSH2 0x327 JUMP JUMPDEST SWAP2 POP POP SWAP3 SWAP2 POP POP JUMP JUMPDEST PUSH2 0x425 DUP2 PUSH2 0x300 JUMP JUMPDEST DUP3 MSTORE POP POP JUMP JUMPDEST PUSH0 PUSH1 0x20 DUP3 ADD SWAP1 POP PUSH2 0x43E PUSH0 DUP4 ADD DUP5 PUSH2 0x41C JUMP JUMPDEST SWAP3 SWAP2 POP POP JUMP JUMPDEST PUSH0 DUP2 MLOAD SWAP1 POP SWAP2 SWAP1 POP JUMP JUMPDEST PUSH0 DUP2 SWAP1 POP SWAP3 SWAP2 POP POP JUMP JUMPDEST PUSH0 JUMPDEST DUP4 DUP2 LT ISZERO PUSH2 0x475 JUMPI DUP1 DUP3 ADD MLOAD DUP2 DUP5 ADD MSTORE PUSH1 0x20 DUP2 ADD SWAP1 POP PUSH2 0x45A JUMP JUMPDEST PUSH0 DUP5 DUP5 ADD MSTORE POP POP POP POP JUMP JUMPDEST PUSH0 PUSH2 0x48A DUP3 PUSH2 0x444 JUMP JUMPDEST PUSH2 0x494 DUP2 DUP6 PUSH2 0x44E JUMP JUMPDEST SWAP4 POP PUSH2 0x4A4 DUP2 DUP6 PUSH1 0x20 DUP7 ADD PUSH2 0x458 JUMP JUMPDEST DUP1 DUP5 ADD SWAP2 POP POP SWAP3 SWAP2 POP POP JUMP JUMPDEST PUSH0 PUSH2 0x4BB DUP3 DUP5 PUSH2 0x480 JUMP JUMPDEST SWAP2 POP DUP2 SWAP1 POP SWAP3 SWAP2 POP POP JUMP JUMPDEST PUSH32 0x496E697469616C697A6174696F6E206661696C65642E00000000000000000000 PUSH0 DUP3 ADD MSTORE POP JUMP JUMPDEST PUSH0 PUSH2 0x4FA PUSH1 0x16 DUP4 PUSH2 0x379 JUMP JUMPDEST SWAP2 POP PUSH2 0x505 DUP3 PUSH2 0x4C6 JUMP JUMPDEST PUSH1 0x20 DUP3 ADD SWAP1 POP SWAP2 SWAP1 POP JUMP JUMPDEST PUSH0 PUSH1 0x20 DUP3 ADD SWAP1 POP DUP2 DUP2 SUB PUSH0 DUP4 ADD MSTORE PUSH2 0x527 DUP2 PUSH2 0x4EE JUMP JUMPDEST SWAP1 POP SWAP2 SWAP1 POP JUMP JUMPDEST PUSH2 0x201 DUP1 PUSH2 0x53B PUSH0 CODECOPY PUSH0 RETURN INVALID PUSH1 0x80 PUSH1 0x40 MSTORE PUSH1 0x4 CALLDATASIZE LT PUSH2 0x21 JUMPI PUSH0 CALLDATALOAD PUSH1 0xE0 SHR DUP1 PUSH4 0x2307F882 EQ PUSH2 0xC3 JUMPI PUSH2 0x28 JUMP JUMPDEST CALLDATASIZE PUSH2 0x28 JUMPI STOP JUMPDEST PUSH0 PUSH2 0x31 PUSH2 0xED JUMP JUMPDEST PUSH20 0xFFFFFFFFFFFFFFFFFFFFFFFFFFFFFFFFFFFFFFFF AND PUSH4 0xAAF10F42 PUSH1 0x40 MLOAD DUP2 PUSH4 0xFFFFFFFF AND PUSH1 0xE0 SHL DUP2 MSTORE PUSH1 0x4 ADD PUSH1 0x20 PUSH1 0x40 MLOAD DUP1 DUP4 SUB DUP2 DUP7 GAS STATICCALL ISZERO DUP1 ISZERO PUSH2 0x79 JUMPI RETURNDATASIZE PUSH0 DUP1 RETURNDATACOPY RETURNDATASIZE PUSH0 REVERT JUMPDEST POP POP POP POP PUSH1 0x40 MLOAD RETURNDATASIZE PUSH1 0x1F NOT PUSH1 0x1F DUP3 ADD AND DUP3 ADD DUP1 PUSH1 0x40 MSTORE POP DUP2 ADD SWAP1 PUSH2 0x9D SWAP2 SWAP1 PUSH2 0x178 JUMP JUMPDEST SWAP1 POP CALLDATASIZE PUSH0 DUP1 CALLDATACOPY PUSH0 DUP1 CALLDATASIZE PUSH0 DUP5 PUSH2 0x2710 GAS SUB DELEGATECALL RETURNDATASIZE DUP1 PUSH0 DUP1 RETURNDATACOPY DUP2 PUSH0 DUP2 EQ PUSH2 0xBF JUMPI DUP2 PUSH0 RETURN JUMPDEST DUP2 PUSH0 REVERT JUMPDEST CALLVALUE DUP1 ISZERO PUSH2 0xCE JUMPI PUSH0 DUP1 REVERT JUMPDEST POP PUSH2 0xD7 PUSH2 0xED JUMP JUMPDEST PUSH1 0x40 MLOAD PUSH2 0xE4 SWAP2 SWAP1 PUSH2 0x1B2 JUMP JUMPDEST PUSH1 0x40 MLOAD DUP1 SWAP2 SUB SWAP1 RETURN JUMPDEST PUSH0 DUP1 PUSH32 0xC5F16F0FCC639FA48A6947836D9850F504798523BF8C9A3A87D5876CF622BCF7 SLOAD SWAP1 POP DUP1 SWAP2 POP POP SWAP1 JUMP JUMPDEST PUSH0 DUP1 REVERT JUMPDEST PUSH0 PUSH20 0xFFFFFFFFFFFFFFFFFFFFFFFFFFFFFFFFFFFFFFFF DUP3 AND SWAP1 POP SWAP2 SWAP1 POP JUMP JUMPDEST PUSH0 PUSH2 0x147 DUP3 PUSH2 0x11E JUMP JUMPDEST SWAP1 POP SWAP2 SWAP1 POP JUMP JUMPDEST PUSH2 0x157 DUP2 PUSH2 0x13D JUMP JUMPDEST DUP2 EQ PUSH2 0x161 JUMPI PUSH0 DUP1 REVERT JUMPDEST POP JUMP JUMPDEST PUSH0 DUP2 MLOAD SWAP1 POP PUSH2 0x172 DUP2 PUSH2 0x14E JUMP JUMPDEST SWAP3 SWAP2 POP POP JUMP JUMPDEST PUSH0 PUSH1 0x20 DUP3 DUP5 SUB SLT ISZERO PUSH2 0x18D JUMPI PUSH2 0x18C PUSH2 0x11A JUMP JUMPDEST JUMPDEST PUSH0 PUSH2 0x19A DUP5 DUP3 DUP6 ADD PUSH2 0x164 JUMP JUMPDEST SWAP2 POP POP SWAP3 SWAP2 POP POP JUMP JUMPDEST PUSH2 0x1AC DUP2 PUSH2 0x13D JUMP JUMPDEST DUP3 MSTORE POP POP JUMP JUMPDEST PUSH0 PUSH1 0x20 DUP3 ADD SWAP1 POP PUSH2 0x1C5 PUSH0 DUP4 ADD DUP5 PUSH2 0x1A3 JUMP JUMPDEST SWAP3 SWAP2 POP POP JUMP INVALID LOG2 PUSH5 0x6970667358 0x22 SLT KECCAK256 0xCB 0xB7 0x25 SWAP12 0xC9 AND DUP8 CALLDATASIZE 0x23 0xD5 SWAP5 LOG2 0xCD PUSH3 0x455750 DUP1 STOP 0xDB PUSH9 0xA7451F56FEBD65447C 0x2E 0xBA PUSH5 0x736F6C6343 STOP ADDMOD EQ STOP CALLER LOG2 PUSH5 0x6970667358 0x22 SLT KECCAK256 0x2A PUSH27 0x6F4245686A0F60CD2A1F1CAF15213E72E11E0F534FA574E462A4D4 0xAE ISZERO 0xD0 PUSH5 0x736F6C6343 STOP ADDMOD EQ STOP CALLER "
				},
				"gasEstimates": {
					"creation": {
						"codeDepositCost": "3431200",
						"executionCost": "infinite",
						"totalCost": "infinite"
					},
					"external": {
						"addTokenFactory(address)": "infinite",
						"createIdentity(address,string)": "infinite",
						"createIdentityWithManagementKeys(address,string,bytes32[])": "infinite",
						"createTokenIdentity(address,address,string)": "infinite",
						"getIdentity(address)": "infinite",
						"getToken(address)": "infinite",
						"getWallets(address)": "infinite",
						"implementationAuthority()": "infinite",
						"isSaltTaken(string)": "infinite",
						"isTokenFactory(address)": "2893",
						"linkWallet(address)": "86313",
						"owner()": "2560",
						"removeTokenFactory(address)": "infinite",
						"renounceOwnership()": "infinite",
						"transferOwnership(address)": "infinite",
						"unlinkWallet(address)": "infinite"
					},
					"internal": {
						"_deploy(string memory,bytes memory)": "infinite",
						"_deployIdentity(string memory,address,address)": "infinite"
					}
				},
				"methodIdentifiers": {
					"addTokenFactory(address)": "9ce19365",
					"createIdentity(address,string)": "8e952bfe",
					"createIdentityWithManagementKeys(address,string,bytes32[])": "fe5cd59a",
					"createTokenIdentity(address,address,string)": "3d56ff66",
					"getIdentity(address)": "2fea7b81",
					"getToken(address)": "59770438",
					"getWallets(address)": "422c29a4",
					"implementationAuthority()": "2307f882",
					"isSaltTaken(string)": "3a500451",
					"isTokenFactory(address)": "3e3bc3d7",
					"linkWallet(address)": "b8bb8126",
					"owner()": "8da5cb5b",
					"removeTokenFactory(address)": "937529ef",
					"renounceOwnership()": "715018a6",
					"transferOwnership(address)": "f2fde38b",
					"unlinkWallet(address)": "5027dbe2"
				}
			},
			"storageLayout": {
				"storage": [
					{
						"astId": 8,
						"contract": "solidity-main/contracts/factory/IdFactory.sol:IdFactory",
						"label": "_owner",
						"offset": 0,
						"slot": "0",
						"type": "t_address"
					},
					{
						"astId": 331,
						"contract": "solidity-main/contracts/factory/IdFactory.sol:IdFactory",
						"label": "_tokenFactories",
						"offset": 0,
						"slot": "1",
						"type": "t_mapping(t_address,t_bool)"
					},
					{
						"astId": 337,
						"contract": "solidity-main/contracts/factory/IdFactory.sol:IdFactory",
						"label": "_saltTaken",
						"offset": 0,
						"slot": "2",
						"type": "t_mapping(t_string_memory_ptr,t_bool)"
					},
					{
						"astId": 341,
						"contract": "solidity-main/contracts/factory/IdFactory.sol:IdFactory",
						"label": "_userIdentity",
						"offset": 0,
						"slot": "3",
						"type": "t_mapping(t_address,t_address)"
					},
					{
						"astId": 346,
						"contract": "solidity-main/contracts/factory/IdFactory.sol:IdFactory",
						"label": "_wallets",
						"offset": 0,
						"slot": "4",
						"type": "t_mapping(t_address,t_array(t_address)dyn_storage)"
					},
					{
						"astId": 350,
						"contract": "solidity-main/contracts/factory/IdFactory.sol:IdFactory",
						"label": "_tokenIdentity",
						"offset": 0,
						"slot": "5",
						"type": "t_mapping(t_address,t_address)"
					},
					{
						"astId": 354,
						"contract": "solidity-main/contracts/factory/IdFactory.sol:IdFactory",
						"label": "_tokenAddress",
						"offset": 0,
						"slot": "6",
						"type": "t_mapping(t_address,t_address)"
					}
				],
				"types": {
					"t_address": {
						"encoding": "inplace",
						"label": "address",
						"numberOfBytes": "20"
					},
					"t_array(t_address)dyn_storage": {
						"base": "t_address",
						"encoding": "dynamic_array",
						"label": "address[]",
						"numberOfBytes": "32"
					},
					"t_bool": {
						"encoding": "inplace",
						"label": "bool",
						"numberOfBytes": "1"
					},
					"t_mapping(t_address,t_address)": {
						"encoding": "mapping",
						"key": "t_address",
						"label": "mapping(address => address)",
						"numberOfBytes": "32",
						"value": "t_address"
					},
					"t_mapping(t_address,t_array(t_address)dyn_storage)": {
						"encoding": "mapping",
						"key": "t_address",
						"label": "mapping(address => address[])",
						"numberOfBytes": "32",
						"value": "t_array(t_address)dyn_storage"
					},
					"t_mapping(t_address,t_bool)": {
						"encoding": "mapping",
						"key": "t_address",
						"label": "mapping(address => bool)",
						"numberOfBytes": "32",
						"value": "t_bool"
					},
					"t_mapping(t_string_memory_ptr,t_bool)": {
						"encoding": "mapping",
						"key": "t_string_memory_ptr",
						"label": "mapping(string => bool)",
						"numberOfBytes": "32",
						"value": "t_bool"
					},
					"t_string_memory_ptr": {
						"encoding": "bytes",
						"label": "string",
						"numberOfBytes": "32"
					}
				}
			},
			"userdoc": {
				"events": {
					"Deployed(address)": {
						"notice": "events"
					}
				},
				"kind": "user",
				"methods": {},
				"version": 1
			}
		}
	}
}