{
	"contracts/onChainID/contracts/verifiers/Verifier.sol": {
		"Verifier": {
			"abi": [
				{
					"inputs": [
						{
							"internalType": "address",
							"name": "owner",
							"type": "address"
						}
					],
					"name": "OwnableInvalidOwner",
					"type": "error"
				},
				{
					"inputs": [
						{
							"internalType": "address",
							"name": "account",
							"type": "address"
						}
					],
					"name": "OwnableUnauthorizedAccount",
					"type": "error"
				},
				{
					"anonymous": false,
					"inputs": [
						{
							"indexed": true,
							"internalType": "uint256",
							"name": "claimTopic",
							"type": "uint256"
						}
					],
					"name": "ClaimTopicAdded",
					"type": "event"
				},
				{
					"anonymous": false,
					"inputs": [
						{
							"indexed": true,
							"internalType": "uint256",
							"name": "claimTopic",
							"type": "uint256"
						}
					],
					"name": "ClaimTopicRemoved",
					"type": "event"
				},
				{
					"anonymous": false,
					"inputs": [
						{
							"indexed": true,
							"internalType": "contract IClaimIssuer",
							"name": "trustedIssuer",
							"type": "address"
						},
						{
							"indexed": false,
							"internalType": "uint256[]",
							"name": "claimTopics",
							"type": "uint256[]"
						}
					],
					"name": "ClaimTopicsUpdated",
					"type": "event"
				},
				{
					"anonymous": false,
					"inputs": [
						{
							"indexed": true,
							"internalType": "address",
							"name": "previousOwner",
							"type": "address"
						},
						{
							"indexed": true,
							"internalType": "address",
							"name": "newOwner",
							"type": "address"
						}
					],
					"name": "OwnershipTransferred",
					"type": "event"
				},
				{
					"anonymous": false,
					"inputs": [
						{
							"indexed": true,
							"internalType": "contract IClaimIssuer",
							"name": "trustedIssuer",
							"type": "address"
						},
						{
							"indexed": false,
							"internalType": "uint256[]",
							"name": "claimTopics",
							"type": "uint256[]"
						}
					],
					"name": "TrustedIssuerAdded",
					"type": "event"
				},
				{
					"anonymous": false,
					"inputs": [
						{
							"indexed": true,
							"internalType": "contract IClaimIssuer",
							"name": "trustedIssuer",
							"type": "address"
						}
					],
					"name": "TrustedIssuerRemoved",
					"type": "event"
				},
				{
					"inputs": [
						{
							"internalType": "uint256",
							"name": "claimTopic",
							"type": "uint256"
						}
					],
					"name": "addClaimTopic",
					"outputs": [],
					"stateMutability": "nonpayable",
					"type": "function"
				},
				{
					"inputs": [
						{
							"internalType": "contract IClaimIssuer",
							"name": "trustedIssuer",
							"type": "address"
						},
						{
							"internalType": "uint256[]",
							"name": "claimTopics",
							"type": "uint256[]"
						}
					],
					"name": "addTrustedIssuer",
					"outputs": [],
					"stateMutability": "nonpayable",
					"type": "function"
				},
				{
					"inputs": [
						{
							"internalType": "uint256",
							"name": "",
							"type": "uint256"
						},
						{
							"internalType": "uint256",
							"name": "",
							"type": "uint256"
						}
					],
					"name": "claimTopicsToTrustedIssuers",
					"outputs": [
						{
							"internalType": "contract IClaimIssuer",
							"name": "",
							"type": "address"
						}
					],
					"stateMutability": "view",
					"type": "function"
				},
				{
					"inputs": [
						{
							"internalType": "contract IClaimIssuer",
							"name": "trustedIssuer",
							"type": "address"
						}
					],
					"name": "getTrustedIssuerClaimTopics",
					"outputs": [
						{
							"internalType": "uint256[]",
							"name": "",
							"type": "uint256[]"
						}
					],
					"stateMutability": "view",
					"type": "function"
				},
				{
					"inputs": [],
					"name": "getTrustedIssuers",
					"outputs": [
						{
							"internalType": "contract IClaimIssuer[]",
							"name": "",
							"type": "address[]"
						}
					],
					"stateMutability": "view",
					"type": "function"
				},
				{
					"inputs": [
						{
							"internalType": "uint256",
							"name": "claimTopic",
							"type": "uint256"
						}
					],
					"name": "getTrustedIssuersForClaimTopic",
					"outputs": [
						{
							"internalType": "contract IClaimIssuer[]",
							"name": "",
							"type": "address[]"
						}
					],
					"stateMutability": "view",
					"type": "function"
				},
				{
					"inputs": [
						{
							"internalType": "address",
							"name": "issuer",
							"type": "address"
						},
						{
							"internalType": "uint256",
							"name": "claimTopic",
							"type": "uint256"
						}
					],
					"name": "hasClaimTopic",
					"outputs": [
						{
							"internalType": "bool",
							"name": "",
							"type": "bool"
						}
					],
					"stateMutability": "view",
					"type": "function"
				},
				{
					"inputs": [
						{
							"internalType": "uint256",
							"name": "claimTopic",
							"type": "uint256"
						}
					],
					"name": "isClaimTopicRequired",
					"outputs": [
						{
							"internalType": "bool",
							"name": "",
							"type": "bool"
						}
					],
					"stateMutability": "view",
					"type": "function"
				},
				{
					"inputs": [
						{
							"internalType": "address",
							"name": "issuer",
							"type": "address"
						}
					],
					"name": "isTrustedIssuer",
					"outputs": [
						{
							"internalType": "bool",
							"name": "",
							"type": "bool"
						}
					],
					"stateMutability": "view",
					"type": "function"
				},
				{
					"inputs": [],
					"name": "owner",
					"outputs": [
						{
							"internalType": "address",
							"name": "",
							"type": "address"
						}
					],
					"stateMutability": "view",
					"type": "function"
				},
				{
					"inputs": [
						{
							"internalType": "uint256",
							"name": "claimTopic",
							"type": "uint256"
						}
					],
					"name": "removeClaimTopic",
					"outputs": [],
					"stateMutability": "nonpayable",
					"type": "function"
				},
				{
					"inputs": [
						{
							"internalType": "contract IClaimIssuer",
							"name": "trustedIssuer",
							"type": "address"
						}
					],
					"name": "removeTrustedIssuer",
					"outputs": [],
					"stateMutability": "nonpayable",
					"type": "function"
				},
				{
					"inputs": [],
					"name": "renounceOwnership",
					"outputs": [],
					"stateMutability": "nonpayable",
					"type": "function"
				},
				{
					"inputs": [
						{
							"internalType": "uint256",
							"name": "",
							"type": "uint256"
						}
					],
					"name": "requiredClaimTopics",
					"outputs": [
						{
							"internalType": "uint256",
							"name": "",
							"type": "uint256"
						}
					],
					"stateMutability": "view",
					"type": "function"
				},
				{
					"inputs": [
						{
							"internalType": "address",
							"name": "newOwner",
							"type": "address"
						}
					],
					"name": "transferOwnership",
					"outputs": [],
					"stateMutability": "nonpayable",
					"type": "function"
				},
				{
					"inputs": [
						{
							"internalType": "address",
							"name": "",
							"type": "address"
						},
						{
							"internalType": "uint256",
							"name": "",
							"type": "uint256"
						}
					],
					"name": "trustedIssuerClaimTopics",
					"outputs": [
						{
							"internalType": "uint256",
							"name": "",
							"type": "uint256"
						}
					],
					"stateMutability": "view",
					"type": "function"
				},
				{
					"inputs": [
						{
							"internalType": "uint256",
							"name": "",
							"type": "uint256"
						}
					],
					"name": "trustedIssuers",
					"outputs": [
						{
							"internalType": "contract IClaimIssuer",
							"name": "",
							"type": "address"
						}
					],
					"stateMutability": "view",
					"type": "function"
				},
				{
					"inputs": [
						{
							"internalType": "contract IClaimIssuer",
							"name": "trustedIssuer",
							"type": "address"
						},
						{
							"internalType": "uint256[]",
							"name": "newClaimTopics",
							"type": "uint256[]"
						}
					],
					"name": "updateIssuerClaimTopics",
					"outputs": [],
					"stateMutability": "nonpayable",
					"type": "function"
				},
				{
					"inputs": [
						{
							"internalType": "address",
							"name": "identity",
							"type": "address"
						}
					],
					"name": "verify",
					"outputs": [
						{
							"internalType": "bool",
							"name": "isVerified",
							"type": "bool"
						}
					],
					"stateMutability": "view",
					"type": "function"
				}
			],
			"devdoc": {
				"errors": {
					"OwnableInvalidOwner(address)": [
						{
							"details": "The owner is not a valid owner account. (eg. `address(0)`)"
						}
					],
					"OwnableUnauthorizedAccount(address)": [
						{
							"details": "The caller account is not authorized to perform an operation."
						}
					]
				},
				"kind": "dev",
				"methods": {
					"addClaimTopic(uint256)": {
						"details": "See {IClaimTopicsRegistry-removeClaimTopic}."
					},
					"addTrustedIssuer(address,uint256[])": {
						"details": "See {ITrustedIssuersRegistry-addTrustedIssuer}."
					},
					"getTrustedIssuerClaimTopics(address)": {
						"details": "See {ITrustedIssuersRegistry-getTrustedIssuerClaimTopics}."
					},
					"getTrustedIssuers()": {
						"details": "See {ITrustedIssuersRegistry-getTrustedIssuers}."
					},
					"getTrustedIssuersForClaimTopic(uint256)": {
						"details": "See {ITrustedIssuersRegistry-getTrustedIssuersForClaimTopic}."
					},
					"hasClaimTopic(address,uint256)": {
						"details": "See {ITrustedIssuersRegistry-hasClaimTopic}."
					},
					"isTrustedIssuer(address)": {
						"details": "See {ITrustedIssuersRegistry-isTrustedIssuer}."
					},
					"owner()": {
						"details": "Returns the address of the current owner."
					},
					"removeClaimTopic(uint256)": {
						"details": "See {IClaimTopicsRegistry-getClaimTopics}."
					},
					"removeTrustedIssuer(address)": {
						"details": "See {ITrustedIssuersRegistry-removeTrustedIssuer}."
					},
					"renounceOwnership()": {
						"details": "Leaves the contract without owner. It will not be possible to call `onlyOwner` functions. Can only be called by the current owner. NOTE: Renouncing ownership will leave the contract without an owner, thereby disabling any functionality that is only available to the owner."
					},
					"transferOwnership(address)": {
						"details": "Transfers ownership of the contract to a new account (`newOwner`). Can only be called by the current owner."
					},
					"updateIssuerClaimTopics(address,uint256[])": {
						"details": "See {ITrustedIssuersRegistry-updateIssuerClaimTopics}."
					},
					"verify(address)": {
						"details": "Verify an identity (ONCHAINID) by checking if the identity has at least one valid claim from a trusted issuer for each required claim topic. Returns true if the identity is compliant, false otherwise."
					}
				},
				"stateVariables": {
					"claimTopicsToTrustedIssuers": {
						"details": "Mapping between a claim topic and the trusted issuers trusted for it."
					},
					"requiredClaimTopics": {
						"details": "All topics of claims required to pass verification."
					},
					"trustedIssuerClaimTopics": {
						"details": "Mapping between a trusted issuer address and the topics of claims they are trusted for."
					},
					"trustedIssuers": {
						"details": "Array containing all TrustedIssuers identity contract address allowed to issue claims required."
					}
				},
				"version": 1
			},
			"evm": {
				"assembly": "    /* \"contracts/onChainID/contracts/verifiers/Verifier.sol\":156:11941  contract Verifier is Ownable(msg.sender) {... */\n  mstore(0x40, 0x80)\n  callvalue\n  dup1\n  iszero\n  tag_1\n  jumpi\n  0x00\n  dup1\n  revert\ntag_1:\n  pop\n    /* \"contracts/onChainID/contracts/verifiers/Verifier.sol\":185:195  msg.sender */\n  caller\n    /* \"@openzeppelin/contracts/access/Ownable.sol\":1297:1298  0 */\n  0x00\n    /* \"@openzeppelin/contracts/access/Ownable.sol\":1273:1299  initialOwner == address(0) */\n  0xffffffffffffffffffffffffffffffffffffffff\n  and\n    /* \"@openzeppelin/contracts/access/Ownable.sol\":1273:1285  initialOwner */\n  dup2\n    /* \"@openzeppelin/contracts/access/Ownable.sol\":1273:1299  initialOwner == address(0) */\n  0xffffffffffffffffffffffffffffffffffffffff\n  and\n  sub\n    /* \"@openzeppelin/contracts/access/Ownable.sol\":1269:1364  if (initialOwner == address(0)) {... */\n  tag_4\n  jumpi\n    /* \"@openzeppelin/contracts/access/Ownable.sol\":1350:1351  0 */\n  0x00\n    /* \"@openzeppelin/contracts/access/Ownable.sol\":1322:1353  OwnableInvalidOwner(address(0)) */\n  mload(0x40)\n  0x1e4fbdf700000000000000000000000000000000000000000000000000000000\n  dup2\n  mstore\n  0x04\n  add\n  tag_5\n  swap2\n  swap1\n  tag_6\n  jump\t// in\ntag_5:\n  mload(0x40)\n  dup1\n  swap2\n  sub\n  swap1\n  revert\n    /* \"@openzeppelin/contracts/access/Ownable.sol\":1269:1364  if (initialOwner == address(0)) {... */\ntag_4:\n    /* \"@openzeppelin/contracts/access/Ownable.sol\":1373:1405  _transferOwnership(initialOwner) */\n  tag_7\n    /* \"@openzeppelin/contracts/access/Ownable.sol\":1392:1404  initialOwner */\n  dup2\n    /* \"@openzeppelin/contracts/access/Ownable.sol\":1373:1391  _transferOwnership */\n  shl(0x20, tag_8)\n    /* \"@openzeppelin/contracts/access/Ownable.sol\":1373:1405  _transferOwnership(initialOwner) */\n  0x20\n  shr\n  jump\t// in\ntag_7:\n    /* \"@openzeppelin/contracts/access/Ownable.sol\":1225:1412  constructor(address initialOwner) {... */\n  pop\n    /* \"contracts/onChainID/contracts/verifiers/Verifier.sol\":156:11941  contract Verifier is Ownable(msg.sender) {... */\n  jump(tag_9)\n    /* \"@openzeppelin/contracts/access/Ownable.sol\":2912:3099  function _transferOwnership(address newOwner) internal virtual {... */\ntag_8:\n    /* \"@openzeppelin/contracts/access/Ownable.sol\":2985:3001  address oldOwner */\n  0x00\n    /* \"@openzeppelin/contracts/access/Ownable.sol\":3004:3010  _owner */\n  dup1\n  0x00\n  swap1\n  sload\n  swap1\n  0x0100\n  exp\n  swap1\n  div\n  0xffffffffffffffffffffffffffffffffffffffff\n  and\n    /* \"@openzeppelin/contracts/access/Ownable.sol\":2985:3010  address oldOwner = _owner */\n  swap1\n  pop\n    /* \"@openzeppelin/contracts/access/Ownable.sol\":3029:3037  newOwner */\n  dup2\n    /* \"@openzeppelin/contracts/access/Ownable.sol\":3020:3026  _owner */\n  0x00\n  dup1\n    /* \"@openzeppelin/contracts/access/Ownable.sol\":3020:3037  _owner = newOwner */\n  0x0100\n  exp\n  dup2\n  sload\n  dup2\n  0xffffffffffffffffffffffffffffffffffffffff\n  mul\n  not\n  and\n  swap1\n  dup4\n  0xffffffffffffffffffffffffffffffffffffffff\n  and\n  mul\n  or\n  swap1\n  sstore\n  pop\n    /* \"@openzeppelin/contracts/access/Ownable.sol\":3083:3091  newOwner */\n  dup2\n    /* \"@openzeppelin/contracts/access/Ownable.sol\":3052:3092  OwnershipTransferred(oldOwner, newOwner) */\n  0xffffffffffffffffffffffffffffffffffffffff\n  and\n    /* \"@openzeppelin/contracts/access/Ownable.sol\":3073:3081  oldOwner */\n  dup2\n    /* \"@openzeppelin/contracts/access/Ownable.sol\":3052:3092  OwnershipTransferred(oldOwner, newOwner) */\n  0xffffffffffffffffffffffffffffffffffffffff\n  and\n  0x8be0079c531659141344cd1fd0a4f28419497f9722a3daafe3b4186f6b6457e0\n  mload(0x40)\n  mload(0x40)\n  dup1\n  swap2\n  sub\n  swap1\n  log3\n    /* \"@openzeppelin/contracts/access/Ownable.sol\":2975:3099  {... */\n  pop\n    /* \"@openzeppelin/contracts/access/Ownable.sol\":2912:3099  function _transferOwnership(address newOwner) internal virtual {... */\n  pop\n  jump\t// out\n    /* \"#utility.yul\":7:133   */\ntag_11:\n    /* \"#utility.yul\":44:51   */\n  0x00\n    /* \"#utility.yul\":84:126   */\n  0xffffffffffffffffffffffffffffffffffffffff\n    /* \"#utility.yul\":77:82   */\n  dup3\n    /* \"#utility.yul\":73:127   */\n  and\n    /* \"#utility.yul\":62:127   */\n  swap1\n  pop\n    /* \"#utility.yul\":7:133   */\n  swap2\n  swap1\n  pop\n  jump\t// out\n    /* \"#utility.yul\":139:235   */\ntag_12:\n    /* \"#utility.yul\":176:183   */\n  0x00\n    /* \"#utility.yul\":205:229   */\n  tag_17\n    /* \"#utility.yul\":223:228   */\n  dup3\n    /* \"#utility.yul\":205:229   */\n  tag_11\n  jump\t// in\ntag_17:\n    /* \"#utility.yul\":194:229   */\n  swap1\n  pop\n    /* \"#utility.yul\":139:235   */\n  swap2\n  swap1\n  pop\n  jump\t// out\n    /* \"#utility.yul\":241:359   */\ntag_13:\n    /* \"#utility.yul\":328:352   */\n  tag_19\n    /* \"#utility.yul\":346:351   */\n  dup2\n    /* \"#utility.yul\":328:352   */\n  tag_12\n  jump\t// in\ntag_19:\n    /* \"#utility.yul\":323:326   */\n  dup3\n    /* \"#utility.yul\":316:353   */\n  mstore\n    /* \"#utility.yul\":241:359   */\n  pop\n  pop\n  jump\t// out\n    /* \"#utility.yul\":365:587   */\ntag_6:\n    /* \"#utility.yul\":458:462   */\n  0x00\n    /* \"#utility.yul\":496:498   */\n  0x20\n    /* \"#utility.yul\":485:494   */\n  dup3\n    /* \"#utility.yul\":481:499   */\n  add\n    /* \"#utility.yul\":473:499   */\n  swap1\n  pop\n    /* \"#utility.yul\":509:580   */\n  tag_21\n    /* \"#utility.yul\":577:578   */\n  0x00\n    /* \"#utility.yul\":566:575   */\n  dup4\n    /* \"#utility.yul\":562:579   */\n  add\n    /* \"#utility.yul\":553:559   */\n  dup5\n    /* \"#utility.yul\":509:580   */\n  tag_13\n  jump\t// in\ntag_21:\n    /* \"#utility.yul\":365:587   */\n  swap3\n  swap2\n  pop\n  pop\n  jump\t// out\n    /* \"contracts/onChainID/contracts/verifiers/Verifier.sol\":156:11941  contract Verifier is Ownable(msg.sender) {... */\ntag_9:\n  dataSize(sub_0)\n  dup1\n  dataOffset(sub_0)\n  0x00\n  codecopy\n  0x00\n  return\nstop\n\nsub_0: assembly {\n        /* \"contracts/onChainID/contracts/verifiers/Verifier.sol\":156:11941  contract Verifier is Ownable(msg.sender) {... */\n      mstore(0x40, 0x80)\n      callvalue\n      dup1\n      iszero\n      tag_1\n      jumpi\n      0x00\n      dup1\n      revert\n    tag_1:\n      pop\n      jumpi(tag_2, lt(calldatasize, 0x04))\n      shr(0xe0, calldataload(0x00))\n      dup1\n      0xb5fa8693\n      gt\n      tag_22\n      jumpi\n      dup1\n      0xc7b22551\n      gt\n      tag_23\n      jumpi\n      dup1\n      0xc7b22551\n      eq\n      tag_17\n      jumpi\n      dup1\n      0xc801dd40\n      eq\n      tag_18\n      jumpi\n      dup1\n      0xd9dd24c5\n      eq\n      tag_19\n      jumpi\n      dup1\n      0xef2ed1a4\n      eq\n      tag_20\n      jumpi\n      dup1\n      0xf2fde38b\n      eq\n      tag_21\n      jumpi\n      jump(tag_2)\n    tag_23:\n      dup1\n      0xb5fa8693\n      eq\n      tag_12\n      jumpi\n      dup1\n      0xb93d28eb\n      eq\n      tag_13\n      jumpi\n      dup1\n      0xba64c341\n      eq\n      tag_14\n      jumpi\n      dup1\n      0xbe36359f\n      eq\n      tag_15\n      jumpi\n      dup1\n      0xc28fb278\n      eq\n      tag_16\n      jumpi\n      jump(tag_2)\n    tag_22:\n      dup1\n      0x63a9c3d7\n      gt\n      tag_24\n      jumpi\n      dup1\n      0x63a9c3d7\n      eq\n      tag_7\n      jumpi\n      dup1\n      0x715018a6\n      eq\n      tag_8\n      jumpi\n      dup1\n      0x8da5cb5b\n      eq\n      tag_9\n      jumpi\n      dup1\n      0x93e9f801\n      eq\n      tag_10\n      jumpi\n      dup1\n      0x9f63ea98\n      eq\n      tag_11\n      jumpi\n      jump(tag_2)\n    tag_24:\n      dup1\n      0x04bc7e84\n      eq\n      tag_3\n      jumpi\n      dup1\n      0x08297846\n      eq\n      tag_4\n      jumpi\n      dup1\n      0x34a89987\n      eq\n      tag_5\n      jumpi\n      dup1\n      0x52c111d1\n      eq\n      tag_6\n      jumpi\n    tag_2:\n      0x00\n      dup1\n      revert\n        /* \"contracts/onChainID/contracts/verifiers/Verifier.sol\":6284:7757  function updateIssuerClaimTopics(IClaimIssuer trustedIssuer, uint256[] calldata newClaimTopics) public onlyOwner {... */\n    tag_3:\n      tag_25\n      0x04\n      dup1\n      calldatasize\n      sub\n      dup2\n      add\n      swap1\n      tag_26\n      swap2\n      swap1\n      tag_27\n      jump\t// in\n    tag_26:\n      tag_28\n      jump\t// in\n    tag_25:\n      stop\n        /* \"contracts/onChainID/contracts/verifiers/Verifier.sol\":3209:3651  function removeClaimTopic(uint256 claimTopic) public onlyOwner {... */\n    tag_4:\n      tag_29\n      0x04\n      dup1\n      calldatasize\n      sub\n      dup2\n      add\n      swap1\n      tag_30\n      swap2\n      swap1\n      tag_31\n      jump\t// in\n    tag_30:\n      tag_32\n      jump\t// in\n    tag_29:\n      stop\n        /* \"contracts/onChainID/contracts/verifiers/Verifier.sol\":8950:9331  function hasClaimTopic(address issuer, uint256 claimTopic) public view returns (bool) {... */\n    tag_5:\n      tag_33\n      0x04\n      dup1\n      calldatasize\n      sub\n      dup2\n      add\n      swap1\n      tag_34\n      swap2\n      swap1\n      tag_35\n      jump\t// in\n    tag_34:\n      tag_36\n      jump\t// in\n    tag_33:\n      mload(0x40)\n      tag_37\n      swap2\n      swap1\n      tag_38\n      jump\t// in\n    tag_37:\n      mload(0x40)\n      dup1\n      swap2\n      sub\n      swap1\n      return\n        /* \"contracts/onChainID/contracts/verifiers/Verifier.sol\":8049:8216  function getTrustedIssuersForClaimTopic(uint256 claimTopic) public view returns (IClaimIssuer[] memory) {... */\n    tag_6:\n      tag_39\n      0x04\n      dup1\n      calldatasize\n      sub\n      dup2\n      add\n      swap1\n      tag_40\n      swap2\n      swap1\n      tag_31\n      jump\t// in\n    tag_40:\n      tag_41\n      jump\t// in\n    tag_39:\n      mload(0x40)\n      tag_42\n      swap2\n      swap1\n      tag_43\n      jump\t// in\n    tag_42:\n      mload(0x40)\n      dup1\n      swap2\n      sub\n      swap1\n      return\n        /* \"contracts/onChainID/contracts/verifiers/Verifier.sol\":9896:11939  function verify(address identity) public view returns(bool isVerified) {... */\n    tag_7:\n      tag_44\n      0x04\n      dup1\n      calldatasize\n      sub\n      dup2\n      add\n      swap1\n      tag_45\n      swap2\n      swap1\n      tag_46\n      jump\t// in\n    tag_45:\n      tag_47\n      jump\t// in\n    tag_44:\n      mload(0x40)\n      tag_48\n      swap2\n      swap1\n      tag_38\n      jump\t// in\n    tag_48:\n      mload(0x40)\n      dup1\n      swap2\n      sub\n      swap1\n      return\n        /* \"@openzeppelin/contracts/access/Ownable.sol\":2293:2394  function renounceOwnership() public virtual onlyOwner {... */\n    tag_8:\n      tag_49\n      tag_50\n      jump\t// in\n    tag_49:\n      stop\n        /* \"@openzeppelin/contracts/access/Ownable.sol\":1638:1723  function owner() public view virtual returns (address) {... */\n    tag_9:\n      tag_51\n      tag_52\n      jump\t// in\n    tag_51:\n      mload(0x40)\n      tag_53\n      swap2\n      swap1\n      tag_54\n      jump\t// in\n    tag_53:\n      mload(0x40)\n      dup1\n      swap2\n      sub\n      swap1\n      return\n        /* \"contracts/onChainID/contracts/verifiers/Verifier.sol\":715:784  mapping(uint256 => IClaimIssuer[]) public claimTopicsToTrustedIssuers */\n    tag_10:\n      tag_55\n      0x04\n      dup1\n      calldatasize\n      sub\n      dup2\n      add\n      swap1\n      tag_56\n      swap2\n      swap1\n      tag_57\n      jump\t// in\n    tag_56:\n      tag_58\n      jump\t// in\n    tag_55:\n      mload(0x40)\n      tag_59\n      swap2\n      swap1\n      tag_60\n      jump\t// in\n    tag_59:\n      mload(0x40)\n      dup1\n      swap2\n      sub\n      swap1\n      return\n        /* \"contracts/onChainID/contracts/verifiers/Verifier.sol\":3734:4623  function addTrustedIssuer(IClaimIssuer trustedIssuer, uint256[] calldata claimTopics) public onlyOwner {... */\n    tag_11:\n      tag_61\n      0x04\n      dup1\n      calldatasize\n      sub\n      dup2\n      add\n      swap1\n      tag_62\n      swap2\n      swap1\n      tag_27\n      jump\t// in\n    tag_62:\n      tag_63\n      jump\t// in\n    tag_61:\n      stop\n        /* \"contracts/onChainID/contracts/verifiers/Verifier.sol\":268:304  uint256[] public requiredClaimTopics */\n    tag_12:\n      tag_64\n      0x04\n      dup1\n      calldatasize\n      sub\n      dup2\n      add\n      swap1\n      tag_65\n      swap2\n      swap1\n      tag_31\n      jump\t// in\n    tag_65:\n      tag_66\n      jump\t// in\n    tag_64:\n      mload(0x40)\n      tag_67\n      swap2\n      swap1\n      tag_68\n      jump\t// in\n    tag_67:\n      mload(0x40)\n      dup1\n      swap2\n      sub\n      swap1\n      return\n        /* \"contracts/onChainID/contracts/verifiers/Verifier.sol\":4709:6194  function removeTrustedIssuer(IClaimIssuer trustedIssuer) public onlyOwner {... */\n    tag_13:\n      tag_69\n      0x04\n      dup1\n      calldatasize\n      sub\n      dup2\n      add\n      swap1\n      tag_70\n      swap2\n      swap1\n      tag_71\n      jump\t// in\n    tag_70:\n      tag_72\n      jump\t// in\n    tag_69:\n      stop\n        /* \"contracts/onChainID/contracts/verifiers/Verifier.sol\":564:625  mapping(address => uint256[]) public trustedIssuerClaimTopics */\n    tag_14:\n      tag_73\n      0x04\n      dup1\n      calldatasize\n      sub\n      dup2\n      add\n      swap1\n      tag_74\n      swap2\n      swap1\n      tag_35\n      jump\t// in\n    tag_74:\n      tag_75\n      jump\t// in\n    tag_73:\n      mload(0x40)\n      tag_76\n      swap2\n      swap1\n      tag_68\n      jump\t// in\n    tag_76:\n      mload(0x40)\n      dup1\n      swap2\n      sub\n      swap1\n      return\n        /* \"contracts/onChainID/contracts/verifiers/Verifier.sol\":9337:9654  function isClaimTopicRequired(uint256 claimTopic) public view returns (bool) {... */\n    tag_15:\n      tag_77\n      0x04\n      dup1\n      calldatasize\n      sub\n      dup2\n      add\n      swap1\n      tag_78\n      swap2\n      swap1\n      tag_31\n      jump\t// in\n    tag_78:\n      tag_79\n      jump\t// in\n    tag_77:\n      mload(0x40)\n      tag_80\n      swap2\n      swap1\n      tag_38\n      jump\t// in\n    tag_80:\n      mload(0x40)\n      dup1\n      swap2\n      sub\n      swap1\n      return\n        /* \"contracts/onChainID/contracts/verifiers/Verifier.sol\":8582:8870  function getTrustedIssuerClaimTopics(IClaimIssuer trustedIssuer) public view returns (uint256[] memory) {... */\n    tag_16:\n      tag_81\n      0x04\n      dup1\n      calldatasize\n      sub\n      dup2\n      add\n      swap1\n      tag_82\n      swap2\n      swap1\n      tag_71\n      jump\t// in\n    tag_82:\n      tag_83\n      jump\t// in\n    tag_81:\n      mload(0x40)\n      tag_84\n      swap2\n      swap1\n      tag_85\n      jump\t// in\n    tag_84:\n      mload(0x40)\n      dup1\n      swap2\n      sub\n      swap1\n      return\n        /* \"contracts/onChainID/contracts/verifiers/Verifier.sol\":2710:3131  function addClaimTopic(uint256 claimTopic) public onlyOwner {... */\n    tag_17:\n      tag_86\n      0x04\n      dup1\n      calldatasize\n      sub\n      dup2\n      add\n      swap1\n      tag_87\n      swap2\n      swap1\n      tag_31\n      jump\t// in\n    tag_87:\n      tag_88\n      jump\t// in\n    tag_86:\n      stop\n        /* \"contracts/onChainID/contracts/verifiers/Verifier.sol\":420:456  IClaimIssuer[] public trustedIssuers */\n    tag_18:\n      tag_89\n      0x04\n      dup1\n      calldatasize\n      sub\n      dup2\n      add\n      swap1\n      tag_90\n      swap2\n      swap1\n      tag_31\n      jump\t// in\n    tag_90:\n      tag_91\n      jump\t// in\n    tag_89:\n      mload(0x40)\n      tag_92\n      swap2\n      swap1\n      tag_60\n      jump\t// in\n    tag_92:\n      mload(0x40)\n      dup1\n      swap2\n      sub\n      swap1\n      return\n        /* \"contracts/onChainID/contracts/verifiers/Verifier.sol\":7841:7952  function getTrustedIssuers() public view returns (IClaimIssuer[] memory) {... */\n    tag_19:\n      tag_93\n      tag_94\n      jump\t// in\n    tag_93:\n      mload(0x40)\n      tag_95\n      swap2\n      swap1\n      tag_43\n      jump\t// in\n    tag_95:\n      mload(0x40)\n      dup1\n      swap2\n      sub\n      swap1\n      return\n        /* \"contracts/onChainID/contracts/verifiers/Verifier.sol\":8298:8488  function isTrustedIssuer(address issuer) public view returns (bool) {... */\n    tag_20:\n      tag_96\n      0x04\n      dup1\n      calldatasize\n      sub\n      dup2\n      add\n      swap1\n      tag_97\n      swap2\n      swap1\n      tag_46\n      jump\t// in\n    tag_97:\n      tag_98\n      jump\t// in\n    tag_96:\n      mload(0x40)\n      tag_99\n      swap2\n      swap1\n      tag_38\n      jump\t// in\n    tag_99:\n      mload(0x40)\n      dup1\n      swap2\n      sub\n      swap1\n      return\n        /* \"@openzeppelin/contracts/access/Ownable.sol\":2543:2758  function transferOwnership(address newOwner) public virtual onlyOwner {... */\n    tag_21:\n      tag_100\n      0x04\n      dup1\n      calldatasize\n      sub\n      dup2\n      add\n      swap1\n      tag_101\n      swap2\n      swap1\n      tag_46\n      jump\t// in\n    tag_101:\n      tag_102\n      jump\t// in\n    tag_100:\n      stop\n        /* \"contracts/onChainID/contracts/verifiers/Verifier.sol\":6284:7757  function updateIssuerClaimTopics(IClaimIssuer trustedIssuer, uint256[] calldata newClaimTopics) public onlyOwner {... */\n    tag_28:\n        /* \"@openzeppelin/contracts/access/Ownable.sol\":1531:1544  _checkOwner() */\n      tag_104\n        /* \"@openzeppelin/contracts/access/Ownable.sol\":1531:1542  _checkOwner */\n      tag_105\n        /* \"@openzeppelin/contracts/access/Ownable.sol\":1531:1544  _checkOwner() */\n      jump\t// in\n    tag_104:\n        /* \"contracts/onChainID/contracts/verifiers/Verifier.sol\":6449:6450  0 */\n      0x00\n        /* \"contracts/onChainID/contracts/verifiers/Verifier.sol\":6415:6451  address(trustedIssuer) != address(0) */\n      0xffffffffffffffffffffffffffffffffffffffff\n      and\n        /* \"contracts/onChainID/contracts/verifiers/Verifier.sol\":6423:6436  trustedIssuer */\n      dup4\n        /* \"contracts/onChainID/contracts/verifiers/Verifier.sol\":6415:6451  address(trustedIssuer) != address(0) */\n      0xffffffffffffffffffffffffffffffffffffffff\n      and\n      sub\n        /* \"contracts/onChainID/contracts/verifiers/Verifier.sol\":6407:6487  require(address(trustedIssuer) != address(0), \"invalid argument - zero address\") */\n      tag_107\n      jumpi\n      mload(0x40)\n      0x08c379a000000000000000000000000000000000000000000000000000000000\n      dup2\n      mstore\n      0x04\n      add\n      tag_108\n      swap1\n      tag_109\n      jump\t// in\n    tag_108:\n      mload(0x40)\n      dup1\n      swap2\n      sub\n      swap1\n      revert\n    tag_107:\n        /* \"contracts/onChainID/contracts/verifiers/Verifier.sol\":6564:6565  0 */\n      0x00\n        /* \"contracts/onChainID/contracts/verifiers/Verifier.sol\":6505:6529  trustedIssuerClaimTopics */\n      0x03\n        /* \"contracts/onChainID/contracts/verifiers/Verifier.sol\":6505:6553  trustedIssuerClaimTopics[address(trustedIssuer)] */\n      0x00\n        /* \"contracts/onChainID/contracts/verifiers/Verifier.sol\":6538:6551  trustedIssuer */\n      dup6\n        /* \"contracts/onChainID/contracts/verifiers/Verifier.sol\":6505:6553  trustedIssuerClaimTopics[address(trustedIssuer)] */\n      0xffffffffffffffffffffffffffffffffffffffff\n      and\n      0xffffffffffffffffffffffffffffffffffffffff\n      and\n      dup2\n      mstore\n      0x20\n      add\n      swap1\n      dup2\n      mstore\n      0x20\n      add\n      0x00\n      keccak256\n        /* \"contracts/onChainID/contracts/verifiers/Verifier.sol\":6505:6560  trustedIssuerClaimTopics[address(trustedIssuer)].length */\n      dup1\n      sload\n      swap1\n      pop\n        /* \"contracts/onChainID/contracts/verifiers/Verifier.sol\":6505:6565  trustedIssuerClaimTopics[address(trustedIssuer)].length != 0 */\n      sub\n        /* \"contracts/onChainID/contracts/verifiers/Verifier.sol\":6497:6590  require(trustedIssuerClaimTopics[address(trustedIssuer)].length != 0, \"NOT a trusted issuer\") */\n      tag_110\n      jumpi\n      mload(0x40)\n      0x08c379a000000000000000000000000000000000000000000000000000000000\n      dup2\n      mstore\n      0x04\n      add\n      tag_111\n      swap1\n      tag_112\n      jump\t// in\n    tag_111:\n      mload(0x40)\n      dup1\n      swap2\n      sub\n      swap1\n      revert\n    tag_110:\n        /* \"contracts/onChainID/contracts/verifiers/Verifier.sol\":6633:6635  15 */\n      0x0f\n        /* \"contracts/onChainID/contracts/verifiers/Verifier.sol\":6608:6622  newClaimTopics */\n      dup3\n      dup3\n        /* \"contracts/onChainID/contracts/verifiers/Verifier.sol\":6608:6629  newClaimTopics.length */\n      swap1\n      pop\n        /* \"contracts/onChainID/contracts/verifiers/Verifier.sol\":6608:6635  newClaimTopics.length <= 15 */\n      gt\n      iszero\n        /* \"contracts/onChainID/contracts/verifiers/Verifier.sol\":6600:6677  require(newClaimTopics.length <= 15, \"cannot have more than 15 claim topics\") */\n      tag_113\n      jumpi\n      mload(0x40)\n      0x08c379a000000000000000000000000000000000000000000000000000000000\n      dup2\n      mstore\n      0x04\n      add\n      tag_114\n      swap1\n      tag_115\n      jump\t// in\n    tag_114:\n      mload(0x40)\n      dup1\n      swap2\n      sub\n      swap1\n      revert\n    tag_113:\n        /* \"contracts/onChainID/contracts/verifiers/Verifier.sol\":6719:6720  0 */\n      0x00\n        /* \"contracts/onChainID/contracts/verifiers/Verifier.sol\":6695:6709  newClaimTopics */\n      dup3\n      dup3\n        /* \"contracts/onChainID/contracts/verifiers/Verifier.sol\":6695:6716  newClaimTopics.length */\n      swap1\n      pop\n        /* \"contracts/onChainID/contracts/verifiers/Verifier.sol\":6695:6720  newClaimTopics.length > 0 */\n      gt\n        /* \"contracts/onChainID/contracts/verifiers/Verifier.sol\":6687:6753  require(newClaimTopics.length > 0, \"claim topics cannot be empty\") */\n      tag_116\n      jumpi\n      mload(0x40)\n      0x08c379a000000000000000000000000000000000000000000000000000000000\n      dup2\n      mstore\n      0x04\n      add\n      tag_117\n      swap1\n      tag_118\n      jump\t// in\n    tag_117:\n      mload(0x40)\n      dup1\n      swap2\n      sub\n      swap1\n      revert\n    tag_116:\n        /* \"contracts/onChainID/contracts/verifiers/Verifier.sol\":6769:6778  uint256 i */\n      0x00\n        /* \"contracts/onChainID/contracts/verifiers/Verifier.sol\":6764:7460  for (uint256 i = 0; i < trustedIssuerClaimTopics[address(trustedIssuer)].length; i++) {... */\n    tag_119:\n        /* \"contracts/onChainID/contracts/verifiers/Verifier.sol\":6788:6812  trustedIssuerClaimTopics */\n      0x03\n        /* \"contracts/onChainID/contracts/verifiers/Verifier.sol\":6788:6836  trustedIssuerClaimTopics[address(trustedIssuer)] */\n      0x00\n        /* \"contracts/onChainID/contracts/verifiers/Verifier.sol\":6821:6834  trustedIssuer */\n      dup6\n        /* \"contracts/onChainID/contracts/verifiers/Verifier.sol\":6788:6836  trustedIssuerClaimTopics[address(trustedIssuer)] */\n      0xffffffffffffffffffffffffffffffffffffffff\n      and\n      0xffffffffffffffffffffffffffffffffffffffff\n      and\n      dup2\n      mstore\n      0x20\n      add\n      swap1\n      dup2\n      mstore\n      0x20\n      add\n      0x00\n      keccak256\n        /* \"contracts/onChainID/contracts/verifiers/Verifier.sol\":6788:6843  trustedIssuerClaimTopics[address(trustedIssuer)].length */\n      dup1\n      sload\n      swap1\n      pop\n        /* \"contracts/onChainID/contracts/verifiers/Verifier.sol\":6784:6785  i */\n      dup2\n        /* \"contracts/onChainID/contracts/verifiers/Verifier.sol\":6784:6843  i < trustedIssuerClaimTopics[address(trustedIssuer)].length */\n      lt\n        /* \"contracts/onChainID/contracts/verifiers/Verifier.sol\":6764:7460  for (uint256 i = 0; i < trustedIssuerClaimTopics[address(trustedIssuer)].length; i++) {... */\n      iszero\n      tag_120\n      jumpi\n        /* \"contracts/onChainID/contracts/verifiers/Verifier.sol\":6864:6882  uint256 claimTopic */\n      0x00\n        /* \"contracts/onChainID/contracts/verifiers/Verifier.sol\":6885:6909  trustedIssuerClaimTopics */\n      0x03\n        /* \"contracts/onChainID/contracts/verifiers/Verifier.sol\":6885:6933  trustedIssuerClaimTopics[address(trustedIssuer)] */\n      0x00\n        /* \"contracts/onChainID/contracts/verifiers/Verifier.sol\":6918:6931  trustedIssuer */\n      dup7\n        /* \"contracts/onChainID/contracts/verifiers/Verifier.sol\":6885:6933  trustedIssuerClaimTopics[address(trustedIssuer)] */\n      0xffffffffffffffffffffffffffffffffffffffff\n      and\n      0xffffffffffffffffffffffffffffffffffffffff\n      and\n      dup2\n      mstore\n      0x20\n      add\n      swap1\n      dup2\n      mstore\n      0x20\n      add\n      0x00\n      keccak256\n        /* \"contracts/onChainID/contracts/verifiers/Verifier.sol\":6934:6935  i */\n      dup3\n        /* \"contracts/onChainID/contracts/verifiers/Verifier.sol\":6885:6936  trustedIssuerClaimTopics[address(trustedIssuer)][i] */\n      dup2\n      sload\n      dup2\n      lt\n      tag_122\n      jumpi\n      tag_123\n      tag_124\n      jump\t// in\n    tag_123:\n    tag_122:\n      swap1\n      0x00\n      mstore\n      keccak256(0x00, 0x20)\n      add\n      sload\n        /* \"contracts/onChainID/contracts/verifiers/Verifier.sol\":6864:6936  uint256 claimTopic = trustedIssuerClaimTopics[address(trustedIssuer)][i] */\n      swap1\n      pop\n        /* \"contracts/onChainID/contracts/verifiers/Verifier.sol\":6950:6970  uint256 topicsLength */\n      0x00\n        /* \"contracts/onChainID/contracts/verifiers/Verifier.sol\":6973:7000  claimTopicsToTrustedIssuers */\n      0x04\n        /* \"contracts/onChainID/contracts/verifiers/Verifier.sol\":6973:7012  claimTopicsToTrustedIssuers[claimTopic] */\n      0x00\n        /* \"contracts/onChainID/contracts/verifiers/Verifier.sol\":7001:7011  claimTopic */\n      dup4\n        /* \"contracts/onChainID/contracts/verifiers/Verifier.sol\":6973:7012  claimTopicsToTrustedIssuers[claimTopic] */\n      dup2\n      mstore\n      0x20\n      add\n      swap1\n      dup2\n      mstore\n      0x20\n      add\n      0x00\n      keccak256\n        /* \"contracts/onChainID/contracts/verifiers/Verifier.sol\":6973:7019  claimTopicsToTrustedIssuers[claimTopic].length */\n      dup1\n      sload\n      swap1\n      pop\n        /* \"contracts/onChainID/contracts/verifiers/Verifier.sol\":6950:7019  uint256 topicsLength = claimTopicsToTrustedIssuers[claimTopic].length */\n      swap1\n      pop\n        /* \"contracts/onChainID/contracts/verifiers/Verifier.sol\":7038:7047  uint256 j */\n      0x00\n        /* \"contracts/onChainID/contracts/verifiers/Verifier.sol\":7033:7450  for (uint256 j = 0; j < topicsLength; j++) {... */\n    tag_126:\n        /* \"contracts/onChainID/contracts/verifiers/Verifier.sol\":7057:7069  topicsLength */\n      dup2\n        /* \"contracts/onChainID/contracts/verifiers/Verifier.sol\":7053:7054  j */\n      dup2\n        /* \"contracts/onChainID/contracts/verifiers/Verifier.sol\":7053:7069  j < topicsLength */\n      lt\n        /* \"contracts/onChainID/contracts/verifiers/Verifier.sol\":7033:7450  for (uint256 j = 0; j < topicsLength; j++) {... */\n      iszero\n      tag_127\n      jumpi\n        /* \"contracts/onChainID/contracts/verifiers/Verifier.sol\":7144:7157  trustedIssuer */\n      dup7\n        /* \"contracts/onChainID/contracts/verifiers/Verifier.sol\":7098:7157  claimTopicsToTrustedIssuers[claimTopic][j] == trustedIssuer */\n      0xffffffffffffffffffffffffffffffffffffffff\n      and\n        /* \"contracts/onChainID/contracts/verifiers/Verifier.sol\":7098:7125  claimTopicsToTrustedIssuers */\n      0x04\n        /* \"contracts/onChainID/contracts/verifiers/Verifier.sol\":7098:7137  claimTopicsToTrustedIssuers[claimTopic] */\n      0x00\n        /* \"contracts/onChainID/contracts/verifiers/Verifier.sol\":7126:7136  claimTopic */\n      dup6\n        /* \"contracts/onChainID/contracts/verifiers/Verifier.sol\":7098:7137  claimTopicsToTrustedIssuers[claimTopic] */\n      dup2\n      mstore\n      0x20\n      add\n      swap1\n      dup2\n      mstore\n      0x20\n      add\n      0x00\n      keccak256\n        /* \"contracts/onChainID/contracts/verifiers/Verifier.sol\":7138:7139  j */\n      dup3\n        /* \"contracts/onChainID/contracts/verifiers/Verifier.sol\":7098:7140  claimTopicsToTrustedIssuers[claimTopic][j] */\n      dup2\n      sload\n      dup2\n      lt\n      tag_129\n      jumpi\n      tag_130\n      tag_124\n      jump\t// in\n    tag_130:\n    tag_129:\n      swap1\n      0x00\n      mstore\n      keccak256(0x00, 0x20)\n      add\n      0x00\n      swap1\n      sload\n      swap1\n      0x0100\n      exp\n      swap1\n      div\n      0xffffffffffffffffffffffffffffffffffffffff\n      and\n        /* \"contracts/onChainID/contracts/verifiers/Verifier.sol\":7098:7157  claimTopicsToTrustedIssuers[claimTopic][j] == trustedIssuer */\n      0xffffffffffffffffffffffffffffffffffffffff\n      and\n      sub\n        /* \"contracts/onChainID/contracts/verifiers/Verifier.sol\":7094:7436  if (claimTopicsToTrustedIssuers[claimTopic][j] == trustedIssuer) {... */\n      tag_132\n      jumpi\n        /* \"contracts/onChainID/contracts/verifiers/Verifier.sol\":7266:7293  claimTopicsToTrustedIssuers */\n      0x04\n        /* \"contracts/onChainID/contracts/verifiers/Verifier.sol\":7266:7305  claimTopicsToTrustedIssuers[claimTopic] */\n      0x00\n        /* \"contracts/onChainID/contracts/verifiers/Verifier.sol\":7294:7304  claimTopic */\n      dup5\n        /* \"contracts/onChainID/contracts/verifiers/Verifier.sol\":7266:7305  claimTopicsToTrustedIssuers[claimTopic] */\n      dup2\n      mstore\n      0x20\n      add\n      swap1\n      dup2\n      mstore\n      0x20\n      add\n      0x00\n      keccak256\n        /* \"contracts/onChainID/contracts/verifiers/Verifier.sol\":7321:7322  1 */\n      0x01\n        /* \"contracts/onChainID/contracts/verifiers/Verifier.sol\":7306:7318  topicsLength */\n      dup4\n        /* \"contracts/onChainID/contracts/verifiers/Verifier.sol\":7306:7322  topicsLength - 1 */\n      tag_133\n      swap2\n      swap1\n      tag_134\n      jump\t// in\n    tag_133:\n        /* \"contracts/onChainID/contracts/verifiers/Verifier.sol\":7266:7323  claimTopicsToTrustedIssuers[claimTopic][topicsLength - 1] */\n      dup2\n      sload\n      dup2\n      lt\n      tag_135\n      jumpi\n      tag_136\n      tag_124\n      jump\t// in\n    tag_136:\n    tag_135:\n      swap1\n      0x00\n      mstore\n      keccak256(0x00, 0x20)\n      add\n      0x00\n      swap1\n      sload\n      swap1\n      0x0100\n      exp\n      swap1\n      div\n      0xffffffffffffffffffffffffffffffffffffffff\n      and\n        /* \"contracts/onChainID/contracts/verifiers/Verifier.sol\":7181:7208  claimTopicsToTrustedIssuers */\n      0x04\n        /* \"contracts/onChainID/contracts/verifiers/Verifier.sol\":7181:7220  claimTopicsToTrustedIssuers[claimTopic] */\n      0x00\n        /* \"contracts/onChainID/contracts/verifiers/Verifier.sol\":7209:7219  claimTopic */\n      dup6\n        /* \"contracts/onChainID/contracts/verifiers/Verifier.sol\":7181:7220  claimTopicsToTrustedIssuers[claimTopic] */\n      dup2\n      mstore\n      0x20\n      add\n      swap1\n      dup2\n      mstore\n      0x20\n      add\n      0x00\n      keccak256\n        /* \"contracts/onChainID/contracts/verifiers/Verifier.sol\":7221:7222  j */\n      dup3\n        /* \"contracts/onChainID/contracts/verifiers/Verifier.sol\":7181:7223  claimTopicsToTrustedIssuers[claimTopic][j] */\n      dup2\n      sload\n      dup2\n      lt\n      tag_138\n      jumpi\n      tag_139\n      tag_124\n      jump\t// in\n    tag_139:\n    tag_138:\n      swap1\n      0x00\n      mstore\n      keccak256(0x00, 0x20)\n      add\n      0x00\n        /* \"contracts/onChainID/contracts/verifiers/Verifier.sol\":7181:7323  claimTopicsToTrustedIssuers[claimTopic][j] =... */\n      0x0100\n      exp\n      dup2\n      sload\n      dup2\n      0xffffffffffffffffffffffffffffffffffffffff\n      mul\n      not\n      and\n      swap1\n      dup4\n      0xffffffffffffffffffffffffffffffffffffffff\n      and\n      mul\n      or\n      swap1\n      sstore\n      pop\n        /* \"contracts/onChainID/contracts/verifiers/Verifier.sol\":7345:7372  claimTopicsToTrustedIssuers */\n      0x04\n        /* \"contracts/onChainID/contracts/verifiers/Verifier.sol\":7345:7384  claimTopicsToTrustedIssuers[claimTopic] */\n      0x00\n        /* \"contracts/onChainID/contracts/verifiers/Verifier.sol\":7373:7383  claimTopic */\n      dup5\n        /* \"contracts/onChainID/contracts/verifiers/Verifier.sol\":7345:7384  claimTopicsToTrustedIssuers[claimTopic] */\n      dup2\n      mstore\n      0x20\n      add\n      swap1\n      dup2\n      mstore\n      0x20\n      add\n      0x00\n      keccak256\n        /* \"contracts/onChainID/contracts/verifiers/Verifier.sol\":7345:7390  claimTopicsToTrustedIssuers[claimTopic].pop() */\n      dup1\n      sload\n      dup1\n      tag_141\n      jumpi\n      tag_142\n      tag_143\n      jump\t// in\n    tag_142:\n    tag_141:\n      0x01\n      swap1\n      sub\n      dup2\n      dup2\n      swap1\n      0x00\n      mstore\n      keccak256(0x00, 0x20)\n      add\n      exp(0x0100, 0x00)\n      dup2\n      sload\n      swap1\n      0xffffffffffffffffffffffffffffffffffffffff\n      mul\n      not\n      and\n      swap1\n      sstore\n      swap1\n      sstore\n        /* \"contracts/onChainID/contracts/verifiers/Verifier.sol\":7412:7417  break */\n      jump(tag_127)\n        /* \"contracts/onChainID/contracts/verifiers/Verifier.sol\":7094:7436  if (claimTopicsToTrustedIssuers[claimTopic][j] == trustedIssuer) {... */\n    tag_132:\n        /* \"contracts/onChainID/contracts/verifiers/Verifier.sol\":7071:7074  j++ */\n      dup1\n      dup1\n      tag_145\n      swap1\n      tag_146\n      jump\t// in\n    tag_145:\n      swap2\n      pop\n      pop\n        /* \"contracts/onChainID/contracts/verifiers/Verifier.sol\":7033:7450  for (uint256 j = 0; j < topicsLength; j++) {... */\n      jump(tag_126)\n    tag_127:\n      pop\n        /* \"contracts/onChainID/contracts/verifiers/Verifier.sol\":6850:7460  {... */\n      pop\n      pop\n        /* \"contracts/onChainID/contracts/verifiers/Verifier.sol\":6845:6848  i++ */\n      dup1\n      dup1\n      tag_147\n      swap1\n      tag_146\n      jump\t// in\n    tag_147:\n      swap2\n      pop\n      pop\n        /* \"contracts/onChainID/contracts/verifiers/Verifier.sol\":6764:7460  for (uint256 i = 0; i < trustedIssuerClaimTopics[address(trustedIssuer)].length; i++) {... */\n      jump(tag_119)\n    tag_120:\n      pop\n        /* \"contracts/onChainID/contracts/verifiers/Verifier.sol\":7520:7534  newClaimTopics */\n      dup2\n      dup2\n        /* \"contracts/onChainID/contracts/verifiers/Verifier.sol\":7469:7493  trustedIssuerClaimTopics */\n      0x03\n        /* \"contracts/onChainID/contracts/verifiers/Verifier.sol\":7469:7517  trustedIssuerClaimTopics[address(trustedIssuer)] */\n      0x00\n        /* \"contracts/onChainID/contracts/verifiers/Verifier.sol\":7502:7515  trustedIssuer */\n      dup7\n        /* \"contracts/onChainID/contracts/verifiers/Verifier.sol\":7469:7517  trustedIssuerClaimTopics[address(trustedIssuer)] */\n      0xffffffffffffffffffffffffffffffffffffffff\n      and\n      0xffffffffffffffffffffffffffffffffffffffff\n      and\n      dup2\n      mstore\n      0x20\n      add\n      swap1\n      dup2\n      mstore\n      0x20\n      add\n      0x00\n      keccak256\n        /* \"contracts/onChainID/contracts/verifiers/Verifier.sol\":7469:7534  trustedIssuerClaimTopics[address(trustedIssuer)] = newClaimTopics */\n      swap2\n      swap1\n      tag_148\n      swap3\n      swap2\n      swap1\n      tag_149\n      jump\t// in\n    tag_148:\n      pop\n        /* \"contracts/onChainID/contracts/verifiers/Verifier.sol\":7549:7558  uint256 i */\n      0x00\n        /* \"contracts/onChainID/contracts/verifiers/Verifier.sol\":7544:7687  for (uint256 i = 0; i < newClaimTopics.length; i++) {... */\n    tag_150:\n        /* \"contracts/onChainID/contracts/verifiers/Verifier.sol\":7568:7582  newClaimTopics */\n      dup3\n      dup3\n        /* \"contracts/onChainID/contracts/verifiers/Verifier.sol\":7568:7589  newClaimTopics.length */\n      swap1\n      pop\n        /* \"contracts/onChainID/contracts/verifiers/Verifier.sol\":7564:7565  i */\n      dup2\n        /* \"contracts/onChainID/contracts/verifiers/Verifier.sol\":7564:7589  i < newClaimTopics.length */\n      lt\n        /* \"contracts/onChainID/contracts/verifiers/Verifier.sol\":7544:7687  for (uint256 i = 0; i < newClaimTopics.length; i++) {... */\n      iszero\n      tag_151\n      jumpi\n        /* \"contracts/onChainID/contracts/verifiers/Verifier.sol\":7610:7637  claimTopicsToTrustedIssuers */\n      0x04\n        /* \"contracts/onChainID/contracts/verifiers/Verifier.sol\":7610:7656  claimTopicsToTrustedIssuers[newClaimTopics[i]] */\n      0x00\n        /* \"contracts/onChainID/contracts/verifiers/Verifier.sol\":7638:7652  newClaimTopics */\n      dup5\n      dup5\n        /* \"contracts/onChainID/contracts/verifiers/Verifier.sol\":7653:7654  i */\n      dup5\n        /* \"contracts/onChainID/contracts/verifiers/Verifier.sol\":7638:7655  newClaimTopics[i] */\n      dup2\n      dup2\n      lt\n      tag_153\n      jumpi\n      tag_154\n      tag_124\n      jump\t// in\n    tag_154:\n    tag_153:\n      swap1\n      pop\n      0x20\n      mul\n      add\n      calldataload\n        /* \"contracts/onChainID/contracts/verifiers/Verifier.sol\":7610:7656  claimTopicsToTrustedIssuers[newClaimTopics[i]] */\n      dup2\n      mstore\n      0x20\n      add\n      swap1\n      dup2\n      mstore\n      0x20\n      add\n      0x00\n      keccak256\n        /* \"contracts/onChainID/contracts/verifiers/Verifier.sol\":7662:7675  trustedIssuer */\n      dup5\n        /* \"contracts/onChainID/contracts/verifiers/Verifier.sol\":7610:7676  claimTopicsToTrustedIssuers[newClaimTopics[i]].push(trustedIssuer) */\n      swap1\n      dup1\n      0x01\n      dup2\n      sload\n      add\n      dup1\n      dup3\n      sstore\n      dup1\n      swap2\n      pop\n      pop\n      0x01\n      swap1\n      sub\n      swap1\n      0x00\n      mstore\n      keccak256(0x00, 0x20)\n      add\n      0x00\n      swap1\n      swap2\n      swap1\n      swap2\n      swap1\n      swap2\n      0x0100\n      exp\n      dup2\n      sload\n      dup2\n      0xffffffffffffffffffffffffffffffffffffffff\n      mul\n      not\n      and\n      swap1\n      dup4\n      0xffffffffffffffffffffffffffffffffffffffff\n      and\n      mul\n      or\n      swap1\n      sstore\n      pop\n        /* \"contracts/onChainID/contracts/verifiers/Verifier.sol\":7591:7594  i++ */\n      dup1\n      dup1\n      tag_156\n      swap1\n      tag_146\n      jump\t// in\n    tag_156:\n      swap2\n      pop\n      pop\n        /* \"contracts/onChainID/contracts/verifiers/Verifier.sol\":7544:7687  for (uint256 i = 0; i < newClaimTopics.length; i++) {... */\n      jump(tag_150)\n    tag_151:\n      pop\n        /* \"contracts/onChainID/contracts/verifiers/Verifier.sol\":7720:7733  trustedIssuer */\n      dup3\n        /* \"contracts/onChainID/contracts/verifiers/Verifier.sol\":7701:7750  ClaimTopicsUpdated(trustedIssuer, newClaimTopics) */\n      0xffffffffffffffffffffffffffffffffffffffff\n      and\n      0xec753cfc52044f61676f18a11e500093a9f2b1cd5e4942bc476f2b0438159bcf\n        /* \"contracts/onChainID/contracts/verifiers/Verifier.sol\":7735:7749  newClaimTopics */\n      dup4\n      dup4\n        /* \"contracts/onChainID/contracts/verifiers/Verifier.sol\":7701:7750  ClaimTopicsUpdated(trustedIssuer, newClaimTopics) */\n      mload(0x40)\n      tag_157\n      swap3\n      swap2\n      swap1\n      tag_158\n      jump\t// in\n    tag_157:\n      mload(0x40)\n      dup1\n      swap2\n      sub\n      swap1\n      log2\n        /* \"contracts/onChainID/contracts/verifiers/Verifier.sol\":6284:7757  function updateIssuerClaimTopics(IClaimIssuer trustedIssuer, uint256[] calldata newClaimTopics) public onlyOwner {... */\n      pop\n      pop\n      pop\n      jump\t// out\n        /* \"contracts/onChainID/contracts/verifiers/Verifier.sol\":3209:3651  function removeClaimTopic(uint256 claimTopic) public onlyOwner {... */\n    tag_32:\n        /* \"@openzeppelin/contracts/access/Ownable.sol\":1531:1544  _checkOwner() */\n      tag_160\n        /* \"@openzeppelin/contracts/access/Ownable.sol\":1531:1542  _checkOwner */\n      tag_105\n        /* \"@openzeppelin/contracts/access/Ownable.sol\":1531:1544  _checkOwner() */\n      jump\t// in\n    tag_160:\n        /* \"contracts/onChainID/contracts/verifiers/Verifier.sol\":3282:3296  uint256 length */\n      0x00\n        /* \"contracts/onChainID/contracts/verifiers/Verifier.sol\":3299:3318  requiredClaimTopics */\n      0x01\n        /* \"contracts/onChainID/contracts/verifiers/Verifier.sol\":3299:3325  requiredClaimTopics.length */\n      dup1\n      sload\n      swap1\n      pop\n        /* \"contracts/onChainID/contracts/verifiers/Verifier.sol\":3282:3325  uint256 length = requiredClaimTopics.length */\n      swap1\n      pop\n        /* \"contracts/onChainID/contracts/verifiers/Verifier.sol\":3340:3349  uint256 i */\n      0x00\n        /* \"contracts/onChainID/contracts/verifiers/Verifier.sol\":3335:3645  for (uint256 i = 0; i < length; i++) {... */\n    tag_162:\n        /* \"contracts/onChainID/contracts/verifiers/Verifier.sol\":3359:3365  length */\n      dup2\n        /* \"contracts/onChainID/contracts/verifiers/Verifier.sol\":3355:3356  i */\n      dup2\n        /* \"contracts/onChainID/contracts/verifiers/Verifier.sol\":3355:3365  i < length */\n      lt\n        /* \"contracts/onChainID/contracts/verifiers/Verifier.sol\":3335:3645  for (uint256 i = 0; i < length; i++) {... */\n      iszero\n      tag_163\n      jumpi\n        /* \"contracts/onChainID/contracts/verifiers/Verifier.sol\":3416:3426  claimTopic */\n      dup3\n        /* \"contracts/onChainID/contracts/verifiers/Verifier.sol\":3390:3409  requiredClaimTopics */\n      0x01\n        /* \"contracts/onChainID/contracts/verifiers/Verifier.sol\":3410:3411  i */\n      dup3\n        /* \"contracts/onChainID/contracts/verifiers/Verifier.sol\":3390:3412  requiredClaimTopics[i] */\n      dup2\n      sload\n      dup2\n      lt\n      tag_165\n      jumpi\n      tag_166\n      tag_124\n      jump\t// in\n    tag_166:\n    tag_165:\n      swap1\n      0x00\n      mstore\n      keccak256(0x00, 0x20)\n      add\n      sload\n        /* \"contracts/onChainID/contracts/verifiers/Verifier.sol\":3390:3426  requiredClaimTopics[i] == claimTopic */\n      sub\n        /* \"contracts/onChainID/contracts/verifiers/Verifier.sol\":3386:3635  if (requiredClaimTopics[i] == claimTopic) {... */\n      tag_168\n      jumpi\n        /* \"contracts/onChainID/contracts/verifiers/Verifier.sol\":3471:3490  requiredClaimTopics */\n      0x01\n        /* \"contracts/onChainID/contracts/verifiers/Verifier.sol\":3500:3501  1 */\n      dup1\n        /* \"contracts/onChainID/contracts/verifiers/Verifier.sol\":3491:3497  length */\n      dup4\n        /* \"contracts/onChainID/contracts/verifiers/Verifier.sol\":3491:3501  length - 1 */\n      tag_169\n      swap2\n      swap1\n      tag_134\n      jump\t// in\n    tag_169:\n        /* \"contracts/onChainID/contracts/verifiers/Verifier.sol\":3471:3502  requiredClaimTopics[length - 1] */\n      dup2\n      sload\n      dup2\n      lt\n      tag_170\n      jumpi\n      tag_171\n      tag_124\n      jump\t// in\n    tag_171:\n    tag_170:\n      swap1\n      0x00\n      mstore\n      keccak256(0x00, 0x20)\n      add\n      sload\n        /* \"contracts/onChainID/contracts/verifiers/Verifier.sol\":3446:3465  requiredClaimTopics */\n      0x01\n        /* \"contracts/onChainID/contracts/verifiers/Verifier.sol\":3466:3467  i */\n      dup3\n        /* \"contracts/onChainID/contracts/verifiers/Verifier.sol\":3446:3468  requiredClaimTopics[i] */\n      dup2\n      sload\n      dup2\n      lt\n      tag_173\n      jumpi\n      tag_174\n      tag_124\n      jump\t// in\n    tag_174:\n    tag_173:\n      swap1\n      0x00\n      mstore\n      keccak256(0x00, 0x20)\n      add\n        /* \"contracts/onChainID/contracts/verifiers/Verifier.sol\":3446:3502  requiredClaimTopics[i] = requiredClaimTopics[length - 1] */\n      dup2\n      swap1\n      sstore\n      pop\n        /* \"contracts/onChainID/contracts/verifiers/Verifier.sol\":3520:3539  requiredClaimTopics */\n      0x01\n        /* \"contracts/onChainID/contracts/verifiers/Verifier.sol\":3520:3545  requiredClaimTopics.pop() */\n      dup1\n      sload\n      dup1\n      tag_176\n      jumpi\n      tag_177\n      tag_143\n      jump\t// in\n    tag_177:\n    tag_176:\n      0x01\n      swap1\n      sub\n      dup2\n      dup2\n      swap1\n      0x00\n      mstore\n      keccak256(0x00, 0x20)\n      add\n      0x00\n      swap1\n      sstore\n      swap1\n      sstore\n        /* \"contracts/onChainID/contracts/verifiers/Verifier.sol\":3586:3596  claimTopic */\n      dup3\n        /* \"contracts/onChainID/contracts/verifiers/Verifier.sol\":3568:3597  ClaimTopicRemoved(claimTopic) */\n      0x0b1381093c776453c1bbe54fd68be1b235c65db61d099cb50d194b2991e0eec5\n      mload(0x40)\n      mload(0x40)\n      dup1\n      swap2\n      sub\n      swap1\n      log2\n        /* \"contracts/onChainID/contracts/verifiers/Verifier.sol\":3615:3620  break */\n      jump(tag_163)\n        /* \"contracts/onChainID/contracts/verifiers/Verifier.sol\":3386:3635  if (requiredClaimTopics[i] == claimTopic) {... */\n    tag_168:\n        /* \"contracts/onChainID/contracts/verifiers/Verifier.sol\":3367:3370  i++ */\n      dup1\n      dup1\n      tag_179\n      swap1\n      tag_146\n      jump\t// in\n    tag_179:\n      swap2\n      pop\n      pop\n        /* \"contracts/onChainID/contracts/verifiers/Verifier.sol\":3335:3645  for (uint256 i = 0; i < length; i++) {... */\n      jump(tag_162)\n    tag_163:\n      pop\n        /* \"contracts/onChainID/contracts/verifiers/Verifier.sol\":3272:3651  {... */\n      pop\n        /* \"contracts/onChainID/contracts/verifiers/Verifier.sol\":3209:3651  function removeClaimTopic(uint256 claimTopic) public onlyOwner {... */\n      pop\n      jump\t// out\n        /* \"contracts/onChainID/contracts/verifiers/Verifier.sol\":8950:9331  function hasClaimTopic(address issuer, uint256 claimTopic) public view returns (bool) {... */\n    tag_36:\n        /* \"contracts/onChainID/contracts/verifiers/Verifier.sol\":9030:9034  bool */\n      0x00\n        /* \"contracts/onChainID/contracts/verifiers/Verifier.sol\":9046:9074  uint256[] memory claimTopics */\n      dup1\n        /* \"contracts/onChainID/contracts/verifiers/Verifier.sol\":9077:9101  trustedIssuerClaimTopics */\n      0x03\n        /* \"contracts/onChainID/contracts/verifiers/Verifier.sol\":9077:9109  trustedIssuerClaimTopics[issuer] */\n      0x00\n        /* \"contracts/onChainID/contracts/verifiers/Verifier.sol\":9102:9108  issuer */\n      dup6\n        /* \"contracts/onChainID/contracts/verifiers/Verifier.sol\":9077:9109  trustedIssuerClaimTopics[issuer] */\n      0xffffffffffffffffffffffffffffffffffffffff\n      and\n      0xffffffffffffffffffffffffffffffffffffffff\n      and\n      dup2\n      mstore\n      0x20\n      add\n      swap1\n      dup2\n      mstore\n      0x20\n      add\n      0x00\n      keccak256\n        /* \"contracts/onChainID/contracts/verifiers/Verifier.sol\":9046:9109  uint256[] memory claimTopics = trustedIssuerClaimTopics[issuer] */\n      dup1\n      sload\n      dup1\n      0x20\n      mul\n      0x20\n      add\n      mload(0x40)\n      swap1\n      dup2\n      add\n      0x40\n      mstore\n      dup1\n      swap3\n      swap2\n      swap1\n      dup2\n      dup2\n      mstore\n      0x20\n      add\n      dup3\n      dup1\n      sload\n      dup1\n      iszero\n      tag_181\n      jumpi\n      0x20\n      mul\n      dup3\n      add\n      swap2\n      swap1\n      0x00\n      mstore\n      keccak256(0x00, 0x20)\n      swap1\n    tag_182:\n      dup2\n      sload\n      dup2\n      mstore\n      0x20\n      add\n      swap1\n      0x01\n      add\n      swap1\n      dup1\n      dup4\n      gt\n      tag_182\n      jumpi\n    tag_181:\n      pop\n      pop\n      pop\n      pop\n      pop\n      swap1\n      pop\n        /* \"contracts/onChainID/contracts/verifiers/Verifier.sol\":9119:9133  uint256 length */\n      0x00\n        /* \"contracts/onChainID/contracts/verifiers/Verifier.sol\":9136:9147  claimTopics */\n      dup2\n        /* \"contracts/onChainID/contracts/verifiers/Verifier.sol\":9136:9154  claimTopics.length */\n      mload\n        /* \"contracts/onChainID/contracts/verifiers/Verifier.sol\":9119:9154  uint256 length = claimTopics.length */\n      swap1\n      pop\n        /* \"contracts/onChainID/contracts/verifiers/Verifier.sol\":9169:9178  uint256 i */\n      0x00\n        /* \"contracts/onChainID/contracts/verifiers/Verifier.sol\":9164:9303  for (uint256 i = 0; i < length; i++) {... */\n    tag_183:\n        /* \"contracts/onChainID/contracts/verifiers/Verifier.sol\":9188:9194  length */\n      dup2\n        /* \"contracts/onChainID/contracts/verifiers/Verifier.sol\":9184:9185  i */\n      dup2\n        /* \"contracts/onChainID/contracts/verifiers/Verifier.sol\":9184:9194  i < length */\n      lt\n        /* \"contracts/onChainID/contracts/verifiers/Verifier.sol\":9164:9303  for (uint256 i = 0; i < length; i++) {... */\n      iszero\n      tag_184\n      jumpi\n        /* \"contracts/onChainID/contracts/verifiers/Verifier.sol\":9237:9247  claimTopic */\n      dup5\n        /* \"contracts/onChainID/contracts/verifiers/Verifier.sol\":9219:9230  claimTopics */\n      dup4\n        /* \"contracts/onChainID/contracts/verifiers/Verifier.sol\":9231:9232  i */\n      dup3\n        /* \"contracts/onChainID/contracts/verifiers/Verifier.sol\":9219:9233  claimTopics[i] */\n      dup2\n      mload\n      dup2\n      lt\n      tag_186\n      jumpi\n      tag_187\n      tag_124\n      jump\t// in\n    tag_187:\n    tag_186:\n      0x20\n      mul\n      0x20\n      add\n      add\n      mload\n        /* \"contracts/onChainID/contracts/verifiers/Verifier.sol\":9219:9247  claimTopics[i] == claimTopic */\n      sub\n        /* \"contracts/onChainID/contracts/verifiers/Verifier.sol\":9215:9293  if (claimTopics[i] == claimTopic) {... */\n      tag_188\n      jumpi\n        /* \"contracts/onChainID/contracts/verifiers/Verifier.sol\":9274:9278  true */\n      0x01\n        /* \"contracts/onChainID/contracts/verifiers/Verifier.sol\":9267:9278  return true */\n      swap4\n      pop\n      pop\n      pop\n      pop\n      jump(tag_180)\n        /* \"contracts/onChainID/contracts/verifiers/Verifier.sol\":9215:9293  if (claimTopics[i] == claimTopic) {... */\n    tag_188:\n        /* \"contracts/onChainID/contracts/verifiers/Verifier.sol\":9196:9199  i++ */\n      dup1\n      dup1\n      tag_189\n      swap1\n      tag_146\n      jump\t// in\n    tag_189:\n      swap2\n      pop\n      pop\n        /* \"contracts/onChainID/contracts/verifiers/Verifier.sol\":9164:9303  for (uint256 i = 0; i < length; i++) {... */\n      jump(tag_183)\n    tag_184:\n      pop\n        /* \"contracts/onChainID/contracts/verifiers/Verifier.sol\":9319:9324  false */\n      0x00\n        /* \"contracts/onChainID/contracts/verifiers/Verifier.sol\":9312:9324  return false */\n      swap3\n      pop\n      pop\n      pop\n        /* \"contracts/onChainID/contracts/verifiers/Verifier.sol\":8950:9331  function hasClaimTopic(address issuer, uint256 claimTopic) public view returns (bool) {... */\n    tag_180:\n      swap3\n      swap2\n      pop\n      pop\n      jump\t// out\n        /* \"contracts/onChainID/contracts/verifiers/Verifier.sol\":8049:8216  function getTrustedIssuersForClaimTopic(uint256 claimTopic) public view returns (IClaimIssuer[] memory) {... */\n    tag_41:\n        /* \"contracts/onChainID/contracts/verifiers/Verifier.sol\":8130:8151  IClaimIssuer[] memory */\n      0x60\n        /* \"contracts/onChainID/contracts/verifiers/Verifier.sol\":8170:8197  claimTopicsToTrustedIssuers */\n      0x04\n        /* \"contracts/onChainID/contracts/verifiers/Verifier.sol\":8170:8209  claimTopicsToTrustedIssuers[claimTopic] */\n      0x00\n        /* \"contracts/onChainID/contracts/verifiers/Verifier.sol\":8198:8208  claimTopic */\n      dup4\n        /* \"contracts/onChainID/contracts/verifiers/Verifier.sol\":8170:8209  claimTopicsToTrustedIssuers[claimTopic] */\n      dup2\n      mstore\n      0x20\n      add\n      swap1\n      dup2\n      mstore\n      0x20\n      add\n      0x00\n      keccak256\n        /* \"contracts/onChainID/contracts/verifiers/Verifier.sol\":8163:8209  return claimTopicsToTrustedIssuers[claimTopic] */\n      dup1\n      sload\n      dup1\n      0x20\n      mul\n      0x20\n      add\n      mload(0x40)\n      swap1\n      dup2\n      add\n      0x40\n      mstore\n      dup1\n      swap3\n      swap2\n      swap1\n      dup2\n      dup2\n      mstore\n      0x20\n      add\n      dup3\n      dup1\n      sload\n      dup1\n      iszero\n      tag_191\n      jumpi\n      0x20\n      mul\n      dup3\n      add\n      swap2\n      swap1\n      0x00\n      mstore\n      keccak256(0x00, 0x20)\n      swap1\n    tag_192:\n      dup2\n      0x00\n      swap1\n      sload\n      swap1\n      0x0100\n      exp\n      swap1\n      div\n      0xffffffffffffffffffffffffffffffffffffffff\n      and\n      0xffffffffffffffffffffffffffffffffffffffff\n      and\n      dup2\n      mstore\n      0x20\n      add\n      swap1\n      0x01\n      add\n      swap1\n      dup1\n      dup4\n      gt\n      tag_192\n      jumpi\n    tag_191:\n      pop\n      pop\n      pop\n      pop\n      pop\n      swap1\n      pop\n        /* \"contracts/onChainID/contracts/verifiers/Verifier.sol\":8049:8216  function getTrustedIssuersForClaimTopic(uint256 claimTopic) public view returns (IClaimIssuer[] memory) {... */\n      swap2\n      swap1\n      pop\n      jump\t// out\n        /* \"contracts/onChainID/contracts/verifiers/Verifier.sol\":9896:11939  function verify(address identity) public view returns(bool isVerified) {... */\n    tag_47:\n        /* \"contracts/onChainID/contracts/verifiers/Verifier.sol\":9950:9965  bool isVerified */\n      0x00\n        /* \"contracts/onChainID/contracts/verifiers/Verifier.sol\":10011:10012  0 */\n      dup1\n        /* \"contracts/onChainID/contracts/verifiers/Verifier.sol\":9981:10000  requiredClaimTopics */\n      0x01\n        /* \"contracts/onChainID/contracts/verifiers/Verifier.sol\":9981:10007  requiredClaimTopics.length */\n      dup1\n      sload\n      swap1\n      pop\n        /* \"contracts/onChainID/contracts/verifiers/Verifier.sol\":9981:10012  requiredClaimTopics.length == 0 */\n      sub\n        /* \"contracts/onChainID/contracts/verifiers/Verifier.sol\":9977:10050  if (requiredClaimTopics.length == 0) {... */\n      tag_194\n      jumpi\n        /* \"contracts/onChainID/contracts/verifiers/Verifier.sol\":10035:10039  true */\n      0x01\n        /* \"contracts/onChainID/contracts/verifiers/Verifier.sol\":10028:10039  return true */\n      swap1\n      pop\n      jump(tag_193)\n        /* \"contracts/onChainID/contracts/verifiers/Verifier.sol\":9977:10050  if (requiredClaimTopics.length == 0) {... */\n    tag_194:\n        /* \"contracts/onChainID/contracts/verifiers/Verifier.sol\":10060:10083  uint256 foundClaimTopic */\n      0x00\n        /* \"contracts/onChainID/contracts/verifiers/Verifier.sol\":10093:10107  uint256 scheme */\n      dup1\n        /* \"contracts/onChainID/contracts/verifiers/Verifier.sol\":10117:10131  address issuer */\n      0x00\n        /* \"contracts/onChainID/contracts/verifiers/Verifier.sol\":10141:10157  bytes memory sig */\n      0x60\n        /* \"contracts/onChainID/contracts/verifiers/Verifier.sol\":10167:10184  bytes memory data */\n      dup1\n        /* \"contracts/onChainID/contracts/verifiers/Verifier.sol\":10194:10212  uint256 claimTopic */\n      0x00\n        /* \"contracts/onChainID/contracts/verifiers/Verifier.sol\":10222:11911  for (claimTopic = 0; claimTopic < requiredClaimTopics.length; claimTopic++) {... */\n    tag_195:\n        /* \"contracts/onChainID/contracts/verifiers/Verifier.sol\":10256:10275  requiredClaimTopics */\n      0x01\n        /* \"contracts/onChainID/contracts/verifiers/Verifier.sol\":10256:10282  requiredClaimTopics.length */\n      dup1\n      sload\n      swap1\n      pop\n        /* \"contracts/onChainID/contracts/verifiers/Verifier.sol\":10243:10253  claimTopic */\n      dup2\n        /* \"contracts/onChainID/contracts/verifiers/Verifier.sol\":10243:10282  claimTopic < requiredClaimTopics.length */\n      lt\n        /* \"contracts/onChainID/contracts/verifiers/Verifier.sol\":10222:11911  for (claimTopic = 0; claimTopic < requiredClaimTopics.length; claimTopic++) {... */\n      iszero\n      tag_196\n      jumpi\n        /* \"contracts/onChainID/contracts/verifiers/Verifier.sol\":10312:10361  IClaimIssuer[] memory trustedIssuersForClaimTopic */\n      0x00\n        /* \"contracts/onChainID/contracts/verifiers/Verifier.sol\":10396:10400  this */\n      address\n        /* \"contracts/onChainID/contracts/verifiers/Verifier.sol\":10396:10431  this.getTrustedIssuersForClaimTopic */\n      0xffffffffffffffffffffffffffffffffffffffff\n      and\n      0x52c111d1\n        /* \"contracts/onChainID/contracts/verifiers/Verifier.sol\":10432:10451  requiredClaimTopics */\n      0x01\n        /* \"contracts/onChainID/contracts/verifiers/Verifier.sol\":10452:10462  claimTopic */\n      dup5\n        /* \"contracts/onChainID/contracts/verifiers/Verifier.sol\":10432:10463  requiredClaimTopics[claimTopic] */\n      dup2\n      sload\n      dup2\n      lt\n      tag_198\n      jumpi\n      tag_199\n      tag_124\n      jump\t// in\n    tag_199:\n    tag_198:\n      swap1\n      0x00\n      mstore\n      keccak256(0x00, 0x20)\n      add\n      sload\n        /* \"contracts/onChainID/contracts/verifiers/Verifier.sol\":10396:10464  this.getTrustedIssuersForClaimTopic(requiredClaimTopics[claimTopic]) */\n      mload(0x40)\n      dup3\n      0xffffffff\n      and\n      0xe0\n      shl\n      dup2\n      mstore\n      0x04\n      add\n      tag_201\n      swap2\n      swap1\n      tag_68\n      jump\t// in\n    tag_201:\n      0x00\n      mload(0x40)\n      dup1\n      dup4\n      sub\n      dup2\n      dup7\n      gas\n      staticcall\n      iszero\n      dup1\n      iszero\n      tag_203\n      jumpi\n      returndatasize\n      0x00\n      dup1\n      returndatacopy\n      revert(0x00, returndatasize)\n    tag_203:\n      pop\n      pop\n      pop\n      pop\n      mload(0x40)\n      returndatasize\n      0x00\n      dup3\n      returndatacopy\n      returndatasize\n      not(0x1f)\n      0x1f\n      dup3\n      add\n      and\n      dup3\n      add\n      dup1\n      0x40\n      mstore\n      pop\n      dup2\n      add\n      swap1\n      tag_204\n      swap2\n      swap1\n      tag_205\n      jump\t// in\n    tag_204:\n        /* \"contracts/onChainID/contracts/verifiers/Verifier.sol\":10312:10464  IClaimIssuer[] memory trustedIssuersForClaimTopic =... */\n      swap1\n      pop\n        /* \"contracts/onChainID/contracts/verifiers/Verifier.sol\":10521:10522  0 */\n      0x00\n        /* \"contracts/onChainID/contracts/verifiers/Verifier.sol\":10483:10510  trustedIssuersForClaimTopic */\n      dup2\n        /* \"contracts/onChainID/contracts/verifiers/Verifier.sol\":10483:10517  trustedIssuersForClaimTopic.length */\n      mload\n        /* \"contracts/onChainID/contracts/verifiers/Verifier.sol\":10483:10522  trustedIssuersForClaimTopic.length == 0 */\n      sub\n        /* \"contracts/onChainID/contracts/verifiers/Verifier.sol\":10479:10569  if (trustedIssuersForClaimTopic.length == 0) {... */\n      tag_206\n      jumpi\n        /* \"contracts/onChainID/contracts/verifiers/Verifier.sol\":10549:10554  false */\n      0x00\n        /* \"contracts/onChainID/contracts/verifiers/Verifier.sol\":10542:10554  return false */\n      swap8\n      pop\n      pop\n      pop\n      pop\n      pop\n      pop\n      pop\n      pop\n      jump(tag_193)\n        /* \"contracts/onChainID/contracts/verifiers/Verifier.sol\":10479:10569  if (trustedIssuersForClaimTopic.length == 0) {... */\n    tag_206:\n        /* \"contracts/onChainID/contracts/verifiers/Verifier.sol\":10583:10608  bytes32[] memory claimIds */\n      0x00\n        /* \"contracts/onChainID/contracts/verifiers/Verifier.sol\":10625:10652  trustedIssuersForClaimTopic */\n      dup2\n        /* \"contracts/onChainID/contracts/verifiers/Verifier.sol\":10625:10659  trustedIssuersForClaimTopic.length */\n      mload\n        /* \"contracts/onChainID/contracts/verifiers/Verifier.sol\":10611:10660  new bytes32[](trustedIssuersForClaimTopic.length) */\n      0xffffffffffffffff\n      dup2\n      gt\n      iszero\n      tag_207\n      jumpi\n      tag_208\n      tag_209\n      jump\t// in\n    tag_208:\n    tag_207:\n      mload(0x40)\n      swap1\n      dup1\n      dup3\n      mstore\n      dup1\n      0x20\n      mul\n      0x20\n      add\n      dup3\n      add\n      0x40\n      mstore\n      dup1\n      iszero\n      tag_210\n      jumpi\n      dup2\n      0x20\n      add\n      0x20\n      dup3\n      mul\n      dup1\n      calldatasize\n      dup4\n      calldatacopy\n      dup1\n      dup3\n      add\n      swap2\n      pop\n      pop\n      swap1\n      pop\n    tag_210:\n      pop\n        /* \"contracts/onChainID/contracts/verifiers/Verifier.sol\":10583:10660  bytes32[] memory claimIds = new bytes32[](trustedIssuersForClaimTopic.length) */\n      swap1\n      pop\n        /* \"contracts/onChainID/contracts/verifiers/Verifier.sol\":10679:10688  uint256 i */\n      0x00\n        /* \"contracts/onChainID/contracts/verifiers/Verifier.sol\":10674:10872  for (uint256 i = 0; i < trustedIssuersForClaimTopic.length; i++) {... */\n    tag_211:\n        /* \"contracts/onChainID/contracts/verifiers/Verifier.sol\":10698:10725  trustedIssuersForClaimTopic */\n      dup3\n        /* \"contracts/onChainID/contracts/verifiers/Verifier.sol\":10698:10732  trustedIssuersForClaimTopic.length */\n      mload\n        /* \"contracts/onChainID/contracts/verifiers/Verifier.sol\":10694:10695  i */\n      dup2\n        /* \"contracts/onChainID/contracts/verifiers/Verifier.sol\":10694:10732  i < trustedIssuersForClaimTopic.length */\n      lt\n        /* \"contracts/onChainID/contracts/verifiers/Verifier.sol\":10674:10872  for (uint256 i = 0; i < trustedIssuersForClaimTopic.length; i++) {... */\n      iszero\n      tag_212\n      jumpi\n        /* \"contracts/onChainID/contracts/verifiers/Verifier.sol\":10792:10819  trustedIssuersForClaimTopic */\n      dup3\n        /* \"contracts/onChainID/contracts/verifiers/Verifier.sol\":10820:10821  i */\n      dup2\n        /* \"contracts/onChainID/contracts/verifiers/Verifier.sol\":10792:10822  trustedIssuersForClaimTopic[i] */\n      dup2\n      mload\n      dup2\n      lt\n      tag_214\n      jumpi\n      tag_215\n      tag_124\n      jump\t// in\n    tag_215:\n    tag_214:\n      0x20\n      mul\n      0x20\n      add\n      add\n      mload\n        /* \"contracts/onChainID/contracts/verifiers/Verifier.sol\":10824:10843  requiredClaimTopics */\n      0x01\n        /* \"contracts/onChainID/contracts/verifiers/Verifier.sol\":10844:10854  claimTopic */\n      dup6\n        /* \"contracts/onChainID/contracts/verifiers/Verifier.sol\":10824:10855  requiredClaimTopics[claimTopic] */\n      dup2\n      sload\n      dup2\n      lt\n      tag_216\n      jumpi\n      tag_217\n      tag_124\n      jump\t// in\n    tag_217:\n    tag_216:\n      swap1\n      0x00\n      mstore\n      keccak256(0x00, 0x20)\n      add\n      sload\n        /* \"contracts/onChainID/contracts/verifiers/Verifier.sol\":10781:10856  abi.encode(trustedIssuersForClaimTopic[i], requiredClaimTopics[claimTopic]) */\n      add(0x20, mload(0x40))\n      tag_219\n      swap3\n      swap2\n      swap1\n      tag_220\n      jump\t// in\n    tag_219:\n      mload(0x40)\n      0x20\n      dup2\n      dup4\n      sub\n      sub\n      dup2\n      mstore\n      swap1\n      0x40\n      mstore\n        /* \"contracts/onChainID/contracts/verifiers/Verifier.sol\":10771:10857  keccak256(abi.encode(trustedIssuersForClaimTopic[i], requiredClaimTopics[claimTopic])) */\n      dup1\n      mload\n      swap1\n      0x20\n      add\n      keccak256\n        /* \"contracts/onChainID/contracts/verifiers/Verifier.sol\":10757:10765  claimIds */\n      dup3\n        /* \"contracts/onChainID/contracts/verifiers/Verifier.sol\":10766:10767  i */\n      dup3\n        /* \"contracts/onChainID/contracts/verifiers/Verifier.sol\":10757:10768  claimIds[i] */\n      dup2\n      mload\n      dup2\n      lt\n      tag_221\n      jumpi\n      tag_222\n      tag_124\n      jump\t// in\n    tag_222:\n    tag_221:\n      0x20\n      mul\n      0x20\n      add\n      add\n        /* \"contracts/onChainID/contracts/verifiers/Verifier.sol\":10757:10857  claimIds[i] = keccak256(abi.encode(trustedIssuersForClaimTopic[i], requiredClaimTopics[claimTopic])) */\n      dup2\n      dup2\n      mstore\n      pop\n      pop\n        /* \"contracts/onChainID/contracts/verifiers/Verifier.sol\":10734:10737  i++ */\n      dup1\n      dup1\n      tag_223\n      swap1\n      tag_146\n      jump\t// in\n    tag_223:\n      swap2\n      pop\n      pop\n        /* \"contracts/onChainID/contracts/verifiers/Verifier.sol\":10674:10872  for (uint256 i = 0; i < trustedIssuersForClaimTopic.length; i++) {... */\n      jump(tag_211)\n    tag_212:\n      pop\n        /* \"contracts/onChainID/contracts/verifiers/Verifier.sol\":10891:10900  uint256 j */\n      0x00\n        /* \"contracts/onChainID/contracts/verifiers/Verifier.sol\":10886:11901  for (uint256 j = 0; j < claimIds.length; j++) {... */\n    tag_224:\n        /* \"contracts/onChainID/contracts/verifiers/Verifier.sol\":10910:10918  claimIds */\n      dup2\n        /* \"contracts/onChainID/contracts/verifiers/Verifier.sol\":10910:10925  claimIds.length */\n      mload\n        /* \"contracts/onChainID/contracts/verifiers/Verifier.sol\":10906:10907  j */\n      dup2\n        /* \"contracts/onChainID/contracts/verifiers/Verifier.sol\":10906:10925  j < claimIds.length */\n      lt\n        /* \"contracts/onChainID/contracts/verifiers/Verifier.sol\":10886:11901  for (uint256 j = 0; j < claimIds.length; j++) {... */\n      iszero\n      tag_225\n      jumpi\n        /* \"contracts/onChainID/contracts/verifiers/Verifier.sol\":11009:11017  identity */\n      dup11\n        /* \"contracts/onChainID/contracts/verifiers/Verifier.sol\":10999:11027  IIdentity(identity).getClaim */\n      0xffffffffffffffffffffffffffffffffffffffff\n      and\n      0xc9100bcb\n        /* \"contracts/onChainID/contracts/verifiers/Verifier.sol\":11028:11036  claimIds */\n      dup4\n        /* \"contracts/onChainID/contracts/verifiers/Verifier.sol\":11037:11038  j */\n      dup4\n        /* \"contracts/onChainID/contracts/verifiers/Verifier.sol\":11028:11039  claimIds[j] */\n      dup2\n      mload\n      dup2\n      lt\n      tag_227\n      jumpi\n      tag_228\n      tag_124\n      jump\t// in\n    tag_228:\n    tag_227:\n      0x20\n      mul\n      0x20\n      add\n      add\n      mload\n        /* \"contracts/onChainID/contracts/verifiers/Verifier.sol\":10999:11040  IIdentity(identity).getClaim(claimIds[j]) */\n      mload(0x40)\n      dup3\n      0xffffffff\n      and\n      0xe0\n      shl\n      dup2\n      mstore\n      0x04\n      add\n      tag_229\n      swap2\n      swap1\n      tag_230\n      jump\t// in\n    tag_229:\n      0x00\n      mload(0x40)\n      dup1\n      dup4\n      sub\n      dup2\n      dup7\n      gas\n      staticcall\n      iszero\n      dup1\n      iszero\n      tag_232\n      jumpi\n      returndatasize\n      0x00\n      dup1\n      returndatacopy\n      revert(0x00, returndatasize)\n    tag_232:\n      pop\n      pop\n      pop\n      pop\n      mload(0x40)\n      returndatasize\n      0x00\n      dup3\n      returndatacopy\n      returndatasize\n      not(0x1f)\n      0x1f\n      dup3\n      add\n      and\n      dup3\n      add\n      dup1\n      0x40\n      mstore\n      pop\n      dup2\n      add\n      swap1\n      tag_233\n      swap2\n      swap1\n      tag_234\n      jump\t// in\n    tag_233:\n        /* \"contracts/onChainID/contracts/verifiers/Verifier.sol\":10950:11040  (foundClaimTopic, scheme, issuer, sig, data, ) = IIdentity(identity).getClaim(claimIds[j]) */\n      pop\n      dup1\n      swap10\n      pop\n      dup2\n      swap11\n      pop\n      dup3\n      swap12\n      pop\n      dup4\n      swap13\n      pop\n      dup5\n      swap14\n      pop\n      pop\n      pop\n      pop\n      pop\n      pop\n        /* \"contracts/onChainID/contracts/verifiers/Verifier.sol\":11082:11101  requiredClaimTopics */\n      0x01\n        /* \"contracts/onChainID/contracts/verifiers/Verifier.sol\":11102:11112  claimTopic */\n      dup5\n        /* \"contracts/onChainID/contracts/verifiers/Verifier.sol\":11082:11113  requiredClaimTopics[claimTopic] */\n      dup2\n      sload\n      dup2\n      lt\n      tag_235\n      jumpi\n      tag_236\n      tag_124\n      jump\t// in\n    tag_236:\n    tag_235:\n      swap1\n      0x00\n      mstore\n      keccak256(0x00, 0x20)\n      add\n      sload\n        /* \"contracts/onChainID/contracts/verifiers/Verifier.sol\":11063:11078  foundClaimTopic */\n      dup10\n        /* \"contracts/onChainID/contracts/verifiers/Verifier.sol\":11063:11113  foundClaimTopic == requiredClaimTopics[claimTopic] */\n      sub\n        /* \"contracts/onChainID/contracts/verifiers/Verifier.sol\":11059:11887  if (foundClaimTopic == requiredClaimTopics[claimTopic]) {... */\n      tag_238\n      jumpi\n        /* \"contracts/onChainID/contracts/verifiers/Verifier.sol\":11154:11160  issuer */\n      dup7\n        /* \"contracts/onChainID/contracts/verifiers/Verifier.sol\":11141:11174  IClaimIssuer(issuer).isClaimValid */\n      0xffffffffffffffffffffffffffffffffffffffff\n      and\n      0xc0969a6e\n        /* \"contracts/onChainID/contracts/verifiers/Verifier.sol\":11185:11193  identity */\n      dup13\n        /* \"contracts/onChainID/contracts/verifiers/Verifier.sol\":11196:11215  requiredClaimTopics */\n      0x01\n        /* \"contracts/onChainID/contracts/verifiers/Verifier.sol\":11216:11226  claimTopic */\n      dup8\n        /* \"contracts/onChainID/contracts/verifiers/Verifier.sol\":11196:11227  requiredClaimTopics[claimTopic] */\n      dup2\n      sload\n      dup2\n      lt\n      tag_239\n      jumpi\n      tag_240\n      tag_124\n      jump\t// in\n    tag_240:\n    tag_239:\n      swap1\n      0x00\n      mstore\n      keccak256(0x00, 0x20)\n      add\n      sload\n        /* \"contracts/onChainID/contracts/verifiers/Verifier.sol\":11229:11232  sig */\n      dup10\n        /* \"contracts/onChainID/contracts/verifiers/Verifier.sol\":11258:11262  data */\n      dup10\n        /* \"contracts/onChainID/contracts/verifiers/Verifier.sol\":11141:11263  IClaimIssuer(issuer).isClaimValid(IIdentity(identity), requiredClaimTopics[claimTopic], sig,... */\n      mload(0x40)\n      dup6\n      0xffffffff\n      and\n      0xe0\n      shl\n      dup2\n      mstore\n      0x04\n      add\n      tag_242\n      swap5\n      swap4\n      swap3\n      swap2\n      swap1\n      tag_243\n      jump\t// in\n    tag_242:\n      0x20\n      mload(0x40)\n      dup1\n      dup4\n      sub\n      dup2\n      dup7\n      gas\n      staticcall\n      swap3\n      pop\n      pop\n      pop\n      dup1\n      iszero\n      tag_244\n      jumpi\n      pop\n      mload(0x40)\n      returndatasize\n      not(0x1f)\n      0x1f\n      dup3\n      add\n      and\n      dup3\n      add\n      dup1\n      0x40\n      mstore\n      pop\n      dup2\n      add\n      swap1\n      tag_245\n      swap2\n      swap1\n      tag_246\n      jump\t// in\n    tag_245:\n      0x01\n    tag_244:\n        /* \"contracts/onChainID/contracts/verifiers/Verifier.sol\":11137:11778  try IClaimIssuer(issuer).isClaimValid(IIdentity(identity), requiredClaimTopics[claimTopic], sig,... */\n      tag_247\n      jumpi\n        /* \"contracts/onChainID/contracts/verifiers/Verifier.sol\":11683:11684  1 */\n      0x01\n        /* \"contracts/onChainID/contracts/verifiers/Verifier.sol\":11665:11673  claimIds */\n      dup3\n        /* \"contracts/onChainID/contracts/verifiers/Verifier.sol\":11665:11680  claimIds.length */\n      mload\n        /* \"contracts/onChainID/contracts/verifiers/Verifier.sol\":11665:11684  claimIds.length - 1 */\n      tag_251\n      swap2\n      swap1\n      tag_134\n      jump\t// in\n    tag_251:\n        /* \"contracts/onChainID/contracts/verifiers/Verifier.sol\":11659:11660  j */\n      dup2\n        /* \"contracts/onChainID/contracts/verifiers/Verifier.sol\":11659:11685  j == (claimIds.length - 1) */\n      sub\n        /* \"contracts/onChainID/contracts/verifiers/Verifier.sol\":11655:11756  if (j == (claimIds.length - 1)) {... */\n      tag_252\n      jumpi\n        /* \"contracts/onChainID/contracts/verifiers/Verifier.sol\":11724:11729  false */\n      0x00\n        /* \"contracts/onChainID/contracts/verifiers/Verifier.sol\":11717:11729  return false */\n      swap10\n      pop\n      pop\n      pop\n      pop\n      pop\n      pop\n      pop\n      pop\n      pop\n      pop\n      jump(tag_193)\n        /* \"contracts/onChainID/contracts/verifiers/Verifier.sol\":11655:11756  if (j == (claimIds.length - 1)) {... */\n    tag_252:\n        /* \"contracts/onChainID/contracts/verifiers/Verifier.sol\":11137:11778  try IClaimIssuer(issuer).isClaimValid(IIdentity(identity), requiredClaimTopics[claimTopic], sig,... */\n      jump(tag_253)\n    tag_247:\n        /* \"contracts/onChainID/contracts/verifiers/Verifier.sol\":11348:11357  _validity */\n      dup1\n        /* \"contracts/onChainID/contracts/verifiers/Verifier.sol\":11315:11460  if (... */\n      iszero\n      tag_254\n      jumpi\n        /* \"contracts/onChainID/contracts/verifiers/Verifier.sol\":11418:11426  claimIds */\n      dup3\n        /* \"contracts/onChainID/contracts/verifiers/Verifier.sol\":11418:11433  claimIds.length */\n      mload\n        /* \"contracts/onChainID/contracts/verifiers/Verifier.sol\":11414:11433  j = claimIds.length */\n      swap2\n      pop\n        /* \"contracts/onChainID/contracts/verifiers/Verifier.sol\":11315:11460  if (... */\n    tag_254:\n        /* \"contracts/onChainID/contracts/verifiers/Verifier.sol\":11490:11499  _validity */\n      dup1\n        /* \"contracts/onChainID/contracts/verifiers/Verifier.sol\":11489:11499  !_validity */\n      iszero\n        /* \"contracts/onChainID/contracts/verifiers/Verifier.sol\":11489:11529  !_validity && j == (claimIds.length - 1) */\n      dup1\n      iszero\n      tag_255\n      jumpi\n      pop\n        /* \"contracts/onChainID/contracts/verifiers/Verifier.sol\":11527:11528  1 */\n      0x01\n        /* \"contracts/onChainID/contracts/verifiers/Verifier.sol\":11509:11517  claimIds */\n      dup4\n        /* \"contracts/onChainID/contracts/verifiers/Verifier.sol\":11509:11524  claimIds.length */\n      mload\n        /* \"contracts/onChainID/contracts/verifiers/Verifier.sol\":11509:11528  claimIds.length - 1 */\n      tag_256\n      swap2\n      swap1\n      tag_134\n      jump\t// in\n    tag_256:\n        /* \"contracts/onChainID/contracts/verifiers/Verifier.sol\":11503:11504  j */\n      dup3\n        /* \"contracts/onChainID/contracts/verifiers/Verifier.sol\":11503:11529  j == (claimIds.length - 1) */\n      eq\n        /* \"contracts/onChainID/contracts/verifiers/Verifier.sol\":11489:11529  !_validity && j == (claimIds.length - 1) */\n    tag_255:\n        /* \"contracts/onChainID/contracts/verifiers/Verifier.sol\":11485:11600  if (!_validity && j == (claimIds.length - 1)) {... */\n      iszero\n      tag_257\n      jumpi\n        /* \"contracts/onChainID/contracts/verifiers/Verifier.sol\":11568:11573  false */\n      0x00\n        /* \"contracts/onChainID/contracts/verifiers/Verifier.sol\":11561:11573  return false */\n      swap11\n      pop\n      pop\n      pop\n      pop\n      pop\n      pop\n      pop\n      pop\n      pop\n      pop\n      pop\n      jump(tag_193)\n        /* \"contracts/onChainID/contracts/verifiers/Verifier.sol\":11485:11600  if (!_validity && j == (claimIds.length - 1)) {... */\n    tag_257:\n        /* \"contracts/onChainID/contracts/verifiers/Verifier.sol\":11264:11622  returns(bool _validity) {... */\n      pop\n        /* \"contracts/onChainID/contracts/verifiers/Verifier.sol\":11137:11778  try IClaimIssuer(issuer).isClaimValid(IIdentity(identity), requiredClaimTopics[claimTopic], sig,... */\n    tag_253:\n        /* \"contracts/onChainID/contracts/verifiers/Verifier.sol\":11059:11887  if (foundClaimTopic == requiredClaimTopics[claimTopic]) {... */\n      jump(tag_258)\n    tag_238:\n        /* \"contracts/onChainID/contracts/verifiers/Verifier.sol\":11830:11831  1 */\n      0x01\n        /* \"contracts/onChainID/contracts/verifiers/Verifier.sol\":11812:11820  claimIds */\n      dup3\n        /* \"contracts/onChainID/contracts/verifiers/Verifier.sol\":11812:11827  claimIds.length */\n      mload\n        /* \"contracts/onChainID/contracts/verifiers/Verifier.sol\":11812:11831  claimIds.length - 1 */\n      tag_259\n      swap2\n      swap1\n      tag_134\n      jump\t// in\n    tag_259:\n        /* \"contracts/onChainID/contracts/verifiers/Verifier.sol\":11806:11807  j */\n      dup2\n        /* \"contracts/onChainID/contracts/verifiers/Verifier.sol\":11806:11832  j == (claimIds.length - 1) */\n      sub\n        /* \"contracts/onChainID/contracts/verifiers/Verifier.sol\":11802:11887  if (j == (claimIds.length - 1)) {... */\n      tag_260\n      jumpi\n        /* \"contracts/onChainID/contracts/verifiers/Verifier.sol\":11863:11868  false */\n      0x00\n        /* \"contracts/onChainID/contracts/verifiers/Verifier.sol\":11856:11868  return false */\n      swap10\n      pop\n      pop\n      pop\n      pop\n      pop\n      pop\n      pop\n      pop\n      pop\n      pop\n      jump(tag_193)\n        /* \"contracts/onChainID/contracts/verifiers/Verifier.sol\":11802:11887  if (j == (claimIds.length - 1)) {... */\n    tag_260:\n        /* \"contracts/onChainID/contracts/verifiers/Verifier.sol\":11059:11887  if (foundClaimTopic == requiredClaimTopics[claimTopic]) {... */\n    tag_258:\n        /* \"contracts/onChainID/contracts/verifiers/Verifier.sol\":10927:10930  j++ */\n      dup1\n      dup1\n      tag_261\n      swap1\n      tag_146\n      jump\t// in\n    tag_261:\n      swap2\n      pop\n      pop\n        /* \"contracts/onChainID/contracts/verifiers/Verifier.sol\":10886:11901  for (uint256 j = 0; j < claimIds.length; j++) {... */\n      jump(tag_224)\n    tag_225:\n      pop\n        /* \"contracts/onChainID/contracts/verifiers/Verifier.sol\":10298:11911  {... */\n      pop\n      pop\n        /* \"contracts/onChainID/contracts/verifiers/Verifier.sol\":10284:10296  claimTopic++ */\n      dup1\n      dup1\n      tag_262\n      swap1\n      tag_146\n      jump\t// in\n    tag_262:\n      swap2\n      pop\n      pop\n        /* \"contracts/onChainID/contracts/verifiers/Verifier.sol\":10222:11911  for (claimTopic = 0; claimTopic < requiredClaimTopics.length; claimTopic++) {... */\n      jump(tag_195)\n    tag_196:\n        /* \"contracts/onChainID/contracts/verifiers/Verifier.sol\":11928:11932  true */\n      0x01\n        /* \"contracts/onChainID/contracts/verifiers/Verifier.sol\":11921:11932  return true */\n      swap7\n      pop\n      pop\n      pop\n      pop\n      pop\n      pop\n      pop\n        /* \"contracts/onChainID/contracts/verifiers/Verifier.sol\":9896:11939  function verify(address identity) public view returns(bool isVerified) {... */\n    tag_193:\n      swap2\n      swap1\n      pop\n      jump\t// out\n        /* \"@openzeppelin/contracts/access/Ownable.sol\":2293:2394  function renounceOwnership() public virtual onlyOwner {... */\n    tag_50:\n        /* \"@openzeppelin/contracts/access/Ownable.sol\":1531:1544  _checkOwner() */\n      tag_264\n        /* \"@openzeppelin/contracts/access/Ownable.sol\":1531:1542  _checkOwner */\n      tag_105\n        /* \"@openzeppelin/contracts/access/Ownable.sol\":1531:1544  _checkOwner() */\n      jump\t// in\n    tag_264:\n        /* \"@openzeppelin/contracts/access/Ownable.sol\":2357:2387  _transferOwnership(address(0)) */\n      tag_266\n        /* \"@openzeppelin/contracts/access/Ownable.sol\":2384:2385  0 */\n      0x00\n        /* \"@openzeppelin/contracts/access/Ownable.sol\":2357:2375  _transferOwnership */\n      tag_267\n        /* \"@openzeppelin/contracts/access/Ownable.sol\":2357:2387  _transferOwnership(address(0)) */\n      jump\t// in\n    tag_266:\n        /* \"@openzeppelin/contracts/access/Ownable.sol\":2293:2394  function renounceOwnership() public virtual onlyOwner {... */\n      jump\t// out\n        /* \"@openzeppelin/contracts/access/Ownable.sol\":1638:1723  function owner() public view virtual returns (address) {... */\n    tag_52:\n        /* \"@openzeppelin/contracts/access/Ownable.sol\":1684:1691  address */\n      0x00\n        /* \"@openzeppelin/contracts/access/Ownable.sol\":1710:1716  _owner */\n      dup1\n      0x00\n      swap1\n      sload\n      swap1\n      0x0100\n      exp\n      swap1\n      div\n      0xffffffffffffffffffffffffffffffffffffffff\n      and\n        /* \"@openzeppelin/contracts/access/Ownable.sol\":1703:1716  return _owner */\n      swap1\n      pop\n        /* \"@openzeppelin/contracts/access/Ownable.sol\":1638:1723  function owner() public view virtual returns (address) {... */\n      swap1\n      jump\t// out\n        /* \"contracts/onChainID/contracts/verifiers/Verifier.sol\":715:784  mapping(uint256 => IClaimIssuer[]) public claimTopicsToTrustedIssuers */\n    tag_58:\n      mstore(0x20, 0x04)\n      dup2\n      0x00\n      mstore\n      keccak256(0x00, 0x40)\n      dup2\n      dup2\n      sload\n      dup2\n      lt\n      tag_269\n      jumpi\n      0x00\n      dup1\n      revert\n    tag_269:\n      swap1\n      0x00\n      mstore\n      keccak256(0x00, 0x20)\n      add\n      0x00\n      swap2\n      pop\n      swap2\n      pop\n      swap1\n      sload\n      swap1\n      0x0100\n      exp\n      swap1\n      div\n      0xffffffffffffffffffffffffffffffffffffffff\n      and\n      dup2\n      jump\t// out\n        /* \"contracts/onChainID/contracts/verifiers/Verifier.sol\":3734:4623  function addTrustedIssuer(IClaimIssuer trustedIssuer, uint256[] calldata claimTopics) public onlyOwner {... */\n    tag_63:\n        /* \"@openzeppelin/contracts/access/Ownable.sol\":1531:1544  _checkOwner() */\n      tag_272\n        /* \"@openzeppelin/contracts/access/Ownable.sol\":1531:1542  _checkOwner */\n      tag_105\n        /* \"@openzeppelin/contracts/access/Ownable.sol\":1531:1544  _checkOwner() */\n      jump\t// in\n    tag_272:\n        /* \"contracts/onChainID/contracts/verifiers/Verifier.sol\":3889:3890  0 */\n      0x00\n        /* \"contracts/onChainID/contracts/verifiers/Verifier.sol\":3855:3891  address(trustedIssuer) != address(0) */\n      0xffffffffffffffffffffffffffffffffffffffff\n      and\n        /* \"contracts/onChainID/contracts/verifiers/Verifier.sol\":3863:3876  trustedIssuer */\n      dup4\n        /* \"contracts/onChainID/contracts/verifiers/Verifier.sol\":3855:3891  address(trustedIssuer) != address(0) */\n      0xffffffffffffffffffffffffffffffffffffffff\n      and\n      sub\n        /* \"contracts/onChainID/contracts/verifiers/Verifier.sol\":3847:3927  require(address(trustedIssuer) != address(0), \"invalid argument - zero address\") */\n      tag_274\n      jumpi\n      mload(0x40)\n      0x08c379a000000000000000000000000000000000000000000000000000000000\n      dup2\n      mstore\n      0x04\n      add\n      tag_275\n      swap1\n      tag_109\n      jump\t// in\n    tag_275:\n      mload(0x40)\n      dup1\n      swap2\n      sub\n      swap1\n      revert\n    tag_274:\n        /* \"contracts/onChainID/contracts/verifiers/Verifier.sol\":4004:4005  0 */\n      0x00\n        /* \"contracts/onChainID/contracts/verifiers/Verifier.sol\":3945:3969  trustedIssuerClaimTopics */\n      0x03\n        /* \"contracts/onChainID/contracts/verifiers/Verifier.sol\":3945:3993  trustedIssuerClaimTopics[address(trustedIssuer)] */\n      0x00\n        /* \"contracts/onChainID/contracts/verifiers/Verifier.sol\":3978:3991  trustedIssuer */\n      dup6\n        /* \"contracts/onChainID/contracts/verifiers/Verifier.sol\":3945:3993  trustedIssuerClaimTopics[address(trustedIssuer)] */\n      0xffffffffffffffffffffffffffffffffffffffff\n      and\n      0xffffffffffffffffffffffffffffffffffffffff\n      and\n      dup2\n      mstore\n      0x20\n      add\n      swap1\n      dup2\n      mstore\n      0x20\n      add\n      0x00\n      keccak256\n        /* \"contracts/onChainID/contracts/verifiers/Verifier.sol\":3945:4000  trustedIssuerClaimTopics[address(trustedIssuer)].length */\n      dup1\n      sload\n      swap1\n      pop\n        /* \"contracts/onChainID/contracts/verifiers/Verifier.sol\":3945:4005  trustedIssuerClaimTopics[address(trustedIssuer)].length == 0 */\n      eq\n        /* \"contracts/onChainID/contracts/verifiers/Verifier.sol\":3937:4039  require(trustedIssuerClaimTopics[address(trustedIssuer)].length == 0, \"trusted Issuer already exists\") */\n      tag_276\n      jumpi\n      mload(0x40)\n      0x08c379a000000000000000000000000000000000000000000000000000000000\n      dup2\n      mstore\n      0x04\n      add\n      tag_277\n      swap1\n      tag_278\n      jump\t// in\n    tag_277:\n      mload(0x40)\n      dup1\n      swap2\n      sub\n      swap1\n      revert\n    tag_276:\n        /* \"contracts/onChainID/contracts/verifiers/Verifier.sol\":4078:4079  0 */\n      0x00\n        /* \"contracts/onChainID/contracts/verifiers/Verifier.sol\":4057:4068  claimTopics */\n      dup3\n      dup3\n        /* \"contracts/onChainID/contracts/verifiers/Verifier.sol\":4057:4075  claimTopics.length */\n      swap1\n      pop\n        /* \"contracts/onChainID/contracts/verifiers/Verifier.sol\":4057:4079  claimTopics.length > 0 */\n      gt\n        /* \"contracts/onChainID/contracts/verifiers/Verifier.sol\":4049:4120  require(claimTopics.length > 0, \"trusted claim topics cannot be empty\") */\n      tag_279\n      jumpi\n      mload(0x40)\n      0x08c379a000000000000000000000000000000000000000000000000000000000\n      dup2\n      mstore\n      0x04\n      add\n      tag_280\n      swap1\n      tag_281\n      jump\t// in\n    tag_280:\n      mload(0x40)\n      dup1\n      swap2\n      sub\n      swap1\n      revert\n    tag_279:\n        /* \"contracts/onChainID/contracts/verifiers/Verifier.sol\":4160:4162  15 */\n      0x0f\n        /* \"contracts/onChainID/contracts/verifiers/Verifier.sol\":4138:4149  claimTopics */\n      dup3\n      dup3\n        /* \"contracts/onChainID/contracts/verifiers/Verifier.sol\":4138:4156  claimTopics.length */\n      swap1\n      pop\n        /* \"contracts/onChainID/contracts/verifiers/Verifier.sol\":4138:4162  claimTopics.length <= 15 */\n      gt\n      iszero\n        /* \"contracts/onChainID/contracts/verifiers/Verifier.sol\":4130:4204  require(claimTopics.length <= 15, \"cannot have more than 15 claim topics\") */\n      tag_282\n      jumpi\n      mload(0x40)\n      0x08c379a000000000000000000000000000000000000000000000000000000000\n      dup2\n      mstore\n      0x04\n      add\n      tag_283\n      swap1\n      tag_115\n      jump\t// in\n    tag_283:\n      mload(0x40)\n      dup1\n      swap2\n      sub\n      swap1\n      revert\n    tag_282:\n        /* \"contracts/onChainID/contracts/verifiers/Verifier.sol\":4246:4248  50 */\n      0x32\n        /* \"contracts/onChainID/contracts/verifiers/Verifier.sol\":4222:4236  trustedIssuers */\n      0x02\n        /* \"contracts/onChainID/contracts/verifiers/Verifier.sol\":4222:4243  trustedIssuers.length */\n      dup1\n      sload\n      swap1\n      pop\n        /* \"contracts/onChainID/contracts/verifiers/Verifier.sol\":4222:4248  trustedIssuers.length < 50 */\n      lt\n        /* \"contracts/onChainID/contracts/verifiers/Verifier.sol\":4214:4293  require(trustedIssuers.length < 50, \"cannot have more than 50 trusted issuers\") */\n      tag_284\n      jumpi\n      mload(0x40)\n      0x08c379a000000000000000000000000000000000000000000000000000000000\n      dup2\n      mstore\n      0x04\n      add\n      tag_285\n      swap1\n      tag_286\n      jump\t// in\n    tag_285:\n      mload(0x40)\n      dup1\n      swap2\n      sub\n      swap1\n      revert\n    tag_284:\n        /* \"contracts/onChainID/contracts/verifiers/Verifier.sol\":4303:4317  trustedIssuers */\n      0x02\n        /* \"contracts/onChainID/contracts/verifiers/Verifier.sol\":4323:4336  trustedIssuer */\n      dup4\n        /* \"contracts/onChainID/contracts/verifiers/Verifier.sol\":4303:4337  trustedIssuers.push(trustedIssuer) */\n      swap1\n      dup1\n      0x01\n      dup2\n      sload\n      add\n      dup1\n      dup3\n      sstore\n      dup1\n      swap2\n      pop\n      pop\n      0x01\n      swap1\n      sub\n      swap1\n      0x00\n      mstore\n      keccak256(0x00, 0x20)\n      add\n      0x00\n      swap1\n      swap2\n      swap1\n      swap2\n      swap1\n      swap2\n      0x0100\n      exp\n      dup2\n      sload\n      dup2\n      0xffffffffffffffffffffffffffffffffffffffff\n      mul\n      not\n      and\n      swap1\n      dup4\n      0xffffffffffffffffffffffffffffffffffffffff\n      and\n      mul\n      or\n      swap1\n      sstore\n      pop\n        /* \"contracts/onChainID/contracts/verifiers/Verifier.sol\":4398:4409  claimTopics */\n      dup2\n      dup2\n        /* \"contracts/onChainID/contracts/verifiers/Verifier.sol\":4347:4371  trustedIssuerClaimTopics */\n      0x03\n        /* \"contracts/onChainID/contracts/verifiers/Verifier.sol\":4347:4395  trustedIssuerClaimTopics[address(trustedIssuer)] */\n      0x00\n        /* \"contracts/onChainID/contracts/verifiers/Verifier.sol\":4380:4393  trustedIssuer */\n      dup7\n        /* \"contracts/onChainID/contracts/verifiers/Verifier.sol\":4347:4395  trustedIssuerClaimTopics[address(trustedIssuer)] */\n      0xffffffffffffffffffffffffffffffffffffffff\n      and\n      0xffffffffffffffffffffffffffffffffffffffff\n      and\n      dup2\n      mstore\n      0x20\n      add\n      swap1\n      dup2\n      mstore\n      0x20\n      add\n      0x00\n      keccak256\n        /* \"contracts/onChainID/contracts/verifiers/Verifier.sol\":4347:4409  trustedIssuerClaimTopics[address(trustedIssuer)] = claimTopics */\n      swap2\n      swap1\n      tag_288\n      swap3\n      swap2\n      swap1\n      tag_149\n      jump\t// in\n    tag_288:\n      pop\n        /* \"contracts/onChainID/contracts/verifiers/Verifier.sol\":4424:4433  uint256 i */\n      0x00\n        /* \"contracts/onChainID/contracts/verifiers/Verifier.sol\":4419:4556  for (uint256 i = 0; i < claimTopics.length; i++) {... */\n    tag_289:\n        /* \"contracts/onChainID/contracts/verifiers/Verifier.sol\":4443:4454  claimTopics */\n      dup3\n      dup3\n        /* \"contracts/onChainID/contracts/verifiers/Verifier.sol\":4443:4461  claimTopics.length */\n      swap1\n      pop\n        /* \"contracts/onChainID/contracts/verifiers/Verifier.sol\":4439:4440  i */\n      dup2\n        /* \"contracts/onChainID/contracts/verifiers/Verifier.sol\":4439:4461  i < claimTopics.length */\n      lt\n        /* \"contracts/onChainID/contracts/verifiers/Verifier.sol\":4419:4556  for (uint256 i = 0; i < claimTopics.length; i++) {... */\n      iszero\n      tag_290\n      jumpi\n        /* \"contracts/onChainID/contracts/verifiers/Verifier.sol\":4482:4509  claimTopicsToTrustedIssuers */\n      0x04\n        /* \"contracts/onChainID/contracts/verifiers/Verifier.sol\":4482:4525  claimTopicsToTrustedIssuers[claimTopics[i]] */\n      0x00\n        /* \"contracts/onChainID/contracts/verifiers/Verifier.sol\":4510:4521  claimTopics */\n      dup5\n      dup5\n        /* \"contracts/onChainID/contracts/verifiers/Verifier.sol\":4522:4523  i */\n      dup5\n        /* \"contracts/onChainID/contracts/verifiers/Verifier.sol\":4510:4524  claimTopics[i] */\n      dup2\n      dup2\n      lt\n      tag_292\n      jumpi\n      tag_293\n      tag_124\n      jump\t// in\n    tag_293:\n    tag_292:\n      swap1\n      pop\n      0x20\n      mul\n      add\n      calldataload\n        /* \"contracts/onChainID/contracts/verifiers/Verifier.sol\":4482:4525  claimTopicsToTrustedIssuers[claimTopics[i]] */\n      dup2\n      mstore\n      0x20\n      add\n      swap1\n      dup2\n      mstore\n      0x20\n      add\n      0x00\n      keccak256\n        /* \"contracts/onChainID/contracts/verifiers/Verifier.sol\":4531:4544  trustedIssuer */\n      dup5\n        /* \"contracts/onChainID/contracts/verifiers/Verifier.sol\":4482:4545  claimTopicsToTrustedIssuers[claimTopics[i]].push(trustedIssuer) */\n      swap1\n      dup1\n      0x01\n      dup2\n      sload\n      add\n      dup1\n      dup3\n      sstore\n      dup1\n      swap2\n      pop\n      pop\n      0x01\n      swap1\n      sub\n      swap1\n      0x00\n      mstore\n      keccak256(0x00, 0x20)\n      add\n      0x00\n      swap1\n      swap2\n      swap1\n      swap2\n      swap1\n      swap2\n      0x0100\n      exp\n      dup2\n      sload\n      dup2\n      0xffffffffffffffffffffffffffffffffffffffff\n      mul\n      not\n      and\n      swap1\n      dup4\n      0xffffffffffffffffffffffffffffffffffffffff\n      and\n      mul\n      or\n      swap1\n      sstore\n      pop\n        /* \"contracts/onChainID/contracts/verifiers/Verifier.sol\":4463:4466  i++ */\n      dup1\n      dup1\n      tag_295\n      swap1\n      tag_146\n      jump\t// in\n    tag_295:\n      swap2\n      pop\n      pop\n        /* \"contracts/onChainID/contracts/verifiers/Verifier.sol\":4419:4556  for (uint256 i = 0; i < claimTopics.length; i++) {... */\n      jump(tag_289)\n    tag_290:\n      pop\n        /* \"contracts/onChainID/contracts/verifiers/Verifier.sol\":4589:4602  trustedIssuer */\n      dup3\n        /* \"contracts/onChainID/contracts/verifiers/Verifier.sol\":4570:4616  TrustedIssuerAdded(trustedIssuer, claimTopics) */\n      0xffffffffffffffffffffffffffffffffffffffff\n      and\n      0xfedc33fd34859594822c0ff6f3f4f9fc279cc6d5cae53068f706a088e4500872\n        /* \"contracts/onChainID/contracts/verifiers/Verifier.sol\":4604:4615  claimTopics */\n      dup4\n      dup4\n        /* \"contracts/onChainID/contracts/verifiers/Verifier.sol\":4570:4616  TrustedIssuerAdded(trustedIssuer, claimTopics) */\n      mload(0x40)\n      tag_296\n      swap3\n      swap2\n      swap1\n      tag_158\n      jump\t// in\n    tag_296:\n      mload(0x40)\n      dup1\n      swap2\n      sub\n      swap1\n      log2\n        /* \"contracts/onChainID/contracts/verifiers/Verifier.sol\":3734:4623  function addTrustedIssuer(IClaimIssuer trustedIssuer, uint256[] calldata claimTopics) public onlyOwner {... */\n      pop\n      pop\n      pop\n      jump\t// out\n        /* \"contracts/onChainID/contracts/verifiers/Verifier.sol\":268:304  uint256[] public requiredClaimTopics */\n    tag_66:\n      0x01\n      dup2\n      dup2\n      sload\n      dup2\n      lt\n      tag_297\n      jumpi\n      0x00\n      dup1\n      revert\n    tag_297:\n      swap1\n      0x00\n      mstore\n      keccak256(0x00, 0x20)\n      add\n      0x00\n      swap2\n      pop\n      swap1\n      pop\n      sload\n      dup2\n      jump\t// out\n        /* \"contracts/onChainID/contracts/verifiers/Verifier.sol\":4709:6194  function removeTrustedIssuer(IClaimIssuer trustedIssuer) public onlyOwner {... */\n    tag_72:\n        /* \"@openzeppelin/contracts/access/Ownable.sol\":1531:1544  _checkOwner() */\n      tag_300\n        /* \"@openzeppelin/contracts/access/Ownable.sol\":1531:1542  _checkOwner */\n      tag_105\n        /* \"@openzeppelin/contracts/access/Ownable.sol\":1531:1544  _checkOwner() */\n      jump\t// in\n    tag_300:\n        /* \"contracts/onChainID/contracts/verifiers/Verifier.sol\":4835:4836  0 */\n      0x00\n        /* \"contracts/onChainID/contracts/verifiers/Verifier.sol\":4801:4837  address(trustedIssuer) != address(0) */\n      0xffffffffffffffffffffffffffffffffffffffff\n      and\n        /* \"contracts/onChainID/contracts/verifiers/Verifier.sol\":4809:4822  trustedIssuer */\n      dup2\n        /* \"contracts/onChainID/contracts/verifiers/Verifier.sol\":4801:4837  address(trustedIssuer) != address(0) */\n      0xffffffffffffffffffffffffffffffffffffffff\n      and\n      sub\n        /* \"contracts/onChainID/contracts/verifiers/Verifier.sol\":4793:4873  require(address(trustedIssuer) != address(0), \"invalid argument - zero address\") */\n      tag_302\n      jumpi\n      mload(0x40)\n      0x08c379a000000000000000000000000000000000000000000000000000000000\n      dup2\n      mstore\n      0x04\n      add\n      tag_303\n      swap1\n      tag_109\n      jump\t// in\n    tag_303:\n      mload(0x40)\n      dup1\n      swap2\n      sub\n      swap1\n      revert\n    tag_302:\n        /* \"contracts/onChainID/contracts/verifiers/Verifier.sol\":4950:4951  0 */\n      0x00\n        /* \"contracts/onChainID/contracts/verifiers/Verifier.sol\":4891:4915  trustedIssuerClaimTopics */\n      0x03\n        /* \"contracts/onChainID/contracts/verifiers/Verifier.sol\":4891:4939  trustedIssuerClaimTopics[address(trustedIssuer)] */\n      0x00\n        /* \"contracts/onChainID/contracts/verifiers/Verifier.sol\":4924:4937  trustedIssuer */\n      dup4\n        /* \"contracts/onChainID/contracts/verifiers/Verifier.sol\":4891:4939  trustedIssuerClaimTopics[address(trustedIssuer)] */\n      0xffffffffffffffffffffffffffffffffffffffff\n      and\n      0xffffffffffffffffffffffffffffffffffffffff\n      and\n      dup2\n      mstore\n      0x20\n      add\n      swap1\n      dup2\n      mstore\n      0x20\n      add\n      0x00\n      keccak256\n        /* \"contracts/onChainID/contracts/verifiers/Verifier.sol\":4891:4946  trustedIssuerClaimTopics[address(trustedIssuer)].length */\n      dup1\n      sload\n      swap1\n      pop\n        /* \"contracts/onChainID/contracts/verifiers/Verifier.sol\":4891:4951  trustedIssuerClaimTopics[address(trustedIssuer)].length != 0 */\n      sub\n        /* \"contracts/onChainID/contracts/verifiers/Verifier.sol\":4883:4976  require(trustedIssuerClaimTopics[address(trustedIssuer)].length != 0, \"NOT a trusted issuer\") */\n      tag_304\n      jumpi\n      mload(0x40)\n      0x08c379a000000000000000000000000000000000000000000000000000000000\n      dup2\n      mstore\n      0x04\n      add\n      tag_305\n      swap1\n      tag_112\n      jump\t// in\n    tag_305:\n      mload(0x40)\n      dup1\n      swap2\n      sub\n      swap1\n      revert\n    tag_304:\n        /* \"contracts/onChainID/contracts/verifiers/Verifier.sol\":4986:5000  uint256 length */\n      0x00\n        /* \"contracts/onChainID/contracts/verifiers/Verifier.sol\":5003:5017  trustedIssuers */\n      0x02\n        /* \"contracts/onChainID/contracts/verifiers/Verifier.sol\":5003:5024  trustedIssuers.length */\n      dup1\n      sload\n      swap1\n      pop\n        /* \"contracts/onChainID/contracts/verifiers/Verifier.sol\":4986:5024  uint256 length = trustedIssuers.length */\n      swap1\n      pop\n        /* \"contracts/onChainID/contracts/verifiers/Verifier.sol\":5039:5048  uint256 i */\n      0x00\n        /* \"contracts/onChainID/contracts/verifiers/Verifier.sol\":5034:5275  for (uint256 i = 0; i < length; i++) {... */\n    tag_306:\n        /* \"contracts/onChainID/contracts/verifiers/Verifier.sol\":5058:5064  length */\n      dup2\n        /* \"contracts/onChainID/contracts/verifiers/Verifier.sol\":5054:5055  i */\n      dup2\n        /* \"contracts/onChainID/contracts/verifiers/Verifier.sol\":5054:5064  i < length */\n      lt\n        /* \"contracts/onChainID/contracts/verifiers/Verifier.sol\":5034:5275  for (uint256 i = 0; i < length; i++) {... */\n      iszero\n      tag_307\n      jumpi\n        /* \"contracts/onChainID/contracts/verifiers/Verifier.sol\":5110:5123  trustedIssuer */\n      dup3\n        /* \"contracts/onChainID/contracts/verifiers/Verifier.sol\":5089:5123  trustedIssuers[i] == trustedIssuer */\n      0xffffffffffffffffffffffffffffffffffffffff\n      and\n        /* \"contracts/onChainID/contracts/verifiers/Verifier.sol\":5089:5103  trustedIssuers */\n      0x02\n        /* \"contracts/onChainID/contracts/verifiers/Verifier.sol\":5104:5105  i */\n      dup3\n        /* \"contracts/onChainID/contracts/verifiers/Verifier.sol\":5089:5106  trustedIssuers[i] */\n      dup2\n      sload\n      dup2\n      lt\n      tag_309\n      jumpi\n      tag_310\n      tag_124\n      jump\t// in\n    tag_310:\n    tag_309:\n      swap1\n      0x00\n      mstore\n      keccak256(0x00, 0x20)\n      add\n      0x00\n      swap1\n      sload\n      swap1\n      0x0100\n      exp\n      swap1\n      div\n      0xffffffffffffffffffffffffffffffffffffffff\n      and\n        /* \"contracts/onChainID/contracts/verifiers/Verifier.sol\":5089:5123  trustedIssuers[i] == trustedIssuer */\n      0xffffffffffffffffffffffffffffffffffffffff\n      and\n      sub\n        /* \"contracts/onChainID/contracts/verifiers/Verifier.sol\":5085:5265  if (trustedIssuers[i] == trustedIssuer) {... */\n      tag_312\n      jumpi\n        /* \"contracts/onChainID/contracts/verifiers/Verifier.sol\":5163:5177  trustedIssuers */\n      0x02\n        /* \"contracts/onChainID/contracts/verifiers/Verifier.sol\":5187:5188  1 */\n      0x01\n        /* \"contracts/onChainID/contracts/verifiers/Verifier.sol\":5178:5184  length */\n      dup4\n        /* \"contracts/onChainID/contracts/verifiers/Verifier.sol\":5178:5188  length - 1 */\n      tag_313\n      swap2\n      swap1\n      tag_134\n      jump\t// in\n    tag_313:\n        /* \"contracts/onChainID/contracts/verifiers/Verifier.sol\":5163:5189  trustedIssuers[length - 1] */\n      dup2\n      sload\n      dup2\n      lt\n      tag_314\n      jumpi\n      tag_315\n      tag_124\n      jump\t// in\n    tag_315:\n    tag_314:\n      swap1\n      0x00\n      mstore\n      keccak256(0x00, 0x20)\n      add\n      0x00\n      swap1\n      sload\n      swap1\n      0x0100\n      exp\n      swap1\n      div\n      0xffffffffffffffffffffffffffffffffffffffff\n      and\n        /* \"contracts/onChainID/contracts/verifiers/Verifier.sol\":5143:5157  trustedIssuers */\n      0x02\n        /* \"contracts/onChainID/contracts/verifiers/Verifier.sol\":5158:5159  i */\n      dup3\n        /* \"contracts/onChainID/contracts/verifiers/Verifier.sol\":5143:5160  trustedIssuers[i] */\n      dup2\n      sload\n      dup2\n      lt\n      tag_317\n      jumpi\n      tag_318\n      tag_124\n      jump\t// in\n    tag_318:\n    tag_317:\n      swap1\n      0x00\n      mstore\n      keccak256(0x00, 0x20)\n      add\n      0x00\n        /* \"contracts/onChainID/contracts/verifiers/Verifier.sol\":5143:5189  trustedIssuers[i] = trustedIssuers[length - 1] */\n      0x0100\n      exp\n      dup2\n      sload\n      dup2\n      0xffffffffffffffffffffffffffffffffffffffff\n      mul\n      not\n      and\n      swap1\n      dup4\n      0xffffffffffffffffffffffffffffffffffffffff\n      and\n      mul\n      or\n      swap1\n      sstore\n      pop\n        /* \"contracts/onChainID/contracts/verifiers/Verifier.sol\":5207:5221  trustedIssuers */\n      0x02\n        /* \"contracts/onChainID/contracts/verifiers/Verifier.sol\":5207:5227  trustedIssuers.pop() */\n      dup1\n      sload\n      dup1\n      tag_320\n      jumpi\n      tag_321\n      tag_143\n      jump\t// in\n    tag_321:\n    tag_320:\n      0x01\n      swap1\n      sub\n      dup2\n      dup2\n      swap1\n      0x00\n      mstore\n      keccak256(0x00, 0x20)\n      add\n      exp(0x0100, 0x00)\n      dup2\n      sload\n      swap1\n      0xffffffffffffffffffffffffffffffffffffffff\n      mul\n      not\n      and\n      swap1\n      sstore\n      swap1\n      sstore\n        /* \"contracts/onChainID/contracts/verifiers/Verifier.sol\":5245:5250  break */\n      jump(tag_307)\n        /* \"contracts/onChainID/contracts/verifiers/Verifier.sol\":5085:5265  if (trustedIssuers[i] == trustedIssuer) {... */\n    tag_312:\n        /* \"contracts/onChainID/contracts/verifiers/Verifier.sol\":5066:5069  i++ */\n      dup1\n      dup1\n      tag_323\n      swap1\n      tag_146\n      jump\t// in\n    tag_323:\n      swap2\n      pop\n      pop\n        /* \"contracts/onChainID/contracts/verifiers/Verifier.sol\":5034:5275  for (uint256 i = 0; i < length; i++) {... */\n      jump(tag_306)\n    tag_307:\n      pop\n        /* \"contracts/onChainID/contracts/verifiers/Verifier.sol\":5302:5325  uint256 claimTopicIndex */\n      0x00\n        /* \"contracts/onChainID/contracts/verifiers/Verifier.sol\":5284:6073  for (... */\n    tag_324:\n        /* \"contracts/onChainID/contracts/verifiers/Verifier.sol\":5361:5385  trustedIssuerClaimTopics */\n      0x03\n        /* \"contracts/onChainID/contracts/verifiers/Verifier.sol\":5361:5409  trustedIssuerClaimTopics[address(trustedIssuer)] */\n      0x00\n        /* \"contracts/onChainID/contracts/verifiers/Verifier.sol\":5394:5407  trustedIssuer */\n      dup5\n        /* \"contracts/onChainID/contracts/verifiers/Verifier.sol\":5361:5409  trustedIssuerClaimTopics[address(trustedIssuer)] */\n      0xffffffffffffffffffffffffffffffffffffffff\n      and\n      0xffffffffffffffffffffffffffffffffffffffff\n      and\n      dup2\n      mstore\n      0x20\n      add\n      swap1\n      dup2\n      mstore\n      0x20\n      add\n      0x00\n      keccak256\n        /* \"contracts/onChainID/contracts/verifiers/Verifier.sol\":5361:5416  trustedIssuerClaimTopics[address(trustedIssuer)].length */\n      dup1\n      sload\n      swap1\n      pop\n        /* \"contracts/onChainID/contracts/verifiers/Verifier.sol\":5343:5358  claimTopicIndex */\n      dup2\n        /* \"contracts/onChainID/contracts/verifiers/Verifier.sol\":5343:5416  claimTopicIndex < trustedIssuerClaimTopics[address(trustedIssuer)].length */\n      lt\n        /* \"contracts/onChainID/contracts/verifiers/Verifier.sol\":5284:6073  for (... */\n      iszero\n      tag_325\n      jumpi\n        /* \"contracts/onChainID/contracts/verifiers/Verifier.sol\":5463:5481  uint256 claimTopic */\n      0x00\n        /* \"contracts/onChainID/contracts/verifiers/Verifier.sol\":5484:5508  trustedIssuerClaimTopics */\n      0x03\n        /* \"contracts/onChainID/contracts/verifiers/Verifier.sol\":5484:5532  trustedIssuerClaimTopics[address(trustedIssuer)] */\n      0x00\n        /* \"contracts/onChainID/contracts/verifiers/Verifier.sol\":5517:5530  trustedIssuer */\n      dup6\n        /* \"contracts/onChainID/contracts/verifiers/Verifier.sol\":5484:5532  trustedIssuerClaimTopics[address(trustedIssuer)] */\n      0xffffffffffffffffffffffffffffffffffffffff\n      and\n      0xffffffffffffffffffffffffffffffffffffffff\n      and\n      dup2\n      mstore\n      0x20\n      add\n      swap1\n      dup2\n      mstore\n      0x20\n      add\n      0x00\n      keccak256\n        /* \"contracts/onChainID/contracts/verifiers/Verifier.sol\":5533:5548  claimTopicIndex */\n      dup3\n        /* \"contracts/onChainID/contracts/verifiers/Verifier.sol\":5484:5549  trustedIssuerClaimTopics[address(trustedIssuer)][claimTopicIndex] */\n      dup2\n      sload\n      dup2\n      lt\n      tag_327\n      jumpi\n      tag_328\n      tag_124\n      jump\t// in\n    tag_328:\n    tag_327:\n      swap1\n      0x00\n      mstore\n      keccak256(0x00, 0x20)\n      add\n      sload\n        /* \"contracts/onChainID/contracts/verifiers/Verifier.sol\":5463:5549  uint256 claimTopic = trustedIssuerClaimTopics[address(trustedIssuer)][claimTopicIndex] */\n      swap1\n      pop\n        /* \"contracts/onChainID/contracts/verifiers/Verifier.sol\":5563:5583  uint256 topicsLength */\n      0x00\n        /* \"contracts/onChainID/contracts/verifiers/Verifier.sol\":5586:5613  claimTopicsToTrustedIssuers */\n      0x04\n        /* \"contracts/onChainID/contracts/verifiers/Verifier.sol\":5586:5625  claimTopicsToTrustedIssuers[claimTopic] */\n      0x00\n        /* \"contracts/onChainID/contracts/verifiers/Verifier.sol\":5614:5624  claimTopic */\n      dup4\n        /* \"contracts/onChainID/contracts/verifiers/Verifier.sol\":5586:5625  claimTopicsToTrustedIssuers[claimTopic] */\n      dup2\n      mstore\n      0x20\n      add\n      swap1\n      dup2\n      mstore\n      0x20\n      add\n      0x00\n      keccak256\n        /* \"contracts/onChainID/contracts/verifiers/Verifier.sol\":5586:5632  claimTopicsToTrustedIssuers[claimTopic].length */\n      dup1\n      sload\n      swap1\n      pop\n        /* \"contracts/onChainID/contracts/verifiers/Verifier.sol\":5563:5632  uint256 topicsLength = claimTopicsToTrustedIssuers[claimTopic].length */\n      swap1\n      pop\n        /* \"contracts/onChainID/contracts/verifiers/Verifier.sol\":5651:5660  uint256 i */\n      0x00\n        /* \"contracts/onChainID/contracts/verifiers/Verifier.sol\":5646:6063  for (uint256 i = 0; i < topicsLength; i++) {... */\n    tag_330:\n        /* \"contracts/onChainID/contracts/verifiers/Verifier.sol\":5670:5682  topicsLength */\n      dup2\n        /* \"contracts/onChainID/contracts/verifiers/Verifier.sol\":5666:5667  i */\n      dup2\n        /* \"contracts/onChainID/contracts/verifiers/Verifier.sol\":5666:5682  i < topicsLength */\n      lt\n        /* \"contracts/onChainID/contracts/verifiers/Verifier.sol\":5646:6063  for (uint256 i = 0; i < topicsLength; i++) {... */\n      iszero\n      tag_331\n      jumpi\n        /* \"contracts/onChainID/contracts/verifiers/Verifier.sol\":5757:5770  trustedIssuer */\n      dup6\n        /* \"contracts/onChainID/contracts/verifiers/Verifier.sol\":5711:5770  claimTopicsToTrustedIssuers[claimTopic][i] == trustedIssuer */\n      0xffffffffffffffffffffffffffffffffffffffff\n      and\n        /* \"contracts/onChainID/contracts/verifiers/Verifier.sol\":5711:5738  claimTopicsToTrustedIssuers */\n      0x04\n        /* \"contracts/onChainID/contracts/verifiers/Verifier.sol\":5711:5750  claimTopicsToTrustedIssuers[claimTopic] */\n      0x00\n        /* \"contracts/onChainID/contracts/verifiers/Verifier.sol\":5739:5749  claimTopic */\n      dup6\n        /* \"contracts/onChainID/contracts/verifiers/Verifier.sol\":5711:5750  claimTopicsToTrustedIssuers[claimTopic] */\n      dup2\n      mstore\n      0x20\n      add\n      swap1\n      dup2\n      mstore\n      0x20\n      add\n      0x00\n      keccak256\n        /* \"contracts/onChainID/contracts/verifiers/Verifier.sol\":5751:5752  i */\n      dup3\n        /* \"contracts/onChainID/contracts/verifiers/Verifier.sol\":5711:5753  claimTopicsToTrustedIssuers[claimTopic][i] */\n      dup2\n      sload\n      dup2\n      lt\n      tag_333\n      jumpi\n      tag_334\n      tag_124\n      jump\t// in\n    tag_334:\n    tag_333:\n      swap1\n      0x00\n      mstore\n      keccak256(0x00, 0x20)\n      add\n      0x00\n      swap1\n      sload\n      swap1\n      0x0100\n      exp\n      swap1\n      div\n      0xffffffffffffffffffffffffffffffffffffffff\n      and\n        /* \"contracts/onChainID/contracts/verifiers/Verifier.sol\":5711:5770  claimTopicsToTrustedIssuers[claimTopic][i] == trustedIssuer */\n      0xffffffffffffffffffffffffffffffffffffffff\n      and\n      sub\n        /* \"contracts/onChainID/contracts/verifiers/Verifier.sol\":5707:6049  if (claimTopicsToTrustedIssuers[claimTopic][i] == trustedIssuer) {... */\n      tag_336\n      jumpi\n        /* \"contracts/onChainID/contracts/verifiers/Verifier.sol\":5879:5906  claimTopicsToTrustedIssuers */\n      0x04\n        /* \"contracts/onChainID/contracts/verifiers/Verifier.sol\":5879:5918  claimTopicsToTrustedIssuers[claimTopic] */\n      0x00\n        /* \"contracts/onChainID/contracts/verifiers/Verifier.sol\":5907:5917  claimTopic */\n      dup5\n        /* \"contracts/onChainID/contracts/verifiers/Verifier.sol\":5879:5918  claimTopicsToTrustedIssuers[claimTopic] */\n      dup2\n      mstore\n      0x20\n      add\n      swap1\n      dup2\n      mstore\n      0x20\n      add\n      0x00\n      keccak256\n        /* \"contracts/onChainID/contracts/verifiers/Verifier.sol\":5934:5935  1 */\n      0x01\n        /* \"contracts/onChainID/contracts/verifiers/Verifier.sol\":5919:5931  topicsLength */\n      dup4\n        /* \"contracts/onChainID/contracts/verifiers/Verifier.sol\":5919:5935  topicsLength - 1 */\n      tag_337\n      swap2\n      swap1\n      tag_134\n      jump\t// in\n    tag_337:\n        /* \"contracts/onChainID/contracts/verifiers/Verifier.sol\":5879:5936  claimTopicsToTrustedIssuers[claimTopic][topicsLength - 1] */\n      dup2\n      sload\n      dup2\n      lt\n      tag_338\n      jumpi\n      tag_339\n      tag_124\n      jump\t// in\n    tag_339:\n    tag_338:\n      swap1\n      0x00\n      mstore\n      keccak256(0x00, 0x20)\n      add\n      0x00\n      swap1\n      sload\n      swap1\n      0x0100\n      exp\n      swap1\n      div\n      0xffffffffffffffffffffffffffffffffffffffff\n      and\n        /* \"contracts/onChainID/contracts/verifiers/Verifier.sol\":5794:5821  claimTopicsToTrustedIssuers */\n      0x04\n        /* \"contracts/onChainID/contracts/verifiers/Verifier.sol\":5794:5833  claimTopicsToTrustedIssuers[claimTopic] */\n      0x00\n        /* \"contracts/onChainID/contracts/verifiers/Verifier.sol\":5822:5832  claimTopic */\n      dup6\n        /* \"contracts/onChainID/contracts/verifiers/Verifier.sol\":5794:5833  claimTopicsToTrustedIssuers[claimTopic] */\n      dup2\n      mstore\n      0x20\n      add\n      swap1\n      dup2\n      mstore\n      0x20\n      add\n      0x00\n      keccak256\n        /* \"contracts/onChainID/contracts/verifiers/Verifier.sol\":5834:5835  i */\n      dup3\n        /* \"contracts/onChainID/contracts/verifiers/Verifier.sol\":5794:5836  claimTopicsToTrustedIssuers[claimTopic][i] */\n      dup2\n      sload\n      dup2\n      lt\n      tag_341\n      jumpi\n      tag_342\n      tag_124\n      jump\t// in\n    tag_342:\n    tag_341:\n      swap1\n      0x00\n      mstore\n      keccak256(0x00, 0x20)\n      add\n      0x00\n        /* \"contracts/onChainID/contracts/verifiers/Verifier.sol\":5794:5936  claimTopicsToTrustedIssuers[claimTopic][i] =... */\n      0x0100\n      exp\n      dup2\n      sload\n      dup2\n      0xffffffffffffffffffffffffffffffffffffffff\n      mul\n      not\n      and\n      swap1\n      dup4\n      0xffffffffffffffffffffffffffffffffffffffff\n      and\n      mul\n      or\n      swap1\n      sstore\n      pop\n        /* \"contracts/onChainID/contracts/verifiers/Verifier.sol\":5958:5985  claimTopicsToTrustedIssuers */\n      0x04\n        /* \"contracts/onChainID/contracts/verifiers/Verifier.sol\":5958:5997  claimTopicsToTrustedIssuers[claimTopic] */\n      0x00\n        /* \"contracts/onChainID/contracts/verifiers/Verifier.sol\":5986:5996  claimTopic */\n      dup5\n        /* \"contracts/onChainID/contracts/verifiers/Verifier.sol\":5958:5997  claimTopicsToTrustedIssuers[claimTopic] */\n      dup2\n      mstore\n      0x20\n      add\n      swap1\n      dup2\n      mstore\n      0x20\n      add\n      0x00\n      keccak256\n        /* \"contracts/onChainID/contracts/verifiers/Verifier.sol\":5958:6003  claimTopicsToTrustedIssuers[claimTopic].pop() */\n      dup1\n      sload\n      dup1\n      tag_344\n      jumpi\n      tag_345\n      tag_143\n      jump\t// in\n    tag_345:\n    tag_344:\n      0x01\n      swap1\n      sub\n      dup2\n      dup2\n      swap1\n      0x00\n      mstore\n      keccak256(0x00, 0x20)\n      add\n      exp(0x0100, 0x00)\n      dup2\n      sload\n      swap1\n      0xffffffffffffffffffffffffffffffffffffffff\n      mul\n      not\n      and\n      swap1\n      sstore\n      swap1\n      sstore\n        /* \"contracts/onChainID/contracts/verifiers/Verifier.sol\":6025:6030  break */\n      jump(tag_331)\n        /* \"contracts/onChainID/contracts/verifiers/Verifier.sol\":5707:6049  if (claimTopicsToTrustedIssuers[claimTopic][i] == trustedIssuer) {... */\n    tag_336:\n        /* \"contracts/onChainID/contracts/verifiers/Verifier.sol\":5684:5687  i++ */\n      dup1\n      dup1\n      tag_347\n      swap1\n      tag_146\n      jump\t// in\n    tag_347:\n      swap2\n      pop\n      pop\n        /* \"contracts/onChainID/contracts/verifiers/Verifier.sol\":5646:6063  for (uint256 i = 0; i < topicsLength; i++) {... */\n      jump(tag_330)\n    tag_331:\n      pop\n        /* \"contracts/onChainID/contracts/verifiers/Verifier.sol\":5449:6073  {... */\n      pop\n      pop\n        /* \"contracts/onChainID/contracts/verifiers/Verifier.sol\":5430:5447  claimTopicIndex++ */\n      dup1\n      dup1\n      tag_348\n      swap1\n      tag_146\n      jump\t// in\n    tag_348:\n      swap2\n      pop\n      pop\n        /* \"contracts/onChainID/contracts/verifiers/Verifier.sol\":5284:6073  for (... */\n      jump(tag_324)\n    tag_325:\n      pop\n        /* \"contracts/onChainID/contracts/verifiers/Verifier.sol\":6089:6113  trustedIssuerClaimTopics */\n      0x03\n        /* \"contracts/onChainID/contracts/verifiers/Verifier.sol\":6089:6137  trustedIssuerClaimTopics[address(trustedIssuer)] */\n      0x00\n        /* \"contracts/onChainID/contracts/verifiers/Verifier.sol\":6122:6135  trustedIssuer */\n      dup4\n        /* \"contracts/onChainID/contracts/verifiers/Verifier.sol\":6089:6137  trustedIssuerClaimTopics[address(trustedIssuer)] */\n      0xffffffffffffffffffffffffffffffffffffffff\n      and\n      0xffffffffffffffffffffffffffffffffffffffff\n      and\n      dup2\n      mstore\n      0x20\n      add\n      swap1\n      dup2\n      mstore\n      0x20\n      add\n      0x00\n      keccak256\n      0x00\n        /* \"contracts/onChainID/contracts/verifiers/Verifier.sol\":6082:6137  delete trustedIssuerClaimTopics[address(trustedIssuer)] */\n      tag_349\n      swap2\n      swap1\n      tag_350\n      jump\t// in\n    tag_349:\n        /* \"contracts/onChainID/contracts/verifiers/Verifier.sol\":6173:6186  trustedIssuer */\n      dup2\n        /* \"contracts/onChainID/contracts/verifiers/Verifier.sol\":6152:6187  TrustedIssuerRemoved(trustedIssuer) */\n      0xffffffffffffffffffffffffffffffffffffffff\n      and\n      0x2214ded40113cc3fb63fc206cafee88270b0a903dac7245d54efdde30ebb0321\n      mload(0x40)\n      mload(0x40)\n      dup1\n      swap2\n      sub\n      swap1\n      log2\n        /* \"contracts/onChainID/contracts/verifiers/Verifier.sol\":4783:6194  {... */\n      pop\n        /* \"contracts/onChainID/contracts/verifiers/Verifier.sol\":4709:6194  function removeTrustedIssuer(IClaimIssuer trustedIssuer) public onlyOwner {... */\n      pop\n      jump\t// out\n        /* \"contracts/onChainID/contracts/verifiers/Verifier.sol\":564:625  mapping(address => uint256[]) public trustedIssuerClaimTopics */\n    tag_75:\n      mstore(0x20, 0x03)\n      dup2\n      0x00\n      mstore\n      keccak256(0x00, 0x40)\n      dup2\n      dup2\n      sload\n      dup2\n      lt\n      tag_351\n      jumpi\n      0x00\n      dup1\n      revert\n    tag_351:\n      swap1\n      0x00\n      mstore\n      keccak256(0x00, 0x20)\n      add\n      0x00\n      swap2\n      pop\n      swap2\n      pop\n      pop\n      sload\n      dup2\n      jump\t// out\n        /* \"contracts/onChainID/contracts/verifiers/Verifier.sol\":9337:9654  function isClaimTopicRequired(uint256 claimTopic) public view returns (bool) {... */\n    tag_79:\n        /* \"contracts/onChainID/contracts/verifiers/Verifier.sol\":9408:9412  bool */\n      0x00\n        /* \"contracts/onChainID/contracts/verifiers/Verifier.sol\":9424:9438  uint256 length */\n      dup1\n        /* \"contracts/onChainID/contracts/verifiers/Verifier.sol\":9441:9460  requiredClaimTopics */\n      0x01\n        /* \"contracts/onChainID/contracts/verifiers/Verifier.sol\":9441:9467  requiredClaimTopics.length */\n      dup1\n      sload\n      swap1\n      pop\n        /* \"contracts/onChainID/contracts/verifiers/Verifier.sol\":9424:9467  uint256 length = requiredClaimTopics.length */\n      swap1\n      pop\n        /* \"contracts/onChainID/contracts/verifiers/Verifier.sol\":9483:9492  uint256 i */\n      0x00\n        /* \"contracts/onChainID/contracts/verifiers/Verifier.sol\":9478:9625  for (uint256 i = 0; i < length; i++) {... */\n    tag_354:\n        /* \"contracts/onChainID/contracts/verifiers/Verifier.sol\":9502:9508  length */\n      dup2\n        /* \"contracts/onChainID/contracts/verifiers/Verifier.sol\":9498:9499  i */\n      dup2\n        /* \"contracts/onChainID/contracts/verifiers/Verifier.sol\":9498:9508  i < length */\n      lt\n        /* \"contracts/onChainID/contracts/verifiers/Verifier.sol\":9478:9625  for (uint256 i = 0; i < length; i++) {... */\n      iszero\n      tag_355\n      jumpi\n        /* \"contracts/onChainID/contracts/verifiers/Verifier.sol\":9559:9569  claimTopic */\n      dup4\n        /* \"contracts/onChainID/contracts/verifiers/Verifier.sol\":9533:9552  requiredClaimTopics */\n      0x01\n        /* \"contracts/onChainID/contracts/verifiers/Verifier.sol\":9553:9554  i */\n      dup3\n        /* \"contracts/onChainID/contracts/verifiers/Verifier.sol\":9533:9555  requiredClaimTopics[i] */\n      dup2\n      sload\n      dup2\n      lt\n      tag_357\n      jumpi\n      tag_358\n      tag_124\n      jump\t// in\n    tag_358:\n    tag_357:\n      swap1\n      0x00\n      mstore\n      keccak256(0x00, 0x20)\n      add\n      sload\n        /* \"contracts/onChainID/contracts/verifiers/Verifier.sol\":9533:9569  requiredClaimTopics[i] == claimTopic */\n      sub\n        /* \"contracts/onChainID/contracts/verifiers/Verifier.sol\":9529:9615  if (requiredClaimTopics[i] == claimTopic) {... */\n      tag_360\n      jumpi\n        /* \"contracts/onChainID/contracts/verifiers/Verifier.sol\":9596:9600  true */\n      0x01\n        /* \"contracts/onChainID/contracts/verifiers/Verifier.sol\":9589:9600  return true */\n      swap3\n      pop\n      pop\n      pop\n      jump(tag_353)\n        /* \"contracts/onChainID/contracts/verifiers/Verifier.sol\":9529:9615  if (requiredClaimTopics[i] == claimTopic) {... */\n    tag_360:\n        /* \"contracts/onChainID/contracts/verifiers/Verifier.sol\":9510:9513  i++ */\n      dup1\n      dup1\n      tag_361\n      swap1\n      tag_146\n      jump\t// in\n    tag_361:\n      swap2\n      pop\n      pop\n        /* \"contracts/onChainID/contracts/verifiers/Verifier.sol\":9478:9625  for (uint256 i = 0; i < length; i++) {... */\n      jump(tag_354)\n    tag_355:\n      pop\n        /* \"contracts/onChainID/contracts/verifiers/Verifier.sol\":9642:9647  false */\n      0x00\n        /* \"contracts/onChainID/contracts/verifiers/Verifier.sol\":9635:9647  return false */\n      swap2\n      pop\n      pop\n        /* \"contracts/onChainID/contracts/verifiers/Verifier.sol\":9337:9654  function isClaimTopicRequired(uint256 claimTopic) public view returns (bool) {... */\n    tag_353:\n      swap2\n      swap1\n      pop\n      jump\t// out\n        /* \"contracts/onChainID/contracts/verifiers/Verifier.sol\":8582:8870  function getTrustedIssuerClaimTopics(IClaimIssuer trustedIssuer) public view returns (uint256[] memory) {... */\n    tag_83:\n        /* \"contracts/onChainID/contracts/verifiers/Verifier.sol\":8668:8684  uint256[] memory */\n      0x60\n        /* \"contracts/onChainID/contracts/verifiers/Verifier.sol\":8763:8764  0 */\n      0x00\n        /* \"contracts/onChainID/contracts/verifiers/Verifier.sol\":8704:8728  trustedIssuerClaimTopics */\n      0x03\n        /* \"contracts/onChainID/contracts/verifiers/Verifier.sol\":8704:8752  trustedIssuerClaimTopics[address(trustedIssuer)] */\n      0x00\n        /* \"contracts/onChainID/contracts/verifiers/Verifier.sol\":8737:8750  trustedIssuer */\n      dup5\n        /* \"contracts/onChainID/contracts/verifiers/Verifier.sol\":8704:8752  trustedIssuerClaimTopics[address(trustedIssuer)] */\n      0xffffffffffffffffffffffffffffffffffffffff\n      and\n      0xffffffffffffffffffffffffffffffffffffffff\n      and\n      dup2\n      mstore\n      0x20\n      add\n      swap1\n      dup2\n      mstore\n      0x20\n      add\n      0x00\n      keccak256\n        /* \"contracts/onChainID/contracts/verifiers/Verifier.sol\":8704:8759  trustedIssuerClaimTopics[address(trustedIssuer)].length */\n      dup1\n      sload\n      swap1\n      pop\n        /* \"contracts/onChainID/contracts/verifiers/Verifier.sol\":8704:8764  trustedIssuerClaimTopics[address(trustedIssuer)].length != 0 */\n      sub\n        /* \"contracts/onChainID/contracts/verifiers/Verifier.sol\":8696:8798  require(trustedIssuerClaimTopics[address(trustedIssuer)].length != 0, \"trusted Issuer doesn\\'t exist\") */\n      tag_363\n      jumpi\n      mload(0x40)\n      0x08c379a000000000000000000000000000000000000000000000000000000000\n      dup2\n      mstore\n      0x04\n      add\n      tag_364\n      swap1\n      tag_365\n      jump\t// in\n    tag_364:\n      mload(0x40)\n      dup1\n      swap2\n      sub\n      swap1\n      revert\n    tag_363:\n        /* \"contracts/onChainID/contracts/verifiers/Verifier.sol\":8815:8839  trustedIssuerClaimTopics */\n      0x03\n        /* \"contracts/onChainID/contracts/verifiers/Verifier.sol\":8815:8863  trustedIssuerClaimTopics[address(trustedIssuer)] */\n      0x00\n        /* \"contracts/onChainID/contracts/verifiers/Verifier.sol\":8848:8861  trustedIssuer */\n      dup4\n        /* \"contracts/onChainID/contracts/verifiers/Verifier.sol\":8815:8863  trustedIssuerClaimTopics[address(trustedIssuer)] */\n      0xffffffffffffffffffffffffffffffffffffffff\n      and\n      0xffffffffffffffffffffffffffffffffffffffff\n      and\n      dup2\n      mstore\n      0x20\n      add\n      swap1\n      dup2\n      mstore\n      0x20\n      add\n      0x00\n      keccak256\n        /* \"contracts/onChainID/contracts/verifiers/Verifier.sol\":8808:8863  return trustedIssuerClaimTopics[address(trustedIssuer)] */\n      dup1\n      sload\n      dup1\n      0x20\n      mul\n      0x20\n      add\n      mload(0x40)\n      swap1\n      dup2\n      add\n      0x40\n      mstore\n      dup1\n      swap3\n      swap2\n      swap1\n      dup2\n      dup2\n      mstore\n      0x20\n      add\n      dup3\n      dup1\n      sload\n      dup1\n      iszero\n      tag_366\n      jumpi\n      0x20\n      mul\n      dup3\n      add\n      swap2\n      swap1\n      0x00\n      mstore\n      keccak256(0x00, 0x20)\n      swap1\n    tag_367:\n      dup2\n      sload\n      dup2\n      mstore\n      0x20\n      add\n      swap1\n      0x01\n      add\n      swap1\n      dup1\n      dup4\n      gt\n      tag_367\n      jumpi\n    tag_366:\n      pop\n      pop\n      pop\n      pop\n      pop\n      swap1\n      pop\n        /* \"contracts/onChainID/contracts/verifiers/Verifier.sol\":8582:8870  function getTrustedIssuerClaimTopics(IClaimIssuer trustedIssuer) public view returns (uint256[] memory) {... */\n      swap2\n      swap1\n      pop\n      jump\t// out\n        /* \"contracts/onChainID/contracts/verifiers/Verifier.sol\":2710:3131  function addClaimTopic(uint256 claimTopic) public onlyOwner {... */\n    tag_88:\n        /* \"@openzeppelin/contracts/access/Ownable.sol\":1531:1544  _checkOwner() */\n      tag_369\n        /* \"@openzeppelin/contracts/access/Ownable.sol\":1531:1542  _checkOwner */\n      tag_105\n        /* \"@openzeppelin/contracts/access/Ownable.sol\":1531:1544  _checkOwner() */\n      jump\t// in\n    tag_369:\n        /* \"contracts/onChainID/contracts/verifiers/Verifier.sol\":2780:2794  uint256 length */\n      0x00\n        /* \"contracts/onChainID/contracts/verifiers/Verifier.sol\":2797:2816  requiredClaimTopics */\n      0x01\n        /* \"contracts/onChainID/contracts/verifiers/Verifier.sol\":2797:2823  requiredClaimTopics.length */\n      dup1\n      sload\n      swap1\n      pop\n        /* \"contracts/onChainID/contracts/verifiers/Verifier.sol\":2780:2823  uint256 length = requiredClaimTopics.length */\n      swap1\n      pop\n        /* \"contracts/onChainID/contracts/verifiers/Verifier.sol\":2850:2852  15 */\n      0x0f\n        /* \"contracts/onChainID/contracts/verifiers/Verifier.sol\":2841:2847  length */\n      dup2\n        /* \"contracts/onChainID/contracts/verifiers/Verifier.sol\":2841:2852  length < 15 */\n      lt\n        /* \"contracts/onChainID/contracts/verifiers/Verifier.sol\":2833:2891  require(length < 15, \"cannot require more than 15 topics\") */\n      tag_371\n      jumpi\n      mload(0x40)\n      0x08c379a000000000000000000000000000000000000000000000000000000000\n      dup2\n      mstore\n      0x04\n      add\n      tag_372\n      swap1\n      tag_373\n      jump\t// in\n    tag_372:\n      mload(0x40)\n      dup1\n      swap2\n      sub\n      swap1\n      revert\n    tag_371:\n        /* \"contracts/onChainID/contracts/verifiers/Verifier.sol\":2906:2915  uint256 i */\n      0x00\n        /* \"contracts/onChainID/contracts/verifiers/Verifier.sol\":2901:3037  for (uint256 i = 0; i < length; i++) {... */\n    tag_374:\n        /* \"contracts/onChainID/contracts/verifiers/Verifier.sol\":2925:2931  length */\n      dup2\n        /* \"contracts/onChainID/contracts/verifiers/Verifier.sol\":2921:2922  i */\n      dup2\n        /* \"contracts/onChainID/contracts/verifiers/Verifier.sol\":2921:2931  i < length */\n      lt\n        /* \"contracts/onChainID/contracts/verifiers/Verifier.sol\":2901:3037  for (uint256 i = 0; i < length; i++) {... */\n      iszero\n      tag_375\n      jumpi\n        /* \"contracts/onChainID/contracts/verifiers/Verifier.sol\":2986:2996  claimTopic */\n      dup3\n        /* \"contracts/onChainID/contracts/verifiers/Verifier.sol\":2960:2979  requiredClaimTopics */\n      0x01\n        /* \"contracts/onChainID/contracts/verifiers/Verifier.sol\":2980:2981  i */\n      dup3\n        /* \"contracts/onChainID/contracts/verifiers/Verifier.sol\":2960:2982  requiredClaimTopics[i] */\n      dup2\n      sload\n      dup2\n      lt\n      tag_377\n      jumpi\n      tag_378\n      tag_124\n      jump\t// in\n    tag_378:\n    tag_377:\n      swap1\n      0x00\n      mstore\n      keccak256(0x00, 0x20)\n      add\n      sload\n        /* \"contracts/onChainID/contracts/verifiers/Verifier.sol\":2960:2996  requiredClaimTopics[i] != claimTopic */\n      sub\n        /* \"contracts/onChainID/contracts/verifiers/Verifier.sol\":2952:3026  require(requiredClaimTopics[i] != claimTopic, \"claimTopic already exists\") */\n      tag_380\n      jumpi\n      mload(0x40)\n      0x08c379a000000000000000000000000000000000000000000000000000000000\n      dup2\n      mstore\n      0x04\n      add\n      tag_381\n      swap1\n      tag_382\n      jump\t// in\n    tag_381:\n      mload(0x40)\n      dup1\n      swap2\n      sub\n      swap1\n      revert\n    tag_380:\n        /* \"contracts/onChainID/contracts/verifiers/Verifier.sol\":2933:2936  i++ */\n      dup1\n      dup1\n      tag_383\n      swap1\n      tag_146\n      jump\t// in\n    tag_383:\n      swap2\n      pop\n      pop\n        /* \"contracts/onChainID/contracts/verifiers/Verifier.sol\":2901:3037  for (uint256 i = 0; i < length; i++) {... */\n      jump(tag_374)\n    tag_375:\n      pop\n        /* \"contracts/onChainID/contracts/verifiers/Verifier.sol\":3046:3065  requiredClaimTopics */\n      0x01\n        /* \"contracts/onChainID/contracts/verifiers/Verifier.sol\":3071:3081  claimTopic */\n      dup3\n        /* \"contracts/onChainID/contracts/verifiers/Verifier.sol\":3046:3082  requiredClaimTopics.push(claimTopic) */\n      swap1\n      dup1\n      0x01\n      dup2\n      sload\n      add\n      dup1\n      dup3\n      sstore\n      dup1\n      swap2\n      pop\n      pop\n      0x01\n      swap1\n      sub\n      swap1\n      0x00\n      mstore\n      keccak256(0x00, 0x20)\n      add\n      0x00\n      swap1\n      swap2\n      swap1\n      swap2\n      swap1\n      swap2\n      pop\n      sstore\n        /* \"contracts/onChainID/contracts/verifiers/Verifier.sol\":3113:3123  claimTopic */\n      dup2\n        /* \"contracts/onChainID/contracts/verifiers/Verifier.sol\":3097:3124  ClaimTopicAdded(claimTopic) */\n      0x01c928b7f7ade2949e92366aa9454dbef3a416b731cf6ec786ba9595bbd814d6\n      mload(0x40)\n      mload(0x40)\n      dup1\n      swap2\n      sub\n      swap1\n      log2\n        /* \"contracts/onChainID/contracts/verifiers/Verifier.sol\":2770:3131  {... */\n      pop\n        /* \"contracts/onChainID/contracts/verifiers/Verifier.sol\":2710:3131  function addClaimTopic(uint256 claimTopic) public onlyOwner {... */\n      pop\n      jump\t// out\n        /* \"contracts/onChainID/contracts/verifiers/Verifier.sol\":420:456  IClaimIssuer[] public trustedIssuers */\n    tag_91:\n      0x02\n      dup2\n      dup2\n      sload\n      dup2\n      lt\n      tag_385\n      jumpi\n      0x00\n      dup1\n      revert\n    tag_385:\n      swap1\n      0x00\n      mstore\n      keccak256(0x00, 0x20)\n      add\n      0x00\n      swap2\n      pop\n      sload\n      swap1\n      0x0100\n      exp\n      swap1\n      div\n      0xffffffffffffffffffffffffffffffffffffffff\n      and\n      dup2\n      jump\t// out\n        /* \"contracts/onChainID/contracts/verifiers/Verifier.sol\":7841:7952  function getTrustedIssuers() public view returns (IClaimIssuer[] memory) {... */\n    tag_94:\n        /* \"contracts/onChainID/contracts/verifiers/Verifier.sol\":7891:7912  IClaimIssuer[] memory */\n      0x60\n        /* \"contracts/onChainID/contracts/verifiers/Verifier.sol\":7931:7945  trustedIssuers */\n      0x02\n        /* \"contracts/onChainID/contracts/verifiers/Verifier.sol\":7924:7945  return trustedIssuers */\n      dup1\n      sload\n      dup1\n      0x20\n      mul\n      0x20\n      add\n      mload(0x40)\n      swap1\n      dup2\n      add\n      0x40\n      mstore\n      dup1\n      swap3\n      swap2\n      swap1\n      dup2\n      dup2\n      mstore\n      0x20\n      add\n      dup3\n      dup1\n      sload\n      dup1\n      iszero\n      tag_388\n      jumpi\n      0x20\n      mul\n      dup3\n      add\n      swap2\n      swap1\n      0x00\n      mstore\n      keccak256(0x00, 0x20)\n      swap1\n    tag_389:\n      dup2\n      0x00\n      swap1\n      sload\n      swap1\n      0x0100\n      exp\n      swap1\n      div\n      0xffffffffffffffffffffffffffffffffffffffff\n      and\n      0xffffffffffffffffffffffffffffffffffffffff\n      and\n      dup2\n      mstore\n      0x20\n      add\n      swap1\n      0x01\n      add\n      swap1\n      dup1\n      dup4\n      gt\n      tag_389\n      jumpi\n    tag_388:\n      pop\n      pop\n      pop\n      pop\n      pop\n      swap1\n      pop\n        /* \"contracts/onChainID/contracts/verifiers/Verifier.sol\":7841:7952  function getTrustedIssuers() public view returns (IClaimIssuer[] memory) {... */\n      swap1\n      jump\t// out\n        /* \"contracts/onChainID/contracts/verifiers/Verifier.sol\":8298:8488  function isTrustedIssuer(address issuer) public view returns (bool) {... */\n    tag_98:\n        /* \"contracts/onChainID/contracts/verifiers/Verifier.sol\":8360:8364  bool */\n      0x00\n        /* \"contracts/onChainID/contracts/verifiers/Verifier.sol\":8421:8422  0 */\n      dup1\n        /* \"contracts/onChainID/contracts/verifiers/Verifier.sol\":8379:8403  trustedIssuerClaimTopics */\n      0x03\n        /* \"contracts/onChainID/contracts/verifiers/Verifier.sol\":8379:8411  trustedIssuerClaimTopics[issuer] */\n      0x00\n        /* \"contracts/onChainID/contracts/verifiers/Verifier.sol\":8404:8410  issuer */\n      dup5\n        /* \"contracts/onChainID/contracts/verifiers/Verifier.sol\":8379:8411  trustedIssuerClaimTopics[issuer] */\n      0xffffffffffffffffffffffffffffffffffffffff\n      and\n      0xffffffffffffffffffffffffffffffffffffffff\n      and\n      dup2\n      mstore\n      0x20\n      add\n      swap1\n      dup2\n      mstore\n      0x20\n      add\n      0x00\n      keccak256\n        /* \"contracts/onChainID/contracts/verifiers/Verifier.sol\":8379:8418  trustedIssuerClaimTopics[issuer].length */\n      dup1\n      sload\n      swap1\n      pop\n        /* \"contracts/onChainID/contracts/verifiers/Verifier.sol\":8379:8422  trustedIssuerClaimTopics[issuer].length > 0 */\n      gt\n        /* \"contracts/onChainID/contracts/verifiers/Verifier.sol\":8376:8460  if(trustedIssuerClaimTopics[issuer].length > 0) {... */\n      iszero\n      tag_391\n      jumpi\n        /* \"contracts/onChainID/contracts/verifiers/Verifier.sol\":8445:8449  true */\n      0x01\n        /* \"contracts/onChainID/contracts/verifiers/Verifier.sol\":8438:8449  return true */\n      swap1\n      pop\n      jump(tag_390)\n        /* \"contracts/onChainID/contracts/verifiers/Verifier.sol\":8376:8460  if(trustedIssuerClaimTopics[issuer].length > 0) {... */\n    tag_391:\n        /* \"contracts/onChainID/contracts/verifiers/Verifier.sol\":8476:8481  false */\n      0x00\n        /* \"contracts/onChainID/contracts/verifiers/Verifier.sol\":8469:8481  return false */\n      swap1\n      pop\n        /* \"contracts/onChainID/contracts/verifiers/Verifier.sol\":8298:8488  function isTrustedIssuer(address issuer) public view returns (bool) {... */\n    tag_390:\n      swap2\n      swap1\n      pop\n      jump\t// out\n        /* \"@openzeppelin/contracts/access/Ownable.sol\":2543:2758  function transferOwnership(address newOwner) public virtual onlyOwner {... */\n    tag_102:\n        /* \"@openzeppelin/contracts/access/Ownable.sol\":1531:1544  _checkOwner() */\n      tag_393\n        /* \"@openzeppelin/contracts/access/Ownable.sol\":1531:1542  _checkOwner */\n      tag_105\n        /* \"@openzeppelin/contracts/access/Ownable.sol\":1531:1544  _checkOwner() */\n      jump\t// in\n    tag_393:\n        /* \"@openzeppelin/contracts/access/Ownable.sol\":2647:2648  0 */\n      0x00\n        /* \"@openzeppelin/contracts/access/Ownable.sol\":2627:2649  newOwner == address(0) */\n      0xffffffffffffffffffffffffffffffffffffffff\n      and\n        /* \"@openzeppelin/contracts/access/Ownable.sol\":2627:2635  newOwner */\n      dup2\n        /* \"@openzeppelin/contracts/access/Ownable.sol\":2627:2649  newOwner == address(0) */\n      0xffffffffffffffffffffffffffffffffffffffff\n      and\n      sub\n        /* \"@openzeppelin/contracts/access/Ownable.sol\":2623:2714  if (newOwner == address(0)) {... */\n      tag_395\n      jumpi\n        /* \"@openzeppelin/contracts/access/Ownable.sol\":2700:2701  0 */\n      0x00\n        /* \"@openzeppelin/contracts/access/Ownable.sol\":2672:2703  OwnableInvalidOwner(address(0)) */\n      mload(0x40)\n      0x1e4fbdf700000000000000000000000000000000000000000000000000000000\n      dup2\n      mstore\n      0x04\n      add\n      tag_396\n      swap2\n      swap1\n      tag_54\n      jump\t// in\n    tag_396:\n      mload(0x40)\n      dup1\n      swap2\n      sub\n      swap1\n      revert\n        /* \"@openzeppelin/contracts/access/Ownable.sol\":2623:2714  if (newOwner == address(0)) {... */\n    tag_395:\n        /* \"@openzeppelin/contracts/access/Ownable.sol\":2723:2751  _transferOwnership(newOwner) */\n      tag_397\n        /* \"@openzeppelin/contracts/access/Ownable.sol\":2742:2750  newOwner */\n      dup2\n        /* \"@openzeppelin/contracts/access/Ownable.sol\":2723:2741  _transferOwnership */\n      tag_267\n        /* \"@openzeppelin/contracts/access/Ownable.sol\":2723:2751  _transferOwnership(newOwner) */\n      jump\t// in\n    tag_397:\n        /* \"@openzeppelin/contracts/access/Ownable.sol\":2543:2758  function transferOwnership(address newOwner) public virtual onlyOwner {... */\n      pop\n      jump\t// out\n        /* \"@openzeppelin/contracts/access/Ownable.sol\":1796:1958  function _checkOwner() internal view virtual {... */\n    tag_105:\n        /* \"@openzeppelin/contracts/access/Ownable.sol\":1866:1878  _msgSender() */\n      tag_399\n        /* \"@openzeppelin/contracts/access/Ownable.sol\":1866:1876  _msgSender */\n      tag_400\n        /* \"@openzeppelin/contracts/access/Ownable.sol\":1866:1878  _msgSender() */\n      jump\t// in\n    tag_399:\n        /* \"@openzeppelin/contracts/access/Ownable.sol\":1855:1878  owner() != _msgSender() */\n      0xffffffffffffffffffffffffffffffffffffffff\n      and\n        /* \"@openzeppelin/contracts/access/Ownable.sol\":1855:1862  owner() */\n      tag_401\n        /* \"@openzeppelin/contracts/access/Ownable.sol\":1855:1860  owner */\n      tag_52\n        /* \"@openzeppelin/contracts/access/Ownable.sol\":1855:1862  owner() */\n      jump\t// in\n    tag_401:\n        /* \"@openzeppelin/contracts/access/Ownable.sol\":1855:1878  owner() != _msgSender() */\n      0xffffffffffffffffffffffffffffffffffffffff\n      and\n      eq\n        /* \"@openzeppelin/contracts/access/Ownable.sol\":1851:1952  if (owner() != _msgSender()) {... */\n      tag_402\n      jumpi\n        /* \"@openzeppelin/contracts/access/Ownable.sol\":1928:1940  _msgSender() */\n      tag_403\n        /* \"@openzeppelin/contracts/access/Ownable.sol\":1928:1938  _msgSender */\n      tag_400\n        /* \"@openzeppelin/contracts/access/Ownable.sol\":1928:1940  _msgSender() */\n      jump\t// in\n    tag_403:\n        /* \"@openzeppelin/contracts/access/Ownable.sol\":1901:1941  OwnableUnauthorizedAccount(_msgSender()) */\n      mload(0x40)\n      0x118cdaa700000000000000000000000000000000000000000000000000000000\n      dup2\n      mstore\n      0x04\n      add\n      tag_404\n      swap2\n      swap1\n      tag_54\n      jump\t// in\n    tag_404:\n      mload(0x40)\n      dup1\n      swap2\n      sub\n      swap1\n      revert\n        /* \"@openzeppelin/contracts/access/Ownable.sol\":1851:1952  if (owner() != _msgSender()) {... */\n    tag_402:\n        /* \"@openzeppelin/contracts/access/Ownable.sol\":1796:1958  function _checkOwner() internal view virtual {... */\n      jump\t// out\n        /* \"@openzeppelin/contracts/access/Ownable.sol\":2912:3099  function _transferOwnership(address newOwner) internal virtual {... */\n    tag_267:\n        /* \"@openzeppelin/contracts/access/Ownable.sol\":2985:3001  address oldOwner */\n      0x00\n        /* \"@openzeppelin/contracts/access/Ownable.sol\":3004:3010  _owner */\n      dup1\n      0x00\n      swap1\n      sload\n      swap1\n      0x0100\n      exp\n      swap1\n      div\n      0xffffffffffffffffffffffffffffffffffffffff\n      and\n        /* \"@openzeppelin/contracts/access/Ownable.sol\":2985:3010  address oldOwner = _owner */\n      swap1\n      pop\n        /* \"@openzeppelin/contracts/access/Ownable.sol\":3029:3037  newOwner */\n      dup2\n        /* \"@openzeppelin/contracts/access/Ownable.sol\":3020:3026  _owner */\n      0x00\n      dup1\n        /* \"@openzeppelin/contracts/access/Ownable.sol\":3020:3037  _owner = newOwner */\n      0x0100\n      exp\n      dup2\n      sload\n      dup2\n      0xffffffffffffffffffffffffffffffffffffffff\n      mul\n      not\n      and\n      swap1\n      dup4\n      0xffffffffffffffffffffffffffffffffffffffff\n      and\n      mul\n      or\n      swap1\n      sstore\n      pop\n        /* \"@openzeppelin/contracts/access/Ownable.sol\":3083:3091  newOwner */\n      dup2\n        /* \"@openzeppelin/contracts/access/Ownable.sol\":3052:3092  OwnershipTransferred(oldOwner, newOwner) */\n      0xffffffffffffffffffffffffffffffffffffffff\n      and\n        /* \"@openzeppelin/contracts/access/Ownable.sol\":3073:3081  oldOwner */\n      dup2\n        /* \"@openzeppelin/contracts/access/Ownable.sol\":3052:3092  OwnershipTransferred(oldOwner, newOwner) */\n      0xffffffffffffffffffffffffffffffffffffffff\n      and\n      0x8be0079c531659141344cd1fd0a4f28419497f9722a3daafe3b4186f6b6457e0\n      mload(0x40)\n      mload(0x40)\n      dup1\n      swap2\n      sub\n      swap1\n      log3\n        /* \"@openzeppelin/contracts/access/Ownable.sol\":2975:3099  {... */\n      pop\n        /* \"@openzeppelin/contracts/access/Ownable.sol\":2912:3099  function _transferOwnership(address newOwner) internal virtual {... */\n      pop\n      jump\t// out\n        /* \"@openzeppelin/contracts/utils/Context.sol\":656:752  function _msgSender() internal view virtual returns (address) {... */\n    tag_400:\n        /* \"@openzeppelin/contracts/utils/Context.sol\":709:716  address */\n      0x00\n        /* \"@openzeppelin/contracts/utils/Context.sol\":735:745  msg.sender */\n      caller\n        /* \"@openzeppelin/contracts/utils/Context.sol\":728:745  return msg.sender */\n      swap1\n      pop\n        /* \"@openzeppelin/contracts/utils/Context.sol\":656:752  function _msgSender() internal view virtual returns (address) {... */\n      swap1\n      jump\t// out\n    tag_149:\n      dup3\n      dup1\n      sload\n      dup3\n      dup3\n      sstore\n      swap1\n      0x00\n      mstore\n      keccak256(0x00, 0x20)\n      swap1\n      dup2\n      add\n      swap3\n      dup3\n      iszero\n      tag_407\n      jumpi\n      swap2\n      0x20\n      mul\n      dup3\n      add\n    tag_408:\n      dup3\n      dup2\n      gt\n      iszero\n      tag_409\n      jumpi\n      dup3\n      calldataload\n      dup3\n      sstore\n      swap2\n      0x20\n      add\n      swap2\n      swap1\n      0x01\n      add\n      swap1\n      jump(tag_408)\n    tag_409:\n    tag_407:\n      pop\n      swap1\n      pop\n      tag_410\n      swap2\n      swap1\n      tag_411\n      jump\t// in\n    tag_410:\n      pop\n      swap1\n      jump\t// out\n    tag_350:\n      pop\n      dup1\n      sload\n      0x00\n      dup3\n      sstore\n      swap1\n      0x00\n      mstore\n      keccak256(0x00, 0x20)\n      swap1\n      dup2\n      add\n      swap1\n      tag_413\n      swap2\n      swap1\n      tag_411\n      jump\t// in\n    tag_413:\n      pop\n      jump\t// out\n    tag_411:\n    tag_414:\n      dup1\n      dup3\n      gt\n      iszero\n      tag_415\n      jumpi\n      0x00\n      dup2\n      0x00\n      swap1\n      sstore\n      pop\n      0x01\n      add\n      jump(tag_414)\n    tag_415:\n      pop\n      swap1\n      jump\t// out\n        /* \"#utility.yul\":7:82   */\n    tag_416:\n        /* \"#utility.yul\":40:46   */\n      0x00\n        /* \"#utility.yul\":73:75   */\n      0x40\n        /* \"#utility.yul\":67:76   */\n      mload\n        /* \"#utility.yul\":57:76   */\n      swap1\n      pop\n        /* \"#utility.yul\":7:82   */\n      swap1\n      jump\t// out\n        /* \"#utility.yul\":88:205   */\n    tag_417:\n        /* \"#utility.yul\":197:198   */\n      0x00\n        /* \"#utility.yul\":194:195   */\n      dup1\n        /* \"#utility.yul\":187:199   */\n      revert\n        /* \"#utility.yul\":211:328   */\n    tag_418:\n        /* \"#utility.yul\":320:321   */\n      0x00\n        /* \"#utility.yul\":317:318   */\n      dup1\n        /* \"#utility.yul\":310:322   */\n      revert\n        /* \"#utility.yul\":334:460   */\n    tag_419:\n        /* \"#utility.yul\":371:378   */\n      0x00\n        /* \"#utility.yul\":411:453   */\n      0xffffffffffffffffffffffffffffffffffffffff\n        /* \"#utility.yul\":404:409   */\n      dup3\n        /* \"#utility.yul\":400:454   */\n      and\n        /* \"#utility.yul\":389:454   */\n      swap1\n      pop\n        /* \"#utility.yul\":334:460   */\n      swap2\n      swap1\n      pop\n      jump\t// out\n        /* \"#utility.yul\":466:562   */\n    tag_420:\n        /* \"#utility.yul\":503:510   */\n      0x00\n        /* \"#utility.yul\":532:556   */\n      tag_513\n        /* \"#utility.yul\":550:555   */\n      dup3\n        /* \"#utility.yul\":532:556   */\n      tag_419\n      jump\t// in\n    tag_513:\n        /* \"#utility.yul\":521:556   */\n      swap1\n      pop\n        /* \"#utility.yul\":466:562   */\n      swap2\n      swap1\n      pop\n      jump\t// out\n        /* \"#utility.yul\":568:684   */\n    tag_421:\n        /* \"#utility.yul\":625:632   */\n      0x00\n        /* \"#utility.yul\":654:678   */\n      tag_515\n        /* \"#utility.yul\":672:677   */\n      dup3\n        /* \"#utility.yul\":654:678   */\n      tag_420\n      jump\t// in\n    tag_515:\n        /* \"#utility.yul\":643:678   */\n      swap1\n      pop\n        /* \"#utility.yul\":568:684   */\n      swap2\n      swap1\n      pop\n      jump\t// out\n        /* \"#utility.yul\":690:852   */\n    tag_422:\n        /* \"#utility.yul\":783:827   */\n      tag_517\n        /* \"#utility.yul\":821:826   */\n      dup2\n        /* \"#utility.yul\":783:827   */\n      tag_421\n      jump\t// in\n    tag_517:\n        /* \"#utility.yul\":776:781   */\n      dup2\n        /* \"#utility.yul\":773:828   */\n      eq\n        /* \"#utility.yul\":763:846   */\n      tag_518\n      jumpi\n        /* \"#utility.yul\":842:843   */\n      0x00\n        /* \"#utility.yul\":839:840   */\n      dup1\n        /* \"#utility.yul\":832:844   */\n      revert\n        /* \"#utility.yul\":763:846   */\n    tag_518:\n        /* \"#utility.yul\":690:852   */\n      pop\n      jump\t// out\n        /* \"#utility.yul\":858:1037   */\n    tag_423:\n        /* \"#utility.yul\":924:929   */\n      0x00\n        /* \"#utility.yul\":962:968   */\n      dup2\n        /* \"#utility.yul\":949:969   */\n      calldataload\n        /* \"#utility.yul\":940:969   */\n      swap1\n      pop\n        /* \"#utility.yul\":978:1031   */\n      tag_520\n        /* \"#utility.yul\":1025:1030   */\n      dup2\n        /* \"#utility.yul\":978:1031   */\n      tag_422\n      jump\t// in\n    tag_520:\n        /* \"#utility.yul\":858:1037   */\n      swap3\n      swap2\n      pop\n      pop\n      jump\t// out\n        /* \"#utility.yul\":1043:1160   */\n    tag_424:\n        /* \"#utility.yul\":1152:1153   */\n      0x00\n        /* \"#utility.yul\":1149:1150   */\n      dup1\n        /* \"#utility.yul\":1142:1154   */\n      revert\n        /* \"#utility.yul\":1166:1283   */\n    tag_425:\n        /* \"#utility.yul\":1275:1276   */\n      0x00\n        /* \"#utility.yul\":1272:1273   */\n      dup1\n        /* \"#utility.yul\":1265:1277   */\n      revert\n        /* \"#utility.yul\":1289:1406   */\n    tag_426:\n        /* \"#utility.yul\":1398:1399   */\n      0x00\n        /* \"#utility.yul\":1395:1396   */\n      dup1\n        /* \"#utility.yul\":1388:1400   */\n      revert\n        /* \"#utility.yul\":1429:1997   */\n    tag_427:\n        /* \"#utility.yul\":1502:1510   */\n      0x00\n        /* \"#utility.yul\":1512:1518   */\n      dup1\n        /* \"#utility.yul\":1562:1565   */\n      dup4\n        /* \"#utility.yul\":1555:1559   */\n      0x1f\n        /* \"#utility.yul\":1547:1553   */\n      dup5\n        /* \"#utility.yul\":1543:1560   */\n      add\n        /* \"#utility.yul\":1539:1566   */\n      slt\n        /* \"#utility.yul\":1529:1651   */\n      tag_525\n      jumpi\n        /* \"#utility.yul\":1570:1649   */\n      tag_526\n      tag_424\n      jump\t// in\n    tag_526:\n        /* \"#utility.yul\":1529:1651   */\n    tag_525:\n        /* \"#utility.yul\":1683:1689   */\n      dup3\n        /* \"#utility.yul\":1670:1690   */\n      calldataload\n        /* \"#utility.yul\":1660:1690   */\n      swap1\n      pop\n        /* \"#utility.yul\":1713:1731   */\n      0xffffffffffffffff\n        /* \"#utility.yul\":1705:1711   */\n      dup2\n        /* \"#utility.yul\":1702:1732   */\n      gt\n        /* \"#utility.yul\":1699:1816   */\n      iszero\n      tag_527\n      jumpi\n        /* \"#utility.yul\":1735:1814   */\n      tag_528\n      tag_425\n      jump\t// in\n    tag_528:\n        /* \"#utility.yul\":1699:1816   */\n    tag_527:\n        /* \"#utility.yul\":1849:1853   */\n      0x20\n        /* \"#utility.yul\":1841:1847   */\n      dup4\n        /* \"#utility.yul\":1837:1854   */\n      add\n        /* \"#utility.yul\":1825:1854   */\n      swap2\n      pop\n        /* \"#utility.yul\":1903:1906   */\n      dup4\n        /* \"#utility.yul\":1895:1899   */\n      0x20\n        /* \"#utility.yul\":1887:1893   */\n      dup3\n        /* \"#utility.yul\":1883:1900   */\n      mul\n        /* \"#utility.yul\":1873:1881   */\n      dup4\n        /* \"#utility.yul\":1869:1901   */\n      add\n        /* \"#utility.yul\":1866:1907   */\n      gt\n        /* \"#utility.yul\":1863:1991   */\n      iszero\n      tag_529\n      jumpi\n        /* \"#utility.yul\":1910:1989   */\n      tag_530\n      tag_426\n      jump\t// in\n    tag_530:\n        /* \"#utility.yul\":1863:1991   */\n    tag_529:\n        /* \"#utility.yul\":1429:1997   */\n      swap3\n      pop\n      swap3\n      swap1\n      pop\n      jump\t// out\n        /* \"#utility.yul\":2003:2747   */\n    tag_27:\n        /* \"#utility.yul\":2118:2124   */\n      0x00\n        /* \"#utility.yul\":2126:2132   */\n      dup1\n        /* \"#utility.yul\":2134:2140   */\n      0x00\n        /* \"#utility.yul\":2183:2185   */\n      0x40\n        /* \"#utility.yul\":2171:2180   */\n      dup5\n        /* \"#utility.yul\":2162:2169   */\n      dup7\n        /* \"#utility.yul\":2158:2181   */\n      sub\n        /* \"#utility.yul\":2154:2186   */\n      slt\n        /* \"#utility.yul\":2151:2270   */\n      iszero\n      tag_532\n      jumpi\n        /* \"#utility.yul\":2189:2268   */\n      tag_533\n      tag_417\n      jump\t// in\n    tag_533:\n        /* \"#utility.yul\":2151:2270   */\n    tag_532:\n        /* \"#utility.yul\":2309:2310   */\n      0x00\n        /* \"#utility.yul\":2334:2407   */\n      tag_534\n        /* \"#utility.yul\":2399:2406   */\n      dup7\n        /* \"#utility.yul\":2390:2396   */\n      dup3\n        /* \"#utility.yul\":2379:2388   */\n      dup8\n        /* \"#utility.yul\":2375:2397   */\n      add\n        /* \"#utility.yul\":2334:2407   */\n      tag_423\n      jump\t// in\n    tag_534:\n        /* \"#utility.yul\":2324:2407   */\n      swap4\n      pop\n        /* \"#utility.yul\":2280:2417   */\n      pop\n        /* \"#utility.yul\":2484:2486   */\n      0x20\n        /* \"#utility.yul\":2473:2482   */\n      dup5\n        /* \"#utility.yul\":2469:2487   */\n      add\n        /* \"#utility.yul\":2456:2488   */\n      calldataload\n        /* \"#utility.yul\":2515:2533   */\n      0xffffffffffffffff\n        /* \"#utility.yul\":2507:2513   */\n      dup2\n        /* \"#utility.yul\":2504:2534   */\n      gt\n        /* \"#utility.yul\":2501:2618   */\n      iszero\n      tag_535\n      jumpi\n        /* \"#utility.yul\":2537:2616   */\n      tag_536\n      tag_418\n      jump\t// in\n    tag_536:\n        /* \"#utility.yul\":2501:2618   */\n    tag_535:\n        /* \"#utility.yul\":2650:2730   */\n      tag_537\n        /* \"#utility.yul\":2722:2729   */\n      dup7\n        /* \"#utility.yul\":2713:2719   */\n      dup3\n        /* \"#utility.yul\":2702:2711   */\n      dup8\n        /* \"#utility.yul\":2698:2720   */\n      add\n        /* \"#utility.yul\":2650:2730   */\n      tag_427\n      jump\t// in\n    tag_537:\n        /* \"#utility.yul\":2632:2730   */\n      swap3\n      pop\n      swap3\n      pop\n        /* \"#utility.yul\":2427:2740   */\n      pop\n        /* \"#utility.yul\":2003:2747   */\n      swap3\n      pop\n      swap3\n      pop\n      swap3\n      jump\t// out\n        /* \"#utility.yul\":2753:2830   */\n    tag_428:\n        /* \"#utility.yul\":2790:2797   */\n      0x00\n        /* \"#utility.yul\":2819:2824   */\n      dup2\n        /* \"#utility.yul\":2808:2824   */\n      swap1\n      pop\n        /* \"#utility.yul\":2753:2830   */\n      swap2\n      swap1\n      pop\n      jump\t// out\n        /* \"#utility.yul\":2836:2958   */\n    tag_429:\n        /* \"#utility.yul\":2909:2933   */\n      tag_540\n        /* \"#utility.yul\":2927:2932   */\n      dup2\n        /* \"#utility.yul\":2909:2933   */\n      tag_428\n      jump\t// in\n    tag_540:\n        /* \"#utility.yul\":2902:2907   */\n      dup2\n        /* \"#utility.yul\":2899:2934   */\n      eq\n        /* \"#utility.yul\":2889:2952   */\n      tag_541\n      jumpi\n        /* \"#utility.yul\":2948:2949   */\n      0x00\n        /* \"#utility.yul\":2945:2946   */\n      dup1\n        /* \"#utility.yul\":2938:2950   */\n      revert\n        /* \"#utility.yul\":2889:2952   */\n    tag_541:\n        /* \"#utility.yul\":2836:2958   */\n      pop\n      jump\t// out\n        /* \"#utility.yul\":2964:3103   */\n    tag_430:\n        /* \"#utility.yul\":3010:3015   */\n      0x00\n        /* \"#utility.yul\":3048:3054   */\n      dup2\n        /* \"#utility.yul\":3035:3055   */\n      calldataload\n        /* \"#utility.yul\":3026:3055   */\n      swap1\n      pop\n        /* \"#utility.yul\":3064:3097   */\n      tag_543\n        /* \"#utility.yul\":3091:3096   */\n      dup2\n        /* \"#utility.yul\":3064:3097   */\n      tag_429\n      jump\t// in\n    tag_543:\n        /* \"#utility.yul\":2964:3103   */\n      swap3\n      swap2\n      pop\n      pop\n      jump\t// out\n        /* \"#utility.yul\":3109:3438   */\n    tag_31:\n        /* \"#utility.yul\":3168:3174   */\n      0x00\n        /* \"#utility.yul\":3217:3219   */\n      0x20\n        /* \"#utility.yul\":3205:3214   */\n      dup3\n        /* \"#utility.yul\":3196:3203   */\n      dup5\n        /* \"#utility.yul\":3192:3215   */\n      sub\n        /* \"#utility.yul\":3188:3220   */\n      slt\n        /* \"#utility.yul\":3185:3304   */\n      iszero\n      tag_545\n      jumpi\n        /* \"#utility.yul\":3223:3302   */\n      tag_546\n      tag_417\n      jump\t// in\n    tag_546:\n        /* \"#utility.yul\":3185:3304   */\n    tag_545:\n        /* \"#utility.yul\":3343:3344   */\n      0x00\n        /* \"#utility.yul\":3368:3421   */\n      tag_547\n        /* \"#utility.yul\":3413:3420   */\n      dup5\n        /* \"#utility.yul\":3404:3410   */\n      dup3\n        /* \"#utility.yul\":3393:3402   */\n      dup6\n        /* \"#utility.yul\":3389:3411   */\n      add\n        /* \"#utility.yul\":3368:3421   */\n      tag_430\n      jump\t// in\n    tag_547:\n        /* \"#utility.yul\":3358:3421   */\n      swap2\n      pop\n        /* \"#utility.yul\":3314:3431   */\n      pop\n        /* \"#utility.yul\":3109:3438   */\n      swap3\n      swap2\n      pop\n      pop\n      jump\t// out\n        /* \"#utility.yul\":3444:3566   */\n    tag_431:\n        /* \"#utility.yul\":3517:3541   */\n      tag_549\n        /* \"#utility.yul\":3535:3540   */\n      dup2\n        /* \"#utility.yul\":3517:3541   */\n      tag_420\n      jump\t// in\n    tag_549:\n        /* \"#utility.yul\":3510:3515   */\n      dup2\n        /* \"#utility.yul\":3507:3542   */\n      eq\n        /* \"#utility.yul\":3497:3560   */\n      tag_550\n      jumpi\n        /* \"#utility.yul\":3556:3557   */\n      0x00\n        /* \"#utility.yul\":3553:3554   */\n      dup1\n        /* \"#utility.yul\":3546:3558   */\n      revert\n        /* \"#utility.yul\":3497:3560   */\n    tag_550:\n        /* \"#utility.yul\":3444:3566   */\n      pop\n      jump\t// out\n        /* \"#utility.yul\":3572:3711   */\n    tag_432:\n        /* \"#utility.yul\":3618:3623   */\n      0x00\n        /* \"#utility.yul\":3656:3662   */\n      dup2\n        /* \"#utility.yul\":3643:3663   */\n      calldataload\n        /* \"#utility.yul\":3634:3663   */\n      swap1\n      pop\n        /* \"#utility.yul\":3672:3705   */\n      tag_552\n        /* \"#utility.yul\":3699:3704   */\n      dup2\n        /* \"#utility.yul\":3672:3705   */\n      tag_431\n      jump\t// in\n    tag_552:\n        /* \"#utility.yul\":3572:3711   */\n      swap3\n      swap2\n      pop\n      pop\n      jump\t// out\n        /* \"#utility.yul\":3717:4191   */\n    tag_35:\n        /* \"#utility.yul\":3785:3791   */\n      0x00\n        /* \"#utility.yul\":3793:3799   */\n      dup1\n        /* \"#utility.yul\":3842:3844   */\n      0x40\n        /* \"#utility.yul\":3830:3839   */\n      dup4\n        /* \"#utility.yul\":3821:3828   */\n      dup6\n        /* \"#utility.yul\":3817:3840   */\n      sub\n        /* \"#utility.yul\":3813:3845   */\n      slt\n        /* \"#utility.yul\":3810:3929   */\n      iszero\n      tag_554\n      jumpi\n        /* \"#utility.yul\":3848:3927   */\n      tag_555\n      tag_417\n      jump\t// in\n    tag_555:\n        /* \"#utility.yul\":3810:3929   */\n    tag_554:\n        /* \"#utility.yul\":3968:3969   */\n      0x00\n        /* \"#utility.yul\":3993:4046   */\n      tag_556\n        /* \"#utility.yul\":4038:4045   */\n      dup6\n        /* \"#utility.yul\":4029:4035   */\n      dup3\n        /* \"#utility.yul\":4018:4027   */\n      dup7\n        /* \"#utility.yul\":4014:4036   */\n      add\n        /* \"#utility.yul\":3993:4046   */\n      tag_432\n      jump\t// in\n    tag_556:\n        /* \"#utility.yul\":3983:4046   */\n      swap3\n      pop\n        /* \"#utility.yul\":3939:4056   */\n      pop\n        /* \"#utility.yul\":4095:4097   */\n      0x20\n        /* \"#utility.yul\":4121:4174   */\n      tag_557\n        /* \"#utility.yul\":4166:4173   */\n      dup6\n        /* \"#utility.yul\":4157:4163   */\n      dup3\n        /* \"#utility.yul\":4146:4155   */\n      dup7\n        /* \"#utility.yul\":4142:4164   */\n      add\n        /* \"#utility.yul\":4121:4174   */\n      tag_430\n      jump\t// in\n    tag_557:\n        /* \"#utility.yul\":4111:4174   */\n      swap2\n      pop\n        /* \"#utility.yul\":4066:4184   */\n      pop\n        /* \"#utility.yul\":3717:4191   */\n      swap3\n      pop\n      swap3\n      swap1\n      pop\n      jump\t// out\n        /* \"#utility.yul\":4197:4287   */\n    tag_433:\n        /* \"#utility.yul\":4231:4238   */\n      0x00\n        /* \"#utility.yul\":4274:4279   */\n      dup2\n        /* \"#utility.yul\":4267:4280   */\n      iszero\n        /* \"#utility.yul\":4260:4281   */\n      iszero\n        /* \"#utility.yul\":4249:4281   */\n      swap1\n      pop\n        /* \"#utility.yul\":4197:4287   */\n      swap2\n      swap1\n      pop\n      jump\t// out\n        /* \"#utility.yul\":4293:4402   */\n    tag_434:\n        /* \"#utility.yul\":4374:4395   */\n      tag_560\n        /* \"#utility.yul\":4389:4394   */\n      dup2\n        /* \"#utility.yul\":4374:4395   */\n      tag_433\n      jump\t// in\n    tag_560:\n        /* \"#utility.yul\":4369:4372   */\n      dup3\n        /* \"#utility.yul\":4362:4396   */\n      mstore\n        /* \"#utility.yul\":4293:4402   */\n      pop\n      pop\n      jump\t// out\n        /* \"#utility.yul\":4408:4618   */\n    tag_38:\n        /* \"#utility.yul\":4495:4499   */\n      0x00\n        /* \"#utility.yul\":4533:4535   */\n      0x20\n        /* \"#utility.yul\":4522:4531   */\n      dup3\n        /* \"#utility.yul\":4518:4536   */\n      add\n        /* \"#utility.yul\":4510:4536   */\n      swap1\n      pop\n        /* \"#utility.yul\":4546:4611   */\n      tag_562\n        /* \"#utility.yul\":4608:4609   */\n      0x00\n        /* \"#utility.yul\":4597:4606   */\n      dup4\n        /* \"#utility.yul\":4593:4610   */\n      add\n        /* \"#utility.yul\":4584:4590   */\n      dup5\n        /* \"#utility.yul\":4546:4611   */\n      tag_434\n      jump\t// in\n    tag_562:\n        /* \"#utility.yul\":4408:4618   */\n      swap3\n      swap2\n      pop\n      pop\n      jump\t// out\n        /* \"#utility.yul\":4624:4758   */\n    tag_435:\n        /* \"#utility.yul\":4711:4717   */\n      0x00\n        /* \"#utility.yul\":4745:4750   */\n      dup2\n        /* \"#utility.yul\":4739:4751   */\n      mload\n        /* \"#utility.yul\":4729:4751   */\n      swap1\n      pop\n        /* \"#utility.yul\":4624:4758   */\n      swap2\n      swap1\n      pop\n      jump\t// out\n        /* \"#utility.yul\":4764:4948   */\n    tag_436:\n        /* \"#utility.yul\":4863:4874   */\n      0x00\n        /* \"#utility.yul\":4897:4903   */\n      dup3\n        /* \"#utility.yul\":4892:4895   */\n      dup3\n        /* \"#utility.yul\":4885:4904   */\n      mstore\n        /* \"#utility.yul\":4937:4941   */\n      0x20\n        /* \"#utility.yul\":4932:4935   */\n      dup3\n        /* \"#utility.yul\":4928:4942   */\n      add\n        /* \"#utility.yul\":4913:4942   */\n      swap1\n      pop\n        /* \"#utility.yul\":4764:4948   */\n      swap3\n      swap2\n      pop\n      pop\n      jump\t// out\n        /* \"#utility.yul\":4954:5106   */\n    tag_437:\n        /* \"#utility.yul\":5041:5045   */\n      0x00\n        /* \"#utility.yul\":5064:5067   */\n      dup2\n        /* \"#utility.yul\":5056:5067   */\n      swap1\n      pop\n        /* \"#utility.yul\":5094:5098   */\n      0x20\n        /* \"#utility.yul\":5089:5092   */\n      dup3\n        /* \"#utility.yul\":5085:5099   */\n      add\n        /* \"#utility.yul\":5077:5099   */\n      swap1\n      pop\n        /* \"#utility.yul\":4954:5106   */\n      swap2\n      swap1\n      pop\n      jump\t// out\n        /* \"#utility.yul\":5112:5172   */\n    tag_438:\n        /* \"#utility.yul\":5140:5143   */\n      0x00\n        /* \"#utility.yul\":5161:5166   */\n      dup2\n        /* \"#utility.yul\":5154:5166   */\n      swap1\n      pop\n        /* \"#utility.yul\":5112:5172   */\n      swap2\n      swap1\n      pop\n      jump\t// out\n        /* \"#utility.yul\":5178:5320   */\n    tag_439:\n        /* \"#utility.yul\":5228:5237   */\n      0x00\n        /* \"#utility.yul\":5261:5314   */\n      tag_568\n        /* \"#utility.yul\":5279:5313   */\n      tag_569\n        /* \"#utility.yul\":5288:5312   */\n      tag_570\n        /* \"#utility.yul\":5306:5311   */\n      dup5\n        /* \"#utility.yul\":5288:5312   */\n      tag_419\n      jump\t// in\n    tag_570:\n        /* \"#utility.yul\":5279:5313   */\n      tag_438\n      jump\t// in\n    tag_569:\n        /* \"#utility.yul\":5261:5314   */\n      tag_419\n      jump\t// in\n    tag_568:\n        /* \"#utility.yul\":5248:5314   */\n      swap1\n      pop\n        /* \"#utility.yul\":5178:5320   */\n      swap2\n      swap1\n      pop\n      jump\t// out\n        /* \"#utility.yul\":5326:5452   */\n    tag_440:\n        /* \"#utility.yul\":5376:5385   */\n      0x00\n        /* \"#utility.yul\":5409:5446   */\n      tag_572\n        /* \"#utility.yul\":5440:5445   */\n      dup3\n        /* \"#utility.yul\":5409:5446   */\n      tag_439\n      jump\t// in\n    tag_572:\n        /* \"#utility.yul\":5396:5446   */\n      swap1\n      pop\n        /* \"#utility.yul\":5326:5452   */\n      swap2\n      swap1\n      pop\n      jump\t// out\n        /* \"#utility.yul\":5458:5604   */\n    tag_441:\n        /* \"#utility.yul\":5528:5537   */\n      0x00\n        /* \"#utility.yul\":5561:5598   */\n      tag_574\n        /* \"#utility.yul\":5592:5597   */\n      dup3\n        /* \"#utility.yul\":5561:5598   */\n      tag_440\n      jump\t// in\n    tag_574:\n        /* \"#utility.yul\":5548:5598   */\n      swap1\n      pop\n        /* \"#utility.yul\":5458:5604   */\n      swap2\n      swap1\n      pop\n      jump\t// out\n        /* \"#utility.yul\":5610:5771   */\n    tag_442:\n        /* \"#utility.yul\":5707:5764   */\n      tag_576\n        /* \"#utility.yul\":5758:5763   */\n      dup2\n        /* \"#utility.yul\":5707:5764   */\n      tag_441\n      jump\t// in\n    tag_576:\n        /* \"#utility.yul\":5702:5705   */\n      dup3\n        /* \"#utility.yul\":5695:5765   */\n      mstore\n        /* \"#utility.yul\":5610:5771   */\n      pop\n      pop\n      jump\t// out\n        /* \"#utility.yul\":5777:5996   */\n    tag_443:\n        /* \"#utility.yul\":5866:5876   */\n      0x00\n        /* \"#utility.yul\":5887:5953   */\n      tag_578\n        /* \"#utility.yul\":5949:5952   */\n      dup4\n        /* \"#utility.yul\":5941:5947   */\n      dup4\n        /* \"#utility.yul\":5887:5953   */\n      tag_442\n      jump\t// in\n    tag_578:\n        /* \"#utility.yul\":5985:5989   */\n      0x20\n        /* \"#utility.yul\":5980:5983   */\n      dup4\n        /* \"#utility.yul\":5976:5990   */\n      add\n        /* \"#utility.yul\":5962:5990   */\n      swap1\n      pop\n        /* \"#utility.yul\":5777:5996   */\n      swap3\n      swap2\n      pop\n      pop\n      jump\t// out\n        /* \"#utility.yul\":6002:6135   */\n    tag_444:\n        /* \"#utility.yul\":6092:6096   */\n      0x00\n        /* \"#utility.yul\":6124:6128   */\n      0x20\n        /* \"#utility.yul\":6119:6122   */\n      dup3\n        /* \"#utility.yul\":6115:6129   */\n      add\n        /* \"#utility.yul\":6107:6129   */\n      swap1\n      pop\n        /* \"#utility.yul\":6002:6135   */\n      swap2\n      swap1\n      pop\n      jump\t// out\n        /* \"#utility.yul\":6185:7017   */\n    tag_445:\n        /* \"#utility.yul\":6324:6327   */\n      0x00\n        /* \"#utility.yul\":6353:6427   */\n      tag_581\n        /* \"#utility.yul\":6421:6426   */\n      dup3\n        /* \"#utility.yul\":6353:6427   */\n      tag_435\n      jump\t// in\n    tag_581:\n        /* \"#utility.yul\":6443:6529   */\n      tag_582\n        /* \"#utility.yul\":6522:6528   */\n      dup2\n        /* \"#utility.yul\":6517:6520   */\n      dup6\n        /* \"#utility.yul\":6443:6529   */\n      tag_436\n      jump\t// in\n    tag_582:\n        /* \"#utility.yul\":6436:6529   */\n      swap4\n      pop\n        /* \"#utility.yul\":6553:6629   */\n      tag_583\n        /* \"#utility.yul\":6623:6628   */\n      dup4\n        /* \"#utility.yul\":6553:6629   */\n      tag_437\n      jump\t// in\n    tag_583:\n        /* \"#utility.yul\":6652:6659   */\n      dup1\n        /* \"#utility.yul\":6683:6684   */\n      0x00\n        /* \"#utility.yul\":6668:6992   */\n    tag_584:\n        /* \"#utility.yul\":6693:6699   */\n      dup4\n        /* \"#utility.yul\":6690:6691   */\n      dup2\n        /* \"#utility.yul\":6687:6700   */\n      lt\n        /* \"#utility.yul\":6668:6992   */\n      iszero\n      tag_586\n      jumpi\n        /* \"#utility.yul\":6769:6775   */\n      dup2\n        /* \"#utility.yul\":6763:6776   */\n      mload\n        /* \"#utility.yul\":6796:6879   */\n      tag_587\n        /* \"#utility.yul\":6875:6878   */\n      dup9\n        /* \"#utility.yul\":6860:6873   */\n      dup3\n        /* \"#utility.yul\":6796:6879   */\n      tag_443\n      jump\t// in\n    tag_587:\n        /* \"#utility.yul\":6789:6879   */\n      swap8\n      pop\n        /* \"#utility.yul\":6902:6982   */\n      tag_588\n        /* \"#utility.yul\":6975:6981   */\n      dup4\n        /* \"#utility.yul\":6902:6982   */\n      tag_444\n      jump\t// in\n    tag_588:\n        /* \"#utility.yul\":6892:6982   */\n      swap3\n      pop\n        /* \"#utility.yul\":6728:6992   */\n      pop\n        /* \"#utility.yul\":6715:6716   */\n      0x01\n        /* \"#utility.yul\":6712:6713   */\n      dup2\n        /* \"#utility.yul\":6708:6717   */\n      add\n        /* \"#utility.yul\":6703:6717   */\n      swap1\n      pop\n        /* \"#utility.yul\":6668:6992   */\n      jump(tag_584)\n    tag_586:\n        /* \"#utility.yul\":6672:6686   */\n      pop\n        /* \"#utility.yul\":7008:7011   */\n      dup6\n        /* \"#utility.yul\":7001:7011   */\n      swap4\n      pop\n        /* \"#utility.yul\":6329:7017   */\n      pop\n      pop\n      pop\n        /* \"#utility.yul\":6185:7017   */\n      swap3\n      swap2\n      pop\n      pop\n      jump\t// out\n        /* \"#utility.yul\":7023:7436   */\n    tag_43:\n        /* \"#utility.yul\":7186:7190   */\n      0x00\n        /* \"#utility.yul\":7224:7226   */\n      0x20\n        /* \"#utility.yul\":7213:7222   */\n      dup3\n        /* \"#utility.yul\":7209:7227   */\n      add\n        /* \"#utility.yul\":7201:7227   */\n      swap1\n      pop\n        /* \"#utility.yul\":7273:7282   */\n      dup2\n        /* \"#utility.yul\":7267:7271   */\n      dup2\n        /* \"#utility.yul\":7263:7283   */\n      sub\n        /* \"#utility.yul\":7259:7260   */\n      0x00\n        /* \"#utility.yul\":7248:7257   */\n      dup4\n        /* \"#utility.yul\":7244:7261   */\n      add\n        /* \"#utility.yul\":7237:7284   */\n      mstore\n        /* \"#utility.yul\":7301:7429   */\n      tag_590\n        /* \"#utility.yul\":7424:7428   */\n      dup2\n        /* \"#utility.yul\":7415:7421   */\n      dup5\n        /* \"#utility.yul\":7301:7429   */\n      tag_445\n      jump\t// in\n    tag_590:\n        /* \"#utility.yul\":7293:7429   */\n      swap1\n      pop\n        /* \"#utility.yul\":7023:7436   */\n      swap3\n      swap2\n      pop\n      pop\n      jump\t// out\n        /* \"#utility.yul\":7442:7771   */\n    tag_46:\n        /* \"#utility.yul\":7501:7507   */\n      0x00\n        /* \"#utility.yul\":7550:7552   */\n      0x20\n        /* \"#utility.yul\":7538:7547   */\n      dup3\n        /* \"#utility.yul\":7529:7536   */\n      dup5\n        /* \"#utility.yul\":7525:7548   */\n      sub\n        /* \"#utility.yul\":7521:7553   */\n      slt\n        /* \"#utility.yul\":7518:7637   */\n      iszero\n      tag_592\n      jumpi\n        /* \"#utility.yul\":7556:7635   */\n      tag_593\n      tag_417\n      jump\t// in\n    tag_593:\n        /* \"#utility.yul\":7518:7637   */\n    tag_592:\n        /* \"#utility.yul\":7676:7677   */\n      0x00\n        /* \"#utility.yul\":7701:7754   */\n      tag_594\n        /* \"#utility.yul\":7746:7753   */\n      dup5\n        /* \"#utility.yul\":7737:7743   */\n      dup3\n        /* \"#utility.yul\":7726:7735   */\n      dup6\n        /* \"#utility.yul\":7722:7744   */\n      add\n        /* \"#utility.yul\":7701:7754   */\n      tag_432\n      jump\t// in\n    tag_594:\n        /* \"#utility.yul\":7691:7754   */\n      swap2\n      pop\n        /* \"#utility.yul\":7647:7764   */\n      pop\n        /* \"#utility.yul\":7442:7771   */\n      swap3\n      swap2\n      pop\n      pop\n      jump\t// out\n        /* \"#utility.yul\":7777:7895   */\n    tag_446:\n        /* \"#utility.yul\":7864:7888   */\n      tag_596\n        /* \"#utility.yul\":7882:7887   */\n      dup2\n        /* \"#utility.yul\":7864:7888   */\n      tag_420\n      jump\t// in\n    tag_596:\n        /* \"#utility.yul\":7859:7862   */\n      dup3\n        /* \"#utility.yul\":7852:7889   */\n      mstore\n        /* \"#utility.yul\":7777:7895   */\n      pop\n      pop\n      jump\t// out\n        /* \"#utility.yul\":7901:8123   */\n    tag_54:\n        /* \"#utility.yul\":7994:7998   */\n      0x00\n        /* \"#utility.yul\":8032:8034   */\n      0x20\n        /* \"#utility.yul\":8021:8030   */\n      dup3\n        /* \"#utility.yul\":8017:8035   */\n      add\n        /* \"#utility.yul\":8009:8035   */\n      swap1\n      pop\n        /* \"#utility.yul\":8045:8116   */\n      tag_598\n        /* \"#utility.yul\":8113:8114   */\n      0x00\n        /* \"#utility.yul\":8102:8111   */\n      dup4\n        /* \"#utility.yul\":8098:8115   */\n      add\n        /* \"#utility.yul\":8089:8095   */\n      dup5\n        /* \"#utility.yul\":8045:8116   */\n      tag_446\n      jump\t// in\n    tag_598:\n        /* \"#utility.yul\":7901:8123   */\n      swap3\n      swap2\n      pop\n      pop\n      jump\t// out\n        /* \"#utility.yul\":8129:8603   */\n    tag_57:\n        /* \"#utility.yul\":8197:8203   */\n      0x00\n        /* \"#utility.yul\":8205:8211   */\n      dup1\n        /* \"#utility.yul\":8254:8256   */\n      0x40\n        /* \"#utility.yul\":8242:8251   */\n      dup4\n        /* \"#utility.yul\":8233:8240   */\n      dup6\n        /* \"#utility.yul\":8229:8252   */\n      sub\n        /* \"#utility.yul\":8225:8257   */\n      slt\n        /* \"#utility.yul\":8222:8341   */\n      iszero\n      tag_600\n      jumpi\n        /* \"#utility.yul\":8260:8339   */\n      tag_601\n      tag_417\n      jump\t// in\n    tag_601:\n        /* \"#utility.yul\":8222:8341   */\n    tag_600:\n        /* \"#utility.yul\":8380:8381   */\n      0x00\n        /* \"#utility.yul\":8405:8458   */\n      tag_602\n        /* \"#utility.yul\":8450:8457   */\n      dup6\n        /* \"#utility.yul\":8441:8447   */\n      dup3\n        /* \"#utility.yul\":8430:8439   */\n      dup7\n        /* \"#utility.yul\":8426:8448   */\n      add\n        /* \"#utility.yul\":8405:8458   */\n      tag_430\n      jump\t// in\n    tag_602:\n        /* \"#utility.yul\":8395:8458   */\n      swap3\n      pop\n        /* \"#utility.yul\":8351:8468   */\n      pop\n        /* \"#utility.yul\":8507:8509   */\n      0x20\n        /* \"#utility.yul\":8533:8586   */\n      tag_603\n        /* \"#utility.yul\":8578:8585   */\n      dup6\n        /* \"#utility.yul\":8569:8575   */\n      dup3\n        /* \"#utility.yul\":8558:8567   */\n      dup7\n        /* \"#utility.yul\":8554:8576   */\n      add\n        /* \"#utility.yul\":8533:8586   */\n      tag_430\n      jump\t// in\n    tag_603:\n        /* \"#utility.yul\":8523:8586   */\n      swap2\n      pop\n        /* \"#utility.yul\":8478:8596   */\n      pop\n        /* \"#utility.yul\":8129:8603   */\n      swap3\n      pop\n      swap3\n      swap1\n      pop\n      jump\t// out\n        /* \"#utility.yul\":8609:8780   */\n    tag_447:\n        /* \"#utility.yul\":8716:8773   */\n      tag_605\n        /* \"#utility.yul\":8767:8772   */\n      dup2\n        /* \"#utility.yul\":8716:8773   */\n      tag_441\n      jump\t// in\n    tag_605:\n        /* \"#utility.yul\":8711:8714   */\n      dup3\n        /* \"#utility.yul\":8704:8774   */\n      mstore\n        /* \"#utility.yul\":8609:8780   */\n      pop\n      pop\n      jump\t// out\n        /* \"#utility.yul\":8786:9048   */\n    tag_60:\n        /* \"#utility.yul\":8899:8903   */\n      0x00\n        /* \"#utility.yul\":8937:8939   */\n      0x20\n        /* \"#utility.yul\":8926:8935   */\n      dup3\n        /* \"#utility.yul\":8922:8940   */\n      add\n        /* \"#utility.yul\":8914:8940   */\n      swap1\n      pop\n        /* \"#utility.yul\":8950:9041   */\n      tag_607\n        /* \"#utility.yul\":9038:9039   */\n      0x00\n        /* \"#utility.yul\":9027:9036   */\n      dup4\n        /* \"#utility.yul\":9023:9040   */\n      add\n        /* \"#utility.yul\":9014:9020   */\n      dup5\n        /* \"#utility.yul\":8950:9041   */\n      tag_447\n      jump\t// in\n    tag_607:\n        /* \"#utility.yul\":8786:9048   */\n      swap3\n      swap2\n      pop\n      pop\n      jump\t// out\n        /* \"#utility.yul\":9054:9172   */\n    tag_448:\n        /* \"#utility.yul\":9141:9165   */\n      tag_609\n        /* \"#utility.yul\":9159:9164   */\n      dup2\n        /* \"#utility.yul\":9141:9165   */\n      tag_428\n      jump\t// in\n    tag_609:\n        /* \"#utility.yul\":9136:9139   */\n      dup3\n        /* \"#utility.yul\":9129:9166   */\n      mstore\n        /* \"#utility.yul\":9054:9172   */\n      pop\n      pop\n      jump\t// out\n        /* \"#utility.yul\":9178:9400   */\n    tag_68:\n        /* \"#utility.yul\":9271:9275   */\n      0x00\n        /* \"#utility.yul\":9309:9311   */\n      0x20\n        /* \"#utility.yul\":9298:9307   */\n      dup3\n        /* \"#utility.yul\":9294:9312   */\n      add\n        /* \"#utility.yul\":9286:9312   */\n      swap1\n      pop\n        /* \"#utility.yul\":9322:9393   */\n      tag_611\n        /* \"#utility.yul\":9390:9391   */\n      0x00\n        /* \"#utility.yul\":9379:9388   */\n      dup4\n        /* \"#utility.yul\":9375:9392   */\n      add\n        /* \"#utility.yul\":9366:9372   */\n      dup5\n        /* \"#utility.yul\":9322:9393   */\n      tag_448\n      jump\t// in\n    tag_611:\n        /* \"#utility.yul\":9178:9400   */\n      swap3\n      swap2\n      pop\n      pop\n      jump\t// out\n        /* \"#utility.yul\":9406:9775   */\n    tag_71:\n        /* \"#utility.yul\":9485:9491   */\n      0x00\n        /* \"#utility.yul\":9534:9536   */\n      0x20\n        /* \"#utility.yul\":9522:9531   */\n      dup3\n        /* \"#utility.yul\":9513:9520   */\n      dup5\n        /* \"#utility.yul\":9509:9532   */\n      sub\n        /* \"#utility.yul\":9505:9537   */\n      slt\n        /* \"#utility.yul\":9502:9621   */\n      iszero\n      tag_613\n      jumpi\n        /* \"#utility.yul\":9540:9619   */\n      tag_614\n      tag_417\n      jump\t// in\n    tag_614:\n        /* \"#utility.yul\":9502:9621   */\n    tag_613:\n        /* \"#utility.yul\":9660:9661   */\n      0x00\n        /* \"#utility.yul\":9685:9758   */\n      tag_615\n        /* \"#utility.yul\":9750:9757   */\n      dup5\n        /* \"#utility.yul\":9741:9747   */\n      dup3\n        /* \"#utility.yul\":9730:9739   */\n      dup6\n        /* \"#utility.yul\":9726:9748   */\n      add\n        /* \"#utility.yul\":9685:9758   */\n      tag_423\n      jump\t// in\n    tag_615:\n        /* \"#utility.yul\":9675:9758   */\n      swap2\n      pop\n        /* \"#utility.yul\":9631:9768   */\n      pop\n        /* \"#utility.yul\":9406:9775   */\n      swap3\n      swap2\n      pop\n      pop\n      jump\t// out\n        /* \"#utility.yul\":9781:9895   */\n    tag_449:\n        /* \"#utility.yul\":9848:9854   */\n      0x00\n        /* \"#utility.yul\":9882:9887   */\n      dup2\n        /* \"#utility.yul\":9876:9888   */\n      mload\n        /* \"#utility.yul\":9866:9888   */\n      swap1\n      pop\n        /* \"#utility.yul\":9781:9895   */\n      swap2\n      swap1\n      pop\n      jump\t// out\n        /* \"#utility.yul\":9901:10085   */\n    tag_450:\n        /* \"#utility.yul\":10000:10011   */\n      0x00\n        /* \"#utility.yul\":10034:10040   */\n      dup3\n        /* \"#utility.yul\":10029:10032   */\n      dup3\n        /* \"#utility.yul\":10022:10041   */\n      mstore\n        /* \"#utility.yul\":10074:10078   */\n      0x20\n        /* \"#utility.yul\":10069:10072   */\n      dup3\n        /* \"#utility.yul\":10065:10079   */\n      add\n        /* \"#utility.yul\":10050:10079   */\n      swap1\n      pop\n        /* \"#utility.yul\":9901:10085   */\n      swap3\n      swap2\n      pop\n      pop\n      jump\t// out\n        /* \"#utility.yul\":10091:10223   */\n    tag_451:\n        /* \"#utility.yul\":10158:10162   */\n      0x00\n        /* \"#utility.yul\":10181:10184   */\n      dup2\n        /* \"#utility.yul\":10173:10184   */\n      swap1\n      pop\n        /* \"#utility.yul\":10211:10215   */\n      0x20\n        /* \"#utility.yul\":10206:10209   */\n      dup3\n        /* \"#utility.yul\":10202:10216   */\n      add\n        /* \"#utility.yul\":10194:10216   */\n      swap1\n      pop\n        /* \"#utility.yul\":10091:10223   */\n      swap2\n      swap1\n      pop\n      jump\t// out\n        /* \"#utility.yul\":10229:10337   */\n    tag_452:\n        /* \"#utility.yul\":10306:10330   */\n      tag_620\n        /* \"#utility.yul\":10324:10329   */\n      dup2\n        /* \"#utility.yul\":10306:10330   */\n      tag_428\n      jump\t// in\n    tag_620:\n        /* \"#utility.yul\":10301:10304   */\n      dup3\n        /* \"#utility.yul\":10294:10331   */\n      mstore\n        /* \"#utility.yul\":10229:10337   */\n      pop\n      pop\n      jump\t// out\n        /* \"#utility.yul\":10343:10522   */\n    tag_453:\n        /* \"#utility.yul\":10412:10422   */\n      0x00\n        /* \"#utility.yul\":10433:10479   */\n      tag_622\n        /* \"#utility.yul\":10475:10478   */\n      dup4\n        /* \"#utility.yul\":10467:10473   */\n      dup4\n        /* \"#utility.yul\":10433:10479   */\n      tag_452\n      jump\t// in\n    tag_622:\n        /* \"#utility.yul\":10511:10515   */\n      0x20\n        /* \"#utility.yul\":10506:10509   */\n      dup4\n        /* \"#utility.yul\":10502:10516   */\n      add\n        /* \"#utility.yul\":10488:10516   */\n      swap1\n      pop\n        /* \"#utility.yul\":10343:10522   */\n      swap3\n      swap2\n      pop\n      pop\n      jump\t// out\n        /* \"#utility.yul\":10528:10641   */\n    tag_454:\n        /* \"#utility.yul\":10598:10602   */\n      0x00\n        /* \"#utility.yul\":10630:10634   */\n      0x20\n        /* \"#utility.yul\":10625:10628   */\n      dup3\n        /* \"#utility.yul\":10621:10635   */\n      add\n        /* \"#utility.yul\":10613:10635   */\n      swap1\n      pop\n        /* \"#utility.yul\":10528:10641   */\n      swap2\n      swap1\n      pop\n      jump\t// out\n        /* \"#utility.yul\":10677:11409   */\n    tag_455:\n        /* \"#utility.yul\":10796:10799   */\n      0x00\n        /* \"#utility.yul\":10825:10879   */\n      tag_625\n        /* \"#utility.yul\":10873:10878   */\n      dup3\n        /* \"#utility.yul\":10825:10879   */\n      tag_449\n      jump\t// in\n    tag_625:\n        /* \"#utility.yul\":10895:10981   */\n      tag_626\n        /* \"#utility.yul\":10974:10980   */\n      dup2\n        /* \"#utility.yul\":10969:10972   */\n      dup6\n        /* \"#utility.yul\":10895:10981   */\n      tag_450\n      jump\t// in\n    tag_626:\n        /* \"#utility.yul\":10888:10981   */\n      swap4\n      pop\n        /* \"#utility.yul\":11005:11061   */\n      tag_627\n        /* \"#utility.yul\":11055:11060   */\n      dup4\n        /* \"#utility.yul\":11005:11061   */\n      tag_451\n      jump\t// in\n    tag_627:\n        /* \"#utility.yul\":11084:11091   */\n      dup1\n        /* \"#utility.yul\":11115:11116   */\n      0x00\n        /* \"#utility.yul\":11100:11384   */\n    tag_628:\n        /* \"#utility.yul\":11125:11131   */\n      dup4\n        /* \"#utility.yul\":11122:11123   */\n      dup2\n        /* \"#utility.yul\":11119:11132   */\n      lt\n        /* \"#utility.yul\":11100:11384   */\n      iszero\n      tag_630\n      jumpi\n        /* \"#utility.yul\":11201:11207   */\n      dup2\n        /* \"#utility.yul\":11195:11208   */\n      mload\n        /* \"#utility.yul\":11228:11291   */\n      tag_631\n        /* \"#utility.yul\":11287:11290   */\n      dup9\n        /* \"#utility.yul\":11272:11285   */\n      dup3\n        /* \"#utility.yul\":11228:11291   */\n      tag_453\n      jump\t// in\n    tag_631:\n        /* \"#utility.yul\":11221:11291   */\n      swap8\n      pop\n        /* \"#utility.yul\":11314:11374   */\n      tag_632\n        /* \"#utility.yul\":11367:11373   */\n      dup4\n        /* \"#utility.yul\":11314:11374   */\n      tag_454\n      jump\t// in\n    tag_632:\n        /* \"#utility.yul\":11304:11374   */\n      swap3\n      pop\n        /* \"#utility.yul\":11160:11384   */\n      pop\n        /* \"#utility.yul\":11147:11148   */\n      0x01\n        /* \"#utility.yul\":11144:11145   */\n      dup2\n        /* \"#utility.yul\":11140:11149   */\n      add\n        /* \"#utility.yul\":11135:11149   */\n      swap1\n      pop\n        /* \"#utility.yul\":11100:11384   */\n      jump(tag_628)\n    tag_630:\n        /* \"#utility.yul\":11104:11118   */\n      pop\n        /* \"#utility.yul\":11400:11403   */\n      dup6\n        /* \"#utility.yul\":11393:11403   */\n      swap4\n      pop\n        /* \"#utility.yul\":10801:11409   */\n      pop\n      pop\n      pop\n        /* \"#utility.yul\":10677:11409   */\n      swap3\n      swap2\n      pop\n      pop\n      jump\t// out\n        /* \"#utility.yul\":11415:11788   */\n    tag_85:\n        /* \"#utility.yul\":11558:11562   */\n      0x00\n        /* \"#utility.yul\":11596:11598   */\n      0x20\n        /* \"#utility.yul\":11585:11594   */\n      dup3\n        /* \"#utility.yul\":11581:11599   */\n      add\n        /* \"#utility.yul\":11573:11599   */\n      swap1\n      pop\n        /* \"#utility.yul\":11645:11654   */\n      dup2\n        /* \"#utility.yul\":11639:11643   */\n      dup2\n        /* \"#utility.yul\":11635:11655   */\n      sub\n        /* \"#utility.yul\":11631:11632   */\n      0x00\n        /* \"#utility.yul\":11620:11629   */\n      dup4\n        /* \"#utility.yul\":11616:11633   */\n      add\n        /* \"#utility.yul\":11609:11656   */\n      mstore\n        /* \"#utility.yul\":11673:11781   */\n      tag_634\n        /* \"#utility.yul\":11776:11780   */\n      dup2\n        /* \"#utility.yul\":11767:11773   */\n      dup5\n        /* \"#utility.yul\":11673:11781   */\n      tag_455\n      jump\t// in\n    tag_634:\n        /* \"#utility.yul\":11665:11781   */\n      swap1\n      pop\n        /* \"#utility.yul\":11415:11788   */\n      swap3\n      swap2\n      pop\n      pop\n      jump\t// out\n        /* \"#utility.yul\":11794:11963   */\n    tag_456:\n        /* \"#utility.yul\":11878:11889   */\n      0x00\n        /* \"#utility.yul\":11912:11918   */\n      dup3\n        /* \"#utility.yul\":11907:11910   */\n      dup3\n        /* \"#utility.yul\":11900:11919   */\n      mstore\n        /* \"#utility.yul\":11952:11956   */\n      0x20\n        /* \"#utility.yul\":11947:11950   */\n      dup3\n        /* \"#utility.yul\":11943:11957   */\n      add\n        /* \"#utility.yul\":11928:11957   */\n      swap1\n      pop\n        /* \"#utility.yul\":11794:11963   */\n      swap3\n      swap2\n      pop\n      pop\n      jump\t// out\n        /* \"#utility.yul\":11969:12150   */\n    tag_457:\n        /* \"#utility.yul\":12109:12142   */\n      0x696e76616c696420617267756d656e74202d207a65726f206164647265737300\n        /* \"#utility.yul\":12105:12106   */\n      0x00\n        /* \"#utility.yul\":12097:12103   */\n      dup3\n        /* \"#utility.yul\":12093:12107   */\n      add\n        /* \"#utility.yul\":12086:12143   */\n      mstore\n        /* \"#utility.yul\":11969:12150   */\n      pop\n      jump\t// out\n        /* \"#utility.yul\":12156:12522   */\n    tag_458:\n        /* \"#utility.yul\":12298:12301   */\n      0x00\n        /* \"#utility.yul\":12319:12386   */\n      tag_638\n        /* \"#utility.yul\":12383:12385   */\n      0x1f\n        /* \"#utility.yul\":12378:12381   */\n      dup4\n        /* \"#utility.yul\":12319:12386   */\n      tag_456\n      jump\t// in\n    tag_638:\n        /* \"#utility.yul\":12312:12386   */\n      swap2\n      pop\n        /* \"#utility.yul\":12395:12488   */\n      tag_639\n        /* \"#utility.yul\":12484:12487   */\n      dup3\n        /* \"#utility.yul\":12395:12488   */\n      tag_457\n      jump\t// in\n    tag_639:\n        /* \"#utility.yul\":12513:12515   */\n      0x20\n        /* \"#utility.yul\":12508:12511   */\n      dup3\n        /* \"#utility.yul\":12504:12516   */\n      add\n        /* \"#utility.yul\":12497:12516   */\n      swap1\n      pop\n        /* \"#utility.yul\":12156:12522   */\n      swap2\n      swap1\n      pop\n      jump\t// out\n        /* \"#utility.yul\":12528:12947   */\n    tag_109:\n        /* \"#utility.yul\":12694:12698   */\n      0x00\n        /* \"#utility.yul\":12732:12734   */\n      0x20\n        /* \"#utility.yul\":12721:12730   */\n      dup3\n        /* \"#utility.yul\":12717:12735   */\n      add\n        /* \"#utility.yul\":12709:12735   */\n      swap1\n      pop\n        /* \"#utility.yul\":12781:12790   */\n      dup2\n        /* \"#utility.yul\":12775:12779   */\n      dup2\n        /* \"#utility.yul\":12771:12791   */\n      sub\n        /* \"#utility.yul\":12767:12768   */\n      0x00\n        /* \"#utility.yul\":12756:12765   */\n      dup4\n        /* \"#utility.yul\":12752:12769   */\n      add\n        /* \"#utility.yul\":12745:12792   */\n      mstore\n        /* \"#utility.yul\":12809:12940   */\n      tag_641\n        /* \"#utility.yul\":12935:12939   */\n      dup2\n        /* \"#utility.yul\":12809:12940   */\n      tag_458\n      jump\t// in\n    tag_641:\n        /* \"#utility.yul\":12801:12940   */\n      swap1\n      pop\n        /* \"#utility.yul\":12528:12947   */\n      swap2\n      swap1\n      pop\n      jump\t// out\n        /* \"#utility.yul\":12953:13123   */\n    tag_459:\n        /* \"#utility.yul\":13093:13115   */\n      0x4e4f542061207472757374656420697373756572000000000000000000000000\n        /* \"#utility.yul\":13089:13090   */\n      0x00\n        /* \"#utility.yul\":13081:13087   */\n      dup3\n        /* \"#utility.yul\":13077:13091   */\n      add\n        /* \"#utility.yul\":13070:13116   */\n      mstore\n        /* \"#utility.yul\":12953:13123   */\n      pop\n      jump\t// out\n        /* \"#utility.yul\":13129:13495   */\n    tag_460:\n        /* \"#utility.yul\":13271:13274   */\n      0x00\n        /* \"#utility.yul\":13292:13359   */\n      tag_644\n        /* \"#utility.yul\":13356:13358   */\n      0x14\n        /* \"#utility.yul\":13351:13354   */\n      dup4\n        /* \"#utility.yul\":13292:13359   */\n      tag_456\n      jump\t// in\n    tag_644:\n        /* \"#utility.yul\":13285:13359   */\n      swap2\n      pop\n        /* \"#utility.yul\":13368:13461   */\n      tag_645\n        /* \"#utility.yul\":13457:13460   */\n      dup3\n        /* \"#utility.yul\":13368:13461   */\n      tag_459\n      jump\t// in\n    tag_645:\n        /* \"#utility.yul\":13486:13488   */\n      0x20\n        /* \"#utility.yul\":13481:13484   */\n      dup3\n        /* \"#utility.yul\":13477:13489   */\n      add\n        /* \"#utility.yul\":13470:13489   */\n      swap1\n      pop\n        /* \"#utility.yul\":13129:13495   */\n      swap2\n      swap1\n      pop\n      jump\t// out\n        /* \"#utility.yul\":13501:13920   */\n    tag_112:\n        /* \"#utility.yul\":13667:13671   */\n      0x00\n        /* \"#utility.yul\":13705:13707   */\n      0x20\n        /* \"#utility.yul\":13694:13703   */\n      dup3\n        /* \"#utility.yul\":13690:13708   */\n      add\n        /* \"#utility.yul\":13682:13708   */\n      swap1\n      pop\n        /* \"#utility.yul\":13754:13763   */\n      dup2\n        /* \"#utility.yul\":13748:13752   */\n      dup2\n        /* \"#utility.yul\":13744:13764   */\n      sub\n        /* \"#utility.yul\":13740:13741   */\n      0x00\n        /* \"#utility.yul\":13729:13738   */\n      dup4\n        /* \"#utility.yul\":13725:13742   */\n      add\n        /* \"#utility.yul\":13718:13765   */\n      mstore\n        /* \"#utility.yul\":13782:13913   */\n      tag_647\n        /* \"#utility.yul\":13908:13912   */\n      dup2\n        /* \"#utility.yul\":13782:13913   */\n      tag_460\n      jump\t// in\n    tag_647:\n        /* \"#utility.yul\":13774:13913   */\n      swap1\n      pop\n        /* \"#utility.yul\":13501:13920   */\n      swap2\n      swap1\n      pop\n      jump\t// out\n        /* \"#utility.yul\":13926:14150   */\n    tag_461:\n        /* \"#utility.yul\":14066:14100   */\n      0x63616e6e6f742068617665206d6f7265207468616e20313520636c61696d2074\n        /* \"#utility.yul\":14062:14063   */\n      0x00\n        /* \"#utility.yul\":14054:14060   */\n      dup3\n        /* \"#utility.yul\":14050:14064   */\n      add\n        /* \"#utility.yul\":14043:14101   */\n      mstore\n        /* \"#utility.yul\":14135:14142   */\n      0x6f70696373000000000000000000000000000000000000000000000000000000\n        /* \"#utility.yul\":14130:14132   */\n      0x20\n        /* \"#utility.yul\":14122:14128   */\n      dup3\n        /* \"#utility.yul\":14118:14133   */\n      add\n        /* \"#utility.yul\":14111:14143   */\n      mstore\n        /* \"#utility.yul\":13926:14150   */\n      pop\n      jump\t// out\n        /* \"#utility.yul\":14156:14522   */\n    tag_462:\n        /* \"#utility.yul\":14298:14301   */\n      0x00\n        /* \"#utility.yul\":14319:14386   */\n      tag_650\n        /* \"#utility.yul\":14383:14385   */\n      0x25\n        /* \"#utility.yul\":14378:14381   */\n      dup4\n        /* \"#utility.yul\":14319:14386   */\n      tag_456\n      jump\t// in\n    tag_650:\n        /* \"#utility.yul\":14312:14386   */\n      swap2\n      pop\n        /* \"#utility.yul\":14395:14488   */\n      tag_651\n        /* \"#utility.yul\":14484:14487   */\n      dup3\n        /* \"#utility.yul\":14395:14488   */\n      tag_461\n      jump\t// in\n    tag_651:\n        /* \"#utility.yul\":14513:14515   */\n      0x40\n        /* \"#utility.yul\":14508:14511   */\n      dup3\n        /* \"#utility.yul\":14504:14516   */\n      add\n        /* \"#utility.yul\":14497:14516   */\n      swap1\n      pop\n        /* \"#utility.yul\":14156:14522   */\n      swap2\n      swap1\n      pop\n      jump\t// out\n        /* \"#utility.yul\":14528:14947   */\n    tag_115:\n        /* \"#utility.yul\":14694:14698   */\n      0x00\n        /* \"#utility.yul\":14732:14734   */\n      0x20\n        /* \"#utility.yul\":14721:14730   */\n      dup3\n        /* \"#utility.yul\":14717:14735   */\n      add\n        /* \"#utility.yul\":14709:14735   */\n      swap1\n      pop\n        /* \"#utility.yul\":14781:14790   */\n      dup2\n        /* \"#utility.yul\":14775:14779   */\n      dup2\n        /* \"#utility.yul\":14771:14791   */\n      sub\n        /* \"#utility.yul\":14767:14768   */\n      0x00\n        /* \"#utility.yul\":14756:14765   */\n      dup4\n        /* \"#utility.yul\":14752:14769   */\n      add\n        /* \"#utility.yul\":14745:14792   */\n      mstore\n        /* \"#utility.yul\":14809:14940   */\n      tag_653\n        /* \"#utility.yul\":14935:14939   */\n      dup2\n        /* \"#utility.yul\":14809:14940   */\n      tag_462\n      jump\t// in\n    tag_653:\n        /* \"#utility.yul\":14801:14940   */\n      swap1\n      pop\n        /* \"#utility.yul\":14528:14947   */\n      swap2\n      swap1\n      pop\n      jump\t// out\n        /* \"#utility.yul\":14953:15131   */\n    tag_463:\n        /* \"#utility.yul\":15093:15123   */\n      0x636c61696d20746f706963732063616e6e6f7420626520656d70747900000000\n        /* \"#utility.yul\":15089:15090   */\n      0x00\n        /* \"#utility.yul\":15081:15087   */\n      dup3\n        /* \"#utility.yul\":15077:15091   */\n      add\n        /* \"#utility.yul\":15070:15124   */\n      mstore\n        /* \"#utility.yul\":14953:15131   */\n      pop\n      jump\t// out\n        /* \"#utility.yul\":15137:15503   */\n    tag_464:\n        /* \"#utility.yul\":15279:15282   */\n      0x00\n        /* \"#utility.yul\":15300:15367   */\n      tag_656\n        /* \"#utility.yul\":15364:15366   */\n      0x1c\n        /* \"#utility.yul\":15359:15362   */\n      dup4\n        /* \"#utility.yul\":15300:15367   */\n      tag_456\n      jump\t// in\n    tag_656:\n        /* \"#utility.yul\":15293:15367   */\n      swap2\n      pop\n        /* \"#utility.yul\":15376:15469   */\n      tag_657\n        /* \"#utility.yul\":15465:15468   */\n      dup3\n        /* \"#utility.yul\":15376:15469   */\n      tag_463\n      jump\t// in\n    tag_657:\n        /* \"#utility.yul\":15494:15496   */\n      0x20\n        /* \"#utility.yul\":15489:15492   */\n      dup3\n        /* \"#utility.yul\":15485:15497   */\n      add\n        /* \"#utility.yul\":15478:15497   */\n      swap1\n      pop\n        /* \"#utility.yul\":15137:15503   */\n      swap2\n      swap1\n      pop\n      jump\t// out\n        /* \"#utility.yul\":15509:15928   */\n    tag_118:\n        /* \"#utility.yul\":15675:15679   */\n      0x00\n        /* \"#utility.yul\":15713:15715   */\n      0x20\n        /* \"#utility.yul\":15702:15711   */\n      dup3\n        /* \"#utility.yul\":15698:15716   */\n      add\n        /* \"#utility.yul\":15690:15716   */\n      swap1\n      pop\n        /* \"#utility.yul\":15762:15771   */\n      dup2\n        /* \"#utility.yul\":15756:15760   */\n      dup2\n        /* \"#utility.yul\":15752:15772   */\n      sub\n        /* \"#utility.yul\":15748:15749   */\n      0x00\n        /* \"#utility.yul\":15737:15746   */\n      dup4\n        /* \"#utility.yul\":15733:15750   */\n      add\n        /* \"#utility.yul\":15726:15773   */\n      mstore\n        /* \"#utility.yul\":15790:15921   */\n      tag_659\n        /* \"#utility.yul\":15916:15920   */\n      dup2\n        /* \"#utility.yul\":15790:15921   */\n      tag_464\n      jump\t// in\n    tag_659:\n        /* \"#utility.yul\":15782:15921   */\n      swap1\n      pop\n        /* \"#utility.yul\":15509:15928   */\n      swap2\n      swap1\n      pop\n      jump\t// out\n        /* \"#utility.yul\":15934:16114   */\n    tag_124:\n        /* \"#utility.yul\":15982:16059   */\n      0x4e487b7100000000000000000000000000000000000000000000000000000000\n        /* \"#utility.yul\":15979:15980   */\n      0x00\n        /* \"#utility.yul\":15972:16060   */\n      mstore\n        /* \"#utility.yul\":16079:16083   */\n      0x32\n        /* \"#utility.yul\":16076:16077   */\n      0x04\n        /* \"#utility.yul\":16069:16084   */\n      mstore\n        /* \"#utility.yul\":16103:16107   */\n      0x24\n        /* \"#utility.yul\":16100:16101   */\n      0x00\n        /* \"#utility.yul\":16093:16108   */\n      revert\n        /* \"#utility.yul\":16120:16300   */\n    tag_465:\n        /* \"#utility.yul\":16168:16245   */\n      0x4e487b7100000000000000000000000000000000000000000000000000000000\n        /* \"#utility.yul\":16165:16166   */\n      0x00\n        /* \"#utility.yul\":16158:16246   */\n      mstore\n        /* \"#utility.yul\":16265:16269   */\n      0x11\n        /* \"#utility.yul\":16262:16263   */\n      0x04\n        /* \"#utility.yul\":16255:16270   */\n      mstore\n        /* \"#utility.yul\":16289:16293   */\n      0x24\n        /* \"#utility.yul\":16286:16287   */\n      0x00\n        /* \"#utility.yul\":16279:16294   */\n      revert\n        /* \"#utility.yul\":16306:16500   */\n    tag_134:\n        /* \"#utility.yul\":16346:16350   */\n      0x00\n        /* \"#utility.yul\":16366:16386   */\n      tag_663\n        /* \"#utility.yul\":16384:16385   */\n      dup3\n        /* \"#utility.yul\":16366:16386   */\n      tag_428\n      jump\t// in\n    tag_663:\n        /* \"#utility.yul\":16361:16386   */\n      swap2\n      pop\n        /* \"#utility.yul\":16400:16420   */\n      tag_664\n        /* \"#utility.yul\":16418:16419   */\n      dup4\n        /* \"#utility.yul\":16400:16420   */\n      tag_428\n      jump\t// in\n    tag_664:\n        /* \"#utility.yul\":16395:16420   */\n      swap3\n      pop\n        /* \"#utility.yul\":16444:16445   */\n      dup3\n        /* \"#utility.yul\":16441:16442   */\n      dup3\n        /* \"#utility.yul\":16437:16446   */\n      sub\n        /* \"#utility.yul\":16429:16446   */\n      swap1\n      pop\n        /* \"#utility.yul\":16468:16469   */\n      dup2\n        /* \"#utility.yul\":16462:16466   */\n      dup2\n        /* \"#utility.yul\":16459:16470   */\n      gt\n        /* \"#utility.yul\":16456:16493   */\n      iszero\n      tag_665\n      jumpi\n        /* \"#utility.yul\":16473:16491   */\n      tag_666\n      tag_465\n      jump\t// in\n    tag_666:\n        /* \"#utility.yul\":16456:16493   */\n    tag_665:\n        /* \"#utility.yul\":16306:16500   */\n      swap3\n      swap2\n      pop\n      pop\n      jump\t// out\n        /* \"#utility.yul\":16506:16686   */\n    tag_143:\n        /* \"#utility.yul\":16554:16631   */\n      0x4e487b7100000000000000000000000000000000000000000000000000000000\n        /* \"#utility.yul\":16551:16552   */\n      0x00\n        /* \"#utility.yul\":16544:16632   */\n      mstore\n        /* \"#utility.yul\":16651:16655   */\n      0x31\n        /* \"#utility.yul\":16648:16649   */\n      0x04\n        /* \"#utility.yul\":16641:16656   */\n      mstore\n        /* \"#utility.yul\":16675:16679   */\n      0x24\n        /* \"#utility.yul\":16672:16673   */\n      0x00\n        /* \"#utility.yul\":16665:16680   */\n      revert\n        /* \"#utility.yul\":16692:16925   */\n    tag_146:\n        /* \"#utility.yul\":16731:16734   */\n      0x00\n        /* \"#utility.yul\":16754:16778   */\n      tag_669\n        /* \"#utility.yul\":16772:16777   */\n      dup3\n        /* \"#utility.yul\":16754:16778   */\n      tag_428\n      jump\t// in\n    tag_669:\n        /* \"#utility.yul\":16745:16778   */\n      swap2\n      pop\n        /* \"#utility.yul\":16800:16866   */\n      0xffffffffffffffffffffffffffffffffffffffffffffffffffffffffffffffff\n        /* \"#utility.yul\":16793:16798   */\n      dup3\n        /* \"#utility.yul\":16790:16867   */\n      sub\n        /* \"#utility.yul\":16787:16890   */\n      tag_670\n      jumpi\n        /* \"#utility.yul\":16870:16888   */\n      tag_671\n      tag_465\n      jump\t// in\n    tag_671:\n        /* \"#utility.yul\":16787:16890   */\n    tag_670:\n        /* \"#utility.yul\":16917:16918   */\n      0x01\n        /* \"#utility.yul\":16910:16915   */\n      dup3\n        /* \"#utility.yul\":16906:16919   */\n      add\n        /* \"#utility.yul\":16899:16919   */\n      swap1\n      pop\n        /* \"#utility.yul\":16692:16925   */\n      swap2\n      swap1\n      pop\n      jump\t// out\n        /* \"#utility.yul\":16931:17048   */\n    tag_466:\n        /* \"#utility.yul\":17040:17041   */\n      0x00\n        /* \"#utility.yul\":17037:17038   */\n      dup1\n        /* \"#utility.yul\":17030:17042   */\n      revert\n        /* \"#utility.yul\":17054:17152   */\n    tag_467:\n        /* \"#utility.yul\":17138:17144   */\n      dup3\n        /* \"#utility.yul\":17133:17136   */\n      dup2\n        /* \"#utility.yul\":17128:17131   */\n      dup4\n        /* \"#utility.yul\":17115:17145   */\n      calldatacopy\n        /* \"#utility.yul\":17054:17152   */\n      pop\n      pop\n      pop\n      jump\t// out\n        /* \"#utility.yul\":17188:17725   */\n    tag_468:\n        /* \"#utility.yul\":17316:17319   */\n      0x00\n        /* \"#utility.yul\":17337:17423   */\n      tag_675\n        /* \"#utility.yul\":17416:17422   */\n      dup4\n        /* \"#utility.yul\":17411:17414   */\n      dup6\n        /* \"#utility.yul\":17337:17423   */\n      tag_450\n      jump\t// in\n    tag_675:\n        /* \"#utility.yul\":17330:17423   */\n      swap4\n      pop\n        /* \"#utility.yul\":17447:17513   */\n      0x07ffffffffffffffffffffffffffffffffffffffffffffffffffffffffffffff\n        /* \"#utility.yul\":17439:17445   */\n      dup4\n        /* \"#utility.yul\":17436:17514   */\n      gt\n        /* \"#utility.yul\":17433:17598   */\n      iszero\n      tag_676\n      jumpi\n        /* \"#utility.yul\":17517:17596   */\n      tag_677\n      tag_466\n      jump\t// in\n    tag_677:\n        /* \"#utility.yul\":17433:17598   */\n    tag_676:\n        /* \"#utility.yul\":17629:17633   */\n      0x20\n        /* \"#utility.yul\":17621:17627   */\n      dup4\n        /* \"#utility.yul\":17617:17634   */\n      mul\n        /* \"#utility.yul\":17607:17634   */\n      swap3\n      pop\n        /* \"#utility.yul\":17644:17687   */\n      tag_678\n        /* \"#utility.yul\":17680:17686   */\n      dup4\n        /* \"#utility.yul\":17675:17678   */\n      dup6\n        /* \"#utility.yul\":17668:17673   */\n      dup5\n        /* \"#utility.yul\":17644:17687   */\n      tag_467\n      jump\t// in\n    tag_678:\n        /* \"#utility.yul\":17712:17718   */\n      dup3\n        /* \"#utility.yul\":17707:17710   */\n      dup5\n        /* \"#utility.yul\":17703:17719   */\n      add\n        /* \"#utility.yul\":17696:17719   */\n      swap1\n      pop\n        /* \"#utility.yul\":17188:17725   */\n      swap4\n      swap3\n      pop\n      pop\n      pop\n      jump\t// out\n        /* \"#utility.yul\":17731:18124   */\n    tag_158:\n        /* \"#utility.yul\":17884:17888   */\n      0x00\n        /* \"#utility.yul\":17922:17924   */\n      0x20\n        /* \"#utility.yul\":17911:17920   */\n      dup3\n        /* \"#utility.yul\":17907:17925   */\n      add\n        /* \"#utility.yul\":17899:17925   */\n      swap1\n      pop\n        /* \"#utility.yul\":17971:17980   */\n      dup2\n        /* \"#utility.yul\":17965:17969   */\n      dup2\n        /* \"#utility.yul\":17961:17981   */\n      sub\n        /* \"#utility.yul\":17957:17958   */\n      0x00\n        /* \"#utility.yul\":17946:17955   */\n      dup4\n        /* \"#utility.yul\":17942:17959   */\n      add\n        /* \"#utility.yul\":17935:17982   */\n      mstore\n        /* \"#utility.yul\":17999:18117   */\n      tag_680\n        /* \"#utility.yul\":18112:18116   */\n      dup2\n        /* \"#utility.yul\":18103:18109   */\n      dup5\n        /* \"#utility.yul\":18095:18101   */\n      dup7\n        /* \"#utility.yul\":17999:18117   */\n      tag_468\n      jump\t// in\n    tag_680:\n        /* \"#utility.yul\":17991:18117   */\n      swap1\n      pop\n        /* \"#utility.yul\":17731:18124   */\n      swap4\n      swap3\n      pop\n      pop\n      pop\n      jump\t// out\n        /* \"#utility.yul\":18130:18232   */\n    tag_469:\n        /* \"#utility.yul\":18171:18177   */\n      0x00\n        /* \"#utility.yul\":18222:18224   */\n      0x1f\n        /* \"#utility.yul\":18218:18225   */\n      not\n        /* \"#utility.yul\":18213:18215   */\n      0x1f\n        /* \"#utility.yul\":18206:18211   */\n      dup4\n        /* \"#utility.yul\":18202:18216   */\n      add\n        /* \"#utility.yul\":18198:18226   */\n      and\n        /* \"#utility.yul\":18188:18226   */\n      swap1\n      pop\n        /* \"#utility.yul\":18130:18232   */\n      swap2\n      swap1\n      pop\n      jump\t// out\n        /* \"#utility.yul\":18238:18418   */\n    tag_209:\n        /* \"#utility.yul\":18286:18363   */\n      0x4e487b7100000000000000000000000000000000000000000000000000000000\n        /* \"#utility.yul\":18283:18284   */\n      0x00\n        /* \"#utility.yul\":18276:18364   */\n      mstore\n        /* \"#utility.yul\":18383:18387   */\n      0x41\n        /* \"#utility.yul\":18380:18381   */\n      0x04\n        /* \"#utility.yul\":18373:18388   */\n      mstore\n        /* \"#utility.yul\":18407:18411   */\n      0x24\n        /* \"#utility.yul\":18404:18405   */\n      0x00\n        /* \"#utility.yul\":18397:18412   */\n      revert\n        /* \"#utility.yul\":18424:18705   */\n    tag_470:\n        /* \"#utility.yul\":18507:18534   */\n      tag_684\n        /* \"#utility.yul\":18529:18533   */\n      dup3\n        /* \"#utility.yul\":18507:18534   */\n      tag_469\n      jump\t// in\n    tag_684:\n        /* \"#utility.yul\":18499:18505   */\n      dup2\n        /* \"#utility.yul\":18495:18535   */\n      add\n        /* \"#utility.yul\":18637:18643   */\n      dup2\n        /* \"#utility.yul\":18625:18635   */\n      dup2\n        /* \"#utility.yul\":18622:18644   */\n      lt\n        /* \"#utility.yul\":18601:18619   */\n      0xffffffffffffffff\n        /* \"#utility.yul\":18589:18599   */\n      dup3\n        /* \"#utility.yul\":18586:18620   */\n      gt\n        /* \"#utility.yul\":18583:18645   */\n      or\n        /* \"#utility.yul\":18580:18668   */\n      iszero\n      tag_685\n      jumpi\n        /* \"#utility.yul\":18648:18666   */\n      tag_686\n      tag_209\n      jump\t// in\n    tag_686:\n        /* \"#utility.yul\":18580:18668   */\n    tag_685:\n        /* \"#utility.yul\":18688:18698   */\n      dup1\n        /* \"#utility.yul\":18684:18686   */\n      0x40\n        /* \"#utility.yul\":18677:18699   */\n      mstore\n        /* \"#utility.yul\":18467:18705   */\n      pop\n        /* \"#utility.yul\":18424:18705   */\n      pop\n      pop\n      jump\t// out\n        /* \"#utility.yul\":18711:18840   */\n    tag_471:\n        /* \"#utility.yul\":18745:18751   */\n      0x00\n        /* \"#utility.yul\":18772:18792   */\n      tag_688\n      tag_416\n      jump\t// in\n    tag_688:\n        /* \"#utility.yul\":18762:18792   */\n      swap1\n      pop\n        /* \"#utility.yul\":18801:18834   */\n      tag_689\n        /* \"#utility.yul\":18829:18833   */\n      dup3\n        /* \"#utility.yul\":18821:18827   */\n      dup3\n        /* \"#utility.yul\":18801:18834   */\n      tag_470\n      jump\t// in\n    tag_689:\n        /* \"#utility.yul\":18711:18840   */\n      swap2\n      swap1\n      pop\n      jump\t// out\n        /* \"#utility.yul\":18846:19177   */\n    tag_472:\n        /* \"#utility.yul\":18943:18947   */\n      0x00\n        /* \"#utility.yul\":19033:19051   */\n      0xffffffffffffffff\n        /* \"#utility.yul\":19025:19031   */\n      dup3\n        /* \"#utility.yul\":19022:19052   */\n      gt\n        /* \"#utility.yul\":19019:19075   */\n      iszero\n      tag_691\n      jumpi\n        /* \"#utility.yul\":19055:19073   */\n      tag_692\n      tag_209\n      jump\t// in\n    tag_692:\n        /* \"#utility.yul\":19019:19075   */\n    tag_691:\n        /* \"#utility.yul\":19105:19109   */\n      0x20\n        /* \"#utility.yul\":19097:19103   */\n      dup3\n        /* \"#utility.yul\":19093:19110   */\n      mul\n        /* \"#utility.yul\":19085:19110   */\n      swap1\n      pop\n        /* \"#utility.yul\":19165:19169   */\n      0x20\n        /* \"#utility.yul\":19159:19163   */\n      dup2\n        /* \"#utility.yul\":19155:19170   */\n      add\n        /* \"#utility.yul\":19147:19170   */\n      swap1\n      pop\n        /* \"#utility.yul\":18846:19177   */\n      swap2\n      swap1\n      pop\n      jump\t// out\n        /* \"#utility.yul\":19183:19366   */\n    tag_473:\n        /* \"#utility.yul\":19260:19265   */\n      0x00\n        /* \"#utility.yul\":19291:19297   */\n      dup2\n        /* \"#utility.yul\":19285:19298   */\n      mload\n        /* \"#utility.yul\":19276:19298   */\n      swap1\n      pop\n        /* \"#utility.yul\":19307:19360   */\n      tag_694\n        /* \"#utility.yul\":19354:19359   */\n      dup2\n        /* \"#utility.yul\":19307:19360   */\n      tag_422\n      jump\t// in\n    tag_694:\n        /* \"#utility.yul\":19183:19366   */\n      swap3\n      swap2\n      pop\n      pop\n      jump\t// out\n        /* \"#utility.yul\":19403:20195   */\n    tag_474:\n        /* \"#utility.yul\":19530:19535   */\n      0x00\n        /* \"#utility.yul\":19555:19656   */\n      tag_696\n        /* \"#utility.yul\":19571:19655   */\n      tag_697\n        /* \"#utility.yul\":19648:19654   */\n      dup5\n        /* \"#utility.yul\":19571:19655   */\n      tag_472\n      jump\t// in\n    tag_697:\n        /* \"#utility.yul\":19555:19656   */\n      tag_471\n      jump\t// in\n    tag_696:\n        /* \"#utility.yul\":19546:19656   */\n      swap1\n      pop\n        /* \"#utility.yul\":19676:19681   */\n      dup1\n        /* \"#utility.yul\":19705:19711   */\n      dup4\n        /* \"#utility.yul\":19698:19703   */\n      dup3\n        /* \"#utility.yul\":19691:19712   */\n      mstore\n        /* \"#utility.yul\":19739:19743   */\n      0x20\n        /* \"#utility.yul\":19732:19737   */\n      dup3\n        /* \"#utility.yul\":19728:19744   */\n      add\n        /* \"#utility.yul\":19721:19744   */\n      swap1\n      pop\n        /* \"#utility.yul\":19792:19796   */\n      0x20\n        /* \"#utility.yul\":19784:19790   */\n      dup5\n        /* \"#utility.yul\":19780:19797   */\n      mul\n        /* \"#utility.yul\":19772:19778   */\n      dup4\n        /* \"#utility.yul\":19768:19798   */\n      add\n        /* \"#utility.yul\":19821:19824   */\n      dup6\n        /* \"#utility.yul\":19813:19819   */\n      dup2\n        /* \"#utility.yul\":19810:19825   */\n      gt\n        /* \"#utility.yul\":19807:19929   */\n      iszero\n      tag_698\n      jumpi\n        /* \"#utility.yul\":19840:19919   */\n      tag_699\n      tag_426\n      jump\t// in\n    tag_699:\n        /* \"#utility.yul\":19807:19929   */\n    tag_698:\n        /* \"#utility.yul\":19955:19961   */\n      dup4\n        /* \"#utility.yul\":19938:20189   */\n    tag_700:\n        /* \"#utility.yul\":19972:19978   */\n      dup2\n        /* \"#utility.yul\":19967:19970   */\n      dup2\n        /* \"#utility.yul\":19964:19979   */\n      lt\n        /* \"#utility.yul\":19938:20189   */\n      iszero\n      tag_702\n      jumpi\n        /* \"#utility.yul\":20047:20050   */\n      dup1\n        /* \"#utility.yul\":20076:20144   */\n      tag_703\n        /* \"#utility.yul\":20140:20143   */\n      dup9\n        /* \"#utility.yul\":20128:20138   */\n      dup3\n        /* \"#utility.yul\":20076:20144   */\n      tag_473\n      jump\t// in\n    tag_703:\n        /* \"#utility.yul\":20071:20074   */\n      dup5\n        /* \"#utility.yul\":20064:20145   */\n      mstore\n        /* \"#utility.yul\":20174:20178   */\n      0x20\n        /* \"#utility.yul\":20169:20172   */\n      dup5\n        /* \"#utility.yul\":20165:20179   */\n      add\n        /* \"#utility.yul\":20158:20179   */\n      swap4\n      pop\n        /* \"#utility.yul\":20014:20189   */\n      pop\n        /* \"#utility.yul\":19998:20002   */\n      0x20\n        /* \"#utility.yul\":19993:19996   */\n      dup2\n        /* \"#utility.yul\":19989:20003   */\n      add\n        /* \"#utility.yul\":19982:20003   */\n      swap1\n      pop\n        /* \"#utility.yul\":19938:20189   */\n      jump(tag_700)\n    tag_702:\n        /* \"#utility.yul\":19942:19963   */\n      pop\n        /* \"#utility.yul\":19536:20195   */\n      pop\n      pop\n        /* \"#utility.yul\":19403:20195   */\n      swap4\n      swap3\n      pop\n      pop\n      pop\n      jump\t// out\n        /* \"#utility.yul\":20232:20657   */\n    tag_475:\n        /* \"#utility.yul\":20334:20339   */\n      0x00\n        /* \"#utility.yul\":20383:20386   */\n      dup3\n        /* \"#utility.yul\":20376:20380   */\n      0x1f\n        /* \"#utility.yul\":20368:20374   */\n      dup4\n        /* \"#utility.yul\":20364:20381   */\n      add\n        /* \"#utility.yul\":20360:20387   */\n      slt\n        /* \"#utility.yul\":20350:20472   */\n      tag_705\n      jumpi\n        /* \"#utility.yul\":20391:20470   */\n      tag_706\n      tag_424\n      jump\t// in\n    tag_706:\n        /* \"#utility.yul\":20350:20472   */\n    tag_705:\n        /* \"#utility.yul\":20501:20507   */\n      dup2\n        /* \"#utility.yul\":20495:20508   */\n      mload\n        /* \"#utility.yul\":20526:20651   */\n      tag_707\n        /* \"#utility.yul\":20647:20650   */\n      dup5\n        /* \"#utility.yul\":20639:20645   */\n      dup3\n        /* \"#utility.yul\":20632:20636   */\n      0x20\n        /* \"#utility.yul\":20624:20630   */\n      dup7\n        /* \"#utility.yul\":20620:20637   */\n      add\n        /* \"#utility.yul\":20526:20651   */\n      tag_474\n      jump\t// in\n    tag_707:\n        /* \"#utility.yul\":20517:20651   */\n      swap2\n      pop\n        /* \"#utility.yul\":20340:20657   */\n      pop\n        /* \"#utility.yul\":20232:20657   */\n      swap3\n      swap2\n      pop\n      pop\n      jump\t// out\n        /* \"#utility.yul\":20663:21257   */\n    tag_205:\n        /* \"#utility.yul\":20778:20784   */\n      0x00\n        /* \"#utility.yul\":20827:20829   */\n      0x20\n        /* \"#utility.yul\":20815:20824   */\n      dup3\n        /* \"#utility.yul\":20806:20813   */\n      dup5\n        /* \"#utility.yul\":20802:20825   */\n      sub\n        /* \"#utility.yul\":20798:20830   */\n      slt\n        /* \"#utility.yul\":20795:20914   */\n      iszero\n      tag_709\n      jumpi\n        /* \"#utility.yul\":20833:20912   */\n      tag_710\n      tag_417\n      jump\t// in\n    tag_710:\n        /* \"#utility.yul\":20795:20914   */\n    tag_709:\n        /* \"#utility.yul\":20974:20975   */\n      0x00\n        /* \"#utility.yul\":20963:20972   */\n      dup3\n        /* \"#utility.yul\":20959:20976   */\n      add\n        /* \"#utility.yul\":20953:20977   */\n      mload\n        /* \"#utility.yul\":21004:21022   */\n      0xffffffffffffffff\n        /* \"#utility.yul\":20996:21002   */\n      dup2\n        /* \"#utility.yul\":20993:21023   */\n      gt\n        /* \"#utility.yul\":20990:21107   */\n      iszero\n      tag_711\n      jumpi\n        /* \"#utility.yul\":21026:21105   */\n      tag_712\n      tag_418\n      jump\t// in\n    tag_712:\n        /* \"#utility.yul\":20990:21107   */\n    tag_711:\n        /* \"#utility.yul\":21131:21240   */\n      tag_713\n        /* \"#utility.yul\":21232:21239   */\n      dup5\n        /* \"#utility.yul\":21223:21229   */\n      dup3\n        /* \"#utility.yul\":21212:21221   */\n      dup6\n        /* \"#utility.yul\":21208:21230   */\n      add\n        /* \"#utility.yul\":21131:21240   */\n      tag_475\n      jump\t// in\n    tag_713:\n        /* \"#utility.yul\":21121:21240   */\n      swap2\n      pop\n        /* \"#utility.yul\":20924:21250   */\n      pop\n        /* \"#utility.yul\":20663:21257   */\n      swap3\n      swap2\n      pop\n      pop\n      jump\t// out\n        /* \"#utility.yul\":21263:21635   */\n    tag_220:\n        /* \"#utility.yul\":21404:21408   */\n      0x00\n        /* \"#utility.yul\":21442:21444   */\n      0x40\n        /* \"#utility.yul\":21431:21440   */\n      dup3\n        /* \"#utility.yul\":21427:21445   */\n      add\n        /* \"#utility.yul\":21419:21445   */\n      swap1\n      pop\n        /* \"#utility.yul\":21455:21546   */\n      tag_715\n        /* \"#utility.yul\":21543:21544   */\n      0x00\n        /* \"#utility.yul\":21532:21541   */\n      dup4\n        /* \"#utility.yul\":21528:21545   */\n      add\n        /* \"#utility.yul\":21519:21525   */\n      dup6\n        /* \"#utility.yul\":21455:21546   */\n      tag_447\n      jump\t// in\n    tag_715:\n        /* \"#utility.yul\":21556:21628   */\n      tag_716\n        /* \"#utility.yul\":21624:21626   */\n      0x20\n        /* \"#utility.yul\":21613:21622   */\n      dup4\n        /* \"#utility.yul\":21609:21627   */\n      add\n        /* \"#utility.yul\":21600:21606   */\n      dup5\n        /* \"#utility.yul\":21556:21628   */\n      tag_448\n      jump\t// in\n    tag_716:\n        /* \"#utility.yul\":21263:21635   */\n      swap4\n      swap3\n      pop\n      pop\n      pop\n      jump\t// out\n        /* \"#utility.yul\":21641:21718   */\n    tag_476:\n        /* \"#utility.yul\":21678:21685   */\n      0x00\n        /* \"#utility.yul\":21707:21712   */\n      dup2\n        /* \"#utility.yul\":21696:21712   */\n      swap1\n      pop\n        /* \"#utility.yul\":21641:21718   */\n      swap2\n      swap1\n      pop\n      jump\t// out\n        /* \"#utility.yul\":21724:21842   */\n    tag_477:\n        /* \"#utility.yul\":21811:21835   */\n      tag_719\n        /* \"#utility.yul\":21829:21834   */\n      dup2\n        /* \"#utility.yul\":21811:21835   */\n      tag_476\n      jump\t// in\n    tag_719:\n        /* \"#utility.yul\":21806:21809   */\n      dup3\n        /* \"#utility.yul\":21799:21836   */\n      mstore\n        /* \"#utility.yul\":21724:21842   */\n      pop\n      pop\n      jump\t// out\n        /* \"#utility.yul\":21848:22070   */\n    tag_230:\n        /* \"#utility.yul\":21941:21945   */\n      0x00\n        /* \"#utility.yul\":21979:21981   */\n      0x20\n        /* \"#utility.yul\":21968:21977   */\n      dup3\n        /* \"#utility.yul\":21964:21982   */\n      add\n        /* \"#utility.yul\":21956:21982   */\n      swap1\n      pop\n        /* \"#utility.yul\":21992:22063   */\n      tag_721\n        /* \"#utility.yul\":22060:22061   */\n      0x00\n        /* \"#utility.yul\":22049:22058   */\n      dup4\n        /* \"#utility.yul\":22045:22062   */\n      add\n        /* \"#utility.yul\":22036:22042   */\n      dup5\n        /* \"#utility.yul\":21992:22063   */\n      tag_477\n      jump\t// in\n    tag_721:\n        /* \"#utility.yul\":21848:22070   */\n      swap3\n      swap2\n      pop\n      pop\n      jump\t// out\n        /* \"#utility.yul\":22076:22219   */\n    tag_478:\n        /* \"#utility.yul\":22133:22138   */\n      0x00\n        /* \"#utility.yul\":22164:22170   */\n      dup2\n        /* \"#utility.yul\":22158:22171   */\n      mload\n        /* \"#utility.yul\":22149:22171   */\n      swap1\n      pop\n        /* \"#utility.yul\":22180:22213   */\n      tag_723\n        /* \"#utility.yul\":22207:22212   */\n      dup2\n        /* \"#utility.yul\":22180:22213   */\n      tag_429\n      jump\t// in\n    tag_723:\n        /* \"#utility.yul\":22076:22219   */\n      swap3\n      swap2\n      pop\n      pop\n      jump\t// out\n        /* \"#utility.yul\":22225:22368   */\n    tag_479:\n        /* \"#utility.yul\":22282:22287   */\n      0x00\n        /* \"#utility.yul\":22313:22319   */\n      dup2\n        /* \"#utility.yul\":22307:22320   */\n      mload\n        /* \"#utility.yul\":22298:22320   */\n      swap1\n      pop\n        /* \"#utility.yul\":22329:22362   */\n      tag_725\n        /* \"#utility.yul\":22356:22361   */\n      dup2\n        /* \"#utility.yul\":22329:22362   */\n      tag_431\n      jump\t// in\n    tag_725:\n        /* \"#utility.yul\":22225:22368   */\n      swap3\n      swap2\n      pop\n      pop\n      jump\t// out\n        /* \"#utility.yul\":22374:22491   */\n    tag_480:\n        /* \"#utility.yul\":22483:22484   */\n      0x00\n        /* \"#utility.yul\":22480:22481   */\n      dup1\n        /* \"#utility.yul\":22473:22485   */\n      revert\n        /* \"#utility.yul\":22497:22804   */\n    tag_481:\n        /* \"#utility.yul\":22558:22562   */\n      0x00\n        /* \"#utility.yul\":22648:22666   */\n      0xffffffffffffffff\n        /* \"#utility.yul\":22640:22646   */\n      dup3\n        /* \"#utility.yul\":22637:22667   */\n      gt\n        /* \"#utility.yul\":22634:22690   */\n      iszero\n      tag_728\n      jumpi\n        /* \"#utility.yul\":22670:22688   */\n      tag_729\n      tag_209\n      jump\t// in\n    tag_729:\n        /* \"#utility.yul\":22634:22690   */\n    tag_728:\n        /* \"#utility.yul\":22708:22737   */\n      tag_730\n        /* \"#utility.yul\":22730:22736   */\n      dup3\n        /* \"#utility.yul\":22708:22737   */\n      tag_469\n      jump\t// in\n    tag_730:\n        /* \"#utility.yul\":22700:22737   */\n      swap1\n      pop\n        /* \"#utility.yul\":22792:22796   */\n      0x20\n        /* \"#utility.yul\":22786:22790   */\n      dup2\n        /* \"#utility.yul\":22782:22797   */\n      add\n        /* \"#utility.yul\":22774:22797   */\n      swap1\n      pop\n        /* \"#utility.yul\":22497:22804   */\n      swap2\n      swap1\n      pop\n      jump\t// out\n        /* \"#utility.yul\":22810:23056   */\n    tag_482:\n        /* \"#utility.yul\":22891:22892   */\n      0x00\n        /* \"#utility.yul\":22901:23014   */\n    tag_732:\n        /* \"#utility.yul\":22915:22921   */\n      dup4\n        /* \"#utility.yul\":22912:22913   */\n      dup2\n        /* \"#utility.yul\":22909:22922   */\n      lt\n        /* \"#utility.yul\":22901:23014   */\n      iszero\n      tag_734\n      jumpi\n        /* \"#utility.yul\":23000:23001   */\n      dup1\n        /* \"#utility.yul\":22995:22998   */\n      dup3\n        /* \"#utility.yul\":22991:23002   */\n      add\n        /* \"#utility.yul\":22985:23003   */\n      mload\n        /* \"#utility.yul\":22981:22982   */\n      dup2\n        /* \"#utility.yul\":22976:22979   */\n      dup5\n        /* \"#utility.yul\":22972:22983   */\n      add\n        /* \"#utility.yul\":22965:23004   */\n      mstore\n        /* \"#utility.yul\":22937:22939   */\n      0x20\n        /* \"#utility.yul\":22934:22935   */\n      dup2\n        /* \"#utility.yul\":22930:22940   */\n      add\n        /* \"#utility.yul\":22925:22940   */\n      swap1\n      pop\n        /* \"#utility.yul\":22901:23014   */\n      jump(tag_732)\n    tag_734:\n        /* \"#utility.yul\":23048:23049   */\n      0x00\n        /* \"#utility.yul\":23039:23045   */\n      dup5\n        /* \"#utility.yul\":23034:23037   */\n      dup5\n        /* \"#utility.yul\":23030:23046   */\n      add\n        /* \"#utility.yul\":23023:23050   */\n      mstore\n        /* \"#utility.yul\":22872:23056   */\n      pop\n        /* \"#utility.yul\":22810:23056   */\n      pop\n      pop\n      pop\n      jump\t// out\n        /* \"#utility.yul\":23062:23494   */\n    tag_483:\n        /* \"#utility.yul\":23150:23155   */\n      0x00\n        /* \"#utility.yul\":23175:23240   */\n      tag_736\n        /* \"#utility.yul\":23191:23239   */\n      tag_737\n        /* \"#utility.yul\":23232:23238   */\n      dup5\n        /* \"#utility.yul\":23191:23239   */\n      tag_481\n      jump\t// in\n    tag_737:\n        /* \"#utility.yul\":23175:23240   */\n      tag_471\n      jump\t// in\n    tag_736:\n        /* \"#utility.yul\":23166:23240   */\n      swap1\n      pop\n        /* \"#utility.yul\":23263:23269   */\n      dup3\n        /* \"#utility.yul\":23256:23261   */\n      dup2\n        /* \"#utility.yul\":23249:23270   */\n      mstore\n        /* \"#utility.yul\":23301:23305   */\n      0x20\n        /* \"#utility.yul\":23294:23299   */\n      dup2\n        /* \"#utility.yul\":23290:23306   */\n      add\n        /* \"#utility.yul\":23339:23342   */\n      dup5\n        /* \"#utility.yul\":23330:23336   */\n      dup5\n        /* \"#utility.yul\":23325:23328   */\n      dup5\n        /* \"#utility.yul\":23321:23337   */\n      add\n        /* \"#utility.yul\":23318:23343   */\n      gt\n        /* \"#utility.yul\":23315:23427   */\n      iszero\n      tag_738\n      jumpi\n        /* \"#utility.yul\":23346:23425   */\n      tag_739\n      tag_480\n      jump\t// in\n    tag_739:\n        /* \"#utility.yul\":23315:23427   */\n    tag_738:\n        /* \"#utility.yul\":23436:23488   */\n      tag_740\n        /* \"#utility.yul\":23481:23487   */\n      dup5\n        /* \"#utility.yul\":23476:23479   */\n      dup3\n        /* \"#utility.yul\":23471:23474   */\n      dup6\n        /* \"#utility.yul\":23436:23488   */\n      tag_482\n      jump\t// in\n    tag_740:\n        /* \"#utility.yul\":23156:23494   */\n      pop\n        /* \"#utility.yul\":23062:23494   */\n      swap4\n      swap3\n      pop\n      pop\n      pop\n      jump\t// out\n        /* \"#utility.yul\":23513:23866   */\n    tag_484:\n        /* \"#utility.yul\":23579:23584   */\n      0x00\n        /* \"#utility.yul\":23628:23631   */\n      dup3\n        /* \"#utility.yul\":23621:23625   */\n      0x1f\n        /* \"#utility.yul\":23613:23619   */\n      dup4\n        /* \"#utility.yul\":23609:23626   */\n      add\n        /* \"#utility.yul\":23605:23632   */\n      slt\n        /* \"#utility.yul\":23595:23717   */\n      tag_742\n      jumpi\n        /* \"#utility.yul\":23636:23715   */\n      tag_743\n      tag_424\n      jump\t// in\n    tag_743:\n        /* \"#utility.yul\":23595:23717   */\n    tag_742:\n        /* \"#utility.yul\":23746:23752   */\n      dup2\n        /* \"#utility.yul\":23740:23753   */\n      mload\n        /* \"#utility.yul\":23771:23860   */\n      tag_744\n        /* \"#utility.yul\":23856:23859   */\n      dup5\n        /* \"#utility.yul\":23848:23854   */\n      dup3\n        /* \"#utility.yul\":23841:23845   */\n      0x20\n        /* \"#utility.yul\":23833:23839   */\n      dup7\n        /* \"#utility.yul\":23829:23846   */\n      add\n        /* \"#utility.yul\":23771:23860   */\n      tag_483\n      jump\t// in\n    tag_744:\n        /* \"#utility.yul\":23762:23860   */\n      swap2\n      pop\n        /* \"#utility.yul\":23585:23866   */\n      pop\n        /* \"#utility.yul\":23513:23866   */\n      swap3\n      swap2\n      pop\n      pop\n      jump\t// out\n        /* \"#utility.yul\":23872:24180   */\n    tag_485:\n        /* \"#utility.yul\":23934:23938   */\n      0x00\n        /* \"#utility.yul\":24024:24042   */\n      0xffffffffffffffff\n        /* \"#utility.yul\":24016:24022   */\n      dup3\n        /* \"#utility.yul\":24013:24043   */\n      gt\n        /* \"#utility.yul\":24010:24066   */\n      iszero\n      tag_746\n      jumpi\n        /* \"#utility.yul\":24046:24064   */\n      tag_747\n      tag_209\n      jump\t// in\n    tag_747:\n        /* \"#utility.yul\":24010:24066   */\n    tag_746:\n        /* \"#utility.yul\":24084:24113   */\n      tag_748\n        /* \"#utility.yul\":24106:24112   */\n      dup3\n        /* \"#utility.yul\":24084:24113   */\n      tag_469\n      jump\t// in\n    tag_748:\n        /* \"#utility.yul\":24076:24113   */\n      swap1\n      pop\n        /* \"#utility.yul\":24168:24172   */\n      0x20\n        /* \"#utility.yul\":24162:24166   */\n      dup2\n        /* \"#utility.yul\":24158:24173   */\n      add\n        /* \"#utility.yul\":24150:24173   */\n      swap1\n      pop\n        /* \"#utility.yul\":23872:24180   */\n      swap2\n      swap1\n      pop\n      jump\t// out\n        /* \"#utility.yul\":24186:24620   */\n    tag_486:\n        /* \"#utility.yul\":24275:24280   */\n      0x00\n        /* \"#utility.yul\":24300:24366   */\n      tag_750\n        /* \"#utility.yul\":24316:24365   */\n      tag_751\n        /* \"#utility.yul\":24358:24364   */\n      dup5\n        /* \"#utility.yul\":24316:24365   */\n      tag_485\n      jump\t// in\n    tag_751:\n        /* \"#utility.yul\":24300:24366   */\n      tag_471\n      jump\t// in\n    tag_750:\n        /* \"#utility.yul\":24291:24366   */\n      swap1\n      pop\n        /* \"#utility.yul\":24389:24395   */\n      dup3\n        /* \"#utility.yul\":24382:24387   */\n      dup2\n        /* \"#utility.yul\":24375:24396   */\n      mstore\n        /* \"#utility.yul\":24427:24431   */\n      0x20\n        /* \"#utility.yul\":24420:24425   */\n      dup2\n        /* \"#utility.yul\":24416:24432   */\n      add\n        /* \"#utility.yul\":24465:24468   */\n      dup5\n        /* \"#utility.yul\":24456:24462   */\n      dup5\n        /* \"#utility.yul\":24451:24454   */\n      dup5\n        /* \"#utility.yul\":24447:24463   */\n      add\n        /* \"#utility.yul\":24444:24469   */\n      gt\n        /* \"#utility.yul\":24441:24553   */\n      iszero\n      tag_752\n      jumpi\n        /* \"#utility.yul\":24472:24551   */\n      tag_753\n      tag_480\n      jump\t// in\n    tag_753:\n        /* \"#utility.yul\":24441:24553   */\n    tag_752:\n        /* \"#utility.yul\":24562:24614   */\n      tag_754\n        /* \"#utility.yul\":24607:24613   */\n      dup5\n        /* \"#utility.yul\":24602:24605   */\n      dup3\n        /* \"#utility.yul\":24597:24600   */\n      dup6\n        /* \"#utility.yul\":24562:24614   */\n      tag_482\n      jump\t// in\n    tag_754:\n        /* \"#utility.yul\":24281:24620   */\n      pop\n        /* \"#utility.yul\":24186:24620   */\n      swap4\n      swap3\n      pop\n      pop\n      pop\n      jump\t// out\n        /* \"#utility.yul\":24640:24995   */\n    tag_487:\n        /* \"#utility.yul\":24707:24712   */\n      0x00\n        /* \"#utility.yul\":24756:24759   */\n      dup3\n        /* \"#utility.yul\":24749:24753   */\n      0x1f\n        /* \"#utility.yul\":24741:24747   */\n      dup4\n        /* \"#utility.yul\":24737:24754   */\n      add\n        /* \"#utility.yul\":24733:24760   */\n      slt\n        /* \"#utility.yul\":24723:24845   */\n      tag_756\n      jumpi\n        /* \"#utility.yul\":24764:24843   */\n      tag_757\n      tag_424\n      jump\t// in\n    tag_757:\n        /* \"#utility.yul\":24723:24845   */\n    tag_756:\n        /* \"#utility.yul\":24874:24880   */\n      dup2\n        /* \"#utility.yul\":24868:24881   */\n      mload\n        /* \"#utility.yul\":24899:24989   */\n      tag_758\n        /* \"#utility.yul\":24985:24988   */\n      dup5\n        /* \"#utility.yul\":24977:24983   */\n      dup3\n        /* \"#utility.yul\":24970:24974   */\n      0x20\n        /* \"#utility.yul\":24962:24968   */\n      dup7\n        /* \"#utility.yul\":24958:24975   */\n      add\n        /* \"#utility.yul\":24899:24989   */\n      tag_486\n      jump\t// in\n    tag_758:\n        /* \"#utility.yul\":24890:24989   */\n      swap2\n      pop\n        /* \"#utility.yul\":24713:24995   */\n      pop\n        /* \"#utility.yul\":24640:24995   */\n      swap3\n      swap2\n      pop\n      pop\n      jump\t// out\n        /* \"#utility.yul\":25001:26650   */\n    tag_234:\n        /* \"#utility.yul\":25144:25150   */\n      0x00\n        /* \"#utility.yul\":25152:25158   */\n      dup1\n        /* \"#utility.yul\":25160:25166   */\n      0x00\n        /* \"#utility.yul\":25168:25174   */\n      dup1\n        /* \"#utility.yul\":25176:25182   */\n      0x00\n        /* \"#utility.yul\":25184:25190   */\n      dup1\n        /* \"#utility.yul\":25233:25236   */\n      0xc0\n        /* \"#utility.yul\":25221:25230   */\n      dup8\n        /* \"#utility.yul\":25212:25219   */\n      dup10\n        /* \"#utility.yul\":25208:25231   */\n      sub\n        /* \"#utility.yul\":25204:25237   */\n      slt\n        /* \"#utility.yul\":25201:25321   */\n      iszero\n      tag_760\n      jumpi\n        /* \"#utility.yul\":25240:25319   */\n      tag_761\n      tag_417\n      jump\t// in\n    tag_761:\n        /* \"#utility.yul\":25201:25321   */\n    tag_760:\n        /* \"#utility.yul\":25360:25361   */\n      0x00\n        /* \"#utility.yul\":25385:25449   */\n      tag_762\n        /* \"#utility.yul\":25441:25448   */\n      dup10\n        /* \"#utility.yul\":25432:25438   */\n      dup3\n        /* \"#utility.yul\":25421:25430   */\n      dup11\n        /* \"#utility.yul\":25417:25439   */\n      add\n        /* \"#utility.yul\":25385:25449   */\n      tag_478\n      jump\t// in\n    tag_762:\n        /* \"#utility.yul\":25375:25449   */\n      swap7\n      pop\n        /* \"#utility.yul\":25331:25459   */\n      pop\n        /* \"#utility.yul\":25498:25500   */\n      0x20\n        /* \"#utility.yul\":25524:25588   */\n      tag_763\n        /* \"#utility.yul\":25580:25587   */\n      dup10\n        /* \"#utility.yul\":25571:25577   */\n      dup3\n        /* \"#utility.yul\":25560:25569   */\n      dup11\n        /* \"#utility.yul\":25556:25578   */\n      add\n        /* \"#utility.yul\":25524:25588   */\n      tag_478\n      jump\t// in\n    tag_763:\n        /* \"#utility.yul\":25514:25588   */\n      swap6\n      pop\n        /* \"#utility.yul\":25469:25598   */\n      pop\n        /* \"#utility.yul\":25637:25639   */\n      0x40\n        /* \"#utility.yul\":25663:25727   */\n      tag_764\n        /* \"#utility.yul\":25719:25726   */\n      dup10\n        /* \"#utility.yul\":25710:25716   */\n      dup3\n        /* \"#utility.yul\":25699:25708   */\n      dup11\n        /* \"#utility.yul\":25695:25717   */\n      add\n        /* \"#utility.yul\":25663:25727   */\n      tag_479\n      jump\t// in\n    tag_764:\n        /* \"#utility.yul\":25653:25727   */\n      swap5\n      pop\n        /* \"#utility.yul\":25608:25737   */\n      pop\n        /* \"#utility.yul\":25797:25799   */\n      0x60\n        /* \"#utility.yul\":25786:25795   */\n      dup8\n        /* \"#utility.yul\":25782:25800   */\n      add\n        /* \"#utility.yul\":25776:25801   */\n      mload\n        /* \"#utility.yul\":25828:25846   */\n      0xffffffffffffffff\n        /* \"#utility.yul\":25820:25826   */\n      dup2\n        /* \"#utility.yul\":25817:25847   */\n      gt\n        /* \"#utility.yul\":25814:25931   */\n      iszero\n      tag_765\n      jumpi\n        /* \"#utility.yul\":25850:25929   */\n      tag_766\n      tag_418\n      jump\t// in\n    tag_766:\n        /* \"#utility.yul\":25814:25931   */\n    tag_765:\n        /* \"#utility.yul\":25955:26028   */\n      tag_767\n        /* \"#utility.yul\":26020:26027   */\n      dup10\n        /* \"#utility.yul\":26011:26017   */\n      dup3\n        /* \"#utility.yul\":26000:26009   */\n      dup11\n        /* \"#utility.yul\":25996:26018   */\n      add\n        /* \"#utility.yul\":25955:26028   */\n      tag_484\n      jump\t// in\n    tag_767:\n        /* \"#utility.yul\":25945:26028   */\n      swap4\n      pop\n        /* \"#utility.yul\":25747:26038   */\n      pop\n        /* \"#utility.yul\":26098:26101   */\n      0x80\n        /* \"#utility.yul\":26087:26096   */\n      dup8\n        /* \"#utility.yul\":26083:26102   */\n      add\n        /* \"#utility.yul\":26077:26103   */\n      mload\n        /* \"#utility.yul\":26130:26148   */\n      0xffffffffffffffff\n        /* \"#utility.yul\":26122:26128   */\n      dup2\n        /* \"#utility.yul\":26119:26149   */\n      gt\n        /* \"#utility.yul\":26116:26233   */\n      iszero\n      tag_768\n      jumpi\n        /* \"#utility.yul\":26152:26231   */\n      tag_769\n      tag_418\n      jump\t// in\n    tag_769:\n        /* \"#utility.yul\":26116:26233   */\n    tag_768:\n        /* \"#utility.yul\":26257:26330   */\n      tag_770\n        /* \"#utility.yul\":26322:26329   */\n      dup10\n        /* \"#utility.yul\":26313:26319   */\n      dup3\n        /* \"#utility.yul\":26302:26311   */\n      dup11\n        /* \"#utility.yul\":26298:26320   */\n      add\n        /* \"#utility.yul\":26257:26330   */\n      tag_484\n      jump\t// in\n    tag_770:\n        /* \"#utility.yul\":26247:26330   */\n      swap3\n      pop\n        /* \"#utility.yul\":26048:26340   */\n      pop\n        /* \"#utility.yul\":26400:26403   */\n      0xa0\n        /* \"#utility.yul\":26389:26398   */\n      dup8\n        /* \"#utility.yul\":26385:26404   */\n      add\n        /* \"#utility.yul\":26379:26405   */\n      mload\n        /* \"#utility.yul\":26432:26450   */\n      0xffffffffffffffff\n        /* \"#utility.yul\":26424:26430   */\n      dup2\n        /* \"#utility.yul\":26421:26451   */\n      gt\n        /* \"#utility.yul\":26418:26535   */\n      iszero\n      tag_771\n      jumpi\n        /* \"#utility.yul\":26454:26533   */\n      tag_772\n      tag_418\n      jump\t// in\n    tag_772:\n        /* \"#utility.yul\":26418:26535   */\n    tag_771:\n        /* \"#utility.yul\":26559:26633   */\n      tag_773\n        /* \"#utility.yul\":26625:26632   */\n      dup10\n        /* \"#utility.yul\":26616:26622   */\n      dup3\n        /* \"#utility.yul\":26605:26614   */\n      dup11\n        /* \"#utility.yul\":26601:26623   */\n      add\n        /* \"#utility.yul\":26559:26633   */\n      tag_487\n      jump\t// in\n    tag_773:\n        /* \"#utility.yul\":26549:26633   */\n      swap2\n      pop\n        /* \"#utility.yul\":26350:26643   */\n      pop\n        /* \"#utility.yul\":25001:26650   */\n      swap3\n      swap6\n      pop\n      swap3\n      swap6\n      pop\n      swap3\n      swap6\n      jump\t// out\n        /* \"#utility.yul\":26656:26799   */\n    tag_488:\n        /* \"#utility.yul\":26723:26732   */\n      0x00\n        /* \"#utility.yul\":26756:26793   */\n      tag_775\n        /* \"#utility.yul\":26787:26792   */\n      dup3\n        /* \"#utility.yul\":26756:26793   */\n      tag_440\n      jump\t// in\n    tag_775:\n        /* \"#utility.yul\":26743:26793   */\n      swap1\n      pop\n        /* \"#utility.yul\":26656:26799   */\n      swap2\n      swap1\n      pop\n      jump\t// out\n        /* \"#utility.yul\":26805:26970   */\n    tag_489:\n        /* \"#utility.yul\":26909:26963   */\n      tag_777\n        /* \"#utility.yul\":26957:26962   */\n      dup2\n        /* \"#utility.yul\":26909:26963   */\n      tag_488\n      jump\t// in\n    tag_777:\n        /* \"#utility.yul\":26904:26907   */\n      dup3\n        /* \"#utility.yul\":26897:26964   */\n      mstore\n        /* \"#utility.yul\":26805:26970   */\n      pop\n      pop\n      jump\t// out\n        /* \"#utility.yul\":26976:27074   */\n    tag_490:\n        /* \"#utility.yul\":27027:27033   */\n      0x00\n        /* \"#utility.yul\":27061:27066   */\n      dup2\n        /* \"#utility.yul\":27055:27067   */\n      mload\n        /* \"#utility.yul\":27045:27067   */\n      swap1\n      pop\n        /* \"#utility.yul\":26976:27074   */\n      swap2\n      swap1\n      pop\n      jump\t// out\n        /* \"#utility.yul\":27080:27248   */\n    tag_491:\n        /* \"#utility.yul\":27163:27174   */\n      0x00\n        /* \"#utility.yul\":27197:27203   */\n      dup3\n        /* \"#utility.yul\":27192:27195   */\n      dup3\n        /* \"#utility.yul\":27185:27204   */\n      mstore\n        /* \"#utility.yul\":27237:27241   */\n      0x20\n        /* \"#utility.yul\":27232:27235   */\n      dup3\n        /* \"#utility.yul\":27228:27242   */\n      add\n        /* \"#utility.yul\":27213:27242   */\n      swap1\n      pop\n        /* \"#utility.yul\":27080:27248   */\n      swap3\n      swap2\n      pop\n      pop\n      jump\t// out\n        /* \"#utility.yul\":27254:27627   */\n    tag_492:\n        /* \"#utility.yul\":27340:27343   */\n      0x00\n        /* \"#utility.yul\":27368:27406   */\n      tag_781\n        /* \"#utility.yul\":27400:27405   */\n      dup3\n        /* \"#utility.yul\":27368:27406   */\n      tag_490\n      jump\t// in\n    tag_781:\n        /* \"#utility.yul\":27422:27492   */\n      tag_782\n        /* \"#utility.yul\":27485:27491   */\n      dup2\n        /* \"#utility.yul\":27480:27483   */\n      dup6\n        /* \"#utility.yul\":27422:27492   */\n      tag_491\n      jump\t// in\n    tag_782:\n        /* \"#utility.yul\":27415:27492   */\n      swap4\n      pop\n        /* \"#utility.yul\":27501:27566   */\n      tag_783\n        /* \"#utility.yul\":27559:27565   */\n      dup2\n        /* \"#utility.yul\":27554:27557   */\n      dup6\n        /* \"#utility.yul\":27547:27551   */\n      0x20\n        /* \"#utility.yul\":27540:27545   */\n      dup7\n        /* \"#utility.yul\":27536:27552   */\n      add\n        /* \"#utility.yul\":27501:27566   */\n      tag_482\n      jump\t// in\n    tag_783:\n        /* \"#utility.yul\":27591:27620   */\n      tag_784\n        /* \"#utility.yul\":27613:27619   */\n      dup2\n        /* \"#utility.yul\":27591:27620   */\n      tag_469\n      jump\t// in\n    tag_784:\n        /* \"#utility.yul\":27586:27589   */\n      dup5\n        /* \"#utility.yul\":27582:27621   */\n      add\n        /* \"#utility.yul\":27575:27621   */\n      swap2\n      pop\n        /* \"#utility.yul\":27344:27627   */\n      pop\n        /* \"#utility.yul\":27254:27627   */\n      swap3\n      swap2\n      pop\n      pop\n      jump\t// out\n        /* \"#utility.yul\":27633:28394   */\n    tag_243:\n        /* \"#utility.yul\":27863:27867   */\n      0x00\n        /* \"#utility.yul\":27901:27904   */\n      0x80\n        /* \"#utility.yul\":27890:27899   */\n      dup3\n        /* \"#utility.yul\":27886:27905   */\n      add\n        /* \"#utility.yul\":27878:27905   */\n      swap1\n      pop\n        /* \"#utility.yul\":27915:28003   */\n      tag_786\n        /* \"#utility.yul\":28000:28001   */\n      0x00\n        /* \"#utility.yul\":27989:27998   */\n      dup4\n        /* \"#utility.yul\":27985:28002   */\n      add\n        /* \"#utility.yul\":27976:27982   */\n      dup8\n        /* \"#utility.yul\":27915:28003   */\n      tag_489\n      jump\t// in\n    tag_786:\n        /* \"#utility.yul\":28013:28085   */\n      tag_787\n        /* \"#utility.yul\":28081:28083   */\n      0x20\n        /* \"#utility.yul\":28070:28079   */\n      dup4\n        /* \"#utility.yul\":28066:28084   */\n      add\n        /* \"#utility.yul\":28057:28063   */\n      dup7\n        /* \"#utility.yul\":28013:28085   */\n      tag_448\n      jump\t// in\n    tag_787:\n        /* \"#utility.yul\":28132:28141   */\n      dup2\n        /* \"#utility.yul\":28126:28130   */\n      dup2\n        /* \"#utility.yul\":28122:28142   */\n      sub\n        /* \"#utility.yul\":28117:28119   */\n      0x40\n        /* \"#utility.yul\":28106:28115   */\n      dup4\n        /* \"#utility.yul\":28102:28120   */\n      add\n        /* \"#utility.yul\":28095:28143   */\n      mstore\n        /* \"#utility.yul\":28160:28236   */\n      tag_788\n        /* \"#utility.yul\":28231:28235   */\n      dup2\n        /* \"#utility.yul\":28222:28228   */\n      dup6\n        /* \"#utility.yul\":28160:28236   */\n      tag_492\n      jump\t// in\n    tag_788:\n        /* \"#utility.yul\":28152:28236   */\n      swap1\n      pop\n        /* \"#utility.yul\":28283:28292   */\n      dup2\n        /* \"#utility.yul\":28277:28281   */\n      dup2\n        /* \"#utility.yul\":28273:28293   */\n      sub\n        /* \"#utility.yul\":28268:28270   */\n      0x60\n        /* \"#utility.yul\":28257:28266   */\n      dup4\n        /* \"#utility.yul\":28253:28271   */\n      add\n        /* \"#utility.yul\":28246:28294   */\n      mstore\n        /* \"#utility.yul\":28311:28387   */\n      tag_789\n        /* \"#utility.yul\":28382:28386   */\n      dup2\n        /* \"#utility.yul\":28373:28379   */\n      dup5\n        /* \"#utility.yul\":28311:28387   */\n      tag_492\n      jump\t// in\n    tag_789:\n        /* \"#utility.yul\":28303:28387   */\n      swap1\n      pop\n        /* \"#utility.yul\":27633:28394   */\n      swap6\n      swap5\n      pop\n      pop\n      pop\n      pop\n      pop\n      jump\t// out\n        /* \"#utility.yul\":28400:28516   */\n    tag_493:\n        /* \"#utility.yul\":28470:28491   */\n      tag_791\n        /* \"#utility.yul\":28485:28490   */\n      dup2\n        /* \"#utility.yul\":28470:28491   */\n      tag_433\n      jump\t// in\n    tag_791:\n        /* \"#utility.yul\":28463:28468   */\n      dup2\n        /* \"#utility.yul\":28460:28492   */\n      eq\n        /* \"#utility.yul\":28450:28510   */\n      tag_792\n      jumpi\n        /* \"#utility.yul\":28506:28507   */\n      0x00\n        /* \"#utility.yul\":28503:28504   */\n      dup1\n        /* \"#utility.yul\":28496:28508   */\n      revert\n        /* \"#utility.yul\":28450:28510   */\n    tag_792:\n        /* \"#utility.yul\":28400:28516   */\n      pop\n      jump\t// out\n        /* \"#utility.yul\":28522:28659   */\n    tag_494:\n        /* \"#utility.yul\":28576:28581   */\n      0x00\n        /* \"#utility.yul\":28607:28613   */\n      dup2\n        /* \"#utility.yul\":28601:28614   */\n      mload\n        /* \"#utility.yul\":28592:28614   */\n      swap1\n      pop\n        /* \"#utility.yul\":28623:28653   */\n      tag_794\n        /* \"#utility.yul\":28647:28652   */\n      dup2\n        /* \"#utility.yul\":28623:28653   */\n      tag_493\n      jump\t// in\n    tag_794:\n        /* \"#utility.yul\":28522:28659   */\n      swap3\n      swap2\n      pop\n      pop\n      jump\t// out\n        /* \"#utility.yul\":28665:29010   */\n    tag_246:\n        /* \"#utility.yul\":28732:28738   */\n      0x00\n        /* \"#utility.yul\":28781:28783   */\n      0x20\n        /* \"#utility.yul\":28769:28778   */\n      dup3\n        /* \"#utility.yul\":28760:28767   */\n      dup5\n        /* \"#utility.yul\":28756:28779   */\n      sub\n        /* \"#utility.yul\":28752:28784   */\n      slt\n        /* \"#utility.yul\":28749:28868   */\n      iszero\n      tag_796\n      jumpi\n        /* \"#utility.yul\":28787:28866   */\n      tag_797\n      tag_417\n      jump\t// in\n    tag_797:\n        /* \"#utility.yul\":28749:28868   */\n    tag_796:\n        /* \"#utility.yul\":28907:28908   */\n      0x00\n        /* \"#utility.yul\":28932:28993   */\n      tag_798\n        /* \"#utility.yul\":28985:28992   */\n      dup5\n        /* \"#utility.yul\":28976:28982   */\n      dup3\n        /* \"#utility.yul\":28965:28974   */\n      dup6\n        /* \"#utility.yul\":28961:28983   */\n      add\n        /* \"#utility.yul\":28932:28993   */\n      tag_494\n      jump\t// in\n    tag_798:\n        /* \"#utility.yul\":28922:28993   */\n      swap2\n      pop\n        /* \"#utility.yul\":28878:29003   */\n      pop\n        /* \"#utility.yul\":28665:29010   */\n      swap3\n      swap2\n      pop\n      pop\n      jump\t// out\n        /* \"#utility.yul\":29016:29195   */\n    tag_495:\n        /* \"#utility.yul\":29156:29187   */\n      0x747275737465642049737375657220616c726561647920657869737473000000\n        /* \"#utility.yul\":29152:29153   */\n      0x00\n        /* \"#utility.yul\":29144:29150   */\n      dup3\n        /* \"#utility.yul\":29140:29154   */\n      add\n        /* \"#utility.yul\":29133:29188   */\n      mstore\n        /* \"#utility.yul\":29016:29195   */\n      pop\n      jump\t// out\n        /* \"#utility.yul\":29201:29567   */\n    tag_496:\n        /* \"#utility.yul\":29343:29346   */\n      0x00\n        /* \"#utility.yul\":29364:29431   */\n      tag_801\n        /* \"#utility.yul\":29428:29430   */\n      0x1d\n        /* \"#utility.yul\":29423:29426   */\n      dup4\n        /* \"#utility.yul\":29364:29431   */\n      tag_456\n      jump\t// in\n    tag_801:\n        /* \"#utility.yul\":29357:29431   */\n      swap2\n      pop\n        /* \"#utility.yul\":29440:29533   */\n      tag_802\n        /* \"#utility.yul\":29529:29532   */\n      dup3\n        /* \"#utility.yul\":29440:29533   */\n      tag_495\n      jump\t// in\n    tag_802:\n        /* \"#utility.yul\":29558:29560   */\n      0x20\n        /* \"#utility.yul\":29553:29556   */\n      dup3\n        /* \"#utility.yul\":29549:29561   */\n      add\n        /* \"#utility.yul\":29542:29561   */\n      swap1\n      pop\n        /* \"#utility.yul\":29201:29567   */\n      swap2\n      swap1\n      pop\n      jump\t// out\n        /* \"#utility.yul\":29573:29992   */\n    tag_278:\n        /* \"#utility.yul\":29739:29743   */\n      0x00\n        /* \"#utility.yul\":29777:29779   */\n      0x20\n        /* \"#utility.yul\":29766:29775   */\n      dup3\n        /* \"#utility.yul\":29762:29780   */\n      add\n        /* \"#utility.yul\":29754:29780   */\n      swap1\n      pop\n        /* \"#utility.yul\":29826:29835   */\n      dup2\n        /* \"#utility.yul\":29820:29824   */\n      dup2\n        /* \"#utility.yul\":29816:29836   */\n      sub\n        /* \"#utility.yul\":29812:29813   */\n      0x00\n        /* \"#utility.yul\":29801:29810   */\n      dup4\n        /* \"#utility.yul\":29797:29814   */\n      add\n        /* \"#utility.yul\":29790:29837   */\n      mstore\n        /* \"#utility.yul\":29854:29985   */\n      tag_804\n        /* \"#utility.yul\":29980:29984   */\n      dup2\n        /* \"#utility.yul\":29854:29985   */\n      tag_496\n      jump\t// in\n    tag_804:\n        /* \"#utility.yul\":29846:29985   */\n      swap1\n      pop\n        /* \"#utility.yul\":29573:29992   */\n      swap2\n      swap1\n      pop\n      jump\t// out\n        /* \"#utility.yul\":29998:30221   */\n    tag_497:\n        /* \"#utility.yul\":30138:30172   */\n      0x7472757374656420636c61696d20746f706963732063616e6e6f742062652065\n        /* \"#utility.yul\":30134:30135   */\n      0x00\n        /* \"#utility.yul\":30126:30132   */\n      dup3\n        /* \"#utility.yul\":30122:30136   */\n      add\n        /* \"#utility.yul\":30115:30173   */\n      mstore\n        /* \"#utility.yul\":30207:30213   */\n      0x6d70747900000000000000000000000000000000000000000000000000000000\n        /* \"#utility.yul\":30202:30204   */\n      0x20\n        /* \"#utility.yul\":30194:30200   */\n      dup3\n        /* \"#utility.yul\":30190:30205   */\n      add\n        /* \"#utility.yul\":30183:30214   */\n      mstore\n        /* \"#utility.yul\":29998:30221   */\n      pop\n      jump\t// out\n        /* \"#utility.yul\":30227:30593   */\n    tag_498:\n        /* \"#utility.yul\":30369:30372   */\n      0x00\n        /* \"#utility.yul\":30390:30457   */\n      tag_807\n        /* \"#utility.yul\":30454:30456   */\n      0x24\n        /* \"#utility.yul\":30449:30452   */\n      dup4\n        /* \"#utility.yul\":30390:30457   */\n      tag_456\n      jump\t// in\n    tag_807:\n        /* \"#utility.yul\":30383:30457   */\n      swap2\n      pop\n        /* \"#utility.yul\":30466:30559   */\n      tag_808\n        /* \"#utility.yul\":30555:30558   */\n      dup3\n        /* \"#utility.yul\":30466:30559   */\n      tag_497\n      jump\t// in\n    tag_808:\n        /* \"#utility.yul\":30584:30586   */\n      0x40\n        /* \"#utility.yul\":30579:30582   */\n      dup3\n        /* \"#utility.yul\":30575:30587   */\n      add\n        /* \"#utility.yul\":30568:30587   */\n      swap1\n      pop\n        /* \"#utility.yul\":30227:30593   */\n      swap2\n      swap1\n      pop\n      jump\t// out\n        /* \"#utility.yul\":30599:31018   */\n    tag_281:\n        /* \"#utility.yul\":30765:30769   */\n      0x00\n        /* \"#utility.yul\":30803:30805   */\n      0x20\n        /* \"#utility.yul\":30792:30801   */\n      dup3\n        /* \"#utility.yul\":30788:30806   */\n      add\n        /* \"#utility.yul\":30780:30806   */\n      swap1\n      pop\n        /* \"#utility.yul\":30852:30861   */\n      dup2\n        /* \"#utility.yul\":30846:30850   */\n      dup2\n        /* \"#utility.yul\":30842:30862   */\n      sub\n        /* \"#utility.yul\":30838:30839   */\n      0x00\n        /* \"#utility.yul\":30827:30836   */\n      dup4\n        /* \"#utility.yul\":30823:30840   */\n      add\n        /* \"#utility.yul\":30816:30863   */\n      mstore\n        /* \"#utility.yul\":30880:31011   */\n      tag_810\n        /* \"#utility.yul\":31006:31010   */\n      dup2\n        /* \"#utility.yul\":30880:31011   */\n      tag_498\n      jump\t// in\n    tag_810:\n        /* \"#utility.yul\":30872:31011   */\n      swap1\n      pop\n        /* \"#utility.yul\":30599:31018   */\n      swap2\n      swap1\n      pop\n      jump\t// out\n        /* \"#utility.yul\":31024:31251   */\n    tag_499:\n        /* \"#utility.yul\":31164:31198   */\n      0x63616e6e6f742068617665206d6f7265207468616e2035302074727573746564\n        /* \"#utility.yul\":31160:31161   */\n      0x00\n        /* \"#utility.yul\":31152:31158   */\n      dup3\n        /* \"#utility.yul\":31148:31162   */\n      add\n        /* \"#utility.yul\":31141:31199   */\n      mstore\n        /* \"#utility.yul\":31233:31243   */\n      0x2069737375657273000000000000000000000000000000000000000000000000\n        /* \"#utility.yul\":31228:31230   */\n      0x20\n        /* \"#utility.yul\":31220:31226   */\n      dup3\n        /* \"#utility.yul\":31216:31231   */\n      add\n        /* \"#utility.yul\":31209:31244   */\n      mstore\n        /* \"#utility.yul\":31024:31251   */\n      pop\n      jump\t// out\n        /* \"#utility.yul\":31257:31623   */\n    tag_500:\n        /* \"#utility.yul\":31399:31402   */\n      0x00\n        /* \"#utility.yul\":31420:31487   */\n      tag_813\n        /* \"#utility.yul\":31484:31486   */\n      0x28\n        /* \"#utility.yul\":31479:31482   */\n      dup4\n        /* \"#utility.yul\":31420:31487   */\n      tag_456\n      jump\t// in\n    tag_813:\n        /* \"#utility.yul\":31413:31487   */\n      swap2\n      pop\n        /* \"#utility.yul\":31496:31589   */\n      tag_814\n        /* \"#utility.yul\":31585:31588   */\n      dup3\n        /* \"#utility.yul\":31496:31589   */\n      tag_499\n      jump\t// in\n    tag_814:\n        /* \"#utility.yul\":31614:31616   */\n      0x40\n        /* \"#utility.yul\":31609:31612   */\n      dup3\n        /* \"#utility.yul\":31605:31617   */\n      add\n        /* \"#utility.yul\":31598:31617   */\n      swap1\n      pop\n        /* \"#utility.yul\":31257:31623   */\n      swap2\n      swap1\n      pop\n      jump\t// out\n        /* \"#utility.yul\":31629:32048   */\n    tag_286:\n        /* \"#utility.yul\":31795:31799   */\n      0x00\n        /* \"#utility.yul\":31833:31835   */\n      0x20\n        /* \"#utility.yul\":31822:31831   */\n      dup3\n        /* \"#utility.yul\":31818:31836   */\n      add\n        /* \"#utility.yul\":31810:31836   */\n      swap1\n      pop\n        /* \"#utility.yul\":31882:31891   */\n      dup2\n        /* \"#utility.yul\":31876:31880   */\n      dup2\n        /* \"#utility.yul\":31872:31892   */\n      sub\n        /* \"#utility.yul\":31868:31869   */\n      0x00\n        /* \"#utility.yul\":31857:31866   */\n      dup4\n        /* \"#utility.yul\":31853:31870   */\n      add\n        /* \"#utility.yul\":31846:31893   */\n      mstore\n        /* \"#utility.yul\":31910:32041   */\n      tag_816\n        /* \"#utility.yul\":32036:32040   */\n      dup2\n        /* \"#utility.yul\":31910:32041   */\n      tag_500\n      jump\t// in\n    tag_816:\n        /* \"#utility.yul\":31902:32041   */\n      swap1\n      pop\n        /* \"#utility.yul\":31629:32048   */\n      swap2\n      swap1\n      pop\n      jump\t// out\n        /* \"#utility.yul\":32054:32232   */\n    tag_501:\n        /* \"#utility.yul\":32194:32224   */\n      0x747275737465642049737375657220646f65736e277420657869737400000000\n        /* \"#utility.yul\":32190:32191   */\n      0x00\n        /* \"#utility.yul\":32182:32188   */\n      dup3\n        /* \"#utility.yul\":32178:32192   */\n      add\n        /* \"#utility.yul\":32171:32225   */\n      mstore\n        /* \"#utility.yul\":32054:32232   */\n      pop\n      jump\t// out\n        /* \"#utility.yul\":32238:32604   */\n    tag_502:\n        /* \"#utility.yul\":32380:32383   */\n      0x00\n        /* \"#utility.yul\":32401:32468   */\n      tag_819\n        /* \"#utility.yul\":32465:32467   */\n      0x1c\n        /* \"#utility.yul\":32460:32463   */\n      dup4\n        /* \"#utility.yul\":32401:32468   */\n      tag_456\n      jump\t// in\n    tag_819:\n        /* \"#utility.yul\":32394:32468   */\n      swap2\n      pop\n        /* \"#utility.yul\":32477:32570   */\n      tag_820\n        /* \"#utility.yul\":32566:32569   */\n      dup3\n        /* \"#utility.yul\":32477:32570   */\n      tag_501\n      jump\t// in\n    tag_820:\n        /* \"#utility.yul\":32595:32597   */\n      0x20\n        /* \"#utility.yul\":32590:32593   */\n      dup3\n        /* \"#utility.yul\":32586:32598   */\n      add\n        /* \"#utility.yul\":32579:32598   */\n      swap1\n      pop\n        /* \"#utility.yul\":32238:32604   */\n      swap2\n      swap1\n      pop\n      jump\t// out\n        /* \"#utility.yul\":32610:33029   */\n    tag_365:\n        /* \"#utility.yul\":32776:32780   */\n      0x00\n        /* \"#utility.yul\":32814:32816   */\n      0x20\n        /* \"#utility.yul\":32803:32812   */\n      dup3\n        /* \"#utility.yul\":32799:32817   */\n      add\n        /* \"#utility.yul\":32791:32817   */\n      swap1\n      pop\n        /* \"#utility.yul\":32863:32872   */\n      dup2\n        /* \"#utility.yul\":32857:32861   */\n      dup2\n        /* \"#utility.yul\":32853:32873   */\n      sub\n        /* \"#utility.yul\":32849:32850   */\n      0x00\n        /* \"#utility.yul\":32838:32847   */\n      dup4\n        /* \"#utility.yul\":32834:32851   */\n      add\n        /* \"#utility.yul\":32827:32874   */\n      mstore\n        /* \"#utility.yul\":32891:33022   */\n      tag_822\n        /* \"#utility.yul\":33017:33021   */\n      dup2\n        /* \"#utility.yul\":32891:33022   */\n      tag_502\n      jump\t// in\n    tag_822:\n        /* \"#utility.yul\":32883:33022   */\n      swap1\n      pop\n        /* \"#utility.yul\":32610:33029   */\n      swap2\n      swap1\n      pop\n      jump\t// out\n        /* \"#utility.yul\":33035:33256   */\n    tag_503:\n        /* \"#utility.yul\":33175:33209   */\n      0x63616e6e6f742072657175697265206d6f7265207468616e20313520746f7069\n        /* \"#utility.yul\":33171:33172   */\n      0x00\n        /* \"#utility.yul\":33163:33169   */\n      dup3\n        /* \"#utility.yul\":33159:33173   */\n      add\n        /* \"#utility.yul\":33152:33210   */\n      mstore\n        /* \"#utility.yul\":33244:33248   */\n      0x6373000000000000000000000000000000000000000000000000000000000000\n        /* \"#utility.yul\":33239:33241   */\n      0x20\n        /* \"#utility.yul\":33231:33237   */\n      dup3\n        /* \"#utility.yul\":33227:33242   */\n      add\n        /* \"#utility.yul\":33220:33249   */\n      mstore\n        /* \"#utility.yul\":33035:33256   */\n      pop\n      jump\t// out\n        /* \"#utility.yul\":33262:33628   */\n    tag_504:\n        /* \"#utility.yul\":33404:33407   */\n      0x00\n        /* \"#utility.yul\":33425:33492   */\n      tag_825\n        /* \"#utility.yul\":33489:33491   */\n      0x22\n        /* \"#utility.yul\":33484:33487   */\n      dup4\n        /* \"#utility.yul\":33425:33492   */\n      tag_456\n      jump\t// in\n    tag_825:\n        /* \"#utility.yul\":33418:33492   */\n      swap2\n      pop\n        /* \"#utility.yul\":33501:33594   */\n      tag_826\n        /* \"#utility.yul\":33590:33593   */\n      dup3\n        /* \"#utility.yul\":33501:33594   */\n      tag_503\n      jump\t// in\n    tag_826:\n        /* \"#utility.yul\":33619:33621   */\n      0x40\n        /* \"#utility.yul\":33614:33617   */\n      dup3\n        /* \"#utility.yul\":33610:33622   */\n      add\n        /* \"#utility.yul\":33603:33622   */\n      swap1\n      pop\n        /* \"#utility.yul\":33262:33628   */\n      swap2\n      swap1\n      pop\n      jump\t// out\n        /* \"#utility.yul\":33634:34053   */\n    tag_373:\n        /* \"#utility.yul\":33800:33804   */\n      0x00\n        /* \"#utility.yul\":33838:33840   */\n      0x20\n        /* \"#utility.yul\":33827:33836   */\n      dup3\n        /* \"#utility.yul\":33823:33841   */\n      add\n        /* \"#utility.yul\":33815:33841   */\n      swap1\n      pop\n        /* \"#utility.yul\":33887:33896   */\n      dup2\n        /* \"#utility.yul\":33881:33885   */\n      dup2\n        /* \"#utility.yul\":33877:33897   */\n      sub\n        /* \"#utility.yul\":33873:33874   */\n      0x00\n        /* \"#utility.yul\":33862:33871   */\n      dup4\n        /* \"#utility.yul\":33858:33875   */\n      add\n        /* \"#utility.yul\":33851:33898   */\n      mstore\n        /* \"#utility.yul\":33915:34046   */\n      tag_828\n        /* \"#utility.yul\":34041:34045   */\n      dup2\n        /* \"#utility.yul\":33915:34046   */\n      tag_504\n      jump\t// in\n    tag_828:\n        /* \"#utility.yul\":33907:34046   */\n      swap1\n      pop\n        /* \"#utility.yul\":33634:34053   */\n      swap2\n      swap1\n      pop\n      jump\t// out\n        /* \"#utility.yul\":34059:34234   */\n    tag_505:\n        /* \"#utility.yul\":34199:34226   */\n      0x636c61696d546f70696320616c72656164792065786973747300000000000000\n        /* \"#utility.yul\":34195:34196   */\n      0x00\n        /* \"#utility.yul\":34187:34193   */\n      dup3\n        /* \"#utility.yul\":34183:34197   */\n      add\n        /* \"#utility.yul\":34176:34227   */\n      mstore\n        /* \"#utility.yul\":34059:34234   */\n      pop\n      jump\t// out\n        /* \"#utility.yul\":34240:34606   */\n    tag_506:\n        /* \"#utility.yul\":34382:34385   */\n      0x00\n        /* \"#utility.yul\":34403:34470   */\n      tag_831\n        /* \"#utility.yul\":34467:34469   */\n      0x19\n        /* \"#utility.yul\":34462:34465   */\n      dup4\n        /* \"#utility.yul\":34403:34470   */\n      tag_456\n      jump\t// in\n    tag_831:\n        /* \"#utility.yul\":34396:34470   */\n      swap2\n      pop\n        /* \"#utility.yul\":34479:34572   */\n      tag_832\n        /* \"#utility.yul\":34568:34571   */\n      dup3\n        /* \"#utility.yul\":34479:34572   */\n      tag_505\n      jump\t// in\n    tag_832:\n        /* \"#utility.yul\":34597:34599   */\n      0x20\n        /* \"#utility.yul\":34592:34595   */\n      dup3\n        /* \"#utility.yul\":34588:34600   */\n      add\n        /* \"#utility.yul\":34581:34600   */\n      swap1\n      pop\n        /* \"#utility.yul\":34240:34606   */\n      swap2\n      swap1\n      pop\n      jump\t// out\n        /* \"#utility.yul\":34612:35031   */\n    tag_382:\n        /* \"#utility.yul\":34778:34782   */\n      0x00\n        /* \"#utility.yul\":34816:34818   */\n      0x20\n        /* \"#utility.yul\":34805:34814   */\n      dup3\n        /* \"#utility.yul\":34801:34819   */\n      add\n        /* \"#utility.yul\":34793:34819   */\n      swap1\n      pop\n        /* \"#utility.yul\":34865:34874   */\n      dup2\n        /* \"#utility.yul\":34859:34863   */\n      dup2\n        /* \"#utility.yul\":34855:34875   */\n      sub\n        /* \"#utility.yul\":34851:34852   */\n      0x00\n        /* \"#utility.yul\":34840:34849   */\n      dup4\n        /* \"#utility.yul\":34836:34853   */\n      add\n        /* \"#utility.yul\":34829:34876   */\n      mstore\n        /* \"#utility.yul\":34893:35024   */\n      tag_834\n        /* \"#utility.yul\":35019:35023   */\n      dup2\n        /* \"#utility.yul\":34893:35024   */\n      tag_506\n      jump\t// in\n    tag_834:\n        /* \"#utility.yul\":34885:35024   */\n      swap1\n      pop\n        /* \"#utility.yul\":34612:35031   */\n      swap2\n      swap1\n      pop\n      jump\t// out\n\n    auxdata: 0xa2646970667358221220c4e9276c8565823d82de4dc1a2846d0e8abbda47f609f07cb84265fb6349d39b64736f6c63430008140033\n}\n",
				"bytecode": {
					"linkReferences": {},
					"object": "608060405234801562000010575f80fd5b50335f73ffffffffffffffffffffffffffffffffffffffff168173ffffffffffffffffffffffffffffffffffffffff160362000085575f6040517f1e4fbdf70000000000000000000000000000000000000000000000000000000081526004016200007c9190620001a1565b60405180910390fd5b62000096816200009d60201b60201c565b50620001bc565b5f805f9054906101000a900473ffffffffffffffffffffffffffffffffffffffff169050815f806101000a81548173ffffffffffffffffffffffffffffffffffffffff021916908373ffffffffffffffffffffffffffffffffffffffff1602179055508173ffffffffffffffffffffffffffffffffffffffff168173ffffffffffffffffffffffffffffffffffffffff167f8be0079c531659141344cd1fd0a4f28419497f9722a3daafe3b4186f6b6457e060405160405180910390a35050565b5f73ffffffffffffffffffffffffffffffffffffffff82169050919050565b5f62000189826200015e565b9050919050565b6200019b816200017d565b82525050565b5f602082019050620001b65f83018462000190565b92915050565b6130d880620001ca5f395ff3fe608060405234801561000f575f80fd5b506004361061011f575f3560e01c8063b5fa8693116100ab578063c7b225511161006f578063c7b225511461033b578063c801dd4014610357578063d9dd24c514610387578063ef2ed1a4146103a5578063f2fde38b146103d55761011f565b8063b5fa86931461025f578063b93d28eb1461028f578063ba64c341146102ab578063be36359f146102db578063c28fb2781461030b5761011f565b806363a9c3d7116100f257806363a9c3d7146101bb578063715018a6146101eb5780638da5cb5b146101f557806393e9f801146102135780639f63ea98146102435761011f565b806304bc7e8414610123578063082978461461013f57806334a899871461015b57806352c111d11461018b575b5f80fd5b61013d60048036038101906101389190612083565b6103f1565b005b61015960048036038101906101549190612113565b610945565b005b61017560048036038101906101709190612168565b610a3a565b60405161018291906121c0565b60405180910390f35b6101a560048036038101906101a09190612113565b610b24565b6040516101b291906122dc565b60405180910390f35b6101d560048036038101906101d091906122fc565b610bc0565b6040516101e291906121c0565b60405180910390f35b6101f3610fc3565b005b6101fd610fd6565b60405161020a9190612336565b60405180910390f35b61022d6004803603810190610228919061234f565b610ffd565b60405161023a919061239c565b60405180910390f35b61025d60048036038101906102589190612083565b611045565b005b61027960048036038101906102749190612113565b6113bc565b60405161028691906123c4565b60405180910390f35b6102a960048036038101906102a491906123dd565b6113dc565b005b6102c560048036038101906102c09190612168565b611967565b6040516102d291906123c4565b60405180910390f35b6102f560048036038101906102f09190612113565b611992565b60405161030291906121c0565b60405180910390f35b610325600480360381019061032091906123dd565b6119f2565b60405161033291906124bf565b60405180910390f35b61035560048036038101906103509190612113565b611b07565b005b610371600480360381019061036c9190612113565b611c2e565b60405161037e919061239c565b60405180910390f35b61038f611c69565b60405161039c91906122dc565b60405180910390f35b6103bf60048036038101906103ba91906122fc565b611cf4565b6040516103cc91906121c0565b60405180910390f35b6103ef60048036038101906103ea91906122fc565b611d4f565b005b6103f9611dd3565b5f73ffffffffffffffffffffffffffffffffffffffff168373ffffffffffffffffffffffffffffffffffffffff1603610467576040517f08c379a000000000000000000000000000000000000000000000000000000000815260040161045e90612539565b60405180910390fd5b5f60035f8573ffffffffffffffffffffffffffffffffffffffff1673ffffffffffffffffffffffffffffffffffffffff1681526020019081526020015f2080549050036104e9576040517f08c379a00000000000000000000000000000000000000000000000000000000081526004016104e0906125a1565b60405180910390fd5b600f828290501115610530576040517f08c379a00000000000000000000000000000000000000000000000000000000081526004016105279061262f565b60405180910390fd5b5f8282905011610575576040517f08c379a000000000000000000000000000000000000000000000000000000000815260040161056c90612697565b60405180910390fd5b5f5b60035f8573ffffffffffffffffffffffffffffffffffffffff1673ffffffffffffffffffffffffffffffffffffffff1681526020019081526020015f20805490508110156107f9575f60035f8673ffffffffffffffffffffffffffffffffffffffff1673ffffffffffffffffffffffffffffffffffffffff1681526020019081526020015f20828154811061060f5761060e6126b5565b5b905f5260205f20015490505f60045f8381526020019081526020015f208054905090505f5b818110156107e3578673ffffffffffffffffffffffffffffffffffffffff1660045f8581526020019081526020015f208281548110610676576106756126b5565b5b905f5260205f20015f9054906101000a900473ffffffffffffffffffffffffffffffffffffffff1673ffffffffffffffffffffffffffffffffffffffff16036107d05760045f8481526020019081526020015f206001836106d7919061270f565b815481106106e8576106e76126b5565b5b905f5260205f20015f9054906101000a900473ffffffffffffffffffffffffffffffffffffffff1660045f8581526020019081526020015f208281548110610733576107326126b5565b5b905f5260205f20015f6101000a81548173ffffffffffffffffffffffffffffffffffffffff021916908373ffffffffffffffffffffffffffffffffffffffff16021790555060045f8481526020019081526020015f2080548061079957610798612742565b5b600190038181905f5260205f20015f6101000a81549073ffffffffffffffffffffffffffffffffffffffff021916905590556107e3565b80806107db9061276f565b915050610634565b50505080806107f19061276f565b915050610577565b50818160035f8673ffffffffffffffffffffffffffffffffffffffff1673ffffffffffffffffffffffffffffffffffffffff1681526020019081526020015f209190610846929190611f22565b505f5b828290508110156108ef5760045f84848481811061086a576108696126b5565b5b9050602002013581526020019081526020015f2084908060018154018082558091505060019003905f5260205f20015f9091909190916101000a81548173ffffffffffffffffffffffffffffffffffffffff021916908373ffffffffffffffffffffffffffffffffffffffff16021790555080806108e79061276f565b915050610849565b508273ffffffffffffffffffffffffffffffffffffffff167fec753cfc52044f61676f18a11e500093a9f2b1cd5e4942bc476f2b0438159bcf838360405161093892919061281e565b60405180910390a2505050565b61094d611dd3565b5f60018054905090505f5b81811015610a35578260018281548110610975576109746126b5565b5b905f5260205f20015403610a225760018083610991919061270f565b815481106109a2576109a16126b5565b5b905f5260205f200154600182815481106109bf576109be6126b5565b5b905f5260205f20018190555060018054806109dd576109dc612742565b5b600190038181905f5260205f20015f90559055827f0b1381093c776453c1bbe54fd68be1b235c65db61d099cb50d194b2991e0eec560405160405180910390a2610a35565b8080610a2d9061276f565b915050610958565b505050565b5f8060035f8573ffffffffffffffffffffffffffffffffffffffff1673ffffffffffffffffffffffffffffffffffffffff1681526020019081526020015f20805480602002602001604051908101604052809291908181526020018280548015610ac157602002820191905f5260205f20905b815481526020019060010190808311610aad575b505050505090505f815190505f5b81811015610b175784838281518110610aeb57610aea6126b5565b5b602002602001015103610b045760019350505050610b1e565b8080610b0f9061276f565b915050610acf565b505f925050505b92915050565b606060045f8381526020019081526020015f20805480602002602001604051908101604052809291908181526020018280548015610bb457602002820191905f5260205f20905b815f9054906101000a900473ffffffffffffffffffffffffffffffffffffffff1673ffffffffffffffffffffffffffffffffffffffff1681526020019060010190808311610b6b575b50505050509050919050565b5f8060018054905003610bd65760019050610fbe565b5f805f6060805f5b600180549050811015610fb3575f3073ffffffffffffffffffffffffffffffffffffffff166352c111d160018481548110610c1c57610c1b6126b5565b5b905f5260205f2001546040518263ffffffff1660e01b8152600401610c4191906123c4565b5f60405180830381865afa158015610c5b573d5f803e3d5ffd5b505050506040513d5f823e3d601f19601f82011682018060405250810190610c83919061299c565b90505f815103610c9c575f975050505050505050610fbe565b5f815167ffffffffffffffff811115610cb857610cb7612850565b5b604051908082528060200260200182016040528015610ce65781602001602082028036833780820191505090505b5090505f5b8251811015610d8557828181518110610d0757610d066126b5565b5b602002602001015160018581548110610d2357610d226126b5565b5b905f5260205f200154604051602001610d3d9291906129e3565b60405160208183030381529060405280519060200120828281518110610d6657610d656126b5565b5b6020026020010181815250508080610d7d9061276f565b915050610ceb565b505f5b8151811015610f9d578a73ffffffffffffffffffffffffffffffffffffffff1663c9100bcb838381518110610dc057610dbf6126b5565b5b60200260200101516040518263ffffffff1660e01b8152600401610de49190612a22565b5f60405180830381865afa158015610dfe573d5f803e3d5ffd5b505050506040513d5f823e3d601f19601f82011682018060405250810190610e269190612bcb565b50809950819a50829b50839c50849d50505050505060018481548110610e4f57610e4e6126b5565b5b905f5260205f2001548903610f64578673ffffffffffffffffffffffffffffffffffffffff1663c0969a6e8c60018781548110610e8f57610e8e6126b5565b5b905f5260205f20015489896040518563ffffffff1660e01b8152600401610eb99493929190612d1a565b602060405180830381865afa925050508015610ef357506040513d601f19601f82011682018060405250810190610ef09190612d95565b60015b610f215760018251610f05919061270f565b8103610f1c575f9950505050505050505050610fbe565b610f5f565b8015610f2c57825191505b80158015610f46575060018351610f43919061270f565b82145b15610f5d575f9a5050505050505050505050610fbe565b505b610f8a565b60018251610f72919061270f565b8103610f89575f9950505050505050505050610fbe565b5b8080610f959061276f565b915050610d88565b5050508080610fab9061276f565b915050610bde565b600196505050505050505b919050565b610fcb611dd3565b610fd45f611e5a565b565b5f805f9054906101000a900473ffffffffffffffffffffffffffffffffffffffff16905090565b6004602052815f5260405f208181548110611016575f80fd5b905f5260205f20015f915091509054906101000a900473ffffffffffffffffffffffffffffffffffffffff1681565b61104d611dd3565b5f73ffffffffffffffffffffffffffffffffffffffff168373ffffffffffffffffffffffffffffffffffffffff16036110bb576040517f08c379a00000000000000000000000000000000000000000000000000000000081526004016110b290612539565b60405180910390fd5b5f60035f8573ffffffffffffffffffffffffffffffffffffffff1673ffffffffffffffffffffffffffffffffffffffff1681526020019081526020015f20805490501461113d576040517f08c379a000000000000000000000000000000000000000000000000000000000815260040161113490612e0a565b60405180910390fd5b5f8282905011611182576040517f08c379a000000000000000000000000000000000000000000000000000000000815260040161117990612e98565b60405180910390fd5b600f8282905011156111c9576040517f08c379a00000000000000000000000000000000000000000000000000000000081526004016111c09061262f565b60405180910390fd5b603260028054905010611211576040517f08c379a000000000000000000000000000000000000000000000000000000000815260040161120890612f26565b60405180910390fd5b600283908060018154018082558091505060019003905f5260205f20015f9091909190916101000a81548173ffffffffffffffffffffffffffffffffffffffff021916908373ffffffffffffffffffffffffffffffffffffffff160217905550818160035f8673ffffffffffffffffffffffffffffffffffffffff1673ffffffffffffffffffffffffffffffffffffffff1681526020019081526020015f2091906112bd929190611f22565b505f5b828290508110156113665760045f8484848181106112e1576112e06126b5565b5b9050602002013581526020019081526020015f2084908060018154018082558091505060019003905f5260205f20015f9091909190916101000a81548173ffffffffffffffffffffffffffffffffffffffff021916908373ffffffffffffffffffffffffffffffffffffffff160217905550808061135e9061276f565b9150506112c0565b508273ffffffffffffffffffffffffffffffffffffffff167ffedc33fd34859594822c0ff6f3f4f9fc279cc6d5cae53068f706a088e450087283836040516113af92919061281e565b60405180910390a2505050565b600181815481106113cb575f80fd5b905f5260205f20015f915090505481565b6113e4611dd3565b5f73ffffffffffffffffffffffffffffffffffffffff168173ffffffffffffffffffffffffffffffffffffffff1603611452576040517f08c379a000000000000000000000000000000000000000000000000000000000815260040161144990612539565b60405180910390fd5b5f60035f8373ffffffffffffffffffffffffffffffffffffffff1673ffffffffffffffffffffffffffffffffffffffff1681526020019081526020015f2080549050036114d4576040517f08c379a00000000000000000000000000000000000000000000000000000000081526004016114cb906125a1565b60405180910390fd5b5f60028054905090505f5b81811015611652578273ffffffffffffffffffffffffffffffffffffffff1660028281548110611512576115116126b5565b5b905f5260205f20015f9054906101000a900473ffffffffffffffffffffffffffffffffffffffff1673ffffffffffffffffffffffffffffffffffffffff160361163f576002600183611564919061270f565b81548110611575576115746126b5565b5b905f5260205f20015f9054906101000a900473ffffffffffffffffffffffffffffffffffffffff16600282815481106115b1576115b06126b5565b5b905f5260205f20015f6101000a81548173ffffffffffffffffffffffffffffffffffffffff021916908373ffffffffffffffffffffffffffffffffffffffff160217905550600280548061160857611607612742565b5b600190038181905f5260205f20015f6101000a81549073ffffffffffffffffffffffffffffffffffffffff02191690559055611652565b808061164a9061276f565b9150506114df565b505f5b60035f8473ffffffffffffffffffffffffffffffffffffffff1673ffffffffffffffffffffffffffffffffffffffff1681526020019081526020015f20805490508110156118d7575f60035f8573ffffffffffffffffffffffffffffffffffffffff1673ffffffffffffffffffffffffffffffffffffffff1681526020019081526020015f2082815481106116ed576116ec6126b5565b5b905f5260205f20015490505f60045f8381526020019081526020015f208054905090505f5b818110156118c1578573ffffffffffffffffffffffffffffffffffffffff1660045f8581526020019081526020015f208281548110611754576117536126b5565b5b905f5260205f20015f9054906101000a900473ffffffffffffffffffffffffffffffffffffffff1673ffffffffffffffffffffffffffffffffffffffff16036118ae5760045f8481526020019081526020015f206001836117b5919061270f565b815481106117c6576117c56126b5565b5b905f5260205f20015f9054906101000a900473ffffffffffffffffffffffffffffffffffffffff1660045f8581526020019081526020015f208281548110611811576118106126b5565b5b905f5260205f20015f6101000a81548173ffffffffffffffffffffffffffffffffffffffff021916908373ffffffffffffffffffffffffffffffffffffffff16021790555060045f8481526020019081526020015f2080548061187757611876612742565b5b600190038181905f5260205f20015f6101000a81549073ffffffffffffffffffffffffffffffffffffffff021916905590556118c1565b80806118b99061276f565b915050611712565b50505080806118cf9061276f565b915050611655565b5060035f8373ffffffffffffffffffffffffffffffffffffffff1673ffffffffffffffffffffffffffffffffffffffff1681526020019081526020015f205f6119209190611f6d565b8173ffffffffffffffffffffffffffffffffffffffff167f2214ded40113cc3fb63fc206cafee88270b0a903dac7245d54efdde30ebb032160405160405180910390a25050565b6003602052815f5260405f208181548110611980575f80fd5b905f5260205f20015f91509150505481565b5f8060018054905090505f5b818110156119e75783600182815481106119bb576119ba6126b5565b5b905f5260205f200154036119d4576001925050506119ed565b80806119df9061276f565b91505061199e565b505f9150505b919050565b60605f60035f8473ffffffffffffffffffffffffffffffffffffffff1673ffffffffffffffffffffffffffffffffffffffff1681526020019081526020015f208054905003611a76576040517f08c379a0000000000000000000000000000000000000000000000000000000008152600401611a6d90612f8e565b60405180910390fd5b60035f8373ffffffffffffffffffffffffffffffffffffffff1673ffffffffffffffffffffffffffffffffffffffff1681526020019081526020015f20805480602002602001604051908101604052809291908181526020018280548015611afb57602002820191905f5260205f20905b815481526020019060010190808311611ae7575b50505050509050919050565b611b0f611dd3565b5f6001805490509050600f8110611b5b576040517f08c379a0000000000000000000000000000000000000000000000000000000008152600401611b529061301c565b60405180910390fd5b5f5b81811015611bd6578260018281548110611b7a57611b796126b5565b5b905f5260205f20015403611bc3576040517f08c379a0000000000000000000000000000000000000000000000000000000008152600401611bba90613084565b60405180910390fd5b8080611bce9061276f565b915050611b5d565b50600182908060018154018082558091505060019003905f5260205f20015f9091909190915055817f01c928b7f7ade2949e92366aa9454dbef3a416b731cf6ec786ba9595bbd814d660405160405180910390a25050565b60028181548110611c3d575f80fd5b905f5260205f20015f915054906101000a900473ffffffffffffffffffffffffffffffffffffffff1681565b60606002805480602002602001604051908101604052809291908181526020018280548015611cea57602002820191905f5260205f20905b815f9054906101000a900473ffffffffffffffffffffffffffffffffffffffff1673ffffffffffffffffffffffffffffffffffffffff1681526020019060010190808311611ca1575b5050505050905090565b5f8060035f8473ffffffffffffffffffffffffffffffffffffffff1673ffffffffffffffffffffffffffffffffffffffff1681526020019081526020015f20805490501115611d465760019050611d4a565b5f90505b919050565b611d57611dd3565b5f73ffffffffffffffffffffffffffffffffffffffff168173ffffffffffffffffffffffffffffffffffffffff1603611dc7575f6040517f1e4fbdf7000000000000000000000000000000000000000000000000000000008152600401611dbe9190612336565b60405180910390fd5b611dd081611e5a565b50565b611ddb611f1b565b73ffffffffffffffffffffffffffffffffffffffff16611df9610fd6565b73ffffffffffffffffffffffffffffffffffffffff1614611e5857611e1c611f1b565b6040517f118cdaa7000000000000000000000000000000000000000000000000000000008152600401611e4f9190612336565b60405180910390fd5b565b5f805f9054906101000a900473ffffffffffffffffffffffffffffffffffffffff169050815f806101000a81548173ffffffffffffffffffffffffffffffffffffffff021916908373ffffffffffffffffffffffffffffffffffffffff1602179055508173ffffffffffffffffffffffffffffffffffffffff168173ffffffffffffffffffffffffffffffffffffffff167f8be0079c531659141344cd1fd0a4f28419497f9722a3daafe3b4186f6b6457e060405160405180910390a35050565b5f33905090565b828054828255905f5260205f20908101928215611f5c579160200282015b82811115611f5b578235825591602001919060010190611f40565b5b509050611f699190611f8b565b5090565b5080545f8255905f5260205f2090810190611f889190611f8b565b50565b5b80821115611fa2575f815f905550600101611f8c565b5090565b5f604051905090565b5f80fd5b5f80fd5b5f73ffffffffffffffffffffffffffffffffffffffff82169050919050565b5f611fe082611fb7565b9050919050565b5f611ff182611fd6565b9050919050565b61200181611fe7565b811461200b575f80fd5b50565b5f8135905061201c81611ff8565b92915050565b5f80fd5b5f80fd5b5f80fd5b5f8083601f84011261204357612042612022565b5b8235905067ffffffffffffffff8111156120605761205f612026565b5b60208301915083602082028301111561207c5761207b61202a565b5b9250929050565b5f805f6040848603121561209a57612099611faf565b5b5f6120a78682870161200e565b935050602084013567ffffffffffffffff8111156120c8576120c7611fb3565b5b6120d48682870161202e565b92509250509250925092565b5f819050919050565b6120f2816120e0565b81146120fc575f80fd5b50565b5f8135905061210d816120e9565b92915050565b5f6020828403121561212857612127611faf565b5b5f612135848285016120ff565b91505092915050565b61214781611fd6565b8114612151575f80fd5b50565b5f813590506121628161213e565b92915050565b5f806040838503121561217e5761217d611faf565b5b5f61218b85828601612154565b925050602061219c858286016120ff565b9150509250929050565b5f8115159050919050565b6121ba816121a6565b82525050565b5f6020820190506121d35f8301846121b1565b92915050565b5f81519050919050565b5f82825260208201905092915050565b5f819050602082019050919050565b5f819050919050565b5f61222561222061221b84611fb7565b612202565b611fb7565b9050919050565b5f6122368261220b565b9050919050565b5f6122478261222c565b9050919050565b6122578161223d565b82525050565b5f612268838361224e565b60208301905092915050565b5f602082019050919050565b5f61228a826121d9565b61229481856121e3565b935061229f836121f3565b805f5b838110156122cf5781516122b6888261225d565b97506122c183612274565b9250506001810190506122a2565b5085935050505092915050565b5f6020820190508181035f8301526122f48184612280565b905092915050565b5f6020828403121561231157612310611faf565b5b5f61231e84828501612154565b91505092915050565b61233081611fd6565b82525050565b5f6020820190506123495f830184612327565b92915050565b5f806040838503121561236557612364611faf565b5b5f612372858286016120ff565b9250506020612383858286016120ff565b9150509250929050565b6123968161223d565b82525050565b5f6020820190506123af5f83018461238d565b92915050565b6123be816120e0565b82525050565b5f6020820190506123d75f8301846123b5565b92915050565b5f602082840312156123f2576123f1611faf565b5b5f6123ff8482850161200e565b91505092915050565b5f81519050919050565b5f82825260208201905092915050565b5f819050602082019050919050565b61243a816120e0565b82525050565b5f61244b8383612431565b60208301905092915050565b5f602082019050919050565b5f61246d82612408565b6124778185612412565b935061248283612422565b805f5b838110156124b25781516124998882612440565b97506124a483612457565b925050600181019050612485565b5085935050505092915050565b5f6020820190508181035f8301526124d78184612463565b905092915050565b5f82825260208201905092915050565b7f696e76616c696420617267756d656e74202d207a65726f2061646472657373005f82015250565b5f612523601f836124df565b915061252e826124ef565b602082019050919050565b5f6020820190508181035f83015261255081612517565b9050919050565b7f4e4f5420612074727573746564206973737565720000000000000000000000005f82015250565b5f61258b6014836124df565b915061259682612557565b602082019050919050565b5f6020820190508181035f8301526125b88161257f565b9050919050565b7f63616e6e6f742068617665206d6f7265207468616e20313520636c61696d20745f8201527f6f70696373000000000000000000000000000000000000000000000000000000602082015250565b5f6126196025836124df565b9150612624826125bf565b604082019050919050565b5f6020820190508181035f8301526126468161260d565b9050919050565b7f636c61696d20746f706963732063616e6e6f7420626520656d707479000000005f82015250565b5f612681601c836124df565b915061268c8261264d565b602082019050919050565b5f6020820190508181035f8301526126ae81612675565b9050919050565b7f4e487b71000000000000000000000000000000000000000000000000000000005f52603260045260245ffd5b7f4e487b71000000000000000000000000000000000000000000000000000000005f52601160045260245ffd5b5f612719826120e0565b9150612724836120e0565b925082820390508181111561273c5761273b6126e2565b5b92915050565b7f4e487b71000000000000000000000000000000000000000000000000000000005f52603160045260245ffd5b5f612779826120e0565b91507fffffffffffffffffffffffffffffffffffffffffffffffffffffffffffffffff82036127ab576127aa6126e2565b5b600182019050919050565b5f80fd5b82818337505050565b5f6127ce8385612412565b93507f07ffffffffffffffffffffffffffffffffffffffffffffffffffffffffffffff831115612801576128006127b6565b5b6020830292506128128385846127ba565b82840190509392505050565b5f6020820190508181035f8301526128378184866127c3565b90509392505050565b5f601f19601f8301169050919050565b7f4e487b71000000000000000000000000000000000000000000000000000000005f52604160045260245ffd5b61288682612840565b810181811067ffffffffffffffff821117156128a5576128a4612850565b5b80604052505050565b5f6128b7611fa6565b90506128c3828261287d565b919050565b5f67ffffffffffffffff8211156128e2576128e1612850565b5b602082029050602081019050919050565b5f8151905061290181611ff8565b92915050565b5f612919612914846128c8565b6128ae565b9050808382526020820190506020840283018581111561293c5761293b61202a565b5b835b81811015612965578061295188826128f3565b84526020840193505060208101905061293e565b5050509392505050565b5f82601f83011261298357612982612022565b5b8151612993848260208601612907565b91505092915050565b5f602082840312156129b1576129b0611faf565b5b5f82015167ffffffffffffffff8111156129ce576129cd611fb3565b5b6129da8482850161296f565b91505092915050565b5f6040820190506129f65f83018561238d565b612a0360208301846123b5565b9392505050565b5f819050919050565b612a1c81612a0a565b82525050565b5f602082019050612a355f830184612a13565b92915050565b5f81519050612a49816120e9565b92915050565b5f81519050612a5d8161213e565b92915050565b5f80fd5b5f67ffffffffffffffff821115612a8157612a80612850565b5b612a8a82612840565b9050602081019050919050565b5f5b83811015612ab4578082015181840152602081019050612a99565b5f8484015250505050565b5f612ad1612acc84612a67565b6128ae565b905082815260208101848484011115612aed57612aec612a63565b5b612af8848285612a97565b509392505050565b5f82601f830112612b1457612b13612022565b5b8151612b24848260208601612abf565b91505092915050565b5f67ffffffffffffffff821115612b4757612b46612850565b5b612b5082612840565b9050602081019050919050565b5f612b6f612b6a84612b2d565b6128ae565b905082815260208101848484011115612b8b57612b8a612a63565b5b612b96848285612a97565b509392505050565b5f82601f830112612bb257612bb1612022565b5b8151612bc2848260208601612b5d565b91505092915050565b5f805f805f8060c08789031215612be557612be4611faf565b5b5f612bf289828a01612a3b565b9650506020612c0389828a01612a3b565b9550506040612c1489828a01612a4f565b945050606087015167ffffffffffffffff811115612c3557612c34611fb3565b5b612c4189828a01612b00565b935050608087015167ffffffffffffffff811115612c6257612c61611fb3565b5b612c6e89828a01612b00565b92505060a087015167ffffffffffffffff811115612c8f57612c8e611fb3565b5b612c9b89828a01612b9e565b9150509295509295509295565b5f612cb28261222c565b9050919050565b612cc281612ca8565b82525050565b5f81519050919050565b5f82825260208201905092915050565b5f612cec82612cc8565b612cf68185612cd2565b9350612d06818560208601612a97565b612d0f81612840565b840191505092915050565b5f608082019050612d2d5f830187612cb9565b612d3a60208301866123b5565b8181036040830152612d4c8185612ce2565b90508181036060830152612d608184612ce2565b905095945050505050565b612d74816121a6565b8114612d7e575f80fd5b50565b5f81519050612d8f81612d6b565b92915050565b5f60208284031215612daa57612da9611faf565b5b5f612db784828501612d81565b91505092915050565b7f747275737465642049737375657220616c7265616479206578697374730000005f82015250565b5f612df4601d836124df565b9150612dff82612dc0565b602082019050919050565b5f6020820190508181035f830152612e2181612de8565b9050919050565b7f7472757374656420636c61696d20746f706963732063616e6e6f7420626520655f8201527f6d70747900000000000000000000000000000000000000000000000000000000602082015250565b5f612e826024836124df565b9150612e8d82612e28565b604082019050919050565b5f6020820190508181035f830152612eaf81612e76565b9050919050565b7f63616e6e6f742068617665206d6f7265207468616e20353020747275737465645f8201527f2069737375657273000000000000000000000000000000000000000000000000602082015250565b5f612f106028836124df565b9150612f1b82612eb6565b604082019050919050565b5f6020820190508181035f830152612f3d81612f04565b9050919050565b7f747275737465642049737375657220646f65736e2774206578697374000000005f82015250565b5f612f78601c836124df565b9150612f8382612f44565b602082019050919050565b5f6020820190508181035f830152612fa581612f6c565b9050919050565b7f63616e6e6f742072657175697265206d6f7265207468616e20313520746f70695f8201527f6373000000000000000000000000000000000000000000000000000000000000602082015250565b5f6130066022836124df565b915061301182612fac565b604082019050919050565b5f6020820190508181035f83015261303381612ffa565b9050919050565b7f636c61696d546f70696320616c726561647920657869737473000000000000005f82015250565b5f61306e6019836124df565b91506130798261303a565b602082019050919050565b5f6020820190508181035f83015261309b81613062565b905091905056fea2646970667358221220c4e9276c8565823d82de4dc1a2846d0e8abbda47f609f07cb84265fb6349d39b64736f6c63430008140033",
					"opcodes": "PUSH1 0x80 PUSH1 0x40 MSTORE CALLVALUE DUP1 ISZERO PUSH3 0x10 JUMPI PUSH0 DUP1 REVERT JUMPDEST POP CALLER PUSH0 PUSH20 0xFFFFFFFFFFFFFFFFFFFFFFFFFFFFFFFFFFFFFFFF AND DUP2 PUSH20 0xFFFFFFFFFFFFFFFFFFFFFFFFFFFFFFFFFFFFFFFF AND SUB PUSH3 0x85 JUMPI PUSH0 PUSH1 0x40 MLOAD PUSH32 0x1E4FBDF700000000000000000000000000000000000000000000000000000000 DUP2 MSTORE PUSH1 0x4 ADD PUSH3 0x7C SWAP2 SWAP1 PUSH3 0x1A1 JUMP JUMPDEST PUSH1 0x40 MLOAD DUP1 SWAP2 SUB SWAP1 REVERT JUMPDEST PUSH3 0x96 DUP2 PUSH3 0x9D PUSH1 0x20 SHL PUSH1 0x20 SHR JUMP JUMPDEST POP PUSH3 0x1BC JUMP JUMPDEST PUSH0 DUP1 PUSH0 SWAP1 SLOAD SWAP1 PUSH2 0x100 EXP SWAP1 DIV PUSH20 0xFFFFFFFFFFFFFFFFFFFFFFFFFFFFFFFFFFFFFFFF AND SWAP1 POP DUP2 PUSH0 DUP1 PUSH2 0x100 EXP DUP2 SLOAD DUP2 PUSH20 0xFFFFFFFFFFFFFFFFFFFFFFFFFFFFFFFFFFFFFFFF MUL NOT AND SWAP1 DUP4 PUSH20 0xFFFFFFFFFFFFFFFFFFFFFFFFFFFFFFFFFFFFFFFF AND MUL OR SWAP1 SSTORE POP DUP2 PUSH20 0xFFFFFFFFFFFFFFFFFFFFFFFFFFFFFFFFFFFFFFFF AND DUP2 PUSH20 0xFFFFFFFFFFFFFFFFFFFFFFFFFFFFFFFFFFFFFFFF AND PUSH32 0x8BE0079C531659141344CD1FD0A4F28419497F9722A3DAAFE3B4186F6B6457E0 PUSH1 0x40 MLOAD PUSH1 0x40 MLOAD DUP1 SWAP2 SUB SWAP1 LOG3 POP POP JUMP JUMPDEST PUSH0 PUSH20 0xFFFFFFFFFFFFFFFFFFFFFFFFFFFFFFFFFFFFFFFF DUP3 AND SWAP1 POP SWAP2 SWAP1 POP JUMP JUMPDEST PUSH0 PUSH3 0x189 DUP3 PUSH3 0x15E JUMP JUMPDEST SWAP1 POP SWAP2 SWAP1 POP JUMP JUMPDEST PUSH3 0x19B DUP2 PUSH3 0x17D JUMP JUMPDEST DUP3 MSTORE POP POP JUMP JUMPDEST PUSH0 PUSH1 0x20 DUP3 ADD SWAP1 POP PUSH3 0x1B6 PUSH0 DUP4 ADD DUP5 PUSH3 0x190 JUMP JUMPDEST SWAP3 SWAP2 POP POP JUMP JUMPDEST PUSH2 0x30D8 DUP1 PUSH3 0x1CA PUSH0 CODECOPY PUSH0 RETURN INVALID PUSH1 0x80 PUSH1 0x40 MSTORE CALLVALUE DUP1 ISZERO PUSH2 0xF JUMPI PUSH0 DUP1 REVERT JUMPDEST POP PUSH1 0x4 CALLDATASIZE LT PUSH2 0x11F JUMPI PUSH0 CALLDATALOAD PUSH1 0xE0 SHR DUP1 PUSH4 0xB5FA8693 GT PUSH2 0xAB JUMPI DUP1 PUSH4 0xC7B22551 GT PUSH2 0x6F JUMPI DUP1 PUSH4 0xC7B22551 EQ PUSH2 0x33B JUMPI DUP1 PUSH4 0xC801DD40 EQ PUSH2 0x357 JUMPI DUP1 PUSH4 0xD9DD24C5 EQ PUSH2 0x387 JUMPI DUP1 PUSH4 0xEF2ED1A4 EQ PUSH2 0x3A5 JUMPI DUP1 PUSH4 0xF2FDE38B EQ PUSH2 0x3D5 JUMPI PUSH2 0x11F JUMP JUMPDEST DUP1 PUSH4 0xB5FA8693 EQ PUSH2 0x25F JUMPI DUP1 PUSH4 0xB93D28EB EQ PUSH2 0x28F JUMPI DUP1 PUSH4 0xBA64C341 EQ PUSH2 0x2AB JUMPI DUP1 PUSH4 0xBE36359F EQ PUSH2 0x2DB JUMPI DUP1 PUSH4 0xC28FB278 EQ PUSH2 0x30B JUMPI PUSH2 0x11F JUMP JUMPDEST DUP1 PUSH4 0x63A9C3D7 GT PUSH2 0xF2 JUMPI DUP1 PUSH4 0x63A9C3D7 EQ PUSH2 0x1BB JUMPI DUP1 PUSH4 0x715018A6 EQ PUSH2 0x1EB JUMPI DUP1 PUSH4 0x8DA5CB5B EQ PUSH2 0x1F5 JUMPI DUP1 PUSH4 0x93E9F801 EQ PUSH2 0x213 JUMPI DUP1 PUSH4 0x9F63EA98 EQ PUSH2 0x243 JUMPI PUSH2 0x11F JUMP JUMPDEST DUP1 PUSH4 0x4BC7E84 EQ PUSH2 0x123 JUMPI DUP1 PUSH4 0x8297846 EQ PUSH2 0x13F JUMPI DUP1 PUSH4 0x34A89987 EQ PUSH2 0x15B JUMPI DUP1 PUSH4 0x52C111D1 EQ PUSH2 0x18B JUMPI JUMPDEST PUSH0 DUP1 REVERT JUMPDEST PUSH2 0x13D PUSH1 0x4 DUP1 CALLDATASIZE SUB DUP2 ADD SWAP1 PUSH2 0x138 SWAP2 SWAP1 PUSH2 0x2083 JUMP JUMPDEST PUSH2 0x3F1 JUMP JUMPDEST STOP JUMPDEST PUSH2 0x159 PUSH1 0x4 DUP1 CALLDATASIZE SUB DUP2 ADD SWAP1 PUSH2 0x154 SWAP2 SWAP1 PUSH2 0x2113 JUMP JUMPDEST PUSH2 0x945 JUMP JUMPDEST STOP JUMPDEST PUSH2 0x175 PUSH1 0x4 DUP1 CALLDATASIZE SUB DUP2 ADD SWAP1 PUSH2 0x170 SWAP2 SWAP1 PUSH2 0x2168 JUMP JUMPDEST PUSH2 0xA3A JUMP JUMPDEST PUSH1 0x40 MLOAD PUSH2 0x182 SWAP2 SWAP1 PUSH2 0x21C0 JUMP JUMPDEST PUSH1 0x40 MLOAD DUP1 SWAP2 SUB SWAP1 RETURN JUMPDEST PUSH2 0x1A5 PUSH1 0x4 DUP1 CALLDATASIZE SUB DUP2 ADD SWAP1 PUSH2 0x1A0 SWAP2 SWAP1 PUSH2 0x2113 JUMP JUMPDEST PUSH2 0xB24 JUMP JUMPDEST PUSH1 0x40 MLOAD PUSH2 0x1B2 SWAP2 SWAP1 PUSH2 0x22DC JUMP JUMPDEST PUSH1 0x40 MLOAD DUP1 SWAP2 SUB SWAP1 RETURN JUMPDEST PUSH2 0x1D5 PUSH1 0x4 DUP1 CALLDATASIZE SUB DUP2 ADD SWAP1 PUSH2 0x1D0 SWAP2 SWAP1 PUSH2 0x22FC JUMP JUMPDEST PUSH2 0xBC0 JUMP JUMPDEST PUSH1 0x40 MLOAD PUSH2 0x1E2 SWAP2 SWAP1 PUSH2 0x21C0 JUMP JUMPDEST PUSH1 0x40 MLOAD DUP1 SWAP2 SUB SWAP1 RETURN JUMPDEST PUSH2 0x1F3 PUSH2 0xFC3 JUMP JUMPDEST STOP JUMPDEST PUSH2 0x1FD PUSH2 0xFD6 JUMP JUMPDEST PUSH1 0x40 MLOAD PUSH2 0x20A SWAP2 SWAP1 PUSH2 0x2336 JUMP JUMPDEST PUSH1 0x40 MLOAD DUP1 SWAP2 SUB SWAP1 RETURN JUMPDEST PUSH2 0x22D PUSH1 0x4 DUP1 CALLDATASIZE SUB DUP2 ADD SWAP1 PUSH2 0x228 SWAP2 SWAP1 PUSH2 0x234F JUMP JUMPDEST PUSH2 0xFFD JUMP JUMPDEST PUSH1 0x40 MLOAD PUSH2 0x23A SWAP2 SWAP1 PUSH2 0x239C JUMP JUMPDEST PUSH1 0x40 MLOAD DUP1 SWAP2 SUB SWAP1 RETURN JUMPDEST PUSH2 0x25D PUSH1 0x4 DUP1 CALLDATASIZE SUB DUP2 ADD SWAP1 PUSH2 0x258 SWAP2 SWAP1 PUSH2 0x2083 JUMP JUMPDEST PUSH2 0x1045 JUMP JUMPDEST STOP JUMPDEST PUSH2 0x279 PUSH1 0x4 DUP1 CALLDATASIZE SUB DUP2 ADD SWAP1 PUSH2 0x274 SWAP2 SWAP1 PUSH2 0x2113 JUMP JUMPDEST PUSH2 0x13BC JUMP JUMPDEST PUSH1 0x40 MLOAD PUSH2 0x286 SWAP2 SWAP1 PUSH2 0x23C4 JUMP JUMPDEST PUSH1 0x40 MLOAD DUP1 SWAP2 SUB SWAP1 RETURN JUMPDEST PUSH2 0x2A9 PUSH1 0x4 DUP1 CALLDATASIZE SUB DUP2 ADD SWAP1 PUSH2 0x2A4 SWAP2 SWAP1 PUSH2 0x23DD JUMP JUMPDEST PUSH2 0x13DC JUMP JUMPDEST STOP JUMPDEST PUSH2 0x2C5 PUSH1 0x4 DUP1 CALLDATASIZE SUB DUP2 ADD SWAP1 PUSH2 0x2C0 SWAP2 SWAP1 PUSH2 0x2168 JUMP JUMPDEST PUSH2 0x1967 JUMP JUMPDEST PUSH1 0x40 MLOAD PUSH2 0x2D2 SWAP2 SWAP1 PUSH2 0x23C4 JUMP JUMPDEST PUSH1 0x40 MLOAD DUP1 SWAP2 SUB SWAP1 RETURN JUMPDEST PUSH2 0x2F5 PUSH1 0x4 DUP1 CALLDATASIZE SUB DUP2 ADD SWAP1 PUSH2 0x2F0 SWAP2 SWAP1 PUSH2 0x2113 JUMP JUMPDEST PUSH2 0x1992 JUMP JUMPDEST PUSH1 0x40 MLOAD PUSH2 0x302 SWAP2 SWAP1 PUSH2 0x21C0 JUMP JUMPDEST PUSH1 0x40 MLOAD DUP1 SWAP2 SUB SWAP1 RETURN JUMPDEST PUSH2 0x325 PUSH1 0x4 DUP1 CALLDATASIZE SUB DUP2 ADD SWAP1 PUSH2 0x320 SWAP2 SWAP1 PUSH2 0x23DD JUMP JUMPDEST PUSH2 0x19F2 JUMP JUMPDEST PUSH1 0x40 MLOAD PUSH2 0x332 SWAP2 SWAP1 PUSH2 0x24BF JUMP JUMPDEST PUSH1 0x40 MLOAD DUP1 SWAP2 SUB SWAP1 RETURN JUMPDEST PUSH2 0x355 PUSH1 0x4 DUP1 CALLDATASIZE SUB DUP2 ADD SWAP1 PUSH2 0x350 SWAP2 SWAP1 PUSH2 0x2113 JUMP JUMPDEST PUSH2 0x1B07 JUMP JUMPDEST STOP JUMPDEST PUSH2 0x371 PUSH1 0x4 DUP1 CALLDATASIZE SUB DUP2 ADD SWAP1 PUSH2 0x36C SWAP2 SWAP1 PUSH2 0x2113 JUMP JUMPDEST PUSH2 0x1C2E JUMP JUMPDEST PUSH1 0x40 MLOAD PUSH2 0x37E SWAP2 SWAP1 PUSH2 0x239C JUMP JUMPDEST PUSH1 0x40 MLOAD DUP1 SWAP2 SUB SWAP1 RETURN JUMPDEST PUSH2 0x38F PUSH2 0x1C69 JUMP JUMPDEST PUSH1 0x40 MLOAD PUSH2 0x39C SWAP2 SWAP1 PUSH2 0x22DC JUMP JUMPDEST PUSH1 0x40 MLOAD DUP1 SWAP2 SUB SWAP1 RETURN JUMPDEST PUSH2 0x3BF PUSH1 0x4 DUP1 CALLDATASIZE SUB DUP2 ADD SWAP1 PUSH2 0x3BA SWAP2 SWAP1 PUSH2 0x22FC JUMP JUMPDEST PUSH2 0x1CF4 JUMP JUMPDEST PUSH1 0x40 MLOAD PUSH2 0x3CC SWAP2 SWAP1 PUSH2 0x21C0 JUMP JUMPDEST PUSH1 0x40 MLOAD DUP1 SWAP2 SUB SWAP1 RETURN JUMPDEST PUSH2 0x3EF PUSH1 0x4 DUP1 CALLDATASIZE SUB DUP2 ADD SWAP1 PUSH2 0x3EA SWAP2 SWAP1 PUSH2 0x22FC JUMP JUMPDEST PUSH2 0x1D4F JUMP JUMPDEST STOP JUMPDEST PUSH2 0x3F9 PUSH2 0x1DD3 JUMP JUMPDEST PUSH0 PUSH20 0xFFFFFFFFFFFFFFFFFFFFFFFFFFFFFFFFFFFFFFFF AND DUP4 PUSH20 0xFFFFFFFFFFFFFFFFFFFFFFFFFFFFFFFFFFFFFFFF AND SUB PUSH2 0x467 JUMPI PUSH1 0x40 MLOAD PUSH32 0x8C379A000000000000000000000000000000000000000000000000000000000 DUP2 MSTORE PUSH1 0x4 ADD PUSH2 0x45E SWAP1 PUSH2 0x2539 JUMP JUMPDEST PUSH1 0x40 MLOAD DUP1 SWAP2 SUB SWAP1 REVERT JUMPDEST PUSH0 PUSH1 0x3 PUSH0 DUP6 PUSH20 0xFFFFFFFFFFFFFFFFFFFFFFFFFFFFFFFFFFFFFFFF AND PUSH20 0xFFFFFFFFFFFFFFFFFFFFFFFFFFFFFFFFFFFFFFFF AND DUP2 MSTORE PUSH1 0x20 ADD SWAP1 DUP2 MSTORE PUSH1 0x20 ADD PUSH0 KECCAK256 DUP1 SLOAD SWAP1 POP SUB PUSH2 0x4E9 JUMPI PUSH1 0x40 MLOAD PUSH32 0x8C379A000000000000000000000000000000000000000000000000000000000 DUP2 MSTORE PUSH1 0x4 ADD PUSH2 0x4E0 SWAP1 PUSH2 0x25A1 JUMP JUMPDEST PUSH1 0x40 MLOAD DUP1 SWAP2 SUB SWAP1 REVERT JUMPDEST PUSH1 0xF DUP3 DUP3 SWAP1 POP GT ISZERO PUSH2 0x530 JUMPI PUSH1 0x40 MLOAD PUSH32 0x8C379A000000000000000000000000000000000000000000000000000000000 DUP2 MSTORE PUSH1 0x4 ADD PUSH2 0x527 SWAP1 PUSH2 0x262F JUMP JUMPDEST PUSH1 0x40 MLOAD DUP1 SWAP2 SUB SWAP1 REVERT JUMPDEST PUSH0 DUP3 DUP3 SWAP1 POP GT PUSH2 0x575 JUMPI PUSH1 0x40 MLOAD PUSH32 0x8C379A000000000000000000000000000000000000000000000000000000000 DUP2 MSTORE PUSH1 0x4 ADD PUSH2 0x56C SWAP1 PUSH2 0x2697 JUMP JUMPDEST PUSH1 0x40 MLOAD DUP1 SWAP2 SUB SWAP1 REVERT JUMPDEST PUSH0 JUMPDEST PUSH1 0x3 PUSH0 DUP6 PUSH20 0xFFFFFFFFFFFFFFFFFFFFFFFFFFFFFFFFFFFFFFFF AND PUSH20 0xFFFFFFFFFFFFFFFFFFFFFFFFFFFFFFFFFFFFFFFF AND DUP2 MSTORE PUSH1 0x20 ADD SWAP1 DUP2 MSTORE PUSH1 0x20 ADD PUSH0 KECCAK256 DUP1 SLOAD SWAP1 POP DUP2 LT ISZERO PUSH2 0x7F9 JUMPI PUSH0 PUSH1 0x3 PUSH0 DUP7 PUSH20 0xFFFFFFFFFFFFFFFFFFFFFFFFFFFFFFFFFFFFFFFF AND PUSH20 0xFFFFFFFFFFFFFFFFFFFFFFFFFFFFFFFFFFFFFFFF AND DUP2 MSTORE PUSH1 0x20 ADD SWAP1 DUP2 MSTORE PUSH1 0x20 ADD PUSH0 KECCAK256 DUP3 DUP2 SLOAD DUP2 LT PUSH2 0x60F JUMPI PUSH2 0x60E PUSH2 0x26B5 JUMP JUMPDEST JUMPDEST SWAP1 PUSH0 MSTORE PUSH1 0x20 PUSH0 KECCAK256 ADD SLOAD SWAP1 POP PUSH0 PUSH1 0x4 PUSH0 DUP4 DUP2 MSTORE PUSH1 0x20 ADD SWAP1 DUP2 MSTORE PUSH1 0x20 ADD PUSH0 KECCAK256 DUP1 SLOAD SWAP1 POP SWAP1 POP PUSH0 JUMPDEST DUP2 DUP2 LT ISZERO PUSH2 0x7E3 JUMPI DUP7 PUSH20 0xFFFFFFFFFFFFFFFFFFFFFFFFFFFFFFFFFFFFFFFF AND PUSH1 0x4 PUSH0 DUP6 DUP2 MSTORE PUSH1 0x20 ADD SWAP1 DUP2 MSTORE PUSH1 0x20 ADD PUSH0 KECCAK256 DUP3 DUP2 SLOAD DUP2 LT PUSH2 0x676 JUMPI PUSH2 0x675 PUSH2 0x26B5 JUMP JUMPDEST JUMPDEST SWAP1 PUSH0 MSTORE PUSH1 0x20 PUSH0 KECCAK256 ADD PUSH0 SWAP1 SLOAD SWAP1 PUSH2 0x100 EXP SWAP1 DIV PUSH20 0xFFFFFFFFFFFFFFFFFFFFFFFFFFFFFFFFFFFFFFFF AND PUSH20 0xFFFFFFFFFFFFFFFFFFFFFFFFFFFFFFFFFFFFFFFF AND SUB PUSH2 0x7D0 JUMPI PUSH1 0x4 PUSH0 DUP5 DUP2 MSTORE PUSH1 0x20 ADD SWAP1 DUP2 MSTORE PUSH1 0x20 ADD PUSH0 KECCAK256 PUSH1 0x1 DUP4 PUSH2 0x6D7 SWAP2 SWAP1 PUSH2 0x270F JUMP JUMPDEST DUP2 SLOAD DUP2 LT PUSH2 0x6E8 JUMPI PUSH2 0x6E7 PUSH2 0x26B5 JUMP JUMPDEST JUMPDEST SWAP1 PUSH0 MSTORE PUSH1 0x20 PUSH0 KECCAK256 ADD PUSH0 SWAP1 SLOAD SWAP1 PUSH2 0x100 EXP SWAP1 DIV PUSH20 0xFFFFFFFFFFFFFFFFFFFFFFFFFFFFFFFFFFFFFFFF AND PUSH1 0x4 PUSH0 DUP6 DUP2 MSTORE PUSH1 0x20 ADD SWAP1 DUP2 MSTORE PUSH1 0x20 ADD PUSH0 KECCAK256 DUP3 DUP2 SLOAD DUP2 LT PUSH2 0x733 JUMPI PUSH2 0x732 PUSH2 0x26B5 JUMP JUMPDEST JUMPDEST SWAP1 PUSH0 MSTORE PUSH1 0x20 PUSH0 KECCAK256 ADD PUSH0 PUSH2 0x100 EXP DUP2 SLOAD DUP2 PUSH20 0xFFFFFFFFFFFFFFFFFFFFFFFFFFFFFFFFFFFFFFFF MUL NOT AND SWAP1 DUP4 PUSH20 0xFFFFFFFFFFFFFFFFFFFFFFFFFFFFFFFFFFFFFFFF AND MUL OR SWAP1 SSTORE POP PUSH1 0x4 PUSH0 DUP5 DUP2 MSTORE PUSH1 0x20 ADD SWAP1 DUP2 MSTORE PUSH1 0x20 ADD PUSH0 KECCAK256 DUP1 SLOAD DUP1 PUSH2 0x799 JUMPI PUSH2 0x798 PUSH2 0x2742 JUMP JUMPDEST JUMPDEST PUSH1 0x1 SWAP1 SUB DUP2 DUP2 SWAP1 PUSH0 MSTORE PUSH1 0x20 PUSH0 KECCAK256 ADD PUSH0 PUSH2 0x100 EXP DUP2 SLOAD SWAP1 PUSH20 0xFFFFFFFFFFFFFFFFFFFFFFFFFFFFFFFFFFFFFFFF MUL NOT AND SWAP1 SSTORE SWAP1 SSTORE PUSH2 0x7E3 JUMP JUMPDEST DUP1 DUP1 PUSH2 0x7DB SWAP1 PUSH2 0x276F JUMP JUMPDEST SWAP2 POP POP PUSH2 0x634 JUMP JUMPDEST POP POP POP DUP1 DUP1 PUSH2 0x7F1 SWAP1 PUSH2 0x276F JUMP JUMPDEST SWAP2 POP POP PUSH2 0x577 JUMP JUMPDEST POP DUP2 DUP2 PUSH1 0x3 PUSH0 DUP7 PUSH20 0xFFFFFFFFFFFFFFFFFFFFFFFFFFFFFFFFFFFFFFFF AND PUSH20 0xFFFFFFFFFFFFFFFFFFFFFFFFFFFFFFFFFFFFFFFF AND DUP2 MSTORE PUSH1 0x20 ADD SWAP1 DUP2 MSTORE PUSH1 0x20 ADD PUSH0 KECCAK256 SWAP2 SWAP1 PUSH2 0x846 SWAP3 SWAP2 SWAP1 PUSH2 0x1F22 JUMP JUMPDEST POP PUSH0 JUMPDEST DUP3 DUP3 SWAP1 POP DUP2 LT ISZERO PUSH2 0x8EF JUMPI PUSH1 0x4 PUSH0 DUP5 DUP5 DUP5 DUP2 DUP2 LT PUSH2 0x86A JUMPI PUSH2 0x869 PUSH2 0x26B5 JUMP JUMPDEST JUMPDEST SWAP1 POP PUSH1 0x20 MUL ADD CALLDATALOAD DUP2 MSTORE PUSH1 0x20 ADD SWAP1 DUP2 MSTORE PUSH1 0x20 ADD PUSH0 KECCAK256 DUP5 SWAP1 DUP1 PUSH1 0x1 DUP2 SLOAD ADD DUP1 DUP3 SSTORE DUP1 SWAP2 POP POP PUSH1 0x1 SWAP1 SUB SWAP1 PUSH0 MSTORE PUSH1 0x20 PUSH0 KECCAK256 ADD PUSH0 SWAP1 SWAP2 SWAP1 SWAP2 SWAP1 SWAP2 PUSH2 0x100 EXP DUP2 SLOAD DUP2 PUSH20 0xFFFFFFFFFFFFFFFFFFFFFFFFFFFFFFFFFFFFFFFF MUL NOT AND SWAP1 DUP4 PUSH20 0xFFFFFFFFFFFFFFFFFFFFFFFFFFFFFFFFFFFFFFFF AND MUL OR SWAP1 SSTORE POP DUP1 DUP1 PUSH2 0x8E7 SWAP1 PUSH2 0x276F JUMP JUMPDEST SWAP2 POP POP PUSH2 0x849 JUMP JUMPDEST POP DUP3 PUSH20 0xFFFFFFFFFFFFFFFFFFFFFFFFFFFFFFFFFFFFFFFF AND PUSH32 0xEC753CFC52044F61676F18A11E500093A9F2B1CD5E4942BC476F2B0438159BCF DUP4 DUP4 PUSH1 0x40 MLOAD PUSH2 0x938 SWAP3 SWAP2 SWAP1 PUSH2 0x281E JUMP JUMPDEST PUSH1 0x40 MLOAD DUP1 SWAP2 SUB SWAP1 LOG2 POP POP POP JUMP JUMPDEST PUSH2 0x94D PUSH2 0x1DD3 JUMP JUMPDEST PUSH0 PUSH1 0x1 DUP1 SLOAD SWAP1 POP SWAP1 POP PUSH0 JUMPDEST DUP2 DUP2 LT ISZERO PUSH2 0xA35 JUMPI DUP3 PUSH1 0x1 DUP3 DUP2 SLOAD DUP2 LT PUSH2 0x975 JUMPI PUSH2 0x974 PUSH2 0x26B5 JUMP JUMPDEST JUMPDEST SWAP1 PUSH0 MSTORE PUSH1 0x20 PUSH0 KECCAK256 ADD SLOAD SUB PUSH2 0xA22 JUMPI PUSH1 0x1 DUP1 DUP4 PUSH2 0x991 SWAP2 SWAP1 PUSH2 0x270F JUMP JUMPDEST DUP2 SLOAD DUP2 LT PUSH2 0x9A2 JUMPI PUSH2 0x9A1 PUSH2 0x26B5 JUMP JUMPDEST JUMPDEST SWAP1 PUSH0 MSTORE PUSH1 0x20 PUSH0 KECCAK256 ADD SLOAD PUSH1 0x1 DUP3 DUP2 SLOAD DUP2 LT PUSH2 0x9BF JUMPI PUSH2 0x9BE PUSH2 0x26B5 JUMP JUMPDEST JUMPDEST SWAP1 PUSH0 MSTORE PUSH1 0x20 PUSH0 KECCAK256 ADD DUP2 SWAP1 SSTORE POP PUSH1 0x1 DUP1 SLOAD DUP1 PUSH2 0x9DD JUMPI PUSH2 0x9DC PUSH2 0x2742 JUMP JUMPDEST JUMPDEST PUSH1 0x1 SWAP1 SUB DUP2 DUP2 SWAP1 PUSH0 MSTORE PUSH1 0x20 PUSH0 KECCAK256 ADD PUSH0 SWAP1 SSTORE SWAP1 SSTORE DUP3 PUSH32 0xB1381093C776453C1BBE54FD68BE1B235C65DB61D099CB50D194B2991E0EEC5 PUSH1 0x40 MLOAD PUSH1 0x40 MLOAD DUP1 SWAP2 SUB SWAP1 LOG2 PUSH2 0xA35 JUMP JUMPDEST DUP1 DUP1 PUSH2 0xA2D SWAP1 PUSH2 0x276F JUMP JUMPDEST SWAP2 POP POP PUSH2 0x958 JUMP JUMPDEST POP POP POP JUMP JUMPDEST PUSH0 DUP1 PUSH1 0x3 PUSH0 DUP6 PUSH20 0xFFFFFFFFFFFFFFFFFFFFFFFFFFFFFFFFFFFFFFFF AND PUSH20 0xFFFFFFFFFFFFFFFFFFFFFFFFFFFFFFFFFFFFFFFF AND DUP2 MSTORE PUSH1 0x20 ADD SWAP1 DUP2 MSTORE PUSH1 0x20 ADD PUSH0 KECCAK256 DUP1 SLOAD DUP1 PUSH1 0x20 MUL PUSH1 0x20 ADD PUSH1 0x40 MLOAD SWAP1 DUP2 ADD PUSH1 0x40 MSTORE DUP1 SWAP3 SWAP2 SWAP1 DUP2 DUP2 MSTORE PUSH1 0x20 ADD DUP3 DUP1 SLOAD DUP1 ISZERO PUSH2 0xAC1 JUMPI PUSH1 0x20 MUL DUP3 ADD SWAP2 SWAP1 PUSH0 MSTORE PUSH1 0x20 PUSH0 KECCAK256 SWAP1 JUMPDEST DUP2 SLOAD DUP2 MSTORE PUSH1 0x20 ADD SWAP1 PUSH1 0x1 ADD SWAP1 DUP1 DUP4 GT PUSH2 0xAAD JUMPI JUMPDEST POP POP POP POP POP SWAP1 POP PUSH0 DUP2 MLOAD SWAP1 POP PUSH0 JUMPDEST DUP2 DUP2 LT ISZERO PUSH2 0xB17 JUMPI DUP5 DUP4 DUP3 DUP2 MLOAD DUP2 LT PUSH2 0xAEB JUMPI PUSH2 0xAEA PUSH2 0x26B5 JUMP JUMPDEST JUMPDEST PUSH1 0x20 MUL PUSH1 0x20 ADD ADD MLOAD SUB PUSH2 0xB04 JUMPI PUSH1 0x1 SWAP4 POP POP POP POP PUSH2 0xB1E JUMP JUMPDEST DUP1 DUP1 PUSH2 0xB0F SWAP1 PUSH2 0x276F JUMP JUMPDEST SWAP2 POP POP PUSH2 0xACF JUMP JUMPDEST POP PUSH0 SWAP3 POP POP POP JUMPDEST SWAP3 SWAP2 POP POP JUMP JUMPDEST PUSH1 0x60 PUSH1 0x4 PUSH0 DUP4 DUP2 MSTORE PUSH1 0x20 ADD SWAP1 DUP2 MSTORE PUSH1 0x20 ADD PUSH0 KECCAK256 DUP1 SLOAD DUP1 PUSH1 0x20 MUL PUSH1 0x20 ADD PUSH1 0x40 MLOAD SWAP1 DUP2 ADD PUSH1 0x40 MSTORE DUP1 SWAP3 SWAP2 SWAP1 DUP2 DUP2 MSTORE PUSH1 0x20 ADD DUP3 DUP1 SLOAD DUP1 ISZERO PUSH2 0xBB4 JUMPI PUSH1 0x20 MUL DUP3 ADD SWAP2 SWAP1 PUSH0 MSTORE PUSH1 0x20 PUSH0 KECCAK256 SWAP1 JUMPDEST DUP2 PUSH0 SWAP1 SLOAD SWAP1 PUSH2 0x100 EXP SWAP1 DIV PUSH20 0xFFFFFFFFFFFFFFFFFFFFFFFFFFFFFFFFFFFFFFFF AND PUSH20 0xFFFFFFFFFFFFFFFFFFFFFFFFFFFFFFFFFFFFFFFF AND DUP2 MSTORE PUSH1 0x20 ADD SWAP1 PUSH1 0x1 ADD SWAP1 DUP1 DUP4 GT PUSH2 0xB6B JUMPI JUMPDEST POP POP POP POP POP SWAP1 POP SWAP2 SWAP1 POP JUMP JUMPDEST PUSH0 DUP1 PUSH1 0x1 DUP1 SLOAD SWAP1 POP SUB PUSH2 0xBD6 JUMPI PUSH1 0x1 SWAP1 POP PUSH2 0xFBE JUMP JUMPDEST PUSH0 DUP1 PUSH0 PUSH1 0x60 DUP1 PUSH0 JUMPDEST PUSH1 0x1 DUP1 SLOAD SWAP1 POP DUP2 LT ISZERO PUSH2 0xFB3 JUMPI PUSH0 ADDRESS PUSH20 0xFFFFFFFFFFFFFFFFFFFFFFFFFFFFFFFFFFFFFFFF AND PUSH4 0x52C111D1 PUSH1 0x1 DUP5 DUP2 SLOAD DUP2 LT PUSH2 0xC1C JUMPI PUSH2 0xC1B PUSH2 0x26B5 JUMP JUMPDEST JUMPDEST SWAP1 PUSH0 MSTORE PUSH1 0x20 PUSH0 KECCAK256 ADD SLOAD PUSH1 0x40 MLOAD DUP3 PUSH4 0xFFFFFFFF AND PUSH1 0xE0 SHL DUP2 MSTORE PUSH1 0x4 ADD PUSH2 0xC41 SWAP2 SWAP1 PUSH2 0x23C4 JUMP JUMPDEST PUSH0 PUSH1 0x40 MLOAD DUP1 DUP4 SUB DUP2 DUP7 GAS STATICCALL ISZERO DUP1 ISZERO PUSH2 0xC5B JUMPI RETURNDATASIZE PUSH0 DUP1 RETURNDATACOPY RETURNDATASIZE PUSH0 REVERT JUMPDEST POP POP POP POP PUSH1 0x40 MLOAD RETURNDATASIZE PUSH0 DUP3 RETURNDATACOPY RETURNDATASIZE PUSH1 0x1F NOT PUSH1 0x1F DUP3 ADD AND DUP3 ADD DUP1 PUSH1 0x40 MSTORE POP DUP2 ADD SWAP1 PUSH2 0xC83 SWAP2 SWAP1 PUSH2 0x299C JUMP JUMPDEST SWAP1 POP PUSH0 DUP2 MLOAD SUB PUSH2 0xC9C JUMPI PUSH0 SWAP8 POP POP POP POP POP POP POP POP PUSH2 0xFBE JUMP JUMPDEST PUSH0 DUP2 MLOAD PUSH8 0xFFFFFFFFFFFFFFFF DUP2 GT ISZERO PUSH2 0xCB8 JUMPI PUSH2 0xCB7 PUSH2 0x2850 JUMP JUMPDEST JUMPDEST PUSH1 0x40 MLOAD SWAP1 DUP1 DUP3 MSTORE DUP1 PUSH1 0x20 MUL PUSH1 0x20 ADD DUP3 ADD PUSH1 0x40 MSTORE DUP1 ISZERO PUSH2 0xCE6 JUMPI DUP2 PUSH1 0x20 ADD PUSH1 0x20 DUP3 MUL DUP1 CALLDATASIZE DUP4 CALLDATACOPY DUP1 DUP3 ADD SWAP2 POP POP SWAP1 POP JUMPDEST POP SWAP1 POP PUSH0 JUMPDEST DUP3 MLOAD DUP2 LT ISZERO PUSH2 0xD85 JUMPI DUP3 DUP2 DUP2 MLOAD DUP2 LT PUSH2 0xD07 JUMPI PUSH2 0xD06 PUSH2 0x26B5 JUMP JUMPDEST JUMPDEST PUSH1 0x20 MUL PUSH1 0x20 ADD ADD MLOAD PUSH1 0x1 DUP6 DUP2 SLOAD DUP2 LT PUSH2 0xD23 JUMPI PUSH2 0xD22 PUSH2 0x26B5 JUMP JUMPDEST JUMPDEST SWAP1 PUSH0 MSTORE PUSH1 0x20 PUSH0 KECCAK256 ADD SLOAD PUSH1 0x40 MLOAD PUSH1 0x20 ADD PUSH2 0xD3D SWAP3 SWAP2 SWAP1 PUSH2 0x29E3 JUMP JUMPDEST PUSH1 0x40 MLOAD PUSH1 0x20 DUP2 DUP4 SUB SUB DUP2 MSTORE SWAP1 PUSH1 0x40 MSTORE DUP1 MLOAD SWAP1 PUSH1 0x20 ADD KECCAK256 DUP3 DUP3 DUP2 MLOAD DUP2 LT PUSH2 0xD66 JUMPI PUSH2 0xD65 PUSH2 0x26B5 JUMP JUMPDEST JUMPDEST PUSH1 0x20 MUL PUSH1 0x20 ADD ADD DUP2 DUP2 MSTORE POP POP DUP1 DUP1 PUSH2 0xD7D SWAP1 PUSH2 0x276F JUMP JUMPDEST SWAP2 POP POP PUSH2 0xCEB JUMP JUMPDEST POP PUSH0 JUMPDEST DUP2 MLOAD DUP2 LT ISZERO PUSH2 0xF9D JUMPI DUP11 PUSH20 0xFFFFFFFFFFFFFFFFFFFFFFFFFFFFFFFFFFFFFFFF AND PUSH4 0xC9100BCB DUP4 DUP4 DUP2 MLOAD DUP2 LT PUSH2 0xDC0 JUMPI PUSH2 0xDBF PUSH2 0x26B5 JUMP JUMPDEST JUMPDEST PUSH1 0x20 MUL PUSH1 0x20 ADD ADD MLOAD PUSH1 0x40 MLOAD DUP3 PUSH4 0xFFFFFFFF AND PUSH1 0xE0 SHL DUP2 MSTORE PUSH1 0x4 ADD PUSH2 0xDE4 SWAP2 SWAP1 PUSH2 0x2A22 JUMP JUMPDEST PUSH0 PUSH1 0x40 MLOAD DUP1 DUP4 SUB DUP2 DUP7 GAS STATICCALL ISZERO DUP1 ISZERO PUSH2 0xDFE JUMPI RETURNDATASIZE PUSH0 DUP1 RETURNDATACOPY RETURNDATASIZE PUSH0 REVERT JUMPDEST POP POP POP POP PUSH1 0x40 MLOAD RETURNDATASIZE PUSH0 DUP3 RETURNDATACOPY RETURNDATASIZE PUSH1 0x1F NOT PUSH1 0x1F DUP3 ADD AND DUP3 ADD DUP1 PUSH1 0x40 MSTORE POP DUP2 ADD SWAP1 PUSH2 0xE26 SWAP2 SWAP1 PUSH2 0x2BCB JUMP JUMPDEST POP DUP1 SWAP10 POP DUP2 SWAP11 POP DUP3 SWAP12 POP DUP4 SWAP13 POP DUP5 SWAP14 POP POP POP POP POP POP PUSH1 0x1 DUP5 DUP2 SLOAD DUP2 LT PUSH2 0xE4F JUMPI PUSH2 0xE4E PUSH2 0x26B5 JUMP JUMPDEST JUMPDEST SWAP1 PUSH0 MSTORE PUSH1 0x20 PUSH0 KECCAK256 ADD SLOAD DUP10 SUB PUSH2 0xF64 JUMPI DUP7 PUSH20 0xFFFFFFFFFFFFFFFFFFFFFFFFFFFFFFFFFFFFFFFF AND PUSH4 0xC0969A6E DUP13 PUSH1 0x1 DUP8 DUP2 SLOAD DUP2 LT PUSH2 0xE8F JUMPI PUSH2 0xE8E PUSH2 0x26B5 JUMP JUMPDEST JUMPDEST SWAP1 PUSH0 MSTORE PUSH1 0x20 PUSH0 KECCAK256 ADD SLOAD DUP10 DUP10 PUSH1 0x40 MLOAD DUP6 PUSH4 0xFFFFFFFF AND PUSH1 0xE0 SHL DUP2 MSTORE PUSH1 0x4 ADD PUSH2 0xEB9 SWAP5 SWAP4 SWAP3 SWAP2 SWAP1 PUSH2 0x2D1A JUMP JUMPDEST PUSH1 0x20 PUSH1 0x40 MLOAD DUP1 DUP4 SUB DUP2 DUP7 GAS STATICCALL SWAP3 POP POP POP DUP1 ISZERO PUSH2 0xEF3 JUMPI POP PUSH1 0x40 MLOAD RETURNDATASIZE PUSH1 0x1F NOT PUSH1 0x1F DUP3 ADD AND DUP3 ADD DUP1 PUSH1 0x40 MSTORE POP DUP2 ADD SWAP1 PUSH2 0xEF0 SWAP2 SWAP1 PUSH2 0x2D95 JUMP JUMPDEST PUSH1 0x1 JUMPDEST PUSH2 0xF21 JUMPI PUSH1 0x1 DUP3 MLOAD PUSH2 0xF05 SWAP2 SWAP1 PUSH2 0x270F JUMP JUMPDEST DUP2 SUB PUSH2 0xF1C JUMPI PUSH0 SWAP10 POP POP POP POP POP POP POP POP POP POP PUSH2 0xFBE JUMP JUMPDEST PUSH2 0xF5F JUMP JUMPDEST DUP1 ISZERO PUSH2 0xF2C JUMPI DUP3 MLOAD SWAP2 POP JUMPDEST DUP1 ISZERO DUP1 ISZERO PUSH2 0xF46 JUMPI POP PUSH1 0x1 DUP4 MLOAD PUSH2 0xF43 SWAP2 SWAP1 PUSH2 0x270F JUMP JUMPDEST DUP3 EQ JUMPDEST ISZERO PUSH2 0xF5D JUMPI PUSH0 SWAP11 POP POP POP POP POP POP POP POP POP POP POP PUSH2 0xFBE JUMP JUMPDEST POP JUMPDEST PUSH2 0xF8A JUMP JUMPDEST PUSH1 0x1 DUP3 MLOAD PUSH2 0xF72 SWAP2 SWAP1 PUSH2 0x270F JUMP JUMPDEST DUP2 SUB PUSH2 0xF89 JUMPI PUSH0 SWAP10 POP POP POP POP POP POP POP POP POP POP PUSH2 0xFBE JUMP JUMPDEST JUMPDEST DUP1 DUP1 PUSH2 0xF95 SWAP1 PUSH2 0x276F JUMP JUMPDEST SWAP2 POP POP PUSH2 0xD88 JUMP JUMPDEST POP POP POP DUP1 DUP1 PUSH2 0xFAB SWAP1 PUSH2 0x276F JUMP JUMPDEST SWAP2 POP POP PUSH2 0xBDE JUMP JUMPDEST PUSH1 0x1 SWAP7 POP POP POP POP POP POP POP JUMPDEST SWAP2 SWAP1 POP JUMP JUMPDEST PUSH2 0xFCB PUSH2 0x1DD3 JUMP JUMPDEST PUSH2 0xFD4 PUSH0 PUSH2 0x1E5A JUMP JUMPDEST JUMP JUMPDEST PUSH0 DUP1 PUSH0 SWAP1 SLOAD SWAP1 PUSH2 0x100 EXP SWAP1 DIV PUSH20 0xFFFFFFFFFFFFFFFFFFFFFFFFFFFFFFFFFFFFFFFF AND SWAP1 POP SWAP1 JUMP JUMPDEST PUSH1 0x4 PUSH1 0x20 MSTORE DUP2 PUSH0 MSTORE PUSH1 0x40 PUSH0 KECCAK256 DUP2 DUP2 SLOAD DUP2 LT PUSH2 0x1016 JUMPI PUSH0 DUP1 REVERT JUMPDEST SWAP1 PUSH0 MSTORE PUSH1 0x20 PUSH0 KECCAK256 ADD PUSH0 SWAP2 POP SWAP2 POP SWAP1 SLOAD SWAP1 PUSH2 0x100 EXP SWAP1 DIV PUSH20 0xFFFFFFFFFFFFFFFFFFFFFFFFFFFFFFFFFFFFFFFF AND DUP2 JUMP JUMPDEST PUSH2 0x104D PUSH2 0x1DD3 JUMP JUMPDEST PUSH0 PUSH20 0xFFFFFFFFFFFFFFFFFFFFFFFFFFFFFFFFFFFFFFFF AND DUP4 PUSH20 0xFFFFFFFFFFFFFFFFFFFFFFFFFFFFFFFFFFFFFFFF AND SUB PUSH2 0x10BB JUMPI PUSH1 0x40 MLOAD PUSH32 0x8C379A000000000000000000000000000000000000000000000000000000000 DUP2 MSTORE PUSH1 0x4 ADD PUSH2 0x10B2 SWAP1 PUSH2 0x2539 JUMP JUMPDEST PUSH1 0x40 MLOAD DUP1 SWAP2 SUB SWAP1 REVERT JUMPDEST PUSH0 PUSH1 0x3 PUSH0 DUP6 PUSH20 0xFFFFFFFFFFFFFFFFFFFFFFFFFFFFFFFFFFFFFFFF AND PUSH20 0xFFFFFFFFFFFFFFFFFFFFFFFFFFFFFFFFFFFFFFFF AND DUP2 MSTORE PUSH1 0x20 ADD SWAP1 DUP2 MSTORE PUSH1 0x20 ADD PUSH0 KECCAK256 DUP1 SLOAD SWAP1 POP EQ PUSH2 0x113D JUMPI PUSH1 0x40 MLOAD PUSH32 0x8C379A000000000000000000000000000000000000000000000000000000000 DUP2 MSTORE PUSH1 0x4 ADD PUSH2 0x1134 SWAP1 PUSH2 0x2E0A JUMP JUMPDEST PUSH1 0x40 MLOAD DUP1 SWAP2 SUB SWAP1 REVERT JUMPDEST PUSH0 DUP3 DUP3 SWAP1 POP GT PUSH2 0x1182 JUMPI PUSH1 0x40 MLOAD PUSH32 0x8C379A000000000000000000000000000000000000000000000000000000000 DUP2 MSTORE PUSH1 0x4 ADD PUSH2 0x1179 SWAP1 PUSH2 0x2E98 JUMP JUMPDEST PUSH1 0x40 MLOAD DUP1 SWAP2 SUB SWAP1 REVERT JUMPDEST PUSH1 0xF DUP3 DUP3 SWAP1 POP GT ISZERO PUSH2 0x11C9 JUMPI PUSH1 0x40 MLOAD PUSH32 0x8C379A000000000000000000000000000000000000000000000000000000000 DUP2 MSTORE PUSH1 0x4 ADD PUSH2 0x11C0 SWAP1 PUSH2 0x262F JUMP JUMPDEST PUSH1 0x40 MLOAD DUP1 SWAP2 SUB SWAP1 REVERT JUMPDEST PUSH1 0x32 PUSH1 0x2 DUP1 SLOAD SWAP1 POP LT PUSH2 0x1211 JUMPI PUSH1 0x40 MLOAD PUSH32 0x8C379A000000000000000000000000000000000000000000000000000000000 DUP2 MSTORE PUSH1 0x4 ADD PUSH2 0x1208 SWAP1 PUSH2 0x2F26 JUMP JUMPDEST PUSH1 0x40 MLOAD DUP1 SWAP2 SUB SWAP1 REVERT JUMPDEST PUSH1 0x2 DUP4 SWAP1 DUP1 PUSH1 0x1 DUP2 SLOAD ADD DUP1 DUP3 SSTORE DUP1 SWAP2 POP POP PUSH1 0x1 SWAP1 SUB SWAP1 PUSH0 MSTORE PUSH1 0x20 PUSH0 KECCAK256 ADD PUSH0 SWAP1 SWAP2 SWAP1 SWAP2 SWAP1 SWAP2 PUSH2 0x100 EXP DUP2 SLOAD DUP2 PUSH20 0xFFFFFFFFFFFFFFFFFFFFFFFFFFFFFFFFFFFFFFFF MUL NOT AND SWAP1 DUP4 PUSH20 0xFFFFFFFFFFFFFFFFFFFFFFFFFFFFFFFFFFFFFFFF AND MUL OR SWAP1 SSTORE POP DUP2 DUP2 PUSH1 0x3 PUSH0 DUP7 PUSH20 0xFFFFFFFFFFFFFFFFFFFFFFFFFFFFFFFFFFFFFFFF AND PUSH20 0xFFFFFFFFFFFFFFFFFFFFFFFFFFFFFFFFFFFFFFFF AND DUP2 MSTORE PUSH1 0x20 ADD SWAP1 DUP2 MSTORE PUSH1 0x20 ADD PUSH0 KECCAK256 SWAP2 SWAP1 PUSH2 0x12BD SWAP3 SWAP2 SWAP1 PUSH2 0x1F22 JUMP JUMPDEST POP PUSH0 JUMPDEST DUP3 DUP3 SWAP1 POP DUP2 LT ISZERO PUSH2 0x1366 JUMPI PUSH1 0x4 PUSH0 DUP5 DUP5 DUP5 DUP2 DUP2 LT PUSH2 0x12E1 JUMPI PUSH2 0x12E0 PUSH2 0x26B5 JUMP JUMPDEST JUMPDEST SWAP1 POP PUSH1 0x20 MUL ADD CALLDATALOAD DUP2 MSTORE PUSH1 0x20 ADD SWAP1 DUP2 MSTORE PUSH1 0x20 ADD PUSH0 KECCAK256 DUP5 SWAP1 DUP1 PUSH1 0x1 DUP2 SLOAD ADD DUP1 DUP3 SSTORE DUP1 SWAP2 POP POP PUSH1 0x1 SWAP1 SUB SWAP1 PUSH0 MSTORE PUSH1 0x20 PUSH0 KECCAK256 ADD PUSH0 SWAP1 SWAP2 SWAP1 SWAP2 SWAP1 SWAP2 PUSH2 0x100 EXP DUP2 SLOAD DUP2 PUSH20 0xFFFFFFFFFFFFFFFFFFFFFFFFFFFFFFFFFFFFFFFF MUL NOT AND SWAP1 DUP4 PUSH20 0xFFFFFFFFFFFFFFFFFFFFFFFFFFFFFFFFFFFFFFFF AND MUL OR SWAP1 SSTORE POP DUP1 DUP1 PUSH2 0x135E SWAP1 PUSH2 0x276F JUMP JUMPDEST SWAP2 POP POP PUSH2 0x12C0 JUMP JUMPDEST POP DUP3 PUSH20 0xFFFFFFFFFFFFFFFFFFFFFFFFFFFFFFFFFFFFFFFF AND PUSH32 0xFEDC33FD34859594822C0FF6F3F4F9FC279CC6D5CAE53068F706A088E4500872 DUP4 DUP4 PUSH1 0x40 MLOAD PUSH2 0x13AF SWAP3 SWAP2 SWAP1 PUSH2 0x281E JUMP JUMPDEST PUSH1 0x40 MLOAD DUP1 SWAP2 SUB SWAP1 LOG2 POP POP POP JUMP JUMPDEST PUSH1 0x1 DUP2 DUP2 SLOAD DUP2 LT PUSH2 0x13CB JUMPI PUSH0 DUP1 REVERT JUMPDEST SWAP1 PUSH0 MSTORE PUSH1 0x20 PUSH0 KECCAK256 ADD PUSH0 SWAP2 POP SWAP1 POP SLOAD DUP2 JUMP JUMPDEST PUSH2 0x13E4 PUSH2 0x1DD3 JUMP JUMPDEST PUSH0 PUSH20 0xFFFFFFFFFFFFFFFFFFFFFFFFFFFFFFFFFFFFFFFF AND DUP2 PUSH20 0xFFFFFFFFFFFFFFFFFFFFFFFFFFFFFFFFFFFFFFFF AND SUB PUSH2 0x1452 JUMPI PUSH1 0x40 MLOAD PUSH32 0x8C379A000000000000000000000000000000000000000000000000000000000 DUP2 MSTORE PUSH1 0x4 ADD PUSH2 0x1449 SWAP1 PUSH2 0x2539 JUMP JUMPDEST PUSH1 0x40 MLOAD DUP1 SWAP2 SUB SWAP1 REVERT JUMPDEST PUSH0 PUSH1 0x3 PUSH0 DUP4 PUSH20 0xFFFFFFFFFFFFFFFFFFFFFFFFFFFFFFFFFFFFFFFF AND PUSH20 0xFFFFFFFFFFFFFFFFFFFFFFFFFFFFFFFFFFFFFFFF AND DUP2 MSTORE PUSH1 0x20 ADD SWAP1 DUP2 MSTORE PUSH1 0x20 ADD PUSH0 KECCAK256 DUP1 SLOAD SWAP1 POP SUB PUSH2 0x14D4 JUMPI PUSH1 0x40 MLOAD PUSH32 0x8C379A000000000000000000000000000000000000000000000000000000000 DUP2 MSTORE PUSH1 0x4 ADD PUSH2 0x14CB SWAP1 PUSH2 0x25A1 JUMP JUMPDEST PUSH1 0x40 MLOAD DUP1 SWAP2 SUB SWAP1 REVERT JUMPDEST PUSH0 PUSH1 0x2 DUP1 SLOAD SWAP1 POP SWAP1 POP PUSH0 JUMPDEST DUP2 DUP2 LT ISZERO PUSH2 0x1652 JUMPI DUP3 PUSH20 0xFFFFFFFFFFFFFFFFFFFFFFFFFFFFFFFFFFFFFFFF AND PUSH1 0x2 DUP3 DUP2 SLOAD DUP2 LT PUSH2 0x1512 JUMPI PUSH2 0x1511 PUSH2 0x26B5 JUMP JUMPDEST JUMPDEST SWAP1 PUSH0 MSTORE PUSH1 0x20 PUSH0 KECCAK256 ADD PUSH0 SWAP1 SLOAD SWAP1 PUSH2 0x100 EXP SWAP1 DIV PUSH20 0xFFFFFFFFFFFFFFFFFFFFFFFFFFFFFFFFFFFFFFFF AND PUSH20 0xFFFFFFFFFFFFFFFFFFFFFFFFFFFFFFFFFFFFFFFF AND SUB PUSH2 0x163F JUMPI PUSH1 0x2 PUSH1 0x1 DUP4 PUSH2 0x1564 SWAP2 SWAP1 PUSH2 0x270F JUMP JUMPDEST DUP2 SLOAD DUP2 LT PUSH2 0x1575 JUMPI PUSH2 0x1574 PUSH2 0x26B5 JUMP JUMPDEST JUMPDEST SWAP1 PUSH0 MSTORE PUSH1 0x20 PUSH0 KECCAK256 ADD PUSH0 SWAP1 SLOAD SWAP1 PUSH2 0x100 EXP SWAP1 DIV PUSH20 0xFFFFFFFFFFFFFFFFFFFFFFFFFFFFFFFFFFFFFFFF AND PUSH1 0x2 DUP3 DUP2 SLOAD DUP2 LT PUSH2 0x15B1 JUMPI PUSH2 0x15B0 PUSH2 0x26B5 JUMP JUMPDEST JUMPDEST SWAP1 PUSH0 MSTORE PUSH1 0x20 PUSH0 KECCAK256 ADD PUSH0 PUSH2 0x100 EXP DUP2 SLOAD DUP2 PUSH20 0xFFFFFFFFFFFFFFFFFFFFFFFFFFFFFFFFFFFFFFFF MUL NOT AND SWAP1 DUP4 PUSH20 0xFFFFFFFFFFFFFFFFFFFFFFFFFFFFFFFFFFFFFFFF AND MUL OR SWAP1 SSTORE POP PUSH1 0x2 DUP1 SLOAD DUP1 PUSH2 0x1608 JUMPI PUSH2 0x1607 PUSH2 0x2742 JUMP JUMPDEST JUMPDEST PUSH1 0x1 SWAP1 SUB DUP2 DUP2 SWAP1 PUSH0 MSTORE PUSH1 0x20 PUSH0 KECCAK256 ADD PUSH0 PUSH2 0x100 EXP DUP2 SLOAD SWAP1 PUSH20 0xFFFFFFFFFFFFFFFFFFFFFFFFFFFFFFFFFFFFFFFF MUL NOT AND SWAP1 SSTORE SWAP1 SSTORE PUSH2 0x1652 JUMP JUMPDEST DUP1 DUP1 PUSH2 0x164A SWAP1 PUSH2 0x276F JUMP JUMPDEST SWAP2 POP POP PUSH2 0x14DF JUMP JUMPDEST POP PUSH0 JUMPDEST PUSH1 0x3 PUSH0 DUP5 PUSH20 0xFFFFFFFFFFFFFFFFFFFFFFFFFFFFFFFFFFFFFFFF AND PUSH20 0xFFFFFFFFFFFFFFFFFFFFFFFFFFFFFFFFFFFFFFFF AND DUP2 MSTORE PUSH1 0x20 ADD SWAP1 DUP2 MSTORE PUSH1 0x20 ADD PUSH0 KECCAK256 DUP1 SLOAD SWAP1 POP DUP2 LT ISZERO PUSH2 0x18D7 JUMPI PUSH0 PUSH1 0x3 PUSH0 DUP6 PUSH20 0xFFFFFFFFFFFFFFFFFFFFFFFFFFFFFFFFFFFFFFFF AND PUSH20 0xFFFFFFFFFFFFFFFFFFFFFFFFFFFFFFFFFFFFFFFF AND DUP2 MSTORE PUSH1 0x20 ADD SWAP1 DUP2 MSTORE PUSH1 0x20 ADD PUSH0 KECCAK256 DUP3 DUP2 SLOAD DUP2 LT PUSH2 0x16ED JUMPI PUSH2 0x16EC PUSH2 0x26B5 JUMP JUMPDEST JUMPDEST SWAP1 PUSH0 MSTORE PUSH1 0x20 PUSH0 KECCAK256 ADD SLOAD SWAP1 POP PUSH0 PUSH1 0x4 PUSH0 DUP4 DUP2 MSTORE PUSH1 0x20 ADD SWAP1 DUP2 MSTORE PUSH1 0x20 ADD PUSH0 KECCAK256 DUP1 SLOAD SWAP1 POP SWAP1 POP PUSH0 JUMPDEST DUP2 DUP2 LT ISZERO PUSH2 0x18C1 JUMPI DUP6 PUSH20 0xFFFFFFFFFFFFFFFFFFFFFFFFFFFFFFFFFFFFFFFF AND PUSH1 0x4 PUSH0 DUP6 DUP2 MSTORE PUSH1 0x20 ADD SWAP1 DUP2 MSTORE PUSH1 0x20 ADD PUSH0 KECCAK256 DUP3 DUP2 SLOAD DUP2 LT PUSH2 0x1754 JUMPI PUSH2 0x1753 PUSH2 0x26B5 JUMP JUMPDEST JUMPDEST SWAP1 PUSH0 MSTORE PUSH1 0x20 PUSH0 KECCAK256 ADD PUSH0 SWAP1 SLOAD SWAP1 PUSH2 0x100 EXP SWAP1 DIV PUSH20 0xFFFFFFFFFFFFFFFFFFFFFFFFFFFFFFFFFFFFFFFF AND PUSH20 0xFFFFFFFFFFFFFFFFFFFFFFFFFFFFFFFFFFFFFFFF AND SUB PUSH2 0x18AE JUMPI PUSH1 0x4 PUSH0 DUP5 DUP2 MSTORE PUSH1 0x20 ADD SWAP1 DUP2 MSTORE PUSH1 0x20 ADD PUSH0 KECCAK256 PUSH1 0x1 DUP4 PUSH2 0x17B5 SWAP2 SWAP1 PUSH2 0x270F JUMP JUMPDEST DUP2 SLOAD DUP2 LT PUSH2 0x17C6 JUMPI PUSH2 0x17C5 PUSH2 0x26B5 JUMP JUMPDEST JUMPDEST SWAP1 PUSH0 MSTORE PUSH1 0x20 PUSH0 KECCAK256 ADD PUSH0 SWAP1 SLOAD SWAP1 PUSH2 0x100 EXP SWAP1 DIV PUSH20 0xFFFFFFFFFFFFFFFFFFFFFFFFFFFFFFFFFFFFFFFF AND PUSH1 0x4 PUSH0 DUP6 DUP2 MSTORE PUSH1 0x20 ADD SWAP1 DUP2 MSTORE PUSH1 0x20 ADD PUSH0 KECCAK256 DUP3 DUP2 SLOAD DUP2 LT PUSH2 0x1811 JUMPI PUSH2 0x1810 PUSH2 0x26B5 JUMP JUMPDEST JUMPDEST SWAP1 PUSH0 MSTORE PUSH1 0x20 PUSH0 KECCAK256 ADD PUSH0 PUSH2 0x100 EXP DUP2 SLOAD DUP2 PUSH20 0xFFFFFFFFFFFFFFFFFFFFFFFFFFFFFFFFFFFFFFFF MUL NOT AND SWAP1 DUP4 PUSH20 0xFFFFFFFFFFFFFFFFFFFFFFFFFFFFFFFFFFFFFFFF AND MUL OR SWAP1 SSTORE POP PUSH1 0x4 PUSH0 DUP5 DUP2 MSTORE PUSH1 0x20 ADD SWAP1 DUP2 MSTORE PUSH1 0x20 ADD PUSH0 KECCAK256 DUP1 SLOAD DUP1 PUSH2 0x1877 JUMPI PUSH2 0x1876 PUSH2 0x2742 JUMP JUMPDEST JUMPDEST PUSH1 0x1 SWAP1 SUB DUP2 DUP2 SWAP1 PUSH0 MSTORE PUSH1 0x20 PUSH0 KECCAK256 ADD PUSH0 PUSH2 0x100 EXP DUP2 SLOAD SWAP1 PUSH20 0xFFFFFFFFFFFFFFFFFFFFFFFFFFFFFFFFFFFFFFFF MUL NOT AND SWAP1 SSTORE SWAP1 SSTORE PUSH2 0x18C1 JUMP JUMPDEST DUP1 DUP1 PUSH2 0x18B9 SWAP1 PUSH2 0x276F JUMP JUMPDEST SWAP2 POP POP PUSH2 0x1712 JUMP JUMPDEST POP POP POP DUP1 DUP1 PUSH2 0x18CF SWAP1 PUSH2 0x276F JUMP JUMPDEST SWAP2 POP POP PUSH2 0x1655 JUMP JUMPDEST POP PUSH1 0x3 PUSH0 DUP4 PUSH20 0xFFFFFFFFFFFFFFFFFFFFFFFFFFFFFFFFFFFFFFFF AND PUSH20 0xFFFFFFFFFFFFFFFFFFFFFFFFFFFFFFFFFFFFFFFF AND DUP2 MSTORE PUSH1 0x20 ADD SWAP1 DUP2 MSTORE PUSH1 0x20 ADD PUSH0 KECCAK256 PUSH0 PUSH2 0x1920 SWAP2 SWAP1 PUSH2 0x1F6D JUMP JUMPDEST DUP2 PUSH20 0xFFFFFFFFFFFFFFFFFFFFFFFFFFFFFFFFFFFFFFFF AND PUSH32 0x2214DED40113CC3FB63FC206CAFEE88270B0A903DAC7245D54EFDDE30EBB0321 PUSH1 0x40 MLOAD PUSH1 0x40 MLOAD DUP1 SWAP2 SUB SWAP1 LOG2 POP POP JUMP JUMPDEST PUSH1 0x3 PUSH1 0x20 MSTORE DUP2 PUSH0 MSTORE PUSH1 0x40 PUSH0 KECCAK256 DUP2 DUP2 SLOAD DUP2 LT PUSH2 0x1980 JUMPI PUSH0 DUP1 REVERT JUMPDEST SWAP1 PUSH0 MSTORE PUSH1 0x20 PUSH0 KECCAK256 ADD PUSH0 SWAP2 POP SWAP2 POP POP SLOAD DUP2 JUMP JUMPDEST PUSH0 DUP1 PUSH1 0x1 DUP1 SLOAD SWAP1 POP SWAP1 POP PUSH0 JUMPDEST DUP2 DUP2 LT ISZERO PUSH2 0x19E7 JUMPI DUP4 PUSH1 0x1 DUP3 DUP2 SLOAD DUP2 LT PUSH2 0x19BB JUMPI PUSH2 0x19BA PUSH2 0x26B5 JUMP JUMPDEST JUMPDEST SWAP1 PUSH0 MSTORE PUSH1 0x20 PUSH0 KECCAK256 ADD SLOAD SUB PUSH2 0x19D4 JUMPI PUSH1 0x1 SWAP3 POP POP POP PUSH2 0x19ED JUMP JUMPDEST DUP1 DUP1 PUSH2 0x19DF SWAP1 PUSH2 0x276F JUMP JUMPDEST SWAP2 POP POP PUSH2 0x199E JUMP JUMPDEST POP PUSH0 SWAP2 POP POP JUMPDEST SWAP2 SWAP1 POP JUMP JUMPDEST PUSH1 0x60 PUSH0 PUSH1 0x3 PUSH0 DUP5 PUSH20 0xFFFFFFFFFFFFFFFFFFFFFFFFFFFFFFFFFFFFFFFF AND PUSH20 0xFFFFFFFFFFFFFFFFFFFFFFFFFFFFFFFFFFFFFFFF AND DUP2 MSTORE PUSH1 0x20 ADD SWAP1 DUP2 MSTORE PUSH1 0x20 ADD PUSH0 KECCAK256 DUP1 SLOAD SWAP1 POP SUB PUSH2 0x1A76 JUMPI PUSH1 0x40 MLOAD PUSH32 0x8C379A000000000000000000000000000000000000000000000000000000000 DUP2 MSTORE PUSH1 0x4 ADD PUSH2 0x1A6D SWAP1 PUSH2 0x2F8E JUMP JUMPDEST PUSH1 0x40 MLOAD DUP1 SWAP2 SUB SWAP1 REVERT JUMPDEST PUSH1 0x3 PUSH0 DUP4 PUSH20 0xFFFFFFFFFFFFFFFFFFFFFFFFFFFFFFFFFFFFFFFF AND PUSH20 0xFFFFFFFFFFFFFFFFFFFFFFFFFFFFFFFFFFFFFFFF AND DUP2 MSTORE PUSH1 0x20 ADD SWAP1 DUP2 MSTORE PUSH1 0x20 ADD PUSH0 KECCAK256 DUP1 SLOAD DUP1 PUSH1 0x20 MUL PUSH1 0x20 ADD PUSH1 0x40 MLOAD SWAP1 DUP2 ADD PUSH1 0x40 MSTORE DUP1 SWAP3 SWAP2 SWAP1 DUP2 DUP2 MSTORE PUSH1 0x20 ADD DUP3 DUP1 SLOAD DUP1 ISZERO PUSH2 0x1AFB JUMPI PUSH1 0x20 MUL DUP3 ADD SWAP2 SWAP1 PUSH0 MSTORE PUSH1 0x20 PUSH0 KECCAK256 SWAP1 JUMPDEST DUP2 SLOAD DUP2 MSTORE PUSH1 0x20 ADD SWAP1 PUSH1 0x1 ADD SWAP1 DUP1 DUP4 GT PUSH2 0x1AE7 JUMPI JUMPDEST POP POP POP POP POP SWAP1 POP SWAP2 SWAP1 POP JUMP JUMPDEST PUSH2 0x1B0F PUSH2 0x1DD3 JUMP JUMPDEST PUSH0 PUSH1 0x1 DUP1 SLOAD SWAP1 POP SWAP1 POP PUSH1 0xF DUP2 LT PUSH2 0x1B5B JUMPI PUSH1 0x40 MLOAD PUSH32 0x8C379A000000000000000000000000000000000000000000000000000000000 DUP2 MSTORE PUSH1 0x4 ADD PUSH2 0x1B52 SWAP1 PUSH2 0x301C JUMP JUMPDEST PUSH1 0x40 MLOAD DUP1 SWAP2 SUB SWAP1 REVERT JUMPDEST PUSH0 JUMPDEST DUP2 DUP2 LT ISZERO PUSH2 0x1BD6 JUMPI DUP3 PUSH1 0x1 DUP3 DUP2 SLOAD DUP2 LT PUSH2 0x1B7A JUMPI PUSH2 0x1B79 PUSH2 0x26B5 JUMP JUMPDEST JUMPDEST SWAP1 PUSH0 MSTORE PUSH1 0x20 PUSH0 KECCAK256 ADD SLOAD SUB PUSH2 0x1BC3 JUMPI PUSH1 0x40 MLOAD PUSH32 0x8C379A000000000000000000000000000000000000000000000000000000000 DUP2 MSTORE PUSH1 0x4 ADD PUSH2 0x1BBA SWAP1 PUSH2 0x3084 JUMP JUMPDEST PUSH1 0x40 MLOAD DUP1 SWAP2 SUB SWAP1 REVERT JUMPDEST DUP1 DUP1 PUSH2 0x1BCE SWAP1 PUSH2 0x276F JUMP JUMPDEST SWAP2 POP POP PUSH2 0x1B5D JUMP JUMPDEST POP PUSH1 0x1 DUP3 SWAP1 DUP1 PUSH1 0x1 DUP2 SLOAD ADD DUP1 DUP3 SSTORE DUP1 SWAP2 POP POP PUSH1 0x1 SWAP1 SUB SWAP1 PUSH0 MSTORE PUSH1 0x20 PUSH0 KECCAK256 ADD PUSH0 SWAP1 SWAP2 SWAP1 SWAP2 SWAP1 SWAP2 POP SSTORE DUP2 PUSH32 0x1C928B7F7ADE2949E92366AA9454DBEF3A416B731CF6EC786BA9595BBD814D6 PUSH1 0x40 MLOAD PUSH1 0x40 MLOAD DUP1 SWAP2 SUB SWAP1 LOG2 POP POP JUMP JUMPDEST PUSH1 0x2 DUP2 DUP2 SLOAD DUP2 LT PUSH2 0x1C3D JUMPI PUSH0 DUP1 REVERT JUMPDEST SWAP1 PUSH0 MSTORE PUSH1 0x20 PUSH0 KECCAK256 ADD PUSH0 SWAP2 POP SLOAD SWAP1 PUSH2 0x100 EXP SWAP1 DIV PUSH20 0xFFFFFFFFFFFFFFFFFFFFFFFFFFFFFFFFFFFFFFFF AND DUP2 JUMP JUMPDEST PUSH1 0x60 PUSH1 0x2 DUP1 SLOAD DUP1 PUSH1 0x20 MUL PUSH1 0x20 ADD PUSH1 0x40 MLOAD SWAP1 DUP2 ADD PUSH1 0x40 MSTORE DUP1 SWAP3 SWAP2 SWAP1 DUP2 DUP2 MSTORE PUSH1 0x20 ADD DUP3 DUP1 SLOAD DUP1 ISZERO PUSH2 0x1CEA JUMPI PUSH1 0x20 MUL DUP3 ADD SWAP2 SWAP1 PUSH0 MSTORE PUSH1 0x20 PUSH0 KECCAK256 SWAP1 JUMPDEST DUP2 PUSH0 SWAP1 SLOAD SWAP1 PUSH2 0x100 EXP SWAP1 DIV PUSH20 0xFFFFFFFFFFFFFFFFFFFFFFFFFFFFFFFFFFFFFFFF AND PUSH20 0xFFFFFFFFFFFFFFFFFFFFFFFFFFFFFFFFFFFFFFFF AND DUP2 MSTORE PUSH1 0x20 ADD SWAP1 PUSH1 0x1 ADD SWAP1 DUP1 DUP4 GT PUSH2 0x1CA1 JUMPI JUMPDEST POP POP POP POP POP SWAP1 POP SWAP1 JUMP JUMPDEST PUSH0 DUP1 PUSH1 0x3 PUSH0 DUP5 PUSH20 0xFFFFFFFFFFFFFFFFFFFFFFFFFFFFFFFFFFFFFFFF AND PUSH20 0xFFFFFFFFFFFFFFFFFFFFFFFFFFFFFFFFFFFFFFFF AND DUP2 MSTORE PUSH1 0x20 ADD SWAP1 DUP2 MSTORE PUSH1 0x20 ADD PUSH0 KECCAK256 DUP1 SLOAD SWAP1 POP GT ISZERO PUSH2 0x1D46 JUMPI PUSH1 0x1 SWAP1 POP PUSH2 0x1D4A JUMP JUMPDEST PUSH0 SWAP1 POP JUMPDEST SWAP2 SWAP1 POP JUMP JUMPDEST PUSH2 0x1D57 PUSH2 0x1DD3 JUMP JUMPDEST PUSH0 PUSH20 0xFFFFFFFFFFFFFFFFFFFFFFFFFFFFFFFFFFFFFFFF AND DUP2 PUSH20 0xFFFFFFFFFFFFFFFFFFFFFFFFFFFFFFFFFFFFFFFF AND SUB PUSH2 0x1DC7 JUMPI PUSH0 PUSH1 0x40 MLOAD PUSH32 0x1E4FBDF700000000000000000000000000000000000000000000000000000000 DUP2 MSTORE PUSH1 0x4 ADD PUSH2 0x1DBE SWAP2 SWAP1 PUSH2 0x2336 JUMP JUMPDEST PUSH1 0x40 MLOAD DUP1 SWAP2 SUB SWAP1 REVERT JUMPDEST PUSH2 0x1DD0 DUP2 PUSH2 0x1E5A JUMP JUMPDEST POP JUMP JUMPDEST PUSH2 0x1DDB PUSH2 0x1F1B JUMP JUMPDEST PUSH20 0xFFFFFFFFFFFFFFFFFFFFFFFFFFFFFFFFFFFFFFFF AND PUSH2 0x1DF9 PUSH2 0xFD6 JUMP JUMPDEST PUSH20 0xFFFFFFFFFFFFFFFFFFFFFFFFFFFFFFFFFFFFFFFF AND EQ PUSH2 0x1E58 JUMPI PUSH2 0x1E1C PUSH2 0x1F1B JUMP JUMPDEST PUSH1 0x40 MLOAD PUSH32 0x118CDAA700000000000000000000000000000000000000000000000000000000 DUP2 MSTORE PUSH1 0x4 ADD PUSH2 0x1E4F SWAP2 SWAP1 PUSH2 0x2336 JUMP JUMPDEST PUSH1 0x40 MLOAD DUP1 SWAP2 SUB SWAP1 REVERT JUMPDEST JUMP JUMPDEST PUSH0 DUP1 PUSH0 SWAP1 SLOAD SWAP1 PUSH2 0x100 EXP SWAP1 DIV PUSH20 0xFFFFFFFFFFFFFFFFFFFFFFFFFFFFFFFFFFFFFFFF AND SWAP1 POP DUP2 PUSH0 DUP1 PUSH2 0x100 EXP DUP2 SLOAD DUP2 PUSH20 0xFFFFFFFFFFFFFFFFFFFFFFFFFFFFFFFFFFFFFFFF MUL NOT AND SWAP1 DUP4 PUSH20 0xFFFFFFFFFFFFFFFFFFFFFFFFFFFFFFFFFFFFFFFF AND MUL OR SWAP1 SSTORE POP DUP2 PUSH20 0xFFFFFFFFFFFFFFFFFFFFFFFFFFFFFFFFFFFFFFFF AND DUP2 PUSH20 0xFFFFFFFFFFFFFFFFFFFFFFFFFFFFFFFFFFFFFFFF AND PUSH32 0x8BE0079C531659141344CD1FD0A4F28419497F9722A3DAAFE3B4186F6B6457E0 PUSH1 0x40 MLOAD PUSH1 0x40 MLOAD DUP1 SWAP2 SUB SWAP1 LOG3 POP POP JUMP JUMPDEST PUSH0 CALLER SWAP1 POP SWAP1 JUMP JUMPDEST DUP3 DUP1 SLOAD DUP3 DUP3 SSTORE SWAP1 PUSH0 MSTORE PUSH1 0x20 PUSH0 KECCAK256 SWAP1 DUP2 ADD SWAP3 DUP3 ISZERO PUSH2 0x1F5C JUMPI SWAP2 PUSH1 0x20 MUL DUP3 ADD JUMPDEST DUP3 DUP2 GT ISZERO PUSH2 0x1F5B JUMPI DUP3 CALLDATALOAD DUP3 SSTORE SWAP2 PUSH1 0x20 ADD SWAP2 SWAP1 PUSH1 0x1 ADD SWAP1 PUSH2 0x1F40 JUMP JUMPDEST JUMPDEST POP SWAP1 POP PUSH2 0x1F69 SWAP2 SWAP1 PUSH2 0x1F8B JUMP JUMPDEST POP SWAP1 JUMP JUMPDEST POP DUP1 SLOAD PUSH0 DUP3 SSTORE SWAP1 PUSH0 MSTORE PUSH1 0x20 PUSH0 KECCAK256 SWAP1 DUP2 ADD SWAP1 PUSH2 0x1F88 SWAP2 SWAP1 PUSH2 0x1F8B JUMP JUMPDEST POP JUMP JUMPDEST JUMPDEST DUP1 DUP3 GT ISZERO PUSH2 0x1FA2 JUMPI PUSH0 DUP2 PUSH0 SWAP1 SSTORE POP PUSH1 0x1 ADD PUSH2 0x1F8C JUMP JUMPDEST POP SWAP1 JUMP JUMPDEST PUSH0 PUSH1 0x40 MLOAD SWAP1 POP SWAP1 JUMP JUMPDEST PUSH0 DUP1 REVERT JUMPDEST PUSH0 DUP1 REVERT JUMPDEST PUSH0 PUSH20 0xFFFFFFFFFFFFFFFFFFFFFFFFFFFFFFFFFFFFFFFF DUP3 AND SWAP1 POP SWAP2 SWAP1 POP JUMP JUMPDEST PUSH0 PUSH2 0x1FE0 DUP3 PUSH2 0x1FB7 JUMP JUMPDEST SWAP1 POP SWAP2 SWAP1 POP JUMP JUMPDEST PUSH0 PUSH2 0x1FF1 DUP3 PUSH2 0x1FD6 JUMP JUMPDEST SWAP1 POP SWAP2 SWAP1 POP JUMP JUMPDEST PUSH2 0x2001 DUP2 PUSH2 0x1FE7 JUMP JUMPDEST DUP2 EQ PUSH2 0x200B JUMPI PUSH0 DUP1 REVERT JUMPDEST POP JUMP JUMPDEST PUSH0 DUP2 CALLDATALOAD SWAP1 POP PUSH2 0x201C DUP2 PUSH2 0x1FF8 JUMP JUMPDEST SWAP3 SWAP2 POP POP JUMP JUMPDEST PUSH0 DUP1 REVERT JUMPDEST PUSH0 DUP1 REVERT JUMPDEST PUSH0 DUP1 REVERT JUMPDEST PUSH0 DUP1 DUP4 PUSH1 0x1F DUP5 ADD SLT PUSH2 0x2043 JUMPI PUSH2 0x2042 PUSH2 0x2022 JUMP JUMPDEST JUMPDEST DUP3 CALLDATALOAD SWAP1 POP PUSH8 0xFFFFFFFFFFFFFFFF DUP2 GT ISZERO PUSH2 0x2060 JUMPI PUSH2 0x205F PUSH2 0x2026 JUMP JUMPDEST JUMPDEST PUSH1 0x20 DUP4 ADD SWAP2 POP DUP4 PUSH1 0x20 DUP3 MUL DUP4 ADD GT ISZERO PUSH2 0x207C JUMPI PUSH2 0x207B PUSH2 0x202A JUMP JUMPDEST JUMPDEST SWAP3 POP SWAP3 SWAP1 POP JUMP JUMPDEST PUSH0 DUP1 PUSH0 PUSH1 0x40 DUP5 DUP7 SUB SLT ISZERO PUSH2 0x209A JUMPI PUSH2 0x2099 PUSH2 0x1FAF JUMP JUMPDEST JUMPDEST PUSH0 PUSH2 0x20A7 DUP7 DUP3 DUP8 ADD PUSH2 0x200E JUMP JUMPDEST SWAP4 POP POP PUSH1 0x20 DUP5 ADD CALLDATALOAD PUSH8 0xFFFFFFFFFFFFFFFF DUP2 GT ISZERO PUSH2 0x20C8 JUMPI PUSH2 0x20C7 PUSH2 0x1FB3 JUMP JUMPDEST JUMPDEST PUSH2 0x20D4 DUP7 DUP3 DUP8 ADD PUSH2 0x202E JUMP JUMPDEST SWAP3 POP SWAP3 POP POP SWAP3 POP SWAP3 POP SWAP3 JUMP JUMPDEST PUSH0 DUP2 SWAP1 POP SWAP2 SWAP1 POP JUMP JUMPDEST PUSH2 0x20F2 DUP2 PUSH2 0x20E0 JUMP JUMPDEST DUP2 EQ PUSH2 0x20FC JUMPI PUSH0 DUP1 REVERT JUMPDEST POP JUMP JUMPDEST PUSH0 DUP2 CALLDATALOAD SWAP1 POP PUSH2 0x210D DUP2 PUSH2 0x20E9 JUMP JUMPDEST SWAP3 SWAP2 POP POP JUMP JUMPDEST PUSH0 PUSH1 0x20 DUP3 DUP5 SUB SLT ISZERO PUSH2 0x2128 JUMPI PUSH2 0x2127 PUSH2 0x1FAF JUMP JUMPDEST JUMPDEST PUSH0 PUSH2 0x2135 DUP5 DUP3 DUP6 ADD PUSH2 0x20FF JUMP JUMPDEST SWAP2 POP POP SWAP3 SWAP2 POP POP JUMP JUMPDEST PUSH2 0x2147 DUP2 PUSH2 0x1FD6 JUMP JUMPDEST DUP2 EQ PUSH2 0x2151 JUMPI PUSH0 DUP1 REVERT JUMPDEST POP JUMP JUMPDEST PUSH0 DUP2 CALLDATALOAD SWAP1 POP PUSH2 0x2162 DUP2 PUSH2 0x213E JUMP JUMPDEST SWAP3 SWAP2 POP POP JUMP JUMPDEST PUSH0 DUP1 PUSH1 0x40 DUP4 DUP6 SUB SLT ISZERO PUSH2 0x217E JUMPI PUSH2 0x217D PUSH2 0x1FAF JUMP JUMPDEST JUMPDEST PUSH0 PUSH2 0x218B DUP6 DUP3 DUP7 ADD PUSH2 0x2154 JUMP JUMPDEST SWAP3 POP POP PUSH1 0x20 PUSH2 0x219C DUP6 DUP3 DUP7 ADD PUSH2 0x20FF JUMP JUMPDEST SWAP2 POP POP SWAP3 POP SWAP3 SWAP1 POP JUMP JUMPDEST PUSH0 DUP2 ISZERO ISZERO SWAP1 POP SWAP2 SWAP1 POP JUMP JUMPDEST PUSH2 0x21BA DUP2 PUSH2 0x21A6 JUMP JUMPDEST DUP3 MSTORE POP POP JUMP JUMPDEST PUSH0 PUSH1 0x20 DUP3 ADD SWAP1 POP PUSH2 0x21D3 PUSH0 DUP4 ADD DUP5 PUSH2 0x21B1 JUMP JUMPDEST SWAP3 SWAP2 POP POP JUMP JUMPDEST PUSH0 DUP2 MLOAD SWAP1 POP SWAP2 SWAP1 POP JUMP JUMPDEST PUSH0 DUP3 DUP3 MSTORE PUSH1 0x20 DUP3 ADD SWAP1 POP SWAP3 SWAP2 POP POP JUMP JUMPDEST PUSH0 DUP2 SWAP1 POP PUSH1 0x20 DUP3 ADD SWAP1 POP SWAP2 SWAP1 POP JUMP JUMPDEST PUSH0 DUP2 SWAP1 POP SWAP2 SWAP1 POP JUMP JUMPDEST PUSH0 PUSH2 0x2225 PUSH2 0x2220 PUSH2 0x221B DUP5 PUSH2 0x1FB7 JUMP JUMPDEST PUSH2 0x2202 JUMP JUMPDEST PUSH2 0x1FB7 JUMP JUMPDEST SWAP1 POP SWAP2 SWAP1 POP JUMP JUMPDEST PUSH0 PUSH2 0x2236 DUP3 PUSH2 0x220B JUMP JUMPDEST SWAP1 POP SWAP2 SWAP1 POP JUMP JUMPDEST PUSH0 PUSH2 0x2247 DUP3 PUSH2 0x222C JUMP JUMPDEST SWAP1 POP SWAP2 SWAP1 POP JUMP JUMPDEST PUSH2 0x2257 DUP2 PUSH2 0x223D JUMP JUMPDEST DUP3 MSTORE POP POP JUMP JUMPDEST PUSH0 PUSH2 0x2268 DUP4 DUP4 PUSH2 0x224E JUMP JUMPDEST PUSH1 0x20 DUP4 ADD SWAP1 POP SWAP3 SWAP2 POP POP JUMP JUMPDEST PUSH0 PUSH1 0x20 DUP3 ADD SWAP1 POP SWAP2 SWAP1 POP JUMP JUMPDEST PUSH0 PUSH2 0x228A DUP3 PUSH2 0x21D9 JUMP JUMPDEST PUSH2 0x2294 DUP2 DUP6 PUSH2 0x21E3 JUMP JUMPDEST SWAP4 POP PUSH2 0x229F DUP4 PUSH2 0x21F3 JUMP JUMPDEST DUP1 PUSH0 JUMPDEST DUP4 DUP2 LT ISZERO PUSH2 0x22CF JUMPI DUP2 MLOAD PUSH2 0x22B6 DUP9 DUP3 PUSH2 0x225D JUMP JUMPDEST SWAP8 POP PUSH2 0x22C1 DUP4 PUSH2 0x2274 JUMP JUMPDEST SWAP3 POP POP PUSH1 0x1 DUP2 ADD SWAP1 POP PUSH2 0x22A2 JUMP JUMPDEST POP DUP6 SWAP4 POP POP POP POP SWAP3 SWAP2 POP POP JUMP JUMPDEST PUSH0 PUSH1 0x20 DUP3 ADD SWAP1 POP DUP2 DUP2 SUB PUSH0 DUP4 ADD MSTORE PUSH2 0x22F4 DUP2 DUP5 PUSH2 0x2280 JUMP JUMPDEST SWAP1 POP SWAP3 SWAP2 POP POP JUMP JUMPDEST PUSH0 PUSH1 0x20 DUP3 DUP5 SUB SLT ISZERO PUSH2 0x2311 JUMPI PUSH2 0x2310 PUSH2 0x1FAF JUMP JUMPDEST JUMPDEST PUSH0 PUSH2 0x231E DUP5 DUP3 DUP6 ADD PUSH2 0x2154 JUMP JUMPDEST SWAP2 POP POP SWAP3 SWAP2 POP POP JUMP JUMPDEST PUSH2 0x2330 DUP2 PUSH2 0x1FD6 JUMP JUMPDEST DUP3 MSTORE POP POP JUMP JUMPDEST PUSH0 PUSH1 0x20 DUP3 ADD SWAP1 POP PUSH2 0x2349 PUSH0 DUP4 ADD DUP5 PUSH2 0x2327 JUMP JUMPDEST SWAP3 SWAP2 POP POP JUMP JUMPDEST PUSH0 DUP1 PUSH1 0x40 DUP4 DUP6 SUB SLT ISZERO PUSH2 0x2365 JUMPI PUSH2 0x2364 PUSH2 0x1FAF JUMP JUMPDEST JUMPDEST PUSH0 PUSH2 0x2372 DUP6 DUP3 DUP7 ADD PUSH2 0x20FF JUMP JUMPDEST SWAP3 POP POP PUSH1 0x20 PUSH2 0x2383 DUP6 DUP3 DUP7 ADD PUSH2 0x20FF JUMP JUMPDEST SWAP2 POP POP SWAP3 POP SWAP3 SWAP1 POP JUMP JUMPDEST PUSH2 0x2396 DUP2 PUSH2 0x223D JUMP JUMPDEST DUP3 MSTORE POP POP JUMP JUMPDEST PUSH0 PUSH1 0x20 DUP3 ADD SWAP1 POP PUSH2 0x23AF PUSH0 DUP4 ADD DUP5 PUSH2 0x238D JUMP JUMPDEST SWAP3 SWAP2 POP POP JUMP JUMPDEST PUSH2 0x23BE DUP2 PUSH2 0x20E0 JUMP JUMPDEST DUP3 MSTORE POP POP JUMP JUMPDEST PUSH0 PUSH1 0x20 DUP3 ADD SWAP1 POP PUSH2 0x23D7 PUSH0 DUP4 ADD DUP5 PUSH2 0x23B5 JUMP JUMPDEST SWAP3 SWAP2 POP POP JUMP JUMPDEST PUSH0 PUSH1 0x20 DUP3 DUP5 SUB SLT ISZERO PUSH2 0x23F2 JUMPI PUSH2 0x23F1 PUSH2 0x1FAF JUMP JUMPDEST JUMPDEST PUSH0 PUSH2 0x23FF DUP5 DUP3 DUP6 ADD PUSH2 0x200E JUMP JUMPDEST SWAP2 POP POP SWAP3 SWAP2 POP POP JUMP JUMPDEST PUSH0 DUP2 MLOAD SWAP1 POP SWAP2 SWAP1 POP JUMP JUMPDEST PUSH0 DUP3 DUP3 MSTORE PUSH1 0x20 DUP3 ADD SWAP1 POP SWAP3 SWAP2 POP POP JUMP JUMPDEST PUSH0 DUP2 SWAP1 POP PUSH1 0x20 DUP3 ADD SWAP1 POP SWAP2 SWAP1 POP JUMP JUMPDEST PUSH2 0x243A DUP2 PUSH2 0x20E0 JUMP JUMPDEST DUP3 MSTORE POP POP JUMP JUMPDEST PUSH0 PUSH2 0x244B DUP4 DUP4 PUSH2 0x2431 JUMP JUMPDEST PUSH1 0x20 DUP4 ADD SWAP1 POP SWAP3 SWAP2 POP POP JUMP JUMPDEST PUSH0 PUSH1 0x20 DUP3 ADD SWAP1 POP SWAP2 SWAP1 POP JUMP JUMPDEST PUSH0 PUSH2 0x246D DUP3 PUSH2 0x2408 JUMP JUMPDEST PUSH2 0x2477 DUP2 DUP6 PUSH2 0x2412 JUMP JUMPDEST SWAP4 POP PUSH2 0x2482 DUP4 PUSH2 0x2422 JUMP JUMPDEST DUP1 PUSH0 JUMPDEST DUP4 DUP2 LT ISZERO PUSH2 0x24B2 JUMPI DUP2 MLOAD PUSH2 0x2499 DUP9 DUP3 PUSH2 0x2440 JUMP JUMPDEST SWAP8 POP PUSH2 0x24A4 DUP4 PUSH2 0x2457 JUMP JUMPDEST SWAP3 POP POP PUSH1 0x1 DUP2 ADD SWAP1 POP PUSH2 0x2485 JUMP JUMPDEST POP DUP6 SWAP4 POP POP POP POP SWAP3 SWAP2 POP POP JUMP JUMPDEST PUSH0 PUSH1 0x20 DUP3 ADD SWAP1 POP DUP2 DUP2 SUB PUSH0 DUP4 ADD MSTORE PUSH2 0x24D7 DUP2 DUP5 PUSH2 0x2463 JUMP JUMPDEST SWAP1 POP SWAP3 SWAP2 POP POP JUMP JUMPDEST PUSH0 DUP3 DUP3 MSTORE PUSH1 0x20 DUP3 ADD SWAP1 POP SWAP3 SWAP2 POP POP JUMP JUMPDEST PUSH32 0x696E76616C696420617267756D656E74202D207A65726F206164647265737300 PUSH0 DUP3 ADD MSTORE POP JUMP JUMPDEST PUSH0 PUSH2 0x2523 PUSH1 0x1F DUP4 PUSH2 0x24DF JUMP JUMPDEST SWAP2 POP PUSH2 0x252E DUP3 PUSH2 0x24EF JUMP JUMPDEST PUSH1 0x20 DUP3 ADD SWAP1 POP SWAP2 SWAP1 POP JUMP JUMPDEST PUSH0 PUSH1 0x20 DUP3 ADD SWAP1 POP DUP2 DUP2 SUB PUSH0 DUP4 ADD MSTORE PUSH2 0x2550 DUP2 PUSH2 0x2517 JUMP JUMPDEST SWAP1 POP SWAP2 SWAP1 POP JUMP JUMPDEST PUSH32 0x4E4F542061207472757374656420697373756572000000000000000000000000 PUSH0 DUP3 ADD MSTORE POP JUMP JUMPDEST PUSH0 PUSH2 0x258B PUSH1 0x14 DUP4 PUSH2 0x24DF JUMP JUMPDEST SWAP2 POP PUSH2 0x2596 DUP3 PUSH2 0x2557 JUMP JUMPDEST PUSH1 0x20 DUP3 ADD SWAP1 POP SWAP2 SWAP1 POP JUMP JUMPDEST PUSH0 PUSH1 0x20 DUP3 ADD SWAP1 POP DUP2 DUP2 SUB PUSH0 DUP4 ADD MSTORE PUSH2 0x25B8 DUP2 PUSH2 0x257F JUMP JUMPDEST SWAP1 POP SWAP2 SWAP1 POP JUMP JUMPDEST PUSH32 0x63616E6E6F742068617665206D6F7265207468616E20313520636C61696D2074 PUSH0 DUP3 ADD MSTORE PUSH32 0x6F70696373000000000000000000000000000000000000000000000000000000 PUSH1 0x20 DUP3 ADD MSTORE POP JUMP JUMPDEST PUSH0 PUSH2 0x2619 PUSH1 0x25 DUP4 PUSH2 0x24DF JUMP JUMPDEST SWAP2 POP PUSH2 0x2624 DUP3 PUSH2 0x25BF JUMP JUMPDEST PUSH1 0x40 DUP3 ADD SWAP1 POP SWAP2 SWAP1 POP JUMP JUMPDEST PUSH0 PUSH1 0x20 DUP3 ADD SWAP1 POP DUP2 DUP2 SUB PUSH0 DUP4 ADD MSTORE PUSH2 0x2646 DUP2 PUSH2 0x260D JUMP JUMPDEST SWAP1 POP SWAP2 SWAP1 POP JUMP JUMPDEST PUSH32 0x636C61696D20746F706963732063616E6E6F7420626520656D70747900000000 PUSH0 DUP3 ADD MSTORE POP JUMP JUMPDEST PUSH0 PUSH2 0x2681 PUSH1 0x1C DUP4 PUSH2 0x24DF JUMP JUMPDEST SWAP2 POP PUSH2 0x268C DUP3 PUSH2 0x264D JUMP JUMPDEST PUSH1 0x20 DUP3 ADD SWAP1 POP SWAP2 SWAP1 POP JUMP JUMPDEST PUSH0 PUSH1 0x20 DUP3 ADD SWAP1 POP DUP2 DUP2 SUB PUSH0 DUP4 ADD MSTORE PUSH2 0x26AE DUP2 PUSH2 0x2675 JUMP JUMPDEST SWAP1 POP SWAP2 SWAP1 POP JUMP JUMPDEST PUSH32 0x4E487B7100000000000000000000000000000000000000000000000000000000 PUSH0 MSTORE PUSH1 0x32 PUSH1 0x4 MSTORE PUSH1 0x24 PUSH0 REVERT JUMPDEST PUSH32 0x4E487B7100000000000000000000000000000000000000000000000000000000 PUSH0 MSTORE PUSH1 0x11 PUSH1 0x4 MSTORE PUSH1 0x24 PUSH0 REVERT JUMPDEST PUSH0 PUSH2 0x2719 DUP3 PUSH2 0x20E0 JUMP JUMPDEST SWAP2 POP PUSH2 0x2724 DUP4 PUSH2 0x20E0 JUMP JUMPDEST SWAP3 POP DUP3 DUP3 SUB SWAP1 POP DUP2 DUP2 GT ISZERO PUSH2 0x273C JUMPI PUSH2 0x273B PUSH2 0x26E2 JUMP JUMPDEST JUMPDEST SWAP3 SWAP2 POP POP JUMP JUMPDEST PUSH32 0x4E487B7100000000000000000000000000000000000000000000000000000000 PUSH0 MSTORE PUSH1 0x31 PUSH1 0x4 MSTORE PUSH1 0x24 PUSH0 REVERT JUMPDEST PUSH0 PUSH2 0x2779 DUP3 PUSH2 0x20E0 JUMP JUMPDEST SWAP2 POP PUSH32 0xFFFFFFFFFFFFFFFFFFFFFFFFFFFFFFFFFFFFFFFFFFFFFFFFFFFFFFFFFFFFFFFF DUP3 SUB PUSH2 0x27AB JUMPI PUSH2 0x27AA PUSH2 0x26E2 JUMP JUMPDEST JUMPDEST PUSH1 0x1 DUP3 ADD SWAP1 POP SWAP2 SWAP1 POP JUMP JUMPDEST PUSH0 DUP1 REVERT JUMPDEST DUP3 DUP2 DUP4 CALLDATACOPY POP POP POP JUMP JUMPDEST PUSH0 PUSH2 0x27CE DUP4 DUP6 PUSH2 0x2412 JUMP JUMPDEST SWAP4 POP PUSH32 0x7FFFFFFFFFFFFFFFFFFFFFFFFFFFFFFFFFFFFFFFFFFFFFFFFFFFFFFFFFFFFFF DUP4 GT ISZERO PUSH2 0x2801 JUMPI PUSH2 0x2800 PUSH2 0x27B6 JUMP JUMPDEST JUMPDEST PUSH1 0x20 DUP4 MUL SWAP3 POP PUSH2 0x2812 DUP4 DUP6 DUP5 PUSH2 0x27BA JUMP JUMPDEST DUP3 DUP5 ADD SWAP1 POP SWAP4 SWAP3 POP POP POP JUMP JUMPDEST PUSH0 PUSH1 0x20 DUP3 ADD SWAP1 POP DUP2 DUP2 SUB PUSH0 DUP4 ADD MSTORE PUSH2 0x2837 DUP2 DUP5 DUP7 PUSH2 0x27C3 JUMP JUMPDEST SWAP1 POP SWAP4 SWAP3 POP POP POP JUMP JUMPDEST PUSH0 PUSH1 0x1F NOT PUSH1 0x1F DUP4 ADD AND SWAP1 POP SWAP2 SWAP1 POP JUMP JUMPDEST PUSH32 0x4E487B7100000000000000000000000000000000000000000000000000000000 PUSH0 MSTORE PUSH1 0x41 PUSH1 0x4 MSTORE PUSH1 0x24 PUSH0 REVERT JUMPDEST PUSH2 0x2886 DUP3 PUSH2 0x2840 JUMP JUMPDEST DUP2 ADD DUP2 DUP2 LT PUSH8 0xFFFFFFFFFFFFFFFF DUP3 GT OR ISZERO PUSH2 0x28A5 JUMPI PUSH2 0x28A4 PUSH2 0x2850 JUMP JUMPDEST JUMPDEST DUP1 PUSH1 0x40 MSTORE POP POP POP JUMP JUMPDEST PUSH0 PUSH2 0x28B7 PUSH2 0x1FA6 JUMP JUMPDEST SWAP1 POP PUSH2 0x28C3 DUP3 DUP3 PUSH2 0x287D JUMP JUMPDEST SWAP2 SWAP1 POP JUMP JUMPDEST PUSH0 PUSH8 0xFFFFFFFFFFFFFFFF DUP3 GT ISZERO PUSH2 0x28E2 JUMPI PUSH2 0x28E1 PUSH2 0x2850 JUMP JUMPDEST JUMPDEST PUSH1 0x20 DUP3 MUL SWAP1 POP PUSH1 0x20 DUP2 ADD SWAP1 POP SWAP2 SWAP1 POP JUMP JUMPDEST PUSH0 DUP2 MLOAD SWAP1 POP PUSH2 0x2901 DUP2 PUSH2 0x1FF8 JUMP JUMPDEST SWAP3 SWAP2 POP POP JUMP JUMPDEST PUSH0 PUSH2 0x2919 PUSH2 0x2914 DUP5 PUSH2 0x28C8 JUMP JUMPDEST PUSH2 0x28AE JUMP JUMPDEST SWAP1 POP DUP1 DUP4 DUP3 MSTORE PUSH1 0x20 DUP3 ADD SWAP1 POP PUSH1 0x20 DUP5 MUL DUP4 ADD DUP6 DUP2 GT ISZERO PUSH2 0x293C JUMPI PUSH2 0x293B PUSH2 0x202A JUMP JUMPDEST JUMPDEST DUP4 JUMPDEST DUP2 DUP2 LT ISZERO PUSH2 0x2965 JUMPI DUP1 PUSH2 0x2951 DUP9 DUP3 PUSH2 0x28F3 JUMP JUMPDEST DUP5 MSTORE PUSH1 0x20 DUP5 ADD SWAP4 POP POP PUSH1 0x20 DUP2 ADD SWAP1 POP PUSH2 0x293E JUMP JUMPDEST POP POP POP SWAP4 SWAP3 POP POP POP JUMP JUMPDEST PUSH0 DUP3 PUSH1 0x1F DUP4 ADD SLT PUSH2 0x2983 JUMPI PUSH2 0x2982 PUSH2 0x2022 JUMP JUMPDEST JUMPDEST DUP2 MLOAD PUSH2 0x2993 DUP5 DUP3 PUSH1 0x20 DUP7 ADD PUSH2 0x2907 JUMP JUMPDEST SWAP2 POP POP SWAP3 SWAP2 POP POP JUMP JUMPDEST PUSH0 PUSH1 0x20 DUP3 DUP5 SUB SLT ISZERO PUSH2 0x29B1 JUMPI PUSH2 0x29B0 PUSH2 0x1FAF JUMP JUMPDEST JUMPDEST PUSH0 DUP3 ADD MLOAD PUSH8 0xFFFFFFFFFFFFFFFF DUP2 GT ISZERO PUSH2 0x29CE JUMPI PUSH2 0x29CD PUSH2 0x1FB3 JUMP JUMPDEST JUMPDEST PUSH2 0x29DA DUP5 DUP3 DUP6 ADD PUSH2 0x296F JUMP JUMPDEST SWAP2 POP POP SWAP3 SWAP2 POP POP JUMP JUMPDEST PUSH0 PUSH1 0x40 DUP3 ADD SWAP1 POP PUSH2 0x29F6 PUSH0 DUP4 ADD DUP6 PUSH2 0x238D JUMP JUMPDEST PUSH2 0x2A03 PUSH1 0x20 DUP4 ADD DUP5 PUSH2 0x23B5 JUMP JUMPDEST SWAP4 SWAP3 POP POP POP JUMP JUMPDEST PUSH0 DUP2 SWAP1 POP SWAP2 SWAP1 POP JUMP JUMPDEST PUSH2 0x2A1C DUP2 PUSH2 0x2A0A JUMP JUMPDEST DUP3 MSTORE POP POP JUMP JUMPDEST PUSH0 PUSH1 0x20 DUP3 ADD SWAP1 POP PUSH2 0x2A35 PUSH0 DUP4 ADD DUP5 PUSH2 0x2A13 JUMP JUMPDEST SWAP3 SWAP2 POP POP JUMP JUMPDEST PUSH0 DUP2 MLOAD SWAP1 POP PUSH2 0x2A49 DUP2 PUSH2 0x20E9 JUMP JUMPDEST SWAP3 SWAP2 POP POP JUMP JUMPDEST PUSH0 DUP2 MLOAD SWAP1 POP PUSH2 0x2A5D DUP2 PUSH2 0x213E JUMP JUMPDEST SWAP3 SWAP2 POP POP JUMP JUMPDEST PUSH0 DUP1 REVERT JUMPDEST PUSH0 PUSH8 0xFFFFFFFFFFFFFFFF DUP3 GT ISZERO PUSH2 0x2A81 JUMPI PUSH2 0x2A80 PUSH2 0x2850 JUMP JUMPDEST JUMPDEST PUSH2 0x2A8A DUP3 PUSH2 0x2840 JUMP JUMPDEST SWAP1 POP PUSH1 0x20 DUP2 ADD SWAP1 POP SWAP2 SWAP1 POP JUMP JUMPDEST PUSH0 JUMPDEST DUP4 DUP2 LT ISZERO PUSH2 0x2AB4 JUMPI DUP1 DUP3 ADD MLOAD DUP2 DUP5 ADD MSTORE PUSH1 0x20 DUP2 ADD SWAP1 POP PUSH2 0x2A99 JUMP JUMPDEST PUSH0 DUP5 DUP5 ADD MSTORE POP POP POP POP JUMP JUMPDEST PUSH0 PUSH2 0x2AD1 PUSH2 0x2ACC DUP5 PUSH2 0x2A67 JUMP JUMPDEST PUSH2 0x28AE JUMP JUMPDEST SWAP1 POP DUP3 DUP2 MSTORE PUSH1 0x20 DUP2 ADD DUP5 DUP5 DUP5 ADD GT ISZERO PUSH2 0x2AED JUMPI PUSH2 0x2AEC PUSH2 0x2A63 JUMP JUMPDEST JUMPDEST PUSH2 0x2AF8 DUP5 DUP3 DUP6 PUSH2 0x2A97 JUMP JUMPDEST POP SWAP4 SWAP3 POP POP POP JUMP JUMPDEST PUSH0 DUP3 PUSH1 0x1F DUP4 ADD SLT PUSH2 0x2B14 JUMPI PUSH2 0x2B13 PUSH2 0x2022 JUMP JUMPDEST JUMPDEST DUP2 MLOAD PUSH2 0x2B24 DUP5 DUP3 PUSH1 0x20 DUP7 ADD PUSH2 0x2ABF JUMP JUMPDEST SWAP2 POP POP SWAP3 SWAP2 POP POP JUMP JUMPDEST PUSH0 PUSH8 0xFFFFFFFFFFFFFFFF DUP3 GT ISZERO PUSH2 0x2B47 JUMPI PUSH2 0x2B46 PUSH2 0x2850 JUMP JUMPDEST JUMPDEST PUSH2 0x2B50 DUP3 PUSH2 0x2840 JUMP JUMPDEST SWAP1 POP PUSH1 0x20 DUP2 ADD SWAP1 POP SWAP2 SWAP1 POP JUMP JUMPDEST PUSH0 PUSH2 0x2B6F PUSH2 0x2B6A DUP5 PUSH2 0x2B2D JUMP JUMPDEST PUSH2 0x28AE JUMP JUMPDEST SWAP1 POP DUP3 DUP2 MSTORE PUSH1 0x20 DUP2 ADD DUP5 DUP5 DUP5 ADD GT ISZERO PUSH2 0x2B8B JUMPI PUSH2 0x2B8A PUSH2 0x2A63 JUMP JUMPDEST JUMPDEST PUSH2 0x2B96 DUP5 DUP3 DUP6 PUSH2 0x2A97 JUMP JUMPDEST POP SWAP4 SWAP3 POP POP POP JUMP JUMPDEST PUSH0 DUP3 PUSH1 0x1F DUP4 ADD SLT PUSH2 0x2BB2 JUMPI PUSH2 0x2BB1 PUSH2 0x2022 JUMP JUMPDEST JUMPDEST DUP2 MLOAD PUSH2 0x2BC2 DUP5 DUP3 PUSH1 0x20 DUP7 ADD PUSH2 0x2B5D JUMP JUMPDEST SWAP2 POP POP SWAP3 SWAP2 POP POP JUMP JUMPDEST PUSH0 DUP1 PUSH0 DUP1 PUSH0 DUP1 PUSH1 0xC0 DUP8 DUP10 SUB SLT ISZERO PUSH2 0x2BE5 JUMPI PUSH2 0x2BE4 PUSH2 0x1FAF JUMP JUMPDEST JUMPDEST PUSH0 PUSH2 0x2BF2 DUP10 DUP3 DUP11 ADD PUSH2 0x2A3B JUMP JUMPDEST SWAP7 POP POP PUSH1 0x20 PUSH2 0x2C03 DUP10 DUP3 DUP11 ADD PUSH2 0x2A3B JUMP JUMPDEST SWAP6 POP POP PUSH1 0x40 PUSH2 0x2C14 DUP10 DUP3 DUP11 ADD PUSH2 0x2A4F JUMP JUMPDEST SWAP5 POP POP PUSH1 0x60 DUP8 ADD MLOAD PUSH8 0xFFFFFFFFFFFFFFFF DUP2 GT ISZERO PUSH2 0x2C35 JUMPI PUSH2 0x2C34 PUSH2 0x1FB3 JUMP JUMPDEST JUMPDEST PUSH2 0x2C41 DUP10 DUP3 DUP11 ADD PUSH2 0x2B00 JUMP JUMPDEST SWAP4 POP POP PUSH1 0x80 DUP8 ADD MLOAD PUSH8 0xFFFFFFFFFFFFFFFF DUP2 GT ISZERO PUSH2 0x2C62 JUMPI PUSH2 0x2C61 PUSH2 0x1FB3 JUMP JUMPDEST JUMPDEST PUSH2 0x2C6E DUP10 DUP3 DUP11 ADD PUSH2 0x2B00 JUMP JUMPDEST SWAP3 POP POP PUSH1 0xA0 DUP8 ADD MLOAD PUSH8 0xFFFFFFFFFFFFFFFF DUP2 GT ISZERO PUSH2 0x2C8F JUMPI PUSH2 0x2C8E PUSH2 0x1FB3 JUMP JUMPDEST JUMPDEST PUSH2 0x2C9B DUP10 DUP3 DUP11 ADD PUSH2 0x2B9E JUMP JUMPDEST SWAP2 POP POP SWAP3 SWAP6 POP SWAP3 SWAP6 POP SWAP3 SWAP6 JUMP JUMPDEST PUSH0 PUSH2 0x2CB2 DUP3 PUSH2 0x222C JUMP JUMPDEST SWAP1 POP SWAP2 SWAP1 POP JUMP JUMPDEST PUSH2 0x2CC2 DUP2 PUSH2 0x2CA8 JUMP JUMPDEST DUP3 MSTORE POP POP JUMP JUMPDEST PUSH0 DUP2 MLOAD SWAP1 POP SWAP2 SWAP1 POP JUMP JUMPDEST PUSH0 DUP3 DUP3 MSTORE PUSH1 0x20 DUP3 ADD SWAP1 POP SWAP3 SWAP2 POP POP JUMP JUMPDEST PUSH0 PUSH2 0x2CEC DUP3 PUSH2 0x2CC8 JUMP JUMPDEST PUSH2 0x2CF6 DUP2 DUP6 PUSH2 0x2CD2 JUMP JUMPDEST SWAP4 POP PUSH2 0x2D06 DUP2 DUP6 PUSH1 0x20 DUP7 ADD PUSH2 0x2A97 JUMP JUMPDEST PUSH2 0x2D0F DUP2 PUSH2 0x2840 JUMP JUMPDEST DUP5 ADD SWAP2 POP POP SWAP3 SWAP2 POP POP JUMP JUMPDEST PUSH0 PUSH1 0x80 DUP3 ADD SWAP1 POP PUSH2 0x2D2D PUSH0 DUP4 ADD DUP8 PUSH2 0x2CB9 JUMP JUMPDEST PUSH2 0x2D3A PUSH1 0x20 DUP4 ADD DUP7 PUSH2 0x23B5 JUMP JUMPDEST DUP2 DUP2 SUB PUSH1 0x40 DUP4 ADD MSTORE PUSH2 0x2D4C DUP2 DUP6 PUSH2 0x2CE2 JUMP JUMPDEST SWAP1 POP DUP2 DUP2 SUB PUSH1 0x60 DUP4 ADD MSTORE PUSH2 0x2D60 DUP2 DUP5 PUSH2 0x2CE2 JUMP JUMPDEST SWAP1 POP SWAP6 SWAP5 POP POP POP POP POP JUMP JUMPDEST PUSH2 0x2D74 DUP2 PUSH2 0x21A6 JUMP JUMPDEST DUP2 EQ PUSH2 0x2D7E JUMPI PUSH0 DUP1 REVERT JUMPDEST POP JUMP JUMPDEST PUSH0 DUP2 MLOAD SWAP1 POP PUSH2 0x2D8F DUP2 PUSH2 0x2D6B JUMP JUMPDEST SWAP3 SWAP2 POP POP JUMP JUMPDEST PUSH0 PUSH1 0x20 DUP3 DUP5 SUB SLT ISZERO PUSH2 0x2DAA JUMPI PUSH2 0x2DA9 PUSH2 0x1FAF JUMP JUMPDEST JUMPDEST PUSH0 PUSH2 0x2DB7 DUP5 DUP3 DUP6 ADD PUSH2 0x2D81 JUMP JUMPDEST SWAP2 POP POP SWAP3 SWAP2 POP POP JUMP JUMPDEST PUSH32 0x747275737465642049737375657220616C726561647920657869737473000000 PUSH0 DUP3 ADD MSTORE POP JUMP JUMPDEST PUSH0 PUSH2 0x2DF4 PUSH1 0x1D DUP4 PUSH2 0x24DF JUMP JUMPDEST SWAP2 POP PUSH2 0x2DFF DUP3 PUSH2 0x2DC0 JUMP JUMPDEST PUSH1 0x20 DUP3 ADD SWAP1 POP SWAP2 SWAP1 POP JUMP JUMPDEST PUSH0 PUSH1 0x20 DUP3 ADD SWAP1 POP DUP2 DUP2 SUB PUSH0 DUP4 ADD MSTORE PUSH2 0x2E21 DUP2 PUSH2 0x2DE8 JUMP JUMPDEST SWAP1 POP SWAP2 SWAP1 POP JUMP JUMPDEST PUSH32 0x7472757374656420636C61696D20746F706963732063616E6E6F742062652065 PUSH0 DUP3 ADD MSTORE PUSH32 0x6D70747900000000000000000000000000000000000000000000000000000000 PUSH1 0x20 DUP3 ADD MSTORE POP JUMP JUMPDEST PUSH0 PUSH2 0x2E82 PUSH1 0x24 DUP4 PUSH2 0x24DF JUMP JUMPDEST SWAP2 POP PUSH2 0x2E8D DUP3 PUSH2 0x2E28 JUMP JUMPDEST PUSH1 0x40 DUP3 ADD SWAP1 POP SWAP2 SWAP1 POP JUMP JUMPDEST PUSH0 PUSH1 0x20 DUP3 ADD SWAP1 POP DUP2 DUP2 SUB PUSH0 DUP4 ADD MSTORE PUSH2 0x2EAF DUP2 PUSH2 0x2E76 JUMP JUMPDEST SWAP1 POP SWAP2 SWAP1 POP JUMP JUMPDEST PUSH32 0x63616E6E6F742068617665206D6F7265207468616E2035302074727573746564 PUSH0 DUP3 ADD MSTORE PUSH32 0x2069737375657273000000000000000000000000000000000000000000000000 PUSH1 0x20 DUP3 ADD MSTORE POP JUMP JUMPDEST PUSH0 PUSH2 0x2F10 PUSH1 0x28 DUP4 PUSH2 0x24DF JUMP JUMPDEST SWAP2 POP PUSH2 0x2F1B DUP3 PUSH2 0x2EB6 JUMP JUMPDEST PUSH1 0x40 DUP3 ADD SWAP1 POP SWAP2 SWAP1 POP JUMP JUMPDEST PUSH0 PUSH1 0x20 DUP3 ADD SWAP1 POP DUP2 DUP2 SUB PUSH0 DUP4 ADD MSTORE PUSH2 0x2F3D DUP2 PUSH2 0x2F04 JUMP JUMPDEST SWAP1 POP SWAP2 SWAP1 POP JUMP JUMPDEST PUSH32 0x747275737465642049737375657220646F65736E277420657869737400000000 PUSH0 DUP3 ADD MSTORE POP JUMP JUMPDEST PUSH0 PUSH2 0x2F78 PUSH1 0x1C DUP4 PUSH2 0x24DF JUMP JUMPDEST SWAP2 POP PUSH2 0x2F83 DUP3 PUSH2 0x2F44 JUMP JUMPDEST PUSH1 0x20 DUP3 ADD SWAP1 POP SWAP2 SWAP1 POP JUMP JUMPDEST PUSH0 PUSH1 0x20 DUP3 ADD SWAP1 POP DUP2 DUP2 SUB PUSH0 DUP4 ADD MSTORE PUSH2 0x2FA5 DUP2 PUSH2 0x2F6C JUMP JUMPDEST SWAP1 POP SWAP2 SWAP1 POP JUMP JUMPDEST PUSH32 0x63616E6E6F742072657175697265206D6F7265207468616E20313520746F7069 PUSH0 DUP3 ADD MSTORE PUSH32 0x6373000000000000000000000000000000000000000000000000000000000000 PUSH1 0x20 DUP3 ADD MSTORE POP JUMP JUMPDEST PUSH0 PUSH2 0x3006 PUSH1 0x22 DUP4 PUSH2 0x24DF JUMP JUMPDEST SWAP2 POP PUSH2 0x3011 DUP3 PUSH2 0x2FAC JUMP JUMPDEST PUSH1 0x40 DUP3 ADD SWAP1 POP SWAP2 SWAP1 POP JUMP JUMPDEST PUSH0 PUSH1 0x20 DUP3 ADD SWAP1 POP DUP2 DUP2 SUB PUSH0 DUP4 ADD MSTORE PUSH2 0x3033 DUP2 PUSH2 0x2FFA JUMP JUMPDEST SWAP1 POP SWAP2 SWAP1 POP JUMP JUMPDEST PUSH32 0x636C61696D546F70696320616C72656164792065786973747300000000000000 PUSH0 DUP3 ADD MSTORE POP JUMP JUMPDEST PUSH0 PUSH2 0x306E PUSH1 0x19 DUP4 PUSH2 0x24DF JUMP JUMPDEST SWAP2 POP PUSH2 0x3079 DUP3 PUSH2 0x303A JUMP JUMPDEST PUSH1 0x20 DUP3 ADD SWAP1 POP SWAP2 SWAP1 POP JUMP JUMPDEST PUSH0 PUSH1 0x20 DUP3 ADD SWAP1 POP DUP2 DUP2 SUB PUSH0 DUP4 ADD MSTORE PUSH2 0x309B DUP2 PUSH2 0x3062 JUMP JUMPDEST SWAP1 POP SWAP2 SWAP1 POP JUMP INVALID LOG2 PUSH5 0x6970667358 0x22 SLT KECCAK256 0xC4 0xE9 0x27 PUSH13 0x8565823D82DE4DC1A2846D0E8A 0xBB 0xDA SELFBALANCE 0xF6 MULMOD CREATE PUSH29 0xB84265FB6349D39B64736F6C6343000814003300000000000000000000 "
				},
				"gasEstimates": {
					"creation": {
						"codeDepositCost": "2500800",
						"executionCost": "infinite",
						"totalCost": "infinite"
					},
					"external": {
						"addClaimTopic(uint256)": "infinite",
						"addTrustedIssuer(address,uint256[])": "infinite",
						"claimTopicsToTrustedIssuers(uint256,uint256)": "infinite",
						"getTrustedIssuerClaimTopics(address)": "infinite",
						"getTrustedIssuers()": "infinite",
						"getTrustedIssuersForClaimTopic(uint256)": "infinite",
						"hasClaimTopic(address,uint256)": "infinite",
						"isClaimTopicRequired(uint256)": "infinite",
						"isTrustedIssuer(address)": "2968",
						"owner()": "2582",
						"removeClaimTopic(uint256)": "infinite",
						"removeTrustedIssuer(address)": "infinite",
						"renounceOwnership()": "infinite",
						"requiredClaimTopics(uint256)": "infinite",
						"transferOwnership(address)": "infinite",
						"trustedIssuerClaimTopics(address,uint256)": "infinite",
						"trustedIssuers(uint256)": "infinite",
						"updateIssuerClaimTopics(address,uint256[])": "infinite",
						"verify(address)": "infinite"
					}
				},
				"methodIdentifiers": {
					"addClaimTopic(uint256)": "c7b22551",
					"addTrustedIssuer(address,uint256[])": "9f63ea98",
					"claimTopicsToTrustedIssuers(uint256,uint256)": "93e9f801",
					"getTrustedIssuerClaimTopics(address)": "c28fb278",
					"getTrustedIssuers()": "d9dd24c5",
					"getTrustedIssuersForClaimTopic(uint256)": "52c111d1",
					"hasClaimTopic(address,uint256)": "34a89987",
					"isClaimTopicRequired(uint256)": "be36359f",
					"isTrustedIssuer(address)": "ef2ed1a4",
					"owner()": "8da5cb5b",
					"removeClaimTopic(uint256)": "08297846",
					"removeTrustedIssuer(address)": "b93d28eb",
					"renounceOwnership()": "715018a6",
					"requiredClaimTopics(uint256)": "b5fa8693",
					"transferOwnership(address)": "f2fde38b",
					"trustedIssuerClaimTopics(address,uint256)": "ba64c341",
					"trustedIssuers(uint256)": "c801dd40",
					"updateIssuerClaimTopics(address,uint256[])": "04bc7e84",
					"verify(address)": "63a9c3d7"
				}
			},
			"storageLayout": {
				"storage": [
					{
						"astId": 8,
						"contract": "contracts/onChainID/contracts/verifiers/Verifier.sol:Verifier",
						"label": "_owner",
						"offset": 0,
						"slot": "0",
						"type": "t_address"
					},
					{
						"astId": 518,
						"contract": "contracts/onChainID/contracts/verifiers/Verifier.sol:Verifier",
						"label": "requiredClaimTopics",
						"offset": 0,
						"slot": "1",
						"type": "t_array(t_uint256)dyn_storage"
					},
					{
						"astId": 523,
						"contract": "contracts/onChainID/contracts/verifiers/Verifier.sol:Verifier",
						"label": "trustedIssuers",
						"offset": 0,
						"slot": "2",
						"type": "t_array(t_contract(IClaimIssuer)227)dyn_storage"
					},
					{
						"astId": 529,
						"contract": "contracts/onChainID/contracts/verifiers/Verifier.sol:Verifier",
						"label": "trustedIssuerClaimTopics",
						"offset": 0,
						"slot": "3",
						"type": "t_mapping(t_address,t_array(t_uint256)dyn_storage)"
					},
					{
						"astId": 536,
						"contract": "contracts/onChainID/contracts/verifiers/Verifier.sol:Verifier",
						"label": "claimTopicsToTrustedIssuers",
						"offset": 0,
						"slot": "4",
						"type": "t_mapping(t_uint256,t_array(t_contract(IClaimIssuer)227)dyn_storage)"
					}
				],
				"types": {
					"t_address": {
						"encoding": "inplace",
						"label": "address",
						"numberOfBytes": "20"
					},
					"t_array(t_contract(IClaimIssuer)227)dyn_storage": {
						"base": "t_contract(IClaimIssuer)227",
						"encoding": "dynamic_array",
						"label": "contract IClaimIssuer[]",
						"numberOfBytes": "32"
					},
					"t_array(t_uint256)dyn_storage": {
						"base": "t_uint256",
						"encoding": "dynamic_array",
						"label": "uint256[]",
						"numberOfBytes": "32"
					},
					"t_contract(IClaimIssuer)227": {
						"encoding": "inplace",
						"label": "contract IClaimIssuer",
						"numberOfBytes": "20"
					},
					"t_mapping(t_address,t_array(t_uint256)dyn_storage)": {
						"encoding": "mapping",
						"key": "t_address",
						"label": "mapping(address => uint256[])",
						"numberOfBytes": "32",
						"value": "t_array(t_uint256)dyn_storage"
					},
					"t_mapping(t_uint256,t_array(t_contract(IClaimIssuer)227)dyn_storage)": {
						"encoding": "mapping",
						"key": "t_uint256",
						"label": "mapping(uint256 => contract IClaimIssuer[])",
						"numberOfBytes": "32",
						"value": "t_array(t_contract(IClaimIssuer)227)dyn_storage"
					},
					"t_uint256": {
						"encoding": "inplace",
						"label": "uint256",
						"numberOfBytes": "32"
					}
				}
			},
			"userdoc": {
				"events": {
					"ClaimTopicAdded(uint256)": {
						"notice": "this event is emitted when a claim topic has been added to the requirement list  the event is emitted by the 'addClaimTopic' function  `claimTopic` is the required claim topic added"
					},
					"ClaimTopicRemoved(uint256)": {
						"notice": "this event is emitted when a claim topic has been removed from the requirement list  the event is emitted by the 'removeClaimTopic' function  `claimTopic` is the required claim removed"
					},
					"ClaimTopicsUpdated(address,uint256[])": {
						"notice": "this event is emitted when the set of claim topics is changed for a given trusted issuer.  the event is emitted by the updateIssuerClaimTopics function  `trustedIssuer` is the address of the trusted issuer's ClaimIssuer contract  `claimTopics` is the set of claims that the trusted issuer is allowed to emit"
					},
					"TrustedIssuerAdded(address,uint256[])": {
						"notice": "this event is emitted when an issuer is added to the trusted list.  the event is emitted by the addTrustedIssuer function  `trustedIssuer` is the address of the trusted issuer's ClaimIssuer contract  `claimTopics` is the set of claims that the trusted issuer is allowed to emit"
					},
					"TrustedIssuerRemoved(address)": {
						"notice": "this event is emitted when an issuer is removed from the trusted list.  the event is emitted by the removeTrustedIssuer function  `trustedIssuer` is the address of the trusted issuer's ClaimIssuer contract"
					}
				},
				"kind": "user",
				"methods": {},
				"version": 1
			}
		}
	}
}