{
	"data": {
		"bytecode": {
			"linkReferences": {},
			"object": "60806040525f60065f6101000a81548160ff0219169083151502179055505f600660016101000a81548160ff02191690831515021790555034801562000043575f80fd5b5060405162004700380380620047008339818101604052810190620000699190620003dd565b5f73ffffffffffffffffffffffffffffffffffffffff168273ffffffffffffffffffffffffffffffffffffffff1603620000da576040517f08c379a0000000000000000000000000000000000000000000000000000000008152600401620000d19062000480565b60405180910390fd5b80620000f757620000f1826200011a60201b60201c565b62000112565b600160065f6101000a81548160ff0219169083151502179055505b50506200053a565b60065f9054906101000a900460ff16158062000142575062000141620002b860201b60201c565b5b62000184576040517f08c379a00000000000000000000000000000000000000000000000000000000081526004016200017b90620004ee565b60405180910390fd5b600160065f6101000a81548160ff0219169083151502179055506001600660016101000a81548160ff0219169083151502179055505f81604051602001620001cd91906200051f565b6040516020818303038152906040528051906020012090508060015f8381526020019081526020015f20600201819055506040518060200160405280600160ff1681525060015f8381526020019081526020015f205f0190600162000234929190620002cc565b506001805f8381526020019081526020015f206001018190555060025f600181526020019081526020015f2081908060018154018082558091505060019003905f5260205f20015f9091909190915055600180827f480000bb1edad8ca1470381cc334b1917fbd51c6531f3a623ea8e0ec7e38a6e960405160405180910390a45050565b5f803090505f813b90505f81149250505090565b828054828255905f5260205f209081019282156200030e579160200282015b828111156200030d578251829060ff16905591602001919060010190620002eb565b5b5090506200031d919062000321565b5090565b5b808211156200033a575f815f90555060010162000322565b5090565b5f80fd5b5f73ffffffffffffffffffffffffffffffffffffffff82169050919050565b5f6200036d8262000342565b9050919050565b6200037f8162000361565b81146200038a575f80fd5b50565b5f815190506200039d8162000374565b92915050565b5f8115159050919050565b620003b981620003a3565b8114620003c4575f80fd5b50565b5f81519050620003d781620003ae565b92915050565b5f8060408385031215620003f657620003f56200033e565b5b5f62000405858286016200038d565b92505060206200041885828601620003c7565b9150509250929050565b5f82825260208201905092915050565b7f696e76616c696420617267756d656e74202d207a65726f2061646472657373005f82015250565b5f62000468601f8362000422565b9150620004758262000432565b602082019050919050565b5f6020820190508181035f83015262000499816200045a565b9050919050565b7f496e697469616c206b65792077617320616c72656164792073657475702e00005f82015250565b5f620004d6601e8362000422565b9150620004e382620004a0565b602082019050919050565b5f6020820190508181035f8301526200050781620004c8565b9050919050565b620005198162000361565b82525050565b5f602082019050620005345f8301846200050e565b92915050565b6141b880620005485f395ff3fe6080604052600436106100f2575f3560e01c8063b1a34e0d11610089578063c4d66de811610058578063c4d66de8146103aa578063c9100bcb146103d2578063d202158d14610413578063fb307b341461044f576100f2565b8063b1a34e0d146102c6578063b61d27f614610302578063c0969a6e14610332578063c3b129e31461036e576100f2565b806354fd4d50116100c557806354fd4d50146101e8578063747442d31461021257806380e9e9e11461024e5780639010f7261461028a576100f2565b806312aaac70146100f65780631d381240146101345780634eee424a1461017057806353d413c5146101ac575b5f80fd5b348015610101575f80fd5b5061011c6004803603810190610117919061263c565b61048b565b60405161012b93929190612745565b60405180910390f35b34801561013f575f80fd5b5061015a600480360381019061015591906127ab565b610529565b6040516101679190612815565b60405180910390f35b34801561017b575f80fd5b506101966004803603810190610191919061263c565b610834565b6040516101a39190612815565b60405180910390f35b3480156101b7575f80fd5b506101d260048036038101906101cd919061282e565b610bdd565b6040516101df9190612815565b60405180910390f35b3480156101f3575f80fd5b506101fc611049565b60405161020991906128f6565b60405180910390f35b34801561021d575f80fd5b5061023860048036038101906102339190612940565b611086565b6040516102459190612815565b60405180910390f35b348015610259575f80fd5b50610274600480360381019061026f919061297e565b6115cc565b6040516102819190612a60565b60405180910390f35b348015610295575f80fd5b506102b060048036038101906102ab919061297e565b611633565b6040516102bd9190612a60565b60405180910390f35b3480156102d1575f80fd5b506102ec60048036038101906102e79190612ca4565b61169a565b6040516102f99190612d81565b60405180910390f35b61031c60048036038101906103179190612d9a565b611af8565b6040516103299190612e06565b60405180910390f35b34801561033d575f80fd5b5061035860048036038101906103539190612e5a565b611d14565b6040516103659190612815565b60405180910390f35b348015610379575f80fd5b50610394600480360381019061038f9190612ef6565b611dd1565b6040516103a19190612f5f565b60405180910390f35b3480156103b5575f80fd5b506103d060048036038101906103cb9190612f78565b611e79565b005b3480156103dd575f80fd5b506103f860048036038101906103f3919061263c565b611ef3565b60405161040a96959493929190612ff5565b60405180910390f35b34801561041e575f80fd5b506104396004803603810190610434919061282e565b612147565b6040516104469190612815565b60405180910390f35b34801561045a575f80fd5b506104756004803603810190610470919061263c565b612254565b6040516104829190613069565b60405180910390f35b60605f8060015f8581526020019081526020015f205f0160015f8681526020019081526020015f206001015460015f8781526020019081526020015f20600201548280548060200260200160405190810160405280929190818152602001828054801561051557602002820191905f5260205f20905b815481526020019060010190808311610501575b505050505092509250925092509193909250565b5f60011515600660019054906101000a900460ff16151514610580576040517f08c379a0000000000000000000000000000000000000000000000000000000008152600401610577906130f9565b60405180910390fd5b3073ffffffffffffffffffffffffffffffffffffffff163373ffffffffffffffffffffffffffffffffffffffff1614806105e757506105e6336040516020016105c99190612f5f565b604051602081830303815290604052805190602001206001612147565b5b610626576040517f08c379a000000000000000000000000000000000000000000000000000000000815260040161061d90613187565b60405180910390fd5b8360015f8681526020019081526020015f206002015403610761575f60015f8681526020019081526020015f205f0180548060200260200160405190810160405280929190818152602001828054801561069d57602002820191905f5260205f20905b815481526020019060010190808311610689575b505050505090505f5b8151811015610723575f8282815181106106c3576106c26131a5565b5b6020026020010151905085810361070f576040517f08c379a000000000000000000000000000000000000000000000000000000000815260040161070690613242565b60405180910390fd5b50808061071b9061328d565b9150506106a6565b5060015f8681526020019081526020015f205f0184908060018154018082558091505060019003905f5260205f20015f9091909190915055506107c5565b8360015f8681526020019081526020015f206002018190555060405180602001604052808481525060015f8681526020019081526020015f205f019060016107aa92919061245f565b508160015f8681526020019081526020015f20600101819055505b60025f8481526020019081526020015f2084908060018154018082558091505060019003905f5260205f20015f90919091909150558183857f480000bb1edad8ca1470381cc334b1917fbd51c6531f3a623ea8e0ec7e38a6e960405160405180910390a4600190509392505050565b5f60011515600660019054906101000a900460ff1615151461088b576040517f08c379a0000000000000000000000000000000000000000000000000000000008152600401610882906130f9565b60405180910390fd5b3073ffffffffffffffffffffffffffffffffffffffff163373ffffffffffffffffffffffffffffffffffffffff1614806108f257506108f1336040516020016108d49190612f5f565b604051602081830303815290604052805190602001206003612147565b5b610931576040517f08c379a000000000000000000000000000000000000000000000000000000000815260040161092890613344565b60405180910390fd5b5f60045f8481526020019081526020015f205f015490505f810361098a576040517f08c379a0000000000000000000000000000000000000000000000000000000008152600401610981906133d2565b60405180910390fd5b5f8060055f8481526020019081526020015f208054905090505b8460055f8581526020019081526020015f2083815481106109c8576109c76131a5565b5b905f5260205f200154146109ec5781806109e19061328d565b9250508082106109a4575b60055f8481526020019081526020015f20600182610a0a91906133f0565b81548110610a1b57610a1a6131a5565b5b905f5260205f20015460055f8581526020019081526020015f208381548110610a4757610a466131a5565b5b905f5260205f20018190555060055f8481526020019081526020015f20805480610a7457610a73613423565b5b600190038181905f5260205f20015f9055905560045f8681526020019081526020015f206002015f9054906101000a900473ffffffffffffffffffffffffffffffffffffffff1673ffffffffffffffffffffffffffffffffffffffff1683867f3cf57863a89432c61c4a27073c6ee39e8a764bff5a05aebfbcdcdc80b2e6130a60045f8a81526020019081526020015f206001015460045f8b81526020019081526020015f2060030160045f8c81526020019081526020015f2060040160045f8d81526020019081526020015f20600501604051610b5594939291906135d3565b60405180910390a460045f8681526020019081526020015f205f8082015f9055600182015f9055600282015f6101000a81549073ffffffffffffffffffffffffffffffffffffffff0219169055600382015f610bb191906124aa565b600482015f610bc091906124aa565b600582015f610bcf91906124e7565b505060019350505050919050565b5f60011515600660019054906101000a900460ff16151514610c34576040517f08c379a0000000000000000000000000000000000000000000000000000000008152600401610c2b906130f9565b60405180910390fd5b3073ffffffffffffffffffffffffffffffffffffffff163373ffffffffffffffffffffffffffffffffffffffff161480610c9b5750610c9a33604051602001610c7d9190612f5f565b604051602081830303815290604052805190602001206001612147565b5b610cda576040517f08c379a0000000000000000000000000000000000000000000000000000000008152600401610cd190613187565b60405180910390fd5b8260015f8581526020019081526020015f206002015414610d30576040517f08c379a0000000000000000000000000000000000000000000000000000000008152600401610d279061369b565b60405180910390fd5b5f60015f8581526020019081526020015f205f01805480602002602001604051908101604052809291908181526020018280548015610d8c57602002820191905f5260205f20905b815481526020019060010190808311610d78575b505050505090505f5b83828281518110610da957610da86131a5565b5b602002602001015114610e0c578080610dc19061328d565b91505081518103610e07576040517f08c379a0000000000000000000000000000000000000000000000000000000008152600401610dfe90613729565b60405180910390fd5b610d95565b8160018351610e1b91906133f0565b81518110610e2c57610e2b6131a5565b5b6020026020010151828281518110610e4757610e466131a5565b5b6020026020010181815250508160015f8781526020019081526020015f205f019080519060200190610e7a929190612524565b5060015f8681526020019081526020015f205f01805480610e9e57610e9d613423565b5b600190038181905f5260205f20015f905590555f8060025f8781526020019081526020015f208054905090505b8660025f8881526020019081526020015f208381548110610eef57610eee6131a5565b5b905f5260205f20015414610f13578180610f089061328d565b925050808210610ecb575b60025f8781526020019081526020015f20600182610f3191906133f0565b81548110610f4257610f416131a5565b5b905f5260205f20015460025f8881526020019081526020015f208381548110610f6e57610f6d6131a5565b5b905f5260205f20018190555060025f8781526020019081526020015f20805480610f9b57610f9a613423565b5b600190038181905f5260205f20015f905590555f60015f8981526020019081526020015f206001015490505f60018651610fd591906133f0565b0361100b5760015f8981526020019081526020015f205f8082015f610ffa919061256f565b600182015f9055600282015f905550505b8087897f585a4aef50f8267a92b32412b331b20f7f8b96f2245b253b9cc50dcc621d339760405160405180910390a460019550505050505092915050565b60606040518060400160405280600581526020017f322e322e30000000000000000000000000000000000000000000000000000000815250905090565b5f60011515600660019054906101000a900460ff161515146110dd576040517f08c379a00000000000000000000000000000000000000000000000000000000081526004016110d4906130f9565b60405180910390fd5b5f548310611120576040517f08c379a0000000000000000000000000000000000000000000000000000000008152600401611117906137b7565b60405180910390fd5b60035f8481526020019081526020015f2060030160019054906101000a900460ff1615611182576040517f08c379a00000000000000000000000000000000000000000000000000000000081526004016111799061381f565b60405180910390fd5b3073ffffffffffffffffffffffffffffffffffffffff1660035f8581526020019081526020015f205f015f9054906101000a900473ffffffffffffffffffffffffffffffffffffffff1673ffffffffffffffffffffffffffffffffffffffff160361125c57611218336040516020016111fb9190612f5f565b604051602081830303815290604052805190602001206001612147565b611257576040517f08c379a000000000000000000000000000000000000000000000000000000000815260040161124e906138ad565b60405180910390fd5b6112cd565b61128d336040516020016112709190612f5f565b604051602081830303815290604052805190602001206002612147565b6112cc576040517f08c379a00000000000000000000000000000000000000000000000000000000081526004016112c390613915565b60405180910390fd5b5b827fb3932da477fe5d6c8ff2eafef050c0f3a1af18fc07121001482600f36f3715d8836040516112fd9190612815565b60405180910390a2600115158215150361159757600160035f8581526020019081526020015f206003015f6101000a81548160ff02191690831515021790555060035f8481526020019081526020015f205f015f9054906101000a900473ffffffffffffffffffffffffffffffffffffffff1673ffffffffffffffffffffffffffffffffffffffff1660035f8581526020019081526020015f206001015460035f8681526020019081526020015f206002016040516113bc91906139bd565b5f6040518083038185875af1925050503d805f81146113f6576040519150601f19603f3d011682016040523d82523d5f602084013e6113fb565b606091505b50508091505080156114e657600160035f8581526020019081526020015f2060030160016101000a81548160ff02191690831515021790555060035f8481526020019081526020015f206001015460035f8581526020019081526020015f205f015f9054906101000a900473ffffffffffffffffffffffffffffffffffffffff1673ffffffffffffffffffffffffffffffffffffffff16847f1f920dbda597d7bf95035464170fa58d0a4b57f13a1c315ace6793b9f63688b860035f8881526020019081526020015f206002016040516114d591906139d3565b60405180910390a4600190506115c6565b60035f8481526020019081526020015f206001015460035f8581526020019081526020015f205f015f9054906101000a900473ffffffffffffffffffffffffffffffffffffffff1673ffffffffffffffffffffffffffffffffffffffff16847fe10c49d9f7c71da23262367013434763cfdb2332267641728d25cd712c5c6a6860035f8881526020019081526020015f2060020160405161158791906139d3565b60405180910390a45f90506115c6565b5f60035f8581526020019081526020015f206003015f6101000a81548160ff0219169083151502179055505f90505b92915050565b606060055f8381526020019081526020015f2080548060200260200160405190810160405280929190818152602001828054801561162757602002820191905f5260205f20905b815481526020019060010190808311611613575b50505050509050919050565b606060025f8381526020019081526020015f2080548060200260200160405190810160405280929190818152602001828054801561168e57602002820191905f5260205f20905b81548152602001906001019080831161167a575b50505050509050919050565b5f60011515600660019054906101000a900460ff161515146116f1576040517f08c379a00000000000000000000000000000000000000000000000000000000081526004016116e8906130f9565b60405180910390fd5b3073ffffffffffffffffffffffffffffffffffffffff163373ffffffffffffffffffffffffffffffffffffffff16148061175857506117573360405160200161173a9190612f5f565b604051602081830303815290604052805190602001206003612147565b5b611797576040517f08c379a000000000000000000000000000000000000000000000000000000000815260040161178e90613344565b60405180910390fd5b3073ffffffffffffffffffffffffffffffffffffffff168573ffffffffffffffffffffffffffffffffffffffff1614611888578473ffffffffffffffffffffffffffffffffffffffff1663c0969a6e308987876040518563ffffffff1660e01b81526004016118099493929190613a4e565b602060405180830381865afa158015611824573d5f803e3d5ffd5b505050506040513d601f19601f820116820180604052508101906118489190613ab3565b611887576040517f08c379a000000000000000000000000000000000000000000000000000000000815260040161187e90613b28565b60405180910390fd5b5b5f858860405160200161189c929190613b46565b6040516020818303038152906040528051906020012090508760045f8381526020019081526020015f205f01819055508660045f8381526020019081526020015f20600101819055508460045f8381526020019081526020015f2060030190816119069190613cef565b508360045f8381526020019081526020015f2060040190816119289190613cef565b508260045f8381526020019081526020015f20600501908161194a9190613e04565b508573ffffffffffffffffffffffffffffffffffffffff1660045f8381526020019081526020015f206002015f9054906101000a900473ffffffffffffffffffffffffffffffffffffffff1673ffffffffffffffffffffffffffffffffffffffff1614611a935760055f8981526020019081526020015f2081908060018154018082558091505060019003905f5260205f20015f90919091909150558560045f8381526020019081526020015f206002015f6101000a81548173ffffffffffffffffffffffffffffffffffffffff021916908373ffffffffffffffffffffffffffffffffffffffff1602179055508573ffffffffffffffffffffffffffffffffffffffff1688827f46149b18aa084502c3f12bc75e19eda8bda8d102b82cce8474677a6d0d5f43c58a898989604051611a869493929190613ed3565b60405180910390a4611aea565b8573ffffffffffffffffffffffffffffffffffffffff1688827f3bab293fc00db832d7619a9299914251b8747c036867ec056cbd506f60135b138a898989604051611ae19493929190613ed3565b60405180910390a45b809150509695505050505050565b5f60011515600660019054906101000a900460ff16151514611b4f576040517f08c379a0000000000000000000000000000000000000000000000000000000008152600401611b46906130f9565b60405180910390fd5b5f805490508460035f8381526020019081526020015f205f015f6101000a81548173ffffffffffffffffffffffffffffffffffffffff021916908373ffffffffffffffffffffffffffffffffffffffff1602179055508360035f8381526020019081526020015f20600101819055508260035f8381526020019081526020015f206002019081611bdf9190613cef565b505f80815480929190611bf19061328d565b9190505550838573ffffffffffffffffffffffffffffffffffffffff16827f8afcfabcb00e47a53a8fc3e9f23ff47ee1926194bb1350dd007c50b412a6cee886604051611c3e9190613f2b565b60405180910390a4611c7733604051602001611c5a9190612f5f565b604051602081830303815290604052805190602001206001612147565b15611c8d57611c87816001611086565b50611d09565b3073ffffffffffffffffffffffffffffffffffffffff168573ffffffffffffffffffffffffffffffffffffffff1614158015611cf65750611cf533604051602001611cd89190612f5f565b604051602081830303815290604052805190602001206002612147565b5b15611d0857611d06816001611086565b505b5b809150509392505050565b5f80858584604051602001611d2b93929190613f4b565b6040516020818303038152906040528051906020012090505f81604051602001611d559190613ffb565b6040516020818303038152906040528051906020012090505f611d788683611dd1565b90505f81604051602001611d8c9190612f5f565b604051602081830303815290604052805190602001209050611daf816003612147565b15611dc1576001945050505050611dc9565b5f9450505050505b949350505050565b5f805f806041865114611de9575f9350505050611e73565b602086015192506040860151915060608601515f1a9050601b8160ff161015611e1c57601b81611e19919061402c565b90505b5f6001868386866040515f8152602001604052604051611e3f949392919061406f565b6020604051602081039080840390855afa158015611e5f573d5f803e3d5ffd5b505050602060405103519050809450505050505b92915050565b5f73ffffffffffffffffffffffffffffffffffffffff168173ffffffffffffffffffffffffffffffffffffffff1603611ee7576040517f08c379a0000000000000000000000000000000000000000000000000000000008152600401611ede906140fc565b60405180910390fd5b611ef0816122bd565b50565b5f805f606080606060045f8881526020019081526020015f205f015460045f8981526020019081526020015f206001015460045f8a81526020019081526020015f206002015f9054906101000a900473ffffffffffffffffffffffffffffffffffffffff1660045f8b81526020019081526020015f2060030160045f8c81526020019081526020015f2060040160045f8d81526020019081526020015f20600501828054611fa09061347d565b80601f0160208091040260200160405190810160405280929190818152602001828054611fcc9061347d565b80156120175780601f10611fee57610100808354040283529160200191612017565b820191905f5260205f20905b815481529060010190602001808311611ffa57829003601f168201915b5050505050925081805461202a9061347d565b80601f01602080910402602001604051908101604052809291908181526020018280546120569061347d565b80156120a15780601f10612078576101008083540402835291602001916120a1565b820191905f5260205f20905b81548152906001019060200180831161208457829003601f168201915b505050505091508080546120b49061347d565b80601f01602080910402602001604051908101604052809291908181526020018280546120e09061347d565b801561212b5780601f106121025761010080835404028352916020019161212b565b820191905f5260205f20905b81548152906001019060200180831161210e57829003601f168201915b5050505050905095509550955095509550955091939550919395565b5f8060015f8581526020019081526020015f206040518060600160405290815f82018054806020026020016040519081016040528092919081815260200182805480156121b157602002820191905f5260205f20905b81548152602001906001019080831161219d575b505050505081526020016001820154815260200160028201548152505090505f801b8160400151036121e6575f91505061224e565b5f5b815f015151811015612248575f825f0151828151811061220b5761220a6131a5565b5b60200260200101519050600181148061222357508481145b15612234576001935050505061224e565b5080806122409061328d565b9150506121e8565b505f9150505b92915050565b606060015f8381526020019081526020015f205f018054806020026020016040519081016040528092919081815260200182805480156122b157602002820191905f5260205f20905b81548152602001906001019080831161229d575b50505050509050919050565b60065f9054906101000a900460ff1615806122dc57506122db61244b565b5b61231b576040517f08c379a000000000000000000000000000000000000000000000000000000000815260040161231290614164565b60405180910390fd5b600160065f6101000a81548160ff0219169083151502179055506001600660016101000a81548160ff0219169083151502179055505f816040516020016123629190612f5f565b6040516020818303038152906040528051906020012090508060015f8381526020019081526020015f20600201819055506040518060200160405280600160ff1681525060015f8381526020019081526020015f205f019060016123c792919061258d565b506001805f8381526020019081526020015f206001018190555060025f600181526020019081526020015f2081908060018154018082558091505060019003905f5260205f20015f9091909190915055600180827f480000bb1edad8ca1470381cc334b1917fbd51c6531f3a623ea8e0ec7e38a6e960405160405180910390a45050565b5f803090505f813b90505f81149250505090565b828054828255905f5260205f20908101928215612499579160200282015b8281111561249857825182559160200191906001019061247d565b5b5090506124a691906125dd565b5090565b5080546124b69061347d565b5f825580601f106124c757506124e4565b601f0160209004905f5260205f20908101906124e391906125dd565b5b50565b5080546124f39061347d565b5f825580601f106125045750612521565b601f0160209004905f5260205f209081019061252091906125dd565b5b50565b828054828255905f5260205f2090810192821561255e579160200282015b8281111561255d578251825591602001919060010190612542565b5b50905061256b91906125dd565b5090565b5080545f8255905f5260205f209081019061258a91906125dd565b50565b828054828255905f5260205f209081019282156125cc579160200282015b828111156125cb578251829060ff169055916020019190600101906125ab565b5b5090506125d991906125dd565b5090565b5b808211156125f4575f815f9055506001016125de565b5090565b5f604051905090565b5f80fd5b5f80fd5b5f819050919050565b61261b81612609565b8114612625575f80fd5b50565b5f8135905061263681612612565b92915050565b5f6020828403121561265157612650612601565b5b5f61265e84828501612628565b91505092915050565b5f81519050919050565b5f82825260208201905092915050565b5f819050602082019050919050565b5f819050919050565b6126a281612690565b82525050565b5f6126b38383612699565b60208301905092915050565b5f602082019050919050565b5f6126d582612667565b6126df8185612671565b93506126ea83612681565b805f5b8381101561271a57815161270188826126a8565b975061270c836126bf565b9250506001810190506126ed565b5085935050505092915050565b61273081612690565b82525050565b61273f81612609565b82525050565b5f6060820190508181035f83015261275d81866126cb565b905061276c6020830185612727565b6127796040830184612736565b949350505050565b61278a81612690565b8114612794575f80fd5b50565b5f813590506127a581612781565b92915050565b5f805f606084860312156127c2576127c1612601565b5b5f6127cf86828701612628565b93505060206127e086828701612797565b92505060406127f186828701612797565b9150509250925092565b5f8115159050919050565b61280f816127fb565b82525050565b5f6020820190506128285f830184612806565b92915050565b5f806040838503121561284457612843612601565b5b5f61285185828601612628565b925050602061286285828601612797565b9150509250929050565b5f81519050919050565b5f82825260208201905092915050565b5f5b838110156128a3578082015181840152602081019050612888565b5f8484015250505050565b5f601f19601f8301169050919050565b5f6128c88261286c565b6128d28185612876565b93506128e2818560208601612886565b6128eb816128ae565b840191505092915050565b5f6020820190508181035f83015261290e81846128be565b905092915050565b61291f816127fb565b8114612929575f80fd5b50565b5f8135905061293a81612916565b92915050565b5f806040838503121561295657612955612601565b5b5f61296385828601612797565b92505060206129748582860161292c565b9150509250929050565b5f6020828403121561299357612992612601565b5b5f6129a084828501612797565b91505092915050565b5f81519050919050565b5f82825260208201905092915050565b5f819050602082019050919050565b6129db81612609565b82525050565b5f6129ec83836129d2565b60208301905092915050565b5f602082019050919050565b5f612a0e826129a9565b612a1881856129b3565b9350612a23836129c3565b805f5b83811015612a53578151612a3a88826129e1565b9750612a45836129f8565b925050600181019050612a26565b5085935050505092915050565b5f6020820190508181035f830152612a788184612a04565b905092915050565b5f73ffffffffffffffffffffffffffffffffffffffff82169050919050565b5f612aa982612a80565b9050919050565b612ab981612a9f565b8114612ac3575f80fd5b50565b5f81359050612ad481612ab0565b92915050565b5f80fd5b5f80fd5b7f4e487b71000000000000000000000000000000000000000000000000000000005f52604160045260245ffd5b612b18826128ae565b810181811067ffffffffffffffff82111715612b3757612b36612ae2565b5b80604052505050565b5f612b496125f8565b9050612b558282612b0f565b919050565b5f67ffffffffffffffff821115612b7457612b73612ae2565b5b612b7d826128ae565b9050602081019050919050565b828183375f83830152505050565b5f612baa612ba584612b5a565b612b40565b905082815260208101848484011115612bc657612bc5612ade565b5b612bd1848285612b8a565b509392505050565b5f82601f830112612bed57612bec612ada565b5b8135612bfd848260208601612b98565b91505092915050565b5f67ffffffffffffffff821115612c2057612c1f612ae2565b5b612c29826128ae565b9050602081019050919050565b5f612c48612c4384612c06565b612b40565b905082815260208101848484011115612c6457612c63612ade565b5b612c6f848285612b8a565b509392505050565b5f82601f830112612c8b57612c8a612ada565b5b8135612c9b848260208601612c36565b91505092915050565b5f805f805f8060c08789031215612cbe57612cbd612601565b5b5f612ccb89828a01612797565b9650506020612cdc89828a01612797565b9550506040612ced89828a01612ac6565b945050606087013567ffffffffffffffff811115612d0e57612d0d612605565b5b612d1a89828a01612bd9565b935050608087013567ffffffffffffffff811115612d3b57612d3a612605565b5b612d4789828a01612bd9565b92505060a087013567ffffffffffffffff811115612d6857612d67612605565b5b612d7489828a01612c77565b9150509295509295509295565b5f602082019050612d945f830184612736565b92915050565b5f805f60608486031215612db157612db0612601565b5b5f612dbe86828701612ac6565b9350506020612dcf86828701612797565b925050604084013567ffffffffffffffff811115612df057612def612605565b5b612dfc86828701612bd9565b9150509250925092565b5f602082019050612e195f830184612727565b92915050565b5f612e2982612a9f565b9050919050565b612e3981612e1f565b8114612e43575f80fd5b50565b5f81359050612e5481612e30565b92915050565b5f805f8060808587031215612e7257612e71612601565b5b5f612e7f87828801612e46565b9450506020612e9087828801612797565b935050604085013567ffffffffffffffff811115612eb157612eb0612605565b5b612ebd87828801612bd9565b925050606085013567ffffffffffffffff811115612ede57612edd612605565b5b612eea87828801612bd9565b91505092959194509250565b5f8060408385031215612f0c57612f0b612601565b5b5f83013567ffffffffffffffff811115612f2957612f28612605565b5b612f3585828601612bd9565b9250506020612f4685828601612628565b9150509250929050565b612f5981612a9f565b82525050565b5f602082019050612f725f830184612f50565b92915050565b5f60208284031215612f8d57612f8c612601565b5b5f612f9a84828501612ac6565b91505092915050565b5f81519050919050565b5f82825260208201905092915050565b5f612fc782612fa3565b612fd18185612fad565b9350612fe1818560208601612886565b612fea816128ae565b840191505092915050565b5f60c0820190506130085f830189612727565b6130156020830188612727565b6130226040830187612f50565b81810360608301526130348186612fbd565b905081810360808301526130488185612fbd565b905081810360a083015261305c81846128be565b9050979650505050505050565b5f6020820190508181035f83015261308181846126cb565b905092915050565b7f496e746572616374696e67207769746820746865206c69627261727920636f6e5f8201527f747261637420697320666f7262696464656e2e00000000000000000000000000602082015250565b5f6130e3603383612876565b91506130ee82613089565b604082019050919050565b5f6020820190508181035f830152613110816130d7565b9050919050565b7f5065726d697373696f6e733a2053656e64657220646f6573206e6f74206861765f8201527f65206d616e6167656d656e74206b657900000000000000000000000000000000602082015250565b5f613171603083612876565b915061317c82613117565b604082019050919050565b5f6020820190508181035f83015261319e81613165565b9050919050565b7f4e487b71000000000000000000000000000000000000000000000000000000005f52603260045260245ffd5b7f436f6e666c6963743a204b657920616c72656164792068617320707572706f735f8201527f6500000000000000000000000000000000000000000000000000000000000000602082015250565b5f61322c602183612876565b9150613237826131d2565b604082019050919050565b5f6020820190508181035f83015261325981613220565b9050919050565b7f4e487b71000000000000000000000000000000000000000000000000000000005f52601160045260245ffd5b5f61329782612690565b91507fffffffffffffffffffffffffffffffffffffffffffffffffffffffffffffffff82036132c9576132c8613260565b5b600182019050919050565b7f5065726d697373696f6e733a2053656e64657220646f6573206e6f74206861765f8201527f6520636c61696d207369676e6572206b65790000000000000000000000000000602082015250565b5f61332e603283612876565b9150613339826132d4565b604082019050919050565b5f6020820190508181035f83015261335b81613322565b9050919050565b7f4e6f6e4578697374696e673a205468657265206973206e6f20636c61696d20775f8201527f6974682074686973204944000000000000000000000000000000000000000000602082015250565b5f6133bc602b83612876565b91506133c782613362565b604082019050919050565b5f6020820190508181035f8301526133e9816133b0565b9050919050565b5f6133fa82612690565b915061340583612690565b925082820390508181111561341d5761341c613260565b5b92915050565b7f4e487b71000000000000000000000000000000000000000000000000000000005f52603160045260245ffd5b7f4e487b71000000000000000000000000000000000000000000000000000000005f52602260045260245ffd5b5f600282049050600182168061349457607f821691505b6020821081036134a7576134a6613450565b5b50919050565b5f819050815f5260205f209050919050565b5f81546134cb8161347d565b6134d58186612fad565b9450600182165f81146134ef576001811461350557613537565b60ff198316865281151560200286019350613537565b61350e856134ad565b5f5b8381101561352f57815481890152600182019150602081019050613510565b808801955050505b50505092915050565b5f819050815f5260205f209050919050565b5f815461355e8161347d565b6135688186612876565b9450600182165f81146135825760018114613598576135ca565b60ff1983168652811515602002860193506135ca565b6135a185613540565b5f5b838110156135c2578154818901526001820191506020810190506135a3565b808801955050505b50505092915050565b5f6080820190506135e65f830187612727565b81810360208301526135f881866134bf565b9050818103604083015261360c81856134bf565b905081810360608301526136208184613552565b905095945050505050565b7f4e6f6e4578697374696e673a204b65792069736e2774207265676973746572655f8201527f6400000000000000000000000000000000000000000000000000000000000000602082015250565b5f613685602183612876565b91506136908261362b565b604082019050919050565b5f6020820190508181035f8301526136b281613679565b9050919050565b7f4e6f6e4578697374696e673a204b657920646f65736e277420686176652073755f8201527f636820707572706f736500000000000000000000000000000000000000000000602082015250565b5f613713602a83612876565b915061371e826136b9565b604082019050919050565b5f6020820190508181035f83015261374081613707565b9050919050565b7f43616e6e6f7420617070726f76652061206e6f6e2d6578697374696e672065785f8201527f65637574696f6e00000000000000000000000000000000000000000000000000602082015250565b5f6137a1602783612876565b91506137ac82613747565b604082019050919050565b5f6020820190508181035f8301526137ce81613795565b9050919050565b7f5265717565737420616c726561647920657865637574656400000000000000005f82015250565b5f613809601883612876565b9150613814826137d5565b602082019050919050565b5f6020820190508181035f830152613836816137fd565b9050919050565b7f53656e64657220646f6573206e6f742068617665206d616e6167656d656e74205f8201527f6b65790000000000000000000000000000000000000000000000000000000000602082015250565b5f613897602383612876565b91506138a28261383d565b604082019050919050565b5f6020820190508181035f8301526138c48161388b565b9050919050565b7f53656e64657220646f6573206e6f74206861766520616374696f6e206b6579005f82015250565b5f6138ff601f83612876565b915061390a826138cb565b602082019050919050565b5f6020820190508181035f83015261392c816138f3565b9050919050565b5f81905092915050565b5f81546139498161347d565b6139538186613933565b9450600182165f811461396d5760018114613982576139b4565b60ff19831686528115158202860193506139b4565b61398b856134ad565b5f5b838110156139ac5781548189015260018201915060208101905061398d565b838801955050505b50505092915050565b5f6139c8828461393d565b915081905092915050565b5f6020820190508181035f8301526139eb81846134bf565b905092915050565b5f819050919050565b5f613a16613a11613a0c84612a80565b6139f3565b612a80565b9050919050565b5f613a27826139fc565b9050919050565b5f613a3882613a1d565b9050919050565b613a4881613a2e565b82525050565b5f608082019050613a615f830187613a3f565b613a6e6020830186612727565b8181036040830152613a808185612fbd565b90508181036060830152613a948184612fbd565b905095945050505050565b5f81519050613aad81612916565b92915050565b5f60208284031215613ac857613ac7612601565b5b5f613ad584828501613a9f565b91505092915050565b7f696e76616c696420636c61696d000000000000000000000000000000000000005f82015250565b5f613b12600d83612876565b9150613b1d82613ade565b602082019050919050565b5f6020820190508181035f830152613b3f81613b06565b9050919050565b5f604082019050613b595f830185612f50565b613b666020830184612727565b9392505050565b5f6020601f8301049050919050565b5f82821b905092915050565b5f60088302613bb77fffffffffffffffffffffffffffffffffffffffffffffffffffffffffffffffff82613b7c565b613bc18683613b7c565b95508019841693508086168417925050509392505050565b5f613bf3613bee613be984612690565b6139f3565b612690565b9050919050565b5f819050919050565b613c0c83613bd9565b613c20613c1882613bfa565b848454613b88565b825550505050565b5f90565b613c34613c28565b613c3f818484613c03565b505050565b5b81811015613c6257613c575f82613c2c565b600181019050613c45565b5050565b601f821115613ca757613c78816134ad565b613c8184613b6d565b81016020851015613c90578190505b613ca4613c9c85613b6d565b830182613c44565b50505b505050565b5f82821c905092915050565b5f613cc75f1984600802613cac565b1980831691505092915050565b5f613cdf8383613cb8565b9150826002028217905092915050565b613cf882612fa3565b67ffffffffffffffff811115613d1157613d10612ae2565b5b613d1b825461347d565b613d26828285613c66565b5f60209050601f831160018114613d57575f8415613d45578287015190505b613d4f8582613cd4565b865550613db6565b601f198416613d65866134ad565b5f5b82811015613d8c57848901518255600182019150602085019450602081019050613d67565b86831015613da95784890151613da5601f891682613cb8565b8355505b6001600288020188555050505b505050505050565b601f821115613dff57613dd081613540565b613dd984613b6d565b81016020851015613de8578190505b613dfc613df485613b6d565b830182613c44565b50505b505050565b613e0d8261286c565b67ffffffffffffffff811115613e2657613e25612ae2565b5b613e30825461347d565b613e3b828285613dbe565b5f60209050601f831160018114613e6c575f8415613e5a578287015190505b613e648582613cd4565b865550613ecb565b601f198416613e7a86613540565b5f5b82811015613ea157848901518255600182019150602085019450602081019050613e7c565b86831015613ebe5784890151613eba601f891682613cb8565b8355505b6001600288020188555050505b505050505050565b5f608082019050613ee65f830187612727565b8181036020830152613ef88186612fbd565b90508181036040830152613f0c8185612fbd565b90508181036060830152613f2081846128be565b905095945050505050565b5f6020820190508181035f830152613f438184612fbd565b905092915050565b5f606082019050613f5e5f830186613a3f565b613f6b6020830185612727565b8181036040830152613f7d8184612fbd565b9050949350505050565b5f81905092915050565b7f19457468657265756d205369676e6564204d6573736167653a0a3332000000005f82015250565b5f613fc5601c83613f87565b9150613fd082613f91565b601c82019050919050565b5f819050919050565b613ff5613ff082612609565b613fdb565b82525050565b5f61400582613fb9565b91506140118284613fe4565b60208201915081905092915050565b5f60ff82169050919050565b5f61403682614020565b915061404183614020565b9250828201905060ff81111561405a57614059613260565b5b92915050565b61406981614020565b82525050565b5f6080820190506140825f830187612736565b61408f6020830186614060565b61409c6040830185612736565b6140a96060830184612736565b95945050505050565b7f696e76616c696420617267756d656e74202d207a65726f2061646472657373005f82015250565b5f6140e6601f83612876565b91506140f1826140b2565b602082019050919050565b5f6020820190508181035f830152614113816140da565b9050919050565b7f496e697469616c206b65792077617320616c72656164792073657475702e00005f82015250565b5f61414e601e83612876565b91506141598261411a565b602082019050919050565b5f6020820190508181035f83015261417b81614142565b905091905056fea2646970667358221220786eb09722d9655af23db8e23393c8bdf1482cc49e487572fda1b50a913f29c264736f6c63430008140033",
			"opcodes": "PUSH1 0x80 PUSH1 0x40 MSTORE PUSH0 PUSH1 0x6 PUSH0 PUSH2 0x100 EXP DUP2 SLOAD DUP2 PUSH1 0xFF MUL NOT AND SWAP1 DUP4 ISZERO ISZERO MUL OR SWAP1 SSTORE POP PUSH0 PUSH1 0x6 PUSH1 0x1 PUSH2 0x100 EXP DUP2 SLOAD DUP2 PUSH1 0xFF MUL NOT AND SWAP1 DUP4 ISZERO ISZERO MUL OR SWAP1 SSTORE POP CALLVALUE DUP1 ISZERO PUSH3 0x43 JUMPI PUSH0 DUP1 REVERT JUMPDEST POP PUSH1 0x40 MLOAD PUSH3 0x4700 CODESIZE SUB DUP1 PUSH3 0x4700 DUP4 CODECOPY DUP2 DUP2 ADD PUSH1 0x40 MSTORE DUP2 ADD SWAP1 PUSH3 0x69 SWAP2 SWAP1 PUSH3 0x3DD JUMP JUMPDEST PUSH0 PUSH20 0xFFFFFFFFFFFFFFFFFFFFFFFFFFFFFFFFFFFFFFFF AND DUP3 PUSH20 0xFFFFFFFFFFFFFFFFFFFFFFFFFFFFFFFFFFFFFFFF AND SUB PUSH3 0xDA JUMPI PUSH1 0x40 MLOAD PUSH32 0x8C379A000000000000000000000000000000000000000000000000000000000 DUP2 MSTORE PUSH1 0x4 ADD PUSH3 0xD1 SWAP1 PUSH3 0x480 JUMP JUMPDEST PUSH1 0x40 MLOAD DUP1 SWAP2 SUB SWAP1 REVERT JUMPDEST DUP1 PUSH3 0xF7 JUMPI PUSH3 0xF1 DUP3 PUSH3 0x11A PUSH1 0x20 SHL PUSH1 0x20 SHR JUMP JUMPDEST PUSH3 0x112 JUMP JUMPDEST PUSH1 0x1 PUSH1 0x6 PUSH0 PUSH2 0x100 EXP DUP2 SLOAD DUP2 PUSH1 0xFF MUL NOT AND SWAP1 DUP4 ISZERO ISZERO MUL OR SWAP1 SSTORE POP JUMPDEST POP POP PUSH3 0x53A JUMP JUMPDEST PUSH1 0x6 PUSH0 SWAP1 SLOAD SWAP1 PUSH2 0x100 EXP SWAP1 DIV PUSH1 0xFF AND ISZERO DUP1 PUSH3 0x142 JUMPI POP PUSH3 0x141 PUSH3 0x2B8 PUSH1 0x20 SHL PUSH1 0x20 SHR JUMP JUMPDEST JUMPDEST PUSH3 0x184 JUMPI PUSH1 0x40 MLOAD PUSH32 0x8C379A000000000000000000000000000000000000000000000000000000000 DUP2 MSTORE PUSH1 0x4 ADD PUSH3 0x17B SWAP1 PUSH3 0x4EE JUMP JUMPDEST PUSH1 0x40 MLOAD DUP1 SWAP2 SUB SWAP1 REVERT JUMPDEST PUSH1 0x1 PUSH1 0x6 PUSH0 PUSH2 0x100 EXP DUP2 SLOAD DUP2 PUSH1 0xFF MUL NOT AND SWAP1 DUP4 ISZERO ISZERO MUL OR SWAP1 SSTORE POP PUSH1 0x1 PUSH1 0x6 PUSH1 0x1 PUSH2 0x100 EXP DUP2 SLOAD DUP2 PUSH1 0xFF MUL NOT AND SWAP1 DUP4 ISZERO ISZERO MUL OR SWAP1 SSTORE POP PUSH0 DUP2 PUSH1 0x40 MLOAD PUSH1 0x20 ADD PUSH3 0x1CD SWAP2 SWAP1 PUSH3 0x51F JUMP JUMPDEST PUSH1 0x40 MLOAD PUSH1 0x20 DUP2 DUP4 SUB SUB DUP2 MSTORE SWAP1 PUSH1 0x40 MSTORE DUP1 MLOAD SWAP1 PUSH1 0x20 ADD KECCAK256 SWAP1 POP DUP1 PUSH1 0x1 PUSH0 DUP4 DUP2 MSTORE PUSH1 0x20 ADD SWAP1 DUP2 MSTORE PUSH1 0x20 ADD PUSH0 KECCAK256 PUSH1 0x2 ADD DUP2 SWAP1 SSTORE POP PUSH1 0x40 MLOAD DUP1 PUSH1 0x20 ADD PUSH1 0x40 MSTORE DUP1 PUSH1 0x1 PUSH1 0xFF AND DUP2 MSTORE POP PUSH1 0x1 PUSH0 DUP4 DUP2 MSTORE PUSH1 0x20 ADD SWAP1 DUP2 MSTORE PUSH1 0x20 ADD PUSH0 KECCAK256 PUSH0 ADD SWAP1 PUSH1 0x1 PUSH3 0x234 SWAP3 SWAP2 SWAP1 PUSH3 0x2CC JUMP JUMPDEST POP PUSH1 0x1 DUP1 PUSH0 DUP4 DUP2 MSTORE PUSH1 0x20 ADD SWAP1 DUP2 MSTORE PUSH1 0x20 ADD PUSH0 KECCAK256 PUSH1 0x1 ADD DUP2 SWAP1 SSTORE POP PUSH1 0x2 PUSH0 PUSH1 0x1 DUP2 MSTORE PUSH1 0x20 ADD SWAP1 DUP2 MSTORE PUSH1 0x20 ADD PUSH0 KECCAK256 DUP2 SWAP1 DUP1 PUSH1 0x1 DUP2 SLOAD ADD DUP1 DUP3 SSTORE DUP1 SWAP2 POP POP PUSH1 0x1 SWAP1 SUB SWAP1 PUSH0 MSTORE PUSH1 0x20 PUSH0 KECCAK256 ADD PUSH0 SWAP1 SWAP2 SWAP1 SWAP2 SWAP1 SWAP2 POP SSTORE PUSH1 0x1 DUP1 DUP3 PUSH32 0x480000BB1EDAD8CA1470381CC334B1917FBD51C6531F3A623EA8E0EC7E38A6E9 PUSH1 0x40 MLOAD PUSH1 0x40 MLOAD DUP1 SWAP2 SUB SWAP1 LOG4 POP POP JUMP JUMPDEST PUSH0 DUP1 ADDRESS SWAP1 POP PUSH0 DUP2 EXTCODESIZE SWAP1 POP PUSH0 DUP2 EQ SWAP3 POP POP POP SWAP1 JUMP JUMPDEST DUP3 DUP1 SLOAD DUP3 DUP3 SSTORE SWAP1 PUSH0 MSTORE PUSH1 0x20 PUSH0 KECCAK256 SWAP1 DUP2 ADD SWAP3 DUP3 ISZERO PUSH3 0x30E JUMPI SWAP2 PUSH1 0x20 MUL DUP3 ADD JUMPDEST DUP3 DUP2 GT ISZERO PUSH3 0x30D JUMPI DUP3 MLOAD DUP3 SWAP1 PUSH1 0xFF AND SWAP1 SSTORE SWAP2 PUSH1 0x20 ADD SWAP2 SWAP1 PUSH1 0x1 ADD SWAP1 PUSH3 0x2EB JUMP JUMPDEST JUMPDEST POP SWAP1 POP PUSH3 0x31D SWAP2 SWAP1 PUSH3 0x321 JUMP JUMPDEST POP SWAP1 JUMP JUMPDEST JUMPDEST DUP1 DUP3 GT ISZERO PUSH3 0x33A JUMPI PUSH0 DUP2 PUSH0 SWAP1 SSTORE POP PUSH1 0x1 ADD PUSH3 0x322 JUMP JUMPDEST POP SWAP1 JUMP JUMPDEST PUSH0 DUP1 REVERT JUMPDEST PUSH0 PUSH20 0xFFFFFFFFFFFFFFFFFFFFFFFFFFFFFFFFFFFFFFFF DUP3 AND SWAP1 POP SWAP2 SWAP1 POP JUMP JUMPDEST PUSH0 PUSH3 0x36D DUP3 PUSH3 0x342 JUMP JUMPDEST SWAP1 POP SWAP2 SWAP1 POP JUMP JUMPDEST PUSH3 0x37F DUP2 PUSH3 0x361 JUMP JUMPDEST DUP2 EQ PUSH3 0x38A JUMPI PUSH0 DUP1 REVERT JUMPDEST POP JUMP JUMPDEST PUSH0 DUP2 MLOAD SWAP1 POP PUSH3 0x39D DUP2 PUSH3 0x374 JUMP JUMPDEST SWAP3 SWAP2 POP POP JUMP JUMPDEST PUSH0 DUP2 ISZERO ISZERO SWAP1 POP SWAP2 SWAP1 POP JUMP JUMPDEST PUSH3 0x3B9 DUP2 PUSH3 0x3A3 JUMP JUMPDEST DUP2 EQ PUSH3 0x3C4 JUMPI PUSH0 DUP1 REVERT JUMPDEST POP JUMP JUMPDEST PUSH0 DUP2 MLOAD SWAP1 POP PUSH3 0x3D7 DUP2 PUSH3 0x3AE JUMP JUMPDEST SWAP3 SWAP2 POP POP JUMP JUMPDEST PUSH0 DUP1 PUSH1 0x40 DUP4 DUP6 SUB SLT ISZERO PUSH3 0x3F6 JUMPI PUSH3 0x3F5 PUSH3 0x33E JUMP JUMPDEST JUMPDEST PUSH0 PUSH3 0x405 DUP6 DUP3 DUP7 ADD PUSH3 0x38D JUMP JUMPDEST SWAP3 POP POP PUSH1 0x20 PUSH3 0x418 DUP6 DUP3 DUP7 ADD PUSH3 0x3C7 JUMP JUMPDEST SWAP2 POP POP SWAP3 POP SWAP3 SWAP1 POP JUMP JUMPDEST PUSH0 DUP3 DUP3 MSTORE PUSH1 0x20 DUP3 ADD SWAP1 POP SWAP3 SWAP2 POP POP JUMP JUMPDEST PUSH32 0x696E76616C696420617267756D656E74202D207A65726F206164647265737300 PUSH0 DUP3 ADD MSTORE POP JUMP JUMPDEST PUSH0 PUSH3 0x468 PUSH1 0x1F DUP4 PUSH3 0x422 JUMP JUMPDEST SWAP2 POP PUSH3 0x475 DUP3 PUSH3 0x432 JUMP JUMPDEST PUSH1 0x20 DUP3 ADD SWAP1 POP SWAP2 SWAP1 POP JUMP JUMPDEST PUSH0 PUSH1 0x20 DUP3 ADD SWAP1 POP DUP2 DUP2 SUB PUSH0 DUP4 ADD MSTORE PUSH3 0x499 DUP2 PUSH3 0x45A JUMP JUMPDEST SWAP1 POP SWAP2 SWAP1 POP JUMP JUMPDEST PUSH32 0x496E697469616C206B65792077617320616C72656164792073657475702E0000 PUSH0 DUP3 ADD MSTORE POP JUMP JUMPDEST PUSH0 PUSH3 0x4D6 PUSH1 0x1E DUP4 PUSH3 0x422 JUMP JUMPDEST SWAP2 POP PUSH3 0x4E3 DUP3 PUSH3 0x4A0 JUMP JUMPDEST PUSH1 0x20 DUP3 ADD SWAP1 POP SWAP2 SWAP1 POP JUMP JUMPDEST PUSH0 PUSH1 0x20 DUP3 ADD SWAP1 POP DUP2 DUP2 SUB PUSH0 DUP4 ADD MSTORE PUSH3 0x507 DUP2 PUSH3 0x4C8 JUMP JUMPDEST SWAP1 POP SWAP2 SWAP1 POP JUMP JUMPDEST PUSH3 0x519 DUP2 PUSH3 0x361 JUMP JUMPDEST DUP3 MSTORE POP POP JUMP JUMPDEST PUSH0 PUSH1 0x20 DUP3 ADD SWAP1 POP PUSH3 0x534 PUSH0 DUP4 ADD DUP5 PUSH3 0x50E JUMP JUMPDEST SWAP3 SWAP2 POP POP JUMP JUMPDEST PUSH2 0x41B8 DUP1 PUSH3 0x548 PUSH0 CODECOPY PUSH0 RETURN INVALID PUSH1 0x80 PUSH1 0x40 MSTORE PUSH1 0x4 CALLDATASIZE LT PUSH2 0xF2 JUMPI PUSH0 CALLDATALOAD PUSH1 0xE0 SHR DUP1 PUSH4 0xB1A34E0D GT PUSH2 0x89 JUMPI DUP1 PUSH4 0xC4D66DE8 GT PUSH2 0x58 JUMPI DUP1 PUSH4 0xC4D66DE8 EQ PUSH2 0x3AA JUMPI DUP1 PUSH4 0xC9100BCB EQ PUSH2 0x3D2 JUMPI DUP1 PUSH4 0xD202158D EQ PUSH2 0x413 JUMPI DUP1 PUSH4 0xFB307B34 EQ PUSH2 0x44F JUMPI PUSH2 0xF2 JUMP JUMPDEST DUP1 PUSH4 0xB1A34E0D EQ PUSH2 0x2C6 JUMPI DUP1 PUSH4 0xB61D27F6 EQ PUSH2 0x302 JUMPI DUP1 PUSH4 0xC0969A6E EQ PUSH2 0x332 JUMPI DUP1 PUSH4 0xC3B129E3 EQ PUSH2 0x36E JUMPI PUSH2 0xF2 JUMP JUMPDEST DUP1 PUSH4 0x54FD4D50 GT PUSH2 0xC5 JUMPI DUP1 PUSH4 0x54FD4D50 EQ PUSH2 0x1E8 JUMPI DUP1 PUSH4 0x747442D3 EQ PUSH2 0x212 JUMPI DUP1 PUSH4 0x80E9E9E1 EQ PUSH2 0x24E JUMPI DUP1 PUSH4 0x9010F726 EQ PUSH2 0x28A JUMPI PUSH2 0xF2 JUMP JUMPDEST DUP1 PUSH4 0x12AAAC70 EQ PUSH2 0xF6 JUMPI DUP1 PUSH4 0x1D381240 EQ PUSH2 0x134 JUMPI DUP1 PUSH4 0x4EEE424A EQ PUSH2 0x170 JUMPI DUP1 PUSH4 0x53D413C5 EQ PUSH2 0x1AC JUMPI JUMPDEST PUSH0 DUP1 REVERT JUMPDEST CALLVALUE DUP1 ISZERO PUSH2 0x101 JUMPI PUSH0 DUP1 REVERT JUMPDEST POP PUSH2 0x11C PUSH1 0x4 DUP1 CALLDATASIZE SUB DUP2 ADD SWAP1 PUSH2 0x117 SWAP2 SWAP1 PUSH2 0x263C JUMP JUMPDEST PUSH2 0x48B JUMP JUMPDEST PUSH1 0x40 MLOAD PUSH2 0x12B SWAP4 SWAP3 SWAP2 SWAP1 PUSH2 0x2745 JUMP JUMPDEST PUSH1 0x40 MLOAD DUP1 SWAP2 SUB SWAP1 RETURN JUMPDEST CALLVALUE DUP1 ISZERO PUSH2 0x13F JUMPI PUSH0 DUP1 REVERT JUMPDEST POP PUSH2 0x15A PUSH1 0x4 DUP1 CALLDATASIZE SUB DUP2 ADD SWAP1 PUSH2 0x155 SWAP2 SWAP1 PUSH2 0x27AB JUMP JUMPDEST PUSH2 0x529 JUMP JUMPDEST PUSH1 0x40 MLOAD PUSH2 0x167 SWAP2 SWAP1 PUSH2 0x2815 JUMP JUMPDEST PUSH1 0x40 MLOAD DUP1 SWAP2 SUB SWAP1 RETURN JUMPDEST CALLVALUE DUP1 ISZERO PUSH2 0x17B JUMPI PUSH0 DUP1 REVERT JUMPDEST POP PUSH2 0x196 PUSH1 0x4 DUP1 CALLDATASIZE SUB DUP2 ADD SWAP1 PUSH2 0x191 SWAP2 SWAP1 PUSH2 0x263C JUMP JUMPDEST PUSH2 0x834 JUMP JUMPDEST PUSH1 0x40 MLOAD PUSH2 0x1A3 SWAP2 SWAP1 PUSH2 0x2815 JUMP JUMPDEST PUSH1 0x40 MLOAD DUP1 SWAP2 SUB SWAP1 RETURN JUMPDEST CALLVALUE DUP1 ISZERO PUSH2 0x1B7 JUMPI PUSH0 DUP1 REVERT JUMPDEST POP PUSH2 0x1D2 PUSH1 0x4 DUP1 CALLDATASIZE SUB DUP2 ADD SWAP1 PUSH2 0x1CD SWAP2 SWAP1 PUSH2 0x282E JUMP JUMPDEST PUSH2 0xBDD JUMP JUMPDEST PUSH1 0x40 MLOAD PUSH2 0x1DF SWAP2 SWAP1 PUSH2 0x2815 JUMP JUMPDEST PUSH1 0x40 MLOAD DUP1 SWAP2 SUB SWAP1 RETURN JUMPDEST CALLVALUE DUP1 ISZERO PUSH2 0x1F3 JUMPI PUSH0 DUP1 REVERT JUMPDEST POP PUSH2 0x1FC PUSH2 0x1049 JUMP JUMPDEST PUSH1 0x40 MLOAD PUSH2 0x209 SWAP2 SWAP1 PUSH2 0x28F6 JUMP JUMPDEST PUSH1 0x40 MLOAD DUP1 SWAP2 SUB SWAP1 RETURN JUMPDEST CALLVALUE DUP1 ISZERO PUSH2 0x21D JUMPI PUSH0 DUP1 REVERT JUMPDEST POP PUSH2 0x238 PUSH1 0x4 DUP1 CALLDATASIZE SUB DUP2 ADD SWAP1 PUSH2 0x233 SWAP2 SWAP1 PUSH2 0x2940 JUMP JUMPDEST PUSH2 0x1086 JUMP JUMPDEST PUSH1 0x40 MLOAD PUSH2 0x245 SWAP2 SWAP1 PUSH2 0x2815 JUMP JUMPDEST PUSH1 0x40 MLOAD DUP1 SWAP2 SUB SWAP1 RETURN JUMPDEST CALLVALUE DUP1 ISZERO PUSH2 0x259 JUMPI PUSH0 DUP1 REVERT JUMPDEST POP PUSH2 0x274 PUSH1 0x4 DUP1 CALLDATASIZE SUB DUP2 ADD SWAP1 PUSH2 0x26F SWAP2 SWAP1 PUSH2 0x297E JUMP JUMPDEST PUSH2 0x15CC JUMP JUMPDEST PUSH1 0x40 MLOAD PUSH2 0x281 SWAP2 SWAP1 PUSH2 0x2A60 JUMP JUMPDEST PUSH1 0x40 MLOAD DUP1 SWAP2 SUB SWAP1 RETURN JUMPDEST CALLVALUE DUP1 ISZERO PUSH2 0x295 JUMPI PUSH0 DUP1 REVERT JUMPDEST POP PUSH2 0x2B0 PUSH1 0x4 DUP1 CALLDATASIZE SUB DUP2 ADD SWAP1 PUSH2 0x2AB SWAP2 SWAP1 PUSH2 0x297E JUMP JUMPDEST PUSH2 0x1633 JUMP JUMPDEST PUSH1 0x40 MLOAD PUSH2 0x2BD SWAP2 SWAP1 PUSH2 0x2A60 JUMP JUMPDEST PUSH1 0x40 MLOAD DUP1 SWAP2 SUB SWAP1 RETURN JUMPDEST CALLVALUE DUP1 ISZERO PUSH2 0x2D1 JUMPI PUSH0 DUP1 REVERT JUMPDEST POP PUSH2 0x2EC PUSH1 0x4 DUP1 CALLDATASIZE SUB DUP2 ADD SWAP1 PUSH2 0x2E7 SWAP2 SWAP1 PUSH2 0x2CA4 JUMP JUMPDEST PUSH2 0x169A JUMP JUMPDEST PUSH1 0x40 MLOAD PUSH2 0x2F9 SWAP2 SWAP1 PUSH2 0x2D81 JUMP JUMPDEST PUSH1 0x40 MLOAD DUP1 SWAP2 SUB SWAP1 RETURN JUMPDEST PUSH2 0x31C PUSH1 0x4 DUP1 CALLDATASIZE SUB DUP2 ADD SWAP1 PUSH2 0x317 SWAP2 SWAP1 PUSH2 0x2D9A JUMP JUMPDEST PUSH2 0x1AF8 JUMP JUMPDEST PUSH1 0x40 MLOAD PUSH2 0x329 SWAP2 SWAP1 PUSH2 0x2E06 JUMP JUMPDEST PUSH1 0x40 MLOAD DUP1 SWAP2 SUB SWAP1 RETURN JUMPDEST CALLVALUE DUP1 ISZERO PUSH2 0x33D JUMPI PUSH0 DUP1 REVERT JUMPDEST POP PUSH2 0x358 PUSH1 0x4 DUP1 CALLDATASIZE SUB DUP2 ADD SWAP1 PUSH2 0x353 SWAP2 SWAP1 PUSH2 0x2E5A JUMP JUMPDEST PUSH2 0x1D14 JUMP JUMPDEST PUSH1 0x40 MLOAD PUSH2 0x365 SWAP2 SWAP1 PUSH2 0x2815 JUMP JUMPDEST PUSH1 0x40 MLOAD DUP1 SWAP2 SUB SWAP1 RETURN JUMPDEST CALLVALUE DUP1 ISZERO PUSH2 0x379 JUMPI PUSH0 DUP1 REVERT JUMPDEST POP PUSH2 0x394 PUSH1 0x4 DUP1 CALLDATASIZE SUB DUP2 ADD SWAP1 PUSH2 0x38F SWAP2 SWAP1 PUSH2 0x2EF6 JUMP JUMPDEST PUSH2 0x1DD1 JUMP JUMPDEST PUSH1 0x40 MLOAD PUSH2 0x3A1 SWAP2 SWAP1 PUSH2 0x2F5F JUMP JUMPDEST PUSH1 0x40 MLOAD DUP1 SWAP2 SUB SWAP1 RETURN JUMPDEST CALLVALUE DUP1 ISZERO PUSH2 0x3B5 JUMPI PUSH0 DUP1 REVERT JUMPDEST POP PUSH2 0x3D0 PUSH1 0x4 DUP1 CALLDATASIZE SUB DUP2 ADD SWAP1 PUSH2 0x3CB SWAP2 SWAP1 PUSH2 0x2F78 JUMP JUMPDEST PUSH2 0x1E79 JUMP JUMPDEST STOP JUMPDEST CALLVALUE DUP1 ISZERO PUSH2 0x3DD JUMPI PUSH0 DUP1 REVERT JUMPDEST POP PUSH2 0x3F8 PUSH1 0x4 DUP1 CALLDATASIZE SUB DUP2 ADD SWAP1 PUSH2 0x3F3 SWAP2 SWAP1 PUSH2 0x263C JUMP JUMPDEST PUSH2 0x1EF3 JUMP JUMPDEST PUSH1 0x40 MLOAD PUSH2 0x40A SWAP7 SWAP6 SWAP5 SWAP4 SWAP3 SWAP2 SWAP1 PUSH2 0x2FF5 JUMP JUMPDEST PUSH1 0x40 MLOAD DUP1 SWAP2 SUB SWAP1 RETURN JUMPDEST CALLVALUE DUP1 ISZERO PUSH2 0x41E JUMPI PUSH0 DUP1 REVERT JUMPDEST POP PUSH2 0x439 PUSH1 0x4 DUP1 CALLDATASIZE SUB DUP2 ADD SWAP1 PUSH2 0x434 SWAP2 SWAP1 PUSH2 0x282E JUMP JUMPDEST PUSH2 0x2147 JUMP JUMPDEST PUSH1 0x40 MLOAD PUSH2 0x446 SWAP2 SWAP1 PUSH2 0x2815 JUMP JUMPDEST PUSH1 0x40 MLOAD DUP1 SWAP2 SUB SWAP1 RETURN JUMPDEST CALLVALUE DUP1 ISZERO PUSH2 0x45A JUMPI PUSH0 DUP1 REVERT JUMPDEST POP PUSH2 0x475 PUSH1 0x4 DUP1 CALLDATASIZE SUB DUP2 ADD SWAP1 PUSH2 0x470 SWAP2 SWAP1 PUSH2 0x263C JUMP JUMPDEST PUSH2 0x2254 JUMP JUMPDEST PUSH1 0x40 MLOAD PUSH2 0x482 SWAP2 SWAP1 PUSH2 0x3069 JUMP JUMPDEST PUSH1 0x40 MLOAD DUP1 SWAP2 SUB SWAP1 RETURN JUMPDEST PUSH1 0x60 PUSH0 DUP1 PUSH1 0x1 PUSH0 DUP6 DUP2 MSTORE PUSH1 0x20 ADD SWAP1 DUP2 MSTORE PUSH1 0x20 ADD PUSH0 KECCAK256 PUSH0 ADD PUSH1 0x1 PUSH0 DUP7 DUP2 MSTORE PUSH1 0x20 ADD SWAP1 DUP2 MSTORE PUSH1 0x20 ADD PUSH0 KECCAK256 PUSH1 0x1 ADD SLOAD PUSH1 0x1 PUSH0 DUP8 DUP2 MSTORE PUSH1 0x20 ADD SWAP1 DUP2 MSTORE PUSH1 0x20 ADD PUSH0 KECCAK256 PUSH1 0x2 ADD SLOAD DUP3 DUP1 SLOAD DUP1 PUSH1 0x20 MUL PUSH1 0x20 ADD PUSH1 0x40 MLOAD SWAP1 DUP2 ADD PUSH1 0x40 MSTORE DUP1 SWAP3 SWAP2 SWAP1 DUP2 DUP2 MSTORE PUSH1 0x20 ADD DUP3 DUP1 SLOAD DUP1 ISZERO PUSH2 0x515 JUMPI PUSH1 0x20 MUL DUP3 ADD SWAP2 SWAP1 PUSH0 MSTORE PUSH1 0x20 PUSH0 KECCAK256 SWAP1 JUMPDEST DUP2 SLOAD DUP2 MSTORE PUSH1 0x20 ADD SWAP1 PUSH1 0x1 ADD SWAP1 DUP1 DUP4 GT PUSH2 0x501 JUMPI JUMPDEST POP POP POP POP POP SWAP3 POP SWAP3 POP SWAP3 POP SWAP3 POP SWAP2 SWAP4 SWAP1 SWAP3 POP JUMP JUMPDEST PUSH0 PUSH1 0x1 ISZERO ISZERO PUSH1 0x6 PUSH1 0x1 SWAP1 SLOAD SWAP1 PUSH2 0x100 EXP SWAP1 DIV PUSH1 0xFF AND ISZERO ISZERO EQ PUSH2 0x580 JUMPI PUSH1 0x40 MLOAD PUSH32 0x8C379A000000000000000000000000000000000000000000000000000000000 DUP2 MSTORE PUSH1 0x4 ADD PUSH2 0x577 SWAP1 PUSH2 0x30F9 JUMP JUMPDEST PUSH1 0x40 MLOAD DUP1 SWAP2 SUB SWAP1 REVERT JUMPDEST ADDRESS PUSH20 0xFFFFFFFFFFFFFFFFFFFFFFFFFFFFFFFFFFFFFFFF AND CALLER PUSH20 0xFFFFFFFFFFFFFFFFFFFFFFFFFFFFFFFFFFFFFFFF AND EQ DUP1 PUSH2 0x5E7 JUMPI POP PUSH2 0x5E6 CALLER PUSH1 0x40 MLOAD PUSH1 0x20 ADD PUSH2 0x5C9 SWAP2 SWAP1 PUSH2 0x2F5F JUMP JUMPDEST PUSH1 0x40 MLOAD PUSH1 0x20 DUP2 DUP4 SUB SUB DUP2 MSTORE SWAP1 PUSH1 0x40 MSTORE DUP1 MLOAD SWAP1 PUSH1 0x20 ADD KECCAK256 PUSH1 0x1 PUSH2 0x2147 JUMP JUMPDEST JUMPDEST PUSH2 0x626 JUMPI PUSH1 0x40 MLOAD PUSH32 0x8C379A000000000000000000000000000000000000000000000000000000000 DUP2 MSTORE PUSH1 0x4 ADD PUSH2 0x61D SWAP1 PUSH2 0x3187 JUMP JUMPDEST PUSH1 0x40 MLOAD DUP1 SWAP2 SUB SWAP1 REVERT JUMPDEST DUP4 PUSH1 0x1 PUSH0 DUP7 DUP2 MSTORE PUSH1 0x20 ADD SWAP1 DUP2 MSTORE PUSH1 0x20 ADD PUSH0 KECCAK256 PUSH1 0x2 ADD SLOAD SUB PUSH2 0x761 JUMPI PUSH0 PUSH1 0x1 PUSH0 DUP7 DUP2 MSTORE PUSH1 0x20 ADD SWAP1 DUP2 MSTORE PUSH1 0x20 ADD PUSH0 KECCAK256 PUSH0 ADD DUP1 SLOAD DUP1 PUSH1 0x20 MUL PUSH1 0x20 ADD PUSH1 0x40 MLOAD SWAP1 DUP2 ADD PUSH1 0x40 MSTORE DUP1 SWAP3 SWAP2 SWAP1 DUP2 DUP2 MSTORE PUSH1 0x20 ADD DUP3 DUP1 SLOAD DUP1 ISZERO PUSH2 0x69D JUMPI PUSH1 0x20 MUL DUP3 ADD SWAP2 SWAP1 PUSH0 MSTORE PUSH1 0x20 PUSH0 KECCAK256 SWAP1 JUMPDEST DUP2 SLOAD DUP2 MSTORE PUSH1 0x20 ADD SWAP1 PUSH1 0x1 ADD SWAP1 DUP1 DUP4 GT PUSH2 0x689 JUMPI JUMPDEST POP POP POP POP POP SWAP1 POP PUSH0 JUMPDEST DUP2 MLOAD DUP2 LT ISZERO PUSH2 0x723 JUMPI PUSH0 DUP3 DUP3 DUP2 MLOAD DUP2 LT PUSH2 0x6C3 JUMPI PUSH2 0x6C2 PUSH2 0x31A5 JUMP JUMPDEST JUMPDEST PUSH1 0x20 MUL PUSH1 0x20 ADD ADD MLOAD SWAP1 POP DUP6 DUP2 SUB PUSH2 0x70F JUMPI PUSH1 0x40 MLOAD PUSH32 0x8C379A000000000000000000000000000000000000000000000000000000000 DUP2 MSTORE PUSH1 0x4 ADD PUSH2 0x706 SWAP1 PUSH2 0x3242 JUMP JUMPDEST PUSH1 0x40 MLOAD DUP1 SWAP2 SUB SWAP1 REVERT JUMPDEST POP DUP1 DUP1 PUSH2 0x71B SWAP1 PUSH2 0x328D JUMP JUMPDEST SWAP2 POP POP PUSH2 0x6A6 JUMP JUMPDEST POP PUSH1 0x1 PUSH0 DUP7 DUP2 MSTORE PUSH1 0x20 ADD SWAP1 DUP2 MSTORE PUSH1 0x20 ADD PUSH0 KECCAK256 PUSH0 ADD DUP5 SWAP1 DUP1 PUSH1 0x1 DUP2 SLOAD ADD DUP1 DUP3 SSTORE DUP1 SWAP2 POP POP PUSH1 0x1 SWAP1 SUB SWAP1 PUSH0 MSTORE PUSH1 0x20 PUSH0 KECCAK256 ADD PUSH0 SWAP1 SWAP2 SWAP1 SWAP2 SWAP1 SWAP2 POP SSTORE POP PUSH2 0x7C5 JUMP JUMPDEST DUP4 PUSH1 0x1 PUSH0 DUP7 DUP2 MSTORE PUSH1 0x20 ADD SWAP1 DUP2 MSTORE PUSH1 0x20 ADD PUSH0 KECCAK256 PUSH1 0x2 ADD DUP2 SWAP1 SSTORE POP PUSH1 0x40 MLOAD DUP1 PUSH1 0x20 ADD PUSH1 0x40 MSTORE DUP1 DUP5 DUP2 MSTORE POP PUSH1 0x1 PUSH0 DUP7 DUP2 MSTORE PUSH1 0x20 ADD SWAP1 DUP2 MSTORE PUSH1 0x20 ADD PUSH0 KECCAK256 PUSH0 ADD SWAP1 PUSH1 0x1 PUSH2 0x7AA SWAP3 SWAP2 SWAP1 PUSH2 0x245F JUMP JUMPDEST POP DUP2 PUSH1 0x1 PUSH0 DUP7 DUP2 MSTORE PUSH1 0x20 ADD SWAP1 DUP2 MSTORE PUSH1 0x20 ADD PUSH0 KECCAK256 PUSH1 0x1 ADD DUP2 SWAP1 SSTORE POP JUMPDEST PUSH1 0x2 PUSH0 DUP5 DUP2 MSTORE PUSH1 0x20 ADD SWAP1 DUP2 MSTORE PUSH1 0x20 ADD PUSH0 KECCAK256 DUP5 SWAP1 DUP1 PUSH1 0x1 DUP2 SLOAD ADD DUP1 DUP3 SSTORE DUP1 SWAP2 POP POP PUSH1 0x1 SWAP1 SUB SWAP1 PUSH0 MSTORE PUSH1 0x20 PUSH0 KECCAK256 ADD PUSH0 SWAP1 SWAP2 SWAP1 SWAP2 SWAP1 SWAP2 POP SSTORE DUP2 DUP4 DUP6 PUSH32 0x480000BB1EDAD8CA1470381CC334B1917FBD51C6531F3A623EA8E0EC7E38A6E9 PUSH1 0x40 MLOAD PUSH1 0x40 MLOAD DUP1 SWAP2 SUB SWAP1 LOG4 PUSH1 0x1 SWAP1 POP SWAP4 SWAP3 POP POP POP JUMP JUMPDEST PUSH0 PUSH1 0x1 ISZERO ISZERO PUSH1 0x6 PUSH1 0x1 SWAP1 SLOAD SWAP1 PUSH2 0x100 EXP SWAP1 DIV PUSH1 0xFF AND ISZERO ISZERO EQ PUSH2 0x88B JUMPI PUSH1 0x40 MLOAD PUSH32 0x8C379A000000000000000000000000000000000000000000000000000000000 DUP2 MSTORE PUSH1 0x4 ADD PUSH2 0x882 SWAP1 PUSH2 0x30F9 JUMP JUMPDEST PUSH1 0x40 MLOAD DUP1 SWAP2 SUB SWAP1 REVERT JUMPDEST ADDRESS PUSH20 0xFFFFFFFFFFFFFFFFFFFFFFFFFFFFFFFFFFFFFFFF AND CALLER PUSH20 0xFFFFFFFFFFFFFFFFFFFFFFFFFFFFFFFFFFFFFFFF AND EQ DUP1 PUSH2 0x8F2 JUMPI POP PUSH2 0x8F1 CALLER PUSH1 0x40 MLOAD PUSH1 0x20 ADD PUSH2 0x8D4 SWAP2 SWAP1 PUSH2 0x2F5F JUMP JUMPDEST PUSH1 0x40 MLOAD PUSH1 0x20 DUP2 DUP4 SUB SUB DUP2 MSTORE SWAP1 PUSH1 0x40 MSTORE DUP1 MLOAD SWAP1 PUSH1 0x20 ADD KECCAK256 PUSH1 0x3 PUSH2 0x2147 JUMP JUMPDEST JUMPDEST PUSH2 0x931 JUMPI PUSH1 0x40 MLOAD PUSH32 0x8C379A000000000000000000000000000000000000000000000000000000000 DUP2 MSTORE PUSH1 0x4 ADD PUSH2 0x928 SWAP1 PUSH2 0x3344 JUMP JUMPDEST PUSH1 0x40 MLOAD DUP1 SWAP2 SUB SWAP1 REVERT JUMPDEST PUSH0 PUSH1 0x4 PUSH0 DUP5 DUP2 MSTORE PUSH1 0x20 ADD SWAP1 DUP2 MSTORE PUSH1 0x20 ADD PUSH0 KECCAK256 PUSH0 ADD SLOAD SWAP1 POP PUSH0 DUP2 SUB PUSH2 0x98A JUMPI PUSH1 0x40 MLOAD PUSH32 0x8C379A000000000000000000000000000000000000000000000000000000000 DUP2 MSTORE PUSH1 0x4 ADD PUSH2 0x981 SWAP1 PUSH2 0x33D2 JUMP JUMPDEST PUSH1 0x40 MLOAD DUP1 SWAP2 SUB SWAP1 REVERT JUMPDEST PUSH0 DUP1 PUSH1 0x5 PUSH0 DUP5 DUP2 MSTORE PUSH1 0x20 ADD SWAP1 DUP2 MSTORE PUSH1 0x20 ADD PUSH0 KECCAK256 DUP1 SLOAD SWAP1 POP SWAP1 POP JUMPDEST DUP5 PUSH1 0x5 PUSH0 DUP6 DUP2 MSTORE PUSH1 0x20 ADD SWAP1 DUP2 MSTORE PUSH1 0x20 ADD PUSH0 KECCAK256 DUP4 DUP2 SLOAD DUP2 LT PUSH2 0x9C8 JUMPI PUSH2 0x9C7 PUSH2 0x31A5 JUMP JUMPDEST JUMPDEST SWAP1 PUSH0 MSTORE PUSH1 0x20 PUSH0 KECCAK256 ADD SLOAD EQ PUSH2 0x9EC JUMPI DUP2 DUP1 PUSH2 0x9E1 SWAP1 PUSH2 0x328D JUMP JUMPDEST SWAP3 POP POP DUP1 DUP3 LT PUSH2 0x9A4 JUMPI JUMPDEST PUSH1 0x5 PUSH0 DUP5 DUP2 MSTORE PUSH1 0x20 ADD SWAP1 DUP2 MSTORE PUSH1 0x20 ADD PUSH0 KECCAK256 PUSH1 0x1 DUP3 PUSH2 0xA0A SWAP2 SWAP1 PUSH2 0x33F0 JUMP JUMPDEST DUP2 SLOAD DUP2 LT PUSH2 0xA1B JUMPI PUSH2 0xA1A PUSH2 0x31A5 JUMP JUMPDEST JUMPDEST SWAP1 PUSH0 MSTORE PUSH1 0x20 PUSH0 KECCAK256 ADD SLOAD PUSH1 0x5 PUSH0 DUP6 DUP2 MSTORE PUSH1 0x20 ADD SWAP1 DUP2 MSTORE PUSH1 0x20 ADD PUSH0 KECCAK256 DUP4 DUP2 SLOAD DUP2 LT PUSH2 0xA47 JUMPI PUSH2 0xA46 PUSH2 0x31A5 JUMP JUMPDEST JUMPDEST SWAP1 PUSH0 MSTORE PUSH1 0x20 PUSH0 KECCAK256 ADD DUP2 SWAP1 SSTORE POP PUSH1 0x5 PUSH0 DUP5 DUP2 MSTORE PUSH1 0x20 ADD SWAP1 DUP2 MSTORE PUSH1 0x20 ADD PUSH0 KECCAK256 DUP1 SLOAD DUP1 PUSH2 0xA74 JUMPI PUSH2 0xA73 PUSH2 0x3423 JUMP JUMPDEST JUMPDEST PUSH1 0x1 SWAP1 SUB DUP2 DUP2 SWAP1 PUSH0 MSTORE PUSH1 0x20 PUSH0 KECCAK256 ADD PUSH0 SWAP1 SSTORE SWAP1 SSTORE PUSH1 0x4 PUSH0 DUP7 DUP2 MSTORE PUSH1 0x20 ADD SWAP1 DUP2 MSTORE PUSH1 0x20 ADD PUSH0 KECCAK256 PUSH1 0x2 ADD PUSH0 SWAP1 SLOAD SWAP1 PUSH2 0x100 EXP SWAP1 DIV PUSH20 0xFFFFFFFFFFFFFFFFFFFFFFFFFFFFFFFFFFFFFFFF AND PUSH20 0xFFFFFFFFFFFFFFFFFFFFFFFFFFFFFFFFFFFFFFFF AND DUP4 DUP7 PUSH32 0x3CF57863A89432C61C4A27073C6EE39E8A764BFF5A05AEBFBCDCDC80B2E6130A PUSH1 0x4 PUSH0 DUP11 DUP2 MSTORE PUSH1 0x20 ADD SWAP1 DUP2 MSTORE PUSH1 0x20 ADD PUSH0 KECCAK256 PUSH1 0x1 ADD SLOAD PUSH1 0x4 PUSH0 DUP12 DUP2 MSTORE PUSH1 0x20 ADD SWAP1 DUP2 MSTORE PUSH1 0x20 ADD PUSH0 KECCAK256 PUSH1 0x3 ADD PUSH1 0x4 PUSH0 DUP13 DUP2 MSTORE PUSH1 0x20 ADD SWAP1 DUP2 MSTORE PUSH1 0x20 ADD PUSH0 KECCAK256 PUSH1 0x4 ADD PUSH1 0x4 PUSH0 DUP14 DUP2 MSTORE PUSH1 0x20 ADD SWAP1 DUP2 MSTORE PUSH1 0x20 ADD PUSH0 KECCAK256 PUSH1 0x5 ADD PUSH1 0x40 MLOAD PUSH2 0xB55 SWAP5 SWAP4 SWAP3 SWAP2 SWAP1 PUSH2 0x35D3 JUMP JUMPDEST PUSH1 0x40 MLOAD DUP1 SWAP2 SUB SWAP1 LOG4 PUSH1 0x4 PUSH0 DUP7 DUP2 MSTORE PUSH1 0x20 ADD SWAP1 DUP2 MSTORE PUSH1 0x20 ADD PUSH0 KECCAK256 PUSH0 DUP1 DUP3 ADD PUSH0 SWAP1 SSTORE PUSH1 0x1 DUP3 ADD PUSH0 SWAP1 SSTORE PUSH1 0x2 DUP3 ADD PUSH0 PUSH2 0x100 EXP DUP2 SLOAD SWAP1 PUSH20 0xFFFFFFFFFFFFFFFFFFFFFFFFFFFFFFFFFFFFFFFF MUL NOT AND SWAP1 SSTORE PUSH1 0x3 DUP3 ADD PUSH0 PUSH2 0xBB1 SWAP2 SWAP1 PUSH2 0x24AA JUMP JUMPDEST PUSH1 0x4 DUP3 ADD PUSH0 PUSH2 0xBC0 SWAP2 SWAP1 PUSH2 0x24AA JUMP JUMPDEST PUSH1 0x5 DUP3 ADD PUSH0 PUSH2 0xBCF SWAP2 SWAP1 PUSH2 0x24E7 JUMP JUMPDEST POP POP PUSH1 0x1 SWAP4 POP POP POP POP SWAP2 SWAP1 POP JUMP JUMPDEST PUSH0 PUSH1 0x1 ISZERO ISZERO PUSH1 0x6 PUSH1 0x1 SWAP1 SLOAD SWAP1 PUSH2 0x100 EXP SWAP1 DIV PUSH1 0xFF AND ISZERO ISZERO EQ PUSH2 0xC34 JUMPI PUSH1 0x40 MLOAD PUSH32 0x8C379A000000000000000000000000000000000000000000000000000000000 DUP2 MSTORE PUSH1 0x4 ADD PUSH2 0xC2B SWAP1 PUSH2 0x30F9 JUMP JUMPDEST PUSH1 0x40 MLOAD DUP1 SWAP2 SUB SWAP1 REVERT JUMPDEST ADDRESS PUSH20 0xFFFFFFFFFFFFFFFFFFFFFFFFFFFFFFFFFFFFFFFF AND CALLER PUSH20 0xFFFFFFFFFFFFFFFFFFFFFFFFFFFFFFFFFFFFFFFF AND EQ DUP1 PUSH2 0xC9B JUMPI POP PUSH2 0xC9A CALLER PUSH1 0x40 MLOAD PUSH1 0x20 ADD PUSH2 0xC7D SWAP2 SWAP1 PUSH2 0x2F5F JUMP JUMPDEST PUSH1 0x40 MLOAD PUSH1 0x20 DUP2 DUP4 SUB SUB DUP2 MSTORE SWAP1 PUSH1 0x40 MSTORE DUP1 MLOAD SWAP1 PUSH1 0x20 ADD KECCAK256 PUSH1 0x1 PUSH2 0x2147 JUMP JUMPDEST JUMPDEST PUSH2 0xCDA JUMPI PUSH1 0x40 MLOAD PUSH32 0x8C379A000000000000000000000000000000000000000000000000000000000 DUP2 MSTORE PUSH1 0x4 ADD PUSH2 0xCD1 SWAP1 PUSH2 0x3187 JUMP JUMPDEST PUSH1 0x40 MLOAD DUP1 SWAP2 SUB SWAP1 REVERT JUMPDEST DUP3 PUSH1 0x1 PUSH0 DUP6 DUP2 MSTORE PUSH1 0x20 ADD SWAP1 DUP2 MSTORE PUSH1 0x20 ADD PUSH0 KECCAK256 PUSH1 0x2 ADD SLOAD EQ PUSH2 0xD30 JUMPI PUSH1 0x40 MLOAD PUSH32 0x8C379A000000000000000000000000000000000000000000000000000000000 DUP2 MSTORE PUSH1 0x4 ADD PUSH2 0xD27 SWAP1 PUSH2 0x369B JUMP JUMPDEST PUSH1 0x40 MLOAD DUP1 SWAP2 SUB SWAP1 REVERT JUMPDEST PUSH0 PUSH1 0x1 PUSH0 DUP6 DUP2 MSTORE PUSH1 0x20 ADD SWAP1 DUP2 MSTORE PUSH1 0x20 ADD PUSH0 KECCAK256 PUSH0 ADD DUP1 SLOAD DUP1 PUSH1 0x20 MUL PUSH1 0x20 ADD PUSH1 0x40 MLOAD SWAP1 DUP2 ADD PUSH1 0x40 MSTORE DUP1 SWAP3 SWAP2 SWAP1 DUP2 DUP2 MSTORE PUSH1 0x20 ADD DUP3 DUP1 SLOAD DUP1 ISZERO PUSH2 0xD8C JUMPI PUSH1 0x20 MUL DUP3 ADD SWAP2 SWAP1 PUSH0 MSTORE PUSH1 0x20 PUSH0 KECCAK256 SWAP1 JUMPDEST DUP2 SLOAD DUP2 MSTORE PUSH1 0x20 ADD SWAP1 PUSH1 0x1 ADD SWAP1 DUP1 DUP4 GT PUSH2 0xD78 JUMPI JUMPDEST POP POP POP POP POP SWAP1 POP PUSH0 JUMPDEST DUP4 DUP3 DUP3 DUP2 MLOAD DUP2 LT PUSH2 0xDA9 JUMPI PUSH2 0xDA8 PUSH2 0x31A5 JUMP JUMPDEST JUMPDEST PUSH1 0x20 MUL PUSH1 0x20 ADD ADD MLOAD EQ PUSH2 0xE0C JUMPI DUP1 DUP1 PUSH2 0xDC1 SWAP1 PUSH2 0x328D JUMP JUMPDEST SWAP2 POP POP DUP2 MLOAD DUP2 SUB PUSH2 0xE07 JUMPI PUSH1 0x40 MLOAD PUSH32 0x8C379A000000000000000000000000000000000000000000000000000000000 DUP2 MSTORE PUSH1 0x4 ADD PUSH2 0xDFE SWAP1 PUSH2 0x3729 JUMP JUMPDEST PUSH1 0x40 MLOAD DUP1 SWAP2 SUB SWAP1 REVERT JUMPDEST PUSH2 0xD95 JUMP JUMPDEST DUP2 PUSH1 0x1 DUP4 MLOAD PUSH2 0xE1B SWAP2 SWAP1 PUSH2 0x33F0 JUMP JUMPDEST DUP2 MLOAD DUP2 LT PUSH2 0xE2C JUMPI PUSH2 0xE2B PUSH2 0x31A5 JUMP JUMPDEST JUMPDEST PUSH1 0x20 MUL PUSH1 0x20 ADD ADD MLOAD DUP3 DUP3 DUP2 MLOAD DUP2 LT PUSH2 0xE47 JUMPI PUSH2 0xE46 PUSH2 0x31A5 JUMP JUMPDEST JUMPDEST PUSH1 0x20 MUL PUSH1 0x20 ADD ADD DUP2 DUP2 MSTORE POP POP DUP2 PUSH1 0x1 PUSH0 DUP8 DUP2 MSTORE PUSH1 0x20 ADD SWAP1 DUP2 MSTORE PUSH1 0x20 ADD PUSH0 KECCAK256 PUSH0 ADD SWAP1 DUP1 MLOAD SWAP1 PUSH1 0x20 ADD SWAP1 PUSH2 0xE7A SWAP3 SWAP2 SWAP1 PUSH2 0x2524 JUMP JUMPDEST POP PUSH1 0x1 PUSH0 DUP7 DUP2 MSTORE PUSH1 0x20 ADD SWAP1 DUP2 MSTORE PUSH1 0x20 ADD PUSH0 KECCAK256 PUSH0 ADD DUP1 SLOAD DUP1 PUSH2 0xE9E JUMPI PUSH2 0xE9D PUSH2 0x3423 JUMP JUMPDEST JUMPDEST PUSH1 0x1 SWAP1 SUB DUP2 DUP2 SWAP1 PUSH0 MSTORE PUSH1 0x20 PUSH0 KECCAK256 ADD PUSH0 SWAP1 SSTORE SWAP1 SSTORE PUSH0 DUP1 PUSH1 0x2 PUSH0 DUP8 DUP2 MSTORE PUSH1 0x20 ADD SWAP1 DUP2 MSTORE PUSH1 0x20 ADD PUSH0 KECCAK256 DUP1 SLOAD SWAP1 POP SWAP1 POP JUMPDEST DUP7 PUSH1 0x2 PUSH0 DUP9 DUP2 MSTORE PUSH1 0x20 ADD SWAP1 DUP2 MSTORE PUSH1 0x20 ADD PUSH0 KECCAK256 DUP4 DUP2 SLOAD DUP2 LT PUSH2 0xEEF JUMPI PUSH2 0xEEE PUSH2 0x31A5 JUMP JUMPDEST JUMPDEST SWAP1 PUSH0 MSTORE PUSH1 0x20 PUSH0 KECCAK256 ADD SLOAD EQ PUSH2 0xF13 JUMPI DUP2 DUP1 PUSH2 0xF08 SWAP1 PUSH2 0x328D JUMP JUMPDEST SWAP3 POP POP DUP1 DUP3 LT PUSH2 0xECB JUMPI JUMPDEST PUSH1 0x2 PUSH0 DUP8 DUP2 MSTORE PUSH1 0x20 ADD SWAP1 DUP2 MSTORE PUSH1 0x20 ADD PUSH0 KECCAK256 PUSH1 0x1 DUP3 PUSH2 0xF31 SWAP2 SWAP1 PUSH2 0x33F0 JUMP JUMPDEST DUP2 SLOAD DUP2 LT PUSH2 0xF42 JUMPI PUSH2 0xF41 PUSH2 0x31A5 JUMP JUMPDEST JUMPDEST SWAP1 PUSH0 MSTORE PUSH1 0x20 PUSH0 KECCAK256 ADD SLOAD PUSH1 0x2 PUSH0 DUP9 DUP2 MSTORE PUSH1 0x20 ADD SWAP1 DUP2 MSTORE PUSH1 0x20 ADD PUSH0 KECCAK256 DUP4 DUP2 SLOAD DUP2 LT PUSH2 0xF6E JUMPI PUSH2 0xF6D PUSH2 0x31A5 JUMP JUMPDEST JUMPDEST SWAP1 PUSH0 MSTORE PUSH1 0x20 PUSH0 KECCAK256 ADD DUP2 SWAP1 SSTORE POP PUSH1 0x2 PUSH0 DUP8 DUP2 MSTORE PUSH1 0x20 ADD SWAP1 DUP2 MSTORE PUSH1 0x20 ADD PUSH0 KECCAK256 DUP1 SLOAD DUP1 PUSH2 0xF9B JUMPI PUSH2 0xF9A PUSH2 0x3423 JUMP JUMPDEST JUMPDEST PUSH1 0x1 SWAP1 SUB DUP2 DUP2 SWAP1 PUSH0 MSTORE PUSH1 0x20 PUSH0 KECCAK256 ADD PUSH0 SWAP1 SSTORE SWAP1 SSTORE PUSH0 PUSH1 0x1 PUSH0 DUP10 DUP2 MSTORE PUSH1 0x20 ADD SWAP1 DUP2 MSTORE PUSH1 0x20 ADD PUSH0 KECCAK256 PUSH1 0x1 ADD SLOAD SWAP1 POP PUSH0 PUSH1 0x1 DUP7 MLOAD PUSH2 0xFD5 SWAP2 SWAP1 PUSH2 0x33F0 JUMP JUMPDEST SUB PUSH2 0x100B JUMPI PUSH1 0x1 PUSH0 DUP10 DUP2 MSTORE PUSH1 0x20 ADD SWAP1 DUP2 MSTORE PUSH1 0x20 ADD PUSH0 KECCAK256 PUSH0 DUP1 DUP3 ADD PUSH0 PUSH2 0xFFA SWAP2 SWAP1 PUSH2 0x256F JUMP JUMPDEST PUSH1 0x1 DUP3 ADD PUSH0 SWAP1 SSTORE PUSH1 0x2 DUP3 ADD PUSH0 SWAP1 SSTORE POP POP JUMPDEST DUP1 DUP8 DUP10 PUSH32 0x585A4AEF50F8267A92B32412B331B20F7F8B96F2245B253B9CC50DCC621D3397 PUSH1 0x40 MLOAD PUSH1 0x40 MLOAD DUP1 SWAP2 SUB SWAP1 LOG4 PUSH1 0x1 SWAP6 POP POP POP POP POP POP SWAP3 SWAP2 POP POP JUMP JUMPDEST PUSH1 0x60 PUSH1 0x40 MLOAD DUP1 PUSH1 0x40 ADD PUSH1 0x40 MSTORE DUP1 PUSH1 0x5 DUP2 MSTORE PUSH1 0x20 ADD PUSH32 0x322E322E30000000000000000000000000000000000000000000000000000000 DUP2 MSTORE POP SWAP1 POP SWAP1 JUMP JUMPDEST PUSH0 PUSH1 0x1 ISZERO ISZERO PUSH1 0x6 PUSH1 0x1 SWAP1 SLOAD SWAP1 PUSH2 0x100 EXP SWAP1 DIV PUSH1 0xFF AND ISZERO ISZERO EQ PUSH2 0x10DD JUMPI PUSH1 0x40 MLOAD PUSH32 0x8C379A000000000000000000000000000000000000000000000000000000000 DUP2 MSTORE PUSH1 0x4 ADD PUSH2 0x10D4 SWAP1 PUSH2 0x30F9 JUMP JUMPDEST PUSH1 0x40 MLOAD DUP1 SWAP2 SUB SWAP1 REVERT JUMPDEST PUSH0 SLOAD DUP4 LT PUSH2 0x1120 JUMPI PUSH1 0x40 MLOAD PUSH32 0x8C379A000000000000000000000000000000000000000000000000000000000 DUP2 MSTORE PUSH1 0x4 ADD PUSH2 0x1117 SWAP1 PUSH2 0x37B7 JUMP JUMPDEST PUSH1 0x40 MLOAD DUP1 SWAP2 SUB SWAP1 REVERT JUMPDEST PUSH1 0x3 PUSH0 DUP5 DUP2 MSTORE PUSH1 0x20 ADD SWAP1 DUP2 MSTORE PUSH1 0x20 ADD PUSH0 KECCAK256 PUSH1 0x3 ADD PUSH1 0x1 SWAP1 SLOAD SWAP1 PUSH2 0x100 EXP SWAP1 DIV PUSH1 0xFF AND ISZERO PUSH2 0x1182 JUMPI PUSH1 0x40 MLOAD PUSH32 0x8C379A000000000000000000000000000000000000000000000000000000000 DUP2 MSTORE PUSH1 0x4 ADD PUSH2 0x1179 SWAP1 PUSH2 0x381F JUMP JUMPDEST PUSH1 0x40 MLOAD DUP1 SWAP2 SUB SWAP1 REVERT JUMPDEST ADDRESS PUSH20 0xFFFFFFFFFFFFFFFFFFFFFFFFFFFFFFFFFFFFFFFF AND PUSH1 0x3 PUSH0 DUP6 DUP2 MSTORE PUSH1 0x20 ADD SWAP1 DUP2 MSTORE PUSH1 0x20 ADD PUSH0 KECCAK256 PUSH0 ADD PUSH0 SWAP1 SLOAD SWAP1 PUSH2 0x100 EXP SWAP1 DIV PUSH20 0xFFFFFFFFFFFFFFFFFFFFFFFFFFFFFFFFFFFFFFFF AND PUSH20 0xFFFFFFFFFFFFFFFFFFFFFFFFFFFFFFFFFFFFFFFF AND SUB PUSH2 0x125C JUMPI PUSH2 0x1218 CALLER PUSH1 0x40 MLOAD PUSH1 0x20 ADD PUSH2 0x11FB SWAP2 SWAP1 PUSH2 0x2F5F JUMP JUMPDEST PUSH1 0x40 MLOAD PUSH1 0x20 DUP2 DUP4 SUB SUB DUP2 MSTORE SWAP1 PUSH1 0x40 MSTORE DUP1 MLOAD SWAP1 PUSH1 0x20 ADD KECCAK256 PUSH1 0x1 PUSH2 0x2147 JUMP JUMPDEST PUSH2 0x1257 JUMPI PUSH1 0x40 MLOAD PUSH32 0x8C379A000000000000000000000000000000000000000000000000000000000 DUP2 MSTORE PUSH1 0x4 ADD PUSH2 0x124E SWAP1 PUSH2 0x38AD JUMP JUMPDEST PUSH1 0x40 MLOAD DUP1 SWAP2 SUB SWAP1 REVERT JUMPDEST PUSH2 0x12CD JUMP JUMPDEST PUSH2 0x128D CALLER PUSH1 0x40 MLOAD PUSH1 0x20 ADD PUSH2 0x1270 SWAP2 SWAP1 PUSH2 0x2F5F JUMP JUMPDEST PUSH1 0x40 MLOAD PUSH1 0x20 DUP2 DUP4 SUB SUB DUP2 MSTORE SWAP1 PUSH1 0x40 MSTORE DUP1 MLOAD SWAP1 PUSH1 0x20 ADD KECCAK256 PUSH1 0x2 PUSH2 0x2147 JUMP JUMPDEST PUSH2 0x12CC JUMPI PUSH1 0x40 MLOAD PUSH32 0x8C379A000000000000000000000000000000000000000000000000000000000 DUP2 MSTORE PUSH1 0x4 ADD PUSH2 0x12C3 SWAP1 PUSH2 0x3915 JUMP JUMPDEST PUSH1 0x40 MLOAD DUP1 SWAP2 SUB SWAP1 REVERT JUMPDEST JUMPDEST DUP3 PUSH32 0xB3932DA477FE5D6C8FF2EAFEF050C0F3A1AF18FC07121001482600F36F3715D8 DUP4 PUSH1 0x40 MLOAD PUSH2 0x12FD SWAP2 SWAP1 PUSH2 0x2815 JUMP JUMPDEST PUSH1 0x40 MLOAD DUP1 SWAP2 SUB SWAP1 LOG2 PUSH1 0x1 ISZERO ISZERO DUP3 ISZERO ISZERO SUB PUSH2 0x1597 JUMPI PUSH1 0x1 PUSH1 0x3 PUSH0 DUP6 DUP2 MSTORE PUSH1 0x20 ADD SWAP1 DUP2 MSTORE PUSH1 0x20 ADD PUSH0 KECCAK256 PUSH1 0x3 ADD PUSH0 PUSH2 0x100 EXP DUP2 SLOAD DUP2 PUSH1 0xFF MUL NOT AND SWAP1 DUP4 ISZERO ISZERO MUL OR SWAP1 SSTORE POP PUSH1 0x3 PUSH0 DUP5 DUP2 MSTORE PUSH1 0x20 ADD SWAP1 DUP2 MSTORE PUSH1 0x20 ADD PUSH0 KECCAK256 PUSH0 ADD PUSH0 SWAP1 SLOAD SWAP1 PUSH2 0x100 EXP SWAP1 DIV PUSH20 0xFFFFFFFFFFFFFFFFFFFFFFFFFFFFFFFFFFFFFFFF AND PUSH20 0xFFFFFFFFFFFFFFFFFFFFFFFFFFFFFFFFFFFFFFFF AND PUSH1 0x3 PUSH0 DUP6 DUP2 MSTORE PUSH1 0x20 ADD SWAP1 DUP2 MSTORE PUSH1 0x20 ADD PUSH0 KECCAK256 PUSH1 0x1 ADD SLOAD PUSH1 0x3 PUSH0 DUP7 DUP2 MSTORE PUSH1 0x20 ADD SWAP1 DUP2 MSTORE PUSH1 0x20 ADD PUSH0 KECCAK256 PUSH1 0x2 ADD PUSH1 0x40 MLOAD PUSH2 0x13BC SWAP2 SWAP1 PUSH2 0x39BD JUMP JUMPDEST PUSH0 PUSH1 0x40 MLOAD DUP1 DUP4 SUB DUP2 DUP6 DUP8 GAS CALL SWAP3 POP POP POP RETURNDATASIZE DUP1 PUSH0 DUP2 EQ PUSH2 0x13F6 JUMPI PUSH1 0x40 MLOAD SWAP2 POP PUSH1 0x1F NOT PUSH1 0x3F RETURNDATASIZE ADD AND DUP3 ADD PUSH1 0x40 MSTORE RETURNDATASIZE DUP3 MSTORE RETURNDATASIZE PUSH0 PUSH1 0x20 DUP5 ADD RETURNDATACOPY PUSH2 0x13FB JUMP JUMPDEST PUSH1 0x60 SWAP2 POP JUMPDEST POP POP DUP1 SWAP2 POP POP DUP1 ISZERO PUSH2 0x14E6 JUMPI PUSH1 0x1 PUSH1 0x3 PUSH0 DUP6 DUP2 MSTORE PUSH1 0x20 ADD SWAP1 DUP2 MSTORE PUSH1 0x20 ADD PUSH0 KECCAK256 PUSH1 0x3 ADD PUSH1 0x1 PUSH2 0x100 EXP DUP2 SLOAD DUP2 PUSH1 0xFF MUL NOT AND SWAP1 DUP4 ISZERO ISZERO MUL OR SWAP1 SSTORE POP PUSH1 0x3 PUSH0 DUP5 DUP2 MSTORE PUSH1 0x20 ADD SWAP1 DUP2 MSTORE PUSH1 0x20 ADD PUSH0 KECCAK256 PUSH1 0x1 ADD SLOAD PUSH1 0x3 PUSH0 DUP6 DUP2 MSTORE PUSH1 0x20 ADD SWAP1 DUP2 MSTORE PUSH1 0x20 ADD PUSH0 KECCAK256 PUSH0 ADD PUSH0 SWAP1 SLOAD SWAP1 PUSH2 0x100 EXP SWAP1 DIV PUSH20 0xFFFFFFFFFFFFFFFFFFFFFFFFFFFFFFFFFFFFFFFF AND PUSH20 0xFFFFFFFFFFFFFFFFFFFFFFFFFFFFFFFFFFFFFFFF AND DUP5 PUSH32 0x1F920DBDA597D7BF95035464170FA58D0A4B57F13A1C315ACE6793B9F63688B8 PUSH1 0x3 PUSH0 DUP9 DUP2 MSTORE PUSH1 0x20 ADD SWAP1 DUP2 MSTORE PUSH1 0x20 ADD PUSH0 KECCAK256 PUSH1 0x2 ADD PUSH1 0x40 MLOAD PUSH2 0x14D5 SWAP2 SWAP1 PUSH2 0x39D3 JUMP JUMPDEST PUSH1 0x40 MLOAD DUP1 SWAP2 SUB SWAP1 LOG4 PUSH1 0x1 SWAP1 POP PUSH2 0x15C6 JUMP JUMPDEST PUSH1 0x3 PUSH0 DUP5 DUP2 MSTORE PUSH1 0x20 ADD SWAP1 DUP2 MSTORE PUSH1 0x20 ADD PUSH0 KECCAK256 PUSH1 0x1 ADD SLOAD PUSH1 0x3 PUSH0 DUP6 DUP2 MSTORE PUSH1 0x20 ADD SWAP1 DUP2 MSTORE PUSH1 0x20 ADD PUSH0 KECCAK256 PUSH0 ADD PUSH0 SWAP1 SLOAD SWAP1 PUSH2 0x100 EXP SWAP1 DIV PUSH20 0xFFFFFFFFFFFFFFFFFFFFFFFFFFFFFFFFFFFFFFFF AND PUSH20 0xFFFFFFFFFFFFFFFFFFFFFFFFFFFFFFFFFFFFFFFF AND DUP5 PUSH32 0xE10C49D9F7C71DA23262367013434763CFDB2332267641728D25CD712C5C6A68 PUSH1 0x3 PUSH0 DUP9 DUP2 MSTORE PUSH1 0x20 ADD SWAP1 DUP2 MSTORE PUSH1 0x20 ADD PUSH0 KECCAK256 PUSH1 0x2 ADD PUSH1 0x40 MLOAD PUSH2 0x1587 SWAP2 SWAP1 PUSH2 0x39D3 JUMP JUMPDEST PUSH1 0x40 MLOAD DUP1 SWAP2 SUB SWAP1 LOG4 PUSH0 SWAP1 POP PUSH2 0x15C6 JUMP JUMPDEST PUSH0 PUSH1 0x3 PUSH0 DUP6 DUP2 MSTORE PUSH1 0x20 ADD SWAP1 DUP2 MSTORE PUSH1 0x20 ADD PUSH0 KECCAK256 PUSH1 0x3 ADD PUSH0 PUSH2 0x100 EXP DUP2 SLOAD DUP2 PUSH1 0xFF MUL NOT AND SWAP1 DUP4 ISZERO ISZERO MUL OR SWAP1 SSTORE POP PUSH0 SWAP1 POP JUMPDEST SWAP3 SWAP2 POP POP JUMP JUMPDEST PUSH1 0x60 PUSH1 0x5 PUSH0 DUP4 DUP2 MSTORE PUSH1 0x20 ADD SWAP1 DUP2 MSTORE PUSH1 0x20 ADD PUSH0 KECCAK256 DUP1 SLOAD DUP1 PUSH1 0x20 MUL PUSH1 0x20 ADD PUSH1 0x40 MLOAD SWAP1 DUP2 ADD PUSH1 0x40 MSTORE DUP1 SWAP3 SWAP2 SWAP1 DUP2 DUP2 MSTORE PUSH1 0x20 ADD DUP3 DUP1 SLOAD DUP1 ISZERO PUSH2 0x1627 JUMPI PUSH1 0x20 MUL DUP3 ADD SWAP2 SWAP1 PUSH0 MSTORE PUSH1 0x20 PUSH0 KECCAK256 SWAP1 JUMPDEST DUP2 SLOAD DUP2 MSTORE PUSH1 0x20 ADD SWAP1 PUSH1 0x1 ADD SWAP1 DUP1 DUP4 GT PUSH2 0x1613 JUMPI JUMPDEST POP POP POP POP POP SWAP1 POP SWAP2 SWAP1 POP JUMP JUMPDEST PUSH1 0x60 PUSH1 0x2 PUSH0 DUP4 DUP2 MSTORE PUSH1 0x20 ADD SWAP1 DUP2 MSTORE PUSH1 0x20 ADD PUSH0 KECCAK256 DUP1 SLOAD DUP1 PUSH1 0x20 MUL PUSH1 0x20 ADD PUSH1 0x40 MLOAD SWAP1 DUP2 ADD PUSH1 0x40 MSTORE DUP1 SWAP3 SWAP2 SWAP1 DUP2 DUP2 MSTORE PUSH1 0x20 ADD DUP3 DUP1 SLOAD DUP1 ISZERO PUSH2 0x168E JUMPI PUSH1 0x20 MUL DUP3 ADD SWAP2 SWAP1 PUSH0 MSTORE PUSH1 0x20 PUSH0 KECCAK256 SWAP1 JUMPDEST DUP2 SLOAD DUP2 MSTORE PUSH1 0x20 ADD SWAP1 PUSH1 0x1 ADD SWAP1 DUP1 DUP4 GT PUSH2 0x167A JUMPI JUMPDEST POP POP POP POP POP SWAP1 POP SWAP2 SWAP1 POP JUMP JUMPDEST PUSH0 PUSH1 0x1 ISZERO ISZERO PUSH1 0x6 PUSH1 0x1 SWAP1 SLOAD SWAP1 PUSH2 0x100 EXP SWAP1 DIV PUSH1 0xFF AND ISZERO ISZERO EQ PUSH2 0x16F1 JUMPI PUSH1 0x40 MLOAD PUSH32 0x8C379A000000000000000000000000000000000000000000000000000000000 DUP2 MSTORE PUSH1 0x4 ADD PUSH2 0x16E8 SWAP1 PUSH2 0x30F9 JUMP JUMPDEST PUSH1 0x40 MLOAD DUP1 SWAP2 SUB SWAP1 REVERT JUMPDEST ADDRESS PUSH20 0xFFFFFFFFFFFFFFFFFFFFFFFFFFFFFFFFFFFFFFFF AND CALLER PUSH20 0xFFFFFFFFFFFFFFFFFFFFFFFFFFFFFFFFFFFFFFFF AND EQ DUP1 PUSH2 0x1758 JUMPI POP PUSH2 0x1757 CALLER PUSH1 0x40 MLOAD PUSH1 0x20 ADD PUSH2 0x173A SWAP2 SWAP1 PUSH2 0x2F5F JUMP JUMPDEST PUSH1 0x40 MLOAD PUSH1 0x20 DUP2 DUP4 SUB SUB DUP2 MSTORE SWAP1 PUSH1 0x40 MSTORE DUP1 MLOAD SWAP1 PUSH1 0x20 ADD KECCAK256 PUSH1 0x3 PUSH2 0x2147 JUMP JUMPDEST JUMPDEST PUSH2 0x1797 JUMPI PUSH1 0x40 MLOAD PUSH32 0x8C379A000000000000000000000000000000000000000000000000000000000 DUP2 MSTORE PUSH1 0x4 ADD PUSH2 0x178E SWAP1 PUSH2 0x3344 JUMP JUMPDEST PUSH1 0x40 MLOAD DUP1 SWAP2 SUB SWAP1 REVERT JUMPDEST ADDRESS PUSH20 0xFFFFFFFFFFFFFFFFFFFFFFFFFFFFFFFFFFFFFFFF AND DUP6 PUSH20 0xFFFFFFFFFFFFFFFFFFFFFFFFFFFFFFFFFFFFFFFF AND EQ PUSH2 0x1888 JUMPI DUP5 PUSH20 0xFFFFFFFFFFFFFFFFFFFFFFFFFFFFFFFFFFFFFFFF AND PUSH4 0xC0969A6E ADDRESS DUP10 DUP8 DUP8 PUSH1 0x40 MLOAD DUP6 PUSH4 0xFFFFFFFF AND PUSH1 0xE0 SHL DUP2 MSTORE PUSH1 0x4 ADD PUSH2 0x1809 SWAP5 SWAP4 SWAP3 SWAP2 SWAP1 PUSH2 0x3A4E JUMP JUMPDEST PUSH1 0x20 PUSH1 0x40 MLOAD DUP1 DUP4 SUB DUP2 DUP7 GAS STATICCALL ISZERO DUP1 ISZERO PUSH2 0x1824 JUMPI RETURNDATASIZE PUSH0 DUP1 RETURNDATACOPY RETURNDATASIZE PUSH0 REVERT JUMPDEST POP POP POP POP PUSH1 0x40 MLOAD RETURNDATASIZE PUSH1 0x1F NOT PUSH1 0x1F DUP3 ADD AND DUP3 ADD DUP1 PUSH1 0x40 MSTORE POP DUP2 ADD SWAP1 PUSH2 0x1848 SWAP2 SWAP1 PUSH2 0x3AB3 JUMP JUMPDEST PUSH2 0x1887 JUMPI PUSH1 0x40 MLOAD PUSH32 0x8C379A000000000000000000000000000000000000000000000000000000000 DUP2 MSTORE PUSH1 0x4 ADD PUSH2 0x187E SWAP1 PUSH2 0x3B28 JUMP JUMPDEST PUSH1 0x40 MLOAD DUP1 SWAP2 SUB SWAP1 REVERT JUMPDEST JUMPDEST PUSH0 DUP6 DUP9 PUSH1 0x40 MLOAD PUSH1 0x20 ADD PUSH2 0x189C SWAP3 SWAP2 SWAP1 PUSH2 0x3B46 JUMP JUMPDEST PUSH1 0x40 MLOAD PUSH1 0x20 DUP2 DUP4 SUB SUB DUP2 MSTORE SWAP1 PUSH1 0x40 MSTORE DUP1 MLOAD SWAP1 PUSH1 0x20 ADD KECCAK256 SWAP1 POP DUP8 PUSH1 0x4 PUSH0 DUP4 DUP2 MSTORE PUSH1 0x20 ADD SWAP1 DUP2 MSTORE PUSH1 0x20 ADD PUSH0 KECCAK256 PUSH0 ADD DUP2 SWAP1 SSTORE POP DUP7 PUSH1 0x4 PUSH0 DUP4 DUP2 MSTORE PUSH1 0x20 ADD SWAP1 DUP2 MSTORE PUSH1 0x20 ADD PUSH0 KECCAK256 PUSH1 0x1 ADD DUP2 SWAP1 SSTORE POP DUP5 PUSH1 0x4 PUSH0 DUP4 DUP2 MSTORE PUSH1 0x20 ADD SWAP1 DUP2 MSTORE PUSH1 0x20 ADD PUSH0 KECCAK256 PUSH1 0x3 ADD SWAP1 DUP2 PUSH2 0x1906 SWAP2 SWAP1 PUSH2 0x3CEF JUMP JUMPDEST POP DUP4 PUSH1 0x4 PUSH0 DUP4 DUP2 MSTORE PUSH1 0x20 ADD SWAP1 DUP2 MSTORE PUSH1 0x20 ADD PUSH0 KECCAK256 PUSH1 0x4 ADD SWAP1 DUP2 PUSH2 0x1928 SWAP2 SWAP1 PUSH2 0x3CEF JUMP JUMPDEST POP DUP3 PUSH1 0x4 PUSH0 DUP4 DUP2 MSTORE PUSH1 0x20 ADD SWAP1 DUP2 MSTORE PUSH1 0x20 ADD PUSH0 KECCAK256 PUSH1 0x5 ADD SWAP1 DUP2 PUSH2 0x194A SWAP2 SWAP1 PUSH2 0x3E04 JUMP JUMPDEST POP DUP6 PUSH20 0xFFFFFFFFFFFFFFFFFFFFFFFFFFFFFFFFFFFFFFFF AND PUSH1 0x4 PUSH0 DUP4 DUP2 MSTORE PUSH1 0x20 ADD SWAP1 DUP2 MSTORE PUSH1 0x20 ADD PUSH0 KECCAK256 PUSH1 0x2 ADD PUSH0 SWAP1 SLOAD SWAP1 PUSH2 0x100 EXP SWAP1 DIV PUSH20 0xFFFFFFFFFFFFFFFFFFFFFFFFFFFFFFFFFFFFFFFF AND PUSH20 0xFFFFFFFFFFFFFFFFFFFFFFFFFFFFFFFFFFFFFFFF AND EQ PUSH2 0x1A93 JUMPI PUSH1 0x5 PUSH0 DUP10 DUP2 MSTORE PUSH1 0x20 ADD SWAP1 DUP2 MSTORE PUSH1 0x20 ADD PUSH0 KECCAK256 DUP2 SWAP1 DUP1 PUSH1 0x1 DUP2 SLOAD ADD DUP1 DUP3 SSTORE DUP1 SWAP2 POP POP PUSH1 0x1 SWAP1 SUB SWAP1 PUSH0 MSTORE PUSH1 0x20 PUSH0 KECCAK256 ADD PUSH0 SWAP1 SWAP2 SWAP1 SWAP2 SWAP1 SWAP2 POP SSTORE DUP6 PUSH1 0x4 PUSH0 DUP4 DUP2 MSTORE PUSH1 0x20 ADD SWAP1 DUP2 MSTORE PUSH1 0x20 ADD PUSH0 KECCAK256 PUSH1 0x2 ADD PUSH0 PUSH2 0x100 EXP DUP2 SLOAD DUP2 PUSH20 0xFFFFFFFFFFFFFFFFFFFFFFFFFFFFFFFFFFFFFFFF MUL NOT AND SWAP1 DUP4 PUSH20 0xFFFFFFFFFFFFFFFFFFFFFFFFFFFFFFFFFFFFFFFF AND MUL OR SWAP1 SSTORE POP DUP6 PUSH20 0xFFFFFFFFFFFFFFFFFFFFFFFFFFFFFFFFFFFFFFFF AND DUP9 DUP3 PUSH32 0x46149B18AA084502C3F12BC75E19EDA8BDA8D102B82CCE8474677A6D0D5F43C5 DUP11 DUP10 DUP10 DUP10 PUSH1 0x40 MLOAD PUSH2 0x1A86 SWAP5 SWAP4 SWAP3 SWAP2 SWAP1 PUSH2 0x3ED3 JUMP JUMPDEST PUSH1 0x40 MLOAD DUP1 SWAP2 SUB SWAP1 LOG4 PUSH2 0x1AEA JUMP JUMPDEST DUP6 PUSH20 0xFFFFFFFFFFFFFFFFFFFFFFFFFFFFFFFFFFFFFFFF AND DUP9 DUP3 PUSH32 0x3BAB293FC00DB832D7619A9299914251B8747C036867EC056CBD506F60135B13 DUP11 DUP10 DUP10 DUP10 PUSH1 0x40 MLOAD PUSH2 0x1AE1 SWAP5 SWAP4 SWAP3 SWAP2 SWAP1 PUSH2 0x3ED3 JUMP JUMPDEST PUSH1 0x40 MLOAD DUP1 SWAP2 SUB SWAP1 LOG4 JUMPDEST DUP1 SWAP2 POP POP SWAP7 SWAP6 POP POP POP POP POP POP JUMP JUMPDEST PUSH0 PUSH1 0x1 ISZERO ISZERO PUSH1 0x6 PUSH1 0x1 SWAP1 SLOAD SWAP1 PUSH2 0x100 EXP SWAP1 DIV PUSH1 0xFF AND ISZERO ISZERO EQ PUSH2 0x1B4F JUMPI PUSH1 0x40 MLOAD PUSH32 0x8C379A000000000000000000000000000000000000000000000000000000000 DUP2 MSTORE PUSH1 0x4 ADD PUSH2 0x1B46 SWAP1 PUSH2 0x30F9 JUMP JUMPDEST PUSH1 0x40 MLOAD DUP1 SWAP2 SUB SWAP1 REVERT JUMPDEST PUSH0 DUP1 SLOAD SWAP1 POP DUP5 PUSH1 0x3 PUSH0 DUP4 DUP2 MSTORE PUSH1 0x20 ADD SWAP1 DUP2 MSTORE PUSH1 0x20 ADD PUSH0 KECCAK256 PUSH0 ADD PUSH0 PUSH2 0x100 EXP DUP2 SLOAD DUP2 PUSH20 0xFFFFFFFFFFFFFFFFFFFFFFFFFFFFFFFFFFFFFFFF MUL NOT AND SWAP1 DUP4 PUSH20 0xFFFFFFFFFFFFFFFFFFFFFFFFFFFFFFFFFFFFFFFF AND MUL OR SWAP1 SSTORE POP DUP4 PUSH1 0x3 PUSH0 DUP4 DUP2 MSTORE PUSH1 0x20 ADD SWAP1 DUP2 MSTORE PUSH1 0x20 ADD PUSH0 KECCAK256 PUSH1 0x1 ADD DUP2 SWAP1 SSTORE POP DUP3 PUSH1 0x3 PUSH0 DUP4 DUP2 MSTORE PUSH1 0x20 ADD SWAP1 DUP2 MSTORE PUSH1 0x20 ADD PUSH0 KECCAK256 PUSH1 0x2 ADD SWAP1 DUP2 PUSH2 0x1BDF SWAP2 SWAP1 PUSH2 0x3CEF JUMP JUMPDEST POP PUSH0 DUP1 DUP2 SLOAD DUP1 SWAP3 SWAP2 SWAP1 PUSH2 0x1BF1 SWAP1 PUSH2 0x328D JUMP JUMPDEST SWAP2 SWAP1 POP SSTORE POP DUP4 DUP6 PUSH20 0xFFFFFFFFFFFFFFFFFFFFFFFFFFFFFFFFFFFFFFFF AND DUP3 PUSH32 0x8AFCFABCB00E47A53A8FC3E9F23FF47EE1926194BB1350DD007C50B412A6CEE8 DUP7 PUSH1 0x40 MLOAD PUSH2 0x1C3E SWAP2 SWAP1 PUSH2 0x3F2B JUMP JUMPDEST PUSH1 0x40 MLOAD DUP1 SWAP2 SUB SWAP1 LOG4 PUSH2 0x1C77 CALLER PUSH1 0x40 MLOAD PUSH1 0x20 ADD PUSH2 0x1C5A SWAP2 SWAP1 PUSH2 0x2F5F JUMP JUMPDEST PUSH1 0x40 MLOAD PUSH1 0x20 DUP2 DUP4 SUB SUB DUP2 MSTORE SWAP1 PUSH1 0x40 MSTORE DUP1 MLOAD SWAP1 PUSH1 0x20 ADD KECCAK256 PUSH1 0x1 PUSH2 0x2147 JUMP JUMPDEST ISZERO PUSH2 0x1C8D JUMPI PUSH2 0x1C87 DUP2 PUSH1 0x1 PUSH2 0x1086 JUMP JUMPDEST POP PUSH2 0x1D09 JUMP JUMPDEST ADDRESS PUSH20 0xFFFFFFFFFFFFFFFFFFFFFFFFFFFFFFFFFFFFFFFF AND DUP6 PUSH20 0xFFFFFFFFFFFFFFFFFFFFFFFFFFFFFFFFFFFFFFFF AND EQ ISZERO DUP1 ISZERO PUSH2 0x1CF6 JUMPI POP PUSH2 0x1CF5 CALLER PUSH1 0x40 MLOAD PUSH1 0x20 ADD PUSH2 0x1CD8 SWAP2 SWAP1 PUSH2 0x2F5F JUMP JUMPDEST PUSH1 0x40 MLOAD PUSH1 0x20 DUP2 DUP4 SUB SUB DUP2 MSTORE SWAP1 PUSH1 0x40 MSTORE DUP1 MLOAD SWAP1 PUSH1 0x20 ADD KECCAK256 PUSH1 0x2 PUSH2 0x2147 JUMP JUMPDEST JUMPDEST ISZERO PUSH2 0x1D08 JUMPI PUSH2 0x1D06 DUP2 PUSH1 0x1 PUSH2 0x1086 JUMP JUMPDEST POP JUMPDEST JUMPDEST DUP1 SWAP2 POP POP SWAP4 SWAP3 POP POP POP JUMP JUMPDEST PUSH0 DUP1 DUP6 DUP6 DUP5 PUSH1 0x40 MLOAD PUSH1 0x20 ADD PUSH2 0x1D2B SWAP4 SWAP3 SWAP2 SWAP1 PUSH2 0x3F4B JUMP JUMPDEST PUSH1 0x40 MLOAD PUSH1 0x20 DUP2 DUP4 SUB SUB DUP2 MSTORE SWAP1 PUSH1 0x40 MSTORE DUP1 MLOAD SWAP1 PUSH1 0x20 ADD KECCAK256 SWAP1 POP PUSH0 DUP2 PUSH1 0x40 MLOAD PUSH1 0x20 ADD PUSH2 0x1D55 SWAP2 SWAP1 PUSH2 0x3FFB JUMP JUMPDEST PUSH1 0x40 MLOAD PUSH1 0x20 DUP2 DUP4 SUB SUB DUP2 MSTORE SWAP1 PUSH1 0x40 MSTORE DUP1 MLOAD SWAP1 PUSH1 0x20 ADD KECCAK256 SWAP1 POP PUSH0 PUSH2 0x1D78 DUP7 DUP4 PUSH2 0x1DD1 JUMP JUMPDEST SWAP1 POP PUSH0 DUP2 PUSH1 0x40 MLOAD PUSH1 0x20 ADD PUSH2 0x1D8C SWAP2 SWAP1 PUSH2 0x2F5F JUMP JUMPDEST PUSH1 0x40 MLOAD PUSH1 0x20 DUP2 DUP4 SUB SUB DUP2 MSTORE SWAP1 PUSH1 0x40 MSTORE DUP1 MLOAD SWAP1 PUSH1 0x20 ADD KECCAK256 SWAP1 POP PUSH2 0x1DAF DUP2 PUSH1 0x3 PUSH2 0x2147 JUMP JUMPDEST ISZERO PUSH2 0x1DC1 JUMPI PUSH1 0x1 SWAP5 POP POP POP POP POP PUSH2 0x1DC9 JUMP JUMPDEST PUSH0 SWAP5 POP POP POP POP POP JUMPDEST SWAP5 SWAP4 POP POP POP POP JUMP JUMPDEST PUSH0 DUP1 PUSH0 DUP1 PUSH1 0x41 DUP7 MLOAD EQ PUSH2 0x1DE9 JUMPI PUSH0 SWAP4 POP POP POP POP PUSH2 0x1E73 JUMP JUMPDEST PUSH1 0x20 DUP7 ADD MLOAD SWAP3 POP PUSH1 0x40 DUP7 ADD MLOAD SWAP2 POP PUSH1 0x60 DUP7 ADD MLOAD PUSH0 BYTE SWAP1 POP PUSH1 0x1B DUP2 PUSH1 0xFF AND LT ISZERO PUSH2 0x1E1C JUMPI PUSH1 0x1B DUP2 PUSH2 0x1E19 SWAP2 SWAP1 PUSH2 0x402C JUMP JUMPDEST SWAP1 POP JUMPDEST PUSH0 PUSH1 0x1 DUP7 DUP4 DUP7 DUP7 PUSH1 0x40 MLOAD PUSH0 DUP2 MSTORE PUSH1 0x20 ADD PUSH1 0x40 MSTORE PUSH1 0x40 MLOAD PUSH2 0x1E3F SWAP5 SWAP4 SWAP3 SWAP2 SWAP1 PUSH2 0x406F JUMP JUMPDEST PUSH1 0x20 PUSH1 0x40 MLOAD PUSH1 0x20 DUP2 SUB SWAP1 DUP1 DUP5 SUB SWAP1 DUP6 GAS STATICCALL ISZERO DUP1 ISZERO PUSH2 0x1E5F JUMPI RETURNDATASIZE PUSH0 DUP1 RETURNDATACOPY RETURNDATASIZE PUSH0 REVERT JUMPDEST POP POP POP PUSH1 0x20 PUSH1 0x40 MLOAD SUB MLOAD SWAP1 POP DUP1 SWAP5 POP POP POP POP POP JUMPDEST SWAP3 SWAP2 POP POP JUMP JUMPDEST PUSH0 PUSH20 0xFFFFFFFFFFFFFFFFFFFFFFFFFFFFFFFFFFFFFFFF AND DUP2 PUSH20 0xFFFFFFFFFFFFFFFFFFFFFFFFFFFFFFFFFFFFFFFF AND SUB PUSH2 0x1EE7 JUMPI PUSH1 0x40 MLOAD PUSH32 0x8C379A000000000000000000000000000000000000000000000000000000000 DUP2 MSTORE PUSH1 0x4 ADD PUSH2 0x1EDE SWAP1 PUSH2 0x40FC JUMP JUMPDEST PUSH1 0x40 MLOAD DUP1 SWAP2 SUB SWAP1 REVERT JUMPDEST PUSH2 0x1EF0 DUP2 PUSH2 0x22BD JUMP JUMPDEST POP JUMP JUMPDEST PUSH0 DUP1 PUSH0 PUSH1 0x60 DUP1 PUSH1 0x60 PUSH1 0x4 PUSH0 DUP9 DUP2 MSTORE PUSH1 0x20 ADD SWAP1 DUP2 MSTORE PUSH1 0x20 ADD PUSH0 KECCAK256 PUSH0 ADD SLOAD PUSH1 0x4 PUSH0 DUP10 DUP2 MSTORE PUSH1 0x20 ADD SWAP1 DUP2 MSTORE PUSH1 0x20 ADD PUSH0 KECCAK256 PUSH1 0x1 ADD SLOAD PUSH1 0x4 PUSH0 DUP11 DUP2 MSTORE PUSH1 0x20 ADD SWAP1 DUP2 MSTORE PUSH1 0x20 ADD PUSH0 KECCAK256 PUSH1 0x2 ADD PUSH0 SWAP1 SLOAD SWAP1 PUSH2 0x100 EXP SWAP1 DIV PUSH20 0xFFFFFFFFFFFFFFFFFFFFFFFFFFFFFFFFFFFFFFFF AND PUSH1 0x4 PUSH0 DUP12 DUP2 MSTORE PUSH1 0x20 ADD SWAP1 DUP2 MSTORE PUSH1 0x20 ADD PUSH0 KECCAK256 PUSH1 0x3 ADD PUSH1 0x4 PUSH0 DUP13 DUP2 MSTORE PUSH1 0x20 ADD SWAP1 DUP2 MSTORE PUSH1 0x20 ADD PUSH0 KECCAK256 PUSH1 0x4 ADD PUSH1 0x4 PUSH0 DUP14 DUP2 MSTORE PUSH1 0x20 ADD SWAP1 DUP2 MSTORE PUSH1 0x20 ADD PUSH0 KECCAK256 PUSH1 0x5 ADD DUP3 DUP1 SLOAD PUSH2 0x1FA0 SWAP1 PUSH2 0x347D JUMP JUMPDEST DUP1 PUSH1 0x1F ADD PUSH1 0x20 DUP1 SWAP2 DIV MUL PUSH1 0x20 ADD PUSH1 0x40 MLOAD SWAP1 DUP2 ADD PUSH1 0x40 MSTORE DUP1 SWAP3 SWAP2 SWAP1 DUP2 DUP2 MSTORE PUSH1 0x20 ADD DUP3 DUP1 SLOAD PUSH2 0x1FCC SWAP1 PUSH2 0x347D JUMP JUMPDEST DUP1 ISZERO PUSH2 0x2017 JUMPI DUP1 PUSH1 0x1F LT PUSH2 0x1FEE JUMPI PUSH2 0x100 DUP1 DUP4 SLOAD DIV MUL DUP4 MSTORE SWAP2 PUSH1 0x20 ADD SWAP2 PUSH2 0x2017 JUMP JUMPDEST DUP3 ADD SWAP2 SWAP1 PUSH0 MSTORE PUSH1 0x20 PUSH0 KECCAK256 SWAP1 JUMPDEST DUP2 SLOAD DUP2 MSTORE SWAP1 PUSH1 0x1 ADD SWAP1 PUSH1 0x20 ADD DUP1 DUP4 GT PUSH2 0x1FFA JUMPI DUP3 SWAP1 SUB PUSH1 0x1F AND DUP3 ADD SWAP2 JUMPDEST POP POP POP POP POP SWAP3 POP DUP2 DUP1 SLOAD PUSH2 0x202A SWAP1 PUSH2 0x347D JUMP JUMPDEST DUP1 PUSH1 0x1F ADD PUSH1 0x20 DUP1 SWAP2 DIV MUL PUSH1 0x20 ADD PUSH1 0x40 MLOAD SWAP1 DUP2 ADD PUSH1 0x40 MSTORE DUP1 SWAP3 SWAP2 SWAP1 DUP2 DUP2 MSTORE PUSH1 0x20 ADD DUP3 DUP1 SLOAD PUSH2 0x2056 SWAP1 PUSH2 0x347D JUMP JUMPDEST DUP1 ISZERO PUSH2 0x20A1 JUMPI DUP1 PUSH1 0x1F LT PUSH2 0x2078 JUMPI PUSH2 0x100 DUP1 DUP4 SLOAD DIV MUL DUP4 MSTORE SWAP2 PUSH1 0x20 ADD SWAP2 PUSH2 0x20A1 JUMP JUMPDEST DUP3 ADD SWAP2 SWAP1 PUSH0 MSTORE PUSH1 0x20 PUSH0 KECCAK256 SWAP1 JUMPDEST DUP2 SLOAD DUP2 MSTORE SWAP1 PUSH1 0x1 ADD SWAP1 PUSH1 0x20 ADD DUP1 DUP4 GT PUSH2 0x2084 JUMPI DUP3 SWAP1 SUB PUSH1 0x1F AND DUP3 ADD SWAP2 JUMPDEST POP POP POP POP POP SWAP2 POP DUP1 DUP1 SLOAD PUSH2 0x20B4 SWAP1 PUSH2 0x347D JUMP JUMPDEST DUP1 PUSH1 0x1F ADD PUSH1 0x20 DUP1 SWAP2 DIV MUL PUSH1 0x20 ADD PUSH1 0x40 MLOAD SWAP1 DUP2 ADD PUSH1 0x40 MSTORE DUP1 SWAP3 SWAP2 SWAP1 DUP2 DUP2 MSTORE PUSH1 0x20 ADD DUP3 DUP1 SLOAD PUSH2 0x20E0 SWAP1 PUSH2 0x347D JUMP JUMPDEST DUP1 ISZERO PUSH2 0x212B JUMPI DUP1 PUSH1 0x1F LT PUSH2 0x2102 JUMPI PUSH2 0x100 DUP1 DUP4 SLOAD DIV MUL DUP4 MSTORE SWAP2 PUSH1 0x20 ADD SWAP2 PUSH2 0x212B JUMP JUMPDEST DUP3 ADD SWAP2 SWAP1 PUSH0 MSTORE PUSH1 0x20 PUSH0 KECCAK256 SWAP1 JUMPDEST DUP2 SLOAD DUP2 MSTORE SWAP1 PUSH1 0x1 ADD SWAP1 PUSH1 0x20 ADD DUP1 DUP4 GT PUSH2 0x210E JUMPI DUP3 SWAP1 SUB PUSH1 0x1F AND DUP3 ADD SWAP2 JUMPDEST POP POP POP POP POP SWAP1 POP SWAP6 POP SWAP6 POP SWAP6 POP SWAP6 POP SWAP6 POP SWAP6 POP SWAP2 SWAP4 SWAP6 POP SWAP2 SWAP4 SWAP6 JUMP JUMPDEST PUSH0 DUP1 PUSH1 0x1 PUSH0 DUP6 DUP2 MSTORE PUSH1 0x20 ADD SWAP1 DUP2 MSTORE PUSH1 0x20 ADD PUSH0 KECCAK256 PUSH1 0x40 MLOAD DUP1 PUSH1 0x60 ADD PUSH1 0x40 MSTORE SWAP1 DUP2 PUSH0 DUP3 ADD DUP1 SLOAD DUP1 PUSH1 0x20 MUL PUSH1 0x20 ADD PUSH1 0x40 MLOAD SWAP1 DUP2 ADD PUSH1 0x40 MSTORE DUP1 SWAP3 SWAP2 SWAP1 DUP2 DUP2 MSTORE PUSH1 0x20 ADD DUP3 DUP1 SLOAD DUP1 ISZERO PUSH2 0x21B1 JUMPI PUSH1 0x20 MUL DUP3 ADD SWAP2 SWAP1 PUSH0 MSTORE PUSH1 0x20 PUSH0 KECCAK256 SWAP1 JUMPDEST DUP2 SLOAD DUP2 MSTORE PUSH1 0x20 ADD SWAP1 PUSH1 0x1 ADD SWAP1 DUP1 DUP4 GT PUSH2 0x219D JUMPI JUMPDEST POP POP POP POP POP DUP2 MSTORE PUSH1 0x20 ADD PUSH1 0x1 DUP3 ADD SLOAD DUP2 MSTORE PUSH1 0x20 ADD PUSH1 0x2 DUP3 ADD SLOAD DUP2 MSTORE POP POP SWAP1 POP PUSH0 DUP1 SHL DUP2 PUSH1 0x40 ADD MLOAD SUB PUSH2 0x21E6 JUMPI PUSH0 SWAP2 POP POP PUSH2 0x224E JUMP JUMPDEST PUSH0 JUMPDEST DUP2 PUSH0 ADD MLOAD MLOAD DUP2 LT ISZERO PUSH2 0x2248 JUMPI PUSH0 DUP3 PUSH0 ADD MLOAD DUP3 DUP2 MLOAD DUP2 LT PUSH2 0x220B JUMPI PUSH2 0x220A PUSH2 0x31A5 JUMP JUMPDEST JUMPDEST PUSH1 0x20 MUL PUSH1 0x20 ADD ADD MLOAD SWAP1 POP PUSH1 0x1 DUP2 EQ DUP1 PUSH2 0x2223 JUMPI POP DUP5 DUP2 EQ JUMPDEST ISZERO PUSH2 0x2234 JUMPI PUSH1 0x1 SWAP4 POP POP POP POP PUSH2 0x224E JUMP JUMPDEST POP DUP1 DUP1 PUSH2 0x2240 SWAP1 PUSH2 0x328D JUMP JUMPDEST SWAP2 POP POP PUSH2 0x21E8 JUMP JUMPDEST POP PUSH0 SWAP2 POP POP JUMPDEST SWAP3 SWAP2 POP POP JUMP JUMPDEST PUSH1 0x60 PUSH1 0x1 PUSH0 DUP4 DUP2 MSTORE PUSH1 0x20 ADD SWAP1 DUP2 MSTORE PUSH1 0x20 ADD PUSH0 KECCAK256 PUSH0 ADD DUP1 SLOAD DUP1 PUSH1 0x20 MUL PUSH1 0x20 ADD PUSH1 0x40 MLOAD SWAP1 DUP2 ADD PUSH1 0x40 MSTORE DUP1 SWAP3 SWAP2 SWAP1 DUP2 DUP2 MSTORE PUSH1 0x20 ADD DUP3 DUP1 SLOAD DUP1 ISZERO PUSH2 0x22B1 JUMPI PUSH1 0x20 MUL DUP3 ADD SWAP2 SWAP1 PUSH0 MSTORE PUSH1 0x20 PUSH0 KECCAK256 SWAP1 JUMPDEST DUP2 SLOAD DUP2 MSTORE PUSH1 0x20 ADD SWAP1 PUSH1 0x1 ADD SWAP1 DUP1 DUP4 GT PUSH2 0x229D JUMPI JUMPDEST POP POP POP POP POP SWAP1 POP SWAP2 SWAP1 POP JUMP JUMPDEST PUSH1 0x6 PUSH0 SWAP1 SLOAD SWAP1 PUSH2 0x100 EXP SWAP1 DIV PUSH1 0xFF AND ISZERO DUP1 PUSH2 0x22DC JUMPI POP PUSH2 0x22DB PUSH2 0x244B JUMP JUMPDEST JUMPDEST PUSH2 0x231B JUMPI PUSH1 0x40 MLOAD PUSH32 0x8C379A000000000000000000000000000000000000000000000000000000000 DUP2 MSTORE PUSH1 0x4 ADD PUSH2 0x2312 SWAP1 PUSH2 0x4164 JUMP JUMPDEST PUSH1 0x40 MLOAD DUP1 SWAP2 SUB SWAP1 REVERT JUMPDEST PUSH1 0x1 PUSH1 0x6 PUSH0 PUSH2 0x100 EXP DUP2 SLOAD DUP2 PUSH1 0xFF MUL NOT AND SWAP1 DUP4 ISZERO ISZERO MUL OR SWAP1 SSTORE POP PUSH1 0x1 PUSH1 0x6 PUSH1 0x1 PUSH2 0x100 EXP DUP2 SLOAD DUP2 PUSH1 0xFF MUL NOT AND SWAP1 DUP4 ISZERO ISZERO MUL OR SWAP1 SSTORE POP PUSH0 DUP2 PUSH1 0x40 MLOAD PUSH1 0x20 ADD PUSH2 0x2362 SWAP2 SWAP1 PUSH2 0x2F5F JUMP JUMPDEST PUSH1 0x40 MLOAD PUSH1 0x20 DUP2 DUP4 SUB SUB DUP2 MSTORE SWAP1 PUSH1 0x40 MSTORE DUP1 MLOAD SWAP1 PUSH1 0x20 ADD KECCAK256 SWAP1 POP DUP1 PUSH1 0x1 PUSH0 DUP4 DUP2 MSTORE PUSH1 0x20 ADD SWAP1 DUP2 MSTORE PUSH1 0x20 ADD PUSH0 KECCAK256 PUSH1 0x2 ADD DUP2 SWAP1 SSTORE POP PUSH1 0x40 MLOAD DUP1 PUSH1 0x20 ADD PUSH1 0x40 MSTORE DUP1 PUSH1 0x1 PUSH1 0xFF AND DUP2 MSTORE POP PUSH1 0x1 PUSH0 DUP4 DUP2 MSTORE PUSH1 0x20 ADD SWAP1 DUP2 MSTORE PUSH1 0x20 ADD PUSH0 KECCAK256 PUSH0 ADD SWAP1 PUSH1 0x1 PUSH2 0x23C7 SWAP3 SWAP2 SWAP1 PUSH2 0x258D JUMP JUMPDEST POP PUSH1 0x1 DUP1 PUSH0 DUP4 DUP2 MSTORE PUSH1 0x20 ADD SWAP1 DUP2 MSTORE PUSH1 0x20 ADD PUSH0 KECCAK256 PUSH1 0x1 ADD DUP2 SWAP1 SSTORE POP PUSH1 0x2 PUSH0 PUSH1 0x1 DUP2 MSTORE PUSH1 0x20 ADD SWAP1 DUP2 MSTORE PUSH1 0x20 ADD PUSH0 KECCAK256 DUP2 SWAP1 DUP1 PUSH1 0x1 DUP2 SLOAD ADD DUP1 DUP3 SSTORE DUP1 SWAP2 POP POP PUSH1 0x1 SWAP1 SUB SWAP1 PUSH0 MSTORE PUSH1 0x20 PUSH0 KECCAK256 ADD PUSH0 SWAP1 SWAP2 SWAP1 SWAP2 SWAP1 SWAP2 POP SSTORE PUSH1 0x1 DUP1 DUP3 PUSH32 0x480000BB1EDAD8CA1470381CC334B1917FBD51C6531F3A623EA8E0EC7E38A6E9 PUSH1 0x40 MLOAD PUSH1 0x40 MLOAD DUP1 SWAP2 SUB SWAP1 LOG4 POP POP JUMP JUMPDEST PUSH0 DUP1 ADDRESS SWAP1 POP PUSH0 DUP2 EXTCODESIZE SWAP1 POP PUSH0 DUP2 EQ SWAP3 POP POP POP SWAP1 JUMP JUMPDEST DUP3 DUP1 SLOAD DUP3 DUP3 SSTORE SWAP1 PUSH0 MSTORE PUSH1 0x20 PUSH0 KECCAK256 SWAP1 DUP2 ADD SWAP3 DUP3 ISZERO PUSH2 0x2499 JUMPI SWAP2 PUSH1 0x20 MUL DUP3 ADD JUMPDEST DUP3 DUP2 GT ISZERO PUSH2 0x2498 JUMPI DUP3 MLOAD DUP3 SSTORE SWAP2 PUSH1 0x20 ADD SWAP2 SWAP1 PUSH1 0x1 ADD SWAP1 PUSH2 0x247D JUMP JUMPDEST JUMPDEST POP SWAP1 POP PUSH2 0x24A6 SWAP2 SWAP1 PUSH2 0x25DD JUMP JUMPDEST POP SWAP1 JUMP JUMPDEST POP DUP1 SLOAD PUSH2 0x24B6 SWAP1 PUSH2 0x347D JUMP JUMPDEST PUSH0 DUP3 SSTORE DUP1 PUSH1 0x1F LT PUSH2 0x24C7 JUMPI POP PUSH2 0x24E4 JUMP JUMPDEST PUSH1 0x1F ADD PUSH1 0x20 SWAP1 DIV SWAP1 PUSH0 MSTORE PUSH1 0x20 PUSH0 KECCAK256 SWAP1 DUP2 ADD SWAP1 PUSH2 0x24E3 SWAP2 SWAP1 PUSH2 0x25DD JUMP JUMPDEST JUMPDEST POP JUMP JUMPDEST POP DUP1 SLOAD PUSH2 0x24F3 SWAP1 PUSH2 0x347D JUMP JUMPDEST PUSH0 DUP3 SSTORE DUP1 PUSH1 0x1F LT PUSH2 0x2504 JUMPI POP PUSH2 0x2521 JUMP JUMPDEST PUSH1 0x1F ADD PUSH1 0x20 SWAP1 DIV SWAP1 PUSH0 MSTORE PUSH1 0x20 PUSH0 KECCAK256 SWAP1 DUP2 ADD SWAP1 PUSH2 0x2520 SWAP2 SWAP1 PUSH2 0x25DD JUMP JUMPDEST JUMPDEST POP JUMP JUMPDEST DUP3 DUP1 SLOAD DUP3 DUP3 SSTORE SWAP1 PUSH0 MSTORE PUSH1 0x20 PUSH0 KECCAK256 SWAP1 DUP2 ADD SWAP3 DUP3 ISZERO PUSH2 0x255E JUMPI SWAP2 PUSH1 0x20 MUL DUP3 ADD JUMPDEST DUP3 DUP2 GT ISZERO PUSH2 0x255D JUMPI DUP3 MLOAD DUP3 SSTORE SWAP2 PUSH1 0x20 ADD SWAP2 SWAP1 PUSH1 0x1 ADD SWAP1 PUSH2 0x2542 JUMP JUMPDEST JUMPDEST POP SWAP1 POP PUSH2 0x256B SWAP2 SWAP1 PUSH2 0x25DD JUMP JUMPDEST POP SWAP1 JUMP JUMPDEST POP DUP1 SLOAD PUSH0 DUP3 SSTORE SWAP1 PUSH0 MSTORE PUSH1 0x20 PUSH0 KECCAK256 SWAP1 DUP2 ADD SWAP1 PUSH2 0x258A SWAP2 SWAP1 PUSH2 0x25DD JUMP JUMPDEST POP JUMP JUMPDEST DUP3 DUP1 SLOAD DUP3 DUP3 SSTORE SWAP1 PUSH0 MSTORE PUSH1 0x20 PUSH0 KECCAK256 SWAP1 DUP2 ADD SWAP3 DUP3 ISZERO PUSH2 0x25CC JUMPI SWAP2 PUSH1 0x20 MUL DUP3 ADD JUMPDEST DUP3 DUP2 GT ISZERO PUSH2 0x25CB JUMPI DUP3 MLOAD DUP3 SWAP1 PUSH1 0xFF AND SWAP1 SSTORE SWAP2 PUSH1 0x20 ADD SWAP2 SWAP1 PUSH1 0x1 ADD SWAP1 PUSH2 0x25AB JUMP JUMPDEST JUMPDEST POP SWAP1 POP PUSH2 0x25D9 SWAP2 SWAP1 PUSH2 0x25DD JUMP JUMPDEST POP SWAP1 JUMP JUMPDEST JUMPDEST DUP1 DUP3 GT ISZERO PUSH2 0x25F4 JUMPI PUSH0 DUP2 PUSH0 SWAP1 SSTORE POP PUSH1 0x1 ADD PUSH2 0x25DE JUMP JUMPDEST POP SWAP1 JUMP JUMPDEST PUSH0 PUSH1 0x40 MLOAD SWAP1 POP SWAP1 JUMP JUMPDEST PUSH0 DUP1 REVERT JUMPDEST PUSH0 DUP1 REVERT JUMPDEST PUSH0 DUP2 SWAP1 POP SWAP2 SWAP1 POP JUMP JUMPDEST PUSH2 0x261B DUP2 PUSH2 0x2609 JUMP JUMPDEST DUP2 EQ PUSH2 0x2625 JUMPI PUSH0 DUP1 REVERT JUMPDEST POP JUMP JUMPDEST PUSH0 DUP2 CALLDATALOAD SWAP1 POP PUSH2 0x2636 DUP2 PUSH2 0x2612 JUMP JUMPDEST SWAP3 SWAP2 POP POP JUMP JUMPDEST PUSH0 PUSH1 0x20 DUP3 DUP5 SUB SLT ISZERO PUSH2 0x2651 JUMPI PUSH2 0x2650 PUSH2 0x2601 JUMP JUMPDEST JUMPDEST PUSH0 PUSH2 0x265E DUP5 DUP3 DUP6 ADD PUSH2 0x2628 JUMP JUMPDEST SWAP2 POP POP SWAP3 SWAP2 POP POP JUMP JUMPDEST PUSH0 DUP2 MLOAD SWAP1 POP SWAP2 SWAP1 POP JUMP JUMPDEST PUSH0 DUP3 DUP3 MSTORE PUSH1 0x20 DUP3 ADD SWAP1 POP SWAP3 SWAP2 POP POP JUMP JUMPDEST PUSH0 DUP2 SWAP1 POP PUSH1 0x20 DUP3 ADD SWAP1 POP SWAP2 SWAP1 POP JUMP JUMPDEST PUSH0 DUP2 SWAP1 POP SWAP2 SWAP1 POP JUMP JUMPDEST PUSH2 0x26A2 DUP2 PUSH2 0x2690 JUMP JUMPDEST DUP3 MSTORE POP POP JUMP JUMPDEST PUSH0 PUSH2 0x26B3 DUP4 DUP4 PUSH2 0x2699 JUMP JUMPDEST PUSH1 0x20 DUP4 ADD SWAP1 POP SWAP3 SWAP2 POP POP JUMP JUMPDEST PUSH0 PUSH1 0x20 DUP3 ADD SWAP1 POP SWAP2 SWAP1 POP JUMP JUMPDEST PUSH0 PUSH2 0x26D5 DUP3 PUSH2 0x2667 JUMP JUMPDEST PUSH2 0x26DF DUP2 DUP6 PUSH2 0x2671 JUMP JUMPDEST SWAP4 POP PUSH2 0x26EA DUP4 PUSH2 0x2681 JUMP JUMPDEST DUP1 PUSH0 JUMPDEST DUP4 DUP2 LT ISZERO PUSH2 0x271A JUMPI DUP2 MLOAD PUSH2 0x2701 DUP9 DUP3 PUSH2 0x26A8 JUMP JUMPDEST SWAP8 POP PUSH2 0x270C DUP4 PUSH2 0x26BF JUMP JUMPDEST SWAP3 POP POP PUSH1 0x1 DUP2 ADD SWAP1 POP PUSH2 0x26ED JUMP JUMPDEST POP DUP6 SWAP4 POP POP POP POP SWAP3 SWAP2 POP POP JUMP JUMPDEST PUSH2 0x2730 DUP2 PUSH2 0x2690 JUMP JUMPDEST DUP3 MSTORE POP POP JUMP JUMPDEST PUSH2 0x273F DUP2 PUSH2 0x2609 JUMP JUMPDEST DUP3 MSTORE POP POP JUMP JUMPDEST PUSH0 PUSH1 0x60 DUP3 ADD SWAP1 POP DUP2 DUP2 SUB PUSH0 DUP4 ADD MSTORE PUSH2 0x275D DUP2 DUP7 PUSH2 0x26CB JUMP JUMPDEST SWAP1 POP PUSH2 0x276C PUSH1 0x20 DUP4 ADD DUP6 PUSH2 0x2727 JUMP JUMPDEST PUSH2 0x2779 PUSH1 0x40 DUP4 ADD DUP5 PUSH2 0x2736 JUMP JUMPDEST SWAP5 SWAP4 POP POP POP POP JUMP JUMPDEST PUSH2 0x278A DUP2 PUSH2 0x2690 JUMP JUMPDEST DUP2 EQ PUSH2 0x2794 JUMPI PUSH0 DUP1 REVERT JUMPDEST POP JUMP JUMPDEST PUSH0 DUP2 CALLDATALOAD SWAP1 POP PUSH2 0x27A5 DUP2 PUSH2 0x2781 JUMP JUMPDEST SWAP3 SWAP2 POP POP JUMP JUMPDEST PUSH0 DUP1 PUSH0 PUSH1 0x60 DUP5 DUP7 SUB SLT ISZERO PUSH2 0x27C2 JUMPI PUSH2 0x27C1 PUSH2 0x2601 JUMP JUMPDEST JUMPDEST PUSH0 PUSH2 0x27CF DUP7 DUP3 DUP8 ADD PUSH2 0x2628 JUMP JUMPDEST SWAP4 POP POP PUSH1 0x20 PUSH2 0x27E0 DUP7 DUP3 DUP8 ADD PUSH2 0x2797 JUMP JUMPDEST SWAP3 POP POP PUSH1 0x40 PUSH2 0x27F1 DUP7 DUP3 DUP8 ADD PUSH2 0x2797 JUMP JUMPDEST SWAP2 POP POP SWAP3 POP SWAP3 POP SWAP3 JUMP JUMPDEST PUSH0 DUP2 ISZERO ISZERO SWAP1 POP SWAP2 SWAP1 POP JUMP JUMPDEST PUSH2 0x280F DUP2 PUSH2 0x27FB JUMP JUMPDEST DUP3 MSTORE POP POP JUMP JUMPDEST PUSH0 PUSH1 0x20 DUP3 ADD SWAP1 POP PUSH2 0x2828 PUSH0 DUP4 ADD DUP5 PUSH2 0x2806 JUMP JUMPDEST SWAP3 SWAP2 POP POP JUMP JUMPDEST PUSH0 DUP1 PUSH1 0x40 DUP4 DUP6 SUB SLT ISZERO PUSH2 0x2844 JUMPI PUSH2 0x2843 PUSH2 0x2601 JUMP JUMPDEST JUMPDEST PUSH0 PUSH2 0x2851 DUP6 DUP3 DUP7 ADD PUSH2 0x2628 JUMP JUMPDEST SWAP3 POP POP PUSH1 0x20 PUSH2 0x2862 DUP6 DUP3 DUP7 ADD PUSH2 0x2797 JUMP JUMPDEST SWAP2 POP POP SWAP3 POP SWAP3 SWAP1 POP JUMP JUMPDEST PUSH0 DUP2 MLOAD SWAP1 POP SWAP2 SWAP1 POP JUMP JUMPDEST PUSH0 DUP3 DUP3 MSTORE PUSH1 0x20 DUP3 ADD SWAP1 POP SWAP3 SWAP2 POP POP JUMP JUMPDEST PUSH0 JUMPDEST DUP4 DUP2 LT ISZERO PUSH2 0x28A3 JUMPI DUP1 DUP3 ADD MLOAD DUP2 DUP5 ADD MSTORE PUSH1 0x20 DUP2 ADD SWAP1 POP PUSH2 0x2888 JUMP JUMPDEST PUSH0 DUP5 DUP5 ADD MSTORE POP POP POP POP JUMP JUMPDEST PUSH0 PUSH1 0x1F NOT PUSH1 0x1F DUP4 ADD AND SWAP1 POP SWAP2 SWAP1 POP JUMP JUMPDEST PUSH0 PUSH2 0x28C8 DUP3 PUSH2 0x286C JUMP JUMPDEST PUSH2 0x28D2 DUP2 DUP6 PUSH2 0x2876 JUMP JUMPDEST SWAP4 POP PUSH2 0x28E2 DUP2 DUP6 PUSH1 0x20 DUP7 ADD PUSH2 0x2886 JUMP JUMPDEST PUSH2 0x28EB DUP2 PUSH2 0x28AE JUMP JUMPDEST DUP5 ADD SWAP2 POP POP SWAP3 SWAP2 POP POP JUMP JUMPDEST PUSH0 PUSH1 0x20 DUP3 ADD SWAP1 POP DUP2 DUP2 SUB PUSH0 DUP4 ADD MSTORE PUSH2 0x290E DUP2 DUP5 PUSH2 0x28BE JUMP JUMPDEST SWAP1 POP SWAP3 SWAP2 POP POP JUMP JUMPDEST PUSH2 0x291F DUP2 PUSH2 0x27FB JUMP JUMPDEST DUP2 EQ PUSH2 0x2929 JUMPI PUSH0 DUP1 REVERT JUMPDEST POP JUMP JUMPDEST PUSH0 DUP2 CALLDATALOAD SWAP1 POP PUSH2 0x293A DUP2 PUSH2 0x2916 JUMP JUMPDEST SWAP3 SWAP2 POP POP JUMP JUMPDEST PUSH0 DUP1 PUSH1 0x40 DUP4 DUP6 SUB SLT ISZERO PUSH2 0x2956 JUMPI PUSH2 0x2955 PUSH2 0x2601 JUMP JUMPDEST JUMPDEST PUSH0 PUSH2 0x2963 DUP6 DUP3 DUP7 ADD PUSH2 0x2797 JUMP JUMPDEST SWAP3 POP POP PUSH1 0x20 PUSH2 0x2974 DUP6 DUP3 DUP7 ADD PUSH2 0x292C JUMP JUMPDEST SWAP2 POP POP SWAP3 POP SWAP3 SWAP1 POP JUMP JUMPDEST PUSH0 PUSH1 0x20 DUP3 DUP5 SUB SLT ISZERO PUSH2 0x2993 JUMPI PUSH2 0x2992 PUSH2 0x2601 JUMP JUMPDEST JUMPDEST PUSH0 PUSH2 0x29A0 DUP5 DUP3 DUP6 ADD PUSH2 0x2797 JUMP JUMPDEST SWAP2 POP POP SWAP3 SWAP2 POP POP JUMP JUMPDEST PUSH0 DUP2 MLOAD SWAP1 POP SWAP2 SWAP1 POP JUMP JUMPDEST PUSH0 DUP3 DUP3 MSTORE PUSH1 0x20 DUP3 ADD SWAP1 POP SWAP3 SWAP2 POP POP JUMP JUMPDEST PUSH0 DUP2 SWAP1 POP PUSH1 0x20 DUP3 ADD SWAP1 POP SWAP2 SWAP1 POP JUMP JUMPDEST PUSH2 0x29DB DUP2 PUSH2 0x2609 JUMP JUMPDEST DUP3 MSTORE POP POP JUMP JUMPDEST PUSH0 PUSH2 0x29EC DUP4 DUP4 PUSH2 0x29D2 JUMP JUMPDEST PUSH1 0x20 DUP4 ADD SWAP1 POP SWAP3 SWAP2 POP POP JUMP JUMPDEST PUSH0 PUSH1 0x20 DUP3 ADD SWAP1 POP SWAP2 SWAP1 POP JUMP JUMPDEST PUSH0 PUSH2 0x2A0E DUP3 PUSH2 0x29A9 JUMP JUMPDEST PUSH2 0x2A18 DUP2 DUP6 PUSH2 0x29B3 JUMP JUMPDEST SWAP4 POP PUSH2 0x2A23 DUP4 PUSH2 0x29C3 JUMP JUMPDEST DUP1 PUSH0 JUMPDEST DUP4 DUP2 LT ISZERO PUSH2 0x2A53 JUMPI DUP2 MLOAD PUSH2 0x2A3A DUP9 DUP3 PUSH2 0x29E1 JUMP JUMPDEST SWAP8 POP PUSH2 0x2A45 DUP4 PUSH2 0x29F8 JUMP JUMPDEST SWAP3 POP POP PUSH1 0x1 DUP2 ADD SWAP1 POP PUSH2 0x2A26 JUMP JUMPDEST POP DUP6 SWAP4 POP POP POP POP SWAP3 SWAP2 POP POP JUMP JUMPDEST PUSH0 PUSH1 0x20 DUP3 ADD SWAP1 POP DUP2 DUP2 SUB PUSH0 DUP4 ADD MSTORE PUSH2 0x2A78 DUP2 DUP5 PUSH2 0x2A04 JUMP JUMPDEST SWAP1 POP SWAP3 SWAP2 POP POP JUMP JUMPDEST PUSH0 PUSH20 0xFFFFFFFFFFFFFFFFFFFFFFFFFFFFFFFFFFFFFFFF DUP3 AND SWAP1 POP SWAP2 SWAP1 POP JUMP JUMPDEST PUSH0 PUSH2 0x2AA9 DUP3 PUSH2 0x2A80 JUMP JUMPDEST SWAP1 POP SWAP2 SWAP1 POP JUMP JUMPDEST PUSH2 0x2AB9 DUP2 PUSH2 0x2A9F JUMP JUMPDEST DUP2 EQ PUSH2 0x2AC3 JUMPI PUSH0 DUP1 REVERT JUMPDEST POP JUMP JUMPDEST PUSH0 DUP2 CALLDATALOAD SWAP1 POP PUSH2 0x2AD4 DUP2 PUSH2 0x2AB0 JUMP JUMPDEST SWAP3 SWAP2 POP POP JUMP JUMPDEST PUSH0 DUP1 REVERT JUMPDEST PUSH0 DUP1 REVERT JUMPDEST PUSH32 0x4E487B7100000000000000000000000000000000000000000000000000000000 PUSH0 MSTORE PUSH1 0x41 PUSH1 0x4 MSTORE PUSH1 0x24 PUSH0 REVERT JUMPDEST PUSH2 0x2B18 DUP3 PUSH2 0x28AE JUMP JUMPDEST DUP2 ADD DUP2 DUP2 LT PUSH8 0xFFFFFFFFFFFFFFFF DUP3 GT OR ISZERO PUSH2 0x2B37 JUMPI PUSH2 0x2B36 PUSH2 0x2AE2 JUMP JUMPDEST JUMPDEST DUP1 PUSH1 0x40 MSTORE POP POP POP JUMP JUMPDEST PUSH0 PUSH2 0x2B49 PUSH2 0x25F8 JUMP JUMPDEST SWAP1 POP PUSH2 0x2B55 DUP3 DUP3 PUSH2 0x2B0F JUMP JUMPDEST SWAP2 SWAP1 POP JUMP JUMPDEST PUSH0 PUSH8 0xFFFFFFFFFFFFFFFF DUP3 GT ISZERO PUSH2 0x2B74 JUMPI PUSH2 0x2B73 PUSH2 0x2AE2 JUMP JUMPDEST JUMPDEST PUSH2 0x2B7D DUP3 PUSH2 0x28AE JUMP JUMPDEST SWAP1 POP PUSH1 0x20 DUP2 ADD SWAP1 POP SWAP2 SWAP1 POP JUMP JUMPDEST DUP3 DUP2 DUP4 CALLDATACOPY PUSH0 DUP4 DUP4 ADD MSTORE POP POP POP JUMP JUMPDEST PUSH0 PUSH2 0x2BAA PUSH2 0x2BA5 DUP5 PUSH2 0x2B5A JUMP JUMPDEST PUSH2 0x2B40 JUMP JUMPDEST SWAP1 POP DUP3 DUP2 MSTORE PUSH1 0x20 DUP2 ADD DUP5 DUP5 DUP5 ADD GT ISZERO PUSH2 0x2BC6 JUMPI PUSH2 0x2BC5 PUSH2 0x2ADE JUMP JUMPDEST JUMPDEST PUSH2 0x2BD1 DUP5 DUP3 DUP6 PUSH2 0x2B8A JUMP JUMPDEST POP SWAP4 SWAP3 POP POP POP JUMP JUMPDEST PUSH0 DUP3 PUSH1 0x1F DUP4 ADD SLT PUSH2 0x2BED JUMPI PUSH2 0x2BEC PUSH2 0x2ADA JUMP JUMPDEST JUMPDEST DUP2 CALLDATALOAD PUSH2 0x2BFD DUP5 DUP3 PUSH1 0x20 DUP7 ADD PUSH2 0x2B98 JUMP JUMPDEST SWAP2 POP POP SWAP3 SWAP2 POP POP JUMP JUMPDEST PUSH0 PUSH8 0xFFFFFFFFFFFFFFFF DUP3 GT ISZERO PUSH2 0x2C20 JUMPI PUSH2 0x2C1F PUSH2 0x2AE2 JUMP JUMPDEST JUMPDEST PUSH2 0x2C29 DUP3 PUSH2 0x28AE JUMP JUMPDEST SWAP1 POP PUSH1 0x20 DUP2 ADD SWAP1 POP SWAP2 SWAP1 POP JUMP JUMPDEST PUSH0 PUSH2 0x2C48 PUSH2 0x2C43 DUP5 PUSH2 0x2C06 JUMP JUMPDEST PUSH2 0x2B40 JUMP JUMPDEST SWAP1 POP DUP3 DUP2 MSTORE PUSH1 0x20 DUP2 ADD DUP5 DUP5 DUP5 ADD GT ISZERO PUSH2 0x2C64 JUMPI PUSH2 0x2C63 PUSH2 0x2ADE JUMP JUMPDEST JUMPDEST PUSH2 0x2C6F DUP5 DUP3 DUP6 PUSH2 0x2B8A JUMP JUMPDEST POP SWAP4 SWAP3 POP POP POP JUMP JUMPDEST PUSH0 DUP3 PUSH1 0x1F DUP4 ADD SLT PUSH2 0x2C8B JUMPI PUSH2 0x2C8A PUSH2 0x2ADA JUMP JUMPDEST JUMPDEST DUP2 CALLDATALOAD PUSH2 0x2C9B DUP5 DUP3 PUSH1 0x20 DUP7 ADD PUSH2 0x2C36 JUMP JUMPDEST SWAP2 POP POP SWAP3 SWAP2 POP POP JUMP JUMPDEST PUSH0 DUP1 PUSH0 DUP1 PUSH0 DUP1 PUSH1 0xC0 DUP8 DUP10 SUB SLT ISZERO PUSH2 0x2CBE JUMPI PUSH2 0x2CBD PUSH2 0x2601 JUMP JUMPDEST JUMPDEST PUSH0 PUSH2 0x2CCB DUP10 DUP3 DUP11 ADD PUSH2 0x2797 JUMP JUMPDEST SWAP7 POP POP PUSH1 0x20 PUSH2 0x2CDC DUP10 DUP3 DUP11 ADD PUSH2 0x2797 JUMP JUMPDEST SWAP6 POP POP PUSH1 0x40 PUSH2 0x2CED DUP10 DUP3 DUP11 ADD PUSH2 0x2AC6 JUMP JUMPDEST SWAP5 POP POP PUSH1 0x60 DUP8 ADD CALLDATALOAD PUSH8 0xFFFFFFFFFFFFFFFF DUP2 GT ISZERO PUSH2 0x2D0E JUMPI PUSH2 0x2D0D PUSH2 0x2605 JUMP JUMPDEST JUMPDEST PUSH2 0x2D1A DUP10 DUP3 DUP11 ADD PUSH2 0x2BD9 JUMP JUMPDEST SWAP4 POP POP PUSH1 0x80 DUP8 ADD CALLDATALOAD PUSH8 0xFFFFFFFFFFFFFFFF DUP2 GT ISZERO PUSH2 0x2D3B JUMPI PUSH2 0x2D3A PUSH2 0x2605 JUMP JUMPDEST JUMPDEST PUSH2 0x2D47 DUP10 DUP3 DUP11 ADD PUSH2 0x2BD9 JUMP JUMPDEST SWAP3 POP POP PUSH1 0xA0 DUP8 ADD CALLDATALOAD PUSH8 0xFFFFFFFFFFFFFFFF DUP2 GT ISZERO PUSH2 0x2D68 JUMPI PUSH2 0x2D67 PUSH2 0x2605 JUMP JUMPDEST JUMPDEST PUSH2 0x2D74 DUP10 DUP3 DUP11 ADD PUSH2 0x2C77 JUMP JUMPDEST SWAP2 POP POP SWAP3 SWAP6 POP SWAP3 SWAP6 POP SWAP3 SWAP6 JUMP JUMPDEST PUSH0 PUSH1 0x20 DUP3 ADD SWAP1 POP PUSH2 0x2D94 PUSH0 DUP4 ADD DUP5 PUSH2 0x2736 JUMP JUMPDEST SWAP3 SWAP2 POP POP JUMP JUMPDEST PUSH0 DUP1 PUSH0 PUSH1 0x60 DUP5 DUP7 SUB SLT ISZERO PUSH2 0x2DB1 JUMPI PUSH2 0x2DB0 PUSH2 0x2601 JUMP JUMPDEST JUMPDEST PUSH0 PUSH2 0x2DBE DUP7 DUP3 DUP8 ADD PUSH2 0x2AC6 JUMP JUMPDEST SWAP4 POP POP PUSH1 0x20 PUSH2 0x2DCF DUP7 DUP3 DUP8 ADD PUSH2 0x2797 JUMP JUMPDEST SWAP3 POP POP PUSH1 0x40 DUP5 ADD CALLDATALOAD PUSH8 0xFFFFFFFFFFFFFFFF DUP2 GT ISZERO PUSH2 0x2DF0 JUMPI PUSH2 0x2DEF PUSH2 0x2605 JUMP JUMPDEST JUMPDEST PUSH2 0x2DFC DUP7 DUP3 DUP8 ADD PUSH2 0x2BD9 JUMP JUMPDEST SWAP2 POP POP SWAP3 POP SWAP3 POP SWAP3 JUMP JUMPDEST PUSH0 PUSH1 0x20 DUP3 ADD SWAP1 POP PUSH2 0x2E19 PUSH0 DUP4 ADD DUP5 PUSH2 0x2727 JUMP JUMPDEST SWAP3 SWAP2 POP POP JUMP JUMPDEST PUSH0 PUSH2 0x2E29 DUP3 PUSH2 0x2A9F JUMP JUMPDEST SWAP1 POP SWAP2 SWAP1 POP JUMP JUMPDEST PUSH2 0x2E39 DUP2 PUSH2 0x2E1F JUMP JUMPDEST DUP2 EQ PUSH2 0x2E43 JUMPI PUSH0 DUP1 REVERT JUMPDEST POP JUMP JUMPDEST PUSH0 DUP2 CALLDATALOAD SWAP1 POP PUSH2 0x2E54 DUP2 PUSH2 0x2E30 JUMP JUMPDEST SWAP3 SWAP2 POP POP JUMP JUMPDEST PUSH0 DUP1 PUSH0 DUP1 PUSH1 0x80 DUP6 DUP8 SUB SLT ISZERO PUSH2 0x2E72 JUMPI PUSH2 0x2E71 PUSH2 0x2601 JUMP JUMPDEST JUMPDEST PUSH0 PUSH2 0x2E7F DUP8 DUP3 DUP9 ADD PUSH2 0x2E46 JUMP JUMPDEST SWAP5 POP POP PUSH1 0x20 PUSH2 0x2E90 DUP8 DUP3 DUP9 ADD PUSH2 0x2797 JUMP JUMPDEST SWAP4 POP POP PUSH1 0x40 DUP6 ADD CALLDATALOAD PUSH8 0xFFFFFFFFFFFFFFFF DUP2 GT ISZERO PUSH2 0x2EB1 JUMPI PUSH2 0x2EB0 PUSH2 0x2605 JUMP JUMPDEST JUMPDEST PUSH2 0x2EBD DUP8 DUP3 DUP9 ADD PUSH2 0x2BD9 JUMP JUMPDEST SWAP3 POP POP PUSH1 0x60 DUP6 ADD CALLDATALOAD PUSH8 0xFFFFFFFFFFFFFFFF DUP2 GT ISZERO PUSH2 0x2EDE JUMPI PUSH2 0x2EDD PUSH2 0x2605 JUMP JUMPDEST JUMPDEST PUSH2 0x2EEA DUP8 DUP3 DUP9 ADD PUSH2 0x2BD9 JUMP JUMPDEST SWAP2 POP POP SWAP3 SWAP6 SWAP2 SWAP5 POP SWAP3 POP JUMP JUMPDEST PUSH0 DUP1 PUSH1 0x40 DUP4 DUP6 SUB SLT ISZERO PUSH2 0x2F0C JUMPI PUSH2 0x2F0B PUSH2 0x2601 JUMP JUMPDEST JUMPDEST PUSH0 DUP4 ADD CALLDATALOAD PUSH8 0xFFFFFFFFFFFFFFFF DUP2 GT ISZERO PUSH2 0x2F29 JUMPI PUSH2 0x2F28 PUSH2 0x2605 JUMP JUMPDEST JUMPDEST PUSH2 0x2F35 DUP6 DUP3 DUP7 ADD PUSH2 0x2BD9 JUMP JUMPDEST SWAP3 POP POP PUSH1 0x20 PUSH2 0x2F46 DUP6 DUP3 DUP7 ADD PUSH2 0x2628 JUMP JUMPDEST SWAP2 POP POP SWAP3 POP SWAP3 SWAP1 POP JUMP JUMPDEST PUSH2 0x2F59 DUP2 PUSH2 0x2A9F JUMP JUMPDEST DUP3 MSTORE POP POP JUMP JUMPDEST PUSH0 PUSH1 0x20 DUP3 ADD SWAP1 POP PUSH2 0x2F72 PUSH0 DUP4 ADD DUP5 PUSH2 0x2F50 JUMP JUMPDEST SWAP3 SWAP2 POP POP JUMP JUMPDEST PUSH0 PUSH1 0x20 DUP3 DUP5 SUB SLT ISZERO PUSH2 0x2F8D JUMPI PUSH2 0x2F8C PUSH2 0x2601 JUMP JUMPDEST JUMPDEST PUSH0 PUSH2 0x2F9A DUP5 DUP3 DUP6 ADD PUSH2 0x2AC6 JUMP JUMPDEST SWAP2 POP POP SWAP3 SWAP2 POP POP JUMP JUMPDEST PUSH0 DUP2 MLOAD SWAP1 POP SWAP2 SWAP1 POP JUMP JUMPDEST PUSH0 DUP3 DUP3 MSTORE PUSH1 0x20 DUP3 ADD SWAP1 POP SWAP3 SWAP2 POP POP JUMP JUMPDEST PUSH0 PUSH2 0x2FC7 DUP3 PUSH2 0x2FA3 JUMP JUMPDEST PUSH2 0x2FD1 DUP2 DUP6 PUSH2 0x2FAD JUMP JUMPDEST SWAP4 POP PUSH2 0x2FE1 DUP2 DUP6 PUSH1 0x20 DUP7 ADD PUSH2 0x2886 JUMP JUMPDEST PUSH2 0x2FEA DUP2 PUSH2 0x28AE JUMP JUMPDEST DUP5 ADD SWAP2 POP POP SWAP3 SWAP2 POP POP JUMP JUMPDEST PUSH0 PUSH1 0xC0 DUP3 ADD SWAP1 POP PUSH2 0x3008 PUSH0 DUP4 ADD DUP10 PUSH2 0x2727 JUMP JUMPDEST PUSH2 0x3015 PUSH1 0x20 DUP4 ADD DUP9 PUSH2 0x2727 JUMP JUMPDEST PUSH2 0x3022 PUSH1 0x40 DUP4 ADD DUP8 PUSH2 0x2F50 JUMP JUMPDEST DUP2 DUP2 SUB PUSH1 0x60 DUP4 ADD MSTORE PUSH2 0x3034 DUP2 DUP7 PUSH2 0x2FBD JUMP JUMPDEST SWAP1 POP DUP2 DUP2 SUB PUSH1 0x80 DUP4 ADD MSTORE PUSH2 0x3048 DUP2 DUP6 PUSH2 0x2FBD JUMP JUMPDEST SWAP1 POP DUP2 DUP2 SUB PUSH1 0xA0 DUP4 ADD MSTORE PUSH2 0x305C DUP2 DUP5 PUSH2 0x28BE JUMP JUMPDEST SWAP1 POP SWAP8 SWAP7 POP POP POP POP POP POP POP JUMP JUMPDEST PUSH0 PUSH1 0x20 DUP3 ADD SWAP1 POP DUP2 DUP2 SUB PUSH0 DUP4 ADD MSTORE PUSH2 0x3081 DUP2 DUP5 PUSH2 0x26CB JUMP JUMPDEST SWAP1 POP SWAP3 SWAP2 POP POP JUMP JUMPDEST PUSH32 0x496E746572616374696E67207769746820746865206C69627261727920636F6E PUSH0 DUP3 ADD MSTORE PUSH32 0x747261637420697320666F7262696464656E2E00000000000000000000000000 PUSH1 0x20 DUP3 ADD MSTORE POP JUMP JUMPDEST PUSH0 PUSH2 0x30E3 PUSH1 0x33 DUP4 PUSH2 0x2876 JUMP JUMPDEST SWAP2 POP PUSH2 0x30EE DUP3 PUSH2 0x3089 JUMP JUMPDEST PUSH1 0x40 DUP3 ADD SWAP1 POP SWAP2 SWAP1 POP JUMP JUMPDEST PUSH0 PUSH1 0x20 DUP3 ADD SWAP1 POP DUP2 DUP2 SUB PUSH0 DUP4 ADD MSTORE PUSH2 0x3110 DUP2 PUSH2 0x30D7 JUMP JUMPDEST SWAP1 POP SWAP2 SWAP1 POP JUMP JUMPDEST PUSH32 0x5065726D697373696F6E733A2053656E64657220646F6573206E6F7420686176 PUSH0 DUP3 ADD MSTORE PUSH32 0x65206D616E6167656D656E74206B657900000000000000000000000000000000 PUSH1 0x20 DUP3 ADD MSTORE POP JUMP JUMPDEST PUSH0 PUSH2 0x3171 PUSH1 0x30 DUP4 PUSH2 0x2876 JUMP JUMPDEST SWAP2 POP PUSH2 0x317C DUP3 PUSH2 0x3117 JUMP JUMPDEST PUSH1 0x40 DUP3 ADD SWAP1 POP SWAP2 SWAP1 POP JUMP JUMPDEST PUSH0 PUSH1 0x20 DUP3 ADD SWAP1 POP DUP2 DUP2 SUB PUSH0 DUP4 ADD MSTORE PUSH2 0x319E DUP2 PUSH2 0x3165 JUMP JUMPDEST SWAP1 POP SWAP2 SWAP1 POP JUMP JUMPDEST PUSH32 0x4E487B7100000000000000000000000000000000000000000000000000000000 PUSH0 MSTORE PUSH1 0x32 PUSH1 0x4 MSTORE PUSH1 0x24 PUSH0 REVERT JUMPDEST PUSH32 0x436F6E666C6963743A204B657920616C72656164792068617320707572706F73 PUSH0 DUP3 ADD MSTORE PUSH32 0x6500000000000000000000000000000000000000000000000000000000000000 PUSH1 0x20 DUP3 ADD MSTORE POP JUMP JUMPDEST PUSH0 PUSH2 0x322C PUSH1 0x21 DUP4 PUSH2 0x2876 JUMP JUMPDEST SWAP2 POP PUSH2 0x3237 DUP3 PUSH2 0x31D2 JUMP JUMPDEST PUSH1 0x40 DUP3 ADD SWAP1 POP SWAP2 SWAP1 POP JUMP JUMPDEST PUSH0 PUSH1 0x20 DUP3 ADD SWAP1 POP DUP2 DUP2 SUB PUSH0 DUP4 ADD MSTORE PUSH2 0x3259 DUP2 PUSH2 0x3220 JUMP JUMPDEST SWAP1 POP SWAP2 SWAP1 POP JUMP JUMPDEST PUSH32 0x4E487B7100000000000000000000000000000000000000000000000000000000 PUSH0 MSTORE PUSH1 0x11 PUSH1 0x4 MSTORE PUSH1 0x24 PUSH0 REVERT JUMPDEST PUSH0 PUSH2 0x3297 DUP3 PUSH2 0x2690 JUMP JUMPDEST SWAP2 POP PUSH32 0xFFFFFFFFFFFFFFFFFFFFFFFFFFFFFFFFFFFFFFFFFFFFFFFFFFFFFFFFFFFFFFFF DUP3 SUB PUSH2 0x32C9 JUMPI PUSH2 0x32C8 PUSH2 0x3260 JUMP JUMPDEST JUMPDEST PUSH1 0x1 DUP3 ADD SWAP1 POP SWAP2 SWAP1 POP JUMP JUMPDEST PUSH32 0x5065726D697373696F6E733A2053656E64657220646F6573206E6F7420686176 PUSH0 DUP3 ADD MSTORE PUSH32 0x6520636C61696D207369676E6572206B65790000000000000000000000000000 PUSH1 0x20 DUP3 ADD MSTORE POP JUMP JUMPDEST PUSH0 PUSH2 0x332E PUSH1 0x32 DUP4 PUSH2 0x2876 JUMP JUMPDEST SWAP2 POP PUSH2 0x3339 DUP3 PUSH2 0x32D4 JUMP JUMPDEST PUSH1 0x40 DUP3 ADD SWAP1 POP SWAP2 SWAP1 POP JUMP JUMPDEST PUSH0 PUSH1 0x20 DUP3 ADD SWAP1 POP DUP2 DUP2 SUB PUSH0 DUP4 ADD MSTORE PUSH2 0x335B DUP2 PUSH2 0x3322 JUMP JUMPDEST SWAP1 POP SWAP2 SWAP1 POP JUMP JUMPDEST PUSH32 0x4E6F6E4578697374696E673A205468657265206973206E6F20636C61696D2077 PUSH0 DUP3 ADD MSTORE PUSH32 0x6974682074686973204944000000000000000000000000000000000000000000 PUSH1 0x20 DUP3 ADD MSTORE POP JUMP JUMPDEST PUSH0 PUSH2 0x33BC PUSH1 0x2B DUP4 PUSH2 0x2876 JUMP JUMPDEST SWAP2 POP PUSH2 0x33C7 DUP3 PUSH2 0x3362 JUMP JUMPDEST PUSH1 0x40 DUP3 ADD SWAP1 POP SWAP2 SWAP1 POP JUMP JUMPDEST PUSH0 PUSH1 0x20 DUP3 ADD SWAP1 POP DUP2 DUP2 SUB PUSH0 DUP4 ADD MSTORE PUSH2 0x33E9 DUP2 PUSH2 0x33B0 JUMP JUMPDEST SWAP1 POP SWAP2 SWAP1 POP JUMP JUMPDEST PUSH0 PUSH2 0x33FA DUP3 PUSH2 0x2690 JUMP JUMPDEST SWAP2 POP PUSH2 0x3405 DUP4 PUSH2 0x2690 JUMP JUMPDEST SWAP3 POP DUP3 DUP3 SUB SWAP1 POP DUP2 DUP2 GT ISZERO PUSH2 0x341D JUMPI PUSH2 0x341C PUSH2 0x3260 JUMP JUMPDEST JUMPDEST SWAP3 SWAP2 POP POP JUMP JUMPDEST PUSH32 0x4E487B7100000000000000000000000000000000000000000000000000000000 PUSH0 MSTORE PUSH1 0x31 PUSH1 0x4 MSTORE PUSH1 0x24 PUSH0 REVERT JUMPDEST PUSH32 0x4E487B7100000000000000000000000000000000000000000000000000000000 PUSH0 MSTORE PUSH1 0x22 PUSH1 0x4 MSTORE PUSH1 0x24 PUSH0 REVERT JUMPDEST PUSH0 PUSH1 0x2 DUP3 DIV SWAP1 POP PUSH1 0x1 DUP3 AND DUP1 PUSH2 0x3494 JUMPI PUSH1 0x7F DUP3 AND SWAP2 POP JUMPDEST PUSH1 0x20 DUP3 LT DUP2 SUB PUSH2 0x34A7 JUMPI PUSH2 0x34A6 PUSH2 0x3450 JUMP JUMPDEST JUMPDEST POP SWAP2 SWAP1 POP JUMP JUMPDEST PUSH0 DUP2 SWAP1 POP DUP2 PUSH0 MSTORE PUSH1 0x20 PUSH0 KECCAK256 SWAP1 POP SWAP2 SWAP1 POP JUMP JUMPDEST PUSH0 DUP2 SLOAD PUSH2 0x34CB DUP2 PUSH2 0x347D JUMP JUMPDEST PUSH2 0x34D5 DUP2 DUP7 PUSH2 0x2FAD JUMP JUMPDEST SWAP5 POP PUSH1 0x1 DUP3 AND PUSH0 DUP2 EQ PUSH2 0x34EF JUMPI PUSH1 0x1 DUP2 EQ PUSH2 0x3505 JUMPI PUSH2 0x3537 JUMP JUMPDEST PUSH1 0xFF NOT DUP4 AND DUP7 MSTORE DUP2 ISZERO ISZERO PUSH1 0x20 MUL DUP7 ADD SWAP4 POP PUSH2 0x3537 JUMP JUMPDEST PUSH2 0x350E DUP6 PUSH2 0x34AD JUMP JUMPDEST PUSH0 JUMPDEST DUP4 DUP2 LT ISZERO PUSH2 0x352F JUMPI DUP2 SLOAD DUP2 DUP10 ADD MSTORE PUSH1 0x1 DUP3 ADD SWAP2 POP PUSH1 0x20 DUP2 ADD SWAP1 POP PUSH2 0x3510 JUMP JUMPDEST DUP1 DUP9 ADD SWAP6 POP POP POP JUMPDEST POP POP POP SWAP3 SWAP2 POP POP JUMP JUMPDEST PUSH0 DUP2 SWAP1 POP DUP2 PUSH0 MSTORE PUSH1 0x20 PUSH0 KECCAK256 SWAP1 POP SWAP2 SWAP1 POP JUMP JUMPDEST PUSH0 DUP2 SLOAD PUSH2 0x355E DUP2 PUSH2 0x347D JUMP JUMPDEST PUSH2 0x3568 DUP2 DUP7 PUSH2 0x2876 JUMP JUMPDEST SWAP5 POP PUSH1 0x1 DUP3 AND PUSH0 DUP2 EQ PUSH2 0x3582 JUMPI PUSH1 0x1 DUP2 EQ PUSH2 0x3598 JUMPI PUSH2 0x35CA JUMP JUMPDEST PUSH1 0xFF NOT DUP4 AND DUP7 MSTORE DUP2 ISZERO ISZERO PUSH1 0x20 MUL DUP7 ADD SWAP4 POP PUSH2 0x35CA JUMP JUMPDEST PUSH2 0x35A1 DUP6 PUSH2 0x3540 JUMP JUMPDEST PUSH0 JUMPDEST DUP4 DUP2 LT ISZERO PUSH2 0x35C2 JUMPI DUP2 SLOAD DUP2 DUP10 ADD MSTORE PUSH1 0x1 DUP3 ADD SWAP2 POP PUSH1 0x20 DUP2 ADD SWAP1 POP PUSH2 0x35A3 JUMP JUMPDEST DUP1 DUP9 ADD SWAP6 POP POP POP JUMPDEST POP POP POP SWAP3 SWAP2 POP POP JUMP JUMPDEST PUSH0 PUSH1 0x80 DUP3 ADD SWAP1 POP PUSH2 0x35E6 PUSH0 DUP4 ADD DUP8 PUSH2 0x2727 JUMP JUMPDEST DUP2 DUP2 SUB PUSH1 0x20 DUP4 ADD MSTORE PUSH2 0x35F8 DUP2 DUP7 PUSH2 0x34BF JUMP JUMPDEST SWAP1 POP DUP2 DUP2 SUB PUSH1 0x40 DUP4 ADD MSTORE PUSH2 0x360C DUP2 DUP6 PUSH2 0x34BF JUMP JUMPDEST SWAP1 POP DUP2 DUP2 SUB PUSH1 0x60 DUP4 ADD MSTORE PUSH2 0x3620 DUP2 DUP5 PUSH2 0x3552 JUMP JUMPDEST SWAP1 POP SWAP6 SWAP5 POP POP POP POP POP JUMP JUMPDEST PUSH32 0x4E6F6E4578697374696E673A204B65792069736E277420726567697374657265 PUSH0 DUP3 ADD MSTORE PUSH32 0x6400000000000000000000000000000000000000000000000000000000000000 PUSH1 0x20 DUP3 ADD MSTORE POP JUMP JUMPDEST PUSH0 PUSH2 0x3685 PUSH1 0x21 DUP4 PUSH2 0x2876 JUMP JUMPDEST SWAP2 POP PUSH2 0x3690 DUP3 PUSH2 0x362B JUMP JUMPDEST PUSH1 0x40 DUP3 ADD SWAP1 POP SWAP2 SWAP1 POP JUMP JUMPDEST PUSH0 PUSH1 0x20 DUP3 ADD SWAP1 POP DUP2 DUP2 SUB PUSH0 DUP4 ADD MSTORE PUSH2 0x36B2 DUP2 PUSH2 0x3679 JUMP JUMPDEST SWAP1 POP SWAP2 SWAP1 POP JUMP JUMPDEST PUSH32 0x4E6F6E4578697374696E673A204B657920646F65736E27742068617665207375 PUSH0 DUP3 ADD MSTORE PUSH32 0x636820707572706F736500000000000000000000000000000000000000000000 PUSH1 0x20 DUP3 ADD MSTORE POP JUMP JUMPDEST PUSH0 PUSH2 0x3713 PUSH1 0x2A DUP4 PUSH2 0x2876 JUMP JUMPDEST SWAP2 POP PUSH2 0x371E DUP3 PUSH2 0x36B9 JUMP JUMPDEST PUSH1 0x40 DUP3 ADD SWAP1 POP SWAP2 SWAP1 POP JUMP JUMPDEST PUSH0 PUSH1 0x20 DUP3 ADD SWAP1 POP DUP2 DUP2 SUB PUSH0 DUP4 ADD MSTORE PUSH2 0x3740 DUP2 PUSH2 0x3707 JUMP JUMPDEST SWAP1 POP SWAP2 SWAP1 POP JUMP JUMPDEST PUSH32 0x43616E6E6F7420617070726F76652061206E6F6E2D6578697374696E67206578 PUSH0 DUP3 ADD MSTORE PUSH32 0x65637574696F6E00000000000000000000000000000000000000000000000000 PUSH1 0x20 DUP3 ADD MSTORE POP JUMP JUMPDEST PUSH0 PUSH2 0x37A1 PUSH1 0x27 DUP4 PUSH2 0x2876 JUMP JUMPDEST SWAP2 POP PUSH2 0x37AC DUP3 PUSH2 0x3747 JUMP JUMPDEST PUSH1 0x40 DUP3 ADD SWAP1 POP SWAP2 SWAP1 POP JUMP JUMPDEST PUSH0 PUSH1 0x20 DUP3 ADD SWAP1 POP DUP2 DUP2 SUB PUSH0 DUP4 ADD MSTORE PUSH2 0x37CE DUP2 PUSH2 0x3795 JUMP JUMPDEST SWAP1 POP SWAP2 SWAP1 POP JUMP JUMPDEST PUSH32 0x5265717565737420616C72656164792065786563757465640000000000000000 PUSH0 DUP3 ADD MSTORE POP JUMP JUMPDEST PUSH0 PUSH2 0x3809 PUSH1 0x18 DUP4 PUSH2 0x2876 JUMP JUMPDEST SWAP2 POP PUSH2 0x3814 DUP3 PUSH2 0x37D5 JUMP JUMPDEST PUSH1 0x20 DUP3 ADD SWAP1 POP SWAP2 SWAP1 POP JUMP JUMPDEST PUSH0 PUSH1 0x20 DUP3 ADD SWAP1 POP DUP2 DUP2 SUB PUSH0 DUP4 ADD MSTORE PUSH2 0x3836 DUP2 PUSH2 0x37FD JUMP JUMPDEST SWAP1 POP SWAP2 SWAP1 POP JUMP JUMPDEST PUSH32 0x53656E64657220646F6573206E6F742068617665206D616E6167656D656E7420 PUSH0 DUP3 ADD MSTORE PUSH32 0x6B65790000000000000000000000000000000000000000000000000000000000 PUSH1 0x20 DUP3 ADD MSTORE POP JUMP JUMPDEST PUSH0 PUSH2 0x3897 PUSH1 0x23 DUP4 PUSH2 0x2876 JUMP JUMPDEST SWAP2 POP PUSH2 0x38A2 DUP3 PUSH2 0x383D JUMP JUMPDEST PUSH1 0x40 DUP3 ADD SWAP1 POP SWAP2 SWAP1 POP JUMP JUMPDEST PUSH0 PUSH1 0x20 DUP3 ADD SWAP1 POP DUP2 DUP2 SUB PUSH0 DUP4 ADD MSTORE PUSH2 0x38C4 DUP2 PUSH2 0x388B JUMP JUMPDEST SWAP1 POP SWAP2 SWAP1 POP JUMP JUMPDEST PUSH32 0x53656E64657220646F6573206E6F74206861766520616374696F6E206B657900 PUSH0 DUP3 ADD MSTORE POP JUMP JUMPDEST PUSH0 PUSH2 0x38FF PUSH1 0x1F DUP4 PUSH2 0x2876 JUMP JUMPDEST SWAP2 POP PUSH2 0x390A DUP3 PUSH2 0x38CB JUMP JUMPDEST PUSH1 0x20 DUP3 ADD SWAP1 POP SWAP2 SWAP1 POP JUMP JUMPDEST PUSH0 PUSH1 0x20 DUP3 ADD SWAP1 POP DUP2 DUP2 SUB PUSH0 DUP4 ADD MSTORE PUSH2 0x392C DUP2 PUSH2 0x38F3 JUMP JUMPDEST SWAP1 POP SWAP2 SWAP1 POP JUMP JUMPDEST PUSH0 DUP2 SWAP1 POP SWAP3 SWAP2 POP POP JUMP JUMPDEST PUSH0 DUP2 SLOAD PUSH2 0x3949 DUP2 PUSH2 0x347D JUMP JUMPDEST PUSH2 0x3953 DUP2 DUP7 PUSH2 0x3933 JUMP JUMPDEST SWAP5 POP PUSH1 0x1 DUP3 AND PUSH0 DUP2 EQ PUSH2 0x396D JUMPI PUSH1 0x1 DUP2 EQ PUSH2 0x3982 JUMPI PUSH2 0x39B4 JUMP JUMPDEST PUSH1 0xFF NOT DUP4 AND DUP7 MSTORE DUP2 ISZERO ISZERO DUP3 MUL DUP7 ADD SWAP4 POP PUSH2 0x39B4 JUMP JUMPDEST PUSH2 0x398B DUP6 PUSH2 0x34AD JUMP JUMPDEST PUSH0 JUMPDEST DUP4 DUP2 LT ISZERO PUSH2 0x39AC JUMPI DUP2 SLOAD DUP2 DUP10 ADD MSTORE PUSH1 0x1 DUP3 ADD SWAP2 POP PUSH1 0x20 DUP2 ADD SWAP1 POP PUSH2 0x398D JUMP JUMPDEST DUP4 DUP9 ADD SWAP6 POP POP POP JUMPDEST POP POP POP SWAP3 SWAP2 POP POP JUMP JUMPDEST PUSH0 PUSH2 0x39C8 DUP3 DUP5 PUSH2 0x393D JUMP JUMPDEST SWAP2 POP DUP2 SWAP1 POP SWAP3 SWAP2 POP POP JUMP JUMPDEST PUSH0 PUSH1 0x20 DUP3 ADD SWAP1 POP DUP2 DUP2 SUB PUSH0 DUP4 ADD MSTORE PUSH2 0x39EB DUP2 DUP5 PUSH2 0x34BF JUMP JUMPDEST SWAP1 POP SWAP3 SWAP2 POP POP JUMP JUMPDEST PUSH0 DUP2 SWAP1 POP SWAP2 SWAP1 POP JUMP JUMPDEST PUSH0 PUSH2 0x3A16 PUSH2 0x3A11 PUSH2 0x3A0C DUP5 PUSH2 0x2A80 JUMP JUMPDEST PUSH2 0x39F3 JUMP JUMPDEST PUSH2 0x2A80 JUMP JUMPDEST SWAP1 POP SWAP2 SWAP1 POP JUMP JUMPDEST PUSH0 PUSH2 0x3A27 DUP3 PUSH2 0x39FC JUMP JUMPDEST SWAP1 POP SWAP2 SWAP1 POP JUMP JUMPDEST PUSH0 PUSH2 0x3A38 DUP3 PUSH2 0x3A1D JUMP JUMPDEST SWAP1 POP SWAP2 SWAP1 POP JUMP JUMPDEST PUSH2 0x3A48 DUP2 PUSH2 0x3A2E JUMP JUMPDEST DUP3 MSTORE POP POP JUMP JUMPDEST PUSH0 PUSH1 0x80 DUP3 ADD SWAP1 POP PUSH2 0x3A61 PUSH0 DUP4 ADD DUP8 PUSH2 0x3A3F JUMP JUMPDEST PUSH2 0x3A6E PUSH1 0x20 DUP4 ADD DUP7 PUSH2 0x2727 JUMP JUMPDEST DUP2 DUP2 SUB PUSH1 0x40 DUP4 ADD MSTORE PUSH2 0x3A80 DUP2 DUP6 PUSH2 0x2FBD JUMP JUMPDEST SWAP1 POP DUP2 DUP2 SUB PUSH1 0x60 DUP4 ADD MSTORE PUSH2 0x3A94 DUP2 DUP5 PUSH2 0x2FBD JUMP JUMPDEST SWAP1 POP SWAP6 SWAP5 POP POP POP POP POP JUMP JUMPDEST PUSH0 DUP2 MLOAD SWAP1 POP PUSH2 0x3AAD DUP2 PUSH2 0x2916 JUMP JUMPDEST SWAP3 SWAP2 POP POP JUMP JUMPDEST PUSH0 PUSH1 0x20 DUP3 DUP5 SUB SLT ISZERO PUSH2 0x3AC8 JUMPI PUSH2 0x3AC7 PUSH2 0x2601 JUMP JUMPDEST JUMPDEST PUSH0 PUSH2 0x3AD5 DUP5 DUP3 DUP6 ADD PUSH2 0x3A9F JUMP JUMPDEST SWAP2 POP POP SWAP3 SWAP2 POP POP JUMP JUMPDEST PUSH32 0x696E76616C696420636C61696D00000000000000000000000000000000000000 PUSH0 DUP3 ADD MSTORE POP JUMP JUMPDEST PUSH0 PUSH2 0x3B12 PUSH1 0xD DUP4 PUSH2 0x2876 JUMP JUMPDEST SWAP2 POP PUSH2 0x3B1D DUP3 PUSH2 0x3ADE JUMP JUMPDEST PUSH1 0x20 DUP3 ADD SWAP1 POP SWAP2 SWAP1 POP JUMP JUMPDEST PUSH0 PUSH1 0x20 DUP3 ADD SWAP1 POP DUP2 DUP2 SUB PUSH0 DUP4 ADD MSTORE PUSH2 0x3B3F DUP2 PUSH2 0x3B06 JUMP JUMPDEST SWAP1 POP SWAP2 SWAP1 POP JUMP JUMPDEST PUSH0 PUSH1 0x40 DUP3 ADD SWAP1 POP PUSH2 0x3B59 PUSH0 DUP4 ADD DUP6 PUSH2 0x2F50 JUMP JUMPDEST PUSH2 0x3B66 PUSH1 0x20 DUP4 ADD DUP5 PUSH2 0x2727 JUMP JUMPDEST SWAP4 SWAP3 POP POP POP JUMP JUMPDEST PUSH0 PUSH1 0x20 PUSH1 0x1F DUP4 ADD DIV SWAP1 POP SWAP2 SWAP1 POP JUMP JUMPDEST PUSH0 DUP3 DUP3 SHL SWAP1 POP SWAP3 SWAP2 POP POP JUMP JUMPDEST PUSH0 PUSH1 0x8 DUP4 MUL PUSH2 0x3BB7 PUSH32 0xFFFFFFFFFFFFFFFFFFFFFFFFFFFFFFFFFFFFFFFFFFFFFFFFFFFFFFFFFFFFFFFF DUP3 PUSH2 0x3B7C JUMP JUMPDEST PUSH2 0x3BC1 DUP7 DUP4 PUSH2 0x3B7C JUMP JUMPDEST SWAP6 POP DUP1 NOT DUP5 AND SWAP4 POP DUP1 DUP7 AND DUP5 OR SWAP3 POP POP POP SWAP4 SWAP3 POP POP POP JUMP JUMPDEST PUSH0 PUSH2 0x3BF3 PUSH2 0x3BEE PUSH2 0x3BE9 DUP5 PUSH2 0x2690 JUMP JUMPDEST PUSH2 0x39F3 JUMP JUMPDEST PUSH2 0x2690 JUMP JUMPDEST SWAP1 POP SWAP2 SWAP1 POP JUMP JUMPDEST PUSH0 DUP2 SWAP1 POP SWAP2 SWAP1 POP JUMP JUMPDEST PUSH2 0x3C0C DUP4 PUSH2 0x3BD9 JUMP JUMPDEST PUSH2 0x3C20 PUSH2 0x3C18 DUP3 PUSH2 0x3BFA JUMP JUMPDEST DUP5 DUP5 SLOAD PUSH2 0x3B88 JUMP JUMPDEST DUP3 SSTORE POP POP POP POP JUMP JUMPDEST PUSH0 SWAP1 JUMP JUMPDEST PUSH2 0x3C34 PUSH2 0x3C28 JUMP JUMPDEST PUSH2 0x3C3F DUP2 DUP5 DUP5 PUSH2 0x3C03 JUMP JUMPDEST POP POP POP JUMP JUMPDEST JUMPDEST DUP2 DUP2 LT ISZERO PUSH2 0x3C62 JUMPI PUSH2 0x3C57 PUSH0 DUP3 PUSH2 0x3C2C JUMP JUMPDEST PUSH1 0x1 DUP2 ADD SWAP1 POP PUSH2 0x3C45 JUMP JUMPDEST POP POP JUMP JUMPDEST PUSH1 0x1F DUP3 GT ISZERO PUSH2 0x3CA7 JUMPI PUSH2 0x3C78 DUP2 PUSH2 0x34AD JUMP JUMPDEST PUSH2 0x3C81 DUP5 PUSH2 0x3B6D JUMP JUMPDEST DUP2 ADD PUSH1 0x20 DUP6 LT ISZERO PUSH2 0x3C90 JUMPI DUP2 SWAP1 POP JUMPDEST PUSH2 0x3CA4 PUSH2 0x3C9C DUP6 PUSH2 0x3B6D JUMP JUMPDEST DUP4 ADD DUP3 PUSH2 0x3C44 JUMP JUMPDEST POP POP JUMPDEST POP POP POP JUMP JUMPDEST PUSH0 DUP3 DUP3 SHR SWAP1 POP SWAP3 SWAP2 POP POP JUMP JUMPDEST PUSH0 PUSH2 0x3CC7 PUSH0 NOT DUP5 PUSH1 0x8 MUL PUSH2 0x3CAC JUMP JUMPDEST NOT DUP1 DUP4 AND SWAP2 POP POP SWAP3 SWAP2 POP POP JUMP JUMPDEST PUSH0 PUSH2 0x3CDF DUP4 DUP4 PUSH2 0x3CB8 JUMP JUMPDEST SWAP2 POP DUP3 PUSH1 0x2 MUL DUP3 OR SWAP1 POP SWAP3 SWAP2 POP POP JUMP JUMPDEST PUSH2 0x3CF8 DUP3 PUSH2 0x2FA3 JUMP JUMPDEST PUSH8 0xFFFFFFFFFFFFFFFF DUP2 GT ISZERO PUSH2 0x3D11 JUMPI PUSH2 0x3D10 PUSH2 0x2AE2 JUMP JUMPDEST JUMPDEST PUSH2 0x3D1B DUP3 SLOAD PUSH2 0x347D JUMP JUMPDEST PUSH2 0x3D26 DUP3 DUP3 DUP6 PUSH2 0x3C66 JUMP JUMPDEST PUSH0 PUSH1 0x20 SWAP1 POP PUSH1 0x1F DUP4 GT PUSH1 0x1 DUP2 EQ PUSH2 0x3D57 JUMPI PUSH0 DUP5 ISZERO PUSH2 0x3D45 JUMPI DUP3 DUP8 ADD MLOAD SWAP1 POP JUMPDEST PUSH2 0x3D4F DUP6 DUP3 PUSH2 0x3CD4 JUMP JUMPDEST DUP7 SSTORE POP PUSH2 0x3DB6 JUMP JUMPDEST PUSH1 0x1F NOT DUP5 AND PUSH2 0x3D65 DUP7 PUSH2 0x34AD JUMP JUMPDEST PUSH0 JUMPDEST DUP3 DUP2 LT ISZERO PUSH2 0x3D8C JUMPI DUP5 DUP10 ADD MLOAD DUP3 SSTORE PUSH1 0x1 DUP3 ADD SWAP2 POP PUSH1 0x20 DUP6 ADD SWAP5 POP PUSH1 0x20 DUP2 ADD SWAP1 POP PUSH2 0x3D67 JUMP JUMPDEST DUP7 DUP4 LT ISZERO PUSH2 0x3DA9 JUMPI DUP5 DUP10 ADD MLOAD PUSH2 0x3DA5 PUSH1 0x1F DUP10 AND DUP3 PUSH2 0x3CB8 JUMP JUMPDEST DUP4 SSTORE POP JUMPDEST PUSH1 0x1 PUSH1 0x2 DUP9 MUL ADD DUP9 SSTORE POP POP POP JUMPDEST POP POP POP POP POP POP JUMP JUMPDEST PUSH1 0x1F DUP3 GT ISZERO PUSH2 0x3DFF JUMPI PUSH2 0x3DD0 DUP2 PUSH2 0x3540 JUMP JUMPDEST PUSH2 0x3DD9 DUP5 PUSH2 0x3B6D JUMP JUMPDEST DUP2 ADD PUSH1 0x20 DUP6 LT ISZERO PUSH2 0x3DE8 JUMPI DUP2 SWAP1 POP JUMPDEST PUSH2 0x3DFC PUSH2 0x3DF4 DUP6 PUSH2 0x3B6D JUMP JUMPDEST DUP4 ADD DUP3 PUSH2 0x3C44 JUMP JUMPDEST POP POP JUMPDEST POP POP POP JUMP JUMPDEST PUSH2 0x3E0D DUP3 PUSH2 0x286C JUMP JUMPDEST PUSH8 0xFFFFFFFFFFFFFFFF DUP2 GT ISZERO PUSH2 0x3E26 JUMPI PUSH2 0x3E25 PUSH2 0x2AE2 JUMP JUMPDEST JUMPDEST PUSH2 0x3E30 DUP3 SLOAD PUSH2 0x347D JUMP JUMPDEST PUSH2 0x3E3B DUP3 DUP3 DUP6 PUSH2 0x3DBE JUMP JUMPDEST PUSH0 PUSH1 0x20 SWAP1 POP PUSH1 0x1F DUP4 GT PUSH1 0x1 DUP2 EQ PUSH2 0x3E6C JUMPI PUSH0 DUP5 ISZERO PUSH2 0x3E5A JUMPI DUP3 DUP8 ADD MLOAD SWAP1 POP JUMPDEST PUSH2 0x3E64 DUP6 DUP3 PUSH2 0x3CD4 JUMP JUMPDEST DUP7 SSTORE POP PUSH2 0x3ECB JUMP JUMPDEST PUSH1 0x1F NOT DUP5 AND PUSH2 0x3E7A DUP7 PUSH2 0x3540 JUMP JUMPDEST PUSH0 JUMPDEST DUP3 DUP2 LT ISZERO PUSH2 0x3EA1 JUMPI DUP5 DUP10 ADD MLOAD DUP3 SSTORE PUSH1 0x1 DUP3 ADD SWAP2 POP PUSH1 0x20 DUP6 ADD SWAP5 POP PUSH1 0x20 DUP2 ADD SWAP1 POP PUSH2 0x3E7C JUMP JUMPDEST DUP7 DUP4 LT ISZERO PUSH2 0x3EBE JUMPI DUP5 DUP10 ADD MLOAD PUSH2 0x3EBA PUSH1 0x1F DUP10 AND DUP3 PUSH2 0x3CB8 JUMP JUMPDEST DUP4 SSTORE POP JUMPDEST PUSH1 0x1 PUSH1 0x2 DUP9 MUL ADD DUP9 SSTORE POP POP POP JUMPDEST POP POP POP POP POP POP JUMP JUMPDEST PUSH0 PUSH1 0x80 DUP3 ADD SWAP1 POP PUSH2 0x3EE6 PUSH0 DUP4 ADD DUP8 PUSH2 0x2727 JUMP JUMPDEST DUP2 DUP2 SUB PUSH1 0x20 DUP4 ADD MSTORE PUSH2 0x3EF8 DUP2 DUP7 PUSH2 0x2FBD JUMP JUMPDEST SWAP1 POP DUP2 DUP2 SUB PUSH1 0x40 DUP4 ADD MSTORE PUSH2 0x3F0C DUP2 DUP6 PUSH2 0x2FBD JUMP JUMPDEST SWAP1 POP DUP2 DUP2 SUB PUSH1 0x60 DUP4 ADD MSTORE PUSH2 0x3F20 DUP2 DUP5 PUSH2 0x28BE JUMP JUMPDEST SWAP1 POP SWAP6 SWAP5 POP POP POP POP POP JUMP JUMPDEST PUSH0 PUSH1 0x20 DUP3 ADD SWAP1 POP DUP2 DUP2 SUB PUSH0 DUP4 ADD MSTORE PUSH2 0x3F43 DUP2 DUP5 PUSH2 0x2FBD JUMP JUMPDEST SWAP1 POP SWAP3 SWAP2 POP POP JUMP JUMPDEST PUSH0 PUSH1 0x60 DUP3 ADD SWAP1 POP PUSH2 0x3F5E PUSH0 DUP4 ADD DUP7 PUSH2 0x3A3F JUMP JUMPDEST PUSH2 0x3F6B PUSH1 0x20 DUP4 ADD DUP6 PUSH2 0x2727 JUMP JUMPDEST DUP2 DUP2 SUB PUSH1 0x40 DUP4 ADD MSTORE PUSH2 0x3F7D DUP2 DUP5 PUSH2 0x2FBD JUMP JUMPDEST SWAP1 POP SWAP5 SWAP4 POP POP POP POP JUMP JUMPDEST PUSH0 DUP2 SWAP1 POP SWAP3 SWAP2 POP POP JUMP JUMPDEST PUSH32 0x19457468657265756D205369676E6564204D6573736167653A0A333200000000 PUSH0 DUP3 ADD MSTORE POP JUMP JUMPDEST PUSH0 PUSH2 0x3FC5 PUSH1 0x1C DUP4 PUSH2 0x3F87 JUMP JUMPDEST SWAP2 POP PUSH2 0x3FD0 DUP3 PUSH2 0x3F91 JUMP JUMPDEST PUSH1 0x1C DUP3 ADD SWAP1 POP SWAP2 SWAP1 POP JUMP JUMPDEST PUSH0 DUP2 SWAP1 POP SWAP2 SWAP1 POP JUMP JUMPDEST PUSH2 0x3FF5 PUSH2 0x3FF0 DUP3 PUSH2 0x2609 JUMP JUMPDEST PUSH2 0x3FDB JUMP JUMPDEST DUP3 MSTORE POP POP JUMP JUMPDEST PUSH0 PUSH2 0x4005 DUP3 PUSH2 0x3FB9 JUMP JUMPDEST SWAP2 POP PUSH2 0x4011 DUP3 DUP5 PUSH2 0x3FE4 JUMP JUMPDEST PUSH1 0x20 DUP3 ADD SWAP2 POP DUP2 SWAP1 POP SWAP3 SWAP2 POP POP JUMP JUMPDEST PUSH0 PUSH1 0xFF DUP3 AND SWAP1 POP SWAP2 SWAP1 POP JUMP JUMPDEST PUSH0 PUSH2 0x4036 DUP3 PUSH2 0x4020 JUMP JUMPDEST SWAP2 POP PUSH2 0x4041 DUP4 PUSH2 0x4020 JUMP JUMPDEST SWAP3 POP DUP3 DUP3 ADD SWAP1 POP PUSH1 0xFF DUP2 GT ISZERO PUSH2 0x405A JUMPI PUSH2 0x4059 PUSH2 0x3260 JUMP JUMPDEST JUMPDEST SWAP3 SWAP2 POP POP JUMP JUMPDEST PUSH2 0x4069 DUP2 PUSH2 0x4020 JUMP JUMPDEST DUP3 MSTORE POP POP JUMP JUMPDEST PUSH0 PUSH1 0x80 DUP3 ADD SWAP1 POP PUSH2 0x4082 PUSH0 DUP4 ADD DUP8 PUSH2 0x2736 JUMP JUMPDEST PUSH2 0x408F PUSH1 0x20 DUP4 ADD DUP7 PUSH2 0x4060 JUMP JUMPDEST PUSH2 0x409C PUSH1 0x40 DUP4 ADD DUP6 PUSH2 0x2736 JUMP JUMPDEST PUSH2 0x40A9 PUSH1 0x60 DUP4 ADD DUP5 PUSH2 0x2736 JUMP JUMPDEST SWAP6 SWAP5 POP POP POP POP POP JUMP JUMPDEST PUSH32 0x696E76616C696420617267756D656E74202D207A65726F206164647265737300 PUSH0 DUP3 ADD MSTORE POP JUMP JUMPDEST PUSH0 PUSH2 0x40E6 PUSH1 0x1F DUP4 PUSH2 0x2876 JUMP JUMPDEST SWAP2 POP PUSH2 0x40F1 DUP3 PUSH2 0x40B2 JUMP JUMPDEST PUSH1 0x20 DUP3 ADD SWAP1 POP SWAP2 SWAP1 POP JUMP JUMPDEST PUSH0 PUSH1 0x20 DUP3 ADD SWAP1 POP DUP2 DUP2 SUB PUSH0 DUP4 ADD MSTORE PUSH2 0x4113 DUP2 PUSH2 0x40DA JUMP JUMPDEST SWAP1 POP SWAP2 SWAP1 POP JUMP JUMPDEST PUSH32 0x496E697469616C206B65792077617320616C72656164792073657475702E0000 PUSH0 DUP3 ADD MSTORE POP JUMP JUMPDEST PUSH0 PUSH2 0x414E PUSH1 0x1E DUP4 PUSH2 0x2876 JUMP JUMPDEST SWAP2 POP PUSH2 0x4159 DUP3 PUSH2 0x411A JUMP JUMPDEST PUSH1 0x20 DUP3 ADD SWAP1 POP SWAP2 SWAP1 POP JUMP JUMPDEST PUSH0 PUSH1 0x20 DUP3 ADD SWAP1 POP DUP2 DUP2 SUB PUSH0 DUP4 ADD MSTORE PUSH2 0x417B DUP2 PUSH2 0x4142 JUMP JUMPDEST SWAP1 POP SWAP2 SWAP1 POP JUMP INVALID LOG2 PUSH5 0x6970667358 0x22 SLT KECCAK256 PUSH25 0x6EB09722D9655AF23DB8E23393C8BDF1482CC49E487572FDA1 0xB5 EXP SWAP2 EXTCODEHASH 0x29 0xC2 PUSH5 0x736F6C6343 STOP ADDMOD EQ STOP CALLER "
		},
		"gasEstimates": {
			"creation": {
				"codeDepositCost": "3364800",
				"executionCost": "infinite",
				"totalCost": "infinite"
			},
			"external": {
				"addClaim(uint256,uint256,address,bytes,bytes,string)": "infinite",
				"addKey(bytes32,uint256,uint256)": "infinite",
				"approve(uint256,bool)": "infinite",
				"execute(address,uint256,bytes)": "infinite",
				"getClaim(bytes32)": "infinite",
				"getClaimIdsByTopic(uint256)": "infinite",
				"getKey(bytes32)": "infinite",
				"getKeyPurposes(bytes32)": "infinite",
				"getKeysByPurpose(uint256)": "infinite",
				"getRecoveredAddress(bytes,bytes32)": "infinite",
				"initialize(address)": "infinite",
				"isClaimValid(address,uint256,bytes,bytes)": "infinite",
				"keyHasPurpose(bytes32,uint256)": "infinite",
				"removeClaim(bytes32)": "infinite",
				"removeKey(bytes32,uint256)": "infinite",
				"version()": "infinite"
			},
			"internal": {
				"__Identity_init(address)": "infinite",
				"_isConstructor()": "2651"
			}
		},
		"methodIdentifiers": {
			"addClaim(uint256,uint256,address,bytes,bytes,string)": "b1a34e0d",
			"addKey(bytes32,uint256,uint256)": "1d381240",
			"approve(uint256,bool)": "747442d3",
			"execute(address,uint256,bytes)": "b61d27f6",
			"getClaim(bytes32)": "c9100bcb",
			"getClaimIdsByTopic(uint256)": "80e9e9e1",
			"getKey(bytes32)": "12aaac70",
			"getKeyPurposes(bytes32)": "fb307b34",
			"getKeysByPurpose(uint256)": "9010f726",
			"getRecoveredAddress(bytes,bytes32)": "c3b129e3",
			"initialize(address)": "c4d66de8",
			"isClaimValid(address,uint256,bytes,bytes)": "c0969a6e",
			"keyHasPurpose(bytes32,uint256)": "d202158d",
			"removeClaim(bytes32)": "4eee424a",
			"removeKey(bytes32,uint256)": "53d413c5",
			"version()": "54fd4d50"
		}
	},
	"abi": [
		{
			"inputs": [
				{
					"internalType": "address",
					"name": "initialManagementKey",
					"type": "address"
				},
				{
					"internalType": "bool",
					"name": "_isLibrary",
					"type": "bool"
				}
			],
			"stateMutability": "nonpayable",
			"type": "constructor"
		},
		{
			"anonymous": false,
			"inputs": [
				{
					"indexed": true,
					"internalType": "uint256",
					"name": "executionId",
					"type": "uint256"
				},
				{
					"indexed": false,
					"internalType": "bool",
					"name": "approved",
					"type": "bool"
				}
			],
			"name": "Approved",
			"type": "event"
		},
		{
			"anonymous": false,
			"inputs": [
				{
					"indexed": true,
					"internalType": "bytes32",
					"name": "claimId",
					"type": "bytes32"
				},
				{
					"indexed": true,
					"internalType": "uint256",
					"name": "topic",
					"type": "uint256"
				},
				{
					"indexed": false,
					"internalType": "uint256",
					"name": "scheme",
					"type": "uint256"
				},
				{
					"indexed": true,
					"internalType": "address",
					"name": "issuer",
					"type": "address"
				},
				{
					"indexed": false,
					"internalType": "bytes",
					"name": "signature",
					"type": "bytes"
				},
				{
					"indexed": false,
					"internalType": "bytes",
					"name": "data",
					"type": "bytes"
				},
				{
					"indexed": false,
					"internalType": "string",
					"name": "uri",
					"type": "string"
				}
			],
			"name": "ClaimAdded",
			"type": "event"
		},
		{
			"anonymous": false,
			"inputs": [
				{
					"indexed": true,
					"internalType": "bytes32",
					"name": "claimId",
					"type": "bytes32"
				},
				{
					"indexed": true,
					"internalType": "uint256",
					"name": "topic",
					"type": "uint256"
				},
				{
					"indexed": false,
					"internalType": "uint256",
					"name": "scheme",
					"type": "uint256"
				},
				{
					"indexed": true,
					"internalType": "address",
					"name": "issuer",
					"type": "address"
				},
				{
					"indexed": false,
					"internalType": "bytes",
					"name": "signature",
					"type": "bytes"
				},
				{
					"indexed": false,
					"internalType": "bytes",
					"name": "data",
					"type": "bytes"
				},
				{
					"indexed": false,
					"internalType": "string",
					"name": "uri",
					"type": "string"
				}
			],
			"name": "ClaimChanged",
			"type": "event"
		},
		{
			"anonymous": false,
			"inputs": [
				{
					"indexed": true,
					"internalType": "bytes32",
					"name": "claimId",
					"type": "bytes32"
				},
				{
					"indexed": true,
					"internalType": "uint256",
					"name": "topic",
					"type": "uint256"
				},
				{
					"indexed": false,
					"internalType": "uint256",
					"name": "scheme",
					"type": "uint256"
				},
				{
					"indexed": true,
					"internalType": "address",
					"name": "issuer",
					"type": "address"
				},
				{
					"indexed": false,
					"internalType": "bytes",
					"name": "signature",
					"type": "bytes"
				},
				{
					"indexed": false,
					"internalType": "bytes",
					"name": "data",
					"type": "bytes"
				},
				{
					"indexed": false,
					"internalType": "string",
					"name": "uri",
					"type": "string"
				}
			],
			"name": "ClaimRemoved",
			"type": "event"
		},
		{
			"anonymous": false,
			"inputs": [
				{
					"indexed": true,
					"internalType": "uint256",
					"name": "executionId",
					"type": "uint256"
				},
				{
					"indexed": true,
					"internalType": "address",
					"name": "to",
					"type": "address"
				},
				{
					"indexed": true,
					"internalType": "uint256",
					"name": "value",
					"type": "uint256"
				},
				{
					"indexed": false,
					"internalType": "bytes",
					"name": "data",
					"type": "bytes"
				}
			],
			"name": "Executed",
			"type": "event"
		},
		{
			"anonymous": false,
			"inputs": [
				{
					"indexed": true,
					"internalType": "uint256",
					"name": "executionId",
					"type": "uint256"
				},
				{
					"indexed": true,
					"internalType": "address",
					"name": "to",
					"type": "address"
				},
				{
					"indexed": true,
					"internalType": "uint256",
					"name": "value",
					"type": "uint256"
				},
				{
					"indexed": false,
					"internalType": "bytes",
					"name": "data",
					"type": "bytes"
				}
			],
			"name": "ExecutionFailed",
			"type": "event"
		},
		{
			"anonymous": false,
			"inputs": [
				{
					"indexed": true,
					"internalType": "uint256",
					"name": "executionId",
					"type": "uint256"
				},
				{
					"indexed": true,
					"internalType": "address",
					"name": "to",
					"type": "address"
				},
				{
					"indexed": true,
					"internalType": "uint256",
					"name": "value",
					"type": "uint256"
				},
				{
					"indexed": false,
					"internalType": "bytes",
					"name": "data",
					"type": "bytes"
				}
			],
			"name": "ExecutionRequested",
			"type": "event"
		},
		{
			"anonymous": false,
			"inputs": [
				{
					"indexed": true,
					"internalType": "bytes32",
					"name": "key",
					"type": "bytes32"
				},
				{
					"indexed": true,
					"internalType": "uint256",
					"name": "purpose",
					"type": "uint256"
				},
				{
					"indexed": true,
					"internalType": "uint256",
					"name": "keyType",
					"type": "uint256"
				}
			],
			"name": "KeyAdded",
			"type": "event"
		},
		{
			"anonymous": false,
			"inputs": [
				{
					"indexed": true,
					"internalType": "bytes32",
					"name": "key",
					"type": "bytes32"
				},
				{
					"indexed": true,
					"internalType": "uint256",
					"name": "purpose",
					"type": "uint256"
				},
				{
					"indexed": true,
					"internalType": "uint256",
					"name": "keyType",
					"type": "uint256"
				}
			],
			"name": "KeyRemoved",
			"type": "event"
		},
		{
			"inputs": [
				{
					"internalType": "uint256",
					"name": "_topic",
					"type": "uint256"
				},
				{
					"internalType": "uint256",
					"name": "_scheme",
					"type": "uint256"
				},
				{
					"internalType": "address",
					"name": "_issuer",
					"type": "address"
				},
				{
					"internalType": "bytes",
					"name": "_signature",
					"type": "bytes"
				},
				{
					"internalType": "bytes",
					"name": "_data",
					"type": "bytes"
				},
				{
					"internalType": "string",
					"name": "_uri",
					"type": "string"
				}
			],
			"name": "addClaim",
			"outputs": [
				{
					"internalType": "bytes32",
					"name": "claimRequestId",
					"type": "bytes32"
				}
			],
			"stateMutability": "nonpayable",
			"type": "function"
		},
		{
			"inputs": [
				{
					"internalType": "bytes32",
					"name": "_key",
					"type": "bytes32"
				},
				{
					"internalType": "uint256",
					"name": "_purpose",
					"type": "uint256"
				},
				{
					"internalType": "uint256",
					"name": "_type",
					"type": "uint256"
				}
			],
			"name": "addKey",
			"outputs": [
				{
					"internalType": "bool",
					"name": "success",
					"type": "bool"
				}
			],
			"stateMutability": "nonpayable",
			"type": "function"
		},
		{
			"inputs": [
				{
					"internalType": "uint256",
					"name": "_id",
					"type": "uint256"
				},
				{
					"internalType": "bool",
					"name": "_approve",
					"type": "bool"
				}
			],
			"name": "approve",
			"outputs": [
				{
					"internalType": "bool",
					"name": "success",
					"type": "bool"
				}
			],
			"stateMutability": "nonpayable",
			"type": "function"
		},
		{
			"inputs": [
				{
					"internalType": "address",
					"name": "_to",
					"type": "address"
				},
				{
					"internalType": "uint256",
					"name": "_value",
					"type": "uint256"
				},
				{
					"internalType": "bytes",
					"name": "_data",
					"type": "bytes"
				}
			],
			"name": "execute",
			"outputs": [
				{
					"internalType": "uint256",
					"name": "executionId",
					"type": "uint256"
				}
			],
			"stateMutability": "payable",
			"type": "function"
		},
		{
			"inputs": [
				{
					"internalType": "bytes32",
					"name": "_claimId",
					"type": "bytes32"
				}
			],
			"name": "getClaim",
			"outputs": [
				{
					"internalType": "uint256",
					"name": "topic",
					"type": "uint256"
				},
				{
					"internalType": "uint256",
					"name": "scheme",
					"type": "uint256"
				},
				{
					"internalType": "address",
					"name": "issuer",
					"type": "address"
				},
				{
					"internalType": "bytes",
					"name": "signature",
					"type": "bytes"
				},
				{
					"internalType": "bytes",
					"name": "data",
					"type": "bytes"
				},
				{
					"internalType": "string",
					"name": "uri",
					"type": "string"
				}
			],
			"stateMutability": "view",
			"type": "function"
		},
		{
			"inputs": [
				{
					"internalType": "uint256",
					"name": "_topic",
					"type": "uint256"
				}
			],
			"name": "getClaimIdsByTopic",
			"outputs": [
				{
					"internalType": "bytes32[]",
					"name": "claimIds",
					"type": "bytes32[]"
				}
			],
			"stateMutability": "view",
			"type": "function"
		},
		{
			"inputs": [
				{
					"internalType": "bytes32",
					"name": "_key",
					"type": "bytes32"
				}
			],
			"name": "getKey",
			"outputs": [
				{
					"internalType": "uint256[]",
					"name": "purposes",
					"type": "uint256[]"
				},
				{
					"internalType": "uint256",
					"name": "keyType",
					"type": "uint256"
				},
				{
					"internalType": "bytes32",
					"name": "key",
					"type": "bytes32"
				}
			],
			"stateMutability": "view",
			"type": "function"
		},
		{
			"inputs": [
				{
					"internalType": "bytes32",
					"name": "_key",
					"type": "bytes32"
				}
			],
			"name": "getKeyPurposes",
			"outputs": [
				{
					"internalType": "uint256[]",
					"name": "_purposes",
					"type": "uint256[]"
				}
			],
			"stateMutability": "view",
			"type": "function"
		},
		{
			"inputs": [
				{
					"internalType": "uint256",
					"name": "_purpose",
					"type": "uint256"
				}
			],
			"name": "getKeysByPurpose",
			"outputs": [
				{
					"internalType": "bytes32[]",
					"name": "keys",
					"type": "bytes32[]"
				}
			],
			"stateMutability": "view",
			"type": "function"
		},
		{
			"inputs": [
				{
					"internalType": "bytes",
					"name": "sig",
					"type": "bytes"
				},
				{
					"internalType": "bytes32",
					"name": "dataHash",
					"type": "bytes32"
				}
			],
			"name": "getRecoveredAddress",
			"outputs": [
				{
					"internalType": "address",
					"name": "addr",
					"type": "address"
				}
			],
			"stateMutability": "pure",
			"type": "function"
		},
		{
			"inputs": [
				{
					"internalType": "address",
					"name": "initialManagementKey",
					"type": "address"
				}
			],
			"name": "initialize",
			"outputs": [],
			"stateMutability": "nonpayable",
			"type": "function"
		},
		{
			"inputs": [
				{
					"internalType": "contract IIdentity",
					"name": "_identity",
					"type": "address"
				},
				{
					"internalType": "uint256",
					"name": "claimTopic",
					"type": "uint256"
				},
				{
					"internalType": "bytes",
					"name": "sig",
					"type": "bytes"
				},
				{
					"internalType": "bytes",
					"name": "data",
					"type": "bytes"
				}
			],
			"name": "isClaimValid",
			"outputs": [
				{
					"internalType": "bool",
					"name": "claimValid",
					"type": "bool"
				}
			],
			"stateMutability": "view",
			"type": "function"
		},
		{
			"inputs": [
				{
					"internalType": "bytes32",
					"name": "_key",
					"type": "bytes32"
				},
				{
					"internalType": "uint256",
					"name": "_purpose",
					"type": "uint256"
				}
			],
			"name": "keyHasPurpose",
			"outputs": [
				{
					"internalType": "bool",
					"name": "result",
					"type": "bool"
				}
			],
			"stateMutability": "view",
			"type": "function"
		},
		{
			"inputs": [
				{
					"internalType": "bytes32",
					"name": "_claimId",
					"type": "bytes32"
				}
			],
			"name": "removeClaim",
			"outputs": [
				{
					"internalType": "bool",
					"name": "success",
					"type": "bool"
				}
			],
			"stateMutability": "nonpayable",
			"type": "function"
		},
		{
			"inputs": [
				{
					"internalType": "bytes32",
					"name": "_key",
					"type": "bytes32"
				},
				{
					"internalType": "uint256",
					"name": "_purpose",
					"type": "uint256"
				}
			],
			"name": "removeKey",
			"outputs": [
				{
					"internalType": "bool",
					"name": "success",
					"type": "bool"
				}
			],
			"stateMutability": "nonpayable",
			"type": "function"
		},
		{
			"inputs": [],
			"name": "version",
			"outputs": [
				{
					"internalType": "string",
					"name": "",
					"type": "string"
				}
			],
			"stateMutability": "pure",
			"type": "function"
		}
	]
}