{
	"data": {
		"bytecode": {
			"linkReferences": {},
			"object": "608060405234801562000010575f80fd5b50335f73ffffffffffffffffffffffffffffffffffffffff168173ffffffffffffffffffffffffffffffffffffffff160362000085575f6040517f1e4fbdf70000000000000000000000000000000000000000000000000000000081526004016200007c9190620001a1565b60405180910390fd5b62000096816200009d60201b60201c565b50620001bc565b5f805f9054906101000a900473ffffffffffffffffffffffffffffffffffffffff169050815f806101000a81548173ffffffffffffffffffffffffffffffffffffffff021916908373ffffffffffffffffffffffffffffffffffffffff1602179055508173ffffffffffffffffffffffffffffffffffffffff168173ffffffffffffffffffffffffffffffffffffffff167f8be0079c531659141344cd1fd0a4f28419497f9722a3daafe3b4186f6b6457e060405160405180910390a35050565b5f73ffffffffffffffffffffffffffffffffffffffff82169050919050565b5f62000189826200015e565b9050919050565b6200019b816200017d565b82525050565b5f602082019050620001b65f83018462000190565b92915050565b6130d880620001ca5f395ff3fe608060405234801561000f575f80fd5b506004361061011f575f3560e01c8063b5fa8693116100ab578063c7b225511161006f578063c7b225511461033b578063c801dd4014610357578063d9dd24c514610387578063ef2ed1a4146103a5578063f2fde38b146103d55761011f565b8063b5fa86931461025f578063b93d28eb1461028f578063ba64c341146102ab578063be36359f146102db578063c28fb2781461030b5761011f565b806363a9c3d7116100f257806363a9c3d7146101bb578063715018a6146101eb5780638da5cb5b146101f557806393e9f801146102135780639f63ea98146102435761011f565b806304bc7e8414610123578063082978461461013f57806334a899871461015b57806352c111d11461018b575b5f80fd5b61013d60048036038101906101389190612083565b6103f1565b005b61015960048036038101906101549190612113565b610945565b005b61017560048036038101906101709190612168565b610a3a565b60405161018291906121c0565b60405180910390f35b6101a560048036038101906101a09190612113565b610b24565b6040516101b291906122dc565b60405180910390f35b6101d560048036038101906101d091906122fc565b610bc0565b6040516101e291906121c0565b60405180910390f35b6101f3610fc3565b005b6101fd610fd6565b60405161020a9190612336565b60405180910390f35b61022d6004803603810190610228919061234f565b610ffd565b60405161023a919061239c565b60405180910390f35b61025d60048036038101906102589190612083565b611045565b005b61027960048036038101906102749190612113565b6113bc565b60405161028691906123c4565b60405180910390f35b6102a960048036038101906102a491906123dd565b6113dc565b005b6102c560048036038101906102c09190612168565b611967565b6040516102d291906123c4565b60405180910390f35b6102f560048036038101906102f09190612113565b611992565b60405161030291906121c0565b60405180910390f35b610325600480360381019061032091906123dd565b6119f2565b60405161033291906124bf565b60405180910390f35b61035560048036038101906103509190612113565b611b07565b005b610371600480360381019061036c9190612113565b611c2e565b60405161037e919061239c565b60405180910390f35b61038f611c69565b60405161039c91906122dc565b60405180910390f35b6103bf60048036038101906103ba91906122fc565b611cf4565b6040516103cc91906121c0565b60405180910390f35b6103ef60048036038101906103ea91906122fc565b611d4f565b005b6103f9611dd3565b5f73ffffffffffffffffffffffffffffffffffffffff168373ffffffffffffffffffffffffffffffffffffffff1603610467576040517f08c379a000000000000000000000000000000000000000000000000000000000815260040161045e90612539565b60405180910390fd5b5f60035f8573ffffffffffffffffffffffffffffffffffffffff1673ffffffffffffffffffffffffffffffffffffffff1681526020019081526020015f2080549050036104e9576040517f08c379a00000000000000000000000000000000000000000000000000000000081526004016104e0906125a1565b60405180910390fd5b600f828290501115610530576040517f08c379a00000000000000000000000000000000000000000000000000000000081526004016105279061262f565b60405180910390fd5b5f8282905011610575576040517f08c379a000000000000000000000000000000000000000000000000000000000815260040161056c90612697565b60405180910390fd5b5f5b60035f8573ffffffffffffffffffffffffffffffffffffffff1673ffffffffffffffffffffffffffffffffffffffff1681526020019081526020015f20805490508110156107f9575f60035f8673ffffffffffffffffffffffffffffffffffffffff1673ffffffffffffffffffffffffffffffffffffffff1681526020019081526020015f20828154811061060f5761060e6126b5565b5b905f5260205f20015490505f60045f8381526020019081526020015f208054905090505f5b818110156107e3578673ffffffffffffffffffffffffffffffffffffffff1660045f8581526020019081526020015f208281548110610676576106756126b5565b5b905f5260205f20015f9054906101000a900473ffffffffffffffffffffffffffffffffffffffff1673ffffffffffffffffffffffffffffffffffffffff16036107d05760045f8481526020019081526020015f206001836106d7919061270f565b815481106106e8576106e76126b5565b5b905f5260205f20015f9054906101000a900473ffffffffffffffffffffffffffffffffffffffff1660045f8581526020019081526020015f208281548110610733576107326126b5565b5b905f5260205f20015f6101000a81548173ffffffffffffffffffffffffffffffffffffffff021916908373ffffffffffffffffffffffffffffffffffffffff16021790555060045f8481526020019081526020015f2080548061079957610798612742565b5b600190038181905f5260205f20015f6101000a81549073ffffffffffffffffffffffffffffffffffffffff021916905590556107e3565b80806107db9061276f565b915050610634565b50505080806107f19061276f565b915050610577565b50818160035f8673ffffffffffffffffffffffffffffffffffffffff1673ffffffffffffffffffffffffffffffffffffffff1681526020019081526020015f209190610846929190611f22565b505f5b828290508110156108ef5760045f84848481811061086a576108696126b5565b5b9050602002013581526020019081526020015f2084908060018154018082558091505060019003905f5260205f20015f9091909190916101000a81548173ffffffffffffffffffffffffffffffffffffffff021916908373ffffffffffffffffffffffffffffffffffffffff16021790555080806108e79061276f565b915050610849565b508273ffffffffffffffffffffffffffffffffffffffff167fec753cfc52044f61676f18a11e500093a9f2b1cd5e4942bc476f2b0438159bcf838360405161093892919061281e565b60405180910390a2505050565b61094d611dd3565b5f60018054905090505f5b81811015610a35578260018281548110610975576109746126b5565b5b905f5260205f20015403610a225760018083610991919061270f565b815481106109a2576109a16126b5565b5b905f5260205f200154600182815481106109bf576109be6126b5565b5b905f5260205f20018190555060018054806109dd576109dc612742565b5b600190038181905f5260205f20015f90559055827f0b1381093c776453c1bbe54fd68be1b235c65db61d099cb50d194b2991e0eec560405160405180910390a2610a35565b8080610a2d9061276f565b915050610958565b505050565b5f8060035f8573ffffffffffffffffffffffffffffffffffffffff1673ffffffffffffffffffffffffffffffffffffffff1681526020019081526020015f20805480602002602001604051908101604052809291908181526020018280548015610ac157602002820191905f5260205f20905b815481526020019060010190808311610aad575b505050505090505f815190505f5b81811015610b175784838281518110610aeb57610aea6126b5565b5b602002602001015103610b045760019350505050610b1e565b8080610b0f9061276f565b915050610acf565b505f925050505b92915050565b606060045f8381526020019081526020015f20805480602002602001604051908101604052809291908181526020018280548015610bb457602002820191905f5260205f20905b815f9054906101000a900473ffffffffffffffffffffffffffffffffffffffff1673ffffffffffffffffffffffffffffffffffffffff1681526020019060010190808311610b6b575b50505050509050919050565b5f8060018054905003610bd65760019050610fbe565b5f805f6060805f5b600180549050811015610fb3575f3073ffffffffffffffffffffffffffffffffffffffff166352c111d160018481548110610c1c57610c1b6126b5565b5b905f5260205f2001546040518263ffffffff1660e01b8152600401610c4191906123c4565b5f60405180830381865afa158015610c5b573d5f803e3d5ffd5b505050506040513d5f823e3d601f19601f82011682018060405250810190610c83919061299c565b90505f815103610c9c575f975050505050505050610fbe565b5f815167ffffffffffffffff811115610cb857610cb7612850565b5b604051908082528060200260200182016040528015610ce65781602001602082028036833780820191505090505b5090505f5b8251811015610d8557828181518110610d0757610d066126b5565b5b602002602001015160018581548110610d2357610d226126b5565b5b905f5260205f200154604051602001610d3d9291906129e3565b60405160208183030381529060405280519060200120828281518110610d6657610d656126b5565b5b6020026020010181815250508080610d7d9061276f565b915050610ceb565b505f5b8151811015610f9d578a73ffffffffffffffffffffffffffffffffffffffff1663c9100bcb838381518110610dc057610dbf6126b5565b5b60200260200101516040518263ffffffff1660e01b8152600401610de49190612a22565b5f60405180830381865afa158015610dfe573d5f803e3d5ffd5b505050506040513d5f823e3d601f19601f82011682018060405250810190610e269190612bcb565b50809950819a50829b50839c50849d50505050505060018481548110610e4f57610e4e6126b5565b5b905f5260205f2001548903610f64578673ffffffffffffffffffffffffffffffffffffffff1663c0969a6e8c60018781548110610e8f57610e8e6126b5565b5b905f5260205f20015489896040518563ffffffff1660e01b8152600401610eb99493929190612d1a565b602060405180830381865afa925050508015610ef357506040513d601f19601f82011682018060405250810190610ef09190612d95565b60015b610f215760018251610f05919061270f565b8103610f1c575f9950505050505050505050610fbe565b610f5f565b8015610f2c57825191505b80158015610f46575060018351610f43919061270f565b82145b15610f5d575f9a5050505050505050505050610fbe565b505b610f8a565b60018251610f72919061270f565b8103610f89575f9950505050505050505050610fbe565b5b8080610f959061276f565b915050610d88565b5050508080610fab9061276f565b915050610bde565b600196505050505050505b919050565b610fcb611dd3565b610fd45f611e5a565b565b5f805f9054906101000a900473ffffffffffffffffffffffffffffffffffffffff16905090565b6004602052815f5260405f208181548110611016575f80fd5b905f5260205f20015f915091509054906101000a900473ffffffffffffffffffffffffffffffffffffffff1681565b61104d611dd3565b5f73ffffffffffffffffffffffffffffffffffffffff168373ffffffffffffffffffffffffffffffffffffffff16036110bb576040517f08c379a00000000000000000000000000000000000000000000000000000000081526004016110b290612539565b60405180910390fd5b5f60035f8573ffffffffffffffffffffffffffffffffffffffff1673ffffffffffffffffffffffffffffffffffffffff1681526020019081526020015f20805490501461113d576040517f08c379a000000000000000000000000000000000000000000000000000000000815260040161113490612e0a565b60405180910390fd5b5f8282905011611182576040517f08c379a000000000000000000000000000000000000000000000000000000000815260040161117990612e98565b60405180910390fd5b600f8282905011156111c9576040517f08c379a00000000000000000000000000000000000000000000000000000000081526004016111c09061262f565b60405180910390fd5b603260028054905010611211576040517f08c379a000000000000000000000000000000000000000000000000000000000815260040161120890612f26565b60405180910390fd5b600283908060018154018082558091505060019003905f5260205f20015f9091909190916101000a81548173ffffffffffffffffffffffffffffffffffffffff021916908373ffffffffffffffffffffffffffffffffffffffff160217905550818160035f8673ffffffffffffffffffffffffffffffffffffffff1673ffffffffffffffffffffffffffffffffffffffff1681526020019081526020015f2091906112bd929190611f22565b505f5b828290508110156113665760045f8484848181106112e1576112e06126b5565b5b9050602002013581526020019081526020015f2084908060018154018082558091505060019003905f5260205f20015f9091909190916101000a81548173ffffffffffffffffffffffffffffffffffffffff021916908373ffffffffffffffffffffffffffffffffffffffff160217905550808061135e9061276f565b9150506112c0565b508273ffffffffffffffffffffffffffffffffffffffff167ffedc33fd34859594822c0ff6f3f4f9fc279cc6d5cae53068f706a088e450087283836040516113af92919061281e565b60405180910390a2505050565b600181815481106113cb575f80fd5b905f5260205f20015f915090505481565b6113e4611dd3565b5f73ffffffffffffffffffffffffffffffffffffffff168173ffffffffffffffffffffffffffffffffffffffff1603611452576040517f08c379a000000000000000000000000000000000000000000000000000000000815260040161144990612539565b60405180910390fd5b5f60035f8373ffffffffffffffffffffffffffffffffffffffff1673ffffffffffffffffffffffffffffffffffffffff1681526020019081526020015f2080549050036114d4576040517f08c379a00000000000000000000000000000000000000000000000000000000081526004016114cb906125a1565b60405180910390fd5b5f60028054905090505f5b81811015611652578273ffffffffffffffffffffffffffffffffffffffff1660028281548110611512576115116126b5565b5b905f5260205f20015f9054906101000a900473ffffffffffffffffffffffffffffffffffffffff1673ffffffffffffffffffffffffffffffffffffffff160361163f576002600183611564919061270f565b81548110611575576115746126b5565b5b905f5260205f20015f9054906101000a900473ffffffffffffffffffffffffffffffffffffffff16600282815481106115b1576115b06126b5565b5b905f5260205f20015f6101000a81548173ffffffffffffffffffffffffffffffffffffffff021916908373ffffffffffffffffffffffffffffffffffffffff160217905550600280548061160857611607612742565b5b600190038181905f5260205f20015f6101000a81549073ffffffffffffffffffffffffffffffffffffffff02191690559055611652565b808061164a9061276f565b9150506114df565b505f5b60035f8473ffffffffffffffffffffffffffffffffffffffff1673ffffffffffffffffffffffffffffffffffffffff1681526020019081526020015f20805490508110156118d7575f60035f8573ffffffffffffffffffffffffffffffffffffffff1673ffffffffffffffffffffffffffffffffffffffff1681526020019081526020015f2082815481106116ed576116ec6126b5565b5b905f5260205f20015490505f60045f8381526020019081526020015f208054905090505f5b818110156118c1578573ffffffffffffffffffffffffffffffffffffffff1660045f8581526020019081526020015f208281548110611754576117536126b5565b5b905f5260205f20015f9054906101000a900473ffffffffffffffffffffffffffffffffffffffff1673ffffffffffffffffffffffffffffffffffffffff16036118ae5760045f8481526020019081526020015f206001836117b5919061270f565b815481106117c6576117c56126b5565b5b905f5260205f20015f9054906101000a900473ffffffffffffffffffffffffffffffffffffffff1660045f8581526020019081526020015f208281548110611811576118106126b5565b5b905f5260205f20015f6101000a81548173ffffffffffffffffffffffffffffffffffffffff021916908373ffffffffffffffffffffffffffffffffffffffff16021790555060045f8481526020019081526020015f2080548061187757611876612742565b5b600190038181905f5260205f20015f6101000a81549073ffffffffffffffffffffffffffffffffffffffff021916905590556118c1565b80806118b99061276f565b915050611712565b50505080806118cf9061276f565b915050611655565b5060035f8373ffffffffffffffffffffffffffffffffffffffff1673ffffffffffffffffffffffffffffffffffffffff1681526020019081526020015f205f6119209190611f6d565b8173ffffffffffffffffffffffffffffffffffffffff167f2214ded40113cc3fb63fc206cafee88270b0a903dac7245d54efdde30ebb032160405160405180910390a25050565b6003602052815f5260405f208181548110611980575f80fd5b905f5260205f20015f91509150505481565b5f8060018054905090505f5b818110156119e75783600182815481106119bb576119ba6126b5565b5b905f5260205f200154036119d4576001925050506119ed565b80806119df9061276f565b91505061199e565b505f9150505b919050565b60605f60035f8473ffffffffffffffffffffffffffffffffffffffff1673ffffffffffffffffffffffffffffffffffffffff1681526020019081526020015f208054905003611a76576040517f08c379a0000000000000000000000000000000000000000000000000000000008152600401611a6d90612f8e565b60405180910390fd5b60035f8373ffffffffffffffffffffffffffffffffffffffff1673ffffffffffffffffffffffffffffffffffffffff1681526020019081526020015f20805480602002602001604051908101604052809291908181526020018280548015611afb57602002820191905f5260205f20905b815481526020019060010190808311611ae7575b50505050509050919050565b611b0f611dd3565b5f6001805490509050600f8110611b5b576040517f08c379a0000000000000000000000000000000000000000000000000000000008152600401611b529061301c565b60405180910390fd5b5f5b81811015611bd6578260018281548110611b7a57611b796126b5565b5b905f5260205f20015403611bc3576040517f08c379a0000000000000000000000000000000000000000000000000000000008152600401611bba90613084565b60405180910390fd5b8080611bce9061276f565b915050611b5d565b50600182908060018154018082558091505060019003905f5260205f20015f9091909190915055817f01c928b7f7ade2949e92366aa9454dbef3a416b731cf6ec786ba9595bbd814d660405160405180910390a25050565b60028181548110611c3d575f80fd5b905f5260205f20015f915054906101000a900473ffffffffffffffffffffffffffffffffffffffff1681565b60606002805480602002602001604051908101604052809291908181526020018280548015611cea57602002820191905f5260205f20905b815f9054906101000a900473ffffffffffffffffffffffffffffffffffffffff1673ffffffffffffffffffffffffffffffffffffffff1681526020019060010190808311611ca1575b5050505050905090565b5f8060035f8473ffffffffffffffffffffffffffffffffffffffff1673ffffffffffffffffffffffffffffffffffffffff1681526020019081526020015f20805490501115611d465760019050611d4a565b5f90505b919050565b611d57611dd3565b5f73ffffffffffffffffffffffffffffffffffffffff168173ffffffffffffffffffffffffffffffffffffffff1603611dc7575f6040517f1e4fbdf7000000000000000000000000000000000000000000000000000000008152600401611dbe9190612336565b60405180910390fd5b611dd081611e5a565b50565b611ddb611f1b565b73ffffffffffffffffffffffffffffffffffffffff16611df9610fd6565b73ffffffffffffffffffffffffffffffffffffffff1614611e5857611e1c611f1b565b6040517f118cdaa7000000000000000000000000000000000000000000000000000000008152600401611e4f9190612336565b60405180910390fd5b565b5f805f9054906101000a900473ffffffffffffffffffffffffffffffffffffffff169050815f806101000a81548173ffffffffffffffffffffffffffffffffffffffff021916908373ffffffffffffffffffffffffffffffffffffffff1602179055508173ffffffffffffffffffffffffffffffffffffffff168173ffffffffffffffffffffffffffffffffffffffff167f8be0079c531659141344cd1fd0a4f28419497f9722a3daafe3b4186f6b6457e060405160405180910390a35050565b5f33905090565b828054828255905f5260205f20908101928215611f5c579160200282015b82811115611f5b578235825591602001919060010190611f40565b5b509050611f699190611f8b565b5090565b5080545f8255905f5260205f2090810190611f889190611f8b565b50565b5b80821115611fa2575f815f905550600101611f8c565b5090565b5f604051905090565b5f80fd5b5f80fd5b5f73ffffffffffffffffffffffffffffffffffffffff82169050919050565b5f611fe082611fb7565b9050919050565b5f611ff182611fd6565b9050919050565b61200181611fe7565b811461200b575f80fd5b50565b5f8135905061201c81611ff8565b92915050565b5f80fd5b5f80fd5b5f80fd5b5f8083601f84011261204357612042612022565b5b8235905067ffffffffffffffff8111156120605761205f612026565b5b60208301915083602082028301111561207c5761207b61202a565b5b9250929050565b5f805f6040848603121561209a57612099611faf565b5b5f6120a78682870161200e565b935050602084013567ffffffffffffffff8111156120c8576120c7611fb3565b5b6120d48682870161202e565b92509250509250925092565b5f819050919050565b6120f2816120e0565b81146120fc575f80fd5b50565b5f8135905061210d816120e9565b92915050565b5f6020828403121561212857612127611faf565b5b5f612135848285016120ff565b91505092915050565b61214781611fd6565b8114612151575f80fd5b50565b5f813590506121628161213e565b92915050565b5f806040838503121561217e5761217d611faf565b5b5f61218b85828601612154565b925050602061219c858286016120ff565b9150509250929050565b5f8115159050919050565b6121ba816121a6565b82525050565b5f6020820190506121d35f8301846121b1565b92915050565b5f81519050919050565b5f82825260208201905092915050565b5f819050602082019050919050565b5f819050919050565b5f61222561222061221b84611fb7565b612202565b611fb7565b9050919050565b5f6122368261220b565b9050919050565b5f6122478261222c565b9050919050565b6122578161223d565b82525050565b5f612268838361224e565b60208301905092915050565b5f602082019050919050565b5f61228a826121d9565b61229481856121e3565b935061229f836121f3565b805f5b838110156122cf5781516122b6888261225d565b97506122c183612274565b9250506001810190506122a2565b5085935050505092915050565b5f6020820190508181035f8301526122f48184612280565b905092915050565b5f6020828403121561231157612310611faf565b5b5f61231e84828501612154565b91505092915050565b61233081611fd6565b82525050565b5f6020820190506123495f830184612327565b92915050565b5f806040838503121561236557612364611faf565b5b5f612372858286016120ff565b9250506020612383858286016120ff565b9150509250929050565b6123968161223d565b82525050565b5f6020820190506123af5f83018461238d565b92915050565b6123be816120e0565b82525050565b5f6020820190506123d75f8301846123b5565b92915050565b5f602082840312156123f2576123f1611faf565b5b5f6123ff8482850161200e565b91505092915050565b5f81519050919050565b5f82825260208201905092915050565b5f819050602082019050919050565b61243a816120e0565b82525050565b5f61244b8383612431565b60208301905092915050565b5f602082019050919050565b5f61246d82612408565b6124778185612412565b935061248283612422565b805f5b838110156124b25781516124998882612440565b97506124a483612457565b925050600181019050612485565b5085935050505092915050565b5f6020820190508181035f8301526124d78184612463565b905092915050565b5f82825260208201905092915050565b7f696e76616c696420617267756d656e74202d207a65726f2061646472657373005f82015250565b5f612523601f836124df565b915061252e826124ef565b602082019050919050565b5f6020820190508181035f83015261255081612517565b9050919050565b7f4e4f5420612074727573746564206973737565720000000000000000000000005f82015250565b5f61258b6014836124df565b915061259682612557565b602082019050919050565b5f6020820190508181035f8301526125b88161257f565b9050919050565b7f63616e6e6f742068617665206d6f7265207468616e20313520636c61696d20745f8201527f6f70696373000000000000000000000000000000000000000000000000000000602082015250565b5f6126196025836124df565b9150612624826125bf565b604082019050919050565b5f6020820190508181035f8301526126468161260d565b9050919050565b7f636c61696d20746f706963732063616e6e6f7420626520656d707479000000005f82015250565b5f612681601c836124df565b915061268c8261264d565b602082019050919050565b5f6020820190508181035f8301526126ae81612675565b9050919050565b7f4e487b71000000000000000000000000000000000000000000000000000000005f52603260045260245ffd5b7f4e487b71000000000000000000000000000000000000000000000000000000005f52601160045260245ffd5b5f612719826120e0565b9150612724836120e0565b925082820390508181111561273c5761273b6126e2565b5b92915050565b7f4e487b71000000000000000000000000000000000000000000000000000000005f52603160045260245ffd5b5f612779826120e0565b91507fffffffffffffffffffffffffffffffffffffffffffffffffffffffffffffffff82036127ab576127aa6126e2565b5b600182019050919050565b5f80fd5b82818337505050565b5f6127ce8385612412565b93507f07ffffffffffffffffffffffffffffffffffffffffffffffffffffffffffffff831115612801576128006127b6565b5b6020830292506128128385846127ba565b82840190509392505050565b5f6020820190508181035f8301526128378184866127c3565b90509392505050565b5f601f19601f8301169050919050565b7f4e487b71000000000000000000000000000000000000000000000000000000005f52604160045260245ffd5b61288682612840565b810181811067ffffffffffffffff821117156128a5576128a4612850565b5b80604052505050565b5f6128b7611fa6565b90506128c3828261287d565b919050565b5f67ffffffffffffffff8211156128e2576128e1612850565b5b602082029050602081019050919050565b5f8151905061290181611ff8565b92915050565b5f612919612914846128c8565b6128ae565b9050808382526020820190506020840283018581111561293c5761293b61202a565b5b835b81811015612965578061295188826128f3565b84526020840193505060208101905061293e565b5050509392505050565b5f82601f83011261298357612982612022565b5b8151612993848260208601612907565b91505092915050565b5f602082840312156129b1576129b0611faf565b5b5f82015167ffffffffffffffff8111156129ce576129cd611fb3565b5b6129da8482850161296f565b91505092915050565b5f6040820190506129f65f83018561238d565b612a0360208301846123b5565b9392505050565b5f819050919050565b612a1c81612a0a565b82525050565b5f602082019050612a355f830184612a13565b92915050565b5f81519050612a49816120e9565b92915050565b5f81519050612a5d8161213e565b92915050565b5f80fd5b5f67ffffffffffffffff821115612a8157612a80612850565b5b612a8a82612840565b9050602081019050919050565b5f5b83811015612ab4578082015181840152602081019050612a99565b5f8484015250505050565b5f612ad1612acc84612a67565b6128ae565b905082815260208101848484011115612aed57612aec612a63565b5b612af8848285612a97565b509392505050565b5f82601f830112612b1457612b13612022565b5b8151612b24848260208601612abf565b91505092915050565b5f67ffffffffffffffff821115612b4757612b46612850565b5b612b5082612840565b9050602081019050919050565b5f612b6f612b6a84612b2d565b6128ae565b905082815260208101848484011115612b8b57612b8a612a63565b5b612b96848285612a97565b509392505050565b5f82601f830112612bb257612bb1612022565b5b8151612bc2848260208601612b5d565b91505092915050565b5f805f805f8060c08789031215612be557612be4611faf565b5b5f612bf289828a01612a3b565b9650506020612c0389828a01612a3b565b9550506040612c1489828a01612a4f565b945050606087015167ffffffffffffffff811115612c3557612c34611fb3565b5b612c4189828a01612b00565b935050608087015167ffffffffffffffff811115612c6257612c61611fb3565b5b612c6e89828a01612b00565b92505060a087015167ffffffffffffffff811115612c8f57612c8e611fb3565b5b612c9b89828a01612b9e565b9150509295509295509295565b5f612cb28261222c565b9050919050565b612cc281612ca8565b82525050565b5f81519050919050565b5f82825260208201905092915050565b5f612cec82612cc8565b612cf68185612cd2565b9350612d06818560208601612a97565b612d0f81612840565b840191505092915050565b5f608082019050612d2d5f830187612cb9565b612d3a60208301866123b5565b8181036040830152612d4c8185612ce2565b90508181036060830152612d608184612ce2565b905095945050505050565b612d74816121a6565b8114612d7e575f80fd5b50565b5f81519050612d8f81612d6b565b92915050565b5f60208284031215612daa57612da9611faf565b5b5f612db784828501612d81565b91505092915050565b7f747275737465642049737375657220616c7265616479206578697374730000005f82015250565b5f612df4601d836124df565b9150612dff82612dc0565b602082019050919050565b5f6020820190508181035f830152612e2181612de8565b9050919050565b7f7472757374656420636c61696d20746f706963732063616e6e6f7420626520655f8201527f6d70747900000000000000000000000000000000000000000000000000000000602082015250565b5f612e826024836124df565b9150612e8d82612e28565b604082019050919050565b5f6020820190508181035f830152612eaf81612e76565b9050919050565b7f63616e6e6f742068617665206d6f7265207468616e20353020747275737465645f8201527f2069737375657273000000000000000000000000000000000000000000000000602082015250565b5f612f106028836124df565b9150612f1b82612eb6565b604082019050919050565b5f6020820190508181035f830152612f3d81612f04565b9050919050565b7f747275737465642049737375657220646f65736e2774206578697374000000005f82015250565b5f612f78601c836124df565b9150612f8382612f44565b602082019050919050565b5f6020820190508181035f830152612fa581612f6c565b9050919050565b7f63616e6e6f742072657175697265206d6f7265207468616e20313520746f70695f8201527f6373000000000000000000000000000000000000000000000000000000000000602082015250565b5f6130066022836124df565b915061301182612fac565b604082019050919050565b5f6020820190508181035f83015261303381612ffa565b9050919050565b7f636c61696d546f70696320616c726561647920657869737473000000000000005f82015250565b5f61306e6019836124df565b91506130798261303a565b602082019050919050565b5f6020820190508181035f83015261309b81613062565b905091905056fea2646970667358221220c4e9276c8565823d82de4dc1a2846d0e8abbda47f609f07cb84265fb6349d39b64736f6c63430008140033",
			"opcodes": "PUSH1 0x80 PUSH1 0x40 MSTORE CALLVALUE DUP1 ISZERO PUSH3 0x10 JUMPI PUSH0 DUP1 REVERT JUMPDEST POP CALLER PUSH0 PUSH20 0xFFFFFFFFFFFFFFFFFFFFFFFFFFFFFFFFFFFFFFFF AND DUP2 PUSH20 0xFFFFFFFFFFFFFFFFFFFFFFFFFFFFFFFFFFFFFFFF AND SUB PUSH3 0x85 JUMPI PUSH0 PUSH1 0x40 MLOAD PUSH32 0x1E4FBDF700000000000000000000000000000000000000000000000000000000 DUP2 MSTORE PUSH1 0x4 ADD PUSH3 0x7C SWAP2 SWAP1 PUSH3 0x1A1 JUMP JUMPDEST PUSH1 0x40 MLOAD DUP1 SWAP2 SUB SWAP1 REVERT JUMPDEST PUSH3 0x96 DUP2 PUSH3 0x9D PUSH1 0x20 SHL PUSH1 0x20 SHR JUMP JUMPDEST POP PUSH3 0x1BC JUMP JUMPDEST PUSH0 DUP1 PUSH0 SWAP1 SLOAD SWAP1 PUSH2 0x100 EXP SWAP1 DIV PUSH20 0xFFFFFFFFFFFFFFFFFFFFFFFFFFFFFFFFFFFFFFFF AND SWAP1 POP DUP2 PUSH0 DUP1 PUSH2 0x100 EXP DUP2 SLOAD DUP2 PUSH20 0xFFFFFFFFFFFFFFFFFFFFFFFFFFFFFFFFFFFFFFFF MUL NOT AND SWAP1 DUP4 PUSH20 0xFFFFFFFFFFFFFFFFFFFFFFFFFFFFFFFFFFFFFFFF AND MUL OR SWAP1 SSTORE POP DUP2 PUSH20 0xFFFFFFFFFFFFFFFFFFFFFFFFFFFFFFFFFFFFFFFF AND DUP2 PUSH20 0xFFFFFFFFFFFFFFFFFFFFFFFFFFFFFFFFFFFFFFFF AND PUSH32 0x8BE0079C531659141344CD1FD0A4F28419497F9722A3DAAFE3B4186F6B6457E0 PUSH1 0x40 MLOAD PUSH1 0x40 MLOAD DUP1 SWAP2 SUB SWAP1 LOG3 POP POP JUMP JUMPDEST PUSH0 PUSH20 0xFFFFFFFFFFFFFFFFFFFFFFFFFFFFFFFFFFFFFFFF DUP3 AND SWAP1 POP SWAP2 SWAP1 POP JUMP JUMPDEST PUSH0 PUSH3 0x189 DUP3 PUSH3 0x15E JUMP JUMPDEST SWAP1 POP SWAP2 SWAP1 POP JUMP JUMPDEST PUSH3 0x19B DUP2 PUSH3 0x17D JUMP JUMPDEST DUP3 MSTORE POP POP JUMP JUMPDEST PUSH0 PUSH1 0x20 DUP3 ADD SWAP1 POP PUSH3 0x1B6 PUSH0 DUP4 ADD DUP5 PUSH3 0x190 JUMP JUMPDEST SWAP3 SWAP2 POP POP JUMP JUMPDEST PUSH2 0x30D8 DUP1 PUSH3 0x1CA PUSH0 CODECOPY PUSH0 RETURN INVALID PUSH1 0x80 PUSH1 0x40 MSTORE CALLVALUE DUP1 ISZERO PUSH2 0xF JUMPI PUSH0 DUP1 REVERT JUMPDEST POP PUSH1 0x4 CALLDATASIZE LT PUSH2 0x11F JUMPI PUSH0 CALLDATALOAD PUSH1 0xE0 SHR DUP1 PUSH4 0xB5FA8693 GT PUSH2 0xAB JUMPI DUP1 PUSH4 0xC7B22551 GT PUSH2 0x6F JUMPI DUP1 PUSH4 0xC7B22551 EQ PUSH2 0x33B JUMPI DUP1 PUSH4 0xC801DD40 EQ PUSH2 0x357 JUMPI DUP1 PUSH4 0xD9DD24C5 EQ PUSH2 0x387 JUMPI DUP1 PUSH4 0xEF2ED1A4 EQ PUSH2 0x3A5 JUMPI DUP1 PUSH4 0xF2FDE38B EQ PUSH2 0x3D5 JUMPI PUSH2 0x11F JUMP JUMPDEST DUP1 PUSH4 0xB5FA8693 EQ PUSH2 0x25F JUMPI DUP1 PUSH4 0xB93D28EB EQ PUSH2 0x28F JUMPI DUP1 PUSH4 0xBA64C341 EQ PUSH2 0x2AB JUMPI DUP1 PUSH4 0xBE36359F EQ PUSH2 0x2DB JUMPI DUP1 PUSH4 0xC28FB278 EQ PUSH2 0x30B JUMPI PUSH2 0x11F JUMP JUMPDEST DUP1 PUSH4 0x63A9C3D7 GT PUSH2 0xF2 JUMPI DUP1 PUSH4 0x63A9C3D7 EQ PUSH2 0x1BB JUMPI DUP1 PUSH4 0x715018A6 EQ PUSH2 0x1EB JUMPI DUP1 PUSH4 0x8DA5CB5B EQ PUSH2 0x1F5 JUMPI DUP1 PUSH4 0x93E9F801 EQ PUSH2 0x213 JUMPI DUP1 PUSH4 0x9F63EA98 EQ PUSH2 0x243 JUMPI PUSH2 0x11F JUMP JUMPDEST DUP1 PUSH4 0x4BC7E84 EQ PUSH2 0x123 JUMPI DUP1 PUSH4 0x8297846 EQ PUSH2 0x13F JUMPI DUP1 PUSH4 0x34A89987 EQ PUSH2 0x15B JUMPI DUP1 PUSH4 0x52C111D1 EQ PUSH2 0x18B JUMPI JUMPDEST PUSH0 DUP1 REVERT JUMPDEST PUSH2 0x13D PUSH1 0x4 DUP1 CALLDATASIZE SUB DUP2 ADD SWAP1 PUSH2 0x138 SWAP2 SWAP1 PUSH2 0x2083 JUMP JUMPDEST PUSH2 0x3F1 JUMP JUMPDEST STOP JUMPDEST PUSH2 0x159 PUSH1 0x4 DUP1 CALLDATASIZE SUB DUP2 ADD SWAP1 PUSH2 0x154 SWAP2 SWAP1 PUSH2 0x2113 JUMP JUMPDEST PUSH2 0x945 JUMP JUMPDEST STOP JUMPDEST PUSH2 0x175 PUSH1 0x4 DUP1 CALLDATASIZE SUB DUP2 ADD SWAP1 PUSH2 0x170 SWAP2 SWAP1 PUSH2 0x2168 JUMP JUMPDEST PUSH2 0xA3A JUMP JUMPDEST PUSH1 0x40 MLOAD PUSH2 0x182 SWAP2 SWAP1 PUSH2 0x21C0 JUMP JUMPDEST PUSH1 0x40 MLOAD DUP1 SWAP2 SUB SWAP1 RETURN JUMPDEST PUSH2 0x1A5 PUSH1 0x4 DUP1 CALLDATASIZE SUB DUP2 ADD SWAP1 PUSH2 0x1A0 SWAP2 SWAP1 PUSH2 0x2113 JUMP JUMPDEST PUSH2 0xB24 JUMP JUMPDEST PUSH1 0x40 MLOAD PUSH2 0x1B2 SWAP2 SWAP1 PUSH2 0x22DC JUMP JUMPDEST PUSH1 0x40 MLOAD DUP1 SWAP2 SUB SWAP1 RETURN JUMPDEST PUSH2 0x1D5 PUSH1 0x4 DUP1 CALLDATASIZE SUB DUP2 ADD SWAP1 PUSH2 0x1D0 SWAP2 SWAP1 PUSH2 0x22FC JUMP JUMPDEST PUSH2 0xBC0 JUMP JUMPDEST PUSH1 0x40 MLOAD PUSH2 0x1E2 SWAP2 SWAP1 PUSH2 0x21C0 JUMP JUMPDEST PUSH1 0x40 MLOAD DUP1 SWAP2 SUB SWAP1 RETURN JUMPDEST PUSH2 0x1F3 PUSH2 0xFC3 JUMP JUMPDEST STOP JUMPDEST PUSH2 0x1FD PUSH2 0xFD6 JUMP JUMPDEST PUSH1 0x40 MLOAD PUSH2 0x20A SWAP2 SWAP1 PUSH2 0x2336 JUMP JUMPDEST PUSH1 0x40 MLOAD DUP1 SWAP2 SUB SWAP1 RETURN JUMPDEST PUSH2 0x22D PUSH1 0x4 DUP1 CALLDATASIZE SUB DUP2 ADD SWAP1 PUSH2 0x228 SWAP2 SWAP1 PUSH2 0x234F JUMP JUMPDEST PUSH2 0xFFD JUMP JUMPDEST PUSH1 0x40 MLOAD PUSH2 0x23A SWAP2 SWAP1 PUSH2 0x239C JUMP JUMPDEST PUSH1 0x40 MLOAD DUP1 SWAP2 SUB SWAP1 RETURN JUMPDEST PUSH2 0x25D PUSH1 0x4 DUP1 CALLDATASIZE SUB DUP2 ADD SWAP1 PUSH2 0x258 SWAP2 SWAP1 PUSH2 0x2083 JUMP JUMPDEST PUSH2 0x1045 JUMP JUMPDEST STOP JUMPDEST PUSH2 0x279 PUSH1 0x4 DUP1 CALLDATASIZE SUB DUP2 ADD SWAP1 PUSH2 0x274 SWAP2 SWAP1 PUSH2 0x2113 JUMP JUMPDEST PUSH2 0x13BC JUMP JUMPDEST PUSH1 0x40 MLOAD PUSH2 0x286 SWAP2 SWAP1 PUSH2 0x23C4 JUMP JUMPDEST PUSH1 0x40 MLOAD DUP1 SWAP2 SUB SWAP1 RETURN JUMPDEST PUSH2 0x2A9 PUSH1 0x4 DUP1 CALLDATASIZE SUB DUP2 ADD SWAP1 PUSH2 0x2A4 SWAP2 SWAP1 PUSH2 0x23DD JUMP JUMPDEST PUSH2 0x13DC JUMP JUMPDEST STOP JUMPDEST PUSH2 0x2C5 PUSH1 0x4 DUP1 CALLDATASIZE SUB DUP2 ADD SWAP1 PUSH2 0x2C0 SWAP2 SWAP1 PUSH2 0x2168 JUMP JUMPDEST PUSH2 0x1967 JUMP JUMPDEST PUSH1 0x40 MLOAD PUSH2 0x2D2 SWAP2 SWAP1 PUSH2 0x23C4 JUMP JUMPDEST PUSH1 0x40 MLOAD DUP1 SWAP2 SUB SWAP1 RETURN JUMPDEST PUSH2 0x2F5 PUSH1 0x4 DUP1 CALLDATASIZE SUB DUP2 ADD SWAP1 PUSH2 0x2F0 SWAP2 SWAP1 PUSH2 0x2113 JUMP JUMPDEST PUSH2 0x1992 JUMP JUMPDEST PUSH1 0x40 MLOAD PUSH2 0x302 SWAP2 SWAP1 PUSH2 0x21C0 JUMP JUMPDEST PUSH1 0x40 MLOAD DUP1 SWAP2 SUB SWAP1 RETURN JUMPDEST PUSH2 0x325 PUSH1 0x4 DUP1 CALLDATASIZE SUB DUP2 ADD SWAP1 PUSH2 0x320 SWAP2 SWAP1 PUSH2 0x23DD JUMP JUMPDEST PUSH2 0x19F2 JUMP JUMPDEST PUSH1 0x40 MLOAD PUSH2 0x332 SWAP2 SWAP1 PUSH2 0x24BF JUMP JUMPDEST PUSH1 0x40 MLOAD DUP1 SWAP2 SUB SWAP1 RETURN JUMPDEST PUSH2 0x355 PUSH1 0x4 DUP1 CALLDATASIZE SUB DUP2 ADD SWAP1 PUSH2 0x350 SWAP2 SWAP1 PUSH2 0x2113 JUMP JUMPDEST PUSH2 0x1B07 JUMP JUMPDEST STOP JUMPDEST PUSH2 0x371 PUSH1 0x4 DUP1 CALLDATASIZE SUB DUP2 ADD SWAP1 PUSH2 0x36C SWAP2 SWAP1 PUSH2 0x2113 JUMP JUMPDEST PUSH2 0x1C2E JUMP JUMPDEST PUSH1 0x40 MLOAD PUSH2 0x37E SWAP2 SWAP1 PUSH2 0x239C JUMP JUMPDEST PUSH1 0x40 MLOAD DUP1 SWAP2 SUB SWAP1 RETURN JUMPDEST PUSH2 0x38F PUSH2 0x1C69 JUMP JUMPDEST PUSH1 0x40 MLOAD PUSH2 0x39C SWAP2 SWAP1 PUSH2 0x22DC JUMP JUMPDEST PUSH1 0x40 MLOAD DUP1 SWAP2 SUB SWAP1 RETURN JUMPDEST PUSH2 0x3BF PUSH1 0x4 DUP1 CALLDATASIZE SUB DUP2 ADD SWAP1 PUSH2 0x3BA SWAP2 SWAP1 PUSH2 0x22FC JUMP JUMPDEST PUSH2 0x1CF4 JUMP JUMPDEST PUSH1 0x40 MLOAD PUSH2 0x3CC SWAP2 SWAP1 PUSH2 0x21C0 JUMP JUMPDEST PUSH1 0x40 MLOAD DUP1 SWAP2 SUB SWAP1 RETURN JUMPDEST PUSH2 0x3EF PUSH1 0x4 DUP1 CALLDATASIZE SUB DUP2 ADD SWAP1 PUSH2 0x3EA SWAP2 SWAP1 PUSH2 0x22FC JUMP JUMPDEST PUSH2 0x1D4F JUMP JUMPDEST STOP JUMPDEST PUSH2 0x3F9 PUSH2 0x1DD3 JUMP JUMPDEST PUSH0 PUSH20 0xFFFFFFFFFFFFFFFFFFFFFFFFFFFFFFFFFFFFFFFF AND DUP4 PUSH20 0xFFFFFFFFFFFFFFFFFFFFFFFFFFFFFFFFFFFFFFFF AND SUB PUSH2 0x467 JUMPI PUSH1 0x40 MLOAD PUSH32 0x8C379A000000000000000000000000000000000000000000000000000000000 DUP2 MSTORE PUSH1 0x4 ADD PUSH2 0x45E SWAP1 PUSH2 0x2539 JUMP JUMPDEST PUSH1 0x40 MLOAD DUP1 SWAP2 SUB SWAP1 REVERT JUMPDEST PUSH0 PUSH1 0x3 PUSH0 DUP6 PUSH20 0xFFFFFFFFFFFFFFFFFFFFFFFFFFFFFFFFFFFFFFFF AND PUSH20 0xFFFFFFFFFFFFFFFFFFFFFFFFFFFFFFFFFFFFFFFF AND DUP2 MSTORE PUSH1 0x20 ADD SWAP1 DUP2 MSTORE PUSH1 0x20 ADD PUSH0 KECCAK256 DUP1 SLOAD SWAP1 POP SUB PUSH2 0x4E9 JUMPI PUSH1 0x40 MLOAD PUSH32 0x8C379A000000000000000000000000000000000000000000000000000000000 DUP2 MSTORE PUSH1 0x4 ADD PUSH2 0x4E0 SWAP1 PUSH2 0x25A1 JUMP JUMPDEST PUSH1 0x40 MLOAD DUP1 SWAP2 SUB SWAP1 REVERT JUMPDEST PUSH1 0xF DUP3 DUP3 SWAP1 POP GT ISZERO PUSH2 0x530 JUMPI PUSH1 0x40 MLOAD PUSH32 0x8C379A000000000000000000000000000000000000000000000000000000000 DUP2 MSTORE PUSH1 0x4 ADD PUSH2 0x527 SWAP1 PUSH2 0x262F JUMP JUMPDEST PUSH1 0x40 MLOAD DUP1 SWAP2 SUB SWAP1 REVERT JUMPDEST PUSH0 DUP3 DUP3 SWAP1 POP GT PUSH2 0x575 JUMPI PUSH1 0x40 MLOAD PUSH32 0x8C379A000000000000000000000000000000000000000000000000000000000 DUP2 MSTORE PUSH1 0x4 ADD PUSH2 0x56C SWAP1 PUSH2 0x2697 JUMP JUMPDEST PUSH1 0x40 MLOAD DUP1 SWAP2 SUB SWAP1 REVERT JUMPDEST PUSH0 JUMPDEST PUSH1 0x3 PUSH0 DUP6 PUSH20 0xFFFFFFFFFFFFFFFFFFFFFFFFFFFFFFFFFFFFFFFF AND PUSH20 0xFFFFFFFFFFFFFFFFFFFFFFFFFFFFFFFFFFFFFFFF AND DUP2 MSTORE PUSH1 0x20 ADD SWAP1 DUP2 MSTORE PUSH1 0x20 ADD PUSH0 KECCAK256 DUP1 SLOAD SWAP1 POP DUP2 LT ISZERO PUSH2 0x7F9 JUMPI PUSH0 PUSH1 0x3 PUSH0 DUP7 PUSH20 0xFFFFFFFFFFFFFFFFFFFFFFFFFFFFFFFFFFFFFFFF AND PUSH20 0xFFFFFFFFFFFFFFFFFFFFFFFFFFFFFFFFFFFFFFFF AND DUP2 MSTORE PUSH1 0x20 ADD SWAP1 DUP2 MSTORE PUSH1 0x20 ADD PUSH0 KECCAK256 DUP3 DUP2 SLOAD DUP2 LT PUSH2 0x60F JUMPI PUSH2 0x60E PUSH2 0x26B5 JUMP JUMPDEST JUMPDEST SWAP1 PUSH0 MSTORE PUSH1 0x20 PUSH0 KECCAK256 ADD SLOAD SWAP1 POP PUSH0 PUSH1 0x4 PUSH0 DUP4 DUP2 MSTORE PUSH1 0x20 ADD SWAP1 DUP2 MSTORE PUSH1 0x20 ADD PUSH0 KECCAK256 DUP1 SLOAD SWAP1 POP SWAP1 POP PUSH0 JUMPDEST DUP2 DUP2 LT ISZERO PUSH2 0x7E3 JUMPI DUP7 PUSH20 0xFFFFFFFFFFFFFFFFFFFFFFFFFFFFFFFFFFFFFFFF AND PUSH1 0x4 PUSH0 DUP6 DUP2 MSTORE PUSH1 0x20 ADD SWAP1 DUP2 MSTORE PUSH1 0x20 ADD PUSH0 KECCAK256 DUP3 DUP2 SLOAD DUP2 LT PUSH2 0x676 JUMPI PUSH2 0x675 PUSH2 0x26B5 JUMP JUMPDEST JUMPDEST SWAP1 PUSH0 MSTORE PUSH1 0x20 PUSH0 KECCAK256 ADD PUSH0 SWAP1 SLOAD SWAP1 PUSH2 0x100 EXP SWAP1 DIV PUSH20 0xFFFFFFFFFFFFFFFFFFFFFFFFFFFFFFFFFFFFFFFF AND PUSH20 0xFFFFFFFFFFFFFFFFFFFFFFFFFFFFFFFFFFFFFFFF AND SUB PUSH2 0x7D0 JUMPI PUSH1 0x4 PUSH0 DUP5 DUP2 MSTORE PUSH1 0x20 ADD SWAP1 DUP2 MSTORE PUSH1 0x20 ADD PUSH0 KECCAK256 PUSH1 0x1 DUP4 PUSH2 0x6D7 SWAP2 SWAP1 PUSH2 0x270F JUMP JUMPDEST DUP2 SLOAD DUP2 LT PUSH2 0x6E8 JUMPI PUSH2 0x6E7 PUSH2 0x26B5 JUMP JUMPDEST JUMPDEST SWAP1 PUSH0 MSTORE PUSH1 0x20 PUSH0 KECCAK256 ADD PUSH0 SWAP1 SLOAD SWAP1 PUSH2 0x100 EXP SWAP1 DIV PUSH20 0xFFFFFFFFFFFFFFFFFFFFFFFFFFFFFFFFFFFFFFFF AND PUSH1 0x4 PUSH0 DUP6 DUP2 MSTORE PUSH1 0x20 ADD SWAP1 DUP2 MSTORE PUSH1 0x20 ADD PUSH0 KECCAK256 DUP3 DUP2 SLOAD DUP2 LT PUSH2 0x733 JUMPI PUSH2 0x732 PUSH2 0x26B5 JUMP JUMPDEST JUMPDEST SWAP1 PUSH0 MSTORE PUSH1 0x20 PUSH0 KECCAK256 ADD PUSH0 PUSH2 0x100 EXP DUP2 SLOAD DUP2 PUSH20 0xFFFFFFFFFFFFFFFFFFFFFFFFFFFFFFFFFFFFFFFF MUL NOT AND SWAP1 DUP4 PUSH20 0xFFFFFFFFFFFFFFFFFFFFFFFFFFFFFFFFFFFFFFFF AND MUL OR SWAP1 SSTORE POP PUSH1 0x4 PUSH0 DUP5 DUP2 MSTORE PUSH1 0x20 ADD SWAP1 DUP2 MSTORE PUSH1 0x20 ADD PUSH0 KECCAK256 DUP1 SLOAD DUP1 PUSH2 0x799 JUMPI PUSH2 0x798 PUSH2 0x2742 JUMP JUMPDEST JUMPDEST PUSH1 0x1 SWAP1 SUB DUP2 DUP2 SWAP1 PUSH0 MSTORE PUSH1 0x20 PUSH0 KECCAK256 ADD PUSH0 PUSH2 0x100 EXP DUP2 SLOAD SWAP1 PUSH20 0xFFFFFFFFFFFFFFFFFFFFFFFFFFFFFFFFFFFFFFFF MUL NOT AND SWAP1 SSTORE SWAP1 SSTORE PUSH2 0x7E3 JUMP JUMPDEST DUP1 DUP1 PUSH2 0x7DB SWAP1 PUSH2 0x276F JUMP JUMPDEST SWAP2 POP POP PUSH2 0x634 JUMP JUMPDEST POP POP POP DUP1 DUP1 PUSH2 0x7F1 SWAP1 PUSH2 0x276F JUMP JUMPDEST SWAP2 POP POP PUSH2 0x577 JUMP JUMPDEST POP DUP2 DUP2 PUSH1 0x3 PUSH0 DUP7 PUSH20 0xFFFFFFFFFFFFFFFFFFFFFFFFFFFFFFFFFFFFFFFF AND PUSH20 0xFFFFFFFFFFFFFFFFFFFFFFFFFFFFFFFFFFFFFFFF AND DUP2 MSTORE PUSH1 0x20 ADD SWAP1 DUP2 MSTORE PUSH1 0x20 ADD PUSH0 KECCAK256 SWAP2 SWAP1 PUSH2 0x846 SWAP3 SWAP2 SWAP1 PUSH2 0x1F22 JUMP JUMPDEST POP PUSH0 JUMPDEST DUP3 DUP3 SWAP1 POP DUP2 LT ISZERO PUSH2 0x8EF JUMPI PUSH1 0x4 PUSH0 DUP5 DUP5 DUP5 DUP2 DUP2 LT PUSH2 0x86A JUMPI PUSH2 0x869 PUSH2 0x26B5 JUMP JUMPDEST JUMPDEST SWAP1 POP PUSH1 0x20 MUL ADD CALLDATALOAD DUP2 MSTORE PUSH1 0x20 ADD SWAP1 DUP2 MSTORE PUSH1 0x20 ADD PUSH0 KECCAK256 DUP5 SWAP1 DUP1 PUSH1 0x1 DUP2 SLOAD ADD DUP1 DUP3 SSTORE DUP1 SWAP2 POP POP PUSH1 0x1 SWAP1 SUB SWAP1 PUSH0 MSTORE PUSH1 0x20 PUSH0 KECCAK256 ADD PUSH0 SWAP1 SWAP2 SWAP1 SWAP2 SWAP1 SWAP2 PUSH2 0x100 EXP DUP2 SLOAD DUP2 PUSH20 0xFFFFFFFFFFFFFFFFFFFFFFFFFFFFFFFFFFFFFFFF MUL NOT AND SWAP1 DUP4 PUSH20 0xFFFFFFFFFFFFFFFFFFFFFFFFFFFFFFFFFFFFFFFF AND MUL OR SWAP1 SSTORE POP DUP1 DUP1 PUSH2 0x8E7 SWAP1 PUSH2 0x276F JUMP JUMPDEST SWAP2 POP POP PUSH2 0x849 JUMP JUMPDEST POP DUP3 PUSH20 0xFFFFFFFFFFFFFFFFFFFFFFFFFFFFFFFFFFFFFFFF AND PUSH32 0xEC753CFC52044F61676F18A11E500093A9F2B1CD5E4942BC476F2B0438159BCF DUP4 DUP4 PUSH1 0x40 MLOAD PUSH2 0x938 SWAP3 SWAP2 SWAP1 PUSH2 0x281E JUMP JUMPDEST PUSH1 0x40 MLOAD DUP1 SWAP2 SUB SWAP1 LOG2 POP POP POP JUMP JUMPDEST PUSH2 0x94D PUSH2 0x1DD3 JUMP JUMPDEST PUSH0 PUSH1 0x1 DUP1 SLOAD SWAP1 POP SWAP1 POP PUSH0 JUMPDEST DUP2 DUP2 LT ISZERO PUSH2 0xA35 JUMPI DUP3 PUSH1 0x1 DUP3 DUP2 SLOAD DUP2 LT PUSH2 0x975 JUMPI PUSH2 0x974 PUSH2 0x26B5 JUMP JUMPDEST JUMPDEST SWAP1 PUSH0 MSTORE PUSH1 0x20 PUSH0 KECCAK256 ADD SLOAD SUB PUSH2 0xA22 JUMPI PUSH1 0x1 DUP1 DUP4 PUSH2 0x991 SWAP2 SWAP1 PUSH2 0x270F JUMP JUMPDEST DUP2 SLOAD DUP2 LT PUSH2 0x9A2 JUMPI PUSH2 0x9A1 PUSH2 0x26B5 JUMP JUMPDEST JUMPDEST SWAP1 PUSH0 MSTORE PUSH1 0x20 PUSH0 KECCAK256 ADD SLOAD PUSH1 0x1 DUP3 DUP2 SLOAD DUP2 LT PUSH2 0x9BF JUMPI PUSH2 0x9BE PUSH2 0x26B5 JUMP JUMPDEST JUMPDEST SWAP1 PUSH0 MSTORE PUSH1 0x20 PUSH0 KECCAK256 ADD DUP2 SWAP1 SSTORE POP PUSH1 0x1 DUP1 SLOAD DUP1 PUSH2 0x9DD JUMPI PUSH2 0x9DC PUSH2 0x2742 JUMP JUMPDEST JUMPDEST PUSH1 0x1 SWAP1 SUB DUP2 DUP2 SWAP1 PUSH0 MSTORE PUSH1 0x20 PUSH0 KECCAK256 ADD PUSH0 SWAP1 SSTORE SWAP1 SSTORE DUP3 PUSH32 0xB1381093C776453C1BBE54FD68BE1B235C65DB61D099CB50D194B2991E0EEC5 PUSH1 0x40 MLOAD PUSH1 0x40 MLOAD DUP1 SWAP2 SUB SWAP1 LOG2 PUSH2 0xA35 JUMP JUMPDEST DUP1 DUP1 PUSH2 0xA2D SWAP1 PUSH2 0x276F JUMP JUMPDEST SWAP2 POP POP PUSH2 0x958 JUMP JUMPDEST POP POP POP JUMP JUMPDEST PUSH0 DUP1 PUSH1 0x3 PUSH0 DUP6 PUSH20 0xFFFFFFFFFFFFFFFFFFFFFFFFFFFFFFFFFFFFFFFF AND PUSH20 0xFFFFFFFFFFFFFFFFFFFFFFFFFFFFFFFFFFFFFFFF AND DUP2 MSTORE PUSH1 0x20 ADD SWAP1 DUP2 MSTORE PUSH1 0x20 ADD PUSH0 KECCAK256 DUP1 SLOAD DUP1 PUSH1 0x20 MUL PUSH1 0x20 ADD PUSH1 0x40 MLOAD SWAP1 DUP2 ADD PUSH1 0x40 MSTORE DUP1 SWAP3 SWAP2 SWAP1 DUP2 DUP2 MSTORE PUSH1 0x20 ADD DUP3 DUP1 SLOAD DUP1 ISZERO PUSH2 0xAC1 JUMPI PUSH1 0x20 MUL DUP3 ADD SWAP2 SWAP1 PUSH0 MSTORE PUSH1 0x20 PUSH0 KECCAK256 SWAP1 JUMPDEST DUP2 SLOAD DUP2 MSTORE PUSH1 0x20 ADD SWAP1 PUSH1 0x1 ADD SWAP1 DUP1 DUP4 GT PUSH2 0xAAD JUMPI JUMPDEST POP POP POP POP POP SWAP1 POP PUSH0 DUP2 MLOAD SWAP1 POP PUSH0 JUMPDEST DUP2 DUP2 LT ISZERO PUSH2 0xB17 JUMPI DUP5 DUP4 DUP3 DUP2 MLOAD DUP2 LT PUSH2 0xAEB JUMPI PUSH2 0xAEA PUSH2 0x26B5 JUMP JUMPDEST JUMPDEST PUSH1 0x20 MUL PUSH1 0x20 ADD ADD MLOAD SUB PUSH2 0xB04 JUMPI PUSH1 0x1 SWAP4 POP POP POP POP PUSH2 0xB1E JUMP JUMPDEST DUP1 DUP1 PUSH2 0xB0F SWAP1 PUSH2 0x276F JUMP JUMPDEST SWAP2 POP POP PUSH2 0xACF JUMP JUMPDEST POP PUSH0 SWAP3 POP POP POP JUMPDEST SWAP3 SWAP2 POP POP JUMP JUMPDEST PUSH1 0x60 PUSH1 0x4 PUSH0 DUP4 DUP2 MSTORE PUSH1 0x20 ADD SWAP1 DUP2 MSTORE PUSH1 0x20 ADD PUSH0 KECCAK256 DUP1 SLOAD DUP1 PUSH1 0x20 MUL PUSH1 0x20 ADD PUSH1 0x40 MLOAD SWAP1 DUP2 ADD PUSH1 0x40 MSTORE DUP1 SWAP3 SWAP2 SWAP1 DUP2 DUP2 MSTORE PUSH1 0x20 ADD DUP3 DUP1 SLOAD DUP1 ISZERO PUSH2 0xBB4 JUMPI PUSH1 0x20 MUL DUP3 ADD SWAP2 SWAP1 PUSH0 MSTORE PUSH1 0x20 PUSH0 KECCAK256 SWAP1 JUMPDEST DUP2 PUSH0 SWAP1 SLOAD SWAP1 PUSH2 0x100 EXP SWAP1 DIV PUSH20 0xFFFFFFFFFFFFFFFFFFFFFFFFFFFFFFFFFFFFFFFF AND PUSH20 0xFFFFFFFFFFFFFFFFFFFFFFFFFFFFFFFFFFFFFFFF AND DUP2 MSTORE PUSH1 0x20 ADD SWAP1 PUSH1 0x1 ADD SWAP1 DUP1 DUP4 GT PUSH2 0xB6B JUMPI JUMPDEST POP POP POP POP POP SWAP1 POP SWAP2 SWAP1 POP JUMP JUMPDEST PUSH0 DUP1 PUSH1 0x1 DUP1 SLOAD SWAP1 POP SUB PUSH2 0xBD6 JUMPI PUSH1 0x1 SWAP1 POP PUSH2 0xFBE JUMP JUMPDEST PUSH0 DUP1 PUSH0 PUSH1 0x60 DUP1 PUSH0 JUMPDEST PUSH1 0x1 DUP1 SLOAD SWAP1 POP DUP2 LT ISZERO PUSH2 0xFB3 JUMPI PUSH0 ADDRESS PUSH20 0xFFFFFFFFFFFFFFFFFFFFFFFFFFFFFFFFFFFFFFFF AND PUSH4 0x52C111D1 PUSH1 0x1 DUP5 DUP2 SLOAD DUP2 LT PUSH2 0xC1C JUMPI PUSH2 0xC1B PUSH2 0x26B5 JUMP JUMPDEST JUMPDEST SWAP1 PUSH0 MSTORE PUSH1 0x20 PUSH0 KECCAK256 ADD SLOAD PUSH1 0x40 MLOAD DUP3 PUSH4 0xFFFFFFFF AND PUSH1 0xE0 SHL DUP2 MSTORE PUSH1 0x4 ADD PUSH2 0xC41 SWAP2 SWAP1 PUSH2 0x23C4 JUMP JUMPDEST PUSH0 PUSH1 0x40 MLOAD DUP1 DUP4 SUB DUP2 DUP7 GAS STATICCALL ISZERO DUP1 ISZERO PUSH2 0xC5B JUMPI RETURNDATASIZE PUSH0 DUP1 RETURNDATACOPY RETURNDATASIZE PUSH0 REVERT JUMPDEST POP POP POP POP PUSH1 0x40 MLOAD RETURNDATASIZE PUSH0 DUP3 RETURNDATACOPY RETURNDATASIZE PUSH1 0x1F NOT PUSH1 0x1F DUP3 ADD AND DUP3 ADD DUP1 PUSH1 0x40 MSTORE POP DUP2 ADD SWAP1 PUSH2 0xC83 SWAP2 SWAP1 PUSH2 0x299C JUMP JUMPDEST SWAP1 POP PUSH0 DUP2 MLOAD SUB PUSH2 0xC9C JUMPI PUSH0 SWAP8 POP POP POP POP POP POP POP POP PUSH2 0xFBE JUMP JUMPDEST PUSH0 DUP2 MLOAD PUSH8 0xFFFFFFFFFFFFFFFF DUP2 GT ISZERO PUSH2 0xCB8 JUMPI PUSH2 0xCB7 PUSH2 0x2850 JUMP JUMPDEST JUMPDEST PUSH1 0x40 MLOAD SWAP1 DUP1 DUP3 MSTORE DUP1 PUSH1 0x20 MUL PUSH1 0x20 ADD DUP3 ADD PUSH1 0x40 MSTORE DUP1 ISZERO PUSH2 0xCE6 JUMPI DUP2 PUSH1 0x20 ADD PUSH1 0x20 DUP3 MUL DUP1 CALLDATASIZE DUP4 CALLDATACOPY DUP1 DUP3 ADD SWAP2 POP POP SWAP1 POP JUMPDEST POP SWAP1 POP PUSH0 JUMPDEST DUP3 MLOAD DUP2 LT ISZERO PUSH2 0xD85 JUMPI DUP3 DUP2 DUP2 MLOAD DUP2 LT PUSH2 0xD07 JUMPI PUSH2 0xD06 PUSH2 0x26B5 JUMP JUMPDEST JUMPDEST PUSH1 0x20 MUL PUSH1 0x20 ADD ADD MLOAD PUSH1 0x1 DUP6 DUP2 SLOAD DUP2 LT PUSH2 0xD23 JUMPI PUSH2 0xD22 PUSH2 0x26B5 JUMP JUMPDEST JUMPDEST SWAP1 PUSH0 MSTORE PUSH1 0x20 PUSH0 KECCAK256 ADD SLOAD PUSH1 0x40 MLOAD PUSH1 0x20 ADD PUSH2 0xD3D SWAP3 SWAP2 SWAP1 PUSH2 0x29E3 JUMP JUMPDEST PUSH1 0x40 MLOAD PUSH1 0x20 DUP2 DUP4 SUB SUB DUP2 MSTORE SWAP1 PUSH1 0x40 MSTORE DUP1 MLOAD SWAP1 PUSH1 0x20 ADD KECCAK256 DUP3 DUP3 DUP2 MLOAD DUP2 LT PUSH2 0xD66 JUMPI PUSH2 0xD65 PUSH2 0x26B5 JUMP JUMPDEST JUMPDEST PUSH1 0x20 MUL PUSH1 0x20 ADD ADD DUP2 DUP2 MSTORE POP POP DUP1 DUP1 PUSH2 0xD7D SWAP1 PUSH2 0x276F JUMP JUMPDEST SWAP2 POP POP PUSH2 0xCEB JUMP JUMPDEST POP PUSH0 JUMPDEST DUP2 MLOAD DUP2 LT ISZERO PUSH2 0xF9D JUMPI DUP11 PUSH20 0xFFFFFFFFFFFFFFFFFFFFFFFFFFFFFFFFFFFFFFFF AND PUSH4 0xC9100BCB DUP4 DUP4 DUP2 MLOAD DUP2 LT PUSH2 0xDC0 JUMPI PUSH2 0xDBF PUSH2 0x26B5 JUMP JUMPDEST JUMPDEST PUSH1 0x20 MUL PUSH1 0x20 ADD ADD MLOAD PUSH1 0x40 MLOAD DUP3 PUSH4 0xFFFFFFFF AND PUSH1 0xE0 SHL DUP2 MSTORE PUSH1 0x4 ADD PUSH2 0xDE4 SWAP2 SWAP1 PUSH2 0x2A22 JUMP JUMPDEST PUSH0 PUSH1 0x40 MLOAD DUP1 DUP4 SUB DUP2 DUP7 GAS STATICCALL ISZERO DUP1 ISZERO PUSH2 0xDFE JUMPI RETURNDATASIZE PUSH0 DUP1 RETURNDATACOPY RETURNDATASIZE PUSH0 REVERT JUMPDEST POP POP POP POP PUSH1 0x40 MLOAD RETURNDATASIZE PUSH0 DUP3 RETURNDATACOPY RETURNDATASIZE PUSH1 0x1F NOT PUSH1 0x1F DUP3 ADD AND DUP3 ADD DUP1 PUSH1 0x40 MSTORE POP DUP2 ADD SWAP1 PUSH2 0xE26 SWAP2 SWAP1 PUSH2 0x2BCB JUMP JUMPDEST POP DUP1 SWAP10 POP DUP2 SWAP11 POP DUP3 SWAP12 POP DUP4 SWAP13 POP DUP5 SWAP14 POP POP POP POP POP POP PUSH1 0x1 DUP5 DUP2 SLOAD DUP2 LT PUSH2 0xE4F JUMPI PUSH2 0xE4E PUSH2 0x26B5 JUMP JUMPDEST JUMPDEST SWAP1 PUSH0 MSTORE PUSH1 0x20 PUSH0 KECCAK256 ADD SLOAD DUP10 SUB PUSH2 0xF64 JUMPI DUP7 PUSH20 0xFFFFFFFFFFFFFFFFFFFFFFFFFFFFFFFFFFFFFFFF AND PUSH4 0xC0969A6E DUP13 PUSH1 0x1 DUP8 DUP2 SLOAD DUP2 LT PUSH2 0xE8F JUMPI PUSH2 0xE8E PUSH2 0x26B5 JUMP JUMPDEST JUMPDEST SWAP1 PUSH0 MSTORE PUSH1 0x20 PUSH0 KECCAK256 ADD SLOAD DUP10 DUP10 PUSH1 0x40 MLOAD DUP6 PUSH4 0xFFFFFFFF AND PUSH1 0xE0 SHL DUP2 MSTORE PUSH1 0x4 ADD PUSH2 0xEB9 SWAP5 SWAP4 SWAP3 SWAP2 SWAP1 PUSH2 0x2D1A JUMP JUMPDEST PUSH1 0x20 PUSH1 0x40 MLOAD DUP1 DUP4 SUB DUP2 DUP7 GAS STATICCALL SWAP3 POP POP POP DUP1 ISZERO PUSH2 0xEF3 JUMPI POP PUSH1 0x40 MLOAD RETURNDATASIZE PUSH1 0x1F NOT PUSH1 0x1F DUP3 ADD AND DUP3 ADD DUP1 PUSH1 0x40 MSTORE POP DUP2 ADD SWAP1 PUSH2 0xEF0 SWAP2 SWAP1 PUSH2 0x2D95 JUMP JUMPDEST PUSH1 0x1 JUMPDEST PUSH2 0xF21 JUMPI PUSH1 0x1 DUP3 MLOAD PUSH2 0xF05 SWAP2 SWAP1 PUSH2 0x270F JUMP JUMPDEST DUP2 SUB PUSH2 0xF1C JUMPI PUSH0 SWAP10 POP POP POP POP POP POP POP POP POP POP PUSH2 0xFBE JUMP JUMPDEST PUSH2 0xF5F JUMP JUMPDEST DUP1 ISZERO PUSH2 0xF2C JUMPI DUP3 MLOAD SWAP2 POP JUMPDEST DUP1 ISZERO DUP1 ISZERO PUSH2 0xF46 JUMPI POP PUSH1 0x1 DUP4 MLOAD PUSH2 0xF43 SWAP2 SWAP1 PUSH2 0x270F JUMP JUMPDEST DUP3 EQ JUMPDEST ISZERO PUSH2 0xF5D JUMPI PUSH0 SWAP11 POP POP POP POP POP POP POP POP POP POP POP PUSH2 0xFBE JUMP JUMPDEST POP JUMPDEST PUSH2 0xF8A JUMP JUMPDEST PUSH1 0x1 DUP3 MLOAD PUSH2 0xF72 SWAP2 SWAP1 PUSH2 0x270F JUMP JUMPDEST DUP2 SUB PUSH2 0xF89 JUMPI PUSH0 SWAP10 POP POP POP POP POP POP POP POP POP POP PUSH2 0xFBE JUMP JUMPDEST JUMPDEST DUP1 DUP1 PUSH2 0xF95 SWAP1 PUSH2 0x276F JUMP JUMPDEST SWAP2 POP POP PUSH2 0xD88 JUMP JUMPDEST POP POP POP DUP1 DUP1 PUSH2 0xFAB SWAP1 PUSH2 0x276F JUMP JUMPDEST SWAP2 POP POP PUSH2 0xBDE JUMP JUMPDEST PUSH1 0x1 SWAP7 POP POP POP POP POP POP POP JUMPDEST SWAP2 SWAP1 POP JUMP JUMPDEST PUSH2 0xFCB PUSH2 0x1DD3 JUMP JUMPDEST PUSH2 0xFD4 PUSH0 PUSH2 0x1E5A JUMP JUMPDEST JUMP JUMPDEST PUSH0 DUP1 PUSH0 SWAP1 SLOAD SWAP1 PUSH2 0x100 EXP SWAP1 DIV PUSH20 0xFFFFFFFFFFFFFFFFFFFFFFFFFFFFFFFFFFFFFFFF AND SWAP1 POP SWAP1 JUMP JUMPDEST PUSH1 0x4 PUSH1 0x20 MSTORE DUP2 PUSH0 MSTORE PUSH1 0x40 PUSH0 KECCAK256 DUP2 DUP2 SLOAD DUP2 LT PUSH2 0x1016 JUMPI PUSH0 DUP1 REVERT JUMPDEST SWAP1 PUSH0 MSTORE PUSH1 0x20 PUSH0 KECCAK256 ADD PUSH0 SWAP2 POP SWAP2 POP SWAP1 SLOAD SWAP1 PUSH2 0x100 EXP SWAP1 DIV PUSH20 0xFFFFFFFFFFFFFFFFFFFFFFFFFFFFFFFFFFFFFFFF AND DUP2 JUMP JUMPDEST PUSH2 0x104D PUSH2 0x1DD3 JUMP JUMPDEST PUSH0 PUSH20 0xFFFFFFFFFFFFFFFFFFFFFFFFFFFFFFFFFFFFFFFF AND DUP4 PUSH20 0xFFFFFFFFFFFFFFFFFFFFFFFFFFFFFFFFFFFFFFFF AND SUB PUSH2 0x10BB JUMPI PUSH1 0x40 MLOAD PUSH32 0x8C379A000000000000000000000000000000000000000000000000000000000 DUP2 MSTORE PUSH1 0x4 ADD PUSH2 0x10B2 SWAP1 PUSH2 0x2539 JUMP JUMPDEST PUSH1 0x40 MLOAD DUP1 SWAP2 SUB SWAP1 REVERT JUMPDEST PUSH0 PUSH1 0x3 PUSH0 DUP6 PUSH20 0xFFFFFFFFFFFFFFFFFFFFFFFFFFFFFFFFFFFFFFFF AND PUSH20 0xFFFFFFFFFFFFFFFFFFFFFFFFFFFFFFFFFFFFFFFF AND DUP2 MSTORE PUSH1 0x20 ADD SWAP1 DUP2 MSTORE PUSH1 0x20 ADD PUSH0 KECCAK256 DUP1 SLOAD SWAP1 POP EQ PUSH2 0x113D JUMPI PUSH1 0x40 MLOAD PUSH32 0x8C379A000000000000000000000000000000000000000000000000000000000 DUP2 MSTORE PUSH1 0x4 ADD PUSH2 0x1134 SWAP1 PUSH2 0x2E0A JUMP JUMPDEST PUSH1 0x40 MLOAD DUP1 SWAP2 SUB SWAP1 REVERT JUMPDEST PUSH0 DUP3 DUP3 SWAP1 POP GT PUSH2 0x1182 JUMPI PUSH1 0x40 MLOAD PUSH32 0x8C379A000000000000000000000000000000000000000000000000000000000 DUP2 MSTORE PUSH1 0x4 ADD PUSH2 0x1179 SWAP1 PUSH2 0x2E98 JUMP JUMPDEST PUSH1 0x40 MLOAD DUP1 SWAP2 SUB SWAP1 REVERT JUMPDEST PUSH1 0xF DUP3 DUP3 SWAP1 POP GT ISZERO PUSH2 0x11C9 JUMPI PUSH1 0x40 MLOAD PUSH32 0x8C379A000000000000000000000000000000000000000000000000000000000 DUP2 MSTORE PUSH1 0x4 ADD PUSH2 0x11C0 SWAP1 PUSH2 0x262F JUMP JUMPDEST PUSH1 0x40 MLOAD DUP1 SWAP2 SUB SWAP1 REVERT JUMPDEST PUSH1 0x32 PUSH1 0x2 DUP1 SLOAD SWAP1 POP LT PUSH2 0x1211 JUMPI PUSH1 0x40 MLOAD PUSH32 0x8C379A000000000000000000000000000000000000000000000000000000000 DUP2 MSTORE PUSH1 0x4 ADD PUSH2 0x1208 SWAP1 PUSH2 0x2F26 JUMP JUMPDEST PUSH1 0x40 MLOAD DUP1 SWAP2 SUB SWAP1 REVERT JUMPDEST PUSH1 0x2 DUP4 SWAP1 DUP1 PUSH1 0x1 DUP2 SLOAD ADD DUP1 DUP3 SSTORE DUP1 SWAP2 POP POP PUSH1 0x1 SWAP1 SUB SWAP1 PUSH0 MSTORE PUSH1 0x20 PUSH0 KECCAK256 ADD PUSH0 SWAP1 SWAP2 SWAP1 SWAP2 SWAP1 SWAP2 PUSH2 0x100 EXP DUP2 SLOAD DUP2 PUSH20 0xFFFFFFFFFFFFFFFFFFFFFFFFFFFFFFFFFFFFFFFF MUL NOT AND SWAP1 DUP4 PUSH20 0xFFFFFFFFFFFFFFFFFFFFFFFFFFFFFFFFFFFFFFFF AND MUL OR SWAP1 SSTORE POP DUP2 DUP2 PUSH1 0x3 PUSH0 DUP7 PUSH20 0xFFFFFFFFFFFFFFFFFFFFFFFFFFFFFFFFFFFFFFFF AND PUSH20 0xFFFFFFFFFFFFFFFFFFFFFFFFFFFFFFFFFFFFFFFF AND DUP2 MSTORE PUSH1 0x20 ADD SWAP1 DUP2 MSTORE PUSH1 0x20 ADD PUSH0 KECCAK256 SWAP2 SWAP1 PUSH2 0x12BD SWAP3 SWAP2 SWAP1 PUSH2 0x1F22 JUMP JUMPDEST POP PUSH0 JUMPDEST DUP3 DUP3 SWAP1 POP DUP2 LT ISZERO PUSH2 0x1366 JUMPI PUSH1 0x4 PUSH0 DUP5 DUP5 DUP5 DUP2 DUP2 LT PUSH2 0x12E1 JUMPI PUSH2 0x12E0 PUSH2 0x26B5 JUMP JUMPDEST JUMPDEST SWAP1 POP PUSH1 0x20 MUL ADD CALLDATALOAD DUP2 MSTORE PUSH1 0x20 ADD SWAP1 DUP2 MSTORE PUSH1 0x20 ADD PUSH0 KECCAK256 DUP5 SWAP1 DUP1 PUSH1 0x1 DUP2 SLOAD ADD DUP1 DUP3 SSTORE DUP1 SWAP2 POP POP PUSH1 0x1 SWAP1 SUB SWAP1 PUSH0 MSTORE PUSH1 0x20 PUSH0 KECCAK256 ADD PUSH0 SWAP1 SWAP2 SWAP1 SWAP2 SWAP1 SWAP2 PUSH2 0x100 EXP DUP2 SLOAD DUP2 PUSH20 0xFFFFFFFFFFFFFFFFFFFFFFFFFFFFFFFFFFFFFFFF MUL NOT AND SWAP1 DUP4 PUSH20 0xFFFFFFFFFFFFFFFFFFFFFFFFFFFFFFFFFFFFFFFF AND MUL OR SWAP1 SSTORE POP DUP1 DUP1 PUSH2 0x135E SWAP1 PUSH2 0x276F JUMP JUMPDEST SWAP2 POP POP PUSH2 0x12C0 JUMP JUMPDEST POP DUP3 PUSH20 0xFFFFFFFFFFFFFFFFFFFFFFFFFFFFFFFFFFFFFFFF AND PUSH32 0xFEDC33FD34859594822C0FF6F3F4F9FC279CC6D5CAE53068F706A088E4500872 DUP4 DUP4 PUSH1 0x40 MLOAD PUSH2 0x13AF SWAP3 SWAP2 SWAP1 PUSH2 0x281E JUMP JUMPDEST PUSH1 0x40 MLOAD DUP1 SWAP2 SUB SWAP1 LOG2 POP POP POP JUMP JUMPDEST PUSH1 0x1 DUP2 DUP2 SLOAD DUP2 LT PUSH2 0x13CB JUMPI PUSH0 DUP1 REVERT JUMPDEST SWAP1 PUSH0 MSTORE PUSH1 0x20 PUSH0 KECCAK256 ADD PUSH0 SWAP2 POP SWAP1 POP SLOAD DUP2 JUMP JUMPDEST PUSH2 0x13E4 PUSH2 0x1DD3 JUMP JUMPDEST PUSH0 PUSH20 0xFFFFFFFFFFFFFFFFFFFFFFFFFFFFFFFFFFFFFFFF AND DUP2 PUSH20 0xFFFFFFFFFFFFFFFFFFFFFFFFFFFFFFFFFFFFFFFF AND SUB PUSH2 0x1452 JUMPI PUSH1 0x40 MLOAD PUSH32 0x8C379A000000000000000000000000000000000000000000000000000000000 DUP2 MSTORE PUSH1 0x4 ADD PUSH2 0x1449 SWAP1 PUSH2 0x2539 JUMP JUMPDEST PUSH1 0x40 MLOAD DUP1 SWAP2 SUB SWAP1 REVERT JUMPDEST PUSH0 PUSH1 0x3 PUSH0 DUP4 PUSH20 0xFFFFFFFFFFFFFFFFFFFFFFFFFFFFFFFFFFFFFFFF AND PUSH20 0xFFFFFFFFFFFFFFFFFFFFFFFFFFFFFFFFFFFFFFFF AND DUP2 MSTORE PUSH1 0x20 ADD SWAP1 DUP2 MSTORE PUSH1 0x20 ADD PUSH0 KECCAK256 DUP1 SLOAD SWAP1 POP SUB PUSH2 0x14D4 JUMPI PUSH1 0x40 MLOAD PUSH32 0x8C379A000000000000000000000000000000000000000000000000000000000 DUP2 MSTORE PUSH1 0x4 ADD PUSH2 0x14CB SWAP1 PUSH2 0x25A1 JUMP JUMPDEST PUSH1 0x40 MLOAD DUP1 SWAP2 SUB SWAP1 REVERT JUMPDEST PUSH0 PUSH1 0x2 DUP1 SLOAD SWAP1 POP SWAP1 POP PUSH0 JUMPDEST DUP2 DUP2 LT ISZERO PUSH2 0x1652 JUMPI DUP3 PUSH20 0xFFFFFFFFFFFFFFFFFFFFFFFFFFFFFFFFFFFFFFFF AND PUSH1 0x2 DUP3 DUP2 SLOAD DUP2 LT PUSH2 0x1512 JUMPI PUSH2 0x1511 PUSH2 0x26B5 JUMP JUMPDEST JUMPDEST SWAP1 PUSH0 MSTORE PUSH1 0x20 PUSH0 KECCAK256 ADD PUSH0 SWAP1 SLOAD SWAP1 PUSH2 0x100 EXP SWAP1 DIV PUSH20 0xFFFFFFFFFFFFFFFFFFFFFFFFFFFFFFFFFFFFFFFF AND PUSH20 0xFFFFFFFFFFFFFFFFFFFFFFFFFFFFFFFFFFFFFFFF AND SUB PUSH2 0x163F JUMPI PUSH1 0x2 PUSH1 0x1 DUP4 PUSH2 0x1564 SWAP2 SWAP1 PUSH2 0x270F JUMP JUMPDEST DUP2 SLOAD DUP2 LT PUSH2 0x1575 JUMPI PUSH2 0x1574 PUSH2 0x26B5 JUMP JUMPDEST JUMPDEST SWAP1 PUSH0 MSTORE PUSH1 0x20 PUSH0 KECCAK256 ADD PUSH0 SWAP1 SLOAD SWAP1 PUSH2 0x100 EXP SWAP1 DIV PUSH20 0xFFFFFFFFFFFFFFFFFFFFFFFFFFFFFFFFFFFFFFFF AND PUSH1 0x2 DUP3 DUP2 SLOAD DUP2 LT PUSH2 0x15B1 JUMPI PUSH2 0x15B0 PUSH2 0x26B5 JUMP JUMPDEST JUMPDEST SWAP1 PUSH0 MSTORE PUSH1 0x20 PUSH0 KECCAK256 ADD PUSH0 PUSH2 0x100 EXP DUP2 SLOAD DUP2 PUSH20 0xFFFFFFFFFFFFFFFFFFFFFFFFFFFFFFFFFFFFFFFF MUL NOT AND SWAP1 DUP4 PUSH20 0xFFFFFFFFFFFFFFFFFFFFFFFFFFFFFFFFFFFFFFFF AND MUL OR SWAP1 SSTORE POP PUSH1 0x2 DUP1 SLOAD DUP1 PUSH2 0x1608 JUMPI PUSH2 0x1607 PUSH2 0x2742 JUMP JUMPDEST JUMPDEST PUSH1 0x1 SWAP1 SUB DUP2 DUP2 SWAP1 PUSH0 MSTORE PUSH1 0x20 PUSH0 KECCAK256 ADD PUSH0 PUSH2 0x100 EXP DUP2 SLOAD SWAP1 PUSH20 0xFFFFFFFFFFFFFFFFFFFFFFFFFFFFFFFFFFFFFFFF MUL NOT AND SWAP1 SSTORE SWAP1 SSTORE PUSH2 0x1652 JUMP JUMPDEST DUP1 DUP1 PUSH2 0x164A SWAP1 PUSH2 0x276F JUMP JUMPDEST SWAP2 POP POP PUSH2 0x14DF JUMP JUMPDEST POP PUSH0 JUMPDEST PUSH1 0x3 PUSH0 DUP5 PUSH20 0xFFFFFFFFFFFFFFFFFFFFFFFFFFFFFFFFFFFFFFFF AND PUSH20 0xFFFFFFFFFFFFFFFFFFFFFFFFFFFFFFFFFFFFFFFF AND DUP2 MSTORE PUSH1 0x20 ADD SWAP1 DUP2 MSTORE PUSH1 0x20 ADD PUSH0 KECCAK256 DUP1 SLOAD SWAP1 POP DUP2 LT ISZERO PUSH2 0x18D7 JUMPI PUSH0 PUSH1 0x3 PUSH0 DUP6 PUSH20 0xFFFFFFFFFFFFFFFFFFFFFFFFFFFFFFFFFFFFFFFF AND PUSH20 0xFFFFFFFFFFFFFFFFFFFFFFFFFFFFFFFFFFFFFFFF AND DUP2 MSTORE PUSH1 0x20 ADD SWAP1 DUP2 MSTORE PUSH1 0x20 ADD PUSH0 KECCAK256 DUP3 DUP2 SLOAD DUP2 LT PUSH2 0x16ED JUMPI PUSH2 0x16EC PUSH2 0x26B5 JUMP JUMPDEST JUMPDEST SWAP1 PUSH0 MSTORE PUSH1 0x20 PUSH0 KECCAK256 ADD SLOAD SWAP1 POP PUSH0 PUSH1 0x4 PUSH0 DUP4 DUP2 MSTORE PUSH1 0x20 ADD SWAP1 DUP2 MSTORE PUSH1 0x20 ADD PUSH0 KECCAK256 DUP1 SLOAD SWAP1 POP SWAP1 POP PUSH0 JUMPDEST DUP2 DUP2 LT ISZERO PUSH2 0x18C1 JUMPI DUP6 PUSH20 0xFFFFFFFFFFFFFFFFFFFFFFFFFFFFFFFFFFFFFFFF AND PUSH1 0x4 PUSH0 DUP6 DUP2 MSTORE PUSH1 0x20 ADD SWAP1 DUP2 MSTORE PUSH1 0x20 ADD PUSH0 KECCAK256 DUP3 DUP2 SLOAD DUP2 LT PUSH2 0x1754 JUMPI PUSH2 0x1753 PUSH2 0x26B5 JUMP JUMPDEST JUMPDEST SWAP1 PUSH0 MSTORE PUSH1 0x20 PUSH0 KECCAK256 ADD PUSH0 SWAP1 SLOAD SWAP1 PUSH2 0x100 EXP SWAP1 DIV PUSH20 0xFFFFFFFFFFFFFFFFFFFFFFFFFFFFFFFFFFFFFFFF AND PUSH20 0xFFFFFFFFFFFFFFFFFFFFFFFFFFFFFFFFFFFFFFFF AND SUB PUSH2 0x18AE JUMPI PUSH1 0x4 PUSH0 DUP5 DUP2 MSTORE PUSH1 0x20 ADD SWAP1 DUP2 MSTORE PUSH1 0x20 ADD PUSH0 KECCAK256 PUSH1 0x1 DUP4 PUSH2 0x17B5 SWAP2 SWAP1 PUSH2 0x270F JUMP JUMPDEST DUP2 SLOAD DUP2 LT PUSH2 0x17C6 JUMPI PUSH2 0x17C5 PUSH2 0x26B5 JUMP JUMPDEST JUMPDEST SWAP1 PUSH0 MSTORE PUSH1 0x20 PUSH0 KECCAK256 ADD PUSH0 SWAP1 SLOAD SWAP1 PUSH2 0x100 EXP SWAP1 DIV PUSH20 0xFFFFFFFFFFFFFFFFFFFFFFFFFFFFFFFFFFFFFFFF AND PUSH1 0x4 PUSH0 DUP6 DUP2 MSTORE PUSH1 0x20 ADD SWAP1 DUP2 MSTORE PUSH1 0x20 ADD PUSH0 KECCAK256 DUP3 DUP2 SLOAD DUP2 LT PUSH2 0x1811 JUMPI PUSH2 0x1810 PUSH2 0x26B5 JUMP JUMPDEST JUMPDEST SWAP1 PUSH0 MSTORE PUSH1 0x20 PUSH0 KECCAK256 ADD PUSH0 PUSH2 0x100 EXP DUP2 SLOAD DUP2 PUSH20 0xFFFFFFFFFFFFFFFFFFFFFFFFFFFFFFFFFFFFFFFF MUL NOT AND SWAP1 DUP4 PUSH20 0xFFFFFFFFFFFFFFFFFFFFFFFFFFFFFFFFFFFFFFFF AND MUL OR SWAP1 SSTORE POP PUSH1 0x4 PUSH0 DUP5 DUP2 MSTORE PUSH1 0x20 ADD SWAP1 DUP2 MSTORE PUSH1 0x20 ADD PUSH0 KECCAK256 DUP1 SLOAD DUP1 PUSH2 0x1877 JUMPI PUSH2 0x1876 PUSH2 0x2742 JUMP JUMPDEST JUMPDEST PUSH1 0x1 SWAP1 SUB DUP2 DUP2 SWAP1 PUSH0 MSTORE PUSH1 0x20 PUSH0 KECCAK256 ADD PUSH0 PUSH2 0x100 EXP DUP2 SLOAD SWAP1 PUSH20 0xFFFFFFFFFFFFFFFFFFFFFFFFFFFFFFFFFFFFFFFF MUL NOT AND SWAP1 SSTORE SWAP1 SSTORE PUSH2 0x18C1 JUMP JUMPDEST DUP1 DUP1 PUSH2 0x18B9 SWAP1 PUSH2 0x276F JUMP JUMPDEST SWAP2 POP POP PUSH2 0x1712 JUMP JUMPDEST POP POP POP DUP1 DUP1 PUSH2 0x18CF SWAP1 PUSH2 0x276F JUMP JUMPDEST SWAP2 POP POP PUSH2 0x1655 JUMP JUMPDEST POP PUSH1 0x3 PUSH0 DUP4 PUSH20 0xFFFFFFFFFFFFFFFFFFFFFFFFFFFFFFFFFFFFFFFF AND PUSH20 0xFFFFFFFFFFFFFFFFFFFFFFFFFFFFFFFFFFFFFFFF AND DUP2 MSTORE PUSH1 0x20 ADD SWAP1 DUP2 MSTORE PUSH1 0x20 ADD PUSH0 KECCAK256 PUSH0 PUSH2 0x1920 SWAP2 SWAP1 PUSH2 0x1F6D JUMP JUMPDEST DUP2 PUSH20 0xFFFFFFFFFFFFFFFFFFFFFFFFFFFFFFFFFFFFFFFF AND PUSH32 0x2214DED40113CC3FB63FC206CAFEE88270B0A903DAC7245D54EFDDE30EBB0321 PUSH1 0x40 MLOAD PUSH1 0x40 MLOAD DUP1 SWAP2 SUB SWAP1 LOG2 POP POP JUMP JUMPDEST PUSH1 0x3 PUSH1 0x20 MSTORE DUP2 PUSH0 MSTORE PUSH1 0x40 PUSH0 KECCAK256 DUP2 DUP2 SLOAD DUP2 LT PUSH2 0x1980 JUMPI PUSH0 DUP1 REVERT JUMPDEST SWAP1 PUSH0 MSTORE PUSH1 0x20 PUSH0 KECCAK256 ADD PUSH0 SWAP2 POP SWAP2 POP POP SLOAD DUP2 JUMP JUMPDEST PUSH0 DUP1 PUSH1 0x1 DUP1 SLOAD SWAP1 POP SWAP1 POP PUSH0 JUMPDEST DUP2 DUP2 LT ISZERO PUSH2 0x19E7 JUMPI DUP4 PUSH1 0x1 DUP3 DUP2 SLOAD DUP2 LT PUSH2 0x19BB JUMPI PUSH2 0x19BA PUSH2 0x26B5 JUMP JUMPDEST JUMPDEST SWAP1 PUSH0 MSTORE PUSH1 0x20 PUSH0 KECCAK256 ADD SLOAD SUB PUSH2 0x19D4 JUMPI PUSH1 0x1 SWAP3 POP POP POP PUSH2 0x19ED JUMP JUMPDEST DUP1 DUP1 PUSH2 0x19DF SWAP1 PUSH2 0x276F JUMP JUMPDEST SWAP2 POP POP PUSH2 0x199E JUMP JUMPDEST POP PUSH0 SWAP2 POP POP JUMPDEST SWAP2 SWAP1 POP JUMP JUMPDEST PUSH1 0x60 PUSH0 PUSH1 0x3 PUSH0 DUP5 PUSH20 0xFFFFFFFFFFFFFFFFFFFFFFFFFFFFFFFFFFFFFFFF AND PUSH20 0xFFFFFFFFFFFFFFFFFFFFFFFFFFFFFFFFFFFFFFFF AND DUP2 MSTORE PUSH1 0x20 ADD SWAP1 DUP2 MSTORE PUSH1 0x20 ADD PUSH0 KECCAK256 DUP1 SLOAD SWAP1 POP SUB PUSH2 0x1A76 JUMPI PUSH1 0x40 MLOAD PUSH32 0x8C379A000000000000000000000000000000000000000000000000000000000 DUP2 MSTORE PUSH1 0x4 ADD PUSH2 0x1A6D SWAP1 PUSH2 0x2F8E JUMP JUMPDEST PUSH1 0x40 MLOAD DUP1 SWAP2 SUB SWAP1 REVERT JUMPDEST PUSH1 0x3 PUSH0 DUP4 PUSH20 0xFFFFFFFFFFFFFFFFFFFFFFFFFFFFFFFFFFFFFFFF AND PUSH20 0xFFFFFFFFFFFFFFFFFFFFFFFFFFFFFFFFFFFFFFFF AND DUP2 MSTORE PUSH1 0x20 ADD SWAP1 DUP2 MSTORE PUSH1 0x20 ADD PUSH0 KECCAK256 DUP1 SLOAD DUP1 PUSH1 0x20 MUL PUSH1 0x20 ADD PUSH1 0x40 MLOAD SWAP1 DUP2 ADD PUSH1 0x40 MSTORE DUP1 SWAP3 SWAP2 SWAP1 DUP2 DUP2 MSTORE PUSH1 0x20 ADD DUP3 DUP1 SLOAD DUP1 ISZERO PUSH2 0x1AFB JUMPI PUSH1 0x20 MUL DUP3 ADD SWAP2 SWAP1 PUSH0 MSTORE PUSH1 0x20 PUSH0 KECCAK256 SWAP1 JUMPDEST DUP2 SLOAD DUP2 MSTORE PUSH1 0x20 ADD SWAP1 PUSH1 0x1 ADD SWAP1 DUP1 DUP4 GT PUSH2 0x1AE7 JUMPI JUMPDEST POP POP POP POP POP SWAP1 POP SWAP2 SWAP1 POP JUMP JUMPDEST PUSH2 0x1B0F PUSH2 0x1DD3 JUMP JUMPDEST PUSH0 PUSH1 0x1 DUP1 SLOAD SWAP1 POP SWAP1 POP PUSH1 0xF DUP2 LT PUSH2 0x1B5B JUMPI PUSH1 0x40 MLOAD PUSH32 0x8C379A000000000000000000000000000000000000000000000000000000000 DUP2 MSTORE PUSH1 0x4 ADD PUSH2 0x1B52 SWAP1 PUSH2 0x301C JUMP JUMPDEST PUSH1 0x40 MLOAD DUP1 SWAP2 SUB SWAP1 REVERT JUMPDEST PUSH0 JUMPDEST DUP2 DUP2 LT ISZERO PUSH2 0x1BD6 JUMPI DUP3 PUSH1 0x1 DUP3 DUP2 SLOAD DUP2 LT PUSH2 0x1B7A JUMPI PUSH2 0x1B79 PUSH2 0x26B5 JUMP JUMPDEST JUMPDEST SWAP1 PUSH0 MSTORE PUSH1 0x20 PUSH0 KECCAK256 ADD SLOAD SUB PUSH2 0x1BC3 JUMPI PUSH1 0x40 MLOAD PUSH32 0x8C379A000000000000000000000000000000000000000000000000000000000 DUP2 MSTORE PUSH1 0x4 ADD PUSH2 0x1BBA SWAP1 PUSH2 0x3084 JUMP JUMPDEST PUSH1 0x40 MLOAD DUP1 SWAP2 SUB SWAP1 REVERT JUMPDEST DUP1 DUP1 PUSH2 0x1BCE SWAP1 PUSH2 0x276F JUMP JUMPDEST SWAP2 POP POP PUSH2 0x1B5D JUMP JUMPDEST POP PUSH1 0x1 DUP3 SWAP1 DUP1 PUSH1 0x1 DUP2 SLOAD ADD DUP1 DUP3 SSTORE DUP1 SWAP2 POP POP PUSH1 0x1 SWAP1 SUB SWAP1 PUSH0 MSTORE PUSH1 0x20 PUSH0 KECCAK256 ADD PUSH0 SWAP1 SWAP2 SWAP1 SWAP2 SWAP1 SWAP2 POP SSTORE DUP2 PUSH32 0x1C928B7F7ADE2949E92366AA9454DBEF3A416B731CF6EC786BA9595BBD814D6 PUSH1 0x40 MLOAD PUSH1 0x40 MLOAD DUP1 SWAP2 SUB SWAP1 LOG2 POP POP JUMP JUMPDEST PUSH1 0x2 DUP2 DUP2 SLOAD DUP2 LT PUSH2 0x1C3D JUMPI PUSH0 DUP1 REVERT JUMPDEST SWAP1 PUSH0 MSTORE PUSH1 0x20 PUSH0 KECCAK256 ADD PUSH0 SWAP2 POP SLOAD SWAP1 PUSH2 0x100 EXP SWAP1 DIV PUSH20 0xFFFFFFFFFFFFFFFFFFFFFFFFFFFFFFFFFFFFFFFF AND DUP2 JUMP JUMPDEST PUSH1 0x60 PUSH1 0x2 DUP1 SLOAD DUP1 PUSH1 0x20 MUL PUSH1 0x20 ADD PUSH1 0x40 MLOAD SWAP1 DUP2 ADD PUSH1 0x40 MSTORE DUP1 SWAP3 SWAP2 SWAP1 DUP2 DUP2 MSTORE PUSH1 0x20 ADD DUP3 DUP1 SLOAD DUP1 ISZERO PUSH2 0x1CEA JUMPI PUSH1 0x20 MUL DUP3 ADD SWAP2 SWAP1 PUSH0 MSTORE PUSH1 0x20 PUSH0 KECCAK256 SWAP1 JUMPDEST DUP2 PUSH0 SWAP1 SLOAD SWAP1 PUSH2 0x100 EXP SWAP1 DIV PUSH20 0xFFFFFFFFFFFFFFFFFFFFFFFFFFFFFFFFFFFFFFFF AND PUSH20 0xFFFFFFFFFFFFFFFFFFFFFFFFFFFFFFFFFFFFFFFF AND DUP2 MSTORE PUSH1 0x20 ADD SWAP1 PUSH1 0x1 ADD SWAP1 DUP1 DUP4 GT PUSH2 0x1CA1 JUMPI JUMPDEST POP POP POP POP POP SWAP1 POP SWAP1 JUMP JUMPDEST PUSH0 DUP1 PUSH1 0x3 PUSH0 DUP5 PUSH20 0xFFFFFFFFFFFFFFFFFFFFFFFFFFFFFFFFFFFFFFFF AND PUSH20 0xFFFFFFFFFFFFFFFFFFFFFFFFFFFFFFFFFFFFFFFF AND DUP2 MSTORE PUSH1 0x20 ADD SWAP1 DUP2 MSTORE PUSH1 0x20 ADD PUSH0 KECCAK256 DUP1 SLOAD SWAP1 POP GT ISZERO PUSH2 0x1D46 JUMPI PUSH1 0x1 SWAP1 POP PUSH2 0x1D4A JUMP JUMPDEST PUSH0 SWAP1 POP JUMPDEST SWAP2 SWAP1 POP JUMP JUMPDEST PUSH2 0x1D57 PUSH2 0x1DD3 JUMP JUMPDEST PUSH0 PUSH20 0xFFFFFFFFFFFFFFFFFFFFFFFFFFFFFFFFFFFFFFFF AND DUP2 PUSH20 0xFFFFFFFFFFFFFFFFFFFFFFFFFFFFFFFFFFFFFFFF AND SUB PUSH2 0x1DC7 JUMPI PUSH0 PUSH1 0x40 MLOAD PUSH32 0x1E4FBDF700000000000000000000000000000000000000000000000000000000 DUP2 MSTORE PUSH1 0x4 ADD PUSH2 0x1DBE SWAP2 SWAP1 PUSH2 0x2336 JUMP JUMPDEST PUSH1 0x40 MLOAD DUP1 SWAP2 SUB SWAP1 REVERT JUMPDEST PUSH2 0x1DD0 DUP2 PUSH2 0x1E5A JUMP JUMPDEST POP JUMP JUMPDEST PUSH2 0x1DDB PUSH2 0x1F1B JUMP JUMPDEST PUSH20 0xFFFFFFFFFFFFFFFFFFFFFFFFFFFFFFFFFFFFFFFF AND PUSH2 0x1DF9 PUSH2 0xFD6 JUMP JUMPDEST PUSH20 0xFFFFFFFFFFFFFFFFFFFFFFFFFFFFFFFFFFFFFFFF AND EQ PUSH2 0x1E58 JUMPI PUSH2 0x1E1C PUSH2 0x1F1B JUMP JUMPDEST PUSH1 0x40 MLOAD PUSH32 0x118CDAA700000000000000000000000000000000000000000000000000000000 DUP2 MSTORE PUSH1 0x4 ADD PUSH2 0x1E4F SWAP2 SWAP1 PUSH2 0x2336 JUMP JUMPDEST PUSH1 0x40 MLOAD DUP1 SWAP2 SUB SWAP1 REVERT JUMPDEST JUMP JUMPDEST PUSH0 DUP1 PUSH0 SWAP1 SLOAD SWAP1 PUSH2 0x100 EXP SWAP1 DIV PUSH20 0xFFFFFFFFFFFFFFFFFFFFFFFFFFFFFFFFFFFFFFFF AND SWAP1 POP DUP2 PUSH0 DUP1 PUSH2 0x100 EXP DUP2 SLOAD DUP2 PUSH20 0xFFFFFFFFFFFFFFFFFFFFFFFFFFFFFFFFFFFFFFFF MUL NOT AND SWAP1 DUP4 PUSH20 0xFFFFFFFFFFFFFFFFFFFFFFFFFFFFFFFFFFFFFFFF AND MUL OR SWAP1 SSTORE POP DUP2 PUSH20 0xFFFFFFFFFFFFFFFFFFFFFFFFFFFFFFFFFFFFFFFF AND DUP2 PUSH20 0xFFFFFFFFFFFFFFFFFFFFFFFFFFFFFFFFFFFFFFFF AND PUSH32 0x8BE0079C531659141344CD1FD0A4F28419497F9722A3DAAFE3B4186F6B6457E0 PUSH1 0x40 MLOAD PUSH1 0x40 MLOAD DUP1 SWAP2 SUB SWAP1 LOG3 POP POP JUMP JUMPDEST PUSH0 CALLER SWAP1 POP SWAP1 JUMP JUMPDEST DUP3 DUP1 SLOAD DUP3 DUP3 SSTORE SWAP1 PUSH0 MSTORE PUSH1 0x20 PUSH0 KECCAK256 SWAP1 DUP2 ADD SWAP3 DUP3 ISZERO PUSH2 0x1F5C JUMPI SWAP2 PUSH1 0x20 MUL DUP3 ADD JUMPDEST DUP3 DUP2 GT ISZERO PUSH2 0x1F5B JUMPI DUP3 CALLDATALOAD DUP3 SSTORE SWAP2 PUSH1 0x20 ADD SWAP2 SWAP1 PUSH1 0x1 ADD SWAP1 PUSH2 0x1F40 JUMP JUMPDEST JUMPDEST POP SWAP1 POP PUSH2 0x1F69 SWAP2 SWAP1 PUSH2 0x1F8B JUMP JUMPDEST POP SWAP1 JUMP JUMPDEST POP DUP1 SLOAD PUSH0 DUP3 SSTORE SWAP1 PUSH0 MSTORE PUSH1 0x20 PUSH0 KECCAK256 SWAP1 DUP2 ADD SWAP1 PUSH2 0x1F88 SWAP2 SWAP1 PUSH2 0x1F8B JUMP JUMPDEST POP JUMP JUMPDEST JUMPDEST DUP1 DUP3 GT ISZERO PUSH2 0x1FA2 JUMPI PUSH0 DUP2 PUSH0 SWAP1 SSTORE POP PUSH1 0x1 ADD PUSH2 0x1F8C JUMP JUMPDEST POP SWAP1 JUMP JUMPDEST PUSH0 PUSH1 0x40 MLOAD SWAP1 POP SWAP1 JUMP JUMPDEST PUSH0 DUP1 REVERT JUMPDEST PUSH0 DUP1 REVERT JUMPDEST PUSH0 PUSH20 0xFFFFFFFFFFFFFFFFFFFFFFFFFFFFFFFFFFFFFFFF DUP3 AND SWAP1 POP SWAP2 SWAP1 POP JUMP JUMPDEST PUSH0 PUSH2 0x1FE0 DUP3 PUSH2 0x1FB7 JUMP JUMPDEST SWAP1 POP SWAP2 SWAP1 POP JUMP JUMPDEST PUSH0 PUSH2 0x1FF1 DUP3 PUSH2 0x1FD6 JUMP JUMPDEST SWAP1 POP SWAP2 SWAP1 POP JUMP JUMPDEST PUSH2 0x2001 DUP2 PUSH2 0x1FE7 JUMP JUMPDEST DUP2 EQ PUSH2 0x200B JUMPI PUSH0 DUP1 REVERT JUMPDEST POP JUMP JUMPDEST PUSH0 DUP2 CALLDATALOAD SWAP1 POP PUSH2 0x201C DUP2 PUSH2 0x1FF8 JUMP JUMPDEST SWAP3 SWAP2 POP POP JUMP JUMPDEST PUSH0 DUP1 REVERT JUMPDEST PUSH0 DUP1 REVERT JUMPDEST PUSH0 DUP1 REVERT JUMPDEST PUSH0 DUP1 DUP4 PUSH1 0x1F DUP5 ADD SLT PUSH2 0x2043 JUMPI PUSH2 0x2042 PUSH2 0x2022 JUMP JUMPDEST JUMPDEST DUP3 CALLDATALOAD SWAP1 POP PUSH8 0xFFFFFFFFFFFFFFFF DUP2 GT ISZERO PUSH2 0x2060 JUMPI PUSH2 0x205F PUSH2 0x2026 JUMP JUMPDEST JUMPDEST PUSH1 0x20 DUP4 ADD SWAP2 POP DUP4 PUSH1 0x20 DUP3 MUL DUP4 ADD GT ISZERO PUSH2 0x207C JUMPI PUSH2 0x207B PUSH2 0x202A JUMP JUMPDEST JUMPDEST SWAP3 POP SWAP3 SWAP1 POP JUMP JUMPDEST PUSH0 DUP1 PUSH0 PUSH1 0x40 DUP5 DUP7 SUB SLT ISZERO PUSH2 0x209A JUMPI PUSH2 0x2099 PUSH2 0x1FAF JUMP JUMPDEST JUMPDEST PUSH0 PUSH2 0x20A7 DUP7 DUP3 DUP8 ADD PUSH2 0x200E JUMP JUMPDEST SWAP4 POP POP PUSH1 0x20 DUP5 ADD CALLDATALOAD PUSH8 0xFFFFFFFFFFFFFFFF DUP2 GT ISZERO PUSH2 0x20C8 JUMPI PUSH2 0x20C7 PUSH2 0x1FB3 JUMP JUMPDEST JUMPDEST PUSH2 0x20D4 DUP7 DUP3 DUP8 ADD PUSH2 0x202E JUMP JUMPDEST SWAP3 POP SWAP3 POP POP SWAP3 POP SWAP3 POP SWAP3 JUMP JUMPDEST PUSH0 DUP2 SWAP1 POP SWAP2 SWAP1 POP JUMP JUMPDEST PUSH2 0x20F2 DUP2 PUSH2 0x20E0 JUMP JUMPDEST DUP2 EQ PUSH2 0x20FC JUMPI PUSH0 DUP1 REVERT JUMPDEST POP JUMP JUMPDEST PUSH0 DUP2 CALLDATALOAD SWAP1 POP PUSH2 0x210D DUP2 PUSH2 0x20E9 JUMP JUMPDEST SWAP3 SWAP2 POP POP JUMP JUMPDEST PUSH0 PUSH1 0x20 DUP3 DUP5 SUB SLT ISZERO PUSH2 0x2128 JUMPI PUSH2 0x2127 PUSH2 0x1FAF JUMP JUMPDEST JUMPDEST PUSH0 PUSH2 0x2135 DUP5 DUP3 DUP6 ADD PUSH2 0x20FF JUMP JUMPDEST SWAP2 POP POP SWAP3 SWAP2 POP POP JUMP JUMPDEST PUSH2 0x2147 DUP2 PUSH2 0x1FD6 JUMP JUMPDEST DUP2 EQ PUSH2 0x2151 JUMPI PUSH0 DUP1 REVERT JUMPDEST POP JUMP JUMPDEST PUSH0 DUP2 CALLDATALOAD SWAP1 POP PUSH2 0x2162 DUP2 PUSH2 0x213E JUMP JUMPDEST SWAP3 SWAP2 POP POP JUMP JUMPDEST PUSH0 DUP1 PUSH1 0x40 DUP4 DUP6 SUB SLT ISZERO PUSH2 0x217E JUMPI PUSH2 0x217D PUSH2 0x1FAF JUMP JUMPDEST JUMPDEST PUSH0 PUSH2 0x218B DUP6 DUP3 DUP7 ADD PUSH2 0x2154 JUMP JUMPDEST SWAP3 POP POP PUSH1 0x20 PUSH2 0x219C DUP6 DUP3 DUP7 ADD PUSH2 0x20FF JUMP JUMPDEST SWAP2 POP POP SWAP3 POP SWAP3 SWAP1 POP JUMP JUMPDEST PUSH0 DUP2 ISZERO ISZERO SWAP1 POP SWAP2 SWAP1 POP JUMP JUMPDEST PUSH2 0x21BA DUP2 PUSH2 0x21A6 JUMP JUMPDEST DUP3 MSTORE POP POP JUMP JUMPDEST PUSH0 PUSH1 0x20 DUP3 ADD SWAP1 POP PUSH2 0x21D3 PUSH0 DUP4 ADD DUP5 PUSH2 0x21B1 JUMP JUMPDEST SWAP3 SWAP2 POP POP JUMP JUMPDEST PUSH0 DUP2 MLOAD SWAP1 POP SWAP2 SWAP1 POP JUMP JUMPDEST PUSH0 DUP3 DUP3 MSTORE PUSH1 0x20 DUP3 ADD SWAP1 POP SWAP3 SWAP2 POP POP JUMP JUMPDEST PUSH0 DUP2 SWAP1 POP PUSH1 0x20 DUP3 ADD SWAP1 POP SWAP2 SWAP1 POP JUMP JUMPDEST PUSH0 DUP2 SWAP1 POP SWAP2 SWAP1 POP JUMP JUMPDEST PUSH0 PUSH2 0x2225 PUSH2 0x2220 PUSH2 0x221B DUP5 PUSH2 0x1FB7 JUMP JUMPDEST PUSH2 0x2202 JUMP JUMPDEST PUSH2 0x1FB7 JUMP JUMPDEST SWAP1 POP SWAP2 SWAP1 POP JUMP JUMPDEST PUSH0 PUSH2 0x2236 DUP3 PUSH2 0x220B JUMP JUMPDEST SWAP1 POP SWAP2 SWAP1 POP JUMP JUMPDEST PUSH0 PUSH2 0x2247 DUP3 PUSH2 0x222C JUMP JUMPDEST SWAP1 POP SWAP2 SWAP1 POP JUMP JUMPDEST PUSH2 0x2257 DUP2 PUSH2 0x223D JUMP JUMPDEST DUP3 MSTORE POP POP JUMP JUMPDEST PUSH0 PUSH2 0x2268 DUP4 DUP4 PUSH2 0x224E JUMP JUMPDEST PUSH1 0x20 DUP4 ADD SWAP1 POP SWAP3 SWAP2 POP POP JUMP JUMPDEST PUSH0 PUSH1 0x20 DUP3 ADD SWAP1 POP SWAP2 SWAP1 POP JUMP JUMPDEST PUSH0 PUSH2 0x228A DUP3 PUSH2 0x21D9 JUMP JUMPDEST PUSH2 0x2294 DUP2 DUP6 PUSH2 0x21E3 JUMP JUMPDEST SWAP4 POP PUSH2 0x229F DUP4 PUSH2 0x21F3 JUMP JUMPDEST DUP1 PUSH0 JUMPDEST DUP4 DUP2 LT ISZERO PUSH2 0x22CF JUMPI DUP2 MLOAD PUSH2 0x22B6 DUP9 DUP3 PUSH2 0x225D JUMP JUMPDEST SWAP8 POP PUSH2 0x22C1 DUP4 PUSH2 0x2274 JUMP JUMPDEST SWAP3 POP POP PUSH1 0x1 DUP2 ADD SWAP1 POP PUSH2 0x22A2 JUMP JUMPDEST POP DUP6 SWAP4 POP POP POP POP SWAP3 SWAP2 POP POP JUMP JUMPDEST PUSH0 PUSH1 0x20 DUP3 ADD SWAP1 POP DUP2 DUP2 SUB PUSH0 DUP4 ADD MSTORE PUSH2 0x22F4 DUP2 DUP5 PUSH2 0x2280 JUMP JUMPDEST SWAP1 POP SWAP3 SWAP2 POP POP JUMP JUMPDEST PUSH0 PUSH1 0x20 DUP3 DUP5 SUB SLT ISZERO PUSH2 0x2311 JUMPI PUSH2 0x2310 PUSH2 0x1FAF JUMP JUMPDEST JUMPDEST PUSH0 PUSH2 0x231E DUP5 DUP3 DUP6 ADD PUSH2 0x2154 JUMP JUMPDEST SWAP2 POP POP SWAP3 SWAP2 POP POP JUMP JUMPDEST PUSH2 0x2330 DUP2 PUSH2 0x1FD6 JUMP JUMPDEST DUP3 MSTORE POP POP JUMP JUMPDEST PUSH0 PUSH1 0x20 DUP3 ADD SWAP1 POP PUSH2 0x2349 PUSH0 DUP4 ADD DUP5 PUSH2 0x2327 JUMP JUMPDEST SWAP3 SWAP2 POP POP JUMP JUMPDEST PUSH0 DUP1 PUSH1 0x40 DUP4 DUP6 SUB SLT ISZERO PUSH2 0x2365 JUMPI PUSH2 0x2364 PUSH2 0x1FAF JUMP JUMPDEST JUMPDEST PUSH0 PUSH2 0x2372 DUP6 DUP3 DUP7 ADD PUSH2 0x20FF JUMP JUMPDEST SWAP3 POP POP PUSH1 0x20 PUSH2 0x2383 DUP6 DUP3 DUP7 ADD PUSH2 0x20FF JUMP JUMPDEST SWAP2 POP POP SWAP3 POP SWAP3 SWAP1 POP JUMP JUMPDEST PUSH2 0x2396 DUP2 PUSH2 0x223D JUMP JUMPDEST DUP3 MSTORE POP POP JUMP JUMPDEST PUSH0 PUSH1 0x20 DUP3 ADD SWAP1 POP PUSH2 0x23AF PUSH0 DUP4 ADD DUP5 PUSH2 0x238D JUMP JUMPDEST SWAP3 SWAP2 POP POP JUMP JUMPDEST PUSH2 0x23BE DUP2 PUSH2 0x20E0 JUMP JUMPDEST DUP3 MSTORE POP POP JUMP JUMPDEST PUSH0 PUSH1 0x20 DUP3 ADD SWAP1 POP PUSH2 0x23D7 PUSH0 DUP4 ADD DUP5 PUSH2 0x23B5 JUMP JUMPDEST SWAP3 SWAP2 POP POP JUMP JUMPDEST PUSH0 PUSH1 0x20 DUP3 DUP5 SUB SLT ISZERO PUSH2 0x23F2 JUMPI PUSH2 0x23F1 PUSH2 0x1FAF JUMP JUMPDEST JUMPDEST PUSH0 PUSH2 0x23FF DUP5 DUP3 DUP6 ADD PUSH2 0x200E JUMP JUMPDEST SWAP2 POP POP SWAP3 SWAP2 POP POP JUMP JUMPDEST PUSH0 DUP2 MLOAD SWAP1 POP SWAP2 SWAP1 POP JUMP JUMPDEST PUSH0 DUP3 DUP3 MSTORE PUSH1 0x20 DUP3 ADD SWAP1 POP SWAP3 SWAP2 POP POP JUMP JUMPDEST PUSH0 DUP2 SWAP1 POP PUSH1 0x20 DUP3 ADD SWAP1 POP SWAP2 SWAP1 POP JUMP JUMPDEST PUSH2 0x243A DUP2 PUSH2 0x20E0 JUMP JUMPDEST DUP3 MSTORE POP POP JUMP JUMPDEST PUSH0 PUSH2 0x244B DUP4 DUP4 PUSH2 0x2431 JUMP JUMPDEST PUSH1 0x20 DUP4 ADD SWAP1 POP SWAP3 SWAP2 POP POP JUMP JUMPDEST PUSH0 PUSH1 0x20 DUP3 ADD SWAP1 POP SWAP2 SWAP1 POP JUMP JUMPDEST PUSH0 PUSH2 0x246D DUP3 PUSH2 0x2408 JUMP JUMPDEST PUSH2 0x2477 DUP2 DUP6 PUSH2 0x2412 JUMP JUMPDEST SWAP4 POP PUSH2 0x2482 DUP4 PUSH2 0x2422 JUMP JUMPDEST DUP1 PUSH0 JUMPDEST DUP4 DUP2 LT ISZERO PUSH2 0x24B2 JUMPI DUP2 MLOAD PUSH2 0x2499 DUP9 DUP3 PUSH2 0x2440 JUMP JUMPDEST SWAP8 POP PUSH2 0x24A4 DUP4 PUSH2 0x2457 JUMP JUMPDEST SWAP3 POP POP PUSH1 0x1 DUP2 ADD SWAP1 POP PUSH2 0x2485 JUMP JUMPDEST POP DUP6 SWAP4 POP POP POP POP SWAP3 SWAP2 POP POP JUMP JUMPDEST PUSH0 PUSH1 0x20 DUP3 ADD SWAP1 POP DUP2 DUP2 SUB PUSH0 DUP4 ADD MSTORE PUSH2 0x24D7 DUP2 DUP5 PUSH2 0x2463 JUMP JUMPDEST SWAP1 POP SWAP3 SWAP2 POP POP JUMP JUMPDEST PUSH0 DUP3 DUP3 MSTORE PUSH1 0x20 DUP3 ADD SWAP1 POP SWAP3 SWAP2 POP POP JUMP JUMPDEST PUSH32 0x696E76616C696420617267756D656E74202D207A65726F206164647265737300 PUSH0 DUP3 ADD MSTORE POP JUMP JUMPDEST PUSH0 PUSH2 0x2523 PUSH1 0x1F DUP4 PUSH2 0x24DF JUMP JUMPDEST SWAP2 POP PUSH2 0x252E DUP3 PUSH2 0x24EF JUMP JUMPDEST PUSH1 0x20 DUP3 ADD SWAP1 POP SWAP2 SWAP1 POP JUMP JUMPDEST PUSH0 PUSH1 0x20 DUP3 ADD SWAP1 POP DUP2 DUP2 SUB PUSH0 DUP4 ADD MSTORE PUSH2 0x2550 DUP2 PUSH2 0x2517 JUMP JUMPDEST SWAP1 POP SWAP2 SWAP1 POP JUMP JUMPDEST PUSH32 0x4E4F542061207472757374656420697373756572000000000000000000000000 PUSH0 DUP3 ADD MSTORE POP JUMP JUMPDEST PUSH0 PUSH2 0x258B PUSH1 0x14 DUP4 PUSH2 0x24DF JUMP JUMPDEST SWAP2 POP PUSH2 0x2596 DUP3 PUSH2 0x2557 JUMP JUMPDEST PUSH1 0x20 DUP3 ADD SWAP1 POP SWAP2 SWAP1 POP JUMP JUMPDEST PUSH0 PUSH1 0x20 DUP3 ADD SWAP1 POP DUP2 DUP2 SUB PUSH0 DUP4 ADD MSTORE PUSH2 0x25B8 DUP2 PUSH2 0x257F JUMP JUMPDEST SWAP1 POP SWAP2 SWAP1 POP JUMP JUMPDEST PUSH32 0x63616E6E6F742068617665206D6F7265207468616E20313520636C61696D2074 PUSH0 DUP3 ADD MSTORE PUSH32 0x6F70696373000000000000000000000000000000000000000000000000000000 PUSH1 0x20 DUP3 ADD MSTORE POP JUMP JUMPDEST PUSH0 PUSH2 0x2619 PUSH1 0x25 DUP4 PUSH2 0x24DF JUMP JUMPDEST SWAP2 POP PUSH2 0x2624 DUP3 PUSH2 0x25BF JUMP JUMPDEST PUSH1 0x40 DUP3 ADD SWAP1 POP SWAP2 SWAP1 POP JUMP JUMPDEST PUSH0 PUSH1 0x20 DUP3 ADD SWAP1 POP DUP2 DUP2 SUB PUSH0 DUP4 ADD MSTORE PUSH2 0x2646 DUP2 PUSH2 0x260D JUMP JUMPDEST SWAP1 POP SWAP2 SWAP1 POP JUMP JUMPDEST PUSH32 0x636C61696D20746F706963732063616E6E6F7420626520656D70747900000000 PUSH0 DUP3 ADD MSTORE POP JUMP JUMPDEST PUSH0 PUSH2 0x2681 PUSH1 0x1C DUP4 PUSH2 0x24DF JUMP JUMPDEST SWAP2 POP PUSH2 0x268C DUP3 PUSH2 0x264D JUMP JUMPDEST PUSH1 0x20 DUP3 ADD SWAP1 POP SWAP2 SWAP1 POP JUMP JUMPDEST PUSH0 PUSH1 0x20 DUP3 ADD SWAP1 POP DUP2 DUP2 SUB PUSH0 DUP4 ADD MSTORE PUSH2 0x26AE DUP2 PUSH2 0x2675 JUMP JUMPDEST SWAP1 POP SWAP2 SWAP1 POP JUMP JUMPDEST PUSH32 0x4E487B7100000000000000000000000000000000000000000000000000000000 PUSH0 MSTORE PUSH1 0x32 PUSH1 0x4 MSTORE PUSH1 0x24 PUSH0 REVERT JUMPDEST PUSH32 0x4E487B7100000000000000000000000000000000000000000000000000000000 PUSH0 MSTORE PUSH1 0x11 PUSH1 0x4 MSTORE PUSH1 0x24 PUSH0 REVERT JUMPDEST PUSH0 PUSH2 0x2719 DUP3 PUSH2 0x20E0 JUMP JUMPDEST SWAP2 POP PUSH2 0x2724 DUP4 PUSH2 0x20E0 JUMP JUMPDEST SWAP3 POP DUP3 DUP3 SUB SWAP1 POP DUP2 DUP2 GT ISZERO PUSH2 0x273C JUMPI PUSH2 0x273B PUSH2 0x26E2 JUMP JUMPDEST JUMPDEST SWAP3 SWAP2 POP POP JUMP JUMPDEST PUSH32 0x4E487B7100000000000000000000000000000000000000000000000000000000 PUSH0 MSTORE PUSH1 0x31 PUSH1 0x4 MSTORE PUSH1 0x24 PUSH0 REVERT JUMPDEST PUSH0 PUSH2 0x2779 DUP3 PUSH2 0x20E0 JUMP JUMPDEST SWAP2 POP PUSH32 0xFFFFFFFFFFFFFFFFFFFFFFFFFFFFFFFFFFFFFFFFFFFFFFFFFFFFFFFFFFFFFFFF DUP3 SUB PUSH2 0x27AB JUMPI PUSH2 0x27AA PUSH2 0x26E2 JUMP JUMPDEST JUMPDEST PUSH1 0x1 DUP3 ADD SWAP1 POP SWAP2 SWAP1 POP JUMP JUMPDEST PUSH0 DUP1 REVERT JUMPDEST DUP3 DUP2 DUP4 CALLDATACOPY POP POP POP JUMP JUMPDEST PUSH0 PUSH2 0x27CE DUP4 DUP6 PUSH2 0x2412 JUMP JUMPDEST SWAP4 POP PUSH32 0x7FFFFFFFFFFFFFFFFFFFFFFFFFFFFFFFFFFFFFFFFFFFFFFFFFFFFFFFFFFFFFF DUP4 GT ISZERO PUSH2 0x2801 JUMPI PUSH2 0x2800 PUSH2 0x27B6 JUMP JUMPDEST JUMPDEST PUSH1 0x20 DUP4 MUL SWAP3 POP PUSH2 0x2812 DUP4 DUP6 DUP5 PUSH2 0x27BA JUMP JUMPDEST DUP3 DUP5 ADD SWAP1 POP SWAP4 SWAP3 POP POP POP JUMP JUMPDEST PUSH0 PUSH1 0x20 DUP3 ADD SWAP1 POP DUP2 DUP2 SUB PUSH0 DUP4 ADD MSTORE PUSH2 0x2837 DUP2 DUP5 DUP7 PUSH2 0x27C3 JUMP JUMPDEST SWAP1 POP SWAP4 SWAP3 POP POP POP JUMP JUMPDEST PUSH0 PUSH1 0x1F NOT PUSH1 0x1F DUP4 ADD AND SWAP1 POP SWAP2 SWAP1 POP JUMP JUMPDEST PUSH32 0x4E487B7100000000000000000000000000000000000000000000000000000000 PUSH0 MSTORE PUSH1 0x41 PUSH1 0x4 MSTORE PUSH1 0x24 PUSH0 REVERT JUMPDEST PUSH2 0x2886 DUP3 PUSH2 0x2840 JUMP JUMPDEST DUP2 ADD DUP2 DUP2 LT PUSH8 0xFFFFFFFFFFFFFFFF DUP3 GT OR ISZERO PUSH2 0x28A5 JUMPI PUSH2 0x28A4 PUSH2 0x2850 JUMP JUMPDEST JUMPDEST DUP1 PUSH1 0x40 MSTORE POP POP POP JUMP JUMPDEST PUSH0 PUSH2 0x28B7 PUSH2 0x1FA6 JUMP JUMPDEST SWAP1 POP PUSH2 0x28C3 DUP3 DUP3 PUSH2 0x287D JUMP JUMPDEST SWAP2 SWAP1 POP JUMP JUMPDEST PUSH0 PUSH8 0xFFFFFFFFFFFFFFFF DUP3 GT ISZERO PUSH2 0x28E2 JUMPI PUSH2 0x28E1 PUSH2 0x2850 JUMP JUMPDEST JUMPDEST PUSH1 0x20 DUP3 MUL SWAP1 POP PUSH1 0x20 DUP2 ADD SWAP1 POP SWAP2 SWAP1 POP JUMP JUMPDEST PUSH0 DUP2 MLOAD SWAP1 POP PUSH2 0x2901 DUP2 PUSH2 0x1FF8 JUMP JUMPDEST SWAP3 SWAP2 POP POP JUMP JUMPDEST PUSH0 PUSH2 0x2919 PUSH2 0x2914 DUP5 PUSH2 0x28C8 JUMP JUMPDEST PUSH2 0x28AE JUMP JUMPDEST SWAP1 POP DUP1 DUP4 DUP3 MSTORE PUSH1 0x20 DUP3 ADD SWAP1 POP PUSH1 0x20 DUP5 MUL DUP4 ADD DUP6 DUP2 GT ISZERO PUSH2 0x293C JUMPI PUSH2 0x293B PUSH2 0x202A JUMP JUMPDEST JUMPDEST DUP4 JUMPDEST DUP2 DUP2 LT ISZERO PUSH2 0x2965 JUMPI DUP1 PUSH2 0x2951 DUP9 DUP3 PUSH2 0x28F3 JUMP JUMPDEST DUP5 MSTORE PUSH1 0x20 DUP5 ADD SWAP4 POP POP PUSH1 0x20 DUP2 ADD SWAP1 POP PUSH2 0x293E JUMP JUMPDEST POP POP POP SWAP4 SWAP3 POP POP POP JUMP JUMPDEST PUSH0 DUP3 PUSH1 0x1F DUP4 ADD SLT PUSH2 0x2983 JUMPI PUSH2 0x2982 PUSH2 0x2022 JUMP JUMPDEST JUMPDEST DUP2 MLOAD PUSH2 0x2993 DUP5 DUP3 PUSH1 0x20 DUP7 ADD PUSH2 0x2907 JUMP JUMPDEST SWAP2 POP POP SWAP3 SWAP2 POP POP JUMP JUMPDEST PUSH0 PUSH1 0x20 DUP3 DUP5 SUB SLT ISZERO PUSH2 0x29B1 JUMPI PUSH2 0x29B0 PUSH2 0x1FAF JUMP JUMPDEST JUMPDEST PUSH0 DUP3 ADD MLOAD PUSH8 0xFFFFFFFFFFFFFFFF DUP2 GT ISZERO PUSH2 0x29CE JUMPI PUSH2 0x29CD PUSH2 0x1FB3 JUMP JUMPDEST JUMPDEST PUSH2 0x29DA DUP5 DUP3 DUP6 ADD PUSH2 0x296F JUMP JUMPDEST SWAP2 POP POP SWAP3 SWAP2 POP POP JUMP JUMPDEST PUSH0 PUSH1 0x40 DUP3 ADD SWAP1 POP PUSH2 0x29F6 PUSH0 DUP4 ADD DUP6 PUSH2 0x238D JUMP JUMPDEST PUSH2 0x2A03 PUSH1 0x20 DUP4 ADD DUP5 PUSH2 0x23B5 JUMP JUMPDEST SWAP4 SWAP3 POP POP POP JUMP JUMPDEST PUSH0 DUP2 SWAP1 POP SWAP2 SWAP1 POP JUMP JUMPDEST PUSH2 0x2A1C DUP2 PUSH2 0x2A0A JUMP JUMPDEST DUP3 MSTORE POP POP JUMP JUMPDEST PUSH0 PUSH1 0x20 DUP3 ADD SWAP1 POP PUSH2 0x2A35 PUSH0 DUP4 ADD DUP5 PUSH2 0x2A13 JUMP JUMPDEST SWAP3 SWAP2 POP POP JUMP JUMPDEST PUSH0 DUP2 MLOAD SWAP1 POP PUSH2 0x2A49 DUP2 PUSH2 0x20E9 JUMP JUMPDEST SWAP3 SWAP2 POP POP JUMP JUMPDEST PUSH0 DUP2 MLOAD SWAP1 POP PUSH2 0x2A5D DUP2 PUSH2 0x213E JUMP JUMPDEST SWAP3 SWAP2 POP POP JUMP JUMPDEST PUSH0 DUP1 REVERT JUMPDEST PUSH0 PUSH8 0xFFFFFFFFFFFFFFFF DUP3 GT ISZERO PUSH2 0x2A81 JUMPI PUSH2 0x2A80 PUSH2 0x2850 JUMP JUMPDEST JUMPDEST PUSH2 0x2A8A DUP3 PUSH2 0x2840 JUMP JUMPDEST SWAP1 POP PUSH1 0x20 DUP2 ADD SWAP1 POP SWAP2 SWAP1 POP JUMP JUMPDEST PUSH0 JUMPDEST DUP4 DUP2 LT ISZERO PUSH2 0x2AB4 JUMPI DUP1 DUP3 ADD MLOAD DUP2 DUP5 ADD MSTORE PUSH1 0x20 DUP2 ADD SWAP1 POP PUSH2 0x2A99 JUMP JUMPDEST PUSH0 DUP5 DUP5 ADD MSTORE POP POP POP POP JUMP JUMPDEST PUSH0 PUSH2 0x2AD1 PUSH2 0x2ACC DUP5 PUSH2 0x2A67 JUMP JUMPDEST PUSH2 0x28AE JUMP JUMPDEST SWAP1 POP DUP3 DUP2 MSTORE PUSH1 0x20 DUP2 ADD DUP5 DUP5 DUP5 ADD GT ISZERO PUSH2 0x2AED JUMPI PUSH2 0x2AEC PUSH2 0x2A63 JUMP JUMPDEST JUMPDEST PUSH2 0x2AF8 DUP5 DUP3 DUP6 PUSH2 0x2A97 JUMP JUMPDEST POP SWAP4 SWAP3 POP POP POP JUMP JUMPDEST PUSH0 DUP3 PUSH1 0x1F DUP4 ADD SLT PUSH2 0x2B14 JUMPI PUSH2 0x2B13 PUSH2 0x2022 JUMP JUMPDEST JUMPDEST DUP2 MLOAD PUSH2 0x2B24 DUP5 DUP3 PUSH1 0x20 DUP7 ADD PUSH2 0x2ABF JUMP JUMPDEST SWAP2 POP POP SWAP3 SWAP2 POP POP JUMP JUMPDEST PUSH0 PUSH8 0xFFFFFFFFFFFFFFFF DUP3 GT ISZERO PUSH2 0x2B47 JUMPI PUSH2 0x2B46 PUSH2 0x2850 JUMP JUMPDEST JUMPDEST PUSH2 0x2B50 DUP3 PUSH2 0x2840 JUMP JUMPDEST SWAP1 POP PUSH1 0x20 DUP2 ADD SWAP1 POP SWAP2 SWAP1 POP JUMP JUMPDEST PUSH0 PUSH2 0x2B6F PUSH2 0x2B6A DUP5 PUSH2 0x2B2D JUMP JUMPDEST PUSH2 0x28AE JUMP JUMPDEST SWAP1 POP DUP3 DUP2 MSTORE PUSH1 0x20 DUP2 ADD DUP5 DUP5 DUP5 ADD GT ISZERO PUSH2 0x2B8B JUMPI PUSH2 0x2B8A PUSH2 0x2A63 JUMP JUMPDEST JUMPDEST PUSH2 0x2B96 DUP5 DUP3 DUP6 PUSH2 0x2A97 JUMP JUMPDEST POP SWAP4 SWAP3 POP POP POP JUMP JUMPDEST PUSH0 DUP3 PUSH1 0x1F DUP4 ADD SLT PUSH2 0x2BB2 JUMPI PUSH2 0x2BB1 PUSH2 0x2022 JUMP JUMPDEST JUMPDEST DUP2 MLOAD PUSH2 0x2BC2 DUP5 DUP3 PUSH1 0x20 DUP7 ADD PUSH2 0x2B5D JUMP JUMPDEST SWAP2 POP POP SWAP3 SWAP2 POP POP JUMP JUMPDEST PUSH0 DUP1 PUSH0 DUP1 PUSH0 DUP1 PUSH1 0xC0 DUP8 DUP10 SUB SLT ISZERO PUSH2 0x2BE5 JUMPI PUSH2 0x2BE4 PUSH2 0x1FAF JUMP JUMPDEST JUMPDEST PUSH0 PUSH2 0x2BF2 DUP10 DUP3 DUP11 ADD PUSH2 0x2A3B JUMP JUMPDEST SWAP7 POP POP PUSH1 0x20 PUSH2 0x2C03 DUP10 DUP3 DUP11 ADD PUSH2 0x2A3B JUMP JUMPDEST SWAP6 POP POP PUSH1 0x40 PUSH2 0x2C14 DUP10 DUP3 DUP11 ADD PUSH2 0x2A4F JUMP JUMPDEST SWAP5 POP POP PUSH1 0x60 DUP8 ADD MLOAD PUSH8 0xFFFFFFFFFFFFFFFF DUP2 GT ISZERO PUSH2 0x2C35 JUMPI PUSH2 0x2C34 PUSH2 0x1FB3 JUMP JUMPDEST JUMPDEST PUSH2 0x2C41 DUP10 DUP3 DUP11 ADD PUSH2 0x2B00 JUMP JUMPDEST SWAP4 POP POP PUSH1 0x80 DUP8 ADD MLOAD PUSH8 0xFFFFFFFFFFFFFFFF DUP2 GT ISZERO PUSH2 0x2C62 JUMPI PUSH2 0x2C61 PUSH2 0x1FB3 JUMP JUMPDEST JUMPDEST PUSH2 0x2C6E DUP10 DUP3 DUP11 ADD PUSH2 0x2B00 JUMP JUMPDEST SWAP3 POP POP PUSH1 0xA0 DUP8 ADD MLOAD PUSH8 0xFFFFFFFFFFFFFFFF DUP2 GT ISZERO PUSH2 0x2C8F JUMPI PUSH2 0x2C8E PUSH2 0x1FB3 JUMP JUMPDEST JUMPDEST PUSH2 0x2C9B DUP10 DUP3 DUP11 ADD PUSH2 0x2B9E JUMP JUMPDEST SWAP2 POP POP SWAP3 SWAP6 POP SWAP3 SWAP6 POP SWAP3 SWAP6 JUMP JUMPDEST PUSH0 PUSH2 0x2CB2 DUP3 PUSH2 0x222C JUMP JUMPDEST SWAP1 POP SWAP2 SWAP1 POP JUMP JUMPDEST PUSH2 0x2CC2 DUP2 PUSH2 0x2CA8 JUMP JUMPDEST DUP3 MSTORE POP POP JUMP JUMPDEST PUSH0 DUP2 MLOAD SWAP1 POP SWAP2 SWAP1 POP JUMP JUMPDEST PUSH0 DUP3 DUP3 MSTORE PUSH1 0x20 DUP3 ADD SWAP1 POP SWAP3 SWAP2 POP POP JUMP JUMPDEST PUSH0 PUSH2 0x2CEC DUP3 PUSH2 0x2CC8 JUMP JUMPDEST PUSH2 0x2CF6 DUP2 DUP6 PUSH2 0x2CD2 JUMP JUMPDEST SWAP4 POP PUSH2 0x2D06 DUP2 DUP6 PUSH1 0x20 DUP7 ADD PUSH2 0x2A97 JUMP JUMPDEST PUSH2 0x2D0F DUP2 PUSH2 0x2840 JUMP JUMPDEST DUP5 ADD SWAP2 POP POP SWAP3 SWAP2 POP POP JUMP JUMPDEST PUSH0 PUSH1 0x80 DUP3 ADD SWAP1 POP PUSH2 0x2D2D PUSH0 DUP4 ADD DUP8 PUSH2 0x2CB9 JUMP JUMPDEST PUSH2 0x2D3A PUSH1 0x20 DUP4 ADD DUP7 PUSH2 0x23B5 JUMP JUMPDEST DUP2 DUP2 SUB PUSH1 0x40 DUP4 ADD MSTORE PUSH2 0x2D4C DUP2 DUP6 PUSH2 0x2CE2 JUMP JUMPDEST SWAP1 POP DUP2 DUP2 SUB PUSH1 0x60 DUP4 ADD MSTORE PUSH2 0x2D60 DUP2 DUP5 PUSH2 0x2CE2 JUMP JUMPDEST SWAP1 POP SWAP6 SWAP5 POP POP POP POP POP JUMP JUMPDEST PUSH2 0x2D74 DUP2 PUSH2 0x21A6 JUMP JUMPDEST DUP2 EQ PUSH2 0x2D7E JUMPI PUSH0 DUP1 REVERT JUMPDEST POP JUMP JUMPDEST PUSH0 DUP2 MLOAD SWAP1 POP PUSH2 0x2D8F DUP2 PUSH2 0x2D6B JUMP JUMPDEST SWAP3 SWAP2 POP POP JUMP JUMPDEST PUSH0 PUSH1 0x20 DUP3 DUP5 SUB SLT ISZERO PUSH2 0x2DAA JUMPI PUSH2 0x2DA9 PUSH2 0x1FAF JUMP JUMPDEST JUMPDEST PUSH0 PUSH2 0x2DB7 DUP5 DUP3 DUP6 ADD PUSH2 0x2D81 JUMP JUMPDEST SWAP2 POP POP SWAP3 SWAP2 POP POP JUMP JUMPDEST PUSH32 0x747275737465642049737375657220616C726561647920657869737473000000 PUSH0 DUP3 ADD MSTORE POP JUMP JUMPDEST PUSH0 PUSH2 0x2DF4 PUSH1 0x1D DUP4 PUSH2 0x24DF JUMP JUMPDEST SWAP2 POP PUSH2 0x2DFF DUP3 PUSH2 0x2DC0 JUMP JUMPDEST PUSH1 0x20 DUP3 ADD SWAP1 POP SWAP2 SWAP1 POP JUMP JUMPDEST PUSH0 PUSH1 0x20 DUP3 ADD SWAP1 POP DUP2 DUP2 SUB PUSH0 DUP4 ADD MSTORE PUSH2 0x2E21 DUP2 PUSH2 0x2DE8 JUMP JUMPDEST SWAP1 POP SWAP2 SWAP1 POP JUMP JUMPDEST PUSH32 0x7472757374656420636C61696D20746F706963732063616E6E6F742062652065 PUSH0 DUP3 ADD MSTORE PUSH32 0x6D70747900000000000000000000000000000000000000000000000000000000 PUSH1 0x20 DUP3 ADD MSTORE POP JUMP JUMPDEST PUSH0 PUSH2 0x2E82 PUSH1 0x24 DUP4 PUSH2 0x24DF JUMP JUMPDEST SWAP2 POP PUSH2 0x2E8D DUP3 PUSH2 0x2E28 JUMP JUMPDEST PUSH1 0x40 DUP3 ADD SWAP1 POP SWAP2 SWAP1 POP JUMP JUMPDEST PUSH0 PUSH1 0x20 DUP3 ADD SWAP1 POP DUP2 DUP2 SUB PUSH0 DUP4 ADD MSTORE PUSH2 0x2EAF DUP2 PUSH2 0x2E76 JUMP JUMPDEST SWAP1 POP SWAP2 SWAP1 POP JUMP JUMPDEST PUSH32 0x63616E6E6F742068617665206D6F7265207468616E2035302074727573746564 PUSH0 DUP3 ADD MSTORE PUSH32 0x2069737375657273000000000000000000000000000000000000000000000000 PUSH1 0x20 DUP3 ADD MSTORE POP JUMP JUMPDEST PUSH0 PUSH2 0x2F10 PUSH1 0x28 DUP4 PUSH2 0x24DF JUMP JUMPDEST SWAP2 POP PUSH2 0x2F1B DUP3 PUSH2 0x2EB6 JUMP JUMPDEST PUSH1 0x40 DUP3 ADD SWAP1 POP SWAP2 SWAP1 POP JUMP JUMPDEST PUSH0 PUSH1 0x20 DUP3 ADD SWAP1 POP DUP2 DUP2 SUB PUSH0 DUP4 ADD MSTORE PUSH2 0x2F3D DUP2 PUSH2 0x2F04 JUMP JUMPDEST SWAP1 POP SWAP2 SWAP1 POP JUMP JUMPDEST PUSH32 0x747275737465642049737375657220646F65736E277420657869737400000000 PUSH0 DUP3 ADD MSTORE POP JUMP JUMPDEST PUSH0 PUSH2 0x2F78 PUSH1 0x1C DUP4 PUSH2 0x24DF JUMP JUMPDEST SWAP2 POP PUSH2 0x2F83 DUP3 PUSH2 0x2F44 JUMP JUMPDEST PUSH1 0x20 DUP3 ADD SWAP1 POP SWAP2 SWAP1 POP JUMP JUMPDEST PUSH0 PUSH1 0x20 DUP3 ADD SWAP1 POP DUP2 DUP2 SUB PUSH0 DUP4 ADD MSTORE PUSH2 0x2FA5 DUP2 PUSH2 0x2F6C JUMP JUMPDEST SWAP1 POP SWAP2 SWAP1 POP JUMP JUMPDEST PUSH32 0x63616E6E6F742072657175697265206D6F7265207468616E20313520746F7069 PUSH0 DUP3 ADD MSTORE PUSH32 0x6373000000000000000000000000000000000000000000000000000000000000 PUSH1 0x20 DUP3 ADD MSTORE POP JUMP JUMPDEST PUSH0 PUSH2 0x3006 PUSH1 0x22 DUP4 PUSH2 0x24DF JUMP JUMPDEST SWAP2 POP PUSH2 0x3011 DUP3 PUSH2 0x2FAC JUMP JUMPDEST PUSH1 0x40 DUP3 ADD SWAP1 POP SWAP2 SWAP1 POP JUMP JUMPDEST PUSH0 PUSH1 0x20 DUP3 ADD SWAP1 POP DUP2 DUP2 SUB PUSH0 DUP4 ADD MSTORE PUSH2 0x3033 DUP2 PUSH2 0x2FFA JUMP JUMPDEST SWAP1 POP SWAP2 SWAP1 POP JUMP JUMPDEST PUSH32 0x636C61696D546F70696320616C72656164792065786973747300000000000000 PUSH0 DUP3 ADD MSTORE POP JUMP JUMPDEST PUSH0 PUSH2 0x306E PUSH1 0x19 DUP4 PUSH2 0x24DF JUMP JUMPDEST SWAP2 POP PUSH2 0x3079 DUP3 PUSH2 0x303A JUMP JUMPDEST PUSH1 0x20 DUP3 ADD SWAP1 POP SWAP2 SWAP1 POP JUMP JUMPDEST PUSH0 PUSH1 0x20 DUP3 ADD SWAP1 POP DUP2 DUP2 SUB PUSH0 DUP4 ADD MSTORE PUSH2 0x309B DUP2 PUSH2 0x3062 JUMP JUMPDEST SWAP1 POP SWAP2 SWAP1 POP JUMP INVALID LOG2 PUSH5 0x6970667358 0x22 SLT KECCAK256 0xC4 0xE9 0x27 PUSH13 0x8565823D82DE4DC1A2846D0E8A 0xBB 0xDA SELFBALANCE 0xF6 MULMOD CREATE PUSH29 0xB84265FB6349D39B64736F6C6343000814003300000000000000000000 "
		},
		"gasEstimates": {
			"creation": {
				"codeDepositCost": "2500800",
				"executionCost": "infinite",
				"totalCost": "infinite"
			},
			"external": {
				"addClaimTopic(uint256)": "infinite",
				"addTrustedIssuer(address,uint256[])": "infinite",
				"claimTopicsToTrustedIssuers(uint256,uint256)": "infinite",
				"getTrustedIssuerClaimTopics(address)": "infinite",
				"getTrustedIssuers()": "infinite",
				"getTrustedIssuersForClaimTopic(uint256)": "infinite",
				"hasClaimTopic(address,uint256)": "infinite",
				"isClaimTopicRequired(uint256)": "infinite",
				"isTrustedIssuer(address)": "2968",
				"owner()": "2582",
				"removeClaimTopic(uint256)": "infinite",
				"removeTrustedIssuer(address)": "infinite",
				"renounceOwnership()": "infinite",
				"requiredClaimTopics(uint256)": "infinite",
				"transferOwnership(address)": "infinite",
				"trustedIssuerClaimTopics(address,uint256)": "infinite",
				"trustedIssuers(uint256)": "infinite",
				"updateIssuerClaimTopics(address,uint256[])": "infinite",
				"verify(address)": "infinite"
			}
		},
		"methodIdentifiers": {
			"addClaimTopic(uint256)": "c7b22551",
			"addTrustedIssuer(address,uint256[])": "9f63ea98",
			"claimTopicsToTrustedIssuers(uint256,uint256)": "93e9f801",
			"getTrustedIssuerClaimTopics(address)": "c28fb278",
			"getTrustedIssuers()": "d9dd24c5",
			"getTrustedIssuersForClaimTopic(uint256)": "52c111d1",
			"hasClaimTopic(address,uint256)": "34a89987",
			"isClaimTopicRequired(uint256)": "be36359f",
			"isTrustedIssuer(address)": "ef2ed1a4",
			"owner()": "8da5cb5b",
			"removeClaimTopic(uint256)": "08297846",
			"removeTrustedIssuer(address)": "b93d28eb",
			"renounceOwnership()": "715018a6",
			"requiredClaimTopics(uint256)": "b5fa8693",
			"transferOwnership(address)": "f2fde38b",
			"trustedIssuerClaimTopics(address,uint256)": "ba64c341",
			"trustedIssuers(uint256)": "c801dd40",
			"updateIssuerClaimTopics(address,uint256[])": "04bc7e84",
			"verify(address)": "63a9c3d7"
		}
	},
	"abi": [
		{
			"inputs": [
				{
					"internalType": "address",
					"name": "owner",
					"type": "address"
				}
			],
			"name": "OwnableInvalidOwner",
			"type": "error"
		},
		{
			"inputs": [
				{
					"internalType": "address",
					"name": "account",
					"type": "address"
				}
			],
			"name": "OwnableUnauthorizedAccount",
			"type": "error"
		},
		{
			"anonymous": false,
			"inputs": [
				{
					"indexed": true,
					"internalType": "uint256",
					"name": "claimTopic",
					"type": "uint256"
				}
			],
			"name": "ClaimTopicAdded",
			"type": "event"
		},
		{
			"anonymous": false,
			"inputs": [
				{
					"indexed": true,
					"internalType": "uint256",
					"name": "claimTopic",
					"type": "uint256"
				}
			],
			"name": "ClaimTopicRemoved",
			"type": "event"
		},
		{
			"anonymous": false,
			"inputs": [
				{
					"indexed": true,
					"internalType": "contract IClaimIssuer",
					"name": "trustedIssuer",
					"type": "address"
				},
				{
					"indexed": false,
					"internalType": "uint256[]",
					"name": "claimTopics",
					"type": "uint256[]"
				}
			],
			"name": "ClaimTopicsUpdated",
			"type": "event"
		},
		{
			"anonymous": false,
			"inputs": [
				{
					"indexed": true,
					"internalType": "address",
					"name": "previousOwner",
					"type": "address"
				},
				{
					"indexed": true,
					"internalType": "address",
					"name": "newOwner",
					"type": "address"
				}
			],
			"name": "OwnershipTransferred",
			"type": "event"
		},
		{
			"anonymous": false,
			"inputs": [
				{
					"indexed": true,
					"internalType": "contract IClaimIssuer",
					"name": "trustedIssuer",
					"type": "address"
				},
				{
					"indexed": false,
					"internalType": "uint256[]",
					"name": "claimTopics",
					"type": "uint256[]"
				}
			],
			"name": "TrustedIssuerAdded",
			"type": "event"
		},
		{
			"anonymous": false,
			"inputs": [
				{
					"indexed": true,
					"internalType": "contract IClaimIssuer",
					"name": "trustedIssuer",
					"type": "address"
				}
			],
			"name": "TrustedIssuerRemoved",
			"type": "event"
		},
		{
			"inputs": [
				{
					"internalType": "uint256",
					"name": "claimTopic",
					"type": "uint256"
				}
			],
			"name": "addClaimTopic",
			"outputs": [],
			"stateMutability": "nonpayable",
			"type": "function"
		},
		{
			"inputs": [
				{
					"internalType": "contract IClaimIssuer",
					"name": "trustedIssuer",
					"type": "address"
				},
				{
					"internalType": "uint256[]",
					"name": "claimTopics",
					"type": "uint256[]"
				}
			],
			"name": "addTrustedIssuer",
			"outputs": [],
			"stateMutability": "nonpayable",
			"type": "function"
		},
		{
			"inputs": [
				{
					"internalType": "uint256",
					"name": "",
					"type": "uint256"
				},
				{
					"internalType": "uint256",
					"name": "",
					"type": "uint256"
				}
			],
			"name": "claimTopicsToTrustedIssuers",
			"outputs": [
				{
					"internalType": "contract IClaimIssuer",
					"name": "",
					"type": "address"
				}
			],
			"stateMutability": "view",
			"type": "function"
		},
		{
			"inputs": [
				{
					"internalType": "contract IClaimIssuer",
					"name": "trustedIssuer",
					"type": "address"
				}
			],
			"name": "getTrustedIssuerClaimTopics",
			"outputs": [
				{
					"internalType": "uint256[]",
					"name": "",
					"type": "uint256[]"
				}
			],
			"stateMutability": "view",
			"type": "function"
		},
		{
			"inputs": [],
			"name": "getTrustedIssuers",
			"outputs": [
				{
					"internalType": "contract IClaimIssuer[]",
					"name": "",
					"type": "address[]"
				}
			],
			"stateMutability": "view",
			"type": "function"
		},
		{
			"inputs": [
				{
					"internalType": "uint256",
					"name": "claimTopic",
					"type": "uint256"
				}
			],
			"name": "getTrustedIssuersForClaimTopic",
			"outputs": [
				{
					"internalType": "contract IClaimIssuer[]",
					"name": "",
					"type": "address[]"
				}
			],
			"stateMutability": "view",
			"type": "function"
		},
		{
			"inputs": [
				{
					"internalType": "address",
					"name": "issuer",
					"type": "address"
				},
				{
					"internalType": "uint256",
					"name": "claimTopic",
					"type": "uint256"
				}
			],
			"name": "hasClaimTopic",
			"outputs": [
				{
					"internalType": "bool",
					"name": "",
					"type": "bool"
				}
			],
			"stateMutability": "view",
			"type": "function"
		},
		{
			"inputs": [
				{
					"internalType": "uint256",
					"name": "claimTopic",
					"type": "uint256"
				}
			],
			"name": "isClaimTopicRequired",
			"outputs": [
				{
					"internalType": "bool",
					"name": "",
					"type": "bool"
				}
			],
			"stateMutability": "view",
			"type": "function"
		},
		{
			"inputs": [
				{
					"internalType": "address",
					"name": "issuer",
					"type": "address"
				}
			],
			"name": "isTrustedIssuer",
			"outputs": [
				{
					"internalType": "bool",
					"name": "",
					"type": "bool"
				}
			],
			"stateMutability": "view",
			"type": "function"
		},
		{
			"inputs": [],
			"name": "owner",
			"outputs": [
				{
					"internalType": "address",
					"name": "",
					"type": "address"
				}
			],
			"stateMutability": "view",
			"type": "function"
		},
		{
			"inputs": [
				{
					"internalType": "uint256",
					"name": "claimTopic",
					"type": "uint256"
				}
			],
			"name": "removeClaimTopic",
			"outputs": [],
			"stateMutability": "nonpayable",
			"type": "function"
		},
		{
			"inputs": [
				{
					"internalType": "contract IClaimIssuer",
					"name": "trustedIssuer",
					"type": "address"
				}
			],
			"name": "removeTrustedIssuer",
			"outputs": [],
			"stateMutability": "nonpayable",
			"type": "function"
		},
		{
			"inputs": [],
			"name": "renounceOwnership",
			"outputs": [],
			"stateMutability": "nonpayable",
			"type": "function"
		},
		{
			"inputs": [
				{
					"internalType": "uint256",
					"name": "",
					"type": "uint256"
				}
			],
			"name": "requiredClaimTopics",
			"outputs": [
				{
					"internalType": "uint256",
					"name": "",
					"type": "uint256"
				}
			],
			"stateMutability": "view",
			"type": "function"
		},
		{
			"inputs": [
				{
					"internalType": "address",
					"name": "newOwner",
					"type": "address"
				}
			],
			"name": "transferOwnership",
			"outputs": [],
			"stateMutability": "nonpayable",
			"type": "function"
		},
		{
			"inputs": [
				{
					"internalType": "address",
					"name": "",
					"type": "address"
				},
				{
					"internalType": "uint256",
					"name": "",
					"type": "uint256"
				}
			],
			"name": "trustedIssuerClaimTopics",
			"outputs": [
				{
					"internalType": "uint256",
					"name": "",
					"type": "uint256"
				}
			],
			"stateMutability": "view",
			"type": "function"
		},
		{
			"inputs": [
				{
					"internalType": "uint256",
					"name": "",
					"type": "uint256"
				}
			],
			"name": "trustedIssuers",
			"outputs": [
				{
					"internalType": "contract IClaimIssuer",
					"name": "",
					"type": "address"
				}
			],
			"stateMutability": "view",
			"type": "function"
		},
		{
			"inputs": [
				{
					"internalType": "contract IClaimIssuer",
					"name": "trustedIssuer",
					"type": "address"
				},
				{
					"internalType": "uint256[]",
					"name": "newClaimTopics",
					"type": "uint256[]"
				}
			],
			"name": "updateIssuerClaimTopics",
			"outputs": [],
			"stateMutability": "nonpayable",
			"type": "function"
		},
		{
			"inputs": [
				{
					"internalType": "address",
					"name": "identity",
					"type": "address"
				}
			],
			"name": "verify",
			"outputs": [
				{
					"internalType": "bool",
					"name": "isVerified",
					"type": "bool"
				}
			],
			"stateMutability": "view",
			"type": "function"
		}
	]
}