{
	"contracts/registry/ClaimTopicsRegistry.sol": {
		"ClaimTopicsRegistry": {
			"abi": [
				{
					"inputs": [
						{
							"internalType": "address",
							"name": "owner",
							"type": "address"
						}
					],
					"name": "OwnableInvalidOwner",
					"type": "error"
				},
				{
					"inputs": [
						{
							"internalType": "address",
							"name": "account",
							"type": "address"
						}
					],
					"name": "OwnableUnauthorizedAccount",
					"type": "error"
				},
				{
					"anonymous": false,
					"inputs": [
						{
							"indexed": true,
							"internalType": "uint256",
							"name": "claimTopic",
							"type": "uint256"
						}
					],
					"name": "ClaimTopicAdded",
					"type": "event"
				},
				{
					"anonymous": false,
					"inputs": [
						{
							"indexed": true,
							"internalType": "uint256",
							"name": "claimTopic",
							"type": "uint256"
						}
					],
					"name": "ClaimTopicRemoved",
					"type": "event"
				},
				{
					"anonymous": false,
					"inputs": [
						{
							"indexed": true,
							"internalType": "address",
							"name": "previousOwner",
							"type": "address"
						},
						{
							"indexed": true,
							"internalType": "address",
							"name": "newOwner",
							"type": "address"
						}
					],
					"name": "OwnershipTransferred",
					"type": "event"
				},
				{
					"inputs": [
						{
							"internalType": "uint256",
							"name": "_claimTopic",
							"type": "uint256"
						}
					],
					"name": "addClaimTopic",
					"outputs": [],
					"stateMutability": "nonpayable",
					"type": "function"
				},
				{
					"inputs": [],
					"name": "getClaimTopics",
					"outputs": [
						{
							"internalType": "uint256[]",
							"name": "",
							"type": "uint256[]"
						}
					],
					"stateMutability": "view",
					"type": "function"
				},
				{
					"inputs": [],
					"name": "owner",
					"outputs": [
						{
							"internalType": "address",
							"name": "",
							"type": "address"
						}
					],
					"stateMutability": "view",
					"type": "function"
				},
				{
					"inputs": [
						{
							"internalType": "uint256",
							"name": "_claimTopic",
							"type": "uint256"
						}
					],
					"name": "removeClaimTopic",
					"outputs": [],
					"stateMutability": "nonpayable",
					"type": "function"
				},
				{
					"inputs": [],
					"name": "renounceOwnership",
					"outputs": [],
					"stateMutability": "nonpayable",
					"type": "function"
				},
				{
					"inputs": [
						{
							"internalType": "address",
							"name": "newOwner",
							"type": "address"
						}
					],
					"name": "transferOwnership",
					"outputs": [],
					"stateMutability": "nonpayable",
					"type": "function"
				}
			],
			"devdoc": {
				"details": "A registry for managing claim topics.",
				"errors": {
					"OwnableInvalidOwner(address)": [
						{
							"details": "The owner is not a valid owner account. (eg. `address(0)`)"
						}
					],
					"OwnableUnauthorizedAccount(address)": [
						{
							"details": "The caller account is not authorized to perform an operation."
						}
					]
				},
				"kind": "dev",
				"methods": {
					"addClaimTopic(uint256)": {
						"details": "Can only be called by the owner of the contract. Emits a ClaimTopicAdded event.",
						"params": {
							"_claimTopic": "The claim topic to add."
						}
					},
					"getClaimTopics()": {
						"returns": {
							"_0": "uint256[] An array of claim topics."
						}
					},
					"owner()": {
						"details": "Returns the address of the current owner."
					},
					"removeClaimTopic(uint256)": {
						"details": "Can only be called by the owner of the contract. Emits a ClaimTopicRemoved event.",
						"params": {
							"_claimTopic": "The claim topic to remove."
						}
					},
					"renounceOwnership()": {
						"details": "Leaves the contract without owner. It will not be possible to call `onlyOwner` functions. Can only be called by the current owner. NOTE: Renouncing ownership will leave the contract without an owner, thereby disabling any functionality that is only available to the owner."
					},
					"transferOwnership(address)": {
						"details": "Transfers ownership of the contract to a new account (`newOwner`). Can only be called by the current owner."
					}
				},
				"stateVariables": {
					"_claimTopics": {
						"details": "An array to hold all required claim topics."
					}
				},
				"title": "ERC-3643 - ClaimTopicsRegistry",
				"version": 1
			},
			"evm": {
				"assembly": "    /* \"contracts/registry/ClaimTopicsRegistry.sol\":268:2427  contract ClaimTopicsRegistry is IClaimTopicsRegistry, Ownable(msg.sender) {... */\n  mstore(0x40, 0x80)\n  callvalue\n  dup1\n  iszero\n  tag_1\n  jumpi\n  0x00\n  dup1\n  revert\ntag_1:\n  pop\n    /* \"contracts/registry/ClaimTopicsRegistry.sol\":330:340  msg.sender */\n  caller\n    /* \"@openzeppelin/contracts/access/Ownable.sol\":1297:1298  0 */\n  0x00\n    /* \"@openzeppelin/contracts/access/Ownable.sol\":1273:1299  initialOwner == address(0) */\n  0xffffffffffffffffffffffffffffffffffffffff\n  and\n    /* \"@openzeppelin/contracts/access/Ownable.sol\":1273:1285  initialOwner */\n  dup2\n    /* \"@openzeppelin/contracts/access/Ownable.sol\":1273:1299  initialOwner == address(0) */\n  0xffffffffffffffffffffffffffffffffffffffff\n  and\n  sub\n    /* \"@openzeppelin/contracts/access/Ownable.sol\":1269:1364  if (initialOwner == address(0)) {... */\n  tag_4\n  jumpi\n    /* \"@openzeppelin/contracts/access/Ownable.sol\":1350:1351  0 */\n  0x00\n    /* \"@openzeppelin/contracts/access/Ownable.sol\":1322:1353  OwnableInvalidOwner(address(0)) */\n  mload(0x40)\n  0x1e4fbdf700000000000000000000000000000000000000000000000000000000\n  dup2\n  mstore\n  0x04\n  add\n  tag_5\n  swap2\n  swap1\n  tag_6\n  jump\t// in\ntag_5:\n  mload(0x40)\n  dup1\n  swap2\n  sub\n  swap1\n  revert\n    /* \"@openzeppelin/contracts/access/Ownable.sol\":1269:1364  if (initialOwner == address(0)) {... */\ntag_4:\n    /* \"@openzeppelin/contracts/access/Ownable.sol\":1373:1405  _transferOwnership(initialOwner) */\n  tag_7\n    /* \"@openzeppelin/contracts/access/Ownable.sol\":1392:1404  initialOwner */\n  dup2\n    /* \"@openzeppelin/contracts/access/Ownable.sol\":1373:1391  _transferOwnership */\n  shl(0x20, tag_8)\n    /* \"@openzeppelin/contracts/access/Ownable.sol\":1373:1405  _transferOwnership(initialOwner) */\n  0x20\n  shr\n  jump\t// in\ntag_7:\n    /* \"@openzeppelin/contracts/access/Ownable.sol\":1225:1412  constructor(address initialOwner) {... */\n  pop\n    /* \"contracts/registry/ClaimTopicsRegistry.sol\":268:2427  contract ClaimTopicsRegistry is IClaimTopicsRegistry, Ownable(msg.sender) {... */\n  jump(tag_9)\n    /* \"@openzeppelin/contracts/access/Ownable.sol\":2912:3099  function _transferOwnership(address newOwner) internal virtual {... */\ntag_8:\n    /* \"@openzeppelin/contracts/access/Ownable.sol\":2985:3001  address oldOwner */\n  0x00\n    /* \"@openzeppelin/contracts/access/Ownable.sol\":3004:3010  _owner */\n  dup1\n  0x00\n  swap1\n  sload\n  swap1\n  0x0100\n  exp\n  swap1\n  div\n  0xffffffffffffffffffffffffffffffffffffffff\n  and\n    /* \"@openzeppelin/contracts/access/Ownable.sol\":2985:3010  address oldOwner = _owner */\n  swap1\n  pop\n    /* \"@openzeppelin/contracts/access/Ownable.sol\":3029:3037  newOwner */\n  dup2\n    /* \"@openzeppelin/contracts/access/Ownable.sol\":3020:3026  _owner */\n  0x00\n  dup1\n    /* \"@openzeppelin/contracts/access/Ownable.sol\":3020:3037  _owner = newOwner */\n  0x0100\n  exp\n  dup2\n  sload\n  dup2\n  0xffffffffffffffffffffffffffffffffffffffff\n  mul\n  not\n  and\n  swap1\n  dup4\n  0xffffffffffffffffffffffffffffffffffffffff\n  and\n  mul\n  or\n  swap1\n  sstore\n  pop\n    /* \"@openzeppelin/contracts/access/Ownable.sol\":3083:3091  newOwner */\n  dup2\n    /* \"@openzeppelin/contracts/access/Ownable.sol\":3052:3092  OwnershipTransferred(oldOwner, newOwner) */\n  0xffffffffffffffffffffffffffffffffffffffff\n  and\n    /* \"@openzeppelin/contracts/access/Ownable.sol\":3073:3081  oldOwner */\n  dup2\n    /* \"@openzeppelin/contracts/access/Ownable.sol\":3052:3092  OwnershipTransferred(oldOwner, newOwner) */\n  0xffffffffffffffffffffffffffffffffffffffff\n  and\n  0x8be0079c531659141344cd1fd0a4f28419497f9722a3daafe3b4186f6b6457e0\n  mload(0x40)\n  mload(0x40)\n  dup1\n  swap2\n  sub\n  swap1\n  log3\n    /* \"@openzeppelin/contracts/access/Ownable.sol\":2975:3099  {... */\n  pop\n    /* \"@openzeppelin/contracts/access/Ownable.sol\":2912:3099  function _transferOwnership(address newOwner) internal virtual {... */\n  pop\n  jump\t// out\n    /* \"#utility.yul\":7:133   */\ntag_11:\n    /* \"#utility.yul\":44:51   */\n  0x00\n    /* \"#utility.yul\":84:126   */\n  0xffffffffffffffffffffffffffffffffffffffff\n    /* \"#utility.yul\":77:82   */\n  dup3\n    /* \"#utility.yul\":73:127   */\n  and\n    /* \"#utility.yul\":62:127   */\n  swap1\n  pop\n    /* \"#utility.yul\":7:133   */\n  swap2\n  swap1\n  pop\n  jump\t// out\n    /* \"#utility.yul\":139:235   */\ntag_12:\n    /* \"#utility.yul\":176:183   */\n  0x00\n    /* \"#utility.yul\":205:229   */\n  tag_17\n    /* \"#utility.yul\":223:228   */\n  dup3\n    /* \"#utility.yul\":205:229   */\n  tag_11\n  jump\t// in\ntag_17:\n    /* \"#utility.yul\":194:229   */\n  swap1\n  pop\n    /* \"#utility.yul\":139:235   */\n  swap2\n  swap1\n  pop\n  jump\t// out\n    /* \"#utility.yul\":241:359   */\ntag_13:\n    /* \"#utility.yul\":328:352   */\n  tag_19\n    /* \"#utility.yul\":346:351   */\n  dup2\n    /* \"#utility.yul\":328:352   */\n  tag_12\n  jump\t// in\ntag_19:\n    /* \"#utility.yul\":323:326   */\n  dup3\n    /* \"#utility.yul\":316:353   */\n  mstore\n    /* \"#utility.yul\":241:359   */\n  pop\n  pop\n  jump\t// out\n    /* \"#utility.yul\":365:587   */\ntag_6:\n    /* \"#utility.yul\":458:462   */\n  0x00\n    /* \"#utility.yul\":496:498   */\n  0x20\n    /* \"#utility.yul\":485:494   */\n  dup3\n    /* \"#utility.yul\":481:499   */\n  add\n    /* \"#utility.yul\":473:499   */\n  swap1\n  pop\n    /* \"#utility.yul\":509:580   */\n  tag_21\n    /* \"#utility.yul\":577:578   */\n  0x00\n    /* \"#utility.yul\":566:575   */\n  dup4\n    /* \"#utility.yul\":562:579   */\n  add\n    /* \"#utility.yul\":553:559   */\n  dup5\n    /* \"#utility.yul\":509:580   */\n  tag_13\n  jump\t// in\ntag_21:\n    /* \"#utility.yul\":365:587   */\n  swap3\n  swap2\n  pop\n  pop\n  jump\t// out\n    /* \"contracts/registry/ClaimTopicsRegistry.sol\":268:2427  contract ClaimTopicsRegistry is IClaimTopicsRegistry, Ownable(msg.sender) {... */\ntag_9:\n  dataSize(sub_0)\n  dup1\n  dataOffset(sub_0)\n  0x00\n  codecopy\n  0x00\n  return\nstop\n\nsub_0: assembly {\n        /* \"contracts/registry/ClaimTopicsRegistry.sol\":268:2427  contract ClaimTopicsRegistry is IClaimTopicsRegistry, Ownable(msg.sender) {... */\n      mstore(0x40, 0x80)\n      callvalue\n      dup1\n      iszero\n      tag_1\n      jumpi\n      0x00\n      dup1\n      revert\n    tag_1:\n      pop\n      jumpi(tag_2, lt(calldatasize, 0x04))\n      shr(0xe0, calldataload(0x00))\n      dup1\n      0x08297846\n      eq\n      tag_3\n      jumpi\n      dup1\n      0x715018a6\n      eq\n      tag_4\n      jumpi\n      dup1\n      0x8da5cb5b\n      eq\n      tag_5\n      jumpi\n      dup1\n      0xc7b22551\n      eq\n      tag_6\n      jumpi\n      dup1\n      0xdf09d604\n      eq\n      tag_7\n      jumpi\n      dup1\n      0xf2fde38b\n      eq\n      tag_8\n      jumpi\n    tag_2:\n      0x00\n      dup1\n      revert\n        /* \"contracts/registry/ClaimTopicsRegistry.sol\":1097:1509  function removeClaimTopic(uint256 _claimTopic) external onlyOwner {... */\n    tag_3:\n      tag_9\n      0x04\n      dup1\n      calldatasize\n      sub\n      dup2\n      add\n      swap1\n      tag_10\n      swap2\n      swap1\n      tag_11\n      jump\t// in\n    tag_10:\n      tag_12\n      jump\t// in\n    tag_9:\n      stop\n        /* \"@openzeppelin/contracts/access/Ownable.sol\":2293:2394  function renounceOwnership() public virtual onlyOwner {... */\n    tag_4:\n      tag_13\n      tag_14\n      jump\t// in\n    tag_13:\n      stop\n        /* \"@openzeppelin/contracts/access/Ownable.sol\":1638:1723  function owner() public view virtual returns (address) {... */\n    tag_5:\n      tag_15\n      tag_16\n      jump\t// in\n    tag_15:\n      mload(0x40)\n      tag_17\n      swap2\n      swap1\n      tag_18\n      jump\t// in\n    tag_17:\n      mload(0x40)\n      dup1\n      swap2\n      sub\n      swap1\n      return\n        /* \"contracts/registry/ClaimTopicsRegistry.sol\":646:877  function addClaimTopic(uint256 _claimTopic) external onlyOwner {... */\n    tag_6:\n      tag_19\n      0x04\n      dup1\n      calldatasize\n      sub\n      dup2\n      add\n      swap1\n      tag_20\n      swap2\n      swap1\n      tag_11\n      jump\t// in\n    tag_20:\n      tag_21\n      jump\t// in\n    tag_19:\n      stop\n        /* \"contracts/registry/ClaimTopicsRegistry.sol\":1629:1732  function getClaimTopics() external view returns (uint256[] memory) {... */\n    tag_7:\n      tag_22\n      tag_23\n      jump\t// in\n    tag_22:\n      mload(0x40)\n      tag_24\n      swap2\n      swap1\n      tag_25\n      jump\t// in\n    tag_24:\n      mload(0x40)\n      dup1\n      swap2\n      sub\n      swap1\n      return\n        /* \"@openzeppelin/contracts/access/Ownable.sol\":2543:2758  function transferOwnership(address newOwner) public virtual onlyOwner {... */\n    tag_8:\n      tag_26\n      0x04\n      dup1\n      calldatasize\n      sub\n      dup2\n      add\n      swap1\n      tag_27\n      swap2\n      swap1\n      tag_28\n      jump\t// in\n    tag_27:\n      tag_29\n      jump\t// in\n    tag_26:\n      stop\n        /* \"contracts/registry/ClaimTopicsRegistry.sol\":1097:1509  function removeClaimTopic(uint256 _claimTopic) external onlyOwner {... */\n    tag_12:\n        /* \"@openzeppelin/contracts/access/Ownable.sol\":1531:1544  _checkOwner() */\n      tag_31\n        /* \"@openzeppelin/contracts/access/Ownable.sol\":1531:1542  _checkOwner */\n      tag_32\n        /* \"@openzeppelin/contracts/access/Ownable.sol\":1531:1544  _checkOwner() */\n      jump\t// in\n    tag_31:\n        /* \"contracts/registry/ClaimTopicsRegistry.sol\":1173:1187  uint256 length */\n      0x00\n        /* \"contracts/registry/ClaimTopicsRegistry.sol\":1190:1202  _claimTopics */\n      0x01\n        /* \"contracts/registry/ClaimTopicsRegistry.sol\":1190:1209  _claimTopics.length */\n      dup1\n      sload\n      swap1\n      pop\n        /* \"contracts/registry/ClaimTopicsRegistry.sol\":1173:1209  uint256 length = _claimTopics.length */\n      swap1\n      pop\n        /* \"contracts/registry/ClaimTopicsRegistry.sol\":1224:1233  uint256 i */\n      0x00\n        /* \"contracts/registry/ClaimTopicsRegistry.sol\":1219:1503  for (uint256 i = 0; i < length; i++) {... */\n    tag_34:\n        /* \"contracts/registry/ClaimTopicsRegistry.sol\":1243:1249  length */\n      dup2\n        /* \"contracts/registry/ClaimTopicsRegistry.sol\":1239:1240  i */\n      dup2\n        /* \"contracts/registry/ClaimTopicsRegistry.sol\":1239:1249  i < length */\n      lt\n        /* \"contracts/registry/ClaimTopicsRegistry.sol\":1219:1503  for (uint256 i = 0; i < length; i++) {... */\n      iszero\n      tag_35\n      jumpi\n        /* \"contracts/registry/ClaimTopicsRegistry.sol\":1293:1304  _claimTopic */\n      dup3\n        /* \"contracts/registry/ClaimTopicsRegistry.sol\":1274:1286  _claimTopics */\n      0x01\n        /* \"contracts/registry/ClaimTopicsRegistry.sol\":1287:1288  i */\n      dup3\n        /* \"contracts/registry/ClaimTopicsRegistry.sol\":1274:1289  _claimTopics[i] */\n      dup2\n      sload\n      dup2\n      lt\n      tag_37\n      jumpi\n      tag_38\n      tag_39\n      jump\t// in\n    tag_38:\n    tag_37:\n      swap1\n      0x00\n      mstore\n      keccak256(0x00, 0x20)\n      add\n      sload\n        /* \"contracts/registry/ClaimTopicsRegistry.sol\":1274:1304  _claimTopics[i] == _claimTopic */\n      sub\n        /* \"contracts/registry/ClaimTopicsRegistry.sol\":1270:1493  if (_claimTopics[i] == _claimTopic) {... */\n      tag_41\n      jumpi\n        /* \"contracts/registry/ClaimTopicsRegistry.sol\":1342:1354  _claimTopics */\n      0x01\n        /* \"contracts/registry/ClaimTopicsRegistry.sol\":1364:1365  1 */\n      dup1\n        /* \"contracts/registry/ClaimTopicsRegistry.sol\":1355:1361  length */\n      dup4\n        /* \"contracts/registry/ClaimTopicsRegistry.sol\":1355:1365  length - 1 */\n      tag_42\n      swap2\n      swap1\n      tag_43\n      jump\t// in\n    tag_42:\n        /* \"contracts/registry/ClaimTopicsRegistry.sol\":1342:1366  _claimTopics[length - 1] */\n      dup2\n      sload\n      dup2\n      lt\n      tag_44\n      jumpi\n      tag_45\n      tag_39\n      jump\t// in\n    tag_45:\n    tag_44:\n      swap1\n      0x00\n      mstore\n      keccak256(0x00, 0x20)\n      add\n      sload\n        /* \"contracts/registry/ClaimTopicsRegistry.sol\":1324:1336  _claimTopics */\n      0x01\n        /* \"contracts/registry/ClaimTopicsRegistry.sol\":1337:1338  i */\n      dup3\n        /* \"contracts/registry/ClaimTopicsRegistry.sol\":1324:1339  _claimTopics[i] */\n      dup2\n      sload\n      dup2\n      lt\n      tag_47\n      jumpi\n      tag_48\n      tag_39\n      jump\t// in\n    tag_48:\n    tag_47:\n      swap1\n      0x00\n      mstore\n      keccak256(0x00, 0x20)\n      add\n        /* \"contracts/registry/ClaimTopicsRegistry.sol\":1324:1366  _claimTopics[i] = _claimTopics[length - 1] */\n      dup2\n      swap1\n      sstore\n      pop\n        /* \"contracts/registry/ClaimTopicsRegistry.sol\":1384:1396  _claimTopics */\n      0x01\n        /* \"contracts/registry/ClaimTopicsRegistry.sol\":1384:1402  _claimTopics.pop() */\n      dup1\n      sload\n      dup1\n      tag_50\n      jumpi\n      tag_51\n      tag_52\n      jump\t// in\n    tag_51:\n    tag_50:\n      0x01\n      swap1\n      sub\n      dup2\n      dup2\n      swap1\n      0x00\n      mstore\n      keccak256(0x00, 0x20)\n      add\n      0x00\n      swap1\n      sstore\n      swap1\n      sstore\n        /* \"contracts/registry/ClaimTopicsRegistry.sol\":1443:1454  _claimTopic */\n      dup3\n        /* \"contracts/registry/ClaimTopicsRegistry.sol\":1425:1455  ClaimTopicRemoved(_claimTopic) */\n      0x0b1381093c776453c1bbe54fd68be1b235c65db61d099cb50d194b2991e0eec5\n      mload(0x40)\n      mload(0x40)\n      dup1\n      swap2\n      sub\n      swap1\n      log2\n        /* \"contracts/registry/ClaimTopicsRegistry.sol\":1473:1478  break */\n      jump(tag_35)\n        /* \"contracts/registry/ClaimTopicsRegistry.sol\":1270:1493  if (_claimTopics[i] == _claimTopic) {... */\n    tag_41:\n        /* \"contracts/registry/ClaimTopicsRegistry.sol\":1251:1254  i++ */\n      dup1\n      dup1\n      tag_54\n      swap1\n      tag_55\n      jump\t// in\n    tag_54:\n      swap2\n      pop\n      pop\n        /* \"contracts/registry/ClaimTopicsRegistry.sol\":1219:1503  for (uint256 i = 0; i < length; i++) {... */\n      jump(tag_34)\n    tag_35:\n      pop\n        /* \"contracts/registry/ClaimTopicsRegistry.sol\":1163:1509  {... */\n      pop\n        /* \"contracts/registry/ClaimTopicsRegistry.sol\":1097:1509  function removeClaimTopic(uint256 _claimTopic) external onlyOwner {... */\n      pop\n      jump\t// out\n        /* \"@openzeppelin/contracts/access/Ownable.sol\":2293:2394  function renounceOwnership() public virtual onlyOwner {... */\n    tag_14:\n        /* \"@openzeppelin/contracts/access/Ownable.sol\":1531:1544  _checkOwner() */\n      tag_57\n        /* \"@openzeppelin/contracts/access/Ownable.sol\":1531:1542  _checkOwner */\n      tag_32\n        /* \"@openzeppelin/contracts/access/Ownable.sol\":1531:1544  _checkOwner() */\n      jump\t// in\n    tag_57:\n        /* \"@openzeppelin/contracts/access/Ownable.sol\":2357:2387  _transferOwnership(address(0)) */\n      tag_59\n        /* \"@openzeppelin/contracts/access/Ownable.sol\":2384:2385  0 */\n      0x00\n        /* \"@openzeppelin/contracts/access/Ownable.sol\":2357:2375  _transferOwnership */\n      tag_60\n        /* \"@openzeppelin/contracts/access/Ownable.sol\":2357:2387  _transferOwnership(address(0)) */\n      jump\t// in\n    tag_59:\n        /* \"@openzeppelin/contracts/access/Ownable.sol\":2293:2394  function renounceOwnership() public virtual onlyOwner {... */\n      jump\t// out\n        /* \"@openzeppelin/contracts/access/Ownable.sol\":1638:1723  function owner() public view virtual returns (address) {... */\n    tag_16:\n        /* \"@openzeppelin/contracts/access/Ownable.sol\":1684:1691  address */\n      0x00\n        /* \"@openzeppelin/contracts/access/Ownable.sol\":1710:1716  _owner */\n      dup1\n      0x00\n      swap1\n      sload\n      swap1\n      0x0100\n      exp\n      swap1\n      div\n      0xffffffffffffffffffffffffffffffffffffffff\n      and\n        /* \"@openzeppelin/contracts/access/Ownable.sol\":1703:1716  return _owner */\n      swap1\n      pop\n        /* \"@openzeppelin/contracts/access/Ownable.sol\":1638:1723  function owner() public view virtual returns (address) {... */\n      swap1\n      jump\t// out\n        /* \"contracts/registry/ClaimTopicsRegistry.sol\":646:877  function addClaimTopic(uint256 _claimTopic) external onlyOwner {... */\n    tag_21:\n        /* \"@openzeppelin/contracts/access/Ownable.sol\":1531:1544  _checkOwner() */\n      tag_63\n        /* \"@openzeppelin/contracts/access/Ownable.sol\":1531:1542  _checkOwner */\n      tag_32\n        /* \"@openzeppelin/contracts/access/Ownable.sol\":1531:1544  _checkOwner() */\n      jump\t// in\n    tag_63:\n        /* \"contracts/registry/ClaimTopicsRegistry.sol\":727:759  _isClaimTopicUnique(_claimTopic) */\n      tag_65\n        /* \"contracts/registry/ClaimTopicsRegistry.sol\":747:758  _claimTopic */\n      dup2\n        /* \"contracts/registry/ClaimTopicsRegistry.sol\":727:746  _isClaimTopicUnique */\n      tag_66\n        /* \"contracts/registry/ClaimTopicsRegistry.sol\":727:759  _isClaimTopicUnique(_claimTopic) */\n      jump\t// in\n    tag_65:\n        /* \"contracts/registry/ClaimTopicsRegistry.sol\":719:786  require(_isClaimTopicUnique(_claimTopic), \"ERC-3643: Topic exists\") */\n      tag_67\n      jumpi\n      mload(0x40)\n      0x08c379a000000000000000000000000000000000000000000000000000000000\n      dup2\n      mstore\n      0x04\n      add\n      tag_68\n      swap1\n      tag_69\n      jump\t// in\n    tag_68:\n      mload(0x40)\n      dup1\n      swap2\n      sub\n      swap1\n      revert\n    tag_67:\n        /* \"contracts/registry/ClaimTopicsRegistry.sol\":797:809  _claimTopics */\n      0x01\n        /* \"contracts/registry/ClaimTopicsRegistry.sol\":815:826  _claimTopic */\n      dup2\n        /* \"contracts/registry/ClaimTopicsRegistry.sol\":797:827  _claimTopics.push(_claimTopic) */\n      swap1\n      dup1\n      0x01\n      dup2\n      sload\n      add\n      dup1\n      dup3\n      sstore\n      dup1\n      swap2\n      pop\n      pop\n      0x01\n      swap1\n      sub\n      swap1\n      0x00\n      mstore\n      keccak256(0x00, 0x20)\n      add\n      0x00\n      swap1\n      swap2\n      swap1\n      swap2\n      swap1\n      swap2\n      pop\n      sstore\n        /* \"contracts/registry/ClaimTopicsRegistry.sol\":858:869  _claimTopic */\n      dup1\n        /* \"contracts/registry/ClaimTopicsRegistry.sol\":842:870  ClaimTopicAdded(_claimTopic) */\n      0x01c928b7f7ade2949e92366aa9454dbef3a416b731cf6ec786ba9595bbd814d6\n      mload(0x40)\n      mload(0x40)\n      dup1\n      swap2\n      sub\n      swap1\n      log2\n        /* \"contracts/registry/ClaimTopicsRegistry.sol\":646:877  function addClaimTopic(uint256 _claimTopic) external onlyOwner {... */\n      pop\n      jump\t// out\n        /* \"contracts/registry/ClaimTopicsRegistry.sol\":1629:1732  function getClaimTopics() external view returns (uint256[] memory) {... */\n    tag_23:\n        /* \"contracts/registry/ClaimTopicsRegistry.sol\":1678:1694  uint256[] memory */\n      0x60\n        /* \"contracts/registry/ClaimTopicsRegistry.sol\":1713:1725  _claimTopics */\n      0x01\n        /* \"contracts/registry/ClaimTopicsRegistry.sol\":1706:1725  return _claimTopics */\n      dup1\n      sload\n      dup1\n      0x20\n      mul\n      0x20\n      add\n      mload(0x40)\n      swap1\n      dup2\n      add\n      0x40\n      mstore\n      dup1\n      swap3\n      swap2\n      swap1\n      dup2\n      dup2\n      mstore\n      0x20\n      add\n      dup3\n      dup1\n      sload\n      dup1\n      iszero\n      tag_72\n      jumpi\n      0x20\n      mul\n      dup3\n      add\n      swap2\n      swap1\n      0x00\n      mstore\n      keccak256(0x00, 0x20)\n      swap1\n    tag_73:\n      dup2\n      sload\n      dup2\n      mstore\n      0x20\n      add\n      swap1\n      0x01\n      add\n      swap1\n      dup1\n      dup4\n      gt\n      tag_73\n      jumpi\n    tag_72:\n      pop\n      pop\n      pop\n      pop\n      pop\n      swap1\n      pop\n        /* \"contracts/registry/ClaimTopicsRegistry.sol\":1629:1732  function getClaimTopics() external view returns (uint256[] memory) {... */\n      swap1\n      jump\t// out\n        /* \"@openzeppelin/contracts/access/Ownable.sol\":2543:2758  function transferOwnership(address newOwner) public virtual onlyOwner {... */\n    tag_29:\n        /* \"@openzeppelin/contracts/access/Ownable.sol\":1531:1544  _checkOwner() */\n      tag_75\n        /* \"@openzeppelin/contracts/access/Ownable.sol\":1531:1542  _checkOwner */\n      tag_32\n        /* \"@openzeppelin/contracts/access/Ownable.sol\":1531:1544  _checkOwner() */\n      jump\t// in\n    tag_75:\n        /* \"@openzeppelin/contracts/access/Ownable.sol\":2647:2648  0 */\n      0x00\n        /* \"@openzeppelin/contracts/access/Ownable.sol\":2627:2649  newOwner == address(0) */\n      0xffffffffffffffffffffffffffffffffffffffff\n      and\n        /* \"@openzeppelin/contracts/access/Ownable.sol\":2627:2635  newOwner */\n      dup2\n        /* \"@openzeppelin/contracts/access/Ownable.sol\":2627:2649  newOwner == address(0) */\n      0xffffffffffffffffffffffffffffffffffffffff\n      and\n      sub\n        /* \"@openzeppelin/contracts/access/Ownable.sol\":2623:2714  if (newOwner == address(0)) {... */\n      tag_77\n      jumpi\n        /* \"@openzeppelin/contracts/access/Ownable.sol\":2700:2701  0 */\n      0x00\n        /* \"@openzeppelin/contracts/access/Ownable.sol\":2672:2703  OwnableInvalidOwner(address(0)) */\n      mload(0x40)\n      0x1e4fbdf700000000000000000000000000000000000000000000000000000000\n      dup2\n      mstore\n      0x04\n      add\n      tag_78\n      swap2\n      swap1\n      tag_18\n      jump\t// in\n    tag_78:\n      mload(0x40)\n      dup1\n      swap2\n      sub\n      swap1\n      revert\n        /* \"@openzeppelin/contracts/access/Ownable.sol\":2623:2714  if (newOwner == address(0)) {... */\n    tag_77:\n        /* \"@openzeppelin/contracts/access/Ownable.sol\":2723:2751  _transferOwnership(newOwner) */\n      tag_79\n        /* \"@openzeppelin/contracts/access/Ownable.sol\":2742:2750  newOwner */\n      dup2\n        /* \"@openzeppelin/contracts/access/Ownable.sol\":2723:2741  _transferOwnership */\n      tag_60\n        /* \"@openzeppelin/contracts/access/Ownable.sol\":2723:2751  _transferOwnership(newOwner) */\n      jump\t// in\n    tag_79:\n        /* \"@openzeppelin/contracts/access/Ownable.sol\":2543:2758  function transferOwnership(address newOwner) public virtual onlyOwner {... */\n      pop\n      jump\t// out\n        /* \"@openzeppelin/contracts/access/Ownable.sol\":1796:1958  function _checkOwner() internal view virtual {... */\n    tag_32:\n        /* \"@openzeppelin/contracts/access/Ownable.sol\":1866:1878  _msgSender() */\n      tag_81\n        /* \"@openzeppelin/contracts/access/Ownable.sol\":1866:1876  _msgSender */\n      tag_82\n        /* \"@openzeppelin/contracts/access/Ownable.sol\":1866:1878  _msgSender() */\n      jump\t// in\n    tag_81:\n        /* \"@openzeppelin/contracts/access/Ownable.sol\":1855:1878  owner() != _msgSender() */\n      0xffffffffffffffffffffffffffffffffffffffff\n      and\n        /* \"@openzeppelin/contracts/access/Ownable.sol\":1855:1862  owner() */\n      tag_83\n        /* \"@openzeppelin/contracts/access/Ownable.sol\":1855:1860  owner */\n      tag_16\n        /* \"@openzeppelin/contracts/access/Ownable.sol\":1855:1862  owner() */\n      jump\t// in\n    tag_83:\n        /* \"@openzeppelin/contracts/access/Ownable.sol\":1855:1878  owner() != _msgSender() */\n      0xffffffffffffffffffffffffffffffffffffffff\n      and\n      eq\n        /* \"@openzeppelin/contracts/access/Ownable.sol\":1851:1952  if (owner() != _msgSender()) {... */\n      tag_84\n      jumpi\n        /* \"@openzeppelin/contracts/access/Ownable.sol\":1928:1940  _msgSender() */\n      tag_85\n        /* \"@openzeppelin/contracts/access/Ownable.sol\":1928:1938  _msgSender */\n      tag_82\n        /* \"@openzeppelin/contracts/access/Ownable.sol\":1928:1940  _msgSender() */\n      jump\t// in\n    tag_85:\n        /* \"@openzeppelin/contracts/access/Ownable.sol\":1901:1941  OwnableUnauthorizedAccount(_msgSender()) */\n      mload(0x40)\n      0x118cdaa700000000000000000000000000000000000000000000000000000000\n      dup2\n      mstore\n      0x04\n      add\n      tag_86\n      swap2\n      swap1\n      tag_18\n      jump\t// in\n    tag_86:\n      mload(0x40)\n      dup1\n      swap2\n      sub\n      swap1\n      revert\n        /* \"@openzeppelin/contracts/access/Ownable.sol\":1851:1952  if (owner() != _msgSender()) {... */\n    tag_84:\n        /* \"@openzeppelin/contracts/access/Ownable.sol\":1796:1958  function _checkOwner() internal view virtual {... */\n      jump\t// out\n        /* \"@openzeppelin/contracts/access/Ownable.sol\":2912:3099  function _transferOwnership(address newOwner) internal virtual {... */\n    tag_60:\n        /* \"@openzeppelin/contracts/access/Ownable.sol\":2985:3001  address oldOwner */\n      0x00\n        /* \"@openzeppelin/contracts/access/Ownable.sol\":3004:3010  _owner */\n      dup1\n      0x00\n      swap1\n      sload\n      swap1\n      0x0100\n      exp\n      swap1\n      div\n      0xffffffffffffffffffffffffffffffffffffffff\n      and\n        /* \"@openzeppelin/contracts/access/Ownable.sol\":2985:3010  address oldOwner = _owner */\n      swap1\n      pop\n        /* \"@openzeppelin/contracts/access/Ownable.sol\":3029:3037  newOwner */\n      dup2\n        /* \"@openzeppelin/contracts/access/Ownable.sol\":3020:3026  _owner */\n      0x00\n      dup1\n        /* \"@openzeppelin/contracts/access/Ownable.sol\":3020:3037  _owner = newOwner */\n      0x0100\n      exp\n      dup2\n      sload\n      dup2\n      0xffffffffffffffffffffffffffffffffffffffff\n      mul\n      not\n      and\n      swap1\n      dup4\n      0xffffffffffffffffffffffffffffffffffffffff\n      and\n      mul\n      or\n      swap1\n      sstore\n      pop\n        /* \"@openzeppelin/contracts/access/Ownable.sol\":3083:3091  newOwner */\n      dup2\n        /* \"@openzeppelin/contracts/access/Ownable.sol\":3052:3092  OwnershipTransferred(oldOwner, newOwner) */\n      0xffffffffffffffffffffffffffffffffffffffff\n      and\n        /* \"@openzeppelin/contracts/access/Ownable.sol\":3073:3081  oldOwner */\n      dup2\n        /* \"@openzeppelin/contracts/access/Ownable.sol\":3052:3092  OwnershipTransferred(oldOwner, newOwner) */\n      0xffffffffffffffffffffffffffffffffffffffff\n      and\n      0x8be0079c531659141344cd1fd0a4f28419497f9722a3daafe3b4186f6b6457e0\n      mload(0x40)\n      mload(0x40)\n      dup1\n      swap2\n      sub\n      swap1\n      log3\n        /* \"@openzeppelin/contracts/access/Ownable.sol\":2975:3099  {... */\n      pop\n        /* \"@openzeppelin/contracts/access/Ownable.sol\":2912:3099  function _transferOwnership(address newOwner) internal virtual {... */\n      pop\n      jump\t// out\n        /* \"contracts/registry/ClaimTopicsRegistry.sol\":2002:2425  function _isClaimTopicUnique(... */\n    tag_66:\n        /* \"contracts/registry/ClaimTopicsRegistry.sol\":2087:2091  bool */\n      0x00\n        /* \"contracts/registry/ClaimTopicsRegistry.sol\":2103:2131  uint256[] memory claimTopics */\n      dup1\n        /* \"contracts/registry/ClaimTopicsRegistry.sol\":2134:2146  _claimTopics */\n      0x01\n        /* \"contracts/registry/ClaimTopicsRegistry.sol\":2103:2146  uint256[] memory claimTopics = _claimTopics */\n      dup1\n      sload\n      dup1\n      0x20\n      mul\n      0x20\n      add\n      mload(0x40)\n      swap1\n      dup2\n      add\n      0x40\n      mstore\n      dup1\n      swap3\n      swap2\n      swap1\n      dup2\n      dup2\n      mstore\n      0x20\n      add\n      dup3\n      dup1\n      sload\n      dup1\n      iszero\n      tag_89\n      jumpi\n      0x20\n      mul\n      dup3\n      add\n      swap2\n      swap1\n      0x00\n      mstore\n      keccak256(0x00, 0x20)\n      swap1\n    tag_90:\n      dup2\n      sload\n      dup2\n      mstore\n      0x20\n      add\n      swap1\n      0x01\n      add\n      swap1\n      dup1\n      dup4\n      gt\n      tag_90\n      jumpi\n    tag_89:\n      pop\n      pop\n      pop\n      pop\n      pop\n      swap1\n      pop\n        /* \"contracts/registry/ClaimTopicsRegistry.sol\":2156:2170  uint256 length */\n      0x00\n        /* \"contracts/registry/ClaimTopicsRegistry.sol\":2173:2185  _claimTopics */\n      0x01\n        /* \"contracts/registry/ClaimTopicsRegistry.sol\":2173:2192  _claimTopics.length */\n      dup1\n      sload\n      swap1\n      pop\n        /* \"contracts/registry/ClaimTopicsRegistry.sol\":2156:2192  uint256 length = _claimTopics.length */\n      swap1\n      pop\n        /* \"contracts/registry/ClaimTopicsRegistry.sol\":2207:2216  uint256 i */\n      0x00\n        /* \"contracts/registry/ClaimTopicsRegistry.sol\":2202:2398  for (uint256 i = 0; i < length; ) {... */\n    tag_91:\n        /* \"contracts/registry/ClaimTopicsRegistry.sol\":2226:2232  length */\n      dup2\n        /* \"contracts/registry/ClaimTopicsRegistry.sol\":2222:2223  i */\n      dup2\n        /* \"contracts/registry/ClaimTopicsRegistry.sol\":2222:2232  i < length */\n      lt\n        /* \"contracts/registry/ClaimTopicsRegistry.sol\":2202:2398  for (uint256 i = 0; i < length; ) {... */\n      iszero\n      tag_92\n      jumpi\n        /* \"contracts/registry/ClaimTopicsRegistry.sol\":2272:2282  claimTopic */\n      dup5\n        /* \"contracts/registry/ClaimTopicsRegistry.sol\":2254:2265  claimTopics */\n      dup4\n        /* \"contracts/registry/ClaimTopicsRegistry.sol\":2266:2267  i */\n      dup3\n        /* \"contracts/registry/ClaimTopicsRegistry.sol\":2254:2268  claimTopics[i] */\n      dup2\n      mload\n      dup2\n      lt\n      tag_94\n      jumpi\n      tag_95\n      tag_39\n      jump\t// in\n    tag_95:\n    tag_94:\n      0x20\n      mul\n      0x20\n      add\n      add\n      mload\n        /* \"contracts/registry/ClaimTopicsRegistry.sol\":2254:2282  claimTopics[i] == claimTopic */\n      sub\n        /* \"contracts/registry/ClaimTopicsRegistry.sol\":2250:2329  if (claimTopics[i] == claimTopic) {... */\n      tag_96\n      jumpi\n        /* \"contracts/registry/ClaimTopicsRegistry.sol\":2309:2314  false */\n      0x00\n        /* \"contracts/registry/ClaimTopicsRegistry.sol\":2302:2314  return false */\n      swap4\n      pop\n      pop\n      pop\n      pop\n      jump(tag_88)\n        /* \"contracts/registry/ClaimTopicsRegistry.sol\":2250:2329  if (claimTopics[i] == claimTopic) {... */\n    tag_96:\n        /* \"contracts/registry/ClaimTopicsRegistry.sol\":2370:2373  ++i */\n      dup1\n      0x01\n      add\n      swap1\n      pop\n        /* \"contracts/registry/ClaimTopicsRegistry.sol\":2202:2398  for (uint256 i = 0; i < length; ) {... */\n      jump(tag_91)\n    tag_92:\n      pop\n        /* \"contracts/registry/ClaimTopicsRegistry.sol\":2414:2418  true */\n      0x01\n        /* \"contracts/registry/ClaimTopicsRegistry.sol\":2407:2418  return true */\n      swap3\n      pop\n      pop\n      pop\n        /* \"contracts/registry/ClaimTopicsRegistry.sol\":2002:2425  function _isClaimTopicUnique(... */\n    tag_88:\n      swap2\n      swap1\n      pop\n      jump\t// out\n        /* \"@openzeppelin/contracts/utils/Context.sol\":656:752  function _msgSender() internal view virtual returns (address) {... */\n    tag_82:\n        /* \"@openzeppelin/contracts/utils/Context.sol\":709:716  address */\n      0x00\n        /* \"@openzeppelin/contracts/utils/Context.sol\":735:745  msg.sender */\n      caller\n        /* \"@openzeppelin/contracts/utils/Context.sol\":728:745  return msg.sender */\n      swap1\n      pop\n        /* \"@openzeppelin/contracts/utils/Context.sol\":656:752  function _msgSender() internal view virtual returns (address) {... */\n      swap1\n      jump\t// out\n        /* \"#utility.yul\":88:205   */\n    tag_99:\n        /* \"#utility.yul\":197:198   */\n      0x00\n        /* \"#utility.yul\":194:195   */\n      dup1\n        /* \"#utility.yul\":187:199   */\n      revert\n        /* \"#utility.yul\":334:411   */\n    tag_101:\n        /* \"#utility.yul\":371:378   */\n      0x00\n        /* \"#utility.yul\":400:405   */\n      dup2\n        /* \"#utility.yul\":389:405   */\n      swap1\n      pop\n        /* \"#utility.yul\":334:411   */\n      swap2\n      swap1\n      pop\n      jump\t// out\n        /* \"#utility.yul\":417:539   */\n    tag_102:\n        /* \"#utility.yul\":490:514   */\n      tag_126\n        /* \"#utility.yul\":508:513   */\n      dup2\n        /* \"#utility.yul\":490:514   */\n      tag_101\n      jump\t// in\n    tag_126:\n        /* \"#utility.yul\":483:488   */\n      dup2\n        /* \"#utility.yul\":480:515   */\n      eq\n        /* \"#utility.yul\":470:533   */\n      tag_127\n      jumpi\n        /* \"#utility.yul\":529:530   */\n      0x00\n        /* \"#utility.yul\":526:527   */\n      dup1\n        /* \"#utility.yul\":519:531   */\n      revert\n        /* \"#utility.yul\":470:533   */\n    tag_127:\n        /* \"#utility.yul\":417:539   */\n      pop\n      jump\t// out\n        /* \"#utility.yul\":545:684   */\n    tag_103:\n        /* \"#utility.yul\":591:596   */\n      0x00\n        /* \"#utility.yul\":629:635   */\n      dup2\n        /* \"#utility.yul\":616:636   */\n      calldataload\n        /* \"#utility.yul\":607:636   */\n      swap1\n      pop\n        /* \"#utility.yul\":645:678   */\n      tag_129\n        /* \"#utility.yul\":672:677   */\n      dup2\n        /* \"#utility.yul\":645:678   */\n      tag_102\n      jump\t// in\n    tag_129:\n        /* \"#utility.yul\":545:684   */\n      swap3\n      swap2\n      pop\n      pop\n      jump\t// out\n        /* \"#utility.yul\":690:1019   */\n    tag_11:\n        /* \"#utility.yul\":749:755   */\n      0x00\n        /* \"#utility.yul\":798:800   */\n      0x20\n        /* \"#utility.yul\":786:795   */\n      dup3\n        /* \"#utility.yul\":777:784   */\n      dup5\n        /* \"#utility.yul\":773:796   */\n      sub\n        /* \"#utility.yul\":769:801   */\n      slt\n        /* \"#utility.yul\":766:885   */\n      iszero\n      tag_131\n      jumpi\n        /* \"#utility.yul\":804:883   */\n      tag_132\n      tag_99\n      jump\t// in\n    tag_132:\n        /* \"#utility.yul\":766:885   */\n    tag_131:\n        /* \"#utility.yul\":924:925   */\n      0x00\n        /* \"#utility.yul\":949:1002   */\n      tag_133\n        /* \"#utility.yul\":994:1001   */\n      dup5\n        /* \"#utility.yul\":985:991   */\n      dup3\n        /* \"#utility.yul\":974:983   */\n      dup6\n        /* \"#utility.yul\":970:992   */\n      add\n        /* \"#utility.yul\":949:1002   */\n      tag_103\n      jump\t// in\n    tag_133:\n        /* \"#utility.yul\":939:1002   */\n      swap2\n      pop\n        /* \"#utility.yul\":895:1012   */\n      pop\n        /* \"#utility.yul\":690:1019   */\n      swap3\n      swap2\n      pop\n      pop\n      jump\t// out\n        /* \"#utility.yul\":1025:1151   */\n    tag_104:\n        /* \"#utility.yul\":1062:1069   */\n      0x00\n        /* \"#utility.yul\":1102:1144   */\n      0xffffffffffffffffffffffffffffffffffffffff\n        /* \"#utility.yul\":1095:1100   */\n      dup3\n        /* \"#utility.yul\":1091:1145   */\n      and\n        /* \"#utility.yul\":1080:1145   */\n      swap1\n      pop\n        /* \"#utility.yul\":1025:1151   */\n      swap2\n      swap1\n      pop\n      jump\t// out\n        /* \"#utility.yul\":1157:1253   */\n    tag_105:\n        /* \"#utility.yul\":1194:1201   */\n      0x00\n        /* \"#utility.yul\":1223:1247   */\n      tag_136\n        /* \"#utility.yul\":1241:1246   */\n      dup3\n        /* \"#utility.yul\":1223:1247   */\n      tag_104\n      jump\t// in\n    tag_136:\n        /* \"#utility.yul\":1212:1247   */\n      swap1\n      pop\n        /* \"#utility.yul\":1157:1253   */\n      swap2\n      swap1\n      pop\n      jump\t// out\n        /* \"#utility.yul\":1259:1377   */\n    tag_106:\n        /* \"#utility.yul\":1346:1370   */\n      tag_138\n        /* \"#utility.yul\":1364:1369   */\n      dup2\n        /* \"#utility.yul\":1346:1370   */\n      tag_105\n      jump\t// in\n    tag_138:\n        /* \"#utility.yul\":1341:1344   */\n      dup3\n        /* \"#utility.yul\":1334:1371   */\n      mstore\n        /* \"#utility.yul\":1259:1377   */\n      pop\n      pop\n      jump\t// out\n        /* \"#utility.yul\":1383:1605   */\n    tag_18:\n        /* \"#utility.yul\":1476:1480   */\n      0x00\n        /* \"#utility.yul\":1514:1516   */\n      0x20\n        /* \"#utility.yul\":1503:1512   */\n      dup3\n        /* \"#utility.yul\":1499:1517   */\n      add\n        /* \"#utility.yul\":1491:1517   */\n      swap1\n      pop\n        /* \"#utility.yul\":1527:1598   */\n      tag_140\n        /* \"#utility.yul\":1595:1596   */\n      0x00\n        /* \"#utility.yul\":1584:1593   */\n      dup4\n        /* \"#utility.yul\":1580:1597   */\n      add\n        /* \"#utility.yul\":1571:1577   */\n      dup5\n        /* \"#utility.yul\":1527:1598   */\n      tag_106\n      jump\t// in\n    tag_140:\n        /* \"#utility.yul\":1383:1605   */\n      swap3\n      swap2\n      pop\n      pop\n      jump\t// out\n        /* \"#utility.yul\":1611:1725   */\n    tag_107:\n        /* \"#utility.yul\":1678:1684   */\n      0x00\n        /* \"#utility.yul\":1712:1717   */\n      dup2\n        /* \"#utility.yul\":1706:1718   */\n      mload\n        /* \"#utility.yul\":1696:1718   */\n      swap1\n      pop\n        /* \"#utility.yul\":1611:1725   */\n      swap2\n      swap1\n      pop\n      jump\t// out\n        /* \"#utility.yul\":1731:1915   */\n    tag_108:\n        /* \"#utility.yul\":1830:1841   */\n      0x00\n        /* \"#utility.yul\":1864:1870   */\n      dup3\n        /* \"#utility.yul\":1859:1862   */\n      dup3\n        /* \"#utility.yul\":1852:1871   */\n      mstore\n        /* \"#utility.yul\":1904:1908   */\n      0x20\n        /* \"#utility.yul\":1899:1902   */\n      dup3\n        /* \"#utility.yul\":1895:1909   */\n      add\n        /* \"#utility.yul\":1880:1909   */\n      swap1\n      pop\n        /* \"#utility.yul\":1731:1915   */\n      swap3\n      swap2\n      pop\n      pop\n      jump\t// out\n        /* \"#utility.yul\":1921:2053   */\n    tag_109:\n        /* \"#utility.yul\":1988:1992   */\n      0x00\n        /* \"#utility.yul\":2011:2014   */\n      dup2\n        /* \"#utility.yul\":2003:2014   */\n      swap1\n      pop\n        /* \"#utility.yul\":2041:2045   */\n      0x20\n        /* \"#utility.yul\":2036:2039   */\n      dup3\n        /* \"#utility.yul\":2032:2046   */\n      add\n        /* \"#utility.yul\":2024:2046   */\n      swap1\n      pop\n        /* \"#utility.yul\":1921:2053   */\n      swap2\n      swap1\n      pop\n      jump\t// out\n        /* \"#utility.yul\":2059:2167   */\n    tag_110:\n        /* \"#utility.yul\":2136:2160   */\n      tag_145\n        /* \"#utility.yul\":2154:2159   */\n      dup2\n        /* \"#utility.yul\":2136:2160   */\n      tag_101\n      jump\t// in\n    tag_145:\n        /* \"#utility.yul\":2131:2134   */\n      dup3\n        /* \"#utility.yul\":2124:2161   */\n      mstore\n        /* \"#utility.yul\":2059:2167   */\n      pop\n      pop\n      jump\t// out\n        /* \"#utility.yul\":2173:2352   */\n    tag_111:\n        /* \"#utility.yul\":2242:2252   */\n      0x00\n        /* \"#utility.yul\":2263:2309   */\n      tag_147\n        /* \"#utility.yul\":2305:2308   */\n      dup4\n        /* \"#utility.yul\":2297:2303   */\n      dup4\n        /* \"#utility.yul\":2263:2309   */\n      tag_110\n      jump\t// in\n    tag_147:\n        /* \"#utility.yul\":2341:2345   */\n      0x20\n        /* \"#utility.yul\":2336:2339   */\n      dup4\n        /* \"#utility.yul\":2332:2346   */\n      add\n        /* \"#utility.yul\":2318:2346   */\n      swap1\n      pop\n        /* \"#utility.yul\":2173:2352   */\n      swap3\n      swap2\n      pop\n      pop\n      jump\t// out\n        /* \"#utility.yul\":2358:2471   */\n    tag_112:\n        /* \"#utility.yul\":2428:2432   */\n      0x00\n        /* \"#utility.yul\":2460:2464   */\n      0x20\n        /* \"#utility.yul\":2455:2458   */\n      dup3\n        /* \"#utility.yul\":2451:2465   */\n      add\n        /* \"#utility.yul\":2443:2465   */\n      swap1\n      pop\n        /* \"#utility.yul\":2358:2471   */\n      swap2\n      swap1\n      pop\n      jump\t// out\n        /* \"#utility.yul\":2507:3239   */\n    tag_113:\n        /* \"#utility.yul\":2626:2629   */\n      0x00\n        /* \"#utility.yul\":2655:2709   */\n      tag_150\n        /* \"#utility.yul\":2703:2708   */\n      dup3\n        /* \"#utility.yul\":2655:2709   */\n      tag_107\n      jump\t// in\n    tag_150:\n        /* \"#utility.yul\":2725:2811   */\n      tag_151\n        /* \"#utility.yul\":2804:2810   */\n      dup2\n        /* \"#utility.yul\":2799:2802   */\n      dup6\n        /* \"#utility.yul\":2725:2811   */\n      tag_108\n      jump\t// in\n    tag_151:\n        /* \"#utility.yul\":2718:2811   */\n      swap4\n      pop\n        /* \"#utility.yul\":2835:2891   */\n      tag_152\n        /* \"#utility.yul\":2885:2890   */\n      dup4\n        /* \"#utility.yul\":2835:2891   */\n      tag_109\n      jump\t// in\n    tag_152:\n        /* \"#utility.yul\":2914:2921   */\n      dup1\n        /* \"#utility.yul\":2945:2946   */\n      0x00\n        /* \"#utility.yul\":2930:3214   */\n    tag_153:\n        /* \"#utility.yul\":2955:2961   */\n      dup4\n        /* \"#utility.yul\":2952:2953   */\n      dup2\n        /* \"#utility.yul\":2949:2962   */\n      lt\n        /* \"#utility.yul\":2930:3214   */\n      iszero\n      tag_155\n      jumpi\n        /* \"#utility.yul\":3031:3037   */\n      dup2\n        /* \"#utility.yul\":3025:3038   */\n      mload\n        /* \"#utility.yul\":3058:3121   */\n      tag_156\n        /* \"#utility.yul\":3117:3120   */\n      dup9\n        /* \"#utility.yul\":3102:3115   */\n      dup3\n        /* \"#utility.yul\":3058:3121   */\n      tag_111\n      jump\t// in\n    tag_156:\n        /* \"#utility.yul\":3051:3121   */\n      swap8\n      pop\n        /* \"#utility.yul\":3144:3204   */\n      tag_157\n        /* \"#utility.yul\":3197:3203   */\n      dup4\n        /* \"#utility.yul\":3144:3204   */\n      tag_112\n      jump\t// in\n    tag_157:\n        /* \"#utility.yul\":3134:3204   */\n      swap3\n      pop\n        /* \"#utility.yul\":2990:3214   */\n      pop\n        /* \"#utility.yul\":2977:2978   */\n      0x01\n        /* \"#utility.yul\":2974:2975   */\n      dup2\n        /* \"#utility.yul\":2970:2979   */\n      add\n        /* \"#utility.yul\":2965:2979   */\n      swap1\n      pop\n        /* \"#utility.yul\":2930:3214   */\n      jump(tag_153)\n    tag_155:\n        /* \"#utility.yul\":2934:2948   */\n      pop\n        /* \"#utility.yul\":3230:3233   */\n      dup6\n        /* \"#utility.yul\":3223:3233   */\n      swap4\n      pop\n        /* \"#utility.yul\":2631:3239   */\n      pop\n      pop\n      pop\n        /* \"#utility.yul\":2507:3239   */\n      swap3\n      swap2\n      pop\n      pop\n      jump\t// out\n        /* \"#utility.yul\":3245:3618   */\n    tag_25:\n        /* \"#utility.yul\":3388:3392   */\n      0x00\n        /* \"#utility.yul\":3426:3428   */\n      0x20\n        /* \"#utility.yul\":3415:3424   */\n      dup3\n        /* \"#utility.yul\":3411:3429   */\n      add\n        /* \"#utility.yul\":3403:3429   */\n      swap1\n      pop\n        /* \"#utility.yul\":3475:3484   */\n      dup2\n        /* \"#utility.yul\":3469:3473   */\n      dup2\n        /* \"#utility.yul\":3465:3485   */\n      sub\n        /* \"#utility.yul\":3461:3462   */\n      0x00\n        /* \"#utility.yul\":3450:3459   */\n      dup4\n        /* \"#utility.yul\":3446:3463   */\n      add\n        /* \"#utility.yul\":3439:3486   */\n      mstore\n        /* \"#utility.yul\":3503:3611   */\n      tag_159\n        /* \"#utility.yul\":3606:3610   */\n      dup2\n        /* \"#utility.yul\":3597:3603   */\n      dup5\n        /* \"#utility.yul\":3503:3611   */\n      tag_113\n      jump\t// in\n    tag_159:\n        /* \"#utility.yul\":3495:3611   */\n      swap1\n      pop\n        /* \"#utility.yul\":3245:3618   */\n      swap3\n      swap2\n      pop\n      pop\n      jump\t// out\n        /* \"#utility.yul\":3624:3746   */\n    tag_114:\n        /* \"#utility.yul\":3697:3721   */\n      tag_161\n        /* \"#utility.yul\":3715:3720   */\n      dup2\n        /* \"#utility.yul\":3697:3721   */\n      tag_105\n      jump\t// in\n    tag_161:\n        /* \"#utility.yul\":3690:3695   */\n      dup2\n        /* \"#utility.yul\":3687:3722   */\n      eq\n        /* \"#utility.yul\":3677:3740   */\n      tag_162\n      jumpi\n        /* \"#utility.yul\":3736:3737   */\n      0x00\n        /* \"#utility.yul\":3733:3734   */\n      dup1\n        /* \"#utility.yul\":3726:3738   */\n      revert\n        /* \"#utility.yul\":3677:3740   */\n    tag_162:\n        /* \"#utility.yul\":3624:3746   */\n      pop\n      jump\t// out\n        /* \"#utility.yul\":3752:3891   */\n    tag_115:\n        /* \"#utility.yul\":3798:3803   */\n      0x00\n        /* \"#utility.yul\":3836:3842   */\n      dup2\n        /* \"#utility.yul\":3823:3843   */\n      calldataload\n        /* \"#utility.yul\":3814:3843   */\n      swap1\n      pop\n        /* \"#utility.yul\":3852:3885   */\n      tag_164\n        /* \"#utility.yul\":3879:3884   */\n      dup2\n        /* \"#utility.yul\":3852:3885   */\n      tag_114\n      jump\t// in\n    tag_164:\n        /* \"#utility.yul\":3752:3891   */\n      swap3\n      swap2\n      pop\n      pop\n      jump\t// out\n        /* \"#utility.yul\":3897:4226   */\n    tag_28:\n        /* \"#utility.yul\":3956:3962   */\n      0x00\n        /* \"#utility.yul\":4005:4007   */\n      0x20\n        /* \"#utility.yul\":3993:4002   */\n      dup3\n        /* \"#utility.yul\":3984:3991   */\n      dup5\n        /* \"#utility.yul\":3980:4003   */\n      sub\n        /* \"#utility.yul\":3976:4008   */\n      slt\n        /* \"#utility.yul\":3973:4092   */\n      iszero\n      tag_166\n      jumpi\n        /* \"#utility.yul\":4011:4090   */\n      tag_167\n      tag_99\n      jump\t// in\n    tag_167:\n        /* \"#utility.yul\":3973:4092   */\n    tag_166:\n        /* \"#utility.yul\":4131:4132   */\n      0x00\n        /* \"#utility.yul\":4156:4209   */\n      tag_168\n        /* \"#utility.yul\":4201:4208   */\n      dup5\n        /* \"#utility.yul\":4192:4198   */\n      dup3\n        /* \"#utility.yul\":4181:4190   */\n      dup6\n        /* \"#utility.yul\":4177:4199   */\n      add\n        /* \"#utility.yul\":4156:4209   */\n      tag_115\n      jump\t// in\n    tag_168:\n        /* \"#utility.yul\":4146:4209   */\n      swap2\n      pop\n        /* \"#utility.yul\":4102:4219   */\n      pop\n        /* \"#utility.yul\":3897:4226   */\n      swap3\n      swap2\n      pop\n      pop\n      jump\t// out\n        /* \"#utility.yul\":4232:4412   */\n    tag_39:\n        /* \"#utility.yul\":4280:4357   */\n      0x4e487b7100000000000000000000000000000000000000000000000000000000\n        /* \"#utility.yul\":4277:4278   */\n      0x00\n        /* \"#utility.yul\":4270:4358   */\n      mstore\n        /* \"#utility.yul\":4377:4381   */\n      0x32\n        /* \"#utility.yul\":4374:4375   */\n      0x04\n        /* \"#utility.yul\":4367:4382   */\n      mstore\n        /* \"#utility.yul\":4401:4405   */\n      0x24\n        /* \"#utility.yul\":4398:4399   */\n      0x00\n        /* \"#utility.yul\":4391:4406   */\n      revert\n        /* \"#utility.yul\":4418:4598   */\n    tag_116:\n        /* \"#utility.yul\":4466:4543   */\n      0x4e487b7100000000000000000000000000000000000000000000000000000000\n        /* \"#utility.yul\":4463:4464   */\n      0x00\n        /* \"#utility.yul\":4456:4544   */\n      mstore\n        /* \"#utility.yul\":4563:4567   */\n      0x11\n        /* \"#utility.yul\":4560:4561   */\n      0x04\n        /* \"#utility.yul\":4553:4568   */\n      mstore\n        /* \"#utility.yul\":4587:4591   */\n      0x24\n        /* \"#utility.yul\":4584:4585   */\n      0x00\n        /* \"#utility.yul\":4577:4592   */\n      revert\n        /* \"#utility.yul\":4604:4798   */\n    tag_43:\n        /* \"#utility.yul\":4644:4648   */\n      0x00\n        /* \"#utility.yul\":4664:4684   */\n      tag_172\n        /* \"#utility.yul\":4682:4683   */\n      dup3\n        /* \"#utility.yul\":4664:4684   */\n      tag_101\n      jump\t// in\n    tag_172:\n        /* \"#utility.yul\":4659:4684   */\n      swap2\n      pop\n        /* \"#utility.yul\":4698:4718   */\n      tag_173\n        /* \"#utility.yul\":4716:4717   */\n      dup4\n        /* \"#utility.yul\":4698:4718   */\n      tag_101\n      jump\t// in\n    tag_173:\n        /* \"#utility.yul\":4693:4718   */\n      swap3\n      pop\n        /* \"#utility.yul\":4742:4743   */\n      dup3\n        /* \"#utility.yul\":4739:4740   */\n      dup3\n        /* \"#utility.yul\":4735:4744   */\n      sub\n        /* \"#utility.yul\":4727:4744   */\n      swap1\n      pop\n        /* \"#utility.yul\":4766:4767   */\n      dup2\n        /* \"#utility.yul\":4760:4764   */\n      dup2\n        /* \"#utility.yul\":4757:4768   */\n      gt\n        /* \"#utility.yul\":4754:4791   */\n      iszero\n      tag_174\n      jumpi\n        /* \"#utility.yul\":4771:4789   */\n      tag_175\n      tag_116\n      jump\t// in\n    tag_175:\n        /* \"#utility.yul\":4754:4791   */\n    tag_174:\n        /* \"#utility.yul\":4604:4798   */\n      swap3\n      swap2\n      pop\n      pop\n      jump\t// out\n        /* \"#utility.yul\":4804:4984   */\n    tag_52:\n        /* \"#utility.yul\":4852:4929   */\n      0x4e487b7100000000000000000000000000000000000000000000000000000000\n        /* \"#utility.yul\":4849:4850   */\n      0x00\n        /* \"#utility.yul\":4842:4930   */\n      mstore\n        /* \"#utility.yul\":4949:4953   */\n      0x31\n        /* \"#utility.yul\":4946:4947   */\n      0x04\n        /* \"#utility.yul\":4939:4954   */\n      mstore\n        /* \"#utility.yul\":4973:4977   */\n      0x24\n        /* \"#utility.yul\":4970:4971   */\n      0x00\n        /* \"#utility.yul\":4963:4978   */\n      revert\n        /* \"#utility.yul\":4990:5223   */\n    tag_55:\n        /* \"#utility.yul\":5029:5032   */\n      0x00\n        /* \"#utility.yul\":5052:5076   */\n      tag_178\n        /* \"#utility.yul\":5070:5075   */\n      dup3\n        /* \"#utility.yul\":5052:5076   */\n      tag_101\n      jump\t// in\n    tag_178:\n        /* \"#utility.yul\":5043:5076   */\n      swap2\n      pop\n        /* \"#utility.yul\":5098:5164   */\n      0xffffffffffffffffffffffffffffffffffffffffffffffffffffffffffffffff\n        /* \"#utility.yul\":5091:5096   */\n      dup3\n        /* \"#utility.yul\":5088:5165   */\n      sub\n        /* \"#utility.yul\":5085:5188   */\n      tag_179\n      jumpi\n        /* \"#utility.yul\":5168:5186   */\n      tag_180\n      tag_116\n      jump\t// in\n    tag_180:\n        /* \"#utility.yul\":5085:5188   */\n    tag_179:\n        /* \"#utility.yul\":5215:5216   */\n      0x01\n        /* \"#utility.yul\":5208:5213   */\n      dup3\n        /* \"#utility.yul\":5204:5217   */\n      add\n        /* \"#utility.yul\":5197:5217   */\n      swap1\n      pop\n        /* \"#utility.yul\":4990:5223   */\n      swap2\n      swap1\n      pop\n      jump\t// out\n        /* \"#utility.yul\":5229:5398   */\n    tag_117:\n        /* \"#utility.yul\":5313:5324   */\n      0x00\n        /* \"#utility.yul\":5347:5353   */\n      dup3\n        /* \"#utility.yul\":5342:5345   */\n      dup3\n        /* \"#utility.yul\":5335:5354   */\n      mstore\n        /* \"#utility.yul\":5387:5391   */\n      0x20\n        /* \"#utility.yul\":5382:5385   */\n      dup3\n        /* \"#utility.yul\":5378:5392   */\n      add\n        /* \"#utility.yul\":5363:5392   */\n      swap1\n      pop\n        /* \"#utility.yul\":5229:5398   */\n      swap3\n      swap2\n      pop\n      pop\n      jump\t// out\n        /* \"#utility.yul\":5404:5576   */\n    tag_118:\n        /* \"#utility.yul\":5544:5568   */\n      0x4552432d333634333a20546f7069632065786973747300000000000000000000\n        /* \"#utility.yul\":5540:5541   */\n      0x00\n        /* \"#utility.yul\":5532:5538   */\n      dup3\n        /* \"#utility.yul\":5528:5542   */\n      add\n        /* \"#utility.yul\":5521:5569   */\n      mstore\n        /* \"#utility.yul\":5404:5576   */\n      pop\n      jump\t// out\n        /* \"#utility.yul\":5582:5948   */\n    tag_119:\n        /* \"#utility.yul\":5724:5727   */\n      0x00\n        /* \"#utility.yul\":5745:5812   */\n      tag_184\n        /* \"#utility.yul\":5809:5811   */\n      0x16\n        /* \"#utility.yul\":5804:5807   */\n      dup4\n        /* \"#utility.yul\":5745:5812   */\n      tag_117\n      jump\t// in\n    tag_184:\n        /* \"#utility.yul\":5738:5812   */\n      swap2\n      pop\n        /* \"#utility.yul\":5821:5914   */\n      tag_185\n        /* \"#utility.yul\":5910:5913   */\n      dup3\n        /* \"#utility.yul\":5821:5914   */\n      tag_118\n      jump\t// in\n    tag_185:\n        /* \"#utility.yul\":5939:5941   */\n      0x20\n        /* \"#utility.yul\":5934:5937   */\n      dup3\n        /* \"#utility.yul\":5930:5942   */\n      add\n        /* \"#utility.yul\":5923:5942   */\n      swap1\n      pop\n        /* \"#utility.yul\":5582:5948   */\n      swap2\n      swap1\n      pop\n      jump\t// out\n        /* \"#utility.yul\":5954:6373   */\n    tag_69:\n        /* \"#utility.yul\":6120:6124   */\n      0x00\n        /* \"#utility.yul\":6158:6160   */\n      0x20\n        /* \"#utility.yul\":6147:6156   */\n      dup3\n        /* \"#utility.yul\":6143:6161   */\n      add\n        /* \"#utility.yul\":6135:6161   */\n      swap1\n      pop\n        /* \"#utility.yul\":6207:6216   */\n      dup2\n        /* \"#utility.yul\":6201:6205   */\n      dup2\n        /* \"#utility.yul\":6197:6217   */\n      sub\n        /* \"#utility.yul\":6193:6194   */\n      0x00\n        /* \"#utility.yul\":6182:6191   */\n      dup4\n        /* \"#utility.yul\":6178:6195   */\n      add\n        /* \"#utility.yul\":6171:6218   */\n      mstore\n        /* \"#utility.yul\":6235:6366   */\n      tag_187\n        /* \"#utility.yul\":6361:6365   */\n      dup2\n        /* \"#utility.yul\":6235:6366   */\n      tag_119\n      jump\t// in\n    tag_187:\n        /* \"#utility.yul\":6227:6366   */\n      swap1\n      pop\n        /* \"#utility.yul\":5954:6373   */\n      swap2\n      swap1\n      pop\n      jump\t// out\n\n    auxdata: 0xa26469706673582212207ee1188b11ad1378e3d1f22a212825ffed7e575b5ba4a66ac0070b4bc26f782064736f6c63430008140033\n}\n",
				"bytecode": {
					"linkReferences": {},
					"object": "608060405234801561000f575f80fd5b50335f73ffffffffffffffffffffffffffffffffffffffff168173ffffffffffffffffffffffffffffffffffffffff1603610081575f6040517f1e4fbdf70000000000000000000000000000000000000000000000000000000081526004016100789190610196565b60405180910390fd5b6100908161009660201b60201c565b506101af565b5f805f9054906101000a900473ffffffffffffffffffffffffffffffffffffffff169050815f806101000a81548173ffffffffffffffffffffffffffffffffffffffff021916908373ffffffffffffffffffffffffffffffffffffffff1602179055508173ffffffffffffffffffffffffffffffffffffffff168173ffffffffffffffffffffffffffffffffffffffff167f8be0079c531659141344cd1fd0a4f28419497f9722a3daafe3b4186f6b6457e060405160405180910390a35050565b5f73ffffffffffffffffffffffffffffffffffffffff82169050919050565b5f61018082610157565b9050919050565b61019081610176565b82525050565b5f6020820190506101a95f830184610187565b92915050565b61093b806101bc5f395ff3fe608060405234801561000f575f80fd5b5060043610610060575f3560e01c80630829784614610064578063715018a6146100805780638da5cb5b1461008a578063c7b22551146100a8578063df09d604146100c4578063f2fde38b146100e2575b5f80fd5b61007e600480360381019061007991906105dd565b6100fe565b005b6100886101f3565b005b610092610206565b60405161009f9190610647565b60405180910390f35b6100c260048036038101906100bd91906105dd565b61022d565b005b6100cc6102d3565b6040516100d99190610717565b60405180910390f35b6100fc60048036038101906100f79190610761565b610329565b005b6101066103ad565b5f60018054905090505f5b818110156101ee57826001828154811061012e5761012d61078c565b5b905f5260205f200154036101db576001808361014a91906107e6565b8154811061015b5761015a61078c565b5b905f5260205f200154600182815481106101785761017761078c565b5b905f5260205f200181905550600180548061019657610195610819565b5b600190038181905f5260205f20015f90559055827f0b1381093c776453c1bbe54fd68be1b235c65db61d099cb50d194b2991e0eec560405160405180910390a26101ee565b80806101e690610846565b915050610111565b505050565b6101fb6103ad565b6102045f610434565b565b5f805f9054906101000a900473ffffffffffffffffffffffffffffffffffffffff16905090565b6102356103ad565b61023e816104f5565b61027d576040517f08c379a0000000000000000000000000000000000000000000000000000000008152600401610274906108e7565b60405180910390fd5b600181908060018154018082558091505060019003905f5260205f20015f9091909190915055807f01c928b7f7ade2949e92366aa9454dbef3a416b731cf6ec786ba9595bbd814d660405160405180910390a250565b6060600180548060200260200160405190810160405280929190818152602001828054801561031f57602002820191905f5260205f20905b81548152602001906001019080831161030b575b5050505050905090565b6103316103ad565b5f73ffffffffffffffffffffffffffffffffffffffff168173ffffffffffffffffffffffffffffffffffffffff16036103a1575f6040517f1e4fbdf70000000000000000000000000000000000000000000000000000000081526004016103989190610647565b60405180910390fd5b6103aa81610434565b50565b6103b561059f565b73ffffffffffffffffffffffffffffffffffffffff166103d3610206565b73ffffffffffffffffffffffffffffffffffffffff1614610432576103f661059f565b6040517f118cdaa70000000000000000000000000000000000000000000000000000000081526004016104299190610647565b60405180910390fd5b565b5f805f9054906101000a900473ffffffffffffffffffffffffffffffffffffffff169050815f806101000a81548173ffffffffffffffffffffffffffffffffffffffff021916908373ffffffffffffffffffffffffffffffffffffffff1602179055508173ffffffffffffffffffffffffffffffffffffffff168173ffffffffffffffffffffffffffffffffffffffff167f8be0079c531659141344cd1fd0a4f28419497f9722a3daafe3b4186f6b6457e060405160405180910390a35050565b5f80600180548060200260200160405190810160405280929190818152602001828054801561054157602002820191905f5260205f20905b81548152602001906001019080831161052d575b505050505090505f60018054905090505f5b81811015610592578483828151811061056f5761056e61078c565b5b602002602001015103610587575f935050505061059a565b806001019050610553565b506001925050505b919050565b5f33905090565b5f80fd5b5f819050919050565b6105bc816105aa565b81146105c6575f80fd5b50565b5f813590506105d7816105b3565b92915050565b5f602082840312156105f2576105f16105a6565b5b5f6105ff848285016105c9565b91505092915050565b5f73ffffffffffffffffffffffffffffffffffffffff82169050919050565b5f61063182610608565b9050919050565b61064181610627565b82525050565b5f60208201905061065a5f830184610638565b92915050565b5f81519050919050565b5f82825260208201905092915050565b5f819050602082019050919050565b610692816105aa565b82525050565b5f6106a38383610689565b60208301905092915050565b5f602082019050919050565b5f6106c582610660565b6106cf818561066a565b93506106da8361067a565b805f5b8381101561070a5781516106f18882610698565b97506106fc836106af565b9250506001810190506106dd565b5085935050505092915050565b5f6020820190508181035f83015261072f81846106bb565b905092915050565b61074081610627565b811461074a575f80fd5b50565b5f8135905061075b81610737565b92915050565b5f60208284031215610776576107756105a6565b5b5f6107838482850161074d565b91505092915050565b7f4e487b71000000000000000000000000000000000000000000000000000000005f52603260045260245ffd5b7f4e487b71000000000000000000000000000000000000000000000000000000005f52601160045260245ffd5b5f6107f0826105aa565b91506107fb836105aa565b9250828203905081811115610813576108126107b9565b5b92915050565b7f4e487b71000000000000000000000000000000000000000000000000000000005f52603160045260245ffd5b5f610850826105aa565b91507fffffffffffffffffffffffffffffffffffffffffffffffffffffffffffffffff8203610882576108816107b9565b5b600182019050919050565b5f82825260208201905092915050565b7f4552432d333634333a20546f70696320657869737473000000000000000000005f82015250565b5f6108d160168361088d565b91506108dc8261089d565b602082019050919050565b5f6020820190508181035f8301526108fe816108c5565b905091905056fea26469706673582212207ee1188b11ad1378e3d1f22a212825ffed7e575b5ba4a66ac0070b4bc26f782064736f6c63430008140033",
					"opcodes": "PUSH1 0x80 PUSH1 0x40 MSTORE CALLVALUE DUP1 ISZERO PUSH2 0xF JUMPI PUSH0 DUP1 REVERT JUMPDEST POP CALLER PUSH0 PUSH20 0xFFFFFFFFFFFFFFFFFFFFFFFFFFFFFFFFFFFFFFFF AND DUP2 PUSH20 0xFFFFFFFFFFFFFFFFFFFFFFFFFFFFFFFFFFFFFFFF AND SUB PUSH2 0x81 JUMPI PUSH0 PUSH1 0x40 MLOAD PUSH32 0x1E4FBDF700000000000000000000000000000000000000000000000000000000 DUP2 MSTORE PUSH1 0x4 ADD PUSH2 0x78 SWAP2 SWAP1 PUSH2 0x196 JUMP JUMPDEST PUSH1 0x40 MLOAD DUP1 SWAP2 SUB SWAP1 REVERT JUMPDEST PUSH2 0x90 DUP2 PUSH2 0x96 PUSH1 0x20 SHL PUSH1 0x20 SHR JUMP JUMPDEST POP PUSH2 0x1AF JUMP JUMPDEST PUSH0 DUP1 PUSH0 SWAP1 SLOAD SWAP1 PUSH2 0x100 EXP SWAP1 DIV PUSH20 0xFFFFFFFFFFFFFFFFFFFFFFFFFFFFFFFFFFFFFFFF AND SWAP1 POP DUP2 PUSH0 DUP1 PUSH2 0x100 EXP DUP2 SLOAD DUP2 PUSH20 0xFFFFFFFFFFFFFFFFFFFFFFFFFFFFFFFFFFFFFFFF MUL NOT AND SWAP1 DUP4 PUSH20 0xFFFFFFFFFFFFFFFFFFFFFFFFFFFFFFFFFFFFFFFF AND MUL OR SWAP1 SSTORE POP DUP2 PUSH20 0xFFFFFFFFFFFFFFFFFFFFFFFFFFFFFFFFFFFFFFFF AND DUP2 PUSH20 0xFFFFFFFFFFFFFFFFFFFFFFFFFFFFFFFFFFFFFFFF AND PUSH32 0x8BE0079C531659141344CD1FD0A4F28419497F9722A3DAAFE3B4186F6B6457E0 PUSH1 0x40 MLOAD PUSH1 0x40 MLOAD DUP1 SWAP2 SUB SWAP1 LOG3 POP POP JUMP JUMPDEST PUSH0 PUSH20 0xFFFFFFFFFFFFFFFFFFFFFFFFFFFFFFFFFFFFFFFF DUP3 AND SWAP1 POP SWAP2 SWAP1 POP JUMP JUMPDEST PUSH0 PUSH2 0x180 DUP3 PUSH2 0x157 JUMP JUMPDEST SWAP1 POP SWAP2 SWAP1 POP JUMP JUMPDEST PUSH2 0x190 DUP2 PUSH2 0x176 JUMP JUMPDEST DUP3 MSTORE POP POP JUMP JUMPDEST PUSH0 PUSH1 0x20 DUP3 ADD SWAP1 POP PUSH2 0x1A9 PUSH0 DUP4 ADD DUP5 PUSH2 0x187 JUMP JUMPDEST SWAP3 SWAP2 POP POP JUMP JUMPDEST PUSH2 0x93B DUP1 PUSH2 0x1BC PUSH0 CODECOPY PUSH0 RETURN INVALID PUSH1 0x80 PUSH1 0x40 MSTORE CALLVALUE DUP1 ISZERO PUSH2 0xF JUMPI PUSH0 DUP1 REVERT JUMPDEST POP PUSH1 0x4 CALLDATASIZE LT PUSH2 0x60 JUMPI PUSH0 CALLDATALOAD PUSH1 0xE0 SHR DUP1 PUSH4 0x8297846 EQ PUSH2 0x64 JUMPI DUP1 PUSH4 0x715018A6 EQ PUSH2 0x80 JUMPI DUP1 PUSH4 0x8DA5CB5B EQ PUSH2 0x8A JUMPI DUP1 PUSH4 0xC7B22551 EQ PUSH2 0xA8 JUMPI DUP1 PUSH4 0xDF09D604 EQ PUSH2 0xC4 JUMPI DUP1 PUSH4 0xF2FDE38B EQ PUSH2 0xE2 JUMPI JUMPDEST PUSH0 DUP1 REVERT JUMPDEST PUSH2 0x7E PUSH1 0x4 DUP1 CALLDATASIZE SUB DUP2 ADD SWAP1 PUSH2 0x79 SWAP2 SWAP1 PUSH2 0x5DD JUMP JUMPDEST PUSH2 0xFE JUMP JUMPDEST STOP JUMPDEST PUSH2 0x88 PUSH2 0x1F3 JUMP JUMPDEST STOP JUMPDEST PUSH2 0x92 PUSH2 0x206 JUMP JUMPDEST PUSH1 0x40 MLOAD PUSH2 0x9F SWAP2 SWAP1 PUSH2 0x647 JUMP JUMPDEST PUSH1 0x40 MLOAD DUP1 SWAP2 SUB SWAP1 RETURN JUMPDEST PUSH2 0xC2 PUSH1 0x4 DUP1 CALLDATASIZE SUB DUP2 ADD SWAP1 PUSH2 0xBD SWAP2 SWAP1 PUSH2 0x5DD JUMP JUMPDEST PUSH2 0x22D JUMP JUMPDEST STOP JUMPDEST PUSH2 0xCC PUSH2 0x2D3 JUMP JUMPDEST PUSH1 0x40 MLOAD PUSH2 0xD9 SWAP2 SWAP1 PUSH2 0x717 JUMP JUMPDEST PUSH1 0x40 MLOAD DUP1 SWAP2 SUB SWAP1 RETURN JUMPDEST PUSH2 0xFC PUSH1 0x4 DUP1 CALLDATASIZE SUB DUP2 ADD SWAP1 PUSH2 0xF7 SWAP2 SWAP1 PUSH2 0x761 JUMP JUMPDEST PUSH2 0x329 JUMP JUMPDEST STOP JUMPDEST PUSH2 0x106 PUSH2 0x3AD JUMP JUMPDEST PUSH0 PUSH1 0x1 DUP1 SLOAD SWAP1 POP SWAP1 POP PUSH0 JUMPDEST DUP2 DUP2 LT ISZERO PUSH2 0x1EE JUMPI DUP3 PUSH1 0x1 DUP3 DUP2 SLOAD DUP2 LT PUSH2 0x12E JUMPI PUSH2 0x12D PUSH2 0x78C JUMP JUMPDEST JUMPDEST SWAP1 PUSH0 MSTORE PUSH1 0x20 PUSH0 KECCAK256 ADD SLOAD SUB PUSH2 0x1DB JUMPI PUSH1 0x1 DUP1 DUP4 PUSH2 0x14A SWAP2 SWAP1 PUSH2 0x7E6 JUMP JUMPDEST DUP2 SLOAD DUP2 LT PUSH2 0x15B JUMPI PUSH2 0x15A PUSH2 0x78C JUMP JUMPDEST JUMPDEST SWAP1 PUSH0 MSTORE PUSH1 0x20 PUSH0 KECCAK256 ADD SLOAD PUSH1 0x1 DUP3 DUP2 SLOAD DUP2 LT PUSH2 0x178 JUMPI PUSH2 0x177 PUSH2 0x78C JUMP JUMPDEST JUMPDEST SWAP1 PUSH0 MSTORE PUSH1 0x20 PUSH0 KECCAK256 ADD DUP2 SWAP1 SSTORE POP PUSH1 0x1 DUP1 SLOAD DUP1 PUSH2 0x196 JUMPI PUSH2 0x195 PUSH2 0x819 JUMP JUMPDEST JUMPDEST PUSH1 0x1 SWAP1 SUB DUP2 DUP2 SWAP1 PUSH0 MSTORE PUSH1 0x20 PUSH0 KECCAK256 ADD PUSH0 SWAP1 SSTORE SWAP1 SSTORE DUP3 PUSH32 0xB1381093C776453C1BBE54FD68BE1B235C65DB61D099CB50D194B2991E0EEC5 PUSH1 0x40 MLOAD PUSH1 0x40 MLOAD DUP1 SWAP2 SUB SWAP1 LOG2 PUSH2 0x1EE JUMP JUMPDEST DUP1 DUP1 PUSH2 0x1E6 SWAP1 PUSH2 0x846 JUMP JUMPDEST SWAP2 POP POP PUSH2 0x111 JUMP JUMPDEST POP POP POP JUMP JUMPDEST PUSH2 0x1FB PUSH2 0x3AD JUMP JUMPDEST PUSH2 0x204 PUSH0 PUSH2 0x434 JUMP JUMPDEST JUMP JUMPDEST PUSH0 DUP1 PUSH0 SWAP1 SLOAD SWAP1 PUSH2 0x100 EXP SWAP1 DIV PUSH20 0xFFFFFFFFFFFFFFFFFFFFFFFFFFFFFFFFFFFFFFFF AND SWAP1 POP SWAP1 JUMP JUMPDEST PUSH2 0x235 PUSH2 0x3AD JUMP JUMPDEST PUSH2 0x23E DUP2 PUSH2 0x4F5 JUMP JUMPDEST PUSH2 0x27D JUMPI PUSH1 0x40 MLOAD PUSH32 0x8C379A000000000000000000000000000000000000000000000000000000000 DUP2 MSTORE PUSH1 0x4 ADD PUSH2 0x274 SWAP1 PUSH2 0x8E7 JUMP JUMPDEST PUSH1 0x40 MLOAD DUP1 SWAP2 SUB SWAP1 REVERT JUMPDEST PUSH1 0x1 DUP2 SWAP1 DUP1 PUSH1 0x1 DUP2 SLOAD ADD DUP1 DUP3 SSTORE DUP1 SWAP2 POP POP PUSH1 0x1 SWAP1 SUB SWAP1 PUSH0 MSTORE PUSH1 0x20 PUSH0 KECCAK256 ADD PUSH0 SWAP1 SWAP2 SWAP1 SWAP2 SWAP1 SWAP2 POP SSTORE DUP1 PUSH32 0x1C928B7F7ADE2949E92366AA9454DBEF3A416B731CF6EC786BA9595BBD814D6 PUSH1 0x40 MLOAD PUSH1 0x40 MLOAD DUP1 SWAP2 SUB SWAP1 LOG2 POP JUMP JUMPDEST PUSH1 0x60 PUSH1 0x1 DUP1 SLOAD DUP1 PUSH1 0x20 MUL PUSH1 0x20 ADD PUSH1 0x40 MLOAD SWAP1 DUP2 ADD PUSH1 0x40 MSTORE DUP1 SWAP3 SWAP2 SWAP1 DUP2 DUP2 MSTORE PUSH1 0x20 ADD DUP3 DUP1 SLOAD DUP1 ISZERO PUSH2 0x31F JUMPI PUSH1 0x20 MUL DUP3 ADD SWAP2 SWAP1 PUSH0 MSTORE PUSH1 0x20 PUSH0 KECCAK256 SWAP1 JUMPDEST DUP2 SLOAD DUP2 MSTORE PUSH1 0x20 ADD SWAP1 PUSH1 0x1 ADD SWAP1 DUP1 DUP4 GT PUSH2 0x30B JUMPI JUMPDEST POP POP POP POP POP SWAP1 POP SWAP1 JUMP JUMPDEST PUSH2 0x331 PUSH2 0x3AD JUMP JUMPDEST PUSH0 PUSH20 0xFFFFFFFFFFFFFFFFFFFFFFFFFFFFFFFFFFFFFFFF AND DUP2 PUSH20 0xFFFFFFFFFFFFFFFFFFFFFFFFFFFFFFFFFFFFFFFF AND SUB PUSH2 0x3A1 JUMPI PUSH0 PUSH1 0x40 MLOAD PUSH32 0x1E4FBDF700000000000000000000000000000000000000000000000000000000 DUP2 MSTORE PUSH1 0x4 ADD PUSH2 0x398 SWAP2 SWAP1 PUSH2 0x647 JUMP JUMPDEST PUSH1 0x40 MLOAD DUP1 SWAP2 SUB SWAP1 REVERT JUMPDEST PUSH2 0x3AA DUP2 PUSH2 0x434 JUMP JUMPDEST POP JUMP JUMPDEST PUSH2 0x3B5 PUSH2 0x59F JUMP JUMPDEST PUSH20 0xFFFFFFFFFFFFFFFFFFFFFFFFFFFFFFFFFFFFFFFF AND PUSH2 0x3D3 PUSH2 0x206 JUMP JUMPDEST PUSH20 0xFFFFFFFFFFFFFFFFFFFFFFFFFFFFFFFFFFFFFFFF AND EQ PUSH2 0x432 JUMPI PUSH2 0x3F6 PUSH2 0x59F JUMP JUMPDEST PUSH1 0x40 MLOAD PUSH32 0x118CDAA700000000000000000000000000000000000000000000000000000000 DUP2 MSTORE PUSH1 0x4 ADD PUSH2 0x429 SWAP2 SWAP1 PUSH2 0x647 JUMP JUMPDEST PUSH1 0x40 MLOAD DUP1 SWAP2 SUB SWAP1 REVERT JUMPDEST JUMP JUMPDEST PUSH0 DUP1 PUSH0 SWAP1 SLOAD SWAP1 PUSH2 0x100 EXP SWAP1 DIV PUSH20 0xFFFFFFFFFFFFFFFFFFFFFFFFFFFFFFFFFFFFFFFF AND SWAP1 POP DUP2 PUSH0 DUP1 PUSH2 0x100 EXP DUP2 SLOAD DUP2 PUSH20 0xFFFFFFFFFFFFFFFFFFFFFFFFFFFFFFFFFFFFFFFF MUL NOT AND SWAP1 DUP4 PUSH20 0xFFFFFFFFFFFFFFFFFFFFFFFFFFFFFFFFFFFFFFFF AND MUL OR SWAP1 SSTORE POP DUP2 PUSH20 0xFFFFFFFFFFFFFFFFFFFFFFFFFFFFFFFFFFFFFFFF AND DUP2 PUSH20 0xFFFFFFFFFFFFFFFFFFFFFFFFFFFFFFFFFFFFFFFF AND PUSH32 0x8BE0079C531659141344CD1FD0A4F28419497F9722A3DAAFE3B4186F6B6457E0 PUSH1 0x40 MLOAD PUSH1 0x40 MLOAD DUP1 SWAP2 SUB SWAP1 LOG3 POP POP JUMP JUMPDEST PUSH0 DUP1 PUSH1 0x1 DUP1 SLOAD DUP1 PUSH1 0x20 MUL PUSH1 0x20 ADD PUSH1 0x40 MLOAD SWAP1 DUP2 ADD PUSH1 0x40 MSTORE DUP1 SWAP3 SWAP2 SWAP1 DUP2 DUP2 MSTORE PUSH1 0x20 ADD DUP3 DUP1 SLOAD DUP1 ISZERO PUSH2 0x541 JUMPI PUSH1 0x20 MUL DUP3 ADD SWAP2 SWAP1 PUSH0 MSTORE PUSH1 0x20 PUSH0 KECCAK256 SWAP1 JUMPDEST DUP2 SLOAD DUP2 MSTORE PUSH1 0x20 ADD SWAP1 PUSH1 0x1 ADD SWAP1 DUP1 DUP4 GT PUSH2 0x52D JUMPI JUMPDEST POP POP POP POP POP SWAP1 POP PUSH0 PUSH1 0x1 DUP1 SLOAD SWAP1 POP SWAP1 POP PUSH0 JUMPDEST DUP2 DUP2 LT ISZERO PUSH2 0x592 JUMPI DUP5 DUP4 DUP3 DUP2 MLOAD DUP2 LT PUSH2 0x56F JUMPI PUSH2 0x56E PUSH2 0x78C JUMP JUMPDEST JUMPDEST PUSH1 0x20 MUL PUSH1 0x20 ADD ADD MLOAD SUB PUSH2 0x587 JUMPI PUSH0 SWAP4 POP POP POP POP PUSH2 0x59A JUMP JUMPDEST DUP1 PUSH1 0x1 ADD SWAP1 POP PUSH2 0x553 JUMP JUMPDEST POP PUSH1 0x1 SWAP3 POP POP POP JUMPDEST SWAP2 SWAP1 POP JUMP JUMPDEST PUSH0 CALLER SWAP1 POP SWAP1 JUMP JUMPDEST PUSH0 DUP1 REVERT JUMPDEST PUSH0 DUP2 SWAP1 POP SWAP2 SWAP1 POP JUMP JUMPDEST PUSH2 0x5BC DUP2 PUSH2 0x5AA JUMP JUMPDEST DUP2 EQ PUSH2 0x5C6 JUMPI PUSH0 DUP1 REVERT JUMPDEST POP JUMP JUMPDEST PUSH0 DUP2 CALLDATALOAD SWAP1 POP PUSH2 0x5D7 DUP2 PUSH2 0x5B3 JUMP JUMPDEST SWAP3 SWAP2 POP POP JUMP JUMPDEST PUSH0 PUSH1 0x20 DUP3 DUP5 SUB SLT ISZERO PUSH2 0x5F2 JUMPI PUSH2 0x5F1 PUSH2 0x5A6 JUMP JUMPDEST JUMPDEST PUSH0 PUSH2 0x5FF DUP5 DUP3 DUP6 ADD PUSH2 0x5C9 JUMP JUMPDEST SWAP2 POP POP SWAP3 SWAP2 POP POP JUMP JUMPDEST PUSH0 PUSH20 0xFFFFFFFFFFFFFFFFFFFFFFFFFFFFFFFFFFFFFFFF DUP3 AND SWAP1 POP SWAP2 SWAP1 POP JUMP JUMPDEST PUSH0 PUSH2 0x631 DUP3 PUSH2 0x608 JUMP JUMPDEST SWAP1 POP SWAP2 SWAP1 POP JUMP JUMPDEST PUSH2 0x641 DUP2 PUSH2 0x627 JUMP JUMPDEST DUP3 MSTORE POP POP JUMP JUMPDEST PUSH0 PUSH1 0x20 DUP3 ADD SWAP1 POP PUSH2 0x65A PUSH0 DUP4 ADD DUP5 PUSH2 0x638 JUMP JUMPDEST SWAP3 SWAP2 POP POP JUMP JUMPDEST PUSH0 DUP2 MLOAD SWAP1 POP SWAP2 SWAP1 POP JUMP JUMPDEST PUSH0 DUP3 DUP3 MSTORE PUSH1 0x20 DUP3 ADD SWAP1 POP SWAP3 SWAP2 POP POP JUMP JUMPDEST PUSH0 DUP2 SWAP1 POP PUSH1 0x20 DUP3 ADD SWAP1 POP SWAP2 SWAP1 POP JUMP JUMPDEST PUSH2 0x692 DUP2 PUSH2 0x5AA JUMP JUMPDEST DUP3 MSTORE POP POP JUMP JUMPDEST PUSH0 PUSH2 0x6A3 DUP4 DUP4 PUSH2 0x689 JUMP JUMPDEST PUSH1 0x20 DUP4 ADD SWAP1 POP SWAP3 SWAP2 POP POP JUMP JUMPDEST PUSH0 PUSH1 0x20 DUP3 ADD SWAP1 POP SWAP2 SWAP1 POP JUMP JUMPDEST PUSH0 PUSH2 0x6C5 DUP3 PUSH2 0x660 JUMP JUMPDEST PUSH2 0x6CF DUP2 DUP6 PUSH2 0x66A JUMP JUMPDEST SWAP4 POP PUSH2 0x6DA DUP4 PUSH2 0x67A JUMP JUMPDEST DUP1 PUSH0 JUMPDEST DUP4 DUP2 LT ISZERO PUSH2 0x70A JUMPI DUP2 MLOAD PUSH2 0x6F1 DUP9 DUP3 PUSH2 0x698 JUMP JUMPDEST SWAP8 POP PUSH2 0x6FC DUP4 PUSH2 0x6AF JUMP JUMPDEST SWAP3 POP POP PUSH1 0x1 DUP2 ADD SWAP1 POP PUSH2 0x6DD JUMP JUMPDEST POP DUP6 SWAP4 POP POP POP POP SWAP3 SWAP2 POP POP JUMP JUMPDEST PUSH0 PUSH1 0x20 DUP3 ADD SWAP1 POP DUP2 DUP2 SUB PUSH0 DUP4 ADD MSTORE PUSH2 0x72F DUP2 DUP5 PUSH2 0x6BB JUMP JUMPDEST SWAP1 POP SWAP3 SWAP2 POP POP JUMP JUMPDEST PUSH2 0x740 DUP2 PUSH2 0x627 JUMP JUMPDEST DUP2 EQ PUSH2 0x74A JUMPI PUSH0 DUP1 REVERT JUMPDEST POP JUMP JUMPDEST PUSH0 DUP2 CALLDATALOAD SWAP1 POP PUSH2 0x75B DUP2 PUSH2 0x737 JUMP JUMPDEST SWAP3 SWAP2 POP POP JUMP JUMPDEST PUSH0 PUSH1 0x20 DUP3 DUP5 SUB SLT ISZERO PUSH2 0x776 JUMPI PUSH2 0x775 PUSH2 0x5A6 JUMP JUMPDEST JUMPDEST PUSH0 PUSH2 0x783 DUP5 DUP3 DUP6 ADD PUSH2 0x74D JUMP JUMPDEST SWAP2 POP POP SWAP3 SWAP2 POP POP JUMP JUMPDEST PUSH32 0x4E487B7100000000000000000000000000000000000000000000000000000000 PUSH0 MSTORE PUSH1 0x32 PUSH1 0x4 MSTORE PUSH1 0x24 PUSH0 REVERT JUMPDEST PUSH32 0x4E487B7100000000000000000000000000000000000000000000000000000000 PUSH0 MSTORE PUSH1 0x11 PUSH1 0x4 MSTORE PUSH1 0x24 PUSH0 REVERT JUMPDEST PUSH0 PUSH2 0x7F0 DUP3 PUSH2 0x5AA JUMP JUMPDEST SWAP2 POP PUSH2 0x7FB DUP4 PUSH2 0x5AA JUMP JUMPDEST SWAP3 POP DUP3 DUP3 SUB SWAP1 POP DUP2 DUP2 GT ISZERO PUSH2 0x813 JUMPI PUSH2 0x812 PUSH2 0x7B9 JUMP JUMPDEST JUMPDEST SWAP3 SWAP2 POP POP JUMP JUMPDEST PUSH32 0x4E487B7100000000000000000000000000000000000000000000000000000000 PUSH0 MSTORE PUSH1 0x31 PUSH1 0x4 MSTORE PUSH1 0x24 PUSH0 REVERT JUMPDEST PUSH0 PUSH2 0x850 DUP3 PUSH2 0x5AA JUMP JUMPDEST SWAP2 POP PUSH32 0xFFFFFFFFFFFFFFFFFFFFFFFFFFFFFFFFFFFFFFFFFFFFFFFFFFFFFFFFFFFFFFFF DUP3 SUB PUSH2 0x882 JUMPI PUSH2 0x881 PUSH2 0x7B9 JUMP JUMPDEST JUMPDEST PUSH1 0x1 DUP3 ADD SWAP1 POP SWAP2 SWAP1 POP JUMP JUMPDEST PUSH0 DUP3 DUP3 MSTORE PUSH1 0x20 DUP3 ADD SWAP1 POP SWAP3 SWAP2 POP POP JUMP JUMPDEST PUSH32 0x4552432D333634333A20546F7069632065786973747300000000000000000000 PUSH0 DUP3 ADD MSTORE POP JUMP JUMPDEST PUSH0 PUSH2 0x8D1 PUSH1 0x16 DUP4 PUSH2 0x88D JUMP JUMPDEST SWAP2 POP PUSH2 0x8DC DUP3 PUSH2 0x89D JUMP JUMPDEST PUSH1 0x20 DUP3 ADD SWAP1 POP SWAP2 SWAP1 POP JUMP JUMPDEST PUSH0 PUSH1 0x20 DUP3 ADD SWAP1 POP DUP2 DUP2 SUB PUSH0 DUP4 ADD MSTORE PUSH2 0x8FE DUP2 PUSH2 0x8C5 JUMP JUMPDEST SWAP1 POP SWAP2 SWAP1 POP JUMP INVALID LOG2 PUSH5 0x6970667358 0x22 SLT KECCAK256 PUSH31 0xE1188B11AD1378E3D1F22A212825FFED7E575B5BA4A66AC0070B4BC26F7820 PUSH5 0x736F6C6343 STOP ADDMOD EQ STOP CALLER "
				},
				"gasEstimates": {
					"creation": {
						"codeDepositCost": "472600",
						"executionCost": "infinite",
						"totalCost": "infinite"
					},
					"external": {
						"addClaimTopic(uint256)": "infinite",
						"getClaimTopics()": "infinite",
						"owner()": "2537",
						"removeClaimTopic(uint256)": "infinite",
						"renounceOwnership()": "infinite",
						"transferOwnership(address)": "infinite"
					},
					"internal": {
						"_isClaimTopicUnique(uint256)": "infinite"
					}
				},
				"methodIdentifiers": {
					"addClaimTopic(uint256)": "c7b22551",
					"getClaimTopics()": "df09d604",
					"owner()": "8da5cb5b",
					"removeClaimTopic(uint256)": "08297846",
					"renounceOwnership()": "715018a6",
					"transferOwnership(address)": "f2fde38b"
				}
			},
			"storageLayout": {
				"storage": [
					{
						"astId": 8,
						"contract": "contracts/registry/ClaimTopicsRegistry.sol:ClaimTopicsRegistry",
						"label": "_owner",
						"offset": 0,
						"slot": "0",
						"type": "t_address"
					},
					{
						"astId": 192,
						"contract": "contracts/registry/ClaimTopicsRegistry.sol:ClaimTopicsRegistry",
						"label": "_claimTopics",
						"offset": 0,
						"slot": "1",
						"type": "t_array(t_uint256)dyn_storage"
					}
				],
				"types": {
					"t_address": {
						"encoding": "inplace",
						"label": "address",
						"numberOfBytes": "20"
					},
					"t_array(t_uint256)dyn_storage": {
						"base": "t_uint256",
						"encoding": "dynamic_array",
						"label": "uint256[]",
						"numberOfBytes": "32"
					},
					"t_uint256": {
						"encoding": "inplace",
						"label": "uint256",
						"numberOfBytes": "32"
					}
				}
			},
			"userdoc": {
				"events": {
					"ClaimTopicAdded(uint256)": {
						"notice": "this event is emitted when a claim topic has been added to the ClaimTopicsRegistry  the event is emitted by the 'addClaimTopic' function  `claimTopic` is the required claim added to the Claim Topics Registry"
					},
					"ClaimTopicRemoved(uint256)": {
						"notice": "this event is emitted when a claim topic has been removed from the ClaimTopicsRegistry  the event is emitted by the 'removeClaimTopic' function  `claimTopic` is the required claim removed from the Claim Topics Registry"
					}
				},
				"kind": "user",
				"methods": {
					"addClaimTopic(uint256)": {
						"notice": "Adds a claim topic to the registry."
					},
					"getClaimTopics()": {
						"notice": "Retrieves all claim topics from the registry."
					},
					"removeClaimTopic(uint256)": {
						"notice": "Removes a claim topic from the registry."
					}
				},
				"version": 1
			}
		}
	}
}