{
	"contracts/registry/IdentityRegistry.sol": {
		"IdentityRegistry": {
			"abi": [
				{
					"inputs": [
						{
							"internalType": "contract IClaimIssuersRegistry",
							"name": "_claimIssuersRegistry",
							"type": "address"
						},
						{
							"internalType": "contract IClaimTopicsRegistry",
							"name": "_claimTopicsRegistry",
							"type": "address"
						},
						{
							"internalType": "contract IIdentityRegistryStorage",
							"name": "_identityStorage",
							"type": "address"
						}
					],
					"stateMutability": "nonpayable",
					"type": "constructor"
				},
				{
					"inputs": [],
					"name": "AccessControlBadConfirmation",
					"type": "error"
				},
				{
					"inputs": [
						{
							"internalType": "address",
							"name": "account",
							"type": "address"
						},
						{
							"internalType": "bytes32",
							"name": "neededRole",
							"type": "bytes32"
						}
					],
					"name": "AccessControlUnauthorizedAccount",
					"type": "error"
				},
				{
					"anonymous": false,
					"inputs": [
						{
							"indexed": true,
							"internalType": "contract IClaimIssuersRegistry",
							"name": "claimIssuersRegistry",
							"type": "address"
						}
					],
					"name": "ClaimIssuersRegistrySet",
					"type": "event"
				},
				{
					"anonymous": false,
					"inputs": [
						{
							"indexed": true,
							"internalType": "contract IClaimTopicsRegistry",
							"name": "claimTopicsRegistry",
							"type": "address"
						}
					],
					"name": "ClaimTopicsRegistrySet",
					"type": "event"
				},
				{
					"anonymous": false,
					"inputs": [
						{
							"indexed": true,
							"internalType": "address",
							"name": "investorAddress",
							"type": "address"
						},
						{
							"indexed": true,
							"internalType": "uint16",
							"name": "country",
							"type": "uint16"
						}
					],
					"name": "CountryUpdated",
					"type": "event"
				},
				{
					"anonymous": false,
					"inputs": [
						{
							"indexed": true,
							"internalType": "address",
							"name": "investorAddress",
							"type": "address"
						},
						{
							"indexed": true,
							"internalType": "contract IIdentity",
							"name": "identity",
							"type": "address"
						}
					],
					"name": "IdentityRegistered",
					"type": "event"
				},
				{
					"anonymous": false,
					"inputs": [
						{
							"indexed": true,
							"internalType": "address",
							"name": "investorAddress",
							"type": "address"
						},
						{
							"indexed": true,
							"internalType": "contract IIdentity",
							"name": "identity",
							"type": "address"
						}
					],
					"name": "IdentityRemoved",
					"type": "event"
				},
				{
					"anonymous": false,
					"inputs": [
						{
							"indexed": true,
							"internalType": "contract IIdentityRegistryStorage",
							"name": "identityStorage",
							"type": "address"
						}
					],
					"name": "IdentityStorageSet",
					"type": "event"
				},
				{
					"anonymous": false,
					"inputs": [
						{
							"indexed": true,
							"internalType": "contract IIdentity",
							"name": "oldIdentity",
							"type": "address"
						},
						{
							"indexed": true,
							"internalType": "contract IIdentity",
							"name": "newIdentity",
							"type": "address"
						}
					],
					"name": "IdentityUpdated",
					"type": "event"
				},
				{
					"anonymous": false,
					"inputs": [
						{
							"indexed": true,
							"internalType": "bytes32",
							"name": "role",
							"type": "bytes32"
						},
						{
							"indexed": true,
							"internalType": "bytes32",
							"name": "previousAdminRole",
							"type": "bytes32"
						},
						{
							"indexed": true,
							"internalType": "bytes32",
							"name": "newAdminRole",
							"type": "bytes32"
						}
					],
					"name": "RoleAdminChanged",
					"type": "event"
				},
				{
					"anonymous": false,
					"inputs": [
						{
							"indexed": true,
							"internalType": "bytes32",
							"name": "role",
							"type": "bytes32"
						},
						{
							"indexed": true,
							"internalType": "address",
							"name": "account",
							"type": "address"
						},
						{
							"indexed": true,
							"internalType": "address",
							"name": "sender",
							"type": "address"
						}
					],
					"name": "RoleGranted",
					"type": "event"
				},
				{
					"anonymous": false,
					"inputs": [
						{
							"indexed": true,
							"internalType": "bytes32",
							"name": "role",
							"type": "bytes32"
						},
						{
							"indexed": true,
							"internalType": "address",
							"name": "account",
							"type": "address"
						},
						{
							"indexed": true,
							"internalType": "address",
							"name": "sender",
							"type": "address"
						}
					],
					"name": "RoleRevoked",
					"type": "event"
				},
				{
					"inputs": [],
					"name": "AGENT_ROLE",
					"outputs": [
						{
							"internalType": "bytes32",
							"name": "",
							"type": "bytes32"
						}
					],
					"stateMutability": "view",
					"type": "function"
				},
				{
					"inputs": [],
					"name": "DEFAULT_ADMIN_ROLE",
					"outputs": [
						{
							"internalType": "bytes32",
							"name": "",
							"type": "bytes32"
						}
					],
					"stateMutability": "view",
					"type": "function"
				},
				{
					"inputs": [],
					"name": "OWNER_ROLE",
					"outputs": [
						{
							"internalType": "bytes32",
							"name": "",
							"type": "bytes32"
						}
					],
					"stateMutability": "view",
					"type": "function"
				},
				{
					"inputs": [
						{
							"internalType": "address[]",
							"name": "_userAddresses",
							"type": "address[]"
						},
						{
							"internalType": "contract IIdentity[]",
							"name": "_identities",
							"type": "address[]"
						},
						{
							"internalType": "uint16[]",
							"name": "_countries",
							"type": "uint16[]"
						}
					],
					"name": "batchRegisterIdentity",
					"outputs": [],
					"stateMutability": "nonpayable",
					"type": "function"
				},
				{
					"inputs": [
						{
							"internalType": "address",
							"name": "_userAddress",
							"type": "address"
						}
					],
					"name": "contains",
					"outputs": [
						{
							"internalType": "bool",
							"name": "",
							"type": "bool"
						}
					],
					"stateMutability": "view",
					"type": "function"
				},
				{
					"inputs": [
						{
							"internalType": "address",
							"name": "_userAddress",
							"type": "address"
						}
					],
					"name": "deleteIdentity",
					"outputs": [],
					"stateMutability": "nonpayable",
					"type": "function"
				},
				{
					"inputs": [
						{
							"internalType": "bytes32",
							"name": "role",
							"type": "bytes32"
						}
					],
					"name": "getRoleAdmin",
					"outputs": [
						{
							"internalType": "bytes32",
							"name": "",
							"type": "bytes32"
						}
					],
					"stateMutability": "view",
					"type": "function"
				},
				{
					"inputs": [
						{
							"internalType": "bytes32",
							"name": "role",
							"type": "bytes32"
						},
						{
							"internalType": "address",
							"name": "account",
							"type": "address"
						}
					],
					"name": "grantRole",
					"outputs": [],
					"stateMutability": "nonpayable",
					"type": "function"
				},
				{
					"inputs": [
						{
							"internalType": "bytes32",
							"name": "role",
							"type": "bytes32"
						},
						{
							"internalType": "address",
							"name": "account",
							"type": "address"
						}
					],
					"name": "hasRole",
					"outputs": [
						{
							"internalType": "bool",
							"name": "",
							"type": "bool"
						}
					],
					"stateMutability": "view",
					"type": "function"
				},
				{
					"inputs": [
						{
							"internalType": "address",
							"name": "_userAddress",
							"type": "address"
						}
					],
					"name": "identity",
					"outputs": [
						{
							"internalType": "contract IIdentity",
							"name": "",
							"type": "address"
						}
					],
					"stateMutability": "view",
					"type": "function"
				},
				{
					"inputs": [],
					"name": "identityStorage",
					"outputs": [
						{
							"internalType": "contract IIdentityRegistryStorage",
							"name": "",
							"type": "address"
						}
					],
					"stateMutability": "view",
					"type": "function"
				},
				{
					"inputs": [
						{
							"internalType": "address",
							"name": "_userAddress",
							"type": "address"
						}
					],
					"name": "investorCountry",
					"outputs": [
						{
							"internalType": "uint16",
							"name": "",
							"type": "uint16"
						}
					],
					"stateMutability": "view",
					"type": "function"
				},
				{
					"inputs": [
						{
							"internalType": "address",
							"name": "_userAddress",
							"type": "address"
						}
					],
					"name": "isVerified",
					"outputs": [
						{
							"internalType": "bool",
							"name": "",
							"type": "bool"
						}
					],
					"stateMutability": "view",
					"type": "function"
				},
				{
					"inputs": [],
					"name": "issuersRegistry",
					"outputs": [
						{
							"internalType": "contract IClaimIssuersRegistry",
							"name": "",
							"type": "address"
						}
					],
					"stateMutability": "view",
					"type": "function"
				},
				{
					"inputs": [
						{
							"internalType": "address",
							"name": "_userAddress",
							"type": "address"
						},
						{
							"internalType": "contract IIdentity",
							"name": "_identity",
							"type": "address"
						},
						{
							"internalType": "uint16",
							"name": "_country",
							"type": "uint16"
						}
					],
					"name": "registerIdentity",
					"outputs": [],
					"stateMutability": "nonpayable",
					"type": "function"
				},
				{
					"inputs": [
						{
							"internalType": "bytes32",
							"name": "role",
							"type": "bytes32"
						},
						{
							"internalType": "address",
							"name": "callerConfirmation",
							"type": "address"
						}
					],
					"name": "renounceRole",
					"outputs": [],
					"stateMutability": "nonpayable",
					"type": "function"
				},
				{
					"inputs": [
						{
							"internalType": "bytes32",
							"name": "role",
							"type": "bytes32"
						},
						{
							"internalType": "address",
							"name": "account",
							"type": "address"
						}
					],
					"name": "revokeRole",
					"outputs": [],
					"stateMutability": "nonpayable",
					"type": "function"
				},
				{
					"inputs": [
						{
							"internalType": "contract IClaimIssuersRegistry",
							"name": "_claimIssuersRegistry",
							"type": "address"
						}
					],
					"name": "setClaimIssuersRegistry",
					"outputs": [],
					"stateMutability": "nonpayable",
					"type": "function"
				},
				{
					"inputs": [
						{
							"internalType": "contract IClaimTopicsRegistry",
							"name": "_claimTopicsRegistry",
							"type": "address"
						}
					],
					"name": "setClaimTopicsRegistry",
					"outputs": [],
					"stateMutability": "nonpayable",
					"type": "function"
				},
				{
					"inputs": [
						{
							"internalType": "contract IIdentityRegistryStorage",
							"name": "_identityRegistryStorage",
							"type": "address"
						}
					],
					"name": "setIdentityRegistryStorage",
					"outputs": [],
					"stateMutability": "nonpayable",
					"type": "function"
				},
				{
					"inputs": [
						{
							"internalType": "bytes4",
							"name": "interfaceId",
							"type": "bytes4"
						}
					],
					"name": "supportsInterface",
					"outputs": [
						{
							"internalType": "bool",
							"name": "",
							"type": "bool"
						}
					],
					"stateMutability": "view",
					"type": "function"
				},
				{
					"inputs": [],
					"name": "topicsRegistry",
					"outputs": [
						{
							"internalType": "contract IClaimTopicsRegistry",
							"name": "",
							"type": "address"
						}
					],
					"stateMutability": "view",
					"type": "function"
				},
				{
					"inputs": [
						{
							"internalType": "address",
							"name": "_userAddress",
							"type": "address"
						},
						{
							"internalType": "uint16",
							"name": "_country",
							"type": "uint16"
						}
					],
					"name": "updateCountry",
					"outputs": [],
					"stateMutability": "nonpayable",
					"type": "function"
				},
				{
					"inputs": [
						{
							"internalType": "address",
							"name": "_userAddress",
							"type": "address"
						},
						{
							"internalType": "contract IIdentity",
							"name": "_identity",
							"type": "address"
						}
					],
					"name": "updateIdentity",
					"outputs": [],
					"stateMutability": "nonpayable",
					"type": "function"
				}
			],
			"devdoc": {
				"details": "This contract is used to manage identities in the ERC-3643 standard. It allows for the registration, updating and deletion of identities associated with user addresses. It also supports the management of claim topics and claim issuers.",
				"errors": {
					"AccessControlBadConfirmation()": [
						{
							"details": "The caller of a function is not the expected one. NOTE: Don't confuse with {AccessControlUnauthorizedAccount}."
						}
					],
					"AccessControlUnauthorizedAccount(address,bytes32)": [
						{
							"details": "The `account` is missing a role."
						}
					]
				},
				"events": {
					"RoleAdminChanged(bytes32,bytes32,bytes32)": {
						"details": "Emitted when `newAdminRole` is set as ``role``'s admin role, replacing `previousAdminRole` `DEFAULT_ADMIN_ROLE` is the starting admin for all roles, despite {RoleAdminChanged} not being emitted signaling this."
					},
					"RoleGranted(bytes32,address,address)": {
						"details": "Emitted when `account` is granted `role`. `sender` is the account that originated the contract call, an admin role bearer except when using {AccessControl-_setupRole}."
					},
					"RoleRevoked(bytes32,address,address)": {
						"details": "Emitted when `account` is revoked `role`. `sender` is the account that originated the contract call:   - if using `revokeRole`, it is the admin role bearer   - if using `renounceRole`, it is the role bearer (i.e. `account`)"
					}
				},
				"kind": "dev",
				"methods": {
					"batchRegisterIdentity(address[],address[],uint16[])": {
						"details": "Only an agent can register identities in batch.",
						"params": {
							"_countries": "The array of country codes.",
							"_identities": "The array of identities.",
							"_userAddresses": "The array of user addresses."
						}
					},
					"constructor": {
						"details": "Constructor of the IdentityRegistry contract.",
						"params": {
							"_claimIssuersRegistry": "The address of the claim issuers registry contract.",
							"_claimTopicsRegistry": "The address of the claim topics registry contract.",
							"_identityStorage": "The address of the identity registry storage contract."
						}
					},
					"contains(address)": {
						"params": {
							"_userAddress": "The address to check."
						},
						"returns": {
							"_0": "A boolean indicating if the address is in the registry."
						}
					},
					"deleteIdentity(address)": {
						"details": "Only an agent can delete an identity.",
						"params": {
							"_userAddress": "The address of the user."
						}
					},
					"getRoleAdmin(bytes32)": {
						"details": "Returns the admin role that controls `role`. See {grantRole} and {revokeRole}. To change a role's admin, use {_setRoleAdmin}."
					},
					"grantRole(bytes32,address)": {
						"details": "Grants `role` to `account`. If `account` had not been already granted `role`, emits a {RoleGranted} event. Requirements: - the caller must have ``role``'s admin role. May emit a {RoleGranted} event."
					},
					"hasRole(bytes32,address)": {
						"details": "Returns `true` if `account` has been granted `role`."
					},
					"identity(address)": {
						"params": {
							"_userAddress": "The address of the user."
						},
						"returns": {
							"_0": "The identity of the user."
						}
					},
					"identityStorage()": {
						"returns": {
							"_0": "The current identity storage."
						}
					},
					"investorCountry(address)": {
						"params": {
							"_userAddress": "The address of the investor."
						},
						"returns": {
							"_0": "The country of the investor."
						}
					},
					"isVerified(address)": {
						"params": {
							"_userAddress": "The address of the user to check."
						},
						"returns": {
							"_0": "A boolean indicating if the user is verified."
						}
					},
					"issuersRegistry()": {
						"returns": {
							"_0": "The current issuers registry."
						}
					},
					"registerIdentity(address,address,uint16)": {
						"details": "Only an agent can register an identity.",
						"params": {
							"_country": "The country code of the user.",
							"_identity": "The identity of the user.",
							"_userAddress": "The address of the user."
						}
					},
					"renounceRole(bytes32,address)": {
						"details": "Revokes `role` from the calling account. Roles are often managed via {grantRole} and {revokeRole}: this function's purpose is to provide a mechanism for accounts to lose their privileges if they are compromised (such as when a trusted device is misplaced). If the calling account had been revoked `role`, emits a {RoleRevoked} event. Requirements: - the caller must be `callerConfirmation`. May emit a {RoleRevoked} event."
					},
					"revokeRole(bytes32,address)": {
						"details": "Revokes `role` from `account`. If `account` had been granted `role`, emits a {RoleRevoked} event. Requirements: - the caller must have ``role``'s admin role. May emit a {RoleRevoked} event."
					},
					"setClaimIssuersRegistry(address)": {
						"details": "Only the owner can set the ClaimIssuersRegistry contract.",
						"params": {
							"_claimIssuersRegistry": "The address of the new ClaimIssuersRegistry contract."
						}
					},
					"setClaimTopicsRegistry(address)": {
						"details": "Only the owner can set the ClaimTopicsRegistry contract.",
						"params": {
							"_claimTopicsRegistry": "The address of the new ClaimTopicsRegistry contract."
						}
					},
					"setIdentityRegistryStorage(address)": {
						"details": "Only the owner can set the IdentityRegistryStorage contract.",
						"params": {
							"_identityRegistryStorage": "The address of the new IdentityRegistryStorage contract."
						}
					},
					"supportsInterface(bytes4)": {
						"details": "See {IERC165-supportsInterface}."
					},
					"topicsRegistry()": {
						"returns": {
							"_0": "The current topics registry."
						}
					},
					"updateCountry(address,uint16)": {
						"details": "Only an agent can update a country code.",
						"params": {
							"_country": "The new country code of the user.",
							"_userAddress": "The address of the user."
						}
					},
					"updateIdentity(address,address)": {
						"details": "Only an agent can update an identity.",
						"params": {
							"_identity": "The new identity of the user.",
							"_userAddress": "The address of the user."
						}
					}
				},
				"title": "ERC-3643 - IdentityRegistry",
				"version": 1
			},
			"evm": {
				"assembly": "    /* \"contracts/registry/IdentityRegistry.sol\":736:12974  contract IdentityRegistry is IIdentityRegistry, AccessControl {... */\n  mstore(0x40, 0x80)\n    /* \"contracts/registry/IdentityRegistry.sol\":1885:2739  constructor(... */\n  callvalue\n  dup1\n  iszero\n  tag_1\n  jumpi\n  0x00\n  dup1\n  revert\ntag_1:\n  pop\n  mload(0x40)\n  sub(codesize, bytecodeSize)\n  dup1\n  bytecodeSize\n  dup4\n  codecopy\n  dup2\n  dup2\n  add\n  0x40\n  mstore\n  dup2\n  add\n  swap1\n  tag_2\n  swap2\n  swap1\n  tag_3\n  jump\t// in\ntag_2:\n    /* \"contracts/registry/IdentityRegistry.sol\":2131:2132  0 */\n  0x00\n    /* \"contracts/registry/IdentityRegistry.sol\":2089:2133  address(_claimIssuersRegistry) != address(0) */\n  0xffffffffffffffffffffffffffffffffffffffff\n  and\n    /* \"contracts/registry/IdentityRegistry.sol\":2097:2118  _claimIssuersRegistry */\n  dup4\n    /* \"contracts/registry/IdentityRegistry.sol\":2089:2133  address(_claimIssuersRegistry) != address(0) */\n  0xffffffffffffffffffffffffffffffffffffffff\n  and\n  eq\n  iszero\n    /* \"contracts/registry/IdentityRegistry.sol\":2089:2196  address(_claimIssuersRegistry) != address(0) &&... */\n  dup1\n  iszero\n  tag_6\n  jumpi\n  pop\n    /* \"contracts/registry/IdentityRegistry.sol\":2194:2195  0 */\n  0x00\n    /* \"contracts/registry/IdentityRegistry.sol\":2153:2196  address(_claimTopicsRegistry) != address(0) */\n  0xffffffffffffffffffffffffffffffffffffffff\n  and\n    /* \"contracts/registry/IdentityRegistry.sol\":2161:2181  _claimTopicsRegistry */\n  dup3\n    /* \"contracts/registry/IdentityRegistry.sol\":2153:2196  address(_claimTopicsRegistry) != address(0) */\n  0xffffffffffffffffffffffffffffffffffffffff\n  and\n  eq\n  iszero\n    /* \"contracts/registry/IdentityRegistry.sol\":2089:2196  address(_claimIssuersRegistry) != address(0) &&... */\ntag_6:\n    /* \"contracts/registry/IdentityRegistry.sol\":2089:2255  address(_claimIssuersRegistry) != address(0) &&... */\n  dup1\n  iszero\n  tag_7\n  jumpi\n  pop\n    /* \"contracts/registry/IdentityRegistry.sol\":2253:2254  0 */\n  0x00\n    /* \"contracts/registry/IdentityRegistry.sol\":2216:2255  address(_identityStorage) != address(0) */\n  0xffffffffffffffffffffffffffffffffffffffff\n  and\n    /* \"contracts/registry/IdentityRegistry.sol\":2224:2240  _identityStorage */\n  dup2\n    /* \"contracts/registry/IdentityRegistry.sol\":2216:2255  address(_identityStorage) != address(0) */\n  0xffffffffffffffffffffffffffffffffffffffff\n  and\n  eq\n  iszero\n    /* \"contracts/registry/IdentityRegistry.sol\":2089:2255  address(_claimIssuersRegistry) != address(0) &&... */\ntag_7:\n    /* \"contracts/registry/IdentityRegistry.sol\":2068:2311  require(... */\n  tag_8\n  jumpi\n  mload(0x40)\n  0x08c379a000000000000000000000000000000000000000000000000000000000\n  dup2\n  mstore\n  0x04\n  add\n  tag_9\n  swap1\n  tag_10\n  jump\t// in\ntag_9:\n  mload(0x40)\n  dup1\n  swap2\n  sub\n  swap1\n  revert\ntag_8:\n    /* \"contracts/registry/IdentityRegistry.sol\":2321:2357  _grantRole(bytes32(0), _msgSender()) */\n  tag_11\n    /* \"contracts/registry/IdentityRegistry.sol\":2340:2341  0 */\n  0x00\n    /* \"contracts/registry/IdentityRegistry.sol\":2332:2342  bytes32(0) */\n  dup1\n  shl\n    /* \"contracts/registry/IdentityRegistry.sol\":2344:2356  _msgSender() */\n  tag_12\n    /* \"contracts/registry/IdentityRegistry.sol\":2344:2354  _msgSender */\n  shl(0x20, tag_13)\n    /* \"contracts/registry/IdentityRegistry.sol\":2344:2356  _msgSender() */\n  0x20\n  shr\n  jump\t// in\ntag_12:\n    /* \"contracts/registry/IdentityRegistry.sol\":2321:2331  _grantRole */\n  shl(0x20, tag_14)\n    /* \"contracts/registry/IdentityRegistry.sol\":2321:2357  _grantRole(bytes32(0), _msgSender()) */\n  0x20\n  shr\n  jump\t// in\ntag_11:\n  pop\n    /* \"contracts/registry/IdentityRegistry.sol\":2367:2403  _grantRole(OWNER_ROLE, _msgSender()) */\n  tag_15\n    /* \"contracts/registry/IdentityRegistry.sol\":1400:1466  0xb19546dff01e856fb3f010c267a7b1c60363cf8a4664e21cc89c26224620214e */\n  0xb19546dff01e856fb3f010c267a7b1c60363cf8a4664e21cc89c26224620214e\n    /* \"contracts/registry/IdentityRegistry.sol\":2378:2388  OWNER_ROLE */\n  0x00\n  shl\n    /* \"contracts/registry/IdentityRegistry.sol\":2390:2402  _msgSender() */\n  tag_16\n    /* \"contracts/registry/IdentityRegistry.sol\":2390:2400  _msgSender */\n  shl(0x20, tag_13)\n    /* \"contracts/registry/IdentityRegistry.sol\":2390:2402  _msgSender() */\n  0x20\n  shr\n  jump\t// in\ntag_16:\n    /* \"contracts/registry/IdentityRegistry.sol\":2367:2377  _grantRole */\n  shl(0x20, tag_14)\n    /* \"contracts/registry/IdentityRegistry.sol\":2367:2403  _grantRole(OWNER_ROLE, _msgSender()) */\n  0x20\n  shr\n  jump\t// in\ntag_15:\n  pop\n    /* \"contracts/registry/IdentityRegistry.sol\":2436:2456  _claimTopicsRegistry */\n  dup2\n    /* \"contracts/registry/IdentityRegistry.sol\":2413:2433  _tokenTopicsRegistry */\n  0x01\n  0x00\n    /* \"contracts/registry/IdentityRegistry.sol\":2413:2456  _tokenTopicsRegistry = _claimTopicsRegistry */\n  0x0100\n  exp\n  dup2\n  sload\n  dup2\n  0xffffffffffffffffffffffffffffffffffffffff\n  mul\n  not\n  and\n  swap1\n  dup4\n  0xffffffffffffffffffffffffffffffffffffffff\n  and\n  mul\n  or\n  swap1\n  sstore\n  pop\n    /* \"contracts/registry/IdentityRegistry.sol\":2490:2511  _claimIssuersRegistry */\n  dup3\n    /* \"contracts/registry/IdentityRegistry.sol\":2466:2487  _tokenIssuersRegistry */\n  0x02\n  0x00\n    /* \"contracts/registry/IdentityRegistry.sol\":2466:2511  _tokenIssuersRegistry = _claimIssuersRegistry */\n  0x0100\n  exp\n  dup2\n  sload\n  dup2\n  0xffffffffffffffffffffffffffffffffffffffff\n  mul\n  not\n  and\n  swap1\n  dup4\n  0xffffffffffffffffffffffffffffffffffffffff\n  and\n  mul\n  or\n  swap1\n  sstore\n  pop\n    /* \"contracts/registry/IdentityRegistry.sol\":2545:2561  _identityStorage */\n  dup1\n    /* \"contracts/registry/IdentityRegistry.sol\":2521:2542  _tokenIdentityStorage */\n  0x03\n  0x00\n    /* \"contracts/registry/IdentityRegistry.sol\":2521:2561  _tokenIdentityStorage = _identityStorage */\n  0x0100\n  exp\n  dup2\n  sload\n  dup2\n  0xffffffffffffffffffffffffffffffffffffffff\n  mul\n  not\n  and\n  swap1\n  dup4\n  0xffffffffffffffffffffffffffffffffffffffff\n  and\n  mul\n  or\n  swap1\n  sstore\n  pop\n    /* \"contracts/registry/IdentityRegistry.sol\":2599:2619  _claimTopicsRegistry */\n  dup2\n    /* \"contracts/registry/IdentityRegistry.sol\":2576:2620  ClaimTopicsRegistrySet(_claimTopicsRegistry) */\n  0xffffffffffffffffffffffffffffffffffffffff\n  and\n  0x7170bf15b246e880b2369cd7c67d057760d8a35149e8c64dde91efa22bcc76d0\n  mload(0x40)\n  mload(0x40)\n  dup1\n  swap2\n  sub\n  swap1\n  log2\n    /* \"contracts/registry/IdentityRegistry.sol\":2659:2680  _claimIssuersRegistry */\n  dup3\n    /* \"contracts/registry/IdentityRegistry.sol\":2635:2681  ClaimIssuersRegistrySet(_claimIssuersRegistry) */\n  0xffffffffffffffffffffffffffffffffffffffff\n  and\n  0x811d3016da8008875247af93af072ec7801e39d9f4c686fec82ab600d8e555e8\n  mload(0x40)\n  mload(0x40)\n  dup1\n  swap2\n  sub\n  swap1\n  log2\n    /* \"contracts/registry/IdentityRegistry.sol\":2715:2731  _identityStorage */\n  dup1\n    /* \"contracts/registry/IdentityRegistry.sol\":2696:2732  IdentityStorageSet(_identityStorage) */\n  0xffffffffffffffffffffffffffffffffffffffff\n  and\n  0x2fa8b95c1db7afe99e3398f3792f008135cedc1fa26b0bb2ecd2352cd166d53c\n  mload(0x40)\n  mload(0x40)\n  dup1\n  swap2\n  sub\n  swap1\n  log2\n    /* \"contracts/registry/IdentityRegistry.sol\":1885:2739  constructor(... */\n  pop\n  pop\n  pop\n    /* \"contracts/registry/IdentityRegistry.sol\":736:12974  contract IdentityRegistry is IIdentityRegistry, AccessControl {... */\n  jump(tag_17)\n    /* \"@openzeppelin/contracts/utils/Context.sol\":656:752  function _msgSender() internal view virtual returns (address) {... */\ntag_13:\n    /* \"@openzeppelin/contracts/utils/Context.sol\":709:716  address */\n  0x00\n    /* \"@openzeppelin/contracts/utils/Context.sol\":735:745  msg.sender */\n  caller\n    /* \"@openzeppelin/contracts/utils/Context.sol\":728:745  return msg.sender */\n  swap1\n  pop\n    /* \"@openzeppelin/contracts/utils/Context.sol\":656:752  function _msgSender() internal view virtual returns (address) {... */\n  swap1\n  jump\t// out\n    /* \"@openzeppelin/contracts/access/AccessControl.sol\":6179:6495  function _grantRole(bytes32 role, address account) internal virtual returns (bool) {... */\ntag_14:\n    /* \"@openzeppelin/contracts/access/AccessControl.sol\":6256:6260  bool */\n  0x00\n    /* \"@openzeppelin/contracts/access/AccessControl.sol\":6277:6299  hasRole(role, account) */\n  tag_20\n    /* \"@openzeppelin/contracts/access/AccessControl.sol\":6285:6289  role */\n  dup4\n    /* \"@openzeppelin/contracts/access/AccessControl.sol\":6291:6298  account */\n  dup4\n    /* \"@openzeppelin/contracts/access/AccessControl.sol\":6277:6284  hasRole */\n  shl(0x20, tag_21)\n    /* \"@openzeppelin/contracts/access/AccessControl.sol\":6277:6299  hasRole(role, account) */\n  0x20\n  shr\n  jump\t// in\ntag_20:\n    /* \"@openzeppelin/contracts/access/AccessControl.sol\":6272:6489  if (!hasRole(role, account)) {... */\n  tag_22\n  jumpi\n    /* \"@openzeppelin/contracts/access/AccessControl.sol\":6347:6351  true */\n  0x01\n    /* \"@openzeppelin/contracts/access/AccessControl.sol\":6315:6321  _roles */\n  0x00\n    /* \"@openzeppelin/contracts/access/AccessControl.sol\":6315:6327  _roles[role] */\n  dup1\n    /* \"@openzeppelin/contracts/access/AccessControl.sol\":6322:6326  role */\n  dup6\n    /* \"@openzeppelin/contracts/access/AccessControl.sol\":6315:6327  _roles[role] */\n  dup2\n  mstore\n  0x20\n  add\n  swap1\n  dup2\n  mstore\n  0x20\n  add\n  0x00\n  keccak256\n    /* \"@openzeppelin/contracts/access/AccessControl.sol\":6315:6335  _roles[role].hasRole */\n  0x00\n  add\n    /* \"@openzeppelin/contracts/access/AccessControl.sol\":6315:6344  _roles[role].hasRole[account] */\n  0x00\n    /* \"@openzeppelin/contracts/access/AccessControl.sol\":6336:6343  account */\n  dup5\n    /* \"@openzeppelin/contracts/access/AccessControl.sol\":6315:6344  _roles[role].hasRole[account] */\n  0xffffffffffffffffffffffffffffffffffffffff\n  and\n  0xffffffffffffffffffffffffffffffffffffffff\n  and\n  dup2\n  mstore\n  0x20\n  add\n  swap1\n  dup2\n  mstore\n  0x20\n  add\n  0x00\n  keccak256\n  0x00\n    /* \"@openzeppelin/contracts/access/AccessControl.sol\":6315:6351  _roles[role].hasRole[account] = true */\n  0x0100\n  exp\n  dup2\n  sload\n  dup2\n  0xff\n  mul\n  not\n  and\n  swap1\n  dup4\n  iszero\n  iszero\n  mul\n  or\n  swap1\n  sstore\n  pop\n    /* \"@openzeppelin/contracts/access/AccessControl.sol\":6397:6409  _msgSender() */\n  tag_23\n    /* \"@openzeppelin/contracts/access/AccessControl.sol\":6397:6407  _msgSender */\n  shl(0x20, tag_13)\n    /* \"@openzeppelin/contracts/access/AccessControl.sol\":6397:6409  _msgSender() */\n  0x20\n  shr\n  jump\t// in\ntag_23:\n    /* \"@openzeppelin/contracts/access/AccessControl.sol\":6370:6410  RoleGranted(role, account, _msgSender()) */\n  0xffffffffffffffffffffffffffffffffffffffff\n  and\n    /* \"@openzeppelin/contracts/access/AccessControl.sol\":6388:6395  account */\n  dup3\n    /* \"@openzeppelin/contracts/access/AccessControl.sol\":6370:6410  RoleGranted(role, account, _msgSender()) */\n  0xffffffffffffffffffffffffffffffffffffffff\n  and\n    /* \"@openzeppelin/contracts/access/AccessControl.sol\":6382:6386  role */\n  dup5\n    /* \"@openzeppelin/contracts/access/AccessControl.sol\":6370:6410  RoleGranted(role, account, _msgSender()) */\n  0x2f8788117e7eff1d82e926ec794901d17c78024a50270940304540a733656f0d\n  mload(0x40)\n  mload(0x40)\n  dup1\n  swap2\n  sub\n  swap1\n  log4\n    /* \"@openzeppelin/contracts/access/AccessControl.sol\":6431:6435  true */\n  0x01\n    /* \"@openzeppelin/contracts/access/AccessControl.sol\":6424:6435  return true */\n  swap1\n  pop\n  jump(tag_19)\n    /* \"@openzeppelin/contracts/access/AccessControl.sol\":6272:6489  if (!hasRole(role, account)) {... */\ntag_22:\n    /* \"@openzeppelin/contracts/access/AccessControl.sol\":6473:6478  false */\n  0x00\n    /* \"@openzeppelin/contracts/access/AccessControl.sol\":6466:6478  return false */\n  swap1\n  pop\n    /* \"@openzeppelin/contracts/access/AccessControl.sol\":6179:6495  function _grantRole(bytes32 role, address account) internal virtual returns (bool) {... */\ntag_19:\n  swap3\n  swap2\n  pop\n  pop\n  jump\t// out\n    /* \"@openzeppelin/contracts/access/AccessControl.sol\":2854:2990  function hasRole(bytes32 role, address account) public view virtual returns (bool) {... */\ntag_21:\n    /* \"@openzeppelin/contracts/access/AccessControl.sol\":2931:2935  bool */\n  0x00\n    /* \"@openzeppelin/contracts/access/AccessControl.sol\":2954:2960  _roles */\n  dup1\n    /* \"@openzeppelin/contracts/access/AccessControl.sol\":2954:2966  _roles[role] */\n  0x00\n    /* \"@openzeppelin/contracts/access/AccessControl.sol\":2961:2965  role */\n  dup5\n    /* \"@openzeppelin/contracts/access/AccessControl.sol\":2954:2966  _roles[role] */\n  dup2\n  mstore\n  0x20\n  add\n  swap1\n  dup2\n  mstore\n  0x20\n  add\n  0x00\n  keccak256\n    /* \"@openzeppelin/contracts/access/AccessControl.sol\":2954:2974  _roles[role].hasRole */\n  0x00\n  add\n    /* \"@openzeppelin/contracts/access/AccessControl.sol\":2954:2983  _roles[role].hasRole[account] */\n  0x00\n    /* \"@openzeppelin/contracts/access/AccessControl.sol\":2975:2982  account */\n  dup4\n    /* \"@openzeppelin/contracts/access/AccessControl.sol\":2954:2983  _roles[role].hasRole[account] */\n  0xffffffffffffffffffffffffffffffffffffffff\n  and\n  0xffffffffffffffffffffffffffffffffffffffff\n  and\n  dup2\n  mstore\n  0x20\n  add\n  swap1\n  dup2\n  mstore\n  0x20\n  add\n  0x00\n  keccak256\n  0x00\n  swap1\n  sload\n  swap1\n  0x0100\n  exp\n  swap1\n  div\n  0xff\n  and\n    /* \"@openzeppelin/contracts/access/AccessControl.sol\":2947:2983  return _roles[role].hasRole[account] */\n  swap1\n  pop\n    /* \"@openzeppelin/contracts/access/AccessControl.sol\":2854:2990  function hasRole(bytes32 role, address account) public view virtual returns (bool) {... */\n  swap3\n  swap2\n  pop\n  pop\n  jump\t// out\n    /* \"#utility.yul\":88:205   */\ntag_27:\n    /* \"#utility.yul\":197:198   */\n  0x00\n    /* \"#utility.yul\":194:195   */\n  dup1\n    /* \"#utility.yul\":187:199   */\n  revert\n    /* \"#utility.yul\":334:460   */\ntag_29:\n    /* \"#utility.yul\":371:378   */\n  0x00\n    /* \"#utility.yul\":411:453   */\n  0xffffffffffffffffffffffffffffffffffffffff\n    /* \"#utility.yul\":404:409   */\n  dup3\n    /* \"#utility.yul\":400:454   */\n  and\n    /* \"#utility.yul\":389:454   */\n  swap1\n  pop\n    /* \"#utility.yul\":334:460   */\n  swap2\n  swap1\n  pop\n  jump\t// out\n    /* \"#utility.yul\":466:562   */\ntag_30:\n    /* \"#utility.yul\":503:510   */\n  0x00\n    /* \"#utility.yul\":532:556   */\n  tag_49\n    /* \"#utility.yul\":550:555   */\n  dup3\n    /* \"#utility.yul\":532:556   */\n  tag_29\n  jump\t// in\ntag_49:\n    /* \"#utility.yul\":521:556   */\n  swap1\n  pop\n    /* \"#utility.yul\":466:562   */\n  swap2\n  swap1\n  pop\n  jump\t// out\n    /* \"#utility.yul\":568:694   */\ntag_31:\n    /* \"#utility.yul\":635:642   */\n  0x00\n    /* \"#utility.yul\":664:688   */\n  tag_51\n    /* \"#utility.yul\":682:687   */\n  dup3\n    /* \"#utility.yul\":664:688   */\n  tag_30\n  jump\t// in\ntag_51:\n    /* \"#utility.yul\":653:688   */\n  swap1\n  pop\n    /* \"#utility.yul\":568:694   */\n  swap2\n  swap1\n  pop\n  jump\t// out\n    /* \"#utility.yul\":700:882   */\ntag_32:\n    /* \"#utility.yul\":803:857   */\n  tag_53\n    /* \"#utility.yul\":851:856   */\n  dup2\n    /* \"#utility.yul\":803:857   */\n  tag_31\n  jump\t// in\ntag_53:\n    /* \"#utility.yul\":796:801   */\n  dup2\n    /* \"#utility.yul\":793:858   */\n  eq\n    /* \"#utility.yul\":783:876   */\n  tag_54\n  jumpi\n    /* \"#utility.yul\":872:873   */\n  0x00\n    /* \"#utility.yul\":869:870   */\n  dup1\n    /* \"#utility.yul\":862:874   */\n  revert\n    /* \"#utility.yul\":783:876   */\ntag_54:\n    /* \"#utility.yul\":700:882   */\n  pop\n  jump\t// out\n    /* \"#utility.yul\":888:1091   */\ntag_33:\n    /* \"#utility.yul\":975:980   */\n  0x00\n    /* \"#utility.yul\":1006:1012   */\n  dup2\n    /* \"#utility.yul\":1000:1013   */\n  mload\n    /* \"#utility.yul\":991:1013   */\n  swap1\n  pop\n    /* \"#utility.yul\":1022:1085   */\n  tag_56\n    /* \"#utility.yul\":1079:1084   */\n  dup2\n    /* \"#utility.yul\":1022:1085   */\n  tag_32\n  jump\t// in\ntag_56:\n    /* \"#utility.yul\":888:1091   */\n  swap3\n  swap2\n  pop\n  pop\n  jump\t// out\n    /* \"#utility.yul\":1097:1222   */\ntag_34:\n    /* \"#utility.yul\":1163:1170   */\n  0x00\n    /* \"#utility.yul\":1192:1216   */\n  tag_58\n    /* \"#utility.yul\":1210:1215   */\n  dup3\n    /* \"#utility.yul\":1192:1216   */\n  tag_30\n  jump\t// in\ntag_58:\n    /* \"#utility.yul\":1181:1216   */\n  swap1\n  pop\n    /* \"#utility.yul\":1097:1222   */\n  swap2\n  swap1\n  pop\n  jump\t// out\n    /* \"#utility.yul\":1228:1408   */\ntag_35:\n    /* \"#utility.yul\":1330:1383   */\n  tag_60\n    /* \"#utility.yul\":1377:1382   */\n  dup2\n    /* \"#utility.yul\":1330:1383   */\n  tag_34\n  jump\t// in\ntag_60:\n    /* \"#utility.yul\":1323:1328   */\n  dup2\n    /* \"#utility.yul\":1320:1384   */\n  eq\n    /* \"#utility.yul\":1310:1402   */\n  tag_61\n  jumpi\n    /* \"#utility.yul\":1398:1399   */\n  0x00\n    /* \"#utility.yul\":1395:1396   */\n  dup1\n    /* \"#utility.yul\":1388:1400   */\n  revert\n    /* \"#utility.yul\":1310:1402   */\ntag_61:\n    /* \"#utility.yul\":1228:1408   */\n  pop\n  jump\t// out\n    /* \"#utility.yul\":1414:1615   */\ntag_36:\n    /* \"#utility.yul\":1500:1505   */\n  0x00\n    /* \"#utility.yul\":1531:1537   */\n  dup2\n    /* \"#utility.yul\":1525:1538   */\n  mload\n    /* \"#utility.yul\":1516:1538   */\n  swap1\n  pop\n    /* \"#utility.yul\":1547:1609   */\n  tag_63\n    /* \"#utility.yul\":1603:1608   */\n  dup2\n    /* \"#utility.yul\":1547:1609   */\n  tag_35\n  jump\t// in\ntag_63:\n    /* \"#utility.yul\":1414:1615   */\n  swap3\n  swap2\n  pop\n  pop\n  jump\t// out\n    /* \"#utility.yul\":1621:1750   */\ntag_37:\n    /* \"#utility.yul\":1691:1698   */\n  0x00\n    /* \"#utility.yul\":1720:1744   */\n  tag_65\n    /* \"#utility.yul\":1738:1743   */\n  dup3\n    /* \"#utility.yul\":1720:1744   */\n  tag_30\n  jump\t// in\ntag_65:\n    /* \"#utility.yul\":1709:1744   */\n  swap1\n  pop\n    /* \"#utility.yul\":1621:1750   */\n  swap2\n  swap1\n  pop\n  jump\t// out\n    /* \"#utility.yul\":1756:1944   */\ntag_38:\n    /* \"#utility.yul\":1862:1919   */\n  tag_67\n    /* \"#utility.yul\":1913:1918   */\n  dup2\n    /* \"#utility.yul\":1862:1919   */\n  tag_37\n  jump\t// in\ntag_67:\n    /* \"#utility.yul\":1855:1860   */\n  dup2\n    /* \"#utility.yul\":1852:1920   */\n  eq\n    /* \"#utility.yul\":1842:1938   */\n  tag_68\n  jumpi\n    /* \"#utility.yul\":1934:1935   */\n  0x00\n    /* \"#utility.yul\":1931:1932   */\n  dup1\n    /* \"#utility.yul\":1924:1936   */\n  revert\n    /* \"#utility.yul\":1842:1938   */\ntag_68:\n    /* \"#utility.yul\":1756:1944   */\n  pop\n  jump\t// out\n    /* \"#utility.yul\":1950:2159   */\ntag_39:\n    /* \"#utility.yul\":2040:2045   */\n  0x00\n    /* \"#utility.yul\":2071:2077   */\n  dup2\n    /* \"#utility.yul\":2065:2078   */\n  mload\n    /* \"#utility.yul\":2056:2078   */\n  swap1\n  pop\n    /* \"#utility.yul\":2087:2153   */\n  tag_70\n    /* \"#utility.yul\":2147:2152   */\n  dup2\n    /* \"#utility.yul\":2087:2153   */\n  tag_38\n  jump\t// in\ntag_70:\n    /* \"#utility.yul\":1950:2159   */\n  swap3\n  swap2\n  pop\n  pop\n  jump\t// out\n    /* \"#utility.yul\":2165:3012   */\ntag_3:\n    /* \"#utility.yul\":2345:2351   */\n  0x00\n    /* \"#utility.yul\":2353:2359   */\n  dup1\n    /* \"#utility.yul\":2361:2367   */\n  0x00\n    /* \"#utility.yul\":2410:2412   */\n  0x60\n    /* \"#utility.yul\":2398:2407   */\n  dup5\n    /* \"#utility.yul\":2389:2396   */\n  dup7\n    /* \"#utility.yul\":2385:2408   */\n  sub\n    /* \"#utility.yul\":2381:2413   */\n  slt\n    /* \"#utility.yul\":2378:2497   */\n  iszero\n  tag_72\n  jumpi\n    /* \"#utility.yul\":2416:2495   */\n  tag_73\n  tag_27\n  jump\t// in\ntag_73:\n    /* \"#utility.yul\":2378:2497   */\ntag_72:\n    /* \"#utility.yul\":2536:2537   */\n  0x00\n    /* \"#utility.yul\":2561:2655   */\n  tag_74\n    /* \"#utility.yul\":2647:2654   */\n  dup7\n    /* \"#utility.yul\":2638:2644   */\n  dup3\n    /* \"#utility.yul\":2627:2636   */\n  dup8\n    /* \"#utility.yul\":2623:2645   */\n  add\n    /* \"#utility.yul\":2561:2655   */\n  tag_33\n  jump\t// in\ntag_74:\n    /* \"#utility.yul\":2551:2655   */\n  swap4\n  pop\n    /* \"#utility.yul\":2507:2665   */\n  pop\n    /* \"#utility.yul\":2704:2706   */\n  0x20\n    /* \"#utility.yul\":2730:2823   */\n  tag_75\n    /* \"#utility.yul\":2815:2822   */\n  dup7\n    /* \"#utility.yul\":2806:2812   */\n  dup3\n    /* \"#utility.yul\":2795:2804   */\n  dup8\n    /* \"#utility.yul\":2791:2813   */\n  add\n    /* \"#utility.yul\":2730:2823   */\n  tag_36\n  jump\t// in\ntag_75:\n    /* \"#utility.yul\":2720:2823   */\n  swap3\n  pop\n    /* \"#utility.yul\":2675:2833   */\n  pop\n    /* \"#utility.yul\":2872:2874   */\n  0x40\n    /* \"#utility.yul\":2898:2995   */\n  tag_76\n    /* \"#utility.yul\":2987:2994   */\n  dup7\n    /* \"#utility.yul\":2978:2984   */\n  dup3\n    /* \"#utility.yul\":2967:2976   */\n  dup8\n    /* \"#utility.yul\":2963:2985   */\n  add\n    /* \"#utility.yul\":2898:2995   */\n  tag_39\n  jump\t// in\ntag_76:\n    /* \"#utility.yul\":2888:2995   */\n  swap2\n  pop\n    /* \"#utility.yul\":2843:3005   */\n  pop\n    /* \"#utility.yul\":2165:3012   */\n  swap3\n  pop\n  swap3\n  pop\n  swap3\n  jump\t// out\n    /* \"#utility.yul\":3018:3187   */\ntag_40:\n    /* \"#utility.yul\":3102:3113   */\n  0x00\n    /* \"#utility.yul\":3136:3142   */\n  dup3\n    /* \"#utility.yul\":3131:3134   */\n  dup3\n    /* \"#utility.yul\":3124:3143   */\n  mstore\n    /* \"#utility.yul\":3176:3180   */\n  0x20\n    /* \"#utility.yul\":3171:3174   */\n  dup3\n    /* \"#utility.yul\":3167:3181   */\n  add\n    /* \"#utility.yul\":3152:3181   */\n  swap1\n  pop\n    /* \"#utility.yul\":3018:3187   */\n  swap3\n  swap2\n  pop\n  pop\n  jump\t// out\n    /* \"#utility.yul\":3193:3373   */\ntag_41:\n    /* \"#utility.yul\":3333:3365   */\n  0x4552432d333634333a20496e76616c6964207a65726f20616464726573730000\n    /* \"#utility.yul\":3329:3330   */\n  0x00\n    /* \"#utility.yul\":3321:3327   */\n  dup3\n    /* \"#utility.yul\":3317:3331   */\n  add\n    /* \"#utility.yul\":3310:3366   */\n  mstore\n    /* \"#utility.yul\":3193:3373   */\n  pop\n  jump\t// out\n    /* \"#utility.yul\":3379:3745   */\ntag_42:\n    /* \"#utility.yul\":3521:3524   */\n  0x00\n    /* \"#utility.yul\":3542:3609   */\n  tag_80\n    /* \"#utility.yul\":3606:3608   */\n  0x1e\n    /* \"#utility.yul\":3601:3604   */\n  dup4\n    /* \"#utility.yul\":3542:3609   */\n  tag_40\n  jump\t// in\ntag_80:\n    /* \"#utility.yul\":3535:3609   */\n  swap2\n  pop\n    /* \"#utility.yul\":3618:3711   */\n  tag_81\n    /* \"#utility.yul\":3707:3710   */\n  dup3\n    /* \"#utility.yul\":3618:3711   */\n  tag_41\n  jump\t// in\ntag_81:\n    /* \"#utility.yul\":3736:3738   */\n  0x20\n    /* \"#utility.yul\":3731:3734   */\n  dup3\n    /* \"#utility.yul\":3727:3739   */\n  add\n    /* \"#utility.yul\":3720:3739   */\n  swap1\n  pop\n    /* \"#utility.yul\":3379:3745   */\n  swap2\n  swap1\n  pop\n  jump\t// out\n    /* \"#utility.yul\":3751:4170   */\ntag_10:\n    /* \"#utility.yul\":3917:3921   */\n  0x00\n    /* \"#utility.yul\":3955:3957   */\n  0x20\n    /* \"#utility.yul\":3944:3953   */\n  dup3\n    /* \"#utility.yul\":3940:3958   */\n  add\n    /* \"#utility.yul\":3932:3958   */\n  swap1\n  pop\n    /* \"#utility.yul\":4004:4013   */\n  dup2\n    /* \"#utility.yul\":3998:4002   */\n  dup2\n    /* \"#utility.yul\":3994:4014   */\n  sub\n    /* \"#utility.yul\":3990:3991   */\n  0x00\n    /* \"#utility.yul\":3979:3988   */\n  dup4\n    /* \"#utility.yul\":3975:3992   */\n  add\n    /* \"#utility.yul\":3968:4015   */\n  mstore\n    /* \"#utility.yul\":4032:4163   */\n  tag_83\n    /* \"#utility.yul\":4158:4162   */\n  dup2\n    /* \"#utility.yul\":4032:4163   */\n  tag_42\n  jump\t// in\ntag_83:\n    /* \"#utility.yul\":4024:4163   */\n  swap1\n  pop\n    /* \"#utility.yul\":3751:4170   */\n  swap2\n  swap1\n  pop\n  jump\t// out\n    /* \"contracts/registry/IdentityRegistry.sol\":736:12974  contract IdentityRegistry is IIdentityRegistry, AccessControl {... */\ntag_17:\n  dataSize(sub_0)\n  dup1\n  dataOffset(sub_0)\n  0x00\n  codecopy\n  0x00\n  return\nstop\n\nsub_0: assembly {\n        /* \"contracts/registry/IdentityRegistry.sol\":736:12974  contract IdentityRegistry is IIdentityRegistry, AccessControl {... */\n      mstore(0x40, 0x80)\n      callvalue\n      dup1\n      iszero\n      tag_1\n      jumpi\n      0x00\n      dup1\n      revert\n    tag_1:\n      pop\n      jumpi(tag_2, lt(calldatasize, 0x04))\n      shr(0xe0, calldataload(0x00))\n      dup1\n      0x6bc72c90\n      gt\n      tag_27\n      jumpi\n      dup1\n      0xb4f3fcb7\n      gt\n      tag_28\n      jumpi\n      dup1\n      0xb4f3fcb7\n      eq\n      tag_21\n      jumpi\n      dup1\n      0xb9209e33\n      eq\n      tag_22\n      jumpi\n      dup1\n      0xd547741f\n      eq\n      tag_23\n      jumpi\n      dup1\n      0xe58378bb\n      eq\n      tag_24\n      jumpi\n      dup1\n      0xf0eb5e54\n      eq\n      tag_25\n      jumpi\n      dup1\n      0xf11abfd8\n      eq\n      tag_26\n      jumpi\n      jump(tag_2)\n    tag_28:\n      dup1\n      0x6bc72c90\n      eq\n      tag_15\n      jumpi\n      dup1\n      0x7e42683b\n      eq\n      tag_16\n      jumpi\n      dup1\n      0x8e098ca1\n      eq\n      tag_17\n      jumpi\n      dup1\n      0x91d14854\n      eq\n      tag_18\n      jumpi\n      dup1\n      0xa217fddf\n      eq\n      tag_19\n      jumpi\n      dup1\n      0xa8d29d1d\n      eq\n      tag_20\n      jumpi\n      jump(tag_2)\n    tag_27:\n      dup1\n      0x3b239a7f\n      gt\n      tag_29\n      jumpi\n      dup1\n      0x3b239a7f\n      eq\n      tag_9\n      jumpi\n      dup1\n      0x3b3e12f4\n      eq\n      tag_10\n      jumpi\n      dup1\n      0x454a03e0\n      eq\n      tag_11\n      jumpi\n      dup1\n      0x5dbe47e8\n      eq\n      tag_12\n      jumpi\n      dup1\n      0x653dc9f1\n      eq\n      tag_13\n      jumpi\n      dup1\n      0x670af6a9\n      eq\n      tag_14\n      jumpi\n      jump(tag_2)\n    tag_29:\n      dup1\n      0x01ffc9a7\n      eq\n      tag_3\n      jumpi\n      dup1\n      0x22459e18\n      eq\n      tag_4\n      jumpi\n      dup1\n      0x248a9ca3\n      eq\n      tag_5\n      jumpi\n      dup1\n      0x26d941ae\n      eq\n      tag_6\n      jumpi\n      dup1\n      0x2f2ff15d\n      eq\n      tag_7\n      jumpi\n      dup1\n      0x36568abe\n      eq\n      tag_8\n      jumpi\n    tag_2:\n      0x00\n      dup1\n      revert\n        /* \"@openzeppelin/contracts/access/AccessControl.sol\":2565:2767  function supportsInterface(bytes4 interfaceId) public view virtual override returns (bool) {... */\n    tag_3:\n      tag_30\n      0x04\n      dup1\n      calldatasize\n      sub\n      dup2\n      add\n      swap1\n      tag_31\n      swap2\n      swap1\n      tag_32\n      jump\t// in\n    tag_31:\n      tag_33\n      jump\t// in\n    tag_30:\n      mload(0x40)\n      tag_34\n      swap2\n      swap1\n      tag_35\n      jump\t// in\n    tag_34:\n      mload(0x40)\n      dup1\n      swap2\n      sub\n      swap1\n      return\n        /* \"contracts/registry/IdentityRegistry.sol\":1208:1319  bytes32 public constant AGENT_ROLE =... */\n    tag_4:\n      tag_36\n      tag_37\n      jump\t// in\n    tag_36:\n      mload(0x40)\n      tag_38\n      swap2\n      swap1\n      tag_39\n      jump\t// in\n    tag_38:\n      mload(0x40)\n      dup1\n      swap2\n      sub\n      swap1\n      return\n        /* \"@openzeppelin/contracts/access/AccessControl.sol\":3810:3930  function getRoleAdmin(bytes32 role) public view virtual returns (bytes32) {... */\n    tag_5:\n      tag_40\n      0x04\n      dup1\n      calldatasize\n      sub\n      dup2\n      add\n      swap1\n      tag_41\n      swap2\n      swap1\n      tag_42\n      jump\t// in\n    tag_41:\n      tag_43\n      jump\t// in\n    tag_40:\n      mload(0x40)\n      tag_44\n      swap2\n      swap1\n      tag_39\n      jump\t// in\n    tag_44:\n      mload(0x40)\n      dup1\n      swap2\n      sub\n      swap1\n      return\n        /* \"contracts/registry/IdentityRegistry.sol\":5935:6190  function setIdentityRegistryStorage(... */\n    tag_6:\n      tag_45\n      0x04\n      dup1\n      calldatasize\n      sub\n      dup2\n      add\n      swap1\n      tag_46\n      swap2\n      swap1\n      tag_47\n      jump\t// in\n    tag_46:\n      tag_48\n      jump\t// in\n    tag_45:\n      stop\n        /* \"@openzeppelin/contracts/access/AccessControl.sol\":4226:4362  function grantRole(bytes32 role, address account) public virtual onlyRole(getRoleAdmin(role)) {... */\n    tag_7:\n      tag_49\n      0x04\n      dup1\n      calldatasize\n      sub\n      dup2\n      add\n      swap1\n      tag_50\n      swap2\n      swap1\n      tag_51\n      jump\t// in\n    tag_50:\n      tag_52\n      jump\t// in\n    tag_49:\n      stop\n        /* \"@openzeppelin/contracts/access/AccessControl.sol\":5328:5573  function renounceRole(bytes32 role, address callerConfirmation) public virtual {... */\n    tag_8:\n      tag_53\n      0x04\n      dup1\n      calldatasize\n      sub\n      dup2\n      add\n      swap1\n      tag_54\n      swap2\n      swap1\n      tag_51\n      jump\t// in\n    tag_54:\n      tag_55\n      jump\t// in\n    tag_53:\n      stop\n        /* \"contracts/registry/IdentityRegistry.sol\":4946:5237  function updateCountry(... */\n    tag_9:\n      tag_56\n      0x04\n      dup1\n      calldatasize\n      sub\n      dup2\n      add\n      swap1\n      tag_57\n      swap2\n      swap1\n      tag_58\n      jump\t// in\n    tag_57:\n      tag_59\n      jump\t// in\n    tag_56:\n      stop\n        /* \"contracts/registry/IdentityRegistry.sol\":8906:9021  function topicsRegistry() external view returns (IClaimTopicsRegistry) {... */\n    tag_10:\n      tag_60\n      tag_61\n      jump\t// in\n    tag_60:\n      mload(0x40)\n      tag_62\n      swap2\n      swap1\n      tag_63\n      jump\t// in\n    tag_62:\n      mload(0x40)\n      dup1\n      swap2\n      sub\n      swap1\n      return\n        /* \"contracts/registry/IdentityRegistry.sol\":3025:3240  function registerIdentity(... */\n    tag_11:\n      tag_64\n      0x04\n      dup1\n      calldatasize\n      sub\n      dup2\n      add\n      swap1\n      tag_65\n      swap2\n      swap1\n      tag_66\n      jump\t// in\n    tag_65:\n      tag_67\n      jump\t// in\n    tag_64:\n      stop\n        /* \"contracts/registry/IdentityRegistry.sol\":9458:9611  function contains(address _userAddress) external view returns (bool) {... */\n    tag_12:\n      tag_68\n      0x04\n      dup1\n      calldatasize\n      sub\n      dup2\n      add\n      swap1\n      tag_69\n      swap2\n      swap1\n      tag_70\n      jump\t// in\n    tag_69:\n      tag_71\n      jump\t// in\n    tag_68:\n      mload(0x40)\n      tag_72\n      swap2\n      swap1\n      tag_35\n      jump\t// in\n    tag_72:\n      mload(0x40)\n      dup1\n      swap2\n      sub\n      swap1\n      return\n        /* \"contracts/registry/IdentityRegistry.sol\":3558:4153  function batchRegisterIdentity(... */\n    tag_13:\n      tag_73\n      0x04\n      dup1\n      calldatasize\n      sub\n      dup2\n      add\n      swap1\n      tag_74\n      swap2\n      swap1\n      tag_75\n      jump\t// in\n    tag_74:\n      tag_76\n      jump\t// in\n    tag_73:\n      stop\n        /* \"contracts/registry/IdentityRegistry.sol\":6409:6647  function setClaimTopicsRegistry(... */\n    tag_14:\n      tag_77\n      0x04\n      dup1\n      calldatasize\n      sub\n      dup2\n      add\n      swap1\n      tag_78\n      swap2\n      swap1\n      tag_79\n      jump\t// in\n    tag_78:\n      tag_80\n      jump\t// in\n    tag_77:\n      stop\n        /* \"contracts/registry/IdentityRegistry.sol\":6870:7115  function setClaimIssuersRegistry(... */\n    tag_15:\n      tag_81\n      0x04\n      dup1\n      calldatasize\n      sub\n      dup2\n      add\n      swap1\n      tag_82\n      swap2\n      swap1\n      tag_83\n      jump\t// in\n    tag_82:\n      tag_84\n      jump\t// in\n    tag_81:\n      stop\n        /* \"contracts/registry/IdentityRegistry.sol\":8429:8602  function investorCountry(... */\n    tag_16:\n      tag_85\n      0x04\n      dup1\n      calldatasize\n      sub\n      dup2\n      add\n      swap1\n      tag_86\n      swap2\n      swap1\n      tag_70\n      jump\t// in\n    tag_86:\n      tag_87\n      jump\t// in\n    tag_85:\n      mload(0x40)\n      tag_88\n      swap2\n      swap1\n      tag_89\n      jump\t// in\n    tag_88:\n      mload(0x40)\n      dup1\n      swap2\n      sub\n      swap1\n      return\n        /* \"contracts/registry/IdentityRegistry.sol\":4386:4703  function updateIdentity(... */\n    tag_17:\n      tag_90\n      0x04\n      dup1\n      calldatasize\n      sub\n      dup2\n      add\n      swap1\n      tag_91\n      swap2\n      swap1\n      tag_92\n      jump\t// in\n    tag_91:\n      tag_93\n      jump\t// in\n    tag_90:\n      stop\n        /* \"@openzeppelin/contracts/access/AccessControl.sol\":2854:2990  function hasRole(bytes32 role, address account) public view virtual returns (bool) {... */\n    tag_18:\n      tag_94\n      0x04\n      dup1\n      calldatasize\n      sub\n      dup2\n      add\n      swap1\n      tag_95\n      swap2\n      swap1\n      tag_51\n      jump\t// in\n    tag_95:\n      tag_96\n      jump\t// in\n    tag_94:\n      mload(0x40)\n      tag_97\n      swap2\n      swap1\n      tag_35\n      jump\t// in\n    tag_97:\n      mload(0x40)\n      dup1\n      swap2\n      sub\n      swap1\n      return\n        /* \"@openzeppelin/contracts/access/AccessControl.sol\":2187:2236  bytes32 public constant DEFAULT_ADMIN_ROLE = 0x00 */\n    tag_19:\n      tag_98\n      tag_99\n      jump\t// in\n    tag_98:\n      mload(0x40)\n      tag_100\n      swap2\n      swap1\n      tag_39\n      jump\t// in\n    tag_100:\n      mload(0x40)\n      dup1\n      swap2\n      sub\n      swap1\n      return\n        /* \"contracts/registry/IdentityRegistry.sol\":5415:5700  function deleteIdentity(... */\n    tag_20:\n      tag_101\n      0x04\n      dup1\n      calldatasize\n      sub\n      dup2\n      add\n      swap1\n      tag_102\n      swap2\n      swap1\n      tag_70\n      jump\t// in\n    tag_102:\n      tag_103\n      jump\t// in\n    tag_101:\n      stop\n        /* \"contracts/registry/IdentityRegistry.sol\":8696:8814  function issuersRegistry() external view returns (IClaimIssuersRegistry) {... */\n    tag_21:\n      tag_104\n      tag_105\n      jump\t// in\n    tag_104:\n      mload(0x40)\n      tag_106\n      swap2\n      swap1\n      tag_107\n      jump\t// in\n    tag_106:\n      mload(0x40)\n      dup1\n      swap2\n      sub\n      swap1\n      return\n        /* \"contracts/registry/IdentityRegistry.sol\":7348:8273  function isVerified(address _userAddress) external view returns (bool) {... */\n    tag_22:\n      tag_108\n      0x04\n      dup1\n      calldatasize\n      sub\n      dup2\n      add\n      swap1\n      tag_109\n      swap2\n      swap1\n      tag_70\n      jump\t// in\n    tag_109:\n      tag_110\n      jump\t// in\n    tag_108:\n      mload(0x40)\n      tag_111\n      swap2\n      swap1\n      tag_35\n      jump\t// in\n    tag_111:\n      mload(0x40)\n      dup1\n      swap2\n      sub\n      swap1\n      return\n        /* \"@openzeppelin/contracts/access/AccessControl.sol\":4642:4780  function revokeRole(bytes32 role, address account) public virtual onlyRole(getRoleAdmin(role)) {... */\n    tag_23:\n      tag_112\n      0x04\n      dup1\n      calldatasize\n      sub\n      dup2\n      add\n      swap1\n      tag_113\n      swap2\n      swap1\n      tag_51\n      jump\t// in\n    tag_113:\n      tag_114\n      jump\t// in\n    tag_112:\n      stop\n        /* \"contracts/registry/IdentityRegistry.sol\":1355:1466  bytes32 public constant OWNER_ROLE =... */\n    tag_24:\n      tag_115\n      tag_116\n      jump\t// in\n    tag_115:\n      mload(0x40)\n      tag_117\n      swap2\n      swap1\n      tag_39\n      jump\t// in\n    tag_117:\n      mload(0x40)\n      dup1\n      swap2\n      sub\n      swap1\n      return\n        /* \"contracts/registry/IdentityRegistry.sol\":9756:9902  function identity(address _userAddress) public view returns (IIdentity) {... */\n    tag_25:\n      tag_118\n      0x04\n      dup1\n      calldatasize\n      sub\n      dup2\n      add\n      swap1\n      tag_119\n      swap2\n      swap1\n      tag_70\n      jump\t// in\n    tag_119:\n      tag_120\n      jump\t// in\n    tag_118:\n      mload(0x40)\n      tag_121\n      swap2\n      swap1\n      tag_122\n      jump\t// in\n    tag_121:\n      mload(0x40)\n      dup1\n      swap2\n      sub\n      swap1\n      return\n        /* \"contracts/registry/IdentityRegistry.sol\":9115:9264  function identityStorage()... */\n    tag_26:\n      tag_123\n      tag_124\n      jump\t// in\n    tag_123:\n      mload(0x40)\n      tag_125\n      swap2\n      swap1\n      tag_126\n      jump\t// in\n    tag_125:\n      mload(0x40)\n      dup1\n      swap2\n      sub\n      swap1\n      return\n        /* \"@openzeppelin/contracts/access/AccessControl.sol\":2565:2767  function supportsInterface(bytes4 interfaceId) public view virtual override returns (bool) {... */\n    tag_33:\n        /* \"@openzeppelin/contracts/access/AccessControl.sol\":2650:2654  bool */\n      0x00\n        /* \"@openzeppelin/contracts/access/AccessControl.sol\":2688:2720  type(IAccessControl).interfaceId */\n      0x7965db0b00000000000000000000000000000000000000000000000000000000\n        /* \"@openzeppelin/contracts/access/AccessControl.sol\":2673:2720  interfaceId == type(IAccessControl).interfaceId */\n      not(0xffffffffffffffffffffffffffffffffffffffffffffffffffffffff)\n      and\n        /* \"@openzeppelin/contracts/access/AccessControl.sol\":2673:2684  interfaceId */\n      dup3\n        /* \"@openzeppelin/contracts/access/AccessControl.sol\":2673:2720  interfaceId == type(IAccessControl).interfaceId */\n      not(0xffffffffffffffffffffffffffffffffffffffffffffffffffffffff)\n      and\n      eq\n        /* \"@openzeppelin/contracts/access/AccessControl.sol\":2673:2760  interfaceId == type(IAccessControl).interfaceId || super.supportsInterface(interfaceId) */\n      dup1\n      tag_128\n      jumpi\n      pop\n        /* \"@openzeppelin/contracts/access/AccessControl.sol\":2724:2760  super.supportsInterface(interfaceId) */\n      tag_129\n        /* \"@openzeppelin/contracts/access/AccessControl.sol\":2748:2759  interfaceId */\n      dup3\n        /* \"@openzeppelin/contracts/access/AccessControl.sol\":2724:2747  super.supportsInterface */\n      tag_130\n        /* \"@openzeppelin/contracts/access/AccessControl.sol\":2724:2760  super.supportsInterface(interfaceId) */\n      jump\t// in\n    tag_129:\n        /* \"@openzeppelin/contracts/access/AccessControl.sol\":2673:2760  interfaceId == type(IAccessControl).interfaceId || super.supportsInterface(interfaceId) */\n    tag_128:\n        /* \"@openzeppelin/contracts/access/AccessControl.sol\":2666:2760  return interfaceId == type(IAccessControl).interfaceId || super.supportsInterface(interfaceId) */\n      swap1\n      pop\n        /* \"@openzeppelin/contracts/access/AccessControl.sol\":2565:2767  function supportsInterface(bytes4 interfaceId) public view virtual override returns (bool) {... */\n      swap2\n      swap1\n      pop\n      jump\t// out\n        /* \"contracts/registry/IdentityRegistry.sol\":1208:1319  bytes32 public constant AGENT_ROLE =... */\n    tag_37:\n        /* \"contracts/registry/IdentityRegistry.sol\":1253:1319  0xcab5a0bfe0b79d2c4b1c2e02599fa044d115b7511f9659307cb4276950967709 */\n      0xcab5a0bfe0b79d2c4b1c2e02599fa044d115b7511f9659307cb4276950967709\n        /* \"contracts/registry/IdentityRegistry.sol\":1208:1319  bytes32 public constant AGENT_ROLE =... */\n      0x00\n      shl\n      dup2\n      jump\t// out\n        /* \"@openzeppelin/contracts/access/AccessControl.sol\":3810:3930  function getRoleAdmin(bytes32 role) public view virtual returns (bytes32) {... */\n    tag_43:\n        /* \"@openzeppelin/contracts/access/AccessControl.sol\":3875:3882  bytes32 */\n      0x00\n        /* \"@openzeppelin/contracts/access/AccessControl.sol\":3901:3907  _roles */\n      dup1\n        /* \"@openzeppelin/contracts/access/AccessControl.sol\":3901:3913  _roles[role] */\n      0x00\n        /* \"@openzeppelin/contracts/access/AccessControl.sol\":3908:3912  role */\n      dup4\n        /* \"@openzeppelin/contracts/access/AccessControl.sol\":3901:3913  _roles[role] */\n      dup2\n      mstore\n      0x20\n      add\n      swap1\n      dup2\n      mstore\n      0x20\n      add\n      0x00\n      keccak256\n        /* \"@openzeppelin/contracts/access/AccessControl.sol\":3901:3923  _roles[role].adminRole */\n      0x01\n      add\n      sload\n        /* \"@openzeppelin/contracts/access/AccessControl.sol\":3894:3923  return _roles[role].adminRole */\n      swap1\n      pop\n        /* \"@openzeppelin/contracts/access/AccessControl.sol\":3810:3930  function getRoleAdmin(bytes32 role) public view virtual returns (bytes32) {... */\n      swap2\n      swap1\n      pop\n      jump\t// out\n        /* \"contracts/registry/IdentityRegistry.sol\":5935:6190  function setIdentityRegistryStorage(... */\n    tag_48:\n        /* \"contracts/registry/IdentityRegistry.sol\":1400:1466  0xb19546dff01e856fb3f010c267a7b1c60363cf8a4664e21cc89c26224620214e */\n      0xb19546dff01e856fb3f010c267a7b1c60363cf8a4664e21cc89c26224620214e\n        /* \"contracts/registry/IdentityRegistry.sol\":6054:6064  OWNER_ROLE */\n      0x00\n      shl\n        /* \"@openzeppelin/contracts/access/AccessControl.sol\":2464:2480  _checkRole(role) */\n      tag_133\n        /* \"@openzeppelin/contracts/access/AccessControl.sol\":2475:2479  role */\n      dup2\n        /* \"@openzeppelin/contracts/access/AccessControl.sol\":2464:2474  _checkRole */\n      tag_134\n        /* \"@openzeppelin/contracts/access/AccessControl.sol\":2464:2480  _checkRole(role) */\n      jump\t// in\n    tag_133:\n        /* \"contracts/registry/IdentityRegistry.sol\":6100:6124  _identityRegistryStorage */\n      dup2\n        /* \"contracts/registry/IdentityRegistry.sol\":6076:6097  _tokenIdentityStorage */\n      0x03\n      0x00\n        /* \"contracts/registry/IdentityRegistry.sol\":6076:6124  _tokenIdentityStorage = _identityRegistryStorage */\n      0x0100\n      exp\n      dup2\n      sload\n      dup2\n      0xffffffffffffffffffffffffffffffffffffffff\n      mul\n      not\n      and\n      swap1\n      dup4\n      0xffffffffffffffffffffffffffffffffffffffff\n      and\n      mul\n      or\n      swap1\n      sstore\n      pop\n        /* \"contracts/registry/IdentityRegistry.sol\":6158:6182  _identityRegistryStorage */\n      dup2\n        /* \"contracts/registry/IdentityRegistry.sol\":6139:6183  IdentityStorageSet(_identityRegistryStorage) */\n      0xffffffffffffffffffffffffffffffffffffffff\n      and\n      0x2fa8b95c1db7afe99e3398f3792f008135cedc1fa26b0bb2ecd2352cd166d53c\n      mload(0x40)\n      mload(0x40)\n      dup1\n      swap2\n      sub\n      swap1\n      log2\n        /* \"contracts/registry/IdentityRegistry.sol\":5935:6190  function setIdentityRegistryStorage(... */\n      pop\n      pop\n      jump\t// out\n        /* \"@openzeppelin/contracts/access/AccessControl.sol\":4226:4362  function grantRole(bytes32 role, address account) public virtual onlyRole(getRoleAdmin(role)) {... */\n    tag_52:\n        /* \"@openzeppelin/contracts/access/AccessControl.sol\":4300:4318  getRoleAdmin(role) */\n      tag_136\n        /* \"@openzeppelin/contracts/access/AccessControl.sol\":4313:4317  role */\n      dup3\n        /* \"@openzeppelin/contracts/access/AccessControl.sol\":4300:4312  getRoleAdmin */\n      tag_43\n        /* \"@openzeppelin/contracts/access/AccessControl.sol\":4300:4318  getRoleAdmin(role) */\n      jump\t// in\n    tag_136:\n        /* \"@openzeppelin/contracts/access/AccessControl.sol\":2464:2480  _checkRole(role) */\n      tag_138\n        /* \"@openzeppelin/contracts/access/AccessControl.sol\":2475:2479  role */\n      dup2\n        /* \"@openzeppelin/contracts/access/AccessControl.sol\":2464:2474  _checkRole */\n      tag_134\n        /* \"@openzeppelin/contracts/access/AccessControl.sol\":2464:2480  _checkRole(role) */\n      jump\t// in\n    tag_138:\n        /* \"@openzeppelin/contracts/access/AccessControl.sol\":4330:4355  _grantRole(role, account) */\n      tag_140\n        /* \"@openzeppelin/contracts/access/AccessControl.sol\":4341:4345  role */\n      dup4\n        /* \"@openzeppelin/contracts/access/AccessControl.sol\":4347:4354  account */\n      dup4\n        /* \"@openzeppelin/contracts/access/AccessControl.sol\":4330:4340  _grantRole */\n      tag_141\n        /* \"@openzeppelin/contracts/access/AccessControl.sol\":4330:4355  _grantRole(role, account) */\n      jump\t// in\n    tag_140:\n      pop\n        /* \"@openzeppelin/contracts/access/AccessControl.sol\":4226:4362  function grantRole(bytes32 role, address account) public virtual onlyRole(getRoleAdmin(role)) {... */\n      pop\n      pop\n      pop\n      jump\t// out\n        /* \"@openzeppelin/contracts/access/AccessControl.sol\":5328:5573  function renounceRole(bytes32 role, address callerConfirmation) public virtual {... */\n    tag_55:\n        /* \"@openzeppelin/contracts/access/AccessControl.sol\":5443:5455  _msgSender() */\n      tag_143\n        /* \"@openzeppelin/contracts/access/AccessControl.sol\":5443:5453  _msgSender */\n      tag_144\n        /* \"@openzeppelin/contracts/access/AccessControl.sol\":5443:5455  _msgSender() */\n      jump\t// in\n    tag_143:\n        /* \"@openzeppelin/contracts/access/AccessControl.sol\":5421:5455  callerConfirmation != _msgSender() */\n      0xffffffffffffffffffffffffffffffffffffffff\n      and\n        /* \"@openzeppelin/contracts/access/AccessControl.sol\":5421:5439  callerConfirmation */\n      dup2\n        /* \"@openzeppelin/contracts/access/AccessControl.sol\":5421:5455  callerConfirmation != _msgSender() */\n      0xffffffffffffffffffffffffffffffffffffffff\n      and\n      eq\n        /* \"@openzeppelin/contracts/access/AccessControl.sol\":5417:5519  if (callerConfirmation != _msgSender()) {... */\n      tag_145\n      jumpi\n        /* \"@openzeppelin/contracts/access/AccessControl.sol\":5478:5508  AccessControlBadConfirmation() */\n      mload(0x40)\n      0x6697b23200000000000000000000000000000000000000000000000000000000\n      dup2\n      mstore\n      0x04\n      add\n      mload(0x40)\n      dup1\n      swap2\n      sub\n      swap1\n      revert\n        /* \"@openzeppelin/contracts/access/AccessControl.sol\":5417:5519  if (callerConfirmation != _msgSender()) {... */\n    tag_145:\n        /* \"@openzeppelin/contracts/access/AccessControl.sol\":5529:5566  _revokeRole(role, callerConfirmation) */\n      tag_146\n        /* \"@openzeppelin/contracts/access/AccessControl.sol\":5541:5545  role */\n      dup3\n        /* \"@openzeppelin/contracts/access/AccessControl.sol\":5547:5565  callerConfirmation */\n      dup3\n        /* \"@openzeppelin/contracts/access/AccessControl.sol\":5529:5540  _revokeRole */\n      tag_147\n        /* \"@openzeppelin/contracts/access/AccessControl.sol\":5529:5566  _revokeRole(role, callerConfirmation) */\n      jump\t// in\n    tag_146:\n      pop\n        /* \"@openzeppelin/contracts/access/AccessControl.sol\":5328:5573  function renounceRole(bytes32 role, address callerConfirmation) public virtual {... */\n      pop\n      pop\n      jump\t// out\n        /* \"contracts/registry/IdentityRegistry.sol\":4946:5237  function updateCountry(... */\n    tag_59:\n        /* \"contracts/registry/IdentityRegistry.sol\":1253:1319  0xcab5a0bfe0b79d2c4b1c2e02599fa044d115b7511f9659307cb4276950967709 */\n      0xcab5a0bfe0b79d2c4b1c2e02599fa044d115b7511f9659307cb4276950967709\n        /* \"contracts/registry/IdentityRegistry.sol\":5048:5058  AGENT_ROLE */\n      0x00\n      shl\n        /* \"@openzeppelin/contracts/access/AccessControl.sol\":2464:2480  _checkRole(role) */\n      tag_149\n        /* \"@openzeppelin/contracts/access/AccessControl.sol\":2475:2479  role */\n      dup2\n        /* \"@openzeppelin/contracts/access/AccessControl.sol\":2464:2474  _checkRole */\n      tag_134\n        /* \"@openzeppelin/contracts/access/AccessControl.sol\":2464:2480  _checkRole(role) */\n      jump\t// in\n    tag_149:\n        /* \"contracts/registry/IdentityRegistry.sol\":5070:5091  _tokenIdentityStorage */\n      0x03\n      0x00\n      swap1\n      sload\n      swap1\n      0x0100\n      exp\n      swap1\n      div\n      0xffffffffffffffffffffffffffffffffffffffff\n      and\n        /* \"contracts/registry/IdentityRegistry.sol\":5070:5119  _tokenIdentityStorage.modifyStoredInvestorCountry */\n      0xffffffffffffffffffffffffffffffffffffffff\n      and\n      0x9f3418d5\n        /* \"contracts/registry/IdentityRegistry.sol\":5133:5145  _userAddress */\n      dup5\n        /* \"contracts/registry/IdentityRegistry.sol\":5159:5167  _country */\n      dup5\n        /* \"contracts/registry/IdentityRegistry.sol\":5070:5177  _tokenIdentityStorage.modifyStoredInvestorCountry(... */\n      mload(0x40)\n      dup4\n      0xffffffff\n      and\n      0xe0\n      shl\n      dup2\n      mstore\n      0x04\n      add\n      tag_151\n      swap3\n      swap2\n      swap1\n      tag_152\n      jump\t// in\n    tag_151:\n      0x00\n      mload(0x40)\n      dup1\n      dup4\n      sub\n      dup2\n      0x00\n      dup8\n      dup1\n      extcodesize\n      iszero\n      dup1\n      iszero\n      tag_153\n      jumpi\n      0x00\n      dup1\n      revert\n    tag_153:\n      pop\n      gas\n      call\n      iszero\n      dup1\n      iszero\n      tag_155\n      jumpi\n      returndatasize\n      0x00\n      dup1\n      returndatacopy\n      revert(0x00, returndatasize)\n    tag_155:\n      pop\n      pop\n      pop\n      pop\n        /* \"contracts/registry/IdentityRegistry.sol\":5221:5229  _country */\n      dup2\n        /* \"contracts/registry/IdentityRegistry.sol\":5192:5230  CountryUpdated(_userAddress, _country) */\n      0xffff\n      and\n        /* \"contracts/registry/IdentityRegistry.sol\":5207:5219  _userAddress */\n      dup4\n        /* \"contracts/registry/IdentityRegistry.sol\":5192:5230  CountryUpdated(_userAddress, _country) */\n      0xffffffffffffffffffffffffffffffffffffffff\n      and\n      0x04ed3b726495c2dca1ff1215d9ca54e1a4030abb5e82b0f6ce55702416cee853\n      mload(0x40)\n      mload(0x40)\n      dup1\n      swap2\n      sub\n      swap1\n      log3\n        /* \"contracts/registry/IdentityRegistry.sol\":4946:5237  function updateCountry(... */\n      pop\n      pop\n      pop\n      jump\t// out\n        /* \"contracts/registry/IdentityRegistry.sol\":8906:9021  function topicsRegistry() external view returns (IClaimTopicsRegistry) {... */\n    tag_61:\n        /* \"contracts/registry/IdentityRegistry.sol\":8955:8975  IClaimTopicsRegistry */\n      0x00\n        /* \"contracts/registry/IdentityRegistry.sol\":8994:9014  _tokenTopicsRegistry */\n      0x01\n      0x00\n      swap1\n      sload\n      swap1\n      0x0100\n      exp\n      swap1\n      div\n      0xffffffffffffffffffffffffffffffffffffffff\n      and\n        /* \"contracts/registry/IdentityRegistry.sol\":8987:9014  return _tokenTopicsRegistry */\n      swap1\n      pop\n        /* \"contracts/registry/IdentityRegistry.sol\":8906:9021  function topicsRegistry() external view returns (IClaimTopicsRegistry) {... */\n      swap1\n      jump\t// out\n        /* \"contracts/registry/IdentityRegistry.sol\":3025:3240  function registerIdentity(... */\n    tag_67:\n        /* \"contracts/registry/IdentityRegistry.sol\":1253:1319  0xcab5a0bfe0b79d2c4b1c2e02599fa044d115b7511f9659307cb4276950967709 */\n      0xcab5a0bfe0b79d2c4b1c2e02599fa044d115b7511f9659307cb4276950967709\n        /* \"contracts/registry/IdentityRegistry.sol\":3159:3169  AGENT_ROLE */\n      0x00\n      shl\n        /* \"@openzeppelin/contracts/access/AccessControl.sol\":2464:2480  _checkRole(role) */\n      tag_158\n        /* \"@openzeppelin/contracts/access/AccessControl.sol\":2475:2479  role */\n      dup2\n        /* \"@openzeppelin/contracts/access/AccessControl.sol\":2464:2474  _checkRole */\n      tag_134\n        /* \"@openzeppelin/contracts/access/AccessControl.sol\":2464:2480  _checkRole(role) */\n      jump\t// in\n    tag_158:\n        /* \"contracts/registry/IdentityRegistry.sol\":3181:3233  _registerIdentity(_userAddress, _identity, _country) */\n      tag_160\n        /* \"contracts/registry/IdentityRegistry.sol\":3199:3211  _userAddress */\n      dup5\n        /* \"contracts/registry/IdentityRegistry.sol\":3213:3222  _identity */\n      dup5\n        /* \"contracts/registry/IdentityRegistry.sol\":3224:3232  _country */\n      dup5\n        /* \"contracts/registry/IdentityRegistry.sol\":3181:3198  _registerIdentity */\n      tag_161\n        /* \"contracts/registry/IdentityRegistry.sol\":3181:3233  _registerIdentity(_userAddress, _identity, _country) */\n      jump\t// in\n    tag_160:\n        /* \"contracts/registry/IdentityRegistry.sol\":3025:3240  function registerIdentity(... */\n      pop\n      pop\n      pop\n      pop\n      jump\t// out\n        /* \"contracts/registry/IdentityRegistry.sol\":9458:9611  function contains(address _userAddress) external view returns (bool) {... */\n    tag_71:\n        /* \"contracts/registry/IdentityRegistry.sol\":9521:9525  bool */\n      0x00\n        /* \"contracts/registry/IdentityRegistry.sol\":9587:9588  0 */\n      dup1\n        /* \"contracts/registry/IdentityRegistry.sol\":9544:9589  address(identity(_userAddress)) == address(0) */\n      0xffffffffffffffffffffffffffffffffffffffff\n      and\n        /* \"contracts/registry/IdentityRegistry.sol\":9552:9574  identity(_userAddress) */\n      tag_163\n        /* \"contracts/registry/IdentityRegistry.sol\":9561:9573  _userAddress */\n      dup4\n        /* \"contracts/registry/IdentityRegistry.sol\":9552:9560  identity */\n      tag_120\n        /* \"contracts/registry/IdentityRegistry.sol\":9552:9574  identity(_userAddress) */\n      jump\t// in\n    tag_163:\n        /* \"contracts/registry/IdentityRegistry.sol\":9544:9589  address(identity(_userAddress)) == address(0) */\n      0xffffffffffffffffffffffffffffffffffffffff\n      and\n      eq\n        /* \"contracts/registry/IdentityRegistry.sol\":9544:9604  address(identity(_userAddress)) == address(0) ? false : true */\n      tag_164\n      jumpi\n        /* \"contracts/registry/IdentityRegistry.sol\":9600:9604  true */\n      0x01\n        /* \"contracts/registry/IdentityRegistry.sol\":9544:9604  address(identity(_userAddress)) == address(0) ? false : true */\n      jump(tag_165)\n    tag_164:\n        /* \"contracts/registry/IdentityRegistry.sol\":9592:9597  false */\n      0x00\n        /* \"contracts/registry/IdentityRegistry.sol\":9544:9604  address(identity(_userAddress)) == address(0) ? false : true */\n    tag_165:\n        /* \"contracts/registry/IdentityRegistry.sol\":9537:9604  return address(identity(_userAddress)) == address(0) ? false : true */\n      swap1\n      pop\n        /* \"contracts/registry/IdentityRegistry.sol\":9458:9611  function contains(address _userAddress) external view returns (bool) {... */\n      swap2\n      swap1\n      pop\n      jump\t// out\n        /* \"contracts/registry/IdentityRegistry.sol\":3558:4153  function batchRegisterIdentity(... */\n    tag_76:\n        /* \"contracts/registry/IdentityRegistry.sol\":1253:1319  0xcab5a0bfe0b79d2c4b1c2e02599fa044d115b7511f9659307cb4276950967709 */\n      0xcab5a0bfe0b79d2c4b1c2e02599fa044d115b7511f9659307cb4276950967709\n        /* \"contracts/registry/IdentityRegistry.sol\":3736:3746  AGENT_ROLE */\n      0x00\n      shl\n        /* \"@openzeppelin/contracts/access/AccessControl.sol\":2464:2480  _checkRole(role) */\n      tag_167\n        /* \"@openzeppelin/contracts/access/AccessControl.sol\":2475:2479  role */\n      dup2\n        /* \"@openzeppelin/contracts/access/AccessControl.sol\":2464:2474  _checkRole */\n      tag_134\n        /* \"@openzeppelin/contracts/access/AccessControl.sol\":2464:2480  _checkRole(role) */\n      jump\t// in\n    tag_167:\n        /* \"contracts/registry/IdentityRegistry.sol\":3758:3769  uint length */\n      0x00\n        /* \"contracts/registry/IdentityRegistry.sol\":3772:3786  _userAddresses */\n      dup8\n      dup8\n        /* \"contracts/registry/IdentityRegistry.sol\":3772:3793  _userAddresses.length */\n      swap1\n      pop\n        /* \"contracts/registry/IdentityRegistry.sol\":3758:3793  uint length = _userAddresses.length */\n      swap1\n      pop\n        /* \"contracts/registry/IdentityRegistry.sol\":3821:3832  _identities */\n      dup6\n      dup6\n        /* \"contracts/registry/IdentityRegistry.sol\":3821:3839  _identities.length */\n      swap1\n      pop\n        /* \"contracts/registry/IdentityRegistry.sol\":3811:3817  length */\n      dup2\n        /* \"contracts/registry/IdentityRegistry.sol\":3811:3839  length == _identities.length */\n      eq\n        /* \"contracts/registry/IdentityRegistry.sol\":3803:3873  require(length == _identities.length, \"ERC-3643: Array size mismatch\") */\n      tag_169\n      jumpi\n      mload(0x40)\n      0x08c379a000000000000000000000000000000000000000000000000000000000\n      dup2\n      mstore\n      0x04\n      add\n      tag_170\n      swap1\n      tag_171\n      jump\t// in\n    tag_170:\n      mload(0x40)\n      dup1\n      swap2\n      sub\n      swap1\n      revert\n    tag_169:\n        /* \"contracts/registry/IdentityRegistry.sol\":3901:3911  _countries */\n      dup4\n      dup4\n        /* \"contracts/registry/IdentityRegistry.sol\":3901:3918  _countries.length */\n      swap1\n      pop\n        /* \"contracts/registry/IdentityRegistry.sol\":3891:3897  length */\n      dup2\n        /* \"contracts/registry/IdentityRegistry.sol\":3891:3918  length == _countries.length */\n      eq\n        /* \"contracts/registry/IdentityRegistry.sol\":3883:3952  require(length == _countries.length, \"ERC-3643: Array size mismatch\") */\n      tag_172\n      jumpi\n      mload(0x40)\n      0x08c379a000000000000000000000000000000000000000000000000000000000\n      dup2\n      mstore\n      0x04\n      add\n      tag_173\n      swap1\n      tag_171\n      jump\t// in\n    tag_173:\n      mload(0x40)\n      dup1\n      swap2\n      sub\n      swap1\n      revert\n    tag_172:\n        /* \"contracts/registry/IdentityRegistry.sol\":3967:3976  uint256 i */\n      0x00\n        /* \"contracts/registry/IdentityRegistry.sol\":3962:4147  for (uint256 i = 0; i < length; ) {... */\n    tag_174:\n        /* \"contracts/registry/IdentityRegistry.sol\":3986:3992  length */\n      dup2\n        /* \"contracts/registry/IdentityRegistry.sol\":3982:3983  i */\n      dup2\n        /* \"contracts/registry/IdentityRegistry.sol\":3982:3992  i < length */\n      lt\n        /* \"contracts/registry/IdentityRegistry.sol\":3962:4147  for (uint256 i = 0; i < length; ) {... */\n      iszero\n      tag_175\n      jumpi\n        /* \"contracts/registry/IdentityRegistry.sol\":4010:4077  _registerIdentity(_userAddresses[i], _identities[i], _countries[i]) */\n      tag_177\n        /* \"contracts/registry/IdentityRegistry.sol\":4028:4042  _userAddresses */\n      dup10\n      dup10\n        /* \"contracts/registry/IdentityRegistry.sol\":4043:4044  i */\n      dup4\n        /* \"contracts/registry/IdentityRegistry.sol\":4028:4045  _userAddresses[i] */\n      dup2\n      dup2\n      lt\n      tag_178\n      jumpi\n      tag_179\n      tag_180\n      jump\t// in\n    tag_179:\n    tag_178:\n      swap1\n      pop\n      0x20\n      mul\n      add\n      0x20\n      dup2\n      add\n      swap1\n      tag_181\n      swap2\n      swap1\n      tag_70\n      jump\t// in\n    tag_181:\n        /* \"contracts/registry/IdentityRegistry.sol\":4047:4058  _identities */\n      dup9\n      dup9\n        /* \"contracts/registry/IdentityRegistry.sol\":4059:4060  i */\n      dup5\n        /* \"contracts/registry/IdentityRegistry.sol\":4047:4061  _identities[i] */\n      dup2\n      dup2\n      lt\n      tag_182\n      jumpi\n      tag_183\n      tag_180\n      jump\t// in\n    tag_183:\n    tag_182:\n      swap1\n      pop\n      0x20\n      mul\n      add\n      0x20\n      dup2\n      add\n      swap1\n      tag_184\n      swap2\n      swap1\n      tag_185\n      jump\t// in\n    tag_184:\n        /* \"contracts/registry/IdentityRegistry.sol\":4063:4073  _countries */\n      dup8\n      dup8\n        /* \"contracts/registry/IdentityRegistry.sol\":4074:4075  i */\n      dup6\n        /* \"contracts/registry/IdentityRegistry.sol\":4063:4076  _countries[i] */\n      dup2\n      dup2\n      lt\n      tag_186\n      jumpi\n      tag_187\n      tag_180\n      jump\t// in\n    tag_187:\n    tag_186:\n      swap1\n      pop\n      0x20\n      mul\n      add\n      0x20\n      dup2\n      add\n      swap1\n      tag_188\n      swap2\n      swap1\n      tag_189\n      jump\t// in\n    tag_188:\n        /* \"contracts/registry/IdentityRegistry.sol\":4010:4027  _registerIdentity */\n      tag_161\n        /* \"contracts/registry/IdentityRegistry.sol\":4010:4077  _registerIdentity(_userAddresses[i], _identities[i], _countries[i]) */\n      jump\t// in\n    tag_177:\n        /* \"contracts/registry/IdentityRegistry.sol\":4119:4122  ++i */\n      dup1\n      0x01\n      add\n      swap1\n      pop\n        /* \"contracts/registry/IdentityRegistry.sol\":3962:4147  for (uint256 i = 0; i < length; ) {... */\n      jump(tag_174)\n    tag_175:\n      pop\n        /* \"contracts/registry/IdentityRegistry.sol\":3748:4153  {... */\n      pop\n        /* \"contracts/registry/IdentityRegistry.sol\":3558:4153  function batchRegisterIdentity(... */\n      pop\n      pop\n      pop\n      pop\n      pop\n      pop\n      pop\n      jump\t// out\n        /* \"contracts/registry/IdentityRegistry.sol\":6409:6647  function setClaimTopicsRegistry(... */\n    tag_80:\n        /* \"contracts/registry/IdentityRegistry.sol\":1400:1466  0xb19546dff01e856fb3f010c267a7b1c60363cf8a4664e21cc89c26224620214e */\n      0xb19546dff01e856fb3f010c267a7b1c60363cf8a4664e21cc89c26224620214e\n        /* \"contracts/registry/IdentityRegistry.sol\":6516:6526  OWNER_ROLE */\n      0x00\n      shl\n        /* \"@openzeppelin/contracts/access/AccessControl.sol\":2464:2480  _checkRole(role) */\n      tag_191\n        /* \"@openzeppelin/contracts/access/AccessControl.sol\":2475:2479  role */\n      dup2\n        /* \"@openzeppelin/contracts/access/AccessControl.sol\":2464:2474  _checkRole */\n      tag_134\n        /* \"@openzeppelin/contracts/access/AccessControl.sol\":2464:2480  _checkRole(role) */\n      jump\t// in\n    tag_191:\n        /* \"contracts/registry/IdentityRegistry.sol\":6561:6581  _claimTopicsRegistry */\n      dup2\n        /* \"contracts/registry/IdentityRegistry.sol\":6538:6558  _tokenTopicsRegistry */\n      0x01\n      0x00\n        /* \"contracts/registry/IdentityRegistry.sol\":6538:6581  _tokenTopicsRegistry = _claimTopicsRegistry */\n      0x0100\n      exp\n      dup2\n      sload\n      dup2\n      0xffffffffffffffffffffffffffffffffffffffff\n      mul\n      not\n      and\n      swap1\n      dup4\n      0xffffffffffffffffffffffffffffffffffffffff\n      and\n      mul\n      or\n      swap1\n      sstore\n      pop\n        /* \"contracts/registry/IdentityRegistry.sol\":6619:6639  _claimTopicsRegistry */\n      dup2\n        /* \"contracts/registry/IdentityRegistry.sol\":6596:6640  ClaimTopicsRegistrySet(_claimTopicsRegistry) */\n      0xffffffffffffffffffffffffffffffffffffffff\n      and\n      0x7170bf15b246e880b2369cd7c67d057760d8a35149e8c64dde91efa22bcc76d0\n      mload(0x40)\n      mload(0x40)\n      dup1\n      swap2\n      sub\n      swap1\n      log2\n        /* \"contracts/registry/IdentityRegistry.sol\":6409:6647  function setClaimTopicsRegistry(... */\n      pop\n      pop\n      jump\t// out\n        /* \"contracts/registry/IdentityRegistry.sol\":6870:7115  function setClaimIssuersRegistry(... */\n    tag_84:\n        /* \"contracts/registry/IdentityRegistry.sol\":1400:1466  0xb19546dff01e856fb3f010c267a7b1c60363cf8a4664e21cc89c26224620214e */\n      0xb19546dff01e856fb3f010c267a7b1c60363cf8a4664e21cc89c26224620214e\n        /* \"contracts/registry/IdentityRegistry.sol\":6980:6990  OWNER_ROLE */\n      0x00\n      shl\n        /* \"@openzeppelin/contracts/access/AccessControl.sol\":2464:2480  _checkRole(role) */\n      tag_194\n        /* \"@openzeppelin/contracts/access/AccessControl.sol\":2475:2479  role */\n      dup2\n        /* \"@openzeppelin/contracts/access/AccessControl.sol\":2464:2474  _checkRole */\n      tag_134\n        /* \"@openzeppelin/contracts/access/AccessControl.sol\":2464:2480  _checkRole(role) */\n      jump\t// in\n    tag_194:\n        /* \"contracts/registry/IdentityRegistry.sol\":7026:7047  _claimIssuersRegistry */\n      dup2\n        /* \"contracts/registry/IdentityRegistry.sol\":7002:7023  _tokenIssuersRegistry */\n      0x02\n      0x00\n        /* \"contracts/registry/IdentityRegistry.sol\":7002:7047  _tokenIssuersRegistry = _claimIssuersRegistry */\n      0x0100\n      exp\n      dup2\n      sload\n      dup2\n      0xffffffffffffffffffffffffffffffffffffffff\n      mul\n      not\n      and\n      swap1\n      dup4\n      0xffffffffffffffffffffffffffffffffffffffff\n      and\n      mul\n      or\n      swap1\n      sstore\n      pop\n        /* \"contracts/registry/IdentityRegistry.sol\":7086:7107  _claimIssuersRegistry */\n      dup2\n        /* \"contracts/registry/IdentityRegistry.sol\":7062:7108  ClaimIssuersRegistrySet(_claimIssuersRegistry) */\n      0xffffffffffffffffffffffffffffffffffffffff\n      and\n      0x811d3016da8008875247af93af072ec7801e39d9f4c686fec82ab600d8e555e8\n      mload(0x40)\n      mload(0x40)\n      dup1\n      swap2\n      sub\n      swap1\n      log2\n        /* \"contracts/registry/IdentityRegistry.sol\":6870:7115  function setClaimIssuersRegistry(... */\n      pop\n      pop\n      jump\t// out\n        /* \"contracts/registry/IdentityRegistry.sol\":8429:8602  function investorCountry(... */\n    tag_87:\n        /* \"contracts/registry/IdentityRegistry.sol\":8513:8519  uint16 */\n      0x00\n        /* \"contracts/registry/IdentityRegistry.sol\":8538:8559  _tokenIdentityStorage */\n      0x03\n      0x00\n      swap1\n      sload\n      swap1\n      0x0100\n      exp\n      swap1\n      div\n      0xffffffffffffffffffffffffffffffffffffffff\n      and\n        /* \"contracts/registry/IdentityRegistry.sol\":8538:8581  _tokenIdentityStorage.storedInvestorCountry */\n      0xffffffffffffffffffffffffffffffffffffffff\n      and\n      0x727e13bc\n        /* \"contracts/registry/IdentityRegistry.sol\":8582:8594  _userAddress */\n      dup4\n        /* \"contracts/registry/IdentityRegistry.sol\":8538:8595  _tokenIdentityStorage.storedInvestorCountry(_userAddress) */\n      mload(0x40)\n      dup3\n      0xffffffff\n      and\n      0xe0\n      shl\n      dup2\n      mstore\n      0x04\n      add\n      tag_197\n      swap2\n      swap1\n      tag_198\n      jump\t// in\n    tag_197:\n      0x20\n      mload(0x40)\n      dup1\n      dup4\n      sub\n      dup2\n      dup7\n      gas\n      staticcall\n      iszero\n      dup1\n      iszero\n      tag_200\n      jumpi\n      returndatasize\n      0x00\n      dup1\n      returndatacopy\n      revert(0x00, returndatasize)\n    tag_200:\n      pop\n      pop\n      pop\n      pop\n      mload(0x40)\n      returndatasize\n      not(0x1f)\n      0x1f\n      dup3\n      add\n      and\n      dup3\n      add\n      dup1\n      0x40\n      mstore\n      pop\n      dup2\n      add\n      swap1\n      tag_201\n      swap2\n      swap1\n      tag_202\n      jump\t// in\n    tag_201:\n        /* \"contracts/registry/IdentityRegistry.sol\":8531:8595  return _tokenIdentityStorage.storedInvestorCountry(_userAddress) */\n      swap1\n      pop\n        /* \"contracts/registry/IdentityRegistry.sol\":8429:8602  function investorCountry(... */\n      swap2\n      swap1\n      pop\n      jump\t// out\n        /* \"contracts/registry/IdentityRegistry.sol\":4386:4703  function updateIdentity(... */\n    tag_93:\n        /* \"contracts/registry/IdentityRegistry.sol\":1253:1319  0xcab5a0bfe0b79d2c4b1c2e02599fa044d115b7511f9659307cb4276950967709 */\n      0xcab5a0bfe0b79d2c4b1c2e02599fa044d115b7511f9659307cb4276950967709\n        /* \"contracts/registry/IdentityRegistry.sol\":4493:4503  AGENT_ROLE */\n      0x00\n      shl\n        /* \"@openzeppelin/contracts/access/AccessControl.sol\":2464:2480  _checkRole(role) */\n      tag_204\n        /* \"@openzeppelin/contracts/access/AccessControl.sol\":2475:2479  role */\n      dup2\n        /* \"@openzeppelin/contracts/access/AccessControl.sol\":2464:2474  _checkRole */\n      tag_134\n        /* \"@openzeppelin/contracts/access/AccessControl.sol\":2464:2480  _checkRole(role) */\n      jump\t// in\n    tag_204:\n        /* \"contracts/registry/IdentityRegistry.sol\":4515:4536  IIdentity oldIdentity */\n      0x00\n        /* \"contracts/registry/IdentityRegistry.sol\":4539:4565  _getIdentity(_userAddress) */\n      tag_206\n        /* \"contracts/registry/IdentityRegistry.sol\":4552:4564  _userAddress */\n      dup5\n        /* \"contracts/registry/IdentityRegistry.sol\":4539:4551  _getIdentity */\n      tag_207\n        /* \"contracts/registry/IdentityRegistry.sol\":4539:4565  _getIdentity(_userAddress) */\n      jump\t// in\n    tag_206:\n        /* \"contracts/registry/IdentityRegistry.sol\":4515:4565  IIdentity oldIdentity = _getIdentity(_userAddress) */\n      swap1\n      pop\n        /* \"contracts/registry/IdentityRegistry.sol\":4575:4596  _tokenIdentityStorage */\n      0x03\n      0x00\n      swap1\n      sload\n      swap1\n      0x0100\n      exp\n      swap1\n      div\n      0xffffffffffffffffffffffffffffffffffffffff\n      and\n        /* \"contracts/registry/IdentityRegistry.sol\":4575:4617  _tokenIdentityStorage.modifyStoredIdentity */\n      0xffffffffffffffffffffffffffffffffffffffff\n      and\n      0xe805cf86\n        /* \"contracts/registry/IdentityRegistry.sol\":4618:4630  _userAddress */\n      dup6\n        /* \"contracts/registry/IdentityRegistry.sol\":4632:4641  _identity */\n      dup6\n        /* \"contracts/registry/IdentityRegistry.sol\":4575:4642  _tokenIdentityStorage.modifyStoredIdentity(_userAddress, _identity) */\n      mload(0x40)\n      dup4\n      0xffffffff\n      and\n      0xe0\n      shl\n      dup2\n      mstore\n      0x04\n      add\n      tag_208\n      swap3\n      swap2\n      swap1\n      tag_209\n      jump\t// in\n    tag_208:\n      0x00\n      mload(0x40)\n      dup1\n      dup4\n      sub\n      dup2\n      0x00\n      dup8\n      dup1\n      extcodesize\n      iszero\n      dup1\n      iszero\n      tag_210\n      jumpi\n      0x00\n      dup1\n      revert\n    tag_210:\n      pop\n      gas\n      call\n      iszero\n      dup1\n      iszero\n      tag_212\n      jumpi\n      returndatasize\n      0x00\n      dup1\n      returndatacopy\n      revert(0x00, returndatasize)\n    tag_212:\n      pop\n      pop\n      pop\n      pop\n        /* \"contracts/registry/IdentityRegistry.sol\":4686:4695  _identity */\n      dup3\n        /* \"contracts/registry/IdentityRegistry.sol\":4657:4696  IdentityUpdated(oldIdentity, _identity) */\n      0xffffffffffffffffffffffffffffffffffffffff\n      and\n        /* \"contracts/registry/IdentityRegistry.sol\":4673:4684  oldIdentity */\n      dup2\n        /* \"contracts/registry/IdentityRegistry.sol\":4657:4696  IdentityUpdated(oldIdentity, _identity) */\n      0xffffffffffffffffffffffffffffffffffffffff\n      and\n      0xe98082932c8056a0f514da9104e4a66bc2cbaef102ad59d90c4b24220ebf6010\n      mload(0x40)\n      mload(0x40)\n      dup1\n      swap2\n      sub\n      swap1\n      log3\n        /* \"contracts/registry/IdentityRegistry.sol\":4505:4703  {... */\n      pop\n        /* \"contracts/registry/IdentityRegistry.sol\":4386:4703  function updateIdentity(... */\n      pop\n      pop\n      pop\n      jump\t// out\n        /* \"@openzeppelin/contracts/access/AccessControl.sol\":2854:2990  function hasRole(bytes32 role, address account) public view virtual returns (bool) {... */\n    tag_96:\n        /* \"@openzeppelin/contracts/access/AccessControl.sol\":2931:2935  bool */\n      0x00\n        /* \"@openzeppelin/contracts/access/AccessControl.sol\":2954:2960  _roles */\n      dup1\n        /* \"@openzeppelin/contracts/access/AccessControl.sol\":2954:2966  _roles[role] */\n      0x00\n        /* \"@openzeppelin/contracts/access/AccessControl.sol\":2961:2965  role */\n      dup5\n        /* \"@openzeppelin/contracts/access/AccessControl.sol\":2954:2966  _roles[role] */\n      dup2\n      mstore\n      0x20\n      add\n      swap1\n      dup2\n      mstore\n      0x20\n      add\n      0x00\n      keccak256\n        /* \"@openzeppelin/contracts/access/AccessControl.sol\":2954:2974  _roles[role].hasRole */\n      0x00\n      add\n        /* \"@openzeppelin/contracts/access/AccessControl.sol\":2954:2983  _roles[role].hasRole[account] */\n      0x00\n        /* \"@openzeppelin/contracts/access/AccessControl.sol\":2975:2982  account */\n      dup4\n        /* \"@openzeppelin/contracts/access/AccessControl.sol\":2954:2983  _roles[role].hasRole[account] */\n      0xffffffffffffffffffffffffffffffffffffffff\n      and\n      0xffffffffffffffffffffffffffffffffffffffff\n      and\n      dup2\n      mstore\n      0x20\n      add\n      swap1\n      dup2\n      mstore\n      0x20\n      add\n      0x00\n      keccak256\n      0x00\n      swap1\n      sload\n      swap1\n      0x0100\n      exp\n      swap1\n      div\n      0xff\n      and\n        /* \"@openzeppelin/contracts/access/AccessControl.sol\":2947:2983  return _roles[role].hasRole[account] */\n      swap1\n      pop\n        /* \"@openzeppelin/contracts/access/AccessControl.sol\":2854:2990  function hasRole(bytes32 role, address account) public view virtual returns (bool) {... */\n      swap3\n      swap2\n      pop\n      pop\n      jump\t// out\n        /* \"@openzeppelin/contracts/access/AccessControl.sol\":2187:2236  bytes32 public constant DEFAULT_ADMIN_ROLE = 0x00 */\n    tag_99:\n        /* \"@openzeppelin/contracts/access/AccessControl.sol\":2232:2236  0x00 */\n      0x00\n        /* \"@openzeppelin/contracts/access/AccessControl.sol\":2187:2236  bytes32 public constant DEFAULT_ADMIN_ROLE = 0x00 */\n      dup1\n      shl\n      dup2\n      jump\t// out\n        /* \"contracts/registry/IdentityRegistry.sol\":5415:5700  function deleteIdentity(... */\n    tag_103:\n        /* \"contracts/registry/IdentityRegistry.sol\":1253:1319  0xcab5a0bfe0b79d2c4b1c2e02599fa044d115b7511f9659307cb4276950967709 */\n      0xcab5a0bfe0b79d2c4b1c2e02599fa044d115b7511f9659307cb4276950967709\n        /* \"contracts/registry/IdentityRegistry.sol\":5493:5503  AGENT_ROLE */\n      0x00\n      shl\n        /* \"@openzeppelin/contracts/access/AccessControl.sol\":2464:2480  _checkRole(role) */\n      tag_215\n        /* \"@openzeppelin/contracts/access/AccessControl.sol\":2475:2479  role */\n      dup2\n        /* \"@openzeppelin/contracts/access/AccessControl.sol\":2464:2474  _checkRole */\n      tag_134\n        /* \"@openzeppelin/contracts/access/AccessControl.sol\":2464:2480  _checkRole(role) */\n      jump\t// in\n    tag_215:\n        /* \"contracts/registry/IdentityRegistry.sol\":5515:5536  IIdentity oldIdentity */\n      0x00\n        /* \"contracts/registry/IdentityRegistry.sol\":5539:5565  _getIdentity(_userAddress) */\n      tag_217\n        /* \"contracts/registry/IdentityRegistry.sol\":5552:5564  _userAddress */\n      dup4\n        /* \"contracts/registry/IdentityRegistry.sol\":5539:5551  _getIdentity */\n      tag_207\n        /* \"contracts/registry/IdentityRegistry.sol\":5539:5565  _getIdentity(_userAddress) */\n      jump\t// in\n    tag_217:\n        /* \"contracts/registry/IdentityRegistry.sol\":5515:5565  IIdentity oldIdentity = _getIdentity(_userAddress) */\n      swap1\n      pop\n        /* \"contracts/registry/IdentityRegistry.sol\":5575:5596  _tokenIdentityStorage */\n      0x03\n      0x00\n      swap1\n      sload\n      swap1\n      0x0100\n      exp\n      swap1\n      div\n      0xffffffffffffffffffffffffffffffffffffffff\n      and\n        /* \"contracts/registry/IdentityRegistry.sol\":5575:5622  _tokenIdentityStorage.removeIdentityFromStorage */\n      0xffffffffffffffffffffffffffffffffffffffff\n      and\n      0xcf191bcd\n        /* \"contracts/registry/IdentityRegistry.sol\":5623:5635  _userAddress */\n      dup5\n        /* \"contracts/registry/IdentityRegistry.sol\":5575:5636  _tokenIdentityStorage.removeIdentityFromStorage(_userAddress) */\n      mload(0x40)\n      dup3\n      0xffffffff\n      and\n      0xe0\n      shl\n      dup2\n      mstore\n      0x04\n      add\n      tag_218\n      swap2\n      swap1\n      tag_198\n      jump\t// in\n    tag_218:\n      0x00\n      mload(0x40)\n      dup1\n      dup4\n      sub\n      dup2\n      0x00\n      dup8\n      dup1\n      extcodesize\n      iszero\n      dup1\n      iszero\n      tag_219\n      jumpi\n      0x00\n      dup1\n      revert\n    tag_219:\n      pop\n      gas\n      call\n      iszero\n      dup1\n      iszero\n      tag_221\n      jumpi\n      returndatasize\n      0x00\n      dup1\n      returndatacopy\n      revert(0x00, returndatasize)\n    tag_221:\n      pop\n      pop\n      pop\n      pop\n        /* \"contracts/registry/IdentityRegistry.sol\":5681:5692  oldIdentity */\n      dup1\n        /* \"contracts/registry/IdentityRegistry.sol\":5651:5693  IdentityRemoved(_userAddress, oldIdentity) */\n      0xffffffffffffffffffffffffffffffffffffffff\n      and\n        /* \"contracts/registry/IdentityRegistry.sol\":5667:5679  _userAddress */\n      dup4\n        /* \"contracts/registry/IdentityRegistry.sol\":5651:5693  IdentityRemoved(_userAddress, oldIdentity) */\n      0xffffffffffffffffffffffffffffffffffffffff\n      and\n      0x59d6590e225b81befe259af056324092801080acbb7feab310eb34678871f327\n      mload(0x40)\n      mload(0x40)\n      dup1\n      swap2\n      sub\n      swap1\n      log3\n        /* \"contracts/registry/IdentityRegistry.sol\":5505:5700  {... */\n      pop\n        /* \"contracts/registry/IdentityRegistry.sol\":5415:5700  function deleteIdentity(... */\n      pop\n      pop\n      jump\t// out\n        /* \"contracts/registry/IdentityRegistry.sol\":8696:8814  function issuersRegistry() external view returns (IClaimIssuersRegistry) {... */\n    tag_105:\n        /* \"contracts/registry/IdentityRegistry.sol\":8746:8767  IClaimIssuersRegistry */\n      0x00\n        /* \"contracts/registry/IdentityRegistry.sol\":8786:8807  _tokenIssuersRegistry */\n      0x02\n      0x00\n      swap1\n      sload\n      swap1\n      0x0100\n      exp\n      swap1\n      div\n      0xffffffffffffffffffffffffffffffffffffffff\n      and\n        /* \"contracts/registry/IdentityRegistry.sol\":8779:8807  return _tokenIssuersRegistry */\n      swap1\n      pop\n        /* \"contracts/registry/IdentityRegistry.sol\":8696:8814  function issuersRegistry() external view returns (IClaimIssuersRegistry) {... */\n      swap1\n      jump\t// out\n        /* \"contracts/registry/IdentityRegistry.sol\":7348:8273  function isVerified(address _userAddress) external view returns (bool) {... */\n    tag_110:\n        /* \"contracts/registry/IdentityRegistry.sol\":7413:7417  bool */\n      0x00\n        /* \"contracts/registry/IdentityRegistry.sol\":7492:7514  IIdentity userIdentity */\n      dup1\n        /* \"contracts/registry/IdentityRegistry.sol\":7517:7543  _getIdentity(_userAddress) */\n      tag_224\n        /* \"contracts/registry/IdentityRegistry.sol\":7530:7542  _userAddress */\n      dup4\n        /* \"contracts/registry/IdentityRegistry.sol\":7517:7529  _getIdentity */\n      tag_207\n        /* \"contracts/registry/IdentityRegistry.sol\":7517:7543  _getIdentity(_userAddress) */\n      jump\t// in\n    tag_224:\n        /* \"contracts/registry/IdentityRegistry.sol\":7492:7543  IIdentity userIdentity = _getIdentity(_userAddress) */\n      swap1\n      pop\n        /* \"contracts/registry/IdentityRegistry.sol\":7663:7664  0 */\n      0x00\n        /* \"contracts/registry/IdentityRegistry.sol\":7630:7665  address(userIdentity) == address(0) */\n      0xffffffffffffffffffffffffffffffffffffffff\n      and\n        /* \"contracts/registry/IdentityRegistry.sol\":7638:7650  userIdentity */\n      dup2\n        /* \"contracts/registry/IdentityRegistry.sol\":7630:7665  address(userIdentity) == address(0) */\n      0xffffffffffffffffffffffffffffffffffffffff\n      and\n      sub\n        /* \"contracts/registry/IdentityRegistry.sol\":7626:7679  if (address(userIdentity) == address(0)) return false */\n      tag_225\n      jumpi\n        /* \"contracts/registry/IdentityRegistry.sol\":7674:7679  false */\n      0x00\n        /* \"contracts/registry/IdentityRegistry.sol\":7667:7679  return false */\n      swap2\n      pop\n      pop\n      jump(tag_223)\n        /* \"contracts/registry/IdentityRegistry.sol\":7626:7679  if (address(userIdentity) == address(0)) return false */\n    tag_225:\n        /* \"contracts/registry/IdentityRegistry.sol\":7745:7773  uint256[] memory claimTopics */\n      0x00\n        /* \"contracts/registry/IdentityRegistry.sol\":7776:7796  _tokenTopicsRegistry */\n      0x01\n      0x00\n      swap1\n      sload\n      swap1\n      0x0100\n      exp\n      swap1\n      div\n      0xffffffffffffffffffffffffffffffffffffffff\n      and\n        /* \"contracts/registry/IdentityRegistry.sol\":7776:7811  _tokenTopicsRegistry.getClaimTopics */\n      0xffffffffffffffffffffffffffffffffffffffff\n      and\n      0xdf09d604\n        /* \"contracts/registry/IdentityRegistry.sol\":7776:7813  _tokenTopicsRegistry.getClaimTopics() */\n      mload(0x40)\n      dup2\n      0xffffffff\n      and\n      0xe0\n      shl\n      dup2\n      mstore\n      0x04\n      add\n      0x00\n      mload(0x40)\n      dup1\n      dup4\n      sub\n      dup2\n      dup7\n      gas\n      staticcall\n      iszero\n      dup1\n      iszero\n      tag_227\n      jumpi\n      returndatasize\n      0x00\n      dup1\n      returndatacopy\n      revert(0x00, returndatasize)\n    tag_227:\n      pop\n      pop\n      pop\n      pop\n      mload(0x40)\n      returndatasize\n      0x00\n      dup3\n      returndatacopy\n      returndatasize\n      not(0x1f)\n      0x1f\n      dup3\n      add\n      and\n      dup3\n      add\n      dup1\n      0x40\n      mstore\n      pop\n      dup2\n      add\n      swap1\n      tag_228\n      swap2\n      swap1\n      tag_229\n      jump\t// in\n    tag_228:\n        /* \"contracts/registry/IdentityRegistry.sol\":7745:7813  uint256[] memory claimTopics = _tokenTopicsRegistry.getClaimTopics() */\n      swap1\n      pop\n        /* \"contracts/registry/IdentityRegistry.sol\":7823:7845  uint claimTopicsLength */\n      0x00\n        /* \"contracts/registry/IdentityRegistry.sol\":7848:7859  claimTopics */\n      dup2\n        /* \"contracts/registry/IdentityRegistry.sol\":7848:7866  claimTopics.length */\n      mload\n        /* \"contracts/registry/IdentityRegistry.sol\":7823:7866  uint claimTopicsLength = claimTopics.length */\n      swap1\n      pop\n        /* \"contracts/registry/IdentityRegistry.sol\":7964:7965  0 */\n      0x00\n        /* \"contracts/registry/IdentityRegistry.sol\":7943:7960  claimTopicsLength */\n      dup2\n        /* \"contracts/registry/IdentityRegistry.sol\":7943:7965  claimTopicsLength == 0 */\n      sub\n        /* \"contracts/registry/IdentityRegistry.sol\":7939:7978  if (claimTopicsLength == 0) return true */\n      tag_230\n      jumpi\n        /* \"contracts/registry/IdentityRegistry.sol\":7974:7978  true */\n      0x01\n        /* \"contracts/registry/IdentityRegistry.sol\":7967:7978  return true */\n      swap4\n      pop\n      pop\n      pop\n      pop\n      jump(tag_223)\n        /* \"contracts/registry/IdentityRegistry.sol\":7939:7978  if (claimTopicsLength == 0) return true */\n    tag_230:\n        /* \"contracts/registry/IdentityRegistry.sol\":8041:8050  uint256 i */\n      0x00\n        /* \"contracts/registry/IdentityRegistry.sol\":8036:8203  for (uint256 i = 0; i < claimTopicsLength; i++) {... */\n    tag_231:\n        /* \"contracts/registry/IdentityRegistry.sol\":8060:8077  claimTopicsLength */\n      dup2\n        /* \"contracts/registry/IdentityRegistry.sol\":8056:8057  i */\n      dup2\n        /* \"contracts/registry/IdentityRegistry.sol\":8056:8077  i < claimTopicsLength */\n      lt\n        /* \"contracts/registry/IdentityRegistry.sol\":8036:8203  for (uint256 i = 0; i < claimTopicsLength; i++) {... */\n      iszero\n      tag_232\n      jumpi\n        /* \"contracts/registry/IdentityRegistry.sol\":8103:8146  _isClaimValid(userIdentity, claimTopics[i]) */\n      tag_234\n        /* \"contracts/registry/IdentityRegistry.sol\":8117:8129  userIdentity */\n      dup5\n        /* \"contracts/registry/IdentityRegistry.sol\":8131:8142  claimTopics */\n      dup5\n        /* \"contracts/registry/IdentityRegistry.sol\":8143:8144  i */\n      dup4\n        /* \"contracts/registry/IdentityRegistry.sol\":8131:8145  claimTopics[i] */\n      dup2\n      mload\n      dup2\n      lt\n      tag_235\n      jumpi\n      tag_236\n      tag_180\n      jump\t// in\n    tag_236:\n    tag_235:\n      0x20\n      mul\n      0x20\n      add\n      add\n      mload\n        /* \"contracts/registry/IdentityRegistry.sol\":8103:8116  _isClaimValid */\n      tag_237\n        /* \"contracts/registry/IdentityRegistry.sol\":8103:8146  _isClaimValid(userIdentity, claimTopics[i]) */\n      jump\t// in\n    tag_234:\n        /* \"contracts/registry/IdentityRegistry.sol\":8098:8193  if (!_isClaimValid(userIdentity, claimTopics[i])) {... */\n      tag_238\n      jumpi\n        /* \"contracts/registry/IdentityRegistry.sol\":8173:8178  false */\n      0x00\n        /* \"contracts/registry/IdentityRegistry.sol\":8166:8178  return false */\n      swap5\n      pop\n      pop\n      pop\n      pop\n      pop\n      jump(tag_223)\n        /* \"contracts/registry/IdentityRegistry.sol\":8098:8193  if (!_isClaimValid(userIdentity, claimTopics[i])) {... */\n    tag_238:\n        /* \"contracts/registry/IdentityRegistry.sol\":8079:8082  i++ */\n      dup1\n      dup1\n      tag_239\n      swap1\n      tag_240\n      jump\t// in\n    tag_239:\n      swap2\n      pop\n      pop\n        /* \"contracts/registry/IdentityRegistry.sol\":8036:8203  for (uint256 i = 0; i < claimTopicsLength; i++) {... */\n      jump(tag_231)\n    tag_232:\n      pop\n        /* \"contracts/registry/IdentityRegistry.sol\":8262:8266  true */\n      0x01\n        /* \"contracts/registry/IdentityRegistry.sol\":8255:8266  return true */\n      swap4\n      pop\n      pop\n      pop\n      pop\n        /* \"contracts/registry/IdentityRegistry.sol\":7348:8273  function isVerified(address _userAddress) external view returns (bool) {... */\n    tag_223:\n      swap2\n      swap1\n      pop\n      jump\t// out\n        /* \"@openzeppelin/contracts/access/AccessControl.sol\":4642:4780  function revokeRole(bytes32 role, address account) public virtual onlyRole(getRoleAdmin(role)) {... */\n    tag_114:\n        /* \"@openzeppelin/contracts/access/AccessControl.sol\":4717:4735  getRoleAdmin(role) */\n      tag_241\n        /* \"@openzeppelin/contracts/access/AccessControl.sol\":4730:4734  role */\n      dup3\n        /* \"@openzeppelin/contracts/access/AccessControl.sol\":4717:4729  getRoleAdmin */\n      tag_43\n        /* \"@openzeppelin/contracts/access/AccessControl.sol\":4717:4735  getRoleAdmin(role) */\n      jump\t// in\n    tag_241:\n        /* \"@openzeppelin/contracts/access/AccessControl.sol\":2464:2480  _checkRole(role) */\n      tag_243\n        /* \"@openzeppelin/contracts/access/AccessControl.sol\":2475:2479  role */\n      dup2\n        /* \"@openzeppelin/contracts/access/AccessControl.sol\":2464:2474  _checkRole */\n      tag_134\n        /* \"@openzeppelin/contracts/access/AccessControl.sol\":2464:2480  _checkRole(role) */\n      jump\t// in\n    tag_243:\n        /* \"@openzeppelin/contracts/access/AccessControl.sol\":4747:4773  _revokeRole(role, account) */\n      tag_245\n        /* \"@openzeppelin/contracts/access/AccessControl.sol\":4759:4763  role */\n      dup4\n        /* \"@openzeppelin/contracts/access/AccessControl.sol\":4765:4772  account */\n      dup4\n        /* \"@openzeppelin/contracts/access/AccessControl.sol\":4747:4758  _revokeRole */\n      tag_147\n        /* \"@openzeppelin/contracts/access/AccessControl.sol\":4747:4773  _revokeRole(role, account) */\n      jump\t// in\n    tag_245:\n      pop\n        /* \"@openzeppelin/contracts/access/AccessControl.sol\":4642:4780  function revokeRole(bytes32 role, address account) public virtual onlyRole(getRoleAdmin(role)) {... */\n      pop\n      pop\n      pop\n      jump\t// out\n        /* \"contracts/registry/IdentityRegistry.sol\":1355:1466  bytes32 public constant OWNER_ROLE =... */\n    tag_116:\n        /* \"contracts/registry/IdentityRegistry.sol\":1400:1466  0xb19546dff01e856fb3f010c267a7b1c60363cf8a4664e21cc89c26224620214e */\n      0xb19546dff01e856fb3f010c267a7b1c60363cf8a4664e21cc89c26224620214e\n        /* \"contracts/registry/IdentityRegistry.sol\":1355:1466  bytes32 public constant OWNER_ROLE =... */\n      0x00\n      shl\n      dup2\n      jump\t// out\n        /* \"contracts/registry/IdentityRegistry.sol\":9756:9902  function identity(address _userAddress) public view returns (IIdentity) {... */\n    tag_120:\n        /* \"contracts/registry/IdentityRegistry.sol\":9817:9826  IIdentity */\n      0x00\n        /* \"contracts/registry/IdentityRegistry.sol\":9845:9866  _tokenIdentityStorage */\n      0x03\n      0x00\n      swap1\n      sload\n      swap1\n      0x0100\n      exp\n      swap1\n      div\n      0xffffffffffffffffffffffffffffffffffffffff\n      and\n        /* \"contracts/registry/IdentityRegistry.sol\":9845:9881  _tokenIdentityStorage.storedIdentity */\n      0xffffffffffffffffffffffffffffffffffffffff\n      and\n      0x7988d3a5\n        /* \"contracts/registry/IdentityRegistry.sol\":9882:9894  _userAddress */\n      dup4\n        /* \"contracts/registry/IdentityRegistry.sol\":9845:9895  _tokenIdentityStorage.storedIdentity(_userAddress) */\n      mload(0x40)\n      dup3\n      0xffffffff\n      and\n      0xe0\n      shl\n      dup2\n      mstore\n      0x04\n      add\n      tag_247\n      swap2\n      swap1\n      tag_198\n      jump\t// in\n    tag_247:\n      0x20\n      mload(0x40)\n      dup1\n      dup4\n      sub\n      dup2\n      dup7\n      gas\n      staticcall\n      iszero\n      dup1\n      iszero\n      tag_249\n      jumpi\n      returndatasize\n      0x00\n      dup1\n      returndatacopy\n      revert(0x00, returndatasize)\n    tag_249:\n      pop\n      pop\n      pop\n      pop\n      mload(0x40)\n      returndatasize\n      not(0x1f)\n      0x1f\n      dup3\n      add\n      and\n      dup3\n      add\n      dup1\n      0x40\n      mstore\n      pop\n      dup2\n      add\n      swap1\n      tag_250\n      swap2\n      swap1\n      tag_251\n      jump\t// in\n    tag_250:\n        /* \"contracts/registry/IdentityRegistry.sol\":9838:9895  return _tokenIdentityStorage.storedIdentity(_userAddress) */\n      swap1\n      pop\n        /* \"contracts/registry/IdentityRegistry.sol\":9756:9902  function identity(address _userAddress) public view returns (IIdentity) {... */\n      swap2\n      swap1\n      pop\n      jump\t// out\n        /* \"contracts/registry/IdentityRegistry.sol\":9115:9264  function identityStorage()... */\n    tag_124:\n        /* \"contracts/registry/IdentityRegistry.sol\":9189:9213  IIdentityRegistryStorage */\n      0x00\n        /* \"contracts/registry/IdentityRegistry.sol\":9236:9257  _tokenIdentityStorage */\n      0x03\n      0x00\n      swap1\n      sload\n      swap1\n      0x0100\n      exp\n      swap1\n      div\n      0xffffffffffffffffffffffffffffffffffffffff\n      and\n        /* \"contracts/registry/IdentityRegistry.sol\":9229:9257  return _tokenIdentityStorage */\n      swap1\n      pop\n        /* \"contracts/registry/IdentityRegistry.sol\":9115:9264  function identityStorage()... */\n      swap1\n      jump\t// out\n        /* \"@openzeppelin/contracts/utils/introspection/ERC165.sol\":762:908  function supportsInterface(bytes4 interfaceId) public view virtual returns (bool) {... */\n    tag_130:\n        /* \"@openzeppelin/contracts/utils/introspection/ERC165.sol\":838:842  bool */\n      0x00\n        /* \"@openzeppelin/contracts/utils/introspection/ERC165.sol\":876:901  type(IERC165).interfaceId */\n      0x01ffc9a700000000000000000000000000000000000000000000000000000000\n        /* \"@openzeppelin/contracts/utils/introspection/ERC165.sol\":861:901  interfaceId == type(IERC165).interfaceId */\n      not(0xffffffffffffffffffffffffffffffffffffffffffffffffffffffff)\n      and\n        /* \"@openzeppelin/contracts/utils/introspection/ERC165.sol\":861:872  interfaceId */\n      dup3\n        /* \"@openzeppelin/contracts/utils/introspection/ERC165.sol\":861:901  interfaceId == type(IERC165).interfaceId */\n      not(0xffffffffffffffffffffffffffffffffffffffffffffffffffffffff)\n      and\n      eq\n        /* \"@openzeppelin/contracts/utils/introspection/ERC165.sol\":854:901  return interfaceId == type(IERC165).interfaceId */\n      swap1\n      pop\n        /* \"@openzeppelin/contracts/utils/introspection/ERC165.sol\":762:908  function supportsInterface(bytes4 interfaceId) public view virtual returns (bool) {... */\n      swap2\n      swap1\n      pop\n      jump\t// out\n        /* \"@openzeppelin/contracts/access/AccessControl.sol\":3199:3302  function _checkRole(bytes32 role) internal view virtual {... */\n    tag_134:\n        /* \"@openzeppelin/contracts/access/AccessControl.sol\":3265:3295  _checkRole(role, _msgSender()) */\n      tag_255\n        /* \"@openzeppelin/contracts/access/AccessControl.sol\":3276:3280  role */\n      dup2\n        /* \"@openzeppelin/contracts/access/AccessControl.sol\":3282:3294  _msgSender() */\n      tag_256\n        /* \"@openzeppelin/contracts/access/AccessControl.sol\":3282:3292  _msgSender */\n      tag_144\n        /* \"@openzeppelin/contracts/access/AccessControl.sol\":3282:3294  _msgSender() */\n      jump\t// in\n    tag_256:\n        /* \"@openzeppelin/contracts/access/AccessControl.sol\":3265:3275  _checkRole */\n      tag_257\n        /* \"@openzeppelin/contracts/access/AccessControl.sol\":3265:3295  _checkRole(role, _msgSender()) */\n      jump\t// in\n    tag_255:\n        /* \"@openzeppelin/contracts/access/AccessControl.sol\":3199:3302  function _checkRole(bytes32 role) internal view virtual {... */\n      pop\n      jump\t// out\n        /* \"@openzeppelin/contracts/access/AccessControl.sol\":6179:6495  function _grantRole(bytes32 role, address account) internal virtual returns (bool) {... */\n    tag_141:\n        /* \"@openzeppelin/contracts/access/AccessControl.sol\":6256:6260  bool */\n      0x00\n        /* \"@openzeppelin/contracts/access/AccessControl.sol\":6277:6299  hasRole(role, account) */\n      tag_259\n        /* \"@openzeppelin/contracts/access/AccessControl.sol\":6285:6289  role */\n      dup4\n        /* \"@openzeppelin/contracts/access/AccessControl.sol\":6291:6298  account */\n      dup4\n        /* \"@openzeppelin/contracts/access/AccessControl.sol\":6277:6284  hasRole */\n      tag_96\n        /* \"@openzeppelin/contracts/access/AccessControl.sol\":6277:6299  hasRole(role, account) */\n      jump\t// in\n    tag_259:\n        /* \"@openzeppelin/contracts/access/AccessControl.sol\":6272:6489  if (!hasRole(role, account)) {... */\n      tag_260\n      jumpi\n        /* \"@openzeppelin/contracts/access/AccessControl.sol\":6347:6351  true */\n      0x01\n        /* \"@openzeppelin/contracts/access/AccessControl.sol\":6315:6321  _roles */\n      0x00\n        /* \"@openzeppelin/contracts/access/AccessControl.sol\":6315:6327  _roles[role] */\n      dup1\n        /* \"@openzeppelin/contracts/access/AccessControl.sol\":6322:6326  role */\n      dup6\n        /* \"@openzeppelin/contracts/access/AccessControl.sol\":6315:6327  _roles[role] */\n      dup2\n      mstore\n      0x20\n      add\n      swap1\n      dup2\n      mstore\n      0x20\n      add\n      0x00\n      keccak256\n        /* \"@openzeppelin/contracts/access/AccessControl.sol\":6315:6335  _roles[role].hasRole */\n      0x00\n      add\n        /* \"@openzeppelin/contracts/access/AccessControl.sol\":6315:6344  _roles[role].hasRole[account] */\n      0x00\n        /* \"@openzeppelin/contracts/access/AccessControl.sol\":6336:6343  account */\n      dup5\n        /* \"@openzeppelin/contracts/access/AccessControl.sol\":6315:6344  _roles[role].hasRole[account] */\n      0xffffffffffffffffffffffffffffffffffffffff\n      and\n      0xffffffffffffffffffffffffffffffffffffffff\n      and\n      dup2\n      mstore\n      0x20\n      add\n      swap1\n      dup2\n      mstore\n      0x20\n      add\n      0x00\n      keccak256\n      0x00\n        /* \"@openzeppelin/contracts/access/AccessControl.sol\":6315:6351  _roles[role].hasRole[account] = true */\n      0x0100\n      exp\n      dup2\n      sload\n      dup2\n      0xff\n      mul\n      not\n      and\n      swap1\n      dup4\n      iszero\n      iszero\n      mul\n      or\n      swap1\n      sstore\n      pop\n        /* \"@openzeppelin/contracts/access/AccessControl.sol\":6397:6409  _msgSender() */\n      tag_261\n        /* \"@openzeppelin/contracts/access/AccessControl.sol\":6397:6407  _msgSender */\n      tag_144\n        /* \"@openzeppelin/contracts/access/AccessControl.sol\":6397:6409  _msgSender() */\n      jump\t// in\n    tag_261:\n        /* \"@openzeppelin/contracts/access/AccessControl.sol\":6370:6410  RoleGranted(role, account, _msgSender()) */\n      0xffffffffffffffffffffffffffffffffffffffff\n      and\n        /* \"@openzeppelin/contracts/access/AccessControl.sol\":6388:6395  account */\n      dup3\n        /* \"@openzeppelin/contracts/access/AccessControl.sol\":6370:6410  RoleGranted(role, account, _msgSender()) */\n      0xffffffffffffffffffffffffffffffffffffffff\n      and\n        /* \"@openzeppelin/contracts/access/AccessControl.sol\":6382:6386  role */\n      dup5\n        /* \"@openzeppelin/contracts/access/AccessControl.sol\":6370:6410  RoleGranted(role, account, _msgSender()) */\n      0x2f8788117e7eff1d82e926ec794901d17c78024a50270940304540a733656f0d\n      mload(0x40)\n      mload(0x40)\n      dup1\n      swap2\n      sub\n      swap1\n      log4\n        /* \"@openzeppelin/contracts/access/AccessControl.sol\":6431:6435  true */\n      0x01\n        /* \"@openzeppelin/contracts/access/AccessControl.sol\":6424:6435  return true */\n      swap1\n      pop\n      jump(tag_258)\n        /* \"@openzeppelin/contracts/access/AccessControl.sol\":6272:6489  if (!hasRole(role, account)) {... */\n    tag_260:\n        /* \"@openzeppelin/contracts/access/AccessControl.sol\":6473:6478  false */\n      0x00\n        /* \"@openzeppelin/contracts/access/AccessControl.sol\":6466:6478  return false */\n      swap1\n      pop\n        /* \"@openzeppelin/contracts/access/AccessControl.sol\":6179:6495  function _grantRole(bytes32 role, address account) internal virtual returns (bool) {... */\n    tag_258:\n      swap3\n      swap2\n      pop\n      pop\n      jump\t// out\n        /* \"@openzeppelin/contracts/utils/Context.sol\":656:752  function _msgSender() internal view virtual returns (address) {... */\n    tag_144:\n        /* \"@openzeppelin/contracts/utils/Context.sol\":709:716  address */\n      0x00\n        /* \"@openzeppelin/contracts/utils/Context.sol\":735:745  msg.sender */\n      caller\n        /* \"@openzeppelin/contracts/utils/Context.sol\":728:745  return msg.sender */\n      swap1\n      pop\n        /* \"@openzeppelin/contracts/utils/Context.sol\":656:752  function _msgSender() internal view virtual returns (address) {... */\n      swap1\n      jump\t// out\n        /* \"@openzeppelin/contracts/access/AccessControl.sol\":6730:7047  function _revokeRole(bytes32 role, address account) internal virtual returns (bool) {... */\n    tag_147:\n        /* \"@openzeppelin/contracts/access/AccessControl.sol\":6808:6812  bool */\n      0x00\n        /* \"@openzeppelin/contracts/access/AccessControl.sol\":6828:6850  hasRole(role, account) */\n      tag_265\n        /* \"@openzeppelin/contracts/access/AccessControl.sol\":6836:6840  role */\n      dup4\n        /* \"@openzeppelin/contracts/access/AccessControl.sol\":6842:6849  account */\n      dup4\n        /* \"@openzeppelin/contracts/access/AccessControl.sol\":6828:6835  hasRole */\n      tag_96\n        /* \"@openzeppelin/contracts/access/AccessControl.sol\":6828:6850  hasRole(role, account) */\n      jump\t// in\n    tag_265:\n        /* \"@openzeppelin/contracts/access/AccessControl.sol\":6824:7041  if (hasRole(role, account)) {... */\n      iszero\n      tag_266\n      jumpi\n        /* \"@openzeppelin/contracts/access/AccessControl.sol\":6898:6903  false */\n      0x00\n        /* \"@openzeppelin/contracts/access/AccessControl.sol\":6866:6872  _roles */\n      dup1\n        /* \"@openzeppelin/contracts/access/AccessControl.sol\":6866:6878  _roles[role] */\n      0x00\n        /* \"@openzeppelin/contracts/access/AccessControl.sol\":6873:6877  role */\n      dup6\n        /* \"@openzeppelin/contracts/access/AccessControl.sol\":6866:6878  _roles[role] */\n      dup2\n      mstore\n      0x20\n      add\n      swap1\n      dup2\n      mstore\n      0x20\n      add\n      0x00\n      keccak256\n        /* \"@openzeppelin/contracts/access/AccessControl.sol\":6866:6886  _roles[role].hasRole */\n      0x00\n      add\n        /* \"@openzeppelin/contracts/access/AccessControl.sol\":6866:6895  _roles[role].hasRole[account] */\n      0x00\n        /* \"@openzeppelin/contracts/access/AccessControl.sol\":6887:6894  account */\n      dup5\n        /* \"@openzeppelin/contracts/access/AccessControl.sol\":6866:6895  _roles[role].hasRole[account] */\n      0xffffffffffffffffffffffffffffffffffffffff\n      and\n      0xffffffffffffffffffffffffffffffffffffffff\n      and\n      dup2\n      mstore\n      0x20\n      add\n      swap1\n      dup2\n      mstore\n      0x20\n      add\n      0x00\n      keccak256\n      0x00\n        /* \"@openzeppelin/contracts/access/AccessControl.sol\":6866:6903  _roles[role].hasRole[account] = false */\n      0x0100\n      exp\n      dup2\n      sload\n      dup2\n      0xff\n      mul\n      not\n      and\n      swap1\n      dup4\n      iszero\n      iszero\n      mul\n      or\n      swap1\n      sstore\n      pop\n        /* \"@openzeppelin/contracts/access/AccessControl.sol\":6949:6961  _msgSender() */\n      tag_267\n        /* \"@openzeppelin/contracts/access/AccessControl.sol\":6949:6959  _msgSender */\n      tag_144\n        /* \"@openzeppelin/contracts/access/AccessControl.sol\":6949:6961  _msgSender() */\n      jump\t// in\n    tag_267:\n        /* \"@openzeppelin/contracts/access/AccessControl.sol\":6922:6962  RoleRevoked(role, account, _msgSender()) */\n      0xffffffffffffffffffffffffffffffffffffffff\n      and\n        /* \"@openzeppelin/contracts/access/AccessControl.sol\":6940:6947  account */\n      dup3\n        /* \"@openzeppelin/contracts/access/AccessControl.sol\":6922:6962  RoleRevoked(role, account, _msgSender()) */\n      0xffffffffffffffffffffffffffffffffffffffff\n      and\n        /* \"@openzeppelin/contracts/access/AccessControl.sol\":6934:6938  role */\n      dup5\n        /* \"@openzeppelin/contracts/access/AccessControl.sol\":6922:6962  RoleRevoked(role, account, _msgSender()) */\n      0xf6391f5c32d9c69d2a47ea670b442974b53935d1edc7fd64eb21e047a839171b\n      mload(0x40)\n      mload(0x40)\n      dup1\n      swap2\n      sub\n      swap1\n      log4\n        /* \"@openzeppelin/contracts/access/AccessControl.sol\":6983:6987  true */\n      0x01\n        /* \"@openzeppelin/contracts/access/AccessControl.sol\":6976:6987  return true */\n      swap1\n      pop\n      jump(tag_264)\n        /* \"@openzeppelin/contracts/access/AccessControl.sol\":6824:7041  if (hasRole(role, account)) {... */\n    tag_266:\n        /* \"@openzeppelin/contracts/access/AccessControl.sol\":7025:7030  false */\n      0x00\n        /* \"@openzeppelin/contracts/access/AccessControl.sol\":7018:7030  return false */\n      swap1\n      pop\n        /* \"@openzeppelin/contracts/access/AccessControl.sol\":6730:7047  function _revokeRole(bytes32 role, address account) internal virtual returns (bool) {... */\n    tag_264:\n      swap3\n      swap2\n      pop\n      pop\n      jump\t// out\n        /* \"contracts/registry/IdentityRegistry.sol\":10102:10425  function _registerIdentity(... */\n    tag_161:\n        /* \"contracts/registry/IdentityRegistry.sol\":10237:10258  _tokenIdentityStorage */\n      0x03\n      0x00\n      swap1\n      sload\n      swap1\n      0x0100\n      exp\n      swap1\n      div\n      0xffffffffffffffffffffffffffffffffffffffff\n      and\n        /* \"contracts/registry/IdentityRegistry.sol\":10237:10279  _tokenIdentityStorage.addIdentityToStorage */\n      0xffffffffffffffffffffffffffffffffffffffff\n      and\n      0xa53410dd\n        /* \"contracts/registry/IdentityRegistry.sol\":10293:10305  _userAddress */\n      dup5\n        /* \"contracts/registry/IdentityRegistry.sol\":10319:10328  _identity */\n      dup5\n        /* \"contracts/registry/IdentityRegistry.sol\":10342:10350  _country */\n      dup5\n        /* \"contracts/registry/IdentityRegistry.sol\":10237:10360  _tokenIdentityStorage.addIdentityToStorage(... */\n      mload(0x40)\n      dup5\n      0xffffffff\n      and\n      0xe0\n      shl\n      dup2\n      mstore\n      0x04\n      add\n      tag_270\n      swap4\n      swap3\n      swap2\n      swap1\n      tag_271\n      jump\t// in\n    tag_270:\n      0x00\n      mload(0x40)\n      dup1\n      dup4\n      sub\n      dup2\n      0x00\n      dup8\n      dup1\n      extcodesize\n      iszero\n      dup1\n      iszero\n      tag_272\n      jumpi\n      0x00\n      dup1\n      revert\n    tag_272:\n      pop\n      gas\n      call\n      iszero\n      dup1\n      iszero\n      tag_274\n      jumpi\n      returndatasize\n      0x00\n      dup1\n      returndatacopy\n      revert(0x00, returndatasize)\n    tag_274:\n      pop\n      pop\n      pop\n      pop\n        /* \"contracts/registry/IdentityRegistry.sol\":10408:10417  _identity */\n      dup2\n        /* \"contracts/registry/IdentityRegistry.sol\":10375:10418  IdentityRegistered(_userAddress, _identity) */\n      0xffffffffffffffffffffffffffffffffffffffff\n      and\n        /* \"contracts/registry/IdentityRegistry.sol\":10394:10406  _userAddress */\n      dup4\n        /* \"contracts/registry/IdentityRegistry.sol\":10375:10418  IdentityRegistered(_userAddress, _identity) */\n      0xffffffffffffffffffffffffffffffffffffffff\n      and\n      0x6ae73635c50d24a45af6fbd5e016ac4bed179addbc8bf24e04ff0fcc6d33af19\n      mload(0x40)\n      mload(0x40)\n      dup1\n      swap2\n      sub\n      swap1\n      log3\n        /* \"contracts/registry/IdentityRegistry.sol\":10102:10425  function _registerIdentity(... */\n      pop\n      pop\n      pop\n      jump\t// out\n        /* \"contracts/registry/IdentityRegistry.sol\":10570:10735  function _getIdentity(... */\n    tag_207:\n        /* \"contracts/registry/IdentityRegistry.sol\":10650:10659  IIdentity */\n      0x00\n        /* \"contracts/registry/IdentityRegistry.sol\":10678:10699  _tokenIdentityStorage */\n      0x03\n      0x00\n      swap1\n      sload\n      swap1\n      0x0100\n      exp\n      swap1\n      div\n      0xffffffffffffffffffffffffffffffffffffffff\n      and\n        /* \"contracts/registry/IdentityRegistry.sol\":10678:10714  _tokenIdentityStorage.storedIdentity */\n      0xffffffffffffffffffffffffffffffffffffffff\n      and\n      0x7988d3a5\n        /* \"contracts/registry/IdentityRegistry.sol\":10715:10727  _userAddress */\n      dup4\n        /* \"contracts/registry/IdentityRegistry.sol\":10678:10728  _tokenIdentityStorage.storedIdentity(_userAddress) */\n      mload(0x40)\n      dup3\n      0xffffffff\n      and\n      0xe0\n      shl\n      dup2\n      mstore\n      0x04\n      add\n      tag_276\n      swap2\n      swap1\n      tag_198\n      jump\t// in\n    tag_276:\n      0x20\n      mload(0x40)\n      dup1\n      dup4\n      sub\n      dup2\n      dup7\n      gas\n      staticcall\n      iszero\n      dup1\n      iszero\n      tag_278\n      jumpi\n      returndatasize\n      0x00\n      dup1\n      returndatacopy\n      revert(0x00, returndatasize)\n    tag_278:\n      pop\n      pop\n      pop\n      pop\n      mload(0x40)\n      returndatasize\n      not(0x1f)\n      0x1f\n      dup3\n      add\n      and\n      dup3\n      add\n      dup1\n      0x40\n      mstore\n      pop\n      dup2\n      add\n      swap1\n      tag_279\n      swap2\n      swap1\n      tag_251\n      jump\t// in\n    tag_279:\n        /* \"contracts/registry/IdentityRegistry.sol\":10671:10728  return _tokenIdentityStorage.storedIdentity(_userAddress) */\n      swap1\n      pop\n        /* \"contracts/registry/IdentityRegistry.sol\":10570:10735  function _getIdentity(... */\n      swap2\n      swap1\n      pop\n      jump\t// out\n        /* \"contracts/registry/IdentityRegistry.sol\":10741:12119  function _isClaimValid(... */\n    tag_237:\n        /* \"contracts/registry/IdentityRegistry.sol\":10852:10856  bool */\n      0x00\n        /* \"contracts/registry/IdentityRegistry.sol\":10868:10902  IClaimIssuer[] memory claimIssuers */\n      dup1\n        /* \"contracts/registry/IdentityRegistry.sol\":10905:10926  _tokenIssuersRegistry */\n      0x02\n      0x00\n      swap1\n      sload\n      swap1\n      0x0100\n      exp\n      swap1\n      div\n      0xffffffffffffffffffffffffffffffffffffffff\n      and\n        /* \"contracts/registry/IdentityRegistry.sol\":10905:10968  _tokenIssuersRegistry... */\n      0xffffffffffffffffffffffffffffffffffffffff\n      and\n      0x6b2c56bd\n        /* \"contracts/registry/IdentityRegistry.sol\":10969:10979  claimTopic */\n      dup5\n        /* \"contracts/registry/IdentityRegistry.sol\":10905:10980  _tokenIssuersRegistry... */\n      mload(0x40)\n      dup3\n      0xffffffff\n      and\n      0xe0\n      shl\n      dup2\n      mstore\n      0x04\n      add\n      tag_281\n      swap2\n      swap1\n      tag_282\n      jump\t// in\n    tag_281:\n      0x00\n      mload(0x40)\n      dup1\n      dup4\n      sub\n      dup2\n      dup7\n      gas\n      staticcall\n      iszero\n      dup1\n      iszero\n      tag_284\n      jumpi\n      returndatasize\n      0x00\n      dup1\n      returndatacopy\n      revert(0x00, returndatasize)\n    tag_284:\n      pop\n      pop\n      pop\n      pop\n      mload(0x40)\n      returndatasize\n      0x00\n      dup3\n      returndatacopy\n      returndatasize\n      not(0x1f)\n      0x1f\n      dup3\n      add\n      and\n      dup3\n      add\n      dup1\n      0x40\n      mstore\n      pop\n      dup2\n      add\n      swap1\n      tag_285\n      swap2\n      swap1\n      tag_286\n      jump\t// in\n    tag_285:\n        /* \"contracts/registry/IdentityRegistry.sol\":10868:10980  IClaimIssuer[] memory claimIssuers = _tokenIssuersRegistry... */\n      swap1\n      pop\n        /* \"contracts/registry/IdentityRegistry.sol\":10990:11013  uint claimIssuersLength */\n      0x00\n        /* \"contracts/registry/IdentityRegistry.sol\":11016:11028  claimIssuers */\n      dup2\n        /* \"contracts/registry/IdentityRegistry.sol\":11016:11035  claimIssuers.length */\n      mload\n        /* \"contracts/registry/IdentityRegistry.sol\":10990:11035  uint claimIssuersLength = claimIssuers.length */\n      swap1\n      pop\n        /* \"contracts/registry/IdentityRegistry.sol\":11072:11073  0 */\n      0x00\n        /* \"contracts/registry/IdentityRegistry.sol\":11050:11068  claimIssuersLength */\n      dup2\n        /* \"contracts/registry/IdentityRegistry.sol\":11050:11073  claimIssuersLength == 0 */\n      sub\n        /* \"contracts/registry/IdentityRegistry.sol\":11046:11112  if (claimIssuersLength == 0) {... */\n      tag_287\n      jumpi\n        /* \"contracts/registry/IdentityRegistry.sol\":11096:11101  false */\n      0x00\n        /* \"contracts/registry/IdentityRegistry.sol\":11089:11101  return false */\n      swap3\n      pop\n      pop\n      pop\n      jump(tag_280)\n        /* \"contracts/registry/IdentityRegistry.sol\":11046:11112  if (claimIssuersLength == 0) {... */\n    tag_287:\n        /* \"contracts/registry/IdentityRegistry.sol\":11122:11147  bytes32[] memory claimIds */\n      0x00\n        /* \"contracts/registry/IdentityRegistry.sol\":11164:11182  claimIssuersLength */\n      dup2\n        /* \"contracts/registry/IdentityRegistry.sol\":11150:11183  new bytes32[](claimIssuersLength) */\n      0xffffffffffffffff\n      dup2\n      gt\n      iszero\n      tag_288\n      jumpi\n      tag_289\n      tag_290\n      jump\t// in\n    tag_289:\n    tag_288:\n      mload(0x40)\n      swap1\n      dup1\n      dup3\n      mstore\n      dup1\n      0x20\n      mul\n      0x20\n      add\n      dup3\n      add\n      0x40\n      mstore\n      dup1\n      iszero\n      tag_291\n      jumpi\n      dup2\n      0x20\n      add\n      0x20\n      dup3\n      mul\n      dup1\n      calldatasize\n      dup4\n      calldatacopy\n      dup1\n      dup3\n      add\n      swap2\n      pop\n      pop\n      swap1\n      pop\n    tag_291:\n      pop\n        /* \"contracts/registry/IdentityRegistry.sol\":11122:11183  bytes32[] memory claimIds = new bytes32[](claimIssuersLength) */\n      swap1\n      pop\n        /* \"contracts/registry/IdentityRegistry.sol\":11199:11208  uint256 i */\n      0x00\n        /* \"contracts/registry/IdentityRegistry.sol\":11194:11332  for (uint256 i = 0; i < claimIssuersLength; i++) {... */\n    tag_292:\n        /* \"contracts/registry/IdentityRegistry.sol\":11218:11236  claimIssuersLength */\n      dup3\n        /* \"contracts/registry/IdentityRegistry.sol\":11214:11215  i */\n      dup2\n        /* \"contracts/registry/IdentityRegistry.sol\":11214:11236  i < claimIssuersLength */\n      lt\n        /* \"contracts/registry/IdentityRegistry.sol\":11194:11332  for (uint256 i = 0; i < claimIssuersLength; i++) {... */\n      iszero\n      tag_293\n      jumpi\n        /* \"contracts/registry/IdentityRegistry.sol\":11292:11304  claimIssuers */\n      dup4\n        /* \"contracts/registry/IdentityRegistry.sol\":11305:11306  i */\n      dup2\n        /* \"contracts/registry/IdentityRegistry.sol\":11292:11307  claimIssuers[i] */\n      dup2\n      mload\n      dup2\n      lt\n      tag_295\n      jumpi\n      tag_296\n      tag_180\n      jump\t// in\n    tag_296:\n    tag_295:\n      0x20\n      mul\n      0x20\n      add\n      add\n      mload\n        /* \"contracts/registry/IdentityRegistry.sol\":11309:11319  claimTopic */\n      dup7\n        /* \"contracts/registry/IdentityRegistry.sol\":11281:11320  abi.encode(claimIssuers[i], claimTopic) */\n      add(0x20, mload(0x40))\n      tag_297\n      swap3\n      swap2\n      swap1\n      tag_298\n      jump\t// in\n    tag_297:\n      mload(0x40)\n      0x20\n      dup2\n      dup4\n      sub\n      sub\n      dup2\n      mstore\n      swap1\n      0x40\n      mstore\n        /* \"contracts/registry/IdentityRegistry.sol\":11271:11321  keccak256(abi.encode(claimIssuers[i], claimTopic)) */\n      dup1\n      mload\n      swap1\n      0x20\n      add\n      keccak256\n        /* \"contracts/registry/IdentityRegistry.sol\":11257:11265  claimIds */\n      dup3\n        /* \"contracts/registry/IdentityRegistry.sol\":11266:11267  i */\n      dup3\n        /* \"contracts/registry/IdentityRegistry.sol\":11257:11268  claimIds[i] */\n      dup2\n      mload\n      dup2\n      lt\n      tag_299\n      jumpi\n      tag_300\n      tag_180\n      jump\t// in\n    tag_300:\n    tag_299:\n      0x20\n      mul\n      0x20\n      add\n      add\n        /* \"contracts/registry/IdentityRegistry.sol\":11257:11321  claimIds[i] = keccak256(abi.encode(claimIssuers[i], claimTopic)) */\n      dup2\n      dup2\n      mstore\n      pop\n      pop\n        /* \"contracts/registry/IdentityRegistry.sol\":11238:11241  i++ */\n      dup1\n      dup1\n      tag_301\n      swap1\n      tag_240\n      jump\t// in\n    tag_301:\n      swap2\n      pop\n      pop\n        /* \"contracts/registry/IdentityRegistry.sol\":11194:11332  for (uint256 i = 0; i < claimIssuersLength; i++) {... */\n      jump(tag_292)\n    tag_293:\n      pop\n        /* \"contracts/registry/IdentityRegistry.sol\":11347:11356  uint256 j */\n      0x00\n        /* \"contracts/registry/IdentityRegistry.sol\":11342:12090  for (uint256 j = 0; j < claimIds.length; j++) {... */\n    tag_302:\n        /* \"contracts/registry/IdentityRegistry.sol\":11366:11374  claimIds */\n      dup2\n        /* \"contracts/registry/IdentityRegistry.sol\":11366:11381  claimIds.length */\n      mload\n        /* \"contracts/registry/IdentityRegistry.sol\":11362:11363  j */\n      dup2\n        /* \"contracts/registry/IdentityRegistry.sol\":11362:11381  j < claimIds.length */\n      lt\n        /* \"contracts/registry/IdentityRegistry.sol\":11342:12090  for (uint256 j = 0; j < claimIds.length; j++) {... */\n      iszero\n      tag_303\n      jumpi\n        /* \"contracts/registry/IdentityRegistry.sol\":11420:11443  uint256 foundClaimTopic */\n      0x00\n        /* \"contracts/registry/IdentityRegistry.sol\":11479:11493  address issuer */\n      dup1\n        /* \"contracts/registry/IdentityRegistry.sol\":11511:11527  bytes memory sig */\n      0x00\n        /* \"contracts/registry/IdentityRegistry.sol\":11545:11562  bytes memory data */\n      dup1\n        /* \"contracts/registry/IdentityRegistry.sol\":11581:11593  userIdentity */\n      dup11\n        /* \"contracts/registry/IdentityRegistry.sol\":11581:11602  userIdentity.getClaim */\n      0xffffffffffffffffffffffffffffffffffffffff\n      and\n      0xc9100bcb\n        /* \"contracts/registry/IdentityRegistry.sol\":11603:11611  claimIds */\n      dup8\n        /* \"contracts/registry/IdentityRegistry.sol\":11612:11613  j */\n      dup8\n        /* \"contracts/registry/IdentityRegistry.sol\":11603:11614  claimIds[j] */\n      dup2\n      mload\n      dup2\n      lt\n      tag_305\n      jumpi\n      tag_306\n      tag_180\n      jump\t// in\n    tag_306:\n    tag_305:\n      0x20\n      mul\n      0x20\n      add\n      add\n      mload\n        /* \"contracts/registry/IdentityRegistry.sol\":11581:11615  userIdentity.getClaim(claimIds[j]) */\n      mload(0x40)\n      dup3\n      0xffffffff\n      and\n      0xe0\n      shl\n      dup2\n      mstore\n      0x04\n      add\n      tag_307\n      swap2\n      swap1\n      tag_39\n      jump\t// in\n    tag_307:\n      0x00\n      mload(0x40)\n      dup1\n      dup4\n      sub\n      dup2\n      dup7\n      gas\n      staticcall\n      iszero\n      dup1\n      iszero\n      tag_309\n      jumpi\n      returndatasize\n      0x00\n      dup1\n      returndatacopy\n      revert(0x00, returndatasize)\n    tag_309:\n      pop\n      pop\n      pop\n      pop\n      mload(0x40)\n      returndatasize\n      0x00\n      dup3\n      returndatacopy\n      returndatasize\n      not(0x1f)\n      0x1f\n      dup3\n      add\n      and\n      dup3\n      add\n      dup1\n      0x40\n      mstore\n      pop\n      dup2\n      add\n      swap1\n      tag_310\n      swap2\n      swap1\n      tag_311\n      jump\t// in\n    tag_310:\n        /* \"contracts/registry/IdentityRegistry.sol\":11402:11615  (... */\n      pop\n      swap5\n      pop\n      swap5\n      pop\n      swap5\n      pop\n      pop\n      swap4\n      pop\n        /* \"contracts/registry/IdentityRegistry.sol\":11653:11663  claimTopic */\n      dup10\n        /* \"contracts/registry/IdentityRegistry.sol\":11634:11649  foundClaimTopic */\n      dup5\n        /* \"contracts/registry/IdentityRegistry.sol\":11634:11663  foundClaimTopic == claimTopic */\n      sub\n        /* \"contracts/registry/IdentityRegistry.sol\":11630:12080  if (foundClaimTopic == claimTopic) {... */\n      tag_312\n      jumpi\n        /* \"contracts/registry/IdentityRegistry.sol\":11708:11914  _isIssuerClaimValid(... */\n      tag_313\n        /* \"contracts/registry/IdentityRegistry.sol\":11753:11765  userIdentity */\n      dup12\n        /* \"contracts/registry/IdentityRegistry.sol\":11791:11797  issuer */\n      dup5\n        /* \"contracts/registry/IdentityRegistry.sol\":11823:11833  claimTopic */\n      dup13\n        /* \"contracts/registry/IdentityRegistry.sol\":11859:11862  sig */\n      dup6\n        /* \"contracts/registry/IdentityRegistry.sol\":11888:11892  data */\n      dup6\n        /* \"contracts/registry/IdentityRegistry.sol\":11708:11727  _isIssuerClaimValid */\n      tag_314\n        /* \"contracts/registry/IdentityRegistry.sol\":11708:11914  _isIssuerClaimValid(... */\n      jump\t// in\n    tag_313:\n        /* \"contracts/registry/IdentityRegistry.sol\":11683:11985  if (... */\n      iszero\n      tag_315\n      jumpi\n        /* \"contracts/registry/IdentityRegistry.sol\":11962:11966  true */\n      0x01\n        /* \"contracts/registry/IdentityRegistry.sol\":11955:11966  return true */\n      swap9\n      pop\n      pop\n      pop\n      pop\n      pop\n      pop\n      pop\n      pop\n      pop\n      jump(tag_280)\n        /* \"contracts/registry/IdentityRegistry.sol\":11683:11985  if (... */\n    tag_315:\n        /* \"contracts/registry/IdentityRegistry.sol\":11630:12080  if (foundClaimTopic == claimTopic) {... */\n      jump(tag_316)\n    tag_312:\n        /* \"contracts/registry/IdentityRegistry.sol\":12032:12033  1 */\n      0x01\n        /* \"contracts/registry/IdentityRegistry.sol\":12014:12022  claimIds */\n      dup7\n        /* \"contracts/registry/IdentityRegistry.sol\":12014:12029  claimIds.length */\n      mload\n        /* \"contracts/registry/IdentityRegistry.sol\":12014:12033  claimIds.length - 1 */\n      tag_317\n      swap2\n      swap1\n      tag_318\n      jump\t// in\n    tag_317:\n        /* \"contracts/registry/IdentityRegistry.sol\":12009:12010  j */\n      dup6\n        /* \"contracts/registry/IdentityRegistry.sol\":12009:12033  j == claimIds.length - 1 */\n      sub\n        /* \"contracts/registry/IdentityRegistry.sol\":12005:12080  if (j == claimIds.length - 1) {... */\n      tag_319\n      jumpi\n        /* \"contracts/registry/IdentityRegistry.sol\":12060:12065  false */\n      0x00\n        /* \"contracts/registry/IdentityRegistry.sol\":12053:12065  return false */\n      swap9\n      pop\n      pop\n      pop\n      pop\n      pop\n      pop\n      pop\n      pop\n      pop\n      jump(tag_280)\n        /* \"contracts/registry/IdentityRegistry.sol\":12005:12080  if (j == claimIds.length - 1) {... */\n    tag_319:\n        /* \"contracts/registry/IdentityRegistry.sol\":11630:12080  if (foundClaimTopic == claimTopic) {... */\n    tag_316:\n        /* \"contracts/registry/IdentityRegistry.sol\":11388:12090  {... */\n      pop\n      pop\n      pop\n      pop\n        /* \"contracts/registry/IdentityRegistry.sol\":11383:11386  j++ */\n      dup1\n      dup1\n      tag_320\n      swap1\n      tag_240\n      jump\t// in\n    tag_320:\n      swap2\n      pop\n      pop\n        /* \"contracts/registry/IdentityRegistry.sol\":11342:12090  for (uint256 j = 0; j < claimIds.length; j++) {... */\n      jump(tag_302)\n    tag_303:\n      pop\n        /* \"contracts/registry/IdentityRegistry.sol\":12107:12112  false */\n      0x00\n        /* \"contracts/registry/IdentityRegistry.sol\":12100:12112  return false */\n      swap4\n      pop\n      pop\n      pop\n      pop\n        /* \"contracts/registry/IdentityRegistry.sol\":10741:12119  function _isClaimValid(... */\n    tag_280:\n      swap3\n      swap2\n      pop\n      pop\n      jump\t// out\n        /* \"@openzeppelin/contracts/access/AccessControl.sol\":3432:3629  function _checkRole(bytes32 role, address account) internal view virtual {... */\n    tag_257:\n        /* \"@openzeppelin/contracts/access/AccessControl.sol\":3520:3542  hasRole(role, account) */\n      tag_322\n        /* \"@openzeppelin/contracts/access/AccessControl.sol\":3528:3532  role */\n      dup3\n        /* \"@openzeppelin/contracts/access/AccessControl.sol\":3534:3541  account */\n      dup3\n        /* \"@openzeppelin/contracts/access/AccessControl.sol\":3520:3527  hasRole */\n      tag_96\n        /* \"@openzeppelin/contracts/access/AccessControl.sol\":3520:3542  hasRole(role, account) */\n      jump\t// in\n    tag_322:\n        /* \"@openzeppelin/contracts/access/AccessControl.sol\":3515:3623  if (!hasRole(role, account)) {... */\n      tag_323\n      jumpi\n        /* \"@openzeppelin/contracts/access/AccessControl.sol\":3598:3605  account */\n      dup1\n        /* \"@openzeppelin/contracts/access/AccessControl.sol\":3607:3611  role */\n      dup3\n        /* \"@openzeppelin/contracts/access/AccessControl.sol\":3565:3612  AccessControlUnauthorizedAccount(account, role) */\n      mload(0x40)\n      0xe2517d3f00000000000000000000000000000000000000000000000000000000\n      dup2\n      mstore\n      0x04\n      add\n      tag_324\n      swap3\n      swap2\n      swap1\n      tag_325\n      jump\t// in\n    tag_324:\n      mload(0x40)\n      dup1\n      swap2\n      sub\n      swap1\n      revert\n        /* \"@openzeppelin/contracts/access/AccessControl.sol\":3515:3623  if (!hasRole(role, account)) {... */\n    tag_323:\n        /* \"@openzeppelin/contracts/access/AccessControl.sol\":3432:3629  function _checkRole(bytes32 role, address account) internal view virtual {... */\n      pop\n      pop\n      jump\t// out\n        /* \"contracts/registry/IdentityRegistry.sol\":12476:12972  function _isIssuerClaimValid(... */\n    tag_314:\n        /* \"contracts/registry/IdentityRegistry.sol\":12667:12671  bool */\n      0x00\n        /* \"contracts/registry/IdentityRegistry.sol\":12712:12718  issuer */\n      dup5\n        /* \"contracts/registry/IdentityRegistry.sol\":12699:12732  IClaimIssuer(issuer).isClaimValid */\n      0xffffffffffffffffffffffffffffffffffffffff\n      and\n      0xc0969a6e\n        /* \"contracts/registry/IdentityRegistry.sol\":12750:12762  userIdentity */\n      dup8\n        /* \"contracts/registry/IdentityRegistry.sol\":12780:12790  claimTopic */\n      dup7\n        /* \"contracts/registry/IdentityRegistry.sol\":12808:12811  sig */\n      dup7\n        /* \"contracts/registry/IdentityRegistry.sol\":12829:12833  data */\n      dup7\n        /* \"contracts/registry/IdentityRegistry.sol\":12699:12847  IClaimIssuer(issuer).isClaimValid(... */\n      mload(0x40)\n      dup6\n      0xffffffff\n      and\n      0xe0\n      shl\n      dup2\n      mstore\n      0x04\n      add\n      tag_327\n      swap5\n      swap4\n      swap3\n      swap2\n      swap1\n      tag_328\n      jump\t// in\n    tag_327:\n      0x20\n      mload(0x40)\n      dup1\n      dup4\n      sub\n      dup2\n      dup7\n      gas\n      staticcall\n      swap3\n      pop\n      pop\n      pop\n      dup1\n      iszero\n      tag_329\n      jumpi\n      pop\n      mload(0x40)\n      returndatasize\n      not(0x1f)\n      0x1f\n      dup3\n      add\n      and\n      dup3\n      add\n      dup1\n      0x40\n      mstore\n      pop\n      dup2\n      add\n      swap1\n      tag_330\n      swap2\n      swap1\n      tag_331\n      jump\t// in\n    tag_330:\n      0x01\n    tag_329:\n        /* \"contracts/registry/IdentityRegistry.sol\":12683:12966  try... */\n      tag_332\n      jumpi\n        /* \"contracts/registry/IdentityRegistry.sol\":12950:12955  false */\n      0x00\n        /* \"contracts/registry/IdentityRegistry.sol\":12943:12955  return false */\n      swap1\n      pop\n      jump(tag_326)\n        /* \"contracts/registry/IdentityRegistry.sol\":12683:12966  try... */\n    tag_332:\n        /* \"contracts/registry/IdentityRegistry.sol\":12902:12911  _validity */\n      dup1\n        /* \"contracts/registry/IdentityRegistry.sol\":12895:12911  return _validity */\n      swap2\n      pop\n      pop\n        /* \"contracts/registry/IdentityRegistry.sol\":12476:12972  function _isIssuerClaimValid(... */\n    tag_326:\n      swap6\n      swap5\n      pop\n      pop\n      pop\n      pop\n      pop\n      jump\t// out\n        /* \"#utility.yul\":7:82   */\n    tag_337:\n        /* \"#utility.yul\":40:46   */\n      0x00\n        /* \"#utility.yul\":73:75   */\n      0x40\n        /* \"#utility.yul\":67:76   */\n      mload\n        /* \"#utility.yul\":57:76   */\n      swap1\n      pop\n        /* \"#utility.yul\":7:82   */\n      swap1\n      jump\t// out\n        /* \"#utility.yul\":88:205   */\n    tag_338:\n        /* \"#utility.yul\":197:198   */\n      0x00\n        /* \"#utility.yul\":194:195   */\n      dup1\n        /* \"#utility.yul\":187:199   */\n      revert\n        /* \"#utility.yul\":211:328   */\n    tag_339:\n        /* \"#utility.yul\":320:321   */\n      0x00\n        /* \"#utility.yul\":317:318   */\n      dup1\n        /* \"#utility.yul\":310:322   */\n      revert\n        /* \"#utility.yul\":334:483   */\n    tag_340:\n        /* \"#utility.yul\":370:377   */\n      0x00\n        /* \"#utility.yul\":410:476   */\n      0xffffffff00000000000000000000000000000000000000000000000000000000\n        /* \"#utility.yul\":403:408   */\n      dup3\n        /* \"#utility.yul\":399:477   */\n      and\n        /* \"#utility.yul\":388:477   */\n      swap1\n      pop\n        /* \"#utility.yul\":334:483   */\n      swap2\n      swap1\n      pop\n      jump\t// out\n        /* \"#utility.yul\":489:609   */\n    tag_341:\n        /* \"#utility.yul\":561:584   */\n      tag_431\n        /* \"#utility.yul\":578:583   */\n      dup2\n        /* \"#utility.yul\":561:584   */\n      tag_340\n      jump\t// in\n    tag_431:\n        /* \"#utility.yul\":554:559   */\n      dup2\n        /* \"#utility.yul\":551:585   */\n      eq\n        /* \"#utility.yul\":541:603   */\n      tag_432\n      jumpi\n        /* \"#utility.yul\":599:600   */\n      0x00\n        /* \"#utility.yul\":596:597   */\n      dup1\n        /* \"#utility.yul\":589:601   */\n      revert\n        /* \"#utility.yul\":541:603   */\n    tag_432:\n        /* \"#utility.yul\":489:609   */\n      pop\n      jump\t// out\n        /* \"#utility.yul\":615:752   */\n    tag_342:\n        /* \"#utility.yul\":660:665   */\n      0x00\n        /* \"#utility.yul\":698:704   */\n      dup2\n        /* \"#utility.yul\":685:705   */\n      calldataload\n        /* \"#utility.yul\":676:705   */\n      swap1\n      pop\n        /* \"#utility.yul\":714:746   */\n      tag_434\n        /* \"#utility.yul\":740:745   */\n      dup2\n        /* \"#utility.yul\":714:746   */\n      tag_341\n      jump\t// in\n    tag_434:\n        /* \"#utility.yul\":615:752   */\n      swap3\n      swap2\n      pop\n      pop\n      jump\t// out\n        /* \"#utility.yul\":758:1085   */\n    tag_32:\n        /* \"#utility.yul\":816:822   */\n      0x00\n        /* \"#utility.yul\":865:867   */\n      0x20\n        /* \"#utility.yul\":853:862   */\n      dup3\n        /* \"#utility.yul\":844:851   */\n      dup5\n        /* \"#utility.yul\":840:863   */\n      sub\n        /* \"#utility.yul\":836:868   */\n      slt\n        /* \"#utility.yul\":833:952   */\n      iszero\n      tag_436\n      jumpi\n        /* \"#utility.yul\":871:950   */\n      tag_437\n      tag_338\n      jump\t// in\n    tag_437:\n        /* \"#utility.yul\":833:952   */\n    tag_436:\n        /* \"#utility.yul\":991:992   */\n      0x00\n        /* \"#utility.yul\":1016:1068   */\n      tag_438\n        /* \"#utility.yul\":1060:1067   */\n      dup5\n        /* \"#utility.yul\":1051:1057   */\n      dup3\n        /* \"#utility.yul\":1040:1049   */\n      dup6\n        /* \"#utility.yul\":1036:1058   */\n      add\n        /* \"#utility.yul\":1016:1068   */\n      tag_342\n      jump\t// in\n    tag_438:\n        /* \"#utility.yul\":1006:1068   */\n      swap2\n      pop\n        /* \"#utility.yul\":962:1078   */\n      pop\n        /* \"#utility.yul\":758:1085   */\n      swap3\n      swap2\n      pop\n      pop\n      jump\t// out\n        /* \"#utility.yul\":1091:1181   */\n    tag_343:\n        /* \"#utility.yul\":1125:1132   */\n      0x00\n        /* \"#utility.yul\":1168:1173   */\n      dup2\n        /* \"#utility.yul\":1161:1174   */\n      iszero\n        /* \"#utility.yul\":1154:1175   */\n      iszero\n        /* \"#utility.yul\":1143:1175   */\n      swap1\n      pop\n        /* \"#utility.yul\":1091:1181   */\n      swap2\n      swap1\n      pop\n      jump\t// out\n        /* \"#utility.yul\":1187:1296   */\n    tag_344:\n        /* \"#utility.yul\":1268:1289   */\n      tag_441\n        /* \"#utility.yul\":1283:1288   */\n      dup2\n        /* \"#utility.yul\":1268:1289   */\n      tag_343\n      jump\t// in\n    tag_441:\n        /* \"#utility.yul\":1263:1266   */\n      dup3\n        /* \"#utility.yul\":1256:1290   */\n      mstore\n        /* \"#utility.yul\":1187:1296   */\n      pop\n      pop\n      jump\t// out\n        /* \"#utility.yul\":1302:1512   */\n    tag_35:\n        /* \"#utility.yul\":1389:1393   */\n      0x00\n        /* \"#utility.yul\":1427:1429   */\n      0x20\n        /* \"#utility.yul\":1416:1425   */\n      dup3\n        /* \"#utility.yul\":1412:1430   */\n      add\n        /* \"#utility.yul\":1404:1430   */\n      swap1\n      pop\n        /* \"#utility.yul\":1440:1505   */\n      tag_443\n        /* \"#utility.yul\":1502:1503   */\n      0x00\n        /* \"#utility.yul\":1491:1500   */\n      dup4\n        /* \"#utility.yul\":1487:1504   */\n      add\n        /* \"#utility.yul\":1478:1484   */\n      dup5\n        /* \"#utility.yul\":1440:1505   */\n      tag_344\n      jump\t// in\n    tag_443:\n        /* \"#utility.yul\":1302:1512   */\n      swap3\n      swap2\n      pop\n      pop\n      jump\t// out\n        /* \"#utility.yul\":1518:1595   */\n    tag_345:\n        /* \"#utility.yul\":1555:1562   */\n      0x00\n        /* \"#utility.yul\":1584:1589   */\n      dup2\n        /* \"#utility.yul\":1573:1589   */\n      swap1\n      pop\n        /* \"#utility.yul\":1518:1595   */\n      swap2\n      swap1\n      pop\n      jump\t// out\n        /* \"#utility.yul\":1601:1719   */\n    tag_346:\n        /* \"#utility.yul\":1688:1712   */\n      tag_446\n        /* \"#utility.yul\":1706:1711   */\n      dup2\n        /* \"#utility.yul\":1688:1712   */\n      tag_345\n      jump\t// in\n    tag_446:\n        /* \"#utility.yul\":1683:1686   */\n      dup3\n        /* \"#utility.yul\":1676:1713   */\n      mstore\n        /* \"#utility.yul\":1601:1719   */\n      pop\n      pop\n      jump\t// out\n        /* \"#utility.yul\":1725:1947   */\n    tag_39:\n        /* \"#utility.yul\":1818:1822   */\n      0x00\n        /* \"#utility.yul\":1856:1858   */\n      0x20\n        /* \"#utility.yul\":1845:1854   */\n      dup3\n        /* \"#utility.yul\":1841:1859   */\n      add\n        /* \"#utility.yul\":1833:1859   */\n      swap1\n      pop\n        /* \"#utility.yul\":1869:1940   */\n      tag_448\n        /* \"#utility.yul\":1937:1938   */\n      0x00\n        /* \"#utility.yul\":1926:1935   */\n      dup4\n        /* \"#utility.yul\":1922:1939   */\n      add\n        /* \"#utility.yul\":1913:1919   */\n      dup5\n        /* \"#utility.yul\":1869:1940   */\n      tag_346\n      jump\t// in\n    tag_448:\n        /* \"#utility.yul\":1725:1947   */\n      swap3\n      swap2\n      pop\n      pop\n      jump\t// out\n        /* \"#utility.yul\":1953:2075   */\n    tag_347:\n        /* \"#utility.yul\":2026:2050   */\n      tag_450\n        /* \"#utility.yul\":2044:2049   */\n      dup2\n        /* \"#utility.yul\":2026:2050   */\n      tag_345\n      jump\t// in\n    tag_450:\n        /* \"#utility.yul\":2019:2024   */\n      dup2\n        /* \"#utility.yul\":2016:2051   */\n      eq\n        /* \"#utility.yul\":2006:2069   */\n      tag_451\n      jumpi\n        /* \"#utility.yul\":2065:2066   */\n      0x00\n        /* \"#utility.yul\":2062:2063   */\n      dup1\n        /* \"#utility.yul\":2055:2067   */\n      revert\n        /* \"#utility.yul\":2006:2069   */\n    tag_451:\n        /* \"#utility.yul\":1953:2075   */\n      pop\n      jump\t// out\n        /* \"#utility.yul\":2081:2220   */\n    tag_348:\n        /* \"#utility.yul\":2127:2132   */\n      0x00\n        /* \"#utility.yul\":2165:2171   */\n      dup2\n        /* \"#utility.yul\":2152:2172   */\n      calldataload\n        /* \"#utility.yul\":2143:2172   */\n      swap1\n      pop\n        /* \"#utility.yul\":2181:2214   */\n      tag_453\n        /* \"#utility.yul\":2208:2213   */\n      dup2\n        /* \"#utility.yul\":2181:2214   */\n      tag_347\n      jump\t// in\n    tag_453:\n        /* \"#utility.yul\":2081:2220   */\n      swap3\n      swap2\n      pop\n      pop\n      jump\t// out\n        /* \"#utility.yul\":2226:2555   */\n    tag_42:\n        /* \"#utility.yul\":2285:2291   */\n      0x00\n        /* \"#utility.yul\":2334:2336   */\n      0x20\n        /* \"#utility.yul\":2322:2331   */\n      dup3\n        /* \"#utility.yul\":2313:2320   */\n      dup5\n        /* \"#utility.yul\":2309:2332   */\n      sub\n        /* \"#utility.yul\":2305:2337   */\n      slt\n        /* \"#utility.yul\":2302:2421   */\n      iszero\n      tag_455\n      jumpi\n        /* \"#utility.yul\":2340:2419   */\n      tag_456\n      tag_338\n      jump\t// in\n    tag_456:\n        /* \"#utility.yul\":2302:2421   */\n    tag_455:\n        /* \"#utility.yul\":2460:2461   */\n      0x00\n        /* \"#utility.yul\":2485:2538   */\n      tag_457\n        /* \"#utility.yul\":2530:2537   */\n      dup5\n        /* \"#utility.yul\":2521:2527   */\n      dup3\n        /* \"#utility.yul\":2510:2519   */\n      dup6\n        /* \"#utility.yul\":2506:2528   */\n      add\n        /* \"#utility.yul\":2485:2538   */\n      tag_348\n      jump\t// in\n    tag_457:\n        /* \"#utility.yul\":2475:2538   */\n      swap2\n      pop\n        /* \"#utility.yul\":2431:2548   */\n      pop\n        /* \"#utility.yul\":2226:2555   */\n      swap3\n      swap2\n      pop\n      pop\n      jump\t// out\n        /* \"#utility.yul\":2561:2687   */\n    tag_349:\n        /* \"#utility.yul\":2598:2605   */\n      0x00\n        /* \"#utility.yul\":2638:2680   */\n      0xffffffffffffffffffffffffffffffffffffffff\n        /* \"#utility.yul\":2631:2636   */\n      dup3\n        /* \"#utility.yul\":2627:2681   */\n      and\n        /* \"#utility.yul\":2616:2681   */\n      swap1\n      pop\n        /* \"#utility.yul\":2561:2687   */\n      swap2\n      swap1\n      pop\n      jump\t// out\n        /* \"#utility.yul\":2693:2789   */\n    tag_350:\n        /* \"#utility.yul\":2730:2737   */\n      0x00\n        /* \"#utility.yul\":2759:2783   */\n      tag_460\n        /* \"#utility.yul\":2777:2782   */\n      dup3\n        /* \"#utility.yul\":2759:2783   */\n      tag_349\n      jump\t// in\n    tag_460:\n        /* \"#utility.yul\":2748:2783   */\n      swap1\n      pop\n        /* \"#utility.yul\":2693:2789   */\n      swap2\n      swap1\n      pop\n      jump\t// out\n        /* \"#utility.yul\":2795:2924   */\n    tag_351:\n        /* \"#utility.yul\":2865:2872   */\n      0x00\n        /* \"#utility.yul\":2894:2918   */\n      tag_462\n        /* \"#utility.yul\":2912:2917   */\n      dup3\n        /* \"#utility.yul\":2894:2918   */\n      tag_350\n      jump\t// in\n    tag_462:\n        /* \"#utility.yul\":2883:2918   */\n      swap1\n      pop\n        /* \"#utility.yul\":2795:2924   */\n      swap2\n      swap1\n      pop\n      jump\t// out\n        /* \"#utility.yul\":2930:3118   */\n    tag_352:\n        /* \"#utility.yul\":3036:3093   */\n      tag_464\n        /* \"#utility.yul\":3087:3092   */\n      dup2\n        /* \"#utility.yul\":3036:3093   */\n      tag_351\n      jump\t// in\n    tag_464:\n        /* \"#utility.yul\":3029:3034   */\n      dup2\n        /* \"#utility.yul\":3026:3094   */\n      eq\n        /* \"#utility.yul\":3016:3112   */\n      tag_465\n      jumpi\n        /* \"#utility.yul\":3108:3109   */\n      0x00\n        /* \"#utility.yul\":3105:3106   */\n      dup1\n        /* \"#utility.yul\":3098:3110   */\n      revert\n        /* \"#utility.yul\":3016:3112   */\n    tag_465:\n        /* \"#utility.yul\":2930:3118   */\n      pop\n      jump\t// out\n        /* \"#utility.yul\":3124:3329   */\n    tag_353:\n        /* \"#utility.yul\":3203:3208   */\n      0x00\n        /* \"#utility.yul\":3241:3247   */\n      dup2\n        /* \"#utility.yul\":3228:3248   */\n      calldataload\n        /* \"#utility.yul\":3219:3248   */\n      swap1\n      pop\n        /* \"#utility.yul\":3257:3323   */\n      tag_467\n        /* \"#utility.yul\":3317:3322   */\n      dup2\n        /* \"#utility.yul\":3257:3323   */\n      tag_352\n      jump\t// in\n    tag_467:\n        /* \"#utility.yul\":3124:3329   */\n      swap3\n      swap2\n      pop\n      pop\n      jump\t// out\n        /* \"#utility.yul\":3335:3730   */\n    tag_47:\n        /* \"#utility.yul\":3427:3433   */\n      0x00\n        /* \"#utility.yul\":3476:3478   */\n      0x20\n        /* \"#utility.yul\":3464:3473   */\n      dup3\n        /* \"#utility.yul\":3455:3462   */\n      dup5\n        /* \"#utility.yul\":3451:3474   */\n      sub\n        /* \"#utility.yul\":3447:3479   */\n      slt\n        /* \"#utility.yul\":3444:3563   */\n      iszero\n      tag_469\n      jumpi\n        /* \"#utility.yul\":3482:3561   */\n      tag_470\n      tag_338\n      jump\t// in\n    tag_470:\n        /* \"#utility.yul\":3444:3563   */\n    tag_469:\n        /* \"#utility.yul\":3602:3603   */\n      0x00\n        /* \"#utility.yul\":3627:3713   */\n      tag_471\n        /* \"#utility.yul\":3705:3712   */\n      dup5\n        /* \"#utility.yul\":3696:3702   */\n      dup3\n        /* \"#utility.yul\":3685:3694   */\n      dup6\n        /* \"#utility.yul\":3681:3703   */\n      add\n        /* \"#utility.yul\":3627:3713   */\n      tag_353\n      jump\t// in\n    tag_471:\n        /* \"#utility.yul\":3617:3713   */\n      swap2\n      pop\n        /* \"#utility.yul\":3573:3723   */\n      pop\n        /* \"#utility.yul\":3335:3730   */\n      swap3\n      swap2\n      pop\n      pop\n      jump\t// out\n        /* \"#utility.yul\":3736:3858   */\n    tag_354:\n        /* \"#utility.yul\":3809:3833   */\n      tag_473\n        /* \"#utility.yul\":3827:3832   */\n      dup2\n        /* \"#utility.yul\":3809:3833   */\n      tag_350\n      jump\t// in\n    tag_473:\n        /* \"#utility.yul\":3802:3807   */\n      dup2\n        /* \"#utility.yul\":3799:3834   */\n      eq\n        /* \"#utility.yul\":3789:3852   */\n      tag_474\n      jumpi\n        /* \"#utility.yul\":3848:3849   */\n      0x00\n        /* \"#utility.yul\":3845:3846   */\n      dup1\n        /* \"#utility.yul\":3838:3850   */\n      revert\n        /* \"#utility.yul\":3789:3852   */\n    tag_474:\n        /* \"#utility.yul\":3736:3858   */\n      pop\n      jump\t// out\n        /* \"#utility.yul\":3864:4003   */\n    tag_355:\n        /* \"#utility.yul\":3910:3915   */\n      0x00\n        /* \"#utility.yul\":3948:3954   */\n      dup2\n        /* \"#utility.yul\":3935:3955   */\n      calldataload\n        /* \"#utility.yul\":3926:3955   */\n      swap1\n      pop\n        /* \"#utility.yul\":3964:3997   */\n      tag_476\n        /* \"#utility.yul\":3991:3996   */\n      dup2\n        /* \"#utility.yul\":3964:3997   */\n      tag_354\n      jump\t// in\n    tag_476:\n        /* \"#utility.yul\":3864:4003   */\n      swap3\n      swap2\n      pop\n      pop\n      jump\t// out\n        /* \"#utility.yul\":4009:4483   */\n    tag_51:\n        /* \"#utility.yul\":4077:4083   */\n      0x00\n        /* \"#utility.yul\":4085:4091   */\n      dup1\n        /* \"#utility.yul\":4134:4136   */\n      0x40\n        /* \"#utility.yul\":4122:4131   */\n      dup4\n        /* \"#utility.yul\":4113:4120   */\n      dup6\n        /* \"#utility.yul\":4109:4132   */\n      sub\n        /* \"#utility.yul\":4105:4137   */\n      slt\n        /* \"#utility.yul\":4102:4221   */\n      iszero\n      tag_478\n      jumpi\n        /* \"#utility.yul\":4140:4219   */\n      tag_479\n      tag_338\n      jump\t// in\n    tag_479:\n        /* \"#utility.yul\":4102:4221   */\n    tag_478:\n        /* \"#utility.yul\":4260:4261   */\n      0x00\n        /* \"#utility.yul\":4285:4338   */\n      tag_480\n        /* \"#utility.yul\":4330:4337   */\n      dup6\n        /* \"#utility.yul\":4321:4327   */\n      dup3\n        /* \"#utility.yul\":4310:4319   */\n      dup7\n        /* \"#utility.yul\":4306:4328   */\n      add\n        /* \"#utility.yul\":4285:4338   */\n      tag_348\n      jump\t// in\n    tag_480:\n        /* \"#utility.yul\":4275:4338   */\n      swap3\n      pop\n        /* \"#utility.yul\":4231:4348   */\n      pop\n        /* \"#utility.yul\":4387:4389   */\n      0x20\n        /* \"#utility.yul\":4413:4466   */\n      tag_481\n        /* \"#utility.yul\":4458:4465   */\n      dup6\n        /* \"#utility.yul\":4449:4455   */\n      dup3\n        /* \"#utility.yul\":4438:4447   */\n      dup7\n        /* \"#utility.yul\":4434:4456   */\n      add\n        /* \"#utility.yul\":4413:4466   */\n      tag_355\n      jump\t// in\n    tag_481:\n        /* \"#utility.yul\":4403:4466   */\n      swap2\n      pop\n        /* \"#utility.yul\":4358:4476   */\n      pop\n        /* \"#utility.yul\":4009:4483   */\n      swap3\n      pop\n      swap3\n      swap1\n      pop\n      jump\t// out\n        /* \"#utility.yul\":4489:4578   */\n    tag_356:\n        /* \"#utility.yul\":4525:4532   */\n      0x00\n        /* \"#utility.yul\":4565:4571   */\n      0xffff\n        /* \"#utility.yul\":4558:4563   */\n      dup3\n        /* \"#utility.yul\":4554:4572   */\n      and\n        /* \"#utility.yul\":4543:4572   */\n      swap1\n      pop\n        /* \"#utility.yul\":4489:4578   */\n      swap2\n      swap1\n      pop\n      jump\t// out\n        /* \"#utility.yul\":4584:4704   */\n    tag_357:\n        /* \"#utility.yul\":4656:4679   */\n      tag_484\n        /* \"#utility.yul\":4673:4678   */\n      dup2\n        /* \"#utility.yul\":4656:4679   */\n      tag_356\n      jump\t// in\n    tag_484:\n        /* \"#utility.yul\":4649:4654   */\n      dup2\n        /* \"#utility.yul\":4646:4680   */\n      eq\n        /* \"#utility.yul\":4636:4698   */\n      tag_485\n      jumpi\n        /* \"#utility.yul\":4694:4695   */\n      0x00\n        /* \"#utility.yul\":4691:4692   */\n      dup1\n        /* \"#utility.yul\":4684:4696   */\n      revert\n        /* \"#utility.yul\":4636:4698   */\n    tag_485:\n        /* \"#utility.yul\":4584:4704   */\n      pop\n      jump\t// out\n        /* \"#utility.yul\":4710:4847   */\n    tag_358:\n        /* \"#utility.yul\":4755:4760   */\n      0x00\n        /* \"#utility.yul\":4793:4799   */\n      dup2\n        /* \"#utility.yul\":4780:4800   */\n      calldataload\n        /* \"#utility.yul\":4771:4800   */\n      swap1\n      pop\n        /* \"#utility.yul\":4809:4841   */\n      tag_487\n        /* \"#utility.yul\":4835:4840   */\n      dup2\n        /* \"#utility.yul\":4809:4841   */\n      tag_357\n      jump\t// in\n    tag_487:\n        /* \"#utility.yul\":4710:4847   */\n      swap3\n      swap2\n      pop\n      pop\n      jump\t// out\n        /* \"#utility.yul\":4853:5325   */\n    tag_58:\n        /* \"#utility.yul\":4920:4926   */\n      0x00\n        /* \"#utility.yul\":4928:4934   */\n      dup1\n        /* \"#utility.yul\":4977:4979   */\n      0x40\n        /* \"#utility.yul\":4965:4974   */\n      dup4\n        /* \"#utility.yul\":4956:4963   */\n      dup6\n        /* \"#utility.yul\":4952:4975   */\n      sub\n        /* \"#utility.yul\":4948:4980   */\n      slt\n        /* \"#utility.yul\":4945:5064   */\n      iszero\n      tag_489\n      jumpi\n        /* \"#utility.yul\":4983:5062   */\n      tag_490\n      tag_338\n      jump\t// in\n    tag_490:\n        /* \"#utility.yul\":4945:5064   */\n    tag_489:\n        /* \"#utility.yul\":5103:5104   */\n      0x00\n        /* \"#utility.yul\":5128:5181   */\n      tag_491\n        /* \"#utility.yul\":5173:5180   */\n      dup6\n        /* \"#utility.yul\":5164:5170   */\n      dup3\n        /* \"#utility.yul\":5153:5162   */\n      dup7\n        /* \"#utility.yul\":5149:5171   */\n      add\n        /* \"#utility.yul\":5128:5181   */\n      tag_355\n      jump\t// in\n    tag_491:\n        /* \"#utility.yul\":5118:5181   */\n      swap3\n      pop\n        /* \"#utility.yul\":5074:5191   */\n      pop\n        /* \"#utility.yul\":5230:5232   */\n      0x20\n        /* \"#utility.yul\":5256:5308   */\n      tag_492\n        /* \"#utility.yul\":5300:5307   */\n      dup6\n        /* \"#utility.yul\":5291:5297   */\n      dup3\n        /* \"#utility.yul\":5280:5289   */\n      dup7\n        /* \"#utility.yul\":5276:5298   */\n      add\n        /* \"#utility.yul\":5256:5308   */\n      tag_358\n      jump\t// in\n    tag_492:\n        /* \"#utility.yul\":5246:5308   */\n      swap2\n      pop\n        /* \"#utility.yul\":5201:5318   */\n      pop\n        /* \"#utility.yul\":4853:5325   */\n      swap3\n      pop\n      swap3\n      swap1\n      pop\n      jump\t// out\n        /* \"#utility.yul\":5331:5391   */\n    tag_359:\n        /* \"#utility.yul\":5359:5362   */\n      0x00\n        /* \"#utility.yul\":5380:5385   */\n      dup2\n        /* \"#utility.yul\":5373:5385   */\n      swap1\n      pop\n        /* \"#utility.yul\":5331:5391   */\n      swap2\n      swap1\n      pop\n      jump\t// out\n        /* \"#utility.yul\":5397:5539   */\n    tag_360:\n        /* \"#utility.yul\":5447:5456   */\n      0x00\n        /* \"#utility.yul\":5480:5533   */\n      tag_495\n        /* \"#utility.yul\":5498:5532   */\n      tag_496\n        /* \"#utility.yul\":5507:5531   */\n      tag_497\n        /* \"#utility.yul\":5525:5530   */\n      dup5\n        /* \"#utility.yul\":5507:5531   */\n      tag_349\n      jump\t// in\n    tag_497:\n        /* \"#utility.yul\":5498:5532   */\n      tag_359\n      jump\t// in\n    tag_496:\n        /* \"#utility.yul\":5480:5533   */\n      tag_349\n      jump\t// in\n    tag_495:\n        /* \"#utility.yul\":5467:5533   */\n      swap1\n      pop\n        /* \"#utility.yul\":5397:5539   */\n      swap2\n      swap1\n      pop\n      jump\t// out\n        /* \"#utility.yul\":5545:5671   */\n    tag_361:\n        /* \"#utility.yul\":5595:5604   */\n      0x00\n        /* \"#utility.yul\":5628:5665   */\n      tag_499\n        /* \"#utility.yul\":5659:5664   */\n      dup3\n        /* \"#utility.yul\":5628:5665   */\n      tag_360\n      jump\t// in\n    tag_499:\n        /* \"#utility.yul\":5615:5665   */\n      swap1\n      pop\n        /* \"#utility.yul\":5545:5671   */\n      swap2\n      swap1\n      pop\n      jump\t// out\n        /* \"#utility.yul\":5677:5832   */\n    tag_362:\n        /* \"#utility.yul\":5756:5765   */\n      0x00\n        /* \"#utility.yul\":5789:5826   */\n      tag_501\n        /* \"#utility.yul\":5820:5825   */\n      dup3\n        /* \"#utility.yul\":5789:5826   */\n      tag_361\n      jump\t// in\n    tag_501:\n        /* \"#utility.yul\":5776:5826   */\n      swap1\n      pop\n        /* \"#utility.yul\":5677:5832   */\n      swap2\n      swap1\n      pop\n      jump\t// out\n        /* \"#utility.yul\":5838:6027   */\n    tag_363:\n        /* \"#utility.yul\":5954:6020   */\n      tag_503\n        /* \"#utility.yul\":6014:6019   */\n      dup2\n        /* \"#utility.yul\":5954:6020   */\n      tag_362\n      jump\t// in\n    tag_503:\n        /* \"#utility.yul\":5949:5952   */\n      dup3\n        /* \"#utility.yul\":5942:6021   */\n      mstore\n        /* \"#utility.yul\":5838:6027   */\n      pop\n      pop\n      jump\t// out\n        /* \"#utility.yul\":6033:6313   */\n    tag_63:\n        /* \"#utility.yul\":6155:6159   */\n      0x00\n        /* \"#utility.yul\":6193:6195   */\n      0x20\n        /* \"#utility.yul\":6182:6191   */\n      dup3\n        /* \"#utility.yul\":6178:6196   */\n      add\n        /* \"#utility.yul\":6170:6196   */\n      swap1\n      pop\n        /* \"#utility.yul\":6206:6306   */\n      tag_505\n        /* \"#utility.yul\":6303:6304   */\n      0x00\n        /* \"#utility.yul\":6292:6301   */\n      dup4\n        /* \"#utility.yul\":6288:6305   */\n      add\n        /* \"#utility.yul\":6279:6285   */\n      dup5\n        /* \"#utility.yul\":6206:6306   */\n      tag_363\n      jump\t// in\n    tag_505:\n        /* \"#utility.yul\":6033:6313   */\n      swap3\n      swap2\n      pop\n      pop\n      jump\t// out\n        /* \"#utility.yul\":6319:6432   */\n    tag_364:\n        /* \"#utility.yul\":6373:6380   */\n      0x00\n        /* \"#utility.yul\":6402:6426   */\n      tag_507\n        /* \"#utility.yul\":6420:6425   */\n      dup3\n        /* \"#utility.yul\":6402:6426   */\n      tag_350\n      jump\t// in\n    tag_507:\n        /* \"#utility.yul\":6391:6426   */\n      swap1\n      pop\n        /* \"#utility.yul\":6319:6432   */\n      swap2\n      swap1\n      pop\n      jump\t// out\n        /* \"#utility.yul\":6438:6594   */\n    tag_365:\n        /* \"#utility.yul\":6528:6569   */\n      tag_509\n        /* \"#utility.yul\":6563:6568   */\n      dup2\n        /* \"#utility.yul\":6528:6569   */\n      tag_364\n      jump\t// in\n    tag_509:\n        /* \"#utility.yul\":6521:6526   */\n      dup2\n        /* \"#utility.yul\":6518:6570   */\n      eq\n        /* \"#utility.yul\":6508:6588   */\n      tag_510\n      jumpi\n        /* \"#utility.yul\":6584:6585   */\n      0x00\n        /* \"#utility.yul\":6581:6582   */\n      dup1\n        /* \"#utility.yul\":6574:6586   */\n      revert\n        /* \"#utility.yul\":6508:6588   */\n    tag_510:\n        /* \"#utility.yul\":6438:6594   */\n      pop\n      jump\t// out\n        /* \"#utility.yul\":6600:6773   */\n    tag_366:\n        /* \"#utility.yul\":6663:6668   */\n      0x00\n        /* \"#utility.yul\":6701:6707   */\n      dup2\n        /* \"#utility.yul\":6688:6708   */\n      calldataload\n        /* \"#utility.yul\":6679:6708   */\n      swap1\n      pop\n        /* \"#utility.yul\":6717:6767   */\n      tag_512\n        /* \"#utility.yul\":6761:6766   */\n      dup2\n        /* \"#utility.yul\":6717:6767   */\n      tag_365\n      jump\t// in\n    tag_512:\n        /* \"#utility.yul\":6600:6773   */\n      swap3\n      swap2\n      pop\n      pop\n      jump\t// out\n        /* \"#utility.yul\":6779:7430   */\n    tag_66:\n        /* \"#utility.yul\":6872:6878   */\n      0x00\n        /* \"#utility.yul\":6880:6886   */\n      dup1\n        /* \"#utility.yul\":6888:6894   */\n      0x00\n        /* \"#utility.yul\":6937:6939   */\n      0x60\n        /* \"#utility.yul\":6925:6934   */\n      dup5\n        /* \"#utility.yul\":6916:6923   */\n      dup7\n        /* \"#utility.yul\":6912:6935   */\n      sub\n        /* \"#utility.yul\":6908:6940   */\n      slt\n        /* \"#utility.yul\":6905:7024   */\n      iszero\n      tag_514\n      jumpi\n        /* \"#utility.yul\":6943:7022   */\n      tag_515\n      tag_338\n      jump\t// in\n    tag_515:\n        /* \"#utility.yul\":6905:7024   */\n    tag_514:\n        /* \"#utility.yul\":7063:7064   */\n      0x00\n        /* \"#utility.yul\":7088:7141   */\n      tag_516\n        /* \"#utility.yul\":7133:7140   */\n      dup7\n        /* \"#utility.yul\":7124:7130   */\n      dup3\n        /* \"#utility.yul\":7113:7122   */\n      dup8\n        /* \"#utility.yul\":7109:7131   */\n      add\n        /* \"#utility.yul\":7088:7141   */\n      tag_355\n      jump\t// in\n    tag_516:\n        /* \"#utility.yul\":7078:7141   */\n      swap4\n      pop\n        /* \"#utility.yul\":7034:7151   */\n      pop\n        /* \"#utility.yul\":7190:7192   */\n      0x20\n        /* \"#utility.yul\":7216:7286   */\n      tag_517\n        /* \"#utility.yul\":7278:7285   */\n      dup7\n        /* \"#utility.yul\":7269:7275   */\n      dup3\n        /* \"#utility.yul\":7258:7267   */\n      dup8\n        /* \"#utility.yul\":7254:7276   */\n      add\n        /* \"#utility.yul\":7216:7286   */\n      tag_366\n      jump\t// in\n    tag_517:\n        /* \"#utility.yul\":7206:7286   */\n      swap3\n      pop\n        /* \"#utility.yul\":7161:7296   */\n      pop\n        /* \"#utility.yul\":7335:7337   */\n      0x40\n        /* \"#utility.yul\":7361:7413   */\n      tag_518\n        /* \"#utility.yul\":7405:7412   */\n      dup7\n        /* \"#utility.yul\":7396:7402   */\n      dup3\n        /* \"#utility.yul\":7385:7394   */\n      dup8\n        /* \"#utility.yul\":7381:7403   */\n      add\n        /* \"#utility.yul\":7361:7413   */\n      tag_358\n      jump\t// in\n    tag_518:\n        /* \"#utility.yul\":7351:7413   */\n      swap2\n      pop\n        /* \"#utility.yul\":7306:7423   */\n      pop\n        /* \"#utility.yul\":6779:7430   */\n      swap3\n      pop\n      swap3\n      pop\n      swap3\n      jump\t// out\n        /* \"#utility.yul\":7436:7765   */\n    tag_70:\n        /* \"#utility.yul\":7495:7501   */\n      0x00\n        /* \"#utility.yul\":7544:7546   */\n      0x20\n        /* \"#utility.yul\":7532:7541   */\n      dup3\n        /* \"#utility.yul\":7523:7530   */\n      dup5\n        /* \"#utility.yul\":7519:7542   */\n      sub\n        /* \"#utility.yul\":7515:7547   */\n      slt\n        /* \"#utility.yul\":7512:7631   */\n      iszero\n      tag_520\n      jumpi\n        /* \"#utility.yul\":7550:7629   */\n      tag_521\n      tag_338\n      jump\t// in\n    tag_521:\n        /* \"#utility.yul\":7512:7631   */\n    tag_520:\n        /* \"#utility.yul\":7670:7671   */\n      0x00\n        /* \"#utility.yul\":7695:7748   */\n      tag_522\n        /* \"#utility.yul\":7740:7747   */\n      dup5\n        /* \"#utility.yul\":7731:7737   */\n      dup3\n        /* \"#utility.yul\":7720:7729   */\n      dup6\n        /* \"#utility.yul\":7716:7738   */\n      add\n        /* \"#utility.yul\":7695:7748   */\n      tag_355\n      jump\t// in\n    tag_522:\n        /* \"#utility.yul\":7685:7748   */\n      swap2\n      pop\n        /* \"#utility.yul\":7641:7758   */\n      pop\n        /* \"#utility.yul\":7436:7765   */\n      swap3\n      swap2\n      pop\n      pop\n      jump\t// out\n        /* \"#utility.yul\":7771:7888   */\n    tag_367:\n        /* \"#utility.yul\":7880:7881   */\n      0x00\n        /* \"#utility.yul\":7877:7878   */\n      dup1\n        /* \"#utility.yul\":7870:7882   */\n      revert\n        /* \"#utility.yul\":7894:8011   */\n    tag_368:\n        /* \"#utility.yul\":8003:8004   */\n      0x00\n        /* \"#utility.yul\":8000:8001   */\n      dup1\n        /* \"#utility.yul\":7993:8005   */\n      revert\n        /* \"#utility.yul\":8017:8134   */\n    tag_369:\n        /* \"#utility.yul\":8126:8127   */\n      0x00\n        /* \"#utility.yul\":8123:8124   */\n      dup1\n        /* \"#utility.yul\":8116:8128   */\n      revert\n        /* \"#utility.yul\":8157:8725   */\n    tag_370:\n        /* \"#utility.yul\":8230:8238   */\n      0x00\n        /* \"#utility.yul\":8240:8246   */\n      dup1\n        /* \"#utility.yul\":8290:8293   */\n      dup4\n        /* \"#utility.yul\":8283:8287   */\n      0x1f\n        /* \"#utility.yul\":8275:8281   */\n      dup5\n        /* \"#utility.yul\":8271:8288   */\n      add\n        /* \"#utility.yul\":8267:8294   */\n      slt\n        /* \"#utility.yul\":8257:8379   */\n      tag_527\n      jumpi\n        /* \"#utility.yul\":8298:8377   */\n      tag_528\n      tag_367\n      jump\t// in\n    tag_528:\n        /* \"#utility.yul\":8257:8379   */\n    tag_527:\n        /* \"#utility.yul\":8411:8417   */\n      dup3\n        /* \"#utility.yul\":8398:8418   */\n      calldataload\n        /* \"#utility.yul\":8388:8418   */\n      swap1\n      pop\n        /* \"#utility.yul\":8441:8459   */\n      0xffffffffffffffff\n        /* \"#utility.yul\":8433:8439   */\n      dup2\n        /* \"#utility.yul\":8430:8460   */\n      gt\n        /* \"#utility.yul\":8427:8544   */\n      iszero\n      tag_529\n      jumpi\n        /* \"#utility.yul\":8463:8542   */\n      tag_530\n      tag_368\n      jump\t// in\n    tag_530:\n        /* \"#utility.yul\":8427:8544   */\n    tag_529:\n        /* \"#utility.yul\":8577:8581   */\n      0x20\n        /* \"#utility.yul\":8569:8575   */\n      dup4\n        /* \"#utility.yul\":8565:8582   */\n      add\n        /* \"#utility.yul\":8553:8582   */\n      swap2\n      pop\n        /* \"#utility.yul\":8631:8634   */\n      dup4\n        /* \"#utility.yul\":8623:8627   */\n      0x20\n        /* \"#utility.yul\":8615:8621   */\n      dup3\n        /* \"#utility.yul\":8611:8628   */\n      mul\n        /* \"#utility.yul\":8601:8609   */\n      dup4\n        /* \"#utility.yul\":8597:8629   */\n      add\n        /* \"#utility.yul\":8594:8635   */\n      gt\n        /* \"#utility.yul\":8591:8719   */\n      iszero\n      tag_531\n      jumpi\n        /* \"#utility.yul\":8638:8717   */\n      tag_532\n      tag_369\n      jump\t// in\n    tag_532:\n        /* \"#utility.yul\":8591:8719   */\n    tag_531:\n        /* \"#utility.yul\":8157:8725   */\n      swap3\n      pop\n      swap3\n      swap1\n      pop\n      jump\t// out\n        /* \"#utility.yul\":8759:9344   */\n    tag_371:\n        /* \"#utility.yul\":8849:8857   */\n      0x00\n        /* \"#utility.yul\":8859:8865   */\n      dup1\n        /* \"#utility.yul\":8909:8912   */\n      dup4\n        /* \"#utility.yul\":8902:8906   */\n      0x1f\n        /* \"#utility.yul\":8894:8900   */\n      dup5\n        /* \"#utility.yul\":8890:8907   */\n      add\n        /* \"#utility.yul\":8886:8913   */\n      slt\n        /* \"#utility.yul\":8876:8998   */\n      tag_534\n      jumpi\n        /* \"#utility.yul\":8917:8996   */\n      tag_535\n      tag_367\n      jump\t// in\n    tag_535:\n        /* \"#utility.yul\":8876:8998   */\n    tag_534:\n        /* \"#utility.yul\":9030:9036   */\n      dup3\n        /* \"#utility.yul\":9017:9037   */\n      calldataload\n        /* \"#utility.yul\":9007:9037   */\n      swap1\n      pop\n        /* \"#utility.yul\":9060:9078   */\n      0xffffffffffffffff\n        /* \"#utility.yul\":9052:9058   */\n      dup2\n        /* \"#utility.yul\":9049:9079   */\n      gt\n        /* \"#utility.yul\":9046:9163   */\n      iszero\n      tag_536\n      jumpi\n        /* \"#utility.yul\":9082:9161   */\n      tag_537\n      tag_368\n      jump\t// in\n    tag_537:\n        /* \"#utility.yul\":9046:9163   */\n    tag_536:\n        /* \"#utility.yul\":9196:9200   */\n      0x20\n        /* \"#utility.yul\":9188:9194   */\n      dup4\n        /* \"#utility.yul\":9184:9201   */\n      add\n        /* \"#utility.yul\":9172:9201   */\n      swap2\n      pop\n        /* \"#utility.yul\":9250:9253   */\n      dup4\n        /* \"#utility.yul\":9242:9246   */\n      0x20\n        /* \"#utility.yul\":9234:9240   */\n      dup3\n        /* \"#utility.yul\":9230:9247   */\n      mul\n        /* \"#utility.yul\":9220:9228   */\n      dup4\n        /* \"#utility.yul\":9216:9248   */\n      add\n        /* \"#utility.yul\":9213:9254   */\n      gt\n        /* \"#utility.yul\":9210:9338   */\n      iszero\n      tag_538\n      jumpi\n        /* \"#utility.yul\":9257:9336   */\n      tag_539\n      tag_369\n      jump\t// in\n    tag_539:\n        /* \"#utility.yul\":9210:9338   */\n    tag_538:\n        /* \"#utility.yul\":8759:9344   */\n      swap3\n      pop\n      swap3\n      swap1\n      pop\n      jump\t// out\n        /* \"#utility.yul\":9366:9933   */\n    tag_372:\n        /* \"#utility.yul\":9438:9446   */\n      0x00\n        /* \"#utility.yul\":9448:9454   */\n      dup1\n        /* \"#utility.yul\":9498:9501   */\n      dup4\n        /* \"#utility.yul\":9491:9495   */\n      0x1f\n        /* \"#utility.yul\":9483:9489   */\n      dup5\n        /* \"#utility.yul\":9479:9496   */\n      add\n        /* \"#utility.yul\":9475:9502   */\n      slt\n        /* \"#utility.yul\":9465:9587   */\n      tag_541\n      jumpi\n        /* \"#utility.yul\":9506:9585   */\n      tag_542\n      tag_367\n      jump\t// in\n    tag_542:\n        /* \"#utility.yul\":9465:9587   */\n    tag_541:\n        /* \"#utility.yul\":9619:9625   */\n      dup3\n        /* \"#utility.yul\":9606:9626   */\n      calldataload\n        /* \"#utility.yul\":9596:9626   */\n      swap1\n      pop\n        /* \"#utility.yul\":9649:9667   */\n      0xffffffffffffffff\n        /* \"#utility.yul\":9641:9647   */\n      dup2\n        /* \"#utility.yul\":9638:9668   */\n      gt\n        /* \"#utility.yul\":9635:9752   */\n      iszero\n      tag_543\n      jumpi\n        /* \"#utility.yul\":9671:9750   */\n      tag_544\n      tag_368\n      jump\t// in\n    tag_544:\n        /* \"#utility.yul\":9635:9752   */\n    tag_543:\n        /* \"#utility.yul\":9785:9789   */\n      0x20\n        /* \"#utility.yul\":9777:9783   */\n      dup4\n        /* \"#utility.yul\":9773:9790   */\n      add\n        /* \"#utility.yul\":9761:9790   */\n      swap2\n      pop\n        /* \"#utility.yul\":9839:9842   */\n      dup4\n        /* \"#utility.yul\":9831:9835   */\n      0x20\n        /* \"#utility.yul\":9823:9829   */\n      dup3\n        /* \"#utility.yul\":9819:9836   */\n      mul\n        /* \"#utility.yul\":9809:9817   */\n      dup4\n        /* \"#utility.yul\":9805:9837   */\n      add\n        /* \"#utility.yul\":9802:9843   */\n      gt\n        /* \"#utility.yul\":9799:9927   */\n      iszero\n      tag_545\n      jumpi\n        /* \"#utility.yul\":9846:9925   */\n      tag_546\n      tag_369\n      jump\t// in\n    tag_546:\n        /* \"#utility.yul\":9799:9927   */\n    tag_545:\n        /* \"#utility.yul\":9366:9933   */\n      swap3\n      pop\n      swap3\n      swap1\n      pop\n      jump\t// out\n        /* \"#utility.yul\":9939:11280   */\n    tag_75:\n        /* \"#utility.yul\":10113:10119   */\n      0x00\n        /* \"#utility.yul\":10121:10127   */\n      dup1\n        /* \"#utility.yul\":10129:10135   */\n      0x00\n        /* \"#utility.yul\":10137:10143   */\n      dup1\n        /* \"#utility.yul\":10145:10151   */\n      0x00\n        /* \"#utility.yul\":10153:10159   */\n      dup1\n        /* \"#utility.yul\":10202:10204   */\n      0x60\n        /* \"#utility.yul\":10190:10199   */\n      dup8\n        /* \"#utility.yul\":10181:10188   */\n      dup10\n        /* \"#utility.yul\":10177:10200   */\n      sub\n        /* \"#utility.yul\":10173:10205   */\n      slt\n        /* \"#utility.yul\":10170:10289   */\n      iszero\n      tag_548\n      jumpi\n        /* \"#utility.yul\":10208:10287   */\n      tag_549\n      tag_338\n      jump\t// in\n    tag_549:\n        /* \"#utility.yul\":10170:10289   */\n    tag_548:\n        /* \"#utility.yul\":10356:10357   */\n      0x00\n        /* \"#utility.yul\":10345:10354   */\n      dup8\n        /* \"#utility.yul\":10341:10358   */\n      add\n        /* \"#utility.yul\":10328:10359   */\n      calldataload\n        /* \"#utility.yul\":10386:10404   */\n      0xffffffffffffffff\n        /* \"#utility.yul\":10378:10384   */\n      dup2\n        /* \"#utility.yul\":10375:10405   */\n      gt\n        /* \"#utility.yul\":10372:10489   */\n      iszero\n      tag_550\n      jumpi\n        /* \"#utility.yul\":10408:10487   */\n      tag_551\n      tag_339\n      jump\t// in\n    tag_551:\n        /* \"#utility.yul\":10372:10489   */\n    tag_550:\n        /* \"#utility.yul\":10521:10601   */\n      tag_552\n        /* \"#utility.yul\":10593:10600   */\n      dup10\n        /* \"#utility.yul\":10584:10590   */\n      dup3\n        /* \"#utility.yul\":10573:10582   */\n      dup11\n        /* \"#utility.yul\":10569:10591   */\n      add\n        /* \"#utility.yul\":10521:10601   */\n      tag_370\n      jump\t// in\n    tag_552:\n        /* \"#utility.yul\":10503:10601   */\n      swap7\n      pop\n      swap7\n      pop\n        /* \"#utility.yul\":10299:10611   */\n      pop\n        /* \"#utility.yul\":10678:10680   */\n      0x20\n        /* \"#utility.yul\":10667:10676   */\n      dup8\n        /* \"#utility.yul\":10663:10681   */\n      add\n        /* \"#utility.yul\":10650:10682   */\n      calldataload\n        /* \"#utility.yul\":10709:10727   */\n      0xffffffffffffffff\n        /* \"#utility.yul\":10701:10707   */\n      dup2\n        /* \"#utility.yul\":10698:10728   */\n      gt\n        /* \"#utility.yul\":10695:10812   */\n      iszero\n      tag_553\n      jumpi\n        /* \"#utility.yul\":10731:10810   */\n      tag_554\n      tag_339\n      jump\t// in\n    tag_554:\n        /* \"#utility.yul\":10695:10812   */\n    tag_553:\n        /* \"#utility.yul\":10844:10941   */\n      tag_555\n        /* \"#utility.yul\":10933:10940   */\n      dup10\n        /* \"#utility.yul\":10924:10930   */\n      dup3\n        /* \"#utility.yul\":10913:10922   */\n      dup11\n        /* \"#utility.yul\":10909:10931   */\n      add\n        /* \"#utility.yul\":10844:10941   */\n      tag_371\n      jump\t// in\n    tag_555:\n        /* \"#utility.yul\":10826:10941   */\n      swap5\n      pop\n      swap5\n      pop\n        /* \"#utility.yul\":10621:10951   */\n      pop\n        /* \"#utility.yul\":11018:11020   */\n      0x40\n        /* \"#utility.yul\":11007:11016   */\n      dup8\n        /* \"#utility.yul\":11003:11021   */\n      add\n        /* \"#utility.yul\":10990:11022   */\n      calldataload\n        /* \"#utility.yul\":11049:11067   */\n      0xffffffffffffffff\n        /* \"#utility.yul\":11041:11047   */\n      dup2\n        /* \"#utility.yul\":11038:11068   */\n      gt\n        /* \"#utility.yul\":11035:11152   */\n      iszero\n      tag_556\n      jumpi\n        /* \"#utility.yul\":11071:11150   */\n      tag_557\n      tag_339\n      jump\t// in\n    tag_557:\n        /* \"#utility.yul\":11035:11152   */\n    tag_556:\n        /* \"#utility.yul\":11184:11263   */\n      tag_558\n        /* \"#utility.yul\":11255:11262   */\n      dup10\n        /* \"#utility.yul\":11246:11252   */\n      dup3\n        /* \"#utility.yul\":11235:11244   */\n      dup11\n        /* \"#utility.yul\":11231:11253   */\n      add\n        /* \"#utility.yul\":11184:11263   */\n      tag_372\n      jump\t// in\n    tag_558:\n        /* \"#utility.yul\":11166:11263   */\n      swap3\n      pop\n      swap3\n      pop\n        /* \"#utility.yul\":10961:11273   */\n      pop\n        /* \"#utility.yul\":9939:11280   */\n      swap3\n      swap6\n      pop\n      swap3\n      swap6\n      pop\n      swap3\n      swap6\n      jump\t// out\n        /* \"#utility.yul\":11286:11411   */\n    tag_373:\n        /* \"#utility.yul\":11352:11359   */\n      0x00\n        /* \"#utility.yul\":11381:11405   */\n      tag_560\n        /* \"#utility.yul\":11399:11404   */\n      dup3\n        /* \"#utility.yul\":11381:11405   */\n      tag_350\n      jump\t// in\n    tag_560:\n        /* \"#utility.yul\":11370:11405   */\n      swap1\n      pop\n        /* \"#utility.yul\":11286:11411   */\n      swap2\n      swap1\n      pop\n      jump\t// out\n        /* \"#utility.yul\":11417:11597   */\n    tag_374:\n        /* \"#utility.yul\":11519:11572   */\n      tag_562\n        /* \"#utility.yul\":11566:11571   */\n      dup2\n        /* \"#utility.yul\":11519:11572   */\n      tag_373\n      jump\t// in\n    tag_562:\n        /* \"#utility.yul\":11512:11517   */\n      dup2\n        /* \"#utility.yul\":11509:11573   */\n      eq\n        /* \"#utility.yul\":11499:11591   */\n      tag_563\n      jumpi\n        /* \"#utility.yul\":11587:11588   */\n      0x00\n        /* \"#utility.yul\":11584:11585   */\n      dup1\n        /* \"#utility.yul\":11577:11589   */\n      revert\n        /* \"#utility.yul\":11499:11591   */\n    tag_563:\n        /* \"#utility.yul\":11417:11597   */\n      pop\n      jump\t// out\n        /* \"#utility.yul\":11603:11800   */\n    tag_375:\n        /* \"#utility.yul\":11678:11683   */\n      0x00\n        /* \"#utility.yul\":11716:11722   */\n      dup2\n        /* \"#utility.yul\":11703:11723   */\n      calldataload\n        /* \"#utility.yul\":11694:11723   */\n      swap1\n      pop\n        /* \"#utility.yul\":11732:11794   */\n      tag_565\n        /* \"#utility.yul\":11788:11793   */\n      dup2\n        /* \"#utility.yul\":11732:11794   */\n      tag_374\n      jump\t// in\n    tag_565:\n        /* \"#utility.yul\":11603:11800   */\n      swap3\n      swap2\n      pop\n      pop\n      jump\t// out\n        /* \"#utility.yul\":11806:12193   */\n    tag_79:\n        /* \"#utility.yul\":11894:11900   */\n      0x00\n        /* \"#utility.yul\":11943:11945   */\n      0x20\n        /* \"#utility.yul\":11931:11940   */\n      dup3\n        /* \"#utility.yul\":11922:11929   */\n      dup5\n        /* \"#utility.yul\":11918:11941   */\n      sub\n        /* \"#utility.yul\":11914:11946   */\n      slt\n        /* \"#utility.yul\":11911:12030   */\n      iszero\n      tag_567\n      jumpi\n        /* \"#utility.yul\":11949:12028   */\n      tag_568\n      tag_338\n      jump\t// in\n    tag_568:\n        /* \"#utility.yul\":11911:12030   */\n    tag_567:\n        /* \"#utility.yul\":12069:12070   */\n      0x00\n        /* \"#utility.yul\":12094:12176   */\n      tag_569\n        /* \"#utility.yul\":12168:12175   */\n      dup5\n        /* \"#utility.yul\":12159:12165   */\n      dup3\n        /* \"#utility.yul\":12148:12157   */\n      dup6\n        /* \"#utility.yul\":12144:12166   */\n      add\n        /* \"#utility.yul\":12094:12176   */\n      tag_375\n      jump\t// in\n    tag_569:\n        /* \"#utility.yul\":12084:12176   */\n      swap2\n      pop\n        /* \"#utility.yul\":12040:12186   */\n      pop\n        /* \"#utility.yul\":11806:12193   */\n      swap3\n      swap2\n      pop\n      pop\n      jump\t// out\n        /* \"#utility.yul\":12199:12325   */\n    tag_376:\n        /* \"#utility.yul\":12266:12273   */\n      0x00\n        /* \"#utility.yul\":12295:12319   */\n      tag_571\n        /* \"#utility.yul\":12313:12318   */\n      dup3\n        /* \"#utility.yul\":12295:12319   */\n      tag_350\n      jump\t// in\n    tag_571:\n        /* \"#utility.yul\":12284:12319   */\n      swap1\n      pop\n        /* \"#utility.yul\":12199:12325   */\n      swap2\n      swap1\n      pop\n      jump\t// out\n        /* \"#utility.yul\":12331:12513   */\n    tag_377:\n        /* \"#utility.yul\":12434:12488   */\n      tag_573\n        /* \"#utility.yul\":12482:12487   */\n      dup2\n        /* \"#utility.yul\":12434:12488   */\n      tag_376\n      jump\t// in\n    tag_573:\n        /* \"#utility.yul\":12427:12432   */\n      dup2\n        /* \"#utility.yul\":12424:12489   */\n      eq\n        /* \"#utility.yul\":12414:12507   */\n      tag_574\n      jumpi\n        /* \"#utility.yul\":12503:12504   */\n      0x00\n        /* \"#utility.yul\":12500:12501   */\n      dup1\n        /* \"#utility.yul\":12493:12505   */\n      revert\n        /* \"#utility.yul\":12414:12507   */\n    tag_574:\n        /* \"#utility.yul\":12331:12513   */\n      pop\n      jump\t// out\n        /* \"#utility.yul\":12519:12718   */\n    tag_378:\n        /* \"#utility.yul\":12595:12600   */\n      0x00\n        /* \"#utility.yul\":12633:12639   */\n      dup2\n        /* \"#utility.yul\":12620:12640   */\n      calldataload\n        /* \"#utility.yul\":12611:12640   */\n      swap1\n      pop\n        /* \"#utility.yul\":12649:12712   */\n      tag_576\n        /* \"#utility.yul\":12706:12711   */\n      dup2\n        /* \"#utility.yul\":12649:12712   */\n      tag_377\n      jump\t// in\n    tag_576:\n        /* \"#utility.yul\":12519:12718   */\n      swap3\n      swap2\n      pop\n      pop\n      jump\t// out\n        /* \"#utility.yul\":12724:13113   */\n    tag_83:\n        /* \"#utility.yul\":12813:12819   */\n      0x00\n        /* \"#utility.yul\":12862:12864   */\n      0x20\n        /* \"#utility.yul\":12850:12859   */\n      dup3\n        /* \"#utility.yul\":12841:12848   */\n      dup5\n        /* \"#utility.yul\":12837:12860   */\n      sub\n        /* \"#utility.yul\":12833:12865   */\n      slt\n        /* \"#utility.yul\":12830:12949   */\n      iszero\n      tag_578\n      jumpi\n        /* \"#utility.yul\":12868:12947   */\n      tag_579\n      tag_338\n      jump\t// in\n    tag_579:\n        /* \"#utility.yul\":12830:12949   */\n    tag_578:\n        /* \"#utility.yul\":12988:12989   */\n      0x00\n        /* \"#utility.yul\":13013:13096   */\n      tag_580\n        /* \"#utility.yul\":13088:13095   */\n      dup5\n        /* \"#utility.yul\":13079:13085   */\n      dup3\n        /* \"#utility.yul\":13068:13077   */\n      dup6\n        /* \"#utility.yul\":13064:13086   */\n      add\n        /* \"#utility.yul\":13013:13096   */\n      tag_378\n      jump\t// in\n    tag_580:\n        /* \"#utility.yul\":13003:13096   */\n      swap2\n      pop\n        /* \"#utility.yul\":12959:13106   */\n      pop\n        /* \"#utility.yul\":12724:13113   */\n      swap3\n      swap2\n      pop\n      pop\n      jump\t// out\n        /* \"#utility.yul\":13119:13234   */\n    tag_379:\n        /* \"#utility.yul\":13204:13227   */\n      tag_582\n        /* \"#utility.yul\":13221:13226   */\n      dup2\n        /* \"#utility.yul\":13204:13227   */\n      tag_356\n      jump\t// in\n    tag_582:\n        /* \"#utility.yul\":13199:13202   */\n      dup3\n        /* \"#utility.yul\":13192:13228   */\n      mstore\n        /* \"#utility.yul\":13119:13234   */\n      pop\n      pop\n      jump\t// out\n        /* \"#utility.yul\":13240:13458   */\n    tag_89:\n        /* \"#utility.yul\":13331:13335   */\n      0x00\n        /* \"#utility.yul\":13369:13371   */\n      0x20\n        /* \"#utility.yul\":13358:13367   */\n      dup3\n        /* \"#utility.yul\":13354:13372   */\n      add\n        /* \"#utility.yul\":13346:13372   */\n      swap1\n      pop\n        /* \"#utility.yul\":13382:13451   */\n      tag_584\n        /* \"#utility.yul\":13448:13449   */\n      0x00\n        /* \"#utility.yul\":13437:13446   */\n      dup4\n        /* \"#utility.yul\":13433:13450   */\n      add\n        /* \"#utility.yul\":13424:13430   */\n      dup5\n        /* \"#utility.yul\":13382:13451   */\n      tag_379\n      jump\t// in\n    tag_584:\n        /* \"#utility.yul\":13240:13458   */\n      swap3\n      swap2\n      pop\n      pop\n      jump\t// out\n        /* \"#utility.yul\":13464:13972   */\n    tag_92:\n        /* \"#utility.yul\":13549:13555   */\n      0x00\n        /* \"#utility.yul\":13557:13563   */\n      dup1\n        /* \"#utility.yul\":13606:13608   */\n      0x40\n        /* \"#utility.yul\":13594:13603   */\n      dup4\n        /* \"#utility.yul\":13585:13592   */\n      dup6\n        /* \"#utility.yul\":13581:13604   */\n      sub\n        /* \"#utility.yul\":13577:13609   */\n      slt\n        /* \"#utility.yul\":13574:13693   */\n      iszero\n      tag_586\n      jumpi\n        /* \"#utility.yul\":13612:13691   */\n      tag_587\n      tag_338\n      jump\t// in\n    tag_587:\n        /* \"#utility.yul\":13574:13693   */\n    tag_586:\n        /* \"#utility.yul\":13732:13733   */\n      0x00\n        /* \"#utility.yul\":13757:13810   */\n      tag_588\n        /* \"#utility.yul\":13802:13809   */\n      dup6\n        /* \"#utility.yul\":13793:13799   */\n      dup3\n        /* \"#utility.yul\":13782:13791   */\n      dup7\n        /* \"#utility.yul\":13778:13800   */\n      add\n        /* \"#utility.yul\":13757:13810   */\n      tag_355\n      jump\t// in\n    tag_588:\n        /* \"#utility.yul\":13747:13810   */\n      swap3\n      pop\n        /* \"#utility.yul\":13703:13820   */\n      pop\n        /* \"#utility.yul\":13859:13861   */\n      0x20\n        /* \"#utility.yul\":13885:13955   */\n      tag_589\n        /* \"#utility.yul\":13947:13954   */\n      dup6\n        /* \"#utility.yul\":13938:13944   */\n      dup3\n        /* \"#utility.yul\":13927:13936   */\n      dup7\n        /* \"#utility.yul\":13923:13945   */\n      add\n        /* \"#utility.yul\":13885:13955   */\n      tag_366\n      jump\t// in\n    tag_589:\n        /* \"#utility.yul\":13875:13955   */\n      swap2\n      pop\n        /* \"#utility.yul\":13830:13965   */\n      pop\n        /* \"#utility.yul\":13464:13972   */\n      swap3\n      pop\n      swap3\n      swap1\n      pop\n      jump\t// out\n        /* \"#utility.yul\":13978:14134   */\n    tag_380:\n        /* \"#utility.yul\":14058:14067   */\n      0x00\n        /* \"#utility.yul\":14091:14128   */\n      tag_591\n        /* \"#utility.yul\":14122:14127   */\n      dup3\n        /* \"#utility.yul\":14091:14128   */\n      tag_361\n      jump\t// in\n    tag_591:\n        /* \"#utility.yul\":14078:14128   */\n      swap1\n      pop\n        /* \"#utility.yul\":13978:14134   */\n      swap2\n      swap1\n      pop\n      jump\t// out\n        /* \"#utility.yul\":14140:14331   */\n    tag_381:\n        /* \"#utility.yul\":14257:14324   */\n      tag_593\n        /* \"#utility.yul\":14318:14323   */\n      dup2\n        /* \"#utility.yul\":14257:14324   */\n      tag_380\n      jump\t// in\n    tag_593:\n        /* \"#utility.yul\":14252:14255   */\n      dup3\n        /* \"#utility.yul\":14245:14325   */\n      mstore\n        /* \"#utility.yul\":14140:14331   */\n      pop\n      pop\n      jump\t// out\n        /* \"#utility.yul\":14337:14619   */\n    tag_107:\n        /* \"#utility.yul\":14460:14464   */\n      0x00\n        /* \"#utility.yul\":14498:14500   */\n      0x20\n        /* \"#utility.yul\":14487:14496   */\n      dup3\n        /* \"#utility.yul\":14483:14501   */\n      add\n        /* \"#utility.yul\":14475:14501   */\n      swap1\n      pop\n        /* \"#utility.yul\":14511:14612   */\n      tag_595\n        /* \"#utility.yul\":14609:14610   */\n      0x00\n        /* \"#utility.yul\":14598:14607   */\n      dup4\n        /* \"#utility.yul\":14594:14611   */\n      add\n        /* \"#utility.yul\":14585:14591   */\n      dup5\n        /* \"#utility.yul\":14511:14612   */\n      tag_381\n      jump\t// in\n    tag_595:\n        /* \"#utility.yul\":14337:14619   */\n      swap3\n      swap2\n      pop\n      pop\n      jump\t// out\n        /* \"#utility.yul\":14625:14768   */\n    tag_382:\n        /* \"#utility.yul\":14692:14701   */\n      0x00\n        /* \"#utility.yul\":14725:14762   */\n      tag_597\n        /* \"#utility.yul\":14756:14761   */\n      dup3\n        /* \"#utility.yul\":14725:14762   */\n      tag_361\n      jump\t// in\n    tag_597:\n        /* \"#utility.yul\":14712:14762   */\n      swap1\n      pop\n        /* \"#utility.yul\":14625:14768   */\n      swap2\n      swap1\n      pop\n      jump\t// out\n        /* \"#utility.yul\":14774:14939   */\n    tag_383:\n        /* \"#utility.yul\":14878:14932   */\n      tag_599\n        /* \"#utility.yul\":14926:14931   */\n      dup2\n        /* \"#utility.yul\":14878:14932   */\n      tag_382\n      jump\t// in\n    tag_599:\n        /* \"#utility.yul\":14873:14876   */\n      dup3\n        /* \"#utility.yul\":14866:14933   */\n      mstore\n        /* \"#utility.yul\":14774:14939   */\n      pop\n      pop\n      jump\t// out\n        /* \"#utility.yul\":14945:15201   */\n    tag_122:\n        /* \"#utility.yul\":15055:15059   */\n      0x00\n        /* \"#utility.yul\":15093:15095   */\n      0x20\n        /* \"#utility.yul\":15082:15091   */\n      dup3\n        /* \"#utility.yul\":15078:15096   */\n      add\n        /* \"#utility.yul\":15070:15096   */\n      swap1\n      pop\n        /* \"#utility.yul\":15106:15194   */\n      tag_601\n        /* \"#utility.yul\":15191:15192   */\n      0x00\n        /* \"#utility.yul\":15180:15189   */\n      dup4\n        /* \"#utility.yul\":15176:15193   */\n      add\n        /* \"#utility.yul\":15167:15173   */\n      dup5\n        /* \"#utility.yul\":15106:15194   */\n      tag_383\n      jump\t// in\n    tag_601:\n        /* \"#utility.yul\":14945:15201   */\n      swap3\n      swap2\n      pop\n      pop\n      jump\t// out\n        /* \"#utility.yul\":15207:15366   */\n    tag_384:\n        /* \"#utility.yul\":15290:15299   */\n      0x00\n        /* \"#utility.yul\":15323:15360   */\n      tag_603\n        /* \"#utility.yul\":15354:15359   */\n      dup3\n        /* \"#utility.yul\":15323:15360   */\n      tag_361\n      jump\t// in\n    tag_603:\n        /* \"#utility.yul\":15310:15360   */\n      swap1\n      pop\n        /* \"#utility.yul\":15207:15366   */\n      swap2\n      swap1\n      pop\n      jump\t// out\n        /* \"#utility.yul\":15372:15569   */\n    tag_385:\n        /* \"#utility.yul\":15492:15562   */\n      tag_605\n        /* \"#utility.yul\":15556:15561   */\n      dup2\n        /* \"#utility.yul\":15492:15562   */\n      tag_384\n      jump\t// in\n    tag_605:\n        /* \"#utility.yul\":15487:15490   */\n      dup3\n        /* \"#utility.yul\":15480:15563   */\n      mstore\n        /* \"#utility.yul\":15372:15569   */\n      pop\n      pop\n      jump\t// out\n        /* \"#utility.yul\":15575:15863   */\n    tag_126:\n        /* \"#utility.yul\":15701:15705   */\n      0x00\n        /* \"#utility.yul\":15739:15741   */\n      0x20\n        /* \"#utility.yul\":15728:15737   */\n      dup3\n        /* \"#utility.yul\":15724:15742   */\n      add\n        /* \"#utility.yul\":15716:15742   */\n      swap1\n      pop\n        /* \"#utility.yul\":15752:15856   */\n      tag_607\n        /* \"#utility.yul\":15853:15854   */\n      0x00\n        /* \"#utility.yul\":15842:15851   */\n      dup4\n        /* \"#utility.yul\":15838:15855   */\n      add\n        /* \"#utility.yul\":15829:15835   */\n      dup5\n        /* \"#utility.yul\":15752:15856   */\n      tag_385\n      jump\t// in\n    tag_607:\n        /* \"#utility.yul\":15575:15863   */\n      swap3\n      swap2\n      pop\n      pop\n      jump\t// out\n        /* \"#utility.yul\":15869:15987   */\n    tag_386:\n        /* \"#utility.yul\":15956:15980   */\n      tag_609\n        /* \"#utility.yul\":15974:15979   */\n      dup2\n        /* \"#utility.yul\":15956:15980   */\n      tag_350\n      jump\t// in\n    tag_609:\n        /* \"#utility.yul\":15951:15954   */\n      dup3\n        /* \"#utility.yul\":15944:15981   */\n      mstore\n        /* \"#utility.yul\":15869:15987   */\n      pop\n      pop\n      jump\t// out\n        /* \"#utility.yul\":15993:16321   */\n    tag_152:\n        /* \"#utility.yul\":16112:16116   */\n      0x00\n        /* \"#utility.yul\":16150:16152   */\n      0x40\n        /* \"#utility.yul\":16139:16148   */\n      dup3\n        /* \"#utility.yul\":16135:16153   */\n      add\n        /* \"#utility.yul\":16127:16153   */\n      swap1\n      pop\n        /* \"#utility.yul\":16163:16234   */\n      tag_611\n        /* \"#utility.yul\":16231:16232   */\n      0x00\n        /* \"#utility.yul\":16220:16229   */\n      dup4\n        /* \"#utility.yul\":16216:16233   */\n      add\n        /* \"#utility.yul\":16207:16213   */\n      dup6\n        /* \"#utility.yul\":16163:16234   */\n      tag_386\n      jump\t// in\n    tag_611:\n        /* \"#utility.yul\":16244:16314   */\n      tag_612\n        /* \"#utility.yul\":16310:16312   */\n      0x20\n        /* \"#utility.yul\":16299:16308   */\n      dup4\n        /* \"#utility.yul\":16295:16313   */\n      add\n        /* \"#utility.yul\":16286:16292   */\n      dup5\n        /* \"#utility.yul\":16244:16314   */\n      tag_379\n      jump\t// in\n    tag_612:\n        /* \"#utility.yul\":15993:16321   */\n      swap4\n      swap3\n      pop\n      pop\n      pop\n      jump\t// out\n        /* \"#utility.yul\":16327:16496   */\n    tag_387:\n        /* \"#utility.yul\":16411:16422   */\n      0x00\n        /* \"#utility.yul\":16445:16451   */\n      dup3\n        /* \"#utility.yul\":16440:16443   */\n      dup3\n        /* \"#utility.yul\":16433:16452   */\n      mstore\n        /* \"#utility.yul\":16485:16489   */\n      0x20\n        /* \"#utility.yul\":16480:16483   */\n      dup3\n        /* \"#utility.yul\":16476:16490   */\n      add\n        /* \"#utility.yul\":16461:16490   */\n      swap1\n      pop\n        /* \"#utility.yul\":16327:16496   */\n      swap3\n      swap2\n      pop\n      pop\n      jump\t// out\n        /* \"#utility.yul\":16502:16681   */\n    tag_388:\n        /* \"#utility.yul\":16642:16673   */\n      0x4552432d333634333a2041727261792073697a65206d69736d61746368000000\n        /* \"#utility.yul\":16638:16639   */\n      0x00\n        /* \"#utility.yul\":16630:16636   */\n      dup3\n        /* \"#utility.yul\":16626:16640   */\n      add\n        /* \"#utility.yul\":16619:16674   */\n      mstore\n        /* \"#utility.yul\":16502:16681   */\n      pop\n      jump\t// out\n        /* \"#utility.yul\":16687:17053   */\n    tag_389:\n        /* \"#utility.yul\":16829:16832   */\n      0x00\n        /* \"#utility.yul\":16850:16917   */\n      tag_616\n        /* \"#utility.yul\":16914:16916   */\n      0x1d\n        /* \"#utility.yul\":16909:16912   */\n      dup4\n        /* \"#utility.yul\":16850:16917   */\n      tag_387\n      jump\t// in\n    tag_616:\n        /* \"#utility.yul\":16843:16917   */\n      swap2\n      pop\n        /* \"#utility.yul\":16926:17019   */\n      tag_617\n        /* \"#utility.yul\":17015:17018   */\n      dup3\n        /* \"#utility.yul\":16926:17019   */\n      tag_388\n      jump\t// in\n    tag_617:\n        /* \"#utility.yul\":17044:17046   */\n      0x20\n        /* \"#utility.yul\":17039:17042   */\n      dup3\n        /* \"#utility.yul\":17035:17047   */\n      add\n        /* \"#utility.yul\":17028:17047   */\n      swap1\n      pop\n        /* \"#utility.yul\":16687:17053   */\n      swap2\n      swap1\n      pop\n      jump\t// out\n        /* \"#utility.yul\":17059:17478   */\n    tag_171:\n        /* \"#utility.yul\":17225:17229   */\n      0x00\n        /* \"#utility.yul\":17263:17265   */\n      0x20\n        /* \"#utility.yul\":17252:17261   */\n      dup3\n        /* \"#utility.yul\":17248:17266   */\n      add\n        /* \"#utility.yul\":17240:17266   */\n      swap1\n      pop\n        /* \"#utility.yul\":17312:17321   */\n      dup2\n        /* \"#utility.yul\":17306:17310   */\n      dup2\n        /* \"#utility.yul\":17302:17322   */\n      sub\n        /* \"#utility.yul\":17298:17299   */\n      0x00\n        /* \"#utility.yul\":17287:17296   */\n      dup4\n        /* \"#utility.yul\":17283:17300   */\n      add\n        /* \"#utility.yul\":17276:17323   */\n      mstore\n        /* \"#utility.yul\":17340:17471   */\n      tag_619\n        /* \"#utility.yul\":17466:17470   */\n      dup2\n        /* \"#utility.yul\":17340:17471   */\n      tag_389\n      jump\t// in\n    tag_619:\n        /* \"#utility.yul\":17332:17471   */\n      swap1\n      pop\n        /* \"#utility.yul\":17059:17478   */\n      swap2\n      swap1\n      pop\n      jump\t// out\n        /* \"#utility.yul\":17484:17664   */\n    tag_180:\n        /* \"#utility.yul\":17532:17609   */\n      0x4e487b7100000000000000000000000000000000000000000000000000000000\n        /* \"#utility.yul\":17529:17530   */\n      0x00\n        /* \"#utility.yul\":17522:17610   */\n      mstore\n        /* \"#utility.yul\":17629:17633   */\n      0x32\n        /* \"#utility.yul\":17626:17627   */\n      0x04\n        /* \"#utility.yul\":17619:17634   */\n      mstore\n        /* \"#utility.yul\":17653:17657   */\n      0x24\n        /* \"#utility.yul\":17650:17651   */\n      0x00\n        /* \"#utility.yul\":17643:17658   */\n      revert\n        /* \"#utility.yul\":17670:18033   */\n    tag_185:\n        /* \"#utility.yul\":17746:17752   */\n      0x00\n        /* \"#utility.yul\":17795:17797   */\n      0x20\n        /* \"#utility.yul\":17783:17792   */\n      dup3\n        /* \"#utility.yul\":17774:17781   */\n      dup5\n        /* \"#utility.yul\":17770:17793   */\n      sub\n        /* \"#utility.yul\":17766:17798   */\n      slt\n        /* \"#utility.yul\":17763:17882   */\n      iszero\n      tag_622\n      jumpi\n        /* \"#utility.yul\":17801:17880   */\n      tag_623\n      tag_338\n      jump\t// in\n    tag_623:\n        /* \"#utility.yul\":17763:17882   */\n    tag_622:\n        /* \"#utility.yul\":17921:17922   */\n      0x00\n        /* \"#utility.yul\":17946:18016   */\n      tag_624\n        /* \"#utility.yul\":18008:18015   */\n      dup5\n        /* \"#utility.yul\":17999:18005   */\n      dup3\n        /* \"#utility.yul\":17988:17997   */\n      dup6\n        /* \"#utility.yul\":17984:18006   */\n      add\n        /* \"#utility.yul\":17946:18016   */\n      tag_366\n      jump\t// in\n    tag_624:\n        /* \"#utility.yul\":17936:18016   */\n      swap2\n      pop\n        /* \"#utility.yul\":17892:18026   */\n      pop\n        /* \"#utility.yul\":17670:18033   */\n      swap3\n      swap2\n      pop\n      pop\n      jump\t// out\n        /* \"#utility.yul\":18039:18366   */\n    tag_189:\n        /* \"#utility.yul\":18097:18103   */\n      0x00\n        /* \"#utility.yul\":18146:18148   */\n      0x20\n        /* \"#utility.yul\":18134:18143   */\n      dup3\n        /* \"#utility.yul\":18125:18132   */\n      dup5\n        /* \"#utility.yul\":18121:18144   */\n      sub\n        /* \"#utility.yul\":18117:18149   */\n      slt\n        /* \"#utility.yul\":18114:18233   */\n      iszero\n      tag_626\n      jumpi\n        /* \"#utility.yul\":18152:18231   */\n      tag_627\n      tag_338\n      jump\t// in\n    tag_627:\n        /* \"#utility.yul\":18114:18233   */\n    tag_626:\n        /* \"#utility.yul\":18272:18273   */\n      0x00\n        /* \"#utility.yul\":18297:18349   */\n      tag_628\n        /* \"#utility.yul\":18341:18348   */\n      dup5\n        /* \"#utility.yul\":18332:18338   */\n      dup3\n        /* \"#utility.yul\":18321:18330   */\n      dup6\n        /* \"#utility.yul\":18317:18339   */\n      add\n        /* \"#utility.yul\":18297:18349   */\n      tag_358\n      jump\t// in\n    tag_628:\n        /* \"#utility.yul\":18287:18349   */\n      swap2\n      pop\n        /* \"#utility.yul\":18243:18359   */\n      pop\n        /* \"#utility.yul\":18039:18366   */\n      swap3\n      swap2\n      pop\n      pop\n      jump\t// out\n        /* \"#utility.yul\":18372:18594   */\n    tag_198:\n        /* \"#utility.yul\":18465:18469   */\n      0x00\n        /* \"#utility.yul\":18503:18505   */\n      0x20\n        /* \"#utility.yul\":18492:18501   */\n      dup3\n        /* \"#utility.yul\":18488:18506   */\n      add\n        /* \"#utility.yul\":18480:18506   */\n      swap1\n      pop\n        /* \"#utility.yul\":18516:18587   */\n      tag_630\n        /* \"#utility.yul\":18584:18585   */\n      0x00\n        /* \"#utility.yul\":18573:18582   */\n      dup4\n        /* \"#utility.yul\":18569:18586   */\n      add\n        /* \"#utility.yul\":18560:18566   */\n      dup5\n        /* \"#utility.yul\":18516:18587   */\n      tag_386\n      jump\t// in\n    tag_630:\n        /* \"#utility.yul\":18372:18594   */\n      swap3\n      swap2\n      pop\n      pop\n      jump\t// out\n        /* \"#utility.yul\":18600:18741   */\n    tag_390:\n        /* \"#utility.yul\":18656:18661   */\n      0x00\n        /* \"#utility.yul\":18687:18693   */\n      dup2\n        /* \"#utility.yul\":18681:18694   */\n      mload\n        /* \"#utility.yul\":18672:18694   */\n      swap1\n      pop\n        /* \"#utility.yul\":18703:18735   */\n      tag_632\n        /* \"#utility.yul\":18729:18734   */\n      dup2\n        /* \"#utility.yul\":18703:18735   */\n      tag_357\n      jump\t// in\n    tag_632:\n        /* \"#utility.yul\":18600:18741   */\n      swap3\n      swap2\n      pop\n      pop\n      jump\t// out\n        /* \"#utility.yul\":18747:19096   */\n    tag_202:\n        /* \"#utility.yul\":18816:18822   */\n      0x00\n        /* \"#utility.yul\":18865:18867   */\n      0x20\n        /* \"#utility.yul\":18853:18862   */\n      dup3\n        /* \"#utility.yul\":18844:18851   */\n      dup5\n        /* \"#utility.yul\":18840:18863   */\n      sub\n        /* \"#utility.yul\":18836:18868   */\n      slt\n        /* \"#utility.yul\":18833:18952   */\n      iszero\n      tag_634\n      jumpi\n        /* \"#utility.yul\":18871:18950   */\n      tag_635\n      tag_338\n      jump\t// in\n    tag_635:\n        /* \"#utility.yul\":18833:18952   */\n    tag_634:\n        /* \"#utility.yul\":18991:18992   */\n      0x00\n        /* \"#utility.yul\":19016:19079   */\n      tag_636\n        /* \"#utility.yul\":19071:19078   */\n      dup5\n        /* \"#utility.yul\":19062:19068   */\n      dup3\n        /* \"#utility.yul\":19051:19060   */\n      dup6\n        /* \"#utility.yul\":19047:19069   */\n      add\n        /* \"#utility.yul\":19016:19079   */\n      tag_390\n      jump\t// in\n    tag_636:\n        /* \"#utility.yul\":19006:19079   */\n      swap2\n      pop\n        /* \"#utility.yul\":18962:19089   */\n      pop\n        /* \"#utility.yul\":18747:19096   */\n      swap3\n      swap2\n      pop\n      pop\n      jump\t// out\n        /* \"#utility.yul\":19102:19468   */\n    tag_209:\n        /* \"#utility.yul\":19240:19244   */\n      0x00\n        /* \"#utility.yul\":19278:19280   */\n      0x40\n        /* \"#utility.yul\":19267:19276   */\n      dup3\n        /* \"#utility.yul\":19263:19281   */\n      add\n        /* \"#utility.yul\":19255:19281   */\n      swap1\n      pop\n        /* \"#utility.yul\":19291:19362   */\n      tag_638\n        /* \"#utility.yul\":19359:19360   */\n      0x00\n        /* \"#utility.yul\":19348:19357   */\n      dup4\n        /* \"#utility.yul\":19344:19361   */\n      add\n        /* \"#utility.yul\":19335:19341   */\n      dup6\n        /* \"#utility.yul\":19291:19362   */\n      tag_386\n      jump\t// in\n    tag_638:\n        /* \"#utility.yul\":19372:19461   */\n      tag_639\n        /* \"#utility.yul\":19457:19459   */\n      0x20\n        /* \"#utility.yul\":19446:19455   */\n      dup4\n        /* \"#utility.yul\":19442:19460   */\n      add\n        /* \"#utility.yul\":19433:19439   */\n      dup5\n        /* \"#utility.yul\":19372:19461   */\n      tag_383\n      jump\t// in\n    tag_639:\n        /* \"#utility.yul\":19102:19468   */\n      swap4\n      swap3\n      pop\n      pop\n      pop\n      jump\t// out\n        /* \"#utility.yul\":19474:19576   */\n    tag_391:\n        /* \"#utility.yul\":19515:19521   */\n      0x00\n        /* \"#utility.yul\":19566:19568   */\n      0x1f\n        /* \"#utility.yul\":19562:19569   */\n      not\n        /* \"#utility.yul\":19557:19559   */\n      0x1f\n        /* \"#utility.yul\":19550:19555   */\n      dup4\n        /* \"#utility.yul\":19546:19560   */\n      add\n        /* \"#utility.yul\":19542:19570   */\n      and\n        /* \"#utility.yul\":19532:19570   */\n      swap1\n      pop\n        /* \"#utility.yul\":19474:19576   */\n      swap2\n      swap1\n      pop\n      jump\t// out\n        /* \"#utility.yul\":19582:19762   */\n    tag_290:\n        /* \"#utility.yul\":19630:19707   */\n      0x4e487b7100000000000000000000000000000000000000000000000000000000\n        /* \"#utility.yul\":19627:19628   */\n      0x00\n        /* \"#utility.yul\":19620:19708   */\n      mstore\n        /* \"#utility.yul\":19727:19731   */\n      0x41\n        /* \"#utility.yul\":19724:19725   */\n      0x04\n        /* \"#utility.yul\":19717:19732   */\n      mstore\n        /* \"#utility.yul\":19751:19755   */\n      0x24\n        /* \"#utility.yul\":19748:19749   */\n      0x00\n        /* \"#utility.yul\":19741:19756   */\n      revert\n        /* \"#utility.yul\":19768:20049   */\n    tag_392:\n        /* \"#utility.yul\":19851:19878   */\n      tag_643\n        /* \"#utility.yul\":19873:19877   */\n      dup3\n        /* \"#utility.yul\":19851:19878   */\n      tag_391\n      jump\t// in\n    tag_643:\n        /* \"#utility.yul\":19843:19849   */\n      dup2\n        /* \"#utility.yul\":19839:19879   */\n      add\n        /* \"#utility.yul\":19981:19987   */\n      dup2\n        /* \"#utility.yul\":19969:19979   */\n      dup2\n        /* \"#utility.yul\":19966:19988   */\n      lt\n        /* \"#utility.yul\":19945:19963   */\n      0xffffffffffffffff\n        /* \"#utility.yul\":19933:19943   */\n      dup3\n        /* \"#utility.yul\":19930:19964   */\n      gt\n        /* \"#utility.yul\":19927:19989   */\n      or\n        /* \"#utility.yul\":19924:20012   */\n      iszero\n      tag_644\n      jumpi\n        /* \"#utility.yul\":19992:20010   */\n      tag_645\n      tag_290\n      jump\t// in\n    tag_645:\n        /* \"#utility.yul\":19924:20012   */\n    tag_644:\n        /* \"#utility.yul\":20032:20042   */\n      dup1\n        /* \"#utility.yul\":20028:20030   */\n      0x40\n        /* \"#utility.yul\":20021:20043   */\n      mstore\n        /* \"#utility.yul\":19811:20049   */\n      pop\n        /* \"#utility.yul\":19768:20049   */\n      pop\n      pop\n      jump\t// out\n        /* \"#utility.yul\":20055:20184   */\n    tag_393:\n        /* \"#utility.yul\":20089:20095   */\n      0x00\n        /* \"#utility.yul\":20116:20136   */\n      tag_647\n      tag_337\n      jump\t// in\n    tag_647:\n        /* \"#utility.yul\":20106:20136   */\n      swap1\n      pop\n        /* \"#utility.yul\":20145:20178   */\n      tag_648\n        /* \"#utility.yul\":20173:20177   */\n      dup3\n        /* \"#utility.yul\":20165:20171   */\n      dup3\n        /* \"#utility.yul\":20145:20178   */\n      tag_392\n      jump\t// in\n    tag_648:\n        /* \"#utility.yul\":20055:20184   */\n      swap2\n      swap1\n      pop\n      jump\t// out\n        /* \"#utility.yul\":20190:20501   */\n    tag_394:\n        /* \"#utility.yul\":20267:20271   */\n      0x00\n        /* \"#utility.yul\":20357:20375   */\n      0xffffffffffffffff\n        /* \"#utility.yul\":20349:20355   */\n      dup3\n        /* \"#utility.yul\":20346:20376   */\n      gt\n        /* \"#utility.yul\":20343:20399   */\n      iszero\n      tag_650\n      jumpi\n        /* \"#utility.yul\":20379:20397   */\n      tag_651\n      tag_290\n      jump\t// in\n    tag_651:\n        /* \"#utility.yul\":20343:20399   */\n    tag_650:\n        /* \"#utility.yul\":20429:20433   */\n      0x20\n        /* \"#utility.yul\":20421:20427   */\n      dup3\n        /* \"#utility.yul\":20417:20434   */\n      mul\n        /* \"#utility.yul\":20409:20434   */\n      swap1\n      pop\n        /* \"#utility.yul\":20489:20493   */\n      0x20\n        /* \"#utility.yul\":20483:20487   */\n      dup2\n        /* \"#utility.yul\":20479:20494   */\n      add\n        /* \"#utility.yul\":20471:20494   */\n      swap1\n      pop\n        /* \"#utility.yul\":20190:20501   */\n      swap2\n      swap1\n      pop\n      jump\t// out\n        /* \"#utility.yul\":20507:20584   */\n    tag_395:\n        /* \"#utility.yul\":20544:20551   */\n      0x00\n        /* \"#utility.yul\":20573:20578   */\n      dup2\n        /* \"#utility.yul\":20562:20578   */\n      swap1\n      pop\n        /* \"#utility.yul\":20507:20584   */\n      swap2\n      swap1\n      pop\n      jump\t// out\n        /* \"#utility.yul\":20590:20712   */\n    tag_396:\n        /* \"#utility.yul\":20663:20687   */\n      tag_654\n        /* \"#utility.yul\":20681:20686   */\n      dup2\n        /* \"#utility.yul\":20663:20687   */\n      tag_395\n      jump\t// in\n    tag_654:\n        /* \"#utility.yul\":20656:20661   */\n      dup2\n        /* \"#utility.yul\":20653:20688   */\n      eq\n        /* \"#utility.yul\":20643:20706   */\n      tag_655\n      jumpi\n        /* \"#utility.yul\":20702:20703   */\n      0x00\n        /* \"#utility.yul\":20699:20700   */\n      dup1\n        /* \"#utility.yul\":20692:20704   */\n      revert\n        /* \"#utility.yul\":20643:20706   */\n    tag_655:\n        /* \"#utility.yul\":20590:20712   */\n      pop\n      jump\t// out\n        /* \"#utility.yul\":20718:20861   */\n    tag_397:\n        /* \"#utility.yul\":20775:20780   */\n      0x00\n        /* \"#utility.yul\":20806:20812   */\n      dup2\n        /* \"#utility.yul\":20800:20813   */\n      mload\n        /* \"#utility.yul\":20791:20813   */\n      swap1\n      pop\n        /* \"#utility.yul\":20822:20855   */\n      tag_657\n        /* \"#utility.yul\":20849:20854   */\n      dup2\n        /* \"#utility.yul\":20822:20855   */\n      tag_396\n      jump\t// in\n    tag_657:\n        /* \"#utility.yul\":20718:20861   */\n      swap3\n      swap2\n      pop\n      pop\n      jump\t// out\n        /* \"#utility.yul\":20884:21616   */\n    tag_398:\n        /* \"#utility.yul\":20991:20996   */\n      0x00\n        /* \"#utility.yul\":21016:21097   */\n      tag_659\n        /* \"#utility.yul\":21032:21096   */\n      tag_660\n        /* \"#utility.yul\":21089:21095   */\n      dup5\n        /* \"#utility.yul\":21032:21096   */\n      tag_394\n      jump\t// in\n    tag_660:\n        /* \"#utility.yul\":21016:21097   */\n      tag_393\n      jump\t// in\n    tag_659:\n        /* \"#utility.yul\":21007:21097   */\n      swap1\n      pop\n        /* \"#utility.yul\":21117:21122   */\n      dup1\n        /* \"#utility.yul\":21146:21152   */\n      dup4\n        /* \"#utility.yul\":21139:21144   */\n      dup3\n        /* \"#utility.yul\":21132:21153   */\n      mstore\n        /* \"#utility.yul\":21180:21184   */\n      0x20\n        /* \"#utility.yul\":21173:21178   */\n      dup3\n        /* \"#utility.yul\":21169:21185   */\n      add\n        /* \"#utility.yul\":21162:21185   */\n      swap1\n      pop\n        /* \"#utility.yul\":21233:21237   */\n      0x20\n        /* \"#utility.yul\":21225:21231   */\n      dup5\n        /* \"#utility.yul\":21221:21238   */\n      mul\n        /* \"#utility.yul\":21213:21219   */\n      dup4\n        /* \"#utility.yul\":21209:21239   */\n      add\n        /* \"#utility.yul\":21262:21265   */\n      dup6\n        /* \"#utility.yul\":21254:21260   */\n      dup2\n        /* \"#utility.yul\":21251:21266   */\n      gt\n        /* \"#utility.yul\":21248:21370   */\n      iszero\n      tag_661\n      jumpi\n        /* \"#utility.yul\":21281:21360   */\n      tag_662\n      tag_369\n      jump\t// in\n    tag_662:\n        /* \"#utility.yul\":21248:21370   */\n    tag_661:\n        /* \"#utility.yul\":21396:21402   */\n      dup4\n        /* \"#utility.yul\":21379:21610   */\n    tag_663:\n        /* \"#utility.yul\":21413:21419   */\n      dup2\n        /* \"#utility.yul\":21408:21411   */\n      dup2\n        /* \"#utility.yul\":21405:21420   */\n      lt\n        /* \"#utility.yul\":21379:21610   */\n      iszero\n      tag_665\n      jumpi\n        /* \"#utility.yul\":21488:21491   */\n      dup1\n        /* \"#utility.yul\":21517:21565   */\n      tag_666\n        /* \"#utility.yul\":21561:21564   */\n      dup9\n        /* \"#utility.yul\":21549:21559   */\n      dup3\n        /* \"#utility.yul\":21517:21565   */\n      tag_397\n      jump\t// in\n    tag_666:\n        /* \"#utility.yul\":21512:21515   */\n      dup5\n        /* \"#utility.yul\":21505:21566   */\n      mstore\n        /* \"#utility.yul\":21595:21599   */\n      0x20\n        /* \"#utility.yul\":21590:21593   */\n      dup5\n        /* \"#utility.yul\":21586:21600   */\n      add\n        /* \"#utility.yul\":21579:21600   */\n      swap4\n      pop\n        /* \"#utility.yul\":21455:21610   */\n      pop\n        /* \"#utility.yul\":21439:21443   */\n      0x20\n        /* \"#utility.yul\":21434:21437   */\n      dup2\n        /* \"#utility.yul\":21430:21444   */\n      add\n        /* \"#utility.yul\":21423:21444   */\n      swap1\n      pop\n        /* \"#utility.yul\":21379:21610   */\n      jump(tag_663)\n    tag_665:\n        /* \"#utility.yul\":21383:21404   */\n      pop\n        /* \"#utility.yul\":20997:21616   */\n      pop\n      pop\n        /* \"#utility.yul\":20884:21616   */\n      swap4\n      swap3\n      pop\n      pop\n      pop\n      jump\t// out\n        /* \"#utility.yul\":21639:22024   */\n    tag_399:\n        /* \"#utility.yul\":21721:21726   */\n      0x00\n        /* \"#utility.yul\":21770:21773   */\n      dup3\n        /* \"#utility.yul\":21763:21767   */\n      0x1f\n        /* \"#utility.yul\":21755:21761   */\n      dup4\n        /* \"#utility.yul\":21751:21768   */\n      add\n        /* \"#utility.yul\":21747:21774   */\n      slt\n        /* \"#utility.yul\":21737:21859   */\n      tag_668\n      jumpi\n        /* \"#utility.yul\":21778:21857   */\n      tag_669\n      tag_367\n      jump\t// in\n    tag_669:\n        /* \"#utility.yul\":21737:21859   */\n    tag_668:\n        /* \"#utility.yul\":21888:21894   */\n      dup2\n        /* \"#utility.yul\":21882:21895   */\n      mload\n        /* \"#utility.yul\":21913:22018   */\n      tag_670\n        /* \"#utility.yul\":22014:22017   */\n      dup5\n        /* \"#utility.yul\":22006:22012   */\n      dup3\n        /* \"#utility.yul\":21999:22003   */\n      0x20\n        /* \"#utility.yul\":21991:21997   */\n      dup7\n        /* \"#utility.yul\":21987:22004   */\n      add\n        /* \"#utility.yul\":21913:22018   */\n      tag_398\n      jump\t// in\n    tag_670:\n        /* \"#utility.yul\":21904:22018   */\n      swap2\n      pop\n        /* \"#utility.yul\":21727:22024   */\n      pop\n        /* \"#utility.yul\":21639:22024   */\n      swap3\n      swap2\n      pop\n      pop\n      jump\t// out\n        /* \"#utility.yul\":22030:22584   */\n    tag_229:\n        /* \"#utility.yul\":22125:22131   */\n      0x00\n        /* \"#utility.yul\":22174:22176   */\n      0x20\n        /* \"#utility.yul\":22162:22171   */\n      dup3\n        /* \"#utility.yul\":22153:22160   */\n      dup5\n        /* \"#utility.yul\":22149:22172   */\n      sub\n        /* \"#utility.yul\":22145:22177   */\n      slt\n        /* \"#utility.yul\":22142:22261   */\n      iszero\n      tag_672\n      jumpi\n        /* \"#utility.yul\":22180:22259   */\n      tag_673\n      tag_338\n      jump\t// in\n    tag_673:\n        /* \"#utility.yul\":22142:22261   */\n    tag_672:\n        /* \"#utility.yul\":22321:22322   */\n      0x00\n        /* \"#utility.yul\":22310:22319   */\n      dup3\n        /* \"#utility.yul\":22306:22323   */\n      add\n        /* \"#utility.yul\":22300:22324   */\n      mload\n        /* \"#utility.yul\":22351:22369   */\n      0xffffffffffffffff\n        /* \"#utility.yul\":22343:22349   */\n      dup2\n        /* \"#utility.yul\":22340:22370   */\n      gt\n        /* \"#utility.yul\":22337:22454   */\n      iszero\n      tag_674\n      jumpi\n        /* \"#utility.yul\":22373:22452   */\n      tag_675\n      tag_339\n      jump\t// in\n    tag_675:\n        /* \"#utility.yul\":22337:22454   */\n    tag_674:\n        /* \"#utility.yul\":22478:22567   */\n      tag_676\n        /* \"#utility.yul\":22559:22566   */\n      dup5\n        /* \"#utility.yul\":22550:22556   */\n      dup3\n        /* \"#utility.yul\":22539:22548   */\n      dup6\n        /* \"#utility.yul\":22535:22557   */\n      add\n        /* \"#utility.yul\":22478:22567   */\n      tag_399\n      jump\t// in\n    tag_676:\n        /* \"#utility.yul\":22468:22567   */\n      swap2\n      pop\n        /* \"#utility.yul\":22271:22577   */\n      pop\n        /* \"#utility.yul\":22030:22584   */\n      swap3\n      swap2\n      pop\n      pop\n      jump\t// out\n        /* \"#utility.yul\":22590:22770   */\n    tag_400:\n        /* \"#utility.yul\":22638:22715   */\n      0x4e487b7100000000000000000000000000000000000000000000000000000000\n        /* \"#utility.yul\":22635:22636   */\n      0x00\n        /* \"#utility.yul\":22628:22716   */\n      mstore\n        /* \"#utility.yul\":22735:22739   */\n      0x11\n        /* \"#utility.yul\":22732:22733   */\n      0x04\n        /* \"#utility.yul\":22725:22740   */\n      mstore\n        /* \"#utility.yul\":22759:22763   */\n      0x24\n        /* \"#utility.yul\":22756:22757   */\n      0x00\n        /* \"#utility.yul\":22749:22764   */\n      revert\n        /* \"#utility.yul\":22776:23009   */\n    tag_240:\n        /* \"#utility.yul\":22815:22818   */\n      0x00\n        /* \"#utility.yul\":22838:22862   */\n      tag_679\n        /* \"#utility.yul\":22856:22861   */\n      dup3\n        /* \"#utility.yul\":22838:22862   */\n      tag_395\n      jump\t// in\n    tag_679:\n        /* \"#utility.yul\":22829:22862   */\n      swap2\n      pop\n        /* \"#utility.yul\":22884:22950   */\n      0xffffffffffffffffffffffffffffffffffffffffffffffffffffffffffffffff\n        /* \"#utility.yul\":22877:22882   */\n      dup3\n        /* \"#utility.yul\":22874:22951   */\n      sub\n        /* \"#utility.yul\":22871:22974   */\n      tag_680\n      jumpi\n        /* \"#utility.yul\":22954:22972   */\n      tag_681\n      tag_400\n      jump\t// in\n    tag_681:\n        /* \"#utility.yul\":22871:22974   */\n    tag_680:\n        /* \"#utility.yul\":23001:23002   */\n      0x01\n        /* \"#utility.yul\":22994:22999   */\n      dup3\n        /* \"#utility.yul\":22990:23003   */\n      add\n        /* \"#utility.yul\":22983:23003   */\n      swap1\n      pop\n        /* \"#utility.yul\":22776:23009   */\n      swap2\n      swap1\n      pop\n      jump\t// out\n        /* \"#utility.yul\":23015:23192   */\n    tag_401:\n        /* \"#utility.yul\":23089:23094   */\n      0x00\n        /* \"#utility.yul\":23120:23126   */\n      dup2\n        /* \"#utility.yul\":23114:23127   */\n      mload\n        /* \"#utility.yul\":23105:23127   */\n      swap1\n      pop\n        /* \"#utility.yul\":23136:23186   */\n      tag_683\n        /* \"#utility.yul\":23180:23185   */\n      dup2\n        /* \"#utility.yul\":23136:23186   */\n      tag_365\n      jump\t// in\n    tag_683:\n        /* \"#utility.yul\":23015:23192   */\n      swap3\n      swap2\n      pop\n      pop\n      jump\t// out\n        /* \"#utility.yul\":23198:23583   */\n    tag_251:\n        /* \"#utility.yul\":23285:23291   */\n      0x00\n        /* \"#utility.yul\":23334:23336   */\n      0x20\n        /* \"#utility.yul\":23322:23331   */\n      dup3\n        /* \"#utility.yul\":23313:23320   */\n      dup5\n        /* \"#utility.yul\":23309:23332   */\n      sub\n        /* \"#utility.yul\":23305:23337   */\n      slt\n        /* \"#utility.yul\":23302:23421   */\n      iszero\n      tag_685\n      jumpi\n        /* \"#utility.yul\":23340:23419   */\n      tag_686\n      tag_338\n      jump\t// in\n    tag_686:\n        /* \"#utility.yul\":23302:23421   */\n    tag_685:\n        /* \"#utility.yul\":23460:23461   */\n      0x00\n        /* \"#utility.yul\":23485:23566   */\n      tag_687\n        /* \"#utility.yul\":23558:23565   */\n      dup5\n        /* \"#utility.yul\":23549:23555   */\n      dup3\n        /* \"#utility.yul\":23538:23547   */\n      dup6\n        /* \"#utility.yul\":23534:23556   */\n      add\n        /* \"#utility.yul\":23485:23566   */\n      tag_401\n      jump\t// in\n    tag_687:\n        /* \"#utility.yul\":23475:23566   */\n      swap2\n      pop\n        /* \"#utility.yul\":23431:23576   */\n      pop\n        /* \"#utility.yul\":23198:23583   */\n      swap3\n      swap2\n      pop\n      pop\n      jump\t// out\n        /* \"#utility.yul\":23589:24061   */\n    tag_271:\n        /* \"#utility.yul\":23753:23757   */\n      0x00\n        /* \"#utility.yul\":23791:23793   */\n      0x60\n        /* \"#utility.yul\":23780:23789   */\n      dup3\n        /* \"#utility.yul\":23776:23794   */\n      add\n        /* \"#utility.yul\":23768:23794   */\n      swap1\n      pop\n        /* \"#utility.yul\":23804:23875   */\n      tag_689\n        /* \"#utility.yul\":23872:23873   */\n      0x00\n        /* \"#utility.yul\":23861:23870   */\n      dup4\n        /* \"#utility.yul\":23857:23874   */\n      add\n        /* \"#utility.yul\":23848:23854   */\n      dup7\n        /* \"#utility.yul\":23804:23875   */\n      tag_386\n      jump\t// in\n    tag_689:\n        /* \"#utility.yul\":23885:23974   */\n      tag_690\n        /* \"#utility.yul\":23970:23972   */\n      0x20\n        /* \"#utility.yul\":23959:23968   */\n      dup4\n        /* \"#utility.yul\":23955:23973   */\n      add\n        /* \"#utility.yul\":23946:23952   */\n      dup6\n        /* \"#utility.yul\":23885:23974   */\n      tag_383\n      jump\t// in\n    tag_690:\n        /* \"#utility.yul\":23984:24054   */\n      tag_691\n        /* \"#utility.yul\":24050:24052   */\n      0x40\n        /* \"#utility.yul\":24039:24048   */\n      dup4\n        /* \"#utility.yul\":24035:24053   */\n      add\n        /* \"#utility.yul\":24026:24032   */\n      dup5\n        /* \"#utility.yul\":23984:24054   */\n      tag_379\n      jump\t// in\n    tag_691:\n        /* \"#utility.yul\":23589:24061   */\n      swap5\n      swap4\n      pop\n      pop\n      pop\n      pop\n      jump\t// out\n        /* \"#utility.yul\":24067:24185   */\n    tag_402:\n        /* \"#utility.yul\":24154:24178   */\n      tag_693\n        /* \"#utility.yul\":24172:24177   */\n      dup2\n        /* \"#utility.yul\":24154:24178   */\n      tag_395\n      jump\t// in\n    tag_693:\n        /* \"#utility.yul\":24149:24152   */\n      dup3\n        /* \"#utility.yul\":24142:24179   */\n      mstore\n        /* \"#utility.yul\":24067:24185   */\n      pop\n      pop\n      jump\t// out\n        /* \"#utility.yul\":24191:24413   */\n    tag_282:\n        /* \"#utility.yul\":24284:24288   */\n      0x00\n        /* \"#utility.yul\":24322:24324   */\n      0x20\n        /* \"#utility.yul\":24311:24320   */\n      dup3\n        /* \"#utility.yul\":24307:24325   */\n      add\n        /* \"#utility.yul\":24299:24325   */\n      swap1\n      pop\n        /* \"#utility.yul\":24335:24406   */\n      tag_695\n        /* \"#utility.yul\":24403:24404   */\n      0x00\n        /* \"#utility.yul\":24392:24401   */\n      dup4\n        /* \"#utility.yul\":24388:24405   */\n      add\n        /* \"#utility.yul\":24379:24385   */\n      dup5\n        /* \"#utility.yul\":24335:24406   */\n      tag_402\n      jump\t// in\n    tag_695:\n        /* \"#utility.yul\":24191:24413   */\n      swap3\n      swap2\n      pop\n      pop\n      jump\t// out\n        /* \"#utility.yul\":24419:24749   */\n    tag_403:\n        /* \"#utility.yul\":24515:24519   */\n      0x00\n        /* \"#utility.yul\":24605:24623   */\n      0xffffffffffffffff\n        /* \"#utility.yul\":24597:24603   */\n      dup3\n        /* \"#utility.yul\":24594:24624   */\n      gt\n        /* \"#utility.yul\":24591:24647   */\n      iszero\n      tag_697\n      jumpi\n        /* \"#utility.yul\":24627:24645   */\n      tag_698\n      tag_290\n      jump\t// in\n    tag_698:\n        /* \"#utility.yul\":24591:24647   */\n    tag_697:\n        /* \"#utility.yul\":24677:24681   */\n      0x20\n        /* \"#utility.yul\":24669:24675   */\n      dup3\n        /* \"#utility.yul\":24665:24682   */\n      mul\n        /* \"#utility.yul\":24657:24682   */\n      swap1\n      pop\n        /* \"#utility.yul\":24737:24741   */\n      0x20\n        /* \"#utility.yul\":24731:24735   */\n      dup2\n        /* \"#utility.yul\":24727:24742   */\n      add\n        /* \"#utility.yul\":24719:24742   */\n      swap1\n      pop\n        /* \"#utility.yul\":24419:24749   */\n      swap2\n      swap1\n      pop\n      jump\t// out\n        /* \"#utility.yul\":24755:24870   */\n    tag_404:\n        /* \"#utility.yul\":24811:24818   */\n      0x00\n        /* \"#utility.yul\":24840:24864   */\n      tag_700\n        /* \"#utility.yul\":24858:24863   */\n      dup3\n        /* \"#utility.yul\":24840:24864   */\n      tag_350\n      jump\t// in\n    tag_700:\n        /* \"#utility.yul\":24829:24864   */\n      swap1\n      pop\n        /* \"#utility.yul\":24755:24870   */\n      swap2\n      swap1\n      pop\n      jump\t// out\n        /* \"#utility.yul\":24876:25036   */\n    tag_405:\n        /* \"#utility.yul\":24968:25011   */\n      tag_702\n        /* \"#utility.yul\":25005:25010   */\n      dup2\n        /* \"#utility.yul\":24968:25011   */\n      tag_404\n      jump\t// in\n    tag_702:\n        /* \"#utility.yul\":24961:24966   */\n      dup2\n        /* \"#utility.yul\":24958:25012   */\n      eq\n        /* \"#utility.yul\":24948:25030   */\n      tag_703\n      jumpi\n        /* \"#utility.yul\":25026:25027   */\n      0x00\n        /* \"#utility.yul\":25023:25024   */\n      dup1\n        /* \"#utility.yul\":25016:25028   */\n      revert\n        /* \"#utility.yul\":24948:25030   */\n    tag_703:\n        /* \"#utility.yul\":24876:25036   */\n      pop\n      jump\t// out\n        /* \"#utility.yul\":25042:25223   */\n    tag_406:\n        /* \"#utility.yul\":25118:25123   */\n      0x00\n        /* \"#utility.yul\":25149:25155   */\n      dup2\n        /* \"#utility.yul\":25143:25156   */\n      mload\n        /* \"#utility.yul\":25134:25156   */\n      swap1\n      pop\n        /* \"#utility.yul\":25165:25217   */\n      tag_705\n        /* \"#utility.yul\":25211:25216   */\n      dup2\n        /* \"#utility.yul\":25165:25217   */\n      tag_405\n      jump\t// in\n    tag_705:\n        /* \"#utility.yul\":25042:25223   */\n      swap3\n      swap2\n      pop\n      pop\n      jump\t// out\n        /* \"#utility.yul\":25260:26049   */\n    tag_407:\n        /* \"#utility.yul\":25386:25391   */\n      0x00\n        /* \"#utility.yul\":25411:25511   */\n      tag_707\n        /* \"#utility.yul\":25427:25510   */\n      tag_708\n        /* \"#utility.yul\":25503:25509   */\n      dup5\n        /* \"#utility.yul\":25427:25510   */\n      tag_403\n      jump\t// in\n    tag_708:\n        /* \"#utility.yul\":25411:25511   */\n      tag_393\n      jump\t// in\n    tag_707:\n        /* \"#utility.yul\":25402:25511   */\n      swap1\n      pop\n        /* \"#utility.yul\":25531:25536   */\n      dup1\n        /* \"#utility.yul\":25560:25566   */\n      dup4\n        /* \"#utility.yul\":25553:25558   */\n      dup3\n        /* \"#utility.yul\":25546:25567   */\n      mstore\n        /* \"#utility.yul\":25594:25598   */\n      0x20\n        /* \"#utility.yul\":25587:25592   */\n      dup3\n        /* \"#utility.yul\":25583:25599   */\n      add\n        /* \"#utility.yul\":25576:25599   */\n      swap1\n      pop\n        /* \"#utility.yul\":25647:25651   */\n      0x20\n        /* \"#utility.yul\":25639:25645   */\n      dup5\n        /* \"#utility.yul\":25635:25652   */\n      mul\n        /* \"#utility.yul\":25627:25633   */\n      dup4\n        /* \"#utility.yul\":25623:25653   */\n      add\n        /* \"#utility.yul\":25676:25679   */\n      dup6\n        /* \"#utility.yul\":25668:25674   */\n      dup2\n        /* \"#utility.yul\":25665:25680   */\n      gt\n        /* \"#utility.yul\":25662:25784   */\n      iszero\n      tag_709\n      jumpi\n        /* \"#utility.yul\":25695:25774   */\n      tag_710\n      tag_369\n      jump\t// in\n    tag_710:\n        /* \"#utility.yul\":25662:25784   */\n    tag_709:\n        /* \"#utility.yul\":25810:25816   */\n      dup4\n        /* \"#utility.yul\":25793:26043   */\n    tag_711:\n        /* \"#utility.yul\":25827:25833   */\n      dup2\n        /* \"#utility.yul\":25822:25825   */\n      dup2\n        /* \"#utility.yul\":25819:25834   */\n      lt\n        /* \"#utility.yul\":25793:26043   */\n      iszero\n      tag_713\n      jumpi\n        /* \"#utility.yul\":25902:25905   */\n      dup1\n        /* \"#utility.yul\":25931:25998   */\n      tag_714\n        /* \"#utility.yul\":25994:25997   */\n      dup9\n        /* \"#utility.yul\":25982:25992   */\n      dup3\n        /* \"#utility.yul\":25931:25998   */\n      tag_406\n      jump\t// in\n    tag_714:\n        /* \"#utility.yul\":25926:25929   */\n      dup5\n        /* \"#utility.yul\":25919:25999   */\n      mstore\n        /* \"#utility.yul\":26028:26032   */\n      0x20\n        /* \"#utility.yul\":26023:26026   */\n      dup5\n        /* \"#utility.yul\":26019:26033   */\n      add\n        /* \"#utility.yul\":26012:26033   */\n      swap4\n      pop\n        /* \"#utility.yul\":25869:26043   */\n      pop\n        /* \"#utility.yul\":25853:25857   */\n      0x20\n        /* \"#utility.yul\":25848:25851   */\n      dup2\n        /* \"#utility.yul\":25844:25858   */\n      add\n        /* \"#utility.yul\":25837:25858   */\n      swap1\n      pop\n        /* \"#utility.yul\":25793:26043   */\n      jump(tag_711)\n    tag_713:\n        /* \"#utility.yul\":25797:25818   */\n      pop\n        /* \"#utility.yul\":25392:26049   */\n      pop\n      pop\n        /* \"#utility.yul\":25260:26049   */\n      swap4\n      swap3\n      pop\n      pop\n      pop\n      jump\t// out\n        /* \"#utility.yul\":26086:26509   */\n    tag_408:\n        /* \"#utility.yul\":26187:26192   */\n      0x00\n        /* \"#utility.yul\":26236:26239   */\n      dup3\n        /* \"#utility.yul\":26229:26233   */\n      0x1f\n        /* \"#utility.yul\":26221:26227   */\n      dup4\n        /* \"#utility.yul\":26217:26234   */\n      add\n        /* \"#utility.yul\":26213:26240   */\n      slt\n        /* \"#utility.yul\":26203:26325   */\n      tag_716\n      jumpi\n        /* \"#utility.yul\":26244:26323   */\n      tag_717\n      tag_367\n      jump\t// in\n    tag_717:\n        /* \"#utility.yul\":26203:26325   */\n    tag_716:\n        /* \"#utility.yul\":26354:26360   */\n      dup2\n        /* \"#utility.yul\":26348:26361   */\n      mload\n        /* \"#utility.yul\":26379:26503   */\n      tag_718\n        /* \"#utility.yul\":26499:26502   */\n      dup5\n        /* \"#utility.yul\":26491:26497   */\n      dup3\n        /* \"#utility.yul\":26484:26488   */\n      0x20\n        /* \"#utility.yul\":26476:26482   */\n      dup7\n        /* \"#utility.yul\":26472:26489   */\n      add\n        /* \"#utility.yul\":26379:26503   */\n      tag_407\n      jump\t// in\n    tag_718:\n        /* \"#utility.yul\":26370:26503   */\n      swap2\n      pop\n        /* \"#utility.yul\":26193:26509   */\n      pop\n        /* \"#utility.yul\":26086:26509   */\n      swap3\n      swap2\n      pop\n      pop\n      jump\t// out\n        /* \"#utility.yul\":26515:27107   */\n    tag_286:\n        /* \"#utility.yul\":26629:26635   */\n      0x00\n        /* \"#utility.yul\":26678:26680   */\n      0x20\n        /* \"#utility.yul\":26666:26675   */\n      dup3\n        /* \"#utility.yul\":26657:26664   */\n      dup5\n        /* \"#utility.yul\":26653:26676   */\n      sub\n        /* \"#utility.yul\":26649:26681   */\n      slt\n        /* \"#utility.yul\":26646:26765   */\n      iszero\n      tag_720\n      jumpi\n        /* \"#utility.yul\":26684:26763   */\n      tag_721\n      tag_338\n      jump\t// in\n    tag_721:\n        /* \"#utility.yul\":26646:26765   */\n    tag_720:\n        /* \"#utility.yul\":26825:26826   */\n      0x00\n        /* \"#utility.yul\":26814:26823   */\n      dup3\n        /* \"#utility.yul\":26810:26827   */\n      add\n        /* \"#utility.yul\":26804:26828   */\n      mload\n        /* \"#utility.yul\":26855:26873   */\n      0xffffffffffffffff\n        /* \"#utility.yul\":26847:26853   */\n      dup2\n        /* \"#utility.yul\":26844:26874   */\n      gt\n        /* \"#utility.yul\":26841:26958   */\n      iszero\n      tag_722\n      jumpi\n        /* \"#utility.yul\":26877:26956   */\n      tag_723\n      tag_339\n      jump\t// in\n    tag_723:\n        /* \"#utility.yul\":26841:26958   */\n    tag_722:\n        /* \"#utility.yul\":26982:27090   */\n      tag_724\n        /* \"#utility.yul\":27082:27089   */\n      dup5\n        /* \"#utility.yul\":27073:27079   */\n      dup3\n        /* \"#utility.yul\":27062:27071   */\n      dup6\n        /* \"#utility.yul\":27058:27080   */\n      add\n        /* \"#utility.yul\":26982:27090   */\n      tag_408\n      jump\t// in\n    tag_724:\n        /* \"#utility.yul\":26972:27090   */\n      swap2\n      pop\n        /* \"#utility.yul\":26775:27100   */\n      pop\n        /* \"#utility.yul\":26515:27107   */\n      swap3\n      swap2\n      pop\n      pop\n      jump\t// out\n        /* \"#utility.yul\":27113:27258   */\n    tag_409:\n        /* \"#utility.yul\":27182:27191   */\n      0x00\n        /* \"#utility.yul\":27215:27252   */\n      tag_726\n        /* \"#utility.yul\":27246:27251   */\n      dup3\n        /* \"#utility.yul\":27215:27252   */\n      tag_361\n      jump\t// in\n    tag_726:\n        /* \"#utility.yul\":27202:27252   */\n      swap1\n      pop\n        /* \"#utility.yul\":27113:27258   */\n      swap2\n      swap1\n      pop\n      jump\t// out\n        /* \"#utility.yul\":27264:27433   */\n    tag_410:\n        /* \"#utility.yul\":27370:27426   */\n      tag_728\n        /* \"#utility.yul\":27420:27425   */\n      dup2\n        /* \"#utility.yul\":27370:27426   */\n      tag_409\n      jump\t// in\n    tag_728:\n        /* \"#utility.yul\":27365:27368   */\n      dup3\n        /* \"#utility.yul\":27358:27427   */\n      mstore\n        /* \"#utility.yul\":27264:27433   */\n      pop\n      pop\n      jump\t// out\n        /* \"#utility.yul\":27439:27809   */\n    tag_298:\n        /* \"#utility.yul\":27579:27583   */\n      0x00\n        /* \"#utility.yul\":27617:27619   */\n      0x40\n        /* \"#utility.yul\":27606:27615   */\n      dup3\n        /* \"#utility.yul\":27602:27620   */\n      add\n        /* \"#utility.yul\":27594:27620   */\n      swap1\n      pop\n        /* \"#utility.yul\":27630:27720   */\n      tag_730\n        /* \"#utility.yul\":27717:27718   */\n      0x00\n        /* \"#utility.yul\":27706:27715   */\n      dup4\n        /* \"#utility.yul\":27702:27719   */\n      add\n        /* \"#utility.yul\":27693:27699   */\n      dup6\n        /* \"#utility.yul\":27630:27720   */\n      tag_410\n      jump\t// in\n    tag_730:\n        /* \"#utility.yul\":27730:27802   */\n      tag_731\n        /* \"#utility.yul\":27798:27800   */\n      0x20\n        /* \"#utility.yul\":27787:27796   */\n      dup4\n        /* \"#utility.yul\":27783:27801   */\n      add\n        /* \"#utility.yul\":27774:27780   */\n      dup5\n        /* \"#utility.yul\":27730:27802   */\n      tag_402\n      jump\t// in\n    tag_731:\n        /* \"#utility.yul\":27439:27809   */\n      swap4\n      swap3\n      pop\n      pop\n      pop\n      jump\t// out\n        /* \"#utility.yul\":27815:27958   */\n    tag_411:\n        /* \"#utility.yul\":27872:27877   */\n      0x00\n        /* \"#utility.yul\":27903:27909   */\n      dup2\n        /* \"#utility.yul\":27897:27910   */\n      mload\n        /* \"#utility.yul\":27888:27910   */\n      swap1\n      pop\n        /* \"#utility.yul\":27919:27952   */\n      tag_733\n        /* \"#utility.yul\":27946:27951   */\n      dup2\n        /* \"#utility.yul\":27919:27952   */\n      tag_354\n      jump\t// in\n    tag_733:\n        /* \"#utility.yul\":27815:27958   */\n      swap3\n      swap2\n      pop\n      pop\n      jump\t// out\n        /* \"#utility.yul\":27964:28081   */\n    tag_412:\n        /* \"#utility.yul\":28073:28074   */\n      0x00\n        /* \"#utility.yul\":28070:28071   */\n      dup1\n        /* \"#utility.yul\":28063:28075   */\n      revert\n        /* \"#utility.yul\":28087:28394   */\n    tag_413:\n        /* \"#utility.yul\":28148:28152   */\n      0x00\n        /* \"#utility.yul\":28238:28256   */\n      0xffffffffffffffff\n        /* \"#utility.yul\":28230:28236   */\n      dup3\n        /* \"#utility.yul\":28227:28257   */\n      gt\n        /* \"#utility.yul\":28224:28280   */\n      iszero\n      tag_736\n      jumpi\n        /* \"#utility.yul\":28260:28278   */\n      tag_737\n      tag_290\n      jump\t// in\n    tag_737:\n        /* \"#utility.yul\":28224:28280   */\n    tag_736:\n        /* \"#utility.yul\":28298:28327   */\n      tag_738\n        /* \"#utility.yul\":28320:28326   */\n      dup3\n        /* \"#utility.yul\":28298:28327   */\n      tag_391\n      jump\t// in\n    tag_738:\n        /* \"#utility.yul\":28290:28327   */\n      swap1\n      pop\n        /* \"#utility.yul\":28382:28386   */\n      0x20\n        /* \"#utility.yul\":28376:28380   */\n      dup2\n        /* \"#utility.yul\":28372:28387   */\n      add\n        /* \"#utility.yul\":28364:28387   */\n      swap1\n      pop\n        /* \"#utility.yul\":28087:28394   */\n      swap2\n      swap1\n      pop\n      jump\t// out\n        /* \"#utility.yul\":28400:28646   */\n    tag_414:\n        /* \"#utility.yul\":28481:28482   */\n      0x00\n        /* \"#utility.yul\":28491:28604   */\n    tag_740:\n        /* \"#utility.yul\":28505:28511   */\n      dup4\n        /* \"#utility.yul\":28502:28503   */\n      dup2\n        /* \"#utility.yul\":28499:28512   */\n      lt\n        /* \"#utility.yul\":28491:28604   */\n      iszero\n      tag_742\n      jumpi\n        /* \"#utility.yul\":28590:28591   */\n      dup1\n        /* \"#utility.yul\":28585:28588   */\n      dup3\n        /* \"#utility.yul\":28581:28592   */\n      add\n        /* \"#utility.yul\":28575:28593   */\n      mload\n        /* \"#utility.yul\":28571:28572   */\n      dup2\n        /* \"#utility.yul\":28566:28569   */\n      dup5\n        /* \"#utility.yul\":28562:28573   */\n      add\n        /* \"#utility.yul\":28555:28594   */\n      mstore\n        /* \"#utility.yul\":28527:28529   */\n      0x20\n        /* \"#utility.yul\":28524:28525   */\n      dup2\n        /* \"#utility.yul\":28520:28530   */\n      add\n        /* \"#utility.yul\":28515:28530   */\n      swap1\n      pop\n        /* \"#utility.yul\":28491:28604   */\n      jump(tag_740)\n    tag_742:\n        /* \"#utility.yul\":28638:28639   */\n      0x00\n        /* \"#utility.yul\":28629:28635   */\n      dup5\n        /* \"#utility.yul\":28624:28627   */\n      dup5\n        /* \"#utility.yul\":28620:28636   */\n      add\n        /* \"#utility.yul\":28613:28640   */\n      mstore\n        /* \"#utility.yul\":28462:28646   */\n      pop\n        /* \"#utility.yul\":28400:28646   */\n      pop\n      pop\n      pop\n      jump\t// out\n        /* \"#utility.yul\":28652:29084   */\n    tag_415:\n        /* \"#utility.yul\":28740:28745   */\n      0x00\n        /* \"#utility.yul\":28765:28830   */\n      tag_744\n        /* \"#utility.yul\":28781:28829   */\n      tag_745\n        /* \"#utility.yul\":28822:28828   */\n      dup5\n        /* \"#utility.yul\":28781:28829   */\n      tag_413\n      jump\t// in\n    tag_745:\n        /* \"#utility.yul\":28765:28830   */\n      tag_393\n      jump\t// in\n    tag_744:\n        /* \"#utility.yul\":28756:28830   */\n      swap1\n      pop\n        /* \"#utility.yul\":28853:28859   */\n      dup3\n        /* \"#utility.yul\":28846:28851   */\n      dup2\n        /* \"#utility.yul\":28839:28860   */\n      mstore\n        /* \"#utility.yul\":28891:28895   */\n      0x20\n        /* \"#utility.yul\":28884:28889   */\n      dup2\n        /* \"#utility.yul\":28880:28896   */\n      add\n        /* \"#utility.yul\":28929:28932   */\n      dup5\n        /* \"#utility.yul\":28920:28926   */\n      dup5\n        /* \"#utility.yul\":28915:28918   */\n      dup5\n        /* \"#utility.yul\":28911:28927   */\n      add\n        /* \"#utility.yul\":28908:28933   */\n      gt\n        /* \"#utility.yul\":28905:29017   */\n      iszero\n      tag_746\n      jumpi\n        /* \"#utility.yul\":28936:29015   */\n      tag_747\n      tag_412\n      jump\t// in\n    tag_747:\n        /* \"#utility.yul\":28905:29017   */\n    tag_746:\n        /* \"#utility.yul\":29026:29078   */\n      tag_748\n        /* \"#utility.yul\":29071:29077   */\n      dup5\n        /* \"#utility.yul\":29066:29069   */\n      dup3\n        /* \"#utility.yul\":29061:29064   */\n      dup6\n        /* \"#utility.yul\":29026:29078   */\n      tag_414\n      jump\t// in\n    tag_748:\n        /* \"#utility.yul\":28746:29084   */\n      pop\n        /* \"#utility.yul\":28652:29084   */\n      swap4\n      swap3\n      pop\n      pop\n      pop\n      jump\t// out\n        /* \"#utility.yul\":29103:29456   */\n    tag_416:\n        /* \"#utility.yul\":29169:29174   */\n      0x00\n        /* \"#utility.yul\":29218:29221   */\n      dup3\n        /* \"#utility.yul\":29211:29215   */\n      0x1f\n        /* \"#utility.yul\":29203:29209   */\n      dup4\n        /* \"#utility.yul\":29199:29216   */\n      add\n        /* \"#utility.yul\":29195:29222   */\n      slt\n        /* \"#utility.yul\":29185:29307   */\n      tag_750\n      jumpi\n        /* \"#utility.yul\":29226:29305   */\n      tag_751\n      tag_367\n      jump\t// in\n    tag_751:\n        /* \"#utility.yul\":29185:29307   */\n    tag_750:\n        /* \"#utility.yul\":29336:29342   */\n      dup2\n        /* \"#utility.yul\":29330:29343   */\n      mload\n        /* \"#utility.yul\":29361:29450   */\n      tag_752\n        /* \"#utility.yul\":29446:29449   */\n      dup5\n        /* \"#utility.yul\":29438:29444   */\n      dup3\n        /* \"#utility.yul\":29431:29435   */\n      0x20\n        /* \"#utility.yul\":29423:29429   */\n      dup7\n        /* \"#utility.yul\":29419:29436   */\n      add\n        /* \"#utility.yul\":29361:29450   */\n      tag_415\n      jump\t// in\n    tag_752:\n        /* \"#utility.yul\":29352:29450   */\n      swap2\n      pop\n        /* \"#utility.yul\":29175:29456   */\n      pop\n        /* \"#utility.yul\":29103:29456   */\n      swap3\n      swap2\n      pop\n      pop\n      jump\t// out\n        /* \"#utility.yul\":29462:29770   */\n    tag_417:\n        /* \"#utility.yul\":29524:29528   */\n      0x00\n        /* \"#utility.yul\":29614:29632   */\n      0xffffffffffffffff\n        /* \"#utility.yul\":29606:29612   */\n      dup3\n        /* \"#utility.yul\":29603:29633   */\n      gt\n        /* \"#utility.yul\":29600:29656   */\n      iszero\n      tag_754\n      jumpi\n        /* \"#utility.yul\":29636:29654   */\n      tag_755\n      tag_290\n      jump\t// in\n    tag_755:\n        /* \"#utility.yul\":29600:29656   */\n    tag_754:\n        /* \"#utility.yul\":29674:29703   */\n      tag_756\n        /* \"#utility.yul\":29696:29702   */\n      dup3\n        /* \"#utility.yul\":29674:29703   */\n      tag_391\n      jump\t// in\n    tag_756:\n        /* \"#utility.yul\":29666:29703   */\n      swap1\n      pop\n        /* \"#utility.yul\":29758:29762   */\n      0x20\n        /* \"#utility.yul\":29752:29756   */\n      dup2\n        /* \"#utility.yul\":29748:29763   */\n      add\n        /* \"#utility.yul\":29740:29763   */\n      swap1\n      pop\n        /* \"#utility.yul\":29462:29770   */\n      swap2\n      swap1\n      pop\n      jump\t// out\n        /* \"#utility.yul\":29776:30210   */\n    tag_418:\n        /* \"#utility.yul\":29865:29870   */\n      0x00\n        /* \"#utility.yul\":29890:29956   */\n      tag_758\n        /* \"#utility.yul\":29906:29955   */\n      tag_759\n        /* \"#utility.yul\":29948:29954   */\n      dup5\n        /* \"#utility.yul\":29906:29955   */\n      tag_417\n      jump\t// in\n    tag_759:\n        /* \"#utility.yul\":29890:29956   */\n      tag_393\n      jump\t// in\n    tag_758:\n        /* \"#utility.yul\":29881:29956   */\n      swap1\n      pop\n        /* \"#utility.yul\":29979:29985   */\n      dup3\n        /* \"#utility.yul\":29972:29977   */\n      dup2\n        /* \"#utility.yul\":29965:29986   */\n      mstore\n        /* \"#utility.yul\":30017:30021   */\n      0x20\n        /* \"#utility.yul\":30010:30015   */\n      dup2\n        /* \"#utility.yul\":30006:30022   */\n      add\n        /* \"#utility.yul\":30055:30058   */\n      dup5\n        /* \"#utility.yul\":30046:30052   */\n      dup5\n        /* \"#utility.yul\":30041:30044   */\n      dup5\n        /* \"#utility.yul\":30037:30053   */\n      add\n        /* \"#utility.yul\":30034:30059   */\n      gt\n        /* \"#utility.yul\":30031:30143   */\n      iszero\n      tag_760\n      jumpi\n        /* \"#utility.yul\":30062:30141   */\n      tag_761\n      tag_412\n      jump\t// in\n    tag_761:\n        /* \"#utility.yul\":30031:30143   */\n    tag_760:\n        /* \"#utility.yul\":30152:30204   */\n      tag_762\n        /* \"#utility.yul\":30197:30203   */\n      dup5\n        /* \"#utility.yul\":30192:30195   */\n      dup3\n        /* \"#utility.yul\":30187:30190   */\n      dup6\n        /* \"#utility.yul\":30152:30204   */\n      tag_414\n      jump\t// in\n    tag_762:\n        /* \"#utility.yul\":29871:30210   */\n      pop\n        /* \"#utility.yul\":29776:30210   */\n      swap4\n      swap3\n      pop\n      pop\n      pop\n      jump\t// out\n        /* \"#utility.yul\":30230:30585   */\n    tag_419:\n        /* \"#utility.yul\":30297:30302   */\n      0x00\n        /* \"#utility.yul\":30346:30349   */\n      dup3\n        /* \"#utility.yul\":30339:30343   */\n      0x1f\n        /* \"#utility.yul\":30331:30337   */\n      dup4\n        /* \"#utility.yul\":30327:30344   */\n      add\n        /* \"#utility.yul\":30323:30350   */\n      slt\n        /* \"#utility.yul\":30313:30435   */\n      tag_764\n      jumpi\n        /* \"#utility.yul\":30354:30433   */\n      tag_765\n      tag_367\n      jump\t// in\n    tag_765:\n        /* \"#utility.yul\":30313:30435   */\n    tag_764:\n        /* \"#utility.yul\":30464:30470   */\n      dup2\n        /* \"#utility.yul\":30458:30471   */\n      mload\n        /* \"#utility.yul\":30489:30579   */\n      tag_766\n        /* \"#utility.yul\":30575:30578   */\n      dup5\n        /* \"#utility.yul\":30567:30573   */\n      dup3\n        /* \"#utility.yul\":30560:30564   */\n      0x20\n        /* \"#utility.yul\":30552:30558   */\n      dup7\n        /* \"#utility.yul\":30548:30565   */\n      add\n        /* \"#utility.yul\":30489:30579   */\n      tag_418\n      jump\t// in\n    tag_766:\n        /* \"#utility.yul\":30480:30579   */\n      swap2\n      pop\n        /* \"#utility.yul\":30303:30585   */\n      pop\n        /* \"#utility.yul\":30230:30585   */\n      swap3\n      swap2\n      pop\n      pop\n      jump\t// out\n        /* \"#utility.yul\":30591:32240   */\n    tag_311:\n        /* \"#utility.yul\":30734:30740   */\n      0x00\n        /* \"#utility.yul\":30742:30748   */\n      dup1\n        /* \"#utility.yul\":30750:30756   */\n      0x00\n        /* \"#utility.yul\":30758:30764   */\n      dup1\n        /* \"#utility.yul\":30766:30772   */\n      0x00\n        /* \"#utility.yul\":30774:30780   */\n      dup1\n        /* \"#utility.yul\":30823:30826   */\n      0xc0\n        /* \"#utility.yul\":30811:30820   */\n      dup8\n        /* \"#utility.yul\":30802:30809   */\n      dup10\n        /* \"#utility.yul\":30798:30821   */\n      sub\n        /* \"#utility.yul\":30794:30827   */\n      slt\n        /* \"#utility.yul\":30791:30911   */\n      iszero\n      tag_768\n      jumpi\n        /* \"#utility.yul\":30830:30909   */\n      tag_769\n      tag_338\n      jump\t// in\n    tag_769:\n        /* \"#utility.yul\":30791:30911   */\n    tag_768:\n        /* \"#utility.yul\":30950:30951   */\n      0x00\n        /* \"#utility.yul\":30975:31039   */\n      tag_770\n        /* \"#utility.yul\":31031:31038   */\n      dup10\n        /* \"#utility.yul\":31022:31028   */\n      dup3\n        /* \"#utility.yul\":31011:31020   */\n      dup11\n        /* \"#utility.yul\":31007:31029   */\n      add\n        /* \"#utility.yul\":30975:31039   */\n      tag_397\n      jump\t// in\n    tag_770:\n        /* \"#utility.yul\":30965:31039   */\n      swap7\n      pop\n        /* \"#utility.yul\":30921:31049   */\n      pop\n        /* \"#utility.yul\":31088:31090   */\n      0x20\n        /* \"#utility.yul\":31114:31178   */\n      tag_771\n        /* \"#utility.yul\":31170:31177   */\n      dup10\n        /* \"#utility.yul\":31161:31167   */\n      dup3\n        /* \"#utility.yul\":31150:31159   */\n      dup11\n        /* \"#utility.yul\":31146:31168   */\n      add\n        /* \"#utility.yul\":31114:31178   */\n      tag_397\n      jump\t// in\n    tag_771:\n        /* \"#utility.yul\":31104:31178   */\n      swap6\n      pop\n        /* \"#utility.yul\":31059:31188   */\n      pop\n        /* \"#utility.yul\":31227:31229   */\n      0x40\n        /* \"#utility.yul\":31253:31317   */\n      tag_772\n        /* \"#utility.yul\":31309:31316   */\n      dup10\n        /* \"#utility.yul\":31300:31306   */\n      dup3\n        /* \"#utility.yul\":31289:31298   */\n      dup11\n        /* \"#utility.yul\":31285:31307   */\n      add\n        /* \"#utility.yul\":31253:31317   */\n      tag_411\n      jump\t// in\n    tag_772:\n        /* \"#utility.yul\":31243:31317   */\n      swap5\n      pop\n        /* \"#utility.yul\":31198:31327   */\n      pop\n        /* \"#utility.yul\":31387:31389   */\n      0x60\n        /* \"#utility.yul\":31376:31385   */\n      dup8\n        /* \"#utility.yul\":31372:31390   */\n      add\n        /* \"#utility.yul\":31366:31391   */\n      mload\n        /* \"#utility.yul\":31418:31436   */\n      0xffffffffffffffff\n        /* \"#utility.yul\":31410:31416   */\n      dup2\n        /* \"#utility.yul\":31407:31437   */\n      gt\n        /* \"#utility.yul\":31404:31521   */\n      iszero\n      tag_773\n      jumpi\n        /* \"#utility.yul\":31440:31519   */\n      tag_774\n      tag_339\n      jump\t// in\n    tag_774:\n        /* \"#utility.yul\":31404:31521   */\n    tag_773:\n        /* \"#utility.yul\":31545:31618   */\n      tag_775\n        /* \"#utility.yul\":31610:31617   */\n      dup10\n        /* \"#utility.yul\":31601:31607   */\n      dup3\n        /* \"#utility.yul\":31590:31599   */\n      dup11\n        /* \"#utility.yul\":31586:31608   */\n      add\n        /* \"#utility.yul\":31545:31618   */\n      tag_416\n      jump\t// in\n    tag_775:\n        /* \"#utility.yul\":31535:31618   */\n      swap4\n      pop\n        /* \"#utility.yul\":31337:31628   */\n      pop\n        /* \"#utility.yul\":31688:31691   */\n      0x80\n        /* \"#utility.yul\":31677:31686   */\n      dup8\n        /* \"#utility.yul\":31673:31692   */\n      add\n        /* \"#utility.yul\":31667:31693   */\n      mload\n        /* \"#utility.yul\":31720:31738   */\n      0xffffffffffffffff\n        /* \"#utility.yul\":31712:31718   */\n      dup2\n        /* \"#utility.yul\":31709:31739   */\n      gt\n        /* \"#utility.yul\":31706:31823   */\n      iszero\n      tag_776\n      jumpi\n        /* \"#utility.yul\":31742:31821   */\n      tag_777\n      tag_339\n      jump\t// in\n    tag_777:\n        /* \"#utility.yul\":31706:31823   */\n    tag_776:\n        /* \"#utility.yul\":31847:31920   */\n      tag_778\n        /* \"#utility.yul\":31912:31919   */\n      dup10\n        /* \"#utility.yul\":31903:31909   */\n      dup3\n        /* \"#utility.yul\":31892:31901   */\n      dup11\n        /* \"#utility.yul\":31888:31910   */\n      add\n        /* \"#utility.yul\":31847:31920   */\n      tag_416\n      jump\t// in\n    tag_778:\n        /* \"#utility.yul\":31837:31920   */\n      swap3\n      pop\n        /* \"#utility.yul\":31638:31930   */\n      pop\n        /* \"#utility.yul\":31990:31993   */\n      0xa0\n        /* \"#utility.yul\":31979:31988   */\n      dup8\n        /* \"#utility.yul\":31975:31994   */\n      add\n        /* \"#utility.yul\":31969:31995   */\n      mload\n        /* \"#utility.yul\":32022:32040   */\n      0xffffffffffffffff\n        /* \"#utility.yul\":32014:32020   */\n      dup2\n        /* \"#utility.yul\":32011:32041   */\n      gt\n        /* \"#utility.yul\":32008:32125   */\n      iszero\n      tag_779\n      jumpi\n        /* \"#utility.yul\":32044:32123   */\n      tag_780\n      tag_339\n      jump\t// in\n    tag_780:\n        /* \"#utility.yul\":32008:32125   */\n    tag_779:\n        /* \"#utility.yul\":32149:32223   */\n      tag_781\n        /* \"#utility.yul\":32215:32222   */\n      dup10\n        /* \"#utility.yul\":32206:32212   */\n      dup3\n        /* \"#utility.yul\":32195:32204   */\n      dup11\n        /* \"#utility.yul\":32191:32213   */\n      add\n        /* \"#utility.yul\":32149:32223   */\n      tag_419\n      jump\t// in\n    tag_781:\n        /* \"#utility.yul\":32139:32223   */\n      swap2\n      pop\n        /* \"#utility.yul\":31940:32233   */\n      pop\n        /* \"#utility.yul\":30591:32240   */\n      swap3\n      swap6\n      pop\n      swap3\n      swap6\n      pop\n      swap3\n      swap6\n      jump\t// out\n        /* \"#utility.yul\":32246:32440   */\n    tag_318:\n        /* \"#utility.yul\":32286:32290   */\n      0x00\n        /* \"#utility.yul\":32306:32326   */\n      tag_783\n        /* \"#utility.yul\":32324:32325   */\n      dup3\n        /* \"#utility.yul\":32306:32326   */\n      tag_395\n      jump\t// in\n    tag_783:\n        /* \"#utility.yul\":32301:32326   */\n      swap2\n      pop\n        /* \"#utility.yul\":32340:32360   */\n      tag_784\n        /* \"#utility.yul\":32358:32359   */\n      dup4\n        /* \"#utility.yul\":32340:32360   */\n      tag_395\n      jump\t// in\n    tag_784:\n        /* \"#utility.yul\":32335:32360   */\n      swap3\n      pop\n        /* \"#utility.yul\":32384:32385   */\n      dup3\n        /* \"#utility.yul\":32381:32382   */\n      dup3\n        /* \"#utility.yul\":32377:32386   */\n      sub\n        /* \"#utility.yul\":32369:32386   */\n      swap1\n      pop\n        /* \"#utility.yul\":32408:32409   */\n      dup2\n        /* \"#utility.yul\":32402:32406   */\n      dup2\n        /* \"#utility.yul\":32399:32410   */\n      gt\n        /* \"#utility.yul\":32396:32433   */\n      iszero\n      tag_785\n      jumpi\n        /* \"#utility.yul\":32413:32431   */\n      tag_786\n      tag_400\n      jump\t// in\n    tag_786:\n        /* \"#utility.yul\":32396:32433   */\n    tag_785:\n        /* \"#utility.yul\":32246:32440   */\n      swap3\n      swap2\n      pop\n      pop\n      jump\t// out\n        /* \"#utility.yul\":32446:32778   */\n    tag_325:\n        /* \"#utility.yul\":32567:32571   */\n      0x00\n        /* \"#utility.yul\":32605:32607   */\n      0x40\n        /* \"#utility.yul\":32594:32603   */\n      dup3\n        /* \"#utility.yul\":32590:32608   */\n      add\n        /* \"#utility.yul\":32582:32608   */\n      swap1\n      pop\n        /* \"#utility.yul\":32618:32689   */\n      tag_788\n        /* \"#utility.yul\":32686:32687   */\n      0x00\n        /* \"#utility.yul\":32675:32684   */\n      dup4\n        /* \"#utility.yul\":32671:32688   */\n      add\n        /* \"#utility.yul\":32662:32668   */\n      dup6\n        /* \"#utility.yul\":32618:32689   */\n      tag_386\n      jump\t// in\n    tag_788:\n        /* \"#utility.yul\":32699:32771   */\n      tag_789\n        /* \"#utility.yul\":32767:32769   */\n      0x20\n        /* \"#utility.yul\":32756:32765   */\n      dup4\n        /* \"#utility.yul\":32752:32770   */\n      add\n        /* \"#utility.yul\":32743:32749   */\n      dup5\n        /* \"#utility.yul\":32699:32771   */\n      tag_346\n      jump\t// in\n    tag_789:\n        /* \"#utility.yul\":32446:32778   */\n      swap4\n      swap3\n      pop\n      pop\n      pop\n      jump\t// out\n        /* \"#utility.yul\":32784:32882   */\n    tag_420:\n        /* \"#utility.yul\":32835:32841   */\n      0x00\n        /* \"#utility.yul\":32869:32874   */\n      dup2\n        /* \"#utility.yul\":32863:32875   */\n      mload\n        /* \"#utility.yul\":32853:32875   */\n      swap1\n      pop\n        /* \"#utility.yul\":32784:32882   */\n      swap2\n      swap1\n      pop\n      jump\t// out\n        /* \"#utility.yul\":32888:33056   */\n    tag_421:\n        /* \"#utility.yul\":32971:32982   */\n      0x00\n        /* \"#utility.yul\":33005:33011   */\n      dup3\n        /* \"#utility.yul\":33000:33003   */\n      dup3\n        /* \"#utility.yul\":32993:33012   */\n      mstore\n        /* \"#utility.yul\":33045:33049   */\n      0x20\n        /* \"#utility.yul\":33040:33043   */\n      dup3\n        /* \"#utility.yul\":33036:33050   */\n      add\n        /* \"#utility.yul\":33021:33050   */\n      swap1\n      pop\n        /* \"#utility.yul\":32888:33056   */\n      swap3\n      swap2\n      pop\n      pop\n      jump\t// out\n        /* \"#utility.yul\":33062:33435   */\n    tag_422:\n        /* \"#utility.yul\":33148:33151   */\n      0x00\n        /* \"#utility.yul\":33176:33214   */\n      tag_793\n        /* \"#utility.yul\":33208:33213   */\n      dup3\n        /* \"#utility.yul\":33176:33214   */\n      tag_420\n      jump\t// in\n    tag_793:\n        /* \"#utility.yul\":33230:33300   */\n      tag_794\n        /* \"#utility.yul\":33293:33299   */\n      dup2\n        /* \"#utility.yul\":33288:33291   */\n      dup6\n        /* \"#utility.yul\":33230:33300   */\n      tag_421\n      jump\t// in\n    tag_794:\n        /* \"#utility.yul\":33223:33300   */\n      swap4\n      pop\n        /* \"#utility.yul\":33309:33374   */\n      tag_795\n        /* \"#utility.yul\":33367:33373   */\n      dup2\n        /* \"#utility.yul\":33362:33365   */\n      dup6\n        /* \"#utility.yul\":33355:33359   */\n      0x20\n        /* \"#utility.yul\":33348:33353   */\n      dup7\n        /* \"#utility.yul\":33344:33360   */\n      add\n        /* \"#utility.yul\":33309:33374   */\n      tag_414\n      jump\t// in\n    tag_795:\n        /* \"#utility.yul\":33399:33428   */\n      tag_796\n        /* \"#utility.yul\":33421:33427   */\n      dup2\n        /* \"#utility.yul\":33399:33428   */\n      tag_391\n      jump\t// in\n    tag_796:\n        /* \"#utility.yul\":33394:33397   */\n      dup5\n        /* \"#utility.yul\":33390:33429   */\n      add\n        /* \"#utility.yul\":33383:33429   */\n      swap2\n      pop\n        /* \"#utility.yul\":33152:33435   */\n      pop\n        /* \"#utility.yul\":33062:33435   */\n      swap3\n      swap2\n      pop\n      pop\n      jump\t// out\n        /* \"#utility.yul\":33441:34202   */\n    tag_328:\n        /* \"#utility.yul\":33671:33675   */\n      0x00\n        /* \"#utility.yul\":33709:33712   */\n      0x80\n        /* \"#utility.yul\":33698:33707   */\n      dup3\n        /* \"#utility.yul\":33694:33713   */\n      add\n        /* \"#utility.yul\":33686:33713   */\n      swap1\n      pop\n        /* \"#utility.yul\":33723:33811   */\n      tag_798\n        /* \"#utility.yul\":33808:33809   */\n      0x00\n        /* \"#utility.yul\":33797:33806   */\n      dup4\n        /* \"#utility.yul\":33793:33810   */\n      add\n        /* \"#utility.yul\":33784:33790   */\n      dup8\n        /* \"#utility.yul\":33723:33811   */\n      tag_383\n      jump\t// in\n    tag_798:\n        /* \"#utility.yul\":33821:33893   */\n      tag_799\n        /* \"#utility.yul\":33889:33891   */\n      0x20\n        /* \"#utility.yul\":33878:33887   */\n      dup4\n        /* \"#utility.yul\":33874:33892   */\n      add\n        /* \"#utility.yul\":33865:33871   */\n      dup7\n        /* \"#utility.yul\":33821:33893   */\n      tag_402\n      jump\t// in\n    tag_799:\n        /* \"#utility.yul\":33940:33949   */\n      dup2\n        /* \"#utility.yul\":33934:33938   */\n      dup2\n        /* \"#utility.yul\":33930:33950   */\n      sub\n        /* \"#utility.yul\":33925:33927   */\n      0x40\n        /* \"#utility.yul\":33914:33923   */\n      dup4\n        /* \"#utility.yul\":33910:33928   */\n      add\n        /* \"#utility.yul\":33903:33951   */\n      mstore\n        /* \"#utility.yul\":33968:34044   */\n      tag_800\n        /* \"#utility.yul\":34039:34043   */\n      dup2\n        /* \"#utility.yul\":34030:34036   */\n      dup6\n        /* \"#utility.yul\":33968:34044   */\n      tag_422\n      jump\t// in\n    tag_800:\n        /* \"#utility.yul\":33960:34044   */\n      swap1\n      pop\n        /* \"#utility.yul\":34091:34100   */\n      dup2\n        /* \"#utility.yul\":34085:34089   */\n      dup2\n        /* \"#utility.yul\":34081:34101   */\n      sub\n        /* \"#utility.yul\":34076:34078   */\n      0x60\n        /* \"#utility.yul\":34065:34074   */\n      dup4\n        /* \"#utility.yul\":34061:34079   */\n      add\n        /* \"#utility.yul\":34054:34102   */\n      mstore\n        /* \"#utility.yul\":34119:34195   */\n      tag_801\n        /* \"#utility.yul\":34190:34194   */\n      dup2\n        /* \"#utility.yul\":34181:34187   */\n      dup5\n        /* \"#utility.yul\":34119:34195   */\n      tag_422\n      jump\t// in\n    tag_801:\n        /* \"#utility.yul\":34111:34195   */\n      swap1\n      pop\n        /* \"#utility.yul\":33441:34202   */\n      swap6\n      swap5\n      pop\n      pop\n      pop\n      pop\n      pop\n      jump\t// out\n        /* \"#utility.yul\":34208:34324   */\n    tag_423:\n        /* \"#utility.yul\":34278:34299   */\n      tag_803\n        /* \"#utility.yul\":34293:34298   */\n      dup2\n        /* \"#utility.yul\":34278:34299   */\n      tag_343\n      jump\t// in\n    tag_803:\n        /* \"#utility.yul\":34271:34276   */\n      dup2\n        /* \"#utility.yul\":34268:34300   */\n      eq\n        /* \"#utility.yul\":34258:34318   */\n      tag_804\n      jumpi\n        /* \"#utility.yul\":34314:34315   */\n      0x00\n        /* \"#utility.yul\":34311:34312   */\n      dup1\n        /* \"#utility.yul\":34304:34316   */\n      revert\n        /* \"#utility.yul\":34258:34318   */\n    tag_804:\n        /* \"#utility.yul\":34208:34324   */\n      pop\n      jump\t// out\n        /* \"#utility.yul\":34330:34467   */\n    tag_424:\n        /* \"#utility.yul\":34384:34389   */\n      0x00\n        /* \"#utility.yul\":34415:34421   */\n      dup2\n        /* \"#utility.yul\":34409:34422   */\n      mload\n        /* \"#utility.yul\":34400:34422   */\n      swap1\n      pop\n        /* \"#utility.yul\":34431:34461   */\n      tag_806\n        /* \"#utility.yul\":34455:34460   */\n      dup2\n        /* \"#utility.yul\":34431:34461   */\n      tag_423\n      jump\t// in\n    tag_806:\n        /* \"#utility.yul\":34330:34467   */\n      swap3\n      swap2\n      pop\n      pop\n      jump\t// out\n        /* \"#utility.yul\":34473:34818   */\n    tag_331:\n        /* \"#utility.yul\":34540:34546   */\n      0x00\n        /* \"#utility.yul\":34589:34591   */\n      0x20\n        /* \"#utility.yul\":34577:34586   */\n      dup3\n        /* \"#utility.yul\":34568:34575   */\n      dup5\n        /* \"#utility.yul\":34564:34587   */\n      sub\n        /* \"#utility.yul\":34560:34592   */\n      slt\n        /* \"#utility.yul\":34557:34676   */\n      iszero\n      tag_808\n      jumpi\n        /* \"#utility.yul\":34595:34674   */\n      tag_809\n      tag_338\n      jump\t// in\n    tag_809:\n        /* \"#utility.yul\":34557:34676   */\n    tag_808:\n        /* \"#utility.yul\":34715:34716   */\n      0x00\n        /* \"#utility.yul\":34740:34801   */\n      tag_810\n        /* \"#utility.yul\":34793:34800   */\n      dup5\n        /* \"#utility.yul\":34784:34790   */\n      dup3\n        /* \"#utility.yul\":34773:34782   */\n      dup6\n        /* \"#utility.yul\":34769:34791   */\n      add\n        /* \"#utility.yul\":34740:34801   */\n      tag_424\n      jump\t// in\n    tag_810:\n        /* \"#utility.yul\":34730:34801   */\n      swap2\n      pop\n        /* \"#utility.yul\":34686:34811   */\n      pop\n        /* \"#utility.yul\":34473:34818   */\n      swap3\n      swap2\n      pop\n      pop\n      jump\t// out\n\n    auxdata: 0xa264697066735822122086352aeb7febf69c7c9c5cf9f39ad7837fc1bebe36be0217b751174685ba296364736f6c63430008140033\n}\n",
				"bytecode": {
					"linkReferences": {},
					"object": "608060405234801562000010575f80fd5b506040516200301d3803806200301d833981810160405281019062000036919062000575565b5f73ffffffffffffffffffffffffffffffffffffffff168373ffffffffffffffffffffffffffffffffffffffff16141580156200009f57505f73ffffffffffffffffffffffffffffffffffffffff168273ffffffffffffffffffffffffffffffffffffffff1614155b8015620000d857505f73ffffffffffffffffffffffffffffffffffffffff168173ffffffffffffffffffffffffffffffffffffffff1614155b6200011a576040517f08c379a000000000000000000000000000000000000000000000000000000000815260040162000111906200062c565b60405180910390fd5b6200013d5f801b620001316200031460201b60201c565b6200031b60201b60201c565b50620001817fb19546dff01e856fb3f010c267a7b1c60363cf8a4664e21cc89c26224620214e5f1b620001756200031460201b60201c565b6200031b60201b60201c565b508160015f6101000a81548173ffffffffffffffffffffffffffffffffffffffff021916908373ffffffffffffffffffffffffffffffffffffffff1602179055508260025f6101000a81548173ffffffffffffffffffffffffffffffffffffffff021916908373ffffffffffffffffffffffffffffffffffffffff1602179055508060035f6101000a81548173ffffffffffffffffffffffffffffffffffffffff021916908373ffffffffffffffffffffffffffffffffffffffff1602179055508173ffffffffffffffffffffffffffffffffffffffff167f7170bf15b246e880b2369cd7c67d057760d8a35149e8c64dde91efa22bcc76d060405160405180910390a28273ffffffffffffffffffffffffffffffffffffffff167f811d3016da8008875247af93af072ec7801e39d9f4c686fec82ab600d8e555e860405160405180910390a28073ffffffffffffffffffffffffffffffffffffffff167f2fa8b95c1db7afe99e3398f3792f008135cedc1fa26b0bb2ecd2352cd166d53c60405160405180910390a25050506200064c565b5f33905090565b5f6200032e83836200041660201b60201c565b6200040c5760015f808581526020019081526020015f205f015f8473ffffffffffffffffffffffffffffffffffffffff1673ffffffffffffffffffffffffffffffffffffffff1681526020019081526020015f205f6101000a81548160ff021916908315150217905550620003a86200031460201b60201c565b73ffffffffffffffffffffffffffffffffffffffff168273ffffffffffffffffffffffffffffffffffffffff16847f2f8788117e7eff1d82e926ec794901d17c78024a50270940304540a733656f0d60405160405180910390a46001905062000410565b5f90505b92915050565b5f805f8481526020019081526020015f205f015f8373ffffffffffffffffffffffffffffffffffffffff1673ffffffffffffffffffffffffffffffffffffffff1681526020019081526020015f205f9054906101000a900460ff16905092915050565b5f80fd5b5f73ffffffffffffffffffffffffffffffffffffffff82169050919050565b5f620004a8826200047d565b9050919050565b5f620004bb826200049c565b9050919050565b620004cd81620004af565b8114620004d8575f80fd5b50565b5f81519050620004eb81620004c2565b92915050565b5f620004fd826200049c565b9050919050565b6200050f81620004f1565b81146200051a575f80fd5b50565b5f815190506200052d8162000504565b92915050565b5f6200053f826200049c565b9050919050565b620005518162000533565b81146200055c575f80fd5b50565b5f815190506200056f8162000546565b92915050565b5f805f606084860312156200058f576200058e62000479565b5b5f6200059e86828701620004db565b9350506020620005b1868287016200051d565b9250506040620005c4868287016200055f565b9150509250925092565b5f82825260208201905092915050565b7f4552432d333634333a20496e76616c6964207a65726f206164647265737300005f82015250565b5f62000614601e83620005ce565b91506200062182620005de565b602082019050919050565b5f6020820190508181035f830152620006458162000606565b9050919050565b6129c3806200065a5f395ff3fe608060405234801561000f575f80fd5b5060043610610156575f3560e01c80636bc72c90116100c1578063b4f3fcb71161007a578063b4f3fcb7146103bc578063b9209e33146103da578063d547741f1461040a578063e58378bb14610426578063f0eb5e5414610444578063f11abfd81461047457610156565b80636bc72c90146102ea5780637e42683b146103065780638e098ca11461033657806391d1485414610352578063a217fddf14610382578063a8d29d1d146103a057610156565b80633b239a7f116101135780633b239a7f1461022c5780633b3e12f414610248578063454a03e0146102665780635dbe47e814610282578063653dc9f1146102b2578063670af6a9146102ce57610156565b806301ffc9a71461015a57806322459e181461018a578063248a9ca3146101a857806326d941ae146101d85780632f2ff15d146101f457806336568abe14610210575b5f80fd5b610174600480360381019061016f91906118be565b610492565b6040516101819190611903565b60405180910390f35b61019261050b565b60405161019f9190611934565b60405180910390f35b6101c260048036038101906101bd9190611977565b610531565b6040516101cf9190611934565b60405180910390f35b6101f260048036038101906101ed9190611a0d565b61054d565b005b61020e60048036038101906102099190611a62565b610600565b005b61022a60048036038101906102259190611a62565b610622565b005b61024660048036038101906102419190611ad7565b61069d565b005b61025061079f565b60405161025d9190611b70565b60405180910390f35b610280600480360381019061027b9190611bc4565b6107c7565b005b61029c60048036038101906102979190611c14565b610804565b6040516102a99190611903565b60405180910390f35b6102cc60048036038101906102c79190611d4a565b610850565b005b6102e860048036038101906102e39190611e35565b6109ad565b005b61030460048036038101906102ff9190611e9b565b610a60565b005b610320600480360381019061031b9190611c14565b610b13565b60405161032d9190611ed5565b60405180910390f35b610350600480360381019061034b9190611eee565b610bb4565b005b61036c60048036038101906103679190611a62565b610cd5565b6040516103799190611903565b60405180910390f35b61038a610d38565b6040516103979190611934565b60405180910390f35b6103ba60048036038101906103b59190611c14565b610d3e565b005b6103c4610e5c565b6040516103d19190611f4c565b60405180910390f35b6103f460048036038101906103ef9190611c14565b610e84565b6040516104019190611903565b60405180910390f35b610424600480360381019061041f9190611a62565b610fd8565b005b61042e610ffa565b60405161043b9190611934565b60405180910390f35b61045e60048036038101906104599190611c14565b611020565b60405161046b9190611f85565b60405180910390f35b61047c6110c1565b6040516104899190611fbe565b60405180910390f35b5f7f7965db0b000000000000000000000000000000000000000000000000000000007bffffffffffffffffffffffffffffffffffffffffffffffffffffffff1916827bffffffffffffffffffffffffffffffffffffffffffffffffffffffff191614806105045750610503826110e9565b5b9050919050565b7fcab5a0bfe0b79d2c4b1c2e02599fa044d115b7511f9659307cb42769509677095f1b81565b5f805f8381526020019081526020015f20600101549050919050565b7fb19546dff01e856fb3f010c267a7b1c60363cf8a4664e21cc89c26224620214e5f1b61057981611152565b8160035f6101000a81548173ffffffffffffffffffffffffffffffffffffffff021916908373ffffffffffffffffffffffffffffffffffffffff1602179055508173ffffffffffffffffffffffffffffffffffffffff167f2fa8b95c1db7afe99e3398f3792f008135cedc1fa26b0bb2ecd2352cd166d53c60405160405180910390a25050565b61060982610531565b61061281611152565b61061c8383611166565b50505050565b61062a61124f565b73ffffffffffffffffffffffffffffffffffffffff168173ffffffffffffffffffffffffffffffffffffffff161461068e576040517f6697b23200000000000000000000000000000000000000000000000000000000815260040160405180910390fd5b6106988282611256565b505050565b7fcab5a0bfe0b79d2c4b1c2e02599fa044d115b7511f9659307cb42769509677095f1b6106c981611152565b60035f9054906101000a900473ffffffffffffffffffffffffffffffffffffffff1673ffffffffffffffffffffffffffffffffffffffff16639f3418d584846040518363ffffffff1660e01b8152600401610725929190611fe6565b5f604051808303815f87803b15801561073c575f80fd5b505af115801561074e573d5f803e3d5ffd5b505050508161ffff168373ffffffffffffffffffffffffffffffffffffffff167f04ed3b726495c2dca1ff1215d9ca54e1a4030abb5e82b0f6ce55702416cee85360405160405180910390a3505050565b5f60015f9054906101000a900473ffffffffffffffffffffffffffffffffffffffff16905090565b7fcab5a0bfe0b79d2c4b1c2e02599fa044d115b7511f9659307cb42769509677095f1b6107f381611152565b6107fe84848461133f565b50505050565b5f8073ffffffffffffffffffffffffffffffffffffffff1661082583611020565b73ffffffffffffffffffffffffffffffffffffffff1614610847576001610849565b5f5b9050919050565b7fcab5a0bfe0b79d2c4b1c2e02599fa044d115b7511f9659307cb42769509677095f1b61087c81611152565b5f8787905090508585905081146108c8576040517f08c379a00000000000000000000000000000000000000000000000000000000081526004016108bf90612067565b60405180910390fd5b83839050811461090d576040517f08c379a000000000000000000000000000000000000000000000000000000000815260040161090490612067565b60405180910390fd5b5f5b818110156109a25761099789898381811061092d5761092c612085565b5b90506020020160208101906109429190611c14565b88888481811061095557610954612085565b5b905060200201602081019061096a91906120b2565b87878581811061097d5761097c612085565b5b905060200201602081019061099291906120dd565b61133f565b80600101905061090f565b505050505050505050565b7fb19546dff01e856fb3f010c267a7b1c60363cf8a4664e21cc89c26224620214e5f1b6109d981611152565b8160015f6101000a81548173ffffffffffffffffffffffffffffffffffffffff021916908373ffffffffffffffffffffffffffffffffffffffff1602179055508173ffffffffffffffffffffffffffffffffffffffff167f7170bf15b246e880b2369cd7c67d057760d8a35149e8c64dde91efa22bcc76d060405160405180910390a25050565b7fb19546dff01e856fb3f010c267a7b1c60363cf8a4664e21cc89c26224620214e5f1b610a8c81611152565b8160025f6101000a81548173ffffffffffffffffffffffffffffffffffffffff021916908373ffffffffffffffffffffffffffffffffffffffff1602179055508173ffffffffffffffffffffffffffffffffffffffff167f811d3016da8008875247af93af072ec7801e39d9f4c686fec82ab600d8e555e860405160405180910390a25050565b5f60035f9054906101000a900473ffffffffffffffffffffffffffffffffffffffff1673ffffffffffffffffffffffffffffffffffffffff1663727e13bc836040518263ffffffff1660e01b8152600401610b6e9190612108565b602060405180830381865afa158015610b89573d5f803e3d5ffd5b505050506040513d601f19601f82011682018060405250810190610bad9190612135565b9050919050565b7fcab5a0bfe0b79d2c4b1c2e02599fa044d115b7511f9659307cb42769509677095f1b610be081611152565b5f610bea84611429565b905060035f9054906101000a900473ffffffffffffffffffffffffffffffffffffffff1673ffffffffffffffffffffffffffffffffffffffff1663e805cf8685856040518363ffffffff1660e01b8152600401610c48929190612160565b5f604051808303815f87803b158015610c5f575f80fd5b505af1158015610c71573d5f803e3d5ffd5b505050508273ffffffffffffffffffffffffffffffffffffffff168173ffffffffffffffffffffffffffffffffffffffff167fe98082932c8056a0f514da9104e4a66bc2cbaef102ad59d90c4b24220ebf601060405160405180910390a350505050565b5f805f8481526020019081526020015f205f015f8373ffffffffffffffffffffffffffffffffffffffff1673ffffffffffffffffffffffffffffffffffffffff1681526020019081526020015f205f9054906101000a900460ff16905092915050565b5f801b81565b7fcab5a0bfe0b79d2c4b1c2e02599fa044d115b7511f9659307cb42769509677095f1b610d6a81611152565b5f610d7483611429565b905060035f9054906101000a900473ffffffffffffffffffffffffffffffffffffffff1673ffffffffffffffffffffffffffffffffffffffff1663cf191bcd846040518263ffffffff1660e01b8152600401610dd09190612108565b5f604051808303815f87803b158015610de7575f80fd5b505af1158015610df9573d5f803e3d5ffd5b505050508073ffffffffffffffffffffffffffffffffffffffff168373ffffffffffffffffffffffffffffffffffffffff167f59d6590e225b81befe259af056324092801080acbb7feab310eb34678871f32760405160405180910390a3505050565b5f60025f9054906101000a900473ffffffffffffffffffffffffffffffffffffffff16905090565b5f80610e8f83611429565b90505f73ffffffffffffffffffffffffffffffffffffffff168173ffffffffffffffffffffffffffffffffffffffff1603610ecd575f915050610fd3565b5f60015f9054906101000a900473ffffffffffffffffffffffffffffffffffffffff1673ffffffffffffffffffffffffffffffffffffffff1663df09d6046040518163ffffffff1660e01b81526004015f60405180830381865afa158015610f37573d5f803e3d5ffd5b505050506040513d5f823e3d601f19601f82011682018060405250810190610f5f9190612302565b90505f815190505f8103610f795760019350505050610fd3565b5f5b81811015610fca57610fa784848381518110610f9a57610f99612085565b5b60200260200101516114ca565b610fb7575f945050505050610fd3565b8080610fc290612376565b915050610f7b565b50600193505050505b919050565b610fe182610531565b610fea81611152565b610ff48383611256565b50505050565b7fb19546dff01e856fb3f010c267a7b1c60363cf8a4664e21cc89c26224620214e5f1b81565b5f60035f9054906101000a900473ffffffffffffffffffffffffffffffffffffffff1673ffffffffffffffffffffffffffffffffffffffff16637988d3a5836040518263ffffffff1660e01b815260040161107b9190612108565b602060405180830381865afa158015611096573d5f803e3d5ffd5b505050506040513d601f19601f820116820180604052508101906110ba91906123d1565b9050919050565b5f60035f9054906101000a900473ffffffffffffffffffffffffffffffffffffffff16905090565b5f7f01ffc9a7000000000000000000000000000000000000000000000000000000007bffffffffffffffffffffffffffffffffffffffffffffffffffffffff1916827bffffffffffffffffffffffffffffffffffffffffffffffffffffffff1916149050919050565b6111638161115e61124f565b611773565b50565b5f6111718383610cd5565b6112455760015f808581526020019081526020015f205f015f8473ffffffffffffffffffffffffffffffffffffffff1673ffffffffffffffffffffffffffffffffffffffff1681526020019081526020015f205f6101000a81548160ff0219169083151502179055506111e261124f565b73ffffffffffffffffffffffffffffffffffffffff168273ffffffffffffffffffffffffffffffffffffffff16847f2f8788117e7eff1d82e926ec794901d17c78024a50270940304540a733656f0d60405160405180910390a460019050611249565b5f90505b92915050565b5f33905090565b5f6112618383610cd5565b15611335575f805f8581526020019081526020015f205f015f8473ffffffffffffffffffffffffffffffffffffffff1673ffffffffffffffffffffffffffffffffffffffff1681526020019081526020015f205f6101000a81548160ff0219169083151502179055506112d261124f565b73ffffffffffffffffffffffffffffffffffffffff168273ffffffffffffffffffffffffffffffffffffffff16847ff6391f5c32d9c69d2a47ea670b442974b53935d1edc7fd64eb21e047a839171b60405160405180910390a460019050611339565b5f90505b92915050565b60035f9054906101000a900473ffffffffffffffffffffffffffffffffffffffff1673ffffffffffffffffffffffffffffffffffffffff1663a53410dd8484846040518463ffffffff1660e01b815260040161139d939291906123fc565b5f604051808303815f87803b1580156113b4575f80fd5b505af11580156113c6573d5f803e3d5ffd5b505050508173ffffffffffffffffffffffffffffffffffffffff168373ffffffffffffffffffffffffffffffffffffffff167f6ae73635c50d24a45af6fbd5e016ac4bed179addbc8bf24e04ff0fcc6d33af1960405160405180910390a3505050565b5f60035f9054906101000a900473ffffffffffffffffffffffffffffffffffffffff1673ffffffffffffffffffffffffffffffffffffffff16637988d3a5836040518263ffffffff1660e01b81526004016114849190612108565b602060405180830381865afa15801561149f573d5f803e3d5ffd5b505050506040513d601f19601f820116820180604052508101906114c391906123d1565b9050919050565b5f8060025f9054906101000a900473ffffffffffffffffffffffffffffffffffffffff1673ffffffffffffffffffffffffffffffffffffffff16636b2c56bd846040518263ffffffff1660e01b81526004016115269190612440565b5f60405180830381865afa158015611540573d5f803e3d5ffd5b505050506040513d5f823e3d601f19601f820116820180604052508101906115689190612554565b90505f815190505f8103611580575f9250505061176d565b5f8167ffffffffffffffff81111561159b5761159a612197565b5b6040519080825280602002602001820160405280156115c95781602001602082028036833780820191505090505b5090505f5b8281101561164b578381815181106115e9576115e8612085565b5b6020026020010151866040516020016116039291906125bb565b6040516020818303038152906040528051906020012082828151811061162c5761162b612085565b5b602002602001018181525050808061164390612376565b9150506115ce565b505f5b8151811015611765575f805f808a73ffffffffffffffffffffffffffffffffffffffff1663c9100bcb87878151811061168a57611689612085565b5b60200260200101516040518263ffffffff1660e01b81526004016116ae9190611934565b5f60405180830381865afa1580156116c8573d5f803e3d5ffd5b505050506040513d5f823e3d601f19601f820116820180604052508101906116f0919061275e565b509450945094505093508984036117295761170e8b848c85856117c4565b156117245760019850505050505050505061176d565b61174e565b60018651611737919061283b565b850361174d575f9850505050505050505061176d565b5b50505050808061175d90612376565b91505061164e565b505f93505050505b92915050565b61177d8282610cd5565b6117c05780826040517fe2517d3f0000000000000000000000000000000000000000000000000000000081526004016117b792919061286e565b60405180910390fd5b5050565b5f8473ffffffffffffffffffffffffffffffffffffffff1663c0969a6e878686866040518563ffffffff1660e01b815260040161180494939291906128e7565b602060405180830381865afa92505050801561183e57506040513d601f19601f8201168201806040525081019061183b9190612962565b60015b61184a575f905061184f565b809150505b95945050505050565b5f604051905090565b5f80fd5b5f80fd5b5f7fffffffff0000000000000000000000000000000000000000000000000000000082169050919050565b61189d81611869565b81146118a7575f80fd5b50565b5f813590506118b881611894565b92915050565b5f602082840312156118d3576118d2611861565b5b5f6118e0848285016118aa565b91505092915050565b5f8115159050919050565b6118fd816118e9565b82525050565b5f6020820190506119165f8301846118f4565b92915050565b5f819050919050565b61192e8161191c565b82525050565b5f6020820190506119475f830184611925565b92915050565b6119568161191c565b8114611960575f80fd5b50565b5f813590506119718161194d565b92915050565b5f6020828403121561198c5761198b611861565b5b5f61199984828501611963565b91505092915050565b5f73ffffffffffffffffffffffffffffffffffffffff82169050919050565b5f6119cb826119a2565b9050919050565b5f6119dc826119c1565b9050919050565b6119ec816119d2565b81146119f6575f80fd5b50565b5f81359050611a07816119e3565b92915050565b5f60208284031215611a2257611a21611861565b5b5f611a2f848285016119f9565b91505092915050565b611a41816119c1565b8114611a4b575f80fd5b50565b5f81359050611a5c81611a38565b92915050565b5f8060408385031215611a7857611a77611861565b5b5f611a8585828601611963565b9250506020611a9685828601611a4e565b9150509250929050565b5f61ffff82169050919050565b611ab681611aa0565b8114611ac0575f80fd5b50565b5f81359050611ad181611aad565b92915050565b5f8060408385031215611aed57611aec611861565b5b5f611afa85828601611a4e565b9250506020611b0b85828601611ac3565b9150509250929050565b5f819050919050565b5f611b38611b33611b2e846119a2565b611b15565b6119a2565b9050919050565b5f611b4982611b1e565b9050919050565b5f611b5a82611b3f565b9050919050565b611b6a81611b50565b82525050565b5f602082019050611b835f830184611b61565b92915050565b5f611b93826119c1565b9050919050565b611ba381611b89565b8114611bad575f80fd5b50565b5f81359050611bbe81611b9a565b92915050565b5f805f60608486031215611bdb57611bda611861565b5b5f611be886828701611a4e565b9350506020611bf986828701611bb0565b9250506040611c0a86828701611ac3565b9150509250925092565b5f60208284031215611c2957611c28611861565b5b5f611c3684828501611a4e565b91505092915050565b5f80fd5b5f80fd5b5f80fd5b5f8083601f840112611c6057611c5f611c3f565b5b8235905067ffffffffffffffff811115611c7d57611c7c611c43565b5b602083019150836020820283011115611c9957611c98611c47565b5b9250929050565b5f8083601f840112611cb557611cb4611c3f565b5b8235905067ffffffffffffffff811115611cd257611cd1611c43565b5b602083019150836020820283011115611cee57611ced611c47565b5b9250929050565b5f8083601f840112611d0a57611d09611c3f565b5b8235905067ffffffffffffffff811115611d2757611d26611c43565b5b602083019150836020820283011115611d4357611d42611c47565b5b9250929050565b5f805f805f8060608789031215611d6457611d63611861565b5b5f87013567ffffffffffffffff811115611d8157611d80611865565b5b611d8d89828a01611c4b565b9650965050602087013567ffffffffffffffff811115611db057611daf611865565b5b611dbc89828a01611ca0565b9450945050604087013567ffffffffffffffff811115611ddf57611dde611865565b5b611deb89828a01611cf5565b92509250509295509295509295565b5f611e04826119c1565b9050919050565b611e1481611dfa565b8114611e1e575f80fd5b50565b5f81359050611e2f81611e0b565b92915050565b5f60208284031215611e4a57611e49611861565b5b5f611e5784828501611e21565b91505092915050565b5f611e6a826119c1565b9050919050565b611e7a81611e60565b8114611e84575f80fd5b50565b5f81359050611e9581611e71565b92915050565b5f60208284031215611eb057611eaf611861565b5b5f611ebd84828501611e87565b91505092915050565b611ecf81611aa0565b82525050565b5f602082019050611ee85f830184611ec6565b92915050565b5f8060408385031215611f0457611f03611861565b5b5f611f1185828601611a4e565b9250506020611f2285828601611bb0565b9150509250929050565b5f611f3682611b3f565b9050919050565b611f4681611f2c565b82525050565b5f602082019050611f5f5f830184611f3d565b92915050565b5f611f6f82611b3f565b9050919050565b611f7f81611f65565b82525050565b5f602082019050611f985f830184611f76565b92915050565b5f611fa882611b3f565b9050919050565b611fb881611f9e565b82525050565b5f602082019050611fd15f830184611faf565b92915050565b611fe0816119c1565b82525050565b5f604082019050611ff95f830185611fd7565b6120066020830184611ec6565b9392505050565b5f82825260208201905092915050565b7f4552432d333634333a2041727261792073697a65206d69736d617463680000005f82015250565b5f612051601d8361200d565b915061205c8261201d565b602082019050919050565b5f6020820190508181035f83015261207e81612045565b9050919050565b7f4e487b71000000000000000000000000000000000000000000000000000000005f52603260045260245ffd5b5f602082840312156120c7576120c6611861565b5b5f6120d484828501611bb0565b91505092915050565b5f602082840312156120f2576120f1611861565b5b5f6120ff84828501611ac3565b91505092915050565b5f60208201905061211b5f830184611fd7565b92915050565b5f8151905061212f81611aad565b92915050565b5f6020828403121561214a57612149611861565b5b5f61215784828501612121565b91505092915050565b5f6040820190506121735f830185611fd7565b6121806020830184611f76565b9392505050565b5f601f19601f8301169050919050565b7f4e487b71000000000000000000000000000000000000000000000000000000005f52604160045260245ffd5b6121cd82612187565b810181811067ffffffffffffffff821117156121ec576121eb612197565b5b80604052505050565b5f6121fe611858565b905061220a82826121c4565b919050565b5f67ffffffffffffffff82111561222957612228612197565b5b602082029050602081019050919050565b5f819050919050565b61224c8161223a565b8114612256575f80fd5b50565b5f8151905061226781612243565b92915050565b5f61227f61227a8461220f565b6121f5565b905080838252602082019050602084028301858111156122a2576122a1611c47565b5b835b818110156122cb57806122b78882612259565b8452602084019350506020810190506122a4565b5050509392505050565b5f82601f8301126122e9576122e8611c3f565b5b81516122f984826020860161226d565b91505092915050565b5f6020828403121561231757612316611861565b5b5f82015167ffffffffffffffff81111561233457612333611865565b5b612340848285016122d5565b91505092915050565b7f4e487b71000000000000000000000000000000000000000000000000000000005f52601160045260245ffd5b5f6123808261223a565b91507fffffffffffffffffffffffffffffffffffffffffffffffffffffffffffffffff82036123b2576123b1612349565b5b600182019050919050565b5f815190506123cb81611b9a565b92915050565b5f602082840312156123e6576123e5611861565b5b5f6123f3848285016123bd565b91505092915050565b5f60608201905061240f5f830186611fd7565b61241c6020830185611f76565b6124296040830184611ec6565b949350505050565b61243a8161223a565b82525050565b5f6020820190506124535f830184612431565b92915050565b5f67ffffffffffffffff82111561247357612472612197565b5b602082029050602081019050919050565b5f61248e826119c1565b9050919050565b61249e81612484565b81146124a8575f80fd5b50565b5f815190506124b981612495565b92915050565b5f6124d16124cc84612459565b6121f5565b905080838252602082019050602084028301858111156124f4576124f3611c47565b5b835b8181101561251d578061250988826124ab565b8452602084019350506020810190506124f6565b5050509392505050565b5f82601f83011261253b5761253a611c3f565b5b815161254b8482602086016124bf565b91505092915050565b5f6020828403121561256957612568611861565b5b5f82015167ffffffffffffffff81111561258657612585611865565b5b61259284828501612527565b91505092915050565b5f6125a582611b3f565b9050919050565b6125b58161259b565b82525050565b5f6040820190506125ce5f8301856125ac565b6125db6020830184612431565b9392505050565b5f815190506125f081611a38565b92915050565b5f80fd5b5f67ffffffffffffffff82111561261457612613612197565b5b61261d82612187565b9050602081019050919050565b5f5b8381101561264757808201518184015260208101905061262c565b5f8484015250505050565b5f61266461265f846125fa565b6121f5565b9050828152602081018484840111156126805761267f6125f6565b5b61268b84828561262a565b509392505050565b5f82601f8301126126a7576126a6611c3f565b5b81516126b7848260208601612652565b91505092915050565b5f67ffffffffffffffff8211156126da576126d9612197565b5b6126e382612187565b9050602081019050919050565b5f6127026126fd846126c0565b6121f5565b90508281526020810184848401111561271e5761271d6125f6565b5b61272984828561262a565b509392505050565b5f82601f83011261274557612744611c3f565b5b81516127558482602086016126f0565b91505092915050565b5f805f805f8060c0878903121561277857612777611861565b5b5f61278589828a01612259565b965050602061279689828a01612259565b95505060406127a789828a016125e2565b945050606087015167ffffffffffffffff8111156127c8576127c7611865565b5b6127d489828a01612693565b935050608087015167ffffffffffffffff8111156127f5576127f4611865565b5b61280189828a01612693565b92505060a087015167ffffffffffffffff81111561282257612821611865565b5b61282e89828a01612731565b9150509295509295509295565b5f6128458261223a565b91506128508361223a565b925082820390508181111561286857612867612349565b5b92915050565b5f6040820190506128815f830185611fd7565b61288e6020830184611925565b9392505050565b5f81519050919050565b5f82825260208201905092915050565b5f6128b982612895565b6128c3818561289f565b93506128d381856020860161262a565b6128dc81612187565b840191505092915050565b5f6080820190506128fa5f830187611f76565b6129076020830186612431565b818103604083015261291981856128af565b9050818103606083015261292d81846128af565b905095945050505050565b612941816118e9565b811461294b575f80fd5b50565b5f8151905061295c81612938565b92915050565b5f6020828403121561297757612976611861565b5b5f6129848482850161294e565b9150509291505056fea264697066735822122086352aeb7febf69c7c9c5cf9f39ad7837fc1bebe36be0217b751174685ba296364736f6c63430008140033",
					"opcodes": "PUSH1 0x80 PUSH1 0x40 MSTORE CALLVALUE DUP1 ISZERO PUSH3 0x10 JUMPI PUSH0 DUP1 REVERT JUMPDEST POP PUSH1 0x40 MLOAD PUSH3 0x301D CODESIZE SUB DUP1 PUSH3 0x301D DUP4 CODECOPY DUP2 DUP2 ADD PUSH1 0x40 MSTORE DUP2 ADD SWAP1 PUSH3 0x36 SWAP2 SWAP1 PUSH3 0x575 JUMP JUMPDEST PUSH0 PUSH20 0xFFFFFFFFFFFFFFFFFFFFFFFFFFFFFFFFFFFFFFFF AND DUP4 PUSH20 0xFFFFFFFFFFFFFFFFFFFFFFFFFFFFFFFFFFFFFFFF AND EQ ISZERO DUP1 ISZERO PUSH3 0x9F JUMPI POP PUSH0 PUSH20 0xFFFFFFFFFFFFFFFFFFFFFFFFFFFFFFFFFFFFFFFF AND DUP3 PUSH20 0xFFFFFFFFFFFFFFFFFFFFFFFFFFFFFFFFFFFFFFFF AND EQ ISZERO JUMPDEST DUP1 ISZERO PUSH3 0xD8 JUMPI POP PUSH0 PUSH20 0xFFFFFFFFFFFFFFFFFFFFFFFFFFFFFFFFFFFFFFFF AND DUP2 PUSH20 0xFFFFFFFFFFFFFFFFFFFFFFFFFFFFFFFFFFFFFFFF AND EQ ISZERO JUMPDEST PUSH3 0x11A JUMPI PUSH1 0x40 MLOAD PUSH32 0x8C379A000000000000000000000000000000000000000000000000000000000 DUP2 MSTORE PUSH1 0x4 ADD PUSH3 0x111 SWAP1 PUSH3 0x62C JUMP JUMPDEST PUSH1 0x40 MLOAD DUP1 SWAP2 SUB SWAP1 REVERT JUMPDEST PUSH3 0x13D PUSH0 DUP1 SHL PUSH3 0x131 PUSH3 0x314 PUSH1 0x20 SHL PUSH1 0x20 SHR JUMP JUMPDEST PUSH3 0x31B PUSH1 0x20 SHL PUSH1 0x20 SHR JUMP JUMPDEST POP PUSH3 0x181 PUSH32 0xB19546DFF01E856FB3F010C267A7B1C60363CF8A4664E21CC89C26224620214E PUSH0 SHL PUSH3 0x175 PUSH3 0x314 PUSH1 0x20 SHL PUSH1 0x20 SHR JUMP JUMPDEST PUSH3 0x31B PUSH1 0x20 SHL PUSH1 0x20 SHR JUMP JUMPDEST POP DUP2 PUSH1 0x1 PUSH0 PUSH2 0x100 EXP DUP2 SLOAD DUP2 PUSH20 0xFFFFFFFFFFFFFFFFFFFFFFFFFFFFFFFFFFFFFFFF MUL NOT AND SWAP1 DUP4 PUSH20 0xFFFFFFFFFFFFFFFFFFFFFFFFFFFFFFFFFFFFFFFF AND MUL OR SWAP1 SSTORE POP DUP3 PUSH1 0x2 PUSH0 PUSH2 0x100 EXP DUP2 SLOAD DUP2 PUSH20 0xFFFFFFFFFFFFFFFFFFFFFFFFFFFFFFFFFFFFFFFF MUL NOT AND SWAP1 DUP4 PUSH20 0xFFFFFFFFFFFFFFFFFFFFFFFFFFFFFFFFFFFFFFFF AND MUL OR SWAP1 SSTORE POP DUP1 PUSH1 0x3 PUSH0 PUSH2 0x100 EXP DUP2 SLOAD DUP2 PUSH20 0xFFFFFFFFFFFFFFFFFFFFFFFFFFFFFFFFFFFFFFFF MUL NOT AND SWAP1 DUP4 PUSH20 0xFFFFFFFFFFFFFFFFFFFFFFFFFFFFFFFFFFFFFFFF AND MUL OR SWAP1 SSTORE POP DUP2 PUSH20 0xFFFFFFFFFFFFFFFFFFFFFFFFFFFFFFFFFFFFFFFF AND PUSH32 0x7170BF15B246E880B2369CD7C67D057760D8A35149E8C64DDE91EFA22BCC76D0 PUSH1 0x40 MLOAD PUSH1 0x40 MLOAD DUP1 SWAP2 SUB SWAP1 LOG2 DUP3 PUSH20 0xFFFFFFFFFFFFFFFFFFFFFFFFFFFFFFFFFFFFFFFF AND PUSH32 0x811D3016DA8008875247AF93AF072EC7801E39D9F4C686FEC82AB600D8E555E8 PUSH1 0x40 MLOAD PUSH1 0x40 MLOAD DUP1 SWAP2 SUB SWAP1 LOG2 DUP1 PUSH20 0xFFFFFFFFFFFFFFFFFFFFFFFFFFFFFFFFFFFFFFFF AND PUSH32 0x2FA8B95C1DB7AFE99E3398F3792F008135CEDC1FA26B0BB2ECD2352CD166D53C PUSH1 0x40 MLOAD PUSH1 0x40 MLOAD DUP1 SWAP2 SUB SWAP1 LOG2 POP POP POP PUSH3 0x64C JUMP JUMPDEST PUSH0 CALLER SWAP1 POP SWAP1 JUMP JUMPDEST PUSH0 PUSH3 0x32E DUP4 DUP4 PUSH3 0x416 PUSH1 0x20 SHL PUSH1 0x20 SHR JUMP JUMPDEST PUSH3 0x40C JUMPI PUSH1 0x1 PUSH0 DUP1 DUP6 DUP2 MSTORE PUSH1 0x20 ADD SWAP1 DUP2 MSTORE PUSH1 0x20 ADD PUSH0 KECCAK256 PUSH0 ADD PUSH0 DUP5 PUSH20 0xFFFFFFFFFFFFFFFFFFFFFFFFFFFFFFFFFFFFFFFF AND PUSH20 0xFFFFFFFFFFFFFFFFFFFFFFFFFFFFFFFFFFFFFFFF AND DUP2 MSTORE PUSH1 0x20 ADD SWAP1 DUP2 MSTORE PUSH1 0x20 ADD PUSH0 KECCAK256 PUSH0 PUSH2 0x100 EXP DUP2 SLOAD DUP2 PUSH1 0xFF MUL NOT AND SWAP1 DUP4 ISZERO ISZERO MUL OR SWAP1 SSTORE POP PUSH3 0x3A8 PUSH3 0x314 PUSH1 0x20 SHL PUSH1 0x20 SHR JUMP JUMPDEST PUSH20 0xFFFFFFFFFFFFFFFFFFFFFFFFFFFFFFFFFFFFFFFF AND DUP3 PUSH20 0xFFFFFFFFFFFFFFFFFFFFFFFFFFFFFFFFFFFFFFFF AND DUP5 PUSH32 0x2F8788117E7EFF1D82E926EC794901D17C78024A50270940304540A733656F0D PUSH1 0x40 MLOAD PUSH1 0x40 MLOAD DUP1 SWAP2 SUB SWAP1 LOG4 PUSH1 0x1 SWAP1 POP PUSH3 0x410 JUMP JUMPDEST PUSH0 SWAP1 POP JUMPDEST SWAP3 SWAP2 POP POP JUMP JUMPDEST PUSH0 DUP1 PUSH0 DUP5 DUP2 MSTORE PUSH1 0x20 ADD SWAP1 DUP2 MSTORE PUSH1 0x20 ADD PUSH0 KECCAK256 PUSH0 ADD PUSH0 DUP4 PUSH20 0xFFFFFFFFFFFFFFFFFFFFFFFFFFFFFFFFFFFFFFFF AND PUSH20 0xFFFFFFFFFFFFFFFFFFFFFFFFFFFFFFFFFFFFFFFF AND DUP2 MSTORE PUSH1 0x20 ADD SWAP1 DUP2 MSTORE PUSH1 0x20 ADD PUSH0 KECCAK256 PUSH0 SWAP1 SLOAD SWAP1 PUSH2 0x100 EXP SWAP1 DIV PUSH1 0xFF AND SWAP1 POP SWAP3 SWAP2 POP POP JUMP JUMPDEST PUSH0 DUP1 REVERT JUMPDEST PUSH0 PUSH20 0xFFFFFFFFFFFFFFFFFFFFFFFFFFFFFFFFFFFFFFFF DUP3 AND SWAP1 POP SWAP2 SWAP1 POP JUMP JUMPDEST PUSH0 PUSH3 0x4A8 DUP3 PUSH3 0x47D JUMP JUMPDEST SWAP1 POP SWAP2 SWAP1 POP JUMP JUMPDEST PUSH0 PUSH3 0x4BB DUP3 PUSH3 0x49C JUMP JUMPDEST SWAP1 POP SWAP2 SWAP1 POP JUMP JUMPDEST PUSH3 0x4CD DUP2 PUSH3 0x4AF JUMP JUMPDEST DUP2 EQ PUSH3 0x4D8 JUMPI PUSH0 DUP1 REVERT JUMPDEST POP JUMP JUMPDEST PUSH0 DUP2 MLOAD SWAP1 POP PUSH3 0x4EB DUP2 PUSH3 0x4C2 JUMP JUMPDEST SWAP3 SWAP2 POP POP JUMP JUMPDEST PUSH0 PUSH3 0x4FD DUP3 PUSH3 0x49C JUMP JUMPDEST SWAP1 POP SWAP2 SWAP1 POP JUMP JUMPDEST PUSH3 0x50F DUP2 PUSH3 0x4F1 JUMP JUMPDEST DUP2 EQ PUSH3 0x51A JUMPI PUSH0 DUP1 REVERT JUMPDEST POP JUMP JUMPDEST PUSH0 DUP2 MLOAD SWAP1 POP PUSH3 0x52D DUP2 PUSH3 0x504 JUMP JUMPDEST SWAP3 SWAP2 POP POP JUMP JUMPDEST PUSH0 PUSH3 0x53F DUP3 PUSH3 0x49C JUMP JUMPDEST SWAP1 POP SWAP2 SWAP1 POP JUMP JUMPDEST PUSH3 0x551 DUP2 PUSH3 0x533 JUMP JUMPDEST DUP2 EQ PUSH3 0x55C JUMPI PUSH0 DUP1 REVERT JUMPDEST POP JUMP JUMPDEST PUSH0 DUP2 MLOAD SWAP1 POP PUSH3 0x56F DUP2 PUSH3 0x546 JUMP JUMPDEST SWAP3 SWAP2 POP POP JUMP JUMPDEST PUSH0 DUP1 PUSH0 PUSH1 0x60 DUP5 DUP7 SUB SLT ISZERO PUSH3 0x58F JUMPI PUSH3 0x58E PUSH3 0x479 JUMP JUMPDEST JUMPDEST PUSH0 PUSH3 0x59E DUP7 DUP3 DUP8 ADD PUSH3 0x4DB JUMP JUMPDEST SWAP4 POP POP PUSH1 0x20 PUSH3 0x5B1 DUP7 DUP3 DUP8 ADD PUSH3 0x51D JUMP JUMPDEST SWAP3 POP POP PUSH1 0x40 PUSH3 0x5C4 DUP7 DUP3 DUP8 ADD PUSH3 0x55F JUMP JUMPDEST SWAP2 POP POP SWAP3 POP SWAP3 POP SWAP3 JUMP JUMPDEST PUSH0 DUP3 DUP3 MSTORE PUSH1 0x20 DUP3 ADD SWAP1 POP SWAP3 SWAP2 POP POP JUMP JUMPDEST PUSH32 0x4552432D333634333A20496E76616C6964207A65726F20616464726573730000 PUSH0 DUP3 ADD MSTORE POP JUMP JUMPDEST PUSH0 PUSH3 0x614 PUSH1 0x1E DUP4 PUSH3 0x5CE JUMP JUMPDEST SWAP2 POP PUSH3 0x621 DUP3 PUSH3 0x5DE JUMP JUMPDEST PUSH1 0x20 DUP3 ADD SWAP1 POP SWAP2 SWAP1 POP JUMP JUMPDEST PUSH0 PUSH1 0x20 DUP3 ADD SWAP1 POP DUP2 DUP2 SUB PUSH0 DUP4 ADD MSTORE PUSH3 0x645 DUP2 PUSH3 0x606 JUMP JUMPDEST SWAP1 POP SWAP2 SWAP1 POP JUMP JUMPDEST PUSH2 0x29C3 DUP1 PUSH3 0x65A PUSH0 CODECOPY PUSH0 RETURN INVALID PUSH1 0x80 PUSH1 0x40 MSTORE CALLVALUE DUP1 ISZERO PUSH2 0xF JUMPI PUSH0 DUP1 REVERT JUMPDEST POP PUSH1 0x4 CALLDATASIZE LT PUSH2 0x156 JUMPI PUSH0 CALLDATALOAD PUSH1 0xE0 SHR DUP1 PUSH4 0x6BC72C90 GT PUSH2 0xC1 JUMPI DUP1 PUSH4 0xB4F3FCB7 GT PUSH2 0x7A JUMPI DUP1 PUSH4 0xB4F3FCB7 EQ PUSH2 0x3BC JUMPI DUP1 PUSH4 0xB9209E33 EQ PUSH2 0x3DA JUMPI DUP1 PUSH4 0xD547741F EQ PUSH2 0x40A JUMPI DUP1 PUSH4 0xE58378BB EQ PUSH2 0x426 JUMPI DUP1 PUSH4 0xF0EB5E54 EQ PUSH2 0x444 JUMPI DUP1 PUSH4 0xF11ABFD8 EQ PUSH2 0x474 JUMPI PUSH2 0x156 JUMP JUMPDEST DUP1 PUSH4 0x6BC72C90 EQ PUSH2 0x2EA JUMPI DUP1 PUSH4 0x7E42683B EQ PUSH2 0x306 JUMPI DUP1 PUSH4 0x8E098CA1 EQ PUSH2 0x336 JUMPI DUP1 PUSH4 0x91D14854 EQ PUSH2 0x352 JUMPI DUP1 PUSH4 0xA217FDDF EQ PUSH2 0x382 JUMPI DUP1 PUSH4 0xA8D29D1D EQ PUSH2 0x3A0 JUMPI PUSH2 0x156 JUMP JUMPDEST DUP1 PUSH4 0x3B239A7F GT PUSH2 0x113 JUMPI DUP1 PUSH4 0x3B239A7F EQ PUSH2 0x22C JUMPI DUP1 PUSH4 0x3B3E12F4 EQ PUSH2 0x248 JUMPI DUP1 PUSH4 0x454A03E0 EQ PUSH2 0x266 JUMPI DUP1 PUSH4 0x5DBE47E8 EQ PUSH2 0x282 JUMPI DUP1 PUSH4 0x653DC9F1 EQ PUSH2 0x2B2 JUMPI DUP1 PUSH4 0x670AF6A9 EQ PUSH2 0x2CE JUMPI PUSH2 0x156 JUMP JUMPDEST DUP1 PUSH4 0x1FFC9A7 EQ PUSH2 0x15A JUMPI DUP1 PUSH4 0x22459E18 EQ PUSH2 0x18A JUMPI DUP1 PUSH4 0x248A9CA3 EQ PUSH2 0x1A8 JUMPI DUP1 PUSH4 0x26D941AE EQ PUSH2 0x1D8 JUMPI DUP1 PUSH4 0x2F2FF15D EQ PUSH2 0x1F4 JUMPI DUP1 PUSH4 0x36568ABE EQ PUSH2 0x210 JUMPI JUMPDEST PUSH0 DUP1 REVERT JUMPDEST PUSH2 0x174 PUSH1 0x4 DUP1 CALLDATASIZE SUB DUP2 ADD SWAP1 PUSH2 0x16F SWAP2 SWAP1 PUSH2 0x18BE JUMP JUMPDEST PUSH2 0x492 JUMP JUMPDEST PUSH1 0x40 MLOAD PUSH2 0x181 SWAP2 SWAP1 PUSH2 0x1903 JUMP JUMPDEST PUSH1 0x40 MLOAD DUP1 SWAP2 SUB SWAP1 RETURN JUMPDEST PUSH2 0x192 PUSH2 0x50B JUMP JUMPDEST PUSH1 0x40 MLOAD PUSH2 0x19F SWAP2 SWAP1 PUSH2 0x1934 JUMP JUMPDEST PUSH1 0x40 MLOAD DUP1 SWAP2 SUB SWAP1 RETURN JUMPDEST PUSH2 0x1C2 PUSH1 0x4 DUP1 CALLDATASIZE SUB DUP2 ADD SWAP1 PUSH2 0x1BD SWAP2 SWAP1 PUSH2 0x1977 JUMP JUMPDEST PUSH2 0x531 JUMP JUMPDEST PUSH1 0x40 MLOAD PUSH2 0x1CF SWAP2 SWAP1 PUSH2 0x1934 JUMP JUMPDEST PUSH1 0x40 MLOAD DUP1 SWAP2 SUB SWAP1 RETURN JUMPDEST PUSH2 0x1F2 PUSH1 0x4 DUP1 CALLDATASIZE SUB DUP2 ADD SWAP1 PUSH2 0x1ED SWAP2 SWAP1 PUSH2 0x1A0D JUMP JUMPDEST PUSH2 0x54D JUMP JUMPDEST STOP JUMPDEST PUSH2 0x20E PUSH1 0x4 DUP1 CALLDATASIZE SUB DUP2 ADD SWAP1 PUSH2 0x209 SWAP2 SWAP1 PUSH2 0x1A62 JUMP JUMPDEST PUSH2 0x600 JUMP JUMPDEST STOP JUMPDEST PUSH2 0x22A PUSH1 0x4 DUP1 CALLDATASIZE SUB DUP2 ADD SWAP1 PUSH2 0x225 SWAP2 SWAP1 PUSH2 0x1A62 JUMP JUMPDEST PUSH2 0x622 JUMP JUMPDEST STOP JUMPDEST PUSH2 0x246 PUSH1 0x4 DUP1 CALLDATASIZE SUB DUP2 ADD SWAP1 PUSH2 0x241 SWAP2 SWAP1 PUSH2 0x1AD7 JUMP JUMPDEST PUSH2 0x69D JUMP JUMPDEST STOP JUMPDEST PUSH2 0x250 PUSH2 0x79F JUMP JUMPDEST PUSH1 0x40 MLOAD PUSH2 0x25D SWAP2 SWAP1 PUSH2 0x1B70 JUMP JUMPDEST PUSH1 0x40 MLOAD DUP1 SWAP2 SUB SWAP1 RETURN JUMPDEST PUSH2 0x280 PUSH1 0x4 DUP1 CALLDATASIZE SUB DUP2 ADD SWAP1 PUSH2 0x27B SWAP2 SWAP1 PUSH2 0x1BC4 JUMP JUMPDEST PUSH2 0x7C7 JUMP JUMPDEST STOP JUMPDEST PUSH2 0x29C PUSH1 0x4 DUP1 CALLDATASIZE SUB DUP2 ADD SWAP1 PUSH2 0x297 SWAP2 SWAP1 PUSH2 0x1C14 JUMP JUMPDEST PUSH2 0x804 JUMP JUMPDEST PUSH1 0x40 MLOAD PUSH2 0x2A9 SWAP2 SWAP1 PUSH2 0x1903 JUMP JUMPDEST PUSH1 0x40 MLOAD DUP1 SWAP2 SUB SWAP1 RETURN JUMPDEST PUSH2 0x2CC PUSH1 0x4 DUP1 CALLDATASIZE SUB DUP2 ADD SWAP1 PUSH2 0x2C7 SWAP2 SWAP1 PUSH2 0x1D4A JUMP JUMPDEST PUSH2 0x850 JUMP JUMPDEST STOP JUMPDEST PUSH2 0x2E8 PUSH1 0x4 DUP1 CALLDATASIZE SUB DUP2 ADD SWAP1 PUSH2 0x2E3 SWAP2 SWAP1 PUSH2 0x1E35 JUMP JUMPDEST PUSH2 0x9AD JUMP JUMPDEST STOP JUMPDEST PUSH2 0x304 PUSH1 0x4 DUP1 CALLDATASIZE SUB DUP2 ADD SWAP1 PUSH2 0x2FF SWAP2 SWAP1 PUSH2 0x1E9B JUMP JUMPDEST PUSH2 0xA60 JUMP JUMPDEST STOP JUMPDEST PUSH2 0x320 PUSH1 0x4 DUP1 CALLDATASIZE SUB DUP2 ADD SWAP1 PUSH2 0x31B SWAP2 SWAP1 PUSH2 0x1C14 JUMP JUMPDEST PUSH2 0xB13 JUMP JUMPDEST PUSH1 0x40 MLOAD PUSH2 0x32D SWAP2 SWAP1 PUSH2 0x1ED5 JUMP JUMPDEST PUSH1 0x40 MLOAD DUP1 SWAP2 SUB SWAP1 RETURN JUMPDEST PUSH2 0x350 PUSH1 0x4 DUP1 CALLDATASIZE SUB DUP2 ADD SWAP1 PUSH2 0x34B SWAP2 SWAP1 PUSH2 0x1EEE JUMP JUMPDEST PUSH2 0xBB4 JUMP JUMPDEST STOP JUMPDEST PUSH2 0x36C PUSH1 0x4 DUP1 CALLDATASIZE SUB DUP2 ADD SWAP1 PUSH2 0x367 SWAP2 SWAP1 PUSH2 0x1A62 JUMP JUMPDEST PUSH2 0xCD5 JUMP JUMPDEST PUSH1 0x40 MLOAD PUSH2 0x379 SWAP2 SWAP1 PUSH2 0x1903 JUMP JUMPDEST PUSH1 0x40 MLOAD DUP1 SWAP2 SUB SWAP1 RETURN JUMPDEST PUSH2 0x38A PUSH2 0xD38 JUMP JUMPDEST PUSH1 0x40 MLOAD PUSH2 0x397 SWAP2 SWAP1 PUSH2 0x1934 JUMP JUMPDEST PUSH1 0x40 MLOAD DUP1 SWAP2 SUB SWAP1 RETURN JUMPDEST PUSH2 0x3BA PUSH1 0x4 DUP1 CALLDATASIZE SUB DUP2 ADD SWAP1 PUSH2 0x3B5 SWAP2 SWAP1 PUSH2 0x1C14 JUMP JUMPDEST PUSH2 0xD3E JUMP JUMPDEST STOP JUMPDEST PUSH2 0x3C4 PUSH2 0xE5C JUMP JUMPDEST PUSH1 0x40 MLOAD PUSH2 0x3D1 SWAP2 SWAP1 PUSH2 0x1F4C JUMP JUMPDEST PUSH1 0x40 MLOAD DUP1 SWAP2 SUB SWAP1 RETURN JUMPDEST PUSH2 0x3F4 PUSH1 0x4 DUP1 CALLDATASIZE SUB DUP2 ADD SWAP1 PUSH2 0x3EF SWAP2 SWAP1 PUSH2 0x1C14 JUMP JUMPDEST PUSH2 0xE84 JUMP JUMPDEST PUSH1 0x40 MLOAD PUSH2 0x401 SWAP2 SWAP1 PUSH2 0x1903 JUMP JUMPDEST PUSH1 0x40 MLOAD DUP1 SWAP2 SUB SWAP1 RETURN JUMPDEST PUSH2 0x424 PUSH1 0x4 DUP1 CALLDATASIZE SUB DUP2 ADD SWAP1 PUSH2 0x41F SWAP2 SWAP1 PUSH2 0x1A62 JUMP JUMPDEST PUSH2 0xFD8 JUMP JUMPDEST STOP JUMPDEST PUSH2 0x42E PUSH2 0xFFA JUMP JUMPDEST PUSH1 0x40 MLOAD PUSH2 0x43B SWAP2 SWAP1 PUSH2 0x1934 JUMP JUMPDEST PUSH1 0x40 MLOAD DUP1 SWAP2 SUB SWAP1 RETURN JUMPDEST PUSH2 0x45E PUSH1 0x4 DUP1 CALLDATASIZE SUB DUP2 ADD SWAP1 PUSH2 0x459 SWAP2 SWAP1 PUSH2 0x1C14 JUMP JUMPDEST PUSH2 0x1020 JUMP JUMPDEST PUSH1 0x40 MLOAD PUSH2 0x46B SWAP2 SWAP1 PUSH2 0x1F85 JUMP JUMPDEST PUSH1 0x40 MLOAD DUP1 SWAP2 SUB SWAP1 RETURN JUMPDEST PUSH2 0x47C PUSH2 0x10C1 JUMP JUMPDEST PUSH1 0x40 MLOAD PUSH2 0x489 SWAP2 SWAP1 PUSH2 0x1FBE JUMP JUMPDEST PUSH1 0x40 MLOAD DUP1 SWAP2 SUB SWAP1 RETURN JUMPDEST PUSH0 PUSH32 0x7965DB0B00000000000000000000000000000000000000000000000000000000 PUSH28 0xFFFFFFFFFFFFFFFFFFFFFFFFFFFFFFFFFFFFFFFFFFFFFFFFFFFFFFFF NOT AND DUP3 PUSH28 0xFFFFFFFFFFFFFFFFFFFFFFFFFFFFFFFFFFFFFFFFFFFFFFFFFFFFFFFF NOT AND EQ DUP1 PUSH2 0x504 JUMPI POP PUSH2 0x503 DUP3 PUSH2 0x10E9 JUMP JUMPDEST JUMPDEST SWAP1 POP SWAP2 SWAP1 POP JUMP JUMPDEST PUSH32 0xCAB5A0BFE0B79D2C4B1C2E02599FA044D115B7511F9659307CB4276950967709 PUSH0 SHL DUP2 JUMP JUMPDEST PUSH0 DUP1 PUSH0 DUP4 DUP2 MSTORE PUSH1 0x20 ADD SWAP1 DUP2 MSTORE PUSH1 0x20 ADD PUSH0 KECCAK256 PUSH1 0x1 ADD SLOAD SWAP1 POP SWAP2 SWAP1 POP JUMP JUMPDEST PUSH32 0xB19546DFF01E856FB3F010C267A7B1C60363CF8A4664E21CC89C26224620214E PUSH0 SHL PUSH2 0x579 DUP2 PUSH2 0x1152 JUMP JUMPDEST DUP2 PUSH1 0x3 PUSH0 PUSH2 0x100 EXP DUP2 SLOAD DUP2 PUSH20 0xFFFFFFFFFFFFFFFFFFFFFFFFFFFFFFFFFFFFFFFF MUL NOT AND SWAP1 DUP4 PUSH20 0xFFFFFFFFFFFFFFFFFFFFFFFFFFFFFFFFFFFFFFFF AND MUL OR SWAP1 SSTORE POP DUP2 PUSH20 0xFFFFFFFFFFFFFFFFFFFFFFFFFFFFFFFFFFFFFFFF AND PUSH32 0x2FA8B95C1DB7AFE99E3398F3792F008135CEDC1FA26B0BB2ECD2352CD166D53C PUSH1 0x40 MLOAD PUSH1 0x40 MLOAD DUP1 SWAP2 SUB SWAP1 LOG2 POP POP JUMP JUMPDEST PUSH2 0x609 DUP3 PUSH2 0x531 JUMP JUMPDEST PUSH2 0x612 DUP2 PUSH2 0x1152 JUMP JUMPDEST PUSH2 0x61C DUP4 DUP4 PUSH2 0x1166 JUMP JUMPDEST POP POP POP POP JUMP JUMPDEST PUSH2 0x62A PUSH2 0x124F JUMP JUMPDEST PUSH20 0xFFFFFFFFFFFFFFFFFFFFFFFFFFFFFFFFFFFFFFFF AND DUP2 PUSH20 0xFFFFFFFFFFFFFFFFFFFFFFFFFFFFFFFFFFFFFFFF AND EQ PUSH2 0x68E JUMPI PUSH1 0x40 MLOAD PUSH32 0x6697B23200000000000000000000000000000000000000000000000000000000 DUP2 MSTORE PUSH1 0x4 ADD PUSH1 0x40 MLOAD DUP1 SWAP2 SUB SWAP1 REVERT JUMPDEST PUSH2 0x698 DUP3 DUP3 PUSH2 0x1256 JUMP JUMPDEST POP POP POP JUMP JUMPDEST PUSH32 0xCAB5A0BFE0B79D2C4B1C2E02599FA044D115B7511F9659307CB4276950967709 PUSH0 SHL PUSH2 0x6C9 DUP2 PUSH2 0x1152 JUMP JUMPDEST PUSH1 0x3 PUSH0 SWAP1 SLOAD SWAP1 PUSH2 0x100 EXP SWAP1 DIV PUSH20 0xFFFFFFFFFFFFFFFFFFFFFFFFFFFFFFFFFFFFFFFF AND PUSH20 0xFFFFFFFFFFFFFFFFFFFFFFFFFFFFFFFFFFFFFFFF AND PUSH4 0x9F3418D5 DUP5 DUP5 PUSH1 0x40 MLOAD DUP4 PUSH4 0xFFFFFFFF AND PUSH1 0xE0 SHL DUP2 MSTORE PUSH1 0x4 ADD PUSH2 0x725 SWAP3 SWAP2 SWAP1 PUSH2 0x1FE6 JUMP JUMPDEST PUSH0 PUSH1 0x40 MLOAD DUP1 DUP4 SUB DUP2 PUSH0 DUP8 DUP1 EXTCODESIZE ISZERO DUP1 ISZERO PUSH2 0x73C JUMPI PUSH0 DUP1 REVERT JUMPDEST POP GAS CALL ISZERO DUP1 ISZERO PUSH2 0x74E JUMPI RETURNDATASIZE PUSH0 DUP1 RETURNDATACOPY RETURNDATASIZE PUSH0 REVERT JUMPDEST POP POP POP POP DUP2 PUSH2 0xFFFF AND DUP4 PUSH20 0xFFFFFFFFFFFFFFFFFFFFFFFFFFFFFFFFFFFFFFFF AND PUSH32 0x4ED3B726495C2DCA1FF1215D9CA54E1A4030ABB5E82B0F6CE55702416CEE853 PUSH1 0x40 MLOAD PUSH1 0x40 MLOAD DUP1 SWAP2 SUB SWAP1 LOG3 POP POP POP JUMP JUMPDEST PUSH0 PUSH1 0x1 PUSH0 SWAP1 SLOAD SWAP1 PUSH2 0x100 EXP SWAP1 DIV PUSH20 0xFFFFFFFFFFFFFFFFFFFFFFFFFFFFFFFFFFFFFFFF AND SWAP1 POP SWAP1 JUMP JUMPDEST PUSH32 0xCAB5A0BFE0B79D2C4B1C2E02599FA044D115B7511F9659307CB4276950967709 PUSH0 SHL PUSH2 0x7F3 DUP2 PUSH2 0x1152 JUMP JUMPDEST PUSH2 0x7FE DUP5 DUP5 DUP5 PUSH2 0x133F JUMP JUMPDEST POP POP POP POP JUMP JUMPDEST PUSH0 DUP1 PUSH20 0xFFFFFFFFFFFFFFFFFFFFFFFFFFFFFFFFFFFFFFFF AND PUSH2 0x825 DUP4 PUSH2 0x1020 JUMP JUMPDEST PUSH20 0xFFFFFFFFFFFFFFFFFFFFFFFFFFFFFFFFFFFFFFFF AND EQ PUSH2 0x847 JUMPI PUSH1 0x1 PUSH2 0x849 JUMP JUMPDEST PUSH0 JUMPDEST SWAP1 POP SWAP2 SWAP1 POP JUMP JUMPDEST PUSH32 0xCAB5A0BFE0B79D2C4B1C2E02599FA044D115B7511F9659307CB4276950967709 PUSH0 SHL PUSH2 0x87C DUP2 PUSH2 0x1152 JUMP JUMPDEST PUSH0 DUP8 DUP8 SWAP1 POP SWAP1 POP DUP6 DUP6 SWAP1 POP DUP2 EQ PUSH2 0x8C8 JUMPI PUSH1 0x40 MLOAD PUSH32 0x8C379A000000000000000000000000000000000000000000000000000000000 DUP2 MSTORE PUSH1 0x4 ADD PUSH2 0x8BF SWAP1 PUSH2 0x2067 JUMP JUMPDEST PUSH1 0x40 MLOAD DUP1 SWAP2 SUB SWAP1 REVERT JUMPDEST DUP4 DUP4 SWAP1 POP DUP2 EQ PUSH2 0x90D JUMPI PUSH1 0x40 MLOAD PUSH32 0x8C379A000000000000000000000000000000000000000000000000000000000 DUP2 MSTORE PUSH1 0x4 ADD PUSH2 0x904 SWAP1 PUSH2 0x2067 JUMP JUMPDEST PUSH1 0x40 MLOAD DUP1 SWAP2 SUB SWAP1 REVERT JUMPDEST PUSH0 JUMPDEST DUP2 DUP2 LT ISZERO PUSH2 0x9A2 JUMPI PUSH2 0x997 DUP10 DUP10 DUP4 DUP2 DUP2 LT PUSH2 0x92D JUMPI PUSH2 0x92C PUSH2 0x2085 JUMP JUMPDEST JUMPDEST SWAP1 POP PUSH1 0x20 MUL ADD PUSH1 0x20 DUP2 ADD SWAP1 PUSH2 0x942 SWAP2 SWAP1 PUSH2 0x1C14 JUMP JUMPDEST DUP9 DUP9 DUP5 DUP2 DUP2 LT PUSH2 0x955 JUMPI PUSH2 0x954 PUSH2 0x2085 JUMP JUMPDEST JUMPDEST SWAP1 POP PUSH1 0x20 MUL ADD PUSH1 0x20 DUP2 ADD SWAP1 PUSH2 0x96A SWAP2 SWAP1 PUSH2 0x20B2 JUMP JUMPDEST DUP8 DUP8 DUP6 DUP2 DUP2 LT PUSH2 0x97D JUMPI PUSH2 0x97C PUSH2 0x2085 JUMP JUMPDEST JUMPDEST SWAP1 POP PUSH1 0x20 MUL ADD PUSH1 0x20 DUP2 ADD SWAP1 PUSH2 0x992 SWAP2 SWAP1 PUSH2 0x20DD JUMP JUMPDEST PUSH2 0x133F JUMP JUMPDEST DUP1 PUSH1 0x1 ADD SWAP1 POP PUSH2 0x90F JUMP JUMPDEST POP POP POP POP POP POP POP POP POP JUMP JUMPDEST PUSH32 0xB19546DFF01E856FB3F010C267A7B1C60363CF8A4664E21CC89C26224620214E PUSH0 SHL PUSH2 0x9D9 DUP2 PUSH2 0x1152 JUMP JUMPDEST DUP2 PUSH1 0x1 PUSH0 PUSH2 0x100 EXP DUP2 SLOAD DUP2 PUSH20 0xFFFFFFFFFFFFFFFFFFFFFFFFFFFFFFFFFFFFFFFF MUL NOT AND SWAP1 DUP4 PUSH20 0xFFFFFFFFFFFFFFFFFFFFFFFFFFFFFFFFFFFFFFFF AND MUL OR SWAP1 SSTORE POP DUP2 PUSH20 0xFFFFFFFFFFFFFFFFFFFFFFFFFFFFFFFFFFFFFFFF AND PUSH32 0x7170BF15B246E880B2369CD7C67D057760D8A35149E8C64DDE91EFA22BCC76D0 PUSH1 0x40 MLOAD PUSH1 0x40 MLOAD DUP1 SWAP2 SUB SWAP1 LOG2 POP POP JUMP JUMPDEST PUSH32 0xB19546DFF01E856FB3F010C267A7B1C60363CF8A4664E21CC89C26224620214E PUSH0 SHL PUSH2 0xA8C DUP2 PUSH2 0x1152 JUMP JUMPDEST DUP2 PUSH1 0x2 PUSH0 PUSH2 0x100 EXP DUP2 SLOAD DUP2 PUSH20 0xFFFFFFFFFFFFFFFFFFFFFFFFFFFFFFFFFFFFFFFF MUL NOT AND SWAP1 DUP4 PUSH20 0xFFFFFFFFFFFFFFFFFFFFFFFFFFFFFFFFFFFFFFFF AND MUL OR SWAP1 SSTORE POP DUP2 PUSH20 0xFFFFFFFFFFFFFFFFFFFFFFFFFFFFFFFFFFFFFFFF AND PUSH32 0x811D3016DA8008875247AF93AF072EC7801E39D9F4C686FEC82AB600D8E555E8 PUSH1 0x40 MLOAD PUSH1 0x40 MLOAD DUP1 SWAP2 SUB SWAP1 LOG2 POP POP JUMP JUMPDEST PUSH0 PUSH1 0x3 PUSH0 SWAP1 SLOAD SWAP1 PUSH2 0x100 EXP SWAP1 DIV PUSH20 0xFFFFFFFFFFFFFFFFFFFFFFFFFFFFFFFFFFFFFFFF AND PUSH20 0xFFFFFFFFFFFFFFFFFFFFFFFFFFFFFFFFFFFFFFFF AND PUSH4 0x727E13BC DUP4 PUSH1 0x40 MLOAD DUP3 PUSH4 0xFFFFFFFF AND PUSH1 0xE0 SHL DUP2 MSTORE PUSH1 0x4 ADD PUSH2 0xB6E SWAP2 SWAP1 PUSH2 0x2108 JUMP JUMPDEST PUSH1 0x20 PUSH1 0x40 MLOAD DUP1 DUP4 SUB DUP2 DUP7 GAS STATICCALL ISZERO DUP1 ISZERO PUSH2 0xB89 JUMPI RETURNDATASIZE PUSH0 DUP1 RETURNDATACOPY RETURNDATASIZE PUSH0 REVERT JUMPDEST POP POP POP POP PUSH1 0x40 MLOAD RETURNDATASIZE PUSH1 0x1F NOT PUSH1 0x1F DUP3 ADD AND DUP3 ADD DUP1 PUSH1 0x40 MSTORE POP DUP2 ADD SWAP1 PUSH2 0xBAD SWAP2 SWAP1 PUSH2 0x2135 JUMP JUMPDEST SWAP1 POP SWAP2 SWAP1 POP JUMP JUMPDEST PUSH32 0xCAB5A0BFE0B79D2C4B1C2E02599FA044D115B7511F9659307CB4276950967709 PUSH0 SHL PUSH2 0xBE0 DUP2 PUSH2 0x1152 JUMP JUMPDEST PUSH0 PUSH2 0xBEA DUP5 PUSH2 0x1429 JUMP JUMPDEST SWAP1 POP PUSH1 0x3 PUSH0 SWAP1 SLOAD SWAP1 PUSH2 0x100 EXP SWAP1 DIV PUSH20 0xFFFFFFFFFFFFFFFFFFFFFFFFFFFFFFFFFFFFFFFF AND PUSH20 0xFFFFFFFFFFFFFFFFFFFFFFFFFFFFFFFFFFFFFFFF AND PUSH4 0xE805CF86 DUP6 DUP6 PUSH1 0x40 MLOAD DUP4 PUSH4 0xFFFFFFFF AND PUSH1 0xE0 SHL DUP2 MSTORE PUSH1 0x4 ADD PUSH2 0xC48 SWAP3 SWAP2 SWAP1 PUSH2 0x2160 JUMP JUMPDEST PUSH0 PUSH1 0x40 MLOAD DUP1 DUP4 SUB DUP2 PUSH0 DUP8 DUP1 EXTCODESIZE ISZERO DUP1 ISZERO PUSH2 0xC5F JUMPI PUSH0 DUP1 REVERT JUMPDEST POP GAS CALL ISZERO DUP1 ISZERO PUSH2 0xC71 JUMPI RETURNDATASIZE PUSH0 DUP1 RETURNDATACOPY RETURNDATASIZE PUSH0 REVERT JUMPDEST POP POP POP POP DUP3 PUSH20 0xFFFFFFFFFFFFFFFFFFFFFFFFFFFFFFFFFFFFFFFF AND DUP2 PUSH20 0xFFFFFFFFFFFFFFFFFFFFFFFFFFFFFFFFFFFFFFFF AND PUSH32 0xE98082932C8056A0F514DA9104E4A66BC2CBAEF102AD59D90C4B24220EBF6010 PUSH1 0x40 MLOAD PUSH1 0x40 MLOAD DUP1 SWAP2 SUB SWAP1 LOG3 POP POP POP POP JUMP JUMPDEST PUSH0 DUP1 PUSH0 DUP5 DUP2 MSTORE PUSH1 0x20 ADD SWAP1 DUP2 MSTORE PUSH1 0x20 ADD PUSH0 KECCAK256 PUSH0 ADD PUSH0 DUP4 PUSH20 0xFFFFFFFFFFFFFFFFFFFFFFFFFFFFFFFFFFFFFFFF AND PUSH20 0xFFFFFFFFFFFFFFFFFFFFFFFFFFFFFFFFFFFFFFFF AND DUP2 MSTORE PUSH1 0x20 ADD SWAP1 DUP2 MSTORE PUSH1 0x20 ADD PUSH0 KECCAK256 PUSH0 SWAP1 SLOAD SWAP1 PUSH2 0x100 EXP SWAP1 DIV PUSH1 0xFF AND SWAP1 POP SWAP3 SWAP2 POP POP JUMP JUMPDEST PUSH0 DUP1 SHL DUP2 JUMP JUMPDEST PUSH32 0xCAB5A0BFE0B79D2C4B1C2E02599FA044D115B7511F9659307CB4276950967709 PUSH0 SHL PUSH2 0xD6A DUP2 PUSH2 0x1152 JUMP JUMPDEST PUSH0 PUSH2 0xD74 DUP4 PUSH2 0x1429 JUMP JUMPDEST SWAP1 POP PUSH1 0x3 PUSH0 SWAP1 SLOAD SWAP1 PUSH2 0x100 EXP SWAP1 DIV PUSH20 0xFFFFFFFFFFFFFFFFFFFFFFFFFFFFFFFFFFFFFFFF AND PUSH20 0xFFFFFFFFFFFFFFFFFFFFFFFFFFFFFFFFFFFFFFFF AND PUSH4 0xCF191BCD DUP5 PUSH1 0x40 MLOAD DUP3 PUSH4 0xFFFFFFFF AND PUSH1 0xE0 SHL DUP2 MSTORE PUSH1 0x4 ADD PUSH2 0xDD0 SWAP2 SWAP1 PUSH2 0x2108 JUMP JUMPDEST PUSH0 PUSH1 0x40 MLOAD DUP1 DUP4 SUB DUP2 PUSH0 DUP8 DUP1 EXTCODESIZE ISZERO DUP1 ISZERO PUSH2 0xDE7 JUMPI PUSH0 DUP1 REVERT JUMPDEST POP GAS CALL ISZERO DUP1 ISZERO PUSH2 0xDF9 JUMPI RETURNDATASIZE PUSH0 DUP1 RETURNDATACOPY RETURNDATASIZE PUSH0 REVERT JUMPDEST POP POP POP POP DUP1 PUSH20 0xFFFFFFFFFFFFFFFFFFFFFFFFFFFFFFFFFFFFFFFF AND DUP4 PUSH20 0xFFFFFFFFFFFFFFFFFFFFFFFFFFFFFFFFFFFFFFFF AND PUSH32 0x59D6590E225B81BEFE259AF056324092801080ACBB7FEAB310EB34678871F327 PUSH1 0x40 MLOAD PUSH1 0x40 MLOAD DUP1 SWAP2 SUB SWAP1 LOG3 POP POP POP JUMP JUMPDEST PUSH0 PUSH1 0x2 PUSH0 SWAP1 SLOAD SWAP1 PUSH2 0x100 EXP SWAP1 DIV PUSH20 0xFFFFFFFFFFFFFFFFFFFFFFFFFFFFFFFFFFFFFFFF AND SWAP1 POP SWAP1 JUMP JUMPDEST PUSH0 DUP1 PUSH2 0xE8F DUP4 PUSH2 0x1429 JUMP JUMPDEST SWAP1 POP PUSH0 PUSH20 0xFFFFFFFFFFFFFFFFFFFFFFFFFFFFFFFFFFFFFFFF AND DUP2 PUSH20 0xFFFFFFFFFFFFFFFFFFFFFFFFFFFFFFFFFFFFFFFF AND SUB PUSH2 0xECD JUMPI PUSH0 SWAP2 POP POP PUSH2 0xFD3 JUMP JUMPDEST PUSH0 PUSH1 0x1 PUSH0 SWAP1 SLOAD SWAP1 PUSH2 0x100 EXP SWAP1 DIV PUSH20 0xFFFFFFFFFFFFFFFFFFFFFFFFFFFFFFFFFFFFFFFF AND PUSH20 0xFFFFFFFFFFFFFFFFFFFFFFFFFFFFFFFFFFFFFFFF AND PUSH4 0xDF09D604 PUSH1 0x40 MLOAD DUP2 PUSH4 0xFFFFFFFF AND PUSH1 0xE0 SHL DUP2 MSTORE PUSH1 0x4 ADD PUSH0 PUSH1 0x40 MLOAD DUP1 DUP4 SUB DUP2 DUP7 GAS STATICCALL ISZERO DUP1 ISZERO PUSH2 0xF37 JUMPI RETURNDATASIZE PUSH0 DUP1 RETURNDATACOPY RETURNDATASIZE PUSH0 REVERT JUMPDEST POP POP POP POP PUSH1 0x40 MLOAD RETURNDATASIZE PUSH0 DUP3 RETURNDATACOPY RETURNDATASIZE PUSH1 0x1F NOT PUSH1 0x1F DUP3 ADD AND DUP3 ADD DUP1 PUSH1 0x40 MSTORE POP DUP2 ADD SWAP1 PUSH2 0xF5F SWAP2 SWAP1 PUSH2 0x2302 JUMP JUMPDEST SWAP1 POP PUSH0 DUP2 MLOAD SWAP1 POP PUSH0 DUP2 SUB PUSH2 0xF79 JUMPI PUSH1 0x1 SWAP4 POP POP POP POP PUSH2 0xFD3 JUMP JUMPDEST PUSH0 JUMPDEST DUP2 DUP2 LT ISZERO PUSH2 0xFCA JUMPI PUSH2 0xFA7 DUP5 DUP5 DUP4 DUP2 MLOAD DUP2 LT PUSH2 0xF9A JUMPI PUSH2 0xF99 PUSH2 0x2085 JUMP JUMPDEST JUMPDEST PUSH1 0x20 MUL PUSH1 0x20 ADD ADD MLOAD PUSH2 0x14CA JUMP JUMPDEST PUSH2 0xFB7 JUMPI PUSH0 SWAP5 POP POP POP POP POP PUSH2 0xFD3 JUMP JUMPDEST DUP1 DUP1 PUSH2 0xFC2 SWAP1 PUSH2 0x2376 JUMP JUMPDEST SWAP2 POP POP PUSH2 0xF7B JUMP JUMPDEST POP PUSH1 0x1 SWAP4 POP POP POP POP JUMPDEST SWAP2 SWAP1 POP JUMP JUMPDEST PUSH2 0xFE1 DUP3 PUSH2 0x531 JUMP JUMPDEST PUSH2 0xFEA DUP2 PUSH2 0x1152 JUMP JUMPDEST PUSH2 0xFF4 DUP4 DUP4 PUSH2 0x1256 JUMP JUMPDEST POP POP POP POP JUMP JUMPDEST PUSH32 0xB19546DFF01E856FB3F010C267A7B1C60363CF8A4664E21CC89C26224620214E PUSH0 SHL DUP2 JUMP JUMPDEST PUSH0 PUSH1 0x3 PUSH0 SWAP1 SLOAD SWAP1 PUSH2 0x100 EXP SWAP1 DIV PUSH20 0xFFFFFFFFFFFFFFFFFFFFFFFFFFFFFFFFFFFFFFFF AND PUSH20 0xFFFFFFFFFFFFFFFFFFFFFFFFFFFFFFFFFFFFFFFF AND PUSH4 0x7988D3A5 DUP4 PUSH1 0x40 MLOAD DUP3 PUSH4 0xFFFFFFFF AND PUSH1 0xE0 SHL DUP2 MSTORE PUSH1 0x4 ADD PUSH2 0x107B SWAP2 SWAP1 PUSH2 0x2108 JUMP JUMPDEST PUSH1 0x20 PUSH1 0x40 MLOAD DUP1 DUP4 SUB DUP2 DUP7 GAS STATICCALL ISZERO DUP1 ISZERO PUSH2 0x1096 JUMPI RETURNDATASIZE PUSH0 DUP1 RETURNDATACOPY RETURNDATASIZE PUSH0 REVERT JUMPDEST POP POP POP POP PUSH1 0x40 MLOAD RETURNDATASIZE PUSH1 0x1F NOT PUSH1 0x1F DUP3 ADD AND DUP3 ADD DUP1 PUSH1 0x40 MSTORE POP DUP2 ADD SWAP1 PUSH2 0x10BA SWAP2 SWAP1 PUSH2 0x23D1 JUMP JUMPDEST SWAP1 POP SWAP2 SWAP1 POP JUMP JUMPDEST PUSH0 PUSH1 0x3 PUSH0 SWAP1 SLOAD SWAP1 PUSH2 0x100 EXP SWAP1 DIV PUSH20 0xFFFFFFFFFFFFFFFFFFFFFFFFFFFFFFFFFFFFFFFF AND SWAP1 POP SWAP1 JUMP JUMPDEST PUSH0 PUSH32 0x1FFC9A700000000000000000000000000000000000000000000000000000000 PUSH28 0xFFFFFFFFFFFFFFFFFFFFFFFFFFFFFFFFFFFFFFFFFFFFFFFFFFFFFFFF NOT AND DUP3 PUSH28 0xFFFFFFFFFFFFFFFFFFFFFFFFFFFFFFFFFFFFFFFFFFFFFFFFFFFFFFFF NOT AND EQ SWAP1 POP SWAP2 SWAP1 POP JUMP JUMPDEST PUSH2 0x1163 DUP2 PUSH2 0x115E PUSH2 0x124F JUMP JUMPDEST PUSH2 0x1773 JUMP JUMPDEST POP JUMP JUMPDEST PUSH0 PUSH2 0x1171 DUP4 DUP4 PUSH2 0xCD5 JUMP JUMPDEST PUSH2 0x1245 JUMPI PUSH1 0x1 PUSH0 DUP1 DUP6 DUP2 MSTORE PUSH1 0x20 ADD SWAP1 DUP2 MSTORE PUSH1 0x20 ADD PUSH0 KECCAK256 PUSH0 ADD PUSH0 DUP5 PUSH20 0xFFFFFFFFFFFFFFFFFFFFFFFFFFFFFFFFFFFFFFFF AND PUSH20 0xFFFFFFFFFFFFFFFFFFFFFFFFFFFFFFFFFFFFFFFF AND DUP2 MSTORE PUSH1 0x20 ADD SWAP1 DUP2 MSTORE PUSH1 0x20 ADD PUSH0 KECCAK256 PUSH0 PUSH2 0x100 EXP DUP2 SLOAD DUP2 PUSH1 0xFF MUL NOT AND SWAP1 DUP4 ISZERO ISZERO MUL OR SWAP1 SSTORE POP PUSH2 0x11E2 PUSH2 0x124F JUMP JUMPDEST PUSH20 0xFFFFFFFFFFFFFFFFFFFFFFFFFFFFFFFFFFFFFFFF AND DUP3 PUSH20 0xFFFFFFFFFFFFFFFFFFFFFFFFFFFFFFFFFFFFFFFF AND DUP5 PUSH32 0x2F8788117E7EFF1D82E926EC794901D17C78024A50270940304540A733656F0D PUSH1 0x40 MLOAD PUSH1 0x40 MLOAD DUP1 SWAP2 SUB SWAP1 LOG4 PUSH1 0x1 SWAP1 POP PUSH2 0x1249 JUMP JUMPDEST PUSH0 SWAP1 POP JUMPDEST SWAP3 SWAP2 POP POP JUMP JUMPDEST PUSH0 CALLER SWAP1 POP SWAP1 JUMP JUMPDEST PUSH0 PUSH2 0x1261 DUP4 DUP4 PUSH2 0xCD5 JUMP JUMPDEST ISZERO PUSH2 0x1335 JUMPI PUSH0 DUP1 PUSH0 DUP6 DUP2 MSTORE PUSH1 0x20 ADD SWAP1 DUP2 MSTORE PUSH1 0x20 ADD PUSH0 KECCAK256 PUSH0 ADD PUSH0 DUP5 PUSH20 0xFFFFFFFFFFFFFFFFFFFFFFFFFFFFFFFFFFFFFFFF AND PUSH20 0xFFFFFFFFFFFFFFFFFFFFFFFFFFFFFFFFFFFFFFFF AND DUP2 MSTORE PUSH1 0x20 ADD SWAP1 DUP2 MSTORE PUSH1 0x20 ADD PUSH0 KECCAK256 PUSH0 PUSH2 0x100 EXP DUP2 SLOAD DUP2 PUSH1 0xFF MUL NOT AND SWAP1 DUP4 ISZERO ISZERO MUL OR SWAP1 SSTORE POP PUSH2 0x12D2 PUSH2 0x124F JUMP JUMPDEST PUSH20 0xFFFFFFFFFFFFFFFFFFFFFFFFFFFFFFFFFFFFFFFF AND DUP3 PUSH20 0xFFFFFFFFFFFFFFFFFFFFFFFFFFFFFFFFFFFFFFFF AND DUP5 PUSH32 0xF6391F5C32D9C69D2A47EA670B442974B53935D1EDC7FD64EB21E047A839171B PUSH1 0x40 MLOAD PUSH1 0x40 MLOAD DUP1 SWAP2 SUB SWAP1 LOG4 PUSH1 0x1 SWAP1 POP PUSH2 0x1339 JUMP JUMPDEST PUSH0 SWAP1 POP JUMPDEST SWAP3 SWAP2 POP POP JUMP JUMPDEST PUSH1 0x3 PUSH0 SWAP1 SLOAD SWAP1 PUSH2 0x100 EXP SWAP1 DIV PUSH20 0xFFFFFFFFFFFFFFFFFFFFFFFFFFFFFFFFFFFFFFFF AND PUSH20 0xFFFFFFFFFFFFFFFFFFFFFFFFFFFFFFFFFFFFFFFF AND PUSH4 0xA53410DD DUP5 DUP5 DUP5 PUSH1 0x40 MLOAD DUP5 PUSH4 0xFFFFFFFF AND PUSH1 0xE0 SHL DUP2 MSTORE PUSH1 0x4 ADD PUSH2 0x139D SWAP4 SWAP3 SWAP2 SWAP1 PUSH2 0x23FC JUMP JUMPDEST PUSH0 PUSH1 0x40 MLOAD DUP1 DUP4 SUB DUP2 PUSH0 DUP8 DUP1 EXTCODESIZE ISZERO DUP1 ISZERO PUSH2 0x13B4 JUMPI PUSH0 DUP1 REVERT JUMPDEST POP GAS CALL ISZERO DUP1 ISZERO PUSH2 0x13C6 JUMPI RETURNDATASIZE PUSH0 DUP1 RETURNDATACOPY RETURNDATASIZE PUSH0 REVERT JUMPDEST POP POP POP POP DUP2 PUSH20 0xFFFFFFFFFFFFFFFFFFFFFFFFFFFFFFFFFFFFFFFF AND DUP4 PUSH20 0xFFFFFFFFFFFFFFFFFFFFFFFFFFFFFFFFFFFFFFFF AND PUSH32 0x6AE73635C50D24A45AF6FBD5E016AC4BED179ADDBC8BF24E04FF0FCC6D33AF19 PUSH1 0x40 MLOAD PUSH1 0x40 MLOAD DUP1 SWAP2 SUB SWAP1 LOG3 POP POP POP JUMP JUMPDEST PUSH0 PUSH1 0x3 PUSH0 SWAP1 SLOAD SWAP1 PUSH2 0x100 EXP SWAP1 DIV PUSH20 0xFFFFFFFFFFFFFFFFFFFFFFFFFFFFFFFFFFFFFFFF AND PUSH20 0xFFFFFFFFFFFFFFFFFFFFFFFFFFFFFFFFFFFFFFFF AND PUSH4 0x7988D3A5 DUP4 PUSH1 0x40 MLOAD DUP3 PUSH4 0xFFFFFFFF AND PUSH1 0xE0 SHL DUP2 MSTORE PUSH1 0x4 ADD PUSH2 0x1484 SWAP2 SWAP1 PUSH2 0x2108 JUMP JUMPDEST PUSH1 0x20 PUSH1 0x40 MLOAD DUP1 DUP4 SUB DUP2 DUP7 GAS STATICCALL ISZERO DUP1 ISZERO PUSH2 0x149F JUMPI RETURNDATASIZE PUSH0 DUP1 RETURNDATACOPY RETURNDATASIZE PUSH0 REVERT JUMPDEST POP POP POP POP PUSH1 0x40 MLOAD RETURNDATASIZE PUSH1 0x1F NOT PUSH1 0x1F DUP3 ADD AND DUP3 ADD DUP1 PUSH1 0x40 MSTORE POP DUP2 ADD SWAP1 PUSH2 0x14C3 SWAP2 SWAP1 PUSH2 0x23D1 JUMP JUMPDEST SWAP1 POP SWAP2 SWAP1 POP JUMP JUMPDEST PUSH0 DUP1 PUSH1 0x2 PUSH0 SWAP1 SLOAD SWAP1 PUSH2 0x100 EXP SWAP1 DIV PUSH20 0xFFFFFFFFFFFFFFFFFFFFFFFFFFFFFFFFFFFFFFFF AND PUSH20 0xFFFFFFFFFFFFFFFFFFFFFFFFFFFFFFFFFFFFFFFF AND PUSH4 0x6B2C56BD DUP5 PUSH1 0x40 MLOAD DUP3 PUSH4 0xFFFFFFFF AND PUSH1 0xE0 SHL DUP2 MSTORE PUSH1 0x4 ADD PUSH2 0x1526 SWAP2 SWAP1 PUSH2 0x2440 JUMP JUMPDEST PUSH0 PUSH1 0x40 MLOAD DUP1 DUP4 SUB DUP2 DUP7 GAS STATICCALL ISZERO DUP1 ISZERO PUSH2 0x1540 JUMPI RETURNDATASIZE PUSH0 DUP1 RETURNDATACOPY RETURNDATASIZE PUSH0 REVERT JUMPDEST POP POP POP POP PUSH1 0x40 MLOAD RETURNDATASIZE PUSH0 DUP3 RETURNDATACOPY RETURNDATASIZE PUSH1 0x1F NOT PUSH1 0x1F DUP3 ADD AND DUP3 ADD DUP1 PUSH1 0x40 MSTORE POP DUP2 ADD SWAP1 PUSH2 0x1568 SWAP2 SWAP1 PUSH2 0x2554 JUMP JUMPDEST SWAP1 POP PUSH0 DUP2 MLOAD SWAP1 POP PUSH0 DUP2 SUB PUSH2 0x1580 JUMPI PUSH0 SWAP3 POP POP POP PUSH2 0x176D JUMP JUMPDEST PUSH0 DUP2 PUSH8 0xFFFFFFFFFFFFFFFF DUP2 GT ISZERO PUSH2 0x159B JUMPI PUSH2 0x159A PUSH2 0x2197 JUMP JUMPDEST JUMPDEST PUSH1 0x40 MLOAD SWAP1 DUP1 DUP3 MSTORE DUP1 PUSH1 0x20 MUL PUSH1 0x20 ADD DUP3 ADD PUSH1 0x40 MSTORE DUP1 ISZERO PUSH2 0x15C9 JUMPI DUP2 PUSH1 0x20 ADD PUSH1 0x20 DUP3 MUL DUP1 CALLDATASIZE DUP4 CALLDATACOPY DUP1 DUP3 ADD SWAP2 POP POP SWAP1 POP JUMPDEST POP SWAP1 POP PUSH0 JUMPDEST DUP3 DUP2 LT ISZERO PUSH2 0x164B JUMPI DUP4 DUP2 DUP2 MLOAD DUP2 LT PUSH2 0x15E9 JUMPI PUSH2 0x15E8 PUSH2 0x2085 JUMP JUMPDEST JUMPDEST PUSH1 0x20 MUL PUSH1 0x20 ADD ADD MLOAD DUP7 PUSH1 0x40 MLOAD PUSH1 0x20 ADD PUSH2 0x1603 SWAP3 SWAP2 SWAP1 PUSH2 0x25BB JUMP JUMPDEST PUSH1 0x40 MLOAD PUSH1 0x20 DUP2 DUP4 SUB SUB DUP2 MSTORE SWAP1 PUSH1 0x40 MSTORE DUP1 MLOAD SWAP1 PUSH1 0x20 ADD KECCAK256 DUP3 DUP3 DUP2 MLOAD DUP2 LT PUSH2 0x162C JUMPI PUSH2 0x162B PUSH2 0x2085 JUMP JUMPDEST JUMPDEST PUSH1 0x20 MUL PUSH1 0x20 ADD ADD DUP2 DUP2 MSTORE POP POP DUP1 DUP1 PUSH2 0x1643 SWAP1 PUSH2 0x2376 JUMP JUMPDEST SWAP2 POP POP PUSH2 0x15CE JUMP JUMPDEST POP PUSH0 JUMPDEST DUP2 MLOAD DUP2 LT ISZERO PUSH2 0x1765 JUMPI PUSH0 DUP1 PUSH0 DUP1 DUP11 PUSH20 0xFFFFFFFFFFFFFFFFFFFFFFFFFFFFFFFFFFFFFFFF AND PUSH4 0xC9100BCB DUP8 DUP8 DUP2 MLOAD DUP2 LT PUSH2 0x168A JUMPI PUSH2 0x1689 PUSH2 0x2085 JUMP JUMPDEST JUMPDEST PUSH1 0x20 MUL PUSH1 0x20 ADD ADD MLOAD PUSH1 0x40 MLOAD DUP3 PUSH4 0xFFFFFFFF AND PUSH1 0xE0 SHL DUP2 MSTORE PUSH1 0x4 ADD PUSH2 0x16AE SWAP2 SWAP1 PUSH2 0x1934 JUMP JUMPDEST PUSH0 PUSH1 0x40 MLOAD DUP1 DUP4 SUB DUP2 DUP7 GAS STATICCALL ISZERO DUP1 ISZERO PUSH2 0x16C8 JUMPI RETURNDATASIZE PUSH0 DUP1 RETURNDATACOPY RETURNDATASIZE PUSH0 REVERT JUMPDEST POP POP POP POP PUSH1 0x40 MLOAD RETURNDATASIZE PUSH0 DUP3 RETURNDATACOPY RETURNDATASIZE PUSH1 0x1F NOT PUSH1 0x1F DUP3 ADD AND DUP3 ADD DUP1 PUSH1 0x40 MSTORE POP DUP2 ADD SWAP1 PUSH2 0x16F0 SWAP2 SWAP1 PUSH2 0x275E JUMP JUMPDEST POP SWAP5 POP SWAP5 POP SWAP5 POP POP SWAP4 POP DUP10 DUP5 SUB PUSH2 0x1729 JUMPI PUSH2 0x170E DUP12 DUP5 DUP13 DUP6 DUP6 PUSH2 0x17C4 JUMP JUMPDEST ISZERO PUSH2 0x1724 JUMPI PUSH1 0x1 SWAP9 POP POP POP POP POP POP POP POP POP PUSH2 0x176D JUMP JUMPDEST PUSH2 0x174E JUMP JUMPDEST PUSH1 0x1 DUP7 MLOAD PUSH2 0x1737 SWAP2 SWAP1 PUSH2 0x283B JUMP JUMPDEST DUP6 SUB PUSH2 0x174D JUMPI PUSH0 SWAP9 POP POP POP POP POP POP POP POP POP PUSH2 0x176D JUMP JUMPDEST JUMPDEST POP POP POP POP DUP1 DUP1 PUSH2 0x175D SWAP1 PUSH2 0x2376 JUMP JUMPDEST SWAP2 POP POP PUSH2 0x164E JUMP JUMPDEST POP PUSH0 SWAP4 POP POP POP POP JUMPDEST SWAP3 SWAP2 POP POP JUMP JUMPDEST PUSH2 0x177D DUP3 DUP3 PUSH2 0xCD5 JUMP JUMPDEST PUSH2 0x17C0 JUMPI DUP1 DUP3 PUSH1 0x40 MLOAD PUSH32 0xE2517D3F00000000000000000000000000000000000000000000000000000000 DUP2 MSTORE PUSH1 0x4 ADD PUSH2 0x17B7 SWAP3 SWAP2 SWAP1 PUSH2 0x286E JUMP JUMPDEST PUSH1 0x40 MLOAD DUP1 SWAP2 SUB SWAP1 REVERT JUMPDEST POP POP JUMP JUMPDEST PUSH0 DUP5 PUSH20 0xFFFFFFFFFFFFFFFFFFFFFFFFFFFFFFFFFFFFFFFF AND PUSH4 0xC0969A6E DUP8 DUP7 DUP7 DUP7 PUSH1 0x40 MLOAD DUP6 PUSH4 0xFFFFFFFF AND PUSH1 0xE0 SHL DUP2 MSTORE PUSH1 0x4 ADD PUSH2 0x1804 SWAP5 SWAP4 SWAP3 SWAP2 SWAP1 PUSH2 0x28E7 JUMP JUMPDEST PUSH1 0x20 PUSH1 0x40 MLOAD DUP1 DUP4 SUB DUP2 DUP7 GAS STATICCALL SWAP3 POP POP POP DUP1 ISZERO PUSH2 0x183E JUMPI POP PUSH1 0x40 MLOAD RETURNDATASIZE PUSH1 0x1F NOT PUSH1 0x1F DUP3 ADD AND DUP3 ADD DUP1 PUSH1 0x40 MSTORE POP DUP2 ADD SWAP1 PUSH2 0x183B SWAP2 SWAP1 PUSH2 0x2962 JUMP JUMPDEST PUSH1 0x1 JUMPDEST PUSH2 0x184A JUMPI PUSH0 SWAP1 POP PUSH2 0x184F JUMP JUMPDEST DUP1 SWAP2 POP POP JUMPDEST SWAP6 SWAP5 POP POP POP POP POP JUMP JUMPDEST PUSH0 PUSH1 0x40 MLOAD SWAP1 POP SWAP1 JUMP JUMPDEST PUSH0 DUP1 REVERT JUMPDEST PUSH0 DUP1 REVERT JUMPDEST PUSH0 PUSH32 0xFFFFFFFF00000000000000000000000000000000000000000000000000000000 DUP3 AND SWAP1 POP SWAP2 SWAP1 POP JUMP JUMPDEST PUSH2 0x189D DUP2 PUSH2 0x1869 JUMP JUMPDEST DUP2 EQ PUSH2 0x18A7 JUMPI PUSH0 DUP1 REVERT JUMPDEST POP JUMP JUMPDEST PUSH0 DUP2 CALLDATALOAD SWAP1 POP PUSH2 0x18B8 DUP2 PUSH2 0x1894 JUMP JUMPDEST SWAP3 SWAP2 POP POP JUMP JUMPDEST PUSH0 PUSH1 0x20 DUP3 DUP5 SUB SLT ISZERO PUSH2 0x18D3 JUMPI PUSH2 0x18D2 PUSH2 0x1861 JUMP JUMPDEST JUMPDEST PUSH0 PUSH2 0x18E0 DUP5 DUP3 DUP6 ADD PUSH2 0x18AA JUMP JUMPDEST SWAP2 POP POP SWAP3 SWAP2 POP POP JUMP JUMPDEST PUSH0 DUP2 ISZERO ISZERO SWAP1 POP SWAP2 SWAP1 POP JUMP JUMPDEST PUSH2 0x18FD DUP2 PUSH2 0x18E9 JUMP JUMPDEST DUP3 MSTORE POP POP JUMP JUMPDEST PUSH0 PUSH1 0x20 DUP3 ADD SWAP1 POP PUSH2 0x1916 PUSH0 DUP4 ADD DUP5 PUSH2 0x18F4 JUMP JUMPDEST SWAP3 SWAP2 POP POP JUMP JUMPDEST PUSH0 DUP2 SWAP1 POP SWAP2 SWAP1 POP JUMP JUMPDEST PUSH2 0x192E DUP2 PUSH2 0x191C JUMP JUMPDEST DUP3 MSTORE POP POP JUMP JUMPDEST PUSH0 PUSH1 0x20 DUP3 ADD SWAP1 POP PUSH2 0x1947 PUSH0 DUP4 ADD DUP5 PUSH2 0x1925 JUMP JUMPDEST SWAP3 SWAP2 POP POP JUMP JUMPDEST PUSH2 0x1956 DUP2 PUSH2 0x191C JUMP JUMPDEST DUP2 EQ PUSH2 0x1960 JUMPI PUSH0 DUP1 REVERT JUMPDEST POP JUMP JUMPDEST PUSH0 DUP2 CALLDATALOAD SWAP1 POP PUSH2 0x1971 DUP2 PUSH2 0x194D JUMP JUMPDEST SWAP3 SWAP2 POP POP JUMP JUMPDEST PUSH0 PUSH1 0x20 DUP3 DUP5 SUB SLT ISZERO PUSH2 0x198C JUMPI PUSH2 0x198B PUSH2 0x1861 JUMP JUMPDEST JUMPDEST PUSH0 PUSH2 0x1999 DUP5 DUP3 DUP6 ADD PUSH2 0x1963 JUMP JUMPDEST SWAP2 POP POP SWAP3 SWAP2 POP POP JUMP JUMPDEST PUSH0 PUSH20 0xFFFFFFFFFFFFFFFFFFFFFFFFFFFFFFFFFFFFFFFF DUP3 AND SWAP1 POP SWAP2 SWAP1 POP JUMP JUMPDEST PUSH0 PUSH2 0x19CB DUP3 PUSH2 0x19A2 JUMP JUMPDEST SWAP1 POP SWAP2 SWAP1 POP JUMP JUMPDEST PUSH0 PUSH2 0x19DC DUP3 PUSH2 0x19C1 JUMP JUMPDEST SWAP1 POP SWAP2 SWAP1 POP JUMP JUMPDEST PUSH2 0x19EC DUP2 PUSH2 0x19D2 JUMP JUMPDEST DUP2 EQ PUSH2 0x19F6 JUMPI PUSH0 DUP1 REVERT JUMPDEST POP JUMP JUMPDEST PUSH0 DUP2 CALLDATALOAD SWAP1 POP PUSH2 0x1A07 DUP2 PUSH2 0x19E3 JUMP JUMPDEST SWAP3 SWAP2 POP POP JUMP JUMPDEST PUSH0 PUSH1 0x20 DUP3 DUP5 SUB SLT ISZERO PUSH2 0x1A22 JUMPI PUSH2 0x1A21 PUSH2 0x1861 JUMP JUMPDEST JUMPDEST PUSH0 PUSH2 0x1A2F DUP5 DUP3 DUP6 ADD PUSH2 0x19F9 JUMP JUMPDEST SWAP2 POP POP SWAP3 SWAP2 POP POP JUMP JUMPDEST PUSH2 0x1A41 DUP2 PUSH2 0x19C1 JUMP JUMPDEST DUP2 EQ PUSH2 0x1A4B JUMPI PUSH0 DUP1 REVERT JUMPDEST POP JUMP JUMPDEST PUSH0 DUP2 CALLDATALOAD SWAP1 POP PUSH2 0x1A5C DUP2 PUSH2 0x1A38 JUMP JUMPDEST SWAP3 SWAP2 POP POP JUMP JUMPDEST PUSH0 DUP1 PUSH1 0x40 DUP4 DUP6 SUB SLT ISZERO PUSH2 0x1A78 JUMPI PUSH2 0x1A77 PUSH2 0x1861 JUMP JUMPDEST JUMPDEST PUSH0 PUSH2 0x1A85 DUP6 DUP3 DUP7 ADD PUSH2 0x1963 JUMP JUMPDEST SWAP3 POP POP PUSH1 0x20 PUSH2 0x1A96 DUP6 DUP3 DUP7 ADD PUSH2 0x1A4E JUMP JUMPDEST SWAP2 POP POP SWAP3 POP SWAP3 SWAP1 POP JUMP JUMPDEST PUSH0 PUSH2 0xFFFF DUP3 AND SWAP1 POP SWAP2 SWAP1 POP JUMP JUMPDEST PUSH2 0x1AB6 DUP2 PUSH2 0x1AA0 JUMP JUMPDEST DUP2 EQ PUSH2 0x1AC0 JUMPI PUSH0 DUP1 REVERT JUMPDEST POP JUMP JUMPDEST PUSH0 DUP2 CALLDATALOAD SWAP1 POP PUSH2 0x1AD1 DUP2 PUSH2 0x1AAD JUMP JUMPDEST SWAP3 SWAP2 POP POP JUMP JUMPDEST PUSH0 DUP1 PUSH1 0x40 DUP4 DUP6 SUB SLT ISZERO PUSH2 0x1AED JUMPI PUSH2 0x1AEC PUSH2 0x1861 JUMP JUMPDEST JUMPDEST PUSH0 PUSH2 0x1AFA DUP6 DUP3 DUP7 ADD PUSH2 0x1A4E JUMP JUMPDEST SWAP3 POP POP PUSH1 0x20 PUSH2 0x1B0B DUP6 DUP3 DUP7 ADD PUSH2 0x1AC3 JUMP JUMPDEST SWAP2 POP POP SWAP3 POP SWAP3 SWAP1 POP JUMP JUMPDEST PUSH0 DUP2 SWAP1 POP SWAP2 SWAP1 POP JUMP JUMPDEST PUSH0 PUSH2 0x1B38 PUSH2 0x1B33 PUSH2 0x1B2E DUP5 PUSH2 0x19A2 JUMP JUMPDEST PUSH2 0x1B15 JUMP JUMPDEST PUSH2 0x19A2 JUMP JUMPDEST SWAP1 POP SWAP2 SWAP1 POP JUMP JUMPDEST PUSH0 PUSH2 0x1B49 DUP3 PUSH2 0x1B1E JUMP JUMPDEST SWAP1 POP SWAP2 SWAP1 POP JUMP JUMPDEST PUSH0 PUSH2 0x1B5A DUP3 PUSH2 0x1B3F JUMP JUMPDEST SWAP1 POP SWAP2 SWAP1 POP JUMP JUMPDEST PUSH2 0x1B6A DUP2 PUSH2 0x1B50 JUMP JUMPDEST DUP3 MSTORE POP POP JUMP JUMPDEST PUSH0 PUSH1 0x20 DUP3 ADD SWAP1 POP PUSH2 0x1B83 PUSH0 DUP4 ADD DUP5 PUSH2 0x1B61 JUMP JUMPDEST SWAP3 SWAP2 POP POP JUMP JUMPDEST PUSH0 PUSH2 0x1B93 DUP3 PUSH2 0x19C1 JUMP JUMPDEST SWAP1 POP SWAP2 SWAP1 POP JUMP JUMPDEST PUSH2 0x1BA3 DUP2 PUSH2 0x1B89 JUMP JUMPDEST DUP2 EQ PUSH2 0x1BAD JUMPI PUSH0 DUP1 REVERT JUMPDEST POP JUMP JUMPDEST PUSH0 DUP2 CALLDATALOAD SWAP1 POP PUSH2 0x1BBE DUP2 PUSH2 0x1B9A JUMP JUMPDEST SWAP3 SWAP2 POP POP JUMP JUMPDEST PUSH0 DUP1 PUSH0 PUSH1 0x60 DUP5 DUP7 SUB SLT ISZERO PUSH2 0x1BDB JUMPI PUSH2 0x1BDA PUSH2 0x1861 JUMP JUMPDEST JUMPDEST PUSH0 PUSH2 0x1BE8 DUP7 DUP3 DUP8 ADD PUSH2 0x1A4E JUMP JUMPDEST SWAP4 POP POP PUSH1 0x20 PUSH2 0x1BF9 DUP7 DUP3 DUP8 ADD PUSH2 0x1BB0 JUMP JUMPDEST SWAP3 POP POP PUSH1 0x40 PUSH2 0x1C0A DUP7 DUP3 DUP8 ADD PUSH2 0x1AC3 JUMP JUMPDEST SWAP2 POP POP SWAP3 POP SWAP3 POP SWAP3 JUMP JUMPDEST PUSH0 PUSH1 0x20 DUP3 DUP5 SUB SLT ISZERO PUSH2 0x1C29 JUMPI PUSH2 0x1C28 PUSH2 0x1861 JUMP JUMPDEST JUMPDEST PUSH0 PUSH2 0x1C36 DUP5 DUP3 DUP6 ADD PUSH2 0x1A4E JUMP JUMPDEST SWAP2 POP POP SWAP3 SWAP2 POP POP JUMP JUMPDEST PUSH0 DUP1 REVERT JUMPDEST PUSH0 DUP1 REVERT JUMPDEST PUSH0 DUP1 REVERT JUMPDEST PUSH0 DUP1 DUP4 PUSH1 0x1F DUP5 ADD SLT PUSH2 0x1C60 JUMPI PUSH2 0x1C5F PUSH2 0x1C3F JUMP JUMPDEST JUMPDEST DUP3 CALLDATALOAD SWAP1 POP PUSH8 0xFFFFFFFFFFFFFFFF DUP2 GT ISZERO PUSH2 0x1C7D JUMPI PUSH2 0x1C7C PUSH2 0x1C43 JUMP JUMPDEST JUMPDEST PUSH1 0x20 DUP4 ADD SWAP2 POP DUP4 PUSH1 0x20 DUP3 MUL DUP4 ADD GT ISZERO PUSH2 0x1C99 JUMPI PUSH2 0x1C98 PUSH2 0x1C47 JUMP JUMPDEST JUMPDEST SWAP3 POP SWAP3 SWAP1 POP JUMP JUMPDEST PUSH0 DUP1 DUP4 PUSH1 0x1F DUP5 ADD SLT PUSH2 0x1CB5 JUMPI PUSH2 0x1CB4 PUSH2 0x1C3F JUMP JUMPDEST JUMPDEST DUP3 CALLDATALOAD SWAP1 POP PUSH8 0xFFFFFFFFFFFFFFFF DUP2 GT ISZERO PUSH2 0x1CD2 JUMPI PUSH2 0x1CD1 PUSH2 0x1C43 JUMP JUMPDEST JUMPDEST PUSH1 0x20 DUP4 ADD SWAP2 POP DUP4 PUSH1 0x20 DUP3 MUL DUP4 ADD GT ISZERO PUSH2 0x1CEE JUMPI PUSH2 0x1CED PUSH2 0x1C47 JUMP JUMPDEST JUMPDEST SWAP3 POP SWAP3 SWAP1 POP JUMP JUMPDEST PUSH0 DUP1 DUP4 PUSH1 0x1F DUP5 ADD SLT PUSH2 0x1D0A JUMPI PUSH2 0x1D09 PUSH2 0x1C3F JUMP JUMPDEST JUMPDEST DUP3 CALLDATALOAD SWAP1 POP PUSH8 0xFFFFFFFFFFFFFFFF DUP2 GT ISZERO PUSH2 0x1D27 JUMPI PUSH2 0x1D26 PUSH2 0x1C43 JUMP JUMPDEST JUMPDEST PUSH1 0x20 DUP4 ADD SWAP2 POP DUP4 PUSH1 0x20 DUP3 MUL DUP4 ADD GT ISZERO PUSH2 0x1D43 JUMPI PUSH2 0x1D42 PUSH2 0x1C47 JUMP JUMPDEST JUMPDEST SWAP3 POP SWAP3 SWAP1 POP JUMP JUMPDEST PUSH0 DUP1 PUSH0 DUP1 PUSH0 DUP1 PUSH1 0x60 DUP8 DUP10 SUB SLT ISZERO PUSH2 0x1D64 JUMPI PUSH2 0x1D63 PUSH2 0x1861 JUMP JUMPDEST JUMPDEST PUSH0 DUP8 ADD CALLDATALOAD PUSH8 0xFFFFFFFFFFFFFFFF DUP2 GT ISZERO PUSH2 0x1D81 JUMPI PUSH2 0x1D80 PUSH2 0x1865 JUMP JUMPDEST JUMPDEST PUSH2 0x1D8D DUP10 DUP3 DUP11 ADD PUSH2 0x1C4B JUMP JUMPDEST SWAP7 POP SWAP7 POP POP PUSH1 0x20 DUP8 ADD CALLDATALOAD PUSH8 0xFFFFFFFFFFFFFFFF DUP2 GT ISZERO PUSH2 0x1DB0 JUMPI PUSH2 0x1DAF PUSH2 0x1865 JUMP JUMPDEST JUMPDEST PUSH2 0x1DBC DUP10 DUP3 DUP11 ADD PUSH2 0x1CA0 JUMP JUMPDEST SWAP5 POP SWAP5 POP POP PUSH1 0x40 DUP8 ADD CALLDATALOAD PUSH8 0xFFFFFFFFFFFFFFFF DUP2 GT ISZERO PUSH2 0x1DDF JUMPI PUSH2 0x1DDE PUSH2 0x1865 JUMP JUMPDEST JUMPDEST PUSH2 0x1DEB DUP10 DUP3 DUP11 ADD PUSH2 0x1CF5 JUMP JUMPDEST SWAP3 POP SWAP3 POP POP SWAP3 SWAP6 POP SWAP3 SWAP6 POP SWAP3 SWAP6 JUMP JUMPDEST PUSH0 PUSH2 0x1E04 DUP3 PUSH2 0x19C1 JUMP JUMPDEST SWAP1 POP SWAP2 SWAP1 POP JUMP JUMPDEST PUSH2 0x1E14 DUP2 PUSH2 0x1DFA JUMP JUMPDEST DUP2 EQ PUSH2 0x1E1E JUMPI PUSH0 DUP1 REVERT JUMPDEST POP JUMP JUMPDEST PUSH0 DUP2 CALLDATALOAD SWAP1 POP PUSH2 0x1E2F DUP2 PUSH2 0x1E0B JUMP JUMPDEST SWAP3 SWAP2 POP POP JUMP JUMPDEST PUSH0 PUSH1 0x20 DUP3 DUP5 SUB SLT ISZERO PUSH2 0x1E4A JUMPI PUSH2 0x1E49 PUSH2 0x1861 JUMP JUMPDEST JUMPDEST PUSH0 PUSH2 0x1E57 DUP5 DUP3 DUP6 ADD PUSH2 0x1E21 JUMP JUMPDEST SWAP2 POP POP SWAP3 SWAP2 POP POP JUMP JUMPDEST PUSH0 PUSH2 0x1E6A DUP3 PUSH2 0x19C1 JUMP JUMPDEST SWAP1 POP SWAP2 SWAP1 POP JUMP JUMPDEST PUSH2 0x1E7A DUP2 PUSH2 0x1E60 JUMP JUMPDEST DUP2 EQ PUSH2 0x1E84 JUMPI PUSH0 DUP1 REVERT JUMPDEST POP JUMP JUMPDEST PUSH0 DUP2 CALLDATALOAD SWAP1 POP PUSH2 0x1E95 DUP2 PUSH2 0x1E71 JUMP JUMPDEST SWAP3 SWAP2 POP POP JUMP JUMPDEST PUSH0 PUSH1 0x20 DUP3 DUP5 SUB SLT ISZERO PUSH2 0x1EB0 JUMPI PUSH2 0x1EAF PUSH2 0x1861 JUMP JUMPDEST JUMPDEST PUSH0 PUSH2 0x1EBD DUP5 DUP3 DUP6 ADD PUSH2 0x1E87 JUMP JUMPDEST SWAP2 POP POP SWAP3 SWAP2 POP POP JUMP JUMPDEST PUSH2 0x1ECF DUP2 PUSH2 0x1AA0 JUMP JUMPDEST DUP3 MSTORE POP POP JUMP JUMPDEST PUSH0 PUSH1 0x20 DUP3 ADD SWAP1 POP PUSH2 0x1EE8 PUSH0 DUP4 ADD DUP5 PUSH2 0x1EC6 JUMP JUMPDEST SWAP3 SWAP2 POP POP JUMP JUMPDEST PUSH0 DUP1 PUSH1 0x40 DUP4 DUP6 SUB SLT ISZERO PUSH2 0x1F04 JUMPI PUSH2 0x1F03 PUSH2 0x1861 JUMP JUMPDEST JUMPDEST PUSH0 PUSH2 0x1F11 DUP6 DUP3 DUP7 ADD PUSH2 0x1A4E JUMP JUMPDEST SWAP3 POP POP PUSH1 0x20 PUSH2 0x1F22 DUP6 DUP3 DUP7 ADD PUSH2 0x1BB0 JUMP JUMPDEST SWAP2 POP POP SWAP3 POP SWAP3 SWAP1 POP JUMP JUMPDEST PUSH0 PUSH2 0x1F36 DUP3 PUSH2 0x1B3F JUMP JUMPDEST SWAP1 POP SWAP2 SWAP1 POP JUMP JUMPDEST PUSH2 0x1F46 DUP2 PUSH2 0x1F2C JUMP JUMPDEST DUP3 MSTORE POP POP JUMP JUMPDEST PUSH0 PUSH1 0x20 DUP3 ADD SWAP1 POP PUSH2 0x1F5F PUSH0 DUP4 ADD DUP5 PUSH2 0x1F3D JUMP JUMPDEST SWAP3 SWAP2 POP POP JUMP JUMPDEST PUSH0 PUSH2 0x1F6F DUP3 PUSH2 0x1B3F JUMP JUMPDEST SWAP1 POP SWAP2 SWAP1 POP JUMP JUMPDEST PUSH2 0x1F7F DUP2 PUSH2 0x1F65 JUMP JUMPDEST DUP3 MSTORE POP POP JUMP JUMPDEST PUSH0 PUSH1 0x20 DUP3 ADD SWAP1 POP PUSH2 0x1F98 PUSH0 DUP4 ADD DUP5 PUSH2 0x1F76 JUMP JUMPDEST SWAP3 SWAP2 POP POP JUMP JUMPDEST PUSH0 PUSH2 0x1FA8 DUP3 PUSH2 0x1B3F JUMP JUMPDEST SWAP1 POP SWAP2 SWAP1 POP JUMP JUMPDEST PUSH2 0x1FB8 DUP2 PUSH2 0x1F9E JUMP JUMPDEST DUP3 MSTORE POP POP JUMP JUMPDEST PUSH0 PUSH1 0x20 DUP3 ADD SWAP1 POP PUSH2 0x1FD1 PUSH0 DUP4 ADD DUP5 PUSH2 0x1FAF JUMP JUMPDEST SWAP3 SWAP2 POP POP JUMP JUMPDEST PUSH2 0x1FE0 DUP2 PUSH2 0x19C1 JUMP JUMPDEST DUP3 MSTORE POP POP JUMP JUMPDEST PUSH0 PUSH1 0x40 DUP3 ADD SWAP1 POP PUSH2 0x1FF9 PUSH0 DUP4 ADD DUP6 PUSH2 0x1FD7 JUMP JUMPDEST PUSH2 0x2006 PUSH1 0x20 DUP4 ADD DUP5 PUSH2 0x1EC6 JUMP JUMPDEST SWAP4 SWAP3 POP POP POP JUMP JUMPDEST PUSH0 DUP3 DUP3 MSTORE PUSH1 0x20 DUP3 ADD SWAP1 POP SWAP3 SWAP2 POP POP JUMP JUMPDEST PUSH32 0x4552432D333634333A2041727261792073697A65206D69736D61746368000000 PUSH0 DUP3 ADD MSTORE POP JUMP JUMPDEST PUSH0 PUSH2 0x2051 PUSH1 0x1D DUP4 PUSH2 0x200D JUMP JUMPDEST SWAP2 POP PUSH2 0x205C DUP3 PUSH2 0x201D JUMP JUMPDEST PUSH1 0x20 DUP3 ADD SWAP1 POP SWAP2 SWAP1 POP JUMP JUMPDEST PUSH0 PUSH1 0x20 DUP3 ADD SWAP1 POP DUP2 DUP2 SUB PUSH0 DUP4 ADD MSTORE PUSH2 0x207E DUP2 PUSH2 0x2045 JUMP JUMPDEST SWAP1 POP SWAP2 SWAP1 POP JUMP JUMPDEST PUSH32 0x4E487B7100000000000000000000000000000000000000000000000000000000 PUSH0 MSTORE PUSH1 0x32 PUSH1 0x4 MSTORE PUSH1 0x24 PUSH0 REVERT JUMPDEST PUSH0 PUSH1 0x20 DUP3 DUP5 SUB SLT ISZERO PUSH2 0x20C7 JUMPI PUSH2 0x20C6 PUSH2 0x1861 JUMP JUMPDEST JUMPDEST PUSH0 PUSH2 0x20D4 DUP5 DUP3 DUP6 ADD PUSH2 0x1BB0 JUMP JUMPDEST SWAP2 POP POP SWAP3 SWAP2 POP POP JUMP JUMPDEST PUSH0 PUSH1 0x20 DUP3 DUP5 SUB SLT ISZERO PUSH2 0x20F2 JUMPI PUSH2 0x20F1 PUSH2 0x1861 JUMP JUMPDEST JUMPDEST PUSH0 PUSH2 0x20FF DUP5 DUP3 DUP6 ADD PUSH2 0x1AC3 JUMP JUMPDEST SWAP2 POP POP SWAP3 SWAP2 POP POP JUMP JUMPDEST PUSH0 PUSH1 0x20 DUP3 ADD SWAP1 POP PUSH2 0x211B PUSH0 DUP4 ADD DUP5 PUSH2 0x1FD7 JUMP JUMPDEST SWAP3 SWAP2 POP POP JUMP JUMPDEST PUSH0 DUP2 MLOAD SWAP1 POP PUSH2 0x212F DUP2 PUSH2 0x1AAD JUMP JUMPDEST SWAP3 SWAP2 POP POP JUMP JUMPDEST PUSH0 PUSH1 0x20 DUP3 DUP5 SUB SLT ISZERO PUSH2 0x214A JUMPI PUSH2 0x2149 PUSH2 0x1861 JUMP JUMPDEST JUMPDEST PUSH0 PUSH2 0x2157 DUP5 DUP3 DUP6 ADD PUSH2 0x2121 JUMP JUMPDEST SWAP2 POP POP SWAP3 SWAP2 POP POP JUMP JUMPDEST PUSH0 PUSH1 0x40 DUP3 ADD SWAP1 POP PUSH2 0x2173 PUSH0 DUP4 ADD DUP6 PUSH2 0x1FD7 JUMP JUMPDEST PUSH2 0x2180 PUSH1 0x20 DUP4 ADD DUP5 PUSH2 0x1F76 JUMP JUMPDEST SWAP4 SWAP3 POP POP POP JUMP JUMPDEST PUSH0 PUSH1 0x1F NOT PUSH1 0x1F DUP4 ADD AND SWAP1 POP SWAP2 SWAP1 POP JUMP JUMPDEST PUSH32 0x4E487B7100000000000000000000000000000000000000000000000000000000 PUSH0 MSTORE PUSH1 0x41 PUSH1 0x4 MSTORE PUSH1 0x24 PUSH0 REVERT JUMPDEST PUSH2 0x21CD DUP3 PUSH2 0x2187 JUMP JUMPDEST DUP2 ADD DUP2 DUP2 LT PUSH8 0xFFFFFFFFFFFFFFFF DUP3 GT OR ISZERO PUSH2 0x21EC JUMPI PUSH2 0x21EB PUSH2 0x2197 JUMP JUMPDEST JUMPDEST DUP1 PUSH1 0x40 MSTORE POP POP POP JUMP JUMPDEST PUSH0 PUSH2 0x21FE PUSH2 0x1858 JUMP JUMPDEST SWAP1 POP PUSH2 0x220A DUP3 DUP3 PUSH2 0x21C4 JUMP JUMPDEST SWAP2 SWAP1 POP JUMP JUMPDEST PUSH0 PUSH8 0xFFFFFFFFFFFFFFFF DUP3 GT ISZERO PUSH2 0x2229 JUMPI PUSH2 0x2228 PUSH2 0x2197 JUMP JUMPDEST JUMPDEST PUSH1 0x20 DUP3 MUL SWAP1 POP PUSH1 0x20 DUP2 ADD SWAP1 POP SWAP2 SWAP1 POP JUMP JUMPDEST PUSH0 DUP2 SWAP1 POP SWAP2 SWAP1 POP JUMP JUMPDEST PUSH2 0x224C DUP2 PUSH2 0x223A JUMP JUMPDEST DUP2 EQ PUSH2 0x2256 JUMPI PUSH0 DUP1 REVERT JUMPDEST POP JUMP JUMPDEST PUSH0 DUP2 MLOAD SWAP1 POP PUSH2 0x2267 DUP2 PUSH2 0x2243 JUMP JUMPDEST SWAP3 SWAP2 POP POP JUMP JUMPDEST PUSH0 PUSH2 0x227F PUSH2 0x227A DUP5 PUSH2 0x220F JUMP JUMPDEST PUSH2 0x21F5 JUMP JUMPDEST SWAP1 POP DUP1 DUP4 DUP3 MSTORE PUSH1 0x20 DUP3 ADD SWAP1 POP PUSH1 0x20 DUP5 MUL DUP4 ADD DUP6 DUP2 GT ISZERO PUSH2 0x22A2 JUMPI PUSH2 0x22A1 PUSH2 0x1C47 JUMP JUMPDEST JUMPDEST DUP4 JUMPDEST DUP2 DUP2 LT ISZERO PUSH2 0x22CB JUMPI DUP1 PUSH2 0x22B7 DUP9 DUP3 PUSH2 0x2259 JUMP JUMPDEST DUP5 MSTORE PUSH1 0x20 DUP5 ADD SWAP4 POP POP PUSH1 0x20 DUP2 ADD SWAP1 POP PUSH2 0x22A4 JUMP JUMPDEST POP POP POP SWAP4 SWAP3 POP POP POP JUMP JUMPDEST PUSH0 DUP3 PUSH1 0x1F DUP4 ADD SLT PUSH2 0x22E9 JUMPI PUSH2 0x22E8 PUSH2 0x1C3F JUMP JUMPDEST JUMPDEST DUP2 MLOAD PUSH2 0x22F9 DUP5 DUP3 PUSH1 0x20 DUP7 ADD PUSH2 0x226D JUMP JUMPDEST SWAP2 POP POP SWAP3 SWAP2 POP POP JUMP JUMPDEST PUSH0 PUSH1 0x20 DUP3 DUP5 SUB SLT ISZERO PUSH2 0x2317 JUMPI PUSH2 0x2316 PUSH2 0x1861 JUMP JUMPDEST JUMPDEST PUSH0 DUP3 ADD MLOAD PUSH8 0xFFFFFFFFFFFFFFFF DUP2 GT ISZERO PUSH2 0x2334 JUMPI PUSH2 0x2333 PUSH2 0x1865 JUMP JUMPDEST JUMPDEST PUSH2 0x2340 DUP5 DUP3 DUP6 ADD PUSH2 0x22D5 JUMP JUMPDEST SWAP2 POP POP SWAP3 SWAP2 POP POP JUMP JUMPDEST PUSH32 0x4E487B7100000000000000000000000000000000000000000000000000000000 PUSH0 MSTORE PUSH1 0x11 PUSH1 0x4 MSTORE PUSH1 0x24 PUSH0 REVERT JUMPDEST PUSH0 PUSH2 0x2380 DUP3 PUSH2 0x223A JUMP JUMPDEST SWAP2 POP PUSH32 0xFFFFFFFFFFFFFFFFFFFFFFFFFFFFFFFFFFFFFFFFFFFFFFFFFFFFFFFFFFFFFFFF DUP3 SUB PUSH2 0x23B2 JUMPI PUSH2 0x23B1 PUSH2 0x2349 JUMP JUMPDEST JUMPDEST PUSH1 0x1 DUP3 ADD SWAP1 POP SWAP2 SWAP1 POP JUMP JUMPDEST PUSH0 DUP2 MLOAD SWAP1 POP PUSH2 0x23CB DUP2 PUSH2 0x1B9A JUMP JUMPDEST SWAP3 SWAP2 POP POP JUMP JUMPDEST PUSH0 PUSH1 0x20 DUP3 DUP5 SUB SLT ISZERO PUSH2 0x23E6 JUMPI PUSH2 0x23E5 PUSH2 0x1861 JUMP JUMPDEST JUMPDEST PUSH0 PUSH2 0x23F3 DUP5 DUP3 DUP6 ADD PUSH2 0x23BD JUMP JUMPDEST SWAP2 POP POP SWAP3 SWAP2 POP POP JUMP JUMPDEST PUSH0 PUSH1 0x60 DUP3 ADD SWAP1 POP PUSH2 0x240F PUSH0 DUP4 ADD DUP7 PUSH2 0x1FD7 JUMP JUMPDEST PUSH2 0x241C PUSH1 0x20 DUP4 ADD DUP6 PUSH2 0x1F76 JUMP JUMPDEST PUSH2 0x2429 PUSH1 0x40 DUP4 ADD DUP5 PUSH2 0x1EC6 JUMP JUMPDEST SWAP5 SWAP4 POP POP POP POP JUMP JUMPDEST PUSH2 0x243A DUP2 PUSH2 0x223A JUMP JUMPDEST DUP3 MSTORE POP POP JUMP JUMPDEST PUSH0 PUSH1 0x20 DUP3 ADD SWAP1 POP PUSH2 0x2453 PUSH0 DUP4 ADD DUP5 PUSH2 0x2431 JUMP JUMPDEST SWAP3 SWAP2 POP POP JUMP JUMPDEST PUSH0 PUSH8 0xFFFFFFFFFFFFFFFF DUP3 GT ISZERO PUSH2 0x2473 JUMPI PUSH2 0x2472 PUSH2 0x2197 JUMP JUMPDEST JUMPDEST PUSH1 0x20 DUP3 MUL SWAP1 POP PUSH1 0x20 DUP2 ADD SWAP1 POP SWAP2 SWAP1 POP JUMP JUMPDEST PUSH0 PUSH2 0x248E DUP3 PUSH2 0x19C1 JUMP JUMPDEST SWAP1 POP SWAP2 SWAP1 POP JUMP JUMPDEST PUSH2 0x249E DUP2 PUSH2 0x2484 JUMP JUMPDEST DUP2 EQ PUSH2 0x24A8 JUMPI PUSH0 DUP1 REVERT JUMPDEST POP JUMP JUMPDEST PUSH0 DUP2 MLOAD SWAP1 POP PUSH2 0x24B9 DUP2 PUSH2 0x2495 JUMP JUMPDEST SWAP3 SWAP2 POP POP JUMP JUMPDEST PUSH0 PUSH2 0x24D1 PUSH2 0x24CC DUP5 PUSH2 0x2459 JUMP JUMPDEST PUSH2 0x21F5 JUMP JUMPDEST SWAP1 POP DUP1 DUP4 DUP3 MSTORE PUSH1 0x20 DUP3 ADD SWAP1 POP PUSH1 0x20 DUP5 MUL DUP4 ADD DUP6 DUP2 GT ISZERO PUSH2 0x24F4 JUMPI PUSH2 0x24F3 PUSH2 0x1C47 JUMP JUMPDEST JUMPDEST DUP4 JUMPDEST DUP2 DUP2 LT ISZERO PUSH2 0x251D JUMPI DUP1 PUSH2 0x2509 DUP9 DUP3 PUSH2 0x24AB JUMP JUMPDEST DUP5 MSTORE PUSH1 0x20 DUP5 ADD SWAP4 POP POP PUSH1 0x20 DUP2 ADD SWAP1 POP PUSH2 0x24F6 JUMP JUMPDEST POP POP POP SWAP4 SWAP3 POP POP POP JUMP JUMPDEST PUSH0 DUP3 PUSH1 0x1F DUP4 ADD SLT PUSH2 0x253B JUMPI PUSH2 0x253A PUSH2 0x1C3F JUMP JUMPDEST JUMPDEST DUP2 MLOAD PUSH2 0x254B DUP5 DUP3 PUSH1 0x20 DUP7 ADD PUSH2 0x24BF JUMP JUMPDEST SWAP2 POP POP SWAP3 SWAP2 POP POP JUMP JUMPDEST PUSH0 PUSH1 0x20 DUP3 DUP5 SUB SLT ISZERO PUSH2 0x2569 JUMPI PUSH2 0x2568 PUSH2 0x1861 JUMP JUMPDEST JUMPDEST PUSH0 DUP3 ADD MLOAD PUSH8 0xFFFFFFFFFFFFFFFF DUP2 GT ISZERO PUSH2 0x2586 JUMPI PUSH2 0x2585 PUSH2 0x1865 JUMP JUMPDEST JUMPDEST PUSH2 0x2592 DUP5 DUP3 DUP6 ADD PUSH2 0x2527 JUMP JUMPDEST SWAP2 POP POP SWAP3 SWAP2 POP POP JUMP JUMPDEST PUSH0 PUSH2 0x25A5 DUP3 PUSH2 0x1B3F JUMP JUMPDEST SWAP1 POP SWAP2 SWAP1 POP JUMP JUMPDEST PUSH2 0x25B5 DUP2 PUSH2 0x259B JUMP JUMPDEST DUP3 MSTORE POP POP JUMP JUMPDEST PUSH0 PUSH1 0x40 DUP3 ADD SWAP1 POP PUSH2 0x25CE PUSH0 DUP4 ADD DUP6 PUSH2 0x25AC JUMP JUMPDEST PUSH2 0x25DB PUSH1 0x20 DUP4 ADD DUP5 PUSH2 0x2431 JUMP JUMPDEST SWAP4 SWAP3 POP POP POP JUMP JUMPDEST PUSH0 DUP2 MLOAD SWAP1 POP PUSH2 0x25F0 DUP2 PUSH2 0x1A38 JUMP JUMPDEST SWAP3 SWAP2 POP POP JUMP JUMPDEST PUSH0 DUP1 REVERT JUMPDEST PUSH0 PUSH8 0xFFFFFFFFFFFFFFFF DUP3 GT ISZERO PUSH2 0x2614 JUMPI PUSH2 0x2613 PUSH2 0x2197 JUMP JUMPDEST JUMPDEST PUSH2 0x261D DUP3 PUSH2 0x2187 JUMP JUMPDEST SWAP1 POP PUSH1 0x20 DUP2 ADD SWAP1 POP SWAP2 SWAP1 POP JUMP JUMPDEST PUSH0 JUMPDEST DUP4 DUP2 LT ISZERO PUSH2 0x2647 JUMPI DUP1 DUP3 ADD MLOAD DUP2 DUP5 ADD MSTORE PUSH1 0x20 DUP2 ADD SWAP1 POP PUSH2 0x262C JUMP JUMPDEST PUSH0 DUP5 DUP5 ADD MSTORE POP POP POP POP JUMP JUMPDEST PUSH0 PUSH2 0x2664 PUSH2 0x265F DUP5 PUSH2 0x25FA JUMP JUMPDEST PUSH2 0x21F5 JUMP JUMPDEST SWAP1 POP DUP3 DUP2 MSTORE PUSH1 0x20 DUP2 ADD DUP5 DUP5 DUP5 ADD GT ISZERO PUSH2 0x2680 JUMPI PUSH2 0x267F PUSH2 0x25F6 JUMP JUMPDEST JUMPDEST PUSH2 0x268B DUP5 DUP3 DUP6 PUSH2 0x262A JUMP JUMPDEST POP SWAP4 SWAP3 POP POP POP JUMP JUMPDEST PUSH0 DUP3 PUSH1 0x1F DUP4 ADD SLT PUSH2 0x26A7 JUMPI PUSH2 0x26A6 PUSH2 0x1C3F JUMP JUMPDEST JUMPDEST DUP2 MLOAD PUSH2 0x26B7 DUP5 DUP3 PUSH1 0x20 DUP7 ADD PUSH2 0x2652 JUMP JUMPDEST SWAP2 POP POP SWAP3 SWAP2 POP POP JUMP JUMPDEST PUSH0 PUSH8 0xFFFFFFFFFFFFFFFF DUP3 GT ISZERO PUSH2 0x26DA JUMPI PUSH2 0x26D9 PUSH2 0x2197 JUMP JUMPDEST JUMPDEST PUSH2 0x26E3 DUP3 PUSH2 0x2187 JUMP JUMPDEST SWAP1 POP PUSH1 0x20 DUP2 ADD SWAP1 POP SWAP2 SWAP1 POP JUMP JUMPDEST PUSH0 PUSH2 0x2702 PUSH2 0x26FD DUP5 PUSH2 0x26C0 JUMP JUMPDEST PUSH2 0x21F5 JUMP JUMPDEST SWAP1 POP DUP3 DUP2 MSTORE PUSH1 0x20 DUP2 ADD DUP5 DUP5 DUP5 ADD GT ISZERO PUSH2 0x271E JUMPI PUSH2 0x271D PUSH2 0x25F6 JUMP JUMPDEST JUMPDEST PUSH2 0x2729 DUP5 DUP3 DUP6 PUSH2 0x262A JUMP JUMPDEST POP SWAP4 SWAP3 POP POP POP JUMP JUMPDEST PUSH0 DUP3 PUSH1 0x1F DUP4 ADD SLT PUSH2 0x2745 JUMPI PUSH2 0x2744 PUSH2 0x1C3F JUMP JUMPDEST JUMPDEST DUP2 MLOAD PUSH2 0x2755 DUP5 DUP3 PUSH1 0x20 DUP7 ADD PUSH2 0x26F0 JUMP JUMPDEST SWAP2 POP POP SWAP3 SWAP2 POP POP JUMP JUMPDEST PUSH0 DUP1 PUSH0 DUP1 PUSH0 DUP1 PUSH1 0xC0 DUP8 DUP10 SUB SLT ISZERO PUSH2 0x2778 JUMPI PUSH2 0x2777 PUSH2 0x1861 JUMP JUMPDEST JUMPDEST PUSH0 PUSH2 0x2785 DUP10 DUP3 DUP11 ADD PUSH2 0x2259 JUMP JUMPDEST SWAP7 POP POP PUSH1 0x20 PUSH2 0x2796 DUP10 DUP3 DUP11 ADD PUSH2 0x2259 JUMP JUMPDEST SWAP6 POP POP PUSH1 0x40 PUSH2 0x27A7 DUP10 DUP3 DUP11 ADD PUSH2 0x25E2 JUMP JUMPDEST SWAP5 POP POP PUSH1 0x60 DUP8 ADD MLOAD PUSH8 0xFFFFFFFFFFFFFFFF DUP2 GT ISZERO PUSH2 0x27C8 JUMPI PUSH2 0x27C7 PUSH2 0x1865 JUMP JUMPDEST JUMPDEST PUSH2 0x27D4 DUP10 DUP3 DUP11 ADD PUSH2 0x2693 JUMP JUMPDEST SWAP4 POP POP PUSH1 0x80 DUP8 ADD MLOAD PUSH8 0xFFFFFFFFFFFFFFFF DUP2 GT ISZERO PUSH2 0x27F5 JUMPI PUSH2 0x27F4 PUSH2 0x1865 JUMP JUMPDEST JUMPDEST PUSH2 0x2801 DUP10 DUP3 DUP11 ADD PUSH2 0x2693 JUMP JUMPDEST SWAP3 POP POP PUSH1 0xA0 DUP8 ADD MLOAD PUSH8 0xFFFFFFFFFFFFFFFF DUP2 GT ISZERO PUSH2 0x2822 JUMPI PUSH2 0x2821 PUSH2 0x1865 JUMP JUMPDEST JUMPDEST PUSH2 0x282E DUP10 DUP3 DUP11 ADD PUSH2 0x2731 JUMP JUMPDEST SWAP2 POP POP SWAP3 SWAP6 POP SWAP3 SWAP6 POP SWAP3 SWAP6 JUMP JUMPDEST PUSH0 PUSH2 0x2845 DUP3 PUSH2 0x223A JUMP JUMPDEST SWAP2 POP PUSH2 0x2850 DUP4 PUSH2 0x223A JUMP JUMPDEST SWAP3 POP DUP3 DUP3 SUB SWAP1 POP DUP2 DUP2 GT ISZERO PUSH2 0x2868 JUMPI PUSH2 0x2867 PUSH2 0x2349 JUMP JUMPDEST JUMPDEST SWAP3 SWAP2 POP POP JUMP JUMPDEST PUSH0 PUSH1 0x40 DUP3 ADD SWAP1 POP PUSH2 0x2881 PUSH0 DUP4 ADD DUP6 PUSH2 0x1FD7 JUMP JUMPDEST PUSH2 0x288E PUSH1 0x20 DUP4 ADD DUP5 PUSH2 0x1925 JUMP JUMPDEST SWAP4 SWAP3 POP POP POP JUMP JUMPDEST PUSH0 DUP2 MLOAD SWAP1 POP SWAP2 SWAP1 POP JUMP JUMPDEST PUSH0 DUP3 DUP3 MSTORE PUSH1 0x20 DUP3 ADD SWAP1 POP SWAP3 SWAP2 POP POP JUMP JUMPDEST PUSH0 PUSH2 0x28B9 DUP3 PUSH2 0x2895 JUMP JUMPDEST PUSH2 0x28C3 DUP2 DUP6 PUSH2 0x289F JUMP JUMPDEST SWAP4 POP PUSH2 0x28D3 DUP2 DUP6 PUSH1 0x20 DUP7 ADD PUSH2 0x262A JUMP JUMPDEST PUSH2 0x28DC DUP2 PUSH2 0x2187 JUMP JUMPDEST DUP5 ADD SWAP2 POP POP SWAP3 SWAP2 POP POP JUMP JUMPDEST PUSH0 PUSH1 0x80 DUP3 ADD SWAP1 POP PUSH2 0x28FA PUSH0 DUP4 ADD DUP8 PUSH2 0x1F76 JUMP JUMPDEST PUSH2 0x2907 PUSH1 0x20 DUP4 ADD DUP7 PUSH2 0x2431 JUMP JUMPDEST DUP2 DUP2 SUB PUSH1 0x40 DUP4 ADD MSTORE PUSH2 0x2919 DUP2 DUP6 PUSH2 0x28AF JUMP JUMPDEST SWAP1 POP DUP2 DUP2 SUB PUSH1 0x60 DUP4 ADD MSTORE PUSH2 0x292D DUP2 DUP5 PUSH2 0x28AF JUMP JUMPDEST SWAP1 POP SWAP6 SWAP5 POP POP POP POP POP JUMP JUMPDEST PUSH2 0x2941 DUP2 PUSH2 0x18E9 JUMP JUMPDEST DUP2 EQ PUSH2 0x294B JUMPI PUSH0 DUP1 REVERT JUMPDEST POP JUMP JUMPDEST PUSH0 DUP2 MLOAD SWAP1 POP PUSH2 0x295C DUP2 PUSH2 0x2938 JUMP JUMPDEST SWAP3 SWAP2 POP POP JUMP JUMPDEST PUSH0 PUSH1 0x20 DUP3 DUP5 SUB SLT ISZERO PUSH2 0x2977 JUMPI PUSH2 0x2976 PUSH2 0x1861 JUMP JUMPDEST JUMPDEST PUSH0 PUSH2 0x2984 DUP5 DUP3 DUP6 ADD PUSH2 0x294E JUMP JUMPDEST SWAP2 POP POP SWAP3 SWAP2 POP POP JUMP INVALID LOG2 PUSH5 0x6970667358 0x22 SLT KECCAK256 DUP7 CALLDATALOAD 0x2A 0xEB PUSH32 0xEBF69C7C9C5CF9F39AD7837FC1BEBE36BE0217B751174685BA296364736F6C63 NUMBER STOP ADDMOD EQ STOP CALLER "
				},
				"gasEstimates": {
					"creation": {
						"codeDepositCost": "2138200",
						"executionCost": "infinite",
						"totalCost": "infinite"
					},
					"external": {
						"AGENT_ROLE()": "376",
						"DEFAULT_ADMIN_ROLE()": "441",
						"OWNER_ROLE()": "418",
						"batchRegisterIdentity(address[],address[],uint16[])": "infinite",
						"contains(address)": "infinite",
						"deleteIdentity(address)": "infinite",
						"getRoleAdmin(bytes32)": "infinite",
						"grantRole(bytes32,address)": "infinite",
						"hasRole(bytes32,address)": "3211",
						"identity(address)": "infinite",
						"identityStorage()": "infinite",
						"investorCountry(address)": "infinite",
						"isVerified(address)": "infinite",
						"issuersRegistry()": "infinite",
						"registerIdentity(address,address,uint16)": "infinite",
						"renounceRole(bytes32,address)": "infinite",
						"revokeRole(bytes32,address)": "infinite",
						"setClaimIssuersRegistry(address)": "infinite",
						"setClaimTopicsRegistry(address)": "infinite",
						"setIdentityRegistryStorage(address)": "infinite",
						"supportsInterface(bytes4)": "741",
						"topicsRegistry()": "infinite",
						"updateCountry(address,uint16)": "infinite",
						"updateIdentity(address,address)": "infinite"
					},
					"internal": {
						"_getIdentity(address)": "infinite",
						"_isClaimValid(contract IIdentity,uint256)": "infinite",
						"_isIssuerClaimValid(contract IIdentity,address,uint256,bytes memory,bytes memory)": "infinite",
						"_registerIdentity(address,contract IIdentity,uint16)": "infinite"
					}
				},
				"methodIdentifiers": {
					"AGENT_ROLE()": "22459e18",
					"DEFAULT_ADMIN_ROLE()": "a217fddf",
					"OWNER_ROLE()": "e58378bb",
					"batchRegisterIdentity(address[],address[],uint16[])": "653dc9f1",
					"contains(address)": "5dbe47e8",
					"deleteIdentity(address)": "a8d29d1d",
					"getRoleAdmin(bytes32)": "248a9ca3",
					"grantRole(bytes32,address)": "2f2ff15d",
					"hasRole(bytes32,address)": "91d14854",
					"identity(address)": "f0eb5e54",
					"identityStorage()": "f11abfd8",
					"investorCountry(address)": "7e42683b",
					"isVerified(address)": "b9209e33",
					"issuersRegistry()": "b4f3fcb7",
					"registerIdentity(address,address,uint16)": "454a03e0",
					"renounceRole(bytes32,address)": "36568abe",
					"revokeRole(bytes32,address)": "d547741f",
					"setClaimIssuersRegistry(address)": "6bc72c90",
					"setClaimTopicsRegistry(address)": "670af6a9",
					"setIdentityRegistryStorage(address)": "26d941ae",
					"supportsInterface(bytes4)": "01ffc9a7",
					"topicsRegistry()": "3b3e12f4",
					"updateCountry(address,uint16)": "3b239a7f",
					"updateIdentity(address,address)": "8e098ca1"
				}
			},
			"storageLayout": {
				"storage": [
					{
						"astId": 355,
						"contract": "contracts/registry/IdentityRegistry.sol:IdentityRegistry",
						"label": "_roles",
						"offset": 0,
						"slot": "0",
						"type": "t_mapping(t_bytes32,t_struct(RoleData)350_storage)"
					},
					{
						"astId": 791,
						"contract": "contracts/registry/IdentityRegistry.sol:IdentityRegistry",
						"label": "_tokenTopicsRegistry",
						"offset": 0,
						"slot": "1",
						"type": "t_contract(IClaimTopicsRegistry)1614"
					},
					{
						"astId": 795,
						"contract": "contracts/registry/IdentityRegistry.sol:IdentityRegistry",
						"label": "_tokenIssuersRegistry",
						"offset": 0,
						"slot": "2",
						"type": "t_contract(IClaimIssuersRegistry)1582"
					},
					{
						"astId": 799,
						"contract": "contracts/registry/IdentityRegistry.sol:IdentityRegistry",
						"label": "_tokenIdentityStorage",
						"offset": 0,
						"slot": "3",
						"type": "t_contract(IIdentityRegistryStorage)1911"
					}
				],
				"types": {
					"t_address": {
						"encoding": "inplace",
						"label": "address",
						"numberOfBytes": "20"
					},
					"t_bool": {
						"encoding": "inplace",
						"label": "bool",
						"numberOfBytes": "1"
					},
					"t_bytes32": {
						"encoding": "inplace",
						"label": "bytes32",
						"numberOfBytes": "32"
					},
					"t_contract(IClaimIssuersRegistry)1582": {
						"encoding": "inplace",
						"label": "contract IClaimIssuersRegistry",
						"numberOfBytes": "20"
					},
					"t_contract(IClaimTopicsRegistry)1614": {
						"encoding": "inplace",
						"label": "contract IClaimTopicsRegistry",
						"numberOfBytes": "20"
					},
					"t_contract(IIdentityRegistryStorage)1911": {
						"encoding": "inplace",
						"label": "contract IIdentityRegistryStorage",
						"numberOfBytes": "20"
					},
					"t_mapping(t_address,t_bool)": {
						"encoding": "mapping",
						"key": "t_address",
						"label": "mapping(address => bool)",
						"numberOfBytes": "32",
						"value": "t_bool"
					},
					"t_mapping(t_bytes32,t_struct(RoleData)350_storage)": {
						"encoding": "mapping",
						"key": "t_bytes32",
						"label": "mapping(bytes32 => struct AccessControl.RoleData)",
						"numberOfBytes": "32",
						"value": "t_struct(RoleData)350_storage"
					},
					"t_struct(RoleData)350_storage": {
						"encoding": "inplace",
						"label": "struct AccessControl.RoleData",
						"members": [
							{
								"astId": 347,
								"contract": "contracts/registry/IdentityRegistry.sol:IdentityRegistry",
								"label": "hasRole",
								"offset": 0,
								"slot": "0",
								"type": "t_mapping(t_address,t_bool)"
							},
							{
								"astId": 349,
								"contract": "contracts/registry/IdentityRegistry.sol:IdentityRegistry",
								"label": "adminRole",
								"offset": 0,
								"slot": "1",
								"type": "t_bytes32"
							}
						],
						"numberOfBytes": "64"
					}
				}
			},
			"userdoc": {
				"events": {
					"ClaimIssuersRegistrySet(address)": {
						"notice": "this event is emitted when the ClaimIssuersRegistry has been set for the IdentityRegistry  the event is emitted by the IdentityRegistry constructor  `claimIssuersRegistry` is the address of the Claim Issuers Registry contract"
					},
					"ClaimTopicsRegistrySet(address)": {
						"notice": "this event is emitted when the ClaimTopicsRegistry has been set for the IdentityRegistry  the event is emitted by the IdentityRegistry constructor  `claimTopicsRegistry` is the address of the Claim Topics Registry contract"
					},
					"CountryUpdated(address,uint16)": {
						"notice": "this event is emitted when an Identity's country has been updated  the event is emitted by the 'updateCountry' function  `investorAddress` is the address on which the country has been updated  `country` is the numeric code (ISO 3166-1) of the new country"
					},
					"IdentityRegistered(address,address)": {
						"notice": "this event is emitted when an Identity is registered into the Identity Registry.  the event is emitted by the 'registerIdentity' function  `investorAddress` is the address of the investor's wallet  `identity` is the address of the Identity smart contract (onchainID)"
					},
					"IdentityRemoved(address,address)": {
						"notice": "this event is emitted when an Identity is removed from the Identity Registry.  the event is emitted by the 'deleteIdentity' function  `investorAddress` is the address of the investor's wallet  `identity` is the address of the Identity smart contract (onchainID)"
					},
					"IdentityStorageSet(address)": {
						"notice": "this event is emitted when the IdentityRegistryStorage has been set for the IdentityRegistry  the event is emitted by the IdentityRegistry constructor  `identityStorage` is the address of the Identity Registry Storage contract"
					},
					"IdentityUpdated(address,address)": {
						"notice": "this event is emitted when an Identity has been updated  the event is emitted by the 'updateIdentity' function  `oldIdentity` is the old Identity contract's address to update  `newIdentity` is the new Identity contract's"
					}
				},
				"kind": "user",
				"methods": {
					"batchRegisterIdentity(address[],address[],uint16[])": {
						"notice": "Register multiple identities associated with multiple user addresses."
					},
					"constructor": {
						"notice": "This constructor sets the initial state of the IdentityRegistry contract."
					},
					"contains(address)": {
						"notice": "Check if an address is contained in the registry."
					},
					"deleteIdentity(address)": {
						"notice": "Delete the identity associated with a user address."
					},
					"identity(address)": {
						"notice": "Get the identity of a user."
					},
					"identityStorage()": {
						"notice": "Get the identity storage."
					},
					"investorCountry(address)": {
						"notice": "Get the country of an investor."
					},
					"isVerified(address)": {
						"notice": "Checks if a user is verified based on their identity, claim topics, and claim issuers."
					},
					"issuersRegistry()": {
						"notice": "Get the issuers registry."
					},
					"registerIdentity(address,address,uint16)": {
						"notice": "Register an identity associated with a user address."
					},
					"setClaimIssuersRegistry(address)": {
						"notice": "Set the ClaimIssuersRegistry contract."
					},
					"setClaimTopicsRegistry(address)": {
						"notice": "Set the ClaimTopicsRegistry contract."
					},
					"setIdentityRegistryStorage(address)": {
						"notice": "Set the IdentityRegistryStorage contract."
					},
					"topicsRegistry()": {
						"notice": "Get the topics registry."
					},
					"updateCountry(address,uint16)": {
						"notice": "Update the country code associated with a user address."
					},
					"updateIdentity(address,address)": {
						"notice": "Update the identity associated with a user address."
					}
				},
				"version": 1
			}
		}
	}
}