{
	"contracts/registry/IdentityRegistryStorage.sol": {
		"IdentityRegistryStorage": {
			"abi": [
				{
					"inputs": [],
					"stateMutability": "nonpayable",
					"type": "constructor"
				},
				{
					"inputs": [],
					"name": "AccessControlBadConfirmation",
					"type": "error"
				},
				{
					"inputs": [
						{
							"internalType": "address",
							"name": "account",
							"type": "address"
						},
						{
							"internalType": "bytes32",
							"name": "neededRole",
							"type": "bytes32"
						}
					],
					"name": "AccessControlUnauthorizedAccount",
					"type": "error"
				},
				{
					"anonymous": false,
					"inputs": [
						{
							"indexed": true,
							"internalType": "address",
							"name": "investorAddress",
							"type": "address"
						},
						{
							"indexed": true,
							"internalType": "uint16",
							"name": "country",
							"type": "uint16"
						}
					],
					"name": "CountryModified",
					"type": "event"
				},
				{
					"anonymous": false,
					"inputs": [
						{
							"indexed": true,
							"internalType": "contract IIdentity",
							"name": "oldIdentity",
							"type": "address"
						},
						{
							"indexed": true,
							"internalType": "contract IIdentity",
							"name": "newIdentity",
							"type": "address"
						}
					],
					"name": "IdentityModified",
					"type": "event"
				},
				{
					"anonymous": false,
					"inputs": [
						{
							"indexed": true,
							"internalType": "address",
							"name": "identityRegistry",
							"type": "address"
						}
					],
					"name": "IdentityRegistryBound",
					"type": "event"
				},
				{
					"anonymous": false,
					"inputs": [
						{
							"indexed": true,
							"internalType": "address",
							"name": "identityRegistry",
							"type": "address"
						}
					],
					"name": "IdentityRegistryUnbound",
					"type": "event"
				},
				{
					"anonymous": false,
					"inputs": [
						{
							"indexed": true,
							"internalType": "address",
							"name": "investorAddress",
							"type": "address"
						},
						{
							"indexed": true,
							"internalType": "contract IIdentity",
							"name": "identity",
							"type": "address"
						}
					],
					"name": "IdentityStored",
					"type": "event"
				},
				{
					"anonymous": false,
					"inputs": [
						{
							"indexed": true,
							"internalType": "address",
							"name": "investorAddress",
							"type": "address"
						},
						{
							"indexed": true,
							"internalType": "contract IIdentity",
							"name": "identity",
							"type": "address"
						}
					],
					"name": "IdentityUnstored",
					"type": "event"
				},
				{
					"anonymous": false,
					"inputs": [
						{
							"indexed": true,
							"internalType": "bytes32",
							"name": "role",
							"type": "bytes32"
						},
						{
							"indexed": true,
							"internalType": "bytes32",
							"name": "previousAdminRole",
							"type": "bytes32"
						},
						{
							"indexed": true,
							"internalType": "bytes32",
							"name": "newAdminRole",
							"type": "bytes32"
						}
					],
					"name": "RoleAdminChanged",
					"type": "event"
				},
				{
					"anonymous": false,
					"inputs": [
						{
							"indexed": true,
							"internalType": "bytes32",
							"name": "role",
							"type": "bytes32"
						},
						{
							"indexed": true,
							"internalType": "address",
							"name": "account",
							"type": "address"
						},
						{
							"indexed": true,
							"internalType": "address",
							"name": "sender",
							"type": "address"
						}
					],
					"name": "RoleGranted",
					"type": "event"
				},
				{
					"anonymous": false,
					"inputs": [
						{
							"indexed": true,
							"internalType": "bytes32",
							"name": "role",
							"type": "bytes32"
						},
						{
							"indexed": true,
							"internalType": "address",
							"name": "account",
							"type": "address"
						},
						{
							"indexed": true,
							"internalType": "address",
							"name": "sender",
							"type": "address"
						}
					],
					"name": "RoleRevoked",
					"type": "event"
				},
				{
					"inputs": [],
					"name": "AGENT_ROLE",
					"outputs": [
						{
							"internalType": "bytes32",
							"name": "",
							"type": "bytes32"
						}
					],
					"stateMutability": "view",
					"type": "function"
				},
				{
					"inputs": [],
					"name": "DEFAULT_ADMIN_ROLE",
					"outputs": [
						{
							"internalType": "bytes32",
							"name": "",
							"type": "bytes32"
						}
					],
					"stateMutability": "view",
					"type": "function"
				},
				{
					"inputs": [],
					"name": "OWNER_ROLE",
					"outputs": [
						{
							"internalType": "bytes32",
							"name": "",
							"type": "bytes32"
						}
					],
					"stateMutability": "view",
					"type": "function"
				},
				{
					"inputs": [
						{
							"internalType": "address",
							"name": "_userAddress",
							"type": "address"
						},
						{
							"internalType": "contract IIdentity",
							"name": "_identity",
							"type": "address"
						},
						{
							"internalType": "uint16",
							"name": "_country",
							"type": "uint16"
						}
					],
					"name": "addIdentityToStorage",
					"outputs": [],
					"stateMutability": "nonpayable",
					"type": "function"
				},
				{
					"inputs": [
						{
							"internalType": "address",
							"name": "_identityRegistry",
							"type": "address"
						}
					],
					"name": "bindIdentityRegistry",
					"outputs": [],
					"stateMutability": "nonpayable",
					"type": "function"
				},
				{
					"inputs": [
						{
							"internalType": "bytes32",
							"name": "role",
							"type": "bytes32"
						}
					],
					"name": "getRoleAdmin",
					"outputs": [
						{
							"internalType": "bytes32",
							"name": "",
							"type": "bytes32"
						}
					],
					"stateMutability": "view",
					"type": "function"
				},
				{
					"inputs": [
						{
							"internalType": "bytes32",
							"name": "role",
							"type": "bytes32"
						},
						{
							"internalType": "address",
							"name": "account",
							"type": "address"
						}
					],
					"name": "grantRole",
					"outputs": [],
					"stateMutability": "nonpayable",
					"type": "function"
				},
				{
					"inputs": [
						{
							"internalType": "bytes32",
							"name": "role",
							"type": "bytes32"
						},
						{
							"internalType": "address",
							"name": "account",
							"type": "address"
						}
					],
					"name": "hasRole",
					"outputs": [
						{
							"internalType": "bool",
							"name": "",
							"type": "bool"
						}
					],
					"stateMutability": "view",
					"type": "function"
				},
				{
					"inputs": [],
					"name": "linkedIdentityRegistries",
					"outputs": [
						{
							"internalType": "address[]",
							"name": "",
							"type": "address[]"
						}
					],
					"stateMutability": "view",
					"type": "function"
				},
				{
					"inputs": [
						{
							"internalType": "address",
							"name": "_userAddress",
							"type": "address"
						},
						{
							"internalType": "contract IIdentity",
							"name": "_identity",
							"type": "address"
						}
					],
					"name": "modifyStoredIdentity",
					"outputs": [],
					"stateMutability": "nonpayable",
					"type": "function"
				},
				{
					"inputs": [
						{
							"internalType": "address",
							"name": "_userAddress",
							"type": "address"
						},
						{
							"internalType": "uint16",
							"name": "_country",
							"type": "uint16"
						}
					],
					"name": "modifyStoredInvestorCountry",
					"outputs": [],
					"stateMutability": "nonpayable",
					"type": "function"
				},
				{
					"inputs": [
						{
							"internalType": "address",
							"name": "_userAddress",
							"type": "address"
						}
					],
					"name": "removeIdentityFromStorage",
					"outputs": [],
					"stateMutability": "nonpayable",
					"type": "function"
				},
				{
					"inputs": [
						{
							"internalType": "bytes32",
							"name": "role",
							"type": "bytes32"
						},
						{
							"internalType": "address",
							"name": "callerConfirmation",
							"type": "address"
						}
					],
					"name": "renounceRole",
					"outputs": [],
					"stateMutability": "nonpayable",
					"type": "function"
				},
				{
					"inputs": [
						{
							"internalType": "bytes32",
							"name": "role",
							"type": "bytes32"
						},
						{
							"internalType": "address",
							"name": "account",
							"type": "address"
						}
					],
					"name": "revokeRole",
					"outputs": [],
					"stateMutability": "nonpayable",
					"type": "function"
				},
				{
					"inputs": [
						{
							"internalType": "address",
							"name": "_userAddress",
							"type": "address"
						}
					],
					"name": "storedIdentity",
					"outputs": [
						{
							"internalType": "contract IIdentity",
							"name": "",
							"type": "address"
						}
					],
					"stateMutability": "view",
					"type": "function"
				},
				{
					"inputs": [
						{
							"internalType": "address",
							"name": "_userAddress",
							"type": "address"
						}
					],
					"name": "storedInvestorCountry",
					"outputs": [
						{
							"internalType": "uint16",
							"name": "",
							"type": "uint16"
						}
					],
					"stateMutability": "view",
					"type": "function"
				},
				{
					"inputs": [
						{
							"internalType": "bytes4",
							"name": "interfaceId",
							"type": "bytes4"
						}
					],
					"name": "supportsInterface",
					"outputs": [
						{
							"internalType": "bool",
							"name": "",
							"type": "bool"
						}
					],
					"stateMutability": "view",
					"type": "function"
				},
				{
					"inputs": [
						{
							"internalType": "address",
							"name": "_identityRegistry",
							"type": "address"
						}
					],
					"name": "unbindIdentityRegistry",
					"outputs": [],
					"stateMutability": "nonpayable",
					"type": "function"
				}
			],
			"devdoc": {
				"errors": {
					"AccessControlBadConfirmation()": [
						{
							"details": "The caller of a function is not the expected one. NOTE: Don't confuse with {AccessControlUnauthorizedAccount}."
						}
					],
					"AccessControlUnauthorizedAccount(address,bytes32)": [
						{
							"details": "The `account` is missing a role."
						}
					]
				},
				"events": {
					"RoleAdminChanged(bytes32,bytes32,bytes32)": {
						"details": "Emitted when `newAdminRole` is set as ``role``'s admin role, replacing `previousAdminRole` `DEFAULT_ADMIN_ROLE` is the starting admin for all roles, despite {RoleAdminChanged} not being emitted signaling this."
					},
					"RoleGranted(bytes32,address,address)": {
						"details": "Emitted when `account` is granted `role`. `sender` is the account that originated the contract call, an admin role bearer except when using {AccessControl-_setupRole}."
					},
					"RoleRevoked(bytes32,address,address)": {
						"details": "Emitted when `account` is revoked `role`. `sender` is the account that originated the contract call:   - if using `revokeRole`, it is the admin role bearer   - if using `renounceRole`, it is the role bearer (i.e. `account`)"
					}
				},
				"kind": "dev",
				"methods": {
					"addIdentityToStorage(address,address,uint16)": {
						"params": {
							"_country": "Country of the user",
							"_identity": "Identity contract of the user",
							"_userAddress": "User's address"
						}
					},
					"bindIdentityRegistry(address)": {
						"params": {
							"_identityRegistry": "Address of the identity registry"
						}
					},
					"getRoleAdmin(bytes32)": {
						"details": "Returns the admin role that controls `role`. See {grantRole} and {revokeRole}. To change a role's admin, use {_setRoleAdmin}."
					},
					"grantRole(bytes32,address)": {
						"details": "Grants `role` to `account`. If `account` had not been already granted `role`, emits a {RoleGranted} event. Requirements: - the caller must have ``role``'s admin role. May emit a {RoleGranted} event."
					},
					"hasRole(bytes32,address)": {
						"details": "Returns `true` if `account` has been granted `role`."
					},
					"linkedIdentityRegistries()": {
						"returns": {
							"_0": "Array of addresses of the linked identity registries"
						}
					},
					"modifyStoredIdentity(address,address)": {
						"params": {
							"_identity": "New identity contract of the user",
							"_userAddress": "User's address"
						}
					},
					"modifyStoredInvestorCountry(address,uint16)": {
						"params": {
							"_country": "New country of the user",
							"_userAddress": "User's address"
						}
					},
					"removeIdentityFromStorage(address)": {
						"params": {
							"_userAddress": "User's address"
						}
					},
					"renounceRole(bytes32,address)": {
						"details": "Revokes `role` from the calling account. Roles are often managed via {grantRole} and {revokeRole}: this function's purpose is to provide a mechanism for accounts to lose their privileges if they are compromised (such as when a trusted device is misplaced). If the calling account had been revoked `role`, emits a {RoleRevoked} event. Requirements: - the caller must be `callerConfirmation`. May emit a {RoleRevoked} event."
					},
					"revokeRole(bytes32,address)": {
						"details": "Revokes `role` from `account`. If `account` had been granted `role`, emits a {RoleRevoked} event. Requirements: - the caller must have ``role``'s admin role. May emit a {RoleRevoked} event."
					},
					"storedIdentity(address)": {
						"params": {
							"_userAddress": "User's address"
						},
						"returns": {
							"_0": "User's identity contract"
						}
					},
					"storedInvestorCountry(address)": {
						"params": {
							"_userAddress": "User's address"
						},
						"returns": {
							"_0": "User's country"
						}
					},
					"supportsInterface(bytes4)": {
						"details": "See {IERC165-supportsInterface}."
					},
					"unbindIdentityRegistry(address)": {
						"params": {
							"_identityRegistry": "Address of the identity registry"
						}
					}
				},
				"stateVariables": {
					"_identities": {
						"details": "Mapping between a user address and the corresponding identity"
					},
					"_identityRegistries": {
						"details": "Array of Identity Registries linked to this storage"
					}
				},
				"title": "ERC-3643 - IdentityRegistryStorage",
				"version": 1
			},
			"evm": {
				"assembly": "    /* \"contracts/registry/IdentityRegistryStorage.sol\":368:6740  contract IdentityRegistryStorage is IIdentityRegistryStorage, AccessControl {... */\n  mstore(0x40, 0x80)\n    /* \"contracts/registry/IdentityRegistryStorage.sol\":1324:1483  constructor() {... */\n  callvalue\n  dup1\n  iszero\n  tag_1\n  jumpi\n  0x00\n  dup1\n  revert\ntag_1:\n  pop\n    /* \"contracts/registry/IdentityRegistryStorage.sol\":1348:1384  _grantRole(bytes32(0), _msgSender()) */\n  tag_4\n    /* \"contracts/registry/IdentityRegistryStorage.sol\":1367:1368  0 */\n  0x00\n    /* \"contracts/registry/IdentityRegistryStorage.sol\":1359:1369  bytes32(0) */\n  dup1\n  shl\n    /* \"contracts/registry/IdentityRegistryStorage.sol\":1371:1383  _msgSender() */\n  tag_5\n    /* \"contracts/registry/IdentityRegistryStorage.sol\":1371:1381  _msgSender */\n  shl(0x20, tag_6)\n    /* \"contracts/registry/IdentityRegistryStorage.sol\":1371:1383  _msgSender() */\n  0x20\n  shr\n  jump\t// in\ntag_5:\n    /* \"contracts/registry/IdentityRegistryStorage.sol\":1348:1358  _grantRole */\n  shl(0x20, tag_7)\n    /* \"contracts/registry/IdentityRegistryStorage.sol\":1348:1384  _grantRole(bytes32(0), _msgSender()) */\n  0x20\n  shr\n  jump\t// in\ntag_4:\n  pop\n    /* \"contracts/registry/IdentityRegistryStorage.sol\":1394:1430  _grantRole(AGENT_ROLE, _msgSender()) */\n  tag_8\n    /* \"contracts/registry/IdentityRegistryStorage.sol\":786:852  0xcab5a0bfe0b79d2c4b1c2e02599fa044d115b7511f9659307cb4276950967709 */\n  0xcab5a0bfe0b79d2c4b1c2e02599fa044d115b7511f9659307cb4276950967709\n    /* \"contracts/registry/IdentityRegistryStorage.sol\":1405:1415  AGENT_ROLE */\n  0x00\n  shl\n    /* \"contracts/registry/IdentityRegistryStorage.sol\":1417:1429  _msgSender() */\n  tag_9\n    /* \"contracts/registry/IdentityRegistryStorage.sol\":1417:1427  _msgSender */\n  shl(0x20, tag_6)\n    /* \"contracts/registry/IdentityRegistryStorage.sol\":1417:1429  _msgSender() */\n  0x20\n  shr\n  jump\t// in\ntag_9:\n    /* \"contracts/registry/IdentityRegistryStorage.sol\":1394:1404  _grantRole */\n  shl(0x20, tag_7)\n    /* \"contracts/registry/IdentityRegistryStorage.sol\":1394:1430  _grantRole(AGENT_ROLE, _msgSender()) */\n  0x20\n  shr\n  jump\t// in\ntag_8:\n  pop\n    /* \"contracts/registry/IdentityRegistryStorage.sol\":1440:1476  _grantRole(OWNER_ROLE, _msgSender()) */\n  tag_10\n    /* \"contracts/registry/IdentityRegistryStorage.sol\":1010:1076  0xb19546dff01e856fb3f010c267a7b1c60363cf8a4664e21cc89c26224620214e */\n  0xb19546dff01e856fb3f010c267a7b1c60363cf8a4664e21cc89c26224620214e\n    /* \"contracts/registry/IdentityRegistryStorage.sol\":1451:1461  OWNER_ROLE */\n  0x00\n  shl\n    /* \"contracts/registry/IdentityRegistryStorage.sol\":1463:1475  _msgSender() */\n  tag_11\n    /* \"contracts/registry/IdentityRegistryStorage.sol\":1463:1473  _msgSender */\n  shl(0x20, tag_6)\n    /* \"contracts/registry/IdentityRegistryStorage.sol\":1463:1475  _msgSender() */\n  0x20\n  shr\n  jump\t// in\ntag_11:\n    /* \"contracts/registry/IdentityRegistryStorage.sol\":1440:1450  _grantRole */\n  shl(0x20, tag_7)\n    /* \"contracts/registry/IdentityRegistryStorage.sol\":1440:1476  _grantRole(OWNER_ROLE, _msgSender()) */\n  0x20\n  shr\n  jump\t// in\ntag_10:\n  pop\n    /* \"contracts/registry/IdentityRegistryStorage.sol\":368:6740  contract IdentityRegistryStorage is IIdentityRegistryStorage, AccessControl {... */\n  jump(tag_12)\n    /* \"@openzeppelin/contracts/utils/Context.sol\":656:752  function _msgSender() internal view virtual returns (address) {... */\ntag_6:\n    /* \"@openzeppelin/contracts/utils/Context.sol\":709:716  address */\n  0x00\n    /* \"@openzeppelin/contracts/utils/Context.sol\":735:745  msg.sender */\n  caller\n    /* \"@openzeppelin/contracts/utils/Context.sol\":728:745  return msg.sender */\n  swap1\n  pop\n    /* \"@openzeppelin/contracts/utils/Context.sol\":656:752  function _msgSender() internal view virtual returns (address) {... */\n  swap1\n  jump\t// out\n    /* \"@openzeppelin/contracts/access/AccessControl.sol\":6179:6495  function _grantRole(bytes32 role, address account) internal virtual returns (bool) {... */\ntag_7:\n    /* \"@openzeppelin/contracts/access/AccessControl.sol\":6256:6260  bool */\n  0x00\n    /* \"@openzeppelin/contracts/access/AccessControl.sol\":6277:6299  hasRole(role, account) */\n  tag_15\n    /* \"@openzeppelin/contracts/access/AccessControl.sol\":6285:6289  role */\n  dup4\n    /* \"@openzeppelin/contracts/access/AccessControl.sol\":6291:6298  account */\n  dup4\n    /* \"@openzeppelin/contracts/access/AccessControl.sol\":6277:6284  hasRole */\n  shl(0x20, tag_16)\n    /* \"@openzeppelin/contracts/access/AccessControl.sol\":6277:6299  hasRole(role, account) */\n  0x20\n  shr\n  jump\t// in\ntag_15:\n    /* \"@openzeppelin/contracts/access/AccessControl.sol\":6272:6489  if (!hasRole(role, account)) {... */\n  tag_17\n  jumpi\n    /* \"@openzeppelin/contracts/access/AccessControl.sol\":6347:6351  true */\n  0x01\n    /* \"@openzeppelin/contracts/access/AccessControl.sol\":6315:6321  _roles */\n  0x00\n    /* \"@openzeppelin/contracts/access/AccessControl.sol\":6315:6327  _roles[role] */\n  dup1\n    /* \"@openzeppelin/contracts/access/AccessControl.sol\":6322:6326  role */\n  dup6\n    /* \"@openzeppelin/contracts/access/AccessControl.sol\":6315:6327  _roles[role] */\n  dup2\n  mstore\n  0x20\n  add\n  swap1\n  dup2\n  mstore\n  0x20\n  add\n  0x00\n  keccak256\n    /* \"@openzeppelin/contracts/access/AccessControl.sol\":6315:6335  _roles[role].hasRole */\n  0x00\n  add\n    /* \"@openzeppelin/contracts/access/AccessControl.sol\":6315:6344  _roles[role].hasRole[account] */\n  0x00\n    /* \"@openzeppelin/contracts/access/AccessControl.sol\":6336:6343  account */\n  dup5\n    /* \"@openzeppelin/contracts/access/AccessControl.sol\":6315:6344  _roles[role].hasRole[account] */\n  0xffffffffffffffffffffffffffffffffffffffff\n  and\n  0xffffffffffffffffffffffffffffffffffffffff\n  and\n  dup2\n  mstore\n  0x20\n  add\n  swap1\n  dup2\n  mstore\n  0x20\n  add\n  0x00\n  keccak256\n  0x00\n    /* \"@openzeppelin/contracts/access/AccessControl.sol\":6315:6351  _roles[role].hasRole[account] = true */\n  0x0100\n  exp\n  dup2\n  sload\n  dup2\n  0xff\n  mul\n  not\n  and\n  swap1\n  dup4\n  iszero\n  iszero\n  mul\n  or\n  swap1\n  sstore\n  pop\n    /* \"@openzeppelin/contracts/access/AccessControl.sol\":6397:6409  _msgSender() */\n  tag_18\n    /* \"@openzeppelin/contracts/access/AccessControl.sol\":6397:6407  _msgSender */\n  shl(0x20, tag_6)\n    /* \"@openzeppelin/contracts/access/AccessControl.sol\":6397:6409  _msgSender() */\n  0x20\n  shr\n  jump\t// in\ntag_18:\n    /* \"@openzeppelin/contracts/access/AccessControl.sol\":6370:6410  RoleGranted(role, account, _msgSender()) */\n  0xffffffffffffffffffffffffffffffffffffffff\n  and\n    /* \"@openzeppelin/contracts/access/AccessControl.sol\":6388:6395  account */\n  dup3\n    /* \"@openzeppelin/contracts/access/AccessControl.sol\":6370:6410  RoleGranted(role, account, _msgSender()) */\n  0xffffffffffffffffffffffffffffffffffffffff\n  and\n    /* \"@openzeppelin/contracts/access/AccessControl.sol\":6382:6386  role */\n  dup5\n    /* \"@openzeppelin/contracts/access/AccessControl.sol\":6370:6410  RoleGranted(role, account, _msgSender()) */\n  0x2f8788117e7eff1d82e926ec794901d17c78024a50270940304540a733656f0d\n  mload(0x40)\n  mload(0x40)\n  dup1\n  swap2\n  sub\n  swap1\n  log4\n    /* \"@openzeppelin/contracts/access/AccessControl.sol\":6431:6435  true */\n  0x01\n    /* \"@openzeppelin/contracts/access/AccessControl.sol\":6424:6435  return true */\n  swap1\n  pop\n  jump(tag_14)\n    /* \"@openzeppelin/contracts/access/AccessControl.sol\":6272:6489  if (!hasRole(role, account)) {... */\ntag_17:\n    /* \"@openzeppelin/contracts/access/AccessControl.sol\":6473:6478  false */\n  0x00\n    /* \"@openzeppelin/contracts/access/AccessControl.sol\":6466:6478  return false */\n  swap1\n  pop\n    /* \"@openzeppelin/contracts/access/AccessControl.sol\":6179:6495  function _grantRole(bytes32 role, address account) internal virtual returns (bool) {... */\ntag_14:\n  swap3\n  swap2\n  pop\n  pop\n  jump\t// out\n    /* \"@openzeppelin/contracts/access/AccessControl.sol\":2854:2990  function hasRole(bytes32 role, address account) public view virtual returns (bool) {... */\ntag_16:\n    /* \"@openzeppelin/contracts/access/AccessControl.sol\":2931:2935  bool */\n  0x00\n    /* \"@openzeppelin/contracts/access/AccessControl.sol\":2954:2960  _roles */\n  dup1\n    /* \"@openzeppelin/contracts/access/AccessControl.sol\":2954:2966  _roles[role] */\n  0x00\n    /* \"@openzeppelin/contracts/access/AccessControl.sol\":2961:2965  role */\n  dup5\n    /* \"@openzeppelin/contracts/access/AccessControl.sol\":2954:2966  _roles[role] */\n  dup2\n  mstore\n  0x20\n  add\n  swap1\n  dup2\n  mstore\n  0x20\n  add\n  0x00\n  keccak256\n    /* \"@openzeppelin/contracts/access/AccessControl.sol\":2954:2974  _roles[role].hasRole */\n  0x00\n  add\n    /* \"@openzeppelin/contracts/access/AccessControl.sol\":2954:2983  _roles[role].hasRole[account] */\n  0x00\n    /* \"@openzeppelin/contracts/access/AccessControl.sol\":2975:2982  account */\n  dup4\n    /* \"@openzeppelin/contracts/access/AccessControl.sol\":2954:2983  _roles[role].hasRole[account] */\n  0xffffffffffffffffffffffffffffffffffffffff\n  and\n  0xffffffffffffffffffffffffffffffffffffffff\n  and\n  dup2\n  mstore\n  0x20\n  add\n  swap1\n  dup2\n  mstore\n  0x20\n  add\n  0x00\n  keccak256\n  0x00\n  swap1\n  sload\n  swap1\n  0x0100\n  exp\n  swap1\n  div\n  0xff\n  and\n    /* \"@openzeppelin/contracts/access/AccessControl.sol\":2947:2983  return _roles[role].hasRole[account] */\n  swap1\n  pop\n    /* \"@openzeppelin/contracts/access/AccessControl.sol\":2854:2990  function hasRole(bytes32 role, address account) public view virtual returns (bool) {... */\n  swap3\n  swap2\n  pop\n  pop\n  jump\t// out\n    /* \"contracts/registry/IdentityRegistryStorage.sol\":368:6740  contract IdentityRegistryStorage is IIdentityRegistryStorage, AccessControl {... */\ntag_12:\n  dataSize(sub_0)\n  dup1\n  dataOffset(sub_0)\n  0x00\n  codecopy\n  0x00\n  return\nstop\n\nsub_0: assembly {\n        /* \"contracts/registry/IdentityRegistryStorage.sol\":368:6740  contract IdentityRegistryStorage is IIdentityRegistryStorage, AccessControl {... */\n      mstore(0x40, 0x80)\n      callvalue\n      dup1\n      iszero\n      tag_1\n      jumpi\n      0x00\n      dup1\n      revert\n    tag_1:\n      pop\n      jumpi(tag_2, lt(calldatasize, 0x04))\n      shr(0xe0, calldataload(0x00))\n      dup1\n      0x97a012f7\n      gt\n      tag_21\n      jumpi\n      dup1\n      0xbf9eb959\n      gt\n      tag_22\n      jumpi\n      dup1\n      0xbf9eb959\n      eq\n      tag_16\n      jumpi\n      dup1\n      0xcf191bcd\n      eq\n      tag_17\n      jumpi\n      dup1\n      0xd547741f\n      eq\n      tag_18\n      jumpi\n      dup1\n      0xe58378bb\n      eq\n      tag_19\n      jumpi\n      dup1\n      0xe805cf86\n      eq\n      tag_20\n      jumpi\n      jump(tag_2)\n    tag_22:\n      dup1\n      0x97a012f7\n      eq\n      tag_12\n      jumpi\n      dup1\n      0x9f3418d5\n      eq\n      tag_13\n      jumpi\n      dup1\n      0xa217fddf\n      eq\n      tag_14\n      jumpi\n      dup1\n      0xa53410dd\n      eq\n      tag_15\n      jumpi\n      jump(tag_2)\n    tag_21:\n      dup1\n      0x36568abe\n      gt\n      tag_23\n      jumpi\n      dup1\n      0x36568abe\n      eq\n      tag_7\n      jumpi\n      dup1\n      0x690a49f9\n      eq\n      tag_8\n      jumpi\n      dup1\n      0x727e13bc\n      eq\n      tag_9\n      jumpi\n      dup1\n      0x7988d3a5\n      eq\n      tag_10\n      jumpi\n      dup1\n      0x91d14854\n      eq\n      tag_11\n      jumpi\n      jump(tag_2)\n    tag_23:\n      dup1\n      0x01ffc9a7\n      eq\n      tag_3\n      jumpi\n      dup1\n      0x22459e18\n      eq\n      tag_4\n      jumpi\n      dup1\n      0x248a9ca3\n      eq\n      tag_5\n      jumpi\n      dup1\n      0x2f2ff15d\n      eq\n      tag_6\n      jumpi\n    tag_2:\n      0x00\n      dup1\n      revert\n        /* \"@openzeppelin/contracts/access/AccessControl.sol\":2565:2767  function supportsInterface(bytes4 interfaceId) public view virtual override returns (bool) {... */\n    tag_3:\n      tag_24\n      0x04\n      dup1\n      calldatasize\n      sub\n      dup2\n      add\n      swap1\n      tag_25\n      swap2\n      swap1\n      tag_26\n      jump\t// in\n    tag_25:\n      tag_27\n      jump\t// in\n    tag_24:\n      mload(0x40)\n      tag_28\n      swap2\n      swap1\n      tag_29\n      jump\t// in\n    tag_28:\n      mload(0x40)\n      dup1\n      swap2\n      sub\n      swap1\n      return\n        /* \"contracts/registry/IdentityRegistryStorage.sol\":741:852  bytes32 public constant AGENT_ROLE =... */\n    tag_4:\n      tag_30\n      tag_31\n      jump\t// in\n    tag_30:\n      mload(0x40)\n      tag_32\n      swap2\n      swap1\n      tag_33\n      jump\t// in\n    tag_32:\n      mload(0x40)\n      dup1\n      swap2\n      sub\n      swap1\n      return\n        /* \"@openzeppelin/contracts/access/AccessControl.sol\":3810:3930  function getRoleAdmin(bytes32 role) public view virtual returns (bytes32) {... */\n    tag_5:\n      tag_34\n      0x04\n      dup1\n      calldatasize\n      sub\n      dup2\n      add\n      swap1\n      tag_35\n      swap2\n      swap1\n      tag_36\n      jump\t// in\n    tag_35:\n      tag_37\n      jump\t// in\n    tag_34:\n      mload(0x40)\n      tag_38\n      swap2\n      swap1\n      tag_33\n      jump\t// in\n    tag_38:\n      mload(0x40)\n      dup1\n      swap2\n      sub\n      swap1\n      return\n        /* \"@openzeppelin/contracts/access/AccessControl.sol\":4226:4362  function grantRole(bytes32 role, address account) public virtual onlyRole(getRoleAdmin(role)) {... */\n    tag_6:\n      tag_39\n      0x04\n      dup1\n      calldatasize\n      sub\n      dup2\n      add\n      swap1\n      tag_40\n      swap2\n      swap1\n      tag_41\n      jump\t// in\n    tag_40:\n      tag_42\n      jump\t// in\n    tag_39:\n      stop\n        /* \"@openzeppelin/contracts/access/AccessControl.sol\":5328:5573  function renounceRole(bytes32 role, address callerConfirmation) public virtual {... */\n    tag_7:\n      tag_43\n      0x04\n      dup1\n      calldatasize\n      sub\n      dup2\n      add\n      swap1\n      tag_44\n      swap2\n      swap1\n      tag_41\n      jump\t// in\n    tag_44:\n      tag_45\n      jump\t// in\n    tag_43:\n      stop\n        /* \"contracts/registry/IdentityRegistryStorage.sol\":4493:4878  function bindIdentityRegistry(... */\n    tag_8:\n      tag_46\n      0x04\n      dup1\n      calldatasize\n      sub\n      dup2\n      add\n      swap1\n      tag_47\n      swap2\n      swap1\n      tag_48\n      jump\t// in\n    tag_47:\n      tag_49\n      jump\t// in\n    tag_46:\n      stop\n        /* \"contracts/registry/IdentityRegistryStorage.sol\":6575:6738  function storedInvestorCountry(... */\n    tag_9:\n      tag_50\n      0x04\n      dup1\n      calldatasize\n      sub\n      dup2\n      add\n      swap1\n      tag_51\n      swap2\n      swap1\n      tag_48\n      jump\t// in\n    tag_51:\n      tag_52\n      jump\t// in\n    tag_50:\n      mload(0x40)\n      tag_53\n      swap2\n      swap1\n      tag_54\n      jump\t// in\n    tag_53:\n      mload(0x40)\n      dup1\n      swap2\n      sub\n      swap1\n      return\n        /* \"contracts/registry/IdentityRegistryStorage.sol\":6273:6433  function storedIdentity(... */\n    tag_10:\n      tag_55\n      0x04\n      dup1\n      calldatasize\n      sub\n      dup2\n      add\n      swap1\n      tag_56\n      swap2\n      swap1\n      tag_48\n      jump\t// in\n    tag_56:\n      tag_57\n      jump\t// in\n    tag_55:\n      mload(0x40)\n      tag_58\n      swap2\n      swap1\n      tag_59\n      jump\t// in\n    tag_58:\n      mload(0x40)\n      dup1\n      swap2\n      sub\n      swap1\n      return\n        /* \"@openzeppelin/contracts/access/AccessControl.sol\":2854:2990  function hasRole(bytes32 role, address account) public view virtual returns (bool) {... */\n    tag_11:\n      tag_60\n      0x04\n      dup1\n      calldatasize\n      sub\n      dup2\n      add\n      swap1\n      tag_61\n      swap2\n      swap1\n      tag_41\n      jump\t// in\n    tag_61:\n      tag_62\n      jump\t// in\n    tag_60:\n      mload(0x40)\n      tag_63\n      swap2\n      swap1\n      tag_29\n      jump\t// in\n    tag_63:\n      mload(0x40)\n      dup1\n      swap2\n      sub\n      swap1\n      return\n        /* \"contracts/registry/IdentityRegistryStorage.sol\":5013:5851  function unbindIdentityRegistry(... */\n    tag_12:\n      tag_64\n      0x04\n      dup1\n      calldatasize\n      sub\n      dup2\n      add\n      swap1\n      tag_65\n      swap2\n      swap1\n      tag_48\n      jump\t// in\n    tag_65:\n      tag_66\n      jump\t// in\n    tag_64:\n      stop\n        /* \"contracts/registry/IdentityRegistryStorage.sol\":3263:3743  function modifyStoredInvestorCountry(... */\n    tag_13:\n      tag_67\n      0x04\n      dup1\n      calldatasize\n      sub\n      dup2\n      add\n      swap1\n      tag_68\n      swap2\n      swap1\n      tag_69\n      jump\t// in\n    tag_68:\n      tag_70\n      jump\t// in\n    tag_67:\n      stop\n        /* \"@openzeppelin/contracts/access/AccessControl.sol\":2187:2236  bytes32 public constant DEFAULT_ADMIN_ROLE = 0x00 */\n    tag_14:\n      tag_71\n      tag_72\n      jump\t// in\n    tag_71:\n      mload(0x40)\n      tag_73\n      swap2\n      swap1\n      tag_33\n      jump\t// in\n    tag_73:\n      mload(0x40)\n      dup1\n      swap2\n      sub\n      swap1\n      return\n        /* \"contracts/registry/IdentityRegistryStorage.sol\":1682:2314  function addIdentityToStorage(... */\n    tag_15:\n      tag_74\n      0x04\n      dup1\n      calldatasize\n      sub\n      dup2\n      add\n      swap1\n      tag_75\n      swap2\n      swap1\n      tag_76\n      jump\t// in\n    tag_75:\n      tag_77\n      jump\t// in\n    tag_74:\n      stop\n        /* \"contracts/registry/IdentityRegistryStorage.sol\":5981:6129  function linkedIdentityRegistries()... */\n    tag_16:\n      tag_78\n      tag_79\n      jump\t// in\n    tag_78:\n      mload(0x40)\n      tag_80\n      swap2\n      swap1\n      tag_81\n      jump\t// in\n    tag_80:\n      mload(0x40)\n      dup1\n      swap2\n      sub\n      swap1\n      return\n        /* \"contracts/registry/IdentityRegistryStorage.sol\":3849:4362  function removeIdentityFromStorage(... */\n    tag_17:\n      tag_82\n      0x04\n      dup1\n      calldatasize\n      sub\n      dup2\n      add\n      swap1\n      tag_83\n      swap2\n      swap1\n      tag_48\n      jump\t// in\n    tag_83:\n      tag_84\n      jump\t// in\n    tag_82:\n      stop\n        /* \"@openzeppelin/contracts/access/AccessControl.sol\":4642:4780  function revokeRole(bytes32 role, address account) public virtual onlyRole(getRoleAdmin(role)) {... */\n    tag_18:\n      tag_85\n      0x04\n      dup1\n      calldatasize\n      sub\n      dup2\n      add\n      swap1\n      tag_86\n      swap2\n      swap1\n      tag_41\n      jump\t// in\n    tag_86:\n      tag_87\n      jump\t// in\n    tag_85:\n      stop\n        /* \"contracts/registry/IdentityRegistryStorage.sol\":965:1076  bytes32 public constant OWNER_ROLE =... */\n    tag_19:\n      tag_88\n      tag_89\n      jump\t// in\n    tag_88:\n      mload(0x40)\n      tag_90\n      swap2\n      swap1\n      tag_33\n      jump\t// in\n    tag_90:\n      mload(0x40)\n      dup1\n      swap2\n      sub\n      swap1\n      return\n        /* \"contracts/registry/IdentityRegistryStorage.sol\":2477:3103  function modifyStoredIdentity(... */\n    tag_20:\n      tag_91\n      0x04\n      dup1\n      calldatasize\n      sub\n      dup2\n      add\n      swap1\n      tag_92\n      swap2\n      swap1\n      tag_93\n      jump\t// in\n    tag_92:\n      tag_94\n      jump\t// in\n    tag_91:\n      stop\n        /* \"@openzeppelin/contracts/access/AccessControl.sol\":2565:2767  function supportsInterface(bytes4 interfaceId) public view virtual override returns (bool) {... */\n    tag_27:\n        /* \"@openzeppelin/contracts/access/AccessControl.sol\":2650:2654  bool */\n      0x00\n        /* \"@openzeppelin/contracts/access/AccessControl.sol\":2688:2720  type(IAccessControl).interfaceId */\n      0x7965db0b00000000000000000000000000000000000000000000000000000000\n        /* \"@openzeppelin/contracts/access/AccessControl.sol\":2673:2720  interfaceId == type(IAccessControl).interfaceId */\n      not(0xffffffffffffffffffffffffffffffffffffffffffffffffffffffff)\n      and\n        /* \"@openzeppelin/contracts/access/AccessControl.sol\":2673:2684  interfaceId */\n      dup3\n        /* \"@openzeppelin/contracts/access/AccessControl.sol\":2673:2720  interfaceId == type(IAccessControl).interfaceId */\n      not(0xffffffffffffffffffffffffffffffffffffffffffffffffffffffff)\n      and\n      eq\n        /* \"@openzeppelin/contracts/access/AccessControl.sol\":2673:2760  interfaceId == type(IAccessControl).interfaceId || super.supportsInterface(interfaceId) */\n      dup1\n      tag_96\n      jumpi\n      pop\n        /* \"@openzeppelin/contracts/access/AccessControl.sol\":2724:2760  super.supportsInterface(interfaceId) */\n      tag_97\n        /* \"@openzeppelin/contracts/access/AccessControl.sol\":2748:2759  interfaceId */\n      dup3\n        /* \"@openzeppelin/contracts/access/AccessControl.sol\":2724:2747  super.supportsInterface */\n      tag_98\n        /* \"@openzeppelin/contracts/access/AccessControl.sol\":2724:2760  super.supportsInterface(interfaceId) */\n      jump\t// in\n    tag_97:\n        /* \"@openzeppelin/contracts/access/AccessControl.sol\":2673:2760  interfaceId == type(IAccessControl).interfaceId || super.supportsInterface(interfaceId) */\n    tag_96:\n        /* \"@openzeppelin/contracts/access/AccessControl.sol\":2666:2760  return interfaceId == type(IAccessControl).interfaceId || super.supportsInterface(interfaceId) */\n      swap1\n      pop\n        /* \"@openzeppelin/contracts/access/AccessControl.sol\":2565:2767  function supportsInterface(bytes4 interfaceId) public view virtual override returns (bool) {... */\n      swap2\n      swap1\n      pop\n      jump\t// out\n        /* \"contracts/registry/IdentityRegistryStorage.sol\":741:852  bytes32 public constant AGENT_ROLE =... */\n    tag_31:\n        /* \"contracts/registry/IdentityRegistryStorage.sol\":786:852  0xcab5a0bfe0b79d2c4b1c2e02599fa044d115b7511f9659307cb4276950967709 */\n      0xcab5a0bfe0b79d2c4b1c2e02599fa044d115b7511f9659307cb4276950967709\n        /* \"contracts/registry/IdentityRegistryStorage.sol\":741:852  bytes32 public constant AGENT_ROLE =... */\n      0x00\n      shl\n      dup2\n      jump\t// out\n        /* \"@openzeppelin/contracts/access/AccessControl.sol\":3810:3930  function getRoleAdmin(bytes32 role) public view virtual returns (bytes32) {... */\n    tag_37:\n        /* \"@openzeppelin/contracts/access/AccessControl.sol\":3875:3882  bytes32 */\n      0x00\n        /* \"@openzeppelin/contracts/access/AccessControl.sol\":3901:3907  _roles */\n      dup1\n        /* \"@openzeppelin/contracts/access/AccessControl.sol\":3901:3913  _roles[role] */\n      0x00\n        /* \"@openzeppelin/contracts/access/AccessControl.sol\":3908:3912  role */\n      dup4\n        /* \"@openzeppelin/contracts/access/AccessControl.sol\":3901:3913  _roles[role] */\n      dup2\n      mstore\n      0x20\n      add\n      swap1\n      dup2\n      mstore\n      0x20\n      add\n      0x00\n      keccak256\n        /* \"@openzeppelin/contracts/access/AccessControl.sol\":3901:3923  _roles[role].adminRole */\n      0x01\n      add\n      sload\n        /* \"@openzeppelin/contracts/access/AccessControl.sol\":3894:3923  return _roles[role].adminRole */\n      swap1\n      pop\n        /* \"@openzeppelin/contracts/access/AccessControl.sol\":3810:3930  function getRoleAdmin(bytes32 role) public view virtual returns (bytes32) {... */\n      swap2\n      swap1\n      pop\n      jump\t// out\n        /* \"@openzeppelin/contracts/access/AccessControl.sol\":4226:4362  function grantRole(bytes32 role, address account) public virtual onlyRole(getRoleAdmin(role)) {... */\n    tag_42:\n        /* \"@openzeppelin/contracts/access/AccessControl.sol\":4300:4318  getRoleAdmin(role) */\n      tag_100\n        /* \"@openzeppelin/contracts/access/AccessControl.sol\":4313:4317  role */\n      dup3\n        /* \"@openzeppelin/contracts/access/AccessControl.sol\":4300:4312  getRoleAdmin */\n      tag_37\n        /* \"@openzeppelin/contracts/access/AccessControl.sol\":4300:4318  getRoleAdmin(role) */\n      jump\t// in\n    tag_100:\n        /* \"@openzeppelin/contracts/access/AccessControl.sol\":2464:2480  _checkRole(role) */\n      tag_102\n        /* \"@openzeppelin/contracts/access/AccessControl.sol\":2475:2479  role */\n      dup2\n        /* \"@openzeppelin/contracts/access/AccessControl.sol\":2464:2474  _checkRole */\n      tag_103\n        /* \"@openzeppelin/contracts/access/AccessControl.sol\":2464:2480  _checkRole(role) */\n      jump\t// in\n    tag_102:\n        /* \"@openzeppelin/contracts/access/AccessControl.sol\":4330:4355  _grantRole(role, account) */\n      tag_105\n        /* \"@openzeppelin/contracts/access/AccessControl.sol\":4341:4345  role */\n      dup4\n        /* \"@openzeppelin/contracts/access/AccessControl.sol\":4347:4354  account */\n      dup4\n        /* \"@openzeppelin/contracts/access/AccessControl.sol\":4330:4340  _grantRole */\n      tag_106\n        /* \"@openzeppelin/contracts/access/AccessControl.sol\":4330:4355  _grantRole(role, account) */\n      jump\t// in\n    tag_105:\n      pop\n        /* \"@openzeppelin/contracts/access/AccessControl.sol\":4226:4362  function grantRole(bytes32 role, address account) public virtual onlyRole(getRoleAdmin(role)) {... */\n      pop\n      pop\n      pop\n      jump\t// out\n        /* \"@openzeppelin/contracts/access/AccessControl.sol\":5328:5573  function renounceRole(bytes32 role, address callerConfirmation) public virtual {... */\n    tag_45:\n        /* \"@openzeppelin/contracts/access/AccessControl.sol\":5443:5455  _msgSender() */\n      tag_108\n        /* \"@openzeppelin/contracts/access/AccessControl.sol\":5443:5453  _msgSender */\n      tag_109\n        /* \"@openzeppelin/contracts/access/AccessControl.sol\":5443:5455  _msgSender() */\n      jump\t// in\n    tag_108:\n        /* \"@openzeppelin/contracts/access/AccessControl.sol\":5421:5455  callerConfirmation != _msgSender() */\n      0xffffffffffffffffffffffffffffffffffffffff\n      and\n        /* \"@openzeppelin/contracts/access/AccessControl.sol\":5421:5439  callerConfirmation */\n      dup2\n        /* \"@openzeppelin/contracts/access/AccessControl.sol\":5421:5455  callerConfirmation != _msgSender() */\n      0xffffffffffffffffffffffffffffffffffffffff\n      and\n      eq\n        /* \"@openzeppelin/contracts/access/AccessControl.sol\":5417:5519  if (callerConfirmation != _msgSender()) {... */\n      tag_110\n      jumpi\n        /* \"@openzeppelin/contracts/access/AccessControl.sol\":5478:5508  AccessControlBadConfirmation() */\n      mload(0x40)\n      0x6697b23200000000000000000000000000000000000000000000000000000000\n      dup2\n      mstore\n      0x04\n      add\n      mload(0x40)\n      dup1\n      swap2\n      sub\n      swap1\n      revert\n        /* \"@openzeppelin/contracts/access/AccessControl.sol\":5417:5519  if (callerConfirmation != _msgSender()) {... */\n    tag_110:\n        /* \"@openzeppelin/contracts/access/AccessControl.sol\":5529:5566  _revokeRole(role, callerConfirmation) */\n      tag_111\n        /* \"@openzeppelin/contracts/access/AccessControl.sol\":5541:5545  role */\n      dup3\n        /* \"@openzeppelin/contracts/access/AccessControl.sol\":5547:5565  callerConfirmation */\n      dup3\n        /* \"@openzeppelin/contracts/access/AccessControl.sol\":5529:5540  _revokeRole */\n      tag_112\n        /* \"@openzeppelin/contracts/access/AccessControl.sol\":5529:5566  _revokeRole(role, callerConfirmation) */\n      jump\t// in\n    tag_111:\n      pop\n        /* \"@openzeppelin/contracts/access/AccessControl.sol\":5328:5573  function renounceRole(bytes32 role, address callerConfirmation) public virtual {... */\n      pop\n      pop\n      jump\t// out\n        /* \"contracts/registry/IdentityRegistryStorage.sol\":4493:4878  function bindIdentityRegistry(... */\n    tag_49:\n        /* \"contracts/registry/IdentityRegistryStorage.sol\":1010:1076  0xb19546dff01e856fb3f010c267a7b1c60363cf8a4664e21cc89c26224620214e */\n      0xb19546dff01e856fb3f010c267a7b1c60363cf8a4664e21cc89c26224620214e\n        /* \"contracts/registry/IdentityRegistryStorage.sol\":4582:4592  OWNER_ROLE */\n      0x00\n      shl\n        /* \"@openzeppelin/contracts/access/AccessControl.sol\":2464:2480  _checkRole(role) */\n      tag_114\n        /* \"@openzeppelin/contracts/access/AccessControl.sol\":2475:2479  role */\n      dup2\n        /* \"@openzeppelin/contracts/access/AccessControl.sol\":2464:2474  _checkRole */\n      tag_103\n        /* \"@openzeppelin/contracts/access/AccessControl.sol\":2464:2480  _checkRole(role) */\n      jump\t// in\n    tag_114:\n        /* \"contracts/registry/IdentityRegistryStorage.sol\":4654:4655  0 */\n      0x00\n        /* \"contracts/registry/IdentityRegistryStorage.sol\":4625:4656  _identityRegistry != address(0) */\n      0xffffffffffffffffffffffffffffffffffffffff\n      and\n        /* \"contracts/registry/IdentityRegistryStorage.sol\":4625:4642  _identityRegistry */\n      dup3\n        /* \"contracts/registry/IdentityRegistryStorage.sol\":4625:4656  _identityRegistry != address(0) */\n      0xffffffffffffffffffffffffffffffffffffffff\n      and\n      sub\n        /* \"contracts/registry/IdentityRegistryStorage.sol\":4604:4712  require(... */\n      tag_116\n      jumpi\n      mload(0x40)\n      0x08c379a000000000000000000000000000000000000000000000000000000000\n      dup2\n      mstore\n      0x04\n      add\n      tag_117\n      swap1\n      tag_118\n      jump\t// in\n    tag_117:\n      mload(0x40)\n      dup1\n      swap2\n      sub\n      swap1\n      revert\n    tag_116:\n        /* \"contracts/registry/IdentityRegistryStorage.sol\":4722:4763  _grantRole(AGENT_ROLE, _identityRegistry) */\n      tag_119\n        /* \"contracts/registry/IdentityRegistryStorage.sol\":786:852  0xcab5a0bfe0b79d2c4b1c2e02599fa044d115b7511f9659307cb4276950967709 */\n      0xcab5a0bfe0b79d2c4b1c2e02599fa044d115b7511f9659307cb4276950967709\n        /* \"contracts/registry/IdentityRegistryStorage.sol\":4733:4743  AGENT_ROLE */\n      0x00\n      shl\n        /* \"contracts/registry/IdentityRegistryStorage.sol\":4745:4762  _identityRegistry */\n      dup4\n        /* \"contracts/registry/IdentityRegistryStorage.sol\":4722:4732  _grantRole */\n      tag_106\n        /* \"contracts/registry/IdentityRegistryStorage.sol\":4722:4763  _grantRole(AGENT_ROLE, _identityRegistry) */\n      jump\t// in\n    tag_119:\n      pop\n        /* \"contracts/registry/IdentityRegistryStorage.sol\":4773:4792  _identityRegistries */\n      0x02\n        /* \"contracts/registry/IdentityRegistryStorage.sol\":4798:4815  _identityRegistry */\n      dup3\n        /* \"contracts/registry/IdentityRegistryStorage.sol\":4773:4816  _identityRegistries.push(_identityRegistry) */\n      swap1\n      dup1\n      0x01\n      dup2\n      sload\n      add\n      dup1\n      dup3\n      sstore\n      dup1\n      swap2\n      pop\n      pop\n      0x01\n      swap1\n      sub\n      swap1\n      0x00\n      mstore\n      keccak256(0x00, 0x20)\n      add\n      0x00\n      swap1\n      swap2\n      swap1\n      swap2\n      swap1\n      swap2\n      0x0100\n      exp\n      dup2\n      sload\n      dup2\n      0xffffffffffffffffffffffffffffffffffffffff\n      mul\n      not\n      and\n      swap1\n      dup4\n      0xffffffffffffffffffffffffffffffffffffffff\n      and\n      mul\n      or\n      swap1\n      sstore\n      pop\n        /* \"contracts/registry/IdentityRegistryStorage.sol\":4853:4870  _identityRegistry */\n      dup2\n        /* \"contracts/registry/IdentityRegistryStorage.sol\":4831:4871  IdentityRegistryBound(_identityRegistry) */\n      0xffffffffffffffffffffffffffffffffffffffff\n      and\n      0x500c250171aa20e861b680f93502547b9d436eda7d4c537fc360db6e0c6eedfb\n      mload(0x40)\n      mload(0x40)\n      dup1\n      swap2\n      sub\n      swap1\n      log2\n        /* \"contracts/registry/IdentityRegistryStorage.sol\":4493:4878  function bindIdentityRegistry(... */\n      pop\n      pop\n      jump\t// out\n        /* \"contracts/registry/IdentityRegistryStorage.sol\":6575:6738  function storedInvestorCountry(... */\n    tag_52:\n        /* \"contracts/registry/IdentityRegistryStorage.sol\":6665:6671  uint16 */\n      0x00\n        /* \"contracts/registry/IdentityRegistryStorage.sol\":6690:6701  _identities */\n      0x01\n        /* \"contracts/registry/IdentityRegistryStorage.sol\":6690:6715  _identities[_userAddress] */\n      0x00\n        /* \"contracts/registry/IdentityRegistryStorage.sol\":6702:6714  _userAddress */\n      dup4\n        /* \"contracts/registry/IdentityRegistryStorage.sol\":6690:6715  _identities[_userAddress] */\n      0xffffffffffffffffffffffffffffffffffffffff\n      and\n      0xffffffffffffffffffffffffffffffffffffffff\n      and\n      dup2\n      mstore\n      0x20\n      add\n      swap1\n      dup2\n      mstore\n      0x20\n      add\n      0x00\n      keccak256\n        /* \"contracts/registry/IdentityRegistryStorage.sol\":6690:6731  _identities[_userAddress].investorCountry */\n      0x00\n      add\n      0x14\n      swap1\n      sload\n      swap1\n      0x0100\n      exp\n      swap1\n      div\n      0xffff\n      and\n        /* \"contracts/registry/IdentityRegistryStorage.sol\":6683:6731  return _identities[_userAddress].investorCountry */\n      swap1\n      pop\n        /* \"contracts/registry/IdentityRegistryStorage.sol\":6575:6738  function storedInvestorCountry(... */\n      swap2\n      swap1\n      pop\n      jump\t// out\n        /* \"contracts/registry/IdentityRegistryStorage.sol\":6273:6433  function storedIdentity(... */\n    tag_57:\n        /* \"contracts/registry/IdentityRegistryStorage.sol\":6356:6365  IIdentity */\n      0x00\n        /* \"contracts/registry/IdentityRegistryStorage.sol\":6384:6395  _identities */\n      0x01\n        /* \"contracts/registry/IdentityRegistryStorage.sol\":6384:6409  _identities[_userAddress] */\n      0x00\n        /* \"contracts/registry/IdentityRegistryStorage.sol\":6396:6408  _userAddress */\n      dup4\n        /* \"contracts/registry/IdentityRegistryStorage.sol\":6384:6409  _identities[_userAddress] */\n      0xffffffffffffffffffffffffffffffffffffffff\n      and\n      0xffffffffffffffffffffffffffffffffffffffff\n      and\n      dup2\n      mstore\n      0x20\n      add\n      swap1\n      dup2\n      mstore\n      0x20\n      add\n      0x00\n      keccak256\n        /* \"contracts/registry/IdentityRegistryStorage.sol\":6384:6426  _identities[_userAddress].identityContract */\n      0x00\n      add\n      0x00\n      swap1\n      sload\n      swap1\n      0x0100\n      exp\n      swap1\n      div\n      0xffffffffffffffffffffffffffffffffffffffff\n      and\n        /* \"contracts/registry/IdentityRegistryStorage.sol\":6377:6426  return _identities[_userAddress].identityContract */\n      swap1\n      pop\n        /* \"contracts/registry/IdentityRegistryStorage.sol\":6273:6433  function storedIdentity(... */\n      swap2\n      swap1\n      pop\n      jump\t// out\n        /* \"@openzeppelin/contracts/access/AccessControl.sol\":2854:2990  function hasRole(bytes32 role, address account) public view virtual returns (bool) {... */\n    tag_62:\n        /* \"@openzeppelin/contracts/access/AccessControl.sol\":2931:2935  bool */\n      0x00\n        /* \"@openzeppelin/contracts/access/AccessControl.sol\":2954:2960  _roles */\n      dup1\n        /* \"@openzeppelin/contracts/access/AccessControl.sol\":2954:2966  _roles[role] */\n      0x00\n        /* \"@openzeppelin/contracts/access/AccessControl.sol\":2961:2965  role */\n      dup5\n        /* \"@openzeppelin/contracts/access/AccessControl.sol\":2954:2966  _roles[role] */\n      dup2\n      mstore\n      0x20\n      add\n      swap1\n      dup2\n      mstore\n      0x20\n      add\n      0x00\n      keccak256\n        /* \"@openzeppelin/contracts/access/AccessControl.sol\":2954:2974  _roles[role].hasRole */\n      0x00\n      add\n        /* \"@openzeppelin/contracts/access/AccessControl.sol\":2954:2983  _roles[role].hasRole[account] */\n      0x00\n        /* \"@openzeppelin/contracts/access/AccessControl.sol\":2975:2982  account */\n      dup4\n        /* \"@openzeppelin/contracts/access/AccessControl.sol\":2954:2983  _roles[role].hasRole[account] */\n      0xffffffffffffffffffffffffffffffffffffffff\n      and\n      0xffffffffffffffffffffffffffffffffffffffff\n      and\n      dup2\n      mstore\n      0x20\n      add\n      swap1\n      dup2\n      mstore\n      0x20\n      add\n      0x00\n      keccak256\n      0x00\n      swap1\n      sload\n      swap1\n      0x0100\n      exp\n      swap1\n      div\n      0xff\n      and\n        /* \"@openzeppelin/contracts/access/AccessControl.sol\":2947:2983  return _roles[role].hasRole[account] */\n      swap1\n      pop\n        /* \"@openzeppelin/contracts/access/AccessControl.sol\":2854:2990  function hasRole(bytes32 role, address account) public view virtual returns (bool) {... */\n      swap3\n      swap2\n      pop\n      pop\n      jump\t// out\n        /* \"contracts/registry/IdentityRegistryStorage.sol\":5013:5851  function unbindIdentityRegistry(... */\n    tag_66:\n        /* \"contracts/registry/IdentityRegistryStorage.sol\":1010:1076  0xb19546dff01e856fb3f010c267a7b1c60363cf8a4664e21cc89c26224620214e */\n      0xb19546dff01e856fb3f010c267a7b1c60363cf8a4664e21cc89c26224620214e\n        /* \"contracts/registry/IdentityRegistryStorage.sol\":5104:5114  OWNER_ROLE */\n      0x00\n      shl\n        /* \"@openzeppelin/contracts/access/AccessControl.sol\":2464:2480  _checkRole(role) */\n      tag_125\n        /* \"@openzeppelin/contracts/access/AccessControl.sol\":2475:2479  role */\n      dup2\n        /* \"@openzeppelin/contracts/access/AccessControl.sol\":2464:2474  _checkRole */\n      tag_103\n        /* \"@openzeppelin/contracts/access/AccessControl.sol\":2464:2480  _checkRole(role) */\n      jump\t// in\n    tag_125:\n        /* \"contracts/registry/IdentityRegistryStorage.sol\":5176:5177  0 */\n      0x00\n        /* \"contracts/registry/IdentityRegistryStorage.sol\":5147:5178  _identityRegistry != address(0) */\n      0xffffffffffffffffffffffffffffffffffffffff\n      and\n        /* \"contracts/registry/IdentityRegistryStorage.sol\":5147:5164  _identityRegistry */\n      dup3\n        /* \"contracts/registry/IdentityRegistryStorage.sol\":5147:5178  _identityRegistry != address(0) */\n      0xffffffffffffffffffffffffffffffffffffffff\n      and\n      sub\n        /* \"contracts/registry/IdentityRegistryStorage.sol\":5126:5234  require(... */\n      tag_127\n      jumpi\n      mload(0x40)\n      0x08c379a000000000000000000000000000000000000000000000000000000000\n      dup2\n      mstore\n      0x04\n      add\n      tag_128\n      swap1\n      tag_118\n      jump\t// in\n    tag_128:\n      mload(0x40)\n      dup1\n      swap2\n      sub\n      swap1\n      revert\n    tag_127:\n        /* \"contracts/registry/IdentityRegistryStorage.sol\":5295:5296  0 */\n      0x00\n        /* \"contracts/registry/IdentityRegistryStorage.sol\":5265:5284  _identityRegistries */\n      0x02\n        /* \"contracts/registry/IdentityRegistryStorage.sol\":5265:5291  _identityRegistries.length */\n      dup1\n      sload\n      swap1\n      pop\n        /* \"contracts/registry/IdentityRegistryStorage.sol\":5265:5296  _identityRegistries.length != 0 */\n      sub\n        /* \"contracts/registry/IdentityRegistryStorage.sol\":5244:5352  require(... */\n      tag_129\n      jumpi\n      mload(0x40)\n      0x08c379a000000000000000000000000000000000000000000000000000000000\n      dup2\n      mstore\n      0x04\n      add\n      tag_130\n      swap1\n      tag_131\n      jump\t// in\n    tag_130:\n      mload(0x40)\n      dup1\n      swap2\n      sub\n      swap1\n      revert\n    tag_129:\n        /* \"contracts/registry/IdentityRegistryStorage.sol\":5362:5376  uint256 length */\n      0x00\n        /* \"contracts/registry/IdentityRegistryStorage.sol\":5379:5398  _identityRegistries */\n      0x02\n        /* \"contracts/registry/IdentityRegistryStorage.sol\":5379:5405  _identityRegistries.length */\n      dup1\n      sload\n      swap1\n      pop\n        /* \"contracts/registry/IdentityRegistryStorage.sol\":5362:5405  uint256 length = _identityRegistries.length */\n      swap1\n      pop\n        /* \"contracts/registry/IdentityRegistryStorage.sol\":5420:5429  uint256 i */\n      0x00\n        /* \"contracts/registry/IdentityRegistryStorage.sol\":5415:5736  for (uint256 i = 0; i < length; ) {... */\n    tag_132:\n        /* \"contracts/registry/IdentityRegistryStorage.sol\":5439:5445  length */\n      dup2\n        /* \"contracts/registry/IdentityRegistryStorage.sol\":5435:5436  i */\n      dup2\n        /* \"contracts/registry/IdentityRegistryStorage.sol\":5435:5445  i < length */\n      lt\n        /* \"contracts/registry/IdentityRegistryStorage.sol\":5415:5736  for (uint256 i = 0; i < length; ) {... */\n      iszero\n      tag_133\n      jumpi\n        /* \"contracts/registry/IdentityRegistryStorage.sol\":5493:5510  _identityRegistry */\n      dup4\n        /* \"contracts/registry/IdentityRegistryStorage.sol\":5467:5510  _identityRegistries[i] == _identityRegistry */\n      0xffffffffffffffffffffffffffffffffffffffff\n      and\n        /* \"contracts/registry/IdentityRegistryStorage.sol\":5467:5486  _identityRegistries */\n      0x02\n        /* \"contracts/registry/IdentityRegistryStorage.sol\":5487:5488  i */\n      dup3\n        /* \"contracts/registry/IdentityRegistryStorage.sol\":5467:5489  _identityRegistries[i] */\n      dup2\n      sload\n      dup2\n      lt\n      tag_135\n      jumpi\n      tag_136\n      tag_137\n      jump\t// in\n    tag_136:\n    tag_135:\n      swap1\n      0x00\n      mstore\n      keccak256(0x00, 0x20)\n      add\n      0x00\n      swap1\n      sload\n      swap1\n      0x0100\n      exp\n      swap1\n      div\n      0xffffffffffffffffffffffffffffffffffffffff\n      and\n        /* \"contracts/registry/IdentityRegistryStorage.sol\":5467:5510  _identityRegistries[i] == _identityRegistry */\n      0xffffffffffffffffffffffffffffffffffffffff\n      and\n      sub\n        /* \"contracts/registry/IdentityRegistryStorage.sol\":5463:5667  if (_identityRegistries[i] == _identityRegistry) {... */\n      tag_139\n      jumpi\n        /* \"contracts/registry/IdentityRegistryStorage.sol\":5555:5574  _identityRegistries */\n      0x02\n        /* \"contracts/registry/IdentityRegistryStorage.sol\":5584:5585  1 */\n      0x01\n        /* \"contracts/registry/IdentityRegistryStorage.sol\":5575:5581  length */\n      dup4\n        /* \"contracts/registry/IdentityRegistryStorage.sol\":5575:5585  length - 1 */\n      tag_140\n      swap2\n      swap1\n      tag_141\n      jump\t// in\n    tag_140:\n        /* \"contracts/registry/IdentityRegistryStorage.sol\":5555:5586  _identityRegistries[length - 1] */\n      dup2\n      sload\n      dup2\n      lt\n      tag_142\n      jumpi\n      tag_143\n      tag_137\n      jump\t// in\n    tag_143:\n    tag_142:\n      swap1\n      0x00\n      mstore\n      keccak256(0x00, 0x20)\n      add\n      0x00\n      swap1\n      sload\n      swap1\n      0x0100\n      exp\n      swap1\n      div\n      0xffffffffffffffffffffffffffffffffffffffff\n      and\n        /* \"contracts/registry/IdentityRegistryStorage.sol\":5530:5549  _identityRegistries */\n      0x02\n        /* \"contracts/registry/IdentityRegistryStorage.sol\":5550:5551  i */\n      dup3\n        /* \"contracts/registry/IdentityRegistryStorage.sol\":5530:5552  _identityRegistries[i] */\n      dup2\n      sload\n      dup2\n      lt\n      tag_145\n      jumpi\n      tag_146\n      tag_137\n      jump\t// in\n    tag_146:\n    tag_145:\n      swap1\n      0x00\n      mstore\n      keccak256(0x00, 0x20)\n      add\n      0x00\n        /* \"contracts/registry/IdentityRegistryStorage.sol\":5530:5586  _identityRegistries[i] = _identityRegistries[length - 1] */\n      0x0100\n      exp\n      dup2\n      sload\n      dup2\n      0xffffffffffffffffffffffffffffffffffffffff\n      mul\n      not\n      and\n      swap1\n      dup4\n      0xffffffffffffffffffffffffffffffffffffffff\n      and\n      mul\n      or\n      swap1\n      sstore\n      pop\n        /* \"contracts/registry/IdentityRegistryStorage.sol\":5604:5623  _identityRegistries */\n      0x02\n        /* \"contracts/registry/IdentityRegistryStorage.sol\":5604:5629  _identityRegistries.pop() */\n      dup1\n      sload\n      dup1\n      tag_148\n      jumpi\n      tag_149\n      tag_150\n      jump\t// in\n    tag_149:\n    tag_148:\n      0x01\n      swap1\n      sub\n      dup2\n      dup2\n      swap1\n      0x00\n      mstore\n      keccak256(0x00, 0x20)\n      add\n      exp(0x0100, 0x00)\n      dup2\n      sload\n      swap1\n      0xffffffffffffffffffffffffffffffffffffffff\n      mul\n      not\n      and\n      swap1\n      sstore\n      swap1\n      sstore\n        /* \"contracts/registry/IdentityRegistryStorage.sol\":5647:5652  break */\n      jump(tag_133)\n        /* \"contracts/registry/IdentityRegistryStorage.sol\":5463:5667  if (_identityRegistries[i] == _identityRegistry) {... */\n    tag_139:\n        /* \"contracts/registry/IdentityRegistryStorage.sol\":5708:5711  ++i */\n      dup1\n      0x01\n      add\n      swap1\n      pop\n        /* \"contracts/registry/IdentityRegistryStorage.sol\":5415:5736  for (uint256 i = 0; i < length; ) {... */\n      jump(tag_132)\n    tag_133:\n      pop\n        /* \"contracts/registry/IdentityRegistryStorage.sol\":5745:5787  _revokeRole(AGENT_ROLE, _identityRegistry) */\n      tag_152\n        /* \"contracts/registry/IdentityRegistryStorage.sol\":786:852  0xcab5a0bfe0b79d2c4b1c2e02599fa044d115b7511f9659307cb4276950967709 */\n      0xcab5a0bfe0b79d2c4b1c2e02599fa044d115b7511f9659307cb4276950967709\n        /* \"contracts/registry/IdentityRegistryStorage.sol\":5757:5767  AGENT_ROLE */\n      0x00\n      shl\n        /* \"contracts/registry/IdentityRegistryStorage.sol\":5769:5786  _identityRegistry */\n      dup5\n        /* \"contracts/registry/IdentityRegistryStorage.sol\":5745:5756  _revokeRole */\n      tag_112\n        /* \"contracts/registry/IdentityRegistryStorage.sol\":5745:5787  _revokeRole(AGENT_ROLE, _identityRegistry) */\n      jump\t// in\n    tag_152:\n      pop\n        /* \"contracts/registry/IdentityRegistryStorage.sol\":5826:5843  _identityRegistry */\n      dup3\n        /* \"contracts/registry/IdentityRegistryStorage.sol\":5802:5844  IdentityRegistryUnbound(_identityRegistry) */\n      0xffffffffffffffffffffffffffffffffffffffff\n      and\n      0x51f353eb5801583fdf2706e43c045b62fdf6b1566820b349390616363ecf72c9\n      mload(0x40)\n      mload(0x40)\n      dup1\n      swap2\n      sub\n      swap1\n      log2\n        /* \"contracts/registry/IdentityRegistryStorage.sol\":5116:5851  {... */\n      pop\n        /* \"contracts/registry/IdentityRegistryStorage.sol\":5013:5851  function unbindIdentityRegistry(... */\n      pop\n      pop\n      jump\t// out\n        /* \"contracts/registry/IdentityRegistryStorage.sol\":3263:3743  function modifyStoredInvestorCountry(... */\n    tag_70:\n        /* \"contracts/registry/IdentityRegistryStorage.sol\":786:852  0xcab5a0bfe0b79d2c4b1c2e02599fa044d115b7511f9659307cb4276950967709 */\n      0xcab5a0bfe0b79d2c4b1c2e02599fa044d115b7511f9659307cb4276950967709\n        /* \"contracts/registry/IdentityRegistryStorage.sol\":3379:3389  AGENT_ROLE */\n      0x00\n      shl\n        /* \"@openzeppelin/contracts/access/AccessControl.sol\":2464:2480  _checkRole(role) */\n      tag_154\n        /* \"@openzeppelin/contracts/access/AccessControl.sol\":2475:2479  role */\n      dup2\n        /* \"@openzeppelin/contracts/access/AccessControl.sol\":2464:2474  _checkRole */\n      tag_103\n        /* \"@openzeppelin/contracts/access/AccessControl.sol\":2464:2480  _checkRole(role) */\n      jump\t// in\n    tag_154:\n        /* \"contracts/registry/IdentityRegistryStorage.sol\":3433:3434  0 */\n      0x00\n        /* \"contracts/registry/IdentityRegistryStorage.sol\":3409:3435  _userAddress != address(0) */\n      0xffffffffffffffffffffffffffffffffffffffff\n      and\n        /* \"contracts/registry/IdentityRegistryStorage.sol\":3409:3421  _userAddress */\n      dup4\n        /* \"contracts/registry/IdentityRegistryStorage.sol\":3409:3435  _userAddress != address(0) */\n      0xffffffffffffffffffffffffffffffffffffffff\n      and\n      sub\n        /* \"contracts/registry/IdentityRegistryStorage.sol\":3401:3470  require(_userAddress != address(0), \"ERC-3643: Invalid zero address\") */\n      tag_156\n      jumpi\n      mload(0x40)\n      0x08c379a000000000000000000000000000000000000000000000000000000000\n      dup2\n      mstore\n      0x04\n      add\n      tag_157\n      swap1\n      tag_118\n      jump\t// in\n    tag_157:\n      mload(0x40)\n      dup1\n      swap2\n      sub\n      swap1\n      revert\n    tag_156:\n        /* \"contracts/registry/IdentityRegistryStorage.sol\":3564:3565  0 */\n      0x00\n        /* \"contracts/registry/IdentityRegistryStorage.sol\":3501:3566  address(_identities[_userAddress].identityContract) != address(0) */\n      0xffffffffffffffffffffffffffffffffffffffff\n      and\n        /* \"contracts/registry/IdentityRegistryStorage.sol\":3509:3520  _identities */\n      0x01\n        /* \"contracts/registry/IdentityRegistryStorage.sol\":3509:3534  _identities[_userAddress] */\n      0x00\n        /* \"contracts/registry/IdentityRegistryStorage.sol\":3521:3533  _userAddress */\n      dup6\n        /* \"contracts/registry/IdentityRegistryStorage.sol\":3509:3534  _identities[_userAddress] */\n      0xffffffffffffffffffffffffffffffffffffffff\n      and\n      0xffffffffffffffffffffffffffffffffffffffff\n      and\n      dup2\n      mstore\n      0x20\n      add\n      swap1\n      dup2\n      mstore\n      0x20\n      add\n      0x00\n      keccak256\n        /* \"contracts/registry/IdentityRegistryStorage.sol\":3509:3551  _identities[_userAddress].identityContract */\n      0x00\n      add\n      0x00\n      swap1\n      sload\n      swap1\n      0x0100\n      exp\n      swap1\n      div\n      0xffffffffffffffffffffffffffffffffffffffff\n      and\n        /* \"contracts/registry/IdentityRegistryStorage.sol\":3501:3566  address(_identities[_userAddress].identityContract) != address(0) */\n      0xffffffffffffffffffffffffffffffffffffffff\n      and\n      sub\n        /* \"contracts/registry/IdentityRegistryStorage.sol\":3480:3620  require(... */\n      tag_158\n      jumpi\n      mload(0x40)\n      0x08c379a000000000000000000000000000000000000000000000000000000000\n      dup2\n      mstore\n      0x04\n      add\n      tag_159\n      swap1\n      tag_160\n      jump\t// in\n    tag_159:\n      mload(0x40)\n      dup1\n      swap2\n      sub\n      swap1\n      revert\n    tag_158:\n        /* \"contracts/registry/IdentityRegistryStorage.sol\":3674:3682  _country */\n      dup2\n        /* \"contracts/registry/IdentityRegistryStorage.sol\":3630:3641  _identities */\n      0x01\n        /* \"contracts/registry/IdentityRegistryStorage.sol\":3630:3655  _identities[_userAddress] */\n      0x00\n        /* \"contracts/registry/IdentityRegistryStorage.sol\":3642:3654  _userAddress */\n      dup6\n        /* \"contracts/registry/IdentityRegistryStorage.sol\":3630:3655  _identities[_userAddress] */\n      0xffffffffffffffffffffffffffffffffffffffff\n      and\n      0xffffffffffffffffffffffffffffffffffffffff\n      and\n      dup2\n      mstore\n      0x20\n      add\n      swap1\n      dup2\n      mstore\n      0x20\n      add\n      0x00\n      keccak256\n        /* \"contracts/registry/IdentityRegistryStorage.sol\":3630:3671  _identities[_userAddress].investorCountry */\n      0x00\n      add\n      0x14\n        /* \"contracts/registry/IdentityRegistryStorage.sol\":3630:3682  _identities[_userAddress].investorCountry = _country */\n      0x0100\n      exp\n      dup2\n      sload\n      dup2\n      0xffff\n      mul\n      not\n      and\n      swap1\n      dup4\n      0xffff\n      and\n      mul\n      or\n      swap1\n      sstore\n      pop\n        /* \"contracts/registry/IdentityRegistryStorage.sol\":3727:3735  _country */\n      dup2\n        /* \"contracts/registry/IdentityRegistryStorage.sol\":3697:3736  CountryModified(_userAddress, _country) */\n      0xffff\n      and\n        /* \"contracts/registry/IdentityRegistryStorage.sol\":3713:3725  _userAddress */\n      dup4\n        /* \"contracts/registry/IdentityRegistryStorage.sol\":3697:3736  CountryModified(_userAddress, _country) */\n      0xffffffffffffffffffffffffffffffffffffffff\n      and\n      0x20965fcdc6eed7ae398065b40ece4e732ba667992ca819fc54e80e9f2047c4cf\n      mload(0x40)\n      mload(0x40)\n      dup1\n      swap2\n      sub\n      swap1\n      log3\n        /* \"contracts/registry/IdentityRegistryStorage.sol\":3263:3743  function modifyStoredInvestorCountry(... */\n      pop\n      pop\n      pop\n      jump\t// out\n        /* \"@openzeppelin/contracts/access/AccessControl.sol\":2187:2236  bytes32 public constant DEFAULT_ADMIN_ROLE = 0x00 */\n    tag_72:\n        /* \"@openzeppelin/contracts/access/AccessControl.sol\":2232:2236  0x00 */\n      0x00\n        /* \"@openzeppelin/contracts/access/AccessControl.sol\":2187:2236  bytes32 public constant DEFAULT_ADMIN_ROLE = 0x00 */\n      dup1\n      shl\n      dup2\n      jump\t// out\n        /* \"contracts/registry/IdentityRegistryStorage.sol\":1682:2314  function addIdentityToStorage(... */\n    tag_77:\n        /* \"contracts/registry/IdentityRegistryStorage.sol\":786:852  0xcab5a0bfe0b79d2c4b1c2e02599fa044d115b7511f9659307cb4276950967709 */\n      0xcab5a0bfe0b79d2c4b1c2e02599fa044d115b7511f9659307cb4276950967709\n        /* \"contracts/registry/IdentityRegistryStorage.sol\":1820:1830  AGENT_ROLE */\n      0x00\n      shl\n        /* \"@openzeppelin/contracts/access/AccessControl.sol\":2464:2480  _checkRole(role) */\n      tag_162\n        /* \"@openzeppelin/contracts/access/AccessControl.sol\":2475:2479  role */\n      dup2\n        /* \"@openzeppelin/contracts/access/AccessControl.sol\":2464:2474  _checkRole */\n      tag_103\n        /* \"@openzeppelin/contracts/access/AccessControl.sol\":2464:2480  _checkRole(role) */\n      jump\t// in\n    tag_162:\n        /* \"contracts/registry/IdentityRegistryStorage.sol\":1887:1888  0 */\n      0x00\n        /* \"contracts/registry/IdentityRegistryStorage.sol\":1863:1889  _userAddress != address(0) */\n      0xffffffffffffffffffffffffffffffffffffffff\n      and\n        /* \"contracts/registry/IdentityRegistryStorage.sol\":1863:1875  _userAddress */\n      dup5\n        /* \"contracts/registry/IdentityRegistryStorage.sol\":1863:1889  _userAddress != address(0) */\n      0xffffffffffffffffffffffffffffffffffffffff\n      and\n      eq\n      iszero\n        /* \"contracts/registry/IdentityRegistryStorage.sol\":1863:1925  _userAddress != address(0) && address(_identity) != address(0) */\n      dup1\n      iszero\n      tag_164\n      jumpi\n      pop\n        /* \"contracts/registry/IdentityRegistryStorage.sol\":1923:1924  0 */\n      0x00\n        /* \"contracts/registry/IdentityRegistryStorage.sol\":1893:1925  address(_identity) != address(0) */\n      0xffffffffffffffffffffffffffffffffffffffff\n      and\n        /* \"contracts/registry/IdentityRegistryStorage.sol\":1901:1910  _identity */\n      dup4\n        /* \"contracts/registry/IdentityRegistryStorage.sol\":1893:1925  address(_identity) != address(0) */\n      0xffffffffffffffffffffffffffffffffffffffff\n      and\n      eq\n      iszero\n        /* \"contracts/registry/IdentityRegistryStorage.sol\":1863:1925  _userAddress != address(0) && address(_identity) != address(0) */\n    tag_164:\n        /* \"contracts/registry/IdentityRegistryStorage.sol\":1842:1981  require(... */\n      tag_165\n      jumpi\n      mload(0x40)\n      0x08c379a000000000000000000000000000000000000000000000000000000000\n      dup2\n      mstore\n      0x04\n      add\n      tag_166\n      swap1\n      tag_118\n      jump\t// in\n    tag_166:\n      mload(0x40)\n      dup1\n      swap2\n      sub\n      swap1\n      revert\n    tag_165:\n        /* \"contracts/registry/IdentityRegistryStorage.sol\":2075:2076  0 */\n      0x00\n        /* \"contracts/registry/IdentityRegistryStorage.sol\":2012:2077  address(_identities[_userAddress].identityContract) == address(0) */\n      0xffffffffffffffffffffffffffffffffffffffff\n      and\n        /* \"contracts/registry/IdentityRegistryStorage.sol\":2020:2031  _identities */\n      0x01\n        /* \"contracts/registry/IdentityRegistryStorage.sol\":2020:2045  _identities[_userAddress] */\n      0x00\n        /* \"contracts/registry/IdentityRegistryStorage.sol\":2032:2044  _userAddress */\n      dup7\n        /* \"contracts/registry/IdentityRegistryStorage.sol\":2020:2045  _identities[_userAddress] */\n      0xffffffffffffffffffffffffffffffffffffffff\n      and\n      0xffffffffffffffffffffffffffffffffffffffff\n      and\n      dup2\n      mstore\n      0x20\n      add\n      swap1\n      dup2\n      mstore\n      0x20\n      add\n      0x00\n      keccak256\n        /* \"contracts/registry/IdentityRegistryStorage.sol\":2020:2062  _identities[_userAddress].identityContract */\n      0x00\n      add\n      0x00\n      swap1\n      sload\n      swap1\n      0x0100\n      exp\n      swap1\n      div\n      0xffffffffffffffffffffffffffffffffffffffff\n      and\n        /* \"contracts/registry/IdentityRegistryStorage.sol\":2012:2077  address(_identities[_userAddress].identityContract) == address(0) */\n      0xffffffffffffffffffffffffffffffffffffffff\n      and\n      eq\n        /* \"contracts/registry/IdentityRegistryStorage.sol\":1991:2127  require(... */\n      tag_167\n      jumpi\n      mload(0x40)\n      0x08c379a000000000000000000000000000000000000000000000000000000000\n      dup2\n      mstore\n      0x04\n      add\n      tag_168\n      swap1\n      tag_169\n      jump\t// in\n    tag_168:\n      mload(0x40)\n      dup1\n      swap2\n      sub\n      swap1\n      revert\n    tag_167:\n        /* \"contracts/registry/IdentityRegistryStorage.sol\":2182:2191  _identity */\n      dup3\n        /* \"contracts/registry/IdentityRegistryStorage.sol\":2137:2148  _identities */\n      0x01\n        /* \"contracts/registry/IdentityRegistryStorage.sol\":2137:2162  _identities[_userAddress] */\n      0x00\n        /* \"contracts/registry/IdentityRegistryStorage.sol\":2149:2161  _userAddress */\n      dup7\n        /* \"contracts/registry/IdentityRegistryStorage.sol\":2137:2162  _identities[_userAddress] */\n      0xffffffffffffffffffffffffffffffffffffffff\n      and\n      0xffffffffffffffffffffffffffffffffffffffff\n      and\n      dup2\n      mstore\n      0x20\n      add\n      swap1\n      dup2\n      mstore\n      0x20\n      add\n      0x00\n      keccak256\n        /* \"contracts/registry/IdentityRegistryStorage.sol\":2137:2179  _identities[_userAddress].identityContract */\n      0x00\n      add\n      0x00\n        /* \"contracts/registry/IdentityRegistryStorage.sol\":2137:2191  _identities[_userAddress].identityContract = _identity */\n      0x0100\n      exp\n      dup2\n      sload\n      dup2\n      0xffffffffffffffffffffffffffffffffffffffff\n      mul\n      not\n      and\n      swap1\n      dup4\n      0xffffffffffffffffffffffffffffffffffffffff\n      and\n      mul\n      or\n      swap1\n      sstore\n      pop\n        /* \"contracts/registry/IdentityRegistryStorage.sol\":2245:2253  _country */\n      dup2\n        /* \"contracts/registry/IdentityRegistryStorage.sol\":2201:2212  _identities */\n      0x01\n        /* \"contracts/registry/IdentityRegistryStorage.sol\":2201:2226  _identities[_userAddress] */\n      0x00\n        /* \"contracts/registry/IdentityRegistryStorage.sol\":2213:2225  _userAddress */\n      dup7\n        /* \"contracts/registry/IdentityRegistryStorage.sol\":2201:2226  _identities[_userAddress] */\n      0xffffffffffffffffffffffffffffffffffffffff\n      and\n      0xffffffffffffffffffffffffffffffffffffffff\n      and\n      dup2\n      mstore\n      0x20\n      add\n      swap1\n      dup2\n      mstore\n      0x20\n      add\n      0x00\n      keccak256\n        /* \"contracts/registry/IdentityRegistryStorage.sol\":2201:2242  _identities[_userAddress].investorCountry */\n      0x00\n      add\n      0x14\n        /* \"contracts/registry/IdentityRegistryStorage.sol\":2201:2253  _identities[_userAddress].investorCountry = _country */\n      0x0100\n      exp\n      dup2\n      sload\n      dup2\n      0xffff\n      mul\n      not\n      and\n      swap1\n      dup4\n      0xffff\n      and\n      mul\n      or\n      swap1\n      sstore\n      pop\n        /* \"contracts/registry/IdentityRegistryStorage.sol\":2297:2306  _identity */\n      dup3\n        /* \"contracts/registry/IdentityRegistryStorage.sol\":2268:2307  IdentityStored(_userAddress, _identity) */\n      0xffffffffffffffffffffffffffffffffffffffff\n      and\n        /* \"contracts/registry/IdentityRegistryStorage.sol\":2283:2295  _userAddress */\n      dup5\n        /* \"contracts/registry/IdentityRegistryStorage.sol\":2268:2307  IdentityStored(_userAddress, _identity) */\n      0xffffffffffffffffffffffffffffffffffffffff\n      and\n      0x30dea7e9c9afaa2e3c9810f2fc9b5181f1bad74ca5a8db85f746a33585e747\n      mload(0x40)\n      mload(0x40)\n      dup1\n      swap2\n      sub\n      swap1\n      log3\n        /* \"contracts/registry/IdentityRegistryStorage.sol\":1682:2314  function addIdentityToStorage(... */\n      pop\n      pop\n      pop\n      pop\n      jump\t// out\n        /* \"contracts/registry/IdentityRegistryStorage.sol\":5981:6129  function linkedIdentityRegistries()... */\n    tag_79:\n        /* \"contracts/registry/IdentityRegistryStorage.sol\":6064:6080  address[] memory */\n      0x60\n        /* \"contracts/registry/IdentityRegistryStorage.sol\":6103:6122  _identityRegistries */\n      0x02\n        /* \"contracts/registry/IdentityRegistryStorage.sol\":6096:6122  return _identityRegistries */\n      dup1\n      sload\n      dup1\n      0x20\n      mul\n      0x20\n      add\n      mload(0x40)\n      swap1\n      dup2\n      add\n      0x40\n      mstore\n      dup1\n      swap3\n      swap2\n      swap1\n      dup2\n      dup2\n      mstore\n      0x20\n      add\n      dup3\n      dup1\n      sload\n      dup1\n      iszero\n      tag_171\n      jumpi\n      0x20\n      mul\n      dup3\n      add\n      swap2\n      swap1\n      0x00\n      mstore\n      keccak256(0x00, 0x20)\n      swap1\n    tag_172:\n      dup2\n      0x00\n      swap1\n      sload\n      swap1\n      0x0100\n      exp\n      swap1\n      div\n      0xffffffffffffffffffffffffffffffffffffffff\n      and\n      0xffffffffffffffffffffffffffffffffffffffff\n      and\n      dup2\n      mstore\n      0x20\n      add\n      swap1\n      0x01\n      add\n      swap1\n      dup1\n      dup4\n      gt\n      tag_172\n      jumpi\n    tag_171:\n      pop\n      pop\n      pop\n      pop\n      pop\n      swap1\n      pop\n        /* \"contracts/registry/IdentityRegistryStorage.sol\":5981:6129  function linkedIdentityRegistries()... */\n      swap1\n      jump\t// out\n        /* \"contracts/registry/IdentityRegistryStorage.sol\":3849:4362  function removeIdentityFromStorage(... */\n    tag_84:\n        /* \"contracts/registry/IdentityRegistryStorage.sol\":786:852  0xcab5a0bfe0b79d2c4b1c2e02599fa044d115b7511f9659307cb4276950967709 */\n      0xcab5a0bfe0b79d2c4b1c2e02599fa044d115b7511f9659307cb4276950967709\n        /* \"contracts/registry/IdentityRegistryStorage.sol\":3938:3948  AGENT_ROLE */\n      0x00\n      shl\n        /* \"@openzeppelin/contracts/access/AccessControl.sol\":2464:2480  _checkRole(role) */\n      tag_174\n        /* \"@openzeppelin/contracts/access/AccessControl.sol\":2475:2479  role */\n      dup2\n        /* \"@openzeppelin/contracts/access/AccessControl.sol\":2464:2474  _checkRole */\n      tag_103\n        /* \"@openzeppelin/contracts/access/AccessControl.sol\":2464:2480  _checkRole(role) */\n      jump\t// in\n    tag_174:\n        /* \"contracts/registry/IdentityRegistryStorage.sol\":3992:3993  0 */\n      0x00\n        /* \"contracts/registry/IdentityRegistryStorage.sol\":3968:3994  _userAddress != address(0) */\n      0xffffffffffffffffffffffffffffffffffffffff\n      and\n        /* \"contracts/registry/IdentityRegistryStorage.sol\":3968:3980  _userAddress */\n      dup3\n        /* \"contracts/registry/IdentityRegistryStorage.sol\":3968:3994  _userAddress != address(0) */\n      0xffffffffffffffffffffffffffffffffffffffff\n      and\n      sub\n        /* \"contracts/registry/IdentityRegistryStorage.sol\":3960:4029  require(_userAddress != address(0), \"ERC-3643: Invalid zero address\") */\n      tag_176\n      jumpi\n      mload(0x40)\n      0x08c379a000000000000000000000000000000000000000000000000000000000\n      dup2\n      mstore\n      0x04\n      add\n      tag_177\n      swap1\n      tag_118\n      jump\t// in\n    tag_177:\n      mload(0x40)\n      dup1\n      swap2\n      sub\n      swap1\n      revert\n    tag_176:\n        /* \"contracts/registry/IdentityRegistryStorage.sol\":4123:4124  0 */\n      0x00\n        /* \"contracts/registry/IdentityRegistryStorage.sol\":4060:4125  address(_identities[_userAddress].identityContract) != address(0) */\n      0xffffffffffffffffffffffffffffffffffffffff\n      and\n        /* \"contracts/registry/IdentityRegistryStorage.sol\":4068:4079  _identities */\n      0x01\n        /* \"contracts/registry/IdentityRegistryStorage.sol\":4068:4093  _identities[_userAddress] */\n      0x00\n        /* \"contracts/registry/IdentityRegistryStorage.sol\":4080:4092  _userAddress */\n      dup5\n        /* \"contracts/registry/IdentityRegistryStorage.sol\":4068:4093  _identities[_userAddress] */\n      0xffffffffffffffffffffffffffffffffffffffff\n      and\n      0xffffffffffffffffffffffffffffffffffffffff\n      and\n      dup2\n      mstore\n      0x20\n      add\n      swap1\n      dup2\n      mstore\n      0x20\n      add\n      0x00\n      keccak256\n        /* \"contracts/registry/IdentityRegistryStorage.sol\":4068:4110  _identities[_userAddress].identityContract */\n      0x00\n      add\n      0x00\n      swap1\n      sload\n      swap1\n      0x0100\n      exp\n      swap1\n      div\n      0xffffffffffffffffffffffffffffffffffffffff\n      and\n        /* \"contracts/registry/IdentityRegistryStorage.sol\":4060:4125  address(_identities[_userAddress].identityContract) != address(0) */\n      0xffffffffffffffffffffffffffffffffffffffff\n      and\n      sub\n        /* \"contracts/registry/IdentityRegistryStorage.sol\":4039:4179  require(... */\n      tag_178\n      jumpi\n      mload(0x40)\n      0x08c379a000000000000000000000000000000000000000000000000000000000\n      dup2\n      mstore\n      0x04\n      add\n      tag_179\n      swap1\n      tag_160\n      jump\t// in\n    tag_179:\n      mload(0x40)\n      dup1\n      swap2\n      sub\n      swap1\n      revert\n    tag_178:\n        /* \"contracts/registry/IdentityRegistryStorage.sol\":4189:4210  IIdentity oldIdentity */\n      0x00\n        /* \"contracts/registry/IdentityRegistryStorage.sol\":4213:4224  _identities */\n      0x01\n        /* \"contracts/registry/IdentityRegistryStorage.sol\":4213:4238  _identities[_userAddress] */\n      0x00\n        /* \"contracts/registry/IdentityRegistryStorage.sol\":4225:4237  _userAddress */\n      dup5\n        /* \"contracts/registry/IdentityRegistryStorage.sol\":4213:4238  _identities[_userAddress] */\n      0xffffffffffffffffffffffffffffffffffffffff\n      and\n      0xffffffffffffffffffffffffffffffffffffffff\n      and\n      dup2\n      mstore\n      0x20\n      add\n      swap1\n      dup2\n      mstore\n      0x20\n      add\n      0x00\n      keccak256\n        /* \"contracts/registry/IdentityRegistryStorage.sol\":4213:4255  _identities[_userAddress].identityContract */\n      0x00\n      add\n      0x00\n      swap1\n      sload\n      swap1\n      0x0100\n      exp\n      swap1\n      div\n      0xffffffffffffffffffffffffffffffffffffffff\n      and\n        /* \"contracts/registry/IdentityRegistryStorage.sol\":4189:4255  IIdentity oldIdentity = _identities[_userAddress].identityContract */\n      swap1\n      pop\n        /* \"contracts/registry/IdentityRegistryStorage.sol\":4272:4283  _identities */\n      0x01\n        /* \"contracts/registry/IdentityRegistryStorage.sol\":4272:4297  _identities[_userAddress] */\n      0x00\n        /* \"contracts/registry/IdentityRegistryStorage.sol\":4284:4296  _userAddress */\n      dup5\n        /* \"contracts/registry/IdentityRegistryStorage.sol\":4272:4297  _identities[_userAddress] */\n      0xffffffffffffffffffffffffffffffffffffffff\n      and\n      0xffffffffffffffffffffffffffffffffffffffff\n      and\n      dup2\n      mstore\n      0x20\n      add\n      swap1\n      dup2\n      mstore\n      0x20\n      add\n      0x00\n      keccak256\n      0x00\n        /* \"contracts/registry/IdentityRegistryStorage.sol\":4265:4297  delete _identities[_userAddress] */\n      dup1\n      dup3\n      add\n      exp(0x0100, 0x00)\n      dup2\n      sload\n      swap1\n      0xffffffffffffffffffffffffffffffffffffffff\n      mul\n      not\n      and\n      swap1\n      sstore\n      0x00\n      dup3\n      add\n      exp(0x0100, 0x14)\n      dup2\n      sload\n      swap1\n      0xffff\n      mul\n      not\n      and\n      swap1\n      sstore\n      pop\n      pop\n        /* \"contracts/registry/IdentityRegistryStorage.sol\":4343:4354  oldIdentity */\n      dup1\n        /* \"contracts/registry/IdentityRegistryStorage.sol\":4312:4355  IdentityUnstored(_userAddress, oldIdentity) */\n      0xffffffffffffffffffffffffffffffffffffffff\n      and\n        /* \"contracts/registry/IdentityRegistryStorage.sol\":4329:4341  _userAddress */\n      dup4\n        /* \"contracts/registry/IdentityRegistryStorage.sol\":4312:4355  IdentityUnstored(_userAddress, oldIdentity) */\n      0xffffffffffffffffffffffffffffffffffffffff\n      and\n      0xca6a4c3370b859312246e7f086284076e557997e10d856b716c23ab67067790b\n      mload(0x40)\n      mload(0x40)\n      dup1\n      swap2\n      sub\n      swap1\n      log3\n        /* \"contracts/registry/IdentityRegistryStorage.sol\":3950:4362  {... */\n      pop\n        /* \"contracts/registry/IdentityRegistryStorage.sol\":3849:4362  function removeIdentityFromStorage(... */\n      pop\n      pop\n      jump\t// out\n        /* \"@openzeppelin/contracts/access/AccessControl.sol\":4642:4780  function revokeRole(bytes32 role, address account) public virtual onlyRole(getRoleAdmin(role)) {... */\n    tag_87:\n        /* \"@openzeppelin/contracts/access/AccessControl.sol\":4717:4735  getRoleAdmin(role) */\n      tag_180\n        /* \"@openzeppelin/contracts/access/AccessControl.sol\":4730:4734  role */\n      dup3\n        /* \"@openzeppelin/contracts/access/AccessControl.sol\":4717:4729  getRoleAdmin */\n      tag_37\n        /* \"@openzeppelin/contracts/access/AccessControl.sol\":4717:4735  getRoleAdmin(role) */\n      jump\t// in\n    tag_180:\n        /* \"@openzeppelin/contracts/access/AccessControl.sol\":2464:2480  _checkRole(role) */\n      tag_182\n        /* \"@openzeppelin/contracts/access/AccessControl.sol\":2475:2479  role */\n      dup2\n        /* \"@openzeppelin/contracts/access/AccessControl.sol\":2464:2474  _checkRole */\n      tag_103\n        /* \"@openzeppelin/contracts/access/AccessControl.sol\":2464:2480  _checkRole(role) */\n      jump\t// in\n    tag_182:\n        /* \"@openzeppelin/contracts/access/AccessControl.sol\":4747:4773  _revokeRole(role, account) */\n      tag_184\n        /* \"@openzeppelin/contracts/access/AccessControl.sol\":4759:4763  role */\n      dup4\n        /* \"@openzeppelin/contracts/access/AccessControl.sol\":4765:4772  account */\n      dup4\n        /* \"@openzeppelin/contracts/access/AccessControl.sol\":4747:4758  _revokeRole */\n      tag_112\n        /* \"@openzeppelin/contracts/access/AccessControl.sol\":4747:4773  _revokeRole(role, account) */\n      jump\t// in\n    tag_184:\n      pop\n        /* \"@openzeppelin/contracts/access/AccessControl.sol\":4642:4780  function revokeRole(bytes32 role, address account) public virtual onlyRole(getRoleAdmin(role)) {... */\n      pop\n      pop\n      pop\n      jump\t// out\n        /* \"contracts/registry/IdentityRegistryStorage.sol\":965:1076  bytes32 public constant OWNER_ROLE =... */\n    tag_89:\n        /* \"contracts/registry/IdentityRegistryStorage.sol\":1010:1076  0xb19546dff01e856fb3f010c267a7b1c60363cf8a4664e21cc89c26224620214e */\n      0xb19546dff01e856fb3f010c267a7b1c60363cf8a4664e21cc89c26224620214e\n        /* \"contracts/registry/IdentityRegistryStorage.sol\":965:1076  bytes32 public constant OWNER_ROLE =... */\n      0x00\n      shl\n      dup2\n      jump\t// out\n        /* \"contracts/registry/IdentityRegistryStorage.sol\":2477:3103  function modifyStoredIdentity(... */\n    tag_94:\n        /* \"contracts/registry/IdentityRegistryStorage.sol\":786:852  0xcab5a0bfe0b79d2c4b1c2e02599fa044d115b7511f9659307cb4276950967709 */\n      0xcab5a0bfe0b79d2c4b1c2e02599fa044d115b7511f9659307cb4276950967709\n        /* \"contracts/registry/IdentityRegistryStorage.sol\":2590:2600  AGENT_ROLE */\n      0x00\n      shl\n        /* \"@openzeppelin/contracts/access/AccessControl.sol\":2464:2480  _checkRole(role) */\n      tag_186\n        /* \"@openzeppelin/contracts/access/AccessControl.sol\":2475:2479  role */\n      dup2\n        /* \"@openzeppelin/contracts/access/AccessControl.sol\":2464:2474  _checkRole */\n      tag_103\n        /* \"@openzeppelin/contracts/access/AccessControl.sol\":2464:2480  _checkRole(role) */\n      jump\t// in\n    tag_186:\n        /* \"contracts/registry/IdentityRegistryStorage.sol\":2657:2658  0 */\n      0x00\n        /* \"contracts/registry/IdentityRegistryStorage.sol\":2633:2659  _userAddress != address(0) */\n      0xffffffffffffffffffffffffffffffffffffffff\n      and\n        /* \"contracts/registry/IdentityRegistryStorage.sol\":2633:2645  _userAddress */\n      dup4\n        /* \"contracts/registry/IdentityRegistryStorage.sol\":2633:2659  _userAddress != address(0) */\n      0xffffffffffffffffffffffffffffffffffffffff\n      and\n      eq\n      iszero\n        /* \"contracts/registry/IdentityRegistryStorage.sol\":2633:2695  _userAddress != address(0) && address(_identity) != address(0) */\n      dup1\n      iszero\n      tag_188\n      jumpi\n      pop\n        /* \"contracts/registry/IdentityRegistryStorage.sol\":2693:2694  0 */\n      0x00\n        /* \"contracts/registry/IdentityRegistryStorage.sol\":2663:2695  address(_identity) != address(0) */\n      0xffffffffffffffffffffffffffffffffffffffff\n      and\n        /* \"contracts/registry/IdentityRegistryStorage.sol\":2671:2680  _identity */\n      dup3\n        /* \"contracts/registry/IdentityRegistryStorage.sol\":2663:2695  address(_identity) != address(0) */\n      0xffffffffffffffffffffffffffffffffffffffff\n      and\n      eq\n      iszero\n        /* \"contracts/registry/IdentityRegistryStorage.sol\":2633:2695  _userAddress != address(0) && address(_identity) != address(0) */\n    tag_188:\n        /* \"contracts/registry/IdentityRegistryStorage.sol\":2612:2751  require(... */\n      tag_189\n      jumpi\n      mload(0x40)\n      0x08c379a000000000000000000000000000000000000000000000000000000000\n      dup2\n      mstore\n      0x04\n      add\n      tag_190\n      swap1\n      tag_118\n      jump\t// in\n    tag_190:\n      mload(0x40)\n      dup1\n      swap2\n      sub\n      swap1\n      revert\n    tag_189:\n        /* \"contracts/registry/IdentityRegistryStorage.sol\":2845:2846  0 */\n      0x00\n        /* \"contracts/registry/IdentityRegistryStorage.sol\":2782:2847  address(_identities[_userAddress].identityContract) != address(0) */\n      0xffffffffffffffffffffffffffffffffffffffff\n      and\n        /* \"contracts/registry/IdentityRegistryStorage.sol\":2790:2801  _identities */\n      0x01\n        /* \"contracts/registry/IdentityRegistryStorage.sol\":2790:2815  _identities[_userAddress] */\n      0x00\n        /* \"contracts/registry/IdentityRegistryStorage.sol\":2802:2814  _userAddress */\n      dup6\n        /* \"contracts/registry/IdentityRegistryStorage.sol\":2790:2815  _identities[_userAddress] */\n      0xffffffffffffffffffffffffffffffffffffffff\n      and\n      0xffffffffffffffffffffffffffffffffffffffff\n      and\n      dup2\n      mstore\n      0x20\n      add\n      swap1\n      dup2\n      mstore\n      0x20\n      add\n      0x00\n      keccak256\n        /* \"contracts/registry/IdentityRegistryStorage.sol\":2790:2832  _identities[_userAddress].identityContract */\n      0x00\n      add\n      0x00\n      swap1\n      sload\n      swap1\n      0x0100\n      exp\n      swap1\n      div\n      0xffffffffffffffffffffffffffffffffffffffff\n      and\n        /* \"contracts/registry/IdentityRegistryStorage.sol\":2782:2847  address(_identities[_userAddress].identityContract) != address(0) */\n      0xffffffffffffffffffffffffffffffffffffffff\n      and\n      sub\n        /* \"contracts/registry/IdentityRegistryStorage.sol\":2761:2901  require(... */\n      tag_191\n      jumpi\n      mload(0x40)\n      0x08c379a000000000000000000000000000000000000000000000000000000000\n      dup2\n      mstore\n      0x04\n      add\n      tag_192\n      swap1\n      tag_160\n      jump\t// in\n    tag_192:\n      mload(0x40)\n      dup1\n      swap2\n      sub\n      swap1\n      revert\n    tag_191:\n        /* \"contracts/registry/IdentityRegistryStorage.sol\":2911:2932  IIdentity oldIdentity */\n      0x00\n        /* \"contracts/registry/IdentityRegistryStorage.sol\":2935:2946  _identities */\n      0x01\n        /* \"contracts/registry/IdentityRegistryStorage.sol\":2935:2960  _identities[_userAddress] */\n      0x00\n        /* \"contracts/registry/IdentityRegistryStorage.sol\":2947:2959  _userAddress */\n      dup6\n        /* \"contracts/registry/IdentityRegistryStorage.sol\":2935:2960  _identities[_userAddress] */\n      0xffffffffffffffffffffffffffffffffffffffff\n      and\n      0xffffffffffffffffffffffffffffffffffffffff\n      and\n      dup2\n      mstore\n      0x20\n      add\n      swap1\n      dup2\n      mstore\n      0x20\n      add\n      0x00\n      keccak256\n        /* \"contracts/registry/IdentityRegistryStorage.sol\":2935:2977  _identities[_userAddress].identityContract */\n      0x00\n      add\n      0x00\n      swap1\n      sload\n      swap1\n      0x0100\n      exp\n      swap1\n      div\n      0xffffffffffffffffffffffffffffffffffffffff\n      and\n        /* \"contracts/registry/IdentityRegistryStorage.sol\":2911:2977  IIdentity oldIdentity = _identities[_userAddress].identityContract */\n      swap1\n      pop\n        /* \"contracts/registry/IdentityRegistryStorage.sol\":3032:3041  _identity */\n      dup3\n        /* \"contracts/registry/IdentityRegistryStorage.sol\":2987:2998  _identities */\n      0x01\n        /* \"contracts/registry/IdentityRegistryStorage.sol\":2987:3012  _identities[_userAddress] */\n      0x00\n        /* \"contracts/registry/IdentityRegistryStorage.sol\":2999:3011  _userAddress */\n      dup7\n        /* \"contracts/registry/IdentityRegistryStorage.sol\":2987:3012  _identities[_userAddress] */\n      0xffffffffffffffffffffffffffffffffffffffff\n      and\n      0xffffffffffffffffffffffffffffffffffffffff\n      and\n      dup2\n      mstore\n      0x20\n      add\n      swap1\n      dup2\n      mstore\n      0x20\n      add\n      0x00\n      keccak256\n        /* \"contracts/registry/IdentityRegistryStorage.sol\":2987:3029  _identities[_userAddress].identityContract */\n      0x00\n      add\n      0x00\n        /* \"contracts/registry/IdentityRegistryStorage.sol\":2987:3041  _identities[_userAddress].identityContract = _identity */\n      0x0100\n      exp\n      dup2\n      sload\n      dup2\n      0xffffffffffffffffffffffffffffffffffffffff\n      mul\n      not\n      and\n      swap1\n      dup4\n      0xffffffffffffffffffffffffffffffffffffffff\n      and\n      mul\n      or\n      swap1\n      sstore\n      pop\n        /* \"contracts/registry/IdentityRegistryStorage.sol\":3086:3095  _identity */\n      dup3\n        /* \"contracts/registry/IdentityRegistryStorage.sol\":3056:3096  IdentityModified(oldIdentity, _identity) */\n      0xffffffffffffffffffffffffffffffffffffffff\n      and\n        /* \"contracts/registry/IdentityRegistryStorage.sol\":3073:3084  oldIdentity */\n      dup2\n        /* \"contracts/registry/IdentityRegistryStorage.sol\":3056:3096  IdentityModified(oldIdentity, _identity) */\n      0xffffffffffffffffffffffffffffffffffffffff\n      and\n      0x556ce885dfcea52155c773f1ed2e58781c51945c13030ab8f793c61f51d1b808\n      mload(0x40)\n      mload(0x40)\n      dup1\n      swap2\n      sub\n      swap1\n      log3\n        /* \"contracts/registry/IdentityRegistryStorage.sol\":2602:3103  {... */\n      pop\n        /* \"contracts/registry/IdentityRegistryStorage.sol\":2477:3103  function modifyStoredIdentity(... */\n      pop\n      pop\n      pop\n      jump\t// out\n        /* \"@openzeppelin/contracts/utils/introspection/ERC165.sol\":762:908  function supportsInterface(bytes4 interfaceId) public view virtual returns (bool) {... */\n    tag_98:\n        /* \"@openzeppelin/contracts/utils/introspection/ERC165.sol\":838:842  bool */\n      0x00\n        /* \"@openzeppelin/contracts/utils/introspection/ERC165.sol\":876:901  type(IERC165).interfaceId */\n      0x01ffc9a700000000000000000000000000000000000000000000000000000000\n        /* \"@openzeppelin/contracts/utils/introspection/ERC165.sol\":861:901  interfaceId == type(IERC165).interfaceId */\n      not(0xffffffffffffffffffffffffffffffffffffffffffffffffffffffff)\n      and\n        /* \"@openzeppelin/contracts/utils/introspection/ERC165.sol\":861:872  interfaceId */\n      dup3\n        /* \"@openzeppelin/contracts/utils/introspection/ERC165.sol\":861:901  interfaceId == type(IERC165).interfaceId */\n      not(0xffffffffffffffffffffffffffffffffffffffffffffffffffffffff)\n      and\n      eq\n        /* \"@openzeppelin/contracts/utils/introspection/ERC165.sol\":854:901  return interfaceId == type(IERC165).interfaceId */\n      swap1\n      pop\n        /* \"@openzeppelin/contracts/utils/introspection/ERC165.sol\":762:908  function supportsInterface(bytes4 interfaceId) public view virtual returns (bool) {... */\n      swap2\n      swap1\n      pop\n      jump\t// out\n        /* \"@openzeppelin/contracts/access/AccessControl.sol\":3199:3302  function _checkRole(bytes32 role) internal view virtual {... */\n    tag_103:\n        /* \"@openzeppelin/contracts/access/AccessControl.sol\":3265:3295  _checkRole(role, _msgSender()) */\n      tag_195\n        /* \"@openzeppelin/contracts/access/AccessControl.sol\":3276:3280  role */\n      dup2\n        /* \"@openzeppelin/contracts/access/AccessControl.sol\":3282:3294  _msgSender() */\n      tag_196\n        /* \"@openzeppelin/contracts/access/AccessControl.sol\":3282:3292  _msgSender */\n      tag_109\n        /* \"@openzeppelin/contracts/access/AccessControl.sol\":3282:3294  _msgSender() */\n      jump\t// in\n    tag_196:\n        /* \"@openzeppelin/contracts/access/AccessControl.sol\":3265:3275  _checkRole */\n      tag_197\n        /* \"@openzeppelin/contracts/access/AccessControl.sol\":3265:3295  _checkRole(role, _msgSender()) */\n      jump\t// in\n    tag_195:\n        /* \"@openzeppelin/contracts/access/AccessControl.sol\":3199:3302  function _checkRole(bytes32 role) internal view virtual {... */\n      pop\n      jump\t// out\n        /* \"@openzeppelin/contracts/access/AccessControl.sol\":6179:6495  function _grantRole(bytes32 role, address account) internal virtual returns (bool) {... */\n    tag_106:\n        /* \"@openzeppelin/contracts/access/AccessControl.sol\":6256:6260  bool */\n      0x00\n        /* \"@openzeppelin/contracts/access/AccessControl.sol\":6277:6299  hasRole(role, account) */\n      tag_199\n        /* \"@openzeppelin/contracts/access/AccessControl.sol\":6285:6289  role */\n      dup4\n        /* \"@openzeppelin/contracts/access/AccessControl.sol\":6291:6298  account */\n      dup4\n        /* \"@openzeppelin/contracts/access/AccessControl.sol\":6277:6284  hasRole */\n      tag_62\n        /* \"@openzeppelin/contracts/access/AccessControl.sol\":6277:6299  hasRole(role, account) */\n      jump\t// in\n    tag_199:\n        /* \"@openzeppelin/contracts/access/AccessControl.sol\":6272:6489  if (!hasRole(role, account)) {... */\n      tag_200\n      jumpi\n        /* \"@openzeppelin/contracts/access/AccessControl.sol\":6347:6351  true */\n      0x01\n        /* \"@openzeppelin/contracts/access/AccessControl.sol\":6315:6321  _roles */\n      0x00\n        /* \"@openzeppelin/contracts/access/AccessControl.sol\":6315:6327  _roles[role] */\n      dup1\n        /* \"@openzeppelin/contracts/access/AccessControl.sol\":6322:6326  role */\n      dup6\n        /* \"@openzeppelin/contracts/access/AccessControl.sol\":6315:6327  _roles[role] */\n      dup2\n      mstore\n      0x20\n      add\n      swap1\n      dup2\n      mstore\n      0x20\n      add\n      0x00\n      keccak256\n        /* \"@openzeppelin/contracts/access/AccessControl.sol\":6315:6335  _roles[role].hasRole */\n      0x00\n      add\n        /* \"@openzeppelin/contracts/access/AccessControl.sol\":6315:6344  _roles[role].hasRole[account] */\n      0x00\n        /* \"@openzeppelin/contracts/access/AccessControl.sol\":6336:6343  account */\n      dup5\n        /* \"@openzeppelin/contracts/access/AccessControl.sol\":6315:6344  _roles[role].hasRole[account] */\n      0xffffffffffffffffffffffffffffffffffffffff\n      and\n      0xffffffffffffffffffffffffffffffffffffffff\n      and\n      dup2\n      mstore\n      0x20\n      add\n      swap1\n      dup2\n      mstore\n      0x20\n      add\n      0x00\n      keccak256\n      0x00\n        /* \"@openzeppelin/contracts/access/AccessControl.sol\":6315:6351  _roles[role].hasRole[account] = true */\n      0x0100\n      exp\n      dup2\n      sload\n      dup2\n      0xff\n      mul\n      not\n      and\n      swap1\n      dup4\n      iszero\n      iszero\n      mul\n      or\n      swap1\n      sstore\n      pop\n        /* \"@openzeppelin/contracts/access/AccessControl.sol\":6397:6409  _msgSender() */\n      tag_201\n        /* \"@openzeppelin/contracts/access/AccessControl.sol\":6397:6407  _msgSender */\n      tag_109\n        /* \"@openzeppelin/contracts/access/AccessControl.sol\":6397:6409  _msgSender() */\n      jump\t// in\n    tag_201:\n        /* \"@openzeppelin/contracts/access/AccessControl.sol\":6370:6410  RoleGranted(role, account, _msgSender()) */\n      0xffffffffffffffffffffffffffffffffffffffff\n      and\n        /* \"@openzeppelin/contracts/access/AccessControl.sol\":6388:6395  account */\n      dup3\n        /* \"@openzeppelin/contracts/access/AccessControl.sol\":6370:6410  RoleGranted(role, account, _msgSender()) */\n      0xffffffffffffffffffffffffffffffffffffffff\n      and\n        /* \"@openzeppelin/contracts/access/AccessControl.sol\":6382:6386  role */\n      dup5\n        /* \"@openzeppelin/contracts/access/AccessControl.sol\":6370:6410  RoleGranted(role, account, _msgSender()) */\n      0x2f8788117e7eff1d82e926ec794901d17c78024a50270940304540a733656f0d\n      mload(0x40)\n      mload(0x40)\n      dup1\n      swap2\n      sub\n      swap1\n      log4\n        /* \"@openzeppelin/contracts/access/AccessControl.sol\":6431:6435  true */\n      0x01\n        /* \"@openzeppelin/contracts/access/AccessControl.sol\":6424:6435  return true */\n      swap1\n      pop\n      jump(tag_198)\n        /* \"@openzeppelin/contracts/access/AccessControl.sol\":6272:6489  if (!hasRole(role, account)) {... */\n    tag_200:\n        /* \"@openzeppelin/contracts/access/AccessControl.sol\":6473:6478  false */\n      0x00\n        /* \"@openzeppelin/contracts/access/AccessControl.sol\":6466:6478  return false */\n      swap1\n      pop\n        /* \"@openzeppelin/contracts/access/AccessControl.sol\":6179:6495  function _grantRole(bytes32 role, address account) internal virtual returns (bool) {... */\n    tag_198:\n      swap3\n      swap2\n      pop\n      pop\n      jump\t// out\n        /* \"@openzeppelin/contracts/utils/Context.sol\":656:752  function _msgSender() internal view virtual returns (address) {... */\n    tag_109:\n        /* \"@openzeppelin/contracts/utils/Context.sol\":709:716  address */\n      0x00\n        /* \"@openzeppelin/contracts/utils/Context.sol\":735:745  msg.sender */\n      caller\n        /* \"@openzeppelin/contracts/utils/Context.sol\":728:745  return msg.sender */\n      swap1\n      pop\n        /* \"@openzeppelin/contracts/utils/Context.sol\":656:752  function _msgSender() internal view virtual returns (address) {... */\n      swap1\n      jump\t// out\n        /* \"@openzeppelin/contracts/access/AccessControl.sol\":6730:7047  function _revokeRole(bytes32 role, address account) internal virtual returns (bool) {... */\n    tag_112:\n        /* \"@openzeppelin/contracts/access/AccessControl.sol\":6808:6812  bool */\n      0x00\n        /* \"@openzeppelin/contracts/access/AccessControl.sol\":6828:6850  hasRole(role, account) */\n      tag_205\n        /* \"@openzeppelin/contracts/access/AccessControl.sol\":6836:6840  role */\n      dup4\n        /* \"@openzeppelin/contracts/access/AccessControl.sol\":6842:6849  account */\n      dup4\n        /* \"@openzeppelin/contracts/access/AccessControl.sol\":6828:6835  hasRole */\n      tag_62\n        /* \"@openzeppelin/contracts/access/AccessControl.sol\":6828:6850  hasRole(role, account) */\n      jump\t// in\n    tag_205:\n        /* \"@openzeppelin/contracts/access/AccessControl.sol\":6824:7041  if (hasRole(role, account)) {... */\n      iszero\n      tag_206\n      jumpi\n        /* \"@openzeppelin/contracts/access/AccessControl.sol\":6898:6903  false */\n      0x00\n        /* \"@openzeppelin/contracts/access/AccessControl.sol\":6866:6872  _roles */\n      dup1\n        /* \"@openzeppelin/contracts/access/AccessControl.sol\":6866:6878  _roles[role] */\n      0x00\n        /* \"@openzeppelin/contracts/access/AccessControl.sol\":6873:6877  role */\n      dup6\n        /* \"@openzeppelin/contracts/access/AccessControl.sol\":6866:6878  _roles[role] */\n      dup2\n      mstore\n      0x20\n      add\n      swap1\n      dup2\n      mstore\n      0x20\n      add\n      0x00\n      keccak256\n        /* \"@openzeppelin/contracts/access/AccessControl.sol\":6866:6886  _roles[role].hasRole */\n      0x00\n      add\n        /* \"@openzeppelin/contracts/access/AccessControl.sol\":6866:6895  _roles[role].hasRole[account] */\n      0x00\n        /* \"@openzeppelin/contracts/access/AccessControl.sol\":6887:6894  account */\n      dup5\n        /* \"@openzeppelin/contracts/access/AccessControl.sol\":6866:6895  _roles[role].hasRole[account] */\n      0xffffffffffffffffffffffffffffffffffffffff\n      and\n      0xffffffffffffffffffffffffffffffffffffffff\n      and\n      dup2\n      mstore\n      0x20\n      add\n      swap1\n      dup2\n      mstore\n      0x20\n      add\n      0x00\n      keccak256\n      0x00\n        /* \"@openzeppelin/contracts/access/AccessControl.sol\":6866:6903  _roles[role].hasRole[account] = false */\n      0x0100\n      exp\n      dup2\n      sload\n      dup2\n      0xff\n      mul\n      not\n      and\n      swap1\n      dup4\n      iszero\n      iszero\n      mul\n      or\n      swap1\n      sstore\n      pop\n        /* \"@openzeppelin/contracts/access/AccessControl.sol\":6949:6961  _msgSender() */\n      tag_207\n        /* \"@openzeppelin/contracts/access/AccessControl.sol\":6949:6959  _msgSender */\n      tag_109\n        /* \"@openzeppelin/contracts/access/AccessControl.sol\":6949:6961  _msgSender() */\n      jump\t// in\n    tag_207:\n        /* \"@openzeppelin/contracts/access/AccessControl.sol\":6922:6962  RoleRevoked(role, account, _msgSender()) */\n      0xffffffffffffffffffffffffffffffffffffffff\n      and\n        /* \"@openzeppelin/contracts/access/AccessControl.sol\":6940:6947  account */\n      dup3\n        /* \"@openzeppelin/contracts/access/AccessControl.sol\":6922:6962  RoleRevoked(role, account, _msgSender()) */\n      0xffffffffffffffffffffffffffffffffffffffff\n      and\n        /* \"@openzeppelin/contracts/access/AccessControl.sol\":6934:6938  role */\n      dup5\n        /* \"@openzeppelin/contracts/access/AccessControl.sol\":6922:6962  RoleRevoked(role, account, _msgSender()) */\n      0xf6391f5c32d9c69d2a47ea670b442974b53935d1edc7fd64eb21e047a839171b\n      mload(0x40)\n      mload(0x40)\n      dup1\n      swap2\n      sub\n      swap1\n      log4\n        /* \"@openzeppelin/contracts/access/AccessControl.sol\":6983:6987  true */\n      0x01\n        /* \"@openzeppelin/contracts/access/AccessControl.sol\":6976:6987  return true */\n      swap1\n      pop\n      jump(tag_204)\n        /* \"@openzeppelin/contracts/access/AccessControl.sol\":6824:7041  if (hasRole(role, account)) {... */\n    tag_206:\n        /* \"@openzeppelin/contracts/access/AccessControl.sol\":7025:7030  false */\n      0x00\n        /* \"@openzeppelin/contracts/access/AccessControl.sol\":7018:7030  return false */\n      swap1\n      pop\n        /* \"@openzeppelin/contracts/access/AccessControl.sol\":6730:7047  function _revokeRole(bytes32 role, address account) internal virtual returns (bool) {... */\n    tag_204:\n      swap3\n      swap2\n      pop\n      pop\n      jump\t// out\n        /* \"@openzeppelin/contracts/access/AccessControl.sol\":3432:3629  function _checkRole(bytes32 role, address account) internal view virtual {... */\n    tag_197:\n        /* \"@openzeppelin/contracts/access/AccessControl.sol\":3520:3542  hasRole(role, account) */\n      tag_210\n        /* \"@openzeppelin/contracts/access/AccessControl.sol\":3528:3532  role */\n      dup3\n        /* \"@openzeppelin/contracts/access/AccessControl.sol\":3534:3541  account */\n      dup3\n        /* \"@openzeppelin/contracts/access/AccessControl.sol\":3520:3527  hasRole */\n      tag_62\n        /* \"@openzeppelin/contracts/access/AccessControl.sol\":3520:3542  hasRole(role, account) */\n      jump\t// in\n    tag_210:\n        /* \"@openzeppelin/contracts/access/AccessControl.sol\":3515:3623  if (!hasRole(role, account)) {... */\n      tag_211\n      jumpi\n        /* \"@openzeppelin/contracts/access/AccessControl.sol\":3598:3605  account */\n      dup1\n        /* \"@openzeppelin/contracts/access/AccessControl.sol\":3607:3611  role */\n      dup3\n        /* \"@openzeppelin/contracts/access/AccessControl.sol\":3565:3612  AccessControlUnauthorizedAccount(account, role) */\n      mload(0x40)\n      0xe2517d3f00000000000000000000000000000000000000000000000000000000\n      dup2\n      mstore\n      0x04\n      add\n      tag_212\n      swap3\n      swap2\n      swap1\n      tag_213\n      jump\t// in\n    tag_212:\n      mload(0x40)\n      dup1\n      swap2\n      sub\n      swap1\n      revert\n        /* \"@openzeppelin/contracts/access/AccessControl.sol\":3515:3623  if (!hasRole(role, account)) {... */\n    tag_211:\n        /* \"@openzeppelin/contracts/access/AccessControl.sol\":3432:3629  function _checkRole(bytes32 role, address account) internal view virtual {... */\n      pop\n      pop\n      jump\t// out\n        /* \"#utility.yul\":88:205   */\n    tag_215:\n        /* \"#utility.yul\":197:198   */\n      0x00\n        /* \"#utility.yul\":194:195   */\n      dup1\n        /* \"#utility.yul\":187:199   */\n      revert\n        /* \"#utility.yul\":334:483   */\n    tag_217:\n        /* \"#utility.yul\":370:377   */\n      0x00\n        /* \"#utility.yul\":410:476   */\n      0xffffffff00000000000000000000000000000000000000000000000000000000\n        /* \"#utility.yul\":403:408   */\n      dup3\n        /* \"#utility.yul\":399:477   */\n      and\n        /* \"#utility.yul\":388:477   */\n      swap1\n      pop\n        /* \"#utility.yul\":334:483   */\n      swap2\n      swap1\n      pop\n      jump\t// out\n        /* \"#utility.yul\":489:609   */\n    tag_218:\n        /* \"#utility.yul\":561:584   */\n      tag_267\n        /* \"#utility.yul\":578:583   */\n      dup2\n        /* \"#utility.yul\":561:584   */\n      tag_217\n      jump\t// in\n    tag_267:\n        /* \"#utility.yul\":554:559   */\n      dup2\n        /* \"#utility.yul\":551:585   */\n      eq\n        /* \"#utility.yul\":541:603   */\n      tag_268\n      jumpi\n        /* \"#utility.yul\":599:600   */\n      0x00\n        /* \"#utility.yul\":596:597   */\n      dup1\n        /* \"#utility.yul\":589:601   */\n      revert\n        /* \"#utility.yul\":541:603   */\n    tag_268:\n        /* \"#utility.yul\":489:609   */\n      pop\n      jump\t// out\n        /* \"#utility.yul\":615:752   */\n    tag_219:\n        /* \"#utility.yul\":660:665   */\n      0x00\n        /* \"#utility.yul\":698:704   */\n      dup2\n        /* \"#utility.yul\":685:705   */\n      calldataload\n        /* \"#utility.yul\":676:705   */\n      swap1\n      pop\n        /* \"#utility.yul\":714:746   */\n      tag_270\n        /* \"#utility.yul\":740:745   */\n      dup2\n        /* \"#utility.yul\":714:746   */\n      tag_218\n      jump\t// in\n    tag_270:\n        /* \"#utility.yul\":615:752   */\n      swap3\n      swap2\n      pop\n      pop\n      jump\t// out\n        /* \"#utility.yul\":758:1085   */\n    tag_26:\n        /* \"#utility.yul\":816:822   */\n      0x00\n        /* \"#utility.yul\":865:867   */\n      0x20\n        /* \"#utility.yul\":853:862   */\n      dup3\n        /* \"#utility.yul\":844:851   */\n      dup5\n        /* \"#utility.yul\":840:863   */\n      sub\n        /* \"#utility.yul\":836:868   */\n      slt\n        /* \"#utility.yul\":833:952   */\n      iszero\n      tag_272\n      jumpi\n        /* \"#utility.yul\":871:950   */\n      tag_273\n      tag_215\n      jump\t// in\n    tag_273:\n        /* \"#utility.yul\":833:952   */\n    tag_272:\n        /* \"#utility.yul\":991:992   */\n      0x00\n        /* \"#utility.yul\":1016:1068   */\n      tag_274\n        /* \"#utility.yul\":1060:1067   */\n      dup5\n        /* \"#utility.yul\":1051:1057   */\n      dup3\n        /* \"#utility.yul\":1040:1049   */\n      dup6\n        /* \"#utility.yul\":1036:1058   */\n      add\n        /* \"#utility.yul\":1016:1068   */\n      tag_219\n      jump\t// in\n    tag_274:\n        /* \"#utility.yul\":1006:1068   */\n      swap2\n      pop\n        /* \"#utility.yul\":962:1078   */\n      pop\n        /* \"#utility.yul\":758:1085   */\n      swap3\n      swap2\n      pop\n      pop\n      jump\t// out\n        /* \"#utility.yul\":1091:1181   */\n    tag_220:\n        /* \"#utility.yul\":1125:1132   */\n      0x00\n        /* \"#utility.yul\":1168:1173   */\n      dup2\n        /* \"#utility.yul\":1161:1174   */\n      iszero\n        /* \"#utility.yul\":1154:1175   */\n      iszero\n        /* \"#utility.yul\":1143:1175   */\n      swap1\n      pop\n        /* \"#utility.yul\":1091:1181   */\n      swap2\n      swap1\n      pop\n      jump\t// out\n        /* \"#utility.yul\":1187:1296   */\n    tag_221:\n        /* \"#utility.yul\":1268:1289   */\n      tag_277\n        /* \"#utility.yul\":1283:1288   */\n      dup2\n        /* \"#utility.yul\":1268:1289   */\n      tag_220\n      jump\t// in\n    tag_277:\n        /* \"#utility.yul\":1263:1266   */\n      dup3\n        /* \"#utility.yul\":1256:1290   */\n      mstore\n        /* \"#utility.yul\":1187:1296   */\n      pop\n      pop\n      jump\t// out\n        /* \"#utility.yul\":1302:1512   */\n    tag_29:\n        /* \"#utility.yul\":1389:1393   */\n      0x00\n        /* \"#utility.yul\":1427:1429   */\n      0x20\n        /* \"#utility.yul\":1416:1425   */\n      dup3\n        /* \"#utility.yul\":1412:1430   */\n      add\n        /* \"#utility.yul\":1404:1430   */\n      swap1\n      pop\n        /* \"#utility.yul\":1440:1505   */\n      tag_279\n        /* \"#utility.yul\":1502:1503   */\n      0x00\n        /* \"#utility.yul\":1491:1500   */\n      dup4\n        /* \"#utility.yul\":1487:1504   */\n      add\n        /* \"#utility.yul\":1478:1484   */\n      dup5\n        /* \"#utility.yul\":1440:1505   */\n      tag_221\n      jump\t// in\n    tag_279:\n        /* \"#utility.yul\":1302:1512   */\n      swap3\n      swap2\n      pop\n      pop\n      jump\t// out\n        /* \"#utility.yul\":1518:1595   */\n    tag_222:\n        /* \"#utility.yul\":1555:1562   */\n      0x00\n        /* \"#utility.yul\":1584:1589   */\n      dup2\n        /* \"#utility.yul\":1573:1589   */\n      swap1\n      pop\n        /* \"#utility.yul\":1518:1595   */\n      swap2\n      swap1\n      pop\n      jump\t// out\n        /* \"#utility.yul\":1601:1719   */\n    tag_223:\n        /* \"#utility.yul\":1688:1712   */\n      tag_282\n        /* \"#utility.yul\":1706:1711   */\n      dup2\n        /* \"#utility.yul\":1688:1712   */\n      tag_222\n      jump\t// in\n    tag_282:\n        /* \"#utility.yul\":1683:1686   */\n      dup3\n        /* \"#utility.yul\":1676:1713   */\n      mstore\n        /* \"#utility.yul\":1601:1719   */\n      pop\n      pop\n      jump\t// out\n        /* \"#utility.yul\":1725:1947   */\n    tag_33:\n        /* \"#utility.yul\":1818:1822   */\n      0x00\n        /* \"#utility.yul\":1856:1858   */\n      0x20\n        /* \"#utility.yul\":1845:1854   */\n      dup3\n        /* \"#utility.yul\":1841:1859   */\n      add\n        /* \"#utility.yul\":1833:1859   */\n      swap1\n      pop\n        /* \"#utility.yul\":1869:1940   */\n      tag_284\n        /* \"#utility.yul\":1937:1938   */\n      0x00\n        /* \"#utility.yul\":1926:1935   */\n      dup4\n        /* \"#utility.yul\":1922:1939   */\n      add\n        /* \"#utility.yul\":1913:1919   */\n      dup5\n        /* \"#utility.yul\":1869:1940   */\n      tag_223\n      jump\t// in\n    tag_284:\n        /* \"#utility.yul\":1725:1947   */\n      swap3\n      swap2\n      pop\n      pop\n      jump\t// out\n        /* \"#utility.yul\":1953:2075   */\n    tag_224:\n        /* \"#utility.yul\":2026:2050   */\n      tag_286\n        /* \"#utility.yul\":2044:2049   */\n      dup2\n        /* \"#utility.yul\":2026:2050   */\n      tag_222\n      jump\t// in\n    tag_286:\n        /* \"#utility.yul\":2019:2024   */\n      dup2\n        /* \"#utility.yul\":2016:2051   */\n      eq\n        /* \"#utility.yul\":2006:2069   */\n      tag_287\n      jumpi\n        /* \"#utility.yul\":2065:2066   */\n      0x00\n        /* \"#utility.yul\":2062:2063   */\n      dup1\n        /* \"#utility.yul\":2055:2067   */\n      revert\n        /* \"#utility.yul\":2006:2069   */\n    tag_287:\n        /* \"#utility.yul\":1953:2075   */\n      pop\n      jump\t// out\n        /* \"#utility.yul\":2081:2220   */\n    tag_225:\n        /* \"#utility.yul\":2127:2132   */\n      0x00\n        /* \"#utility.yul\":2165:2171   */\n      dup2\n        /* \"#utility.yul\":2152:2172   */\n      calldataload\n        /* \"#utility.yul\":2143:2172   */\n      swap1\n      pop\n        /* \"#utility.yul\":2181:2214   */\n      tag_289\n        /* \"#utility.yul\":2208:2213   */\n      dup2\n        /* \"#utility.yul\":2181:2214   */\n      tag_224\n      jump\t// in\n    tag_289:\n        /* \"#utility.yul\":2081:2220   */\n      swap3\n      swap2\n      pop\n      pop\n      jump\t// out\n        /* \"#utility.yul\":2226:2555   */\n    tag_36:\n        /* \"#utility.yul\":2285:2291   */\n      0x00\n        /* \"#utility.yul\":2334:2336   */\n      0x20\n        /* \"#utility.yul\":2322:2331   */\n      dup3\n        /* \"#utility.yul\":2313:2320   */\n      dup5\n        /* \"#utility.yul\":2309:2332   */\n      sub\n        /* \"#utility.yul\":2305:2337   */\n      slt\n        /* \"#utility.yul\":2302:2421   */\n      iszero\n      tag_291\n      jumpi\n        /* \"#utility.yul\":2340:2419   */\n      tag_292\n      tag_215\n      jump\t// in\n    tag_292:\n        /* \"#utility.yul\":2302:2421   */\n    tag_291:\n        /* \"#utility.yul\":2460:2461   */\n      0x00\n        /* \"#utility.yul\":2485:2538   */\n      tag_293\n        /* \"#utility.yul\":2530:2537   */\n      dup5\n        /* \"#utility.yul\":2521:2527   */\n      dup3\n        /* \"#utility.yul\":2510:2519   */\n      dup6\n        /* \"#utility.yul\":2506:2528   */\n      add\n        /* \"#utility.yul\":2485:2538   */\n      tag_225\n      jump\t// in\n    tag_293:\n        /* \"#utility.yul\":2475:2538   */\n      swap2\n      pop\n        /* \"#utility.yul\":2431:2548   */\n      pop\n        /* \"#utility.yul\":2226:2555   */\n      swap3\n      swap2\n      pop\n      pop\n      jump\t// out\n        /* \"#utility.yul\":2561:2687   */\n    tag_226:\n        /* \"#utility.yul\":2598:2605   */\n      0x00\n        /* \"#utility.yul\":2638:2680   */\n      0xffffffffffffffffffffffffffffffffffffffff\n        /* \"#utility.yul\":2631:2636   */\n      dup3\n        /* \"#utility.yul\":2627:2681   */\n      and\n        /* \"#utility.yul\":2616:2681   */\n      swap1\n      pop\n        /* \"#utility.yul\":2561:2687   */\n      swap2\n      swap1\n      pop\n      jump\t// out\n        /* \"#utility.yul\":2693:2789   */\n    tag_227:\n        /* \"#utility.yul\":2730:2737   */\n      0x00\n        /* \"#utility.yul\":2759:2783   */\n      tag_296\n        /* \"#utility.yul\":2777:2782   */\n      dup3\n        /* \"#utility.yul\":2759:2783   */\n      tag_226\n      jump\t// in\n    tag_296:\n        /* \"#utility.yul\":2748:2783   */\n      swap1\n      pop\n        /* \"#utility.yul\":2693:2789   */\n      swap2\n      swap1\n      pop\n      jump\t// out\n        /* \"#utility.yul\":2795:2917   */\n    tag_228:\n        /* \"#utility.yul\":2868:2892   */\n      tag_298\n        /* \"#utility.yul\":2886:2891   */\n      dup2\n        /* \"#utility.yul\":2868:2892   */\n      tag_227\n      jump\t// in\n    tag_298:\n        /* \"#utility.yul\":2861:2866   */\n      dup2\n        /* \"#utility.yul\":2858:2893   */\n      eq\n        /* \"#utility.yul\":2848:2911   */\n      tag_299\n      jumpi\n        /* \"#utility.yul\":2907:2908   */\n      0x00\n        /* \"#utility.yul\":2904:2905   */\n      dup1\n        /* \"#utility.yul\":2897:2909   */\n      revert\n        /* \"#utility.yul\":2848:2911   */\n    tag_299:\n        /* \"#utility.yul\":2795:2917   */\n      pop\n      jump\t// out\n        /* \"#utility.yul\":2923:3062   */\n    tag_229:\n        /* \"#utility.yul\":2969:2974   */\n      0x00\n        /* \"#utility.yul\":3007:3013   */\n      dup2\n        /* \"#utility.yul\":2994:3014   */\n      calldataload\n        /* \"#utility.yul\":2985:3014   */\n      swap1\n      pop\n        /* \"#utility.yul\":3023:3056   */\n      tag_301\n        /* \"#utility.yul\":3050:3055   */\n      dup2\n        /* \"#utility.yul\":3023:3056   */\n      tag_228\n      jump\t// in\n    tag_301:\n        /* \"#utility.yul\":2923:3062   */\n      swap3\n      swap2\n      pop\n      pop\n      jump\t// out\n        /* \"#utility.yul\":3068:3542   */\n    tag_41:\n        /* \"#utility.yul\":3136:3142   */\n      0x00\n        /* \"#utility.yul\":3144:3150   */\n      dup1\n        /* \"#utility.yul\":3193:3195   */\n      0x40\n        /* \"#utility.yul\":3181:3190   */\n      dup4\n        /* \"#utility.yul\":3172:3179   */\n      dup6\n        /* \"#utility.yul\":3168:3191   */\n      sub\n        /* \"#utility.yul\":3164:3196   */\n      slt\n        /* \"#utility.yul\":3161:3280   */\n      iszero\n      tag_303\n      jumpi\n        /* \"#utility.yul\":3199:3278   */\n      tag_304\n      tag_215\n      jump\t// in\n    tag_304:\n        /* \"#utility.yul\":3161:3280   */\n    tag_303:\n        /* \"#utility.yul\":3319:3320   */\n      0x00\n        /* \"#utility.yul\":3344:3397   */\n      tag_305\n        /* \"#utility.yul\":3389:3396   */\n      dup6\n        /* \"#utility.yul\":3380:3386   */\n      dup3\n        /* \"#utility.yul\":3369:3378   */\n      dup7\n        /* \"#utility.yul\":3365:3387   */\n      add\n        /* \"#utility.yul\":3344:3397   */\n      tag_225\n      jump\t// in\n    tag_305:\n        /* \"#utility.yul\":3334:3397   */\n      swap3\n      pop\n        /* \"#utility.yul\":3290:3407   */\n      pop\n        /* \"#utility.yul\":3446:3448   */\n      0x20\n        /* \"#utility.yul\":3472:3525   */\n      tag_306\n        /* \"#utility.yul\":3517:3524   */\n      dup6\n        /* \"#utility.yul\":3508:3514   */\n      dup3\n        /* \"#utility.yul\":3497:3506   */\n      dup7\n        /* \"#utility.yul\":3493:3515   */\n      add\n        /* \"#utility.yul\":3472:3525   */\n      tag_229\n      jump\t// in\n    tag_306:\n        /* \"#utility.yul\":3462:3525   */\n      swap2\n      pop\n        /* \"#utility.yul\":3417:3535   */\n      pop\n        /* \"#utility.yul\":3068:3542   */\n      swap3\n      pop\n      swap3\n      swap1\n      pop\n      jump\t// out\n        /* \"#utility.yul\":3548:3877   */\n    tag_48:\n        /* \"#utility.yul\":3607:3613   */\n      0x00\n        /* \"#utility.yul\":3656:3658   */\n      0x20\n        /* \"#utility.yul\":3644:3653   */\n      dup3\n        /* \"#utility.yul\":3635:3642   */\n      dup5\n        /* \"#utility.yul\":3631:3654   */\n      sub\n        /* \"#utility.yul\":3627:3659   */\n      slt\n        /* \"#utility.yul\":3624:3743   */\n      iszero\n      tag_308\n      jumpi\n        /* \"#utility.yul\":3662:3741   */\n      tag_309\n      tag_215\n      jump\t// in\n    tag_309:\n        /* \"#utility.yul\":3624:3743   */\n    tag_308:\n        /* \"#utility.yul\":3782:3783   */\n      0x00\n        /* \"#utility.yul\":3807:3860   */\n      tag_310\n        /* \"#utility.yul\":3852:3859   */\n      dup5\n        /* \"#utility.yul\":3843:3849   */\n      dup3\n        /* \"#utility.yul\":3832:3841   */\n      dup6\n        /* \"#utility.yul\":3828:3850   */\n      add\n        /* \"#utility.yul\":3807:3860   */\n      tag_229\n      jump\t// in\n    tag_310:\n        /* \"#utility.yul\":3797:3860   */\n      swap2\n      pop\n        /* \"#utility.yul\":3753:3870   */\n      pop\n        /* \"#utility.yul\":3548:3877   */\n      swap3\n      swap2\n      pop\n      pop\n      jump\t// out\n        /* \"#utility.yul\":3883:3972   */\n    tag_230:\n        /* \"#utility.yul\":3919:3926   */\n      0x00\n        /* \"#utility.yul\":3959:3965   */\n      0xffff\n        /* \"#utility.yul\":3952:3957   */\n      dup3\n        /* \"#utility.yul\":3948:3966   */\n      and\n        /* \"#utility.yul\":3937:3966   */\n      swap1\n      pop\n        /* \"#utility.yul\":3883:3972   */\n      swap2\n      swap1\n      pop\n      jump\t// out\n        /* \"#utility.yul\":3978:4093   */\n    tag_231:\n        /* \"#utility.yul\":4063:4086   */\n      tag_313\n        /* \"#utility.yul\":4080:4085   */\n      dup2\n        /* \"#utility.yul\":4063:4086   */\n      tag_230\n      jump\t// in\n    tag_313:\n        /* \"#utility.yul\":4058:4061   */\n      dup3\n        /* \"#utility.yul\":4051:4087   */\n      mstore\n        /* \"#utility.yul\":3978:4093   */\n      pop\n      pop\n      jump\t// out\n        /* \"#utility.yul\":4099:4317   */\n    tag_54:\n        /* \"#utility.yul\":4190:4194   */\n      0x00\n        /* \"#utility.yul\":4228:4230   */\n      0x20\n        /* \"#utility.yul\":4217:4226   */\n      dup3\n        /* \"#utility.yul\":4213:4231   */\n      add\n        /* \"#utility.yul\":4205:4231   */\n      swap1\n      pop\n        /* \"#utility.yul\":4241:4310   */\n      tag_315\n        /* \"#utility.yul\":4307:4308   */\n      0x00\n        /* \"#utility.yul\":4296:4305   */\n      dup4\n        /* \"#utility.yul\":4292:4309   */\n      add\n        /* \"#utility.yul\":4283:4289   */\n      dup5\n        /* \"#utility.yul\":4241:4310   */\n      tag_231\n      jump\t// in\n    tag_315:\n        /* \"#utility.yul\":4099:4317   */\n      swap3\n      swap2\n      pop\n      pop\n      jump\t// out\n        /* \"#utility.yul\":4323:4383   */\n    tag_232:\n        /* \"#utility.yul\":4351:4354   */\n      0x00\n        /* \"#utility.yul\":4372:4377   */\n      dup2\n        /* \"#utility.yul\":4365:4377   */\n      swap1\n      pop\n        /* \"#utility.yul\":4323:4383   */\n      swap2\n      swap1\n      pop\n      jump\t// out\n        /* \"#utility.yul\":4389:4531   */\n    tag_233:\n        /* \"#utility.yul\":4439:4448   */\n      0x00\n        /* \"#utility.yul\":4472:4525   */\n      tag_318\n        /* \"#utility.yul\":4490:4524   */\n      tag_319\n        /* \"#utility.yul\":4499:4523   */\n      tag_320\n        /* \"#utility.yul\":4517:4522   */\n      dup5\n        /* \"#utility.yul\":4499:4523   */\n      tag_226\n      jump\t// in\n    tag_320:\n        /* \"#utility.yul\":4490:4524   */\n      tag_232\n      jump\t// in\n    tag_319:\n        /* \"#utility.yul\":4472:4525   */\n      tag_226\n      jump\t// in\n    tag_318:\n        /* \"#utility.yul\":4459:4525   */\n      swap1\n      pop\n        /* \"#utility.yul\":4389:4531   */\n      swap2\n      swap1\n      pop\n      jump\t// out\n        /* \"#utility.yul\":4537:4663   */\n    tag_234:\n        /* \"#utility.yul\":4587:4596   */\n      0x00\n        /* \"#utility.yul\":4620:4657   */\n      tag_322\n        /* \"#utility.yul\":4651:4656   */\n      dup3\n        /* \"#utility.yul\":4620:4657   */\n      tag_233\n      jump\t// in\n    tag_322:\n        /* \"#utility.yul\":4607:4657   */\n      swap1\n      pop\n        /* \"#utility.yul\":4537:4663   */\n      swap2\n      swap1\n      pop\n      jump\t// out\n        /* \"#utility.yul\":4669:4812   */\n    tag_235:\n        /* \"#utility.yul\":4736:4745   */\n      0x00\n        /* \"#utility.yul\":4769:4806   */\n      tag_324\n        /* \"#utility.yul\":4800:4805   */\n      dup3\n        /* \"#utility.yul\":4769:4806   */\n      tag_234\n      jump\t// in\n    tag_324:\n        /* \"#utility.yul\":4756:4806   */\n      swap1\n      pop\n        /* \"#utility.yul\":4669:4812   */\n      swap2\n      swap1\n      pop\n      jump\t// out\n        /* \"#utility.yul\":4818:4983   */\n    tag_236:\n        /* \"#utility.yul\":4922:4976   */\n      tag_326\n        /* \"#utility.yul\":4970:4975   */\n      dup2\n        /* \"#utility.yul\":4922:4976   */\n      tag_235\n      jump\t// in\n    tag_326:\n        /* \"#utility.yul\":4917:4920   */\n      dup3\n        /* \"#utility.yul\":4910:4977   */\n      mstore\n        /* \"#utility.yul\":4818:4983   */\n      pop\n      pop\n      jump\t// out\n        /* \"#utility.yul\":4989:5245   */\n    tag_59:\n        /* \"#utility.yul\":5099:5103   */\n      0x00\n        /* \"#utility.yul\":5137:5139   */\n      0x20\n        /* \"#utility.yul\":5126:5135   */\n      dup3\n        /* \"#utility.yul\":5122:5140   */\n      add\n        /* \"#utility.yul\":5114:5140   */\n      swap1\n      pop\n        /* \"#utility.yul\":5150:5238   */\n      tag_328\n        /* \"#utility.yul\":5235:5236   */\n      0x00\n        /* \"#utility.yul\":5224:5233   */\n      dup4\n        /* \"#utility.yul\":5220:5237   */\n      add\n        /* \"#utility.yul\":5211:5217   */\n      dup5\n        /* \"#utility.yul\":5150:5238   */\n      tag_236\n      jump\t// in\n    tag_328:\n        /* \"#utility.yul\":4989:5245   */\n      swap3\n      swap2\n      pop\n      pop\n      jump\t// out\n        /* \"#utility.yul\":5251:5371   */\n    tag_237:\n        /* \"#utility.yul\":5323:5346   */\n      tag_330\n        /* \"#utility.yul\":5340:5345   */\n      dup2\n        /* \"#utility.yul\":5323:5346   */\n      tag_230\n      jump\t// in\n    tag_330:\n        /* \"#utility.yul\":5316:5321   */\n      dup2\n        /* \"#utility.yul\":5313:5347   */\n      eq\n        /* \"#utility.yul\":5303:5365   */\n      tag_331\n      jumpi\n        /* \"#utility.yul\":5361:5362   */\n      0x00\n        /* \"#utility.yul\":5358:5359   */\n      dup1\n        /* \"#utility.yul\":5351:5363   */\n      revert\n        /* \"#utility.yul\":5303:5365   */\n    tag_331:\n        /* \"#utility.yul\":5251:5371   */\n      pop\n      jump\t// out\n        /* \"#utility.yul\":5377:5514   */\n    tag_238:\n        /* \"#utility.yul\":5422:5427   */\n      0x00\n        /* \"#utility.yul\":5460:5466   */\n      dup2\n        /* \"#utility.yul\":5447:5467   */\n      calldataload\n        /* \"#utility.yul\":5438:5467   */\n      swap1\n      pop\n        /* \"#utility.yul\":5476:5508   */\n      tag_333\n        /* \"#utility.yul\":5502:5507   */\n      dup2\n        /* \"#utility.yul\":5476:5508   */\n      tag_237\n      jump\t// in\n    tag_333:\n        /* \"#utility.yul\":5377:5514   */\n      swap3\n      swap2\n      pop\n      pop\n      jump\t// out\n        /* \"#utility.yul\":5520:5992   */\n    tag_69:\n        /* \"#utility.yul\":5587:5593   */\n      0x00\n        /* \"#utility.yul\":5595:5601   */\n      dup1\n        /* \"#utility.yul\":5644:5646   */\n      0x40\n        /* \"#utility.yul\":5632:5641   */\n      dup4\n        /* \"#utility.yul\":5623:5630   */\n      dup6\n        /* \"#utility.yul\":5619:5642   */\n      sub\n        /* \"#utility.yul\":5615:5647   */\n      slt\n        /* \"#utility.yul\":5612:5731   */\n      iszero\n      tag_335\n      jumpi\n        /* \"#utility.yul\":5650:5729   */\n      tag_336\n      tag_215\n      jump\t// in\n    tag_336:\n        /* \"#utility.yul\":5612:5731   */\n    tag_335:\n        /* \"#utility.yul\":5770:5771   */\n      0x00\n        /* \"#utility.yul\":5795:5848   */\n      tag_337\n        /* \"#utility.yul\":5840:5847   */\n      dup6\n        /* \"#utility.yul\":5831:5837   */\n      dup3\n        /* \"#utility.yul\":5820:5829   */\n      dup7\n        /* \"#utility.yul\":5816:5838   */\n      add\n        /* \"#utility.yul\":5795:5848   */\n      tag_229\n      jump\t// in\n    tag_337:\n        /* \"#utility.yul\":5785:5848   */\n      swap3\n      pop\n        /* \"#utility.yul\":5741:5858   */\n      pop\n        /* \"#utility.yul\":5897:5899   */\n      0x20\n        /* \"#utility.yul\":5923:5975   */\n      tag_338\n        /* \"#utility.yul\":5967:5974   */\n      dup6\n        /* \"#utility.yul\":5958:5964   */\n      dup3\n        /* \"#utility.yul\":5947:5956   */\n      dup7\n        /* \"#utility.yul\":5943:5965   */\n      add\n        /* \"#utility.yul\":5923:5975   */\n      tag_238\n      jump\t// in\n    tag_338:\n        /* \"#utility.yul\":5913:5975   */\n      swap2\n      pop\n        /* \"#utility.yul\":5868:5985   */\n      pop\n        /* \"#utility.yul\":5520:5992   */\n      swap3\n      pop\n      swap3\n      swap1\n      pop\n      jump\t// out\n        /* \"#utility.yul\":5998:6111   */\n    tag_239:\n        /* \"#utility.yul\":6052:6059   */\n      0x00\n        /* \"#utility.yul\":6081:6105   */\n      tag_340\n        /* \"#utility.yul\":6099:6104   */\n      dup3\n        /* \"#utility.yul\":6081:6105   */\n      tag_227\n      jump\t// in\n    tag_340:\n        /* \"#utility.yul\":6070:6105   */\n      swap1\n      pop\n        /* \"#utility.yul\":5998:6111   */\n      swap2\n      swap1\n      pop\n      jump\t// out\n        /* \"#utility.yul\":6117:6273   */\n    tag_240:\n        /* \"#utility.yul\":6207:6248   */\n      tag_342\n        /* \"#utility.yul\":6242:6247   */\n      dup2\n        /* \"#utility.yul\":6207:6248   */\n      tag_239\n      jump\t// in\n    tag_342:\n        /* \"#utility.yul\":6200:6205   */\n      dup2\n        /* \"#utility.yul\":6197:6249   */\n      eq\n        /* \"#utility.yul\":6187:6267   */\n      tag_343\n      jumpi\n        /* \"#utility.yul\":6263:6264   */\n      0x00\n        /* \"#utility.yul\":6260:6261   */\n      dup1\n        /* \"#utility.yul\":6253:6265   */\n      revert\n        /* \"#utility.yul\":6187:6267   */\n    tag_343:\n        /* \"#utility.yul\":6117:6273   */\n      pop\n      jump\t// out\n        /* \"#utility.yul\":6279:6452   */\n    tag_241:\n        /* \"#utility.yul\":6342:6347   */\n      0x00\n        /* \"#utility.yul\":6380:6386   */\n      dup2\n        /* \"#utility.yul\":6367:6387   */\n      calldataload\n        /* \"#utility.yul\":6358:6387   */\n      swap1\n      pop\n        /* \"#utility.yul\":6396:6446   */\n      tag_345\n        /* \"#utility.yul\":6440:6445   */\n      dup2\n        /* \"#utility.yul\":6396:6446   */\n      tag_240\n      jump\t// in\n    tag_345:\n        /* \"#utility.yul\":6279:6452   */\n      swap3\n      swap2\n      pop\n      pop\n      jump\t// out\n        /* \"#utility.yul\":6458:7109   */\n    tag_76:\n        /* \"#utility.yul\":6551:6557   */\n      0x00\n        /* \"#utility.yul\":6559:6565   */\n      dup1\n        /* \"#utility.yul\":6567:6573   */\n      0x00\n        /* \"#utility.yul\":6616:6618   */\n      0x60\n        /* \"#utility.yul\":6604:6613   */\n      dup5\n        /* \"#utility.yul\":6595:6602   */\n      dup7\n        /* \"#utility.yul\":6591:6614   */\n      sub\n        /* \"#utility.yul\":6587:6619   */\n      slt\n        /* \"#utility.yul\":6584:6703   */\n      iszero\n      tag_347\n      jumpi\n        /* \"#utility.yul\":6622:6701   */\n      tag_348\n      tag_215\n      jump\t// in\n    tag_348:\n        /* \"#utility.yul\":6584:6703   */\n    tag_347:\n        /* \"#utility.yul\":6742:6743   */\n      0x00\n        /* \"#utility.yul\":6767:6820   */\n      tag_349\n        /* \"#utility.yul\":6812:6819   */\n      dup7\n        /* \"#utility.yul\":6803:6809   */\n      dup3\n        /* \"#utility.yul\":6792:6801   */\n      dup8\n        /* \"#utility.yul\":6788:6810   */\n      add\n        /* \"#utility.yul\":6767:6820   */\n      tag_229\n      jump\t// in\n    tag_349:\n        /* \"#utility.yul\":6757:6820   */\n      swap4\n      pop\n        /* \"#utility.yul\":6713:6830   */\n      pop\n        /* \"#utility.yul\":6869:6871   */\n      0x20\n        /* \"#utility.yul\":6895:6965   */\n      tag_350\n        /* \"#utility.yul\":6957:6964   */\n      dup7\n        /* \"#utility.yul\":6948:6954   */\n      dup3\n        /* \"#utility.yul\":6937:6946   */\n      dup8\n        /* \"#utility.yul\":6933:6955   */\n      add\n        /* \"#utility.yul\":6895:6965   */\n      tag_241\n      jump\t// in\n    tag_350:\n        /* \"#utility.yul\":6885:6965   */\n      swap3\n      pop\n        /* \"#utility.yul\":6840:6975   */\n      pop\n        /* \"#utility.yul\":7014:7016   */\n      0x40\n        /* \"#utility.yul\":7040:7092   */\n      tag_351\n        /* \"#utility.yul\":7084:7091   */\n      dup7\n        /* \"#utility.yul\":7075:7081   */\n      dup3\n        /* \"#utility.yul\":7064:7073   */\n      dup8\n        /* \"#utility.yul\":7060:7082   */\n      add\n        /* \"#utility.yul\":7040:7092   */\n      tag_238\n      jump\t// in\n    tag_351:\n        /* \"#utility.yul\":7030:7092   */\n      swap2\n      pop\n        /* \"#utility.yul\":6985:7102   */\n      pop\n        /* \"#utility.yul\":6458:7109   */\n      swap3\n      pop\n      swap3\n      pop\n      swap3\n      jump\t// out\n        /* \"#utility.yul\":7115:7229   */\n    tag_242:\n        /* \"#utility.yul\":7182:7188   */\n      0x00\n        /* \"#utility.yul\":7216:7221   */\n      dup2\n        /* \"#utility.yul\":7210:7222   */\n      mload\n        /* \"#utility.yul\":7200:7222   */\n      swap1\n      pop\n        /* \"#utility.yul\":7115:7229   */\n      swap2\n      swap1\n      pop\n      jump\t// out\n        /* \"#utility.yul\":7235:7419   */\n    tag_243:\n        /* \"#utility.yul\":7334:7345   */\n      0x00\n        /* \"#utility.yul\":7368:7374   */\n      dup3\n        /* \"#utility.yul\":7363:7366   */\n      dup3\n        /* \"#utility.yul\":7356:7375   */\n      mstore\n        /* \"#utility.yul\":7408:7412   */\n      0x20\n        /* \"#utility.yul\":7403:7406   */\n      dup3\n        /* \"#utility.yul\":7399:7413   */\n      add\n        /* \"#utility.yul\":7384:7413   */\n      swap1\n      pop\n        /* \"#utility.yul\":7235:7419   */\n      swap3\n      swap2\n      pop\n      pop\n      jump\t// out\n        /* \"#utility.yul\":7425:7557   */\n    tag_244:\n        /* \"#utility.yul\":7492:7496   */\n      0x00\n        /* \"#utility.yul\":7515:7518   */\n      dup2\n        /* \"#utility.yul\":7507:7518   */\n      swap1\n      pop\n        /* \"#utility.yul\":7545:7549   */\n      0x20\n        /* \"#utility.yul\":7540:7543   */\n      dup3\n        /* \"#utility.yul\":7536:7550   */\n      add\n        /* \"#utility.yul\":7528:7550   */\n      swap1\n      pop\n        /* \"#utility.yul\":7425:7557   */\n      swap2\n      swap1\n      pop\n      jump\t// out\n        /* \"#utility.yul\":7563:7671   */\n    tag_245:\n        /* \"#utility.yul\":7640:7664   */\n      tag_356\n        /* \"#utility.yul\":7658:7663   */\n      dup2\n        /* \"#utility.yul\":7640:7664   */\n      tag_227\n      jump\t// in\n    tag_356:\n        /* \"#utility.yul\":7635:7638   */\n      dup3\n        /* \"#utility.yul\":7628:7665   */\n      mstore\n        /* \"#utility.yul\":7563:7671   */\n      pop\n      pop\n      jump\t// out\n        /* \"#utility.yul\":7677:7856   */\n    tag_246:\n        /* \"#utility.yul\":7746:7756   */\n      0x00\n        /* \"#utility.yul\":7767:7813   */\n      tag_358\n        /* \"#utility.yul\":7809:7812   */\n      dup4\n        /* \"#utility.yul\":7801:7807   */\n      dup4\n        /* \"#utility.yul\":7767:7813   */\n      tag_245\n      jump\t// in\n    tag_358:\n        /* \"#utility.yul\":7845:7849   */\n      0x20\n        /* \"#utility.yul\":7840:7843   */\n      dup4\n        /* \"#utility.yul\":7836:7850   */\n      add\n        /* \"#utility.yul\":7822:7850   */\n      swap1\n      pop\n        /* \"#utility.yul\":7677:7856   */\n      swap3\n      swap2\n      pop\n      pop\n      jump\t// out\n        /* \"#utility.yul\":7862:7975   */\n    tag_247:\n        /* \"#utility.yul\":7932:7936   */\n      0x00\n        /* \"#utility.yul\":7964:7968   */\n      0x20\n        /* \"#utility.yul\":7959:7962   */\n      dup3\n        /* \"#utility.yul\":7955:7969   */\n      add\n        /* \"#utility.yul\":7947:7969   */\n      swap1\n      pop\n        /* \"#utility.yul\":7862:7975   */\n      swap2\n      swap1\n      pop\n      jump\t// out\n        /* \"#utility.yul\":8011:8743   */\n    tag_248:\n        /* \"#utility.yul\":8130:8133   */\n      0x00\n        /* \"#utility.yul\":8159:8213   */\n      tag_361\n        /* \"#utility.yul\":8207:8212   */\n      dup3\n        /* \"#utility.yul\":8159:8213   */\n      tag_242\n      jump\t// in\n    tag_361:\n        /* \"#utility.yul\":8229:8315   */\n      tag_362\n        /* \"#utility.yul\":8308:8314   */\n      dup2\n        /* \"#utility.yul\":8303:8306   */\n      dup6\n        /* \"#utility.yul\":8229:8315   */\n      tag_243\n      jump\t// in\n    tag_362:\n        /* \"#utility.yul\":8222:8315   */\n      swap4\n      pop\n        /* \"#utility.yul\":8339:8395   */\n      tag_363\n        /* \"#utility.yul\":8389:8394   */\n      dup4\n        /* \"#utility.yul\":8339:8395   */\n      tag_244\n      jump\t// in\n    tag_363:\n        /* \"#utility.yul\":8418:8425   */\n      dup1\n        /* \"#utility.yul\":8449:8450   */\n      0x00\n        /* \"#utility.yul\":8434:8718   */\n    tag_364:\n        /* \"#utility.yul\":8459:8465   */\n      dup4\n        /* \"#utility.yul\":8456:8457   */\n      dup2\n        /* \"#utility.yul\":8453:8466   */\n      lt\n        /* \"#utility.yul\":8434:8718   */\n      iszero\n      tag_366\n      jumpi\n        /* \"#utility.yul\":8535:8541   */\n      dup2\n        /* \"#utility.yul\":8529:8542   */\n      mload\n        /* \"#utility.yul\":8562:8625   */\n      tag_367\n        /* \"#utility.yul\":8621:8624   */\n      dup9\n        /* \"#utility.yul\":8606:8619   */\n      dup3\n        /* \"#utility.yul\":8562:8625   */\n      tag_246\n      jump\t// in\n    tag_367:\n        /* \"#utility.yul\":8555:8625   */\n      swap8\n      pop\n        /* \"#utility.yul\":8648:8708   */\n      tag_368\n        /* \"#utility.yul\":8701:8707   */\n      dup4\n        /* \"#utility.yul\":8648:8708   */\n      tag_247\n      jump\t// in\n    tag_368:\n        /* \"#utility.yul\":8638:8708   */\n      swap3\n      pop\n        /* \"#utility.yul\":8494:8718   */\n      pop\n        /* \"#utility.yul\":8481:8482   */\n      0x01\n        /* \"#utility.yul\":8478:8479   */\n      dup2\n        /* \"#utility.yul\":8474:8483   */\n      add\n        /* \"#utility.yul\":8469:8483   */\n      swap1\n      pop\n        /* \"#utility.yul\":8434:8718   */\n      jump(tag_364)\n    tag_366:\n        /* \"#utility.yul\":8438:8452   */\n      pop\n        /* \"#utility.yul\":8734:8737   */\n      dup6\n        /* \"#utility.yul\":8727:8737   */\n      swap4\n      pop\n        /* \"#utility.yul\":8135:8743   */\n      pop\n      pop\n      pop\n        /* \"#utility.yul\":8011:8743   */\n      swap3\n      swap2\n      pop\n      pop\n      jump\t// out\n        /* \"#utility.yul\":8749:9122   */\n    tag_81:\n        /* \"#utility.yul\":8892:8896   */\n      0x00\n        /* \"#utility.yul\":8930:8932   */\n      0x20\n        /* \"#utility.yul\":8919:8928   */\n      dup3\n        /* \"#utility.yul\":8915:8933   */\n      add\n        /* \"#utility.yul\":8907:8933   */\n      swap1\n      pop\n        /* \"#utility.yul\":8979:8988   */\n      dup2\n        /* \"#utility.yul\":8973:8977   */\n      dup2\n        /* \"#utility.yul\":8969:8989   */\n      sub\n        /* \"#utility.yul\":8965:8966   */\n      0x00\n        /* \"#utility.yul\":8954:8963   */\n      dup4\n        /* \"#utility.yul\":8950:8967   */\n      add\n        /* \"#utility.yul\":8943:8990   */\n      mstore\n        /* \"#utility.yul\":9007:9115   */\n      tag_370\n        /* \"#utility.yul\":9110:9114   */\n      dup2\n        /* \"#utility.yul\":9101:9107   */\n      dup5\n        /* \"#utility.yul\":9007:9115   */\n      tag_248\n      jump\t// in\n    tag_370:\n        /* \"#utility.yul\":8999:9115   */\n      swap1\n      pop\n        /* \"#utility.yul\":8749:9122   */\n      swap3\n      swap2\n      pop\n      pop\n      jump\t// out\n        /* \"#utility.yul\":9128:9636   */\n    tag_93:\n        /* \"#utility.yul\":9213:9219   */\n      0x00\n        /* \"#utility.yul\":9221:9227   */\n      dup1\n        /* \"#utility.yul\":9270:9272   */\n      0x40\n        /* \"#utility.yul\":9258:9267   */\n      dup4\n        /* \"#utility.yul\":9249:9256   */\n      dup6\n        /* \"#utility.yul\":9245:9268   */\n      sub\n        /* \"#utility.yul\":9241:9273   */\n      slt\n        /* \"#utility.yul\":9238:9357   */\n      iszero\n      tag_372\n      jumpi\n        /* \"#utility.yul\":9276:9355   */\n      tag_373\n      tag_215\n      jump\t// in\n    tag_373:\n        /* \"#utility.yul\":9238:9357   */\n    tag_372:\n        /* \"#utility.yul\":9396:9397   */\n      0x00\n        /* \"#utility.yul\":9421:9474   */\n      tag_374\n        /* \"#utility.yul\":9466:9473   */\n      dup6\n        /* \"#utility.yul\":9457:9463   */\n      dup3\n        /* \"#utility.yul\":9446:9455   */\n      dup7\n        /* \"#utility.yul\":9442:9464   */\n      add\n        /* \"#utility.yul\":9421:9474   */\n      tag_229\n      jump\t// in\n    tag_374:\n        /* \"#utility.yul\":9411:9474   */\n      swap3\n      pop\n        /* \"#utility.yul\":9367:9484   */\n      pop\n        /* \"#utility.yul\":9523:9525   */\n      0x20\n        /* \"#utility.yul\":9549:9619   */\n      tag_375\n        /* \"#utility.yul\":9611:9618   */\n      dup6\n        /* \"#utility.yul\":9602:9608   */\n      dup3\n        /* \"#utility.yul\":9591:9600   */\n      dup7\n        /* \"#utility.yul\":9587:9609   */\n      add\n        /* \"#utility.yul\":9549:9619   */\n      tag_241\n      jump\t// in\n    tag_375:\n        /* \"#utility.yul\":9539:9619   */\n      swap2\n      pop\n        /* \"#utility.yul\":9494:9629   */\n      pop\n        /* \"#utility.yul\":9128:9636   */\n      swap3\n      pop\n      swap3\n      swap1\n      pop\n      jump\t// out\n        /* \"#utility.yul\":9642:9811   */\n    tag_249:\n        /* \"#utility.yul\":9726:9737   */\n      0x00\n        /* \"#utility.yul\":9760:9766   */\n      dup3\n        /* \"#utility.yul\":9755:9758   */\n      dup3\n        /* \"#utility.yul\":9748:9767   */\n      mstore\n        /* \"#utility.yul\":9800:9804   */\n      0x20\n        /* \"#utility.yul\":9795:9798   */\n      dup3\n        /* \"#utility.yul\":9791:9805   */\n      add\n        /* \"#utility.yul\":9776:9805   */\n      swap1\n      pop\n        /* \"#utility.yul\":9642:9811   */\n      swap3\n      swap2\n      pop\n      pop\n      jump\t// out\n        /* \"#utility.yul\":9817:9997   */\n    tag_250:\n        /* \"#utility.yul\":9957:9989   */\n      0x4552432d333634333a20496e76616c6964207a65726f20616464726573730000\n        /* \"#utility.yul\":9953:9954   */\n      0x00\n        /* \"#utility.yul\":9945:9951   */\n      dup3\n        /* \"#utility.yul\":9941:9955   */\n      add\n        /* \"#utility.yul\":9934:9990   */\n      mstore\n        /* \"#utility.yul\":9817:9997   */\n      pop\n      jump\t// out\n        /* \"#utility.yul\":10003:10369   */\n    tag_251:\n        /* \"#utility.yul\":10145:10148   */\n      0x00\n        /* \"#utility.yul\":10166:10233   */\n      tag_379\n        /* \"#utility.yul\":10230:10232   */\n      0x1e\n        /* \"#utility.yul\":10225:10228   */\n      dup4\n        /* \"#utility.yul\":10166:10233   */\n      tag_249\n      jump\t// in\n    tag_379:\n        /* \"#utility.yul\":10159:10233   */\n      swap2\n      pop\n        /* \"#utility.yul\":10242:10335   */\n      tag_380\n        /* \"#utility.yul\":10331:10334   */\n      dup3\n        /* \"#utility.yul\":10242:10335   */\n      tag_250\n      jump\t// in\n    tag_380:\n        /* \"#utility.yul\":10360:10362   */\n      0x20\n        /* \"#utility.yul\":10355:10358   */\n      dup3\n        /* \"#utility.yul\":10351:10363   */\n      add\n        /* \"#utility.yul\":10344:10363   */\n      swap1\n      pop\n        /* \"#utility.yul\":10003:10369   */\n      swap2\n      swap1\n      pop\n      jump\t// out\n        /* \"#utility.yul\":10375:10794   */\n    tag_118:\n        /* \"#utility.yul\":10541:10545   */\n      0x00\n        /* \"#utility.yul\":10579:10581   */\n      0x20\n        /* \"#utility.yul\":10568:10577   */\n      dup3\n        /* \"#utility.yul\":10564:10582   */\n      add\n        /* \"#utility.yul\":10556:10582   */\n      swap1\n      pop\n        /* \"#utility.yul\":10628:10637   */\n      dup2\n        /* \"#utility.yul\":10622:10626   */\n      dup2\n        /* \"#utility.yul\":10618:10638   */\n      sub\n        /* \"#utility.yul\":10614:10615   */\n      0x00\n        /* \"#utility.yul\":10603:10612   */\n      dup4\n        /* \"#utility.yul\":10599:10616   */\n      add\n        /* \"#utility.yul\":10592:10639   */\n      mstore\n        /* \"#utility.yul\":10656:10787   */\n      tag_382\n        /* \"#utility.yul\":10782:10786   */\n      dup2\n        /* \"#utility.yul\":10656:10787   */\n      tag_251\n      jump\t// in\n    tag_382:\n        /* \"#utility.yul\":10648:10787   */\n      swap1\n      pop\n        /* \"#utility.yul\":10375:10794   */\n      swap2\n      swap1\n      pop\n      jump\t// out\n        /* \"#utility.yul\":10800:10980   */\n    tag_252:\n        /* \"#utility.yul\":10940:10972   */\n      0x4552432d333634333a204e6f206964656e746974792072656769737472790000\n        /* \"#utility.yul\":10936:10937   */\n      0x00\n        /* \"#utility.yul\":10928:10934   */\n      dup3\n        /* \"#utility.yul\":10924:10938   */\n      add\n        /* \"#utility.yul\":10917:10973   */\n      mstore\n        /* \"#utility.yul\":10800:10980   */\n      pop\n      jump\t// out\n        /* \"#utility.yul\":10986:11352   */\n    tag_253:\n        /* \"#utility.yul\":11128:11131   */\n      0x00\n        /* \"#utility.yul\":11149:11216   */\n      tag_385\n        /* \"#utility.yul\":11213:11215   */\n      0x1e\n        /* \"#utility.yul\":11208:11211   */\n      dup4\n        /* \"#utility.yul\":11149:11216   */\n      tag_249\n      jump\t// in\n    tag_385:\n        /* \"#utility.yul\":11142:11216   */\n      swap2\n      pop\n        /* \"#utility.yul\":11225:11318   */\n      tag_386\n        /* \"#utility.yul\":11314:11317   */\n      dup3\n        /* \"#utility.yul\":11225:11318   */\n      tag_252\n      jump\t// in\n    tag_386:\n        /* \"#utility.yul\":11343:11345   */\n      0x20\n        /* \"#utility.yul\":11338:11341   */\n      dup3\n        /* \"#utility.yul\":11334:11346   */\n      add\n        /* \"#utility.yul\":11327:11346   */\n      swap1\n      pop\n        /* \"#utility.yul\":10986:11352   */\n      swap2\n      swap1\n      pop\n      jump\t// out\n        /* \"#utility.yul\":11358:11777   */\n    tag_131:\n        /* \"#utility.yul\":11524:11528   */\n      0x00\n        /* \"#utility.yul\":11562:11564   */\n      0x20\n        /* \"#utility.yul\":11551:11560   */\n      dup3\n        /* \"#utility.yul\":11547:11565   */\n      add\n        /* \"#utility.yul\":11539:11565   */\n      swap1\n      pop\n        /* \"#utility.yul\":11611:11620   */\n      dup2\n        /* \"#utility.yul\":11605:11609   */\n      dup2\n        /* \"#utility.yul\":11601:11621   */\n      sub\n        /* \"#utility.yul\":11597:11598   */\n      0x00\n        /* \"#utility.yul\":11586:11595   */\n      dup4\n        /* \"#utility.yul\":11582:11599   */\n      add\n        /* \"#utility.yul\":11575:11622   */\n      mstore\n        /* \"#utility.yul\":11639:11770   */\n      tag_388\n        /* \"#utility.yul\":11765:11769   */\n      dup2\n        /* \"#utility.yul\":11639:11770   */\n      tag_253\n      jump\t// in\n    tag_388:\n        /* \"#utility.yul\":11631:11770   */\n      swap1\n      pop\n        /* \"#utility.yul\":11358:11777   */\n      swap2\n      swap1\n      pop\n      jump\t// out\n        /* \"#utility.yul\":11783:11963   */\n    tag_137:\n        /* \"#utility.yul\":11831:11908   */\n      0x4e487b7100000000000000000000000000000000000000000000000000000000\n        /* \"#utility.yul\":11828:11829   */\n      0x00\n        /* \"#utility.yul\":11821:11909   */\n      mstore\n        /* \"#utility.yul\":11928:11932   */\n      0x32\n        /* \"#utility.yul\":11925:11926   */\n      0x04\n        /* \"#utility.yul\":11918:11933   */\n      mstore\n        /* \"#utility.yul\":11952:11956   */\n      0x24\n        /* \"#utility.yul\":11949:11950   */\n      0x00\n        /* \"#utility.yul\":11942:11957   */\n      revert\n        /* \"#utility.yul\":11969:12046   */\n    tag_254:\n        /* \"#utility.yul\":12006:12013   */\n      0x00\n        /* \"#utility.yul\":12035:12040   */\n      dup2\n        /* \"#utility.yul\":12024:12040   */\n      swap1\n      pop\n        /* \"#utility.yul\":11969:12046   */\n      swap2\n      swap1\n      pop\n      jump\t// out\n        /* \"#utility.yul\":12052:12232   */\n    tag_255:\n        /* \"#utility.yul\":12100:12177   */\n      0x4e487b7100000000000000000000000000000000000000000000000000000000\n        /* \"#utility.yul\":12097:12098   */\n      0x00\n        /* \"#utility.yul\":12090:12178   */\n      mstore\n        /* \"#utility.yul\":12197:12201   */\n      0x11\n        /* \"#utility.yul\":12194:12195   */\n      0x04\n        /* \"#utility.yul\":12187:12202   */\n      mstore\n        /* \"#utility.yul\":12221:12225   */\n      0x24\n        /* \"#utility.yul\":12218:12219   */\n      0x00\n        /* \"#utility.yul\":12211:12226   */\n      revert\n        /* \"#utility.yul\":12238:12432   */\n    tag_141:\n        /* \"#utility.yul\":12278:12282   */\n      0x00\n        /* \"#utility.yul\":12298:12318   */\n      tag_393\n        /* \"#utility.yul\":12316:12317   */\n      dup3\n        /* \"#utility.yul\":12298:12318   */\n      tag_254\n      jump\t// in\n    tag_393:\n        /* \"#utility.yul\":12293:12318   */\n      swap2\n      pop\n        /* \"#utility.yul\":12332:12352   */\n      tag_394\n        /* \"#utility.yul\":12350:12351   */\n      dup4\n        /* \"#utility.yul\":12332:12352   */\n      tag_254\n      jump\t// in\n    tag_394:\n        /* \"#utility.yul\":12327:12352   */\n      swap3\n      pop\n        /* \"#utility.yul\":12376:12377   */\n      dup3\n        /* \"#utility.yul\":12373:12374   */\n      dup3\n        /* \"#utility.yul\":12369:12378   */\n      sub\n        /* \"#utility.yul\":12361:12378   */\n      swap1\n      pop\n        /* \"#utility.yul\":12400:12401   */\n      dup2\n        /* \"#utility.yul\":12394:12398   */\n      dup2\n        /* \"#utility.yul\":12391:12402   */\n      gt\n        /* \"#utility.yul\":12388:12425   */\n      iszero\n      tag_395\n      jumpi\n        /* \"#utility.yul\":12405:12423   */\n      tag_396\n      tag_255\n      jump\t// in\n    tag_396:\n        /* \"#utility.yul\":12388:12425   */\n    tag_395:\n        /* \"#utility.yul\":12238:12432   */\n      swap3\n      swap2\n      pop\n      pop\n      jump\t// out\n        /* \"#utility.yul\":12438:12618   */\n    tag_150:\n        /* \"#utility.yul\":12486:12563   */\n      0x4e487b7100000000000000000000000000000000000000000000000000000000\n        /* \"#utility.yul\":12483:12484   */\n      0x00\n        /* \"#utility.yul\":12476:12564   */\n      mstore\n        /* \"#utility.yul\":12583:12587   */\n      0x31\n        /* \"#utility.yul\":12580:12581   */\n      0x04\n        /* \"#utility.yul\":12573:12588   */\n      mstore\n        /* \"#utility.yul\":12607:12611   */\n      0x24\n        /* \"#utility.yul\":12604:12605   */\n      0x00\n        /* \"#utility.yul\":12597:12612   */\n      revert\n        /* \"#utility.yul\":12624:12802   */\n    tag_256:\n        /* \"#utility.yul\":12764:12794   */\n      0x4552432d333634333a2041646472657373206e6f742073746f72656400000000\n        /* \"#utility.yul\":12760:12761   */\n      0x00\n        /* \"#utility.yul\":12752:12758   */\n      dup3\n        /* \"#utility.yul\":12748:12762   */\n      add\n        /* \"#utility.yul\":12741:12795   */\n      mstore\n        /* \"#utility.yul\":12624:12802   */\n      pop\n      jump\t// out\n        /* \"#utility.yul\":12808:13174   */\n    tag_257:\n        /* \"#utility.yul\":12950:12953   */\n      0x00\n        /* \"#utility.yul\":12971:13038   */\n      tag_400\n        /* \"#utility.yul\":13035:13037   */\n      0x1c\n        /* \"#utility.yul\":13030:13033   */\n      dup4\n        /* \"#utility.yul\":12971:13038   */\n      tag_249\n      jump\t// in\n    tag_400:\n        /* \"#utility.yul\":12964:13038   */\n      swap2\n      pop\n        /* \"#utility.yul\":13047:13140   */\n      tag_401\n        /* \"#utility.yul\":13136:13139   */\n      dup3\n        /* \"#utility.yul\":13047:13140   */\n      tag_256\n      jump\t// in\n    tag_401:\n        /* \"#utility.yul\":13165:13167   */\n      0x20\n        /* \"#utility.yul\":13160:13163   */\n      dup3\n        /* \"#utility.yul\":13156:13168   */\n      add\n        /* \"#utility.yul\":13149:13168   */\n      swap1\n      pop\n        /* \"#utility.yul\":12808:13174   */\n      swap2\n      swap1\n      pop\n      jump\t// out\n        /* \"#utility.yul\":13180:13599   */\n    tag_160:\n        /* \"#utility.yul\":13346:13350   */\n      0x00\n        /* \"#utility.yul\":13384:13386   */\n      0x20\n        /* \"#utility.yul\":13373:13382   */\n      dup3\n        /* \"#utility.yul\":13369:13387   */\n      add\n        /* \"#utility.yul\":13361:13387   */\n      swap1\n      pop\n        /* \"#utility.yul\":13433:13442   */\n      dup2\n        /* \"#utility.yul\":13427:13431   */\n      dup2\n        /* \"#utility.yul\":13423:13443   */\n      sub\n        /* \"#utility.yul\":13419:13420   */\n      0x00\n        /* \"#utility.yul\":13408:13417   */\n      dup4\n        /* \"#utility.yul\":13404:13421   */\n      add\n        /* \"#utility.yul\":13397:13444   */\n      mstore\n        /* \"#utility.yul\":13461:13592   */\n      tag_403\n        /* \"#utility.yul\":13587:13591   */\n      dup2\n        /* \"#utility.yul\":13461:13592   */\n      tag_257\n      jump\t// in\n    tag_403:\n        /* \"#utility.yul\":13453:13592   */\n      swap1\n      pop\n        /* \"#utility.yul\":13180:13599   */\n      swap2\n      swap1\n      pop\n      jump\t// out\n        /* \"#utility.yul\":13605:13779   */\n    tag_258:\n        /* \"#utility.yul\":13745:13771   */\n      0x4552432d333634333a20416c72656164792073746f7265640000000000000000\n        /* \"#utility.yul\":13741:13742   */\n      0x00\n        /* \"#utility.yul\":13733:13739   */\n      dup3\n        /* \"#utility.yul\":13729:13743   */\n      add\n        /* \"#utility.yul\":13722:13772   */\n      mstore\n        /* \"#utility.yul\":13605:13779   */\n      pop\n      jump\t// out\n        /* \"#utility.yul\":13785:14151   */\n    tag_259:\n        /* \"#utility.yul\":13927:13930   */\n      0x00\n        /* \"#utility.yul\":13948:14015   */\n      tag_406\n        /* \"#utility.yul\":14012:14014   */\n      0x18\n        /* \"#utility.yul\":14007:14010   */\n      dup4\n        /* \"#utility.yul\":13948:14015   */\n      tag_249\n      jump\t// in\n    tag_406:\n        /* \"#utility.yul\":13941:14015   */\n      swap2\n      pop\n        /* \"#utility.yul\":14024:14117   */\n      tag_407\n        /* \"#utility.yul\":14113:14116   */\n      dup3\n        /* \"#utility.yul\":14024:14117   */\n      tag_258\n      jump\t// in\n    tag_407:\n        /* \"#utility.yul\":14142:14144   */\n      0x20\n        /* \"#utility.yul\":14137:14140   */\n      dup3\n        /* \"#utility.yul\":14133:14145   */\n      add\n        /* \"#utility.yul\":14126:14145   */\n      swap1\n      pop\n        /* \"#utility.yul\":13785:14151   */\n      swap2\n      swap1\n      pop\n      jump\t// out\n        /* \"#utility.yul\":14157:14576   */\n    tag_169:\n        /* \"#utility.yul\":14323:14327   */\n      0x00\n        /* \"#utility.yul\":14361:14363   */\n      0x20\n        /* \"#utility.yul\":14350:14359   */\n      dup3\n        /* \"#utility.yul\":14346:14364   */\n      add\n        /* \"#utility.yul\":14338:14364   */\n      swap1\n      pop\n        /* \"#utility.yul\":14410:14419   */\n      dup2\n        /* \"#utility.yul\":14404:14408   */\n      dup2\n        /* \"#utility.yul\":14400:14420   */\n      sub\n        /* \"#utility.yul\":14396:14397   */\n      0x00\n        /* \"#utility.yul\":14385:14394   */\n      dup4\n        /* \"#utility.yul\":14381:14398   */\n      add\n        /* \"#utility.yul\":14374:14421   */\n      mstore\n        /* \"#utility.yul\":14438:14569   */\n      tag_409\n        /* \"#utility.yul\":14564:14568   */\n      dup2\n        /* \"#utility.yul\":14438:14569   */\n      tag_259\n      jump\t// in\n    tag_409:\n        /* \"#utility.yul\":14430:14569   */\n      swap1\n      pop\n        /* \"#utility.yul\":14157:14576   */\n      swap2\n      swap1\n      pop\n      jump\t// out\n        /* \"#utility.yul\":14582:14700   */\n    tag_260:\n        /* \"#utility.yul\":14669:14693   */\n      tag_411\n        /* \"#utility.yul\":14687:14692   */\n      dup2\n        /* \"#utility.yul\":14669:14693   */\n      tag_227\n      jump\t// in\n    tag_411:\n        /* \"#utility.yul\":14664:14667   */\n      dup3\n        /* \"#utility.yul\":14657:14694   */\n      mstore\n        /* \"#utility.yul\":14582:14700   */\n      pop\n      pop\n      jump\t// out\n        /* \"#utility.yul\":14706:15038   */\n    tag_213:\n        /* \"#utility.yul\":14827:14831   */\n      0x00\n        /* \"#utility.yul\":14865:14867   */\n      0x40\n        /* \"#utility.yul\":14854:14863   */\n      dup3\n        /* \"#utility.yul\":14850:14868   */\n      add\n        /* \"#utility.yul\":14842:14868   */\n      swap1\n      pop\n        /* \"#utility.yul\":14878:14949   */\n      tag_413\n        /* \"#utility.yul\":14946:14947   */\n      0x00\n        /* \"#utility.yul\":14935:14944   */\n      dup4\n        /* \"#utility.yul\":14931:14948   */\n      add\n        /* \"#utility.yul\":14922:14928   */\n      dup6\n        /* \"#utility.yul\":14878:14949   */\n      tag_260\n      jump\t// in\n    tag_413:\n        /* \"#utility.yul\":14959:15031   */\n      tag_414\n        /* \"#utility.yul\":15027:15029   */\n      0x20\n        /* \"#utility.yul\":15016:15025   */\n      dup4\n        /* \"#utility.yul\":15012:15030   */\n      add\n        /* \"#utility.yul\":15003:15009   */\n      dup5\n        /* \"#utility.yul\":14959:15031   */\n      tag_223\n      jump\t// in\n    tag_414:\n        /* \"#utility.yul\":14706:15038   */\n      swap4\n      swap3\n      pop\n      pop\n      pop\n      jump\t// out\n\n    auxdata: 0xa2646970667358221220ccf190247472eac36c3d677d1a2b31336a1f85a2797c5f0f35fc73474735db3764736f6c63430008140033\n}\n",
				"bytecode": {
					"linkReferences": {},
					"object": "608060405234801562000010575f80fd5b50620000345f801b62000028620000c360201b60201c565b620000ca60201b60201c565b50620000787fcab5a0bfe0b79d2c4b1c2e02599fa044d115b7511f9659307cb42769509677095f1b6200006c620000c360201b60201c565b620000ca60201b60201c565b50620000bc7fb19546dff01e856fb3f010c267a7b1c60363cf8a4664e21cc89c26224620214e5f1b620000b0620000c360201b60201c565b620000ca60201b60201c565b5062000228565b5f33905090565b5f620000dd8383620001c560201b60201c565b620001bb5760015f808581526020019081526020015f205f015f8473ffffffffffffffffffffffffffffffffffffffff1673ffffffffffffffffffffffffffffffffffffffff1681526020019081526020015f205f6101000a81548160ff02191690831515021790555062000157620000c360201b60201c565b73ffffffffffffffffffffffffffffffffffffffff168273ffffffffffffffffffffffffffffffffffffffff16847f2f8788117e7eff1d82e926ec794901d17c78024a50270940304540a733656f0d60405160405180910390a460019050620001bf565b5f90505b92915050565b5f805f8481526020019081526020015f205f015f8373ffffffffffffffffffffffffffffffffffffffff1673ffffffffffffffffffffffffffffffffffffffff1681526020019081526020015f205f9054906101000a900460ff16905092915050565b611f9f80620002365f395ff3fe608060405234801561000f575f80fd5b5060043610610114575f3560e01c806397a012f7116100a0578063bf9eb9591161006f578063bf9eb959146102ec578063cf191bcd1461030a578063d547741f14610326578063e58378bb14610342578063e805cf861461036057610114565b806397a012f71461027a5780639f3418d514610296578063a217fddf146102b2578063a53410dd146102d057610114565b806336568abe116100e757806336568abe146101b2578063690a49f9146101ce578063727e13bc146101ea5780637988d3a51461021a57806391d148541461024a57610114565b806301ffc9a71461011857806322459e1814610148578063248a9ca3146101665780632f2ff15d14610196575b5f80fd5b610132600480360381019061012d9190611868565b61037c565b60405161013f91906118ad565b60405180910390f35b6101506103f5565b60405161015d91906118de565b60405180910390f35b610180600480360381019061017b9190611921565b61041b565b60405161018d91906118de565b60405180910390f35b6101b060048036038101906101ab91906119a6565b610437565b005b6101cc60048036038101906101c791906119a6565b610459565b005b6101e860048036038101906101e391906119e4565b6104d4565b005b61020460048036038101906101ff91906119e4565b610642565b6040516102119190611a2b565b60405180910390f35b610234600480360381019061022f91906119e4565b610698565b6040516102419190611a9f565b60405180910390f35b610264600480360381019061025f91906119a6565b6106ff565b60405161027191906118ad565b60405180910390f35b610294600480360381019061028f91906119e4565b610762565b005b6102b060048036038101906102ab9190611ae2565b610a2f565b005b6102ba610c3c565b6040516102c791906118de565b60405180910390f35b6102ea60048036038101906102e59190611b5b565b610c42565b005b6102f4610f17565b6040516103019190611c62565b60405180910390f35b610324600480360381019061031f91906119e4565b610fa2565b005b610340600480360381019061033b91906119a6565b611242565b005b61034a611264565b60405161035791906118de565b60405180910390f35b61037a60048036038101906103759190611c82565b61128a565b005b5f7f7965db0b000000000000000000000000000000000000000000000000000000007bffffffffffffffffffffffffffffffffffffffffffffffffffffffff1916827bffffffffffffffffffffffffffffffffffffffffffffffffffffffff191614806103ee57506103ed82611568565b5b9050919050565b7fcab5a0bfe0b79d2c4b1c2e02599fa044d115b7511f9659307cb42769509677095f1b81565b5f805f8381526020019081526020015f20600101549050919050565b6104408261041b565b610449816115d1565b61045383836115e5565b50505050565b6104616116ce565b73ffffffffffffffffffffffffffffffffffffffff168173ffffffffffffffffffffffffffffffffffffffff16146104c5576040517f6697b23200000000000000000000000000000000000000000000000000000000815260040160405180910390fd5b6104cf82826116d5565b505050565b7fb19546dff01e856fb3f010c267a7b1c60363cf8a4664e21cc89c26224620214e5f1b610500816115d1565b5f73ffffffffffffffffffffffffffffffffffffffff168273ffffffffffffffffffffffffffffffffffffffff160361056e576040517f08c379a000000000000000000000000000000000000000000000000000000000815260040161056590611d1a565b60405180910390fd5b61059a7fcab5a0bfe0b79d2c4b1c2e02599fa044d115b7511f9659307cb42769509677095f1b836115e5565b50600282908060018154018082558091505060019003905f5260205f20015f9091909190916101000a81548173ffffffffffffffffffffffffffffffffffffffff021916908373ffffffffffffffffffffffffffffffffffffffff1602179055508173ffffffffffffffffffffffffffffffffffffffff167f500c250171aa20e861b680f93502547b9d436eda7d4c537fc360db6e0c6eedfb60405160405180910390a25050565b5f60015f8373ffffffffffffffffffffffffffffffffffffffff1673ffffffffffffffffffffffffffffffffffffffff1681526020019081526020015f205f0160149054906101000a900461ffff169050919050565b5f60015f8373ffffffffffffffffffffffffffffffffffffffff1673ffffffffffffffffffffffffffffffffffffffff1681526020019081526020015f205f015f9054906101000a900473ffffffffffffffffffffffffffffffffffffffff169050919050565b5f805f8481526020019081526020015f205f015f8373ffffffffffffffffffffffffffffffffffffffff1673ffffffffffffffffffffffffffffffffffffffff1681526020019081526020015f205f9054906101000a900460ff16905092915050565b7fb19546dff01e856fb3f010c267a7b1c60363cf8a4664e21cc89c26224620214e5f1b61078e816115d1565b5f73ffffffffffffffffffffffffffffffffffffffff168273ffffffffffffffffffffffffffffffffffffffff16036107fc576040517f08c379a00000000000000000000000000000000000000000000000000000000081526004016107f390611d1a565b60405180910390fd5b5f60028054905003610843576040517f08c379a000000000000000000000000000000000000000000000000000000000815260040161083a90611d82565b60405180910390fd5b5f60028054905090505f5b818110156109b9578373ffffffffffffffffffffffffffffffffffffffff166002828154811061088157610880611da0565b5b905f5260205f20015f9054906101000a900473ffffffffffffffffffffffffffffffffffffffff1673ffffffffffffffffffffffffffffffffffffffff16036109ae5760026001836108d39190611e03565b815481106108e4576108e3611da0565b5b905f5260205f20015f9054906101000a900473ffffffffffffffffffffffffffffffffffffffff16600282815481106109205761091f611da0565b5b905f5260205f20015f6101000a81548173ffffffffffffffffffffffffffffffffffffffff021916908373ffffffffffffffffffffffffffffffffffffffff160217905550600280548061097757610976611e36565b5b600190038181905f5260205f20015f6101000a81549073ffffffffffffffffffffffffffffffffffffffff021916905590556109b9565b80600101905061084e565b506109e67fcab5a0bfe0b79d2c4b1c2e02599fa044d115b7511f9659307cb42769509677095f1b846116d5565b508273ffffffffffffffffffffffffffffffffffffffff167f51f353eb5801583fdf2706e43c045b62fdf6b1566820b349390616363ecf72c960405160405180910390a2505050565b7fcab5a0bfe0b79d2c4b1c2e02599fa044d115b7511f9659307cb42769509677095f1b610a5b816115d1565b5f73ffffffffffffffffffffffffffffffffffffffff168373ffffffffffffffffffffffffffffffffffffffff1603610ac9576040517f08c379a0000000000000000000000000000000000000000000000000000000008152600401610ac090611d1a565b60405180910390fd5b5f73ffffffffffffffffffffffffffffffffffffffff1660015f8573ffffffffffffffffffffffffffffffffffffffff1673ffffffffffffffffffffffffffffffffffffffff1681526020019081526020015f205f015f9054906101000a900473ffffffffffffffffffffffffffffffffffffffff1673ffffffffffffffffffffffffffffffffffffffff1603610b95576040517f08c379a0000000000000000000000000000000000000000000000000000000008152600401610b8c90611ead565b60405180910390fd5b8160015f8573ffffffffffffffffffffffffffffffffffffffff1673ffffffffffffffffffffffffffffffffffffffff1681526020019081526020015f205f0160146101000a81548161ffff021916908361ffff1602179055508161ffff168373ffffffffffffffffffffffffffffffffffffffff167f20965fcdc6eed7ae398065b40ece4e732ba667992ca819fc54e80e9f2047c4cf60405160405180910390a3505050565b5f801b81565b7fcab5a0bfe0b79d2c4b1c2e02599fa044d115b7511f9659307cb42769509677095f1b610c6e816115d1565b5f73ffffffffffffffffffffffffffffffffffffffff168473ffffffffffffffffffffffffffffffffffffffff1614158015610cd657505f73ffffffffffffffffffffffffffffffffffffffff168373ffffffffffffffffffffffffffffffffffffffff1614155b610d15576040517f08c379a0000000000000000000000000000000000000000000000000000000008152600401610d0c90611d1a565b60405180910390fd5b5f73ffffffffffffffffffffffffffffffffffffffff1660015f8673ffffffffffffffffffffffffffffffffffffffff1673ffffffffffffffffffffffffffffffffffffffff1681526020019081526020015f205f015f9054906101000a900473ffffffffffffffffffffffffffffffffffffffff1673ffffffffffffffffffffffffffffffffffffffff1614610de1576040517f08c379a0000000000000000000000000000000000000000000000000000000008152600401610dd890611f15565b60405180910390fd5b8260015f8673ffffffffffffffffffffffffffffffffffffffff1673ffffffffffffffffffffffffffffffffffffffff1681526020019081526020015f205f015f6101000a81548173ffffffffffffffffffffffffffffffffffffffff021916908373ffffffffffffffffffffffffffffffffffffffff1602179055508160015f8673ffffffffffffffffffffffffffffffffffffffff1673ffffffffffffffffffffffffffffffffffffffff1681526020019081526020015f205f0160146101000a81548161ffff021916908361ffff1602179055508273ffffffffffffffffffffffffffffffffffffffff168473ffffffffffffffffffffffffffffffffffffffff167e30dea7e9c9afaa2e3c9810f2fc9b5181f1bad74ca5a8db85f746a33585e74760405160405180910390a350505050565b60606002805480602002602001604051908101604052809291908181526020018280548015610f9857602002820191905f5260205f20905b815f9054906101000a900473ffffffffffffffffffffffffffffffffffffffff1673ffffffffffffffffffffffffffffffffffffffff1681526020019060010190808311610f4f575b5050505050905090565b7fcab5a0bfe0b79d2c4b1c2e02599fa044d115b7511f9659307cb42769509677095f1b610fce816115d1565b5f73ffffffffffffffffffffffffffffffffffffffff168273ffffffffffffffffffffffffffffffffffffffff160361103c576040517f08c379a000000000000000000000000000000000000000000000000000000000815260040161103390611d1a565b60405180910390fd5b5f73ffffffffffffffffffffffffffffffffffffffff1660015f8473ffffffffffffffffffffffffffffffffffffffff1673ffffffffffffffffffffffffffffffffffffffff1681526020019081526020015f205f015f9054906101000a900473ffffffffffffffffffffffffffffffffffffffff1673ffffffffffffffffffffffffffffffffffffffff1603611108576040517f08c379a00000000000000000000000000000000000000000000000000000000081526004016110ff90611ead565b60405180910390fd5b5f60015f8473ffffffffffffffffffffffffffffffffffffffff1673ffffffffffffffffffffffffffffffffffffffff1681526020019081526020015f205f015f9054906101000a900473ffffffffffffffffffffffffffffffffffffffff16905060015f8473ffffffffffffffffffffffffffffffffffffffff1673ffffffffffffffffffffffffffffffffffffffff1681526020019081526020015f205f8082015f6101000a81549073ffffffffffffffffffffffffffffffffffffffff02191690555f820160146101000a81549061ffff021916905550508073ffffffffffffffffffffffffffffffffffffffff168373ffffffffffffffffffffffffffffffffffffffff167fca6a4c3370b859312246e7f086284076e557997e10d856b716c23ab67067790b60405160405180910390a3505050565b61124b8261041b565b611254816115d1565b61125e83836116d5565b50505050565b7fb19546dff01e856fb3f010c267a7b1c60363cf8a4664e21cc89c26224620214e5f1b81565b7fcab5a0bfe0b79d2c4b1c2e02599fa044d115b7511f9659307cb42769509677095f1b6112b6816115d1565b5f73ffffffffffffffffffffffffffffffffffffffff168373ffffffffffffffffffffffffffffffffffffffff161415801561131e57505f73ffffffffffffffffffffffffffffffffffffffff168273ffffffffffffffffffffffffffffffffffffffff1614155b61135d576040517f08c379a000000000000000000000000000000000000000000000000000000000815260040161135490611d1a565b60405180910390fd5b5f73ffffffffffffffffffffffffffffffffffffffff1660015f8573ffffffffffffffffffffffffffffffffffffffff1673ffffffffffffffffffffffffffffffffffffffff1681526020019081526020015f205f015f9054906101000a900473ffffffffffffffffffffffffffffffffffffffff1673ffffffffffffffffffffffffffffffffffffffff1603611429576040517f08c379a000000000000000000000000000000000000000000000000000000000815260040161142090611ead565b60405180910390fd5b5f60015f8573ffffffffffffffffffffffffffffffffffffffff1673ffffffffffffffffffffffffffffffffffffffff1681526020019081526020015f205f015f9054906101000a900473ffffffffffffffffffffffffffffffffffffffff1690508260015f8673ffffffffffffffffffffffffffffffffffffffff1673ffffffffffffffffffffffffffffffffffffffff1681526020019081526020015f205f015f6101000a81548173ffffffffffffffffffffffffffffffffffffffff021916908373ffffffffffffffffffffffffffffffffffffffff1602179055508273ffffffffffffffffffffffffffffffffffffffff168173ffffffffffffffffffffffffffffffffffffffff167f556ce885dfcea52155c773f1ed2e58781c51945c13030ab8f793c61f51d1b80860405160405180910390a350505050565b5f7f01ffc9a7000000000000000000000000000000000000000000000000000000007bffffffffffffffffffffffffffffffffffffffffffffffffffffffff1916827bffffffffffffffffffffffffffffffffffffffffffffffffffffffff1916149050919050565b6115e2816115dd6116ce565b6117be565b50565b5f6115f083836106ff565b6116c45760015f808581526020019081526020015f205f015f8473ffffffffffffffffffffffffffffffffffffffff1673ffffffffffffffffffffffffffffffffffffffff1681526020019081526020015f205f6101000a81548160ff0219169083151502179055506116616116ce565b73ffffffffffffffffffffffffffffffffffffffff168273ffffffffffffffffffffffffffffffffffffffff16847f2f8788117e7eff1d82e926ec794901d17c78024a50270940304540a733656f0d60405160405180910390a4600190506116c8565b5f90505b92915050565b5f33905090565b5f6116e083836106ff565b156117b4575f805f8581526020019081526020015f205f015f8473ffffffffffffffffffffffffffffffffffffffff1673ffffffffffffffffffffffffffffffffffffffff1681526020019081526020015f205f6101000a81548160ff0219169083151502179055506117516116ce565b73ffffffffffffffffffffffffffffffffffffffff168273ffffffffffffffffffffffffffffffffffffffff16847ff6391f5c32d9c69d2a47ea670b442974b53935d1edc7fd64eb21e047a839171b60405160405180910390a4600190506117b8565b5f90505b92915050565b6117c882826106ff565b61180b5780826040517fe2517d3f000000000000000000000000000000000000000000000000000000008152600401611802929190611f42565b60405180910390fd5b5050565b5f80fd5b5f7fffffffff0000000000000000000000000000000000000000000000000000000082169050919050565b61184781611813565b8114611851575f80fd5b50565b5f813590506118628161183e565b92915050565b5f6020828403121561187d5761187c61180f565b5b5f61188a84828501611854565b91505092915050565b5f8115159050919050565b6118a781611893565b82525050565b5f6020820190506118c05f83018461189e565b92915050565b5f819050919050565b6118d8816118c6565b82525050565b5f6020820190506118f15f8301846118cf565b92915050565b611900816118c6565b811461190a575f80fd5b50565b5f8135905061191b816118f7565b92915050565b5f602082840312156119365761193561180f565b5b5f6119438482850161190d565b91505092915050565b5f73ffffffffffffffffffffffffffffffffffffffff82169050919050565b5f6119758261194c565b9050919050565b6119858161196b565b811461198f575f80fd5b50565b5f813590506119a08161197c565b92915050565b5f80604083850312156119bc576119bb61180f565b5b5f6119c98582860161190d565b92505060206119da85828601611992565b9150509250929050565b5f602082840312156119f9576119f861180f565b5b5f611a0684828501611992565b91505092915050565b5f61ffff82169050919050565b611a2581611a0f565b82525050565b5f602082019050611a3e5f830184611a1c565b92915050565b5f819050919050565b5f611a67611a62611a5d8461194c565b611a44565b61194c565b9050919050565b5f611a7882611a4d565b9050919050565b5f611a8982611a6e565b9050919050565b611a9981611a7f565b82525050565b5f602082019050611ab25f830184611a90565b92915050565b611ac181611a0f565b8114611acb575f80fd5b50565b5f81359050611adc81611ab8565b92915050565b5f8060408385031215611af857611af761180f565b5b5f611b0585828601611992565b9250506020611b1685828601611ace565b9150509250929050565b5f611b2a8261196b565b9050919050565b611b3a81611b20565b8114611b44575f80fd5b50565b5f81359050611b5581611b31565b92915050565b5f805f60608486031215611b7257611b7161180f565b5b5f611b7f86828701611992565b9350506020611b9086828701611b47565b9250506040611ba186828701611ace565b9150509250925092565b5f81519050919050565b5f82825260208201905092915050565b5f819050602082019050919050565b611bdd8161196b565b82525050565b5f611bee8383611bd4565b60208301905092915050565b5f602082019050919050565b5f611c1082611bab565b611c1a8185611bb5565b9350611c2583611bc5565b805f5b83811015611c55578151611c3c8882611be3565b9750611c4783611bfa565b925050600181019050611c28565b5085935050505092915050565b5f6020820190508181035f830152611c7a8184611c06565b905092915050565b5f8060408385031215611c9857611c9761180f565b5b5f611ca585828601611992565b9250506020611cb685828601611b47565b9150509250929050565b5f82825260208201905092915050565b7f4552432d333634333a20496e76616c6964207a65726f206164647265737300005f82015250565b5f611d04601e83611cc0565b9150611d0f82611cd0565b602082019050919050565b5f6020820190508181035f830152611d3181611cf8565b9050919050565b7f4552432d333634333a204e6f206964656e7469747920726567697374727900005f82015250565b5f611d6c601e83611cc0565b9150611d7782611d38565b602082019050919050565b5f6020820190508181035f830152611d9981611d60565b9050919050565b7f4e487b71000000000000000000000000000000000000000000000000000000005f52603260045260245ffd5b5f819050919050565b7f4e487b71000000000000000000000000000000000000000000000000000000005f52601160045260245ffd5b5f611e0d82611dcd565b9150611e1883611dcd565b9250828203905081811115611e3057611e2f611dd6565b5b92915050565b7f4e487b71000000000000000000000000000000000000000000000000000000005f52603160045260245ffd5b7f4552432d333634333a2041646472657373206e6f742073746f726564000000005f82015250565b5f611e97601c83611cc0565b9150611ea282611e63565b602082019050919050565b5f6020820190508181035f830152611ec481611e8b565b9050919050565b7f4552432d333634333a20416c72656164792073746f72656400000000000000005f82015250565b5f611eff601883611cc0565b9150611f0a82611ecb565b602082019050919050565b5f6020820190508181035f830152611f2c81611ef3565b9050919050565b611f3c8161196b565b82525050565b5f604082019050611f555f830185611f33565b611f6260208301846118cf565b939250505056fea2646970667358221220ccf190247472eac36c3d677d1a2b31336a1f85a2797c5f0f35fc73474735db3764736f6c63430008140033",
					"opcodes": "PUSH1 0x80 PUSH1 0x40 MSTORE CALLVALUE DUP1 ISZERO PUSH3 0x10 JUMPI PUSH0 DUP1 REVERT JUMPDEST POP PUSH3 0x34 PUSH0 DUP1 SHL PUSH3 0x28 PUSH3 0xC3 PUSH1 0x20 SHL PUSH1 0x20 SHR JUMP JUMPDEST PUSH3 0xCA PUSH1 0x20 SHL PUSH1 0x20 SHR JUMP JUMPDEST POP PUSH3 0x78 PUSH32 0xCAB5A0BFE0B79D2C4B1C2E02599FA044D115B7511F9659307CB4276950967709 PUSH0 SHL PUSH3 0x6C PUSH3 0xC3 PUSH1 0x20 SHL PUSH1 0x20 SHR JUMP JUMPDEST PUSH3 0xCA PUSH1 0x20 SHL PUSH1 0x20 SHR JUMP JUMPDEST POP PUSH3 0xBC PUSH32 0xB19546DFF01E856FB3F010C267A7B1C60363CF8A4664E21CC89C26224620214E PUSH0 SHL PUSH3 0xB0 PUSH3 0xC3 PUSH1 0x20 SHL PUSH1 0x20 SHR JUMP JUMPDEST PUSH3 0xCA PUSH1 0x20 SHL PUSH1 0x20 SHR JUMP JUMPDEST POP PUSH3 0x228 JUMP JUMPDEST PUSH0 CALLER SWAP1 POP SWAP1 JUMP JUMPDEST PUSH0 PUSH3 0xDD DUP4 DUP4 PUSH3 0x1C5 PUSH1 0x20 SHL PUSH1 0x20 SHR JUMP JUMPDEST PUSH3 0x1BB JUMPI PUSH1 0x1 PUSH0 DUP1 DUP6 DUP2 MSTORE PUSH1 0x20 ADD SWAP1 DUP2 MSTORE PUSH1 0x20 ADD PUSH0 KECCAK256 PUSH0 ADD PUSH0 DUP5 PUSH20 0xFFFFFFFFFFFFFFFFFFFFFFFFFFFFFFFFFFFFFFFF AND PUSH20 0xFFFFFFFFFFFFFFFFFFFFFFFFFFFFFFFFFFFFFFFF AND DUP2 MSTORE PUSH1 0x20 ADD SWAP1 DUP2 MSTORE PUSH1 0x20 ADD PUSH0 KECCAK256 PUSH0 PUSH2 0x100 EXP DUP2 SLOAD DUP2 PUSH1 0xFF MUL NOT AND SWAP1 DUP4 ISZERO ISZERO MUL OR SWAP1 SSTORE POP PUSH3 0x157 PUSH3 0xC3 PUSH1 0x20 SHL PUSH1 0x20 SHR JUMP JUMPDEST PUSH20 0xFFFFFFFFFFFFFFFFFFFFFFFFFFFFFFFFFFFFFFFF AND DUP3 PUSH20 0xFFFFFFFFFFFFFFFFFFFFFFFFFFFFFFFFFFFFFFFF AND DUP5 PUSH32 0x2F8788117E7EFF1D82E926EC794901D17C78024A50270940304540A733656F0D PUSH1 0x40 MLOAD PUSH1 0x40 MLOAD DUP1 SWAP2 SUB SWAP1 LOG4 PUSH1 0x1 SWAP1 POP PUSH3 0x1BF JUMP JUMPDEST PUSH0 SWAP1 POP JUMPDEST SWAP3 SWAP2 POP POP JUMP JUMPDEST PUSH0 DUP1 PUSH0 DUP5 DUP2 MSTORE PUSH1 0x20 ADD SWAP1 DUP2 MSTORE PUSH1 0x20 ADD PUSH0 KECCAK256 PUSH0 ADD PUSH0 DUP4 PUSH20 0xFFFFFFFFFFFFFFFFFFFFFFFFFFFFFFFFFFFFFFFF AND PUSH20 0xFFFFFFFFFFFFFFFFFFFFFFFFFFFFFFFFFFFFFFFF AND DUP2 MSTORE PUSH1 0x20 ADD SWAP1 DUP2 MSTORE PUSH1 0x20 ADD PUSH0 KECCAK256 PUSH0 SWAP1 SLOAD SWAP1 PUSH2 0x100 EXP SWAP1 DIV PUSH1 0xFF AND SWAP1 POP SWAP3 SWAP2 POP POP JUMP JUMPDEST PUSH2 0x1F9F DUP1 PUSH3 0x236 PUSH0 CODECOPY PUSH0 RETURN INVALID PUSH1 0x80 PUSH1 0x40 MSTORE CALLVALUE DUP1 ISZERO PUSH2 0xF JUMPI PUSH0 DUP1 REVERT JUMPDEST POP PUSH1 0x4 CALLDATASIZE LT PUSH2 0x114 JUMPI PUSH0 CALLDATALOAD PUSH1 0xE0 SHR DUP1 PUSH4 0x97A012F7 GT PUSH2 0xA0 JUMPI DUP1 PUSH4 0xBF9EB959 GT PUSH2 0x6F JUMPI DUP1 PUSH4 0xBF9EB959 EQ PUSH2 0x2EC JUMPI DUP1 PUSH4 0xCF191BCD EQ PUSH2 0x30A JUMPI DUP1 PUSH4 0xD547741F EQ PUSH2 0x326 JUMPI DUP1 PUSH4 0xE58378BB EQ PUSH2 0x342 JUMPI DUP1 PUSH4 0xE805CF86 EQ PUSH2 0x360 JUMPI PUSH2 0x114 JUMP JUMPDEST DUP1 PUSH4 0x97A012F7 EQ PUSH2 0x27A JUMPI DUP1 PUSH4 0x9F3418D5 EQ PUSH2 0x296 JUMPI DUP1 PUSH4 0xA217FDDF EQ PUSH2 0x2B2 JUMPI DUP1 PUSH4 0xA53410DD EQ PUSH2 0x2D0 JUMPI PUSH2 0x114 JUMP JUMPDEST DUP1 PUSH4 0x36568ABE GT PUSH2 0xE7 JUMPI DUP1 PUSH4 0x36568ABE EQ PUSH2 0x1B2 JUMPI DUP1 PUSH4 0x690A49F9 EQ PUSH2 0x1CE JUMPI DUP1 PUSH4 0x727E13BC EQ PUSH2 0x1EA JUMPI DUP1 PUSH4 0x7988D3A5 EQ PUSH2 0x21A JUMPI DUP1 PUSH4 0x91D14854 EQ PUSH2 0x24A JUMPI PUSH2 0x114 JUMP JUMPDEST DUP1 PUSH4 0x1FFC9A7 EQ PUSH2 0x118 JUMPI DUP1 PUSH4 0x22459E18 EQ PUSH2 0x148 JUMPI DUP1 PUSH4 0x248A9CA3 EQ PUSH2 0x166 JUMPI DUP1 PUSH4 0x2F2FF15D EQ PUSH2 0x196 JUMPI JUMPDEST PUSH0 DUP1 REVERT JUMPDEST PUSH2 0x132 PUSH1 0x4 DUP1 CALLDATASIZE SUB DUP2 ADD SWAP1 PUSH2 0x12D SWAP2 SWAP1 PUSH2 0x1868 JUMP JUMPDEST PUSH2 0x37C JUMP JUMPDEST PUSH1 0x40 MLOAD PUSH2 0x13F SWAP2 SWAP1 PUSH2 0x18AD JUMP JUMPDEST PUSH1 0x40 MLOAD DUP1 SWAP2 SUB SWAP1 RETURN JUMPDEST PUSH2 0x150 PUSH2 0x3F5 JUMP JUMPDEST PUSH1 0x40 MLOAD PUSH2 0x15D SWAP2 SWAP1 PUSH2 0x18DE JUMP JUMPDEST PUSH1 0x40 MLOAD DUP1 SWAP2 SUB SWAP1 RETURN JUMPDEST PUSH2 0x180 PUSH1 0x4 DUP1 CALLDATASIZE SUB DUP2 ADD SWAP1 PUSH2 0x17B SWAP2 SWAP1 PUSH2 0x1921 JUMP JUMPDEST PUSH2 0x41B JUMP JUMPDEST PUSH1 0x40 MLOAD PUSH2 0x18D SWAP2 SWAP1 PUSH2 0x18DE JUMP JUMPDEST PUSH1 0x40 MLOAD DUP1 SWAP2 SUB SWAP1 RETURN JUMPDEST PUSH2 0x1B0 PUSH1 0x4 DUP1 CALLDATASIZE SUB DUP2 ADD SWAP1 PUSH2 0x1AB SWAP2 SWAP1 PUSH2 0x19A6 JUMP JUMPDEST PUSH2 0x437 JUMP JUMPDEST STOP JUMPDEST PUSH2 0x1CC PUSH1 0x4 DUP1 CALLDATASIZE SUB DUP2 ADD SWAP1 PUSH2 0x1C7 SWAP2 SWAP1 PUSH2 0x19A6 JUMP JUMPDEST PUSH2 0x459 JUMP JUMPDEST STOP JUMPDEST PUSH2 0x1E8 PUSH1 0x4 DUP1 CALLDATASIZE SUB DUP2 ADD SWAP1 PUSH2 0x1E3 SWAP2 SWAP1 PUSH2 0x19E4 JUMP JUMPDEST PUSH2 0x4D4 JUMP JUMPDEST STOP JUMPDEST PUSH2 0x204 PUSH1 0x4 DUP1 CALLDATASIZE SUB DUP2 ADD SWAP1 PUSH2 0x1FF SWAP2 SWAP1 PUSH2 0x19E4 JUMP JUMPDEST PUSH2 0x642 JUMP JUMPDEST PUSH1 0x40 MLOAD PUSH2 0x211 SWAP2 SWAP1 PUSH2 0x1A2B JUMP JUMPDEST PUSH1 0x40 MLOAD DUP1 SWAP2 SUB SWAP1 RETURN JUMPDEST PUSH2 0x234 PUSH1 0x4 DUP1 CALLDATASIZE SUB DUP2 ADD SWAP1 PUSH2 0x22F SWAP2 SWAP1 PUSH2 0x19E4 JUMP JUMPDEST PUSH2 0x698 JUMP JUMPDEST PUSH1 0x40 MLOAD PUSH2 0x241 SWAP2 SWAP1 PUSH2 0x1A9F JUMP JUMPDEST PUSH1 0x40 MLOAD DUP1 SWAP2 SUB SWAP1 RETURN JUMPDEST PUSH2 0x264 PUSH1 0x4 DUP1 CALLDATASIZE SUB DUP2 ADD SWAP1 PUSH2 0x25F SWAP2 SWAP1 PUSH2 0x19A6 JUMP JUMPDEST PUSH2 0x6FF JUMP JUMPDEST PUSH1 0x40 MLOAD PUSH2 0x271 SWAP2 SWAP1 PUSH2 0x18AD JUMP JUMPDEST PUSH1 0x40 MLOAD DUP1 SWAP2 SUB SWAP1 RETURN JUMPDEST PUSH2 0x294 PUSH1 0x4 DUP1 CALLDATASIZE SUB DUP2 ADD SWAP1 PUSH2 0x28F SWAP2 SWAP1 PUSH2 0x19E4 JUMP JUMPDEST PUSH2 0x762 JUMP JUMPDEST STOP JUMPDEST PUSH2 0x2B0 PUSH1 0x4 DUP1 CALLDATASIZE SUB DUP2 ADD SWAP1 PUSH2 0x2AB SWAP2 SWAP1 PUSH2 0x1AE2 JUMP JUMPDEST PUSH2 0xA2F JUMP JUMPDEST STOP JUMPDEST PUSH2 0x2BA PUSH2 0xC3C JUMP JUMPDEST PUSH1 0x40 MLOAD PUSH2 0x2C7 SWAP2 SWAP1 PUSH2 0x18DE JUMP JUMPDEST PUSH1 0x40 MLOAD DUP1 SWAP2 SUB SWAP1 RETURN JUMPDEST PUSH2 0x2EA PUSH1 0x4 DUP1 CALLDATASIZE SUB DUP2 ADD SWAP1 PUSH2 0x2E5 SWAP2 SWAP1 PUSH2 0x1B5B JUMP JUMPDEST PUSH2 0xC42 JUMP JUMPDEST STOP JUMPDEST PUSH2 0x2F4 PUSH2 0xF17 JUMP JUMPDEST PUSH1 0x40 MLOAD PUSH2 0x301 SWAP2 SWAP1 PUSH2 0x1C62 JUMP JUMPDEST PUSH1 0x40 MLOAD DUP1 SWAP2 SUB SWAP1 RETURN JUMPDEST PUSH2 0x324 PUSH1 0x4 DUP1 CALLDATASIZE SUB DUP2 ADD SWAP1 PUSH2 0x31F SWAP2 SWAP1 PUSH2 0x19E4 JUMP JUMPDEST PUSH2 0xFA2 JUMP JUMPDEST STOP JUMPDEST PUSH2 0x340 PUSH1 0x4 DUP1 CALLDATASIZE SUB DUP2 ADD SWAP1 PUSH2 0x33B SWAP2 SWAP1 PUSH2 0x19A6 JUMP JUMPDEST PUSH2 0x1242 JUMP JUMPDEST STOP JUMPDEST PUSH2 0x34A PUSH2 0x1264 JUMP JUMPDEST PUSH1 0x40 MLOAD PUSH2 0x357 SWAP2 SWAP1 PUSH2 0x18DE JUMP JUMPDEST PUSH1 0x40 MLOAD DUP1 SWAP2 SUB SWAP1 RETURN JUMPDEST PUSH2 0x37A PUSH1 0x4 DUP1 CALLDATASIZE SUB DUP2 ADD SWAP1 PUSH2 0x375 SWAP2 SWAP1 PUSH2 0x1C82 JUMP JUMPDEST PUSH2 0x128A JUMP JUMPDEST STOP JUMPDEST PUSH0 PUSH32 0x7965DB0B00000000000000000000000000000000000000000000000000000000 PUSH28 0xFFFFFFFFFFFFFFFFFFFFFFFFFFFFFFFFFFFFFFFFFFFFFFFFFFFFFFFF NOT AND DUP3 PUSH28 0xFFFFFFFFFFFFFFFFFFFFFFFFFFFFFFFFFFFFFFFFFFFFFFFFFFFFFFFF NOT AND EQ DUP1 PUSH2 0x3EE JUMPI POP PUSH2 0x3ED DUP3 PUSH2 0x1568 JUMP JUMPDEST JUMPDEST SWAP1 POP SWAP2 SWAP1 POP JUMP JUMPDEST PUSH32 0xCAB5A0BFE0B79D2C4B1C2E02599FA044D115B7511F9659307CB4276950967709 PUSH0 SHL DUP2 JUMP JUMPDEST PUSH0 DUP1 PUSH0 DUP4 DUP2 MSTORE PUSH1 0x20 ADD SWAP1 DUP2 MSTORE PUSH1 0x20 ADD PUSH0 KECCAK256 PUSH1 0x1 ADD SLOAD SWAP1 POP SWAP2 SWAP1 POP JUMP JUMPDEST PUSH2 0x440 DUP3 PUSH2 0x41B JUMP JUMPDEST PUSH2 0x449 DUP2 PUSH2 0x15D1 JUMP JUMPDEST PUSH2 0x453 DUP4 DUP4 PUSH2 0x15E5 JUMP JUMPDEST POP POP POP POP JUMP JUMPDEST PUSH2 0x461 PUSH2 0x16CE JUMP JUMPDEST PUSH20 0xFFFFFFFFFFFFFFFFFFFFFFFFFFFFFFFFFFFFFFFF AND DUP2 PUSH20 0xFFFFFFFFFFFFFFFFFFFFFFFFFFFFFFFFFFFFFFFF AND EQ PUSH2 0x4C5 JUMPI PUSH1 0x40 MLOAD PUSH32 0x6697B23200000000000000000000000000000000000000000000000000000000 DUP2 MSTORE PUSH1 0x4 ADD PUSH1 0x40 MLOAD DUP1 SWAP2 SUB SWAP1 REVERT JUMPDEST PUSH2 0x4CF DUP3 DUP3 PUSH2 0x16D5 JUMP JUMPDEST POP POP POP JUMP JUMPDEST PUSH32 0xB19546DFF01E856FB3F010C267A7B1C60363CF8A4664E21CC89C26224620214E PUSH0 SHL PUSH2 0x500 DUP2 PUSH2 0x15D1 JUMP JUMPDEST PUSH0 PUSH20 0xFFFFFFFFFFFFFFFFFFFFFFFFFFFFFFFFFFFFFFFF AND DUP3 PUSH20 0xFFFFFFFFFFFFFFFFFFFFFFFFFFFFFFFFFFFFFFFF AND SUB PUSH2 0x56E JUMPI PUSH1 0x40 MLOAD PUSH32 0x8C379A000000000000000000000000000000000000000000000000000000000 DUP2 MSTORE PUSH1 0x4 ADD PUSH2 0x565 SWAP1 PUSH2 0x1D1A JUMP JUMPDEST PUSH1 0x40 MLOAD DUP1 SWAP2 SUB SWAP1 REVERT JUMPDEST PUSH2 0x59A PUSH32 0xCAB5A0BFE0B79D2C4B1C2E02599FA044D115B7511F9659307CB4276950967709 PUSH0 SHL DUP4 PUSH2 0x15E5 JUMP JUMPDEST POP PUSH1 0x2 DUP3 SWAP1 DUP1 PUSH1 0x1 DUP2 SLOAD ADD DUP1 DUP3 SSTORE DUP1 SWAP2 POP POP PUSH1 0x1 SWAP1 SUB SWAP1 PUSH0 MSTORE PUSH1 0x20 PUSH0 KECCAK256 ADD PUSH0 SWAP1 SWAP2 SWAP1 SWAP2 SWAP1 SWAP2 PUSH2 0x100 EXP DUP2 SLOAD DUP2 PUSH20 0xFFFFFFFFFFFFFFFFFFFFFFFFFFFFFFFFFFFFFFFF MUL NOT AND SWAP1 DUP4 PUSH20 0xFFFFFFFFFFFFFFFFFFFFFFFFFFFFFFFFFFFFFFFF AND MUL OR SWAP1 SSTORE POP DUP2 PUSH20 0xFFFFFFFFFFFFFFFFFFFFFFFFFFFFFFFFFFFFFFFF AND PUSH32 0x500C250171AA20E861B680F93502547B9D436EDA7D4C537FC360DB6E0C6EEDFB PUSH1 0x40 MLOAD PUSH1 0x40 MLOAD DUP1 SWAP2 SUB SWAP1 LOG2 POP POP JUMP JUMPDEST PUSH0 PUSH1 0x1 PUSH0 DUP4 PUSH20 0xFFFFFFFFFFFFFFFFFFFFFFFFFFFFFFFFFFFFFFFF AND PUSH20 0xFFFFFFFFFFFFFFFFFFFFFFFFFFFFFFFFFFFFFFFF AND DUP2 MSTORE PUSH1 0x20 ADD SWAP1 DUP2 MSTORE PUSH1 0x20 ADD PUSH0 KECCAK256 PUSH0 ADD PUSH1 0x14 SWAP1 SLOAD SWAP1 PUSH2 0x100 EXP SWAP1 DIV PUSH2 0xFFFF AND SWAP1 POP SWAP2 SWAP1 POP JUMP JUMPDEST PUSH0 PUSH1 0x1 PUSH0 DUP4 PUSH20 0xFFFFFFFFFFFFFFFFFFFFFFFFFFFFFFFFFFFFFFFF AND PUSH20 0xFFFFFFFFFFFFFFFFFFFFFFFFFFFFFFFFFFFFFFFF AND DUP2 MSTORE PUSH1 0x20 ADD SWAP1 DUP2 MSTORE PUSH1 0x20 ADD PUSH0 KECCAK256 PUSH0 ADD PUSH0 SWAP1 SLOAD SWAP1 PUSH2 0x100 EXP SWAP1 DIV PUSH20 0xFFFFFFFFFFFFFFFFFFFFFFFFFFFFFFFFFFFFFFFF AND SWAP1 POP SWAP2 SWAP1 POP JUMP JUMPDEST PUSH0 DUP1 PUSH0 DUP5 DUP2 MSTORE PUSH1 0x20 ADD SWAP1 DUP2 MSTORE PUSH1 0x20 ADD PUSH0 KECCAK256 PUSH0 ADD PUSH0 DUP4 PUSH20 0xFFFFFFFFFFFFFFFFFFFFFFFFFFFFFFFFFFFFFFFF AND PUSH20 0xFFFFFFFFFFFFFFFFFFFFFFFFFFFFFFFFFFFFFFFF AND DUP2 MSTORE PUSH1 0x20 ADD SWAP1 DUP2 MSTORE PUSH1 0x20 ADD PUSH0 KECCAK256 PUSH0 SWAP1 SLOAD SWAP1 PUSH2 0x100 EXP SWAP1 DIV PUSH1 0xFF AND SWAP1 POP SWAP3 SWAP2 POP POP JUMP JUMPDEST PUSH32 0xB19546DFF01E856FB3F010C267A7B1C60363CF8A4664E21CC89C26224620214E PUSH0 SHL PUSH2 0x78E DUP2 PUSH2 0x15D1 JUMP JUMPDEST PUSH0 PUSH20 0xFFFFFFFFFFFFFFFFFFFFFFFFFFFFFFFFFFFFFFFF AND DUP3 PUSH20 0xFFFFFFFFFFFFFFFFFFFFFFFFFFFFFFFFFFFFFFFF AND SUB PUSH2 0x7FC JUMPI PUSH1 0x40 MLOAD PUSH32 0x8C379A000000000000000000000000000000000000000000000000000000000 DUP2 MSTORE PUSH1 0x4 ADD PUSH2 0x7F3 SWAP1 PUSH2 0x1D1A JUMP JUMPDEST PUSH1 0x40 MLOAD DUP1 SWAP2 SUB SWAP1 REVERT JUMPDEST PUSH0 PUSH1 0x2 DUP1 SLOAD SWAP1 POP SUB PUSH2 0x843 JUMPI PUSH1 0x40 MLOAD PUSH32 0x8C379A000000000000000000000000000000000000000000000000000000000 DUP2 MSTORE PUSH1 0x4 ADD PUSH2 0x83A SWAP1 PUSH2 0x1D82 JUMP JUMPDEST PUSH1 0x40 MLOAD DUP1 SWAP2 SUB SWAP1 REVERT JUMPDEST PUSH0 PUSH1 0x2 DUP1 SLOAD SWAP1 POP SWAP1 POP PUSH0 JUMPDEST DUP2 DUP2 LT ISZERO PUSH2 0x9B9 JUMPI DUP4 PUSH20 0xFFFFFFFFFFFFFFFFFFFFFFFFFFFFFFFFFFFFFFFF AND PUSH1 0x2 DUP3 DUP2 SLOAD DUP2 LT PUSH2 0x881 JUMPI PUSH2 0x880 PUSH2 0x1DA0 JUMP JUMPDEST JUMPDEST SWAP1 PUSH0 MSTORE PUSH1 0x20 PUSH0 KECCAK256 ADD PUSH0 SWAP1 SLOAD SWAP1 PUSH2 0x100 EXP SWAP1 DIV PUSH20 0xFFFFFFFFFFFFFFFFFFFFFFFFFFFFFFFFFFFFFFFF AND PUSH20 0xFFFFFFFFFFFFFFFFFFFFFFFFFFFFFFFFFFFFFFFF AND SUB PUSH2 0x9AE JUMPI PUSH1 0x2 PUSH1 0x1 DUP4 PUSH2 0x8D3 SWAP2 SWAP1 PUSH2 0x1E03 JUMP JUMPDEST DUP2 SLOAD DUP2 LT PUSH2 0x8E4 JUMPI PUSH2 0x8E3 PUSH2 0x1DA0 JUMP JUMPDEST JUMPDEST SWAP1 PUSH0 MSTORE PUSH1 0x20 PUSH0 KECCAK256 ADD PUSH0 SWAP1 SLOAD SWAP1 PUSH2 0x100 EXP SWAP1 DIV PUSH20 0xFFFFFFFFFFFFFFFFFFFFFFFFFFFFFFFFFFFFFFFF AND PUSH1 0x2 DUP3 DUP2 SLOAD DUP2 LT PUSH2 0x920 JUMPI PUSH2 0x91F PUSH2 0x1DA0 JUMP JUMPDEST JUMPDEST SWAP1 PUSH0 MSTORE PUSH1 0x20 PUSH0 KECCAK256 ADD PUSH0 PUSH2 0x100 EXP DUP2 SLOAD DUP2 PUSH20 0xFFFFFFFFFFFFFFFFFFFFFFFFFFFFFFFFFFFFFFFF MUL NOT AND SWAP1 DUP4 PUSH20 0xFFFFFFFFFFFFFFFFFFFFFFFFFFFFFFFFFFFFFFFF AND MUL OR SWAP1 SSTORE POP PUSH1 0x2 DUP1 SLOAD DUP1 PUSH2 0x977 JUMPI PUSH2 0x976 PUSH2 0x1E36 JUMP JUMPDEST JUMPDEST PUSH1 0x1 SWAP1 SUB DUP2 DUP2 SWAP1 PUSH0 MSTORE PUSH1 0x20 PUSH0 KECCAK256 ADD PUSH0 PUSH2 0x100 EXP DUP2 SLOAD SWAP1 PUSH20 0xFFFFFFFFFFFFFFFFFFFFFFFFFFFFFFFFFFFFFFFF MUL NOT AND SWAP1 SSTORE SWAP1 SSTORE PUSH2 0x9B9 JUMP JUMPDEST DUP1 PUSH1 0x1 ADD SWAP1 POP PUSH2 0x84E JUMP JUMPDEST POP PUSH2 0x9E6 PUSH32 0xCAB5A0BFE0B79D2C4B1C2E02599FA044D115B7511F9659307CB4276950967709 PUSH0 SHL DUP5 PUSH2 0x16D5 JUMP JUMPDEST POP DUP3 PUSH20 0xFFFFFFFFFFFFFFFFFFFFFFFFFFFFFFFFFFFFFFFF AND PUSH32 0x51F353EB5801583FDF2706E43C045B62FDF6B1566820B349390616363ECF72C9 PUSH1 0x40 MLOAD PUSH1 0x40 MLOAD DUP1 SWAP2 SUB SWAP1 LOG2 POP POP POP JUMP JUMPDEST PUSH32 0xCAB5A0BFE0B79D2C4B1C2E02599FA044D115B7511F9659307CB4276950967709 PUSH0 SHL PUSH2 0xA5B DUP2 PUSH2 0x15D1 JUMP JUMPDEST PUSH0 PUSH20 0xFFFFFFFFFFFFFFFFFFFFFFFFFFFFFFFFFFFFFFFF AND DUP4 PUSH20 0xFFFFFFFFFFFFFFFFFFFFFFFFFFFFFFFFFFFFFFFF AND SUB PUSH2 0xAC9 JUMPI PUSH1 0x40 MLOAD PUSH32 0x8C379A000000000000000000000000000000000000000000000000000000000 DUP2 MSTORE PUSH1 0x4 ADD PUSH2 0xAC0 SWAP1 PUSH2 0x1D1A JUMP JUMPDEST PUSH1 0x40 MLOAD DUP1 SWAP2 SUB SWAP1 REVERT JUMPDEST PUSH0 PUSH20 0xFFFFFFFFFFFFFFFFFFFFFFFFFFFFFFFFFFFFFFFF AND PUSH1 0x1 PUSH0 DUP6 PUSH20 0xFFFFFFFFFFFFFFFFFFFFFFFFFFFFFFFFFFFFFFFF AND PUSH20 0xFFFFFFFFFFFFFFFFFFFFFFFFFFFFFFFFFFFFFFFF AND DUP2 MSTORE PUSH1 0x20 ADD SWAP1 DUP2 MSTORE PUSH1 0x20 ADD PUSH0 KECCAK256 PUSH0 ADD PUSH0 SWAP1 SLOAD SWAP1 PUSH2 0x100 EXP SWAP1 DIV PUSH20 0xFFFFFFFFFFFFFFFFFFFFFFFFFFFFFFFFFFFFFFFF AND PUSH20 0xFFFFFFFFFFFFFFFFFFFFFFFFFFFFFFFFFFFFFFFF AND SUB PUSH2 0xB95 JUMPI PUSH1 0x40 MLOAD PUSH32 0x8C379A000000000000000000000000000000000000000000000000000000000 DUP2 MSTORE PUSH1 0x4 ADD PUSH2 0xB8C SWAP1 PUSH2 0x1EAD JUMP JUMPDEST PUSH1 0x40 MLOAD DUP1 SWAP2 SUB SWAP1 REVERT JUMPDEST DUP2 PUSH1 0x1 PUSH0 DUP6 PUSH20 0xFFFFFFFFFFFFFFFFFFFFFFFFFFFFFFFFFFFFFFFF AND PUSH20 0xFFFFFFFFFFFFFFFFFFFFFFFFFFFFFFFFFFFFFFFF AND DUP2 MSTORE PUSH1 0x20 ADD SWAP1 DUP2 MSTORE PUSH1 0x20 ADD PUSH0 KECCAK256 PUSH0 ADD PUSH1 0x14 PUSH2 0x100 EXP DUP2 SLOAD DUP2 PUSH2 0xFFFF MUL NOT AND SWAP1 DUP4 PUSH2 0xFFFF AND MUL OR SWAP1 SSTORE POP DUP2 PUSH2 0xFFFF AND DUP4 PUSH20 0xFFFFFFFFFFFFFFFFFFFFFFFFFFFFFFFFFFFFFFFF AND PUSH32 0x20965FCDC6EED7AE398065B40ECE4E732BA667992CA819FC54E80E9F2047C4CF PUSH1 0x40 MLOAD PUSH1 0x40 MLOAD DUP1 SWAP2 SUB SWAP1 LOG3 POP POP POP JUMP JUMPDEST PUSH0 DUP1 SHL DUP2 JUMP JUMPDEST PUSH32 0xCAB5A0BFE0B79D2C4B1C2E02599FA044D115B7511F9659307CB4276950967709 PUSH0 SHL PUSH2 0xC6E DUP2 PUSH2 0x15D1 JUMP JUMPDEST PUSH0 PUSH20 0xFFFFFFFFFFFFFFFFFFFFFFFFFFFFFFFFFFFFFFFF AND DUP5 PUSH20 0xFFFFFFFFFFFFFFFFFFFFFFFFFFFFFFFFFFFFFFFF AND EQ ISZERO DUP1 ISZERO PUSH2 0xCD6 JUMPI POP PUSH0 PUSH20 0xFFFFFFFFFFFFFFFFFFFFFFFFFFFFFFFFFFFFFFFF AND DUP4 PUSH20 0xFFFFFFFFFFFFFFFFFFFFFFFFFFFFFFFFFFFFFFFF AND EQ ISZERO JUMPDEST PUSH2 0xD15 JUMPI PUSH1 0x40 MLOAD PUSH32 0x8C379A000000000000000000000000000000000000000000000000000000000 DUP2 MSTORE PUSH1 0x4 ADD PUSH2 0xD0C SWAP1 PUSH2 0x1D1A JUMP JUMPDEST PUSH1 0x40 MLOAD DUP1 SWAP2 SUB SWAP1 REVERT JUMPDEST PUSH0 PUSH20 0xFFFFFFFFFFFFFFFFFFFFFFFFFFFFFFFFFFFFFFFF AND PUSH1 0x1 PUSH0 DUP7 PUSH20 0xFFFFFFFFFFFFFFFFFFFFFFFFFFFFFFFFFFFFFFFF AND PUSH20 0xFFFFFFFFFFFFFFFFFFFFFFFFFFFFFFFFFFFFFFFF AND DUP2 MSTORE PUSH1 0x20 ADD SWAP1 DUP2 MSTORE PUSH1 0x20 ADD PUSH0 KECCAK256 PUSH0 ADD PUSH0 SWAP1 SLOAD SWAP1 PUSH2 0x100 EXP SWAP1 DIV PUSH20 0xFFFFFFFFFFFFFFFFFFFFFFFFFFFFFFFFFFFFFFFF AND PUSH20 0xFFFFFFFFFFFFFFFFFFFFFFFFFFFFFFFFFFFFFFFF AND EQ PUSH2 0xDE1 JUMPI PUSH1 0x40 MLOAD PUSH32 0x8C379A000000000000000000000000000000000000000000000000000000000 DUP2 MSTORE PUSH1 0x4 ADD PUSH2 0xDD8 SWAP1 PUSH2 0x1F15 JUMP JUMPDEST PUSH1 0x40 MLOAD DUP1 SWAP2 SUB SWAP1 REVERT JUMPDEST DUP3 PUSH1 0x1 PUSH0 DUP7 PUSH20 0xFFFFFFFFFFFFFFFFFFFFFFFFFFFFFFFFFFFFFFFF AND PUSH20 0xFFFFFFFFFFFFFFFFFFFFFFFFFFFFFFFFFFFFFFFF AND DUP2 MSTORE PUSH1 0x20 ADD SWAP1 DUP2 MSTORE PUSH1 0x20 ADD PUSH0 KECCAK256 PUSH0 ADD PUSH0 PUSH2 0x100 EXP DUP2 SLOAD DUP2 PUSH20 0xFFFFFFFFFFFFFFFFFFFFFFFFFFFFFFFFFFFFFFFF MUL NOT AND SWAP1 DUP4 PUSH20 0xFFFFFFFFFFFFFFFFFFFFFFFFFFFFFFFFFFFFFFFF AND MUL OR SWAP1 SSTORE POP DUP2 PUSH1 0x1 PUSH0 DUP7 PUSH20 0xFFFFFFFFFFFFFFFFFFFFFFFFFFFFFFFFFFFFFFFF AND PUSH20 0xFFFFFFFFFFFFFFFFFFFFFFFFFFFFFFFFFFFFFFFF AND DUP2 MSTORE PUSH1 0x20 ADD SWAP1 DUP2 MSTORE PUSH1 0x20 ADD PUSH0 KECCAK256 PUSH0 ADD PUSH1 0x14 PUSH2 0x100 EXP DUP2 SLOAD DUP2 PUSH2 0xFFFF MUL NOT AND SWAP1 DUP4 PUSH2 0xFFFF AND MUL OR SWAP1 SSTORE POP DUP3 PUSH20 0xFFFFFFFFFFFFFFFFFFFFFFFFFFFFFFFFFFFFFFFF AND DUP5 PUSH20 0xFFFFFFFFFFFFFFFFFFFFFFFFFFFFFFFFFFFFFFFF AND PUSH31 0x30DEA7E9C9AFAA2E3C9810F2FC9B5181F1BAD74CA5A8DB85F746A33585E747 PUSH1 0x40 MLOAD PUSH1 0x40 MLOAD DUP1 SWAP2 SUB SWAP1 LOG3 POP POP POP POP JUMP JUMPDEST PUSH1 0x60 PUSH1 0x2 DUP1 SLOAD DUP1 PUSH1 0x20 MUL PUSH1 0x20 ADD PUSH1 0x40 MLOAD SWAP1 DUP2 ADD PUSH1 0x40 MSTORE DUP1 SWAP3 SWAP2 SWAP1 DUP2 DUP2 MSTORE PUSH1 0x20 ADD DUP3 DUP1 SLOAD DUP1 ISZERO PUSH2 0xF98 JUMPI PUSH1 0x20 MUL DUP3 ADD SWAP2 SWAP1 PUSH0 MSTORE PUSH1 0x20 PUSH0 KECCAK256 SWAP1 JUMPDEST DUP2 PUSH0 SWAP1 SLOAD SWAP1 PUSH2 0x100 EXP SWAP1 DIV PUSH20 0xFFFFFFFFFFFFFFFFFFFFFFFFFFFFFFFFFFFFFFFF AND PUSH20 0xFFFFFFFFFFFFFFFFFFFFFFFFFFFFFFFFFFFFFFFF AND DUP2 MSTORE PUSH1 0x20 ADD SWAP1 PUSH1 0x1 ADD SWAP1 DUP1 DUP4 GT PUSH2 0xF4F JUMPI JUMPDEST POP POP POP POP POP SWAP1 POP SWAP1 JUMP JUMPDEST PUSH32 0xCAB5A0BFE0B79D2C4B1C2E02599FA044D115B7511F9659307CB4276950967709 PUSH0 SHL PUSH2 0xFCE DUP2 PUSH2 0x15D1 JUMP JUMPDEST PUSH0 PUSH20 0xFFFFFFFFFFFFFFFFFFFFFFFFFFFFFFFFFFFFFFFF AND DUP3 PUSH20 0xFFFFFFFFFFFFFFFFFFFFFFFFFFFFFFFFFFFFFFFF AND SUB PUSH2 0x103C JUMPI PUSH1 0x40 MLOAD PUSH32 0x8C379A000000000000000000000000000000000000000000000000000000000 DUP2 MSTORE PUSH1 0x4 ADD PUSH2 0x1033 SWAP1 PUSH2 0x1D1A JUMP JUMPDEST PUSH1 0x40 MLOAD DUP1 SWAP2 SUB SWAP1 REVERT JUMPDEST PUSH0 PUSH20 0xFFFFFFFFFFFFFFFFFFFFFFFFFFFFFFFFFFFFFFFF AND PUSH1 0x1 PUSH0 DUP5 PUSH20 0xFFFFFFFFFFFFFFFFFFFFFFFFFFFFFFFFFFFFFFFF AND PUSH20 0xFFFFFFFFFFFFFFFFFFFFFFFFFFFFFFFFFFFFFFFF AND DUP2 MSTORE PUSH1 0x20 ADD SWAP1 DUP2 MSTORE PUSH1 0x20 ADD PUSH0 KECCAK256 PUSH0 ADD PUSH0 SWAP1 SLOAD SWAP1 PUSH2 0x100 EXP SWAP1 DIV PUSH20 0xFFFFFFFFFFFFFFFFFFFFFFFFFFFFFFFFFFFFFFFF AND PUSH20 0xFFFFFFFFFFFFFFFFFFFFFFFFFFFFFFFFFFFFFFFF AND SUB PUSH2 0x1108 JUMPI PUSH1 0x40 MLOAD PUSH32 0x8C379A000000000000000000000000000000000000000000000000000000000 DUP2 MSTORE PUSH1 0x4 ADD PUSH2 0x10FF SWAP1 PUSH2 0x1EAD JUMP JUMPDEST PUSH1 0x40 MLOAD DUP1 SWAP2 SUB SWAP1 REVERT JUMPDEST PUSH0 PUSH1 0x1 PUSH0 DUP5 PUSH20 0xFFFFFFFFFFFFFFFFFFFFFFFFFFFFFFFFFFFFFFFF AND PUSH20 0xFFFFFFFFFFFFFFFFFFFFFFFFFFFFFFFFFFFFFFFF AND DUP2 MSTORE PUSH1 0x20 ADD SWAP1 DUP2 MSTORE PUSH1 0x20 ADD PUSH0 KECCAK256 PUSH0 ADD PUSH0 SWAP1 SLOAD SWAP1 PUSH2 0x100 EXP SWAP1 DIV PUSH20 0xFFFFFFFFFFFFFFFFFFFFFFFFFFFFFFFFFFFFFFFF AND SWAP1 POP PUSH1 0x1 PUSH0 DUP5 PUSH20 0xFFFFFFFFFFFFFFFFFFFFFFFFFFFFFFFFFFFFFFFF AND PUSH20 0xFFFFFFFFFFFFFFFFFFFFFFFFFFFFFFFFFFFFFFFF AND DUP2 MSTORE PUSH1 0x20 ADD SWAP1 DUP2 MSTORE PUSH1 0x20 ADD PUSH0 KECCAK256 PUSH0 DUP1 DUP3 ADD PUSH0 PUSH2 0x100 EXP DUP2 SLOAD SWAP1 PUSH20 0xFFFFFFFFFFFFFFFFFFFFFFFFFFFFFFFFFFFFFFFF MUL NOT AND SWAP1 SSTORE PUSH0 DUP3 ADD PUSH1 0x14 PUSH2 0x100 EXP DUP2 SLOAD SWAP1 PUSH2 0xFFFF MUL NOT AND SWAP1 SSTORE POP POP DUP1 PUSH20 0xFFFFFFFFFFFFFFFFFFFFFFFFFFFFFFFFFFFFFFFF AND DUP4 PUSH20 0xFFFFFFFFFFFFFFFFFFFFFFFFFFFFFFFFFFFFFFFF AND PUSH32 0xCA6A4C3370B859312246E7F086284076E557997E10D856B716C23AB67067790B PUSH1 0x40 MLOAD PUSH1 0x40 MLOAD DUP1 SWAP2 SUB SWAP1 LOG3 POP POP POP JUMP JUMPDEST PUSH2 0x124B DUP3 PUSH2 0x41B JUMP JUMPDEST PUSH2 0x1254 DUP2 PUSH2 0x15D1 JUMP JUMPDEST PUSH2 0x125E DUP4 DUP4 PUSH2 0x16D5 JUMP JUMPDEST POP POP POP POP JUMP JUMPDEST PUSH32 0xB19546DFF01E856FB3F010C267A7B1C60363CF8A4664E21CC89C26224620214E PUSH0 SHL DUP2 JUMP JUMPDEST PUSH32 0xCAB5A0BFE0B79D2C4B1C2E02599FA044D115B7511F9659307CB4276950967709 PUSH0 SHL PUSH2 0x12B6 DUP2 PUSH2 0x15D1 JUMP JUMPDEST PUSH0 PUSH20 0xFFFFFFFFFFFFFFFFFFFFFFFFFFFFFFFFFFFFFFFF AND DUP4 PUSH20 0xFFFFFFFFFFFFFFFFFFFFFFFFFFFFFFFFFFFFFFFF AND EQ ISZERO DUP1 ISZERO PUSH2 0x131E JUMPI POP PUSH0 PUSH20 0xFFFFFFFFFFFFFFFFFFFFFFFFFFFFFFFFFFFFFFFF AND DUP3 PUSH20 0xFFFFFFFFFFFFFFFFFFFFFFFFFFFFFFFFFFFFFFFF AND EQ ISZERO JUMPDEST PUSH2 0x135D JUMPI PUSH1 0x40 MLOAD PUSH32 0x8C379A000000000000000000000000000000000000000000000000000000000 DUP2 MSTORE PUSH1 0x4 ADD PUSH2 0x1354 SWAP1 PUSH2 0x1D1A JUMP JUMPDEST PUSH1 0x40 MLOAD DUP1 SWAP2 SUB SWAP1 REVERT JUMPDEST PUSH0 PUSH20 0xFFFFFFFFFFFFFFFFFFFFFFFFFFFFFFFFFFFFFFFF AND PUSH1 0x1 PUSH0 DUP6 PUSH20 0xFFFFFFFFFFFFFFFFFFFFFFFFFFFFFFFFFFFFFFFF AND PUSH20 0xFFFFFFFFFFFFFFFFFFFFFFFFFFFFFFFFFFFFFFFF AND DUP2 MSTORE PUSH1 0x20 ADD SWAP1 DUP2 MSTORE PUSH1 0x20 ADD PUSH0 KECCAK256 PUSH0 ADD PUSH0 SWAP1 SLOAD SWAP1 PUSH2 0x100 EXP SWAP1 DIV PUSH20 0xFFFFFFFFFFFFFFFFFFFFFFFFFFFFFFFFFFFFFFFF AND PUSH20 0xFFFFFFFFFFFFFFFFFFFFFFFFFFFFFFFFFFFFFFFF AND SUB PUSH2 0x1429 JUMPI PUSH1 0x40 MLOAD PUSH32 0x8C379A000000000000000000000000000000000000000000000000000000000 DUP2 MSTORE PUSH1 0x4 ADD PUSH2 0x1420 SWAP1 PUSH2 0x1EAD JUMP JUMPDEST PUSH1 0x40 MLOAD DUP1 SWAP2 SUB SWAP1 REVERT JUMPDEST PUSH0 PUSH1 0x1 PUSH0 DUP6 PUSH20 0xFFFFFFFFFFFFFFFFFFFFFFFFFFFFFFFFFFFFFFFF AND PUSH20 0xFFFFFFFFFFFFFFFFFFFFFFFFFFFFFFFFFFFFFFFF AND DUP2 MSTORE PUSH1 0x20 ADD SWAP1 DUP2 MSTORE PUSH1 0x20 ADD PUSH0 KECCAK256 PUSH0 ADD PUSH0 SWAP1 SLOAD SWAP1 PUSH2 0x100 EXP SWAP1 DIV PUSH20 0xFFFFFFFFFFFFFFFFFFFFFFFFFFFFFFFFFFFFFFFF AND SWAP1 POP DUP3 PUSH1 0x1 PUSH0 DUP7 PUSH20 0xFFFFFFFFFFFFFFFFFFFFFFFFFFFFFFFFFFFFFFFF AND PUSH20 0xFFFFFFFFFFFFFFFFFFFFFFFFFFFFFFFFFFFFFFFF AND DUP2 MSTORE PUSH1 0x20 ADD SWAP1 DUP2 MSTORE PUSH1 0x20 ADD PUSH0 KECCAK256 PUSH0 ADD PUSH0 PUSH2 0x100 EXP DUP2 SLOAD DUP2 PUSH20 0xFFFFFFFFFFFFFFFFFFFFFFFFFFFFFFFFFFFFFFFF MUL NOT AND SWAP1 DUP4 PUSH20 0xFFFFFFFFFFFFFFFFFFFFFFFFFFFFFFFFFFFFFFFF AND MUL OR SWAP1 SSTORE POP DUP3 PUSH20 0xFFFFFFFFFFFFFFFFFFFFFFFFFFFFFFFFFFFFFFFF AND DUP2 PUSH20 0xFFFFFFFFFFFFFFFFFFFFFFFFFFFFFFFFFFFFFFFF AND PUSH32 0x556CE885DFCEA52155C773F1ED2E58781C51945C13030AB8F793C61F51D1B808 PUSH1 0x40 MLOAD PUSH1 0x40 MLOAD DUP1 SWAP2 SUB SWAP1 LOG3 POP POP POP POP JUMP JUMPDEST PUSH0 PUSH32 0x1FFC9A700000000000000000000000000000000000000000000000000000000 PUSH28 0xFFFFFFFFFFFFFFFFFFFFFFFFFFFFFFFFFFFFFFFFFFFFFFFFFFFFFFFF NOT AND DUP3 PUSH28 0xFFFFFFFFFFFFFFFFFFFFFFFFFFFFFFFFFFFFFFFFFFFFFFFFFFFFFFFF NOT AND EQ SWAP1 POP SWAP2 SWAP1 POP JUMP JUMPDEST PUSH2 0x15E2 DUP2 PUSH2 0x15DD PUSH2 0x16CE JUMP JUMPDEST PUSH2 0x17BE JUMP JUMPDEST POP JUMP JUMPDEST PUSH0 PUSH2 0x15F0 DUP4 DUP4 PUSH2 0x6FF JUMP JUMPDEST PUSH2 0x16C4 JUMPI PUSH1 0x1 PUSH0 DUP1 DUP6 DUP2 MSTORE PUSH1 0x20 ADD SWAP1 DUP2 MSTORE PUSH1 0x20 ADD PUSH0 KECCAK256 PUSH0 ADD PUSH0 DUP5 PUSH20 0xFFFFFFFFFFFFFFFFFFFFFFFFFFFFFFFFFFFFFFFF AND PUSH20 0xFFFFFFFFFFFFFFFFFFFFFFFFFFFFFFFFFFFFFFFF AND DUP2 MSTORE PUSH1 0x20 ADD SWAP1 DUP2 MSTORE PUSH1 0x20 ADD PUSH0 KECCAK256 PUSH0 PUSH2 0x100 EXP DUP2 SLOAD DUP2 PUSH1 0xFF MUL NOT AND SWAP1 DUP4 ISZERO ISZERO MUL OR SWAP1 SSTORE POP PUSH2 0x1661 PUSH2 0x16CE JUMP JUMPDEST PUSH20 0xFFFFFFFFFFFFFFFFFFFFFFFFFFFFFFFFFFFFFFFF AND DUP3 PUSH20 0xFFFFFFFFFFFFFFFFFFFFFFFFFFFFFFFFFFFFFFFF AND DUP5 PUSH32 0x2F8788117E7EFF1D82E926EC794901D17C78024A50270940304540A733656F0D PUSH1 0x40 MLOAD PUSH1 0x40 MLOAD DUP1 SWAP2 SUB SWAP1 LOG4 PUSH1 0x1 SWAP1 POP PUSH2 0x16C8 JUMP JUMPDEST PUSH0 SWAP1 POP JUMPDEST SWAP3 SWAP2 POP POP JUMP JUMPDEST PUSH0 CALLER SWAP1 POP SWAP1 JUMP JUMPDEST PUSH0 PUSH2 0x16E0 DUP4 DUP4 PUSH2 0x6FF JUMP JUMPDEST ISZERO PUSH2 0x17B4 JUMPI PUSH0 DUP1 PUSH0 DUP6 DUP2 MSTORE PUSH1 0x20 ADD SWAP1 DUP2 MSTORE PUSH1 0x20 ADD PUSH0 KECCAK256 PUSH0 ADD PUSH0 DUP5 PUSH20 0xFFFFFFFFFFFFFFFFFFFFFFFFFFFFFFFFFFFFFFFF AND PUSH20 0xFFFFFFFFFFFFFFFFFFFFFFFFFFFFFFFFFFFFFFFF AND DUP2 MSTORE PUSH1 0x20 ADD SWAP1 DUP2 MSTORE PUSH1 0x20 ADD PUSH0 KECCAK256 PUSH0 PUSH2 0x100 EXP DUP2 SLOAD DUP2 PUSH1 0xFF MUL NOT AND SWAP1 DUP4 ISZERO ISZERO MUL OR SWAP1 SSTORE POP PUSH2 0x1751 PUSH2 0x16CE JUMP JUMPDEST PUSH20 0xFFFFFFFFFFFFFFFFFFFFFFFFFFFFFFFFFFFFFFFF AND DUP3 PUSH20 0xFFFFFFFFFFFFFFFFFFFFFFFFFFFFFFFFFFFFFFFF AND DUP5 PUSH32 0xF6391F5C32D9C69D2A47EA670B442974B53935D1EDC7FD64EB21E047A839171B PUSH1 0x40 MLOAD PUSH1 0x40 MLOAD DUP1 SWAP2 SUB SWAP1 LOG4 PUSH1 0x1 SWAP1 POP PUSH2 0x17B8 JUMP JUMPDEST PUSH0 SWAP1 POP JUMPDEST SWAP3 SWAP2 POP POP JUMP JUMPDEST PUSH2 0x17C8 DUP3 DUP3 PUSH2 0x6FF JUMP JUMPDEST PUSH2 0x180B JUMPI DUP1 DUP3 PUSH1 0x40 MLOAD PUSH32 0xE2517D3F00000000000000000000000000000000000000000000000000000000 DUP2 MSTORE PUSH1 0x4 ADD PUSH2 0x1802 SWAP3 SWAP2 SWAP1 PUSH2 0x1F42 JUMP JUMPDEST PUSH1 0x40 MLOAD DUP1 SWAP2 SUB SWAP1 REVERT JUMPDEST POP POP JUMP JUMPDEST PUSH0 DUP1 REVERT JUMPDEST PUSH0 PUSH32 0xFFFFFFFF00000000000000000000000000000000000000000000000000000000 DUP3 AND SWAP1 POP SWAP2 SWAP1 POP JUMP JUMPDEST PUSH2 0x1847 DUP2 PUSH2 0x1813 JUMP JUMPDEST DUP2 EQ PUSH2 0x1851 JUMPI PUSH0 DUP1 REVERT JUMPDEST POP JUMP JUMPDEST PUSH0 DUP2 CALLDATALOAD SWAP1 POP PUSH2 0x1862 DUP2 PUSH2 0x183E JUMP JUMPDEST SWAP3 SWAP2 POP POP JUMP JUMPDEST PUSH0 PUSH1 0x20 DUP3 DUP5 SUB SLT ISZERO PUSH2 0x187D JUMPI PUSH2 0x187C PUSH2 0x180F JUMP JUMPDEST JUMPDEST PUSH0 PUSH2 0x188A DUP5 DUP3 DUP6 ADD PUSH2 0x1854 JUMP JUMPDEST SWAP2 POP POP SWAP3 SWAP2 POP POP JUMP JUMPDEST PUSH0 DUP2 ISZERO ISZERO SWAP1 POP SWAP2 SWAP1 POP JUMP JUMPDEST PUSH2 0x18A7 DUP2 PUSH2 0x1893 JUMP JUMPDEST DUP3 MSTORE POP POP JUMP JUMPDEST PUSH0 PUSH1 0x20 DUP3 ADD SWAP1 POP PUSH2 0x18C0 PUSH0 DUP4 ADD DUP5 PUSH2 0x189E JUMP JUMPDEST SWAP3 SWAP2 POP POP JUMP JUMPDEST PUSH0 DUP2 SWAP1 POP SWAP2 SWAP1 POP JUMP JUMPDEST PUSH2 0x18D8 DUP2 PUSH2 0x18C6 JUMP JUMPDEST DUP3 MSTORE POP POP JUMP JUMPDEST PUSH0 PUSH1 0x20 DUP3 ADD SWAP1 POP PUSH2 0x18F1 PUSH0 DUP4 ADD DUP5 PUSH2 0x18CF JUMP JUMPDEST SWAP3 SWAP2 POP POP JUMP JUMPDEST PUSH2 0x1900 DUP2 PUSH2 0x18C6 JUMP JUMPDEST DUP2 EQ PUSH2 0x190A JUMPI PUSH0 DUP1 REVERT JUMPDEST POP JUMP JUMPDEST PUSH0 DUP2 CALLDATALOAD SWAP1 POP PUSH2 0x191B DUP2 PUSH2 0x18F7 JUMP JUMPDEST SWAP3 SWAP2 POP POP JUMP JUMPDEST PUSH0 PUSH1 0x20 DUP3 DUP5 SUB SLT ISZERO PUSH2 0x1936 JUMPI PUSH2 0x1935 PUSH2 0x180F JUMP JUMPDEST JUMPDEST PUSH0 PUSH2 0x1943 DUP5 DUP3 DUP6 ADD PUSH2 0x190D JUMP JUMPDEST SWAP2 POP POP SWAP3 SWAP2 POP POP JUMP JUMPDEST PUSH0 PUSH20 0xFFFFFFFFFFFFFFFFFFFFFFFFFFFFFFFFFFFFFFFF DUP3 AND SWAP1 POP SWAP2 SWAP1 POP JUMP JUMPDEST PUSH0 PUSH2 0x1975 DUP3 PUSH2 0x194C JUMP JUMPDEST SWAP1 POP SWAP2 SWAP1 POP JUMP JUMPDEST PUSH2 0x1985 DUP2 PUSH2 0x196B JUMP JUMPDEST DUP2 EQ PUSH2 0x198F JUMPI PUSH0 DUP1 REVERT JUMPDEST POP JUMP JUMPDEST PUSH0 DUP2 CALLDATALOAD SWAP1 POP PUSH2 0x19A0 DUP2 PUSH2 0x197C JUMP JUMPDEST SWAP3 SWAP2 POP POP JUMP JUMPDEST PUSH0 DUP1 PUSH1 0x40 DUP4 DUP6 SUB SLT ISZERO PUSH2 0x19BC JUMPI PUSH2 0x19BB PUSH2 0x180F JUMP JUMPDEST JUMPDEST PUSH0 PUSH2 0x19C9 DUP6 DUP3 DUP7 ADD PUSH2 0x190D JUMP JUMPDEST SWAP3 POP POP PUSH1 0x20 PUSH2 0x19DA DUP6 DUP3 DUP7 ADD PUSH2 0x1992 JUMP JUMPDEST SWAP2 POP POP SWAP3 POP SWAP3 SWAP1 POP JUMP JUMPDEST PUSH0 PUSH1 0x20 DUP3 DUP5 SUB SLT ISZERO PUSH2 0x19F9 JUMPI PUSH2 0x19F8 PUSH2 0x180F JUMP JUMPDEST JUMPDEST PUSH0 PUSH2 0x1A06 DUP5 DUP3 DUP6 ADD PUSH2 0x1992 JUMP JUMPDEST SWAP2 POP POP SWAP3 SWAP2 POP POP JUMP JUMPDEST PUSH0 PUSH2 0xFFFF DUP3 AND SWAP1 POP SWAP2 SWAP1 POP JUMP JUMPDEST PUSH2 0x1A25 DUP2 PUSH2 0x1A0F JUMP JUMPDEST DUP3 MSTORE POP POP JUMP JUMPDEST PUSH0 PUSH1 0x20 DUP3 ADD SWAP1 POP PUSH2 0x1A3E PUSH0 DUP4 ADD DUP5 PUSH2 0x1A1C JUMP JUMPDEST SWAP3 SWAP2 POP POP JUMP JUMPDEST PUSH0 DUP2 SWAP1 POP SWAP2 SWAP1 POP JUMP JUMPDEST PUSH0 PUSH2 0x1A67 PUSH2 0x1A62 PUSH2 0x1A5D DUP5 PUSH2 0x194C JUMP JUMPDEST PUSH2 0x1A44 JUMP JUMPDEST PUSH2 0x194C JUMP JUMPDEST SWAP1 POP SWAP2 SWAP1 POP JUMP JUMPDEST PUSH0 PUSH2 0x1A78 DUP3 PUSH2 0x1A4D JUMP JUMPDEST SWAP1 POP SWAP2 SWAP1 POP JUMP JUMPDEST PUSH0 PUSH2 0x1A89 DUP3 PUSH2 0x1A6E JUMP JUMPDEST SWAP1 POP SWAP2 SWAP1 POP JUMP JUMPDEST PUSH2 0x1A99 DUP2 PUSH2 0x1A7F JUMP JUMPDEST DUP3 MSTORE POP POP JUMP JUMPDEST PUSH0 PUSH1 0x20 DUP3 ADD SWAP1 POP PUSH2 0x1AB2 PUSH0 DUP4 ADD DUP5 PUSH2 0x1A90 JUMP JUMPDEST SWAP3 SWAP2 POP POP JUMP JUMPDEST PUSH2 0x1AC1 DUP2 PUSH2 0x1A0F JUMP JUMPDEST DUP2 EQ PUSH2 0x1ACB JUMPI PUSH0 DUP1 REVERT JUMPDEST POP JUMP JUMPDEST PUSH0 DUP2 CALLDATALOAD SWAP1 POP PUSH2 0x1ADC DUP2 PUSH2 0x1AB8 JUMP JUMPDEST SWAP3 SWAP2 POP POP JUMP JUMPDEST PUSH0 DUP1 PUSH1 0x40 DUP4 DUP6 SUB SLT ISZERO PUSH2 0x1AF8 JUMPI PUSH2 0x1AF7 PUSH2 0x180F JUMP JUMPDEST JUMPDEST PUSH0 PUSH2 0x1B05 DUP6 DUP3 DUP7 ADD PUSH2 0x1992 JUMP JUMPDEST SWAP3 POP POP PUSH1 0x20 PUSH2 0x1B16 DUP6 DUP3 DUP7 ADD PUSH2 0x1ACE JUMP JUMPDEST SWAP2 POP POP SWAP3 POP SWAP3 SWAP1 POP JUMP JUMPDEST PUSH0 PUSH2 0x1B2A DUP3 PUSH2 0x196B JUMP JUMPDEST SWAP1 POP SWAP2 SWAP1 POP JUMP JUMPDEST PUSH2 0x1B3A DUP2 PUSH2 0x1B20 JUMP JUMPDEST DUP2 EQ PUSH2 0x1B44 JUMPI PUSH0 DUP1 REVERT JUMPDEST POP JUMP JUMPDEST PUSH0 DUP2 CALLDATALOAD SWAP1 POP PUSH2 0x1B55 DUP2 PUSH2 0x1B31 JUMP JUMPDEST SWAP3 SWAP2 POP POP JUMP JUMPDEST PUSH0 DUP1 PUSH0 PUSH1 0x60 DUP5 DUP7 SUB SLT ISZERO PUSH2 0x1B72 JUMPI PUSH2 0x1B71 PUSH2 0x180F JUMP JUMPDEST JUMPDEST PUSH0 PUSH2 0x1B7F DUP7 DUP3 DUP8 ADD PUSH2 0x1992 JUMP JUMPDEST SWAP4 POP POP PUSH1 0x20 PUSH2 0x1B90 DUP7 DUP3 DUP8 ADD PUSH2 0x1B47 JUMP JUMPDEST SWAP3 POP POP PUSH1 0x40 PUSH2 0x1BA1 DUP7 DUP3 DUP8 ADD PUSH2 0x1ACE JUMP JUMPDEST SWAP2 POP POP SWAP3 POP SWAP3 POP SWAP3 JUMP JUMPDEST PUSH0 DUP2 MLOAD SWAP1 POP SWAP2 SWAP1 POP JUMP JUMPDEST PUSH0 DUP3 DUP3 MSTORE PUSH1 0x20 DUP3 ADD SWAP1 POP SWAP3 SWAP2 POP POP JUMP JUMPDEST PUSH0 DUP2 SWAP1 POP PUSH1 0x20 DUP3 ADD SWAP1 POP SWAP2 SWAP1 POP JUMP JUMPDEST PUSH2 0x1BDD DUP2 PUSH2 0x196B JUMP JUMPDEST DUP3 MSTORE POP POP JUMP JUMPDEST PUSH0 PUSH2 0x1BEE DUP4 DUP4 PUSH2 0x1BD4 JUMP JUMPDEST PUSH1 0x20 DUP4 ADD SWAP1 POP SWAP3 SWAP2 POP POP JUMP JUMPDEST PUSH0 PUSH1 0x20 DUP3 ADD SWAP1 POP SWAP2 SWAP1 POP JUMP JUMPDEST PUSH0 PUSH2 0x1C10 DUP3 PUSH2 0x1BAB JUMP JUMPDEST PUSH2 0x1C1A DUP2 DUP6 PUSH2 0x1BB5 JUMP JUMPDEST SWAP4 POP PUSH2 0x1C25 DUP4 PUSH2 0x1BC5 JUMP JUMPDEST DUP1 PUSH0 JUMPDEST DUP4 DUP2 LT ISZERO PUSH2 0x1C55 JUMPI DUP2 MLOAD PUSH2 0x1C3C DUP9 DUP3 PUSH2 0x1BE3 JUMP JUMPDEST SWAP8 POP PUSH2 0x1C47 DUP4 PUSH2 0x1BFA JUMP JUMPDEST SWAP3 POP POP PUSH1 0x1 DUP2 ADD SWAP1 POP PUSH2 0x1C28 JUMP JUMPDEST POP DUP6 SWAP4 POP POP POP POP SWAP3 SWAP2 POP POP JUMP JUMPDEST PUSH0 PUSH1 0x20 DUP3 ADD SWAP1 POP DUP2 DUP2 SUB PUSH0 DUP4 ADD MSTORE PUSH2 0x1C7A DUP2 DUP5 PUSH2 0x1C06 JUMP JUMPDEST SWAP1 POP SWAP3 SWAP2 POP POP JUMP JUMPDEST PUSH0 DUP1 PUSH1 0x40 DUP4 DUP6 SUB SLT ISZERO PUSH2 0x1C98 JUMPI PUSH2 0x1C97 PUSH2 0x180F JUMP JUMPDEST JUMPDEST PUSH0 PUSH2 0x1CA5 DUP6 DUP3 DUP7 ADD PUSH2 0x1992 JUMP JUMPDEST SWAP3 POP POP PUSH1 0x20 PUSH2 0x1CB6 DUP6 DUP3 DUP7 ADD PUSH2 0x1B47 JUMP JUMPDEST SWAP2 POP POP SWAP3 POP SWAP3 SWAP1 POP JUMP JUMPDEST PUSH0 DUP3 DUP3 MSTORE PUSH1 0x20 DUP3 ADD SWAP1 POP SWAP3 SWAP2 POP POP JUMP JUMPDEST PUSH32 0x4552432D333634333A20496E76616C6964207A65726F20616464726573730000 PUSH0 DUP3 ADD MSTORE POP JUMP JUMPDEST PUSH0 PUSH2 0x1D04 PUSH1 0x1E DUP4 PUSH2 0x1CC0 JUMP JUMPDEST SWAP2 POP PUSH2 0x1D0F DUP3 PUSH2 0x1CD0 JUMP JUMPDEST PUSH1 0x20 DUP3 ADD SWAP1 POP SWAP2 SWAP1 POP JUMP JUMPDEST PUSH0 PUSH1 0x20 DUP3 ADD SWAP1 POP DUP2 DUP2 SUB PUSH0 DUP4 ADD MSTORE PUSH2 0x1D31 DUP2 PUSH2 0x1CF8 JUMP JUMPDEST SWAP1 POP SWAP2 SWAP1 POP JUMP JUMPDEST PUSH32 0x4552432D333634333A204E6F206964656E746974792072656769737472790000 PUSH0 DUP3 ADD MSTORE POP JUMP JUMPDEST PUSH0 PUSH2 0x1D6C PUSH1 0x1E DUP4 PUSH2 0x1CC0 JUMP JUMPDEST SWAP2 POP PUSH2 0x1D77 DUP3 PUSH2 0x1D38 JUMP JUMPDEST PUSH1 0x20 DUP3 ADD SWAP1 POP SWAP2 SWAP1 POP JUMP JUMPDEST PUSH0 PUSH1 0x20 DUP3 ADD SWAP1 POP DUP2 DUP2 SUB PUSH0 DUP4 ADD MSTORE PUSH2 0x1D99 DUP2 PUSH2 0x1D60 JUMP JUMPDEST SWAP1 POP SWAP2 SWAP1 POP JUMP JUMPDEST PUSH32 0x4E487B7100000000000000000000000000000000000000000000000000000000 PUSH0 MSTORE PUSH1 0x32 PUSH1 0x4 MSTORE PUSH1 0x24 PUSH0 REVERT JUMPDEST PUSH0 DUP2 SWAP1 POP SWAP2 SWAP1 POP JUMP JUMPDEST PUSH32 0x4E487B7100000000000000000000000000000000000000000000000000000000 PUSH0 MSTORE PUSH1 0x11 PUSH1 0x4 MSTORE PUSH1 0x24 PUSH0 REVERT JUMPDEST PUSH0 PUSH2 0x1E0D DUP3 PUSH2 0x1DCD JUMP JUMPDEST SWAP2 POP PUSH2 0x1E18 DUP4 PUSH2 0x1DCD JUMP JUMPDEST SWAP3 POP DUP3 DUP3 SUB SWAP1 POP DUP2 DUP2 GT ISZERO PUSH2 0x1E30 JUMPI PUSH2 0x1E2F PUSH2 0x1DD6 JUMP JUMPDEST JUMPDEST SWAP3 SWAP2 POP POP JUMP JUMPDEST PUSH32 0x4E487B7100000000000000000000000000000000000000000000000000000000 PUSH0 MSTORE PUSH1 0x31 PUSH1 0x4 MSTORE PUSH1 0x24 PUSH0 REVERT JUMPDEST PUSH32 0x4552432D333634333A2041646472657373206E6F742073746F72656400000000 PUSH0 DUP3 ADD MSTORE POP JUMP JUMPDEST PUSH0 PUSH2 0x1E97 PUSH1 0x1C DUP4 PUSH2 0x1CC0 JUMP JUMPDEST SWAP2 POP PUSH2 0x1EA2 DUP3 PUSH2 0x1E63 JUMP JUMPDEST PUSH1 0x20 DUP3 ADD SWAP1 POP SWAP2 SWAP1 POP JUMP JUMPDEST PUSH0 PUSH1 0x20 DUP3 ADD SWAP1 POP DUP2 DUP2 SUB PUSH0 DUP4 ADD MSTORE PUSH2 0x1EC4 DUP2 PUSH2 0x1E8B JUMP JUMPDEST SWAP1 POP SWAP2 SWAP1 POP JUMP JUMPDEST PUSH32 0x4552432D333634333A20416C72656164792073746F7265640000000000000000 PUSH0 DUP3 ADD MSTORE POP JUMP JUMPDEST PUSH0 PUSH2 0x1EFF PUSH1 0x18 DUP4 PUSH2 0x1CC0 JUMP JUMPDEST SWAP2 POP PUSH2 0x1F0A DUP3 PUSH2 0x1ECB JUMP JUMPDEST PUSH1 0x20 DUP3 ADD SWAP1 POP SWAP2 SWAP1 POP JUMP JUMPDEST PUSH0 PUSH1 0x20 DUP3 ADD SWAP1 POP DUP2 DUP2 SUB PUSH0 DUP4 ADD MSTORE PUSH2 0x1F2C DUP2 PUSH2 0x1EF3 JUMP JUMPDEST SWAP1 POP SWAP2 SWAP1 POP JUMP JUMPDEST PUSH2 0x1F3C DUP2 PUSH2 0x196B JUMP JUMPDEST DUP3 MSTORE POP POP JUMP JUMPDEST PUSH0 PUSH1 0x40 DUP3 ADD SWAP1 POP PUSH2 0x1F55 PUSH0 DUP4 ADD DUP6 PUSH2 0x1F33 JUMP JUMPDEST PUSH2 0x1F62 PUSH1 0x20 DUP4 ADD DUP5 PUSH2 0x18CF JUMP JUMPDEST SWAP4 SWAP3 POP POP POP JUMP INVALID LOG2 PUSH5 0x6970667358 0x22 SLT KECCAK256 0xCC CALL SWAP1 0x24 PUSH21 0x72EAC36C3D677D1A2B31336A1F85A2797C5F0F35FC PUSH20 0x474735DB3764736F6C6343000814003300000000 "
				},
				"gasEstimates": {
					"creation": {
						"codeDepositCost": "1619000",
						"executionCost": "infinite",
						"totalCost": "infinite"
					},
					"external": {
						"AGENT_ROLE()": "376",
						"DEFAULT_ADMIN_ROLE()": "397",
						"OWNER_ROLE()": "418",
						"addIdentityToStorage(address,address,uint16)": "infinite",
						"bindIdentityRegistry(address)": "infinite",
						"getRoleAdmin(bytes32)": "infinite",
						"grantRole(bytes32,address)": "infinite",
						"hasRole(bytes32,address)": "3233",
						"linkedIdentityRegistries()": "infinite",
						"modifyStoredIdentity(address,address)": "infinite",
						"modifyStoredInvestorCountry(address,uint16)": "infinite",
						"removeIdentityFromStorage(address)": "infinite",
						"renounceRole(bytes32,address)": "infinite",
						"revokeRole(bytes32,address)": "infinite",
						"storedIdentity(address)": "infinite",
						"storedInvestorCountry(address)": "2993",
						"supportsInterface(bytes4)": "741",
						"unbindIdentityRegistry(address)": "infinite"
					}
				},
				"methodIdentifiers": {
					"AGENT_ROLE()": "22459e18",
					"DEFAULT_ADMIN_ROLE()": "a217fddf",
					"OWNER_ROLE()": "e58378bb",
					"addIdentityToStorage(address,address,uint16)": "a53410dd",
					"bindIdentityRegistry(address)": "690a49f9",
					"getRoleAdmin(bytes32)": "248a9ca3",
					"grantRole(bytes32,address)": "2f2ff15d",
					"hasRole(bytes32,address)": "91d14854",
					"linkedIdentityRegistries()": "bf9eb959",
					"modifyStoredIdentity(address,address)": "e805cf86",
					"modifyStoredInvestorCountry(address,uint16)": "9f3418d5",
					"removeIdentityFromStorage(address)": "cf191bcd",
					"renounceRole(bytes32,address)": "36568abe",
					"revokeRole(bytes32,address)": "d547741f",
					"storedIdentity(address)": "7988d3a5",
					"storedInvestorCountry(address)": "727e13bc",
					"supportsInterface(bytes4)": "01ffc9a7",
					"unbindIdentityRegistry(address)": "97a012f7"
				}
			},
			"storageLayout": {
				"storage": [
					{
						"astId": 305,
						"contract": "contracts/registry/IdentityRegistryStorage.sol:IdentityRegistryStorage",
						"label": "_roles",
						"offset": 0,
						"slot": "0",
						"type": "t_mapping(t_bytes32,t_struct(RoleData)300_storage)"
					},
					{
						"astId": 754,
						"contract": "contracts/registry/IdentityRegistryStorage.sol:IdentityRegistryStorage",
						"label": "_identities",
						"offset": 0,
						"slot": "1",
						"type": "t_mapping(t_address,t_struct(Identity)742_storage)"
					},
					{
						"astId": 758,
						"contract": "contracts/registry/IdentityRegistryStorage.sol:IdentityRegistryStorage",
						"label": "_identityRegistries",
						"offset": 0,
						"slot": "2",
						"type": "t_array(t_address)dyn_storage"
					}
				],
				"types": {
					"t_address": {
						"encoding": "inplace",
						"label": "address",
						"numberOfBytes": "20"
					},
					"t_array(t_address)dyn_storage": {
						"base": "t_address",
						"encoding": "dynamic_array",
						"label": "address[]",
						"numberOfBytes": "32"
					},
					"t_bool": {
						"encoding": "inplace",
						"label": "bool",
						"numberOfBytes": "1"
					},
					"t_bytes32": {
						"encoding": "inplace",
						"label": "bytes32",
						"numberOfBytes": "32"
					},
					"t_contract(IIdentity)278": {
						"encoding": "inplace",
						"label": "contract IIdentity",
						"numberOfBytes": "20"
					},
					"t_mapping(t_address,t_bool)": {
						"encoding": "mapping",
						"key": "t_address",
						"label": "mapping(address => bool)",
						"numberOfBytes": "32",
						"value": "t_bool"
					},
					"t_mapping(t_address,t_struct(Identity)742_storage)": {
						"encoding": "mapping",
						"key": "t_address",
						"label": "mapping(address => struct IdentityRegistryStorage.Identity)",
						"numberOfBytes": "32",
						"value": "t_struct(Identity)742_storage"
					},
					"t_mapping(t_bytes32,t_struct(RoleData)300_storage)": {
						"encoding": "mapping",
						"key": "t_bytes32",
						"label": "mapping(bytes32 => struct AccessControl.RoleData)",
						"numberOfBytes": "32",
						"value": "t_struct(RoleData)300_storage"
					},
					"t_struct(Identity)742_storage": {
						"encoding": "inplace",
						"label": "struct IdentityRegistryStorage.Identity",
						"members": [
							{
								"astId": 738,
								"contract": "contracts/registry/IdentityRegistryStorage.sol:IdentityRegistryStorage",
								"label": "identityContract",
								"offset": 0,
								"slot": "0",
								"type": "t_contract(IIdentity)278"
							},
							{
								"astId": 741,
								"contract": "contracts/registry/IdentityRegistryStorage.sol:IdentityRegistryStorage",
								"label": "investorCountry",
								"offset": 20,
								"slot": "0",
								"type": "t_uint16"
							}
						],
						"numberOfBytes": "32"
					},
					"t_struct(RoleData)300_storage": {
						"encoding": "inplace",
						"label": "struct AccessControl.RoleData",
						"members": [
							{
								"astId": 297,
								"contract": "contracts/registry/IdentityRegistryStorage.sol:IdentityRegistryStorage",
								"label": "hasRole",
								"offset": 0,
								"slot": "0",
								"type": "t_mapping(t_address,t_bool)"
							},
							{
								"astId": 299,
								"contract": "contracts/registry/IdentityRegistryStorage.sol:IdentityRegistryStorage",
								"label": "adminRole",
								"offset": 0,
								"slot": "1",
								"type": "t_bytes32"
							}
						],
						"numberOfBytes": "64"
					},
					"t_uint16": {
						"encoding": "inplace",
						"label": "uint16",
						"numberOfBytes": "2"
					}
				}
			},
			"userdoc": {
				"events": {
					"CountryModified(address,uint16)": {
						"notice": "this event is emitted when an Identity's country has been updated  the event is emitted by the 'updateCountry' function  `investorAddress` is the address on which the country has been updated  `country` is the numeric code (ISO 3166-1) of the new country"
					},
					"IdentityModified(address,address)": {
						"notice": "this event is emitted when an Identity has been updated  the event is emitted by the 'updateIdentity' function  `oldIdentity` is the old Identity contract's address to update  `newIdentity` is the new Identity contract's"
					},
					"IdentityRegistryBound(address)": {
						"notice": "this event is emitted when an Identity Registry is bound to the storage contract  the event is emitted by the 'addIdentityRegistry' function  `identityRegistry` is the address of the identity registry added"
					},
					"IdentityRegistryUnbound(address)": {
						"notice": "this event is emitted when an Identity Registry is unbound from the storage contract  the event is emitted by the 'removeIdentityRegistry' function  `identityRegistry` is the address of the identity registry removed"
					},
					"IdentityStored(address,address)": {
						"notice": "this event is emitted when an Identity is registered into the storage contract.  the event is emitted by the 'registerIdentity' function  `investorAddress` is the address of the investor's wallet  `identity` is the address of the Identity smart contract (onchainID)"
					},
					"IdentityUnstored(address,address)": {
						"notice": "this event is emitted when an Identity is removed from the storage contract.  the event is emitted by the 'deleteIdentity' function  `investorAddress` is the address of the investor's wallet  `identity` is the address of the Identity smart contract (onchainID)"
					}
				},
				"kind": "user",
				"methods": {
					"addIdentityToStorage(address,address,uint16)": {
						"notice": "Adds a new identity to the storage"
					},
					"bindIdentityRegistry(address)": {
						"notice": "Links an identity registry to this storage"
					},
					"linkedIdentityRegistries()": {
						"notice": "Returns all linked identity registries"
					},
					"modifyStoredIdentity(address,address)": {
						"notice": "Modifies the stored identity of a user"
					},
					"modifyStoredInvestorCountry(address,uint16)": {
						"notice": "Modifies the stored investor country of a user"
					},
					"removeIdentityFromStorage(address)": {
						"notice": "Removes a user identity from the storage"
					},
					"storedIdentity(address)": {
						"notice": "Returns the stored identity of a user"
					},
					"storedInvestorCountry(address)": {
						"notice": "Returns the stored investor country of a user"
					},
					"unbindIdentityRegistry(address)": {
						"notice": "Unlinks an identity registry from this storage"
					}
				},
				"notice": "Stores user identities and their respective countries.",
				"version": 1
			}
		}
	}
}