{
	"contracts/registry/ClaimIssuersRegistry.sol": {
		"ClaimIssuersRegistry": {
			"abi": [
				{
					"inputs": [
						{
							"internalType": "address",
							"name": "owner",
							"type": "address"
						}
					],
					"name": "OwnableInvalidOwner",
					"type": "error"
				},
				{
					"inputs": [
						{
							"internalType": "address",
							"name": "account",
							"type": "address"
						}
					],
					"name": "OwnableUnauthorizedAccount",
					"type": "error"
				},
				{
					"anonymous": false,
					"inputs": [
						{
							"indexed": true,
							"internalType": "contract IClaimIssuer",
							"name": "claimIssuer",
							"type": "address"
						},
						{
							"indexed": false,
							"internalType": "uint256[]",
							"name": "claimTopics",
							"type": "uint256[]"
						}
					],
					"name": "ClaimIssuerAdded",
					"type": "event"
				},
				{
					"anonymous": false,
					"inputs": [
						{
							"indexed": true,
							"internalType": "contract IClaimIssuer",
							"name": "claimIssuer",
							"type": "address"
						}
					],
					"name": "ClaimIssuerRemoved",
					"type": "event"
				},
				{
					"anonymous": false,
					"inputs": [
						{
							"indexed": true,
							"internalType": "contract IClaimIssuer",
							"name": "claimIssuer",
							"type": "address"
						},
						{
							"indexed": false,
							"internalType": "uint256[]",
							"name": "claimTopics",
							"type": "uint256[]"
						}
					],
					"name": "ClaimTopicsUpdated",
					"type": "event"
				},
				{
					"anonymous": false,
					"inputs": [
						{
							"indexed": true,
							"internalType": "address",
							"name": "previousOwner",
							"type": "address"
						},
						{
							"indexed": true,
							"internalType": "address",
							"name": "newOwner",
							"type": "address"
						}
					],
					"name": "OwnershipTransferred",
					"type": "event"
				},
				{
					"inputs": [
						{
							"internalType": "contract IClaimIssuer",
							"name": "_claimIssuer",
							"type": "address"
						},
						{
							"internalType": "uint256[]",
							"name": "_claimTopics",
							"type": "uint256[]"
						}
					],
					"name": "addClaimIssuer",
					"outputs": [],
					"stateMutability": "nonpayable",
					"type": "function"
				},
				{
					"inputs": [
						{
							"internalType": "contract IClaimIssuer",
							"name": "_claimIssuer",
							"type": "address"
						}
					],
					"name": "getClaimIssuerClaimTopics",
					"outputs": [
						{
							"internalType": "uint256[]",
							"name": "",
							"type": "uint256[]"
						}
					],
					"stateMutability": "view",
					"type": "function"
				},
				{
					"inputs": [],
					"name": "getClaimIssuers",
					"outputs": [
						{
							"internalType": "contract IClaimIssuer[]",
							"name": "",
							"type": "address[]"
						}
					],
					"stateMutability": "view",
					"type": "function"
				},
				{
					"inputs": [
						{
							"internalType": "uint256",
							"name": "claimTopic",
							"type": "uint256"
						}
					],
					"name": "getClaimIssuersForClaimTopic",
					"outputs": [
						{
							"internalType": "contract IClaimIssuer[]",
							"name": "",
							"type": "address[]"
						}
					],
					"stateMutability": "view",
					"type": "function"
				},
				{
					"inputs": [
						{
							"internalType": "contract IClaimIssuer",
							"name": "_issuer",
							"type": "address"
						},
						{
							"internalType": "uint256",
							"name": "_claimTopic",
							"type": "uint256"
						}
					],
					"name": "hasClaimTopic",
					"outputs": [
						{
							"internalType": "bool",
							"name": "",
							"type": "bool"
						}
					],
					"stateMutability": "view",
					"type": "function"
				},
				{
					"inputs": [
						{
							"internalType": "contract IClaimIssuer",
							"name": "_issuer",
							"type": "address"
						}
					],
					"name": "isClaimIssuer",
					"outputs": [
						{
							"internalType": "bool",
							"name": "",
							"type": "bool"
						}
					],
					"stateMutability": "view",
					"type": "function"
				},
				{
					"inputs": [],
					"name": "owner",
					"outputs": [
						{
							"internalType": "address",
							"name": "",
							"type": "address"
						}
					],
					"stateMutability": "view",
					"type": "function"
				},
				{
					"inputs": [
						{
							"internalType": "contract IClaimIssuer",
							"name": "_claimIssuer",
							"type": "address"
						}
					],
					"name": "removeClaimIssuer",
					"outputs": [],
					"stateMutability": "nonpayable",
					"type": "function"
				},
				{
					"inputs": [],
					"name": "renounceOwnership",
					"outputs": [],
					"stateMutability": "nonpayable",
					"type": "function"
				},
				{
					"inputs": [
						{
							"internalType": "address",
							"name": "newOwner",
							"type": "address"
						}
					],
					"name": "transferOwnership",
					"outputs": [],
					"stateMutability": "nonpayable",
					"type": "function"
				},
				{
					"inputs": [
						{
							"internalType": "contract IClaimIssuer",
							"name": "_claimIssuer",
							"type": "address"
						},
						{
							"internalType": "uint256[]",
							"name": "_claimTopics",
							"type": "uint256[]"
						}
					],
					"name": "updateIssuerClaimTopics",
					"outputs": [],
					"stateMutability": "nonpayable",
					"type": "function"
				}
			],
			"devdoc": {
				"details": "This contract maintains a registry of claim issuers and their associated claim topics for the ERC-3643 standard.",
				"errors": {
					"OwnableInvalidOwner(address)": [
						{
							"details": "The owner is not a valid owner account. (eg. `address(0)`)"
						}
					],
					"OwnableUnauthorizedAccount(address)": [
						{
							"details": "The caller account is not authorized to perform an operation."
						}
					]
				},
				"kind": "dev",
				"methods": {
					"addClaimIssuer(address,uint256[])": {
						"params": {
							"_claimIssuer": "The address of the claim issuer.",
							"_claimTopics": "An array of claim topics associated with the claim issuer. Requirements: - The caller must be the owner of the contract. - The claim issuer address must not be zero. - The claim issuer must not already exist in the registry. - The claim topics array must not be empty. - It is recommended to add a reasonable number of claim issuers at once. Emits a ClaimIssuerAdded event."
						}
					},
					"getClaimIssuerClaimTopics(address)": {
						"params": {
							"_claimIssuer": "The claim issuer to find associated claim topics for."
						},
						"returns": {
							"_0": "A memory array of claim topics."
						}
					},
					"getClaimIssuers()": {
						"returns": {
							"_0": "A memory array of claim issuers."
						}
					},
					"getClaimIssuersForClaimTopic(uint256)": {
						"params": {
							"claimTopic": "The claim topic to find associated claim issuers for."
						},
						"returns": {
							"_0": "A memory array of claim issuers."
						}
					},
					"hasClaimTopic(address,uint256)": {
						"details": "This function checks if a specific claim topic is associated with a claim issuer.",
						"params": {
							"_claimTopic": "The claim topic to check.",
							"_issuer": "The claim issuer to check."
						},
						"returns": {
							"_0": "bool True if the claim issuer has the claim topic, otherwise false."
						}
					},
					"isClaimIssuer(address)": {
						"params": {
							"_issuer": "The address to check."
						},
						"returns": {
							"_0": "True if the address is a claim issuer, false otherwise."
						}
					},
					"owner()": {
						"details": "Returns the address of the current owner."
					},
					"removeClaimIssuer(address)": {
						"params": {
							"_claimIssuer": "The address of the claim issuer to be removed. Requirements: - The caller must be the owner of the contract. - The claim issuer must exist in the registry. Emits a ClaimIssuerRemoved event."
						}
					},
					"renounceOwnership()": {
						"details": "Leaves the contract without owner. It will not be possible to call `onlyOwner` functions. Can only be called by the current owner. NOTE: Renouncing ownership will leave the contract without an owner, thereby disabling any functionality that is only available to the owner."
					},
					"transferOwnership(address)": {
						"details": "Transfers ownership of the contract to a new account (`newOwner`). Can only be called by the current owner."
					},
					"updateIssuerClaimTopics(address,uint256[])": {
						"params": {
							"_claimIssuer": "The address of the claim issuer.",
							"_claimTopics": "An array of claim topics to be associated with the claim issuer. Requirements: - The caller must be the owner of the contract. - The claim issuer must exist in the registry. - The claim topics array must not be empty. Emits a ClaimTopicsUpdated event."
						}
					}
				},
				"stateVariables": {
					"_claimIssuerClaimTopics": {
						"details": "Mapping between a claim issuer address and its corresponding claimTopics."
					},
					"_claimIssuers": {
						"details": "Array containing all ClaimIssuers identity contract address."
					},
					"_claimTopicToClaimIssuers": {
						"details": "Mapping between a claim topic and the allowed claim issuers for it."
					}
				},
				"title": "ERC-3643 - ClaimIssuersRegistry",
				"version": 1
			},
			"evm": {
				"assembly": "    /* \"contracts/registry/ClaimIssuersRegistry.sol\":413:9582  contract ClaimIssuersRegistry is IClaimIssuersRegistry, Ownable(msg.sender) {... */\n  mstore(0x40, 0x80)\n  callvalue\n  dup1\n  iszero\n  tag_1\n  jumpi\n  0x00\n  dup1\n  revert\ntag_1:\n  pop\n    /* \"contracts/registry/ClaimIssuersRegistry.sol\":477:487  msg.sender */\n  caller\n    /* \"@openzeppelin/contracts/access/Ownable.sol\":1297:1298  0 */\n  0x00\n    /* \"@openzeppelin/contracts/access/Ownable.sol\":1273:1299  initialOwner == address(0) */\n  0xffffffffffffffffffffffffffffffffffffffff\n  and\n    /* \"@openzeppelin/contracts/access/Ownable.sol\":1273:1285  initialOwner */\n  dup2\n    /* \"@openzeppelin/contracts/access/Ownable.sol\":1273:1299  initialOwner == address(0) */\n  0xffffffffffffffffffffffffffffffffffffffff\n  and\n  sub\n    /* \"@openzeppelin/contracts/access/Ownable.sol\":1269:1364  if (initialOwner == address(0)) {... */\n  tag_4\n  jumpi\n    /* \"@openzeppelin/contracts/access/Ownable.sol\":1350:1351  0 */\n  0x00\n    /* \"@openzeppelin/contracts/access/Ownable.sol\":1322:1353  OwnableInvalidOwner(address(0)) */\n  mload(0x40)\n  0x1e4fbdf700000000000000000000000000000000000000000000000000000000\n  dup2\n  mstore\n  0x04\n  add\n  tag_5\n  swap2\n  swap1\n  tag_6\n  jump\t// in\ntag_5:\n  mload(0x40)\n  dup1\n  swap2\n  sub\n  swap1\n  revert\n    /* \"@openzeppelin/contracts/access/Ownable.sol\":1269:1364  if (initialOwner == address(0)) {... */\ntag_4:\n    /* \"@openzeppelin/contracts/access/Ownable.sol\":1373:1405  _transferOwnership(initialOwner) */\n  tag_7\n    /* \"@openzeppelin/contracts/access/Ownable.sol\":1392:1404  initialOwner */\n  dup2\n    /* \"@openzeppelin/contracts/access/Ownable.sol\":1373:1391  _transferOwnership */\n  shl(0x20, tag_8)\n    /* \"@openzeppelin/contracts/access/Ownable.sol\":1373:1405  _transferOwnership(initialOwner) */\n  0x20\n  shr\n  jump\t// in\ntag_7:\n    /* \"@openzeppelin/contracts/access/Ownable.sol\":1225:1412  constructor(address initialOwner) {... */\n  pop\n    /* \"contracts/registry/ClaimIssuersRegistry.sol\":413:9582  contract ClaimIssuersRegistry is IClaimIssuersRegistry, Ownable(msg.sender) {... */\n  jump(tag_9)\n    /* \"@openzeppelin/contracts/access/Ownable.sol\":2912:3099  function _transferOwnership(address newOwner) internal virtual {... */\ntag_8:\n    /* \"@openzeppelin/contracts/access/Ownable.sol\":2985:3001  address oldOwner */\n  0x00\n    /* \"@openzeppelin/contracts/access/Ownable.sol\":3004:3010  _owner */\n  dup1\n  0x00\n  swap1\n  sload\n  swap1\n  0x0100\n  exp\n  swap1\n  div\n  0xffffffffffffffffffffffffffffffffffffffff\n  and\n    /* \"@openzeppelin/contracts/access/Ownable.sol\":2985:3010  address oldOwner = _owner */\n  swap1\n  pop\n    /* \"@openzeppelin/contracts/access/Ownable.sol\":3029:3037  newOwner */\n  dup2\n    /* \"@openzeppelin/contracts/access/Ownable.sol\":3020:3026  _owner */\n  0x00\n  dup1\n    /* \"@openzeppelin/contracts/access/Ownable.sol\":3020:3037  _owner = newOwner */\n  0x0100\n  exp\n  dup2\n  sload\n  dup2\n  0xffffffffffffffffffffffffffffffffffffffff\n  mul\n  not\n  and\n  swap1\n  dup4\n  0xffffffffffffffffffffffffffffffffffffffff\n  and\n  mul\n  or\n  swap1\n  sstore\n  pop\n    /* \"@openzeppelin/contracts/access/Ownable.sol\":3083:3091  newOwner */\n  dup2\n    /* \"@openzeppelin/contracts/access/Ownable.sol\":3052:3092  OwnershipTransferred(oldOwner, newOwner) */\n  0xffffffffffffffffffffffffffffffffffffffff\n  and\n    /* \"@openzeppelin/contracts/access/Ownable.sol\":3073:3081  oldOwner */\n  dup2\n    /* \"@openzeppelin/contracts/access/Ownable.sol\":3052:3092  OwnershipTransferred(oldOwner, newOwner) */\n  0xffffffffffffffffffffffffffffffffffffffff\n  and\n  0x8be0079c531659141344cd1fd0a4f28419497f9722a3daafe3b4186f6b6457e0\n  mload(0x40)\n  mload(0x40)\n  dup1\n  swap2\n  sub\n  swap1\n  log3\n    /* \"@openzeppelin/contracts/access/Ownable.sol\":2975:3099  {... */\n  pop\n    /* \"@openzeppelin/contracts/access/Ownable.sol\":2912:3099  function _transferOwnership(address newOwner) internal virtual {... */\n  pop\n  jump\t// out\n    /* \"#utility.yul\":7:133   */\ntag_11:\n    /* \"#utility.yul\":44:51   */\n  0x00\n    /* \"#utility.yul\":84:126   */\n  0xffffffffffffffffffffffffffffffffffffffff\n    /* \"#utility.yul\":77:82   */\n  dup3\n    /* \"#utility.yul\":73:127   */\n  and\n    /* \"#utility.yul\":62:127   */\n  swap1\n  pop\n    /* \"#utility.yul\":7:133   */\n  swap2\n  swap1\n  pop\n  jump\t// out\n    /* \"#utility.yul\":139:235   */\ntag_12:\n    /* \"#utility.yul\":176:183   */\n  0x00\n    /* \"#utility.yul\":205:229   */\n  tag_17\n    /* \"#utility.yul\":223:228   */\n  dup3\n    /* \"#utility.yul\":205:229   */\n  tag_11\n  jump\t// in\ntag_17:\n    /* \"#utility.yul\":194:229   */\n  swap1\n  pop\n    /* \"#utility.yul\":139:235   */\n  swap2\n  swap1\n  pop\n  jump\t// out\n    /* \"#utility.yul\":241:359   */\ntag_13:\n    /* \"#utility.yul\":328:352   */\n  tag_19\n    /* \"#utility.yul\":346:351   */\n  dup2\n    /* \"#utility.yul\":328:352   */\n  tag_12\n  jump\t// in\ntag_19:\n    /* \"#utility.yul\":323:326   */\n  dup3\n    /* \"#utility.yul\":316:353   */\n  mstore\n    /* \"#utility.yul\":241:359   */\n  pop\n  pop\n  jump\t// out\n    /* \"#utility.yul\":365:587   */\ntag_6:\n    /* \"#utility.yul\":458:462   */\n  0x00\n    /* \"#utility.yul\":496:498   */\n  0x20\n    /* \"#utility.yul\":485:494   */\n  dup3\n    /* \"#utility.yul\":481:499   */\n  add\n    /* \"#utility.yul\":473:499   */\n  swap1\n  pop\n    /* \"#utility.yul\":509:580   */\n  tag_21\n    /* \"#utility.yul\":577:578   */\n  0x00\n    /* \"#utility.yul\":566:575   */\n  dup4\n    /* \"#utility.yul\":562:579   */\n  add\n    /* \"#utility.yul\":553:559   */\n  dup5\n    /* \"#utility.yul\":509:580   */\n  tag_13\n  jump\t// in\ntag_21:\n    /* \"#utility.yul\":365:587   */\n  swap3\n  swap2\n  pop\n  pop\n  jump\t// out\n    /* \"contracts/registry/ClaimIssuersRegistry.sol\":413:9582  contract ClaimIssuersRegistry is IClaimIssuersRegistry, Ownable(msg.sender) {... */\ntag_9:\n  dataSize(sub_0)\n  dup1\n  dataOffset(sub_0)\n  0x00\n  codecopy\n  0x00\n  return\nstop\n\nsub_0: assembly {\n        /* \"contracts/registry/ClaimIssuersRegistry.sol\":413:9582  contract ClaimIssuersRegistry is IClaimIssuersRegistry, Ownable(msg.sender) {... */\n      mstore(0x40, 0x80)\n      callvalue\n      dup1\n      iszero\n      tag_1\n      jumpi\n      0x00\n      dup1\n      revert\n    tag_1:\n      pop\n      jumpi(tag_2, lt(calldatasize, 0x04))\n      shr(0xe0, calldataload(0x00))\n      dup1\n      0x6b2c56bd\n      gt\n      tag_14\n      jumpi\n      dup1\n      0x6b2c56bd\n      eq\n      tag_8\n      jumpi\n      dup1\n      0x6de48708\n      eq\n      tag_9\n      jumpi\n      dup1\n      0x715018a6\n      eq\n      tag_10\n      jumpi\n      dup1\n      0x8da5cb5b\n      eq\n      tag_11\n      jumpi\n      dup1\n      0xd4f4ac4e\n      eq\n      tag_12\n      jumpi\n      dup1\n      0xf2fde38b\n      eq\n      tag_13\n      jumpi\n      jump(tag_2)\n    tag_14:\n      dup1\n      0x04bc7e84\n      eq\n      tag_3\n      jumpi\n      dup1\n      0x0b4b764c\n      eq\n      tag_4\n      jumpi\n      dup1\n      0x122dade8\n      eq\n      tag_5\n      jumpi\n      dup1\n      0x34a89987\n      eq\n      tag_6\n      jumpi\n      dup1\n      0x38d742a4\n      eq\n      tag_7\n      jumpi\n    tag_2:\n      0x00\n      dup1\n      revert\n        /* \"contracts/registry/ClaimIssuersRegistry.sol\":4012:4580  function updateIssuerClaimTopics(... */\n    tag_3:\n      tag_15\n      0x04\n      dup1\n      calldatasize\n      sub\n      dup2\n      add\n      swap1\n      tag_16\n      swap2\n      swap1\n      tag_17\n      jump\t// in\n    tag_16:\n      tag_18\n      jump\t// in\n    tag_15:\n      stop\n        /* \"contracts/registry/ClaimIssuersRegistry.sol\":2692:3552  function removeClaimIssuer(IClaimIssuer _claimIssuer) external onlyOwner {... */\n    tag_4:\n      tag_19\n      0x04\n      dup1\n      calldatasize\n      sub\n      dup2\n      add\n      swap1\n      tag_20\n      swap2\n      swap1\n      tag_21\n      jump\t// in\n    tag_20:\n      tag_22\n      jump\t// in\n    tag_19:\n      stop\n        /* \"contracts/registry/ClaimIssuersRegistry.sol\":5766:6025  function getClaimIssuerClaimTopics(... */\n    tag_5:\n      tag_23\n      0x04\n      dup1\n      calldatasize\n      sub\n      dup2\n      add\n      swap1\n      tag_24\n      swap2\n      swap1\n      tag_21\n      jump\t// in\n    tag_24:\n      tag_25\n      jump\t// in\n    tag_23:\n      mload(0x40)\n      tag_26\n      swap2\n      swap1\n      tag_27\n      jump\t// in\n    tag_26:\n      mload(0x40)\n      dup1\n      swap2\n      sub\n      swap1\n      return\n        /* \"contracts/registry/ClaimIssuersRegistry.sol\":6382:6872  function hasClaimTopic(... */\n    tag_6:\n      tag_28\n      0x04\n      dup1\n      calldatasize\n      sub\n      dup2\n      add\n      swap1\n      tag_29\n      swap2\n      swap1\n      tag_30\n      jump\t// in\n    tag_29:\n      tag_31\n      jump\t// in\n    tag_28:\n      mload(0x40)\n      tag_32\n      swap2\n      swap1\n      tag_33\n      jump\t// in\n    tag_32:\n      mload(0x40)\n      dup1\n      swap2\n      sub\n      swap1\n      return\n        /* \"contracts/registry/ClaimIssuersRegistry.sol\":1514:2364  function addClaimIssuer(... */\n    tag_7:\n      tag_34\n      0x04\n      dup1\n      calldatasize\n      sub\n      dup2\n      add\n      swap1\n      tag_35\n      swap2\n      swap1\n      tag_17\n      jump\t// in\n    tag_35:\n      tag_36\n      jump\t// in\n    tag_34:\n      stop\n        /* \"contracts/registry/ClaimIssuersRegistry.sol\":5045:5224  function getClaimIssuersForClaimTopic(... */\n    tag_8:\n      tag_37\n      0x04\n      dup1\n      calldatasize\n      sub\n      dup2\n      add\n      swap1\n      tag_38\n      swap2\n      swap1\n      tag_39\n      jump\t// in\n    tag_38:\n      tag_40\n      jump\t// in\n    tag_37:\n      mload(0x40)\n      tag_41\n      swap2\n      swap1\n      tag_42\n      jump\t// in\n    tag_41:\n      mload(0x40)\n      dup1\n      swap2\n      sub\n      swap1\n      return\n        /* \"contracts/registry/ClaimIssuersRegistry.sol\":5419:5540  function isClaimIssuer(IClaimIssuer _issuer) external view returns (bool) {... */\n    tag_9:\n      tag_43\n      0x04\n      dup1\n      calldatasize\n      sub\n      dup2\n      add\n      swap1\n      tag_44\n      swap2\n      swap1\n      tag_21\n      jump\t// in\n    tag_44:\n      tag_45\n      jump\t// in\n    tag_43:\n      mload(0x40)\n      tag_46\n      swap2\n      swap1\n      tag_33\n      jump\t// in\n    tag_46:\n      mload(0x40)\n      dup1\n      swap2\n      sub\n      swap1\n      return\n        /* \"@openzeppelin/contracts/access/Ownable.sol\":2293:2394  function renounceOwnership() public virtual onlyOwner {... */\n    tag_10:\n      tag_47\n      tag_48\n      jump\t// in\n    tag_47:\n      stop\n        /* \"@openzeppelin/contracts/access/Ownable.sol\":1638:1723  function owner() public view virtual returns (address) {... */\n    tag_11:\n      tag_49\n      tag_50\n      jump\t// in\n    tag_49:\n      mload(0x40)\n      tag_51\n      swap2\n      swap1\n      tag_52\n      jump\t// in\n    tag_51:\n      mload(0x40)\n      dup1\n      swap2\n      sub\n      swap1\n      return\n        /* \"contracts/registry/ClaimIssuersRegistry.sol\":4706:4816  function getClaimIssuers() external view returns (IClaimIssuer[] memory) {... */\n    tag_12:\n      tag_53\n      tag_54\n      jump\t// in\n    tag_53:\n      mload(0x40)\n      tag_55\n      swap2\n      swap1\n      tag_42\n      jump\t// in\n    tag_55:\n      mload(0x40)\n      dup1\n      swap2\n      sub\n      swap1\n      return\n        /* \"@openzeppelin/contracts/access/Ownable.sol\":2543:2758  function transferOwnership(address newOwner) public virtual onlyOwner {... */\n    tag_13:\n      tag_56\n      0x04\n      dup1\n      calldatasize\n      sub\n      dup2\n      add\n      swap1\n      tag_57\n      swap2\n      swap1\n      tag_58\n      jump\t// in\n    tag_57:\n      tag_59\n      jump\t// in\n    tag_56:\n      stop\n        /* \"contracts/registry/ClaimIssuersRegistry.sol\":4012:4580  function updateIssuerClaimTopics(... */\n    tag_18:\n        /* \"@openzeppelin/contracts/access/Ownable.sol\":1531:1544  _checkOwner() */\n      tag_61\n        /* \"@openzeppelin/contracts/access/Ownable.sol\":1531:1542  _checkOwner */\n      tag_62\n        /* \"@openzeppelin/contracts/access/Ownable.sol\":1531:1544  _checkOwner() */\n      jump\t// in\n    tag_61:\n        /* \"contracts/registry/ClaimIssuersRegistry.sol\":4187:4188  0 */\n      0x00\n        /* \"contracts/registry/ClaimIssuersRegistry.sol\":4164:4176  _claimTopics */\n      dup3\n      dup3\n        /* \"contracts/registry/ClaimIssuersRegistry.sol\":4164:4183  _claimTopics.length */\n      swap1\n      pop\n        /* \"contracts/registry/ClaimIssuersRegistry.sol\":4164:4188  _claimTopics.length != 0 */\n      sub\n        /* \"contracts/registry/ClaimIssuersRegistry.sol\":4156:4218  require(_claimTopics.length != 0, \"ERC-3643: No claim topics\") */\n      tag_64\n      jumpi\n      mload(0x40)\n      0x08c379a000000000000000000000000000000000000000000000000000000000\n      dup2\n      mstore\n      0x04\n      add\n      tag_65\n      swap1\n      tag_66\n      jump\t// in\n    tag_65:\n      mload(0x40)\n      dup1\n      swap2\n      sub\n      swap1\n      revert\n    tag_64:\n        /* \"contracts/registry/ClaimIssuersRegistry.sol\":4228:4256  uint claimIssuerTopicsLength */\n      0x00\n        /* \"contracts/registry/ClaimIssuersRegistry.sol\":4259:4282  _claimIssuerClaimTopics */\n      0x02\n        /* \"contracts/registry/ClaimIssuersRegistry.sol\":4259:4296  _claimIssuerClaimTopics[_claimIssuer] */\n      0x00\n        /* \"contracts/registry/ClaimIssuersRegistry.sol\":4283:4295  _claimIssuer */\n      dup6\n        /* \"contracts/registry/ClaimIssuersRegistry.sol\":4259:4296  _claimIssuerClaimTopics[_claimIssuer] */\n      0xffffffffffffffffffffffffffffffffffffffff\n      and\n      0xffffffffffffffffffffffffffffffffffffffff\n      and\n      dup2\n      mstore\n      0x20\n      add\n      swap1\n      dup2\n      mstore\n      0x20\n      add\n      0x00\n      keccak256\n        /* \"contracts/registry/ClaimIssuersRegistry.sol\":4259:4316  _claimIssuerClaimTopics[_claimIssuer]... */\n      dup1\n      sload\n      swap1\n      pop\n        /* \"contracts/registry/ClaimIssuersRegistry.sol\":4228:4316  uint claimIssuerTopicsLength = _claimIssuerClaimTopics[_claimIssuer]... */\n      swap1\n      pop\n        /* \"contracts/registry/ClaimIssuersRegistry.sol\":4361:4362  0 */\n      0x00\n        /* \"contracts/registry/ClaimIssuersRegistry.sol\":4334:4357  claimIssuerTopicsLength */\n      dup2\n        /* \"contracts/registry/ClaimIssuersRegistry.sol\":4334:4362  claimIssuerTopicsLength != 0 */\n      sub\n        /* \"contracts/registry/ClaimIssuersRegistry.sol\":4326:4395  require(claimIssuerTopicsLength != 0, \"ERC-3643: Not a claim issuer\") */\n      tag_67\n      jumpi\n      mload(0x40)\n      0x08c379a000000000000000000000000000000000000000000000000000000000\n      dup2\n      mstore\n      0x04\n      add\n      tag_68\n      swap1\n      tag_69\n      jump\t// in\n    tag_68:\n      mload(0x40)\n      dup1\n      swap2\n      sub\n      swap1\n      revert\n    tag_67:\n        /* \"contracts/registry/ClaimIssuersRegistry.sol\":4406:4448  _updateIssuerAcrossAllTopics(_claimIssuer) */\n      tag_70\n        /* \"contracts/registry/ClaimIssuersRegistry.sol\":4435:4447  _claimIssuer */\n      dup5\n        /* \"contracts/registry/ClaimIssuersRegistry.sol\":4406:4434  _updateIssuerAcrossAllTopics */\n      tag_71\n        /* \"contracts/registry/ClaimIssuersRegistry.sol\":4406:4448  _updateIssuerAcrossAllTopics(_claimIssuer) */\n      jump\t// in\n    tag_70:\n        /* \"contracts/registry/ClaimIssuersRegistry.sol\":4499:4511  _claimTopics */\n      dup3\n      dup3\n        /* \"contracts/registry/ClaimIssuersRegistry.sol\":4459:4482  _claimIssuerClaimTopics */\n      0x02\n        /* \"contracts/registry/ClaimIssuersRegistry.sol\":4459:4496  _claimIssuerClaimTopics[_claimIssuer] */\n      0x00\n        /* \"contracts/registry/ClaimIssuersRegistry.sol\":4483:4495  _claimIssuer */\n      dup8\n        /* \"contracts/registry/ClaimIssuersRegistry.sol\":4459:4496  _claimIssuerClaimTopics[_claimIssuer] */\n      0xffffffffffffffffffffffffffffffffffffffff\n      and\n      0xffffffffffffffffffffffffffffffffffffffff\n      and\n      dup2\n      mstore\n      0x20\n      add\n      swap1\n      dup2\n      mstore\n      0x20\n      add\n      0x00\n      keccak256\n        /* \"contracts/registry/ClaimIssuersRegistry.sol\":4459:4511  _claimIssuerClaimTopics[_claimIssuer] = _claimTopics */\n      swap2\n      swap1\n      tag_72\n      swap3\n      swap2\n      swap1\n      tag_73\n      jump\t// in\n    tag_72:\n      pop\n        /* \"contracts/registry/ClaimIssuersRegistry.sol\":4546:4558  _claimIssuer */\n      dup4\n        /* \"contracts/registry/ClaimIssuersRegistry.sol\":4527:4573  ClaimTopicsUpdated(_claimIssuer, _claimTopics) */\n      0xffffffffffffffffffffffffffffffffffffffff\n      and\n      0xec753cfc52044f61676f18a11e500093a9f2b1cd5e4942bc476f2b0438159bcf\n        /* \"contracts/registry/ClaimIssuersRegistry.sol\":4560:4572  _claimTopics */\n      dup5\n      dup5\n        /* \"contracts/registry/ClaimIssuersRegistry.sol\":4527:4573  ClaimTopicsUpdated(_claimIssuer, _claimTopics) */\n      mload(0x40)\n      tag_74\n      swap3\n      swap2\n      swap1\n      tag_75\n      jump\t// in\n    tag_74:\n      mload(0x40)\n      dup1\n      swap2\n      sub\n      swap1\n      log2\n        /* \"contracts/registry/ClaimIssuersRegistry.sol\":4146:4580  {... */\n      pop\n        /* \"contracts/registry/ClaimIssuersRegistry.sol\":4012:4580  function updateIssuerClaimTopics(... */\n      pop\n      pop\n      pop\n      jump\t// out\n        /* \"contracts/registry/ClaimIssuersRegistry.sol\":2692:3552  function removeClaimIssuer(IClaimIssuer _claimIssuer) external onlyOwner {... */\n    tag_22:\n        /* \"@openzeppelin/contracts/access/Ownable.sol\":1531:1544  _checkOwner() */\n      tag_77\n        /* \"@openzeppelin/contracts/access/Ownable.sol\":1531:1542  _checkOwner */\n      tag_62\n        /* \"@openzeppelin/contracts/access/Ownable.sol\":1531:1544  _checkOwner() */\n      jump\t// in\n    tag_77:\n        /* \"contracts/registry/ClaimIssuersRegistry.sol\":2775:2803  uint claimIssuerTopicsLength */\n      0x00\n        /* \"contracts/registry/ClaimIssuersRegistry.sol\":2806:2829  _claimIssuerClaimTopics */\n      0x02\n        /* \"contracts/registry/ClaimIssuersRegistry.sol\":2806:2843  _claimIssuerClaimTopics[_claimIssuer] */\n      0x00\n        /* \"contracts/registry/ClaimIssuersRegistry.sol\":2830:2842  _claimIssuer */\n      dup4\n        /* \"contracts/registry/ClaimIssuersRegistry.sol\":2806:2843  _claimIssuerClaimTopics[_claimIssuer] */\n      0xffffffffffffffffffffffffffffffffffffffff\n      and\n      0xffffffffffffffffffffffffffffffffffffffff\n      and\n      dup2\n      mstore\n      0x20\n      add\n      swap1\n      dup2\n      mstore\n      0x20\n      add\n      0x00\n      keccak256\n        /* \"contracts/registry/ClaimIssuersRegistry.sol\":2806:2863  _claimIssuerClaimTopics[_claimIssuer]... */\n      dup1\n      sload\n      swap1\n      pop\n        /* \"contracts/registry/ClaimIssuersRegistry.sol\":2775:2863  uint claimIssuerTopicsLength = _claimIssuerClaimTopics[_claimIssuer]... */\n      swap1\n      pop\n        /* \"contracts/registry/ClaimIssuersRegistry.sol\":2908:2909  0 */\n      0x00\n        /* \"contracts/registry/ClaimIssuersRegistry.sol\":2881:2904  claimIssuerTopicsLength */\n      dup2\n        /* \"contracts/registry/ClaimIssuersRegistry.sol\":2881:2909  claimIssuerTopicsLength != 0 */\n      sub\n        /* \"contracts/registry/ClaimIssuersRegistry.sol\":2873:2942  require(claimIssuerTopicsLength != 0, \"ERC-3643: Not a claim issuer\") */\n      tag_79\n      jumpi\n      mload(0x40)\n      0x08c379a000000000000000000000000000000000000000000000000000000000\n      dup2\n      mstore\n      0x04\n      add\n      tag_80\n      swap1\n      tag_69\n      jump\t// in\n    tag_80:\n      mload(0x40)\n      dup1\n      swap2\n      sub\n      swap1\n      revert\n    tag_79:\n        /* \"contracts/registry/ClaimIssuersRegistry.sol\":2952:2977  uint256 claimIssuerlength */\n      0x00\n        /* \"contracts/registry/ClaimIssuersRegistry.sol\":2980:2993  _claimIssuers */\n      0x01\n        /* \"contracts/registry/ClaimIssuersRegistry.sol\":2980:3000  _claimIssuers.length */\n      dup1\n      sload\n      swap1\n      pop\n        /* \"contracts/registry/ClaimIssuersRegistry.sol\":2952:3000  uint256 claimIssuerlength = _claimIssuers.length */\n      swap1\n      pop\n        /* \"contracts/registry/ClaimIssuersRegistry.sol\":3015:3024  uint256 i */\n      0x00\n        /* \"contracts/registry/ClaimIssuersRegistry.sol\":3010:3324  for (uint256 i = 0; i < claimIssuerlength; ) {... */\n    tag_81:\n        /* \"contracts/registry/ClaimIssuersRegistry.sol\":3034:3051  claimIssuerlength */\n      dup2\n        /* \"contracts/registry/ClaimIssuersRegistry.sol\":3030:3031  i */\n      dup2\n        /* \"contracts/registry/ClaimIssuersRegistry.sol\":3030:3051  i < claimIssuerlength */\n      lt\n        /* \"contracts/registry/ClaimIssuersRegistry.sol\":3010:3324  for (uint256 i = 0; i < claimIssuerlength; ) {... */\n      iszero\n      tag_82\n      jumpi\n        /* \"contracts/registry/ClaimIssuersRegistry.sol\":3093:3105  _claimIssuer */\n      dup4\n        /* \"contracts/registry/ClaimIssuersRegistry.sol\":3073:3105  _claimIssuers[i] == _claimIssuer */\n      0xffffffffffffffffffffffffffffffffffffffff\n      and\n        /* \"contracts/registry/ClaimIssuersRegistry.sol\":3073:3086  _claimIssuers */\n      0x01\n        /* \"contracts/registry/ClaimIssuersRegistry.sol\":3087:3088  i */\n      dup3\n        /* \"contracts/registry/ClaimIssuersRegistry.sol\":3073:3089  _claimIssuers[i] */\n      dup2\n      sload\n      dup2\n      lt\n      tag_84\n      jumpi\n      tag_85\n      tag_86\n      jump\t// in\n    tag_85:\n    tag_84:\n      swap1\n      0x00\n      mstore\n      keccak256(0x00, 0x20)\n      add\n      0x00\n      swap1\n      sload\n      swap1\n      0x0100\n      exp\n      swap1\n      div\n      0xffffffffffffffffffffffffffffffffffffffff\n      and\n        /* \"contracts/registry/ClaimIssuersRegistry.sol\":3073:3105  _claimIssuers[i] == _claimIssuer */\n      0xffffffffffffffffffffffffffffffffffffffff\n      and\n      sub\n        /* \"contracts/registry/ClaimIssuersRegistry.sol\":3069:3255  if (_claimIssuers[i] == _claimIssuer) {... */\n      tag_88\n      jumpi\n        /* \"contracts/registry/ClaimIssuersRegistry.sol\":3144:3157  _claimIssuers */\n      0x01\n        /* \"contracts/registry/ClaimIssuersRegistry.sol\":3178:3179  1 */\n      dup1\n        /* \"contracts/registry/ClaimIssuersRegistry.sol\":3158:3175  claimIssuerlength */\n      dup4\n        /* \"contracts/registry/ClaimIssuersRegistry.sol\":3158:3179  claimIssuerlength - 1 */\n      tag_89\n      swap2\n      swap1\n      tag_90\n      jump\t// in\n    tag_89:\n        /* \"contracts/registry/ClaimIssuersRegistry.sol\":3144:3180  _claimIssuers[claimIssuerlength - 1] */\n      dup2\n      sload\n      dup2\n      lt\n      tag_91\n      jumpi\n      tag_92\n      tag_86\n      jump\t// in\n    tag_92:\n    tag_91:\n      swap1\n      0x00\n      mstore\n      keccak256(0x00, 0x20)\n      add\n      0x00\n      swap1\n      sload\n      swap1\n      0x0100\n      exp\n      swap1\n      div\n      0xffffffffffffffffffffffffffffffffffffffff\n      and\n        /* \"contracts/registry/ClaimIssuersRegistry.sol\":3125:3138  _claimIssuers */\n      0x01\n        /* \"contracts/registry/ClaimIssuersRegistry.sol\":3139:3140  i */\n      dup3\n        /* \"contracts/registry/ClaimIssuersRegistry.sol\":3125:3141  _claimIssuers[i] */\n      dup2\n      sload\n      dup2\n      lt\n      tag_94\n      jumpi\n      tag_95\n      tag_86\n      jump\t// in\n    tag_95:\n    tag_94:\n      swap1\n      0x00\n      mstore\n      keccak256(0x00, 0x20)\n      add\n      0x00\n        /* \"contracts/registry/ClaimIssuersRegistry.sol\":3125:3180  _claimIssuers[i] = _claimIssuers[claimIssuerlength - 1] */\n      0x0100\n      exp\n      dup2\n      sload\n      dup2\n      0xffffffffffffffffffffffffffffffffffffffff\n      mul\n      not\n      and\n      swap1\n      dup4\n      0xffffffffffffffffffffffffffffffffffffffff\n      and\n      mul\n      or\n      swap1\n      sstore\n      pop\n        /* \"contracts/registry/ClaimIssuersRegistry.sol\":3198:3211  _claimIssuers */\n      0x01\n        /* \"contracts/registry/ClaimIssuersRegistry.sol\":3198:3217  _claimIssuers.pop() */\n      dup1\n      sload\n      dup1\n      tag_97\n      jumpi\n      tag_98\n      tag_99\n      jump\t// in\n    tag_98:\n    tag_97:\n      0x01\n      swap1\n      sub\n      dup2\n      dup2\n      swap1\n      0x00\n      mstore\n      keccak256(0x00, 0x20)\n      add\n      exp(0x0100, 0x00)\n      dup2\n      sload\n      swap1\n      0xffffffffffffffffffffffffffffffffffffffff\n      mul\n      not\n      and\n      swap1\n      sstore\n      swap1\n      sstore\n        /* \"contracts/registry/ClaimIssuersRegistry.sol\":3235:3240  break */\n      jump(tag_82)\n        /* \"contracts/registry/ClaimIssuersRegistry.sol\":3069:3255  if (_claimIssuers[i] == _claimIssuer) {... */\n    tag_88:\n        /* \"contracts/registry/ClaimIssuersRegistry.sol\":3296:3299  ++i */\n      dup1\n      0x01\n      add\n      swap1\n      pop\n        /* \"contracts/registry/ClaimIssuersRegistry.sol\":3010:3324  for (uint256 i = 0; i < claimIssuerlength; ) {... */\n      jump(tag_81)\n    tag_82:\n      pop\n        /* \"contracts/registry/ClaimIssuersRegistry.sol\":3334:3443  _removeClaimIssuerFromAllClaimTopics(... */\n      tag_101\n        /* \"contracts/registry/ClaimIssuersRegistry.sol\":3384:3396  _claimIssuer */\n      dup4\n        /* \"contracts/registry/ClaimIssuersRegistry.sol\":3410:3433  claimIssuerTopicsLength */\n      dup4\n        /* \"contracts/registry/ClaimIssuersRegistry.sol\":3334:3370  _removeClaimIssuerFromAllClaimTopics */\n      tag_102\n        /* \"contracts/registry/ClaimIssuersRegistry.sol\":3334:3443  _removeClaimIssuerFromAllClaimTopics(... */\n      jump\t// in\n    tag_101:\n        /* \"contracts/registry/ClaimIssuersRegistry.sol\":3461:3484  _claimIssuerClaimTopics */\n      0x02\n        /* \"contracts/registry/ClaimIssuersRegistry.sol\":3461:3498  _claimIssuerClaimTopics[_claimIssuer] */\n      0x00\n        /* \"contracts/registry/ClaimIssuersRegistry.sol\":3485:3497  _claimIssuer */\n      dup5\n        /* \"contracts/registry/ClaimIssuersRegistry.sol\":3461:3498  _claimIssuerClaimTopics[_claimIssuer] */\n      0xffffffffffffffffffffffffffffffffffffffff\n      and\n      0xffffffffffffffffffffffffffffffffffffffff\n      and\n      dup2\n      mstore\n      0x20\n      add\n      swap1\n      dup2\n      mstore\n      0x20\n      add\n      0x00\n      keccak256\n      0x00\n        /* \"contracts/registry/ClaimIssuersRegistry.sol\":3454:3498  delete _claimIssuerClaimTopics[_claimIssuer] */\n      tag_103\n      swap2\n      swap1\n      tag_104\n      jump\t// in\n    tag_103:\n        /* \"contracts/registry/ClaimIssuersRegistry.sol\":3532:3544  _claimIssuer */\n      dup3\n        /* \"contracts/registry/ClaimIssuersRegistry.sol\":3513:3545  ClaimIssuerRemoved(_claimIssuer) */\n      0xffffffffffffffffffffffffffffffffffffffff\n      and\n      0x8432c8693d2550c2eb52d3f0a803b38eb8c3c0e62234fa1b6b8b35cc38667854\n      mload(0x40)\n      mload(0x40)\n      dup1\n      swap2\n      sub\n      swap1\n      log2\n        /* \"contracts/registry/ClaimIssuersRegistry.sol\":2765:3552  {... */\n      pop\n      pop\n        /* \"contracts/registry/ClaimIssuersRegistry.sol\":2692:3552  function removeClaimIssuer(IClaimIssuer _claimIssuer) external onlyOwner {... */\n      pop\n      jump\t// out\n        /* \"contracts/registry/ClaimIssuersRegistry.sol\":5766:6025  function getClaimIssuerClaimTopics(... */\n    tag_25:\n        /* \"contracts/registry/ClaimIssuersRegistry.sol\":5865:5881  uint256[] memory */\n      0x60\n        /* \"contracts/registry/ClaimIssuersRegistry.sol\":5901:5929  _isClaimIssuer(_claimIssuer) */\n      tag_106\n        /* \"contracts/registry/ClaimIssuersRegistry.sol\":5916:5928  _claimIssuer */\n      dup3\n        /* \"contracts/registry/ClaimIssuersRegistry.sol\":5901:5915  _isClaimIssuer */\n      tag_107\n        /* \"contracts/registry/ClaimIssuersRegistry.sol\":5901:5929  _isClaimIssuer(_claimIssuer) */\n      jump\t// in\n    tag_106:\n        /* \"contracts/registry/ClaimIssuersRegistry.sol\":5893:5964  require(_isClaimIssuer(_claimIssuer), \"ERC-3643: Issuer doesn't exist\") */\n      tag_108\n      jumpi\n      mload(0x40)\n      0x08c379a000000000000000000000000000000000000000000000000000000000\n      dup2\n      mstore\n      0x04\n      add\n      tag_109\n      swap1\n      tag_110\n      jump\t// in\n    tag_109:\n      mload(0x40)\n      dup1\n      swap2\n      sub\n      swap1\n      revert\n    tag_108:\n        /* \"contracts/registry/ClaimIssuersRegistry.sol\":5981:6004  _claimIssuerClaimTopics */\n      0x02\n        /* \"contracts/registry/ClaimIssuersRegistry.sol\":5981:6018  _claimIssuerClaimTopics[_claimIssuer] */\n      0x00\n        /* \"contracts/registry/ClaimIssuersRegistry.sol\":6005:6017  _claimIssuer */\n      dup4\n        /* \"contracts/registry/ClaimIssuersRegistry.sol\":5981:6018  _claimIssuerClaimTopics[_claimIssuer] */\n      0xffffffffffffffffffffffffffffffffffffffff\n      and\n      0xffffffffffffffffffffffffffffffffffffffff\n      and\n      dup2\n      mstore\n      0x20\n      add\n      swap1\n      dup2\n      mstore\n      0x20\n      add\n      0x00\n      keccak256\n        /* \"contracts/registry/ClaimIssuersRegistry.sol\":5974:6018  return _claimIssuerClaimTopics[_claimIssuer] */\n      dup1\n      sload\n      dup1\n      0x20\n      mul\n      0x20\n      add\n      mload(0x40)\n      swap1\n      dup2\n      add\n      0x40\n      mstore\n      dup1\n      swap3\n      swap2\n      swap1\n      dup2\n      dup2\n      mstore\n      0x20\n      add\n      dup3\n      dup1\n      sload\n      dup1\n      iszero\n      tag_111\n      jumpi\n      0x20\n      mul\n      dup3\n      add\n      swap2\n      swap1\n      0x00\n      mstore\n      keccak256(0x00, 0x20)\n      swap1\n    tag_112:\n      dup2\n      sload\n      dup2\n      mstore\n      0x20\n      add\n      swap1\n      0x01\n      add\n      swap1\n      dup1\n      dup4\n      gt\n      tag_112\n      jumpi\n    tag_111:\n      pop\n      pop\n      pop\n      pop\n      pop\n      swap1\n      pop\n        /* \"contracts/registry/ClaimIssuersRegistry.sol\":5766:6025  function getClaimIssuerClaimTopics(... */\n      swap2\n      swap1\n      pop\n      jump\t// out\n        /* \"contracts/registry/ClaimIssuersRegistry.sol\":6382:6872  function hasClaimTopic(... */\n    tag_31:\n        /* \"contracts/registry/ClaimIssuersRegistry.sol\":6493:6497  bool */\n      0x00\n        /* \"contracts/registry/ClaimIssuersRegistry.sol\":6509:6523  uint256 length */\n      dup1\n        /* \"contracts/registry/ClaimIssuersRegistry.sol\":6526:6549  _claimIssuerClaimTopics */\n      0x02\n        /* \"contracts/registry/ClaimIssuersRegistry.sol\":6526:6558  _claimIssuerClaimTopics[_issuer] */\n      0x00\n        /* \"contracts/registry/ClaimIssuersRegistry.sol\":6550:6557  _issuer */\n      dup6\n        /* \"contracts/registry/ClaimIssuersRegistry.sol\":6526:6558  _claimIssuerClaimTopics[_issuer] */\n      0xffffffffffffffffffffffffffffffffffffffff\n      and\n      0xffffffffffffffffffffffffffffffffffffffff\n      and\n      dup2\n      mstore\n      0x20\n      add\n      swap1\n      dup2\n      mstore\n      0x20\n      add\n      0x00\n      keccak256\n        /* \"contracts/registry/ClaimIssuersRegistry.sol\":6526:6565  _claimIssuerClaimTopics[_issuer].length */\n      dup1\n      sload\n      swap1\n      pop\n        /* \"contracts/registry/ClaimIssuersRegistry.sol\":6509:6565  uint256 length = _claimIssuerClaimTopics[_issuer].length */\n      swap1\n      pop\n        /* \"contracts/registry/ClaimIssuersRegistry.sol\":6575:6603  uint256[] memory claimTopics */\n      0x00\n        /* \"contracts/registry/ClaimIssuersRegistry.sol\":6606:6629  _claimIssuerClaimTopics */\n      0x02\n        /* \"contracts/registry/ClaimIssuersRegistry.sol\":6606:6638  _claimIssuerClaimTopics[_issuer] */\n      0x00\n        /* \"contracts/registry/ClaimIssuersRegistry.sol\":6630:6637  _issuer */\n      dup7\n        /* \"contracts/registry/ClaimIssuersRegistry.sol\":6606:6638  _claimIssuerClaimTopics[_issuer] */\n      0xffffffffffffffffffffffffffffffffffffffff\n      and\n      0xffffffffffffffffffffffffffffffffffffffff\n      and\n      dup2\n      mstore\n      0x20\n      add\n      swap1\n      dup2\n      mstore\n      0x20\n      add\n      0x00\n      keccak256\n        /* \"contracts/registry/ClaimIssuersRegistry.sol\":6575:6638  uint256[] memory claimTopics = _claimIssuerClaimTopics[_issuer] */\n      dup1\n      sload\n      dup1\n      0x20\n      mul\n      0x20\n      add\n      mload(0x40)\n      swap1\n      dup2\n      add\n      0x40\n      mstore\n      dup1\n      swap3\n      swap2\n      swap1\n      dup2\n      dup2\n      mstore\n      0x20\n      add\n      dup3\n      dup1\n      sload\n      dup1\n      iszero\n      tag_114\n      jumpi\n      0x20\n      mul\n      dup3\n      add\n      swap2\n      swap1\n      0x00\n      mstore\n      keccak256(0x00, 0x20)\n      swap1\n    tag_115:\n      dup2\n      sload\n      dup2\n      mstore\n      0x20\n      add\n      swap1\n      0x01\n      add\n      swap1\n      dup1\n      dup4\n      gt\n      tag_115\n      jumpi\n    tag_114:\n      pop\n      pop\n      pop\n      pop\n      pop\n      swap1\n      pop\n        /* \"contracts/registry/ClaimIssuersRegistry.sol\":6653:6662  uint256 i */\n      0x00\n        /* \"contracts/registry/ClaimIssuersRegistry.sol\":6648:6844  for (uint256 i = 0; i < length; ) {... */\n    tag_116:\n        /* \"contracts/registry/ClaimIssuersRegistry.sol\":6672:6678  length */\n      dup3\n        /* \"contracts/registry/ClaimIssuersRegistry.sol\":6668:6669  i */\n      dup2\n        /* \"contracts/registry/ClaimIssuersRegistry.sol\":6668:6678  i < length */\n      lt\n        /* \"contracts/registry/ClaimIssuersRegistry.sol\":6648:6844  for (uint256 i = 0; i < length; ) {... */\n      iszero\n      tag_117\n      jumpi\n        /* \"contracts/registry/ClaimIssuersRegistry.sol\":6718:6729  _claimTopic */\n      dup5\n        /* \"contracts/registry/ClaimIssuersRegistry.sol\":6700:6711  claimTopics */\n      dup3\n        /* \"contracts/registry/ClaimIssuersRegistry.sol\":6712:6713  i */\n      dup3\n        /* \"contracts/registry/ClaimIssuersRegistry.sol\":6700:6714  claimTopics[i] */\n      dup2\n      mload\n      dup2\n      lt\n      tag_119\n      jumpi\n      tag_120\n      tag_86\n      jump\t// in\n    tag_120:\n    tag_119:\n      0x20\n      mul\n      0x20\n      add\n      add\n      mload\n        /* \"contracts/registry/ClaimIssuersRegistry.sol\":6700:6729  claimTopics[i] == _claimTopic */\n      sub\n        /* \"contracts/registry/ClaimIssuersRegistry.sol\":6696:6775  if (claimTopics[i] == _claimTopic) {... */\n      tag_121\n      jumpi\n        /* \"contracts/registry/ClaimIssuersRegistry.sol\":6756:6760  true */\n      0x01\n        /* \"contracts/registry/ClaimIssuersRegistry.sol\":6749:6760  return true */\n      swap4\n      pop\n      pop\n      pop\n      pop\n      jump(tag_113)\n        /* \"contracts/registry/ClaimIssuersRegistry.sol\":6696:6775  if (claimTopics[i] == _claimTopic) {... */\n    tag_121:\n        /* \"contracts/registry/ClaimIssuersRegistry.sol\":6816:6819  ++i */\n      dup1\n      0x01\n      add\n      swap1\n      pop\n        /* \"contracts/registry/ClaimIssuersRegistry.sol\":6648:6844  for (uint256 i = 0; i < length; ) {... */\n      jump(tag_116)\n    tag_117:\n      pop\n        /* \"contracts/registry/ClaimIssuersRegistry.sol\":6860:6865  false */\n      0x00\n        /* \"contracts/registry/ClaimIssuersRegistry.sol\":6853:6865  return false */\n      swap3\n      pop\n      pop\n      pop\n        /* \"contracts/registry/ClaimIssuersRegistry.sol\":6382:6872  function hasClaimTopic(... */\n    tag_113:\n      swap3\n      swap2\n      pop\n      pop\n      jump\t// out\n        /* \"contracts/registry/ClaimIssuersRegistry.sol\":1514:2364  function addClaimIssuer(... */\n    tag_36:\n        /* \"@openzeppelin/contracts/access/Ownable.sol\":1531:1544  _checkOwner() */\n      tag_123\n        /* \"@openzeppelin/contracts/access/Ownable.sol\":1531:1542  _checkOwner */\n      tag_62\n        /* \"@openzeppelin/contracts/access/Ownable.sol\":1531:1544  _checkOwner() */\n      jump\t// in\n    tag_123:\n        /* \"contracts/registry/ClaimIssuersRegistry.sol\":1703:1704  0 */\n      0x00\n        /* \"contracts/registry/ClaimIssuersRegistry.sol\":1670:1705  address(_claimIssuer) != address(0) */\n      0xffffffffffffffffffffffffffffffffffffffff\n      and\n        /* \"contracts/registry/ClaimIssuersRegistry.sol\":1678:1690  _claimIssuer */\n      dup4\n        /* \"contracts/registry/ClaimIssuersRegistry.sol\":1670:1705  address(_claimIssuer) != address(0) */\n      0xffffffffffffffffffffffffffffffffffffffff\n      and\n      sub\n        /* \"contracts/registry/ClaimIssuersRegistry.sol\":1649:1761  require(... */\n      tag_125\n      jumpi\n      mload(0x40)\n      0x08c379a000000000000000000000000000000000000000000000000000000000\n      dup2\n      mstore\n      0x04\n      add\n      tag_126\n      swap1\n      tag_127\n      jump\t// in\n    tag_126:\n      mload(0x40)\n      dup1\n      swap2\n      sub\n      swap1\n      revert\n    tag_125:\n        /* \"contracts/registry/ClaimIssuersRegistry.sol\":1840:1841  0 */\n      0x00\n        /* \"contracts/registry/ClaimIssuersRegistry.sol\":1792:1815  _claimIssuerClaimTopics */\n      0x02\n        /* \"contracts/registry/ClaimIssuersRegistry.sol\":1792:1829  _claimIssuerClaimTopics[_claimIssuer] */\n      0x00\n        /* \"contracts/registry/ClaimIssuersRegistry.sol\":1816:1828  _claimIssuer */\n      dup6\n        /* \"contracts/registry/ClaimIssuersRegistry.sol\":1792:1829  _claimIssuerClaimTopics[_claimIssuer] */\n      0xffffffffffffffffffffffffffffffffffffffff\n      and\n      0xffffffffffffffffffffffffffffffffffffffff\n      and\n      dup2\n      mstore\n      0x20\n      add\n      swap1\n      dup2\n      mstore\n      0x20\n      add\n      0x00\n      keccak256\n        /* \"contracts/registry/ClaimIssuersRegistry.sol\":1792:1836  _claimIssuerClaimTopics[_claimIssuer].length */\n      dup1\n      sload\n      swap1\n      pop\n        /* \"contracts/registry/ClaimIssuersRegistry.sol\":1792:1841  _claimIssuerClaimTopics[_claimIssuer].length == 0 */\n      eq\n        /* \"contracts/registry/ClaimIssuersRegistry.sol\":1771:1898  require(... */\n      tag_128\n      jumpi\n      mload(0x40)\n      0x08c379a000000000000000000000000000000000000000000000000000000000\n      dup2\n      mstore\n      0x04\n      add\n      tag_129\n      swap1\n      tag_130\n      jump\t// in\n    tag_129:\n      mload(0x40)\n      dup1\n      swap2\n      sub\n      swap1\n      revert\n    tag_128:\n        /* \"contracts/registry/ClaimIssuersRegistry.sol\":1908:1919  uint length */\n      0x00\n        /* \"contracts/registry/ClaimIssuersRegistry.sol\":1922:1934  _claimTopics */\n      dup3\n      dup3\n        /* \"contracts/registry/ClaimIssuersRegistry.sol\":1922:1941  _claimTopics.length */\n      swap1\n      pop\n        /* \"contracts/registry/ClaimIssuersRegistry.sol\":1908:1941  uint length = _claimTopics.length */\n      swap1\n      pop\n        /* \"contracts/registry/ClaimIssuersRegistry.sol\":1969:1970  0 */\n      0x00\n        /* \"contracts/registry/ClaimIssuersRegistry.sol\":1959:1965  length */\n      dup2\n        /* \"contracts/registry/ClaimIssuersRegistry.sol\":1959:1970  length != 0 */\n      sub\n        /* \"contracts/registry/ClaimIssuersRegistry.sol\":1951:2003  require(length != 0, \"ERC-3643: Empty claim topics\") */\n      tag_131\n      jumpi\n      mload(0x40)\n      0x08c379a000000000000000000000000000000000000000000000000000000000\n      dup2\n      mstore\n      0x04\n      add\n      tag_132\n      swap1\n      tag_133\n      jump\t// in\n    tag_132:\n      mload(0x40)\n      dup1\n      swap2\n      sub\n      swap1\n      revert\n    tag_131:\n        /* \"contracts/registry/ClaimIssuersRegistry.sol\":2014:2027  _claimIssuers */\n      0x01\n        /* \"contracts/registry/ClaimIssuersRegistry.sol\":2033:2045  _claimIssuer */\n      dup5\n        /* \"contracts/registry/ClaimIssuersRegistry.sol\":2014:2046  _claimIssuers.push(_claimIssuer) */\n      swap1\n      dup1\n      0x01\n      dup2\n      sload\n      add\n      dup1\n      dup3\n      sstore\n      dup1\n      swap2\n      pop\n      pop\n      0x01\n      swap1\n      sub\n      swap1\n      0x00\n      mstore\n      keccak256(0x00, 0x20)\n      add\n      0x00\n      swap1\n      swap2\n      swap1\n      swap2\n      swap1\n      swap2\n      0x0100\n      exp\n      dup2\n      sload\n      dup2\n      0xffffffffffffffffffffffffffffffffffffffff\n      mul\n      not\n      and\n      swap1\n      dup4\n      0xffffffffffffffffffffffffffffffffffffffff\n      and\n      mul\n      or\n      swap1\n      sstore\n      pop\n        /* \"contracts/registry/ClaimIssuersRegistry.sol\":2096:2108  _claimTopics */\n      dup3\n      dup3\n        /* \"contracts/registry/ClaimIssuersRegistry.sol\":2056:2079  _claimIssuerClaimTopics */\n      0x02\n        /* \"contracts/registry/ClaimIssuersRegistry.sol\":2056:2093  _claimIssuerClaimTopics[_claimIssuer] */\n      0x00\n        /* \"contracts/registry/ClaimIssuersRegistry.sol\":2080:2092  _claimIssuer */\n      dup8\n        /* \"contracts/registry/ClaimIssuersRegistry.sol\":2056:2093  _claimIssuerClaimTopics[_claimIssuer] */\n      0xffffffffffffffffffffffffffffffffffffffff\n      and\n      0xffffffffffffffffffffffffffffffffffffffff\n      and\n      dup2\n      mstore\n      0x20\n      add\n      swap1\n      dup2\n      mstore\n      0x20\n      add\n      0x00\n      keccak256\n        /* \"contracts/registry/ClaimIssuersRegistry.sol\":2056:2108  _claimIssuerClaimTopics[_claimIssuer] = _claimTopics */\n      swap2\n      swap1\n      tag_135\n      swap3\n      swap2\n      swap1\n      tag_73\n      jump\t// in\n    tag_135:\n      pop\n        /* \"contracts/registry/ClaimIssuersRegistry.sol\":2124:2133  uint256 i */\n      0x00\n        /* \"contracts/registry/ClaimIssuersRegistry.sol\":2119:2298  for (uint256 i = 0; i < length; ) {... */\n    tag_136:\n        /* \"contracts/registry/ClaimIssuersRegistry.sol\":2143:2149  length */\n      dup2\n        /* \"contracts/registry/ClaimIssuersRegistry.sol\":2139:2140  i */\n      dup2\n        /* \"contracts/registry/ClaimIssuersRegistry.sol\":2139:2149  i < length */\n      lt\n        /* \"contracts/registry/ClaimIssuersRegistry.sol\":2119:2298  for (uint256 i = 0; i < length; ) {... */\n      iszero\n      tag_137\n      jumpi\n        /* \"contracts/registry/ClaimIssuersRegistry.sol\":2167:2192  _claimTopicToClaimIssuers */\n      0x03\n        /* \"contracts/registry/ClaimIssuersRegistry.sol\":2167:2209  _claimTopicToClaimIssuers[_claimTopics[i]] */\n      0x00\n        /* \"contracts/registry/ClaimIssuersRegistry.sol\":2193:2205  _claimTopics */\n      dup6\n      dup6\n        /* \"contracts/registry/ClaimIssuersRegistry.sol\":2206:2207  i */\n      dup5\n        /* \"contracts/registry/ClaimIssuersRegistry.sol\":2193:2208  _claimTopics[i] */\n      dup2\n      dup2\n      lt\n      tag_139\n      jumpi\n      tag_140\n      tag_86\n      jump\t// in\n    tag_140:\n    tag_139:\n      swap1\n      pop\n      0x20\n      mul\n      add\n      calldataload\n        /* \"contracts/registry/ClaimIssuersRegistry.sol\":2167:2209  _claimTopicToClaimIssuers[_claimTopics[i]] */\n      dup2\n      mstore\n      0x20\n      add\n      swap1\n      dup2\n      mstore\n      0x20\n      add\n      0x00\n      keccak256\n        /* \"contracts/registry/ClaimIssuersRegistry.sol\":2215:2227  _claimIssuer */\n      dup6\n        /* \"contracts/registry/ClaimIssuersRegistry.sol\":2167:2228  _claimTopicToClaimIssuers[_claimTopics[i]].push(_claimIssuer) */\n      swap1\n      dup1\n      0x01\n      dup2\n      sload\n      add\n      dup1\n      dup3\n      sstore\n      dup1\n      swap2\n      pop\n      pop\n      0x01\n      swap1\n      sub\n      swap1\n      0x00\n      mstore\n      keccak256(0x00, 0x20)\n      add\n      0x00\n      swap1\n      swap2\n      swap1\n      swap2\n      swap1\n      swap2\n      0x0100\n      exp\n      dup2\n      sload\n      dup2\n      0xffffffffffffffffffffffffffffffffffffffff\n      mul\n      not\n      and\n      swap1\n      dup4\n      0xffffffffffffffffffffffffffffffffffffffff\n      and\n      mul\n      or\n      swap1\n      sstore\n      pop\n        /* \"contracts/registry/ClaimIssuersRegistry.sol\":2270:2273  ++i */\n      dup1\n      0x01\n      add\n      swap1\n      pop\n        /* \"contracts/registry/ClaimIssuersRegistry.sol\":2119:2298  for (uint256 i = 0; i < length; ) {... */\n      jump(tag_136)\n    tag_137:\n      pop\n        /* \"contracts/registry/ClaimIssuersRegistry.sol\":2330:2342  _claimIssuer */\n      dup4\n        /* \"contracts/registry/ClaimIssuersRegistry.sol\":2313:2357  ClaimIssuerAdded(_claimIssuer, _claimTopics) */\n      0xffffffffffffffffffffffffffffffffffffffff\n      and\n      0x375851630239b005eafd9230e43a9a9d4a5d7b96a4956fc8e9d2ab3ff4583d16\n        /* \"contracts/registry/ClaimIssuersRegistry.sol\":2344:2356  _claimTopics */\n      dup5\n      dup5\n        /* \"contracts/registry/ClaimIssuersRegistry.sol\":2313:2357  ClaimIssuerAdded(_claimIssuer, _claimTopics) */\n      mload(0x40)\n      tag_142\n      swap3\n      swap2\n      swap1\n      tag_75\n      jump\t// in\n    tag_142:\n      mload(0x40)\n      dup1\n      swap2\n      sub\n      swap1\n      log2\n        /* \"contracts/registry/ClaimIssuersRegistry.sol\":1639:2364  {... */\n      pop\n        /* \"contracts/registry/ClaimIssuersRegistry.sol\":1514:2364  function addClaimIssuer(... */\n      pop\n      pop\n      pop\n      jump\t// out\n        /* \"contracts/registry/ClaimIssuersRegistry.sol\":5045:5224  function getClaimIssuersForClaimTopic(... */\n    tag_40:\n        /* \"contracts/registry/ClaimIssuersRegistry.sol\":5140:5161  IClaimIssuer[] memory */\n      0x60\n        /* \"contracts/registry/ClaimIssuersRegistry.sol\":5180:5205  _claimTopicToClaimIssuers */\n      0x03\n        /* \"contracts/registry/ClaimIssuersRegistry.sol\":5180:5217  _claimTopicToClaimIssuers[claimTopic] */\n      0x00\n        /* \"contracts/registry/ClaimIssuersRegistry.sol\":5206:5216  claimTopic */\n      dup4\n        /* \"contracts/registry/ClaimIssuersRegistry.sol\":5180:5217  _claimTopicToClaimIssuers[claimTopic] */\n      dup2\n      mstore\n      0x20\n      add\n      swap1\n      dup2\n      mstore\n      0x20\n      add\n      0x00\n      keccak256\n        /* \"contracts/registry/ClaimIssuersRegistry.sol\":5173:5217  return _claimTopicToClaimIssuers[claimTopic] */\n      dup1\n      sload\n      dup1\n      0x20\n      mul\n      0x20\n      add\n      mload(0x40)\n      swap1\n      dup2\n      add\n      0x40\n      mstore\n      dup1\n      swap3\n      swap2\n      swap1\n      dup2\n      dup2\n      mstore\n      0x20\n      add\n      dup3\n      dup1\n      sload\n      dup1\n      iszero\n      tag_144\n      jumpi\n      0x20\n      mul\n      dup3\n      add\n      swap2\n      swap1\n      0x00\n      mstore\n      keccak256(0x00, 0x20)\n      swap1\n    tag_145:\n      dup2\n      0x00\n      swap1\n      sload\n      swap1\n      0x0100\n      exp\n      swap1\n      div\n      0xffffffffffffffffffffffffffffffffffffffff\n      and\n      0xffffffffffffffffffffffffffffffffffffffff\n      and\n      dup2\n      mstore\n      0x20\n      add\n      swap1\n      0x01\n      add\n      swap1\n      dup1\n      dup4\n      gt\n      tag_145\n      jumpi\n    tag_144:\n      pop\n      pop\n      pop\n      pop\n      pop\n      swap1\n      pop\n        /* \"contracts/registry/ClaimIssuersRegistry.sol\":5045:5224  function getClaimIssuersForClaimTopic(... */\n      swap2\n      swap1\n      pop\n      jump\t// out\n        /* \"contracts/registry/ClaimIssuersRegistry.sol\":5419:5540  function isClaimIssuer(IClaimIssuer _issuer) external view returns (bool) {... */\n    tag_45:\n        /* \"contracts/registry/ClaimIssuersRegistry.sol\":5487:5491  bool */\n      0x00\n        /* \"contracts/registry/ClaimIssuersRegistry.sol\":5510:5533  _isClaimIssuer(_issuer) */\n      tag_147\n        /* \"contracts/registry/ClaimIssuersRegistry.sol\":5525:5532  _issuer */\n      dup3\n        /* \"contracts/registry/ClaimIssuersRegistry.sol\":5510:5524  _isClaimIssuer */\n      tag_107\n        /* \"contracts/registry/ClaimIssuersRegistry.sol\":5510:5533  _isClaimIssuer(_issuer) */\n      jump\t// in\n    tag_147:\n        /* \"contracts/registry/ClaimIssuersRegistry.sol\":5503:5533  return _isClaimIssuer(_issuer) */\n      swap1\n      pop\n        /* \"contracts/registry/ClaimIssuersRegistry.sol\":5419:5540  function isClaimIssuer(IClaimIssuer _issuer) external view returns (bool) {... */\n      swap2\n      swap1\n      pop\n      jump\t// out\n        /* \"@openzeppelin/contracts/access/Ownable.sol\":2293:2394  function renounceOwnership() public virtual onlyOwner {... */\n    tag_48:\n        /* \"@openzeppelin/contracts/access/Ownable.sol\":1531:1544  _checkOwner() */\n      tag_149\n        /* \"@openzeppelin/contracts/access/Ownable.sol\":1531:1542  _checkOwner */\n      tag_62\n        /* \"@openzeppelin/contracts/access/Ownable.sol\":1531:1544  _checkOwner() */\n      jump\t// in\n    tag_149:\n        /* \"@openzeppelin/contracts/access/Ownable.sol\":2357:2387  _transferOwnership(address(0)) */\n      tag_151\n        /* \"@openzeppelin/contracts/access/Ownable.sol\":2384:2385  0 */\n      0x00\n        /* \"@openzeppelin/contracts/access/Ownable.sol\":2357:2375  _transferOwnership */\n      tag_152\n        /* \"@openzeppelin/contracts/access/Ownable.sol\":2357:2387  _transferOwnership(address(0)) */\n      jump\t// in\n    tag_151:\n        /* \"@openzeppelin/contracts/access/Ownable.sol\":2293:2394  function renounceOwnership() public virtual onlyOwner {... */\n      jump\t// out\n        /* \"@openzeppelin/contracts/access/Ownable.sol\":1638:1723  function owner() public view virtual returns (address) {... */\n    tag_50:\n        /* \"@openzeppelin/contracts/access/Ownable.sol\":1684:1691  address */\n      0x00\n        /* \"@openzeppelin/contracts/access/Ownable.sol\":1710:1716  _owner */\n      dup1\n      0x00\n      swap1\n      sload\n      swap1\n      0x0100\n      exp\n      swap1\n      div\n      0xffffffffffffffffffffffffffffffffffffffff\n      and\n        /* \"@openzeppelin/contracts/access/Ownable.sol\":1703:1716  return _owner */\n      swap1\n      pop\n        /* \"@openzeppelin/contracts/access/Ownable.sol\":1638:1723  function owner() public view virtual returns (address) {... */\n      swap1\n      jump\t// out\n        /* \"contracts/registry/ClaimIssuersRegistry.sol\":4706:4816  function getClaimIssuers() external view returns (IClaimIssuer[] memory) {... */\n    tag_54:\n        /* \"contracts/registry/ClaimIssuersRegistry.sol\":4756:4777  IClaimIssuer[] memory */\n      0x60\n        /* \"contracts/registry/ClaimIssuersRegistry.sol\":4796:4809  _claimIssuers */\n      0x01\n        /* \"contracts/registry/ClaimIssuersRegistry.sol\":4789:4809  return _claimIssuers */\n      dup1\n      sload\n      dup1\n      0x20\n      mul\n      0x20\n      add\n      mload(0x40)\n      swap1\n      dup2\n      add\n      0x40\n      mstore\n      dup1\n      swap3\n      swap2\n      swap1\n      dup2\n      dup2\n      mstore\n      0x20\n      add\n      dup3\n      dup1\n      sload\n      dup1\n      iszero\n      tag_155\n      jumpi\n      0x20\n      mul\n      dup3\n      add\n      swap2\n      swap1\n      0x00\n      mstore\n      keccak256(0x00, 0x20)\n      swap1\n    tag_156:\n      dup2\n      0x00\n      swap1\n      sload\n      swap1\n      0x0100\n      exp\n      swap1\n      div\n      0xffffffffffffffffffffffffffffffffffffffff\n      and\n      0xffffffffffffffffffffffffffffffffffffffff\n      and\n      dup2\n      mstore\n      0x20\n      add\n      swap1\n      0x01\n      add\n      swap1\n      dup1\n      dup4\n      gt\n      tag_156\n      jumpi\n    tag_155:\n      pop\n      pop\n      pop\n      pop\n      pop\n      swap1\n      pop\n        /* \"contracts/registry/ClaimIssuersRegistry.sol\":4706:4816  function getClaimIssuers() external view returns (IClaimIssuer[] memory) {... */\n      swap1\n      jump\t// out\n        /* \"@openzeppelin/contracts/access/Ownable.sol\":2543:2758  function transferOwnership(address newOwner) public virtual onlyOwner {... */\n    tag_59:\n        /* \"@openzeppelin/contracts/access/Ownable.sol\":1531:1544  _checkOwner() */\n      tag_158\n        /* \"@openzeppelin/contracts/access/Ownable.sol\":1531:1542  _checkOwner */\n      tag_62\n        /* \"@openzeppelin/contracts/access/Ownable.sol\":1531:1544  _checkOwner() */\n      jump\t// in\n    tag_158:\n        /* \"@openzeppelin/contracts/access/Ownable.sol\":2647:2648  0 */\n      0x00\n        /* \"@openzeppelin/contracts/access/Ownable.sol\":2627:2649  newOwner == address(0) */\n      0xffffffffffffffffffffffffffffffffffffffff\n      and\n        /* \"@openzeppelin/contracts/access/Ownable.sol\":2627:2635  newOwner */\n      dup2\n        /* \"@openzeppelin/contracts/access/Ownable.sol\":2627:2649  newOwner == address(0) */\n      0xffffffffffffffffffffffffffffffffffffffff\n      and\n      sub\n        /* \"@openzeppelin/contracts/access/Ownable.sol\":2623:2714  if (newOwner == address(0)) {... */\n      tag_160\n      jumpi\n        /* \"@openzeppelin/contracts/access/Ownable.sol\":2700:2701  0 */\n      0x00\n        /* \"@openzeppelin/contracts/access/Ownable.sol\":2672:2703  OwnableInvalidOwner(address(0)) */\n      mload(0x40)\n      0x1e4fbdf700000000000000000000000000000000000000000000000000000000\n      dup2\n      mstore\n      0x04\n      add\n      tag_161\n      swap2\n      swap1\n      tag_52\n      jump\t// in\n    tag_161:\n      mload(0x40)\n      dup1\n      swap2\n      sub\n      swap1\n      revert\n        /* \"@openzeppelin/contracts/access/Ownable.sol\":2623:2714  if (newOwner == address(0)) {... */\n    tag_160:\n        /* \"@openzeppelin/contracts/access/Ownable.sol\":2723:2751  _transferOwnership(newOwner) */\n      tag_162\n        /* \"@openzeppelin/contracts/access/Ownable.sol\":2742:2750  newOwner */\n      dup2\n        /* \"@openzeppelin/contracts/access/Ownable.sol\":2723:2741  _transferOwnership */\n      tag_152\n        /* \"@openzeppelin/contracts/access/Ownable.sol\":2723:2751  _transferOwnership(newOwner) */\n      jump\t// in\n    tag_162:\n        /* \"@openzeppelin/contracts/access/Ownable.sol\":2543:2758  function transferOwnership(address newOwner) public virtual onlyOwner {... */\n      pop\n      jump\t// out\n        /* \"@openzeppelin/contracts/access/Ownable.sol\":1796:1958  function _checkOwner() internal view virtual {... */\n    tag_62:\n        /* \"@openzeppelin/contracts/access/Ownable.sol\":1866:1878  _msgSender() */\n      tag_164\n        /* \"@openzeppelin/contracts/access/Ownable.sol\":1866:1876  _msgSender */\n      tag_165\n        /* \"@openzeppelin/contracts/access/Ownable.sol\":1866:1878  _msgSender() */\n      jump\t// in\n    tag_164:\n        /* \"@openzeppelin/contracts/access/Ownable.sol\":1855:1878  owner() != _msgSender() */\n      0xffffffffffffffffffffffffffffffffffffffff\n      and\n        /* \"@openzeppelin/contracts/access/Ownable.sol\":1855:1862  owner() */\n      tag_166\n        /* \"@openzeppelin/contracts/access/Ownable.sol\":1855:1860  owner */\n      tag_50\n        /* \"@openzeppelin/contracts/access/Ownable.sol\":1855:1862  owner() */\n      jump\t// in\n    tag_166:\n        /* \"@openzeppelin/contracts/access/Ownable.sol\":1855:1878  owner() != _msgSender() */\n      0xffffffffffffffffffffffffffffffffffffffff\n      and\n      eq\n        /* \"@openzeppelin/contracts/access/Ownable.sol\":1851:1952  if (owner() != _msgSender()) {... */\n      tag_167\n      jumpi\n        /* \"@openzeppelin/contracts/access/Ownable.sol\":1928:1940  _msgSender() */\n      tag_168\n        /* \"@openzeppelin/contracts/access/Ownable.sol\":1928:1938  _msgSender */\n      tag_165\n        /* \"@openzeppelin/contracts/access/Ownable.sol\":1928:1940  _msgSender() */\n      jump\t// in\n    tag_168:\n        /* \"@openzeppelin/contracts/access/Ownable.sol\":1901:1941  OwnableUnauthorizedAccount(_msgSender()) */\n      mload(0x40)\n      0x118cdaa700000000000000000000000000000000000000000000000000000000\n      dup2\n      mstore\n      0x04\n      add\n      tag_169\n      swap2\n      swap1\n      tag_52\n      jump\t// in\n    tag_169:\n      mload(0x40)\n      dup1\n      swap2\n      sub\n      swap1\n      revert\n        /* \"@openzeppelin/contracts/access/Ownable.sol\":1851:1952  if (owner() != _msgSender()) {... */\n    tag_167:\n        /* \"@openzeppelin/contracts/access/Ownable.sol\":1796:1958  function _checkOwner() internal view virtual {... */\n      jump\t// out\n        /* \"contracts/registry/ClaimIssuersRegistry.sol\":7689:8185  function _updateIssuerAcrossAllTopics(IClaimIssuer claimIssuer) private {... */\n    tag_71:\n        /* \"contracts/registry/ClaimIssuersRegistry.sol\":7771:7799  uint256[] memory claimTopics */\n      0x00\n        /* \"contracts/registry/ClaimIssuersRegistry.sol\":7802:7825  _claimIssuerClaimTopics */\n      0x02\n        /* \"contracts/registry/ClaimIssuersRegistry.sol\":7802:7838  _claimIssuerClaimTopics[claimIssuer] */\n      0x00\n        /* \"contracts/registry/ClaimIssuersRegistry.sol\":7826:7837  claimIssuer */\n      dup4\n        /* \"contracts/registry/ClaimIssuersRegistry.sol\":7802:7838  _claimIssuerClaimTopics[claimIssuer] */\n      0xffffffffffffffffffffffffffffffffffffffff\n      and\n      0xffffffffffffffffffffffffffffffffffffffff\n      and\n      dup2\n      mstore\n      0x20\n      add\n      swap1\n      dup2\n      mstore\n      0x20\n      add\n      0x00\n      keccak256\n        /* \"contracts/registry/ClaimIssuersRegistry.sol\":7771:7838  uint256[] memory claimTopics = _claimIssuerClaimTopics[claimIssuer] */\n      dup1\n      sload\n      dup1\n      0x20\n      mul\n      0x20\n      add\n      mload(0x40)\n      swap1\n      dup2\n      add\n      0x40\n      mstore\n      dup1\n      swap3\n      swap2\n      swap1\n      dup2\n      dup2\n      mstore\n      0x20\n      add\n      dup3\n      dup1\n      sload\n      dup1\n      iszero\n      tag_171\n      jumpi\n      0x20\n      mul\n      dup3\n      add\n      swap2\n      swap1\n      0x00\n      mstore\n      keccak256(0x00, 0x20)\n      swap1\n    tag_172:\n      dup2\n      sload\n      dup2\n      mstore\n      0x20\n      add\n      swap1\n      0x01\n      add\n      swap1\n      dup1\n      dup4\n      gt\n      tag_172\n      jumpi\n    tag_171:\n      pop\n      pop\n      pop\n      pop\n      pop\n      swap1\n      pop\n        /* \"contracts/registry/ClaimIssuersRegistry.sol\":7848:7859  uint length */\n      0x00\n        /* \"contracts/registry/ClaimIssuersRegistry.sol\":7862:7873  claimTopics */\n      dup2\n        /* \"contracts/registry/ClaimIssuersRegistry.sol\":7862:7880  claimTopics.length */\n      mload\n        /* \"contracts/registry/ClaimIssuersRegistry.sol\":7848:7880  uint length = claimTopics.length */\n      swap1\n      pop\n        /* \"contracts/registry/ClaimIssuersRegistry.sol\":7896:7905  uint256 i */\n      0x00\n        /* \"contracts/registry/ClaimIssuersRegistry.sol\":7891:8179  for (uint256 i = 0; i < length; ) {... */\n    tag_173:\n        /* \"contracts/registry/ClaimIssuersRegistry.sol\":7915:7921  length */\n      dup2\n        /* \"contracts/registry/ClaimIssuersRegistry.sol\":7911:7912  i */\n      dup2\n        /* \"contracts/registry/ClaimIssuersRegistry.sol\":7911:7921  i < length */\n      lt\n        /* \"contracts/registry/ClaimIssuersRegistry.sol\":7891:8179  for (uint256 i = 0; i < length; ) {... */\n      iszero\n      tag_174\n      jumpi\n        /* \"contracts/registry/ClaimIssuersRegistry.sol\":7939:7957  uint256 claimTopic */\n      0x00\n        /* \"contracts/registry/ClaimIssuersRegistry.sol\":7960:7971  claimTopics */\n      dup4\n        /* \"contracts/registry/ClaimIssuersRegistry.sol\":7972:7973  i */\n      dup3\n        /* \"contracts/registry/ClaimIssuersRegistry.sol\":7960:7974  claimTopics[i] */\n      dup2\n      mload\n      dup2\n      lt\n      tag_176\n      jumpi\n      tag_177\n      tag_86\n      jump\t// in\n    tag_177:\n    tag_176:\n      0x20\n      mul\n      0x20\n      add\n      add\n      mload\n        /* \"contracts/registry/ClaimIssuersRegistry.sol\":7939:7974  uint256 claimTopic = claimTopics[i] */\n      swap1\n      pop\n        /* \"contracts/registry/ClaimIssuersRegistry.sol\":7989:8036  _removeIssuerFromTopic(claimIssuer, claimTopic) */\n      tag_178\n        /* \"contracts/registry/ClaimIssuersRegistry.sol\":8012:8023  claimIssuer */\n      dup6\n        /* \"contracts/registry/ClaimIssuersRegistry.sol\":8025:8035  claimTopic */\n      dup3\n        /* \"contracts/registry/ClaimIssuersRegistry.sol\":7989:8011  _removeIssuerFromTopic */\n      tag_179\n        /* \"contracts/registry/ClaimIssuersRegistry.sol\":7989:8036  _removeIssuerFromTopic(claimIssuer, claimTopic) */\n      jump\t// in\n    tag_178:\n        /* \"contracts/registry/ClaimIssuersRegistry.sol\":8050:8075  _claimTopicToClaimIssuers */\n      0x03\n        /* \"contracts/registry/ClaimIssuersRegistry.sol\":8050:8091  _claimTopicToClaimIssuers[claimTopics[i]] */\n      0x00\n        /* \"contracts/registry/ClaimIssuersRegistry.sol\":8076:8087  claimTopics */\n      dup6\n        /* \"contracts/registry/ClaimIssuersRegistry.sol\":8088:8089  i */\n      dup5\n        /* \"contracts/registry/ClaimIssuersRegistry.sol\":8076:8090  claimTopics[i] */\n      dup2\n      mload\n      dup2\n      lt\n      tag_180\n      jumpi\n      tag_181\n      tag_86\n      jump\t// in\n    tag_181:\n    tag_180:\n      0x20\n      mul\n      0x20\n      add\n      add\n      mload\n        /* \"contracts/registry/ClaimIssuersRegistry.sol\":8050:8091  _claimTopicToClaimIssuers[claimTopics[i]] */\n      dup2\n      mstore\n      0x20\n      add\n      swap1\n      dup2\n      mstore\n      0x20\n      add\n      0x00\n      keccak256\n        /* \"contracts/registry/ClaimIssuersRegistry.sol\":8097:8108  claimIssuer */\n      dup6\n        /* \"contracts/registry/ClaimIssuersRegistry.sol\":8050:8109  _claimTopicToClaimIssuers[claimTopics[i]].push(claimIssuer) */\n      swap1\n      dup1\n      0x01\n      dup2\n      sload\n      add\n      dup1\n      dup3\n      sstore\n      dup1\n      swap2\n      pop\n      pop\n      0x01\n      swap1\n      sub\n      swap1\n      0x00\n      mstore\n      keccak256(0x00, 0x20)\n      add\n      0x00\n      swap1\n      swap2\n      swap1\n      swap2\n      swap1\n      swap2\n      0x0100\n      exp\n      dup2\n      sload\n      dup2\n      0xffffffffffffffffffffffffffffffffffffffff\n      mul\n      not\n      and\n      swap1\n      dup4\n      0xffffffffffffffffffffffffffffffffffffffff\n      and\n      mul\n      or\n      swap1\n      sstore\n      pop\n        /* \"contracts/registry/ClaimIssuersRegistry.sol\":8151:8154  ++i */\n      dup2\n      0x01\n      add\n      swap2\n      pop\n        /* \"contracts/registry/ClaimIssuersRegistry.sol\":7925:8179  {... */\n      pop\n        /* \"contracts/registry/ClaimIssuersRegistry.sol\":7891:8179  for (uint256 i = 0; i < length; ) {... */\n      jump(tag_173)\n    tag_174:\n      pop\n        /* \"contracts/registry/ClaimIssuersRegistry.sol\":7761:8185  {... */\n      pop\n      pop\n        /* \"contracts/registry/ClaimIssuersRegistry.sol\":7689:8185  function _updateIssuerAcrossAllTopics(IClaimIssuer claimIssuer) private {... */\n      pop\n      jump\t// out\n        /* \"contracts/registry/ClaimIssuersRegistry.sol\":7090:7461  function _removeClaimIssuerFromAllClaimTopics(... */\n    tag_102:\n        /* \"contracts/registry/ClaimIssuersRegistry.sol\":7220:7229  uint256 i */\n      0x00\n        /* \"contracts/registry/ClaimIssuersRegistry.sol\":7215:7455  for (uint256 i = 0; i < length; ) {... */\n    tag_184:\n        /* \"contracts/registry/ClaimIssuersRegistry.sol\":7239:7245  length */\n      dup2\n        /* \"contracts/registry/ClaimIssuersRegistry.sol\":7235:7236  i */\n      dup2\n        /* \"contracts/registry/ClaimIssuersRegistry.sol\":7235:7245  i < length */\n      lt\n        /* \"contracts/registry/ClaimIssuersRegistry.sol\":7215:7455  for (uint256 i = 0; i < length; ) {... */\n      iszero\n      tag_185\n      jumpi\n        /* \"contracts/registry/ClaimIssuersRegistry.sol\":7263:7281  uint256 claimTopic */\n      0x00\n        /* \"contracts/registry/ClaimIssuersRegistry.sol\":7284:7307  _claimIssuerClaimTopics */\n      0x02\n        /* \"contracts/registry/ClaimIssuersRegistry.sol\":7284:7320  _claimIssuerClaimTopics[claimIssuer] */\n      0x00\n        /* \"contracts/registry/ClaimIssuersRegistry.sol\":7308:7319  claimIssuer */\n      dup6\n        /* \"contracts/registry/ClaimIssuersRegistry.sol\":7284:7320  _claimIssuerClaimTopics[claimIssuer] */\n      0xffffffffffffffffffffffffffffffffffffffff\n      and\n      0xffffffffffffffffffffffffffffffffffffffff\n      and\n      dup2\n      mstore\n      0x20\n      add\n      swap1\n      dup2\n      mstore\n      0x20\n      add\n      0x00\n      keccak256\n        /* \"contracts/registry/ClaimIssuersRegistry.sol\":7321:7322  i */\n      dup3\n        /* \"contracts/registry/ClaimIssuersRegistry.sol\":7284:7323  _claimIssuerClaimTopics[claimIssuer][i] */\n      dup2\n      sload\n      dup2\n      lt\n      tag_187\n      jumpi\n      tag_188\n      tag_86\n      jump\t// in\n    tag_188:\n    tag_187:\n      swap1\n      0x00\n      mstore\n      keccak256(0x00, 0x20)\n      add\n      sload\n        /* \"contracts/registry/ClaimIssuersRegistry.sol\":7263:7323  uint256 claimTopic = _claimIssuerClaimTopics[claimIssuer][i] */\n      swap1\n      pop\n        /* \"contracts/registry/ClaimIssuersRegistry.sol\":7338:7385  _removeIssuerFromTopic(claimIssuer, claimTopic) */\n      tag_190\n        /* \"contracts/registry/ClaimIssuersRegistry.sol\":7361:7372  claimIssuer */\n      dup5\n        /* \"contracts/registry/ClaimIssuersRegistry.sol\":7374:7384  claimTopic */\n      dup3\n        /* \"contracts/registry/ClaimIssuersRegistry.sol\":7338:7360  _removeIssuerFromTopic */\n      tag_179\n        /* \"contracts/registry/ClaimIssuersRegistry.sol\":7338:7385  _removeIssuerFromTopic(claimIssuer, claimTopic) */\n      jump\t// in\n    tag_190:\n        /* \"contracts/registry/ClaimIssuersRegistry.sol\":7427:7430  ++i */\n      dup2\n      0x01\n      add\n      swap2\n      pop\n        /* \"contracts/registry/ClaimIssuersRegistry.sol\":7249:7455  {... */\n      pop\n        /* \"contracts/registry/ClaimIssuersRegistry.sol\":7215:7455  for (uint256 i = 0; i < length; ) {... */\n      jump(tag_184)\n    tag_185:\n      pop\n        /* \"contracts/registry/ClaimIssuersRegistry.sol\":7090:7461  function _removeClaimIssuerFromAllClaimTopics(... */\n      pop\n      pop\n      jump\t// out\n        /* \"contracts/registry/ClaimIssuersRegistry.sol\":9436:9580  function _isClaimIssuer(IClaimIssuer _issuer) private view returns (bool) {... */\n    tag_107:\n        /* \"contracts/registry/ClaimIssuersRegistry.sol\":9504:9508  bool */\n      0x00\n        /* \"contracts/registry/ClaimIssuersRegistry.sol\":9571:9572  0 */\n      dup1\n        /* \"contracts/registry/ClaimIssuersRegistry.sol\":9528:9551  _claimIssuerClaimTopics */\n      0x02\n        /* \"contracts/registry/ClaimIssuersRegistry.sol\":9528:9560  _claimIssuerClaimTopics[_issuer] */\n      0x00\n        /* \"contracts/registry/ClaimIssuersRegistry.sol\":9552:9559  _issuer */\n      dup5\n        /* \"contracts/registry/ClaimIssuersRegistry.sol\":9528:9560  _claimIssuerClaimTopics[_issuer] */\n      0xffffffffffffffffffffffffffffffffffffffff\n      and\n      0xffffffffffffffffffffffffffffffffffffffff\n      and\n      dup2\n      mstore\n      0x20\n      add\n      swap1\n      dup2\n      mstore\n      0x20\n      add\n      0x00\n      keccak256\n        /* \"contracts/registry/ClaimIssuersRegistry.sol\":9528:9567  _claimIssuerClaimTopics[_issuer].length */\n      dup1\n      sload\n      swap1\n      pop\n        /* \"contracts/registry/ClaimIssuersRegistry.sol\":9528:9572  _claimIssuerClaimTopics[_issuer].length != 0 */\n      eq\n      iszero\n        /* \"contracts/registry/ClaimIssuersRegistry.sol\":9520:9573  return (_claimIssuerClaimTopics[_issuer].length != 0) */\n      swap1\n      pop\n        /* \"contracts/registry/ClaimIssuersRegistry.sol\":9436:9580  function _isClaimIssuer(IClaimIssuer _issuer) private view returns (bool) {... */\n      swap2\n      swap1\n      pop\n      jump\t// out\n        /* \"@openzeppelin/contracts/access/Ownable.sol\":2912:3099  function _transferOwnership(address newOwner) internal virtual {... */\n    tag_152:\n        /* \"@openzeppelin/contracts/access/Ownable.sol\":2985:3001  address oldOwner */\n      0x00\n        /* \"@openzeppelin/contracts/access/Ownable.sol\":3004:3010  _owner */\n      dup1\n      0x00\n      swap1\n      sload\n      swap1\n      0x0100\n      exp\n      swap1\n      div\n      0xffffffffffffffffffffffffffffffffffffffff\n      and\n        /* \"@openzeppelin/contracts/access/Ownable.sol\":2985:3010  address oldOwner = _owner */\n      swap1\n      pop\n        /* \"@openzeppelin/contracts/access/Ownable.sol\":3029:3037  newOwner */\n      dup2\n        /* \"@openzeppelin/contracts/access/Ownable.sol\":3020:3026  _owner */\n      0x00\n      dup1\n        /* \"@openzeppelin/contracts/access/Ownable.sol\":3020:3037  _owner = newOwner */\n      0x0100\n      exp\n      dup2\n      sload\n      dup2\n      0xffffffffffffffffffffffffffffffffffffffff\n      mul\n      not\n      and\n      swap1\n      dup4\n      0xffffffffffffffffffffffffffffffffffffffff\n      and\n      mul\n      or\n      swap1\n      sstore\n      pop\n        /* \"@openzeppelin/contracts/access/Ownable.sol\":3083:3091  newOwner */\n      dup2\n        /* \"@openzeppelin/contracts/access/Ownable.sol\":3052:3092  OwnershipTransferred(oldOwner, newOwner) */\n      0xffffffffffffffffffffffffffffffffffffffff\n      and\n        /* \"@openzeppelin/contracts/access/Ownable.sol\":3073:3081  oldOwner */\n      dup2\n        /* \"@openzeppelin/contracts/access/Ownable.sol\":3052:3092  OwnershipTransferred(oldOwner, newOwner) */\n      0xffffffffffffffffffffffffffffffffffffffff\n      and\n      0x8be0079c531659141344cd1fd0a4f28419497f9722a3daafe3b4186f6b6457e0\n      mload(0x40)\n      mload(0x40)\n      dup1\n      swap2\n      sub\n      swap1\n      log3\n        /* \"@openzeppelin/contracts/access/Ownable.sol\":2975:3099  {... */\n      pop\n        /* \"@openzeppelin/contracts/access/Ownable.sol\":2912:3099  function _transferOwnership(address newOwner) internal virtual {... */\n      pop\n      jump\t// out\n        /* \"@openzeppelin/contracts/utils/Context.sol\":656:752  function _msgSender() internal view virtual returns (address) {... */\n    tag_165:\n        /* \"@openzeppelin/contracts/utils/Context.sol\":709:716  address */\n      0x00\n        /* \"@openzeppelin/contracts/utils/Context.sol\":735:745  msg.sender */\n      caller\n        /* \"@openzeppelin/contracts/utils/Context.sol\":728:745  return msg.sender */\n      swap1\n      pop\n        /* \"@openzeppelin/contracts/utils/Context.sol\":656:752  function _msgSender() internal view virtual returns (address) {... */\n      swap1\n      jump\t// out\n        /* \"contracts/registry/ClaimIssuersRegistry.sol\":8600:9243  function _removeIssuerFromTopic(... */\n    tag_179:\n        /* \"contracts/registry/ClaimIssuersRegistry.sol\":8715:8749  IClaimIssuer[] memory claimIssuers */\n      0x00\n        /* \"contracts/registry/ClaimIssuersRegistry.sol\":8752:8777  _claimTopicToClaimIssuers */\n      0x03\n        /* \"contracts/registry/ClaimIssuersRegistry.sol\":8752:8811  _claimTopicToClaimIssuers[... */\n      0x00\n        /* \"contracts/registry/ClaimIssuersRegistry.sol\":8791:8801  claimTopic */\n      dup4\n        /* \"contracts/registry/ClaimIssuersRegistry.sol\":8752:8811  _claimTopicToClaimIssuers[... */\n      dup2\n      mstore\n      0x20\n      add\n      swap1\n      dup2\n      mstore\n      0x20\n      add\n      0x00\n      keccak256\n        /* \"contracts/registry/ClaimIssuersRegistry.sol\":8715:8811  IClaimIssuer[] memory claimIssuers = _claimTopicToClaimIssuers[... */\n      dup1\n      sload\n      dup1\n      0x20\n      mul\n      0x20\n      add\n      mload(0x40)\n      swap1\n      dup2\n      add\n      0x40\n      mstore\n      dup1\n      swap3\n      swap2\n      swap1\n      dup2\n      dup2\n      mstore\n      0x20\n      add\n      dup3\n      dup1\n      sload\n      dup1\n      iszero\n      tag_195\n      jumpi\n      0x20\n      mul\n      dup3\n      add\n      swap2\n      swap1\n      0x00\n      mstore\n      keccak256(0x00, 0x20)\n      swap1\n    tag_196:\n      dup2\n      0x00\n      swap1\n      sload\n      swap1\n      0x0100\n      exp\n      swap1\n      div\n      0xffffffffffffffffffffffffffffffffffffffff\n      and\n      0xffffffffffffffffffffffffffffffffffffffff\n      and\n      dup2\n      mstore\n      0x20\n      add\n      swap1\n      0x01\n      add\n      swap1\n      dup1\n      dup4\n      gt\n      tag_196\n      jumpi\n    tag_195:\n      pop\n      pop\n      pop\n      pop\n      pop\n      swap1\n      pop\n        /* \"contracts/registry/ClaimIssuersRegistry.sol\":8821:8832  uint length */\n      0x00\n        /* \"contracts/registry/ClaimIssuersRegistry.sol\":8835:8847  claimIssuers */\n      dup2\n        /* \"contracts/registry/ClaimIssuersRegistry.sol\":8835:8854  claimIssuers.length */\n      mload\n        /* \"contracts/registry/ClaimIssuersRegistry.sol\":8821:8854  uint length = claimIssuers.length */\n      swap1\n      pop\n        /* \"contracts/registry/ClaimIssuersRegistry.sol\":8870:8876  uint j */\n      0x00\n        /* \"contracts/registry/ClaimIssuersRegistry.sol\":8865:9237  for (uint j = 0; j < length; ) {... */\n    tag_197:\n        /* \"contracts/registry/ClaimIssuersRegistry.sol\":8886:8892  length */\n      dup2\n        /* \"contracts/registry/ClaimIssuersRegistry.sol\":8882:8883  j */\n      dup2\n        /* \"contracts/registry/ClaimIssuersRegistry.sol\":8882:8892  j < length */\n      lt\n        /* \"contracts/registry/ClaimIssuersRegistry.sol\":8865:9237  for (uint j = 0; j < length; ) {... */\n      iszero\n      tag_198\n      jumpi\n        /* \"contracts/registry/ClaimIssuersRegistry.sol\":8933:8944  claimIssuer */\n      dup5\n        /* \"contracts/registry/ClaimIssuersRegistry.sol\":8914:8944  claimIssuers[j] == claimIssuer */\n      0xffffffffffffffffffffffffffffffffffffffff\n      and\n        /* \"contracts/registry/ClaimIssuersRegistry.sol\":8914:8926  claimIssuers */\n      dup4\n        /* \"contracts/registry/ClaimIssuersRegistry.sol\":8927:8928  j */\n      dup3\n        /* \"contracts/registry/ClaimIssuersRegistry.sol\":8914:8929  claimIssuers[j] */\n      dup2\n      mload\n      dup2\n      lt\n      tag_200\n      jumpi\n      tag_201\n      tag_86\n      jump\t// in\n    tag_201:\n    tag_200:\n      0x20\n      mul\n      0x20\n      add\n      add\n      mload\n        /* \"contracts/registry/ClaimIssuersRegistry.sol\":8914:8944  claimIssuers[j] == claimIssuer */\n      0xffffffffffffffffffffffffffffffffffffffff\n      and\n      sub\n        /* \"contracts/registry/ClaimIssuersRegistry.sol\":8910:9168  if (claimIssuers[j] == claimIssuer) {... */\n      tag_202\n      jumpi\n        /* \"contracts/registry/ClaimIssuersRegistry.sol\":9007:9019  claimIssuers */\n      dup3\n        /* \"contracts/registry/ClaimIssuersRegistry.sol\":9050:9051  1 */\n      0x01\n        /* \"contracts/registry/ClaimIssuersRegistry.sol\":9041:9047  length */\n      dup4\n        /* \"contracts/registry/ClaimIssuersRegistry.sol\":9041:9051  length - 1 */\n      tag_203\n      swap2\n      swap1\n      tag_90\n      jump\t// in\n    tag_203:\n        /* \"contracts/registry/ClaimIssuersRegistry.sol\":9007:9069  claimIssuers[... */\n      dup2\n      mload\n      dup2\n      lt\n      tag_204\n      jumpi\n      tag_205\n      tag_86\n      jump\t// in\n    tag_205:\n    tag_204:\n      0x20\n      mul\n      0x20\n      add\n      add\n      mload\n        /* \"contracts/registry/ClaimIssuersRegistry.sol\":8964:8989  _claimTopicToClaimIssuers */\n      0x03\n        /* \"contracts/registry/ClaimIssuersRegistry.sol\":8964:9001  _claimTopicToClaimIssuers[claimTopic] */\n      0x00\n        /* \"contracts/registry/ClaimIssuersRegistry.sol\":8990:9000  claimTopic */\n      dup7\n        /* \"contracts/registry/ClaimIssuersRegistry.sol\":8964:9001  _claimTopicToClaimIssuers[claimTopic] */\n      dup2\n      mstore\n      0x20\n      add\n      swap1\n      dup2\n      mstore\n      0x20\n      add\n      0x00\n      keccak256\n        /* \"contracts/registry/ClaimIssuersRegistry.sol\":9002:9003  j */\n      dup3\n        /* \"contracts/registry/ClaimIssuersRegistry.sol\":8964:9004  _claimTopicToClaimIssuers[claimTopic][j] */\n      dup2\n      sload\n      dup2\n      lt\n      tag_206\n      jumpi\n      tag_207\n      tag_86\n      jump\t// in\n    tag_207:\n    tag_206:\n      swap1\n      0x00\n      mstore\n      keccak256(0x00, 0x20)\n      add\n      0x00\n        /* \"contracts/registry/ClaimIssuersRegistry.sol\":8964:9069  _claimTopicToClaimIssuers[claimTopic][j] = claimIssuers[... */\n      0x0100\n      exp\n      dup2\n      sload\n      dup2\n      0xffffffffffffffffffffffffffffffffffffffff\n      mul\n      not\n      and\n      swap1\n      dup4\n      0xffffffffffffffffffffffffffffffffffffffff\n      and\n      mul\n      or\n      swap1\n      sstore\n      pop\n        /* \"contracts/registry/ClaimIssuersRegistry.sol\":9087:9112  _claimTopicToClaimIssuers */\n      0x03\n        /* \"contracts/registry/ClaimIssuersRegistry.sol\":9087:9124  _claimTopicToClaimIssuers[claimTopic] */\n      0x00\n        /* \"contracts/registry/ClaimIssuersRegistry.sol\":9113:9123  claimTopic */\n      dup6\n        /* \"contracts/registry/ClaimIssuersRegistry.sol\":9087:9124  _claimTopicToClaimIssuers[claimTopic] */\n      dup2\n      mstore\n      0x20\n      add\n      swap1\n      dup2\n      mstore\n      0x20\n      add\n      0x00\n      keccak256\n        /* \"contracts/registry/ClaimIssuersRegistry.sol\":9087:9130  _claimTopicToClaimIssuers[claimTopic].pop() */\n      dup1\n      sload\n      dup1\n      tag_209\n      jumpi\n      tag_210\n      tag_99\n      jump\t// in\n    tag_210:\n    tag_209:\n      0x01\n      swap1\n      sub\n      dup2\n      dup2\n      swap1\n      0x00\n      mstore\n      keccak256(0x00, 0x20)\n      add\n      exp(0x0100, 0x00)\n      dup2\n      sload\n      swap1\n      0xffffffffffffffffffffffffffffffffffffffff\n      mul\n      not\n      and\n      swap1\n      sstore\n      swap1\n      sstore\n        /* \"contracts/registry/ClaimIssuersRegistry.sol\":9148:9153  break */\n      jump(tag_198)\n        /* \"contracts/registry/ClaimIssuersRegistry.sol\":8910:9168  if (claimIssuers[j] == claimIssuer) {... */\n    tag_202:\n        /* \"contracts/registry/ClaimIssuersRegistry.sol\":9209:9212  ++j */\n      dup1\n      0x01\n      add\n      swap1\n      pop\n        /* \"contracts/registry/ClaimIssuersRegistry.sol\":8865:9237  for (uint j = 0; j < length; ) {... */\n      jump(tag_197)\n    tag_198:\n      pop\n        /* \"contracts/registry/ClaimIssuersRegistry.sol\":8705:9243  {... */\n      pop\n      pop\n        /* \"contracts/registry/ClaimIssuersRegistry.sol\":8600:9243  function _removeIssuerFromTopic(... */\n      pop\n      pop\n      jump\t// out\n    tag_73:\n      dup3\n      dup1\n      sload\n      dup3\n      dup3\n      sstore\n      swap1\n      0x00\n      mstore\n      keccak256(0x00, 0x20)\n      swap1\n      dup2\n      add\n      swap3\n      dup3\n      iszero\n      tag_212\n      jumpi\n      swap2\n      0x20\n      mul\n      dup3\n      add\n    tag_213:\n      dup3\n      dup2\n      gt\n      iszero\n      tag_214\n      jumpi\n      dup3\n      calldataload\n      dup3\n      sstore\n      swap2\n      0x20\n      add\n      swap2\n      swap1\n      0x01\n      add\n      swap1\n      jump(tag_213)\n    tag_214:\n    tag_212:\n      pop\n      swap1\n      pop\n      tag_215\n      swap2\n      swap1\n      tag_216\n      jump\t// in\n    tag_215:\n      pop\n      swap1\n      jump\t// out\n    tag_104:\n      pop\n      dup1\n      sload\n      0x00\n      dup3\n      sstore\n      swap1\n      0x00\n      mstore\n      keccak256(0x00, 0x20)\n      swap1\n      dup2\n      add\n      swap1\n      tag_218\n      swap2\n      swap1\n      tag_216\n      jump\t// in\n    tag_218:\n      pop\n      jump\t// out\n    tag_216:\n    tag_219:\n      dup1\n      dup3\n      gt\n      iszero\n      tag_220\n      jumpi\n      0x00\n      dup2\n      0x00\n      swap1\n      sstore\n      pop\n      0x01\n      add\n      jump(tag_219)\n    tag_220:\n      pop\n      swap1\n      jump\t// out\n        /* \"#utility.yul\":88:205   */\n    tag_222:\n        /* \"#utility.yul\":197:198   */\n      0x00\n        /* \"#utility.yul\":194:195   */\n      dup1\n        /* \"#utility.yul\":187:199   */\n      revert\n        /* \"#utility.yul\":211:328   */\n    tag_223:\n        /* \"#utility.yul\":320:321   */\n      0x00\n        /* \"#utility.yul\":317:318   */\n      dup1\n        /* \"#utility.yul\":310:322   */\n      revert\n        /* \"#utility.yul\":334:460   */\n    tag_224:\n        /* \"#utility.yul\":371:378   */\n      0x00\n        /* \"#utility.yul\":411:453   */\n      0xffffffffffffffffffffffffffffffffffffffff\n        /* \"#utility.yul\":404:409   */\n      dup3\n        /* \"#utility.yul\":400:454   */\n      and\n        /* \"#utility.yul\":389:454   */\n      swap1\n      pop\n        /* \"#utility.yul\":334:460   */\n      swap2\n      swap1\n      pop\n      jump\t// out\n        /* \"#utility.yul\":466:562   */\n    tag_225:\n        /* \"#utility.yul\":503:510   */\n      0x00\n        /* \"#utility.yul\":532:556   */\n      tag_282\n        /* \"#utility.yul\":550:555   */\n      dup3\n        /* \"#utility.yul\":532:556   */\n      tag_224\n      jump\t// in\n    tag_282:\n        /* \"#utility.yul\":521:556   */\n      swap1\n      pop\n        /* \"#utility.yul\":466:562   */\n      swap2\n      swap1\n      pop\n      jump\t// out\n        /* \"#utility.yul\":568:683   */\n    tag_226:\n        /* \"#utility.yul\":624:631   */\n      0x00\n        /* \"#utility.yul\":653:677   */\n      tag_284\n        /* \"#utility.yul\":671:676   */\n      dup3\n        /* \"#utility.yul\":653:677   */\n      tag_225\n      jump\t// in\n    tag_284:\n        /* \"#utility.yul\":642:677   */\n      swap1\n      pop\n        /* \"#utility.yul\":568:683   */\n      swap2\n      swap1\n      pop\n      jump\t// out\n        /* \"#utility.yul\":689:849   */\n    tag_227:\n        /* \"#utility.yul\":781:824   */\n      tag_286\n        /* \"#utility.yul\":818:823   */\n      dup2\n        /* \"#utility.yul\":781:824   */\n      tag_226\n      jump\t// in\n    tag_286:\n        /* \"#utility.yul\":774:779   */\n      dup2\n        /* \"#utility.yul\":771:825   */\n      eq\n        /* \"#utility.yul\":761:843   */\n      tag_287\n      jumpi\n        /* \"#utility.yul\":839:840   */\n      0x00\n        /* \"#utility.yul\":836:837   */\n      dup1\n        /* \"#utility.yul\":829:841   */\n      revert\n        /* \"#utility.yul\":761:843   */\n    tag_287:\n        /* \"#utility.yul\":689:849   */\n      pop\n      jump\t// out\n        /* \"#utility.yul\":855:1032   */\n    tag_228:\n        /* \"#utility.yul\":920:925   */\n      0x00\n        /* \"#utility.yul\":958:964   */\n      dup2\n        /* \"#utility.yul\":945:965   */\n      calldataload\n        /* \"#utility.yul\":936:965   */\n      swap1\n      pop\n        /* \"#utility.yul\":974:1026   */\n      tag_289\n        /* \"#utility.yul\":1020:1025   */\n      dup2\n        /* \"#utility.yul\":974:1026   */\n      tag_227\n      jump\t// in\n    tag_289:\n        /* \"#utility.yul\":855:1032   */\n      swap3\n      swap2\n      pop\n      pop\n      jump\t// out\n        /* \"#utility.yul\":1038:1155   */\n    tag_229:\n        /* \"#utility.yul\":1147:1148   */\n      0x00\n        /* \"#utility.yul\":1144:1145   */\n      dup1\n        /* \"#utility.yul\":1137:1149   */\n      revert\n        /* \"#utility.yul\":1161:1278   */\n    tag_230:\n        /* \"#utility.yul\":1270:1271   */\n      0x00\n        /* \"#utility.yul\":1267:1268   */\n      dup1\n        /* \"#utility.yul\":1260:1272   */\n      revert\n        /* \"#utility.yul\":1284:1401   */\n    tag_231:\n        /* \"#utility.yul\":1393:1394   */\n      0x00\n        /* \"#utility.yul\":1390:1391   */\n      dup1\n        /* \"#utility.yul\":1383:1395   */\n      revert\n        /* \"#utility.yul\":1424:1992   */\n    tag_232:\n        /* \"#utility.yul\":1497:1505   */\n      0x00\n        /* \"#utility.yul\":1507:1513   */\n      dup1\n        /* \"#utility.yul\":1557:1560   */\n      dup4\n        /* \"#utility.yul\":1550:1554   */\n      0x1f\n        /* \"#utility.yul\":1542:1548   */\n      dup5\n        /* \"#utility.yul\":1538:1555   */\n      add\n        /* \"#utility.yul\":1534:1561   */\n      slt\n        /* \"#utility.yul\":1524:1646   */\n      tag_294\n      jumpi\n        /* \"#utility.yul\":1565:1644   */\n      tag_295\n      tag_229\n      jump\t// in\n    tag_295:\n        /* \"#utility.yul\":1524:1646   */\n    tag_294:\n        /* \"#utility.yul\":1678:1684   */\n      dup3\n        /* \"#utility.yul\":1665:1685   */\n      calldataload\n        /* \"#utility.yul\":1655:1685   */\n      swap1\n      pop\n        /* \"#utility.yul\":1708:1726   */\n      0xffffffffffffffff\n        /* \"#utility.yul\":1700:1706   */\n      dup2\n        /* \"#utility.yul\":1697:1727   */\n      gt\n        /* \"#utility.yul\":1694:1811   */\n      iszero\n      tag_296\n      jumpi\n        /* \"#utility.yul\":1730:1809   */\n      tag_297\n      tag_230\n      jump\t// in\n    tag_297:\n        /* \"#utility.yul\":1694:1811   */\n    tag_296:\n        /* \"#utility.yul\":1844:1848   */\n      0x20\n        /* \"#utility.yul\":1836:1842   */\n      dup4\n        /* \"#utility.yul\":1832:1849   */\n      add\n        /* \"#utility.yul\":1820:1849   */\n      swap2\n      pop\n        /* \"#utility.yul\":1898:1901   */\n      dup4\n        /* \"#utility.yul\":1890:1894   */\n      0x20\n        /* \"#utility.yul\":1882:1888   */\n      dup3\n        /* \"#utility.yul\":1878:1895   */\n      mul\n        /* \"#utility.yul\":1868:1876   */\n      dup4\n        /* \"#utility.yul\":1864:1896   */\n      add\n        /* \"#utility.yul\":1861:1902   */\n      gt\n        /* \"#utility.yul\":1858:1986   */\n      iszero\n      tag_298\n      jumpi\n        /* \"#utility.yul\":1905:1984   */\n      tag_299\n      tag_231\n      jump\t// in\n    tag_299:\n        /* \"#utility.yul\":1858:1986   */\n    tag_298:\n        /* \"#utility.yul\":1424:1992   */\n      swap3\n      pop\n      swap3\n      swap1\n      pop\n      jump\t// out\n        /* \"#utility.yul\":1998:2740   */\n    tag_17:\n        /* \"#utility.yul\":2112:2118   */\n      0x00\n        /* \"#utility.yul\":2120:2126   */\n      dup1\n        /* \"#utility.yul\":2128:2134   */\n      0x00\n        /* \"#utility.yul\":2177:2179   */\n      0x40\n        /* \"#utility.yul\":2165:2174   */\n      dup5\n        /* \"#utility.yul\":2156:2163   */\n      dup7\n        /* \"#utility.yul\":2152:2175   */\n      sub\n        /* \"#utility.yul\":2148:2180   */\n      slt\n        /* \"#utility.yul\":2145:2264   */\n      iszero\n      tag_301\n      jumpi\n        /* \"#utility.yul\":2183:2262   */\n      tag_302\n      tag_222\n      jump\t// in\n    tag_302:\n        /* \"#utility.yul\":2145:2264   */\n    tag_301:\n        /* \"#utility.yul\":2303:2304   */\n      0x00\n        /* \"#utility.yul\":2328:2400   */\n      tag_303\n        /* \"#utility.yul\":2392:2399   */\n      dup7\n        /* \"#utility.yul\":2383:2389   */\n      dup3\n        /* \"#utility.yul\":2372:2381   */\n      dup8\n        /* \"#utility.yul\":2368:2390   */\n      add\n        /* \"#utility.yul\":2328:2400   */\n      tag_228\n      jump\t// in\n    tag_303:\n        /* \"#utility.yul\":2318:2400   */\n      swap4\n      pop\n        /* \"#utility.yul\":2274:2410   */\n      pop\n        /* \"#utility.yul\":2477:2479   */\n      0x20\n        /* \"#utility.yul\":2466:2475   */\n      dup5\n        /* \"#utility.yul\":2462:2480   */\n      add\n        /* \"#utility.yul\":2449:2481   */\n      calldataload\n        /* \"#utility.yul\":2508:2526   */\n      0xffffffffffffffff\n        /* \"#utility.yul\":2500:2506   */\n      dup2\n        /* \"#utility.yul\":2497:2527   */\n      gt\n        /* \"#utility.yul\":2494:2611   */\n      iszero\n      tag_304\n      jumpi\n        /* \"#utility.yul\":2530:2609   */\n      tag_305\n      tag_223\n      jump\t// in\n    tag_305:\n        /* \"#utility.yul\":2494:2611   */\n    tag_304:\n        /* \"#utility.yul\":2643:2723   */\n      tag_306\n        /* \"#utility.yul\":2715:2722   */\n      dup7\n        /* \"#utility.yul\":2706:2712   */\n      dup3\n        /* \"#utility.yul\":2695:2704   */\n      dup8\n        /* \"#utility.yul\":2691:2713   */\n      add\n        /* \"#utility.yul\":2643:2723   */\n      tag_232\n      jump\t// in\n    tag_306:\n        /* \"#utility.yul\":2625:2723   */\n      swap3\n      pop\n      swap3\n      pop\n        /* \"#utility.yul\":2420:2733   */\n      pop\n        /* \"#utility.yul\":1998:2740   */\n      swap3\n      pop\n      swap3\n      pop\n      swap3\n      jump\t// out\n        /* \"#utility.yul\":2746:3113   */\n    tag_21:\n        /* \"#utility.yul\":2824:2830   */\n      0x00\n        /* \"#utility.yul\":2873:2875   */\n      0x20\n        /* \"#utility.yul\":2861:2870   */\n      dup3\n        /* \"#utility.yul\":2852:2859   */\n      dup5\n        /* \"#utility.yul\":2848:2871   */\n      sub\n        /* \"#utility.yul\":2844:2876   */\n      slt\n        /* \"#utility.yul\":2841:2960   */\n      iszero\n      tag_308\n      jumpi\n        /* \"#utility.yul\":2879:2958   */\n      tag_309\n      tag_222\n      jump\t// in\n    tag_309:\n        /* \"#utility.yul\":2841:2960   */\n    tag_308:\n        /* \"#utility.yul\":2999:3000   */\n      0x00\n        /* \"#utility.yul\":3024:3096   */\n      tag_310\n        /* \"#utility.yul\":3088:3095   */\n      dup5\n        /* \"#utility.yul\":3079:3085   */\n      dup3\n        /* \"#utility.yul\":3068:3077   */\n      dup6\n        /* \"#utility.yul\":3064:3086   */\n      add\n        /* \"#utility.yul\":3024:3096   */\n      tag_228\n      jump\t// in\n    tag_310:\n        /* \"#utility.yul\":3014:3096   */\n      swap2\n      pop\n        /* \"#utility.yul\":2970:3106   */\n      pop\n        /* \"#utility.yul\":2746:3113   */\n      swap3\n      swap2\n      pop\n      pop\n      jump\t// out\n        /* \"#utility.yul\":3119:3233   */\n    tag_233:\n        /* \"#utility.yul\":3186:3192   */\n      0x00\n        /* \"#utility.yul\":3220:3225   */\n      dup2\n        /* \"#utility.yul\":3214:3226   */\n      mload\n        /* \"#utility.yul\":3204:3226   */\n      swap1\n      pop\n        /* \"#utility.yul\":3119:3233   */\n      swap2\n      swap1\n      pop\n      jump\t// out\n        /* \"#utility.yul\":3239:3423   */\n    tag_234:\n        /* \"#utility.yul\":3338:3349   */\n      0x00\n        /* \"#utility.yul\":3372:3378   */\n      dup3\n        /* \"#utility.yul\":3367:3370   */\n      dup3\n        /* \"#utility.yul\":3360:3379   */\n      mstore\n        /* \"#utility.yul\":3412:3416   */\n      0x20\n        /* \"#utility.yul\":3407:3410   */\n      dup3\n        /* \"#utility.yul\":3403:3417   */\n      add\n        /* \"#utility.yul\":3388:3417   */\n      swap1\n      pop\n        /* \"#utility.yul\":3239:3423   */\n      swap3\n      swap2\n      pop\n      pop\n      jump\t// out\n        /* \"#utility.yul\":3429:3561   */\n    tag_235:\n        /* \"#utility.yul\":3496:3500   */\n      0x00\n        /* \"#utility.yul\":3519:3522   */\n      dup2\n        /* \"#utility.yul\":3511:3522   */\n      swap1\n      pop\n        /* \"#utility.yul\":3549:3553   */\n      0x20\n        /* \"#utility.yul\":3544:3547   */\n      dup3\n        /* \"#utility.yul\":3540:3554   */\n      add\n        /* \"#utility.yul\":3532:3554   */\n      swap1\n      pop\n        /* \"#utility.yul\":3429:3561   */\n      swap2\n      swap1\n      pop\n      jump\t// out\n        /* \"#utility.yul\":3567:3644   */\n    tag_236:\n        /* \"#utility.yul\":3604:3611   */\n      0x00\n        /* \"#utility.yul\":3633:3638   */\n      dup2\n        /* \"#utility.yul\":3622:3638   */\n      swap1\n      pop\n        /* \"#utility.yul\":3567:3644   */\n      swap2\n      swap1\n      pop\n      jump\t// out\n        /* \"#utility.yul\":3650:3758   */\n    tag_237:\n        /* \"#utility.yul\":3727:3751   */\n      tag_316\n        /* \"#utility.yul\":3745:3750   */\n      dup2\n        /* \"#utility.yul\":3727:3751   */\n      tag_236\n      jump\t// in\n    tag_316:\n        /* \"#utility.yul\":3722:3725   */\n      dup3\n        /* \"#utility.yul\":3715:3752   */\n      mstore\n        /* \"#utility.yul\":3650:3758   */\n      pop\n      pop\n      jump\t// out\n        /* \"#utility.yul\":3764:3943   */\n    tag_238:\n        /* \"#utility.yul\":3833:3843   */\n      0x00\n        /* \"#utility.yul\":3854:3900   */\n      tag_318\n        /* \"#utility.yul\":3896:3899   */\n      dup4\n        /* \"#utility.yul\":3888:3894   */\n      dup4\n        /* \"#utility.yul\":3854:3900   */\n      tag_237\n      jump\t// in\n    tag_318:\n        /* \"#utility.yul\":3932:3936   */\n      0x20\n        /* \"#utility.yul\":3927:3930   */\n      dup4\n        /* \"#utility.yul\":3923:3937   */\n      add\n        /* \"#utility.yul\":3909:3937   */\n      swap1\n      pop\n        /* \"#utility.yul\":3764:3943   */\n      swap3\n      swap2\n      pop\n      pop\n      jump\t// out\n        /* \"#utility.yul\":3949:4062   */\n    tag_239:\n        /* \"#utility.yul\":4019:4023   */\n      0x00\n        /* \"#utility.yul\":4051:4055   */\n      0x20\n        /* \"#utility.yul\":4046:4049   */\n      dup3\n        /* \"#utility.yul\":4042:4056   */\n      add\n        /* \"#utility.yul\":4034:4056   */\n      swap1\n      pop\n        /* \"#utility.yul\":3949:4062   */\n      swap2\n      swap1\n      pop\n      jump\t// out\n        /* \"#utility.yul\":4098:4830   */\n    tag_240:\n        /* \"#utility.yul\":4217:4220   */\n      0x00\n        /* \"#utility.yul\":4246:4300   */\n      tag_321\n        /* \"#utility.yul\":4294:4299   */\n      dup3\n        /* \"#utility.yul\":4246:4300   */\n      tag_233\n      jump\t// in\n    tag_321:\n        /* \"#utility.yul\":4316:4402   */\n      tag_322\n        /* \"#utility.yul\":4395:4401   */\n      dup2\n        /* \"#utility.yul\":4390:4393   */\n      dup6\n        /* \"#utility.yul\":4316:4402   */\n      tag_234\n      jump\t// in\n    tag_322:\n        /* \"#utility.yul\":4309:4402   */\n      swap4\n      pop\n        /* \"#utility.yul\":4426:4482   */\n      tag_323\n        /* \"#utility.yul\":4476:4481   */\n      dup4\n        /* \"#utility.yul\":4426:4482   */\n      tag_235\n      jump\t// in\n    tag_323:\n        /* \"#utility.yul\":4505:4512   */\n      dup1\n        /* \"#utility.yul\":4536:4537   */\n      0x00\n        /* \"#utility.yul\":4521:4805   */\n    tag_324:\n        /* \"#utility.yul\":4546:4552   */\n      dup4\n        /* \"#utility.yul\":4543:4544   */\n      dup2\n        /* \"#utility.yul\":4540:4553   */\n      lt\n        /* \"#utility.yul\":4521:4805   */\n      iszero\n      tag_326\n      jumpi\n        /* \"#utility.yul\":4622:4628   */\n      dup2\n        /* \"#utility.yul\":4616:4629   */\n      mload\n        /* \"#utility.yul\":4649:4712   */\n      tag_327\n        /* \"#utility.yul\":4708:4711   */\n      dup9\n        /* \"#utility.yul\":4693:4706   */\n      dup3\n        /* \"#utility.yul\":4649:4712   */\n      tag_238\n      jump\t// in\n    tag_327:\n        /* \"#utility.yul\":4642:4712   */\n      swap8\n      pop\n        /* \"#utility.yul\":4735:4795   */\n      tag_328\n        /* \"#utility.yul\":4788:4794   */\n      dup4\n        /* \"#utility.yul\":4735:4795   */\n      tag_239\n      jump\t// in\n    tag_328:\n        /* \"#utility.yul\":4725:4795   */\n      swap3\n      pop\n        /* \"#utility.yul\":4581:4805   */\n      pop\n        /* \"#utility.yul\":4568:4569   */\n      0x01\n        /* \"#utility.yul\":4565:4566   */\n      dup2\n        /* \"#utility.yul\":4561:4570   */\n      add\n        /* \"#utility.yul\":4556:4570   */\n      swap1\n      pop\n        /* \"#utility.yul\":4521:4805   */\n      jump(tag_324)\n    tag_326:\n        /* \"#utility.yul\":4525:4539   */\n      pop\n        /* \"#utility.yul\":4821:4824   */\n      dup6\n        /* \"#utility.yul\":4814:4824   */\n      swap4\n      pop\n        /* \"#utility.yul\":4222:4830   */\n      pop\n      pop\n      pop\n        /* \"#utility.yul\":4098:4830   */\n      swap3\n      swap2\n      pop\n      pop\n      jump\t// out\n        /* \"#utility.yul\":4836:5209   */\n    tag_27:\n        /* \"#utility.yul\":4979:4983   */\n      0x00\n        /* \"#utility.yul\":5017:5019   */\n      0x20\n        /* \"#utility.yul\":5006:5015   */\n      dup3\n        /* \"#utility.yul\":5002:5020   */\n      add\n        /* \"#utility.yul\":4994:5020   */\n      swap1\n      pop\n        /* \"#utility.yul\":5066:5075   */\n      dup2\n        /* \"#utility.yul\":5060:5064   */\n      dup2\n        /* \"#utility.yul\":5056:5076   */\n      sub\n        /* \"#utility.yul\":5052:5053   */\n      0x00\n        /* \"#utility.yul\":5041:5050   */\n      dup4\n        /* \"#utility.yul\":5037:5054   */\n      add\n        /* \"#utility.yul\":5030:5077   */\n      mstore\n        /* \"#utility.yul\":5094:5202   */\n      tag_330\n        /* \"#utility.yul\":5197:5201   */\n      dup2\n        /* \"#utility.yul\":5188:5194   */\n      dup5\n        /* \"#utility.yul\":5094:5202   */\n      tag_240\n      jump\t// in\n    tag_330:\n        /* \"#utility.yul\":5086:5202   */\n      swap1\n      pop\n        /* \"#utility.yul\":4836:5209   */\n      swap3\n      swap2\n      pop\n      pop\n      jump\t// out\n        /* \"#utility.yul\":5215:5337   */\n    tag_241:\n        /* \"#utility.yul\":5288:5312   */\n      tag_332\n        /* \"#utility.yul\":5306:5311   */\n      dup2\n        /* \"#utility.yul\":5288:5312   */\n      tag_236\n      jump\t// in\n    tag_332:\n        /* \"#utility.yul\":5281:5286   */\n      dup2\n        /* \"#utility.yul\":5278:5313   */\n      eq\n        /* \"#utility.yul\":5268:5331   */\n      tag_333\n      jumpi\n        /* \"#utility.yul\":5327:5328   */\n      0x00\n        /* \"#utility.yul\":5324:5325   */\n      dup1\n        /* \"#utility.yul\":5317:5329   */\n      revert\n        /* \"#utility.yul\":5268:5331   */\n    tag_333:\n        /* \"#utility.yul\":5215:5337   */\n      pop\n      jump\t// out\n        /* \"#utility.yul\":5343:5482   */\n    tag_242:\n        /* \"#utility.yul\":5389:5394   */\n      0x00\n        /* \"#utility.yul\":5427:5433   */\n      dup2\n        /* \"#utility.yul\":5414:5434   */\n      calldataload\n        /* \"#utility.yul\":5405:5434   */\n      swap1\n      pop\n        /* \"#utility.yul\":5443:5476   */\n      tag_335\n        /* \"#utility.yul\":5470:5475   */\n      dup2\n        /* \"#utility.yul\":5443:5476   */\n      tag_241\n      jump\t// in\n    tag_335:\n        /* \"#utility.yul\":5343:5482   */\n      swap3\n      swap2\n      pop\n      pop\n      jump\t// out\n        /* \"#utility.yul\":5488:6000   */\n    tag_30:\n        /* \"#utility.yul\":5575:5581   */\n      0x00\n        /* \"#utility.yul\":5583:5589   */\n      dup1\n        /* \"#utility.yul\":5632:5634   */\n      0x40\n        /* \"#utility.yul\":5620:5629   */\n      dup4\n        /* \"#utility.yul\":5611:5618   */\n      dup6\n        /* \"#utility.yul\":5607:5630   */\n      sub\n        /* \"#utility.yul\":5603:5635   */\n      slt\n        /* \"#utility.yul\":5600:5719   */\n      iszero\n      tag_337\n      jumpi\n        /* \"#utility.yul\":5638:5717   */\n      tag_338\n      tag_222\n      jump\t// in\n    tag_338:\n        /* \"#utility.yul\":5600:5719   */\n    tag_337:\n        /* \"#utility.yul\":5758:5759   */\n      0x00\n        /* \"#utility.yul\":5783:5855   */\n      tag_339\n        /* \"#utility.yul\":5847:5854   */\n      dup6\n        /* \"#utility.yul\":5838:5844   */\n      dup3\n        /* \"#utility.yul\":5827:5836   */\n      dup7\n        /* \"#utility.yul\":5823:5845   */\n      add\n        /* \"#utility.yul\":5783:5855   */\n      tag_228\n      jump\t// in\n    tag_339:\n        /* \"#utility.yul\":5773:5855   */\n      swap3\n      pop\n        /* \"#utility.yul\":5729:5865   */\n      pop\n        /* \"#utility.yul\":5904:5906   */\n      0x20\n        /* \"#utility.yul\":5930:5983   */\n      tag_340\n        /* \"#utility.yul\":5975:5982   */\n      dup6\n        /* \"#utility.yul\":5966:5972   */\n      dup3\n        /* \"#utility.yul\":5955:5964   */\n      dup7\n        /* \"#utility.yul\":5951:5973   */\n      add\n        /* \"#utility.yul\":5930:5983   */\n      tag_242\n      jump\t// in\n    tag_340:\n        /* \"#utility.yul\":5920:5983   */\n      swap2\n      pop\n        /* \"#utility.yul\":5875:5993   */\n      pop\n        /* \"#utility.yul\":5488:6000   */\n      swap3\n      pop\n      swap3\n      swap1\n      pop\n      jump\t// out\n        /* \"#utility.yul\":6006:6096   */\n    tag_243:\n        /* \"#utility.yul\":6040:6047   */\n      0x00\n        /* \"#utility.yul\":6083:6088   */\n      dup2\n        /* \"#utility.yul\":6076:6089   */\n      iszero\n        /* \"#utility.yul\":6069:6090   */\n      iszero\n        /* \"#utility.yul\":6058:6090   */\n      swap1\n      pop\n        /* \"#utility.yul\":6006:6096   */\n      swap2\n      swap1\n      pop\n      jump\t// out\n        /* \"#utility.yul\":6102:6211   */\n    tag_244:\n        /* \"#utility.yul\":6183:6204   */\n      tag_343\n        /* \"#utility.yul\":6198:6203   */\n      dup2\n        /* \"#utility.yul\":6183:6204   */\n      tag_243\n      jump\t// in\n    tag_343:\n        /* \"#utility.yul\":6178:6181   */\n      dup3\n        /* \"#utility.yul\":6171:6205   */\n      mstore\n        /* \"#utility.yul\":6102:6211   */\n      pop\n      pop\n      jump\t// out\n        /* \"#utility.yul\":6217:6427   */\n    tag_33:\n        /* \"#utility.yul\":6304:6308   */\n      0x00\n        /* \"#utility.yul\":6342:6344   */\n      0x20\n        /* \"#utility.yul\":6331:6340   */\n      dup3\n        /* \"#utility.yul\":6327:6345   */\n      add\n        /* \"#utility.yul\":6319:6345   */\n      swap1\n      pop\n        /* \"#utility.yul\":6355:6420   */\n      tag_345\n        /* \"#utility.yul\":6417:6418   */\n      0x00\n        /* \"#utility.yul\":6406:6415   */\n      dup4\n        /* \"#utility.yul\":6402:6419   */\n      add\n        /* \"#utility.yul\":6393:6399   */\n      dup5\n        /* \"#utility.yul\":6355:6420   */\n      tag_244\n      jump\t// in\n    tag_345:\n        /* \"#utility.yul\":6217:6427   */\n      swap3\n      swap2\n      pop\n      pop\n      jump\t// out\n        /* \"#utility.yul\":6433:6762   */\n    tag_39:\n        /* \"#utility.yul\":6492:6498   */\n      0x00\n        /* \"#utility.yul\":6541:6543   */\n      0x20\n        /* \"#utility.yul\":6529:6538   */\n      dup3\n        /* \"#utility.yul\":6520:6527   */\n      dup5\n        /* \"#utility.yul\":6516:6539   */\n      sub\n        /* \"#utility.yul\":6512:6544   */\n      slt\n        /* \"#utility.yul\":6509:6628   */\n      iszero\n      tag_347\n      jumpi\n        /* \"#utility.yul\":6547:6626   */\n      tag_348\n      tag_222\n      jump\t// in\n    tag_348:\n        /* \"#utility.yul\":6509:6628   */\n    tag_347:\n        /* \"#utility.yul\":6667:6668   */\n      0x00\n        /* \"#utility.yul\":6692:6745   */\n      tag_349\n        /* \"#utility.yul\":6737:6744   */\n      dup5\n        /* \"#utility.yul\":6728:6734   */\n      dup3\n        /* \"#utility.yul\":6717:6726   */\n      dup6\n        /* \"#utility.yul\":6713:6735   */\n      add\n        /* \"#utility.yul\":6692:6745   */\n      tag_242\n      jump\t// in\n    tag_349:\n        /* \"#utility.yul\":6682:6745   */\n      swap2\n      pop\n        /* \"#utility.yul\":6638:6755   */\n      pop\n        /* \"#utility.yul\":6433:6762   */\n      swap3\n      swap2\n      pop\n      pop\n      jump\t// out\n        /* \"#utility.yul\":6768:6901   */\n    tag_245:\n        /* \"#utility.yul\":6854:6860   */\n      0x00\n        /* \"#utility.yul\":6888:6893   */\n      dup2\n        /* \"#utility.yul\":6882:6894   */\n      mload\n        /* \"#utility.yul\":6872:6894   */\n      swap1\n      pop\n        /* \"#utility.yul\":6768:6901   */\n      swap2\n      swap1\n      pop\n      jump\t// out\n        /* \"#utility.yul\":6907:7091   */\n    tag_246:\n        /* \"#utility.yul\":7006:7017   */\n      0x00\n        /* \"#utility.yul\":7040:7046   */\n      dup3\n        /* \"#utility.yul\":7035:7038   */\n      dup3\n        /* \"#utility.yul\":7028:7047   */\n      mstore\n        /* \"#utility.yul\":7080:7084   */\n      0x20\n        /* \"#utility.yul\":7075:7078   */\n      dup3\n        /* \"#utility.yul\":7071:7085   */\n      add\n        /* \"#utility.yul\":7056:7085   */\n      swap1\n      pop\n        /* \"#utility.yul\":6907:7091   */\n      swap3\n      swap2\n      pop\n      pop\n      jump\t// out\n        /* \"#utility.yul\":7097:7248   */\n    tag_247:\n        /* \"#utility.yul\":7183:7187   */\n      0x00\n        /* \"#utility.yul\":7206:7209   */\n      dup2\n        /* \"#utility.yul\":7198:7209   */\n      swap1\n      pop\n        /* \"#utility.yul\":7236:7240   */\n      0x20\n        /* \"#utility.yul\":7231:7234   */\n      dup3\n        /* \"#utility.yul\":7227:7241   */\n      add\n        /* \"#utility.yul\":7219:7241   */\n      swap1\n      pop\n        /* \"#utility.yul\":7097:7248   */\n      swap2\n      swap1\n      pop\n      jump\t// out\n        /* \"#utility.yul\":7254:7314   */\n    tag_248:\n        /* \"#utility.yul\":7282:7285   */\n      0x00\n        /* \"#utility.yul\":7303:7308   */\n      dup2\n        /* \"#utility.yul\":7296:7308   */\n      swap1\n      pop\n        /* \"#utility.yul\":7254:7314   */\n      swap2\n      swap1\n      pop\n      jump\t// out\n        /* \"#utility.yul\":7320:7462   */\n    tag_249:\n        /* \"#utility.yul\":7370:7379   */\n      0x00\n        /* \"#utility.yul\":7403:7456   */\n      tag_355\n        /* \"#utility.yul\":7421:7455   */\n      tag_356\n        /* \"#utility.yul\":7430:7454   */\n      tag_357\n        /* \"#utility.yul\":7448:7453   */\n      dup5\n        /* \"#utility.yul\":7430:7454   */\n      tag_224\n      jump\t// in\n    tag_357:\n        /* \"#utility.yul\":7421:7455   */\n      tag_248\n      jump\t// in\n    tag_356:\n        /* \"#utility.yul\":7403:7456   */\n      tag_224\n      jump\t// in\n    tag_355:\n        /* \"#utility.yul\":7390:7456   */\n      swap1\n      pop\n        /* \"#utility.yul\":7320:7462   */\n      swap2\n      swap1\n      pop\n      jump\t// out\n        /* \"#utility.yul\":7468:7594   */\n    tag_250:\n        /* \"#utility.yul\":7518:7527   */\n      0x00\n        /* \"#utility.yul\":7551:7588   */\n      tag_359\n        /* \"#utility.yul\":7582:7587   */\n      dup3\n        /* \"#utility.yul\":7551:7588   */\n      tag_249\n      jump\t// in\n    tag_359:\n        /* \"#utility.yul\":7538:7588   */\n      swap1\n      pop\n        /* \"#utility.yul\":7468:7594   */\n      swap2\n      swap1\n      pop\n      jump\t// out\n        /* \"#utility.yul\":7600:7745   */\n    tag_251:\n        /* \"#utility.yul\":7669:7678   */\n      0x00\n        /* \"#utility.yul\":7702:7739   */\n      tag_361\n        /* \"#utility.yul\":7733:7738   */\n      dup3\n        /* \"#utility.yul\":7702:7739   */\n      tag_250\n      jump\t// in\n    tag_361:\n        /* \"#utility.yul\":7689:7739   */\n      swap1\n      pop\n        /* \"#utility.yul\":7600:7745   */\n      swap2\n      swap1\n      pop\n      jump\t// out\n        /* \"#utility.yul\":7751:7910   */\n    tag_252:\n        /* \"#utility.yul\":7847:7903   */\n      tag_363\n        /* \"#utility.yul\":7897:7902   */\n      dup2\n        /* \"#utility.yul\":7847:7903   */\n      tag_251\n      jump\t// in\n    tag_363:\n        /* \"#utility.yul\":7842:7845   */\n      dup3\n        /* \"#utility.yul\":7835:7904   */\n      mstore\n        /* \"#utility.yul\":7751:7910   */\n      pop\n      pop\n      jump\t// out\n        /* \"#utility.yul\":7916:8133   */\n    tag_253:\n        /* \"#utility.yul\":8004:8014   */\n      0x00\n        /* \"#utility.yul\":8025:8090   */\n      tag_365\n        /* \"#utility.yul\":8086:8089   */\n      dup4\n        /* \"#utility.yul\":8078:8084   */\n      dup4\n        /* \"#utility.yul\":8025:8090   */\n      tag_252\n      jump\t// in\n    tag_365:\n        /* \"#utility.yul\":8122:8126   */\n      0x20\n        /* \"#utility.yul\":8117:8120   */\n      dup4\n        /* \"#utility.yul\":8113:8127   */\n      add\n        /* \"#utility.yul\":8099:8127   */\n      swap1\n      pop\n        /* \"#utility.yul\":7916:8133   */\n      swap3\n      swap2\n      pop\n      pop\n      jump\t// out\n        /* \"#utility.yul\":8139:8271   */\n    tag_254:\n        /* \"#utility.yul\":8228:8232   */\n      0x00\n        /* \"#utility.yul\":8260:8264   */\n      0x20\n        /* \"#utility.yul\":8255:8258   */\n      dup3\n        /* \"#utility.yul\":8251:8265   */\n      add\n        /* \"#utility.yul\":8243:8265   */\n      swap1\n      pop\n        /* \"#utility.yul\":8139:8271   */\n      swap2\n      swap1\n      pop\n      jump\t// out\n        /* \"#utility.yul\":8321:9148   */\n    tag_255:\n        /* \"#utility.yul\":8459:8462   */\n      0x00\n        /* \"#utility.yul\":8488:8561   */\n      tag_368\n        /* \"#utility.yul\":8555:8560   */\n      dup3\n        /* \"#utility.yul\":8488:8561   */\n      tag_245\n      jump\t// in\n    tag_368:\n        /* \"#utility.yul\":8577:8663   */\n      tag_369\n        /* \"#utility.yul\":8656:8662   */\n      dup2\n        /* \"#utility.yul\":8651:8654   */\n      dup6\n        /* \"#utility.yul\":8577:8663   */\n      tag_246\n      jump\t// in\n    tag_369:\n        /* \"#utility.yul\":8570:8663   */\n      swap4\n      pop\n        /* \"#utility.yul\":8687:8762   */\n      tag_370\n        /* \"#utility.yul\":8756:8761   */\n      dup4\n        /* \"#utility.yul\":8687:8762   */\n      tag_247\n      jump\t// in\n    tag_370:\n        /* \"#utility.yul\":8785:8792   */\n      dup1\n        /* \"#utility.yul\":8816:8817   */\n      0x00\n        /* \"#utility.yul\":8801:9123   */\n    tag_371:\n        /* \"#utility.yul\":8826:8832   */\n      dup4\n        /* \"#utility.yul\":8823:8824   */\n      dup2\n        /* \"#utility.yul\":8820:8833   */\n      lt\n        /* \"#utility.yul\":8801:9123   */\n      iszero\n      tag_373\n      jumpi\n        /* \"#utility.yul\":8902:8908   */\n      dup2\n        /* \"#utility.yul\":8896:8909   */\n      mload\n        /* \"#utility.yul\":8929:9011   */\n      tag_374\n        /* \"#utility.yul\":9007:9010   */\n      dup9\n        /* \"#utility.yul\":8992:9005   */\n      dup3\n        /* \"#utility.yul\":8929:9011   */\n      tag_253\n      jump\t// in\n    tag_374:\n        /* \"#utility.yul\":8922:9011   */\n      swap8\n      pop\n        /* \"#utility.yul\":9034:9113   */\n      tag_375\n        /* \"#utility.yul\":9106:9112   */\n      dup4\n        /* \"#utility.yul\":9034:9113   */\n      tag_254\n      jump\t// in\n    tag_375:\n        /* \"#utility.yul\":9024:9113   */\n      swap3\n      pop\n        /* \"#utility.yul\":8861:9123   */\n      pop\n        /* \"#utility.yul\":8848:8849   */\n      0x01\n        /* \"#utility.yul\":8845:8846   */\n      dup2\n        /* \"#utility.yul\":8841:8850   */\n      add\n        /* \"#utility.yul\":8836:8850   */\n      swap1\n      pop\n        /* \"#utility.yul\":8801:9123   */\n      jump(tag_371)\n    tag_373:\n        /* \"#utility.yul\":8805:8819   */\n      pop\n        /* \"#utility.yul\":9139:9142   */\n      dup6\n        /* \"#utility.yul\":9132:9142   */\n      swap4\n      pop\n        /* \"#utility.yul\":8464:9148   */\n      pop\n      pop\n      pop\n        /* \"#utility.yul\":8321:9148   */\n      swap3\n      swap2\n      pop\n      pop\n      jump\t// out\n        /* \"#utility.yul\":9154:9565   */\n    tag_42:\n        /* \"#utility.yul\":9316:9320   */\n      0x00\n        /* \"#utility.yul\":9354:9356   */\n      0x20\n        /* \"#utility.yul\":9343:9352   */\n      dup3\n        /* \"#utility.yul\":9339:9357   */\n      add\n        /* \"#utility.yul\":9331:9357   */\n      swap1\n      pop\n        /* \"#utility.yul\":9403:9412   */\n      dup2\n        /* \"#utility.yul\":9397:9401   */\n      dup2\n        /* \"#utility.yul\":9393:9413   */\n      sub\n        /* \"#utility.yul\":9389:9390   */\n      0x00\n        /* \"#utility.yul\":9378:9387   */\n      dup4\n        /* \"#utility.yul\":9374:9391   */\n      add\n        /* \"#utility.yul\":9367:9414   */\n      mstore\n        /* \"#utility.yul\":9431:9558   */\n      tag_377\n        /* \"#utility.yul\":9553:9557   */\n      dup2\n        /* \"#utility.yul\":9544:9550   */\n      dup5\n        /* \"#utility.yul\":9431:9558   */\n      tag_255\n      jump\t// in\n    tag_377:\n        /* \"#utility.yul\":9423:9558   */\n      swap1\n      pop\n        /* \"#utility.yul\":9154:9565   */\n      swap3\n      swap2\n      pop\n      pop\n      jump\t// out\n        /* \"#utility.yul\":9571:9689   */\n    tag_256:\n        /* \"#utility.yul\":9658:9682   */\n      tag_379\n        /* \"#utility.yul\":9676:9681   */\n      dup2\n        /* \"#utility.yul\":9658:9682   */\n      tag_225\n      jump\t// in\n    tag_379:\n        /* \"#utility.yul\":9653:9656   */\n      dup3\n        /* \"#utility.yul\":9646:9683   */\n      mstore\n        /* \"#utility.yul\":9571:9689   */\n      pop\n      pop\n      jump\t// out\n        /* \"#utility.yul\":9695:9917   */\n    tag_52:\n        /* \"#utility.yul\":9788:9792   */\n      0x00\n        /* \"#utility.yul\":9826:9828   */\n      0x20\n        /* \"#utility.yul\":9815:9824   */\n      dup3\n        /* \"#utility.yul\":9811:9829   */\n      add\n        /* \"#utility.yul\":9803:9829   */\n      swap1\n      pop\n        /* \"#utility.yul\":9839:9910   */\n      tag_381\n        /* \"#utility.yul\":9907:9908   */\n      0x00\n        /* \"#utility.yul\":9896:9905   */\n      dup4\n        /* \"#utility.yul\":9892:9909   */\n      add\n        /* \"#utility.yul\":9883:9889   */\n      dup5\n        /* \"#utility.yul\":9839:9910   */\n      tag_256\n      jump\t// in\n    tag_381:\n        /* \"#utility.yul\":9695:9917   */\n      swap3\n      swap2\n      pop\n      pop\n      jump\t// out\n        /* \"#utility.yul\":9923:10045   */\n    tag_257:\n        /* \"#utility.yul\":9996:10020   */\n      tag_383\n        /* \"#utility.yul\":10014:10019   */\n      dup2\n        /* \"#utility.yul\":9996:10020   */\n      tag_225\n      jump\t// in\n    tag_383:\n        /* \"#utility.yul\":9989:9994   */\n      dup2\n        /* \"#utility.yul\":9986:10021   */\n      eq\n        /* \"#utility.yul\":9976:10039   */\n      tag_384\n      jumpi\n        /* \"#utility.yul\":10035:10036   */\n      0x00\n        /* \"#utility.yul\":10032:10033   */\n      dup1\n        /* \"#utility.yul\":10025:10037   */\n      revert\n        /* \"#utility.yul\":9976:10039   */\n    tag_384:\n        /* \"#utility.yul\":9923:10045   */\n      pop\n      jump\t// out\n        /* \"#utility.yul\":10051:10190   */\n    tag_258:\n        /* \"#utility.yul\":10097:10102   */\n      0x00\n        /* \"#utility.yul\":10135:10141   */\n      dup2\n        /* \"#utility.yul\":10122:10142   */\n      calldataload\n        /* \"#utility.yul\":10113:10142   */\n      swap1\n      pop\n        /* \"#utility.yul\":10151:10184   */\n      tag_386\n        /* \"#utility.yul\":10178:10183   */\n      dup2\n        /* \"#utility.yul\":10151:10184   */\n      tag_257\n      jump\t// in\n    tag_386:\n        /* \"#utility.yul\":10051:10190   */\n      swap3\n      swap2\n      pop\n      pop\n      jump\t// out\n        /* \"#utility.yul\":10196:10525   */\n    tag_58:\n        /* \"#utility.yul\":10255:10261   */\n      0x00\n        /* \"#utility.yul\":10304:10306   */\n      0x20\n        /* \"#utility.yul\":10292:10301   */\n      dup3\n        /* \"#utility.yul\":10283:10290   */\n      dup5\n        /* \"#utility.yul\":10279:10302   */\n      sub\n        /* \"#utility.yul\":10275:10307   */\n      slt\n        /* \"#utility.yul\":10272:10391   */\n      iszero\n      tag_388\n      jumpi\n        /* \"#utility.yul\":10310:10389   */\n      tag_389\n      tag_222\n      jump\t// in\n    tag_389:\n        /* \"#utility.yul\":10272:10391   */\n    tag_388:\n        /* \"#utility.yul\":10430:10431   */\n      0x00\n        /* \"#utility.yul\":10455:10508   */\n      tag_390\n        /* \"#utility.yul\":10500:10507   */\n      dup5\n        /* \"#utility.yul\":10491:10497   */\n      dup3\n        /* \"#utility.yul\":10480:10489   */\n      dup6\n        /* \"#utility.yul\":10476:10498   */\n      add\n        /* \"#utility.yul\":10455:10508   */\n      tag_258\n      jump\t// in\n    tag_390:\n        /* \"#utility.yul\":10445:10508   */\n      swap2\n      pop\n        /* \"#utility.yul\":10401:10518   */\n      pop\n        /* \"#utility.yul\":10196:10525   */\n      swap3\n      swap2\n      pop\n      pop\n      jump\t// out\n        /* \"#utility.yul\":10531:10700   */\n    tag_259:\n        /* \"#utility.yul\":10615:10626   */\n      0x00\n        /* \"#utility.yul\":10649:10655   */\n      dup3\n        /* \"#utility.yul\":10644:10647   */\n      dup3\n        /* \"#utility.yul\":10637:10656   */\n      mstore\n        /* \"#utility.yul\":10689:10693   */\n      0x20\n        /* \"#utility.yul\":10684:10687   */\n      dup3\n        /* \"#utility.yul\":10680:10694   */\n      add\n        /* \"#utility.yul\":10665:10694   */\n      swap1\n      pop\n        /* \"#utility.yul\":10531:10700   */\n      swap3\n      swap2\n      pop\n      pop\n      jump\t// out\n        /* \"#utility.yul\":10706:10881   */\n    tag_260:\n        /* \"#utility.yul\":10846:10873   */\n      0x4552432d333634333a204e6f20636c61696d20746f7069637300000000000000\n        /* \"#utility.yul\":10842:10843   */\n      0x00\n        /* \"#utility.yul\":10834:10840   */\n      dup3\n        /* \"#utility.yul\":10830:10844   */\n      add\n        /* \"#utility.yul\":10823:10874   */\n      mstore\n        /* \"#utility.yul\":10706:10881   */\n      pop\n      jump\t// out\n        /* \"#utility.yul\":10887:11253   */\n    tag_261:\n        /* \"#utility.yul\":11029:11032   */\n      0x00\n        /* \"#utility.yul\":11050:11117   */\n      tag_394\n        /* \"#utility.yul\":11114:11116   */\n      0x19\n        /* \"#utility.yul\":11109:11112   */\n      dup4\n        /* \"#utility.yul\":11050:11117   */\n      tag_259\n      jump\t// in\n    tag_394:\n        /* \"#utility.yul\":11043:11117   */\n      swap2\n      pop\n        /* \"#utility.yul\":11126:11219   */\n      tag_395\n        /* \"#utility.yul\":11215:11218   */\n      dup3\n        /* \"#utility.yul\":11126:11219   */\n      tag_260\n      jump\t// in\n    tag_395:\n        /* \"#utility.yul\":11244:11246   */\n      0x20\n        /* \"#utility.yul\":11239:11242   */\n      dup3\n        /* \"#utility.yul\":11235:11247   */\n      add\n        /* \"#utility.yul\":11228:11247   */\n      swap1\n      pop\n        /* \"#utility.yul\":10887:11253   */\n      swap2\n      swap1\n      pop\n      jump\t// out\n        /* \"#utility.yul\":11259:11678   */\n    tag_66:\n        /* \"#utility.yul\":11425:11429   */\n      0x00\n        /* \"#utility.yul\":11463:11465   */\n      0x20\n        /* \"#utility.yul\":11452:11461   */\n      dup3\n        /* \"#utility.yul\":11448:11466   */\n      add\n        /* \"#utility.yul\":11440:11466   */\n      swap1\n      pop\n        /* \"#utility.yul\":11512:11521   */\n      dup2\n        /* \"#utility.yul\":11506:11510   */\n      dup2\n        /* \"#utility.yul\":11502:11522   */\n      sub\n        /* \"#utility.yul\":11498:11499   */\n      0x00\n        /* \"#utility.yul\":11487:11496   */\n      dup4\n        /* \"#utility.yul\":11483:11500   */\n      add\n        /* \"#utility.yul\":11476:11523   */\n      mstore\n        /* \"#utility.yul\":11540:11671   */\n      tag_397\n        /* \"#utility.yul\":11666:11670   */\n      dup2\n        /* \"#utility.yul\":11540:11671   */\n      tag_261\n      jump\t// in\n    tag_397:\n        /* \"#utility.yul\":11532:11671   */\n      swap1\n      pop\n        /* \"#utility.yul\":11259:11678   */\n      swap2\n      swap1\n      pop\n      jump\t// out\n        /* \"#utility.yul\":11684:11862   */\n    tag_262:\n        /* \"#utility.yul\":11824:11854   */\n      0x4552432d333634333a204e6f74206120636c61696d2069737375657200000000\n        /* \"#utility.yul\":11820:11821   */\n      0x00\n        /* \"#utility.yul\":11812:11818   */\n      dup3\n        /* \"#utility.yul\":11808:11822   */\n      add\n        /* \"#utility.yul\":11801:11855   */\n      mstore\n        /* \"#utility.yul\":11684:11862   */\n      pop\n      jump\t// out\n        /* \"#utility.yul\":11868:12234   */\n    tag_263:\n        /* \"#utility.yul\":12010:12013   */\n      0x00\n        /* \"#utility.yul\":12031:12098   */\n      tag_400\n        /* \"#utility.yul\":12095:12097   */\n      0x1c\n        /* \"#utility.yul\":12090:12093   */\n      dup4\n        /* \"#utility.yul\":12031:12098   */\n      tag_259\n      jump\t// in\n    tag_400:\n        /* \"#utility.yul\":12024:12098   */\n      swap2\n      pop\n        /* \"#utility.yul\":12107:12200   */\n      tag_401\n        /* \"#utility.yul\":12196:12199   */\n      dup3\n        /* \"#utility.yul\":12107:12200   */\n      tag_262\n      jump\t// in\n    tag_401:\n        /* \"#utility.yul\":12225:12227   */\n      0x20\n        /* \"#utility.yul\":12220:12223   */\n      dup3\n        /* \"#utility.yul\":12216:12228   */\n      add\n        /* \"#utility.yul\":12209:12228   */\n      swap1\n      pop\n        /* \"#utility.yul\":11868:12234   */\n      swap2\n      swap1\n      pop\n      jump\t// out\n        /* \"#utility.yul\":12240:12659   */\n    tag_69:\n        /* \"#utility.yul\":12406:12410   */\n      0x00\n        /* \"#utility.yul\":12444:12446   */\n      0x20\n        /* \"#utility.yul\":12433:12442   */\n      dup3\n        /* \"#utility.yul\":12429:12447   */\n      add\n        /* \"#utility.yul\":12421:12447   */\n      swap1\n      pop\n        /* \"#utility.yul\":12493:12502   */\n      dup2\n        /* \"#utility.yul\":12487:12491   */\n      dup2\n        /* \"#utility.yul\":12483:12503   */\n      sub\n        /* \"#utility.yul\":12479:12480   */\n      0x00\n        /* \"#utility.yul\":12468:12477   */\n      dup4\n        /* \"#utility.yul\":12464:12481   */\n      add\n        /* \"#utility.yul\":12457:12504   */\n      mstore\n        /* \"#utility.yul\":12521:12652   */\n      tag_403\n        /* \"#utility.yul\":12647:12651   */\n      dup2\n        /* \"#utility.yul\":12521:12652   */\n      tag_263\n      jump\t// in\n    tag_403:\n        /* \"#utility.yul\":12513:12652   */\n      swap1\n      pop\n        /* \"#utility.yul\":12240:12659   */\n      swap2\n      swap1\n      pop\n      jump\t// out\n        /* \"#utility.yul\":12665:12782   */\n    tag_264:\n        /* \"#utility.yul\":12774:12775   */\n      0x00\n        /* \"#utility.yul\":12771:12772   */\n      dup1\n        /* \"#utility.yul\":12764:12776   */\n      revert\n        /* \"#utility.yul\":12788:12886   */\n    tag_265:\n        /* \"#utility.yul\":12872:12878   */\n      dup3\n        /* \"#utility.yul\":12867:12870   */\n      dup2\n        /* \"#utility.yul\":12862:12865   */\n      dup4\n        /* \"#utility.yul\":12849:12879   */\n      calldatacopy\n        /* \"#utility.yul\":12788:12886   */\n      pop\n      pop\n      pop\n      jump\t// out\n        /* \"#utility.yul\":12922:13459   */\n    tag_266:\n        /* \"#utility.yul\":13050:13053   */\n      0x00\n        /* \"#utility.yul\":13071:13157   */\n      tag_407\n        /* \"#utility.yul\":13150:13156   */\n      dup4\n        /* \"#utility.yul\":13145:13148   */\n      dup6\n        /* \"#utility.yul\":13071:13157   */\n      tag_234\n      jump\t// in\n    tag_407:\n        /* \"#utility.yul\":13064:13157   */\n      swap4\n      pop\n        /* \"#utility.yul\":13181:13247   */\n      0x07ffffffffffffffffffffffffffffffffffffffffffffffffffffffffffffff\n        /* \"#utility.yul\":13173:13179   */\n      dup4\n        /* \"#utility.yul\":13170:13248   */\n      gt\n        /* \"#utility.yul\":13167:13332   */\n      iszero\n      tag_408\n      jumpi\n        /* \"#utility.yul\":13251:13330   */\n      tag_409\n      tag_264\n      jump\t// in\n    tag_409:\n        /* \"#utility.yul\":13167:13332   */\n    tag_408:\n        /* \"#utility.yul\":13363:13367   */\n      0x20\n        /* \"#utility.yul\":13355:13361   */\n      dup4\n        /* \"#utility.yul\":13351:13368   */\n      mul\n        /* \"#utility.yul\":13341:13368   */\n      swap3\n      pop\n        /* \"#utility.yul\":13378:13421   */\n      tag_410\n        /* \"#utility.yul\":13414:13420   */\n      dup4\n        /* \"#utility.yul\":13409:13412   */\n      dup6\n        /* \"#utility.yul\":13402:13407   */\n      dup5\n        /* \"#utility.yul\":13378:13421   */\n      tag_265\n      jump\t// in\n    tag_410:\n        /* \"#utility.yul\":13446:13452   */\n      dup3\n        /* \"#utility.yul\":13441:13444   */\n      dup5\n        /* \"#utility.yul\":13437:13453   */\n      add\n        /* \"#utility.yul\":13430:13453   */\n      swap1\n      pop\n        /* \"#utility.yul\":12922:13459   */\n      swap4\n      swap3\n      pop\n      pop\n      pop\n      jump\t// out\n        /* \"#utility.yul\":13465:13858   */\n    tag_75:\n        /* \"#utility.yul\":13618:13622   */\n      0x00\n        /* \"#utility.yul\":13656:13658   */\n      0x20\n        /* \"#utility.yul\":13645:13654   */\n      dup3\n        /* \"#utility.yul\":13641:13659   */\n      add\n        /* \"#utility.yul\":13633:13659   */\n      swap1\n      pop\n        /* \"#utility.yul\":13705:13714   */\n      dup2\n        /* \"#utility.yul\":13699:13703   */\n      dup2\n        /* \"#utility.yul\":13695:13715   */\n      sub\n        /* \"#utility.yul\":13691:13692   */\n      0x00\n        /* \"#utility.yul\":13680:13689   */\n      dup4\n        /* \"#utility.yul\":13676:13693   */\n      add\n        /* \"#utility.yul\":13669:13716   */\n      mstore\n        /* \"#utility.yul\":13733:13851   */\n      tag_412\n        /* \"#utility.yul\":13846:13850   */\n      dup2\n        /* \"#utility.yul\":13837:13843   */\n      dup5\n        /* \"#utility.yul\":13829:13835   */\n      dup7\n        /* \"#utility.yul\":13733:13851   */\n      tag_266\n      jump\t// in\n    tag_412:\n        /* \"#utility.yul\":13725:13851   */\n      swap1\n      pop\n        /* \"#utility.yul\":13465:13858   */\n      swap4\n      swap3\n      pop\n      pop\n      pop\n      jump\t// out\n        /* \"#utility.yul\":13864:14044   */\n    tag_86:\n        /* \"#utility.yul\":13912:13989   */\n      0x4e487b7100000000000000000000000000000000000000000000000000000000\n        /* \"#utility.yul\":13909:13910   */\n      0x00\n        /* \"#utility.yul\":13902:13990   */\n      mstore\n        /* \"#utility.yul\":14009:14013   */\n      0x32\n        /* \"#utility.yul\":14006:14007   */\n      0x04\n        /* \"#utility.yul\":13999:14014   */\n      mstore\n        /* \"#utility.yul\":14033:14037   */\n      0x24\n        /* \"#utility.yul\":14030:14031   */\n      0x00\n        /* \"#utility.yul\":14023:14038   */\n      revert\n        /* \"#utility.yul\":14050:14230   */\n    tag_267:\n        /* \"#utility.yul\":14098:14175   */\n      0x4e487b7100000000000000000000000000000000000000000000000000000000\n        /* \"#utility.yul\":14095:14096   */\n      0x00\n        /* \"#utility.yul\":14088:14176   */\n      mstore\n        /* \"#utility.yul\":14195:14199   */\n      0x11\n        /* \"#utility.yul\":14192:14193   */\n      0x04\n        /* \"#utility.yul\":14185:14200   */\n      mstore\n        /* \"#utility.yul\":14219:14223   */\n      0x24\n        /* \"#utility.yul\":14216:14217   */\n      0x00\n        /* \"#utility.yul\":14209:14224   */\n      revert\n        /* \"#utility.yul\":14236:14430   */\n    tag_90:\n        /* \"#utility.yul\":14276:14280   */\n      0x00\n        /* \"#utility.yul\":14296:14316   */\n      tag_416\n        /* \"#utility.yul\":14314:14315   */\n      dup3\n        /* \"#utility.yul\":14296:14316   */\n      tag_236\n      jump\t// in\n    tag_416:\n        /* \"#utility.yul\":14291:14316   */\n      swap2\n      pop\n        /* \"#utility.yul\":14330:14350   */\n      tag_417\n        /* \"#utility.yul\":14348:14349   */\n      dup4\n        /* \"#utility.yul\":14330:14350   */\n      tag_236\n      jump\t// in\n    tag_417:\n        /* \"#utility.yul\":14325:14350   */\n      swap3\n      pop\n        /* \"#utility.yul\":14374:14375   */\n      dup3\n        /* \"#utility.yul\":14371:14372   */\n      dup3\n        /* \"#utility.yul\":14367:14376   */\n      sub\n        /* \"#utility.yul\":14359:14376   */\n      swap1\n      pop\n        /* \"#utility.yul\":14398:14399   */\n      dup2\n        /* \"#utility.yul\":14392:14396   */\n      dup2\n        /* \"#utility.yul\":14389:14400   */\n      gt\n        /* \"#utility.yul\":14386:14423   */\n      iszero\n      tag_418\n      jumpi\n        /* \"#utility.yul\":14403:14421   */\n      tag_419\n      tag_267\n      jump\t// in\n    tag_419:\n        /* \"#utility.yul\":14386:14423   */\n    tag_418:\n        /* \"#utility.yul\":14236:14430   */\n      swap3\n      swap2\n      pop\n      pop\n      jump\t// out\n        /* \"#utility.yul\":14436:14616   */\n    tag_99:\n        /* \"#utility.yul\":14484:14561   */\n      0x4e487b7100000000000000000000000000000000000000000000000000000000\n        /* \"#utility.yul\":14481:14482   */\n      0x00\n        /* \"#utility.yul\":14474:14562   */\n      mstore\n        /* \"#utility.yul\":14581:14585   */\n      0x31\n        /* \"#utility.yul\":14578:14579   */\n      0x04\n        /* \"#utility.yul\":14571:14586   */\n      mstore\n        /* \"#utility.yul\":14605:14609   */\n      0x24\n        /* \"#utility.yul\":14602:14603   */\n      0x00\n        /* \"#utility.yul\":14595:14610   */\n      revert\n        /* \"#utility.yul\":14622:14802   */\n    tag_268:\n        /* \"#utility.yul\":14762:14794   */\n      0x4552432d333634333a2049737375657220646f65736e27742065786973740000\n        /* \"#utility.yul\":14758:14759   */\n      0x00\n        /* \"#utility.yul\":14750:14756   */\n      dup3\n        /* \"#utility.yul\":14746:14760   */\n      add\n        /* \"#utility.yul\":14739:14795   */\n      mstore\n        /* \"#utility.yul\":14622:14802   */\n      pop\n      jump\t// out\n        /* \"#utility.yul\":14808:15174   */\n    tag_269:\n        /* \"#utility.yul\":14950:14953   */\n      0x00\n        /* \"#utility.yul\":14971:15038   */\n      tag_423\n        /* \"#utility.yul\":15035:15037   */\n      0x1e\n        /* \"#utility.yul\":15030:15033   */\n      dup4\n        /* \"#utility.yul\":14971:15038   */\n      tag_259\n      jump\t// in\n    tag_423:\n        /* \"#utility.yul\":14964:15038   */\n      swap2\n      pop\n        /* \"#utility.yul\":15047:15140   */\n      tag_424\n        /* \"#utility.yul\":15136:15139   */\n      dup3\n        /* \"#utility.yul\":15047:15140   */\n      tag_268\n      jump\t// in\n    tag_424:\n        /* \"#utility.yul\":15165:15167   */\n      0x20\n        /* \"#utility.yul\":15160:15163   */\n      dup3\n        /* \"#utility.yul\":15156:15168   */\n      add\n        /* \"#utility.yul\":15149:15168   */\n      swap1\n      pop\n        /* \"#utility.yul\":14808:15174   */\n      swap2\n      swap1\n      pop\n      jump\t// out\n        /* \"#utility.yul\":15180:15599   */\n    tag_110:\n        /* \"#utility.yul\":15346:15350   */\n      0x00\n        /* \"#utility.yul\":15384:15386   */\n      0x20\n        /* \"#utility.yul\":15373:15382   */\n      dup3\n        /* \"#utility.yul\":15369:15387   */\n      add\n        /* \"#utility.yul\":15361:15387   */\n      swap1\n      pop\n        /* \"#utility.yul\":15433:15442   */\n      dup2\n        /* \"#utility.yul\":15427:15431   */\n      dup2\n        /* \"#utility.yul\":15423:15443   */\n      sub\n        /* \"#utility.yul\":15419:15420   */\n      0x00\n        /* \"#utility.yul\":15408:15417   */\n      dup4\n        /* \"#utility.yul\":15404:15421   */\n      add\n        /* \"#utility.yul\":15397:15444   */\n      mstore\n        /* \"#utility.yul\":15461:15592   */\n      tag_426\n        /* \"#utility.yul\":15587:15591   */\n      dup2\n        /* \"#utility.yul\":15461:15592   */\n      tag_269\n      jump\t// in\n    tag_426:\n        /* \"#utility.yul\":15453:15592   */\n      swap1\n      pop\n        /* \"#utility.yul\":15180:15599   */\n      swap2\n      swap1\n      pop\n      jump\t// out\n        /* \"#utility.yul\":15605:15785   */\n    tag_270:\n        /* \"#utility.yul\":15745:15777   */\n      0x4552432d333634333a20496e76616c6964207a65726f20616464726573730000\n        /* \"#utility.yul\":15741:15742   */\n      0x00\n        /* \"#utility.yul\":15733:15739   */\n      dup3\n        /* \"#utility.yul\":15729:15743   */\n      add\n        /* \"#utility.yul\":15722:15778   */\n      mstore\n        /* \"#utility.yul\":15605:15785   */\n      pop\n      jump\t// out\n        /* \"#utility.yul\":15791:16157   */\n    tag_271:\n        /* \"#utility.yul\":15933:15936   */\n      0x00\n        /* \"#utility.yul\":15954:16021   */\n      tag_429\n        /* \"#utility.yul\":16018:16020   */\n      0x1e\n        /* \"#utility.yul\":16013:16016   */\n      dup4\n        /* \"#utility.yul\":15954:16021   */\n      tag_259\n      jump\t// in\n    tag_429:\n        /* \"#utility.yul\":15947:16021   */\n      swap2\n      pop\n        /* \"#utility.yul\":16030:16123   */\n      tag_430\n        /* \"#utility.yul\":16119:16122   */\n      dup3\n        /* \"#utility.yul\":16030:16123   */\n      tag_270\n      jump\t// in\n    tag_430:\n        /* \"#utility.yul\":16148:16150   */\n      0x20\n        /* \"#utility.yul\":16143:16146   */\n      dup3\n        /* \"#utility.yul\":16139:16151   */\n      add\n        /* \"#utility.yul\":16132:16151   */\n      swap1\n      pop\n        /* \"#utility.yul\":15791:16157   */\n      swap2\n      swap1\n      pop\n      jump\t// out\n        /* \"#utility.yul\":16163:16582   */\n    tag_127:\n        /* \"#utility.yul\":16329:16333   */\n      0x00\n        /* \"#utility.yul\":16367:16369   */\n      0x20\n        /* \"#utility.yul\":16356:16365   */\n      dup3\n        /* \"#utility.yul\":16352:16370   */\n      add\n        /* \"#utility.yul\":16344:16370   */\n      swap1\n      pop\n        /* \"#utility.yul\":16416:16425   */\n      dup2\n        /* \"#utility.yul\":16410:16414   */\n      dup2\n        /* \"#utility.yul\":16406:16426   */\n      sub\n        /* \"#utility.yul\":16402:16403   */\n      0x00\n        /* \"#utility.yul\":16391:16400   */\n      dup4\n        /* \"#utility.yul\":16387:16404   */\n      add\n        /* \"#utility.yul\":16380:16427   */\n      mstore\n        /* \"#utility.yul\":16444:16575   */\n      tag_432\n        /* \"#utility.yul\":16570:16574   */\n      dup2\n        /* \"#utility.yul\":16444:16575   */\n      tag_271\n      jump\t// in\n    tag_432:\n        /* \"#utility.yul\":16436:16575   */\n      swap1\n      pop\n        /* \"#utility.yul\":16163:16582   */\n      swap2\n      swap1\n      pop\n      jump\t// out\n        /* \"#utility.yul\":16588:16769   */\n    tag_272:\n        /* \"#utility.yul\":16728:16761   */\n      0x4552432d333634333a2049737375657220616c72656164792065786973747300\n        /* \"#utility.yul\":16724:16725   */\n      0x00\n        /* \"#utility.yul\":16716:16722   */\n      dup3\n        /* \"#utility.yul\":16712:16726   */\n      add\n        /* \"#utility.yul\":16705:16762   */\n      mstore\n        /* \"#utility.yul\":16588:16769   */\n      pop\n      jump\t// out\n        /* \"#utility.yul\":16775:17141   */\n    tag_273:\n        /* \"#utility.yul\":16917:16920   */\n      0x00\n        /* \"#utility.yul\":16938:17005   */\n      tag_435\n        /* \"#utility.yul\":17002:17004   */\n      0x1f\n        /* \"#utility.yul\":16997:17000   */\n      dup4\n        /* \"#utility.yul\":16938:17005   */\n      tag_259\n      jump\t// in\n    tag_435:\n        /* \"#utility.yul\":16931:17005   */\n      swap2\n      pop\n        /* \"#utility.yul\":17014:17107   */\n      tag_436\n        /* \"#utility.yul\":17103:17106   */\n      dup3\n        /* \"#utility.yul\":17014:17107   */\n      tag_272\n      jump\t// in\n    tag_436:\n        /* \"#utility.yul\":17132:17134   */\n      0x20\n        /* \"#utility.yul\":17127:17130   */\n      dup3\n        /* \"#utility.yul\":17123:17135   */\n      add\n        /* \"#utility.yul\":17116:17135   */\n      swap1\n      pop\n        /* \"#utility.yul\":16775:17141   */\n      swap2\n      swap1\n      pop\n      jump\t// out\n        /* \"#utility.yul\":17147:17566   */\n    tag_130:\n        /* \"#utility.yul\":17313:17317   */\n      0x00\n        /* \"#utility.yul\":17351:17353   */\n      0x20\n        /* \"#utility.yul\":17340:17349   */\n      dup3\n        /* \"#utility.yul\":17336:17354   */\n      add\n        /* \"#utility.yul\":17328:17354   */\n      swap1\n      pop\n        /* \"#utility.yul\":17400:17409   */\n      dup2\n        /* \"#utility.yul\":17394:17398   */\n      dup2\n        /* \"#utility.yul\":17390:17410   */\n      sub\n        /* \"#utility.yul\":17386:17387   */\n      0x00\n        /* \"#utility.yul\":17375:17384   */\n      dup4\n        /* \"#utility.yul\":17371:17388   */\n      add\n        /* \"#utility.yul\":17364:17411   */\n      mstore\n        /* \"#utility.yul\":17428:17559   */\n      tag_438\n        /* \"#utility.yul\":17554:17558   */\n      dup2\n        /* \"#utility.yul\":17428:17559   */\n      tag_273\n      jump\t// in\n    tag_438:\n        /* \"#utility.yul\":17420:17559   */\n      swap1\n      pop\n        /* \"#utility.yul\":17147:17566   */\n      swap2\n      swap1\n      pop\n      jump\t// out\n        /* \"#utility.yul\":17572:17750   */\n    tag_274:\n        /* \"#utility.yul\":17712:17742   */\n      0x4552432d333634333a20456d70747920636c61696d20746f7069637300000000\n        /* \"#utility.yul\":17708:17709   */\n      0x00\n        /* \"#utility.yul\":17700:17706   */\n      dup3\n        /* \"#utility.yul\":17696:17710   */\n      add\n        /* \"#utility.yul\":17689:17743   */\n      mstore\n        /* \"#utility.yul\":17572:17750   */\n      pop\n      jump\t// out\n        /* \"#utility.yul\":17756:18122   */\n    tag_275:\n        /* \"#utility.yul\":17898:17901   */\n      0x00\n        /* \"#utility.yul\":17919:17986   */\n      tag_441\n        /* \"#utility.yul\":17983:17985   */\n      0x1c\n        /* \"#utility.yul\":17978:17981   */\n      dup4\n        /* \"#utility.yul\":17919:17986   */\n      tag_259\n      jump\t// in\n    tag_441:\n        /* \"#utility.yul\":17912:17986   */\n      swap2\n      pop\n        /* \"#utility.yul\":17995:18088   */\n      tag_442\n        /* \"#utility.yul\":18084:18087   */\n      dup3\n        /* \"#utility.yul\":17995:18088   */\n      tag_274\n      jump\t// in\n    tag_442:\n        /* \"#utility.yul\":18113:18115   */\n      0x20\n        /* \"#utility.yul\":18108:18111   */\n      dup3\n        /* \"#utility.yul\":18104:18116   */\n      add\n        /* \"#utility.yul\":18097:18116   */\n      swap1\n      pop\n        /* \"#utility.yul\":17756:18122   */\n      swap2\n      swap1\n      pop\n      jump\t// out\n        /* \"#utility.yul\":18128:18547   */\n    tag_133:\n        /* \"#utility.yul\":18294:18298   */\n      0x00\n        /* \"#utility.yul\":18332:18334   */\n      0x20\n        /* \"#utility.yul\":18321:18330   */\n      dup3\n        /* \"#utility.yul\":18317:18335   */\n      add\n        /* \"#utility.yul\":18309:18335   */\n      swap1\n      pop\n        /* \"#utility.yul\":18381:18390   */\n      dup2\n        /* \"#utility.yul\":18375:18379   */\n      dup2\n        /* \"#utility.yul\":18371:18391   */\n      sub\n        /* \"#utility.yul\":18367:18368   */\n      0x00\n        /* \"#utility.yul\":18356:18365   */\n      dup4\n        /* \"#utility.yul\":18352:18369   */\n      add\n        /* \"#utility.yul\":18345:18392   */\n      mstore\n        /* \"#utility.yul\":18409:18540   */\n      tag_444\n        /* \"#utility.yul\":18535:18539   */\n      dup2\n        /* \"#utility.yul\":18409:18540   */\n      tag_275\n      jump\t// in\n    tag_444:\n        /* \"#utility.yul\":18401:18540   */\n      swap1\n      pop\n        /* \"#utility.yul\":18128:18547   */\n      swap2\n      swap1\n      pop\n      jump\t// out\n\n    auxdata: 0xa26469706673582212209aeff2bf71839148e70434184c466a17740c1c1b9de7b168be11b7eb6402406264736f6c63430008140033\n}\n",
				"bytecode": {
					"linkReferences": {},
					"object": "608060405234801562000010575f80fd5b50335f73ffffffffffffffffffffffffffffffffffffffff168173ffffffffffffffffffffffffffffffffffffffff160362000085575f6040517f1e4fbdf70000000000000000000000000000000000000000000000000000000081526004016200007c9190620001a1565b60405180910390fd5b62000096816200009d60201b60201c565b50620001bc565b5f805f9054906101000a900473ffffffffffffffffffffffffffffffffffffffff169050815f806101000a81548173ffffffffffffffffffffffffffffffffffffffff021916908373ffffffffffffffffffffffffffffffffffffffff1602179055508173ffffffffffffffffffffffffffffffffffffffff168173ffffffffffffffffffffffffffffffffffffffff167f8be0079c531659141344cd1fd0a4f28419497f9722a3daafe3b4186f6b6457e060405160405180910390a35050565b5f73ffffffffffffffffffffffffffffffffffffffff82169050919050565b5f62000189826200015e565b9050919050565b6200019b816200017d565b82525050565b5f602082019050620001b65f83018462000190565b92915050565b611b9780620001ca5f395ff3fe608060405234801561000f575f80fd5b50600436106100a7575f3560e01c80636b2c56bd1161006f5780636b2c56bd1461015f5780636de487081461018f578063715018a6146101bf5780638da5cb5b146101c9578063d4f4ac4e146101e7578063f2fde38b14610205576100a7565b806304bc7e84146100ab5780630b4b764c146100c7578063122dade8146100e357806334a899871461011357806338d742a414610143575b5f80fd5b6100c560048036038101906100c091906113cf565b610221565b005b6100e160048036038101906100dc919061142c565b6103a0565b005b6100fd60048036038101906100f8919061142c565b61063e565b60405161010a9190611517565b60405180910390f35b61012d60048036038101906101289190611561565b610719565b60405161013a91906115b9565b60405180910390f35b61015d600480360381019061015891906113cf565b61083a565b005b610179600480360381019061017491906115d2565b610b1c565b6040516101869190611700565b60405180910390f35b6101a960048036038101906101a4919061142c565b610bb8565b6040516101b691906115b9565b60405180910390f35b6101c7610bc9565b005b6101d1610bdc565b6040516101de919061172f565b60405180910390f35b6101ef610c03565b6040516101fc9190611700565b60405180910390f35b61021f600480360381019061021a9190611772565b610c8e565b005b610229610d12565b5f828290500361026e576040517f08c379a0000000000000000000000000000000000000000000000000000000008152600401610265906117f7565b60405180910390fd5b5f60025f8573ffffffffffffffffffffffffffffffffffffffff1673ffffffffffffffffffffffffffffffffffffffff1681526020019081526020015f208054905090505f81036102f4576040517f08c379a00000000000000000000000000000000000000000000000000000000081526004016102eb9061185f565b60405180910390fd5b6102fd84610d99565b828260025f8773ffffffffffffffffffffffffffffffffffffffff1673ffffffffffffffffffffffffffffffffffffffff1681526020019081526020015f209190610349929190611277565b508373ffffffffffffffffffffffffffffffffffffffff167fec753cfc52044f61676f18a11e500093a9f2b1cd5e4942bc476f2b0438159bcf84846040516103929291906118e5565b60405180910390a250505050565b6103a8610d12565b5f60025f8373ffffffffffffffffffffffffffffffffffffffff1673ffffffffffffffffffffffffffffffffffffffff1681526020019081526020015f208054905090505f810361042e576040517f08c379a00000000000000000000000000000000000000000000000000000000081526004016104259061185f565b60405180910390fd5b5f60018054905090505f5b818110156105a3578373ffffffffffffffffffffffffffffffffffffffff166001828154811061046c5761046b611907565b5b905f5260205f20015f9054906101000a900473ffffffffffffffffffffffffffffffffffffffff1673ffffffffffffffffffffffffffffffffffffffff160361059857600180836104bd9190611961565b815481106104ce576104cd611907565b5b905f5260205f20015f9054906101000a900473ffffffffffffffffffffffffffffffffffffffff166001828154811061050a57610509611907565b5b905f5260205f20015f6101000a81548173ffffffffffffffffffffffffffffffffffffffff021916908373ffffffffffffffffffffffffffffffffffffffff160217905550600180548061056157610560611994565b5b600190038181905f5260205f20015f6101000a81549073ffffffffffffffffffffffffffffffffffffffff021916905590556105a3565b806001019050610439565b506105ae8383610ef8565b60025f8473ffffffffffffffffffffffffffffffffffffffff1673ffffffffffffffffffffffffffffffffffffffff1681526020019081526020015f205f6105f691906112c2565b8273ffffffffffffffffffffffffffffffffffffffff167f8432c8693d2550c2eb52d3f0a803b38eb8c3c0e62234fa1b6b8b35cc3866785460405160405180910390a2505050565b606061064982610f78565b610688576040517f08c379a000000000000000000000000000000000000000000000000000000000815260040161067f90611a0b565b60405180910390fd5b60025f8373ffffffffffffffffffffffffffffffffffffffff1673ffffffffffffffffffffffffffffffffffffffff1681526020019081526020015f2080548060200260200160405190810160405280929190818152602001828054801561070d57602002820191905f5260205f20905b8154815260200190600101908083116106f9575b50505050509050919050565b5f8060025f8573ffffffffffffffffffffffffffffffffffffffff1673ffffffffffffffffffffffffffffffffffffffff1681526020019081526020015f208054905090505f60025f8673ffffffffffffffffffffffffffffffffffffffff1673ffffffffffffffffffffffffffffffffffffffff1681526020019081526020015f208054806020026020016040519081016040528092919081815260200182805480156107e457602002820191905f5260205f20905b8154815260200190600101908083116107d0575b505050505090505f5b8281101561082d578482828151811061080957610808611907565b5b6020026020010151036108225760019350505050610834565b8060010190506107ed565b505f925050505b92915050565b610842610d12565b5f73ffffffffffffffffffffffffffffffffffffffff168373ffffffffffffffffffffffffffffffffffffffff16036108b0576040517f08c379a00000000000000000000000000000000000000000000000000000000081526004016108a790611a73565b60405180910390fd5b5f60025f8573ffffffffffffffffffffffffffffffffffffffff1673ffffffffffffffffffffffffffffffffffffffff1681526020019081526020015f208054905014610932576040517f08c379a000000000000000000000000000000000000000000000000000000000815260040161092990611adb565b60405180910390fd5b5f8282905090505f810361097b576040517f08c379a000000000000000000000000000000000000000000000000000000000815260040161097290611b43565b60405180910390fd5b600184908060018154018082558091505060019003905f5260205f20015f9091909190916101000a81548173ffffffffffffffffffffffffffffffffffffffff021916908373ffffffffffffffffffffffffffffffffffffffff160217905550828260025f8773ffffffffffffffffffffffffffffffffffffffff1673ffffffffffffffffffffffffffffffffffffffff1681526020019081526020015f209190610a27929190611277565b505f5b81811015610ac55760035f858584818110610a4857610a47611907565b5b9050602002013581526020019081526020015f2085908060018154018082558091505060019003905f5260205f20015f9091909190916101000a81548173ffffffffffffffffffffffffffffffffffffffff021916908373ffffffffffffffffffffffffffffffffffffffff160217905550806001019050610a2a565b508373ffffffffffffffffffffffffffffffffffffffff167f375851630239b005eafd9230e43a9a9d4a5d7b96a4956fc8e9d2ab3ff4583d168484604051610b0e9291906118e5565b60405180910390a250505050565b606060035f8381526020019081526020015f20805480602002602001604051908101604052809291908181526020018280548015610bac57602002820191905f5260205f20905b815f9054906101000a900473ffffffffffffffffffffffffffffffffffffffff1673ffffffffffffffffffffffffffffffffffffffff1681526020019060010190808311610b63575b50505050509050919050565b5f610bc282610f78565b9050919050565b610bd1610d12565b610bda5f610fc4565b565b5f805f9054906101000a900473ffffffffffffffffffffffffffffffffffffffff16905090565b60606001805480602002602001604051908101604052809291908181526020018280548015610c8457602002820191905f5260205f20905b815f9054906101000a900473ffffffffffffffffffffffffffffffffffffffff1673ffffffffffffffffffffffffffffffffffffffff1681526020019060010190808311610c3b575b5050505050905090565b610c96610d12565b5f73ffffffffffffffffffffffffffffffffffffffff168173ffffffffffffffffffffffffffffffffffffffff1603610d06575f6040517f1e4fbdf7000000000000000000000000000000000000000000000000000000008152600401610cfd919061172f565b60405180910390fd5b610d0f81610fc4565b50565b610d1a611085565b73ffffffffffffffffffffffffffffffffffffffff16610d38610bdc565b73ffffffffffffffffffffffffffffffffffffffff1614610d9757610d5b611085565b6040517f118cdaa7000000000000000000000000000000000000000000000000000000008152600401610d8e919061172f565b60405180910390fd5b565b5f60025f8373ffffffffffffffffffffffffffffffffffffffff1673ffffffffffffffffffffffffffffffffffffffff1681526020019081526020015f20805480602002602001604051908101604052809291908181526020018280548015610e1f57602002820191905f5260205f20905b815481526020019060010190808311610e0b575b505050505090505f815190505f5b81811015610ef2575f838281518110610e4957610e48611907565b5b60200260200101519050610e5d858261108c565b60035f858481518110610e7357610e72611907565b5b602002602001015181526020019081526020015f2085908060018154018082558091505060019003905f5260205f20015f9091909190916101000a81548173ffffffffffffffffffffffffffffffffffffffff021916908373ffffffffffffffffffffffffffffffffffffffff16021790555081600101915050610e2d565b50505050565b5f5b81811015610f73575f60025f8573ffffffffffffffffffffffffffffffffffffffff1673ffffffffffffffffffffffffffffffffffffffff1681526020019081526020015f208281548110610f5257610f51611907565b5b905f5260205f2001549050610f67848261108c565b81600101915050610efa565b505050565b5f8060025f8473ffffffffffffffffffffffffffffffffffffffff1673ffffffffffffffffffffffffffffffffffffffff1681526020019081526020015f208054905014159050919050565b5f805f9054906101000a900473ffffffffffffffffffffffffffffffffffffffff169050815f806101000a81548173ffffffffffffffffffffffffffffffffffffffff021916908373ffffffffffffffffffffffffffffffffffffffff1602179055508173ffffffffffffffffffffffffffffffffffffffff168173ffffffffffffffffffffffffffffffffffffffff167f8be0079c531659141344cd1fd0a4f28419497f9722a3daafe3b4186f6b6457e060405160405180910390a35050565b5f33905090565b5f60035f8381526020019081526020015f2080548060200260200160405190810160405280929190818152602001828054801561111b57602002820191905f5260205f20905b815f9054906101000a900473ffffffffffffffffffffffffffffffffffffffff1673ffffffffffffffffffffffffffffffffffffffff16815260200190600101908083116110d2575b505050505090505f815190505f5b81811015611270578473ffffffffffffffffffffffffffffffffffffffff1683828151811061115b5761115a611907565b5b602002602001015173ffffffffffffffffffffffffffffffffffffffff1603611265578260018361118c9190611961565b8151811061119d5761119c611907565b5b602002602001015160035f8681526020019081526020015f2082815481106111c8576111c7611907565b5b905f5260205f20015f6101000a81548173ffffffffffffffffffffffffffffffffffffffff021916908373ffffffffffffffffffffffffffffffffffffffff16021790555060035f8581526020019081526020015f2080548061122e5761122d611994565b5b600190038181905f5260205f20015f6101000a81549073ffffffffffffffffffffffffffffffffffffffff02191690559055611270565b806001019050611129565b5050505050565b828054828255905f5260205f209081019282156112b1579160200282015b828111156112b0578235825591602001919060010190611295565b5b5090506112be91906112e0565b5090565b5080545f8255905f5260205f20908101906112dd91906112e0565b50565b5b808211156112f7575f815f9055506001016112e1565b5090565b5f80fd5b5f80fd5b5f73ffffffffffffffffffffffffffffffffffffffff82169050919050565b5f61132c82611303565b9050919050565b5f61133d82611322565b9050919050565b61134d81611333565b8114611357575f80fd5b50565b5f8135905061136881611344565b92915050565b5f80fd5b5f80fd5b5f80fd5b5f8083601f84011261138f5761138e61136e565b5b8235905067ffffffffffffffff8111156113ac576113ab611372565b5b6020830191508360208202830111156113c8576113c7611376565b5b9250929050565b5f805f604084860312156113e6576113e56112fb565b5b5f6113f38682870161135a565b935050602084013567ffffffffffffffff811115611414576114136112ff565b5b6114208682870161137a565b92509250509250925092565b5f60208284031215611441576114406112fb565b5b5f61144e8482850161135a565b91505092915050565b5f81519050919050565b5f82825260208201905092915050565b5f819050602082019050919050565b5f819050919050565b61149281611480565b82525050565b5f6114a38383611489565b60208301905092915050565b5f602082019050919050565b5f6114c582611457565b6114cf8185611461565b93506114da83611471565b805f5b8381101561150a5781516114f18882611498565b97506114fc836114af565b9250506001810190506114dd565b5085935050505092915050565b5f6020820190508181035f83015261152f81846114bb565b905092915050565b61154081611480565b811461154a575f80fd5b50565b5f8135905061155b81611537565b92915050565b5f8060408385031215611577576115766112fb565b5b5f6115848582860161135a565b92505060206115958582860161154d565b9150509250929050565b5f8115159050919050565b6115b38161159f565b82525050565b5f6020820190506115cc5f8301846115aa565b92915050565b5f602082840312156115e7576115e66112fb565b5b5f6115f48482850161154d565b91505092915050565b5f81519050919050565b5f82825260208201905092915050565b5f819050602082019050919050565b5f819050919050565b5f61164961164461163f84611303565b611626565b611303565b9050919050565b5f61165a8261162f565b9050919050565b5f61166b82611650565b9050919050565b61167b81611661565b82525050565b5f61168c8383611672565b60208301905092915050565b5f602082019050919050565b5f6116ae826115fd565b6116b88185611607565b93506116c383611617565b805f5b838110156116f35781516116da8882611681565b97506116e583611698565b9250506001810190506116c6565b5085935050505092915050565b5f6020820190508181035f83015261171881846116a4565b905092915050565b61172981611322565b82525050565b5f6020820190506117425f830184611720565b92915050565b61175181611322565b811461175b575f80fd5b50565b5f8135905061176c81611748565b92915050565b5f60208284031215611787576117866112fb565b5b5f6117948482850161175e565b91505092915050565b5f82825260208201905092915050565b7f4552432d333634333a204e6f20636c61696d20746f70696373000000000000005f82015250565b5f6117e160198361179d565b91506117ec826117ad565b602082019050919050565b5f6020820190508181035f83015261180e816117d5565b9050919050565b7f4552432d333634333a204e6f74206120636c61696d20697373756572000000005f82015250565b5f611849601c8361179d565b915061185482611815565b602082019050919050565b5f6020820190508181035f8301526118768161183d565b9050919050565b5f80fd5b82818337505050565b5f6118958385611461565b93507f07ffffffffffffffffffffffffffffffffffffffffffffffffffffffffffffff8311156118c8576118c761187d565b5b6020830292506118d9838584611881565b82840190509392505050565b5f6020820190508181035f8301526118fe81848661188a565b90509392505050565b7f4e487b71000000000000000000000000000000000000000000000000000000005f52603260045260245ffd5b7f4e487b71000000000000000000000000000000000000000000000000000000005f52601160045260245ffd5b5f61196b82611480565b915061197683611480565b925082820390508181111561198e5761198d611934565b5b92915050565b7f4e487b71000000000000000000000000000000000000000000000000000000005f52603160045260245ffd5b7f4552432d333634333a2049737375657220646f65736e277420657869737400005f82015250565b5f6119f5601e8361179d565b9150611a00826119c1565b602082019050919050565b5f6020820190508181035f830152611a22816119e9565b9050919050565b7f4552432d333634333a20496e76616c6964207a65726f206164647265737300005f82015250565b5f611a5d601e8361179d565b9150611a6882611a29565b602082019050919050565b5f6020820190508181035f830152611a8a81611a51565b9050919050565b7f4552432d333634333a2049737375657220616c726561647920657869737473005f82015250565b5f611ac5601f8361179d565b9150611ad082611a91565b602082019050919050565b5f6020820190508181035f830152611af281611ab9565b9050919050565b7f4552432d333634333a20456d70747920636c61696d20746f70696373000000005f82015250565b5f611b2d601c8361179d565b9150611b3882611af9565b602082019050919050565b5f6020820190508181035f830152611b5a81611b21565b905091905056fea26469706673582212209aeff2bf71839148e70434184c466a17740c1c1b9de7b168be11b7eb6402406264736f6c63430008140033",
					"opcodes": "PUSH1 0x80 PUSH1 0x40 MSTORE CALLVALUE DUP1 ISZERO PUSH3 0x10 JUMPI PUSH0 DUP1 REVERT JUMPDEST POP CALLER PUSH0 PUSH20 0xFFFFFFFFFFFFFFFFFFFFFFFFFFFFFFFFFFFFFFFF AND DUP2 PUSH20 0xFFFFFFFFFFFFFFFFFFFFFFFFFFFFFFFFFFFFFFFF AND SUB PUSH3 0x85 JUMPI PUSH0 PUSH1 0x40 MLOAD PUSH32 0x1E4FBDF700000000000000000000000000000000000000000000000000000000 DUP2 MSTORE PUSH1 0x4 ADD PUSH3 0x7C SWAP2 SWAP1 PUSH3 0x1A1 JUMP JUMPDEST PUSH1 0x40 MLOAD DUP1 SWAP2 SUB SWAP1 REVERT JUMPDEST PUSH3 0x96 DUP2 PUSH3 0x9D PUSH1 0x20 SHL PUSH1 0x20 SHR JUMP JUMPDEST POP PUSH3 0x1BC JUMP JUMPDEST PUSH0 DUP1 PUSH0 SWAP1 SLOAD SWAP1 PUSH2 0x100 EXP SWAP1 DIV PUSH20 0xFFFFFFFFFFFFFFFFFFFFFFFFFFFFFFFFFFFFFFFF AND SWAP1 POP DUP2 PUSH0 DUP1 PUSH2 0x100 EXP DUP2 SLOAD DUP2 PUSH20 0xFFFFFFFFFFFFFFFFFFFFFFFFFFFFFFFFFFFFFFFF MUL NOT AND SWAP1 DUP4 PUSH20 0xFFFFFFFFFFFFFFFFFFFFFFFFFFFFFFFFFFFFFFFF AND MUL OR SWAP1 SSTORE POP DUP2 PUSH20 0xFFFFFFFFFFFFFFFFFFFFFFFFFFFFFFFFFFFFFFFF AND DUP2 PUSH20 0xFFFFFFFFFFFFFFFFFFFFFFFFFFFFFFFFFFFFFFFF AND PUSH32 0x8BE0079C531659141344CD1FD0A4F28419497F9722A3DAAFE3B4186F6B6457E0 PUSH1 0x40 MLOAD PUSH1 0x40 MLOAD DUP1 SWAP2 SUB SWAP1 LOG3 POP POP JUMP JUMPDEST PUSH0 PUSH20 0xFFFFFFFFFFFFFFFFFFFFFFFFFFFFFFFFFFFFFFFF DUP3 AND SWAP1 POP SWAP2 SWAP1 POP JUMP JUMPDEST PUSH0 PUSH3 0x189 DUP3 PUSH3 0x15E JUMP JUMPDEST SWAP1 POP SWAP2 SWAP1 POP JUMP JUMPDEST PUSH3 0x19B DUP2 PUSH3 0x17D JUMP JUMPDEST DUP3 MSTORE POP POP JUMP JUMPDEST PUSH0 PUSH1 0x20 DUP3 ADD SWAP1 POP PUSH3 0x1B6 PUSH0 DUP4 ADD DUP5 PUSH3 0x190 JUMP JUMPDEST SWAP3 SWAP2 POP POP JUMP JUMPDEST PUSH2 0x1B97 DUP1 PUSH3 0x1CA PUSH0 CODECOPY PUSH0 RETURN INVALID PUSH1 0x80 PUSH1 0x40 MSTORE CALLVALUE DUP1 ISZERO PUSH2 0xF JUMPI PUSH0 DUP1 REVERT JUMPDEST POP PUSH1 0x4 CALLDATASIZE LT PUSH2 0xA7 JUMPI PUSH0 CALLDATALOAD PUSH1 0xE0 SHR DUP1 PUSH4 0x6B2C56BD GT PUSH2 0x6F JUMPI DUP1 PUSH4 0x6B2C56BD EQ PUSH2 0x15F JUMPI DUP1 PUSH4 0x6DE48708 EQ PUSH2 0x18F JUMPI DUP1 PUSH4 0x715018A6 EQ PUSH2 0x1BF JUMPI DUP1 PUSH4 0x8DA5CB5B EQ PUSH2 0x1C9 JUMPI DUP1 PUSH4 0xD4F4AC4E EQ PUSH2 0x1E7 JUMPI DUP1 PUSH4 0xF2FDE38B EQ PUSH2 0x205 JUMPI PUSH2 0xA7 JUMP JUMPDEST DUP1 PUSH4 0x4BC7E84 EQ PUSH2 0xAB JUMPI DUP1 PUSH4 0xB4B764C EQ PUSH2 0xC7 JUMPI DUP1 PUSH4 0x122DADE8 EQ PUSH2 0xE3 JUMPI DUP1 PUSH4 0x34A89987 EQ PUSH2 0x113 JUMPI DUP1 PUSH4 0x38D742A4 EQ PUSH2 0x143 JUMPI JUMPDEST PUSH0 DUP1 REVERT JUMPDEST PUSH2 0xC5 PUSH1 0x4 DUP1 CALLDATASIZE SUB DUP2 ADD SWAP1 PUSH2 0xC0 SWAP2 SWAP1 PUSH2 0x13CF JUMP JUMPDEST PUSH2 0x221 JUMP JUMPDEST STOP JUMPDEST PUSH2 0xE1 PUSH1 0x4 DUP1 CALLDATASIZE SUB DUP2 ADD SWAP1 PUSH2 0xDC SWAP2 SWAP1 PUSH2 0x142C JUMP JUMPDEST PUSH2 0x3A0 JUMP JUMPDEST STOP JUMPDEST PUSH2 0xFD PUSH1 0x4 DUP1 CALLDATASIZE SUB DUP2 ADD SWAP1 PUSH2 0xF8 SWAP2 SWAP1 PUSH2 0x142C JUMP JUMPDEST PUSH2 0x63E JUMP JUMPDEST PUSH1 0x40 MLOAD PUSH2 0x10A SWAP2 SWAP1 PUSH2 0x1517 JUMP JUMPDEST PUSH1 0x40 MLOAD DUP1 SWAP2 SUB SWAP1 RETURN JUMPDEST PUSH2 0x12D PUSH1 0x4 DUP1 CALLDATASIZE SUB DUP2 ADD SWAP1 PUSH2 0x128 SWAP2 SWAP1 PUSH2 0x1561 JUMP JUMPDEST PUSH2 0x719 JUMP JUMPDEST PUSH1 0x40 MLOAD PUSH2 0x13A SWAP2 SWAP1 PUSH2 0x15B9 JUMP JUMPDEST PUSH1 0x40 MLOAD DUP1 SWAP2 SUB SWAP1 RETURN JUMPDEST PUSH2 0x15D PUSH1 0x4 DUP1 CALLDATASIZE SUB DUP2 ADD SWAP1 PUSH2 0x158 SWAP2 SWAP1 PUSH2 0x13CF JUMP JUMPDEST PUSH2 0x83A JUMP JUMPDEST STOP JUMPDEST PUSH2 0x179 PUSH1 0x4 DUP1 CALLDATASIZE SUB DUP2 ADD SWAP1 PUSH2 0x174 SWAP2 SWAP1 PUSH2 0x15D2 JUMP JUMPDEST PUSH2 0xB1C JUMP JUMPDEST PUSH1 0x40 MLOAD PUSH2 0x186 SWAP2 SWAP1 PUSH2 0x1700 JUMP JUMPDEST PUSH1 0x40 MLOAD DUP1 SWAP2 SUB SWAP1 RETURN JUMPDEST PUSH2 0x1A9 PUSH1 0x4 DUP1 CALLDATASIZE SUB DUP2 ADD SWAP1 PUSH2 0x1A4 SWAP2 SWAP1 PUSH2 0x142C JUMP JUMPDEST PUSH2 0xBB8 JUMP JUMPDEST PUSH1 0x40 MLOAD PUSH2 0x1B6 SWAP2 SWAP1 PUSH2 0x15B9 JUMP JUMPDEST PUSH1 0x40 MLOAD DUP1 SWAP2 SUB SWAP1 RETURN JUMPDEST PUSH2 0x1C7 PUSH2 0xBC9 JUMP JUMPDEST STOP JUMPDEST PUSH2 0x1D1 PUSH2 0xBDC JUMP JUMPDEST PUSH1 0x40 MLOAD PUSH2 0x1DE SWAP2 SWAP1 PUSH2 0x172F JUMP JUMPDEST PUSH1 0x40 MLOAD DUP1 SWAP2 SUB SWAP1 RETURN JUMPDEST PUSH2 0x1EF PUSH2 0xC03 JUMP JUMPDEST PUSH1 0x40 MLOAD PUSH2 0x1FC SWAP2 SWAP1 PUSH2 0x1700 JUMP JUMPDEST PUSH1 0x40 MLOAD DUP1 SWAP2 SUB SWAP1 RETURN JUMPDEST PUSH2 0x21F PUSH1 0x4 DUP1 CALLDATASIZE SUB DUP2 ADD SWAP1 PUSH2 0x21A SWAP2 SWAP1 PUSH2 0x1772 JUMP JUMPDEST PUSH2 0xC8E JUMP JUMPDEST STOP JUMPDEST PUSH2 0x229 PUSH2 0xD12 JUMP JUMPDEST PUSH0 DUP3 DUP3 SWAP1 POP SUB PUSH2 0x26E JUMPI PUSH1 0x40 MLOAD PUSH32 0x8C379A000000000000000000000000000000000000000000000000000000000 DUP2 MSTORE PUSH1 0x4 ADD PUSH2 0x265 SWAP1 PUSH2 0x17F7 JUMP JUMPDEST PUSH1 0x40 MLOAD DUP1 SWAP2 SUB SWAP1 REVERT JUMPDEST PUSH0 PUSH1 0x2 PUSH0 DUP6 PUSH20 0xFFFFFFFFFFFFFFFFFFFFFFFFFFFFFFFFFFFFFFFF AND PUSH20 0xFFFFFFFFFFFFFFFFFFFFFFFFFFFFFFFFFFFFFFFF AND DUP2 MSTORE PUSH1 0x20 ADD SWAP1 DUP2 MSTORE PUSH1 0x20 ADD PUSH0 KECCAK256 DUP1 SLOAD SWAP1 POP SWAP1 POP PUSH0 DUP2 SUB PUSH2 0x2F4 JUMPI PUSH1 0x40 MLOAD PUSH32 0x8C379A000000000000000000000000000000000000000000000000000000000 DUP2 MSTORE PUSH1 0x4 ADD PUSH2 0x2EB SWAP1 PUSH2 0x185F JUMP JUMPDEST PUSH1 0x40 MLOAD DUP1 SWAP2 SUB SWAP1 REVERT JUMPDEST PUSH2 0x2FD DUP5 PUSH2 0xD99 JUMP JUMPDEST DUP3 DUP3 PUSH1 0x2 PUSH0 DUP8 PUSH20 0xFFFFFFFFFFFFFFFFFFFFFFFFFFFFFFFFFFFFFFFF AND PUSH20 0xFFFFFFFFFFFFFFFFFFFFFFFFFFFFFFFFFFFFFFFF AND DUP2 MSTORE PUSH1 0x20 ADD SWAP1 DUP2 MSTORE PUSH1 0x20 ADD PUSH0 KECCAK256 SWAP2 SWAP1 PUSH2 0x349 SWAP3 SWAP2 SWAP1 PUSH2 0x1277 JUMP JUMPDEST POP DUP4 PUSH20 0xFFFFFFFFFFFFFFFFFFFFFFFFFFFFFFFFFFFFFFFF AND PUSH32 0xEC753CFC52044F61676F18A11E500093A9F2B1CD5E4942BC476F2B0438159BCF DUP5 DUP5 PUSH1 0x40 MLOAD PUSH2 0x392 SWAP3 SWAP2 SWAP1 PUSH2 0x18E5 JUMP JUMPDEST PUSH1 0x40 MLOAD DUP1 SWAP2 SUB SWAP1 LOG2 POP POP POP POP JUMP JUMPDEST PUSH2 0x3A8 PUSH2 0xD12 JUMP JUMPDEST PUSH0 PUSH1 0x2 PUSH0 DUP4 PUSH20 0xFFFFFFFFFFFFFFFFFFFFFFFFFFFFFFFFFFFFFFFF AND PUSH20 0xFFFFFFFFFFFFFFFFFFFFFFFFFFFFFFFFFFFFFFFF AND DUP2 MSTORE PUSH1 0x20 ADD SWAP1 DUP2 MSTORE PUSH1 0x20 ADD PUSH0 KECCAK256 DUP1 SLOAD SWAP1 POP SWAP1 POP PUSH0 DUP2 SUB PUSH2 0x42E JUMPI PUSH1 0x40 MLOAD PUSH32 0x8C379A000000000000000000000000000000000000000000000000000000000 DUP2 MSTORE PUSH1 0x4 ADD PUSH2 0x425 SWAP1 PUSH2 0x185F JUMP JUMPDEST PUSH1 0x40 MLOAD DUP1 SWAP2 SUB SWAP1 REVERT JUMPDEST PUSH0 PUSH1 0x1 DUP1 SLOAD SWAP1 POP SWAP1 POP PUSH0 JUMPDEST DUP2 DUP2 LT ISZERO PUSH2 0x5A3 JUMPI DUP4 PUSH20 0xFFFFFFFFFFFFFFFFFFFFFFFFFFFFFFFFFFFFFFFF AND PUSH1 0x1 DUP3 DUP2 SLOAD DUP2 LT PUSH2 0x46C JUMPI PUSH2 0x46B PUSH2 0x1907 JUMP JUMPDEST JUMPDEST SWAP1 PUSH0 MSTORE PUSH1 0x20 PUSH0 KECCAK256 ADD PUSH0 SWAP1 SLOAD SWAP1 PUSH2 0x100 EXP SWAP1 DIV PUSH20 0xFFFFFFFFFFFFFFFFFFFFFFFFFFFFFFFFFFFFFFFF AND PUSH20 0xFFFFFFFFFFFFFFFFFFFFFFFFFFFFFFFFFFFFFFFF AND SUB PUSH2 0x598 JUMPI PUSH1 0x1 DUP1 DUP4 PUSH2 0x4BD SWAP2 SWAP1 PUSH2 0x1961 JUMP JUMPDEST DUP2 SLOAD DUP2 LT PUSH2 0x4CE JUMPI PUSH2 0x4CD PUSH2 0x1907 JUMP JUMPDEST JUMPDEST SWAP1 PUSH0 MSTORE PUSH1 0x20 PUSH0 KECCAK256 ADD PUSH0 SWAP1 SLOAD SWAP1 PUSH2 0x100 EXP SWAP1 DIV PUSH20 0xFFFFFFFFFFFFFFFFFFFFFFFFFFFFFFFFFFFFFFFF AND PUSH1 0x1 DUP3 DUP2 SLOAD DUP2 LT PUSH2 0x50A JUMPI PUSH2 0x509 PUSH2 0x1907 JUMP JUMPDEST JUMPDEST SWAP1 PUSH0 MSTORE PUSH1 0x20 PUSH0 KECCAK256 ADD PUSH0 PUSH2 0x100 EXP DUP2 SLOAD DUP2 PUSH20 0xFFFFFFFFFFFFFFFFFFFFFFFFFFFFFFFFFFFFFFFF MUL NOT AND SWAP1 DUP4 PUSH20 0xFFFFFFFFFFFFFFFFFFFFFFFFFFFFFFFFFFFFFFFF AND MUL OR SWAP1 SSTORE POP PUSH1 0x1 DUP1 SLOAD DUP1 PUSH2 0x561 JUMPI PUSH2 0x560 PUSH2 0x1994 JUMP JUMPDEST JUMPDEST PUSH1 0x1 SWAP1 SUB DUP2 DUP2 SWAP1 PUSH0 MSTORE PUSH1 0x20 PUSH0 KECCAK256 ADD PUSH0 PUSH2 0x100 EXP DUP2 SLOAD SWAP1 PUSH20 0xFFFFFFFFFFFFFFFFFFFFFFFFFFFFFFFFFFFFFFFF MUL NOT AND SWAP1 SSTORE SWAP1 SSTORE PUSH2 0x5A3 JUMP JUMPDEST DUP1 PUSH1 0x1 ADD SWAP1 POP PUSH2 0x439 JUMP JUMPDEST POP PUSH2 0x5AE DUP4 DUP4 PUSH2 0xEF8 JUMP JUMPDEST PUSH1 0x2 PUSH0 DUP5 PUSH20 0xFFFFFFFFFFFFFFFFFFFFFFFFFFFFFFFFFFFFFFFF AND PUSH20 0xFFFFFFFFFFFFFFFFFFFFFFFFFFFFFFFFFFFFFFFF AND DUP2 MSTORE PUSH1 0x20 ADD SWAP1 DUP2 MSTORE PUSH1 0x20 ADD PUSH0 KECCAK256 PUSH0 PUSH2 0x5F6 SWAP2 SWAP1 PUSH2 0x12C2 JUMP JUMPDEST DUP3 PUSH20 0xFFFFFFFFFFFFFFFFFFFFFFFFFFFFFFFFFFFFFFFF AND PUSH32 0x8432C8693D2550C2EB52D3F0A803B38EB8C3C0E62234FA1B6B8B35CC38667854 PUSH1 0x40 MLOAD PUSH1 0x40 MLOAD DUP1 SWAP2 SUB SWAP1 LOG2 POP POP POP JUMP JUMPDEST PUSH1 0x60 PUSH2 0x649 DUP3 PUSH2 0xF78 JUMP JUMPDEST PUSH2 0x688 JUMPI PUSH1 0x40 MLOAD PUSH32 0x8C379A000000000000000000000000000000000000000000000000000000000 DUP2 MSTORE PUSH1 0x4 ADD PUSH2 0x67F SWAP1 PUSH2 0x1A0B JUMP JUMPDEST PUSH1 0x40 MLOAD DUP1 SWAP2 SUB SWAP1 REVERT JUMPDEST PUSH1 0x2 PUSH0 DUP4 PUSH20 0xFFFFFFFFFFFFFFFFFFFFFFFFFFFFFFFFFFFFFFFF AND PUSH20 0xFFFFFFFFFFFFFFFFFFFFFFFFFFFFFFFFFFFFFFFF AND DUP2 MSTORE PUSH1 0x20 ADD SWAP1 DUP2 MSTORE PUSH1 0x20 ADD PUSH0 KECCAK256 DUP1 SLOAD DUP1 PUSH1 0x20 MUL PUSH1 0x20 ADD PUSH1 0x40 MLOAD SWAP1 DUP2 ADD PUSH1 0x40 MSTORE DUP1 SWAP3 SWAP2 SWAP1 DUP2 DUP2 MSTORE PUSH1 0x20 ADD DUP3 DUP1 SLOAD DUP1 ISZERO PUSH2 0x70D JUMPI PUSH1 0x20 MUL DUP3 ADD SWAP2 SWAP1 PUSH0 MSTORE PUSH1 0x20 PUSH0 KECCAK256 SWAP1 JUMPDEST DUP2 SLOAD DUP2 MSTORE PUSH1 0x20 ADD SWAP1 PUSH1 0x1 ADD SWAP1 DUP1 DUP4 GT PUSH2 0x6F9 JUMPI JUMPDEST POP POP POP POP POP SWAP1 POP SWAP2 SWAP1 POP JUMP JUMPDEST PUSH0 DUP1 PUSH1 0x2 PUSH0 DUP6 PUSH20 0xFFFFFFFFFFFFFFFFFFFFFFFFFFFFFFFFFFFFFFFF AND PUSH20 0xFFFFFFFFFFFFFFFFFFFFFFFFFFFFFFFFFFFFFFFF AND DUP2 MSTORE PUSH1 0x20 ADD SWAP1 DUP2 MSTORE PUSH1 0x20 ADD PUSH0 KECCAK256 DUP1 SLOAD SWAP1 POP SWAP1 POP PUSH0 PUSH1 0x2 PUSH0 DUP7 PUSH20 0xFFFFFFFFFFFFFFFFFFFFFFFFFFFFFFFFFFFFFFFF AND PUSH20 0xFFFFFFFFFFFFFFFFFFFFFFFFFFFFFFFFFFFFFFFF AND DUP2 MSTORE PUSH1 0x20 ADD SWAP1 DUP2 MSTORE PUSH1 0x20 ADD PUSH0 KECCAK256 DUP1 SLOAD DUP1 PUSH1 0x20 MUL PUSH1 0x20 ADD PUSH1 0x40 MLOAD SWAP1 DUP2 ADD PUSH1 0x40 MSTORE DUP1 SWAP3 SWAP2 SWAP1 DUP2 DUP2 MSTORE PUSH1 0x20 ADD DUP3 DUP1 SLOAD DUP1 ISZERO PUSH2 0x7E4 JUMPI PUSH1 0x20 MUL DUP3 ADD SWAP2 SWAP1 PUSH0 MSTORE PUSH1 0x20 PUSH0 KECCAK256 SWAP1 JUMPDEST DUP2 SLOAD DUP2 MSTORE PUSH1 0x20 ADD SWAP1 PUSH1 0x1 ADD SWAP1 DUP1 DUP4 GT PUSH2 0x7D0 JUMPI JUMPDEST POP POP POP POP POP SWAP1 POP PUSH0 JUMPDEST DUP3 DUP2 LT ISZERO PUSH2 0x82D JUMPI DUP5 DUP3 DUP3 DUP2 MLOAD DUP2 LT PUSH2 0x809 JUMPI PUSH2 0x808 PUSH2 0x1907 JUMP JUMPDEST JUMPDEST PUSH1 0x20 MUL PUSH1 0x20 ADD ADD MLOAD SUB PUSH2 0x822 JUMPI PUSH1 0x1 SWAP4 POP POP POP POP PUSH2 0x834 JUMP JUMPDEST DUP1 PUSH1 0x1 ADD SWAP1 POP PUSH2 0x7ED JUMP JUMPDEST POP PUSH0 SWAP3 POP POP POP JUMPDEST SWAP3 SWAP2 POP POP JUMP JUMPDEST PUSH2 0x842 PUSH2 0xD12 JUMP JUMPDEST PUSH0 PUSH20 0xFFFFFFFFFFFFFFFFFFFFFFFFFFFFFFFFFFFFFFFF AND DUP4 PUSH20 0xFFFFFFFFFFFFFFFFFFFFFFFFFFFFFFFFFFFFFFFF AND SUB PUSH2 0x8B0 JUMPI PUSH1 0x40 MLOAD PUSH32 0x8C379A000000000000000000000000000000000000000000000000000000000 DUP2 MSTORE PUSH1 0x4 ADD PUSH2 0x8A7 SWAP1 PUSH2 0x1A73 JUMP JUMPDEST PUSH1 0x40 MLOAD DUP1 SWAP2 SUB SWAP1 REVERT JUMPDEST PUSH0 PUSH1 0x2 PUSH0 DUP6 PUSH20 0xFFFFFFFFFFFFFFFFFFFFFFFFFFFFFFFFFFFFFFFF AND PUSH20 0xFFFFFFFFFFFFFFFFFFFFFFFFFFFFFFFFFFFFFFFF AND DUP2 MSTORE PUSH1 0x20 ADD SWAP1 DUP2 MSTORE PUSH1 0x20 ADD PUSH0 KECCAK256 DUP1 SLOAD SWAP1 POP EQ PUSH2 0x932 JUMPI PUSH1 0x40 MLOAD PUSH32 0x8C379A000000000000000000000000000000000000000000000000000000000 DUP2 MSTORE PUSH1 0x4 ADD PUSH2 0x929 SWAP1 PUSH2 0x1ADB JUMP JUMPDEST PUSH1 0x40 MLOAD DUP1 SWAP2 SUB SWAP1 REVERT JUMPDEST PUSH0 DUP3 DUP3 SWAP1 POP SWAP1 POP PUSH0 DUP2 SUB PUSH2 0x97B JUMPI PUSH1 0x40 MLOAD PUSH32 0x8C379A000000000000000000000000000000000000000000000000000000000 DUP2 MSTORE PUSH1 0x4 ADD PUSH2 0x972 SWAP1 PUSH2 0x1B43 JUMP JUMPDEST PUSH1 0x40 MLOAD DUP1 SWAP2 SUB SWAP1 REVERT JUMPDEST PUSH1 0x1 DUP5 SWAP1 DUP1 PUSH1 0x1 DUP2 SLOAD ADD DUP1 DUP3 SSTORE DUP1 SWAP2 POP POP PUSH1 0x1 SWAP1 SUB SWAP1 PUSH0 MSTORE PUSH1 0x20 PUSH0 KECCAK256 ADD PUSH0 SWAP1 SWAP2 SWAP1 SWAP2 SWAP1 SWAP2 PUSH2 0x100 EXP DUP2 SLOAD DUP2 PUSH20 0xFFFFFFFFFFFFFFFFFFFFFFFFFFFFFFFFFFFFFFFF MUL NOT AND SWAP1 DUP4 PUSH20 0xFFFFFFFFFFFFFFFFFFFFFFFFFFFFFFFFFFFFFFFF AND MUL OR SWAP1 SSTORE POP DUP3 DUP3 PUSH1 0x2 PUSH0 DUP8 PUSH20 0xFFFFFFFFFFFFFFFFFFFFFFFFFFFFFFFFFFFFFFFF AND PUSH20 0xFFFFFFFFFFFFFFFFFFFFFFFFFFFFFFFFFFFFFFFF AND DUP2 MSTORE PUSH1 0x20 ADD SWAP1 DUP2 MSTORE PUSH1 0x20 ADD PUSH0 KECCAK256 SWAP2 SWAP1 PUSH2 0xA27 SWAP3 SWAP2 SWAP1 PUSH2 0x1277 JUMP JUMPDEST POP PUSH0 JUMPDEST DUP2 DUP2 LT ISZERO PUSH2 0xAC5 JUMPI PUSH1 0x3 PUSH0 DUP6 DUP6 DUP5 DUP2 DUP2 LT PUSH2 0xA48 JUMPI PUSH2 0xA47 PUSH2 0x1907 JUMP JUMPDEST JUMPDEST SWAP1 POP PUSH1 0x20 MUL ADD CALLDATALOAD DUP2 MSTORE PUSH1 0x20 ADD SWAP1 DUP2 MSTORE PUSH1 0x20 ADD PUSH0 KECCAK256 DUP6 SWAP1 DUP1 PUSH1 0x1 DUP2 SLOAD ADD DUP1 DUP3 SSTORE DUP1 SWAP2 POP POP PUSH1 0x1 SWAP1 SUB SWAP1 PUSH0 MSTORE PUSH1 0x20 PUSH0 KECCAK256 ADD PUSH0 SWAP1 SWAP2 SWAP1 SWAP2 SWAP1 SWAP2 PUSH2 0x100 EXP DUP2 SLOAD DUP2 PUSH20 0xFFFFFFFFFFFFFFFFFFFFFFFFFFFFFFFFFFFFFFFF MUL NOT AND SWAP1 DUP4 PUSH20 0xFFFFFFFFFFFFFFFFFFFFFFFFFFFFFFFFFFFFFFFF AND MUL OR SWAP1 SSTORE POP DUP1 PUSH1 0x1 ADD SWAP1 POP PUSH2 0xA2A JUMP JUMPDEST POP DUP4 PUSH20 0xFFFFFFFFFFFFFFFFFFFFFFFFFFFFFFFFFFFFFFFF AND PUSH32 0x375851630239B005EAFD9230E43A9A9D4A5D7B96A4956FC8E9D2AB3FF4583D16 DUP5 DUP5 PUSH1 0x40 MLOAD PUSH2 0xB0E SWAP3 SWAP2 SWAP1 PUSH2 0x18E5 JUMP JUMPDEST PUSH1 0x40 MLOAD DUP1 SWAP2 SUB SWAP1 LOG2 POP POP POP POP JUMP JUMPDEST PUSH1 0x60 PUSH1 0x3 PUSH0 DUP4 DUP2 MSTORE PUSH1 0x20 ADD SWAP1 DUP2 MSTORE PUSH1 0x20 ADD PUSH0 KECCAK256 DUP1 SLOAD DUP1 PUSH1 0x20 MUL PUSH1 0x20 ADD PUSH1 0x40 MLOAD SWAP1 DUP2 ADD PUSH1 0x40 MSTORE DUP1 SWAP3 SWAP2 SWAP1 DUP2 DUP2 MSTORE PUSH1 0x20 ADD DUP3 DUP1 SLOAD DUP1 ISZERO PUSH2 0xBAC JUMPI PUSH1 0x20 MUL DUP3 ADD SWAP2 SWAP1 PUSH0 MSTORE PUSH1 0x20 PUSH0 KECCAK256 SWAP1 JUMPDEST DUP2 PUSH0 SWAP1 SLOAD SWAP1 PUSH2 0x100 EXP SWAP1 DIV PUSH20 0xFFFFFFFFFFFFFFFFFFFFFFFFFFFFFFFFFFFFFFFF AND PUSH20 0xFFFFFFFFFFFFFFFFFFFFFFFFFFFFFFFFFFFFFFFF AND DUP2 MSTORE PUSH1 0x20 ADD SWAP1 PUSH1 0x1 ADD SWAP1 DUP1 DUP4 GT PUSH2 0xB63 JUMPI JUMPDEST POP POP POP POP POP SWAP1 POP SWAP2 SWAP1 POP JUMP JUMPDEST PUSH0 PUSH2 0xBC2 DUP3 PUSH2 0xF78 JUMP JUMPDEST SWAP1 POP SWAP2 SWAP1 POP JUMP JUMPDEST PUSH2 0xBD1 PUSH2 0xD12 JUMP JUMPDEST PUSH2 0xBDA PUSH0 PUSH2 0xFC4 JUMP JUMPDEST JUMP JUMPDEST PUSH0 DUP1 PUSH0 SWAP1 SLOAD SWAP1 PUSH2 0x100 EXP SWAP1 DIV PUSH20 0xFFFFFFFFFFFFFFFFFFFFFFFFFFFFFFFFFFFFFFFF AND SWAP1 POP SWAP1 JUMP JUMPDEST PUSH1 0x60 PUSH1 0x1 DUP1 SLOAD DUP1 PUSH1 0x20 MUL PUSH1 0x20 ADD PUSH1 0x40 MLOAD SWAP1 DUP2 ADD PUSH1 0x40 MSTORE DUP1 SWAP3 SWAP2 SWAP1 DUP2 DUP2 MSTORE PUSH1 0x20 ADD DUP3 DUP1 SLOAD DUP1 ISZERO PUSH2 0xC84 JUMPI PUSH1 0x20 MUL DUP3 ADD SWAP2 SWAP1 PUSH0 MSTORE PUSH1 0x20 PUSH0 KECCAK256 SWAP1 JUMPDEST DUP2 PUSH0 SWAP1 SLOAD SWAP1 PUSH2 0x100 EXP SWAP1 DIV PUSH20 0xFFFFFFFFFFFFFFFFFFFFFFFFFFFFFFFFFFFFFFFF AND PUSH20 0xFFFFFFFFFFFFFFFFFFFFFFFFFFFFFFFFFFFFFFFF AND DUP2 MSTORE PUSH1 0x20 ADD SWAP1 PUSH1 0x1 ADD SWAP1 DUP1 DUP4 GT PUSH2 0xC3B JUMPI JUMPDEST POP POP POP POP POP SWAP1 POP SWAP1 JUMP JUMPDEST PUSH2 0xC96 PUSH2 0xD12 JUMP JUMPDEST PUSH0 PUSH20 0xFFFFFFFFFFFFFFFFFFFFFFFFFFFFFFFFFFFFFFFF AND DUP2 PUSH20 0xFFFFFFFFFFFFFFFFFFFFFFFFFFFFFFFFFFFFFFFF AND SUB PUSH2 0xD06 JUMPI PUSH0 PUSH1 0x40 MLOAD PUSH32 0x1E4FBDF700000000000000000000000000000000000000000000000000000000 DUP2 MSTORE PUSH1 0x4 ADD PUSH2 0xCFD SWAP2 SWAP1 PUSH2 0x172F JUMP JUMPDEST PUSH1 0x40 MLOAD DUP1 SWAP2 SUB SWAP1 REVERT JUMPDEST PUSH2 0xD0F DUP2 PUSH2 0xFC4 JUMP JUMPDEST POP JUMP JUMPDEST PUSH2 0xD1A PUSH2 0x1085 JUMP JUMPDEST PUSH20 0xFFFFFFFFFFFFFFFFFFFFFFFFFFFFFFFFFFFFFFFF AND PUSH2 0xD38 PUSH2 0xBDC JUMP JUMPDEST PUSH20 0xFFFFFFFFFFFFFFFFFFFFFFFFFFFFFFFFFFFFFFFF AND EQ PUSH2 0xD97 JUMPI PUSH2 0xD5B PUSH2 0x1085 JUMP JUMPDEST PUSH1 0x40 MLOAD PUSH32 0x118CDAA700000000000000000000000000000000000000000000000000000000 DUP2 MSTORE PUSH1 0x4 ADD PUSH2 0xD8E SWAP2 SWAP1 PUSH2 0x172F JUMP JUMPDEST PUSH1 0x40 MLOAD DUP1 SWAP2 SUB SWAP1 REVERT JUMPDEST JUMP JUMPDEST PUSH0 PUSH1 0x2 PUSH0 DUP4 PUSH20 0xFFFFFFFFFFFFFFFFFFFFFFFFFFFFFFFFFFFFFFFF AND PUSH20 0xFFFFFFFFFFFFFFFFFFFFFFFFFFFFFFFFFFFFFFFF AND DUP2 MSTORE PUSH1 0x20 ADD SWAP1 DUP2 MSTORE PUSH1 0x20 ADD PUSH0 KECCAK256 DUP1 SLOAD DUP1 PUSH1 0x20 MUL PUSH1 0x20 ADD PUSH1 0x40 MLOAD SWAP1 DUP2 ADD PUSH1 0x40 MSTORE DUP1 SWAP3 SWAP2 SWAP1 DUP2 DUP2 MSTORE PUSH1 0x20 ADD DUP3 DUP1 SLOAD DUP1 ISZERO PUSH2 0xE1F JUMPI PUSH1 0x20 MUL DUP3 ADD SWAP2 SWAP1 PUSH0 MSTORE PUSH1 0x20 PUSH0 KECCAK256 SWAP1 JUMPDEST DUP2 SLOAD DUP2 MSTORE PUSH1 0x20 ADD SWAP1 PUSH1 0x1 ADD SWAP1 DUP1 DUP4 GT PUSH2 0xE0B JUMPI JUMPDEST POP POP POP POP POP SWAP1 POP PUSH0 DUP2 MLOAD SWAP1 POP PUSH0 JUMPDEST DUP2 DUP2 LT ISZERO PUSH2 0xEF2 JUMPI PUSH0 DUP4 DUP3 DUP2 MLOAD DUP2 LT PUSH2 0xE49 JUMPI PUSH2 0xE48 PUSH2 0x1907 JUMP JUMPDEST JUMPDEST PUSH1 0x20 MUL PUSH1 0x20 ADD ADD MLOAD SWAP1 POP PUSH2 0xE5D DUP6 DUP3 PUSH2 0x108C JUMP JUMPDEST PUSH1 0x3 PUSH0 DUP6 DUP5 DUP2 MLOAD DUP2 LT PUSH2 0xE73 JUMPI PUSH2 0xE72 PUSH2 0x1907 JUMP JUMPDEST JUMPDEST PUSH1 0x20 MUL PUSH1 0x20 ADD ADD MLOAD DUP2 MSTORE PUSH1 0x20 ADD SWAP1 DUP2 MSTORE PUSH1 0x20 ADD PUSH0 KECCAK256 DUP6 SWAP1 DUP1 PUSH1 0x1 DUP2 SLOAD ADD DUP1 DUP3 SSTORE DUP1 SWAP2 POP POP PUSH1 0x1 SWAP1 SUB SWAP1 PUSH0 MSTORE PUSH1 0x20 PUSH0 KECCAK256 ADD PUSH0 SWAP1 SWAP2 SWAP1 SWAP2 SWAP1 SWAP2 PUSH2 0x100 EXP DUP2 SLOAD DUP2 PUSH20 0xFFFFFFFFFFFFFFFFFFFFFFFFFFFFFFFFFFFFFFFF MUL NOT AND SWAP1 DUP4 PUSH20 0xFFFFFFFFFFFFFFFFFFFFFFFFFFFFFFFFFFFFFFFF AND MUL OR SWAP1 SSTORE POP DUP2 PUSH1 0x1 ADD SWAP2 POP POP PUSH2 0xE2D JUMP JUMPDEST POP POP POP POP JUMP JUMPDEST PUSH0 JUMPDEST DUP2 DUP2 LT ISZERO PUSH2 0xF73 JUMPI PUSH0 PUSH1 0x2 PUSH0 DUP6 PUSH20 0xFFFFFFFFFFFFFFFFFFFFFFFFFFFFFFFFFFFFFFFF AND PUSH20 0xFFFFFFFFFFFFFFFFFFFFFFFFFFFFFFFFFFFFFFFF AND DUP2 MSTORE PUSH1 0x20 ADD SWAP1 DUP2 MSTORE PUSH1 0x20 ADD PUSH0 KECCAK256 DUP3 DUP2 SLOAD DUP2 LT PUSH2 0xF52 JUMPI PUSH2 0xF51 PUSH2 0x1907 JUMP JUMPDEST JUMPDEST SWAP1 PUSH0 MSTORE PUSH1 0x20 PUSH0 KECCAK256 ADD SLOAD SWAP1 POP PUSH2 0xF67 DUP5 DUP3 PUSH2 0x108C JUMP JUMPDEST DUP2 PUSH1 0x1 ADD SWAP2 POP POP PUSH2 0xEFA JUMP JUMPDEST POP POP POP JUMP JUMPDEST PUSH0 DUP1 PUSH1 0x2 PUSH0 DUP5 PUSH20 0xFFFFFFFFFFFFFFFFFFFFFFFFFFFFFFFFFFFFFFFF AND PUSH20 0xFFFFFFFFFFFFFFFFFFFFFFFFFFFFFFFFFFFFFFFF AND DUP2 MSTORE PUSH1 0x20 ADD SWAP1 DUP2 MSTORE PUSH1 0x20 ADD PUSH0 KECCAK256 DUP1 SLOAD SWAP1 POP EQ ISZERO SWAP1 POP SWAP2 SWAP1 POP JUMP JUMPDEST PUSH0 DUP1 PUSH0 SWAP1 SLOAD SWAP1 PUSH2 0x100 EXP SWAP1 DIV PUSH20 0xFFFFFFFFFFFFFFFFFFFFFFFFFFFFFFFFFFFFFFFF AND SWAP1 POP DUP2 PUSH0 DUP1 PUSH2 0x100 EXP DUP2 SLOAD DUP2 PUSH20 0xFFFFFFFFFFFFFFFFFFFFFFFFFFFFFFFFFFFFFFFF MUL NOT AND SWAP1 DUP4 PUSH20 0xFFFFFFFFFFFFFFFFFFFFFFFFFFFFFFFFFFFFFFFF AND MUL OR SWAP1 SSTORE POP DUP2 PUSH20 0xFFFFFFFFFFFFFFFFFFFFFFFFFFFFFFFFFFFFFFFF AND DUP2 PUSH20 0xFFFFFFFFFFFFFFFFFFFFFFFFFFFFFFFFFFFFFFFF AND PUSH32 0x8BE0079C531659141344CD1FD0A4F28419497F9722A3DAAFE3B4186F6B6457E0 PUSH1 0x40 MLOAD PUSH1 0x40 MLOAD DUP1 SWAP2 SUB SWAP1 LOG3 POP POP JUMP JUMPDEST PUSH0 CALLER SWAP1 POP SWAP1 JUMP JUMPDEST PUSH0 PUSH1 0x3 PUSH0 DUP4 DUP2 MSTORE PUSH1 0x20 ADD SWAP1 DUP2 MSTORE PUSH1 0x20 ADD PUSH0 KECCAK256 DUP1 SLOAD DUP1 PUSH1 0x20 MUL PUSH1 0x20 ADD PUSH1 0x40 MLOAD SWAP1 DUP2 ADD PUSH1 0x40 MSTORE DUP1 SWAP3 SWAP2 SWAP1 DUP2 DUP2 MSTORE PUSH1 0x20 ADD DUP3 DUP1 SLOAD DUP1 ISZERO PUSH2 0x111B JUMPI PUSH1 0x20 MUL DUP3 ADD SWAP2 SWAP1 PUSH0 MSTORE PUSH1 0x20 PUSH0 KECCAK256 SWAP1 JUMPDEST DUP2 PUSH0 SWAP1 SLOAD SWAP1 PUSH2 0x100 EXP SWAP1 DIV PUSH20 0xFFFFFFFFFFFFFFFFFFFFFFFFFFFFFFFFFFFFFFFF AND PUSH20 0xFFFFFFFFFFFFFFFFFFFFFFFFFFFFFFFFFFFFFFFF AND DUP2 MSTORE PUSH1 0x20 ADD SWAP1 PUSH1 0x1 ADD SWAP1 DUP1 DUP4 GT PUSH2 0x10D2 JUMPI JUMPDEST POP POP POP POP POP SWAP1 POP PUSH0 DUP2 MLOAD SWAP1 POP PUSH0 JUMPDEST DUP2 DUP2 LT ISZERO PUSH2 0x1270 JUMPI DUP5 PUSH20 0xFFFFFFFFFFFFFFFFFFFFFFFFFFFFFFFFFFFFFFFF AND DUP4 DUP3 DUP2 MLOAD DUP2 LT PUSH2 0x115B JUMPI PUSH2 0x115A PUSH2 0x1907 JUMP JUMPDEST JUMPDEST PUSH1 0x20 MUL PUSH1 0x20 ADD ADD MLOAD PUSH20 0xFFFFFFFFFFFFFFFFFFFFFFFFFFFFFFFFFFFFFFFF AND SUB PUSH2 0x1265 JUMPI DUP3 PUSH1 0x1 DUP4 PUSH2 0x118C SWAP2 SWAP1 PUSH2 0x1961 JUMP JUMPDEST DUP2 MLOAD DUP2 LT PUSH2 0x119D JUMPI PUSH2 0x119C PUSH2 0x1907 JUMP JUMPDEST JUMPDEST PUSH1 0x20 MUL PUSH1 0x20 ADD ADD MLOAD PUSH1 0x3 PUSH0 DUP7 DUP2 MSTORE PUSH1 0x20 ADD SWAP1 DUP2 MSTORE PUSH1 0x20 ADD PUSH0 KECCAK256 DUP3 DUP2 SLOAD DUP2 LT PUSH2 0x11C8 JUMPI PUSH2 0x11C7 PUSH2 0x1907 JUMP JUMPDEST JUMPDEST SWAP1 PUSH0 MSTORE PUSH1 0x20 PUSH0 KECCAK256 ADD PUSH0 PUSH2 0x100 EXP DUP2 SLOAD DUP2 PUSH20 0xFFFFFFFFFFFFFFFFFFFFFFFFFFFFFFFFFFFFFFFF MUL NOT AND SWAP1 DUP4 PUSH20 0xFFFFFFFFFFFFFFFFFFFFFFFFFFFFFFFFFFFFFFFF AND MUL OR SWAP1 SSTORE POP PUSH1 0x3 PUSH0 DUP6 DUP2 MSTORE PUSH1 0x20 ADD SWAP1 DUP2 MSTORE PUSH1 0x20 ADD PUSH0 KECCAK256 DUP1 SLOAD DUP1 PUSH2 0x122E JUMPI PUSH2 0x122D PUSH2 0x1994 JUMP JUMPDEST JUMPDEST PUSH1 0x1 SWAP1 SUB DUP2 DUP2 SWAP1 PUSH0 MSTORE PUSH1 0x20 PUSH0 KECCAK256 ADD PUSH0 PUSH2 0x100 EXP DUP2 SLOAD SWAP1 PUSH20 0xFFFFFFFFFFFFFFFFFFFFFFFFFFFFFFFFFFFFFFFF MUL NOT AND SWAP1 SSTORE SWAP1 SSTORE PUSH2 0x1270 JUMP JUMPDEST DUP1 PUSH1 0x1 ADD SWAP1 POP PUSH2 0x1129 JUMP JUMPDEST POP POP POP POP POP JUMP JUMPDEST DUP3 DUP1 SLOAD DUP3 DUP3 SSTORE SWAP1 PUSH0 MSTORE PUSH1 0x20 PUSH0 KECCAK256 SWAP1 DUP2 ADD SWAP3 DUP3 ISZERO PUSH2 0x12B1 JUMPI SWAP2 PUSH1 0x20 MUL DUP3 ADD JUMPDEST DUP3 DUP2 GT ISZERO PUSH2 0x12B0 JUMPI DUP3 CALLDATALOAD DUP3 SSTORE SWAP2 PUSH1 0x20 ADD SWAP2 SWAP1 PUSH1 0x1 ADD SWAP1 PUSH2 0x1295 JUMP JUMPDEST JUMPDEST POP SWAP1 POP PUSH2 0x12BE SWAP2 SWAP1 PUSH2 0x12E0 JUMP JUMPDEST POP SWAP1 JUMP JUMPDEST POP DUP1 SLOAD PUSH0 DUP3 SSTORE SWAP1 PUSH0 MSTORE PUSH1 0x20 PUSH0 KECCAK256 SWAP1 DUP2 ADD SWAP1 PUSH2 0x12DD SWAP2 SWAP1 PUSH2 0x12E0 JUMP JUMPDEST POP JUMP JUMPDEST JUMPDEST DUP1 DUP3 GT ISZERO PUSH2 0x12F7 JUMPI PUSH0 DUP2 PUSH0 SWAP1 SSTORE POP PUSH1 0x1 ADD PUSH2 0x12E1 JUMP JUMPDEST POP SWAP1 JUMP JUMPDEST PUSH0 DUP1 REVERT JUMPDEST PUSH0 DUP1 REVERT JUMPDEST PUSH0 PUSH20 0xFFFFFFFFFFFFFFFFFFFFFFFFFFFFFFFFFFFFFFFF DUP3 AND SWAP1 POP SWAP2 SWAP1 POP JUMP JUMPDEST PUSH0 PUSH2 0x132C DUP3 PUSH2 0x1303 JUMP JUMPDEST SWAP1 POP SWAP2 SWAP1 POP JUMP JUMPDEST PUSH0 PUSH2 0x133D DUP3 PUSH2 0x1322 JUMP JUMPDEST SWAP1 POP SWAP2 SWAP1 POP JUMP JUMPDEST PUSH2 0x134D DUP2 PUSH2 0x1333 JUMP JUMPDEST DUP2 EQ PUSH2 0x1357 JUMPI PUSH0 DUP1 REVERT JUMPDEST POP JUMP JUMPDEST PUSH0 DUP2 CALLDATALOAD SWAP1 POP PUSH2 0x1368 DUP2 PUSH2 0x1344 JUMP JUMPDEST SWAP3 SWAP2 POP POP JUMP JUMPDEST PUSH0 DUP1 REVERT JUMPDEST PUSH0 DUP1 REVERT JUMPDEST PUSH0 DUP1 REVERT JUMPDEST PUSH0 DUP1 DUP4 PUSH1 0x1F DUP5 ADD SLT PUSH2 0x138F JUMPI PUSH2 0x138E PUSH2 0x136E JUMP JUMPDEST JUMPDEST DUP3 CALLDATALOAD SWAP1 POP PUSH8 0xFFFFFFFFFFFFFFFF DUP2 GT ISZERO PUSH2 0x13AC JUMPI PUSH2 0x13AB PUSH2 0x1372 JUMP JUMPDEST JUMPDEST PUSH1 0x20 DUP4 ADD SWAP2 POP DUP4 PUSH1 0x20 DUP3 MUL DUP4 ADD GT ISZERO PUSH2 0x13C8 JUMPI PUSH2 0x13C7 PUSH2 0x1376 JUMP JUMPDEST JUMPDEST SWAP3 POP SWAP3 SWAP1 POP JUMP JUMPDEST PUSH0 DUP1 PUSH0 PUSH1 0x40 DUP5 DUP7 SUB SLT ISZERO PUSH2 0x13E6 JUMPI PUSH2 0x13E5 PUSH2 0x12FB JUMP JUMPDEST JUMPDEST PUSH0 PUSH2 0x13F3 DUP7 DUP3 DUP8 ADD PUSH2 0x135A JUMP JUMPDEST SWAP4 POP POP PUSH1 0x20 DUP5 ADD CALLDATALOAD PUSH8 0xFFFFFFFFFFFFFFFF DUP2 GT ISZERO PUSH2 0x1414 JUMPI PUSH2 0x1413 PUSH2 0x12FF JUMP JUMPDEST JUMPDEST PUSH2 0x1420 DUP7 DUP3 DUP8 ADD PUSH2 0x137A JUMP JUMPDEST SWAP3 POP SWAP3 POP POP SWAP3 POP SWAP3 POP SWAP3 JUMP JUMPDEST PUSH0 PUSH1 0x20 DUP3 DUP5 SUB SLT ISZERO PUSH2 0x1441 JUMPI PUSH2 0x1440 PUSH2 0x12FB JUMP JUMPDEST JUMPDEST PUSH0 PUSH2 0x144E DUP5 DUP3 DUP6 ADD PUSH2 0x135A JUMP JUMPDEST SWAP2 POP POP SWAP3 SWAP2 POP POP JUMP JUMPDEST PUSH0 DUP2 MLOAD SWAP1 POP SWAP2 SWAP1 POP JUMP JUMPDEST PUSH0 DUP3 DUP3 MSTORE PUSH1 0x20 DUP3 ADD SWAP1 POP SWAP3 SWAP2 POP POP JUMP JUMPDEST PUSH0 DUP2 SWAP1 POP PUSH1 0x20 DUP3 ADD SWAP1 POP SWAP2 SWAP1 POP JUMP JUMPDEST PUSH0 DUP2 SWAP1 POP SWAP2 SWAP1 POP JUMP JUMPDEST PUSH2 0x1492 DUP2 PUSH2 0x1480 JUMP JUMPDEST DUP3 MSTORE POP POP JUMP JUMPDEST PUSH0 PUSH2 0x14A3 DUP4 DUP4 PUSH2 0x1489 JUMP JUMPDEST PUSH1 0x20 DUP4 ADD SWAP1 POP SWAP3 SWAP2 POP POP JUMP JUMPDEST PUSH0 PUSH1 0x20 DUP3 ADD SWAP1 POP SWAP2 SWAP1 POP JUMP JUMPDEST PUSH0 PUSH2 0x14C5 DUP3 PUSH2 0x1457 JUMP JUMPDEST PUSH2 0x14CF DUP2 DUP6 PUSH2 0x1461 JUMP JUMPDEST SWAP4 POP PUSH2 0x14DA DUP4 PUSH2 0x1471 JUMP JUMPDEST DUP1 PUSH0 JUMPDEST DUP4 DUP2 LT ISZERO PUSH2 0x150A JUMPI DUP2 MLOAD PUSH2 0x14F1 DUP9 DUP3 PUSH2 0x1498 JUMP JUMPDEST SWAP8 POP PUSH2 0x14FC DUP4 PUSH2 0x14AF JUMP JUMPDEST SWAP3 POP POP PUSH1 0x1 DUP2 ADD SWAP1 POP PUSH2 0x14DD JUMP JUMPDEST POP DUP6 SWAP4 POP POP POP POP SWAP3 SWAP2 POP POP JUMP JUMPDEST PUSH0 PUSH1 0x20 DUP3 ADD SWAP1 POP DUP2 DUP2 SUB PUSH0 DUP4 ADD MSTORE PUSH2 0x152F DUP2 DUP5 PUSH2 0x14BB JUMP JUMPDEST SWAP1 POP SWAP3 SWAP2 POP POP JUMP JUMPDEST PUSH2 0x1540 DUP2 PUSH2 0x1480 JUMP JUMPDEST DUP2 EQ PUSH2 0x154A JUMPI PUSH0 DUP1 REVERT JUMPDEST POP JUMP JUMPDEST PUSH0 DUP2 CALLDATALOAD SWAP1 POP PUSH2 0x155B DUP2 PUSH2 0x1537 JUMP JUMPDEST SWAP3 SWAP2 POP POP JUMP JUMPDEST PUSH0 DUP1 PUSH1 0x40 DUP4 DUP6 SUB SLT ISZERO PUSH2 0x1577 JUMPI PUSH2 0x1576 PUSH2 0x12FB JUMP JUMPDEST JUMPDEST PUSH0 PUSH2 0x1584 DUP6 DUP3 DUP7 ADD PUSH2 0x135A JUMP JUMPDEST SWAP3 POP POP PUSH1 0x20 PUSH2 0x1595 DUP6 DUP3 DUP7 ADD PUSH2 0x154D JUMP JUMPDEST SWAP2 POP POP SWAP3 POP SWAP3 SWAP1 POP JUMP JUMPDEST PUSH0 DUP2 ISZERO ISZERO SWAP1 POP SWAP2 SWAP1 POP JUMP JUMPDEST PUSH2 0x15B3 DUP2 PUSH2 0x159F JUMP JUMPDEST DUP3 MSTORE POP POP JUMP JUMPDEST PUSH0 PUSH1 0x20 DUP3 ADD SWAP1 POP PUSH2 0x15CC PUSH0 DUP4 ADD DUP5 PUSH2 0x15AA JUMP JUMPDEST SWAP3 SWAP2 POP POP JUMP JUMPDEST PUSH0 PUSH1 0x20 DUP3 DUP5 SUB SLT ISZERO PUSH2 0x15E7 JUMPI PUSH2 0x15E6 PUSH2 0x12FB JUMP JUMPDEST JUMPDEST PUSH0 PUSH2 0x15F4 DUP5 DUP3 DUP6 ADD PUSH2 0x154D JUMP JUMPDEST SWAP2 POP POP SWAP3 SWAP2 POP POP JUMP JUMPDEST PUSH0 DUP2 MLOAD SWAP1 POP SWAP2 SWAP1 POP JUMP JUMPDEST PUSH0 DUP3 DUP3 MSTORE PUSH1 0x20 DUP3 ADD SWAP1 POP SWAP3 SWAP2 POP POP JUMP JUMPDEST PUSH0 DUP2 SWAP1 POP PUSH1 0x20 DUP3 ADD SWAP1 POP SWAP2 SWAP1 POP JUMP JUMPDEST PUSH0 DUP2 SWAP1 POP SWAP2 SWAP1 POP JUMP JUMPDEST PUSH0 PUSH2 0x1649 PUSH2 0x1644 PUSH2 0x163F DUP5 PUSH2 0x1303 JUMP JUMPDEST PUSH2 0x1626 JUMP JUMPDEST PUSH2 0x1303 JUMP JUMPDEST SWAP1 POP SWAP2 SWAP1 POP JUMP JUMPDEST PUSH0 PUSH2 0x165A DUP3 PUSH2 0x162F JUMP JUMPDEST SWAP1 POP SWAP2 SWAP1 POP JUMP JUMPDEST PUSH0 PUSH2 0x166B DUP3 PUSH2 0x1650 JUMP JUMPDEST SWAP1 POP SWAP2 SWAP1 POP JUMP JUMPDEST PUSH2 0x167B DUP2 PUSH2 0x1661 JUMP JUMPDEST DUP3 MSTORE POP POP JUMP JUMPDEST PUSH0 PUSH2 0x168C DUP4 DUP4 PUSH2 0x1672 JUMP JUMPDEST PUSH1 0x20 DUP4 ADD SWAP1 POP SWAP3 SWAP2 POP POP JUMP JUMPDEST PUSH0 PUSH1 0x20 DUP3 ADD SWAP1 POP SWAP2 SWAP1 POP JUMP JUMPDEST PUSH0 PUSH2 0x16AE DUP3 PUSH2 0x15FD JUMP JUMPDEST PUSH2 0x16B8 DUP2 DUP6 PUSH2 0x1607 JUMP JUMPDEST SWAP4 POP PUSH2 0x16C3 DUP4 PUSH2 0x1617 JUMP JUMPDEST DUP1 PUSH0 JUMPDEST DUP4 DUP2 LT ISZERO PUSH2 0x16F3 JUMPI DUP2 MLOAD PUSH2 0x16DA DUP9 DUP3 PUSH2 0x1681 JUMP JUMPDEST SWAP8 POP PUSH2 0x16E5 DUP4 PUSH2 0x1698 JUMP JUMPDEST SWAP3 POP POP PUSH1 0x1 DUP2 ADD SWAP1 POP PUSH2 0x16C6 JUMP JUMPDEST POP DUP6 SWAP4 POP POP POP POP SWAP3 SWAP2 POP POP JUMP JUMPDEST PUSH0 PUSH1 0x20 DUP3 ADD SWAP1 POP DUP2 DUP2 SUB PUSH0 DUP4 ADD MSTORE PUSH2 0x1718 DUP2 DUP5 PUSH2 0x16A4 JUMP JUMPDEST SWAP1 POP SWAP3 SWAP2 POP POP JUMP JUMPDEST PUSH2 0x1729 DUP2 PUSH2 0x1322 JUMP JUMPDEST DUP3 MSTORE POP POP JUMP JUMPDEST PUSH0 PUSH1 0x20 DUP3 ADD SWAP1 POP PUSH2 0x1742 PUSH0 DUP4 ADD DUP5 PUSH2 0x1720 JUMP JUMPDEST SWAP3 SWAP2 POP POP JUMP JUMPDEST PUSH2 0x1751 DUP2 PUSH2 0x1322 JUMP JUMPDEST DUP2 EQ PUSH2 0x175B JUMPI PUSH0 DUP1 REVERT JUMPDEST POP JUMP JUMPDEST PUSH0 DUP2 CALLDATALOAD SWAP1 POP PUSH2 0x176C DUP2 PUSH2 0x1748 JUMP JUMPDEST SWAP3 SWAP2 POP POP JUMP JUMPDEST PUSH0 PUSH1 0x20 DUP3 DUP5 SUB SLT ISZERO PUSH2 0x1787 JUMPI PUSH2 0x1786 PUSH2 0x12FB JUMP JUMPDEST JUMPDEST PUSH0 PUSH2 0x1794 DUP5 DUP3 DUP6 ADD PUSH2 0x175E JUMP JUMPDEST SWAP2 POP POP SWAP3 SWAP2 POP POP JUMP JUMPDEST PUSH0 DUP3 DUP3 MSTORE PUSH1 0x20 DUP3 ADD SWAP1 POP SWAP3 SWAP2 POP POP JUMP JUMPDEST PUSH32 0x4552432D333634333A204E6F20636C61696D20746F7069637300000000000000 PUSH0 DUP3 ADD MSTORE POP JUMP JUMPDEST PUSH0 PUSH2 0x17E1 PUSH1 0x19 DUP4 PUSH2 0x179D JUMP JUMPDEST SWAP2 POP PUSH2 0x17EC DUP3 PUSH2 0x17AD JUMP JUMPDEST PUSH1 0x20 DUP3 ADD SWAP1 POP SWAP2 SWAP1 POP JUMP JUMPDEST PUSH0 PUSH1 0x20 DUP3 ADD SWAP1 POP DUP2 DUP2 SUB PUSH0 DUP4 ADD MSTORE PUSH2 0x180E DUP2 PUSH2 0x17D5 JUMP JUMPDEST SWAP1 POP SWAP2 SWAP1 POP JUMP JUMPDEST PUSH32 0x4552432D333634333A204E6F74206120636C61696D2069737375657200000000 PUSH0 DUP3 ADD MSTORE POP JUMP JUMPDEST PUSH0 PUSH2 0x1849 PUSH1 0x1C DUP4 PUSH2 0x179D JUMP JUMPDEST SWAP2 POP PUSH2 0x1854 DUP3 PUSH2 0x1815 JUMP JUMPDEST PUSH1 0x20 DUP3 ADD SWAP1 POP SWAP2 SWAP1 POP JUMP JUMPDEST PUSH0 PUSH1 0x20 DUP3 ADD SWAP1 POP DUP2 DUP2 SUB PUSH0 DUP4 ADD MSTORE PUSH2 0x1876 DUP2 PUSH2 0x183D JUMP JUMPDEST SWAP1 POP SWAP2 SWAP1 POP JUMP JUMPDEST PUSH0 DUP1 REVERT JUMPDEST DUP3 DUP2 DUP4 CALLDATACOPY POP POP POP JUMP JUMPDEST PUSH0 PUSH2 0x1895 DUP4 DUP6 PUSH2 0x1461 JUMP JUMPDEST SWAP4 POP PUSH32 0x7FFFFFFFFFFFFFFFFFFFFFFFFFFFFFFFFFFFFFFFFFFFFFFFFFFFFFFFFFFFFFF DUP4 GT ISZERO PUSH2 0x18C8 JUMPI PUSH2 0x18C7 PUSH2 0x187D JUMP JUMPDEST JUMPDEST PUSH1 0x20 DUP4 MUL SWAP3 POP PUSH2 0x18D9 DUP4 DUP6 DUP5 PUSH2 0x1881 JUMP JUMPDEST DUP3 DUP5 ADD SWAP1 POP SWAP4 SWAP3 POP POP POP JUMP JUMPDEST PUSH0 PUSH1 0x20 DUP3 ADD SWAP1 POP DUP2 DUP2 SUB PUSH0 DUP4 ADD MSTORE PUSH2 0x18FE DUP2 DUP5 DUP7 PUSH2 0x188A JUMP JUMPDEST SWAP1 POP SWAP4 SWAP3 POP POP POP JUMP JUMPDEST PUSH32 0x4E487B7100000000000000000000000000000000000000000000000000000000 PUSH0 MSTORE PUSH1 0x32 PUSH1 0x4 MSTORE PUSH1 0x24 PUSH0 REVERT JUMPDEST PUSH32 0x4E487B7100000000000000000000000000000000000000000000000000000000 PUSH0 MSTORE PUSH1 0x11 PUSH1 0x4 MSTORE PUSH1 0x24 PUSH0 REVERT JUMPDEST PUSH0 PUSH2 0x196B DUP3 PUSH2 0x1480 JUMP JUMPDEST SWAP2 POP PUSH2 0x1976 DUP4 PUSH2 0x1480 JUMP JUMPDEST SWAP3 POP DUP3 DUP3 SUB SWAP1 POP DUP2 DUP2 GT ISZERO PUSH2 0x198E JUMPI PUSH2 0x198D PUSH2 0x1934 JUMP JUMPDEST JUMPDEST SWAP3 SWAP2 POP POP JUMP JUMPDEST PUSH32 0x4E487B7100000000000000000000000000000000000000000000000000000000 PUSH0 MSTORE PUSH1 0x31 PUSH1 0x4 MSTORE PUSH1 0x24 PUSH0 REVERT JUMPDEST PUSH32 0x4552432D333634333A2049737375657220646F65736E27742065786973740000 PUSH0 DUP3 ADD MSTORE POP JUMP JUMPDEST PUSH0 PUSH2 0x19F5 PUSH1 0x1E DUP4 PUSH2 0x179D JUMP JUMPDEST SWAP2 POP PUSH2 0x1A00 DUP3 PUSH2 0x19C1 JUMP JUMPDEST PUSH1 0x20 DUP3 ADD SWAP1 POP SWAP2 SWAP1 POP JUMP JUMPDEST PUSH0 PUSH1 0x20 DUP3 ADD SWAP1 POP DUP2 DUP2 SUB PUSH0 DUP4 ADD MSTORE PUSH2 0x1A22 DUP2 PUSH2 0x19E9 JUMP JUMPDEST SWAP1 POP SWAP2 SWAP1 POP JUMP JUMPDEST PUSH32 0x4552432D333634333A20496E76616C6964207A65726F20616464726573730000 PUSH0 DUP3 ADD MSTORE POP JUMP JUMPDEST PUSH0 PUSH2 0x1A5D PUSH1 0x1E DUP4 PUSH2 0x179D JUMP JUMPDEST SWAP2 POP PUSH2 0x1A68 DUP3 PUSH2 0x1A29 JUMP JUMPDEST PUSH1 0x20 DUP3 ADD SWAP1 POP SWAP2 SWAP1 POP JUMP JUMPDEST PUSH0 PUSH1 0x20 DUP3 ADD SWAP1 POP DUP2 DUP2 SUB PUSH0 DUP4 ADD MSTORE PUSH2 0x1A8A DUP2 PUSH2 0x1A51 JUMP JUMPDEST SWAP1 POP SWAP2 SWAP1 POP JUMP JUMPDEST PUSH32 0x4552432D333634333A2049737375657220616C72656164792065786973747300 PUSH0 DUP3 ADD MSTORE POP JUMP JUMPDEST PUSH0 PUSH2 0x1AC5 PUSH1 0x1F DUP4 PUSH2 0x179D JUMP JUMPDEST SWAP2 POP PUSH2 0x1AD0 DUP3 PUSH2 0x1A91 JUMP JUMPDEST PUSH1 0x20 DUP3 ADD SWAP1 POP SWAP2 SWAP1 POP JUMP JUMPDEST PUSH0 PUSH1 0x20 DUP3 ADD SWAP1 POP DUP2 DUP2 SUB PUSH0 DUP4 ADD MSTORE PUSH2 0x1AF2 DUP2 PUSH2 0x1AB9 JUMP JUMPDEST SWAP1 POP SWAP2 SWAP1 POP JUMP JUMPDEST PUSH32 0x4552432D333634333A20456D70747920636C61696D20746F7069637300000000 PUSH0 DUP3 ADD MSTORE POP JUMP JUMPDEST PUSH0 PUSH2 0x1B2D PUSH1 0x1C DUP4 PUSH2 0x179D JUMP JUMPDEST SWAP2 POP PUSH2 0x1B38 DUP3 PUSH2 0x1AF9 JUMP JUMPDEST PUSH1 0x20 DUP3 ADD SWAP1 POP SWAP2 SWAP1 POP JUMP JUMPDEST PUSH0 PUSH1 0x20 DUP3 ADD SWAP1 POP DUP2 DUP2 SUB PUSH0 DUP4 ADD MSTORE PUSH2 0x1B5A DUP2 PUSH2 0x1B21 JUMP JUMPDEST SWAP1 POP SWAP2 SWAP1 POP JUMP INVALID LOG2 PUSH5 0x6970667358 0x22 SLT KECCAK256 SWAP11 0xEF CALLCODE 0xBF PUSH18 0x839148E70434184C466A17740C1C1B9DE7B1 PUSH9 0xBE11B7EB6402406264 PUSH20 0x6F6C634300081400330000000000000000000000 "
				},
				"gasEstimates": {
					"creation": {
						"codeDepositCost": "1412600",
						"executionCost": "infinite",
						"totalCost": "infinite"
					},
					"external": {
						"addClaimIssuer(address,uint256[])": "infinite",
						"getClaimIssuerClaimTopics(address)": "infinite",
						"getClaimIssuers()": "infinite",
						"getClaimIssuersForClaimTopic(uint256)": "infinite",
						"hasClaimTopic(address,uint256)": "infinite",
						"isClaimIssuer(address)": "2958",
						"owner()": "2581",
						"removeClaimIssuer(address)": "infinite",
						"renounceOwnership()": "infinite",
						"transferOwnership(address)": "infinite",
						"updateIssuerClaimTopics(address,uint256[])": "infinite"
					},
					"internal": {
						"_isClaimIssuer(contract IClaimIssuer)": "2238",
						"_removeClaimIssuerFromAllClaimTopics(contract IClaimIssuer,uint256)": "infinite",
						"_removeIssuerFromTopic(contract IClaimIssuer,uint256)": "infinite",
						"_updateIssuerAcrossAllTopics(contract IClaimIssuer)": "infinite"
					}
				},
				"methodIdentifiers": {
					"addClaimIssuer(address,uint256[])": "38d742a4",
					"getClaimIssuerClaimTopics(address)": "122dade8",
					"getClaimIssuers()": "d4f4ac4e",
					"getClaimIssuersForClaimTopic(uint256)": "6b2c56bd",
					"hasClaimTopic(address,uint256)": "34a89987",
					"isClaimIssuer(address)": "6de48708",
					"owner()": "8da5cb5b",
					"removeClaimIssuer(address)": "0b4b764c",
					"renounceOwnership()": "715018a6",
					"transferOwnership(address)": "f2fde38b",
					"updateIssuerClaimTopics(address,uint256[])": "04bc7e84"
				}
			},
			"storageLayout": {
				"storage": [
					{
						"astId": 337,
						"contract": "contracts/registry/ClaimIssuersRegistry.sol:ClaimIssuersRegistry",
						"label": "_owner",
						"offset": 0,
						"slot": "0",
						"type": "t_address"
					},
					{
						"astId": 523,
						"contract": "contracts/registry/ClaimIssuersRegistry.sol:ClaimIssuersRegistry",
						"label": "_claimIssuers",
						"offset": 0,
						"slot": "1",
						"type": "t_array(t_contract(IClaimIssuer)49)dyn_storage"
					},
					{
						"astId": 530,
						"contract": "contracts/registry/ClaimIssuersRegistry.sol:ClaimIssuersRegistry",
						"label": "_claimIssuerClaimTopics",
						"offset": 0,
						"slot": "2",
						"type": "t_mapping(t_contract(IClaimIssuer)49,t_array(t_uint256)dyn_storage)"
					},
					{
						"astId": 537,
						"contract": "contracts/registry/ClaimIssuersRegistry.sol:ClaimIssuersRegistry",
						"label": "_claimTopicToClaimIssuers",
						"offset": 0,
						"slot": "3",
						"type": "t_mapping(t_uint256,t_array(t_contract(IClaimIssuer)49)dyn_storage)"
					}
				],
				"types": {
					"t_address": {
						"encoding": "inplace",
						"label": "address",
						"numberOfBytes": "20"
					},
					"t_array(t_contract(IClaimIssuer)49)dyn_storage": {
						"base": "t_contract(IClaimIssuer)49",
						"encoding": "dynamic_array",
						"label": "contract IClaimIssuer[]",
						"numberOfBytes": "32"
					},
					"t_array(t_uint256)dyn_storage": {
						"base": "t_uint256",
						"encoding": "dynamic_array",
						"label": "uint256[]",
						"numberOfBytes": "32"
					},
					"t_contract(IClaimIssuer)49": {
						"encoding": "inplace",
						"label": "contract IClaimIssuer",
						"numberOfBytes": "20"
					},
					"t_mapping(t_contract(IClaimIssuer)49,t_array(t_uint256)dyn_storage)": {
						"encoding": "mapping",
						"key": "t_contract(IClaimIssuer)49",
						"label": "mapping(contract IClaimIssuer => uint256[])",
						"numberOfBytes": "32",
						"value": "t_array(t_uint256)dyn_storage"
					},
					"t_mapping(t_uint256,t_array(t_contract(IClaimIssuer)49)dyn_storage)": {
						"encoding": "mapping",
						"key": "t_uint256",
						"label": "mapping(uint256 => contract IClaimIssuer[])",
						"numberOfBytes": "32",
						"value": "t_array(t_contract(IClaimIssuer)49)dyn_storage"
					},
					"t_uint256": {
						"encoding": "inplace",
						"label": "uint256",
						"numberOfBytes": "32"
					}
				}
			},
			"userdoc": {
				"events": {
					"ClaimIssuerAdded(address,uint256[])": {
						"notice": "this event is emitted when a claim issuer is added in the registry.  the event is emitted by the addClaimIssuer function  `claimIssuer` is the address of the claim issuer's ClaimIssuer contract  `claimTopics` is the set of claims that the claim issuer is allowed to emit"
					},
					"ClaimIssuerRemoved(address)": {
						"notice": "this event is emitted when a claim issuer is removed from the registry.  the event is emitted by the removeClaimIssuer function  `claimIssuer` is the address of the claim issuer's ClaimIssuer contract"
					},
					"ClaimTopicsUpdated(address,uint256[])": {
						"notice": "this event is emitted when the set of claim topics is changed for a given claim issuer.  the event is emitted by the updateIssuerClaimTopics function  `claimIssuer` is the address of the claim issuer's ClaimIssuer contract  `claimTopics` is the set of claims that the claim issuer is allowed to emit"
					}
				},
				"kind": "user",
				"methods": {
					"addClaimIssuer(address,uint256[])": {
						"notice": "Adds a claim issuer to the Claim Issuers Registry."
					},
					"getClaimIssuerClaimTopics(address)": {
						"notice": "Returns an array of claim topics associated with a specific claim issuer."
					},
					"getClaimIssuers()": {
						"notice": "Returns an array of all claim issuers in the registry."
					},
					"getClaimIssuersForClaimTopic(uint256)": {
						"notice": "Returns an array of all claim issuers associated with a specific claim topic."
					},
					"hasClaimTopic(address,uint256)": {
						"notice": "Checks if a claim issuer has a specific claim topic."
					},
					"isClaimIssuer(address)": {
						"notice": "Checks if an address is a claim issuer in the registry."
					},
					"removeClaimIssuer(address)": {
						"notice": "Removes a claim issuer from the Claim Issuers Registry."
					},
					"updateIssuerClaimTopics(address,uint256[])": {
						"notice": "Updates the claim topics associated with a claim issuer."
					}
				},
				"version": 1
			}
		}
	}
}